{
  "_format": "hh-sol-artifact-1",
  "contractName": "ClayMarketplace",
  "sourceName": "ClayMarketplace.sol",
  "abi": [
    {
      "inputs": [
        {
          "internalType": "address",
          "name": "_libraryContract",
          "type": "address"
        }
      ],
      "stateMutability": "nonpayable",
      "type": "constructor"
    },
    {
      "inputs": [
        {
          "internalType": "address",
          "name": "owner",
          "type": "address"
        }
      ],
      "name": "OwnableInvalidOwner",
      "type": "error"
    },
    {
      "inputs": [
        {
          "internalType": "address",
          "name": "account",
          "type": "address"
        }
      ],
      "name": "OwnableUnauthorizedAccount",
      "type": "error"
    },
    {
      "inputs": [],
      "name": "ReentrancyGuardReentrantCall",
      "type": "error"
    },
    {
      "anonymous": false,
      "inputs": [
        {
          "indexed": true,
          "internalType": "string",
          "name": "projectId",
          "type": "string"
        },
        {
          "indexed": true,
          "internalType": "address",
          "name": "seller",
          "type": "address"
        },
        {
          "indexed": false,
          "internalType": "uint256",
          "name": "price",
          "type": "uint256"
        },
        {
          "indexed": false,
          "internalType": "uint256",
          "name": "timestamp",
          "type": "uint256"
        }
      ],
      "name": "AssetListed",
      "type": "event"
    },
    {
      "anonymous": false,
      "inputs": [
        {
          "indexed": true,
          "internalType": "string",
          "name": "projectId",
          "type": "string"
        },
        {
          "indexed": true,
          "internalType": "address",
          "name": "seller",
          "type": "address"
        },
        {
          "indexed": true,
          "internalType": "address",
          "name": "buyer",
          "type": "address"
        },
        {
          "indexed": false,
          "internalType": "uint256",
          "name": "price",
          "type": "uint256"
        },
        {
          "indexed": false,
          "internalType": "uint256",
          "name": "platformFee",
          "type": "uint256"
        }
      ],
      "name": "AssetSold",
      "type": "event"
    },
    {
      "anonymous": false,
      "inputs": [
        {
          "indexed": true,
          "internalType": "string",
          "name": "projectId",
          "type": "string"
        },
        {
          "indexed": true,
          "internalType": "address",
          "name": "seller",
          "type": "address"
        }
      ],
      "name": "ListingCancelled",
      "type": "event"
    },
    {
      "anonymous": false,
      "inputs": [
        {
          "indexed": true,
          "internalType": "string",
          "name": "projectId",
          "type": "string"
        },
        {
          "indexed": false,
          "internalType": "uint256",
          "name": "oldPrice",
          "type": "uint256"
        },
        {
          "indexed": false,
          "internalType": "uint256",
          "name": "newPrice",
          "type": "uint256"
        }
      ],
      "name": "ListingPriceUpdated",
      "type": "event"
    },
    {
      "anonymous": false,
      "inputs": [
        {
          "indexed": true,
          "internalType": "uint256",
          "name": "offerId",
          "type": "uint256"
        },
        {
          "indexed": true,
          "internalType": "string",
          "name": "projectId",
          "type": "string"
        },
        {
          "indexed": true,
          "internalType": "address",
          "name": "seller",
          "type": "address"
        },
        {
          "indexed": false,
          "internalType": "address",
          "name": "buyer",
          "type": "address"
        },
        {
          "indexed": false,
          "internalType": "uint256",
          "name": "price",
          "type": "uint256"
        }
      ],
      "name": "OfferAccepted",
      "type": "event"
    },
    {
      "anonymous": false,
      "inputs": [
        {
          "indexed": true,
          "internalType": "uint256",
          "name": "offerId",
          "type": "uint256"
        },
        {
          "indexed": true,
          "internalType": "string",
          "name": "projectId",
          "type": "string"
        },
        {
          "indexed": true,
          "internalType": "address",
          "name": "buyer",
          "type": "address"
        }
      ],
      "name": "OfferCancelled",
      "type": "event"
    },
    {
      "anonymous": false,
      "inputs": [
        {
          "indexed": true,
          "internalType": "uint256",
          "name": "offerId",
          "type": "uint256"
        },
        {
          "indexed": true,
          "internalType": "string",
          "name": "projectId",
          "type": "string"
        },
        {
          "indexed": true,
          "internalType": "address",
          "name": "buyer",
          "type": "address"
        },
        {
          "indexed": false,
          "internalType": "uint256",
          "name": "offerPrice",
          "type": "uint256"
        },
        {
          "indexed": false,
          "internalType": "uint256",
          "name": "expiresAt",
          "type": "uint256"
        }
      ],
      "name": "OfferCreated",
      "type": "event"
    },
    {
      "anonymous": false,
      "inputs": [
        {
          "indexed": true,
          "internalType": "address",
          "name": "previousOwner",
          "type": "address"
        },
        {
          "indexed": true,
          "internalType": "address",
          "name": "newOwner",
          "type": "address"
        }
      ],
      "name": "OwnershipTransferred",
      "type": "event"
    },
    {
      "inputs": [],
      "name": "FEE_DENOMINATOR",
      "outputs": [
        {
          "internalType": "uint256",
          "name": "",
          "type": "uint256"
        }
      ],
      "stateMutability": "view",
      "type": "function"
    },
    {
      "inputs": [],
      "name": "USDC_ADDRESS",
      "outputs": [
        {
          "internalType": "address",
          "name": "",
          "type": "address"
        }
      ],
      "stateMutability": "view",
      "type": "function"
    },
    {
      "inputs": [
        {
          "internalType": "uint256",
          "name": "offerId",
          "type": "uint256"
        }
      ],
      "name": "acceptOffer",
      "outputs": [],
      "stateMutability": "nonpayable",
      "type": "function"
    },
    {
      "inputs": [
        {
          "internalType": "uint256",
          "name": "",
          "type": "uint256"
        }
      ],
      "name": "activeListings",
      "outputs": [
        {
          "internalType": "string",
          "name": "",
          "type": "string"
        }
      ],
      "stateMutability": "view",
      "type": "function"
    },
    {
      "inputs": [
        {
          "internalType": "string",
          "name": "projectId",
          "type": "string"
        }
      ],
      "name": "buyAsset",
      "outputs": [],
      "stateMutability": "payable",
      "type": "function"
    },
    {
      "inputs": [
        {
          "internalType": "string",
          "name": "projectId",
          "type": "string"
        }
      ],
      "name": "cancelListing",
      "outputs": [],
      "stateMutability": "nonpayable",
      "type": "function"
    },
    {
      "inputs": [
        {
          "internalType": "uint256",
          "name": "offerId",
          "type": "uint256"
        }
      ],
      "name": "cancelOffer",
      "outputs": [],
      "stateMutability": "nonpayable",
      "type": "function"
    },
    {
      "inputs": [],
      "name": "getActiveListingsCount",
      "outputs": [
        {
          "internalType": "uint256",
          "name": "",
          "type": "uint256"
        }
      ],
      "stateMutability": "view",
      "type": "function"
    },
    {
      "inputs": [
        {
          "internalType": "string",
          "name": "projectId",
          "type": "string"
        }
      ],
      "name": "getProjectOffers",
      "outputs": [
        {
          "internalType": "uint256[]",
          "name": "",
          "type": "uint256[]"
        }
      ],
      "stateMutability": "view",
      "type": "function"
    },
    {
      "inputs": [],
      "name": "libraryContract",
      "outputs": [
        {
          "internalType": "contract IClayLibrary",
          "name": "",
          "type": "address"
        }
      ],
      "stateMutability": "view",
      "type": "function"
    },
    {
      "inputs": [
        {
          "internalType": "string",
          "name": "projectId",
          "type": "string"
        },
        {
          "internalType": "uint256",
          "name": "price",
          "type": "uint256"
        },
        {
          "internalType": "enum ClayMarketplace.PaymentToken",
          "name": "paymentToken",
          "type": "uint8"
        }
      ],
      "name": "listAsset",
      "outputs": [],
      "stateMutability": "nonpayable",
      "type": "function"
    },
    {
      "inputs": [
        {
          "internalType": "string",
          "name": "",
          "type": "string"
        }
      ],
      "name": "listings",
      "outputs": [
        {
          "internalType": "string",
          "name": "projectId",
          "type": "string"
        },
        {
          "internalType": "address",
          "name": "seller",
          "type": "address"
        },
        {
          "internalType": "uint256",
          "name": "price",
          "type": "uint256"
        },
        {
          "internalType": "enum ClayMarketplace.PaymentToken",
          "name": "paymentToken",
          "type": "uint8"
        },
        {
          "internalType": "uint256",
          "name": "listedAt",
          "type": "uint256"
        },
        {
          "internalType": "bool",
          "name": "isActive",
          "type": "bool"
        }
      ],
      "stateMutability": "view",
      "type": "function"
    },
    {
      "inputs": [
        {
          "internalType": "string",
          "name": "projectId",
          "type": "string"
        },
        {
          "internalType": "uint256",
          "name": "offerPrice",
          "type": "uint256"
        },
        {
          "internalType": "enum ClayMarketplace.PaymentToken",
          "name": "paymentToken",
          "type": "uint8"
        },
        {
          "internalType": "uint256",
          "name": "duration",
          "type": "uint256"
        }
      ],
      "name": "makeOffer",
      "outputs": [],
      "stateMutability": "payable",
      "type": "function"
    },
    {
      "inputs": [],
      "name": "nextOfferId",
      "outputs": [
        {
          "internalType": "uint256",
          "name": "",
          "type": "uint256"
        }
      ],
      "stateMutability": "view",
      "type": "function"
    },
    {
      "inputs": [
        {
          "internalType": "uint256",
          "name": "",
          "type": "uint256"
        }
      ],
      "name": "offers",
      "outputs": [
        {
          "internalType": "string",
          "name": "projectId",
          "type": "string"
        },
        {
          "internalType": "address",
          "name": "buyer",
          "type": "address"
        },
        {
          "internalType": "uint256",
          "name": "offerPrice",
          "type": "uint256"
        },
        {
          "internalType": "enum ClayMarketplace.PaymentToken",
          "name": "paymentToken",
          "type": "uint8"
        },
        {
          "internalType": "uint256",
          "name": "offeredAt",
          "type": "uint256"
        },
        {
          "internalType": "uint256",
          "name": "expiresAt",
          "type": "uint256"
        },
        {
          "internalType": "bool",
          "name": "isActive",
          "type": "bool"
        }
      ],
      "stateMutability": "view",
      "type": "function"
    },
    {
      "inputs": [],
      "name": "owner",
      "outputs": [
        {
          "internalType": "address",
          "name": "",
          "type": "address"
        }
      ],
      "stateMutability": "view",
      "type": "function"
    },
    {
      "inputs": [],
      "name": "platformFeePercentage",
      "outputs": [
        {
          "internalType": "uint256",
          "name": "",
          "type": "uint256"
        }
      ],
      "stateMutability": "view",
      "type": "function"
    },
    {
      "inputs": [
        {
          "internalType": "string",
          "name": "",
          "type": "string"
        },
        {
          "internalType": "uint256",
          "name": "",
          "type": "uint256"
        }
      ],
      "name": "projectOffers",
      "outputs": [
        {
          "internalType": "uint256",
          "name": "",
          "type": "uint256"
        }
      ],
      "stateMutability": "view",
      "type": "function"
    },
    {
      "inputs": [],
      "name": "renounceOwnership",
      "outputs": [],
      "stateMutability": "nonpayable",
      "type": "function"
    },
    {
      "inputs": [
        {
          "internalType": "address",
          "name": "newOwner",
          "type": "address"
        }
      ],
      "name": "transferOwnership",
      "outputs": [],
      "stateMutability": "nonpayable",
      "type": "function"
    },
    {
      "inputs": [
        {
          "internalType": "string",
          "name": "projectId",
          "type": "string"
        },
        {
          "internalType": "uint256",
          "name": "newPrice",
          "type": "uint256"
        }
      ],
      "name": "updateListingPrice",
      "outputs": [],
      "stateMutability": "nonpayable",
      "type": "function"
    },
    {
      "inputs": [
        {
          "internalType": "uint256",
          "name": "newFeePercentage",
          "type": "uint256"
        }
      ],
      "name": "updatePlatformFee",
      "outputs": [],
      "stateMutability": "nonpayable",
      "type": "function"
    },
    {
      "inputs": [],
      "name": "usdcToken",
      "outputs": [
        {
          "internalType": "contract IERC20",
          "name": "",
          "type": "address"
        }
      ],
      "stateMutability": "view",
      "type": "function"
    },
    {
      "inputs": [],
      "name": "withdrawPlatformFees",
      "outputs": [],
      "stateMutability": "nonpayable",
      "type": "function"
    },
    {
      "inputs": [],
      "name": "withdrawPlatformFeesUSDC",
      "outputs": [],
      "stateMutability": "nonpayable",
      "type": "function"
    }
  ],
  "bytecode": "0x60a03461012157601f62002aee38819003918201601f19168301916001600160401b038311848410176101265780849260209460405283398101031261012157516001600160a01b0390818116908190036101215733156101085760005460018060a01b0319903382821617600055604051933391167f8be0079c531659141344cd1fd0a4f28419497f9722a3daafe3b4186f6b6457e0600080a360018055600160065560fa600855600254161760025573833589fcd6edb6e08f4c7c32d4f71b54bda029136080526129b190816200013d82396080518181816103a3015281816104b7015281816109a901528181610d640152818161133601528181611c7b01526128d60152f35b604051631e4fbdf760e01b815260006004820152602490fd5b600080fd5b634e487b7160e01b600052604160045260246000fdfe60806040908082526004908136101561001757600080fd5b600090813560e01c90816311eac85514611c675750806313b069151461195f5780635f5d06551461194057806361cf4863146118da578063715018a61461188057806377dec6c3146117d05780637b55927c146117b15780638a72ea6a146117175780638da5cb5b146116ef5780639122d5531461160f578063943f22611461151a578063a22355581461104b578063a3a6705814610ff2578063aa0b598814610f86578063bb09d9b714610f57578063c7ef967214610af0578063c815729d146106f2578063cdd78cfc146106d3578063ce0769c5146106aa578063d0b7830b1461062b578063d73792a91461060e578063dceb76861461047e578063ef706adf146102a4578063f2fde38b146102115763f941fb991461013857600080fd5b3461020e576020918260031936011261020a5780356001600160401b038111610206579261016e61018092829695369101611d0f565b81855193828580945193849201611ea0565b81016005815203019020908251808584549182815201908194845286842090845b8181106101f257505050816101b7910382611cd3565b83519485948186019282875251809352850193925b8281106101db57505050500390f35b8351855286955093810193928101926001016101cc565b8254845292880192600192830192016101a1565b8280fd5b5080fd5b80fd5b509134610206576020366003190112610206576001600160a01b038235818116939192908490036102a057610244611f3c565b831561028a575050600054826001600160601b0360a01b821617600055167f8be0079c531659141344cd1fd0a4f28419497f9722a3daafe3b4186f6b6457e0600080a380f35b51631e4fbdf760e01b8152908101849052602490fd5b8480fd5b50919034610206576020918260031936011261047a578135916102c561239e565b82855280845281852093600685018054926102e260ff85166123d0565b60018701546001600160a01b039290831633036104375760028801549460ff1916905560ff60038801541660028110156104245788939291906103765750505080808061033a94335af1610334612332565b50612362565b51806103478133956124a5565b039020907fa73002eb00b7f458173aec22cf4445bbdb98267f801a7fe3d22dba9382338cdb8480a46001805580f35b855163a9059cbb60e01b8152339181019182526020820195909552919283928592918391829060400103927f0000000000000000000000000000000000000000000000000000000000000000165af190811561041a5786916103e3575b506103de9150612362565b61033a565b905081813d8311610413575b6103f98183611cd3565b810103126102a05761040d6103de9161200d565b386103d3565b503d6103ef565b83513d88823e3d90fd5b634e487b7160e01b895260218252602489fd5b855162461bcd60e51b8152808301859052601b60248201527f4f6e6c792062757965722063616e2063616e63656c206f6666657200000000006044820152606490fd5b8380fd5b50823461020a578160031936011261020a57610498611f3c565b80516370a0823160e01b81523084820152926020906001600160a01b037f0000000000000000000000000000000000000000000000000000000000000000811691908387602481865afa9687156106045786976105d1575b50861561058e578554855163a9059cbb60e01b815291166001600160a01b031691810191825260208201969096529394938291859182908890829060400103925af19182156105855750839161054e575b8361054b83612527565b80f35b905081813d831161057e575b6105648183611cd3565b8101031261020a5761057861054b9161200d565b83610541565b503d61055a565b513d85823e3d90fd5b845162461bcd60e51b8152808301859052601860248201527f4e6f2055534443206665657320746f20776974686472617700000000000000006044820152606490fd5b9096508381813d83116105fd575b6105e98183611cd3565b810103126105f9575195876104f0565b8580fd5b503d6105df565b85513d88823e3d90fd5b50823461020a578160031936011261020a57602090516127108152f35b50919034610206578260031936011261020657610646611f3c565b47918215610671578361054b818080808860018060a01b038254165af161066b612332565b50612527565b906020606492519162461bcd60e51b835282015260136024820152724e6f206665657320746f20776974686472617760681b6044820152fd5b50823461020a578160031936011261020a5760025490516001600160a01b039091168152602090f35b50823461020a578160031936011261020a576020906008549051908152f35b509190346102065760208060031936011261047a5781359161071261239e565b828552808252838520936006850161072d60ff8254166123d0565b6005860154421015610abe576002548251630cd5286d60e41b81528481018690526001600160a01b039791899082908a16818061076d602482018861240f565b03915afa8015610ab45789918a91610a81575b5061078a906120bc565b8733911603610a3e5760028101968754926107b56127106107ad600854876122b0565b0480956122d9565b60ff6003850154166002811015610a2b57888c911560001461097d57508080806107ea94335af16107e4612332565b506122e6565b8982600254169660018501978489541691813b1561047a5783918991838351809681958294632203f8f160e01b8452830152610829604483018d61240f565b90602483015203925af1801561097357610955575b5050907f8c68d600771ad8af3c86a9f96bd5c471eca94aebd78ea274787f8e95e07aaa1095610909939260ff199081815416905560ff600588518b81610884818a6124a5565b600381520301902001541661091f575b506108a66108a184611dfa565b61276a565b5416809854978551806108b981866124a5565b03902086516001600160a01b03939093168352602083018a905233929091907f9332956e0c3dd558cabf109a274fd9184f7cd2081da1b9d9e28e702cf8a6cc5990604090a48351918280926124a5565b0390209382519586528501523393a46001805580f35b600587518a8161092f81896124a5565b60038152030190200190815416905561094f61094a84611dfa565b612643565b38610894565b6109629094939294611caa565b61096f579091893861083e565b8980fd5b87513d84823e3d90fd5b875163a9059cbb60e01b8152338a820190815260208101949094529290918391829081906040010391877f0000000000000000000000000000000000000000000000000000000000000000165af18015610a21578b906109e7575b6109e291506122e6565b6107ea565b508781813d8311610a1a575b6109fd8183611cd3565b81010312610a1657610a116109e29161200d565b6109d8565b8a80fd5b503d6109f3565b86513d8d823e3d90fd5b634e487b7160e01b8c526021885260248cfd5b825162461bcd60e51b8152808501869052601b60248201527f4f6e6c79206f776e65722063616e20616363657074206f6666657200000000006044820152606490fd5b61078a9250610aa291503d808c833e610a9a8183611cd3565b81019061201a565b50989750505093505050509190610780565b84513d8b823e3d90fd5b5091606492519162461bcd60e51b8352820152600d60248201526c13d999995c88195e1c1a5c9959609a1b6044820152fd5b50919060208060031936011261047a5781356001600160401b0381116102a057610b1d9036908401611d0f565b92610b2661239e565b805182818651610b398183858b01611ea0565b810160038152030190209260058401610b5560ff82541661226f565b6001850180546001600160a01b0390811693909290338514610f1457600288019788549560ff6003610b97612710610b8f6008548c6122b0565b04809a6122d9565b930154166002811015610f0157610d2e575088543410610ceb578a808080610bc794898954165af16107e4612332565b87548a813411610cc9575b50505b89846002541691823b1561020a57610c0b9288838d93825196879586948593632203f8f160e01b85528401526044830190611ec3565b33602483015203925af18015610cbf57610c80575b50805460ff191690557f8c68d600771ad8af3c86a9f96bd5c471eca94aebd78ea274787f8e95e07aaa10939291610c6d91610c5a89612643565b610c638961276a565b541695549661224f565b9382519687528601523394a46001805580f35b917f8c68d600771ad8af3c86a9f96bd5c471eca94aebd78ea274787f8e95e07aaa109594939199610cb3610c6d94611caa565b99919394955091610c20565b86513d8c823e3d90fd5b808080610cd9610ce495346122d9565b335af1610334612332565b388a610bd2565b865162461bcd60e51b8152808301899052601860248201527f496e73756666696369656e7420455448207061796d656e7400000000000000006044820152606490fd5b9034610eb45787516323b872dd60e01b808252338583019081526001600160a01b03909416602085015260408401929092528c927f0000000000000000000000000000000000000000000000000000000000000000881691908b9082908190606001038187865af1908115610eaa57908b9392918591610e71575b50610db3906122e6565b895191825233858301908152306020820152604081018a905291938492839190829060600103925af1908115610e67578b91610e32575b50610bd557855162461bcd60e51b8152908101879052601c60248201527f506c6174666f726d20666565207472616e73666572206661696c6564000000006044820152606490fd5b90508781813d8311610e60575b610e498183611cd3565b81010312610a1657610e5a9061200d565b38610dea565b503d610e3f565b87513d8d823e3d90fd5b84819592503d8311610ea3575b610e888183611cd3565b8101031261047a57610db3610e9d8c9461200d565b90610da9565b503d610e7e565b8a513d86823e3d90fd5b875162461bcd60e51b81528084018a9052602160248201527f446f206e6f742073656e642045544820666f72205553444320707572636861736044820152606560f81b6064820152608490fd5b634e487b7160e01b8d526021845260248dfd5b855162461bcd60e51b8152908101879052601960248201527f43616e6e6f742062757920796f7572206f776e206173736574000000000000006044820152606490fd5b50823461020a578160031936011261020a576020905173833589fcd6edb6e08f4c7c32d4f71b54bda029138152f35b5091903461020657602036600319011261020657803591610fa5611f3c565b6103e88311610fb657505060085580f35b906020606492519162461bcd60e51b8352820152601660248201527546656520746f6f206869676820286d6178203130252960501b6044820152fd5b50823461020a5760209161101c61100836611f0b565b949081855193828580945193849201611ea0565b8101600581520301902090815484101561020e575060209261103d91611da8565b91905490519160031b1c8152f35b5091906080366003190112610206576001600160401b0381358181116102a0576110789036908401611d0f565b9260249182359460449485359460028610156115165760649384359689156114de57610e10881015806114d1575b1561149e576002548751630cd5286d60e41b815260208682018190529a6001600160a01b03989290918e91829082908c1681806110e58c82018f611ec3565b03915afa90811561149457828092611468575b5050611103906120bc565b8816331461142a5782611300578b34036112cc5750505b60065497611127896123c1565b6006554201958642116112ba5787519260e08401908111848210176112a85789928c8e8a948e948d528a88526111978d868a0193338552818b0195865261117260608c019788612108565b8c60808c0198428a5260a08d019a8b5260c08d019b60018d5283525220985189612170565b600188019151166001600160601b0360a01b82541617905551600286015551600281101561129657918493916111d560069460036111f69801612237565b518785015551600584015551151591019060ff801983541691151516179055565b8451878185516112098183858a01611ea0565b8101600581520301902090815492600160401b8410156112855750509161125c827fcfed541454dac78f93da97764a61638d187363e6d64a389faa86edcaaf8932bc969594600161127695018155611da8565b81549060031b9088821b91600019901b191617905561224f565b9482519687528601523394a480f35b634e487b7160e01b8b526041905289fd5b634e487b7160e01b8e5260218752858efd5b634e487b7160e01b8d5260418652848dfd5b634e487b7160e01b8c5260118552838cfd5b7208aa89040c2dadeeadce840dad2e6dac2e8c6d606b1b86916013878e8d519562461bcd60e51b8752860152840152820152fd5b346113ec5788516323b872dd60e01b815233878201908152306020820152604081018e90528e91908d90829081900360600181857f00000000000000000000000000000000000000000000000000000000000000008f165af19182156113e157916113a8575b501561137357505061111a565b731554d110c81d1c985b9cd9995c8819985a5b195960621b86916014878e8d519562461bcd60e51b8752860152840152820152fd5b90508b81813d83116113da575b6113bf8183611cd3565b810103126113d6576113d09061200d565b38611366565b8d80fd5b503d6113b5565b8b51903d90823e3d90fd5b7f446f206e6f742073656e642045544820666f722055534443206f6666657200008691601e878e8d519562461bcd60e51b8752860152840152820152fd5b7f43616e6e6f74206f66666572206f6e20796f7572206f776e20617373657400008691601e878e8d519562461bcd60e51b8752860152840152820152fd5b611103935061148192503d8091833e610a9a8183611cd3565b509897505050935050505091908f6110f8565b8b513d84823e3d90fd5b865162461bcd60e51b81526020818601526010818501526f24b73b30b634b210323ab930ba34b7b760811b818b01528690fd5b5062278d008811156110a6565b865162461bcd60e51b8152602081860152601581850152744f66666572206d75737420686176652076616c756560581b818b01528690fd5b8880fd5b5091346102065760203660031901126102065781356001600160401b03811161047a5761154a9036908401611d0f565b918151602081855161155f8183858a01611ea0565b8101600381520301902090600582019283549261157e60ff851661226f565b600101546001600160a01b031633036115d357505060ff191690556115a281612643565b6115ac339161224f565b7f0ad06290f905050c9dac577e139b4b450621b456073e716db7561a52f3ff89288380a380f35b906020606492519162461bcd60e51b8352820152601660248201527513db9b1e481cd95b1b195c8818d85b8818d85b98d95b60521b6044820152fd5b5091346102065761161f36611f0b565b92825160208184516116348183858901611ea0565b810160038152030190209061164f60ff60058401541661226f565b60018201546001600160a01b031633036116b35750906116a460027f702cf1ff9b007b1ce6285f06d88972428a71330a6f9bc7ac9b49803661dd7bde9493611698871515611f68565b0191858354935561224f565b9382519182526020820152a280f35b606490602085519162461bcd60e51b835282015260166024820152754f6e6c792073656c6c65722063616e2075706461746560501b6044820152fd5b50823461020a578160031936011261020a57905490516001600160a01b039091168152602090f35b509190346102065760203660031901126102065781611789938235815282602052209161174383611dfa565b9260018060a01b036001820154169261179c60028301549160ff600385015416908401549260ff6006600587015496015416958051998a9960e08b5260e08b0190611ec3565b9760208a01528801526060870190611ee8565b608085015260a0840152151560c08301520390f35b50823461020a578160031936011261020a576020906007549051908152f35b50919034610206576020366003190112610206578035926001600160401b03841161020e575061180b602061016e61185d9536908501611d0f565b810160038152030190209161181f83611dfa565b9261187060018060a01b0360018301541693600283015460ff600581600387015416938601549501541694805198899860c08a5260c08a0190611ec3565b9660208901528701526060860190611ee8565b6080840152151560a08301520390f35b503461020e578060031936011261020e57611899611f3c565b80546001600160a01b03198116825581906001600160a01b03167f8be0079c531659141344cd1fd0a4f28419497f9722a3daafe3b4186f6b6457e08280a380f35b5082903461020e57602036600319011261020e57823560075481101561020a5761190390611d5b565b93909361192e5761192a8361191786611dfa565b9051918291602083526020830190611ec3565b0390f35b634e487b7160e01b8252819052602490fd5b50823461020a578160031936011261020a576020906006549051908152f35b509134610206576060366003190112610206576001600160401b039082358281116102a0576119919036908501611d0f565b602493843594604435946002861015611c63576119af871515611f68565b84519584519060ff60056020998a81818b01966119cd81838a611ea0565b81016003815203019020015416611c2a576002548751630cd5286d60e41b81528681018a90526001600160a01b03918c90829084168180611a108b82018e611ec3565b03915afa8015611c20578c918d91611bf5575b50611a2d906120bc565b8133911603611bb35787519360c0850190811185821017611ba15790889392918452878552898501338152848601918c8352611a6d606088019485612108565b611aa7611a958d60808a01974289528d60a08c019a60018c5251938492839251928391611ea0565b81016003815203019020975188612170565b600187019151166001600160601b0360a01b825416179055516002850155516002811015611b8f5791600591611ae485946003611aff9701612237565b518684015551151591019060ff801983541691151516179055565b600754600160401b811015611b7d57806001611b1e9201600755611d5b565b929092611b6d57505081611b577ff34a4c127ff02f03c1d1fb093bb2c95ec0cfd3c38220b818ef19234533c6b96c9493611b5c93612170565b61224f565b92815194855242908501523393a380f35b634e487b7160e01b885287905286fd5b50634e487b7160e01b87526041825286fd5b634e487b7160e01b8b5260218652848bfd5b634e487b7160e01b8c5260418752858cfd5b875162461bcd60e51b81528087018a90526019818701527f4f6e6c79206f776e65722063616e206c697374206173736574000000000000006044820152606490fd5b611a2d9250611c0e91503d808f833e610a9a8183611cd3565b50989750505093505050509190611a23565b89513d8e823e3d90fd5b865162461bcd60e51b815280860189905260148186015273105cdcd95d08185b1c9958591e481b1a5cdd195960621b6044820152606490fd5b8780fd5b90503461020a578160031936011261020a577f00000000000000000000000000000000000000000000000000000000000000006001600160a01b03168152602090f35b6001600160401b038111611cbd57604052565b634e487b7160e01b600052604160045260246000fd5b90601f801991011681019081106001600160401b03821117611cbd57604052565b6001600160401b038111611cbd57601f01601f191660200190565b81601f82011215611d5657803590611d2682611cf4565b92611d346040519485611cd3565b82845260208383010111611d5657816000926020809301838601378301015290565b600080fd5b600754811015611d925760076000527fa66cc928b5edb82af9bd49922954155ab7b0942694bea4ce44661d9a8736c6880190600090565b634e487b7160e01b600052603260045260246000fd5b8054821015611d925760005260206000200190600090565b90600182811c92168015611df0575b6020831014611dda57565b634e487b7160e01b600052602260045260246000fd5b91607f1691611dcf565b9060405191826000825492611e0e84611dc0565b908184526001948581169081600014611e7d5750600114611e3a575b5050611e3892500383611cd3565b565b9093915060005260209081600020936000915b818310611e65575050611e3893508201013880611e2a565b85548884018501529485019487945091830191611e4d565b915050611e3894506020925060ff191682840152151560051b8201013880611e2a565b60005b838110611eb35750506000910152565b8181015183820152602001611ea3565b90602091611edc81518092818552858086019101611ea0565b601f01601f1916010190565b906002821015611ef55752565b634e487b7160e01b600052602160045260246000fd5b6040600319820112611d5657600435906001600160401b038211611d5657611f3591600401611d0f565b9060243590565b6000546001600160a01b03163303611f5057565b60405163118cdaa760e01b8152336004820152602490fd5b15611f6f57565b60405162461bcd60e51b815260206004820152601c60248201527f5072696365206d7573742062652067726561746572207468616e2030000000006044820152606490fd5b81601f82011215611d56578051611fca81611cf4565b92611fd86040519485611cd3565b81845260208284010111611d5657611ff69160208085019101611ea0565b90565b51906001600160a01b0382168203611d5657565b51908115158203611d5657565b61014081830312611d56578051926001600160401b0393848111611d565783612044918401611fb4565b936020830151818111611d56578461205d918501611fb4565b936040840151918211611d5657612075918401611fb4565b9160608101519160808201519161208e60a08201611ff9565b9161209b60c08301611ff9565b9160e081015191611ff66101206120b5610100850161200d565b930161200d565b156120c357565b60405162461bcd60e51b815260206004820152601a60248201527f4173736574206e6f7420666f756e6420696e206c6962726172790000000000006044820152606490fd5b6002821015611ef55752565b81811061211f575050565b60008155600101612114565b9190601f811161213a57505050565b611e38926000526020600020906020601f840160051c83019310612166575b601f0160051c0190612114565b9091508190612159565b91909182516001600160401b038111611cbd57612197816121918454611dc0565b8461212b565b602080601f83116001146121d35750819293946000926121c8575b50508160011b916000199060031b1c1916179055565b0151905038806121b2565b90601f198316958460005282600020926000905b88821061221f57505083600195969710612206575b505050811b019055565b015160001960f88460031b161c191690553880806121fc565b806001859682949686015181550195019301906121e7565b906002811015611ef55760ff80198354169116179055565b61226790602060405192828480945193849201611ea0565b810103902090565b1561227657565b60405162461bcd60e51b81526020600482015260126024820152714c697374696e67206e6f742061637469766560701b6044820152606490fd5b818102929181159184041417156122c357565b634e487b7160e01b600052601160045260246000fd5b919082039182116122c357565b156122ed57565b60405162461bcd60e51b815260206004820152601860248201527f5061796d656e7420746f2073656c6c6572206661696c656400000000000000006044820152606490fd5b3d1561235d573d9061234382611cf4565b916123516040519384611cd3565b82523d6000602084013e565b606090565b1561236957565b60405162461bcd60e51b815260206004820152600d60248201526c1499599d5b990819985a5b1959609a1b6044820152606490fd5b6002600154146123af576002600155565b604051633ee5aeb560e01b8152600490fd5b60001981146122c35760010190565b156123d757565b60405162461bcd60e51b815260206004820152601060248201526f4f66666572206e6f742061637469766560801b6044820152606490fd5b906000929180549161242083611dc0565b9182825260019384811690816000146124825750600114612442575b50505050565b90919394506000526020928360002092846000945b83861061246e57505050500101903880808061243c565b805485870183015294019385908201612457565b9294505050602093945060ff191683830152151560051b0101903880808061243c565b6000929181546124b481611dc0565b9260019180831690811561250c57506001146124d05750505050565b90919293945060005260209081600020906000915b8583106124fb575050505001903880808061243c565b8054858401529183019181016124e5565b60ff191684525050508115159091020191503880808061243c565b1561252e57565b60405162461bcd60e51b815260206004820152601160248201527015da5d1a191c985dd85b0819985a5b1959607a1b6044820152606490fd5b9080821461263f576125798154611dc0565b906001600160401b038211611cbd57819061259e826125988654611dc0565b8661212b565b600090601f83116001146125d4576000926125c95750508160011b916000199060031b1c1916179055565b0154905038806121b2565b81526020808220858352818320935090601f1985169083905b82821061262657505090846001959493921061260d57505050811b019055565b015460001960f88460031b161c191690553880806121fc565b84958192958501548155600180910196019401906125ed565b5050565b60005b60078054908183101561243c576126709161267761266385611d5b565b506040519485809261240f565b0384611cd3565b82516020809401208551848701201461269b57505050612696906123c1565b612646565b91935091600019918281019081116122c3576126b96126c091611d5b565b5091611d5b565b91909161273e576126d091612567565b815480156127545701916126e383611d5b565b61273e576126f18154611dc0565b806126fd575b50505055565b600092601f9081831160011461271a57505050555b3880806126f7565b83916127379186949585528420940160051c840160018501612114565b5555612712565b634e487b7160e01b600052600060045260246000fd5b634e487b7160e01b600052603160045260246000fd5b90604091825180825160209281612785859383858901611ea0565b8101600581520301902060005b8154811015612973576127a58183611da8565b9054600391821b1c60005260049081855287600020916006830180549060ff918281166127e1575b5050505050506127dc906123c1565b612792565b60ff19169055600090838501541691600292838110156129605788918c9161289457505050509060008080806127dc97969560018060a01b0360018801541690870154905af161282f612332565b505b61283f575b829381806127cd565b6128498386611da8565b90546001909301546001600160a01b031692911b1c6128678761224f565b907fa73002eb00b7f458173aec22cf4445bbdb98267f801a7fe3d22dba9382338cdb600080a43880612836565b600187015494870154915163a9059cbb60e01b81526001600160a01b0395861691810191825260208201929092529293909283919082908690829060400103927f0000000000000000000000000000000000000000000000000000000000000000165af1918215612955578092612914575b5050906127dc939291612831565b9091508682813d831161294e575b61292c8183611cd3565b8101031261020e5750906129446127dc94939261200d565b9091929338612906565b503d612922565b8a51903d90823e3d90fd5b634e487b7160e01b835260218252602483fd5b50505050905056fea26469706673582212208789ee66302f64b389a1b2cc3167e5f6915b0e17dc025beb690a3017d75342a664736f6c63430008140033",
  "linkReferences": {},
  "deployedLinkReferences": {}
}