{
  "_format": "hh-sol-artifact-1",
  "contractName": "ClayMarketplace",
  "sourceName": "ClayMarketplace.sol",
  "abi": [
    {
      "inputs": [
        {
          "internalType": "address",
          "name": "_libraryContract",
          "type": "address"
        }
      ],
      "stateMutability": "nonpayable",
      "type": "constructor"
    },
    {
      "inputs": [
        {
          "internalType": "address",
          "name": "owner",
          "type": "address"
        }
      ],
      "name": "OwnableInvalidOwner",
      "type": "error"
    },
    {
      "inputs": [
        {
          "internalType": "address",
          "name": "account",
          "type": "address"
        }
      ],
      "name": "OwnableUnauthorizedAccount",
      "type": "error"
    },
    {
      "inputs": [],
      "name": "ReentrancyGuardReentrantCall",
      "type": "error"
    },
    {
      "anonymous": false,
      "inputs": [
        {
          "indexed": true,
          "internalType": "string",
          "name": "projectId",
          "type": "string"
        },
        {
          "indexed": true,
          "internalType": "address",
          "name": "seller",
          "type": "address"
        },
        {
          "indexed": false,
          "internalType": "uint256",
          "name": "price",
          "type": "uint256"
        },
        {
          "indexed": false,
          "internalType": "uint256",
          "name": "timestamp",
          "type": "uint256"
        }
      ],
      "name": "AssetListed",
      "type": "event"
    },
    {
      "anonymous": false,
      "inputs": [
        {
          "indexed": true,
          "internalType": "string",
          "name": "projectId",
          "type": "string"
        },
        {
          "indexed": true,
          "internalType": "address",
          "name": "seller",
          "type": "address"
        },
        {
          "indexed": true,
          "internalType": "address",
          "name": "buyer",
          "type": "address"
        },
        {
          "indexed": false,
          "internalType": "uint256",
          "name": "price",
          "type": "uint256"
        },
        {
          "indexed": false,
          "internalType": "uint256",
          "name": "platformFee",
          "type": "uint256"
        }
      ],
      "name": "AssetSold",
      "type": "event"
    },
    {
      "anonymous": false,
      "inputs": [
        {
          "indexed": true,
          "internalType": "string",
          "name": "projectId",
          "type": "string"
        },
        {
          "indexed": true,
          "internalType": "address",
          "name": "seller",
          "type": "address"
        }
      ],
      "name": "ListingCancelled",
      "type": "event"
    },
    {
      "anonymous": false,
      "inputs": [
        {
          "indexed": true,
          "internalType": "uint256",
          "name": "offerId",
          "type": "uint256"
        },
        {
          "indexed": true,
          "internalType": "string",
          "name": "projectId",
          "type": "string"
        },
        {
          "indexed": true,
          "internalType": "address",
          "name": "seller",
          "type": "address"
        },
        {
          "indexed": false,
          "internalType": "address",
          "name": "buyer",
          "type": "address"
        },
        {
          "indexed": false,
          "internalType": "uint256",
          "name": "price",
          "type": "uint256"
        }
      ],
      "name": "OfferAccepted",
      "type": "event"
    },
    {
      "anonymous": false,
      "inputs": [
        {
          "indexed": true,
          "internalType": "uint256",
          "name": "offerId",
          "type": "uint256"
        },
        {
          "indexed": true,
          "internalType": "string",
          "name": "projectId",
          "type": "string"
        },
        {
          "indexed": true,
          "internalType": "address",
          "name": "buyer",
          "type": "address"
        }
      ],
      "name": "OfferCancelled",
      "type": "event"
    },
    {
      "anonymous": false,
      "inputs": [
        {
          "indexed": true,
          "internalType": "uint256",
          "name": "offerId",
          "type": "uint256"
        },
        {
          "indexed": true,
          "internalType": "string",
          "name": "projectId",
          "type": "string"
        },
        {
          "indexed": true,
          "internalType": "address",
          "name": "buyer",
          "type": "address"
        },
        {
          "indexed": false,
          "internalType": "uint256",
          "name": "offerPrice",
          "type": "uint256"
        },
        {
          "indexed": false,
          "internalType": "uint256",
          "name": "expiresAt",
          "type": "uint256"
        }
      ],
      "name": "OfferCreated",
      "type": "event"
    },
    {
      "anonymous": false,
      "inputs": [
        {
          "indexed": true,
          "internalType": "address",
          "name": "previousOwner",
          "type": "address"
        },
        {
          "indexed": true,
          "internalType": "address",
          "name": "newOwner",
          "type": "address"
        }
      ],
      "name": "OwnershipTransferred",
      "type": "event"
    },
    {
      "inputs": [],
      "name": "FEE_DENOMINATOR",
      "outputs": [
        {
          "internalType": "uint256",
          "name": "",
          "type": "uint256"
        }
      ],
      "stateMutability": "view",
      "type": "function"
    },
    {
      "inputs": [],
      "name": "USDC_ADDRESS",
      "outputs": [
        {
          "internalType": "address",
          "name": "",
          "type": "address"
        }
      ],
      "stateMutability": "view",
      "type": "function"
    },
    {
      "inputs": [
        {
          "internalType": "uint256",
          "name": "offerId",
          "type": "uint256"
        }
      ],
      "name": "acceptOffer",
      "outputs": [],
      "stateMutability": "nonpayable",
      "type": "function"
    },
    {
      "inputs": [
        {
          "internalType": "uint256",
          "name": "",
          "type": "uint256"
        }
      ],
      "name": "activeListings",
      "outputs": [
        {
          "internalType": "string",
          "name": "",
          "type": "string"
        }
      ],
      "stateMutability": "view",
      "type": "function"
    },
    {
      "inputs": [
        {
          "internalType": "string",
          "name": "projectId",
          "type": "string"
        }
      ],
      "name": "buyAsset",
      "outputs": [],
      "stateMutability": "payable",
      "type": "function"
    },
    {
      "inputs": [
        {
          "internalType": "string",
          "name": "projectId",
          "type": "string"
        }
      ],
      "name": "cancelListing",
      "outputs": [],
      "stateMutability": "nonpayable",
      "type": "function"
    },
    {
      "inputs": [
        {
          "internalType": "uint256",
          "name": "offerId",
          "type": "uint256"
        }
      ],
      "name": "cancelOffer",
      "outputs": [],
      "stateMutability": "nonpayable",
      "type": "function"
    },
    {
      "inputs": [],
      "name": "getActiveListingsCount",
      "outputs": [
        {
          "internalType": "uint256",
          "name": "",
          "type": "uint256"
        }
      ],
      "stateMutability": "view",
      "type": "function"
    },
    {
      "inputs": [
        {
          "internalType": "string",
          "name": "projectId",
          "type": "string"
        }
      ],
      "name": "getProjectOffers",
      "outputs": [
        {
          "internalType": "uint256[]",
          "name": "",
          "type": "uint256[]"
        }
      ],
      "stateMutability": "view",
      "type": "function"
    },
    {
      "inputs": [],
      "name": "libraryContract",
      "outputs": [
        {
          "internalType": "contract IClayLibrary",
          "name": "",
          "type": "address"
        }
      ],
      "stateMutability": "view",
      "type": "function"
    },
    {
      "inputs": [
        {
          "internalType": "string",
          "name": "projectId",
          "type": "string"
        },
        {
          "internalType": "uint256",
          "name": "price",
          "type": "uint256"
        },
        {
          "internalType": "enum ClayMarketplace.PaymentToken",
          "name": "paymentToken",
          "type": "uint8"
        }
      ],
      "name": "listAsset",
      "outputs": [],
      "stateMutability": "nonpayable",
      "type": "function"
    },
    {
      "inputs": [
        {
          "internalType": "string",
          "name": "",
          "type": "string"
        }
      ],
      "name": "listings",
      "outputs": [
        {
          "internalType": "string",
          "name": "projectId",
          "type": "string"
        },
        {
          "internalType": "address",
          "name": "seller",
          "type": "address"
        },
        {
          "internalType": "uint256",
          "name": "price",
          "type": "uint256"
        },
        {
          "internalType": "enum ClayMarketplace.PaymentToken",
          "name": "paymentToken",
          "type": "uint8"
        },
        {
          "internalType": "uint256",
          "name": "listedAt",
          "type": "uint256"
        },
        {
          "internalType": "bool",
          "name": "isActive",
          "type": "bool"
        }
      ],
      "stateMutability": "view",
      "type": "function"
    },
    {
      "inputs": [
        {
          "internalType": "string",
          "name": "projectId",
          "type": "string"
        },
        {
          "internalType": "uint256",
          "name": "offerPrice",
          "type": "uint256"
        },
        {
          "internalType": "enum ClayMarketplace.PaymentToken",
          "name": "paymentToken",
          "type": "uint8"
        },
        {
          "internalType": "uint256",
          "name": "duration",
          "type": "uint256"
        }
      ],
      "name": "makeOffer",
      "outputs": [],
      "stateMutability": "payable",
      "type": "function"
    },
    {
      "inputs": [],
      "name": "nextOfferId",
      "outputs": [
        {
          "internalType": "uint256",
          "name": "",
          "type": "uint256"
        }
      ],
      "stateMutability": "view",
      "type": "function"
    },
    {
      "inputs": [
        {
          "internalType": "uint256",
          "name": "",
          "type": "uint256"
        }
      ],
      "name": "offers",
      "outputs": [
        {
          "internalType": "string",
          "name": "projectId",
          "type": "string"
        },
        {
          "internalType": "address",
          "name": "buyer",
          "type": "address"
        },
        {
          "internalType": "uint256",
          "name": "offerPrice",
          "type": "uint256"
        },
        {
          "internalType": "enum ClayMarketplace.PaymentToken",
          "name": "paymentToken",
          "type": "uint8"
        },
        {
          "internalType": "uint256",
          "name": "offeredAt",
          "type": "uint256"
        },
        {
          "internalType": "uint256",
          "name": "expiresAt",
          "type": "uint256"
        },
        {
          "internalType": "bool",
          "name": "isActive",
          "type": "bool"
        }
      ],
      "stateMutability": "view",
      "type": "function"
    },
    {
      "inputs": [],
      "name": "owner",
      "outputs": [
        {
          "internalType": "address",
          "name": "",
          "type": "address"
        }
      ],
      "stateMutability": "view",
      "type": "function"
    },
    {
      "inputs": [],
      "name": "platformFeePercentage",
      "outputs": [
        {
          "internalType": "uint256",
          "name": "",
          "type": "uint256"
        }
      ],
      "stateMutability": "view",
      "type": "function"
    },
    {
      "inputs": [
        {
          "internalType": "string",
          "name": "",
          "type": "string"
        },
        {
          "internalType": "uint256",
          "name": "",
          "type": "uint256"
        }
      ],
      "name": "projectOffers",
      "outputs": [
        {
          "internalType": "uint256",
          "name": "",
          "type": "uint256"
        }
      ],
      "stateMutability": "view",
      "type": "function"
    },
    {
      "inputs": [],
      "name": "renounceOwnership",
      "outputs": [],
      "stateMutability": "nonpayable",
      "type": "function"
    },
    {
      "inputs": [
        {
          "internalType": "address",
          "name": "newOwner",
          "type": "address"
        }
      ],
      "name": "transferOwnership",
      "outputs": [],
      "stateMutability": "nonpayable",
      "type": "function"
    },
    {
      "inputs": [
        {
          "internalType": "uint256",
          "name": "newFeePercentage",
          "type": "uint256"
        }
      ],
      "name": "updatePlatformFee",
      "outputs": [],
      "stateMutability": "nonpayable",
      "type": "function"
    },
    {
      "inputs": [],
      "name": "usdcToken",
      "outputs": [
        {
          "internalType": "contract IERC20",
          "name": "",
          "type": "address"
        }
      ],
      "stateMutability": "view",
      "type": "function"
    },
    {
      "inputs": [],
      "name": "withdrawPlatformFees",
      "outputs": [],
      "stateMutability": "nonpayable",
      "type": "function"
    },
    {
      "inputs": [],
      "name": "withdrawPlatformFeesUSDC",
      "outputs": [],
      "stateMutability": "nonpayable",
      "type": "function"
    }
  ],
  "bytecode": "0x60a03461012157601f620029f238819003918201601f19168301916001600160401b038311848410176101265780849260209460405283398101031261012157516001600160a01b0390818116908190036101215733156101085760005460018060a01b0319903382821617600055604051933391167f8be0079c531659141344cd1fd0a4f28419497f9722a3daafe3b4186f6b6457e0600080a360018055600160065560fa600855600254161760025573833589fcd6edb6e08f4c7c32d4f71b54bda029136080526128b590816200013d8239608051818181610398015281816104ac0152818161099e01528181610d5b0152818161134f01528181611bf501526127da0152f35b604051631e4fbdf760e01b815260006004820152602490fd5b600080fd5b634e487b7160e01b600052604160045260246000fdfe60806040908082526004908136101561001757600080fd5b600090813560e01c90816311eac85514611be15750806313b069151461189a5780635f5d06551461187b57806361cf486314611815578063715018a6146117bb57806377dec6c31461170b5780637b55927c146116ec5780638a72ea6a146116525780638da5cb5b1461162a578063943f226114611535578063a223555814611064578063a3a6705814610fe9578063aa0b598814610f7d578063bb09d9b714610f4e578063c7ef967214610ae7578063c815729d146106e7578063cdd78cfc146106c8578063ce0769c51461069f578063d0b7830b14610620578063d73792a914610603578063dceb768614610473578063ef706adf14610299578063f2fde38b146102065763f941fb991461012d57600080fd5b3461020357602091826003193601126101ff5780356001600160401b0381116101fb579261016361017592829695369101611c89565b81855193828580945193849201611e1a565b81016005815203019020908251808584549182815201908194845286842090845b8181106101e757505050816101ac910382611c4d565b83519485948186019282875251809352850193925b8281106101d057505050500390f35b8351855286955093810193928101926001016101c1565b825484529288019260019283019201610196565b8280fd5b5080fd5b80fd5b5091346101fb5760203660031901126101fb576001600160a01b0382358181169391929084900361029557610239611e85565b831561027f575050600054826001600160601b0360a01b821617600055167f8be0079c531659141344cd1fd0a4f28419497f9722a3daafe3b4186f6b6457e0600080a380f35b51631e4fbdf760e01b8152908101849052602490fd5b8480fd5b509190346101fb576020918260031936011261046f578135916102ba6122a2565b82855280845281852093600685018054926102d760ff85166122d4565b60018701546001600160a01b0392908316330361042c5760028801549460ff1916905560ff600388015416600281101561041957889392919061036b5750505080808061032f94335af1610329612236565b50612266565b518061033c8133956123a9565b039020907fa73002eb00b7f458173aec22cf4445bbdb98267f801a7fe3d22dba9382338cdb8480a46001805580f35b855163a9059cbb60e01b8152339181019182526020820195909552919283928592918391829060400103927f0000000000000000000000000000000000000000000000000000000000000000165af190811561040f5786916103d8575b506103d39150612266565b61032f565b905081813d8311610408575b6103ee8183611c4d565b81010312610295576104026103d391611f0a565b386103c8565b503d6103e4565b83513d88823e3d90fd5b634e487b7160e01b895260218252602489fd5b855162461bcd60e51b8152808301859052601b60248201527f4f6e6c792062757965722063616e2063616e63656c206f6666657200000000006044820152606490fd5b8380fd5b5082346101ff57816003193601126101ff5761048d611e85565b80516370a0823160e01b81523084820152926020906001600160a01b037f0000000000000000000000000000000000000000000000000000000000000000811691908387602481865afa9687156105f95786976105c6575b508615610583578554855163a9059cbb60e01b815291166001600160a01b031691810191825260208201969096529394938291859182908890829060400103925af191821561057a57508391610543575b836105408361242b565b80f35b905081813d8311610573575b6105598183611c4d565b810103126101ff5761056d61054091611f0a565b83610536565b503d61054f565b513d85823e3d90fd5b845162461bcd60e51b8152808301859052601860248201527f4e6f2055534443206665657320746f20776974686472617700000000000000006044820152606490fd5b9096508381813d83116105f2575b6105de8183611c4d565b810103126105ee575195876104e5565b8580fd5b503d6105d4565b85513d88823e3d90fd5b5082346101ff57816003193601126101ff57602090516127108152f35b509190346101fb57826003193601126101fb5761063b611e85565b479182156106665783610540818080808860018060a01b038254165af1610660612236565b5061242b565b906020606492519162461bcd60e51b835282015260136024820152724e6f206665657320746f20776974686472617760681b6044820152fd5b5082346101ff57816003193601126101ff5760025490516001600160a01b039091168152602090f35b5082346101ff57816003193601126101ff576020906008549051908152f35b509190346101fb5760208060031936011261046f578135916107076122a2565b828552808252838520936006850161072260ff8254166122d4565b6005860154421015610ab5576002548251630cd5286d60e41b81528481018690526001600160a01b039791899082908a1681806107626024820188612313565b03915afa8015610aab5789918a91610a76575b5061077f90611fc0565b8733911603610a335760028101968754926107aa6127106107a2600854876121b4565b0480956121dd565b60ff6003850154166002811015610a2057888c911560001461097257508080806107df94335af16107d9612236565b506121ea565b8982600254169660018501978489541691813b1561046f5783918991838351809681958294632203f8f160e01b845283015261081e604483018d612313565b90602483015203925af180156109685761094a575b5050907f8c68d600771ad8af3c86a9f96bd5c471eca94aebd78ea274787f8e95e07aaa10956108fe939260ff199081815416905560ff600588518b81610879818a6123a9565b6003815203019020015416610914575b5061089b61089684611d74565b61266e565b5416809854978551806108ae81866123a9565b03902086516001600160a01b03939093168352602083018a905233929091907f9332956e0c3dd558cabf109a274fd9184f7cd2081da1b9d9e28e702cf8a6cc5990604090a48351918280926123a9565b0390209382519586528501523393a46001805580f35b600587518a8161092481896123a9565b60038152030190200190815416905561094461093f84611d74565b612547565b38610889565b6109579094939294611c24565b6109645790918938610833565b8980fd5b87513d84823e3d90fd5b875163a9059cbb60e01b8152338a820190815260208101949094529290918391829081906040010391877f0000000000000000000000000000000000000000000000000000000000000000165af18015610a16578b906109dc575b6109d791506121ea565b6107df565b508781813d8311610a0f575b6109f28183611c4d565b81010312610a0b57610a066109d791611f0a565b6109cd565b8a80fd5b503d6109e8565b86513d8d823e3d90fd5b634e487b7160e01b8c526021885260248cfd5b825162461bcd60e51b8152808501869052601b60248201527f4f6e6c79206f776e65722063616e20616363657074206f6666657200000000006044820152606490fd5b61077f9250610a9791503d808c833e610a8f8183611c4d565b810190611f17565b9b9a50505050505093505050509190610775565b84513d8b823e3d90fd5b5091606492519162461bcd60e51b8352820152600d60248201526c13d999995c88195e1c1a5c9959609a1b6044820152fd5b50919060208060031936011261046f5781356001600160401b03811161029557610b149036908401611c89565b92610b1d6122a2565b805182818651610b308183858b01611e1a565b810160038152030190209260058401610b4c60ff825416612173565b6001850180546001600160a01b0390811693909290338514610f0b57600288019788549560ff6003610b8e612710610b866008548c6121b4565b04809a6121dd565b930154166002811015610ef857610d25575088543410610ce2578a808080610bbe94898954165af16107d9612236565b87548a813411610cc0575b50505b89846002541691823b156101ff57610c029288838d93825196879586948593632203f8f160e01b85528401526044830190611e3d565b33602483015203925af18015610cb657610c77575b50805460ff191690557f8c68d600771ad8af3c86a9f96bd5c471eca94aebd78ea274787f8e95e07aaa10939291610c6491610c5189612547565b610c5a8961266e565b5416955496612153565b9382519687528601523394a46001805580f35b917f8c68d600771ad8af3c86a9f96bd5c471eca94aebd78ea274787f8e95e07aaa109594939199610caa610c6494611c24565b99919394955091610c17565b86513d8c823e3d90fd5b808080610cd0610cdb95346121dd565b335af1610329612236565b388a610bc9565b865162461bcd60e51b8152808301899052601860248201527f496e73756666696369656e7420455448207061796d656e7400000000000000006044820152606490fd5b9034610eab5787516323b872dd60e01b808252338583019081526001600160a01b03909416602085015260408401929092528c927f0000000000000000000000000000000000000000000000000000000000000000881691908b9082908190606001038187865af1908115610ea157908b9392918591610e68575b50610daa906121ea565b895191825233858301908152306020820152604081018a905291938492839190829060600103925af1908115610e5e578b91610e29575b50610bcc57855162461bcd60e51b8152908101879052601c60248201527f506c6174666f726d20666565207472616e73666572206661696c6564000000006044820152606490fd5b90508781813d8311610e57575b610e408183611c4d565b81010312610a0b57610e5190611f0a565b38610de1565b503d610e36565b87513d8d823e3d90fd5b84819592503d8311610e9a575b610e7f8183611c4d565b8101031261046f57610daa610e948c94611f0a565b90610da0565b503d610e75565b8a513d86823e3d90fd5b875162461bcd60e51b81528084018a9052602160248201527f446f206e6f742073656e642045544820666f72205553444320707572636861736044820152606560f81b6064820152608490fd5b634e487b7160e01b8d526021845260248dfd5b855162461bcd60e51b8152908101879052601960248201527f43616e6e6f742062757920796f7572206f776e206173736574000000000000006044820152606490fd5b5082346101ff57816003193601126101ff576020905173833589fcd6edb6e08f4c7c32d4f71b54bda029138152f35b509190346101fb5760203660031901126101fb57803591610f9c611e85565b6103e88311610fad57505060085580f35b906020606492519162461bcd60e51b8352820152601660248201527546656520746f6f206869676820286d6178203130252960501b6044820152fd5b509190346101fb57816003193601126101fb578035906001600160401b03821161046f5761101991369101611c89565b9161103560206024359481855193828580945193849201611e1a565b81016005815203019020908154841015610203575060209261105691611d22565b91905490519160031b1c8152f35b50919060803660031901126101fb576001600160401b038135818111610295576110919036908401611c89565b9260249182359460449485359460028610156115315760649384359689156114f957610e10881015806114ec575b156114b9576002548751630cd5286d60e41b815260208682018190529a6001600160a01b03989290918e91829082908c1681806110fe8c82018f611e3d565b03915afa9081156114af57828092611481575b505061111c90611fc0565b881633146114435782611319578b34036112e55750505b60065497611140896122c5565b6006554201958642116112d35787519260e08401908111848210176112c15789928c8e8a948e948d528a88526111b08d868a0193338552818b0195865261118b60608c01978861200c565b8c60808c0198428a5260a08d019a8b5260c08d019b60018d5283525220985189612074565b600188019151166001600160601b0360a01b8254161790555160028601555160028110156112af57918493916111ee600694600361120f980161213b565b518785015551600584015551151591019060ff801983541691151516179055565b8451878185516112228183858a01611e1a565b8101600581520301902090815492600160401b84101561129e57505091611275827fcfed541454dac78f93da97764a61638d187363e6d64a389faa86edcaaf8932bc969594600161128f95018155611d22565b81549060031b9088821b91600019901b1916179055612153565b9482519687528601523394a480f35b634e487b7160e01b8b526041905289fd5b634e487b7160e01b8e5260218752858efd5b634e487b7160e01b8d5260418652848dfd5b634e487b7160e01b8c5260118552838cfd5b7208aa89040c2dadeeadce840dad2e6dac2e8c6d606b1b86916013878e8d519562461bcd60e51b8752860152840152820152fd5b346114055788516323b872dd60e01b815233878201908152306020820152604081018e90528e91908d90829081900360600181857f00000000000000000000000000000000000000000000000000000000000000008f165af19182156113fa57916113c1575b501561138c575050611133565b731554d110c81d1c985b9cd9995c8819985a5b195960621b86916014878e8d519562461bcd60e51b8752860152840152820152fd5b90508b81813d83116113f3575b6113d88183611c4d565b810103126113ef576113e990611f0a565b3861137f565b8d80fd5b503d6113ce565b8b51903d90823e3d90fd5b7f446f206e6f742073656e642045544820666f722055534443206f6666657200008691601e878e8d519562461bcd60e51b8752860152840152820152fd5b7f43616e6e6f74206f66666572206f6e20796f7572206f776e20617373657400008691601e878e8d519562461bcd60e51b8752860152840152820152fd5b61111c935061149a92503d8091833e610a8f8183611c4d565b9b9a505050505050935050505091908f611111565b8b513d84823e3d90fd5b865162461bcd60e51b81526020818601526010818501526f24b73b30b634b210323ab930ba34b7b760811b818b01528690fd5b5062278d008811156110bf565b865162461bcd60e51b8152602081860152601581850152744f66666572206d75737420686176652076616c756560581b818b01528690fd5b8880fd5b5091346101fb5760203660031901126101fb5781356001600160401b03811161046f576115659036908401611c89565b918151602081855161157a8183858a01611e1a565b8101600381520301902090600582019283549261159960ff8516612173565b600101546001600160a01b031633036115ee57505060ff191690556115bd81612547565b6115c73391612153565b7f0ad06290f905050c9dac577e139b4b450621b456073e716db7561a52f3ff89288380a380f35b906020606492519162461bcd60e51b8352820152601660248201527513db9b1e481cd95b1b195c8818d85b8818d85b98d95b60521b6044820152fd5b5082346101ff57816003193601126101ff57905490516001600160a01b039091168152602090f35b509190346101fb5760203660031901126101fb57816116c4938235815282602052209161167e83611d74565b9260018060a01b03600182015416926116d760028301549160ff600385015416908401549260ff6006600587015496015416958051998a9960e08b5260e08b0190611e3d565b9760208a01528801526060870190611e62565b608085015260a0840152151560c08301520390f35b5082346101ff57816003193601126101ff576020906007549051908152f35b509190346101fb5760203660031901126101fb578035926001600160401b038411610203575061174660206101636117989536908501611c89565b810160038152030190209161175a83611d74565b926117ab60018060a01b0360018301541693600283015460ff600581600387015416938601549501541694805198899860c08a5260c08a0190611e3d565b9660208901528701526060860190611e62565b6080840152151560a08301520390f35b50346102035780600319360112610203576117d4611e85565b80546001600160a01b03198116825581906001600160a01b03167f8be0079c531659141344cd1fd0a4f28419497f9722a3daafe3b4186f6b6457e08280a380f35b508290346102035760203660031901126102035782356007548110156101ff5761183e90611cd5565b939093611869576118658361185286611d74565b9051918291602083526020830190611e3d565b0390f35b634e487b7160e01b8252819052602490fd5b5082346101ff57816003193601126101ff576020906006549051908152f35b5091346101fb5760603660031901126101fb576001600160401b03908235828111610295576118cc9036908501611c89565b602493843594604435946002861015611bdd578615611b9b5784519584519060ff60056020998a81818b019661190381838a611e1a565b81016003815203019020015416611b62576002548751630cd5286d60e41b81528681018a90526001600160a01b03918c908290841681806119468b82018e611e3d565b03915afa8015611b58578c918d91611b2b575b5061196390611fc0565b8133911603611ae95787519360c0850190811185821017611ad75790889392918452878552898501338152848601918c83526119a360608801948561200c565b6119dd6119cb8d60808a01974289528d60a08c019a60018c5251938492839251928391611e1a565b81016003815203019020975188612074565b600187019151166001600160601b0360a01b825416179055516002850155516002811015611ac55791600591611a1a85946003611a35970161213b565b518684015551151591019060ff801983541691151516179055565b600754600160401b811015611ab357806001611a549201600755611cd5565b929092611aa357505081611a8d7ff34a4c127ff02f03c1d1fb093bb2c95ec0cfd3c38220b818ef19234533c6b96c9493611a9293612074565b612153565b92815194855242908501523393a380f35b634e487b7160e01b885287905286fd5b50634e487b7160e01b87526041825286fd5b634e487b7160e01b8b5260218652848bfd5b634e487b7160e01b8c5260418752858cfd5b875162461bcd60e51b81528087018a90526019818701527f4f6e6c79206f776e65722063616e206c697374206173736574000000000000006044820152606490fd5b6119639250611b4491503d808f833e610a8f8183611c4d565b9b9a50505050505093505050509190611959565b89513d8e823e3d90fd5b865162461bcd60e51b815280860189905260148186015273105cdcd95d08185b1c9958591e481b1a5cdd195960621b6044820152606490fd5b845162461bcd60e51b8152602081850152601c818401527f5072696365206d7573742062652067726561746572207468616e2030000000006044820152606490fd5b8780fd5b9050346101ff57816003193601126101ff577f00000000000000000000000000000000000000000000000000000000000000006001600160a01b03168152602090f35b6001600160401b038111611c3757604052565b634e487b7160e01b600052604160045260246000fd5b90601f801991011681019081106001600160401b03821117611c3757604052565b6001600160401b038111611c3757601f01601f191660200190565b81601f82011215611cd057803590611ca082611c6e565b92611cae6040519485611c4d565b82845260208383010111611cd057816000926020809301838601378301015290565b600080fd5b600754811015611d0c5760076000527fa66cc928b5edb82af9bd49922954155ab7b0942694bea4ce44661d9a8736c6880190600090565b634e487b7160e01b600052603260045260246000fd5b8054821015611d0c5760005260206000200190600090565b90600182811c92168015611d6a575b6020831014611d5457565b634e487b7160e01b600052602260045260246000fd5b91607f1691611d49565b9060405191826000825492611d8884611d3a565b908184526001948581169081600014611df75750600114611db4575b5050611db292500383611c4d565b565b9093915060005260209081600020936000915b818310611ddf575050611db293508201013880611da4565b85548884018501529485019487945091830191611dc7565b915050611db294506020925060ff191682840152151560051b8201013880611da4565b60005b838110611e2d5750506000910152565b8181015183820152602001611e1d565b90602091611e5681518092818552858086019101611e1a565b601f01601f1916010190565b906002821015611e6f5752565b634e487b7160e01b600052602160045260246000fd5b6000546001600160a01b03163303611e9957565b60405163118cdaa760e01b8152336004820152602490fd5b81601f82011215611cd0578051611ec781611c6e565b92611ed56040519485611c4d565b81845260208284010111611cd057611ef39160208085019101611e1a565b90565b51906001600160a01b0382168203611cd057565b51908115158203611cd057565b61018081830312611cd0578051926001600160401b0393848111611cd05783611f41918401611eb1565b936020830151818111611cd05784611f5a918501611eb1565b936040840151918211611cd057611f72918401611eb1565b91606081015191608082015191611f8b60a08201611ef6565b91611f9860c08301611ef6565b9160e0810151916101008201519161012081015191611ef36101606101408401519301611f0a565b15611fc757565b60405162461bcd60e51b815260206004820152601a60248201527f4173736574206e6f7420666f756e6420696e206c6962726172790000000000006044820152606490fd5b6002821015611e6f5752565b818110612023575050565b60008155600101612018565b9190601f811161203e57505050565b611db2926000526020600020906020601f840160051c8301931061206a575b601f0160051c0190612018565b909150819061205d565b91909182516001600160401b038111611c375761209b816120958454611d3a565b8461202f565b602080601f83116001146120d75750819293946000926120cc575b50508160011b916000199060031b1c1916179055565b0151905038806120b6565b90601f198316958460005282600020926000905b8882106121235750508360019596971061210a575b505050811b019055565b015160001960f88460031b161c19169055388080612100565b806001859682949686015181550195019301906120eb565b906002811015611e6f5760ff80198354169116179055565b61216b90602060405192828480945193849201611e1a565b810103902090565b1561217a57565b60405162461bcd60e51b81526020600482015260126024820152714c697374696e67206e6f742061637469766560701b6044820152606490fd5b818102929181159184041417156121c757565b634e487b7160e01b600052601160045260246000fd5b919082039182116121c757565b156121f157565b60405162461bcd60e51b815260206004820152601860248201527f5061796d656e7420746f2073656c6c6572206661696c656400000000000000006044820152606490fd5b3d15612261573d9061224782611c6e565b916122556040519384611c4d565b82523d6000602084013e565b606090565b1561226d57565b60405162461bcd60e51b815260206004820152600d60248201526c1499599d5b990819985a5b1959609a1b6044820152606490fd5b6002600154146122b3576002600155565b604051633ee5aeb560e01b8152600490fd5b60001981146121c75760010190565b156122db57565b60405162461bcd60e51b815260206004820152601060248201526f4f66666572206e6f742061637469766560801b6044820152606490fd5b906000929180549161232483611d3a565b9182825260019384811690816000146123865750600114612346575b50505050565b90919394506000526020928360002092846000945b838610612372575050505001019038808080612340565b80548587018301529401938590820161235b565b9294505050602093945060ff191683830152151560051b01019038808080612340565b6000929181546123b881611d3a565b9260019180831690811561241057506001146123d45750505050565b90919293945060005260209081600020906000915b8583106123ff5750505050019038808080612340565b8054858401529183019181016123e9565b60ff1916845250505081151590910201915038808080612340565b1561243257565b60405162461bcd60e51b815260206004820152601160248201527015da5d1a191c985dd85b0819985a5b1959607a1b6044820152606490fd5b908082146125435761247d8154611d3a565b906001600160401b038211611c375781906124a28261249c8654611d3a565b8661202f565b600090601f83116001146124d8576000926124cd5750508160011b916000199060031b1c1916179055565b0154905038806120b6565b81526020808220858352818320935090601f1985169083905b82821061252a57505090846001959493921061251157505050811b019055565b015460001960f88460031b161c19169055388080612100565b84958192958501548155600180910196019401906124f1565b5050565b60005b600780549081831015612340576125749161257b61256785611cd5565b5060405194858092612313565b0384611c4d565b82516020809401208551848701201461259f5750505061259a906122c5565b61254a565b91935091600019918281019081116121c7576125bd6125c491611cd5565b5091611cd5565b919091612642576125d49161246b565b815480156126585701916125e783611cd5565b612642576125f58154611d3a565b80612601575b50505055565b600092601f9081831160011461261e57505050555b3880806125fb565b839161263b9186949585528420940160051c840160018501612018565b5555612616565b634e487b7160e01b600052600060045260246000fd5b634e487b7160e01b600052603160045260246000fd5b90604091825180825160209281612689859383858901611e1a565b8101600581520301902060005b8154811015612877576126a98183611d22565b9054600391821b1c60005260049081855287600020916006830180549060ff918281166126e5575b5050505050506126e0906122c5565b612696565b60ff19169055600090838501541691600292838110156128645788918c9161279857505050509060008080806126e097969560018060a01b0360018801541690870154905af1612733612236565b505b612743575b829381806126d1565b61274d8386611d22565b90546001909301546001600160a01b031692911b1c61276b87612153565b907fa73002eb00b7f458173aec22cf4445bbdb98267f801a7fe3d22dba9382338cdb600080a4388061273a565b600187015494870154915163a9059cbb60e01b81526001600160a01b0395861691810191825260208201929092529293909283919082908690829060400103927f0000000000000000000000000000000000000000000000000000000000000000165af1918215612859578092612818575b5050906126e0939291612735565b9091508682813d8311612852575b6128308183611c4d565b810103126102035750906128486126e0949392611f0a565b909192933861280a565b503d612826565b8a51903d90823e3d90fd5b634e487b7160e01b835260218252602483fd5b50505050905056fea26469706673582212205fd2f0c9e483c6f5175b14085be180e0527fda38488cbe80fcb9833a4643cabd64736f6c63430008140033",
  "linkReferences": {},
  "deployedLinkReferences": {}
}