{
  "_format": "hh-sol-artifact-1",
  "contractName": "ClayMarketplace",
  "sourceName": "ClayMarketplace.sol",
  "abi": [
    {
      "inputs": [
        {
          "internalType": "address",
          "name": "_libraryContract",
          "type": "address"
        }
      ],
      "stateMutability": "nonpayable",
      "type": "constructor"
    },
    {
      "inputs": [
        {
          "internalType": "address",
          "name": "owner",
          "type": "address"
        }
      ],
      "name": "OwnableInvalidOwner",
      "type": "error"
    },
    {
      "inputs": [
        {
          "internalType": "address",
          "name": "account",
          "type": "address"
        }
      ],
      "name": "OwnableUnauthorizedAccount",
      "type": "error"
    },
    {
      "inputs": [],
      "name": "ReentrancyGuardReentrantCall",
      "type": "error"
    },
    {
      "anonymous": false,
      "inputs": [
        {
          "indexed": true,
          "internalType": "string",
          "name": "projectId",
          "type": "string"
        },
        {
          "indexed": true,
          "internalType": "address",
          "name": "seller",
          "type": "address"
        },
        {
          "indexed": false,
          "internalType": "uint256",
          "name": "price",
          "type": "uint256"
        },
        {
          "indexed": false,
          "internalType": "uint256",
          "name": "timestamp",
          "type": "uint256"
        }
      ],
      "name": "AssetListed",
      "type": "event"
    },
    {
      "anonymous": false,
      "inputs": [
        {
          "indexed": true,
          "internalType": "string",
          "name": "projectId",
          "type": "string"
        },
        {
          "indexed": true,
          "internalType": "address",
          "name": "seller",
          "type": "address"
        },
        {
          "indexed": true,
          "internalType": "address",
          "name": "buyer",
          "type": "address"
        },
        {
          "indexed": false,
          "internalType": "uint256",
          "name": "price",
          "type": "uint256"
        },
        {
          "indexed": false,
          "internalType": "uint256",
          "name": "platformFee",
          "type": "uint256"
        }
      ],
      "name": "AssetSold",
      "type": "event"
    },
    {
      "anonymous": false,
      "inputs": [
        {
          "indexed": true,
          "internalType": "string",
          "name": "projectId",
          "type": "string"
        },
        {
          "indexed": true,
          "internalType": "address",
          "name": "seller",
          "type": "address"
        }
      ],
      "name": "ListingCancelled",
      "type": "event"
    },
    {
      "anonymous": false,
      "inputs": [
        {
          "indexed": true,
          "internalType": "string",
          "name": "projectId",
          "type": "string"
        },
        {
          "indexed": false,
          "internalType": "uint256",
          "name": "oldPrice",
          "type": "uint256"
        },
        {
          "indexed": false,
          "internalType": "uint256",
          "name": "newPrice",
          "type": "uint256"
        }
      ],
      "name": "ListingPriceUpdated",
      "type": "event"
    },
    {
      "anonymous": false,
      "inputs": [
        {
          "indexed": true,
          "internalType": "uint256",
          "name": "offerId",
          "type": "uint256"
        },
        {
          "indexed": true,
          "internalType": "string",
          "name": "projectId",
          "type": "string"
        },
        {
          "indexed": true,
          "internalType": "address",
          "name": "seller",
          "type": "address"
        },
        {
          "indexed": false,
          "internalType": "address",
          "name": "buyer",
          "type": "address"
        },
        {
          "indexed": false,
          "internalType": "uint256",
          "name": "price",
          "type": "uint256"
        }
      ],
      "name": "OfferAccepted",
      "type": "event"
    },
    {
      "anonymous": false,
      "inputs": [
        {
          "indexed": true,
          "internalType": "uint256",
          "name": "offerId",
          "type": "uint256"
        },
        {
          "indexed": true,
          "internalType": "string",
          "name": "projectId",
          "type": "string"
        },
        {
          "indexed": true,
          "internalType": "address",
          "name": "buyer",
          "type": "address"
        }
      ],
      "name": "OfferCancelled",
      "type": "event"
    },
    {
      "anonymous": false,
      "inputs": [
        {
          "indexed": true,
          "internalType": "uint256",
          "name": "offerId",
          "type": "uint256"
        },
        {
          "indexed": true,
          "internalType": "string",
          "name": "projectId",
          "type": "string"
        },
        {
          "indexed": true,
          "internalType": "address",
          "name": "buyer",
          "type": "address"
        },
        {
          "indexed": false,
          "internalType": "uint256",
          "name": "offerPrice",
          "type": "uint256"
        },
        {
          "indexed": false,
          "internalType": "uint256",
          "name": "expiresAt",
          "type": "uint256"
        }
      ],
      "name": "OfferCreated",
      "type": "event"
    },
    {
      "anonymous": false,
      "inputs": [
        {
          "indexed": true,
          "internalType": "address",
          "name": "previousOwner",
          "type": "address"
        },
        {
          "indexed": true,
          "internalType": "address",
          "name": "newOwner",
          "type": "address"
        }
      ],
      "name": "OwnershipTransferred",
      "type": "event"
    },
    {
      "inputs": [],
      "name": "FEE_DENOMINATOR",
      "outputs": [
        {
          "internalType": "uint256",
          "name": "",
          "type": "uint256"
        }
      ],
      "stateMutability": "view",
      "type": "function"
    },
    {
      "inputs": [],
      "name": "USDC_ADDRESS",
      "outputs": [
        {
          "internalType": "address",
          "name": "",
          "type": "address"
        }
      ],
      "stateMutability": "view",
      "type": "function"
    },
    {
      "inputs": [
        {
          "internalType": "uint256",
          "name": "offerId",
          "type": "uint256"
        }
      ],
      "name": "acceptOffer",
      "outputs": [],
      "stateMutability": "nonpayable",
      "type": "function"
    },
    {
      "inputs": [
        {
          "internalType": "uint256",
          "name": "",
          "type": "uint256"
        }
      ],
      "name": "activeListings",
      "outputs": [
        {
          "internalType": "string",
          "name": "",
          "type": "string"
        }
      ],
      "stateMutability": "view",
      "type": "function"
    },
    {
      "inputs": [
        {
          "internalType": "string",
          "name": "projectId",
          "type": "string"
        }
      ],
      "name": "buyAsset",
      "outputs": [],
      "stateMutability": "payable",
      "type": "function"
    },
    {
      "inputs": [
        {
          "internalType": "string",
          "name": "projectId",
          "type": "string"
        }
      ],
      "name": "cancelListing",
      "outputs": [],
      "stateMutability": "nonpayable",
      "type": "function"
    },
    {
      "inputs": [
        {
          "internalType": "uint256",
          "name": "offerId",
          "type": "uint256"
        }
      ],
      "name": "cancelOffer",
      "outputs": [],
      "stateMutability": "nonpayable",
      "type": "function"
    },
    {
      "inputs": [],
      "name": "getActiveListingsCount",
      "outputs": [
        {
          "internalType": "uint256",
          "name": "",
          "type": "uint256"
        }
      ],
      "stateMutability": "view",
      "type": "function"
    },
    {
      "inputs": [
        {
          "internalType": "string",
          "name": "projectId",
          "type": "string"
        }
      ],
      "name": "getProjectOffers",
      "outputs": [
        {
          "internalType": "uint256[]",
          "name": "",
          "type": "uint256[]"
        }
      ],
      "stateMutability": "view",
      "type": "function"
    },
    {
      "inputs": [],
      "name": "libraryContract",
      "outputs": [
        {
          "internalType": "contract IClayLibrary",
          "name": "",
          "type": "address"
        }
      ],
      "stateMutability": "view",
      "type": "function"
    },
    {
      "inputs": [
        {
          "internalType": "string",
          "name": "projectId",
          "type": "string"
        },
        {
          "internalType": "uint256",
          "name": "price",
          "type": "uint256"
        },
        {
          "internalType": "enum ClayMarketplace.PaymentToken",
          "name": "paymentToken",
          "type": "uint8"
        }
      ],
      "name": "listAsset",
      "outputs": [],
      "stateMutability": "nonpayable",
      "type": "function"
    },
    {
      "inputs": [
        {
          "internalType": "string",
          "name": "",
          "type": "string"
        }
      ],
      "name": "listings",
      "outputs": [
        {
          "internalType": "string",
          "name": "projectId",
          "type": "string"
        },
        {
          "internalType": "address",
          "name": "seller",
          "type": "address"
        },
        {
          "internalType": "uint256",
          "name": "price",
          "type": "uint256"
        },
        {
          "internalType": "enum ClayMarketplace.PaymentToken",
          "name": "paymentToken",
          "type": "uint8"
        },
        {
          "internalType": "uint256",
          "name": "listedAt",
          "type": "uint256"
        },
        {
          "internalType": "bool",
          "name": "isActive",
          "type": "bool"
        }
      ],
      "stateMutability": "view",
      "type": "function"
    },
    {
      "inputs": [
        {
          "internalType": "string",
          "name": "projectId",
          "type": "string"
        },
        {
          "internalType": "uint256",
          "name": "offerPrice",
          "type": "uint256"
        },
        {
          "internalType": "enum ClayMarketplace.PaymentToken",
          "name": "paymentToken",
          "type": "uint8"
        },
        {
          "internalType": "uint256",
          "name": "duration",
          "type": "uint256"
        }
      ],
      "name": "makeOffer",
      "outputs": [],
      "stateMutability": "payable",
      "type": "function"
    },
    {
      "inputs": [],
      "name": "nextOfferId",
      "outputs": [
        {
          "internalType": "uint256",
          "name": "",
          "type": "uint256"
        }
      ],
      "stateMutability": "view",
      "type": "function"
    },
    {
      "inputs": [
        {
          "internalType": "uint256",
          "name": "",
          "type": "uint256"
        }
      ],
      "name": "offers",
      "outputs": [
        {
          "internalType": "string",
          "name": "projectId",
          "type": "string"
        },
        {
          "internalType": "address",
          "name": "buyer",
          "type": "address"
        },
        {
          "internalType": "uint256",
          "name": "offerPrice",
          "type": "uint256"
        },
        {
          "internalType": "enum ClayMarketplace.PaymentToken",
          "name": "paymentToken",
          "type": "uint8"
        },
        {
          "internalType": "uint256",
          "name": "offeredAt",
          "type": "uint256"
        },
        {
          "internalType": "uint256",
          "name": "expiresAt",
          "type": "uint256"
        },
        {
          "internalType": "bool",
          "name": "isActive",
          "type": "bool"
        }
      ],
      "stateMutability": "view",
      "type": "function"
    },
    {
      "inputs": [],
      "name": "owner",
      "outputs": [
        {
          "internalType": "address",
          "name": "",
          "type": "address"
        }
      ],
      "stateMutability": "view",
      "type": "function"
    },
    {
      "inputs": [],
      "name": "platformFeePercentage",
      "outputs": [
        {
          "internalType": "uint256",
          "name": "",
          "type": "uint256"
        }
      ],
      "stateMutability": "view",
      "type": "function"
    },
    {
      "inputs": [
        {
          "internalType": "string",
          "name": "",
          "type": "string"
        },
        {
          "internalType": "uint256",
          "name": "",
          "type": "uint256"
        }
      ],
      "name": "projectOffers",
      "outputs": [
        {
          "internalType": "uint256",
          "name": "",
          "type": "uint256"
        }
      ],
      "stateMutability": "view",
      "type": "function"
    },
    {
      "inputs": [],
      "name": "renounceOwnership",
      "outputs": [],
      "stateMutability": "nonpayable",
      "type": "function"
    },
    {
      "inputs": [
        {
          "internalType": "address",
          "name": "newOwner",
          "type": "address"
        }
      ],
      "name": "transferOwnership",
      "outputs": [],
      "stateMutability": "nonpayable",
      "type": "function"
    },
    {
      "inputs": [
        {
          "internalType": "string",
          "name": "projectId",
          "type": "string"
        },
        {
          "internalType": "uint256",
          "name": "newPrice",
          "type": "uint256"
        }
      ],
      "name": "updateListingPrice",
      "outputs": [],
      "stateMutability": "nonpayable",
      "type": "function"
    },
    {
      "inputs": [
        {
          "internalType": "uint256",
          "name": "newFeePercentage",
          "type": "uint256"
        }
      ],
      "name": "updatePlatformFee",
      "outputs": [],
      "stateMutability": "nonpayable",
      "type": "function"
    },
    {
      "inputs": [],
      "name": "usdcToken",
      "outputs": [
        {
          "internalType": "contract IERC20",
          "name": "",
          "type": "address"
        }
      ],
      "stateMutability": "view",
      "type": "function"
    },
    {
      "inputs": [],
      "name": "withdrawPlatformFees",
      "outputs": [],
      "stateMutability": "nonpayable",
      "type": "function"
    },
    {
      "inputs": [],
      "name": "withdrawPlatformFeesUSDC",
      "outputs": [],
      "stateMutability": "nonpayable",
      "type": "function"
    }
  ],
  "bytecode": "0x60a03461012157601f62002afb38819003918201601f19168301916001600160401b038311848410176101265780849260209460405283398101031261012157516001600160a01b0390818116908190036101215733156101085760005460018060a01b0319903382821617600055604051933391167f8be0079c531659141344cd1fd0a4f28419497f9722a3daafe3b4186f6b6457e0600080a360018055600160065560fa600855600254161760025573833589fcd6edb6e08f4c7c32d4f71b54bda029136080526129be90816200013d82396080518181816103a3015281816104b7015281816109a901528181610d660152818161133801528181611c8101526128e30152f35b604051631e4fbdf760e01b815260006004820152602490fd5b600080fd5b634e487b7160e01b600052604160045260246000fdfe60806040908082526004908136101561001757600080fd5b600090813560e01c90816311eac85514611c6d5750806313b06915146119635780635f5d06551461194457806361cf4863146118de578063715018a61461188457806377dec6c3146117d45780637b55927c146117b55780638a72ea6a1461171b5780638da5cb5b146116f35780639122d55314611613578063943f22611461151e578063a22355581461104d578063a3a6705814610ff4578063aa0b598814610f88578063bb09d9b714610f59578063c7ef967214610af2578063c815729d146106f2578063cdd78cfc146106d3578063ce0769c5146106aa578063d0b7830b1461062b578063d73792a91461060e578063dceb76861461047e578063ef706adf146102a4578063f2fde38b146102115763f941fb991461013857600080fd5b3461020e576020918260031936011261020a5780356001600160401b038111610206579261016e61018092829695369101611d15565b81855193828580945193849201611ea6565b81016005815203019020908251808584549182815201908194845286842090845b8181106101f257505050816101b7910382611cd9565b83519485948186019282875251809352850193925b8281106101db57505050500390f35b8351855286955093810193928101926001016101cc565b8254845292880192600192830192016101a1565b8280fd5b5080fd5b80fd5b509134610206576020366003190112610206576001600160a01b038235818116939192908490036102a057610244611f42565b831561028a575050600054826001600160601b0360a01b821617600055167f8be0079c531659141344cd1fd0a4f28419497f9722a3daafe3b4186f6b6457e0600080a380f35b51631e4fbdf760e01b8152908101849052602490fd5b8480fd5b50919034610206576020918260031936011261047a578135916102c56123ab565b82855280845281852093600685018054926102e260ff85166123dd565b60018701546001600160a01b039290831633036104375760028801549460ff1916905560ff60038801541660028110156104245788939291906103765750505080808061033a94335af161033461233f565b5061236f565b51806103478133956124b2565b039020907fa73002eb00b7f458173aec22cf4445bbdb98267f801a7fe3d22dba9382338cdb8480a46001805580f35b855163a9059cbb60e01b8152339181019182526020820195909552919283928592918391829060400103927f0000000000000000000000000000000000000000000000000000000000000000165af190811561041a5786916103e3575b506103de915061236f565b61033a565b905081813d8311610413575b6103f98183611cd9565b810103126102a05761040d6103de91612013565b386103d3565b503d6103ef565b83513d88823e3d90fd5b634e487b7160e01b895260218252602489fd5b855162461bcd60e51b8152808301859052601b60248201527f4f6e6c792062757965722063616e2063616e63656c206f6666657200000000006044820152606490fd5b8380fd5b50823461020a578160031936011261020a57610498611f42565b80516370a0823160e01b81523084820152926020906001600160a01b037f0000000000000000000000000000000000000000000000000000000000000000811691908387602481865afa9687156106045786976105d1575b50861561058e578554855163a9059cbb60e01b815291166001600160a01b031691810191825260208201969096529394938291859182908890829060400103925af19182156105855750839161054e575b8361054b83612534565b80f35b905081813d831161057e575b6105648183611cd9565b8101031261020a5761057861054b91612013565b83610541565b503d61055a565b513d85823e3d90fd5b845162461bcd60e51b8152808301859052601860248201527f4e6f2055534443206665657320746f20776974686472617700000000000000006044820152606490fd5b9096508381813d83116105fd575b6105e98183611cd9565b810103126105f9575195876104f0565b8580fd5b503d6105df565b85513d88823e3d90fd5b50823461020a578160031936011261020a57602090516127108152f35b50919034610206578260031936011261020657610646611f42565b47918215610671578361054b818080808860018060a01b038254165af161066b61233f565b50612534565b906020606492519162461bcd60e51b835282015260136024820152724e6f206665657320746f20776974686472617760681b6044820152fd5b50823461020a578160031936011261020a5760025490516001600160a01b039091168152602090f35b50823461020a578160031936011261020a576020906008549051908152f35b509190346102065760208060031936011261047a578135916107126123ab565b828552808252838520936006850161072d60ff8254166123dd565b6005860154421015610ac0576002548251630cd5286d60e41b81528481018690526001600160a01b039791899082908a16818061076d602482018861241c565b03915afa8015610ab65789918a91610a81575b5061078a906120c9565b8733911603610a3e5760028101968754926107b56127106107ad600854876122bd565b0480956122e6565b60ff6003850154166002811015610a2b57888c911560001461097d57508080806107ea94335af16107e461233f565b506122f3565b8982600254169660018501978489541691813b1561047a5783918991838351809681958294632203f8f160e01b8452830152610829604483018d61241c565b90602483015203925af1801561097357610955575b5050907f8c68d600771ad8af3c86a9f96bd5c471eca94aebd78ea274787f8e95e07aaa1095610909939260ff199081815416905560ff600588518b81610884818a6124b2565b600381520301902001541661091f575b506108a66108a184611e00565b612777565b5416809854978551806108b981866124b2565b03902086516001600160a01b03939093168352602083018a905233929091907f9332956e0c3dd558cabf109a274fd9184f7cd2081da1b9d9e28e702cf8a6cc5990604090a48351918280926124b2565b0390209382519586528501523393a46001805580f35b600587518a8161092f81896124b2565b60038152030190200190815416905561094f61094a84611e00565b612650565b38610894565b6109629094939294611cb0565b61096f579091893861083e565b8980fd5b87513d84823e3d90fd5b875163a9059cbb60e01b8152338a820190815260208101949094529290918391829081906040010391877f0000000000000000000000000000000000000000000000000000000000000000165af18015610a21578b906109e7575b6109e291506122f3565b6107ea565b508781813d8311610a1a575b6109fd8183611cd9565b81010312610a1657610a116109e291612013565b6109d8565b8a80fd5b503d6109f3565b86513d8d823e3d90fd5b634e487b7160e01b8c526021885260248cfd5b825162461bcd60e51b8152808501869052601b60248201527f4f6e6c79206f776e65722063616e20616363657074206f6666657200000000006044820152606490fd5b61078a9250610aa291503d808c833e610a9a8183611cd9565b810190612020565b9b9a50505050505093505050509190610780565b84513d8b823e3d90fd5b5091606492519162461bcd60e51b8352820152600d60248201526c13d999995c88195e1c1a5c9959609a1b6044820152fd5b50919060208060031936011261047a5781356001600160401b0381116102a057610b1f9036908401611d15565b92610b286123ab565b805182818651610b3b8183858b01611ea6565b810160038152030190209260058401610b5760ff82541661227c565b6001850180546001600160a01b0390811693909290338514610f1657600288019788549560ff6003610b99612710610b916008548c6122bd565b04809a6122e6565b930154166002811015610f0357610d30575088543410610ced578a808080610bc994898954165af16107e461233f565b87548a813411610ccb575b50505b89846002541691823b1561020a57610c0d9288838d93825196879586948593632203f8f160e01b85528401526044830190611ec9565b33602483015203925af18015610cc157610c82575b50805460ff191690557f8c68d600771ad8af3c86a9f96bd5c471eca94aebd78ea274787f8e95e07aaa10939291610c6f91610c5c89612650565b610c6589612777565b541695549661225c565b9382519687528601523394a46001805580f35b917f8c68d600771ad8af3c86a9f96bd5c471eca94aebd78ea274787f8e95e07aaa109594939199610cb5610c6f94611cb0565b99919394955091610c22565b86513d8c823e3d90fd5b808080610cdb610ce695346122e6565b335af161033461233f565b388a610bd4565b865162461bcd60e51b8152808301899052601860248201527f496e73756666696369656e7420455448207061796d656e7400000000000000006044820152606490fd5b9034610eb65787516323b872dd60e01b808252338583019081526001600160a01b03909416602085015260408401929092528c927f0000000000000000000000000000000000000000000000000000000000000000881691908b9082908190606001038187865af1908115610eac57908b9392918591610e73575b50610db5906122f3565b895191825233858301908152306020820152604081018a905291938492839190829060600103925af1908115610e69578b91610e34575b50610bd757855162461bcd60e51b8152908101879052601c60248201527f506c6174666f726d20666565207472616e73666572206661696c6564000000006044820152606490fd5b90508781813d8311610e62575b610e4b8183611cd9565b81010312610a1657610e5c90612013565b38610dec565b503d610e41565b87513d8d823e3d90fd5b84819592503d8311610ea5575b610e8a8183611cd9565b8101031261047a57610db5610e9f8c94612013565b90610dab565b503d610e80565b8a513d86823e3d90fd5b875162461bcd60e51b81528084018a9052602160248201527f446f206e6f742073656e642045544820666f72205553444320707572636861736044820152606560f81b6064820152608490fd5b634e487b7160e01b8d526021845260248dfd5b855162461bcd60e51b8152908101879052601960248201527f43616e6e6f742062757920796f7572206f776e206173736574000000000000006044820152606490fd5b50823461020a578160031936011261020a576020905173833589fcd6edb6e08f4c7c32d4f71b54bda029138152f35b5091903461020657602036600319011261020657803591610fa7611f42565b6103e88311610fb857505060085580f35b906020606492519162461bcd60e51b8352820152601660248201527546656520746f6f206869676820286d6178203130252960501b6044820152fd5b50823461020a5760209161101e61100a36611f11565b949081855193828580945193849201611ea6565b8101600581520301902090815484101561020e575060209261103f91611dae565b91905490519160031b1c8152f35b5091906080366003190112610206576001600160401b0381358181116102a05761107a9036908401611d15565b92602491823594604494853594600286101561151a5760649384359689156114e257610e10881015806114d5575b156114a2576002548751630cd5286d60e41b815260208682018190529a6001600160a01b03989290918e91829082908c1681806110e78c82018f611ec9565b03915afa9081156114985782809261146a575b5050611105906120c9565b8816331461142c5782611302578b34036112ce5750505b60065497611129896123ce565b6006554201958642116112bc5787519260e08401908111848210176112aa5789928c8e8a948e948d528a88526111998d868a0193338552818b0195865261117460608c019788612115565b8c60808c0198428a5260a08d019a8b5260c08d019b60018d528352522098518961217d565b600188019151166001600160601b0360a01b82541617905551600286015551600281101561129857918493916111d760069460036111f89801612244565b518785015551600584015551151591019060ff801983541691151516179055565b84518781855161120b8183858a01611ea6565b8101600581520301902090815492600160401b8410156112875750509161125e827fcfed541454dac78f93da97764a61638d187363e6d64a389faa86edcaaf8932bc969594600161127895018155611dae565b81549060031b9088821b91600019901b191617905561225c565b9482519687528601523394a480f35b634e487b7160e01b8b526041905289fd5b634e487b7160e01b8e5260218752858efd5b634e487b7160e01b8d5260418652848dfd5b634e487b7160e01b8c5260118552838cfd5b7208aa89040c2dadeeadce840dad2e6dac2e8c6d606b1b86916013878e8d519562461bcd60e51b8752860152840152820152fd5b346113ee5788516323b872dd60e01b815233878201908152306020820152604081018e90528e91908d90829081900360600181857f00000000000000000000000000000000000000000000000000000000000000008f165af19182156113e357916113aa575b501561137557505061111c565b731554d110c81d1c985b9cd9995c8819985a5b195960621b86916014878e8d519562461bcd60e51b8752860152840152820152fd5b90508b81813d83116113dc575b6113c18183611cd9565b810103126113d8576113d290612013565b38611368565b8d80fd5b503d6113b7565b8b51903d90823e3d90fd5b7f446f206e6f742073656e642045544820666f722055534443206f6666657200008691601e878e8d519562461bcd60e51b8752860152840152820152fd5b7f43616e6e6f74206f66666572206f6e20796f7572206f776e20617373657400008691601e878e8d519562461bcd60e51b8752860152840152820152fd5b611105935061148392503d8091833e610a9a8183611cd9565b9b9a505050505050935050505091908f6110fa565b8b513d84823e3d90fd5b865162461bcd60e51b81526020818601526010818501526f24b73b30b634b210323ab930ba34b7b760811b818b01528690fd5b5062278d008811156110a8565b865162461bcd60e51b8152602081860152601581850152744f66666572206d75737420686176652076616c756560581b818b01528690fd5b8880fd5b5091346102065760203660031901126102065781356001600160401b03811161047a5761154e9036908401611d15565b91815160208185516115638183858a01611ea6565b8101600381520301902090600582019283549261158260ff851661227c565b600101546001600160a01b031633036115d757505060ff191690556115a681612650565b6115b0339161225c565b7f0ad06290f905050c9dac577e139b4b450621b456073e716db7561a52f3ff89288380a380f35b906020606492519162461bcd60e51b8352820152601660248201527513db9b1e481cd95b1b195c8818d85b8818d85b98d95b60521b6044820152fd5b5091346102065761162336611f11565b92825160208184516116388183858901611ea6565b810160038152030190209061165360ff60058401541661227c565b60018201546001600160a01b031633036116b75750906116a860027f702cf1ff9b007b1ce6285f06d88972428a71330a6f9bc7ac9b49803661dd7bde949361169c871515611f6e565b0191858354935561225c565b9382519182526020820152a280f35b606490602085519162461bcd60e51b835282015260166024820152754f6e6c792073656c6c65722063616e2075706461746560501b6044820152fd5b50823461020a578160031936011261020a57905490516001600160a01b039091168152602090f35b50919034610206576020366003190112610206578161178d938235815282602052209161174783611e00565b9260018060a01b03600182015416926117a060028301549160ff600385015416908401549260ff6006600587015496015416958051998a9960e08b5260e08b0190611ec9565b9760208a01528801526060870190611eee565b608085015260a0840152151560c08301520390f35b50823461020a578160031936011261020a576020906007549051908152f35b50919034610206576020366003190112610206578035926001600160401b03841161020e575061180f602061016e6118619536908501611d15565b810160038152030190209161182383611e00565b9261187460018060a01b0360018301541693600283015460ff600581600387015416938601549501541694805198899860c08a5260c08a0190611ec9565b9660208901528701526060860190611eee565b6080840152151560a08301520390f35b503461020e578060031936011261020e5761189d611f42565b80546001600160a01b03198116825581906001600160a01b03167f8be0079c531659141344cd1fd0a4f28419497f9722a3daafe3b4186f6b6457e08280a380f35b5082903461020e57602036600319011261020e57823560075481101561020a5761190790611d61565b9390936119325761192e8361191b86611e00565b9051918291602083526020830190611ec9565b0390f35b634e487b7160e01b8252819052602490fd5b50823461020a578160031936011261020a576020906006549051908152f35b509134610206576060366003190112610206576001600160401b039082358281116102a0576119959036908501611d15565b602493843594604435946002861015611c69576119b3871515611f6e565b84519584519060ff60056020998a81818b01966119d181838a611ea6565b81016003815203019020015416611c30576002548751630cd5286d60e41b81528681018a90526001600160a01b03918c90829084168180611a148b82018e611ec9565b03915afa8015611c26578c918d91611bf9575b50611a31906120c9565b8133911603611bb75787519360c0850190811185821017611ba55790889392918452878552898501338152848601918c8352611a71606088019485612115565b611aab611a998d60808a01974289528d60a08c019a60018c5251938492839251928391611ea6565b8101600381520301902097518861217d565b600187019151166001600160601b0360a01b825416179055516002850155516002811015611b935791600591611ae885946003611b039701612244565b518684015551151591019060ff801983541691151516179055565b600754600160401b811015611b8157806001611b229201600755611d61565b929092611b7157505081611b5b7ff34a4c127ff02f03c1d1fb093bb2c95ec0cfd3c38220b818ef19234533c6b96c9493611b609361217d565b61225c565b92815194855242908501523393a380f35b634e487b7160e01b885287905286fd5b50634e487b7160e01b87526041825286fd5b634e487b7160e01b8b5260218652848bfd5b634e487b7160e01b8c5260418752858cfd5b875162461bcd60e51b81528087018a90526019818701527f4f6e6c79206f776e65722063616e206c697374206173736574000000000000006044820152606490fd5b611a319250611c1291503d808f833e610a9a8183611cd9565b9b9a50505050505093505050509190611a27565b89513d8e823e3d90fd5b865162461bcd60e51b815280860189905260148186015273105cdcd95d08185b1c9958591e481b1a5cdd195960621b6044820152606490fd5b8780fd5b90503461020a578160031936011261020a577f00000000000000000000000000000000000000000000000000000000000000006001600160a01b03168152602090f35b6001600160401b038111611cc357604052565b634e487b7160e01b600052604160045260246000fd5b90601f801991011681019081106001600160401b03821117611cc357604052565b6001600160401b038111611cc357601f01601f191660200190565b81601f82011215611d5c57803590611d2c82611cfa565b92611d3a6040519485611cd9565b82845260208383010111611d5c57816000926020809301838601378301015290565b600080fd5b600754811015611d985760076000527fa66cc928b5edb82af9bd49922954155ab7b0942694bea4ce44661d9a8736c6880190600090565b634e487b7160e01b600052603260045260246000fd5b8054821015611d985760005260206000200190600090565b90600182811c92168015611df6575b6020831014611de057565b634e487b7160e01b600052602260045260246000fd5b91607f1691611dd5565b9060405191826000825492611e1484611dc6565b908184526001948581169081600014611e835750600114611e40575b5050611e3e92500383611cd9565b565b9093915060005260209081600020936000915b818310611e6b575050611e3e93508201013880611e30565b85548884018501529485019487945091830191611e53565b915050611e3e94506020925060ff191682840152151560051b8201013880611e30565b60005b838110611eb95750506000910152565b8181015183820152602001611ea9565b90602091611ee281518092818552858086019101611ea6565b601f01601f1916010190565b906002821015611efb5752565b634e487b7160e01b600052602160045260246000fd5b6040600319820112611d5c57600435906001600160401b038211611d5c57611f3b91600401611d15565b9060243590565b6000546001600160a01b03163303611f5657565b60405163118cdaa760e01b8152336004820152602490fd5b15611f7557565b60405162461bcd60e51b815260206004820152601c60248201527f5072696365206d7573742062652067726561746572207468616e2030000000006044820152606490fd5b81601f82011215611d5c578051611fd081611cfa565b92611fde6040519485611cd9565b81845260208284010111611d5c57611ffc9160208085019101611ea6565b90565b51906001600160a01b0382168203611d5c57565b51908115158203611d5c57565b61018081830312611d5c578051926001600160401b0393848111611d5c578361204a918401611fba565b936020830151818111611d5c5784612063918501611fba565b936040840151918211611d5c5761207b918401611fba565b9160608101519160808201519161209460a08201611fff565b916120a160c08301611fff565b9160e0810151916101008201519161012081015191611ffc6101606101408401519301612013565b156120d057565b60405162461bcd60e51b815260206004820152601a60248201527f4173736574206e6f7420666f756e6420696e206c6962726172790000000000006044820152606490fd5b6002821015611efb5752565b81811061212c575050565b60008155600101612121565b9190601f811161214757505050565b611e3e926000526020600020906020601f840160051c83019310612173575b601f0160051c0190612121565b9091508190612166565b91909182516001600160401b038111611cc3576121a48161219e8454611dc6565b84612138565b602080601f83116001146121e05750819293946000926121d5575b50508160011b916000199060031b1c1916179055565b0151905038806121bf565b90601f198316958460005282600020926000905b88821061222c57505083600195969710612213575b505050811b019055565b015160001960f88460031b161c19169055388080612209565b806001859682949686015181550195019301906121f4565b906002811015611efb5760ff80198354169116179055565b61227490602060405192828480945193849201611ea6565b810103902090565b1561228357565b60405162461bcd60e51b81526020600482015260126024820152714c697374696e67206e6f742061637469766560701b6044820152606490fd5b818102929181159184041417156122d057565b634e487b7160e01b600052601160045260246000fd5b919082039182116122d057565b156122fa57565b60405162461bcd60e51b815260206004820152601860248201527f5061796d656e7420746f2073656c6c6572206661696c656400000000000000006044820152606490fd5b3d1561236a573d9061235082611cfa565b9161235e6040519384611cd9565b82523d6000602084013e565b606090565b1561237657565b60405162461bcd60e51b815260206004820152600d60248201526c1499599d5b990819985a5b1959609a1b6044820152606490fd5b6002600154146123bc576002600155565b604051633ee5aeb560e01b8152600490fd5b60001981146122d05760010190565b156123e457565b60405162461bcd60e51b815260206004820152601060248201526f4f66666572206e6f742061637469766560801b6044820152606490fd5b906000929180549161242d83611dc6565b91828252600193848116908160001461248f575060011461244f575b50505050565b90919394506000526020928360002092846000945b83861061247b575050505001019038808080612449565b805485870183015294019385908201612464565b9294505050602093945060ff191683830152151560051b01019038808080612449565b6000929181546124c181611dc6565b9260019180831690811561251957506001146124dd5750505050565b90919293945060005260209081600020906000915b8583106125085750505050019038808080612449565b8054858401529183019181016124f2565b60ff1916845250505081151590910201915038808080612449565b1561253b57565b60405162461bcd60e51b815260206004820152601160248201527015da5d1a191c985dd85b0819985a5b1959607a1b6044820152606490fd5b9080821461264c576125868154611dc6565b906001600160401b038211611cc35781906125ab826125a58654611dc6565b86612138565b600090601f83116001146125e1576000926125d65750508160011b916000199060031b1c1916179055565b0154905038806121bf565b81526020808220858352818320935090601f1985169083905b82821061263357505090846001959493921061261a57505050811b019055565b015460001960f88460031b161c19169055388080612209565b84958192958501548155600180910196019401906125fa565b5050565b60005b6007805490818310156124495761267d9161268461267085611d61565b506040519485809261241c565b0384611cd9565b8251602080940120855184870120146126a8575050506126a3906123ce565b612653565b91935091600019918281019081116122d0576126c66126cd91611d61565b5091611d61565b91909161274b576126dd91612574565b815480156127615701916126f083611d61565b61274b576126fe8154611dc6565b8061270a575b50505055565b600092601f9081831160011461272757505050555b388080612704565b83916127449186949585528420940160051c840160018501612121565b555561271f565b634e487b7160e01b600052600060045260246000fd5b634e487b7160e01b600052603160045260246000fd5b90604091825180825160209281612792859383858901611ea6565b8101600581520301902060005b8154811015612980576127b28183611dae565b9054600391821b1c60005260049081855287600020916006830180549060ff918281166127ee575b5050505050506127e9906123ce565b61279f565b60ff191690556000908385015416916002928381101561296d5788918c916128a157505050509060008080806127e997969560018060a01b0360018801541690870154905af161283c61233f565b505b61284c575b829381806127da565b6128568386611dae565b90546001909301546001600160a01b031692911b1c6128748761225c565b907fa73002eb00b7f458173aec22cf4445bbdb98267f801a7fe3d22dba9382338cdb600080a43880612843565b600187015494870154915163a9059cbb60e01b81526001600160a01b0395861691810191825260208201929092529293909283919082908690829060400103927f0000000000000000000000000000000000000000000000000000000000000000165af1918215612962578092612921575b5050906127e993929161283e565b9091508682813d831161295b575b6129398183611cd9565b8101031261020e5750906129516127e9949392612013565b9091929338612913565b503d61292f565b8a51903d90823e3d90fd5b634e487b7160e01b835260218252602483fd5b50505050905056fea26469706673582212200ba07ad4211d36abe497ec83db1c78e638a1ccce4a5fc5d9c0c32a087f02b34764736f6c63430008140033",
  "linkReferences": {},
  "deployedLinkReferences": {}
}