{
  "_format": "hh-sol-artifact-1",
  "contractName": "ClayMarketplace",
  "sourceName": "ClayMarketplace.sol",
  "abi": [
    {
      "inputs": [
        {
          "internalType": "address",
          "name": "_libraryContract",
          "type": "address"
        },
        {
          "internalType": "address",
          "name": "_royaltyContract",
          "type": "address"
        }
      ],
      "stateMutability": "nonpayable",
      "type": "constructor"
    },
    {
      "inputs": [
        {
          "internalType": "address",
          "name": "owner",
          "type": "address"
        }
      ],
      "name": "OwnableInvalidOwner",
      "type": "error"
    },
    {
      "inputs": [
        {
          "internalType": "address",
          "name": "account",
          "type": "address"
        }
      ],
      "name": "OwnableUnauthorizedAccount",
      "type": "error"
    },
    {
      "inputs": [],
      "name": "ReentrancyGuardReentrantCall",
      "type": "error"
    },
    {
      "anonymous": false,
      "inputs": [
        {
          "indexed": true,
          "internalType": "string",
          "name": "projectId",
          "type": "string"
        },
        {
          "indexed": true,
          "internalType": "address",
          "name": "seller",
          "type": "address"
        },
        {
          "indexed": false,
          "internalType": "uint256",
          "name": "price",
          "type": "uint256"
        },
        {
          "indexed": false,
          "internalType": "uint256",
          "name": "timestamp",
          "type": "uint256"
        }
      ],
      "name": "AssetListed",
      "type": "event"
    },
    {
      "anonymous": false,
      "inputs": [
        {
          "indexed": true,
          "internalType": "string",
          "name": "projectId",
          "type": "string"
        },
        {
          "indexed": true,
          "internalType": "address",
          "name": "seller",
          "type": "address"
        },
        {
          "indexed": true,
          "internalType": "address",
          "name": "buyer",
          "type": "address"
        },
        {
          "indexed": false,
          "internalType": "uint256",
          "name": "price",
          "type": "uint256"
        },
        {
          "indexed": false,
          "internalType": "uint256",
          "name": "platformFee",
          "type": "uint256"
        }
      ],
      "name": "AssetSold",
      "type": "event"
    },
    {
      "anonymous": false,
      "inputs": [
        {
          "indexed": true,
          "internalType": "string",
          "name": "projectId",
          "type": "string"
        },
        {
          "indexed": true,
          "internalType": "address",
          "name": "seller",
          "type": "address"
        }
      ],
      "name": "ListingCancelled",
      "type": "event"
    },
    {
      "anonymous": false,
      "inputs": [
        {
          "indexed": true,
          "internalType": "string",
          "name": "projectId",
          "type": "string"
        },
        {
          "indexed": false,
          "internalType": "uint256",
          "name": "oldPrice",
          "type": "uint256"
        },
        {
          "indexed": false,
          "internalType": "uint256",
          "name": "newPrice",
          "type": "uint256"
        }
      ],
      "name": "ListingPriceUpdated",
      "type": "event"
    },
    {
      "anonymous": false,
      "inputs": [
        {
          "indexed": true,
          "internalType": "uint256",
          "name": "offerId",
          "type": "uint256"
        },
        {
          "indexed": true,
          "internalType": "string",
          "name": "projectId",
          "type": "string"
        },
        {
          "indexed": true,
          "internalType": "address",
          "name": "seller",
          "type": "address"
        },
        {
          "indexed": false,
          "internalType": "address",
          "name": "buyer",
          "type": "address"
        },
        {
          "indexed": false,
          "internalType": "uint256",
          "name": "price",
          "type": "uint256"
        }
      ],
      "name": "OfferAccepted",
      "type": "event"
    },
    {
      "anonymous": false,
      "inputs": [
        {
          "indexed": true,
          "internalType": "uint256",
          "name": "offerId",
          "type": "uint256"
        },
        {
          "indexed": true,
          "internalType": "string",
          "name": "projectId",
          "type": "string"
        },
        {
          "indexed": true,
          "internalType": "address",
          "name": "buyer",
          "type": "address"
        }
      ],
      "name": "OfferCancelled",
      "type": "event"
    },
    {
      "anonymous": false,
      "inputs": [
        {
          "indexed": true,
          "internalType": "uint256",
          "name": "offerId",
          "type": "uint256"
        },
        {
          "indexed": true,
          "internalType": "string",
          "name": "projectId",
          "type": "string"
        },
        {
          "indexed": true,
          "internalType": "address",
          "name": "buyer",
          "type": "address"
        },
        {
          "indexed": false,
          "internalType": "uint256",
          "name": "offerPrice",
          "type": "uint256"
        },
        {
          "indexed": false,
          "internalType": "uint256",
          "name": "expiresAt",
          "type": "uint256"
        }
      ],
      "name": "OfferCreated",
      "type": "event"
    },
    {
      "anonymous": false,
      "inputs": [
        {
          "indexed": true,
          "internalType": "uint256",
          "name": "offerId",
          "type": "uint256"
        },
        {
          "indexed": true,
          "internalType": "string",
          "name": "projectId",
          "type": "string"
        },
        {
          "indexed": true,
          "internalType": "address",
          "name": "buyer",
          "type": "address"
        },
        {
          "indexed": false,
          "internalType": "uint256",
          "name": "refundAmount",
          "type": "uint256"
        }
      ],
      "name": "OfferRefundFailed",
      "type": "event"
    },
    {
      "anonymous": false,
      "inputs": [
        {
          "indexed": true,
          "internalType": "address",
          "name": "previousOwner",
          "type": "address"
        },
        {
          "indexed": true,
          "internalType": "address",
          "name": "newOwner",
          "type": "address"
        }
      ],
      "name": "OwnershipTransferred",
      "type": "event"
    },
    {
      "inputs": [],
      "name": "FEE_DENOMINATOR",
      "outputs": [
        {
          "internalType": "uint256",
          "name": "",
          "type": "uint256"
        }
      ],
      "stateMutability": "view",
      "type": "function"
    },
    {
      "inputs": [],
      "name": "USDC_ADDRESS",
      "outputs": [
        {
          "internalType": "address",
          "name": "",
          "type": "address"
        }
      ],
      "stateMutability": "view",
      "type": "function"
    },
    {
      "inputs": [
        {
          "internalType": "uint256",
          "name": "offerId",
          "type": "uint256"
        }
      ],
      "name": "acceptOffer",
      "outputs": [],
      "stateMutability": "nonpayable",
      "type": "function"
    },
    {
      "inputs": [
        {
          "internalType": "uint256",
          "name": "",
          "type": "uint256"
        }
      ],
      "name": "activeListings",
      "outputs": [
        {
          "internalType": "string",
          "name": "",
          "type": "string"
        }
      ],
      "stateMutability": "view",
      "type": "function"
    },
    {
      "inputs": [
        {
          "internalType": "string",
          "name": "projectId",
          "type": "string"
        }
      ],
      "name": "buyAsset",
      "outputs": [],
      "stateMutability": "payable",
      "type": "function"
    },
    {
      "inputs": [
        {
          "internalType": "string",
          "name": "projectId",
          "type": "string"
        }
      ],
      "name": "cancelListing",
      "outputs": [],
      "stateMutability": "nonpayable",
      "type": "function"
    },
    {
      "inputs": [
        {
          "internalType": "uint256",
          "name": "offerId",
          "type": "uint256"
        }
      ],
      "name": "cancelOffer",
      "outputs": [],
      "stateMutability": "nonpayable",
      "type": "function"
    },
    {
      "inputs": [],
      "name": "getActiveListingsCount",
      "outputs": [
        {
          "internalType": "uint256",
          "name": "",
          "type": "uint256"
        }
      ],
      "stateMutability": "view",
      "type": "function"
    },
    {
      "inputs": [
        {
          "internalType": "string",
          "name": "projectId",
          "type": "string"
        }
      ],
      "name": "getProjectOffers",
      "outputs": [
        {
          "internalType": "uint256[]",
          "name": "",
          "type": "uint256[]"
        }
      ],
      "stateMutability": "view",
      "type": "function"
    },
    {
      "inputs": [],
      "name": "libraryContract",
      "outputs": [
        {
          "internalType": "contract IClayLibrary",
          "name": "",
          "type": "address"
        }
      ],
      "stateMutability": "view",
      "type": "function"
    },
    {
      "inputs": [
        {
          "internalType": "string",
          "name": "projectId",
          "type": "string"
        },
        {
          "internalType": "uint256",
          "name": "price",
          "type": "uint256"
        },
        {
          "internalType": "enum ClayMarketplace.PaymentToken",
          "name": "paymentToken",
          "type": "uint8"
        }
      ],
      "name": "listAsset",
      "outputs": [],
      "stateMutability": "nonpayable",
      "type": "function"
    },
    {
      "inputs": [
        {
          "internalType": "string",
          "name": "",
          "type": "string"
        }
      ],
      "name": "listings",
      "outputs": [
        {
          "internalType": "string",
          "name": "projectId",
          "type": "string"
        },
        {
          "internalType": "address",
          "name": "seller",
          "type": "address"
        },
        {
          "internalType": "uint256",
          "name": "price",
          "type": "uint256"
        },
        {
          "internalType": "enum ClayMarketplace.PaymentToken",
          "name": "paymentToken",
          "type": "uint8"
        },
        {
          "internalType": "uint256",
          "name": "listedAt",
          "type": "uint256"
        },
        {
          "internalType": "bool",
          "name": "isActive",
          "type": "bool"
        }
      ],
      "stateMutability": "view",
      "type": "function"
    },
    {
      "inputs": [
        {
          "internalType": "string",
          "name": "projectId",
          "type": "string"
        },
        {
          "internalType": "uint256",
          "name": "offerPrice",
          "type": "uint256"
        },
        {
          "internalType": "enum ClayMarketplace.PaymentToken",
          "name": "paymentToken",
          "type": "uint8"
        },
        {
          "internalType": "uint256",
          "name": "duration",
          "type": "uint256"
        }
      ],
      "name": "makeOffer",
      "outputs": [],
      "stateMutability": "payable",
      "type": "function"
    },
    {
      "inputs": [],
      "name": "nextOfferId",
      "outputs": [
        {
          "internalType": "uint256",
          "name": "",
          "type": "uint256"
        }
      ],
      "stateMutability": "view",
      "type": "function"
    },
    {
      "inputs": [
        {
          "internalType": "uint256",
          "name": "",
          "type": "uint256"
        }
      ],
      "name": "offers",
      "outputs": [
        {
          "internalType": "string",
          "name": "projectId",
          "type": "string"
        },
        {
          "internalType": "address",
          "name": "buyer",
          "type": "address"
        },
        {
          "internalType": "uint256",
          "name": "offerPrice",
          "type": "uint256"
        },
        {
          "internalType": "enum ClayMarketplace.PaymentToken",
          "name": "paymentToken",
          "type": "uint8"
        },
        {
          "internalType": "uint256",
          "name": "offeredAt",
          "type": "uint256"
        },
        {
          "internalType": "uint256",
          "name": "expiresAt",
          "type": "uint256"
        },
        {
          "internalType": "bool",
          "name": "isActive",
          "type": "bool"
        }
      ],
      "stateMutability": "view",
      "type": "function"
    },
    {
      "inputs": [],
      "name": "owner",
      "outputs": [
        {
          "internalType": "address",
          "name": "",
          "type": "address"
        }
      ],
      "stateMutability": "view",
      "type": "function"
    },
    {
      "inputs": [],
      "name": "platformFeePercentage",
      "outputs": [
        {
          "internalType": "uint256",
          "name": "",
          "type": "uint256"
        }
      ],
      "stateMutability": "view",
      "type": "function"
    },
    {
      "inputs": [
        {
          "internalType": "string",
          "name": "",
          "type": "string"
        },
        {
          "internalType": "uint256",
          "name": "",
          "type": "uint256"
        }
      ],
      "name": "projectOffers",
      "outputs": [
        {
          "internalType": "uint256",
          "name": "",
          "type": "uint256"
        }
      ],
      "stateMutability": "view",
      "type": "function"
    },
    {
      "inputs": [],
      "name": "renounceOwnership",
      "outputs": [],
      "stateMutability": "nonpayable",
      "type": "function"
    },
    {
      "inputs": [],
      "name": "royaltyContract",
      "outputs": [
        {
          "internalType": "contract IClayRoyalty",
          "name": "",
          "type": "address"
        }
      ],
      "stateMutability": "view",
      "type": "function"
    },
    {
      "inputs": [
        {
          "internalType": "address",
          "name": "_royaltyContract",
          "type": "address"
        }
      ],
      "name": "setRoyaltyContract",
      "outputs": [],
      "stateMutability": "nonpayable",
      "type": "function"
    },
    {
      "inputs": [
        {
          "internalType": "address",
          "name": "newOwner",
          "type": "address"
        }
      ],
      "name": "transferOwnership",
      "outputs": [],
      "stateMutability": "nonpayable",
      "type": "function"
    },
    {
      "inputs": [
        {
          "internalType": "string",
          "name": "projectId",
          "type": "string"
        },
        {
          "internalType": "uint256",
          "name": "newPrice",
          "type": "uint256"
        }
      ],
      "name": "updateListingPrice",
      "outputs": [],
      "stateMutability": "nonpayable",
      "type": "function"
    },
    {
      "inputs": [
        {
          "internalType": "uint256",
          "name": "newFeePercentage",
          "type": "uint256"
        }
      ],
      "name": "updatePlatformFee",
      "outputs": [],
      "stateMutability": "nonpayable",
      "type": "function"
    },
    {
      "inputs": [],
      "name": "usdcToken",
      "outputs": [
        {
          "internalType": "contract IERC20",
          "name": "",
          "type": "address"
        }
      ],
      "stateMutability": "view",
      "type": "function"
    },
    {
      "inputs": [],
      "name": "withdrawPlatformFees",
      "outputs": [],
      "stateMutability": "nonpayable",
      "type": "function"
    },
    {
      "inputs": [],
      "name": "withdrawPlatformFeesUSDC",
      "outputs": [],
      "stateMutability": "nonpayable",
      "type": "function"
    }
  ],
  "bytecode": "0x60a0346200014557601f62002d3d38819003918201601f19168301916001600160401b038311848410176200014a57808492604094855283398101031262000145576200005a6020620000528362000160565b920162000160565b33156200012c5760008054336001600160a01b0319808316821784556040519590946001600160a01b03949093859391908416907f8be0079c531659141344cd1fd0a4f28419497f9722a3daafe3b4186f6b6457e09080a360018055600160075560fa600955168360025416176002551690600354161760035573833589fcd6edb6e08f4c7c32d4f71b54bda02913608052612bc790816200017682396080518181816103ba015281816104ce01528181610a0f01528181610d930152818161136601528181611def0152612ae70152f35b604051631e4fbdf760e01b815260006004820152602490fd5b600080fd5b634e487b7160e01b600052604160045260246000fd5b51906001600160a01b0382168203620001455756fe60806040908082526004908136101561001757600080fd5b600090813560e01c90816311eac85514611ddb5750806313b06915146119bf5780631663ee03146119965780635f5d06551461197757806361cf486314611911578063715018a6146118b757806377dec6c3146118085780637b55927c146117e95780638a72ea6a1461174e5780638da5cb5b146117265780639122d55314611647578063943f22611461154a578063a22355581461107a578063a3a6705814611021578063aa0b598814610fb5578063bb09d9b714610f86578063c7ef967214610b50578063c815729d1461074e578063cdd78cfc1461072f578063ce0769c514610706578063d0b7830b14610687578063d73792a91461066a578063d9aa187c14610626578063dceb768614610495578063ef706adf146102ba578063f2fde38b146102275763f941fb991461014e57600080fd5b3461022457602091826003193601126102205780356001600160401b03811161021c579261018461019692829695369101611e83565b8185519382858094519384920161200f565b81016006815203019020908251808584549182815201908194845286842090845b81811061020857505050816101cd910382611e47565b83519485948186019282875251809352850193925b8281106101f157505050500390f35b8351855286955093810193928101926001016101e2565b8254845292880192600192830192016101b7565b8280fd5b5080fd5b80fd5b50913461021c57602036600319011261021c576001600160a01b038235818116939192908490036102b65761025a6120ab565b83156102a0575050600054826001600160601b0360a01b821617600055167f8be0079c531659141344cd1fd0a4f28419497f9722a3daafe3b4186f6b6457e0600080a380f35b51631e4fbdf760e01b8152908101849052602490fd5b8480fd5b5091903461021c5760209182600319360112610491578135916102db61252e565b8285526005845281852093600685018054926102f960ff8516612560565b60018701546001600160a01b0392908316330361044e5760028801549460ff1916905560ff600388015416600281101561043b57889392919061038d5750505080808061035194335af161034b6124fe565b506126b7565b518061035e813395612635565b039020907fa73002eb00b7f458173aec22cf4445bbdb98267f801a7fe3d22dba9382338cdb8480a46001805580f35b855163a9059cbb60e01b8152339181019182526020820195909552919283928592918391829060400103927f0000000000000000000000000000000000000000000000000000000000000000165af19081156104315786916103fa575b506103f591506126b7565b610351565b905081813d831161042a575b6104108183611e47565b810103126102b6576104246103f59161217c565b386103ea565b503d610406565b83513d88823e3d90fd5b634e487b7160e01b895260218252602489fd5b855162461bcd60e51b8152808301859052601b60248201527f4f6e6c792062757965722063616e2063616e63656c206f6666657200000000006044820152606490fd5b8380fd5b5082346102205781600319360112610220576104af6120ab565b80516370a0823160e01b81523084820152926020906001600160a01b037f0000000000000000000000000000000000000000000000000000000000000000811691908387602481865afa96871561061c5786976105e8575b5086156105a5578554855163a9059cbb60e01b815291166001600160a01b031691810191825260208201969096529394938291859182908890829060400103925af191821561059c57508391610565575b83610562836126f3565b80f35b905081813d8311610595575b61057b8183611e47565b810103126102205761058f6105629161217c565b83610558565b503d610571565b513d85823e3d90fd5b845162461bcd60e51b8152808301859052601860248201527f4e6f2055534443206665657320746f20776974686472617700000000000000006044820152606490fd5b9096508381813d8311610615575b6106008183611e47565b8101031261061057519587610507565b600080fd5b503d6105f6565b85513d88823e3d90fd5b50903461022057602036600319011261022057356001600160a01b03811690819003610220576106546120ab565b6001600160601b0360a01b600354161760035580f35b508234610220578160031936011261022057602090516127108152f35b5091903461021c578260031936011261021c576106a26120ab565b479182156106cd5783610562818080808860018060a01b038254165af16106c76124fe565b506126f3565b906020606492519162461bcd60e51b835282015260136024820152724e6f206665657320746f20776974686472617760681b6044820152fd5b50823461022057816003193601126102205760025490516001600160a01b039091168152602090f35b5082346102205781600319360112610220576020906009549051908152f35b5091903461021c576020806003193601126104915781359161076e61252e565b8285526005825283852093600685019161078b60ff845416612560565b6005860154421015610b1f576002548251630cd5286d60e41b81528281018690526001600160a01b039791899082908a1681806107cb602482018861259f565b03915afa8015610b155789918a91610ae2575b506107e89061222b565b8733911603610aa057600281019687549261081361271061080b6009548761247c565b0480956124a5565b60ff6003850154166002811015610a8d57888c91156000146109e3575080808061084894335af16108426124fe565b506124b2565b8160025416908a60018501928484541690803b1561021c578851632203f8f160e01b81528481018a9052918391839182908490829061088a604483018e61259f565b90602483015203925af180156109d9576109b9575b5050907f8c68d600771ad8af3c86a9f96bd5c471eca94aebd78ea274787f8e95e07aaa109661096b94939260ff199182815416905560ff600589518c816108e6818b612635565b86815203019020015416610981575b505061090861090384611f69565b612936565b54168098549785518061091b8186612635565b03902086516001600160a01b03939093168352602083018a905233929091907f9332956e0c3dd558cabf109a274fd9184f7cd2081da1b9d9e28e702cf8a6cc5990604090a4835191828092612635565b0390209382519586528501523393a46001805580f35b6005908a89518092610993828a612635565b90815203019020019081541690556109b26109ad84611f69565b61280f565b38806108f5565b6109c7909594939295611e1e565b6109d5579091928a3861089f565b8a80fd5b88513d84823e3d90fd5b875163a9059cbb60e01b81523385820190815260208101949094529290918391829081906040010391877f0000000000000000000000000000000000000000000000000000000000000000165af18015610a83578b90610a4d575b610a4891506124b2565b610848565b508781813d8311610a7c575b610a638183611e47565b810103126109d557610a77610a489161217c565b610a3e565b503d610a59565b86513d8d823e3d90fd5b634e487b7160e01b8c526021835260248cfd5b5083606492519162461bcd60e51b8352820152601b60248201527f4f6e6c79206f776e65722063616e20616363657074206f6666657200000000006044820152fd5b6107e89250610b0391503d808c833e610afb8183611e47565b810190612189565b509897505050935050505091906107de565b84513d8b823e3d90fd5b83606492519162461bcd60e51b8352820152600d60248201526c13d999995c88195e1c1a5c9959609a1b6044820152fd5b5091906020806003193601126104915781356001600160401b0381116102b657610b7d9036908401611e83565b92610b8661252e565b805182818651610b998183858b0161200f565b8101868152030190209260058401610bb460ff82541661243b565b6001850180546001600160a01b0390811693909290338514610f4357600288019788549560ff6003610bf6612710610bee6009548c61247c565b04809a6124a5565b930154166002811015610f3057610d5d575088543403610d1a578a808080610c2694898954165af16108426124fe565b89846002541691823b1561022057610c5c9288838d93825196879586948593632203f8f160e01b85528401526044830190612032565b33602483015203925af18015610d1057610cd1575b50805460ff191690557f8c68d600771ad8af3c86a9f96bd5c471eca94aebd78ea274787f8e95e07aaa10939291610cbe91610cab8961280f565b610cb489612936565b541695549661241b565b9382519687528601523394a46001805580f35b917f8c68d600771ad8af3c86a9f96bd5c471eca94aebd78ea274787f8e95e07aaa109594939199610d04610cbe94611e1e565b99919394955091610c71565b86513d8c823e3d90fd5b865162461bcd60e51b8152808301899052601960248201527f45786163742045544820616d6f756e74207265717569726564000000000000006044820152606490fd5b9034610ee35787516323b872dd60e01b808252338583019081526001600160a01b03909416602085015260408401929092528c927f0000000000000000000000000000000000000000000000000000000000000000881691908b9082908190606001038187865af1908115610ed957908b9392918591610ea0575b50610de2906124b2565b895191825233858301908152306020820152604081018a905291938492839190829060600103925af1908115610e96578b91610e61575b50610c2657855162461bcd60e51b8152908101879052601c60248201527f506c6174666f726d20666565207472616e73666572206661696c6564000000006044820152606490fd5b90508781813d8311610e8f575b610e788183611e47565b810103126109d557610e899061217c565b38610e19565b503d610e6e565b87513d8d823e3d90fd5b84819592503d8311610ed2575b610eb78183611e47565b8101031261049157610de2610ecc8c9461217c565b90610dd8565b503d610ead565b8a513d86823e3d90fd5b875162461bcd60e51b81528084018a9052602160248201527f446f206e6f742073656e642045544820666f72205553444320707572636861736044820152606560f81b6064820152608490fd5b634e487b7160e01b8d526021845260248dfd5b855162461bcd60e51b8152908101879052601960248201527f43616e6e6f742062757920796f7572206f776e206173736574000000000000006044820152606490fd5b5082346102205781600319360112610220576020905173833589fcd6edb6e08f4c7c32d4f71b54bda029138152f35b5091903461021c57602036600319011261021c57803591610fd46120ab565b6103e88311610fe557505060095580f35b906020606492519162461bcd60e51b8352820152601660248201527546656520746f6f206869676820286d6178203130252960501b6044820152fd5b5082346102205760209161104b6110373661207a565b94908185519382858094519384920161200f565b81016006815203019020908154841015610224575060209261106c91611f17565b91905490519160031b1c8152f35b509190608036600319011261021c576001600160401b0381358181116102b6576110a79036908401611e83565b92602491823594604494853594600286101561154657606493843596891561150e57610e1088101580611501575b156114ce576002548751630cd5286d60e41b815260208682018190529a6001600160a01b03989290918e91829082908c1681806111148c82018f612032565b03915afa9081156114c457828092611498575b50506111329061222b565b8816331461145a5782611330578b34036112fc5750505b6007549761115689612551565b6007554201958642116112ea5787519260e08401908111848210176112d85789928c8e8a948e948d528a88526111c78d868a0193338552818b019586526111a160608c0197886122d4565b600560808c0198428a5260a08d019a8b5260c08d019b60018d528352522098518961233c565b600188019151166001600160601b0360a01b8254161790555160028601555160028110156112c6579184939161120560069460036112269801612403565b518785015551600584015551151591019060ff801983541691151516179055565b8451878185516112398183858a0161200f565b8101600681520301902090815492600160401b8410156112b55750509161128c827fcfed541454dac78f93da97764a61638d187363e6d64a389faa86edcaaf8932bc96959460016112a695018155611f17565b81549060031b9088821b91600019901b191617905561241b565b9482519687528601523394a480f35b634e487b7160e01b8b526041905289fd5b634e487b7160e01b8e5260218752858efd5b634e487b7160e01b8d5260418652848dfd5b634e487b7160e01b8c5260118552838cfd5b7208aa89040c2dadeeadce840dad2e6dac2e8c6d606b1b86916013878e8d519562461bcd60e51b8752860152840152820152fd5b3461141c5788516323b872dd60e01b815233878201908152306020820152604081018e90528e91908d90829081900360600181857f00000000000000000000000000000000000000000000000000000000000000008f165af191821561141157916113d8575b50156113a3575050611149565b731554d110c81d1c985b9cd9995c8819985a5b195960621b86916014878e8d519562461bcd60e51b8752860152840152820152fd5b90508b81813d831161140a575b6113ef8183611e47565b81010312611406576114009061217c565b38611396565b8d80fd5b503d6113e5565b8b51903d90823e3d90fd5b7f446f206e6f742073656e642045544820666f722055534443206f6666657200008691601e878e8d519562461bcd60e51b8752860152840152820152fd5b7f43616e6e6f74206f66666572206f6e20796f7572206f776e20617373657400008691601e878e8d519562461bcd60e51b8752860152840152820152fd5b61113293506114b192503d8091833e610afb8183611e47565b509897505050935050505091908f611127565b8b513d84823e3d90fd5b865162461bcd60e51b81526020818601526010818501526f24b73b30b634b210323ab930ba34b7b760811b818b01528690fd5b5062278d008811156110d5565b865162461bcd60e51b8152602081860152601581850152744f66666572206d75737420686176652076616c756560581b818b01528690fd5b8880fd5b50913461021c57602036600319011261021c5781356001600160401b0381116104915761157a9036908401611e83565b918151602081855161158f8183858a0161200f565b8101848152030190209060058201928354926115ad60ff851661243b565b600101546001600160a01b0316330361160b57505060ff191690556115d18161280f565b6115da81612936565b6115e4339161241b565b7f0ad06290f905050c9dac577e139b4b450621b456073e716db7561a52f3ff89288380a380f35b906020606492519162461bcd60e51b8352820152601660248201527513db9b1e481cd95b1b195c8818d85b8818d85b98d95b60521b6044820152fd5b50913461021c576116573661207a565b928251602081845161166c818385890161200f565b8101848152030190209061168660ff60058401541661243b565b60018201546001600160a01b031633036116ea5750906116db60027f702cf1ff9b007b1ce6285f06d88972428a71330a6f9bc7ac9b49803661dd7bde94936116cf8715156120d7565b0191858354935561241b565b9382519182526020820152a280f35b606490602085519162461bcd60e51b835282015260166024820152754f6e6c792073656c6c65722063616e2075706461746560501b6044820152fd5b508234610220578160031936011261022057905490516001600160a01b039091168152602090f35b5091903461021c57602036600319011261021c57816117c193823581526005602052209161177b83611f69565b9260018060a01b03600182015416926117d460028301549160ff600385015416908401549260ff6006600587015496015416958051998a9960e08b5260e08b0190612032565b9760208a01528801526060870190612057565b608085015260a0840152151560c08301520390f35b5082346102205781600319360112610220576020906008549051908152f35b5091903461021c57602036600319011261021c578035926001600160401b038411610224575061184360206101846118949536908501611e83565b8101848152030190209161185683611f69565b926118a760018060a01b0360018301541693600283015460ff600581600387015416938601549501541694805198899860c08a5260c08a0190612032565b9660208901528701526060860190612057565b6080840152151560a08301520390f35b50346102245780600319360112610224576118d06120ab565b80546001600160a01b03198116825581906001600160a01b03167f8be0079c531659141344cd1fd0a4f28419497f9722a3daafe3b4186f6b6457e08280a380f35b508290346102245760203660031901126102245782356008548110156102205761193a90611eca565b939093611965576119618361194e86611f69565b9051918291602083526020830190612032565b0390f35b634e487b7160e01b8252819052602490fd5b5082346102205781600319360112610220576020906007549051908152f35b50823461022057816003193601126102205760035490516001600160a01b039091168152602090f35b50913461021c57606036600319011261021c576001600160401b039082358281116102b6576119f19036908501611e83565b602493843594604435946002861015611dd757611a0f8715156120d7565b84519584519060ff60056020998a81818b0196611a2d81838a61200f565b81018a815203019020015416611d9e576002548751630cd5286d60e41b81528681018a90526001600160a01b03918c90829084168180611a6f8b82018e612032565b03915afa8015611d94578c918d91611d69575b50611a8c9061222b565b8133911603611d2757806003541680611c1d575b5087519360c0850190811185821017611c0b5790889392918452878552898501338152848601918c8352611ad86060880194856122d4565b611b11611b008d60808a01974289528d60a08c019a60018c525193849283925192839161200f565b81018d81520301902097518861233c565b600187019151166001600160601b0360a01b825416179055516002850155516002811015611bf95791600591611b4e85946003611b699701612403565b518684015551151591019060ff801983541691151516179055565b600854600160401b811015611be757806001611b889201600855611eca565b929092611bd757505081611bc17ff34a4c127ff02f03c1d1fb093bb2c95ec0cfd3c38220b818ef19234533c6b96c9493611bc69361233c565b61241b565b92815194855242908501523393a380f35b634e487b7160e01b885287905286fd5b50634e487b7160e01b87526041825286fd5b634e487b7160e01b8b5260218652848bfd5b634e487b7160e01b8c5260418752858cfd5b8851631833b57b60e11b81528781018b90528a8180611c3e8a82018d612032565b0381855afa908d821561141157898c8e938d9395611cf4575b50516373a6fe8960e01b81529081018390529293839182908190611c7e908d830190612032565b03915afa908115611cea578d91611cb9575b5083611ca85750611ca2908b11612277565b38611aa0565b611cb491508b11612277565b611ca2565b90508a81813d8311611ce3575b611cd08183611e47565b81010312611cdf575138611c90565b8c80fd5b503d611cc6565b8a513d8f823e3d90fd5b945050505081813d8311611d20575b611d0d8183611e47565b81010312611cdf57518a89898c83611c57565b503d611d03565b875162461bcd60e51b81528087018a90526019818701527f4f6e6c79206f776e65722063616e206c697374206173736574000000000000006044820152606490fd5b611a8c9250611d8291503d808f833e610afb8183611e47565b50989750505093505050509190611a82565b89513d8e823e3d90fd5b865162461bcd60e51b815280860189905260148186015273105cdcd95d08185b1c9958591e481b1a5cdd195960621b6044820152606490fd5b8780fd5b9050346102205781600319360112610220577f00000000000000000000000000000000000000000000000000000000000000006001600160a01b03168152602090f35b6001600160401b038111611e3157604052565b634e487b7160e01b600052604160045260246000fd5b90601f801991011681019081106001600160401b03821117611e3157604052565b6001600160401b038111611e3157601f01601f191660200190565b81601f8201121561061057803590611e9a82611e68565b92611ea86040519485611e47565b8284526020838301011161061057816000926020809301838601378301015290565b600854811015611f015760086000527ff3f7a9fe364faab93b216da50a3214154f22a0a2b415b23a84c8169e8b636ee30190600090565b634e487b7160e01b600052603260045260246000fd5b8054821015611f015760005260206000200190600090565b90600182811c92168015611f5f575b6020831014611f4957565b634e487b7160e01b600052602260045260246000fd5b91607f1691611f3e565b9060405191826000825492611f7d84611f2f565b908184526001948581169081600014611fec5750600114611fa9575b5050611fa792500383611e47565b565b9093915060005260209081600020936000915b818310611fd4575050611fa793508201013880611f99565b85548884018501529485019487945091830191611fbc565b915050611fa794506020925060ff191682840152151560051b8201013880611f99565b60005b8381106120225750506000910152565b8181015183820152602001612012565b9060209161204b8151809281855285808601910161200f565b601f01601f1916010190565b9060028210156120645752565b634e487b7160e01b600052602160045260246000fd5b604060031982011261061057600435906001600160401b038211610610576120a491600401611e83565b9060243590565b6000546001600160a01b031633036120bf57565b60405163118cdaa760e01b8152336004820152602490fd5b156120de57565b60405162461bcd60e51b815260206004820152601c60248201527f5072696365206d7573742062652067726561746572207468616e2030000000006044820152606490fd5b81601f8201121561061057805161213981611e68565b926121476040519485611e47565b8184526020828401011161061057612165916020808501910161200f565b90565b51906001600160a01b038216820361061057565b5190811515820361061057565b61014081830312610610578051926001600160401b039384811161061057836121b3918401612123565b93602083015181811161061057846121cc918501612123565b936040840151918211610610576121e4918401612123565b916060810151916080820151916121fd60a08201612168565b9161220a60c08301612168565b9160e081015191612165610120612224610100850161217c565b930161217c565b1561223257565b60405162461bcd60e51b815260206004820152601a60248201527f4173736574206e6f7420666f756e6420696e206c6962726172790000000000006044820152606490fd5b1561227e57565b60405162461bcd60e51b815260206004820152602860248201527f5072696365206d75737420626520686967686572207468616e20726f79616c746044820152671a595cc81c185a5960c21b6064820152608490fd5b60028210156120645752565b8181106122eb575050565b600081556001016122e0565b9190601f811161230657505050565b611fa7926000526020600020906020601f840160051c83019310612332575b601f0160051c01906122e0565b9091508190612325565b91909182516001600160401b038111611e31576123638161235d8454611f2f565b846122f7565b602080601f831160011461239f575081929394600092612394575b50508160011b916000199060031b1c1916179055565b01519050388061237e565b90601f198316958460005282600020926000905b8882106123eb575050836001959697106123d2575b505050811b019055565b015160001960f88460031b161c191690553880806123c8565b806001859682949686015181550195019301906123b3565b9060028110156120645760ff80198354169116179055565b6124339060206040519282848094519384920161200f565b810103902090565b1561244257565b60405162461bcd60e51b81526020600482015260126024820152714c697374696e67206e6f742061637469766560701b6044820152606490fd5b8181029291811591840414171561248f57565b634e487b7160e01b600052601160045260246000fd5b9190820391821161248f57565b156124b957565b60405162461bcd60e51b815260206004820152601860248201527f5061796d656e7420746f2073656c6c6572206661696c656400000000000000006044820152606490fd5b3d15612529573d9061250f82611e68565b9161251d6040519384611e47565b82523d6000602084013e565b606090565b60026001541461253f576002600155565b604051633ee5aeb560e01b8152600490fd5b600019811461248f5760010190565b1561256757565b60405162461bcd60e51b815260206004820152601060248201526f4f66666572206e6f742061637469766560801b6044820152606490fd5b90600092918054916125b083611f2f565b91828252600193848116908160001461261257506001146125d2575b50505050565b90919394506000526020928360002092846000945b8386106125fe5750505050010190388080806125cc565b8054858701830152940193859082016125e7565b9294505050602093945060ff191683830152151560051b010190388080806125cc565b60009291815461264481611f2f565b9260019180831690811561269c57506001146126605750505050565b90919293945060005260209081600020906000915b85831061268b57505050500190388080806125cc565b805485840152918301918101612675565b60ff19168452505050811515909102019150388080806125cc565b156126be57565b60405162461bcd60e51b815260206004820152600d60248201526c1499599d5b990819985a5b1959609a1b6044820152606490fd5b156126fa57565b60405162461bcd60e51b815260206004820152601160248201527015da5d1a191c985dd85b0819985a5b1959607a1b6044820152606490fd5b9080821461280b576127458154611f2f565b906001600160401b038211611e3157819061276a826127648654611f2f565b866122f7565b600090601f83116001146127a0576000926127955750508160011b916000199060031b1c1916179055565b01549050388061237e565b81526020808220858352818320935090601f1985169083905b8282106127f25750509084600195949392106127d957505050811b019055565b015460001960f88460031b161c191690553880806123c8565b84958192958501548155600180910196019401906127b9565b5050565b60005b6008805490818310156125cc5761283c9161284361282f85611eca565b506040519485809261259f565b0384611e47565b8251602080940120855184870120146128675750505061286290612551565b612812565b919350916000199182810190811161248f5761288561288c91611eca565b5091611eca565b91909161290a5761289c91612733565b815480156129205701916128af83611eca565b61290a576128bd8154611f2f565b806128c9575b50505055565b600092601f908183116001146128e657505050555b3880806128c3565b83916129039186949585528420940160051c8401600185016122e0565b55556128de565b634e487b7160e01b600052600060045260246000fd5b634e487b7160e01b600052603160045260246000fd5b906040918251815160209061294e818484870161200f565b8201918181600694858152030190209460005b8654811015612b88576129748188611f17565b9054600391821b1c60005260058452826000209085820180549060ff918281166129ac575b50505050506129a790612551565b612961565b60ff19169055828201546002916000911682811015612b7457612aac5750906129a7939291600080808060018060a01b0360018801541685880154905af16129f26124fe565b505b15612a535750612a04838b611f17565b90546001909301546001600160a01b031692911b1c612a228861241b565b907fa73002eb00b7f458173aec22cf4445bbdb98267f801a7fe3d22dba9382338cdb600080a45b9038808080612999565b90612a5e848c611f17565b9054911b1c9060018060a01b03600184015416920154907f9fdd6fddb8dfea391c0580cc31bc495423ae195ab3ae95994ff20a15aa3b2b4d87612aa08b61241b565b938851908152a4612a49565b600184015482850154875163a9059cbb60e01b81526001600160a01b03928316600482015260248101919091529088908290604490829086907f0000000000000000000000000000000000000000000000000000000000000000165af1918215612b69578092612b26575b5050906129a7949392916129f4565b9091508782813d8311612b62575b612b3e8183611e47565b81010312610224575090612b576129a79594939261217c565b909192939438612b17565b503d612b34565b8751903d90823e3d90fd5b634e487b7160e01b82526021600452602482fd5b5050505050905056fea2646970667358221220b40c7e7c28c6160b272e0db4b24b0ed295b68ca5fb8349971cf33ad7d89c519764736f6c63430008140033",
  "linkReferences": {},
  "deployedLinkReferences": {}
}