{"ClayRoyalty.sol":{"ClayRoyalty":{"abi":[{"inputs":[{"internalType":"address","name":"_libraryContract","type":"address"}],"stateMutability":"nonpayable","type":"constructor"},{"inputs":[{"internalType":"address","name":"owner","type":"address"}],"name":"OwnableInvalidOwner","type":"error"},{"inputs":[{"internalType":"address","name":"account","type":"address"}],"name":"OwnableUnauthorizedAccount","type":"error"},{"inputs":[],"name":"ReentrancyGuardReentrantCall","type":"error"},{"anonymous":false,"inputs":[{"indexed":true,"internalType":"address","name":"previousOwner","type":"address"},{"indexed":true,"internalType":"address","name":"newOwner","type":"address"}],"name":"OwnershipTransferred","type":"event"},{"anonymous":false,"inputs":[{"indexed":true,"internalType":"string","name":"projectId","type":"string"},{"indexed":false,"internalType":"uint256","name":"dependencyCount","type":"uint256"}],"name":"RoyaltiesRegistered","type":"event"},{"anonymous":false,"inputs":[{"indexed":true,"internalType":"address","name":"claimant","type":"address"},{"indexed":false,"internalType":"uint256","name":"amountETH","type":"uint256"},{"indexed":false,"internalType":"uint256","name":"amountUSDC","type":"uint256"}],"name":"RoyaltyClaimed","type":"event"},{"anonymous":false,"inputs":[{"indexed":true,"internalType":"string","name":"projectId","type":"string"},{"indexed":true,"internalType":"address","name":"recipient","type":"address"},{"indexed":false,"internalType":"uint256","name":"amountETH","type":"uint256"},{"indexed":false,"internalType":"uint256","name":"amountUSDC","type":"uint256"}],"name":"RoyaltyRecorded","type":"event"},{"inputs":[],"name":"PERCENTAGE_DENOMINATOR","outputs":[{"internalType":"uint256","name":"","type":"uint256"}],"stateMutability":"view","type":"function"},{"inputs":[],"name":"ROYALTY_PERCENTAGE","outputs":[{"internalType":"uint256","name":"","type":"uint256"}],"stateMutability":"view","type":"function"},{"inputs":[],"name":"USDC_ADDRESS","outputs":[{"internalType":"address","name":"","type":"address"}],"stateMutability":"view","type":"function"},{"inputs":[{"internalType":"string","name":"projectId","type":"string"}],"name":"calculateTotalRoyalties","outputs":[{"internalType":"uint256","name":"totalETH","type":"uint256"},{"internalType":"uint256","name":"totalUSDC","type":"uint256"}],"stateMutability":"view","type":"function"},{"inputs":[],"name":"claimRoyaltiesETH","outputs":[],"stateMutability":"nonpayable","type":"function"},{"inputs":[],"name":"claimRoyaltiesUSDC","outputs":[],"stateMutability":"nonpayable","type":"function"},{"inputs":[{"internalType":"address","name":"account","type":"address"}],"name":"getPendingRoyalties","outputs":[{"internalType":"uint256","name":"eth","type":"uint256"},{"internalType":"uint256","name":"usdc","type":"uint256"}],"stateMutability":"view","type":"function"},{"inputs":[{"internalType":"string","name":"projectId","type":"string"}],"name":"getProjectDependencies","outputs":[{"components":[{"internalType":"string","name":"dependencyProjectId","type":"string"},{"internalType":"uint256","name":"royaltyPercentage","type":"uint256"},{"internalType":"uint256","name":"fixedRoyaltyETH","type":"uint256"},{"internalType":"uint256","name":"fixedRoyaltyUSDC","type":"uint256"}],"internalType":"struct ClayRoyalty.LibraryDependency[]","name":"","type":"tuple[]"}],"stateMutability":"view","type":"function"},{"inputs":[],"name":"libraryContract","outputs":[{"internalType":"contract IClayLibrary","name":"","type":"address"}],"stateMutability":"view","type":"function"},{"inputs":[],"name":"owner","outputs":[{"internalType":"address","name":"","type":"address"}],"stateMutability":"view","type":"function"},{"inputs":[{"internalType":"address","name":"","type":"address"}],"name":"pendingRoyaltiesETH","outputs":[{"internalType":"uint256","name":"","type":"uint256"}],"stateMutability":"view","type":"function"},{"inputs":[{"internalType":"address","name":"","type":"address"}],"name":"pendingRoyaltiesUSDC","outputs":[{"internalType":"uint256","name":"","type":"uint256"}],"stateMutability":"view","type":"function"},{"inputs":[{"internalType":"string","name":"","type":"string"}],"name":"projectRoyalties","outputs":[{"internalType":"string","name":"projectId","type":"string"},{"internalType":"bool","name":"hasRoyalties","type":"bool"}],"stateMutability":"view","type":"function"},{"inputs":[{"internalType":"string","name":"projectId","type":"string"},{"internalType":"uint256","name":"price","type":"uint256"},{"internalType":"enum ClayRoyalty.PaymentToken","name":"paymentToken","type":"uint8"}],"name":"recordRoyalties","outputs":[],"stateMutability":"payable","type":"function"},{"inputs":[{"internalType":"string","name":"projectId","type":"string"},{"internalType":"string[]","name":"dependencyProjectIds","type":"string[]"}],"name":"registerProjectRoyalties","outputs":[],"stateMutability":"nonpayable","type":"function"},{"inputs":[],"name":"renounceOwnership","outputs":[],"stateMutability":"nonpayable","type":"function"},{"inputs":[{"internalType":"address","name":"_libraryContract","type":"address"}],"name":"setLibraryContract","outputs":[],"stateMutability":"nonpayable","type":"function"},{"inputs":[{"internalType":"address","name":"newOwner","type":"address"}],"name":"transferOwnership","outputs":[],"stateMutability":"nonpayable","type":"function"},{"inputs":[],"name":"usdcToken","outputs":[{"internalType":"contract IERC20","name":"","type":"address"}],"stateMutability":"view","type":"function"},{"stateMutability":"payable","type":"receive"}],"evm":{"bytecode":{"linkReferences":{},"object":"60a0346100f257601f61169938819003918201601f19168301916001600160401b038311848410176100f7578084926020946040528339810103126100f257516001600160a01b0390818116908190036100f25733156100d95760005460018060a01b0319903382821617600055604051933391167f8be0079c531659141344cd1fd0a4f28419497f9722a3daafe3b4186f6b6457e0600080a36001805573833589fcd6edb6e08f4c7c32d4f71b54bda02913608052600254161760025561158b908161010e8239608051818181610fa901526111220152f35b604051631e4fbdf760e01b815260006004820152602490fd5b600080fd5b634e487b7160e01b600052604160045260246000fdfe608080604052600436101561001d575b50361561001b57600080fd5b005b60003560e01c908163024fa0d6146111515750806311eac8551461110c578063141b5f02146110ce5780631ed6c59914610f42578063463b08db14610f255780634aa8a12d14610e9f57806350fd8e7114610d605780635bf4b5c414610d22578063715018a614610cc95780638da5cb5b14610ca0578063902509c214610b70578063956456d914610b25578063b1ee838e14610613578063b3cd4254146105f6578063bb09d9b7146105c7578063c5787690146101ff578063ce0769c5146101d6578063f2fde38b146101465763f8a76dfb146100fb573861000f565b34610141576020366003190112610141576004356001600160401b0381116101415761013561013060409236906004016111f3565b611476565b82519182526020820152f35b600080fd5b34610141576020366003190112610141576004356001600160a01b038181169182900361014157610175611379565b81156101bd57600054826bffffffffffffffffffffffff60a01b821617600055167f8be0079c531659141344cd1fd0a4f28419497f9722a3daafe3b4186f6b6457e0600080a3005b604051631e4fbdf760e01b815260006004820152602490fd5b34610141576000366003190112610141576002546040516001600160a01b039091168152602090f35b606080600319360112610141576004356001600160401b0381116101415761022b9036906004016111f3565b90604435916002918284101561014157610243611532565b604051908183516020938161025c869383858a0161123a565b810160058152030190209460ff85870154161561058257610402575034156103d057600193840193926000845b61029b575b5050505050505b60018055005b85548110156103cb57806102bb6102b56102ec93896113f4565b50611430565b60018060a01b038581865416835190604051808098819463d55a772d60e01b8352866004840152602483019061133d565b03915afa9182156103bf5761031f9460009361038d575b50604001519182151580610382575b610325575b5050506113a5565b84610289565b16908160005260038652604060002061033f828254611469565b90557fcb9f559e28915be49dcceef3fd0e6953281bdd4efe058dff26dd513ca503799e604061036d89611410565b928151908152600089820152a3878080610317565b508181161515610312565b60409193506103b190883d8a116103b8575b6103a981836111b7565b810190611513565b9290610303565b503d61039f565b6040513d6000823e3d90fd5b61028e565b6064906040519062461bcd60e51b82526004820152600b60248201526a139bc8115512081cd95b9d60aa1b6044820152fd5b3461053257600194850194936000855b610423575b50505050505050610295565b865481101561052d576104396102b582896113f4565b9061046e60018060a01b038681865416855190604051808096819463d55a772d60e01b8352866004840152602483019061133d565b03915afa9182156103bf576104a094879160009461050e575b5001519182151580610503575b6104a6575050506113a5565b85610412565b1690816000526004875260406000206104c0828254611469565b90557fcb9f559e28915be49dcceef3fd0e6953281bdd4efe058dff26dd513ca503799e60406104ee8a611410565b92815190600082528a820152a3888080610317565b508181161515610494565b610526919450893d8b116103b8576103a981836111b7565b928c610487565b610417565b60405162461bcd60e51b815260048101839052602260248201527f446f206e6f742073656e642045544820666f72205553444320726f79616c7469604482015261657360f01b6064820152608490fd5b60405162461bcd60e51b815260048101849052601d60248201527f4e6f20726f79616c7469657320666f7220746869732070726f6a6563740000006044820152606490fd5b3461014157600036600319011261014157602060405173833589fcd6edb6e08f4c7c32d4f71b54bda029138152f35b346101415760003660031901126101415760206040516127108152f35b34610141576040366003190112610141576004356001600160401b038111610141576106439036906004016111f3565b602435906001600160401b038211610141573660238301121561014157816004013561066e81611362565b9261067c60405194856111b7565b8184526024602085019260051b820101903682116101415760248101925b828410610af657858560405160ff6002835192602081818701956106bf81838961123a565b81016005815203019020015416610ab15760206106e79160405180938192865192839161123a565b81016005815203019020918151926001600160401b03841161095c5761070d815461125d565b601f8111610a69575b50602093601f8111600114610a045780919293946000916109f9575b508160011b916000199060031b1c19161781555b60028101805460ff1916600117905560005b82518110156109c1576002546107a2906040906001600160a01b031661077e84876113ca565b51908251808095819463edd9136760e01b835260206004840152602483019061133d565b03915afa80156103bf57600091600091610988575b506107c283866113ca565b5191604051926107d18461119c565b835261271060208401526040830152606082015260018301546801000000000000000081101561095c5780600161081192016001860155600185016113f4565b9190916109725780518051906001600160401b03821161095c57610835845461125d565b601f8111610918575b50602090601f83116001146108a557928260039360609361089598979660009261089a575b50508160011b9160001990861b1c19161784555b602081015160018501556040810151600285015501519101556113a5565b610758565b015190508b80610863565b908460005260206000209160005b601f198516811061090057508360609361089598979693600193600397601f198116106108e8575b505050811b018455610877565b015160001983881b60f8161c191690558b80806108db565b919260206001819286850151815501940192016108b3565b846000526020600020601f840160051c810160208510610955575b601f830160051c8201811061094957505061083e565b60008155600101610933565b5080610933565b634e487b7160e01b600052604160045260246000fd5b634e487b7160e01b600052600060045260246000fd5b9150506040813d6040116109b9575b816109a4604093836111b7565b810103126101415760208151910151866107b7565b3d9150610997565b82517f92da81cc62c0efa31ecf38ecbdd2fb28add3e9af1063dde557cb388d8f9b3ef260206109ef87611410565b92604051908152a2005b905084015185610732565b601f198116948260005260206000209060005b878110610a5157508260019495969710610a38575b5050811b018155610746565b86015160001960f88460031b161c191690558580610a2c565b9091602060018192858a015181550193019101610a17565b816000526020600020601f860160051c81019160208710610aa7575b601f0160051c01905b818110610a9b5750610716565b60008155600101610a8e565b9091508190610a85565b60405162461bcd60e51b815260206004820152601c60248201527f526f79616c7469657320616c72656164792072656769737465726564000000006044820152606490fd5b83356001600160401b03811161014157602091610b1a8392602436918701016111f3565b81520193019261069a565b34610141576020366003190112610141576004356001600160a01b0381169081900361014157610b53611379565b6bffffffffffffffffffffffff60a01b6002541617600255600080f35b3461014157600036600319011261014157610b89611532565b33600052602060038152604060002054908115610c5c57336000526003815260006040812055600080808085335af13d15610c57573d610bc8816111d8565b90610bd660405192836111b7565b81526000833d92013e5b15610c1d576000906040519283528201527f6fe778711f06ca052305b633ba1b304f4d71c1523776f2aa3059d8d99f5420de60403392a260018055005b6064906040519062461bcd60e51b825260048201526013602482015272115512081d1c985b9cd9995c8819985a5b1959606a1b6044820152fd5b610be0565b6064906040519062461bcd60e51b82526004820152601860248201527f4e6f2070656e64696e672045544820726f79616c7469657300000000000000006044820152fd5b34610141576000366003190112610141576000546040516001600160a01b039091168152602090f35b3461014157600036600319011261014157610ce2611379565b600080546001600160a01b0319811682556001600160a01b03167f8be0079c531659141344cd1fd0a4f28419497f9722a3daafe3b4186f6b6457e08280a3005b34610141576020366003190112610141576004356001600160a01b038116908190036101415760005260046020526020604060002054604051908152f35b3461014157602080600319360112610141576004356001600160401b03811161014157610d919036906004016111f3565b9080610da6604051938481519384920161123a565b820160058152828260019485930301902001805491610dc483611362565b92610dd260405194856111b7565b8084528184018093600052826000206000915b838310610e7a57505050506040519384938285019083865251809152604085019260408260051b87010194936000905b838210610e225787870388f35b918496819592949698508190603f198b8203018552895190610e4c8251608080845283019061133d565b9183810151848301526040810151604083015260608091015191015298019201920187969593919492610e15565b966004858297989699610e8c85611430565b8152019201920191909693959496610de5565b34610141576020366003190112610141576004356001600160401b03811161014157610eea6020610ed7610f199336906004016111f3565b816040519382858094519384920161123a565b8101600581520301902060ff6002610f0183611297565b9201541660405192839260408452604084019061133d565b90151560208301520390f35b346101415760003660031901126101415760206040516103e88152f35b3461014157600036600319011261014157610f5b611532565b3360005260206004815260406000205480156110895733600052600482526000604081205560405163a9059cbb60e01b81523360048201528160248201528281604481600060018060a01b037f0000000000000000000000000000000000000000000000000000000000000000165af19081156103bf57600091611053575b50156110175760405191600083528201527f6fe778711f06ca052305b633ba1b304f4d71c1523776f2aa3059d8d99f5420de60403392a260018055005b60405162461bcd60e51b81526004810183905260146024820152731554d110c81d1c985b9cd9995c8819985a5b195960621b6044820152606490fd5b90508281813d8311611082575b61106a81836111b7565b81010312610141575180151581036101415783610fda565b503d611060565b60405162461bcd60e51b815260048101839052601960248201527f4e6f2070656e64696e67205553444320726f79616c74696573000000000000006044820152606490fd5b34610141576020366003190112610141576004356001600160a01b038116908190036101415760005260036020526020604060002054604051908152f35b34610141576000366003190112610141576040517f00000000000000000000000000000000000000000000000000000000000000006001600160a01b03168152602090f35b34610141576020366003190112610141576004356001600160a01b03811691908290036101415760409160005260036020528160002054600460205282600020549082526020820152f35b608081019081106001600160401b0382111761095c57604052565b90601f801991011681019081106001600160401b0382111761095c57604052565b6001600160401b03811161095c57601f01601f191660200190565b81601f820112156101415780359061120a826111d8565b9261121860405194856111b7565b8284526020838301011161014157816000926020809301838601378301015290565b60005b83811061124d5750506000910152565b818101518382015260200161123d565b90600182811c9216801561128d575b602083101461127757565b634e487b7160e01b600052602260045260246000fd5b91607f169161126c565b90604051918260008254926112ab8461125d565b90818452600194858116908160001461131a57506001146112d7575b50506112d5925003836111b7565b565b9093915060005260209081600020936000915b8183106113025750506112d5935082010138806112c7565b855488840185015294850194879450918301916112ea565b9150506112d594506020925060ff191682840152151560051b82010138806112c7565b906020916113568151809281855285808601910161123a565b601f01601f1916010190565b6001600160401b03811161095c5760051b60200190565b6000546001600160a01b0316330361138d57565b60405163118cdaa760e01b8152336004820152602490fd5b60001981146113b45760010190565b634e487b7160e01b600052601160045260246000fd5b80518210156113de5760209160051b010190565b634e487b7160e01b600052603260045260246000fd5b80548210156113de5760005260206000209060021b0190600090565b6114289060206040519282848094519384920161123a565b810103902090565b9060405161143d8161119c565b60606003829461144c81611297565b845260018101546020850152600281015460408501520154910152565b919082018092116113b457565b906000809261149560206040928184519382858094519384920161123a565b810160058152030190209060ff6002830154161561150657600160009201908154915b8284106114c757505050509190565b909192956114f86114fe9160606114ef6114e46102b58c886113f4565b98878a015190611469565b97015190611469565b966113a5565b9291906114b8565b5050509050600090600090565b9081602091031261014157516001600160a01b03811681036101415790565b600260015414611543576002600155565b604051633ee5aeb560e01b8152600490fdfea2646970667358221220724c87dcd55785624e1a44dda684f1a44121821447b878ae3f9153acd3ff6e8c64736f6c63430008140033","opcodes":"PUSH1 0xA0 CALLVALUE PUSH2 0xF2 JUMPI PUSH1 0x1F PUSH2 0x1699 CODESIZE DUP2 SWAP1 SUB SWAP2 DUP3 ADD PUSH1 0x1F NOT AND DUP4 ADD SWAP2 PUSH1 0x1 PUSH1 0x1 PUSH1 0x40 SHL SUB DUP4 GT DUP5 DUP5 LT OR PUSH2 0xF7 JUMPI DUP1 DUP5 SWAP3 PUSH1 0x20 SWAP5 PUSH1 0x40 MSTORE DUP4 CODECOPY DUP2 ADD SUB SLT PUSH2 0xF2 JUMPI MLOAD PUSH1 0x1 PUSH1 0x1 PUSH1 0xA0 SHL SUB SWAP1 DUP2 DUP2 AND SWAP1 DUP2 SWAP1 SUB PUSH2 0xF2 JUMPI CALLER ISZERO PUSH2 0xD9 JUMPI PUSH1 0x0 SLOAD PUSH1 0x1 DUP1 PUSH1 0xA0 SHL SUB NOT SWAP1 CALLER DUP3 DUP3 AND OR PUSH1 0x0 SSTORE PUSH1 0x40 MLOAD SWAP4 CALLER SWAP2 AND PUSH32 0x8BE0079C531659141344CD1FD0A4F28419497F9722A3DAAFE3B4186F6B6457E0 PUSH1 0x0 DUP1 LOG3 PUSH1 0x1 DUP1 SSTORE PUSH20 0x833589FCD6EDB6E08F4C7C32D4F71B54BDA02913 PUSH1 0x80 MSTORE PUSH1 0x2 SLOAD AND OR PUSH1 0x2 SSTORE PUSH2 0x158B SWAP1 DUP2 PUSH2 0x10E DUP3 CODECOPY PUSH1 0x80 MLOAD DUP2 DUP2 DUP2 PUSH2 0xFA9 ADD MSTORE PUSH2 0x1122 ADD MSTORE RETURN JUMPDEST PUSH1 0x40 MLOAD PUSH4 0x1E4FBDF7 PUSH1 0xE0 SHL DUP2 MSTORE PUSH1 0x0 PUSH1 0x4 DUP3 ADD MSTORE PUSH1 0x24 SWAP1 REVERT JUMPDEST PUSH1 0x0 DUP1 REVERT JUMPDEST PUSH4 0x4E487B71 PUSH1 0xE0 SHL PUSH1 0x0 MSTORE PUSH1 0x41 PUSH1 0x4 MSTORE PUSH1 0x24 PUSH1 0x0 REVERT INVALID PUSH1 0x80 DUP1 PUSH1 0x40 MSTORE PUSH1 0x4 CALLDATASIZE LT ISZERO PUSH2 0x1D JUMPI JUMPDEST POP CALLDATASIZE ISZERO PUSH2 0x1B JUMPI PUSH1 0x0 DUP1 REVERT JUMPDEST STOP JUMPDEST PUSH1 0x0 CALLDATALOAD PUSH1 0xE0 SHR SWAP1 DUP2 PUSH4 0x24FA0D6 EQ PUSH2 0x1151 JUMPI POP DUP1 PUSH4 0x11EAC855 EQ PUSH2 0x110C JUMPI DUP1 PUSH4 0x141B5F02 EQ PUSH2 0x10CE JUMPI DUP1 PUSH4 0x1ED6C599 EQ PUSH2 0xF42 JUMPI DUP1 PUSH4 0x463B08DB EQ PUSH2 0xF25 JUMPI DUP1 PUSH4 0x4AA8A12D EQ PUSH2 0xE9F JUMPI DUP1 PUSH4 0x50FD8E71 EQ PUSH2 0xD60 JUMPI DUP1 PUSH4 0x5BF4B5C4 EQ PUSH2 0xD22 JUMPI DUP1 PUSH4 0x715018A6 EQ PUSH2 0xCC9 JUMPI DUP1 PUSH4 0x8DA5CB5B EQ PUSH2 0xCA0 JUMPI DUP1 PUSH4 0x902509C2 EQ PUSH2 0xB70 JUMPI DUP1 PUSH4 0x956456D9 EQ PUSH2 0xB25 JUMPI DUP1 PUSH4 0xB1EE838E EQ PUSH2 0x613 JUMPI DUP1 PUSH4 0xB3CD4254 EQ PUSH2 0x5F6 JUMPI DUP1 PUSH4 0xBB09D9B7 EQ PUSH2 0x5C7 JUMPI DUP1 PUSH4 0xC5787690 EQ PUSH2 0x1FF JUMPI DUP1 PUSH4 0xCE0769C5 EQ PUSH2 0x1D6 JUMPI DUP1 PUSH4 0xF2FDE38B EQ PUSH2 0x146 JUMPI PUSH4 0xF8A76DFB EQ PUSH2 0xFB JUMPI CODESIZE PUSH2 0xF JUMP JUMPDEST CALLVALUE PUSH2 0x141 JUMPI PUSH1 0x20 CALLDATASIZE PUSH1 0x3 NOT ADD SLT PUSH2 0x141 JUMPI PUSH1 0x4 CALLDATALOAD PUSH1 0x1 PUSH1 0x1 PUSH1 0x40 SHL SUB DUP2 GT PUSH2 0x141 JUMPI PUSH2 0x135 PUSH2 0x130 PUSH1 0x40 SWAP3 CALLDATASIZE SWAP1 PUSH1 0x4 ADD PUSH2 0x11F3 JUMP JUMPDEST PUSH2 0x1476 JUMP JUMPDEST DUP3 MLOAD SWAP2 DUP3 MSTORE PUSH1 0x20 DUP3 ADD MSTORE RETURN JUMPDEST PUSH1 0x0 DUP1 REVERT JUMPDEST CALLVALUE PUSH2 0x141 JUMPI PUSH1 0x20 CALLDATASIZE PUSH1 0x3 NOT ADD SLT PUSH2 0x141 JUMPI PUSH1 0x4 CALLDATALOAD PUSH1 0x1 PUSH1 0x1 PUSH1 0xA0 SHL SUB DUP2 DUP2 AND SWAP2 DUP3 SWAP1 SUB PUSH2 0x141 JUMPI PUSH2 0x175 PUSH2 0x1379 JUMP JUMPDEST DUP2 ISZERO PUSH2 0x1BD JUMPI PUSH1 0x0 SLOAD DUP3 PUSH12 0xFFFFFFFFFFFFFFFFFFFFFFFF PUSH1 0xA0 SHL DUP3 AND OR PUSH1 0x0 SSTORE AND PUSH32 0x8BE0079C531659141344CD1FD0A4F28419497F9722A3DAAFE3B4186F6B6457E0 PUSH1 0x0 DUP1 LOG3 STOP JUMPDEST PUSH1 0x40 MLOAD PUSH4 0x1E4FBDF7 PUSH1 0xE0 SHL DUP2 MSTORE PUSH1 0x0 PUSH1 0x4 DUP3 ADD MSTORE PUSH1 0x24 SWAP1 REVERT JUMPDEST CALLVALUE PUSH2 0x141 JUMPI PUSH1 0x0 CALLDATASIZE PUSH1 0x3 NOT ADD SLT PUSH2 0x141 JUMPI PUSH1 0x2 SLOAD PUSH1 0x40 MLOAD PUSH1 0x1 PUSH1 0x1 PUSH1 0xA0 SHL SUB SWAP1 SWAP2 AND DUP2 MSTORE PUSH1 0x20 SWAP1 RETURN JUMPDEST PUSH1 0x60 DUP1 PUSH1 0x3 NOT CALLDATASIZE ADD SLT PUSH2 0x141 JUMPI PUSH1 0x4 CALLDATALOAD PUSH1 0x1 PUSH1 0x1 PUSH1 0x40 SHL SUB DUP2 GT PUSH2 0x141 JUMPI PUSH2 0x22B SWAP1 CALLDATASIZE SWAP1 PUSH1 0x4 ADD PUSH2 0x11F3 JUMP JUMPDEST SWAP1 PUSH1 0x44 CALLDATALOAD SWAP2 PUSH1 0x2 SWAP2 DUP3 DUP5 LT ISZERO PUSH2 0x141 JUMPI PUSH2 0x243 PUSH2 0x1532 JUMP JUMPDEST PUSH1 0x40 MLOAD SWAP1 DUP2 DUP4 MLOAD PUSH1 0x20 SWAP4 DUP2 PUSH2 0x25C DUP7 SWAP4 DUP4 DUP6 DUP11 ADD PUSH2 0x123A JUMP JUMPDEST DUP2 ADD PUSH1 0x5 DUP2 MSTORE SUB ADD SWAP1 KECCAK256 SWAP5 PUSH1 0xFF DUP6 DUP8 ADD SLOAD AND ISZERO PUSH2 0x582 JUMPI PUSH2 0x402 JUMPI POP CALLVALUE ISZERO PUSH2 0x3D0 JUMPI PUSH1 0x1 SWAP4 DUP5 ADD SWAP4 SWAP3 PUSH1 0x0 DUP5 JUMPDEST PUSH2 0x29B JUMPI JUMPDEST POP POP POP POP POP POP JUMPDEST PUSH1 0x1 DUP1 SSTORE STOP JUMPDEST DUP6 SLOAD DUP2 LT ISZERO PUSH2 0x3CB JUMPI DUP1 PUSH2 0x2BB PUSH2 0x2B5 PUSH2 0x2EC SWAP4 DUP10 PUSH2 0x13F4 JUMP JUMPDEST POP PUSH2 0x1430 JUMP JUMPDEST PUSH1 0x1 DUP1 PUSH1 0xA0 SHL SUB DUP6 DUP2 DUP7 SLOAD AND DUP4 MLOAD SWAP1 PUSH1 0x40 MLOAD DUP1 DUP1 SWAP9 DUP2 SWAP5 PUSH4 0xD55A772D PUSH1 0xE0 SHL DUP4 MSTORE DUP7 PUSH1 0x4 DUP5 ADD MSTORE PUSH1 0x24 DUP4 ADD SWAP1 PUSH2 0x133D JUMP JUMPDEST SUB SWAP2 GAS STATICCALL SWAP2 DUP3 ISZERO PUSH2 0x3BF JUMPI PUSH2 0x31F SWAP5 PUSH1 0x0 SWAP4 PUSH2 0x38D JUMPI JUMPDEST POP PUSH1 0x40 ADD MLOAD SWAP2 DUP3 ISZERO ISZERO DUP1 PUSH2 0x382 JUMPI JUMPDEST PUSH2 0x325 JUMPI JUMPDEST POP POP POP PUSH2 0x13A5 JUMP JUMPDEST DUP5 PUSH2 0x289 JUMP JUMPDEST AND SWAP1 DUP2 PUSH1 0x0 MSTORE PUSH1 0x3 DUP7 MSTORE PUSH1 0x40 PUSH1 0x0 KECCAK256 PUSH2 0x33F DUP3 DUP3 SLOAD PUSH2 0x1469 JUMP JUMPDEST SWAP1 SSTORE PUSH32 0xCB9F559E28915BE49DCCEEF3FD0E6953281BDD4EFE058DFF26DD513CA503799E PUSH1 0x40 PUSH2 0x36D DUP10 PUSH2 0x1410 JUMP JUMPDEST SWAP3 DUP2 MLOAD SWAP1 DUP2 MSTORE PUSH1 0x0 DUP10 DUP3 ADD MSTORE LOG3 DUP8 DUP1 DUP1 PUSH2 0x317 JUMP JUMPDEST POP DUP2 DUP2 AND ISZERO ISZERO PUSH2 0x312 JUMP JUMPDEST PUSH1 0x40 SWAP2 SWAP4 POP PUSH2 0x3B1 SWAP1 DUP9 RETURNDATASIZE DUP11 GT PUSH2 0x3B8 JUMPI JUMPDEST PUSH2 0x3A9 DUP2 DUP4 PUSH2 0x11B7 JUMP JUMPDEST DUP2 ADD SWAP1 PUSH2 0x1513 JUMP JUMPDEST SWAP3 SWAP1 PUSH2 0x303 JUMP JUMPDEST POP RETURNDATASIZE PUSH2 0x39F JUMP JUMPDEST PUSH1 0x40 MLOAD RETURNDATASIZE PUSH1 0x0 DUP3 RETURNDATACOPY RETURNDATASIZE SWAP1 REVERT JUMPDEST PUSH2 0x28E JUMP JUMPDEST PUSH1 0x64 SWAP1 PUSH1 0x40 MLOAD SWAP1 PUSH3 0x461BCD PUSH1 0xE5 SHL DUP3 MSTORE PUSH1 0x4 DUP3 ADD MSTORE PUSH1 0xB PUSH1 0x24 DUP3 ADD MSTORE PUSH11 0x139BC8115512081CD95B9D PUSH1 0xAA SHL PUSH1 0x44 DUP3 ADD MSTORE REVERT JUMPDEST CALLVALUE PUSH2 0x532 JUMPI PUSH1 0x1 SWAP5 DUP6 ADD SWAP5 SWAP4 PUSH1 0x0 DUP6 JUMPDEST PUSH2 0x423 JUMPI JUMPDEST POP POP POP POP POP POP POP PUSH2 0x295 JUMP JUMPDEST DUP7 SLOAD DUP2 LT ISZERO PUSH2 0x52D JUMPI PUSH2 0x439 PUSH2 0x2B5 DUP3 DUP10 PUSH2 0x13F4 JUMP JUMPDEST SWAP1 PUSH2 0x46E PUSH1 0x1 DUP1 PUSH1 0xA0 SHL SUB DUP7 DUP2 DUP7 SLOAD AND DUP6 MLOAD SWAP1 PUSH1 0x40 MLOAD DUP1 DUP1 SWAP7 DUP2 SWAP5 PUSH4 0xD55A772D PUSH1 0xE0 SHL DUP4 MSTORE DUP7 PUSH1 0x4 DUP5 ADD MSTORE PUSH1 0x24 DUP4 ADD SWAP1 PUSH2 0x133D JUMP JUMPDEST SUB SWAP2 GAS STATICCALL SWAP2 DUP3 ISZERO PUSH2 0x3BF JUMPI PUSH2 0x4A0 SWAP5 DUP8 SWAP2 PUSH1 0x0 SWAP5 PUSH2 0x50E JUMPI JUMPDEST POP ADD MLOAD SWAP2 DUP3 ISZERO ISZERO DUP1 PUSH2 0x503 JUMPI JUMPDEST PUSH2 0x4A6 JUMPI POP POP POP PUSH2 0x13A5 JUMP JUMPDEST DUP6 PUSH2 0x412 JUMP JUMPDEST AND SWAP1 DUP2 PUSH1 0x0 MSTORE PUSH1 0x4 DUP8 MSTORE PUSH1 0x40 PUSH1 0x0 KECCAK256 PUSH2 0x4C0 DUP3 DUP3 SLOAD PUSH2 0x1469 JUMP JUMPDEST SWAP1 SSTORE PUSH32 0xCB9F559E28915BE49DCCEEF3FD0E6953281BDD4EFE058DFF26DD513CA503799E PUSH1 0x40 PUSH2 0x4EE DUP11 PUSH2 0x1410 JUMP JUMPDEST SWAP3 DUP2 MLOAD SWAP1 PUSH1 0x0 DUP3 MSTORE DUP11 DUP3 ADD MSTORE LOG3 DUP9 DUP1 DUP1 PUSH2 0x317 JUMP JUMPDEST POP DUP2 DUP2 AND ISZERO ISZERO PUSH2 0x494 JUMP JUMPDEST PUSH2 0x526 SWAP2 SWAP5 POP DUP10 RETURNDATASIZE DUP12 GT PUSH2 0x3B8 JUMPI PUSH2 0x3A9 DUP2 DUP4 PUSH2 0x11B7 JUMP JUMPDEST SWAP3 DUP13 PUSH2 0x487 JUMP JUMPDEST PUSH2 0x417 JUMP JUMPDEST PUSH1 0x40 MLOAD PUSH3 0x461BCD PUSH1 0xE5 SHL DUP2 MSTORE PUSH1 0x4 DUP2 ADD DUP4 SWAP1 MSTORE PUSH1 0x22 PUSH1 0x24 DUP3 ADD MSTORE PUSH32 0x446F206E6F742073656E642045544820666F72205553444320726F79616C7469 PUSH1 0x44 DUP3 ADD MSTORE PUSH2 0x6573 PUSH1 0xF0 SHL PUSH1 0x64 DUP3 ADD MSTORE PUSH1 0x84 SWAP1 REVERT JUMPDEST PUSH1 0x40 MLOAD PUSH3 0x461BCD PUSH1 0xE5 SHL DUP2 MSTORE PUSH1 0x4 DUP2 ADD DUP5 SWAP1 MSTORE PUSH1 0x1D PUSH1 0x24 DUP3 ADD MSTORE PUSH32 0x4E6F20726F79616C7469657320666F7220746869732070726F6A656374000000 PUSH1 0x44 DUP3 ADD MSTORE PUSH1 0x64 SWAP1 REVERT JUMPDEST CALLVALUE PUSH2 0x141 JUMPI PUSH1 0x0 CALLDATASIZE PUSH1 0x3 NOT ADD SLT PUSH2 0x141 JUMPI PUSH1 0x20 PUSH1 0x40 MLOAD PUSH20 0x833589FCD6EDB6E08F4C7C32D4F71B54BDA02913 DUP2 MSTORE RETURN JUMPDEST CALLVALUE PUSH2 0x141 JUMPI PUSH1 0x0 CALLDATASIZE PUSH1 0x3 NOT ADD SLT PUSH2 0x141 JUMPI PUSH1 0x20 PUSH1 0x40 MLOAD PUSH2 0x2710 DUP2 MSTORE RETURN JUMPDEST CALLVALUE PUSH2 0x141 JUMPI PUSH1 0x40 CALLDATASIZE PUSH1 0x3 NOT ADD SLT PUSH2 0x141 JUMPI PUSH1 0x4 CALLDATALOAD PUSH1 0x1 PUSH1 0x1 PUSH1 0x40 SHL SUB DUP2 GT PUSH2 0x141 JUMPI PUSH2 0x643 SWAP1 CALLDATASIZE SWAP1 PUSH1 0x4 ADD PUSH2 0x11F3 JUMP JUMPDEST PUSH1 0x24 CALLDATALOAD SWAP1 PUSH1 0x1 PUSH1 0x1 PUSH1 0x40 SHL SUB DUP3 GT PUSH2 0x141 JUMPI CALLDATASIZE PUSH1 0x23 DUP4 ADD SLT ISZERO PUSH2 0x141 JUMPI DUP2 PUSH1 0x4 ADD CALLDATALOAD PUSH2 0x66E DUP2 PUSH2 0x1362 JUMP JUMPDEST SWAP3 PUSH2 0x67C PUSH1 0x40 MLOAD SWAP5 DUP6 PUSH2 0x11B7 JUMP JUMPDEST DUP2 DUP5 MSTORE PUSH1 0x24 PUSH1 0x20 DUP6 ADD SWAP3 PUSH1 0x5 SHL DUP3 ADD ADD SWAP1 CALLDATASIZE DUP3 GT PUSH2 0x141 JUMPI PUSH1 0x24 DUP2 ADD SWAP3 JUMPDEST DUP3 DUP5 LT PUSH2 0xAF6 JUMPI DUP6 DUP6 PUSH1 0x40 MLOAD PUSH1 0xFF PUSH1 0x2 DUP4 MLOAD SWAP3 PUSH1 0x20 DUP2 DUP2 DUP8 ADD SWAP6 PUSH2 0x6BF DUP2 DUP4 DUP10 PUSH2 0x123A JUMP JUMPDEST DUP2 ADD PUSH1 0x5 DUP2 MSTORE SUB ADD SWAP1 KECCAK256 ADD SLOAD AND PUSH2 0xAB1 JUMPI PUSH1 0x20 PUSH2 0x6E7 SWAP2 PUSH1 0x40 MLOAD DUP1 SWAP4 DUP2 SWAP3 DUP7 MLOAD SWAP3 DUP4 SWAP2 PUSH2 0x123A JUMP JUMPDEST DUP2 ADD PUSH1 0x5 DUP2 MSTORE SUB ADD SWAP1 KECCAK256 SWAP2 DUP2 MLOAD SWAP3 PUSH1 0x1 PUSH1 0x1 PUSH1 0x40 SHL SUB DUP5 GT PUSH2 0x95C JUMPI PUSH2 0x70D DUP2 SLOAD PUSH2 0x125D JUMP JUMPDEST PUSH1 0x1F DUP2 GT PUSH2 0xA69 JUMPI JUMPDEST POP PUSH1 0x20 SWAP4 PUSH1 0x1F DUP2 GT PUSH1 0x1 EQ PUSH2 0xA04 JUMPI DUP1 SWAP2 SWAP3 SWAP4 SWAP5 PUSH1 0x0 SWAP2 PUSH2 0x9F9 JUMPI JUMPDEST POP DUP2 PUSH1 0x1 SHL SWAP2 PUSH1 0x0 NOT SWAP1 PUSH1 0x3 SHL SHR NOT AND OR DUP2 SSTORE JUMPDEST PUSH1 0x2 DUP2 ADD DUP1 SLOAD PUSH1 0xFF NOT AND PUSH1 0x1 OR SWAP1 SSTORE PUSH1 0x0 JUMPDEST DUP3 MLOAD DUP2 LT ISZERO PUSH2 0x9C1 JUMPI PUSH1 0x2 SLOAD PUSH2 0x7A2 SWAP1 PUSH1 0x40 SWAP1 PUSH1 0x1 PUSH1 0x1 PUSH1 0xA0 SHL SUB AND PUSH2 0x77E DUP5 DUP8 PUSH2 0x13CA JUMP JUMPDEST MLOAD SWAP1 DUP3 MLOAD DUP1 DUP1 SWAP6 DUP2 SWAP5 PUSH4 0xEDD91367 PUSH1 0xE0 SHL DUP4 MSTORE PUSH1 0x20 PUSH1 0x4 DUP5 ADD MSTORE PUSH1 0x24 DUP4 ADD SWAP1 PUSH2 0x133D JUMP JUMPDEST SUB SWAP2 GAS STATICCALL DUP1 ISZERO PUSH2 0x3BF JUMPI PUSH1 0x0 SWAP2 PUSH1 0x0 SWAP2 PUSH2 0x988 JUMPI JUMPDEST POP PUSH2 0x7C2 DUP4 DUP7 PUSH2 0x13CA JUMP JUMPDEST MLOAD SWAP2 PUSH1 0x40 MLOAD SWAP3 PUSH2 0x7D1 DUP5 PUSH2 0x119C JUMP JUMPDEST DUP4 MSTORE PUSH2 0x2710 PUSH1 0x20 DUP5 ADD MSTORE PUSH1 0x40 DUP4 ADD MSTORE PUSH1 0x60 DUP3 ADD MSTORE PUSH1 0x1 DUP4 ADD SLOAD PUSH9 0x10000000000000000 DUP2 LT ISZERO PUSH2 0x95C JUMPI DUP1 PUSH1 0x1 PUSH2 0x811 SWAP3 ADD PUSH1 0x1 DUP7 ADD SSTORE PUSH1 0x1 DUP6 ADD PUSH2 0x13F4 JUMP JUMPDEST SWAP2 SWAP1 SWAP2 PUSH2 0x972 JUMPI DUP1 MLOAD DUP1 MLOAD SWAP1 PUSH1 0x1 PUSH1 0x1 PUSH1 0x40 SHL SUB DUP3 GT PUSH2 0x95C JUMPI PUSH2 0x835 DUP5 SLOAD PUSH2 0x125D JUMP JUMPDEST PUSH1 0x1F DUP2 GT PUSH2 0x918 JUMPI JUMPDEST POP PUSH1 0x20 SWAP1 PUSH1 0x1F DUP4 GT PUSH1 0x1 EQ PUSH2 0x8A5 JUMPI SWAP3 DUP3 PUSH1 0x3 SWAP4 PUSH1 0x60 SWAP4 PUSH2 0x895 SWAP9 SWAP8 SWAP7 PUSH1 0x0 SWAP3 PUSH2 0x89A JUMPI JUMPDEST POP POP DUP2 PUSH1 0x1 SHL SWAP2 PUSH1 0x0 NOT SWAP1 DUP7 SHL SHR NOT AND OR DUP5 SSTORE JUMPDEST PUSH1 0x20 DUP2 ADD MLOAD PUSH1 0x1 DUP6 ADD SSTORE PUSH1 0x40 DUP2 ADD MLOAD PUSH1 0x2 DUP6 ADD SSTORE ADD MLOAD SWAP2 ADD SSTORE PUSH2 0x13A5 JUMP JUMPDEST PUSH2 0x758 JUMP JUMPDEST ADD MLOAD SWAP1 POP DUP12 DUP1 PUSH2 0x863 JUMP JUMPDEST SWAP1 DUP5 PUSH1 0x0 MSTORE PUSH1 0x20 PUSH1 0x0 KECCAK256 SWAP2 PUSH1 0x0 JUMPDEST PUSH1 0x1F NOT DUP6 AND DUP2 LT PUSH2 0x900 JUMPI POP DUP4 PUSH1 0x60 SWAP4 PUSH2 0x895 SWAP9 SWAP8 SWAP7 SWAP4 PUSH1 0x1 SWAP4 PUSH1 0x3 SWAP8 PUSH1 0x1F NOT DUP2 AND LT PUSH2 0x8E8 JUMPI JUMPDEST POP POP POP DUP2 SHL ADD DUP5 SSTORE PUSH2 0x877 JUMP JUMPDEST ADD MLOAD PUSH1 0x0 NOT DUP4 DUP9 SHL PUSH1 0xF8 AND SHR NOT AND SWAP1 SSTORE DUP12 DUP1 DUP1 PUSH2 0x8DB JUMP JUMPDEST SWAP2 SWAP3 PUSH1 0x20 PUSH1 0x1 DUP2 SWAP3 DUP7 DUP6 ADD MLOAD DUP2 SSTORE ADD SWAP5 ADD SWAP3 ADD PUSH2 0x8B3 JUMP JUMPDEST DUP5 PUSH1 0x0 MSTORE PUSH1 0x20 PUSH1 0x0 KECCAK256 PUSH1 0x1F DUP5 ADD PUSH1 0x5 SHR DUP2 ADD PUSH1 0x20 DUP6 LT PUSH2 0x955 JUMPI JUMPDEST PUSH1 0x1F DUP4 ADD PUSH1 0x5 SHR DUP3 ADD DUP2 LT PUSH2 0x949 JUMPI POP POP PUSH2 0x83E JUMP JUMPDEST PUSH1 0x0 DUP2 SSTORE PUSH1 0x1 ADD PUSH2 0x933 JUMP JUMPDEST POP DUP1 PUSH2 0x933 JUMP JUMPDEST PUSH4 0x4E487B71 PUSH1 0xE0 SHL PUSH1 0x0 MSTORE PUSH1 0x41 PUSH1 0x4 MSTORE PUSH1 0x24 PUSH1 0x0 REVERT JUMPDEST PUSH4 0x4E487B71 PUSH1 0xE0 SHL PUSH1 0x0 MSTORE PUSH1 0x0 PUSH1 0x4 MSTORE PUSH1 0x24 PUSH1 0x0 REVERT JUMPDEST SWAP2 POP POP PUSH1 0x40 DUP2 RETURNDATASIZE PUSH1 0x40 GT PUSH2 0x9B9 JUMPI JUMPDEST DUP2 PUSH2 0x9A4 PUSH1 0x40 SWAP4 DUP4 PUSH2 0x11B7 JUMP JUMPDEST DUP2 ADD SUB SLT PUSH2 0x141 JUMPI PUSH1 0x20 DUP2 MLOAD SWAP2 ADD MLOAD DUP7 PUSH2 0x7B7 JUMP JUMPDEST RETURNDATASIZE SWAP2 POP PUSH2 0x997 JUMP JUMPDEST DUP3 MLOAD PUSH32 0x92DA81CC62C0EFA31ECF38ECBDD2FB28ADD3E9AF1063DDE557CB388D8F9B3EF2 PUSH1 0x20 PUSH2 0x9EF DUP8 PUSH2 0x1410 JUMP JUMPDEST SWAP3 PUSH1 0x40 MLOAD SWAP1 DUP2 MSTORE LOG2 STOP JUMPDEST SWAP1 POP DUP5 ADD MLOAD DUP6 PUSH2 0x732 JUMP JUMPDEST PUSH1 0x1F NOT DUP2 AND SWAP5 DUP3 PUSH1 0x0 MSTORE PUSH1 0x20 PUSH1 0x0 KECCAK256 SWAP1 PUSH1 0x0 JUMPDEST DUP8 DUP2 LT PUSH2 0xA51 JUMPI POP DUP3 PUSH1 0x1 SWAP5 SWAP6 SWAP7 SWAP8 LT PUSH2 0xA38 JUMPI JUMPDEST POP POP DUP2 SHL ADD DUP2 SSTORE PUSH2 0x746 JUMP JUMPDEST DUP7 ADD MLOAD PUSH1 0x0 NOT PUSH1 0xF8 DUP5 PUSH1 0x3 SHL AND SHR NOT AND SWAP1 SSTORE DUP6 DUP1 PUSH2 0xA2C JUMP JUMPDEST SWAP1 SWAP2 PUSH1 0x20 PUSH1 0x1 DUP2 SWAP3 DUP6 DUP11 ADD MLOAD DUP2 SSTORE ADD SWAP4 ADD SWAP2 ADD PUSH2 0xA17 JUMP JUMPDEST DUP2 PUSH1 0x0 MSTORE PUSH1 0x20 PUSH1 0x0 KECCAK256 PUSH1 0x1F DUP7 ADD PUSH1 0x5 SHR DUP2 ADD SWAP2 PUSH1 0x20 DUP8 LT PUSH2 0xAA7 JUMPI JUMPDEST PUSH1 0x1F ADD PUSH1 0x5 SHR ADD SWAP1 JUMPDEST DUP2 DUP2 LT PUSH2 0xA9B JUMPI POP PUSH2 0x716 JUMP JUMPDEST PUSH1 0x0 DUP2 SSTORE PUSH1 0x1 ADD PUSH2 0xA8E JUMP JUMPDEST SWAP1 SWAP2 POP DUP2 SWAP1 PUSH2 0xA85 JUMP JUMPDEST PUSH1 0x40 MLOAD PUSH3 0x461BCD PUSH1 0xE5 SHL DUP2 MSTORE PUSH1 0x20 PUSH1 0x4 DUP3 ADD MSTORE PUSH1 0x1C PUSH1 0x24 DUP3 ADD MSTORE PUSH32 0x526F79616C7469657320616C7265616479207265676973746572656400000000 PUSH1 0x44 DUP3 ADD MSTORE PUSH1 0x64 SWAP1 REVERT JUMPDEST DUP4 CALLDATALOAD PUSH1 0x1 PUSH1 0x1 PUSH1 0x40 SHL SUB DUP2 GT PUSH2 0x141 JUMPI PUSH1 0x20 SWAP2 PUSH2 0xB1A DUP4 SWAP3 PUSH1 0x24 CALLDATASIZE SWAP2 DUP8 ADD ADD PUSH2 0x11F3 JUMP JUMPDEST DUP2 MSTORE ADD SWAP4 ADD SWAP3 PUSH2 0x69A JUMP JUMPDEST CALLVALUE PUSH2 0x141 JUMPI PUSH1 0x20 CALLDATASIZE PUSH1 0x3 NOT ADD SLT PUSH2 0x141 JUMPI PUSH1 0x4 CALLDATALOAD PUSH1 0x1 PUSH1 0x1 PUSH1 0xA0 SHL SUB DUP2 AND SWAP1 DUP2 SWAP1 SUB PUSH2 0x141 JUMPI PUSH2 0xB53 PUSH2 0x1379 JUMP JUMPDEST PUSH12 0xFFFFFFFFFFFFFFFFFFFFFFFF PUSH1 0xA0 SHL PUSH1 0x2 SLOAD AND OR PUSH1 0x2 SSTORE PUSH1 0x0 DUP1 RETURN JUMPDEST CALLVALUE PUSH2 0x141 JUMPI PUSH1 0x0 CALLDATASIZE PUSH1 0x3 NOT ADD SLT PUSH2 0x141 JUMPI PUSH2 0xB89 PUSH2 0x1532 JUMP JUMPDEST CALLER PUSH1 0x0 MSTORE PUSH1 0x20 PUSH1 0x3 DUP2 MSTORE PUSH1 0x40 PUSH1 0x0 KECCAK256 SLOAD SWAP1 DUP2 ISZERO PUSH2 0xC5C JUMPI CALLER PUSH1 0x0 MSTORE PUSH1 0x3 DUP2 MSTORE PUSH1 0x0 PUSH1 0x40 DUP2 KECCAK256 SSTORE PUSH1 0x0 DUP1 DUP1 DUP1 DUP6 CALLER GAS CALL RETURNDATASIZE ISZERO PUSH2 0xC57 JUMPI RETURNDATASIZE PUSH2 0xBC8 DUP2 PUSH2 0x11D8 JUMP JUMPDEST SWAP1 PUSH2 0xBD6 PUSH1 0x40 MLOAD SWAP3 DUP4 PUSH2 0x11B7 JUMP JUMPDEST DUP2 MSTORE PUSH1 0x0 DUP4 RETURNDATASIZE SWAP3 ADD RETURNDATACOPY JUMPDEST ISZERO PUSH2 0xC1D JUMPI PUSH1 0x0 SWAP1 PUSH1 0x40 MLOAD SWAP3 DUP4 MSTORE DUP3 ADD MSTORE PUSH32 0x6FE778711F06CA052305B633BA1B304F4D71C1523776F2AA3059D8D99F5420DE PUSH1 0x40 CALLER SWAP3 LOG2 PUSH1 0x1 DUP1 SSTORE STOP JUMPDEST PUSH1 0x64 SWAP1 PUSH1 0x40 MLOAD SWAP1 PUSH3 0x461BCD PUSH1 0xE5 SHL DUP3 MSTORE PUSH1 0x4 DUP3 ADD MSTORE PUSH1 0x13 PUSH1 0x24 DUP3 ADD MSTORE PUSH19 0x115512081D1C985B9CD9995C8819985A5B1959 PUSH1 0x6A SHL PUSH1 0x44 DUP3 ADD MSTORE REVERT JUMPDEST PUSH2 0xBE0 JUMP JUMPDEST PUSH1 0x64 SWAP1 PUSH1 0x40 MLOAD SWAP1 PUSH3 0x461BCD PUSH1 0xE5 SHL DUP3 MSTORE PUSH1 0x4 DUP3 ADD MSTORE PUSH1 0x18 PUSH1 0x24 DUP3 ADD MSTORE PUSH32 0x4E6F2070656E64696E672045544820726F79616C746965730000000000000000 PUSH1 0x44 DUP3 ADD MSTORE REVERT JUMPDEST CALLVALUE PUSH2 0x141 JUMPI PUSH1 0x0 CALLDATASIZE PUSH1 0x3 NOT ADD SLT PUSH2 0x141 JUMPI PUSH1 0x0 SLOAD PUSH1 0x40 MLOAD PUSH1 0x1 PUSH1 0x1 PUSH1 0xA0 SHL SUB SWAP1 SWAP2 AND DUP2 MSTORE PUSH1 0x20 SWAP1 RETURN JUMPDEST CALLVALUE PUSH2 0x141 JUMPI PUSH1 0x0 CALLDATASIZE PUSH1 0x3 NOT ADD SLT PUSH2 0x141 JUMPI PUSH2 0xCE2 PUSH2 0x1379 JUMP JUMPDEST PUSH1 0x0 DUP1 SLOAD PUSH1 0x1 PUSH1 0x1 PUSH1 0xA0 SHL SUB NOT DUP2 AND DUP3 SSTORE PUSH1 0x1 PUSH1 0x1 PUSH1 0xA0 SHL SUB AND PUSH32 0x8BE0079C531659141344CD1FD0A4F28419497F9722A3DAAFE3B4186F6B6457E0 DUP3 DUP1 LOG3 STOP JUMPDEST CALLVALUE PUSH2 0x141 JUMPI PUSH1 0x20 CALLDATASIZE PUSH1 0x3 NOT ADD SLT PUSH2 0x141 JUMPI PUSH1 0x4 CALLDATALOAD PUSH1 0x1 PUSH1 0x1 PUSH1 0xA0 SHL SUB DUP2 AND SWAP1 DUP2 SWAP1 SUB PUSH2 0x141 JUMPI PUSH1 0x0 MSTORE PUSH1 0x4 PUSH1 0x20 MSTORE PUSH1 0x20 PUSH1 0x40 PUSH1 0x0 KECCAK256 SLOAD PUSH1 0x40 MLOAD SWAP1 DUP2 MSTORE RETURN JUMPDEST CALLVALUE PUSH2 0x141 JUMPI PUSH1 0x20 DUP1 PUSH1 0x3 NOT CALLDATASIZE ADD SLT PUSH2 0x141 JUMPI PUSH1 0x4 CALLDATALOAD PUSH1 0x1 PUSH1 0x1 PUSH1 0x40 SHL SUB DUP2 GT PUSH2 0x141 JUMPI PUSH2 0xD91 SWAP1 CALLDATASIZE SWAP1 PUSH1 0x4 ADD PUSH2 0x11F3 JUMP JUMPDEST SWAP1 DUP1 PUSH2 0xDA6 PUSH1 0x40 MLOAD SWAP4 DUP5 DUP2 MLOAD SWAP4 DUP5 SWAP3 ADD PUSH2 0x123A JUMP JUMPDEST DUP3 ADD PUSH1 0x5 DUP2 MSTORE DUP3 DUP3 PUSH1 0x1 SWAP5 DUP6 SWAP4 SUB ADD SWAP1 KECCAK256 ADD DUP1 SLOAD SWAP2 PUSH2 0xDC4 DUP4 PUSH2 0x1362 JUMP JUMPDEST SWAP3 PUSH2 0xDD2 PUSH1 0x40 MLOAD SWAP5 DUP6 PUSH2 0x11B7 JUMP JUMPDEST DUP1 DUP5 MSTORE DUP2 DUP5 ADD DUP1 SWAP4 PUSH1 0x0 MSTORE DUP3 PUSH1 0x0 KECCAK256 PUSH1 0x0 SWAP2 JUMPDEST DUP4 DUP4 LT PUSH2 0xE7A JUMPI POP POP POP POP PUSH1 0x40 MLOAD SWAP4 DUP5 SWAP4 DUP3 DUP6 ADD SWAP1 DUP4 DUP7 MSTORE MLOAD DUP1 SWAP2 MSTORE PUSH1 0x40 DUP6 ADD SWAP3 PUSH1 0x40 DUP3 PUSH1 0x5 SHL DUP8 ADD ADD SWAP5 SWAP4 PUSH1 0x0 SWAP1 JUMPDEST DUP4 DUP3 LT PUSH2 0xE22 JUMPI DUP8 DUP8 SUB DUP9 RETURN JUMPDEST SWAP2 DUP5 SWAP7 DUP2 SWAP6 SWAP3 SWAP5 SWAP7 SWAP9 POP DUP2 SWAP1 PUSH1 0x3F NOT DUP12 DUP3 SUB ADD DUP6 MSTORE DUP10 MLOAD SWAP1 PUSH2 0xE4C DUP3 MLOAD PUSH1 0x80 DUP1 DUP5 MSTORE DUP4 ADD SWAP1 PUSH2 0x133D JUMP JUMPDEST SWAP2 DUP4 DUP2 ADD MLOAD DUP5 DUP4 ADD MSTORE PUSH1 0x40 DUP2 ADD MLOAD PUSH1 0x40 DUP4 ADD MSTORE PUSH1 0x60 DUP1 SWAP2 ADD MLOAD SWAP2 ADD MSTORE SWAP9 ADD SWAP3 ADD SWAP3 ADD DUP8 SWAP7 SWAP6 SWAP4 SWAP2 SWAP5 SWAP3 PUSH2 0xE15 JUMP JUMPDEST SWAP7 PUSH1 0x4 DUP6 DUP3 SWAP8 SWAP9 SWAP7 SWAP10 PUSH2 0xE8C DUP6 PUSH2 0x1430 JUMP JUMPDEST DUP2 MSTORE ADD SWAP3 ADD SWAP3 ADD SWAP2 SWAP1 SWAP7 SWAP4 SWAP6 SWAP5 SWAP7 PUSH2 0xDE5 JUMP JUMPDEST CALLVALUE PUSH2 0x141 JUMPI PUSH1 0x20 CALLDATASIZE PUSH1 0x3 NOT ADD SLT PUSH2 0x141 JUMPI PUSH1 0x4 CALLDATALOAD PUSH1 0x1 PUSH1 0x1 PUSH1 0x40 SHL SUB DUP2 GT PUSH2 0x141 JUMPI PUSH2 0xEEA PUSH1 0x20 PUSH2 0xED7 PUSH2 0xF19 SWAP4 CALLDATASIZE SWAP1 PUSH1 0x4 ADD PUSH2 0x11F3 JUMP JUMPDEST DUP2 PUSH1 0x40 MLOAD SWAP4 DUP3 DUP6 DUP1 SWAP5 MLOAD SWAP4 DUP5 SWAP3 ADD PUSH2 0x123A JUMP JUMPDEST DUP2 ADD PUSH1 0x5 DUP2 MSTORE SUB ADD SWAP1 KECCAK256 PUSH1 0xFF PUSH1 0x2 PUSH2 0xF01 DUP4 PUSH2 0x1297 JUMP JUMPDEST SWAP3 ADD SLOAD AND PUSH1 0x40 MLOAD SWAP3 DUP4 SWAP3 PUSH1 0x40 DUP5 MSTORE PUSH1 0x40 DUP5 ADD SWAP1 PUSH2 0x133D JUMP JUMPDEST SWAP1 ISZERO ISZERO PUSH1 0x20 DUP4 ADD MSTORE SUB SWAP1 RETURN JUMPDEST CALLVALUE PUSH2 0x141 JUMPI PUSH1 0x0 CALLDATASIZE PUSH1 0x3 NOT ADD SLT PUSH2 0x141 JUMPI PUSH1 0x20 PUSH1 0x40 MLOAD PUSH2 0x3E8 DUP2 MSTORE RETURN JUMPDEST CALLVALUE PUSH2 0x141 JUMPI PUSH1 0x0 CALLDATASIZE PUSH1 0x3 NOT ADD SLT PUSH2 0x141 JUMPI PUSH2 0xF5B PUSH2 0x1532 JUMP JUMPDEST CALLER PUSH1 0x0 MSTORE PUSH1 0x20 PUSH1 0x4 DUP2 MSTORE PUSH1 0x40 PUSH1 0x0 KECCAK256 SLOAD DUP1 ISZERO PUSH2 0x1089 JUMPI CALLER PUSH1 0x0 MSTORE PUSH1 0x4 DUP3 MSTORE PUSH1 0x0 PUSH1 0x40 DUP2 KECCAK256 SSTORE PUSH1 0x40 MLOAD PUSH4 0xA9059CBB PUSH1 0xE0 SHL DUP2 MSTORE CALLER PUSH1 0x4 DUP3 ADD MSTORE DUP2 PUSH1 0x24 DUP3 ADD MSTORE DUP3 DUP2 PUSH1 0x44 DUP2 PUSH1 0x0 PUSH1 0x1 DUP1 PUSH1 0xA0 SHL SUB PUSH32 0x0 AND GAS CALL SWAP1 DUP2 ISZERO PUSH2 0x3BF JUMPI PUSH1 0x0 SWAP2 PUSH2 0x1053 JUMPI JUMPDEST POP ISZERO PUSH2 0x1017 JUMPI PUSH1 0x40 MLOAD SWAP2 PUSH1 0x0 DUP4 MSTORE DUP3 ADD MSTORE PUSH32 0x6FE778711F06CA052305B633BA1B304F4D71C1523776F2AA3059D8D99F5420DE PUSH1 0x40 CALLER SWAP3 LOG2 PUSH1 0x1 DUP1 SSTORE STOP JUMPDEST PUSH1 0x40 MLOAD PUSH3 0x461BCD PUSH1 0xE5 SHL DUP2 MSTORE PUSH1 0x4 DUP2 ADD DUP4 SWAP1 MSTORE PUSH1 0x14 PUSH1 0x24 DUP3 ADD MSTORE PUSH20 0x1554D110C81D1C985B9CD9995C8819985A5B1959 PUSH1 0x62 SHL PUSH1 0x44 DUP3 ADD MSTORE PUSH1 0x64 SWAP1 REVERT JUMPDEST SWAP1 POP DUP3 DUP2 DUP2 RETURNDATASIZE DUP4 GT PUSH2 0x1082 JUMPI JUMPDEST PUSH2 0x106A DUP2 DUP4 PUSH2 0x11B7 JUMP JUMPDEST DUP2 ADD SUB SLT PUSH2 0x141 JUMPI MLOAD DUP1 ISZERO ISZERO DUP2 SUB PUSH2 0x141 JUMPI DUP4 PUSH2 0xFDA JUMP JUMPDEST POP RETURNDATASIZE PUSH2 0x1060 JUMP JUMPDEST PUSH1 0x40 MLOAD PUSH3 0x461BCD PUSH1 0xE5 SHL DUP2 MSTORE PUSH1 0x4 DUP2 ADD DUP4 SWAP1 MSTORE PUSH1 0x19 PUSH1 0x24 DUP3 ADD MSTORE PUSH32 0x4E6F2070656E64696E67205553444320726F79616C7469657300000000000000 PUSH1 0x44 DUP3 ADD MSTORE PUSH1 0x64 SWAP1 REVERT JUMPDEST CALLVALUE PUSH2 0x141 JUMPI PUSH1 0x20 CALLDATASIZE PUSH1 0x3 NOT ADD SLT PUSH2 0x141 JUMPI PUSH1 0x4 CALLDATALOAD PUSH1 0x1 PUSH1 0x1 PUSH1 0xA0 SHL SUB DUP2 AND SWAP1 DUP2 SWAP1 SUB PUSH2 0x141 JUMPI PUSH1 0x0 MSTORE PUSH1 0x3 PUSH1 0x20 MSTORE PUSH1 0x20 PUSH1 0x40 PUSH1 0x0 KECCAK256 SLOAD PUSH1 0x40 MLOAD SWAP1 DUP2 MSTORE RETURN JUMPDEST CALLVALUE PUSH2 0x141 JUMPI PUSH1 0x0 CALLDATASIZE PUSH1 0x3 NOT ADD SLT PUSH2 0x141 JUMPI PUSH1 0x40 MLOAD PUSH32 0x0 PUSH1 0x1 PUSH1 0x1 PUSH1 0xA0 SHL SUB AND DUP2 MSTORE PUSH1 0x20 SWAP1 RETURN JUMPDEST CALLVALUE PUSH2 0x141 JUMPI PUSH1 0x20 CALLDATASIZE PUSH1 0x3 NOT ADD SLT PUSH2 0x141 JUMPI PUSH1 0x4 CALLDATALOAD PUSH1 0x1 PUSH1 0x1 PUSH1 0xA0 SHL SUB DUP2 AND SWAP2 SWAP1 DUP3 SWAP1 SUB PUSH2 0x141 JUMPI PUSH1 0x40 SWAP2 PUSH1 0x0 MSTORE PUSH1 0x3 PUSH1 0x20 MSTORE DUP2 PUSH1 0x0 KECCAK256 SLOAD PUSH1 0x4 PUSH1 0x20 MSTORE DUP3 PUSH1 0x0 KECCAK256 SLOAD SWAP1 DUP3 MSTORE PUSH1 0x20 DUP3 ADD MSTORE RETURN JUMPDEST PUSH1 0x80 DUP2 ADD SWAP1 DUP2 LT PUSH1 0x1 PUSH1 0x1 PUSH1 0x40 SHL SUB DUP3 GT OR PUSH2 0x95C JUMPI PUSH1 0x40 MSTORE JUMP JUMPDEST SWAP1 PUSH1 0x1F DUP1 NOT SWAP2 ADD AND DUP2 ADD SWAP1 DUP2 LT PUSH1 0x1 PUSH1 0x1 PUSH1 0x40 SHL SUB DUP3 GT OR PUSH2 0x95C JUMPI PUSH1 0x40 MSTORE JUMP JUMPDEST PUSH1 0x1 PUSH1 0x1 PUSH1 0x40 SHL SUB DUP2 GT PUSH2 0x95C JUMPI PUSH1 0x1F ADD PUSH1 0x1F NOT AND PUSH1 0x20 ADD SWAP1 JUMP JUMPDEST DUP2 PUSH1 0x1F DUP3 ADD SLT ISZERO PUSH2 0x141 JUMPI DUP1 CALLDATALOAD SWAP1 PUSH2 0x120A DUP3 PUSH2 0x11D8 JUMP JUMPDEST SWAP3 PUSH2 0x1218 PUSH1 0x40 MLOAD SWAP5 DUP6 PUSH2 0x11B7 JUMP JUMPDEST DUP3 DUP5 MSTORE PUSH1 0x20 DUP4 DUP4 ADD ADD GT PUSH2 0x141 JUMPI DUP2 PUSH1 0x0 SWAP3 PUSH1 0x20 DUP1 SWAP4 ADD DUP4 DUP7 ADD CALLDATACOPY DUP4 ADD ADD MSTORE SWAP1 JUMP JUMPDEST PUSH1 0x0 JUMPDEST DUP4 DUP2 LT PUSH2 0x124D JUMPI POP POP PUSH1 0x0 SWAP2 ADD MSTORE JUMP JUMPDEST DUP2 DUP2 ADD MLOAD DUP4 DUP3 ADD MSTORE PUSH1 0x20 ADD PUSH2 0x123D JUMP JUMPDEST SWAP1 PUSH1 0x1 DUP3 DUP2 SHR SWAP3 AND DUP1 ISZERO PUSH2 0x128D JUMPI JUMPDEST PUSH1 0x20 DUP4 LT EQ PUSH2 0x1277 JUMPI JUMP JUMPDEST PUSH4 0x4E487B71 PUSH1 0xE0 SHL PUSH1 0x0 MSTORE PUSH1 0x22 PUSH1 0x4 MSTORE PUSH1 0x24 PUSH1 0x0 REVERT JUMPDEST SWAP2 PUSH1 0x7F AND SWAP2 PUSH2 0x126C JUMP JUMPDEST SWAP1 PUSH1 0x40 MLOAD SWAP2 DUP3 PUSH1 0x0 DUP3 SLOAD SWAP3 PUSH2 0x12AB DUP5 PUSH2 0x125D JUMP JUMPDEST SWAP1 DUP2 DUP5 MSTORE PUSH1 0x1 SWAP5 DUP6 DUP2 AND SWAP1 DUP2 PUSH1 0x0 EQ PUSH2 0x131A JUMPI POP PUSH1 0x1 EQ PUSH2 0x12D7 JUMPI JUMPDEST POP POP PUSH2 0x12D5 SWAP3 POP SUB DUP4 PUSH2 0x11B7 JUMP JUMPDEST JUMP JUMPDEST SWAP1 SWAP4 SWAP2 POP PUSH1 0x0 MSTORE PUSH1 0x20 SWAP1 DUP2 PUSH1 0x0 KECCAK256 SWAP4 PUSH1 0x0 SWAP2 JUMPDEST DUP2 DUP4 LT PUSH2 0x1302 JUMPI POP POP PUSH2 0x12D5 SWAP4 POP DUP3 ADD ADD CODESIZE DUP1 PUSH2 0x12C7 JUMP JUMPDEST DUP6 SLOAD DUP9 DUP5 ADD DUP6 ADD MSTORE SWAP5 DUP6 ADD SWAP5 DUP8 SWAP5 POP SWAP2 DUP4 ADD SWAP2 PUSH2 0x12EA JUMP JUMPDEST SWAP2 POP POP PUSH2 0x12D5 SWAP5 POP PUSH1 0x20 SWAP3 POP PUSH1 0xFF NOT AND DUP3 DUP5 ADD MSTORE ISZERO ISZERO PUSH1 0x5 SHL DUP3 ADD ADD CODESIZE DUP1 PUSH2 0x12C7 JUMP JUMPDEST SWAP1 PUSH1 0x20 SWAP2 PUSH2 0x1356 DUP2 MLOAD DUP1 SWAP3 DUP2 DUP6 MSTORE DUP6 DUP1 DUP7 ADD SWAP2 ADD PUSH2 0x123A JUMP JUMPDEST PUSH1 0x1F ADD PUSH1 0x1F NOT AND ADD ADD SWAP1 JUMP JUMPDEST PUSH1 0x1 PUSH1 0x1 PUSH1 0x40 SHL SUB DUP2 GT PUSH2 0x95C JUMPI PUSH1 0x5 SHL PUSH1 0x20 ADD SWAP1 JUMP JUMPDEST PUSH1 0x0 SLOAD PUSH1 0x1 PUSH1 0x1 PUSH1 0xA0 SHL SUB AND CALLER SUB PUSH2 0x138D JUMPI JUMP JUMPDEST PUSH1 0x40 MLOAD PUSH4 0x118CDAA7 PUSH1 0xE0 SHL DUP2 MSTORE CALLER PUSH1 0x4 DUP3 ADD MSTORE PUSH1 0x24 SWAP1 REVERT JUMPDEST PUSH1 0x0 NOT DUP2 EQ PUSH2 0x13B4 JUMPI PUSH1 0x1 ADD SWAP1 JUMP JUMPDEST PUSH4 0x4E487B71 PUSH1 0xE0 SHL PUSH1 0x0 MSTORE PUSH1 0x11 PUSH1 0x4 MSTORE PUSH1 0x24 PUSH1 0x0 REVERT JUMPDEST DUP1 MLOAD DUP3 LT ISZERO PUSH2 0x13DE JUMPI PUSH1 0x20 SWAP2 PUSH1 0x5 SHL ADD ADD SWAP1 JUMP JUMPDEST PUSH4 0x4E487B71 PUSH1 0xE0 SHL PUSH1 0x0 MSTORE PUSH1 0x32 PUSH1 0x4 MSTORE PUSH1 0x24 PUSH1 0x0 REVERT JUMPDEST DUP1 SLOAD DUP3 LT ISZERO PUSH2 0x13DE JUMPI PUSH1 0x0 MSTORE PUSH1 0x20 PUSH1 0x0 KECCAK256 SWAP1 PUSH1 0x2 SHL ADD SWAP1 PUSH1 0x0 SWAP1 JUMP JUMPDEST PUSH2 0x1428 SWAP1 PUSH1 0x20 PUSH1 0x40 MLOAD SWAP3 DUP3 DUP5 DUP1 SWAP5 MLOAD SWAP4 DUP5 SWAP3 ADD PUSH2 0x123A JUMP JUMPDEST DUP2 ADD SUB SWAP1 KECCAK256 SWAP1 JUMP JUMPDEST SWAP1 PUSH1 0x40 MLOAD PUSH2 0x143D DUP2 PUSH2 0x119C JUMP JUMPDEST PUSH1 0x60 PUSH1 0x3 DUP3 SWAP5 PUSH2 0x144C DUP2 PUSH2 0x1297 JUMP JUMPDEST DUP5 MSTORE PUSH1 0x1 DUP2 ADD SLOAD PUSH1 0x20 DUP6 ADD MSTORE PUSH1 0x2 DUP2 ADD SLOAD PUSH1 0x40 DUP6 ADD MSTORE ADD SLOAD SWAP2 ADD MSTORE JUMP JUMPDEST SWAP2 SWAP1 DUP3 ADD DUP1 SWAP3 GT PUSH2 0x13B4 JUMPI JUMP JUMPDEST SWAP1 PUSH1 0x0 DUP1 SWAP3 PUSH2 0x1495 PUSH1 0x20 PUSH1 0x40 SWAP3 DUP2 DUP5 MLOAD SWAP4 DUP3 DUP6 DUP1 SWAP5 MLOAD SWAP4 DUP5 SWAP3 ADD PUSH2 0x123A JUMP JUMPDEST DUP2 ADD PUSH1 0x5 DUP2 MSTORE SUB ADD SWAP1 KECCAK256 SWAP1 PUSH1 0xFF PUSH1 0x2 DUP4 ADD SLOAD AND ISZERO PUSH2 0x1506 JUMPI PUSH1 0x1 PUSH1 0x0 SWAP3 ADD SWAP1 DUP2 SLOAD SWAP2 JUMPDEST DUP3 DUP5 LT PUSH2 0x14C7 JUMPI POP POP POP POP SWAP2 SWAP1 JUMP JUMPDEST SWAP1 SWAP2 SWAP3 SWAP6 PUSH2 0x14F8 PUSH2 0x14FE SWAP2 PUSH1 0x60 PUSH2 0x14EF PUSH2 0x14E4 PUSH2 0x2B5 DUP13 DUP9 PUSH2 0x13F4 JUMP JUMPDEST SWAP9 DUP8 DUP11 ADD MLOAD SWAP1 PUSH2 0x1469 JUMP JUMPDEST SWAP8 ADD MLOAD SWAP1 PUSH2 0x1469 JUMP JUMPDEST SWAP7 PUSH2 0x13A5 JUMP JUMPDEST SWAP3 SWAP2 SWAP1 PUSH2 0x14B8 JUMP JUMPDEST POP POP POP SWAP1 POP PUSH1 0x0 SWAP1 PUSH1 0x0 SWAP1 JUMP JUMPDEST SWAP1 DUP2 PUSH1 0x20 SWAP2 SUB SLT PUSH2 0x141 JUMPI MLOAD PUSH1 0x1 PUSH1 0x1 PUSH1 0xA0 SHL SUB DUP2 AND DUP2 SUB PUSH2 0x141 JUMPI SWAP1 JUMP JUMPDEST PUSH1 0x2 PUSH1 0x1 SLOAD EQ PUSH2 0x1543 JUMPI PUSH1 0x2 PUSH1 0x1 SSTORE JUMP JUMPDEST PUSH1 0x40 MLOAD PUSH4 0x3EE5AEB5 PUSH1 0xE0 SHL DUP2 MSTORE PUSH1 0x4 SWAP1 REVERT INVALID LOG2 PUSH5 0x6970667358 0x22 SLT KECCAK256 PUSH19 0x4C87DCD55785624E1A44DDA684F1A441218214 SELFBALANCE 0xB8 PUSH25 0xAE3F9153ACD3FF6E8C64736F6C634300081400330000000000 "},"methodIdentifiers":{"PERCENTAGE_DENOMINATOR()":"b3cd4254","ROYALTY_PERCENTAGE()":"463b08db","USDC_ADDRESS()":"bb09d9b7","calculateTotalRoyalties(string)":"f8a76dfb","claimRoyaltiesETH()":"902509c2","claimRoyaltiesUSDC()":"1ed6c599","getPendingRoyalties(address)":"024fa0d6","getProjectDependencies(string)":"50fd8e71","libraryContract()":"ce0769c5","owner()":"8da5cb5b","pendingRoyaltiesETH(address)":"141b5f02","pendingRoyaltiesUSDC(address)":"5bf4b5c4","projectRoyalties(string)":"4aa8a12d","recordRoyalties(string,uint256,uint8)":"c5787690","registerProjectRoyalties(string,string[])":"b1ee838e","renounceOwnership()":"715018a6","setLibraryContract(address)":"956456d9","transferOwnership(address)":"f2fde38b","usdcToken()":"11eac855"}}}}}