{"ClayLibrary.sol":{"ClayLibrary":{"abi":[{"inputs":[{"internalType":"address","name":"_royaltyContract","type":"address"}],"stateMutability":"nonpayable","type":"constructor"},{"inputs":[{"internalType":"address","name":"owner","type":"address"}],"name":"OwnableInvalidOwner","type":"error"},{"inputs":[{"internalType":"address","name":"account","type":"address"}],"name":"OwnableUnauthorizedAccount","type":"error"},{"inputs":[],"name":"ReentrancyGuardReentrantCall","type":"error"},{"anonymous":false,"inputs":[{"indexed":true,"internalType":"string","name":"projectId","type":"string"},{"indexed":true,"internalType":"address","name":"owner","type":"address"}],"name":"AssetDeactivated","type":"event"},{"anonymous":false,"inputs":[{"indexed":true,"internalType":"string","name":"projectId","type":"string"},{"indexed":true,"internalType":"address","name":"creator","type":"address"},{"indexed":false,"internalType":"string","name":"name","type":"string"},{"indexed":false,"internalType":"uint256","name":"price","type":"uint256"}],"name":"AssetRegistered","type":"event"},{"anonymous":false,"inputs":[{"indexed":true,"internalType":"address","name":"previousOwner","type":"address"},{"indexed":true,"internalType":"address","name":"newOwner","type":"address"}],"name":"OwnershipTransferStarted","type":"event"},{"anonymous":false,"inputs":[{"indexed":true,"internalType":"address","name":"previousOwner","type":"address"},{"indexed":true,"internalType":"address","name":"newOwner","type":"address"}],"name":"OwnershipTransferred","type":"event"},{"anonymous":false,"inputs":[{"indexed":true,"internalType":"string","name":"projectId","type":"string"},{"indexed":true,"internalType":"address","name":"previousOwner","type":"address"},{"indexed":true,"internalType":"address","name":"newOwner","type":"address"}],"name":"OwnershipTransferred","type":"event"},{"anonymous":false,"inputs":[{"indexed":true,"internalType":"string","name":"projectId","type":"string"},{"indexed":false,"internalType":"uint256","name":"newRoyaltyETH","type":"uint256"},{"indexed":false,"internalType":"uint256","name":"newRoyaltyUSDC","type":"uint256"}],"name":"RoyaltyFeeUpdated","type":"event"},{"inputs":[],"name":"FEE_DENOMINATOR","outputs":[{"internalType":"uint256","name":"","type":"uint256"}],"stateMutability":"view","type":"function"},{"inputs":[],"name":"USDC_ADDRESS","outputs":[{"internalType":"address","name":"","type":"address"}],"stateMutability":"view","type":"function"},{"inputs":[],"name":"acceptOwnership","outputs":[],"stateMutability":"nonpayable","type":"function"},{"inputs":[{"internalType":"uint256","name":"","type":"uint256"}],"name":"allAssetIds","outputs":[{"internalType":"string","name":"","type":"string"}],"stateMutability":"view","type":"function"},{"inputs":[{"internalType":"address","name":"","type":"address"}],"name":"approvedMarketplaces","outputs":[{"internalType":"bool","name":"","type":"bool"}],"stateMutability":"view","type":"function"},{"inputs":[{"internalType":"string","name":"projectId","type":"string"}],"name":"deactivateAsset","outputs":[],"stateMutability":"nonpayable","type":"function"},{"inputs":[{"internalType":"string","name":"projectId","type":"string"}],"name":"getAsset","outputs":[{"components":[{"internalType":"string","name":"projectId","type":"string"},{"internalType":"string","name":"name","type":"string"},{"internalType":"string","name":"description","type":"string"},{"internalType":"uint256","name":"royaltyPerImportETH","type":"uint256"},{"internalType":"uint256","name":"royaltyPerImportUSDC","type":"uint256"},{"internalType":"address","name":"currentOwner","type":"address"},{"internalType":"address","name":"originalCreator","type":"address"},{"internalType":"uint256","name":"listedAt","type":"uint256"},{"internalType":"bool","name":"isActive","type":"bool"}],"internalType":"struct ClayLibrary.LibraryAsset","name":"","type":"tuple"}],"stateMutability":"view","type":"function"},{"inputs":[{"internalType":"uint256","name":"index","type":"uint256"}],"name":"getAssetIdByIndex","outputs":[{"internalType":"string","name":"","type":"string"}],"stateMutability":"view","type":"function"},{"inputs":[{"internalType":"string","name":"projectId","type":"string"}],"name":"getCurrentOwner","outputs":[{"internalType":"address","name":"","type":"address"}],"stateMutability":"view","type":"function"},{"inputs":[{"internalType":"string","name":"projectId","type":"string"}],"name":"getRoyaltyFee","outputs":[{"internalType":"uint256","name":"royaltyETH","type":"uint256"},{"internalType":"uint256","name":"royaltyUSDC","type":"uint256"}],"stateMutability":"view","type":"function"},{"inputs":[],"name":"getTotalAssets","outputs":[{"internalType":"uint256","name":"","type":"uint256"}],"stateMutability":"view","type":"function"},{"inputs":[{"internalType":"address","name":"user","type":"address"}],"name":"getUserAssets","outputs":[{"internalType":"string[]","name":"","type":"string[]"}],"stateMutability":"view","type":"function"},{"inputs":[{"internalType":"string","name":"","type":"string"}],"name":"libraryAssets","outputs":[{"internalType":"string","name":"projectId","type":"string"},{"internalType":"string","name":"name","type":"string"},{"internalType":"string","name":"description","type":"string"},{"internalType":"uint256","name":"royaltyPerImportETH","type":"uint256"},{"internalType":"uint256","name":"royaltyPerImportUSDC","type":"uint256"},{"internalType":"address","name":"currentOwner","type":"address"},{"internalType":"address","name":"originalCreator","type":"address"},{"internalType":"uint256","name":"listedAt","type":"uint256"},{"internalType":"bool","name":"isActive","type":"bool"}],"stateMutability":"view","type":"function"},{"inputs":[],"name":"owner","outputs":[{"internalType":"address","name":"","type":"address"}],"stateMutability":"view","type":"function"},{"inputs":[],"name":"pendingOwner","outputs":[{"internalType":"address","name":"","type":"address"}],"stateMutability":"view","type":"function"},{"inputs":[],"name":"platformFeePercentage","outputs":[{"internalType":"uint256","name":"","type":"uint256"}],"stateMutability":"view","type":"function"},{"inputs":[{"internalType":"string","name":"projectId","type":"string"},{"internalType":"string","name":"name","type":"string"},{"internalType":"string","name":"description","type":"string"},{"internalType":"uint256","name":"royaltyPerImportETH","type":"uint256"},{"internalType":"uint256","name":"royaltyPerImportUSDC","type":"uint256"}],"name":"registerAsset","outputs":[],"stateMutability":"nonpayable","type":"function"},{"inputs":[],"name":"renounceOwnership","outputs":[],"stateMutability":"nonpayable","type":"function"},{"inputs":[],"name":"royaltyContract","outputs":[{"internalType":"contract IClayRoyalty","name":"","type":"address"}],"stateMutability":"view","type":"function"},{"inputs":[{"internalType":"address","name":"marketplace","type":"address"},{"internalType":"bool","name":"approved","type":"bool"}],"name":"setApprovedMarketplace","outputs":[],"stateMutability":"nonpayable","type":"function"},{"inputs":[{"internalType":"address","name":"_royaltyContract","type":"address"}],"name":"setRoyaltyContract","outputs":[],"stateMutability":"nonpayable","type":"function"},{"inputs":[{"internalType":"string","name":"projectId","type":"string"},{"internalType":"address","name":"newOwner","type":"address"}],"name":"transferAssetOwnership","outputs":[],"stateMutability":"nonpayable","type":"function"},{"inputs":[{"internalType":"address","name":"newOwner","type":"address"}],"name":"transferOwnership","outputs":[],"stateMutability":"nonpayable","type":"function"},{"inputs":[{"internalType":"string","name":"projectId","type":"string"},{"internalType":"uint256","name":"newRoyaltyETH","type":"uint256"},{"internalType":"uint256","name":"newRoyaltyUSDC","type":"uint256"}],"name":"updateRoyaltyFee","outputs":[],"stateMutability":"nonpayable","type":"function"},{"inputs":[],"name":"usdcToken","outputs":[{"internalType":"contract IERC20","name":"","type":"address"}],"stateMutability":"view","type":"function"},{"inputs":[{"internalType":"address","name":"","type":"address"},{"internalType":"uint256","name":"","type":"uint256"}],"name":"userOwnedAssets","outputs":[{"internalType":"string","name":"","type":"string"}],"stateMutability":"view","type":"function"}],"evm":{"bytecode":{"linkReferences":{},"object":"60a0346100f857601f6119d838819003918201601f19168301916001600160401b038311848410176100fd578084926020946040528339810103126100f857516001600160a01b0390818116908190036100f85733156100df5760018060a01b031980600154166001556000543382821617600055604051933391167f8be0079c531659141344cd1fd0a4f28419497f9722a3daafe3b4186f6b6457e0600080a3600160025560fa60085573833589fcd6edb6e08f4c7c32d4f71b54bda0291360805260035416176003556118c490816101148239608051816112e50152f35b604051631e4fbdf760e01b815260006004820152602490fd5b600080fd5b634e487b7160e01b600052604160045260246000fdfe608080604052600436101561001357600080fd5b60003560e01c90816311eac855146112d2575080631663ee03146112a95780632203f8f114610f0e57806351618eff14610de1578063543a9eb914610da25780635d483ab914610d55578063675bfec114610c335780636cb3db2514610b2e5780636e07302b14610b10578063715018a614610aab578063765ff061146109ba57806379ba5097146109365780638c5deff8146108c85780638da5cb5b1461089f578063bb09d9b714610870578063bbf46b8414610817578063cd5286d014610650578063cdd78cfc14610632578063d55a772d146105e6578063d73792a9146105c9578063d9aa187c14610586578063e30c39781461055d578063e814d66b14610512578063edd91367146104a9578063f2fde38b1461043e5763ff6c0dde1461013d57600080fd5b346104395760a0366003190112610439576001600160401b036004358181116104395761016e903690600401611351565b9060243581811161043957610187903690600401611351565b90604435908111610439576101a0903690600401611351565b9160643591608435938251156103f45783158015906103eb575b6101c39061156f565b6040519483519060ff60086020988981818a01966101e281838a611513565b810160058152030190200154166103a6576040519261020084611314565b858452878401918583526040850191825260608501908882526080860190815260a086019133835260c087019333855260e0880195428752610100890197600189528d8c6040518093819251809261025792611513565b81016005815203019020985161026d908a611616565b5161027b9060018a01611616565b516102899060028901611616565b516003870155516004860155516005850180546001600160a01b039283166001600160a01b0319918216179091559151600686018054919092169216919091179055516007830155516008909101805460ff191691151560ff16919091179055336000526006845281604060002090610301916116dd565b600754600160401b8110156103905780600161032092016007556113bd565b61037a57826103537f585d38ebcb0fe93ced4d64fbb112388b85b7726e7d87c5142521434d4f1223849461035893611616565b61170a565b9261036e60405192604084526040840190611536565b948201528033940390a3005b634e487b7160e01b600052600060045260246000fd5b634e487b7160e01b600052604160045260246000fd5b60405162461bcd60e51b815260048101889052601860248201527f417373657420616c7265616479207265676973746572656400000000000000006044820152606490fd5b508415156101ba565b60405162461bcd60e51b815260206004820152601a60248201527f50726f6a6563742049442063616e6e6f7420626520656d7074790000000000006044820152606490fd5b600080fd5b34610439576020366003190112610439576104576113a7565b61045f61155b565b60018060a01b0380911690816001600160601b0360a01b6001541617600155600054167f38d16b8cac22d99fc7c124b9cd0de2d3fa1faef420bfe791d8c362d765e22700600080a3005b34610439576020366003190112610439576004356001600160401b038111610439576104f260206104e06040933690600401611351565b81845193828580945193849201611513565b810160058152030190206004600382015491015482519182526020820152f35b34610439576020366003190112610439576004356007548110156104395761054561053f610559926113bd565b90611502565b604051918291602083526020830190611536565b0390f35b34610439576000366003190112610439576001546040516001600160a01b039091168152602090f35b346104395760203660031901126104395761059f6113a7565b6105a761155b565b600380546001600160a01b0319166001600160a01b0392909216919091179055005b346104395760003660031901126104395760206040516127108152f35b34610439576020366003190112610439576004356001600160401b0381116104395761062061061b6020923690600401611351565b61176c565b6040516001600160a01b039091168152f35b34610439576000366003190112610439576020600854604051908152f35b34610439576020366003190112610439576004356001600160401b0381116104395760206106856106da923690600401611351565b600061010060405161069681611314565b60608152606085820152606060408201528260608201528260808201528260a08201528260c08201528260e082015201528160405193828580945193849201611513565b8101600581520301902060ff6008604051926106f584611314565b6106fe8161145c565b845261070c6001820161145c565b602085015261071d6002820161145c565b6040850152600381015460608501526004810154608085015260018060a01b0360058201541660a085015260018060a01b0360068201541660c0850152600781015460e085015201541615156101008201526040518091602082526101006107c761079683516101206020870152610140860190611536565b6107b2602085015191601f199283888303016040890152611536565b90604085015190868303016060870152611536565b9160608101516080850152608081015160a085015260018060a01b0360a08201511660c085015260018060a01b0360c08201511660e085015260e081015182850152015115156101208301520390f35b34610439576040366003190112610439576108306113a7565b60243580151581036104395761086e9161084861155b565b60018060a01b0316600052600460205260406000209060ff801983541691151516179055565b005b3461043957600036600319011261043957602060405173833589fcd6edb6e08f4c7c32d4f71b54bda029138152f35b34610439576000366003190112610439576000546040516001600160a01b039091168152602090f35b34610439576020366003190112610439576004356007548110156108fb576105456108f5610559926113bd565b5061145c565b60405162461bcd60e51b8152602060048201526013602482015272496e646578206f7574206f6620626f756e647360681b6044820152606490fd5b34610439576000366003190112610439576001546001600160a01b0333818316036109a2576001600160601b0360a01b8092166001556000549133908316176000553391167f8be0079c531659141344cd1fd0a4f28419497f9722a3daafe3b4186f6b6457e0600080a3005b60405163118cdaa760e01b8152336004820152602490fd5b3461043957602080600319360112610439576001600160a01b036109dc6113a7565b166000526006815260406000208054906001600160401b03821161039057829060405192610a0f838260051b0185611330565b8084528284018092600052836000206000915b838310610a895750505050604051918083019381845251809452604083019360408160051b85010192916000955b828710610a5d5785850386f35b909192938280610a79600193603f198a82030186528851611536565b9601920196019592919092610a50565b6001868192610a9a859a999a61145c565b815201920192019190959495610a22565b3461043957600036600319011261043957610ac461155b565b600180546001600160a01b0319908116909155600080549182168155906001600160a01b03167f8be0079c531659141344cd1fd0a4f28419497f9722a3daafe3b4186f6b6457e08280a3005b34610439576000366003190112610439576020600754604051908152f35b34610439576020366003190112610439576004356001600160401b03811161043957610b796020610b66610bf1933690600401611351565b8160405193828580945193849201611513565b81016005815203019020610b8c8161145c565b90610b996001820161145c565b610ba56002830161145c565b91600381015492600482015460018060a01b0390610c0d826005860154169260068601541693610bff60ff6008600789015498015416976040519b8c9b8c6101208091528d0190611536565b908b820360208d0152611536565b9089820360408b0152611536565b956060880152608087015260a086015260c085015260e084015215156101008301520390f35b34610439576060366003190112610439576004356001600160401b03811161043957610c63903690600401611351565b602435604435916040516020818351610c7f8183858801611513565b8101600581520301902091610c9a60ff60088501541661172a565b60058301546001600160a01b03163303610d1057610cf96040928560047f59e8620b0742a7acf1fa2c6236758d97e05221785068ee1ef79e8dde26cb755f968515801590610d07575b610cec9061156f565b856003820155015561170a565b9382519182526020820152a2005b50821515610ce3565b60405162461bcd60e51b815260206004820152601d60248201527f4f6e6c79206f776e65722063616e2075706461746520726f79616c74790000006044820152606490fd5b3461043957604036600319011261043957610d6e6113a7565b6001600160a01b031660009081526006602052604090208054602435908110156104395761053f610545916105599361140a565b34610439576020366003190112610439576001600160a01b03610dc36113a7565b166000526004602052602060ff604060002054166040519015158152f35b34610439576020366003190112610439576004356001600160401b03811161043957610e11903690600401611351565b6040516020818351610e268183858801611513565b81016005815203019020600881019081549060ff821615610ed057600501546001600160a01b03163303610e8b5760ff19169055610e64339161170a565b7fbf7659f4659900a03fed4ad2fc77c3602180b8afcf682077f6e38e88d0cf58f4600080a3005b60405162461bcd60e51b815260206004820152601960248201527f4f6e6c79206f776e65722063616e2064656163746976617465000000000000006044820152606490fd5b60405162461bcd60e51b8152602060048201526016602482015275417373657420616c726561647920696e61637469766560501b6044820152606490fd5b34610439576040366003190112610439576004356001600160401b03811161043957610f3e903690600401611351565b6024906001600160a01b039082358281168103610439576040516020818451610f6a8183858901611513565b8101600581520301902092610f8560ff60088601541661172a565b80600585015416918233148015611291575b1561124d57818116156112155782600052600660205260406000209460005b86548082101561120357610fca828961140a565b5060405190816000825492610fde84611422565b80845293600181169081156111e1575060011461119f575b5061100392500382611330565b60208151910120875160208901201461103d5750600019811461102857600101610fb6565b87634e487b7160e01b60005260116004526000fd5b90600097929394959697199182810190811161118a57611060611068918561140a565b50918461140a565b91909161117557611078916117b2565b8154801561116057019061108c828261140a565b61114b576110e5969798506110a18154611422565b908161110c575b5050555b60058383166001600160601b0360a01b82840154161791015581811660005260066020526110de8560406000206116dd565b169261170a565b7f6840904f5b31827f74e1497360da245f56e530c8c3de3163a2d31f11493273c6600080a4005b600091601f808211600114611126575050555b88806110a8565b9161114484929382845260208420940160051c8401600185016115ba565b555561111f565b88634e487b7160e01b60005260006004526000fd5b88634e487b7160e01b60005260316004526000fd5b89634e487b7160e01b60005260006004526000fd5b89634e487b7160e01b60005260116004526000fd5b9150506000526020600020906000915b8183106111c8575050816020611003928201018d610ff6565b80546020848601810191909152909201916001016111af565b90506020925061100394915060ff191682840152151560051b8201018d610ff6565b505090919294506110e59395506110ac565b60405162461bcd60e51b8152602060048201526011818801527024b73b30b634b2103732bb9037bbb732b960791b6044820152606490fd5b60405162461bcd60e51b815260206004820152601a818801527f4e6f7420617574686f72697a656420746f207472616e736665720000000000006044820152606490fd5b5033600052600460205260ff60406000205416610f97565b34610439576000366003190112610439576003546040516001600160a01b039091168152602090f35b34610439576000366003190112610439577f00000000000000000000000000000000000000000000000000000000000000006001600160a01b03168152602090f35b61012081019081106001600160401b0382111761039057604052565b90601f801991011681019081106001600160401b0382111761039057604052565b81601f82011215610439578035906001600160401b0382116103905760405192611385601f8401601f191660200185611330565b8284526020838301011161043957816000926020809301838601378301015290565b600435906001600160a01b038216820361043957565b6007548110156113f45760076000527fa66cc928b5edb82af9bd49922954155ab7b0942694bea4ce44661d9a8736c6880190600090565b634e487b7160e01b600052603260045260246000fd5b80548210156113f45760005260206000200190600090565b90600182811c92168015611452575b602083101461143c57565b634e487b7160e01b600052602260045260246000fd5b91607f1691611431565b906040519182600082549261147084611422565b9081845260019485811690816000146114df575060011461149c575b505061149a92500383611330565b565b9093915060005260209081600020936000915b8183106114c757505061149a9350820101388061148c565b855488840185015294850194879450918301916114af565b91505061149a94506020925060ff191682840152151560051b820101388061148c565b9061037a576115109061145c565b90565b60005b8381106115265750506000910152565b8181015183820152602001611516565b9060209161154f81518092818552858086019101611513565b601f01601f1916010190565b6000546001600160a01b031633036109a257565b1561157657565b606460405162461bcd60e51b815260206004820152602060248201527f4174206c65617374206f6e6520726f79616c7479206d757374206265207365746044820152fd5b8181106115c5575050565b600081556001016115ba565b9190601f81116115e057505050565b61149a926000526020600020906020601f840160051c8301931061160c575b601f0160051c01906115ba565b90915081906115ff565b91909182516001600160401b0381116103905761163d816116378454611422565b846115d1565b602080601f831160011461167957508192939460009261166e575b50508160011b916000199060031b1c1916179055565b015190503880611658565b90601f198316958460005282600020926000905b8882106116c5575050836001959697106116ac575b505050811b019055565b015160001960f88460031b161c191690553880806116a2565b8060018596829496860151815501950193019061168d565b8054600160401b811015610390576116fa9160018201815561140a565b91909161037a5761149a91611616565b61172290602060405192828480945193849201611513565b810103902090565b1561173157565b60405162461bcd60e51b81526020600482015260136024820152724173736574206e6f7420617661696c61626c6560681b6044820152606490fd5b6020611785918160405193828580945193849201611513565b8101600581520301902060ff600882015416156117ac57600501546001600160a01b031690565b50600090565b9080821461188a576117c48154611422565b906001600160401b0382116103905781906117e9826117e38654611422565b866115d1565b600090601f831160011461181f576000926118145750508160011b916000199060031b1c1916179055565b015490503880611658565b81526020808220858352818320935090601f1985169083905b82821061187157505090846001959493921061185857505050811b019055565b015460001960f88460031b161c191690553880806116a2565b8495819295850154815560018091019601940190611838565b505056fea2646970667358221220a08925ba249a51c0a8007b04f06118a117c914a71776d9b5c4e1719f9e3a3d0164736f6c63430008140033","opcodes":"PUSH1 0xA0 CALLVALUE PUSH2 0xF8 JUMPI PUSH1 0x1F PUSH2 0x19D8 CODESIZE DUP2 SWAP1 SUB SWAP2 DUP3 ADD PUSH1 0x1F NOT AND DUP4 ADD SWAP2 PUSH1 0x1 PUSH1 0x1 PUSH1 0x40 SHL SUB DUP4 GT DUP5 DUP5 LT OR PUSH2 0xFD JUMPI DUP1 DUP5 SWAP3 PUSH1 0x20 SWAP5 PUSH1 0x40 MSTORE DUP4 CODECOPY DUP2 ADD SUB SLT PUSH2 0xF8 JUMPI MLOAD PUSH1 0x1 PUSH1 0x1 PUSH1 0xA0 SHL SUB SWAP1 DUP2 DUP2 AND SWAP1 DUP2 SWAP1 SUB PUSH2 0xF8 JUMPI CALLER ISZERO PUSH2 0xDF JUMPI PUSH1 0x1 DUP1 PUSH1 0xA0 SHL SUB NOT DUP1 PUSH1 0x1 SLOAD AND PUSH1 0x1 SSTORE PUSH1 0x0 SLOAD CALLER DUP3 DUP3 AND OR PUSH1 0x0 SSTORE PUSH1 0x40 MLOAD SWAP4 CALLER SWAP2 AND PUSH32 0x8BE0079C531659141344CD1FD0A4F28419497F9722A3DAAFE3B4186F6B6457E0 PUSH1 0x0 DUP1 LOG3 PUSH1 0x1 PUSH1 0x2 SSTORE PUSH1 0xFA PUSH1 0x8 SSTORE PUSH20 0x833589FCD6EDB6E08F4C7C32D4F71B54BDA02913 PUSH1 0x80 MSTORE PUSH1 0x3 SLOAD AND OR PUSH1 0x3 SSTORE PUSH2 0x18C4 SWAP1 DUP2 PUSH2 0x114 DUP3 CODECOPY PUSH1 0x80 MLOAD DUP2 PUSH2 0x12E5 ADD MSTORE RETURN JUMPDEST PUSH1 0x40 MLOAD PUSH4 0x1E4FBDF7 PUSH1 0xE0 SHL DUP2 MSTORE PUSH1 0x0 PUSH1 0x4 DUP3 ADD MSTORE PUSH1 0x24 SWAP1 REVERT JUMPDEST PUSH1 0x0 DUP1 REVERT JUMPDEST PUSH4 0x4E487B71 PUSH1 0xE0 SHL PUSH1 0x0 MSTORE PUSH1 0x41 PUSH1 0x4 MSTORE PUSH1 0x24 PUSH1 0x0 REVERT INVALID PUSH1 0x80 DUP1 PUSH1 0x40 MSTORE PUSH1 0x4 CALLDATASIZE LT ISZERO PUSH2 0x13 JUMPI PUSH1 0x0 DUP1 REVERT JUMPDEST PUSH1 0x0 CALLDATALOAD PUSH1 0xE0 SHR SWAP1 DUP2 PUSH4 0x11EAC855 EQ PUSH2 0x12D2 JUMPI POP DUP1 PUSH4 0x1663EE03 EQ PUSH2 0x12A9 JUMPI DUP1 PUSH4 0x2203F8F1 EQ PUSH2 0xF0E JUMPI DUP1 PUSH4 0x51618EFF EQ PUSH2 0xDE1 JUMPI DUP1 PUSH4 0x543A9EB9 EQ PUSH2 0xDA2 JUMPI DUP1 PUSH4 0x5D483AB9 EQ PUSH2 0xD55 JUMPI DUP1 PUSH4 0x675BFEC1 EQ PUSH2 0xC33 JUMPI DUP1 PUSH4 0x6CB3DB25 EQ PUSH2 0xB2E JUMPI DUP1 PUSH4 0x6E07302B EQ PUSH2 0xB10 JUMPI DUP1 PUSH4 0x715018A6 EQ PUSH2 0xAAB JUMPI DUP1 PUSH4 0x765FF061 EQ PUSH2 0x9BA JUMPI DUP1 PUSH4 0x79BA5097 EQ PUSH2 0x936 JUMPI DUP1 PUSH4 0x8C5DEFF8 EQ PUSH2 0x8C8 JUMPI DUP1 PUSH4 0x8DA5CB5B EQ PUSH2 0x89F JUMPI DUP1 PUSH4 0xBB09D9B7 EQ PUSH2 0x870 JUMPI DUP1 PUSH4 0xBBF46B84 EQ PUSH2 0x817 JUMPI DUP1 PUSH4 0xCD5286D0 EQ PUSH2 0x650 JUMPI DUP1 PUSH4 0xCDD78CFC EQ PUSH2 0x632 JUMPI DUP1 PUSH4 0xD55A772D EQ PUSH2 0x5E6 JUMPI DUP1 PUSH4 0xD73792A9 EQ PUSH2 0x5C9 JUMPI DUP1 PUSH4 0xD9AA187C EQ PUSH2 0x586 JUMPI DUP1 PUSH4 0xE30C3978 EQ PUSH2 0x55D JUMPI DUP1 PUSH4 0xE814D66B EQ PUSH2 0x512 JUMPI DUP1 PUSH4 0xEDD91367 EQ PUSH2 0x4A9 JUMPI DUP1 PUSH4 0xF2FDE38B EQ PUSH2 0x43E JUMPI PUSH4 0xFF6C0DDE EQ PUSH2 0x13D JUMPI PUSH1 0x0 DUP1 REVERT JUMPDEST CALLVALUE PUSH2 0x439 JUMPI PUSH1 0xA0 CALLDATASIZE PUSH1 0x3 NOT ADD SLT PUSH2 0x439 JUMPI PUSH1 0x1 PUSH1 0x1 PUSH1 0x40 SHL SUB PUSH1 0x4 CALLDATALOAD DUP2 DUP2 GT PUSH2 0x439 JUMPI PUSH2 0x16E SWAP1 CALLDATASIZE SWAP1 PUSH1 0x4 ADD PUSH2 0x1351 JUMP JUMPDEST SWAP1 PUSH1 0x24 CALLDATALOAD DUP2 DUP2 GT PUSH2 0x439 JUMPI PUSH2 0x187 SWAP1 CALLDATASIZE SWAP1 PUSH1 0x4 ADD PUSH2 0x1351 JUMP JUMPDEST SWAP1 PUSH1 0x44 CALLDATALOAD SWAP1 DUP2 GT PUSH2 0x439 JUMPI PUSH2 0x1A0 SWAP1 CALLDATASIZE SWAP1 PUSH1 0x4 ADD PUSH2 0x1351 JUMP JUMPDEST SWAP2 PUSH1 0x64 CALLDATALOAD SWAP2 PUSH1 0x84 CALLDATALOAD SWAP4 DUP3 MLOAD ISZERO PUSH2 0x3F4 JUMPI DUP4 ISZERO DUP1 ISZERO SWAP1 PUSH2 0x3EB JUMPI JUMPDEST PUSH2 0x1C3 SWAP1 PUSH2 0x156F JUMP JUMPDEST PUSH1 0x40 MLOAD SWAP5 DUP4 MLOAD SWAP1 PUSH1 0xFF PUSH1 0x8 PUSH1 0x20 SWAP9 DUP10 DUP2 DUP2 DUP11 ADD SWAP7 PUSH2 0x1E2 DUP2 DUP4 DUP11 PUSH2 0x1513 JUMP JUMPDEST DUP2 ADD PUSH1 0x5 DUP2 MSTORE SUB ADD SWAP1 KECCAK256 ADD SLOAD AND PUSH2 0x3A6 JUMPI PUSH1 0x40 MLOAD SWAP3 PUSH2 0x200 DUP5 PUSH2 0x1314 JUMP JUMPDEST DUP6 DUP5 MSTORE DUP8 DUP5 ADD SWAP2 DUP6 DUP4 MSTORE PUSH1 0x40 DUP6 ADD SWAP2 DUP3 MSTORE PUSH1 0x60 DUP6 ADD SWAP1 DUP9 DUP3 MSTORE PUSH1 0x80 DUP7 ADD SWAP1 DUP2 MSTORE PUSH1 0xA0 DUP7 ADD SWAP2 CALLER DUP4 MSTORE PUSH1 0xC0 DUP8 ADD SWAP4 CALLER DUP6 MSTORE PUSH1 0xE0 DUP9 ADD SWAP6 TIMESTAMP DUP8 MSTORE PUSH2 0x100 DUP10 ADD SWAP8 PUSH1 0x1 DUP10 MSTORE DUP14 DUP13 PUSH1 0x40 MLOAD DUP1 SWAP4 DUP2 SWAP3 MLOAD DUP1 SWAP3 PUSH2 0x257 SWAP3 PUSH2 0x1513 JUMP JUMPDEST DUP2 ADD PUSH1 0x5 DUP2 MSTORE SUB ADD SWAP1 KECCAK256 SWAP9 MLOAD PUSH2 0x26D SWAP1 DUP11 PUSH2 0x1616 JUMP JUMPDEST MLOAD PUSH2 0x27B SWAP1 PUSH1 0x1 DUP11 ADD PUSH2 0x1616 JUMP JUMPDEST MLOAD PUSH2 0x289 SWAP1 PUSH1 0x2 DUP10 ADD PUSH2 0x1616 JUMP JUMPDEST MLOAD PUSH1 0x3 DUP8 ADD SSTORE MLOAD PUSH1 0x4 DUP7 ADD SSTORE MLOAD PUSH1 0x5 DUP6 ADD DUP1 SLOAD PUSH1 0x1 PUSH1 0x1 PUSH1 0xA0 SHL SUB SWAP3 DUP4 AND PUSH1 0x1 PUSH1 0x1 PUSH1 0xA0 SHL SUB NOT SWAP2 DUP3 AND OR SWAP1 SWAP2 SSTORE SWAP2 MLOAD PUSH1 0x6 DUP7 ADD DUP1 SLOAD SWAP2 SWAP1 SWAP3 AND SWAP3 AND SWAP2 SWAP1 SWAP2 OR SWAP1 SSTORE MLOAD PUSH1 0x7 DUP4 ADD SSTORE MLOAD PUSH1 0x8 SWAP1 SWAP2 ADD DUP1 SLOAD PUSH1 0xFF NOT AND SWAP2 ISZERO ISZERO PUSH1 0xFF AND SWAP2 SWAP1 SWAP2 OR SWAP1 SSTORE CALLER PUSH1 0x0 MSTORE PUSH1 0x6 DUP5 MSTORE DUP2 PUSH1 0x40 PUSH1 0x0 KECCAK256 SWAP1 PUSH2 0x301 SWAP2 PUSH2 0x16DD JUMP JUMPDEST PUSH1 0x7 SLOAD PUSH1 0x1 PUSH1 0x40 SHL DUP2 LT ISZERO PUSH2 0x390 JUMPI DUP1 PUSH1 0x1 PUSH2 0x320 SWAP3 ADD PUSH1 0x7 SSTORE PUSH2 0x13BD JUMP JUMPDEST PUSH2 0x37A JUMPI DUP3 PUSH2 0x353 PUSH32 0x585D38EBCB0FE93CED4D64FBB112388B85B7726E7D87C5142521434D4F122384 SWAP5 PUSH2 0x358 SWAP4 PUSH2 0x1616 JUMP JUMPDEST PUSH2 0x170A JUMP JUMPDEST SWAP3 PUSH2 0x36E PUSH1 0x40 MLOAD SWAP3 PUSH1 0x40 DUP5 MSTORE PUSH1 0x40 DUP5 ADD SWAP1 PUSH2 0x1536 JUMP JUMPDEST SWAP5 DUP3 ADD MSTORE DUP1 CALLER SWAP5 SUB SWAP1 LOG3 STOP JUMPDEST PUSH4 0x4E487B71 PUSH1 0xE0 SHL PUSH1 0x0 MSTORE PUSH1 0x0 PUSH1 0x4 MSTORE PUSH1 0x24 PUSH1 0x0 REVERT JUMPDEST PUSH4 0x4E487B71 PUSH1 0xE0 SHL PUSH1 0x0 MSTORE PUSH1 0x41 PUSH1 0x4 MSTORE PUSH1 0x24 PUSH1 0x0 REVERT JUMPDEST PUSH1 0x40 MLOAD PUSH3 0x461BCD PUSH1 0xE5 SHL DUP2 MSTORE PUSH1 0x4 DUP2 ADD DUP9 SWAP1 MSTORE PUSH1 0x18 PUSH1 0x24 DUP3 ADD MSTORE PUSH32 0x417373657420616C726561647920726567697374657265640000000000000000 PUSH1 0x44 DUP3 ADD MSTORE PUSH1 0x64 SWAP1 REVERT JUMPDEST POP DUP5 ISZERO ISZERO PUSH2 0x1BA JUMP JUMPDEST PUSH1 0x40 MLOAD PUSH3 0x461BCD PUSH1 0xE5 SHL DUP2 MSTORE PUSH1 0x20 PUSH1 0x4 DUP3 ADD MSTORE PUSH1 0x1A PUSH1 0x24 DUP3 ADD MSTORE PUSH32 0x50726F6A6563742049442063616E6E6F7420626520656D707479000000000000 PUSH1 0x44 DUP3 ADD MSTORE PUSH1 0x64 SWAP1 REVERT JUMPDEST PUSH1 0x0 DUP1 REVERT JUMPDEST CALLVALUE PUSH2 0x439 JUMPI PUSH1 0x20 CALLDATASIZE PUSH1 0x3 NOT ADD SLT PUSH2 0x439 JUMPI PUSH2 0x457 PUSH2 0x13A7 JUMP JUMPDEST PUSH2 0x45F PUSH2 0x155B JUMP JUMPDEST PUSH1 0x1 DUP1 PUSH1 0xA0 SHL SUB DUP1 SWAP2 AND SWAP1 DUP2 PUSH1 0x1 PUSH1 0x1 PUSH1 0x60 SHL SUB PUSH1 0xA0 SHL PUSH1 0x1 SLOAD AND OR PUSH1 0x1 SSTORE PUSH1 0x0 SLOAD AND PUSH32 0x38D16B8CAC22D99FC7C124B9CD0DE2D3FA1FAEF420BFE791D8C362D765E22700 PUSH1 0x0 DUP1 LOG3 STOP JUMPDEST CALLVALUE PUSH2 0x439 JUMPI PUSH1 0x20 CALLDATASIZE PUSH1 0x3 NOT ADD SLT PUSH2 0x439 JUMPI PUSH1 0x4 CALLDATALOAD PUSH1 0x1 PUSH1 0x1 PUSH1 0x40 SHL SUB DUP2 GT PUSH2 0x439 JUMPI PUSH2 0x4F2 PUSH1 0x20 PUSH2 0x4E0 PUSH1 0x40 SWAP4 CALLDATASIZE SWAP1 PUSH1 0x4 ADD PUSH2 0x1351 JUMP JUMPDEST DUP2 DUP5 MLOAD SWAP4 DUP3 DUP6 DUP1 SWAP5 MLOAD SWAP4 DUP5 SWAP3 ADD PUSH2 0x1513 JUMP JUMPDEST DUP2 ADD PUSH1 0x5 DUP2 MSTORE SUB ADD SWAP1 KECCAK256 PUSH1 0x4 PUSH1 0x3 DUP3 ADD SLOAD SWAP2 ADD SLOAD DUP3 MLOAD SWAP2 DUP3 MSTORE PUSH1 0x20 DUP3 ADD MSTORE RETURN JUMPDEST CALLVALUE PUSH2 0x439 JUMPI PUSH1 0x20 CALLDATASIZE PUSH1 0x3 NOT ADD SLT PUSH2 0x439 JUMPI PUSH1 0x4 CALLDATALOAD PUSH1 0x7 SLOAD DUP2 LT ISZERO PUSH2 0x439 JUMPI PUSH2 0x545 PUSH2 0x53F PUSH2 0x559 SWAP3 PUSH2 0x13BD JUMP JUMPDEST SWAP1 PUSH2 0x1502 JUMP JUMPDEST PUSH1 0x40 MLOAD SWAP2 DUP3 SWAP2 PUSH1 0x20 DUP4 MSTORE PUSH1 0x20 DUP4 ADD SWAP1 PUSH2 0x1536 JUMP JUMPDEST SUB SWAP1 RETURN JUMPDEST CALLVALUE PUSH2 0x439 JUMPI PUSH1 0x0 CALLDATASIZE PUSH1 0x3 NOT ADD SLT PUSH2 0x439 JUMPI PUSH1 0x1 SLOAD PUSH1 0x40 MLOAD PUSH1 0x1 PUSH1 0x1 PUSH1 0xA0 SHL SUB SWAP1 SWAP2 AND DUP2 MSTORE PUSH1 0x20 SWAP1 RETURN JUMPDEST CALLVALUE PUSH2 0x439 JUMPI PUSH1 0x20 CALLDATASIZE PUSH1 0x3 NOT ADD SLT PUSH2 0x439 JUMPI PUSH2 0x59F PUSH2 0x13A7 JUMP JUMPDEST PUSH2 0x5A7 PUSH2 0x155B JUMP JUMPDEST PUSH1 0x3 DUP1 SLOAD PUSH1 0x1 PUSH1 0x1 PUSH1 0xA0 SHL SUB NOT AND PUSH1 0x1 PUSH1 0x1 PUSH1 0xA0 SHL SUB SWAP3 SWAP1 SWAP3 AND SWAP2 SWAP1 SWAP2 OR SWAP1 SSTORE STOP JUMPDEST CALLVALUE PUSH2 0x439 JUMPI PUSH1 0x0 CALLDATASIZE PUSH1 0x3 NOT ADD SLT PUSH2 0x439 JUMPI PUSH1 0x20 PUSH1 0x40 MLOAD PUSH2 0x2710 DUP2 MSTORE RETURN JUMPDEST CALLVALUE PUSH2 0x439 JUMPI PUSH1 0x20 CALLDATASIZE PUSH1 0x3 NOT ADD SLT PUSH2 0x439 JUMPI PUSH1 0x4 CALLDATALOAD PUSH1 0x1 PUSH1 0x1 PUSH1 0x40 SHL SUB DUP2 GT PUSH2 0x439 JUMPI PUSH2 0x620 PUSH2 0x61B PUSH1 0x20 SWAP3 CALLDATASIZE SWAP1 PUSH1 0x4 ADD PUSH2 0x1351 JUMP JUMPDEST PUSH2 0x176C JUMP JUMPDEST PUSH1 0x40 MLOAD PUSH1 0x1 PUSH1 0x1 PUSH1 0xA0 SHL SUB SWAP1 SWAP2 AND DUP2 MSTORE RETURN JUMPDEST CALLVALUE PUSH2 0x439 JUMPI PUSH1 0x0 CALLDATASIZE PUSH1 0x3 NOT ADD SLT PUSH2 0x439 JUMPI PUSH1 0x20 PUSH1 0x8 SLOAD PUSH1 0x40 MLOAD SWAP1 DUP2 MSTORE RETURN JUMPDEST CALLVALUE PUSH2 0x439 JUMPI PUSH1 0x20 CALLDATASIZE PUSH1 0x3 NOT ADD SLT PUSH2 0x439 JUMPI PUSH1 0x4 CALLDATALOAD PUSH1 0x1 PUSH1 0x1 PUSH1 0x40 SHL SUB DUP2 GT PUSH2 0x439 JUMPI PUSH1 0x20 PUSH2 0x685 PUSH2 0x6DA SWAP3 CALLDATASIZE SWAP1 PUSH1 0x4 ADD PUSH2 0x1351 JUMP JUMPDEST PUSH1 0x0 PUSH2 0x100 PUSH1 0x40 MLOAD PUSH2 0x696 DUP2 PUSH2 0x1314 JUMP JUMPDEST PUSH1 0x60 DUP2 MSTORE PUSH1 0x60 DUP6 DUP3 ADD MSTORE PUSH1 0x60 PUSH1 0x40 DUP3 ADD MSTORE DUP3 PUSH1 0x60 DUP3 ADD MSTORE DUP3 PUSH1 0x80 DUP3 ADD MSTORE DUP3 PUSH1 0xA0 DUP3 ADD MSTORE DUP3 PUSH1 0xC0 DUP3 ADD MSTORE DUP3 PUSH1 0xE0 DUP3 ADD MSTORE ADD MSTORE DUP2 PUSH1 0x40 MLOAD SWAP4 DUP3 DUP6 DUP1 SWAP5 MLOAD SWAP4 DUP5 SWAP3 ADD PUSH2 0x1513 JUMP JUMPDEST DUP2 ADD PUSH1 0x5 DUP2 MSTORE SUB ADD SWAP1 KECCAK256 PUSH1 0xFF PUSH1 0x8 PUSH1 0x40 MLOAD SWAP3 PUSH2 0x6F5 DUP5 PUSH2 0x1314 JUMP JUMPDEST PUSH2 0x6FE DUP2 PUSH2 0x145C JUMP JUMPDEST DUP5 MSTORE PUSH2 0x70C PUSH1 0x1 DUP3 ADD PUSH2 0x145C JUMP JUMPDEST PUSH1 0x20 DUP6 ADD MSTORE PUSH2 0x71D PUSH1 0x2 DUP3 ADD PUSH2 0x145C JUMP JUMPDEST PUSH1 0x40 DUP6 ADD MSTORE PUSH1 0x3 DUP2 ADD SLOAD PUSH1 0x60 DUP6 ADD MSTORE PUSH1 0x4 DUP2 ADD SLOAD PUSH1 0x80 DUP6 ADD MSTORE PUSH1 0x1 DUP1 PUSH1 0xA0 SHL SUB PUSH1 0x5 DUP3 ADD SLOAD AND PUSH1 0xA0 DUP6 ADD MSTORE PUSH1 0x1 DUP1 PUSH1 0xA0 SHL SUB PUSH1 0x6 DUP3 ADD SLOAD AND PUSH1 0xC0 DUP6 ADD MSTORE PUSH1 0x7 DUP2 ADD SLOAD PUSH1 0xE0 DUP6 ADD MSTORE ADD SLOAD AND ISZERO ISZERO PUSH2 0x100 DUP3 ADD MSTORE PUSH1 0x40 MLOAD DUP1 SWAP2 PUSH1 0x20 DUP3 MSTORE PUSH2 0x100 PUSH2 0x7C7 PUSH2 0x796 DUP4 MLOAD PUSH2 0x120 PUSH1 0x20 DUP8 ADD MSTORE PUSH2 0x140 DUP7 ADD SWAP1 PUSH2 0x1536 JUMP JUMPDEST PUSH2 0x7B2 PUSH1 0x20 DUP6 ADD MLOAD SWAP2 PUSH1 0x1F NOT SWAP3 DUP4 DUP9 DUP4 SUB ADD PUSH1 0x40 DUP10 ADD MSTORE PUSH2 0x1536 JUMP JUMPDEST SWAP1 PUSH1 0x40 DUP6 ADD MLOAD SWAP1 DUP7 DUP4 SUB ADD PUSH1 0x60 DUP8 ADD MSTORE PUSH2 0x1536 JUMP JUMPDEST SWAP2 PUSH1 0x60 DUP2 ADD MLOAD PUSH1 0x80 DUP6 ADD MSTORE PUSH1 0x80 DUP2 ADD MLOAD PUSH1 0xA0 DUP6 ADD MSTORE PUSH1 0x1 DUP1 PUSH1 0xA0 SHL SUB PUSH1 0xA0 DUP3 ADD MLOAD AND PUSH1 0xC0 DUP6 ADD MSTORE PUSH1 0x1 DUP1 PUSH1 0xA0 SHL SUB PUSH1 0xC0 DUP3 ADD MLOAD AND PUSH1 0xE0 DUP6 ADD MSTORE PUSH1 0xE0 DUP2 ADD MLOAD DUP3 DUP6 ADD MSTORE ADD MLOAD ISZERO ISZERO PUSH2 0x120 DUP4 ADD MSTORE SUB SWAP1 RETURN JUMPDEST CALLVALUE PUSH2 0x439 JUMPI PUSH1 0x40 CALLDATASIZE PUSH1 0x3 NOT ADD SLT PUSH2 0x439 JUMPI PUSH2 0x830 PUSH2 0x13A7 JUMP JUMPDEST PUSH1 0x24 CALLDATALOAD DUP1 ISZERO ISZERO DUP2 SUB PUSH2 0x439 JUMPI PUSH2 0x86E SWAP2 PUSH2 0x848 PUSH2 0x155B JUMP JUMPDEST PUSH1 0x1 DUP1 PUSH1 0xA0 SHL SUB AND PUSH1 0x0 MSTORE PUSH1 0x4 PUSH1 0x20 MSTORE PUSH1 0x40 PUSH1 0x0 KECCAK256 SWAP1 PUSH1 0xFF DUP1 NOT DUP4 SLOAD AND SWAP2 ISZERO ISZERO AND OR SWAP1 SSTORE JUMP JUMPDEST STOP JUMPDEST CALLVALUE PUSH2 0x439 JUMPI PUSH1 0x0 CALLDATASIZE PUSH1 0x3 NOT ADD SLT PUSH2 0x439 JUMPI PUSH1 0x20 PUSH1 0x40 MLOAD PUSH20 0x833589FCD6EDB6E08F4C7C32D4F71B54BDA02913 DUP2 MSTORE RETURN JUMPDEST CALLVALUE PUSH2 0x439 JUMPI PUSH1 0x0 CALLDATASIZE PUSH1 0x3 NOT ADD SLT PUSH2 0x439 JUMPI PUSH1 0x0 SLOAD PUSH1 0x40 MLOAD PUSH1 0x1 PUSH1 0x1 PUSH1 0xA0 SHL SUB SWAP1 SWAP2 AND DUP2 MSTORE PUSH1 0x20 SWAP1 RETURN JUMPDEST CALLVALUE PUSH2 0x439 JUMPI PUSH1 0x20 CALLDATASIZE PUSH1 0x3 NOT ADD SLT PUSH2 0x439 JUMPI PUSH1 0x4 CALLDATALOAD PUSH1 0x7 SLOAD DUP2 LT ISZERO PUSH2 0x8FB JUMPI PUSH2 0x545 PUSH2 0x8F5 PUSH2 0x559 SWAP3 PUSH2 0x13BD JUMP JUMPDEST POP PUSH2 0x145C JUMP JUMPDEST PUSH1 0x40 MLOAD PUSH3 0x461BCD PUSH1 0xE5 SHL DUP2 MSTORE PUSH1 0x20 PUSH1 0x4 DUP3 ADD MSTORE PUSH1 0x13 PUSH1 0x24 DUP3 ADD MSTORE PUSH19 0x496E646578206F7574206F6620626F756E6473 PUSH1 0x68 SHL PUSH1 0x44 DUP3 ADD MSTORE PUSH1 0x64 SWAP1 REVERT JUMPDEST CALLVALUE PUSH2 0x439 JUMPI PUSH1 0x0 CALLDATASIZE PUSH1 0x3 NOT ADD SLT PUSH2 0x439 JUMPI PUSH1 0x1 SLOAD PUSH1 0x1 PUSH1 0x1 PUSH1 0xA0 SHL SUB CALLER DUP2 DUP4 AND SUB PUSH2 0x9A2 JUMPI PUSH1 0x1 PUSH1 0x1 PUSH1 0x60 SHL SUB PUSH1 0xA0 SHL DUP1 SWAP3 AND PUSH1 0x1 SSTORE PUSH1 0x0 SLOAD SWAP2 CALLER SWAP1 DUP4 AND OR PUSH1 0x0 SSTORE CALLER SWAP2 AND PUSH32 0x8BE0079C531659141344CD1FD0A4F28419497F9722A3DAAFE3B4186F6B6457E0 PUSH1 0x0 DUP1 LOG3 STOP JUMPDEST PUSH1 0x40 MLOAD PUSH4 0x118CDAA7 PUSH1 0xE0 SHL DUP2 MSTORE CALLER PUSH1 0x4 DUP3 ADD MSTORE PUSH1 0x24 SWAP1 REVERT JUMPDEST CALLVALUE PUSH2 0x439 JUMPI PUSH1 0x20 DUP1 PUSH1 0x3 NOT CALLDATASIZE ADD SLT PUSH2 0x439 JUMPI PUSH1 0x1 PUSH1 0x1 PUSH1 0xA0 SHL SUB PUSH2 0x9DC PUSH2 0x13A7 JUMP JUMPDEST AND PUSH1 0x0 MSTORE PUSH1 0x6 DUP2 MSTORE PUSH1 0x40 PUSH1 0x0 KECCAK256 DUP1 SLOAD SWAP1 PUSH1 0x1 PUSH1 0x1 PUSH1 0x40 SHL SUB DUP3 GT PUSH2 0x390 JUMPI DUP3 SWAP1 PUSH1 0x40 MLOAD SWAP3 PUSH2 0xA0F DUP4 DUP3 PUSH1 0x5 SHL ADD DUP6 PUSH2 0x1330 JUMP JUMPDEST DUP1 DUP5 MSTORE DUP3 DUP5 ADD DUP1 SWAP3 PUSH1 0x0 MSTORE DUP4 PUSH1 0x0 KECCAK256 PUSH1 0x0 SWAP2 JUMPDEST DUP4 DUP4 LT PUSH2 0xA89 JUMPI POP POP POP POP PUSH1 0x40 MLOAD SWAP2 DUP1 DUP4 ADD SWAP4 DUP2 DUP5 MSTORE MLOAD DUP1 SWAP5 MSTORE PUSH1 0x40 DUP4 ADD SWAP4 PUSH1 0x40 DUP2 PUSH1 0x5 SHL DUP6 ADD ADD SWAP3 SWAP2 PUSH1 0x0 SWAP6 JUMPDEST DUP3 DUP8 LT PUSH2 0xA5D JUMPI DUP6 DUP6 SUB DUP7 RETURN JUMPDEST SWAP1 SWAP2 SWAP3 SWAP4 DUP3 DUP1 PUSH2 0xA79 PUSH1 0x1 SWAP4 PUSH1 0x3F NOT DUP11 DUP3 SUB ADD DUP7 MSTORE DUP9 MLOAD PUSH2 0x1536 JUMP JUMPDEST SWAP7 ADD SWAP3 ADD SWAP7 ADD SWAP6 SWAP3 SWAP2 SWAP1 SWAP3 PUSH2 0xA50 JUMP JUMPDEST PUSH1 0x1 DUP7 DUP2 SWAP3 PUSH2 0xA9A DUP6 SWAP11 SWAP10 SWAP11 PUSH2 0x145C JUMP JUMPDEST DUP2 MSTORE ADD SWAP3 ADD SWAP3 ADD SWAP2 SWAP1 SWAP6 SWAP5 SWAP6 PUSH2 0xA22 JUMP JUMPDEST CALLVALUE PUSH2 0x439 JUMPI PUSH1 0x0 CALLDATASIZE PUSH1 0x3 NOT ADD SLT PUSH2 0x439 JUMPI PUSH2 0xAC4 PUSH2 0x155B JUMP JUMPDEST PUSH1 0x1 DUP1 SLOAD PUSH1 0x1 PUSH1 0x1 PUSH1 0xA0 SHL SUB NOT SWAP1 DUP2 AND SWAP1 SWAP2 SSTORE PUSH1 0x0 DUP1 SLOAD SWAP2 DUP3 AND DUP2 SSTORE SWAP1 PUSH1 0x1 PUSH1 0x1 PUSH1 0xA0 SHL SUB AND PUSH32 0x8BE0079C531659141344CD1FD0A4F28419497F9722A3DAAFE3B4186F6B6457E0 DUP3 DUP1 LOG3 STOP JUMPDEST CALLVALUE PUSH2 0x439 JUMPI PUSH1 0x0 CALLDATASIZE PUSH1 0x3 NOT ADD SLT PUSH2 0x439 JUMPI PUSH1 0x20 PUSH1 0x7 SLOAD PUSH1 0x40 MLOAD SWAP1 DUP2 MSTORE RETURN JUMPDEST CALLVALUE PUSH2 0x439 JUMPI PUSH1 0x20 CALLDATASIZE PUSH1 0x3 NOT ADD SLT PUSH2 0x439 JUMPI PUSH1 0x4 CALLDATALOAD PUSH1 0x1 PUSH1 0x1 PUSH1 0x40 SHL SUB DUP2 GT PUSH2 0x439 JUMPI PUSH2 0xB79 PUSH1 0x20 PUSH2 0xB66 PUSH2 0xBF1 SWAP4 CALLDATASIZE SWAP1 PUSH1 0x4 ADD PUSH2 0x1351 JUMP JUMPDEST DUP2 PUSH1 0x40 MLOAD SWAP4 DUP3 DUP6 DUP1 SWAP5 MLOAD SWAP4 DUP5 SWAP3 ADD PUSH2 0x1513 JUMP JUMPDEST DUP2 ADD PUSH1 0x5 DUP2 MSTORE SUB ADD SWAP1 KECCAK256 PUSH2 0xB8C DUP2 PUSH2 0x145C JUMP JUMPDEST SWAP1 PUSH2 0xB99 PUSH1 0x1 DUP3 ADD PUSH2 0x145C JUMP JUMPDEST PUSH2 0xBA5 PUSH1 0x2 DUP4 ADD PUSH2 0x145C JUMP JUMPDEST SWAP2 PUSH1 0x3 DUP2 ADD SLOAD SWAP3 PUSH1 0x4 DUP3 ADD SLOAD PUSH1 0x1 DUP1 PUSH1 0xA0 SHL SUB SWAP1 PUSH2 0xC0D DUP3 PUSH1 0x5 DUP7 ADD SLOAD AND SWAP3 PUSH1 0x6 DUP7 ADD SLOAD AND SWAP4 PUSH2 0xBFF PUSH1 0xFF PUSH1 0x8 PUSH1 0x7 DUP10 ADD SLOAD SWAP9 ADD SLOAD AND SWAP8 PUSH1 0x40 MLOAD SWAP12 DUP13 SWAP12 DUP13 PUSH2 0x120 DUP1 SWAP2 MSTORE DUP14 ADD SWAP1 PUSH2 0x1536 JUMP JUMPDEST SWAP1 DUP12 DUP3 SUB PUSH1 0x20 DUP14 ADD MSTORE PUSH2 0x1536 JUMP JUMPDEST SWAP1 DUP10 DUP3 SUB PUSH1 0x40 DUP12 ADD MSTORE PUSH2 0x1536 JUMP JUMPDEST SWAP6 PUSH1 0x60 DUP9 ADD MSTORE PUSH1 0x80 DUP8 ADD MSTORE PUSH1 0xA0 DUP7 ADD MSTORE PUSH1 0xC0 DUP6 ADD MSTORE PUSH1 0xE0 DUP5 ADD MSTORE ISZERO ISZERO PUSH2 0x100 DUP4 ADD MSTORE SUB SWAP1 RETURN JUMPDEST CALLVALUE PUSH2 0x439 JUMPI PUSH1 0x60 CALLDATASIZE PUSH1 0x3 NOT ADD SLT PUSH2 0x439 JUMPI PUSH1 0x4 CALLDATALOAD PUSH1 0x1 PUSH1 0x1 PUSH1 0x40 SHL SUB DUP2 GT PUSH2 0x439 JUMPI PUSH2 0xC63 SWAP1 CALLDATASIZE SWAP1 PUSH1 0x4 ADD PUSH2 0x1351 JUMP JUMPDEST PUSH1 0x24 CALLDATALOAD PUSH1 0x44 CALLDATALOAD SWAP2 PUSH1 0x40 MLOAD PUSH1 0x20 DUP2 DUP4 MLOAD PUSH2 0xC7F DUP2 DUP4 DUP6 DUP9 ADD PUSH2 0x1513 JUMP JUMPDEST DUP2 ADD PUSH1 0x5 DUP2 MSTORE SUB ADD SWAP1 KECCAK256 SWAP2 PUSH2 0xC9A PUSH1 0xFF PUSH1 0x8 DUP6 ADD SLOAD AND PUSH2 0x172A JUMP JUMPDEST PUSH1 0x5 DUP4 ADD SLOAD PUSH1 0x1 PUSH1 0x1 PUSH1 0xA0 SHL SUB AND CALLER SUB PUSH2 0xD10 JUMPI PUSH2 0xCF9 PUSH1 0x40 SWAP3 DUP6 PUSH1 0x4 PUSH32 0x59E8620B0742A7ACF1FA2C6236758D97E05221785068EE1EF79E8DDE26CB755F SWAP7 DUP6 ISZERO DUP1 ISZERO SWAP1 PUSH2 0xD07 JUMPI JUMPDEST PUSH2 0xCEC SWAP1 PUSH2 0x156F JUMP JUMPDEST DUP6 PUSH1 0x3 DUP3 ADD SSTORE ADD SSTORE PUSH2 0x170A JUMP JUMPDEST SWAP4 DUP3 MLOAD SWAP2 DUP3 MSTORE PUSH1 0x20 DUP3 ADD MSTORE LOG2 STOP JUMPDEST POP DUP3 ISZERO ISZERO PUSH2 0xCE3 JUMP JUMPDEST PUSH1 0x40 MLOAD PUSH3 0x461BCD PUSH1 0xE5 SHL DUP2 MSTORE PUSH1 0x20 PUSH1 0x4 DUP3 ADD MSTORE PUSH1 0x1D PUSH1 0x24 DUP3 ADD MSTORE PUSH32 0x4F6E6C79206F776E65722063616E2075706461746520726F79616C7479000000 PUSH1 0x44 DUP3 ADD MSTORE PUSH1 0x64 SWAP1 REVERT JUMPDEST CALLVALUE PUSH2 0x439 JUMPI PUSH1 0x40 CALLDATASIZE PUSH1 0x3 NOT ADD SLT PUSH2 0x439 JUMPI PUSH2 0xD6E PUSH2 0x13A7 JUMP JUMPDEST PUSH1 0x1 PUSH1 0x1 PUSH1 0xA0 SHL SUB AND PUSH1 0x0 SWAP1 DUP2 MSTORE PUSH1 0x6 PUSH1 0x20 MSTORE PUSH1 0x40 SWAP1 KECCAK256 DUP1 SLOAD PUSH1 0x24 CALLDATALOAD SWAP1 DUP2 LT ISZERO PUSH2 0x439 JUMPI PUSH2 0x53F PUSH2 0x545 SWAP2 PUSH2 0x559 SWAP4 PUSH2 0x140A JUMP JUMPDEST CALLVALUE PUSH2 0x439 JUMPI PUSH1 0x20 CALLDATASIZE PUSH1 0x3 NOT ADD SLT PUSH2 0x439 JUMPI PUSH1 0x1 PUSH1 0x1 PUSH1 0xA0 SHL SUB PUSH2 0xDC3 PUSH2 0x13A7 JUMP JUMPDEST AND PUSH1 0x0 MSTORE PUSH1 0x4 PUSH1 0x20 MSTORE PUSH1 0x20 PUSH1 0xFF PUSH1 0x40 PUSH1 0x0 KECCAK256 SLOAD AND PUSH1 0x40 MLOAD SWAP1 ISZERO ISZERO DUP2 MSTORE RETURN JUMPDEST CALLVALUE PUSH2 0x439 JUMPI PUSH1 0x20 CALLDATASIZE PUSH1 0x3 NOT ADD SLT PUSH2 0x439 JUMPI PUSH1 0x4 CALLDATALOAD PUSH1 0x1 PUSH1 0x1 PUSH1 0x40 SHL SUB DUP2 GT PUSH2 0x439 JUMPI PUSH2 0xE11 SWAP1 CALLDATASIZE SWAP1 PUSH1 0x4 ADD PUSH2 0x1351 JUMP JUMPDEST PUSH1 0x40 MLOAD PUSH1 0x20 DUP2 DUP4 MLOAD PUSH2 0xE26 DUP2 DUP4 DUP6 DUP9 ADD PUSH2 0x1513 JUMP JUMPDEST DUP2 ADD PUSH1 0x5 DUP2 MSTORE SUB ADD SWAP1 KECCAK256 PUSH1 0x8 DUP2 ADD SWAP1 DUP2 SLOAD SWAP1 PUSH1 0xFF DUP3 AND ISZERO PUSH2 0xED0 JUMPI PUSH1 0x5 ADD SLOAD PUSH1 0x1 PUSH1 0x1 PUSH1 0xA0 SHL SUB AND CALLER SUB PUSH2 0xE8B JUMPI PUSH1 0xFF NOT AND SWAP1 SSTORE PUSH2 0xE64 CALLER SWAP2 PUSH2 0x170A JUMP JUMPDEST PUSH32 0xBF7659F4659900A03FED4AD2FC77C3602180B8AFCF682077F6E38E88D0CF58F4 PUSH1 0x0 DUP1 LOG3 STOP JUMPDEST PUSH1 0x40 MLOAD PUSH3 0x461BCD PUSH1 0xE5 SHL DUP2 MSTORE PUSH1 0x20 PUSH1 0x4 DUP3 ADD MSTORE PUSH1 0x19 PUSH1 0x24 DUP3 ADD MSTORE PUSH32 0x4F6E6C79206F776E65722063616E206465616374697661746500000000000000 PUSH1 0x44 DUP3 ADD MSTORE PUSH1 0x64 SWAP1 REVERT JUMPDEST PUSH1 0x40 MLOAD PUSH3 0x461BCD PUSH1 0xE5 SHL DUP2 MSTORE PUSH1 0x20 PUSH1 0x4 DUP3 ADD MSTORE PUSH1 0x16 PUSH1 0x24 DUP3 ADD MSTORE PUSH22 0x417373657420616C726561647920696E616374697665 PUSH1 0x50 SHL PUSH1 0x44 DUP3 ADD MSTORE PUSH1 0x64 SWAP1 REVERT JUMPDEST CALLVALUE PUSH2 0x439 JUMPI PUSH1 0x40 CALLDATASIZE PUSH1 0x3 NOT ADD SLT PUSH2 0x439 JUMPI PUSH1 0x4 CALLDATALOAD PUSH1 0x1 PUSH1 0x1 PUSH1 0x40 SHL SUB DUP2 GT PUSH2 0x439 JUMPI PUSH2 0xF3E SWAP1 CALLDATASIZE SWAP1 PUSH1 0x4 ADD PUSH2 0x1351 JUMP JUMPDEST PUSH1 0x24 SWAP1 PUSH1 0x1 PUSH1 0x1 PUSH1 0xA0 SHL SUB SWAP1 DUP3 CALLDATALOAD DUP3 DUP2 AND DUP2 SUB PUSH2 0x439 JUMPI PUSH1 0x40 MLOAD PUSH1 0x20 DUP2 DUP5 MLOAD PUSH2 0xF6A DUP2 DUP4 DUP6 DUP10 ADD PUSH2 0x1513 JUMP JUMPDEST DUP2 ADD PUSH1 0x5 DUP2 MSTORE SUB ADD SWAP1 KECCAK256 SWAP3 PUSH2 0xF85 PUSH1 0xFF PUSH1 0x8 DUP7 ADD SLOAD AND PUSH2 0x172A JUMP JUMPDEST DUP1 PUSH1 0x5 DUP6 ADD SLOAD AND SWAP2 DUP3 CALLER EQ DUP1 ISZERO PUSH2 0x1291 JUMPI JUMPDEST ISZERO PUSH2 0x124D JUMPI DUP2 DUP2 AND ISZERO PUSH2 0x1215 JUMPI DUP3 PUSH1 0x0 MSTORE PUSH1 0x6 PUSH1 0x20 MSTORE PUSH1 0x40 PUSH1 0x0 KECCAK256 SWAP5 PUSH1 0x0 JUMPDEST DUP7 SLOAD DUP1 DUP3 LT ISZERO PUSH2 0x1203 JUMPI PUSH2 0xFCA DUP3 DUP10 PUSH2 0x140A JUMP JUMPDEST POP PUSH1 0x40 MLOAD SWAP1 DUP2 PUSH1 0x0 DUP3 SLOAD SWAP3 PUSH2 0xFDE DUP5 PUSH2 0x1422 JUMP JUMPDEST DUP1 DUP5 MSTORE SWAP4 PUSH1 0x1 DUP2 AND SWAP1 DUP2 ISZERO PUSH2 0x11E1 JUMPI POP PUSH1 0x1 EQ PUSH2 0x119F JUMPI JUMPDEST POP PUSH2 0x1003 SWAP3 POP SUB DUP3 PUSH2 0x1330 JUMP JUMPDEST PUSH1 0x20 DUP2 MLOAD SWAP2 ADD KECCAK256 DUP8 MLOAD PUSH1 0x20 DUP10 ADD KECCAK256 EQ PUSH2 0x103D JUMPI POP PUSH1 0x0 NOT DUP2 EQ PUSH2 0x1028 JUMPI PUSH1 0x1 ADD PUSH2 0xFB6 JUMP JUMPDEST DUP8 PUSH4 0x4E487B71 PUSH1 0xE0 SHL PUSH1 0x0 MSTORE PUSH1 0x11 PUSH1 0x4 MSTORE PUSH1 0x0 REVERT JUMPDEST SWAP1 PUSH1 0x0 SWAP8 SWAP3 SWAP4 SWAP5 SWAP6 SWAP7 SWAP8 NOT SWAP2 DUP3 DUP2 ADD SWAP1 DUP2 GT PUSH2 0x118A JUMPI PUSH2 0x1060 PUSH2 0x1068 SWAP2 DUP6 PUSH2 0x140A JUMP JUMPDEST POP SWAP2 DUP5 PUSH2 0x140A JUMP JUMPDEST SWAP2 SWAP1 SWAP2 PUSH2 0x1175 JUMPI PUSH2 0x1078 SWAP2 PUSH2 0x17B2 JUMP JUMPDEST DUP2 SLOAD DUP1 ISZERO PUSH2 0x1160 JUMPI ADD SWAP1 PUSH2 0x108C DUP3 DUP3 PUSH2 0x140A JUMP JUMPDEST PUSH2 0x114B JUMPI PUSH2 0x10E5 SWAP7 SWAP8 SWAP9 POP PUSH2 0x10A1 DUP2 SLOAD PUSH2 0x1422 JUMP JUMPDEST SWAP1 DUP2 PUSH2 0x110C JUMPI JUMPDEST POP POP SSTORE JUMPDEST PUSH1 0x5 DUP4 DUP4 AND PUSH1 0x1 PUSH1 0x1 PUSH1 0x60 SHL SUB PUSH1 0xA0 SHL DUP3 DUP5 ADD SLOAD AND OR SWAP2 ADD SSTORE DUP2 DUP2 AND PUSH1 0x0 MSTORE PUSH1 0x6 PUSH1 0x20 MSTORE PUSH2 0x10DE DUP6 PUSH1 0x40 PUSH1 0x0 KECCAK256 PUSH2 0x16DD JUMP JUMPDEST AND SWAP3 PUSH2 0x170A JUMP JUMPDEST PUSH32 0x6840904F5B31827F74E1497360DA245F56E530C8C3DE3163A2D31F11493273C6 PUSH1 0x0 DUP1 LOG4 STOP JUMPDEST PUSH1 0x0 SWAP2 PUSH1 0x1F DUP1 DUP3 GT PUSH1 0x1 EQ PUSH2 0x1126 JUMPI POP POP SSTORE JUMPDEST DUP9 DUP1 PUSH2 0x10A8 JUMP JUMPDEST SWAP2 PUSH2 0x1144 DUP5 SWAP3 SWAP4 DUP3 DUP5 MSTORE PUSH1 0x20 DUP5 KECCAK256 SWAP5 ADD PUSH1 0x5 SHR DUP5 ADD PUSH1 0x1 DUP6 ADD PUSH2 0x15BA JUMP JUMPDEST SSTORE SSTORE PUSH2 0x111F JUMP JUMPDEST DUP9 PUSH4 0x4E487B71 PUSH1 0xE0 SHL PUSH1 0x0 MSTORE PUSH1 0x0 PUSH1 0x4 MSTORE PUSH1 0x0 REVERT JUMPDEST DUP9 PUSH4 0x4E487B71 PUSH1 0xE0 SHL PUSH1 0x0 MSTORE PUSH1 0x31 PUSH1 0x4 MSTORE PUSH1 0x0 REVERT JUMPDEST DUP10 PUSH4 0x4E487B71 PUSH1 0xE0 SHL PUSH1 0x0 MSTORE PUSH1 0x0 PUSH1 0x4 MSTORE PUSH1 0x0 REVERT JUMPDEST DUP10 PUSH4 0x4E487B71 PUSH1 0xE0 SHL PUSH1 0x0 MSTORE PUSH1 0x11 PUSH1 0x4 MSTORE PUSH1 0x0 REVERT JUMPDEST SWAP2 POP POP PUSH1 0x0 MSTORE PUSH1 0x20 PUSH1 0x0 KECCAK256 SWAP1 PUSH1 0x0 SWAP2 JUMPDEST DUP2 DUP4 LT PUSH2 0x11C8 JUMPI POP POP DUP2 PUSH1 0x20 PUSH2 0x1003 SWAP3 DUP3 ADD ADD DUP14 PUSH2 0xFF6 JUMP JUMPDEST DUP1 SLOAD PUSH1 0x20 DUP5 DUP7 ADD DUP2 ADD SWAP2 SWAP1 SWAP2 MSTORE SWAP1 SWAP3 ADD SWAP2 PUSH1 0x1 ADD PUSH2 0x11AF JUMP JUMPDEST SWAP1 POP PUSH1 0x20 SWAP3 POP PUSH2 0x1003 SWAP5 SWAP2 POP PUSH1 0xFF NOT AND DUP3 DUP5 ADD MSTORE ISZERO ISZERO PUSH1 0x5 SHL DUP3 ADD ADD DUP14 PUSH2 0xFF6 JUMP JUMPDEST POP POP SWAP1 SWAP2 SWAP3 SWAP5 POP PUSH2 0x10E5 SWAP4 SWAP6 POP PUSH2 0x10AC JUMP JUMPDEST PUSH1 0x40 MLOAD PUSH3 0x461BCD PUSH1 0xE5 SHL DUP2 MSTORE PUSH1 0x20 PUSH1 0x4 DUP3 ADD MSTORE PUSH1 0x11 DUP2 DUP9 ADD MSTORE PUSH17 0x24B73B30B634B2103732BB9037BBB732B9 PUSH1 0x79 SHL PUSH1 0x44 DUP3 ADD MSTORE PUSH1 0x64 SWAP1 REVERT JUMPDEST PUSH1 0x40 MLOAD PUSH3 0x461BCD PUSH1 0xE5 SHL DUP2 MSTORE PUSH1 0x20 PUSH1 0x4 DUP3 ADD MSTORE PUSH1 0x1A DUP2 DUP9 ADD MSTORE PUSH32 0x4E6F7420617574686F72697A656420746F207472616E73666572000000000000 PUSH1 0x44 DUP3 ADD MSTORE PUSH1 0x64 SWAP1 REVERT JUMPDEST POP CALLER PUSH1 0x0 MSTORE PUSH1 0x4 PUSH1 0x20 MSTORE PUSH1 0xFF PUSH1 0x40 PUSH1 0x0 KECCAK256 SLOAD AND PUSH2 0xF97 JUMP JUMPDEST CALLVALUE PUSH2 0x439 JUMPI PUSH1 0x0 CALLDATASIZE PUSH1 0x3 NOT ADD SLT PUSH2 0x439 JUMPI PUSH1 0x3 SLOAD PUSH1 0x40 MLOAD PUSH1 0x1 PUSH1 0x1 PUSH1 0xA0 SHL SUB SWAP1 SWAP2 AND DUP2 MSTORE PUSH1 0x20 SWAP1 RETURN JUMPDEST CALLVALUE PUSH2 0x439 JUMPI PUSH1 0x0 CALLDATASIZE PUSH1 0x3 NOT ADD SLT PUSH2 0x439 JUMPI PUSH32 0x0 PUSH1 0x1 PUSH1 0x1 PUSH1 0xA0 SHL SUB AND DUP2 MSTORE PUSH1 0x20 SWAP1 RETURN JUMPDEST PUSH2 0x120 DUP2 ADD SWAP1 DUP2 LT PUSH1 0x1 PUSH1 0x1 PUSH1 0x40 SHL SUB DUP3 GT OR PUSH2 0x390 JUMPI PUSH1 0x40 MSTORE JUMP JUMPDEST SWAP1 PUSH1 0x1F DUP1 NOT SWAP2 ADD AND DUP2 ADD SWAP1 DUP2 LT PUSH1 0x1 PUSH1 0x1 PUSH1 0x40 SHL SUB DUP3 GT OR PUSH2 0x390 JUMPI PUSH1 0x40 MSTORE JUMP JUMPDEST DUP2 PUSH1 0x1F DUP3 ADD SLT ISZERO PUSH2 0x439 JUMPI DUP1 CALLDATALOAD SWAP1 PUSH1 0x1 PUSH1 0x1 PUSH1 0x40 SHL SUB DUP3 GT PUSH2 0x390 JUMPI PUSH1 0x40 MLOAD SWAP3 PUSH2 0x1385 PUSH1 0x1F DUP5 ADD PUSH1 0x1F NOT AND PUSH1 0x20 ADD DUP6 PUSH2 0x1330 JUMP JUMPDEST DUP3 DUP5 MSTORE PUSH1 0x20 DUP4 DUP4 ADD ADD GT PUSH2 0x439 JUMPI DUP2 PUSH1 0x0 SWAP3 PUSH1 0x20 DUP1 SWAP4 ADD DUP4 DUP7 ADD CALLDATACOPY DUP4 ADD ADD MSTORE SWAP1 JUMP JUMPDEST PUSH1 0x4 CALLDATALOAD SWAP1 PUSH1 0x1 PUSH1 0x1 PUSH1 0xA0 SHL SUB DUP3 AND DUP3 SUB PUSH2 0x439 JUMPI JUMP JUMPDEST PUSH1 0x7 SLOAD DUP2 LT ISZERO PUSH2 0x13F4 JUMPI PUSH1 0x7 PUSH1 0x0 MSTORE PUSH32 0xA66CC928B5EDB82AF9BD49922954155AB7B0942694BEA4CE44661D9A8736C688 ADD SWAP1 PUSH1 0x0 SWAP1 JUMP JUMPDEST PUSH4 0x4E487B71 PUSH1 0xE0 SHL PUSH1 0x0 MSTORE PUSH1 0x32 PUSH1 0x4 MSTORE PUSH1 0x24 PUSH1 0x0 REVERT JUMPDEST DUP1 SLOAD DUP3 LT ISZERO PUSH2 0x13F4 JUMPI PUSH1 0x0 MSTORE PUSH1 0x20 PUSH1 0x0 KECCAK256 ADD SWAP1 PUSH1 0x0 SWAP1 JUMP JUMPDEST SWAP1 PUSH1 0x1 DUP3 DUP2 SHR SWAP3 AND DUP1 ISZERO PUSH2 0x1452 JUMPI JUMPDEST PUSH1 0x20 DUP4 LT EQ PUSH2 0x143C JUMPI JUMP JUMPDEST PUSH4 0x4E487B71 PUSH1 0xE0 SHL PUSH1 0x0 MSTORE PUSH1 0x22 PUSH1 0x4 MSTORE PUSH1 0x24 PUSH1 0x0 REVERT JUMPDEST SWAP2 PUSH1 0x7F AND SWAP2 PUSH2 0x1431 JUMP JUMPDEST SWAP1 PUSH1 0x40 MLOAD SWAP2 DUP3 PUSH1 0x0 DUP3 SLOAD SWAP3 PUSH2 0x1470 DUP5 PUSH2 0x1422 JUMP JUMPDEST SWAP1 DUP2 DUP5 MSTORE PUSH1 0x1 SWAP5 DUP6 DUP2 AND SWAP1 DUP2 PUSH1 0x0 EQ PUSH2 0x14DF JUMPI POP PUSH1 0x1 EQ PUSH2 0x149C JUMPI JUMPDEST POP POP PUSH2 0x149A SWAP3 POP SUB DUP4 PUSH2 0x1330 JUMP JUMPDEST JUMP JUMPDEST SWAP1 SWAP4 SWAP2 POP PUSH1 0x0 MSTORE PUSH1 0x20 SWAP1 DUP2 PUSH1 0x0 KECCAK256 SWAP4 PUSH1 0x0 SWAP2 JUMPDEST DUP2 DUP4 LT PUSH2 0x14C7 JUMPI POP POP PUSH2 0x149A SWAP4 POP DUP3 ADD ADD CODESIZE DUP1 PUSH2 0x148C JUMP JUMPDEST DUP6 SLOAD DUP9 DUP5 ADD DUP6 ADD MSTORE SWAP5 DUP6 ADD SWAP5 DUP8 SWAP5 POP SWAP2 DUP4 ADD SWAP2 PUSH2 0x14AF JUMP JUMPDEST SWAP2 POP POP PUSH2 0x149A SWAP5 POP PUSH1 0x20 SWAP3 POP PUSH1 0xFF NOT AND DUP3 DUP5 ADD MSTORE ISZERO ISZERO PUSH1 0x5 SHL DUP3 ADD ADD CODESIZE DUP1 PUSH2 0x148C JUMP JUMPDEST SWAP1 PUSH2 0x37A JUMPI PUSH2 0x1510 SWAP1 PUSH2 0x145C JUMP JUMPDEST SWAP1 JUMP JUMPDEST PUSH1 0x0 JUMPDEST DUP4 DUP2 LT PUSH2 0x1526 JUMPI POP POP PUSH1 0x0 SWAP2 ADD MSTORE JUMP JUMPDEST DUP2 DUP2 ADD MLOAD DUP4 DUP3 ADD MSTORE PUSH1 0x20 ADD PUSH2 0x1516 JUMP JUMPDEST SWAP1 PUSH1 0x20 SWAP2 PUSH2 0x154F DUP2 MLOAD DUP1 SWAP3 DUP2 DUP6 MSTORE DUP6 DUP1 DUP7 ADD SWAP2 ADD PUSH2 0x1513 JUMP JUMPDEST PUSH1 0x1F ADD PUSH1 0x1F NOT AND ADD ADD SWAP1 JUMP JUMPDEST PUSH1 0x0 SLOAD PUSH1 0x1 PUSH1 0x1 PUSH1 0xA0 SHL SUB AND CALLER SUB PUSH2 0x9A2 JUMPI JUMP JUMPDEST ISZERO PUSH2 0x1576 JUMPI JUMP JUMPDEST PUSH1 0x64 PUSH1 0x40 MLOAD PUSH3 0x461BCD PUSH1 0xE5 SHL DUP2 MSTORE PUSH1 0x20 PUSH1 0x4 DUP3 ADD MSTORE PUSH1 0x20 PUSH1 0x24 DUP3 ADD MSTORE PUSH32 0x4174206C65617374206F6E6520726F79616C7479206D75737420626520736574 PUSH1 0x44 DUP3 ADD MSTORE REVERT JUMPDEST DUP2 DUP2 LT PUSH2 0x15C5 JUMPI POP POP JUMP JUMPDEST PUSH1 0x0 DUP2 SSTORE PUSH1 0x1 ADD PUSH2 0x15BA JUMP JUMPDEST SWAP2 SWAP1 PUSH1 0x1F DUP2 GT PUSH2 0x15E0 JUMPI POP POP POP JUMP JUMPDEST PUSH2 0x149A SWAP3 PUSH1 0x0 MSTORE PUSH1 0x20 PUSH1 0x0 KECCAK256 SWAP1 PUSH1 0x20 PUSH1 0x1F DUP5 ADD PUSH1 0x5 SHR DUP4 ADD SWAP4 LT PUSH2 0x160C JUMPI JUMPDEST PUSH1 0x1F ADD PUSH1 0x5 SHR ADD SWAP1 PUSH2 0x15BA JUMP JUMPDEST SWAP1 SWAP2 POP DUP2 SWAP1 PUSH2 0x15FF JUMP JUMPDEST SWAP2 SWAP1 SWAP2 DUP3 MLOAD PUSH1 0x1 PUSH1 0x1 PUSH1 0x40 SHL SUB DUP2 GT PUSH2 0x390 JUMPI PUSH2 0x163D DUP2 PUSH2 0x1637 DUP5 SLOAD PUSH2 0x1422 JUMP JUMPDEST DUP5 PUSH2 0x15D1 JUMP JUMPDEST PUSH1 0x20 DUP1 PUSH1 0x1F DUP4 GT PUSH1 0x1 EQ PUSH2 0x1679 JUMPI POP DUP2 SWAP3 SWAP4 SWAP5 PUSH1 0x0 SWAP3 PUSH2 0x166E JUMPI JUMPDEST POP POP DUP2 PUSH1 0x1 SHL SWAP2 PUSH1 0x0 NOT SWAP1 PUSH1 0x3 SHL SHR NOT AND OR SWAP1 SSTORE JUMP JUMPDEST ADD MLOAD SWAP1 POP CODESIZE DUP1 PUSH2 0x1658 JUMP JUMPDEST SWAP1 PUSH1 0x1F NOT DUP4 AND SWAP6 DUP5 PUSH1 0x0 MSTORE DUP3 PUSH1 0x0 KECCAK256 SWAP3 PUSH1 0x0 SWAP1 JUMPDEST DUP9 DUP3 LT PUSH2 0x16C5 JUMPI POP POP DUP4 PUSH1 0x1 SWAP6 SWAP7 SWAP8 LT PUSH2 0x16AC JUMPI JUMPDEST POP POP POP DUP2 SHL ADD SWAP1 SSTORE JUMP JUMPDEST ADD MLOAD PUSH1 0x0 NOT PUSH1 0xF8 DUP5 PUSH1 0x3 SHL AND SHR NOT AND SWAP1 SSTORE CODESIZE DUP1 DUP1 PUSH2 0x16A2 JUMP JUMPDEST DUP1 PUSH1 0x1 DUP6 SWAP7 DUP3 SWAP5 SWAP7 DUP7 ADD MLOAD DUP2 SSTORE ADD SWAP6 ADD SWAP4 ADD SWAP1 PUSH2 0x168D JUMP JUMPDEST DUP1 SLOAD PUSH1 0x1 PUSH1 0x40 SHL DUP2 LT ISZERO PUSH2 0x390 JUMPI PUSH2 0x16FA SWAP2 PUSH1 0x1 DUP3 ADD DUP2 SSTORE PUSH2 0x140A JUMP JUMPDEST SWAP2 SWAP1 SWAP2 PUSH2 0x37A JUMPI PUSH2 0x149A SWAP2 PUSH2 0x1616 JUMP JUMPDEST PUSH2 0x1722 SWAP1 PUSH1 0x20 PUSH1 0x40 MLOAD SWAP3 DUP3 DUP5 DUP1 SWAP5 MLOAD SWAP4 DUP5 SWAP3 ADD PUSH2 0x1513 JUMP JUMPDEST DUP2 ADD SUB SWAP1 KECCAK256 SWAP1 JUMP JUMPDEST ISZERO PUSH2 0x1731 JUMPI JUMP JUMPDEST PUSH1 0x40 MLOAD PUSH3 0x461BCD PUSH1 0xE5 SHL DUP2 MSTORE PUSH1 0x20 PUSH1 0x4 DUP3 ADD MSTORE PUSH1 0x13 PUSH1 0x24 DUP3 ADD MSTORE PUSH19 0x4173736574206E6F7420617661696C61626C65 PUSH1 0x68 SHL PUSH1 0x44 DUP3 ADD MSTORE PUSH1 0x64 SWAP1 REVERT JUMPDEST PUSH1 0x20 PUSH2 0x1785 SWAP2 DUP2 PUSH1 0x40 MLOAD SWAP4 DUP3 DUP6 DUP1 SWAP5 MLOAD SWAP4 DUP5 SWAP3 ADD PUSH2 0x1513 JUMP JUMPDEST DUP2 ADD PUSH1 0x5 DUP2 MSTORE SUB ADD SWAP1 KECCAK256 PUSH1 0xFF PUSH1 0x8 DUP3 ADD SLOAD AND ISZERO PUSH2 0x17AC JUMPI PUSH1 0x5 ADD SLOAD PUSH1 0x1 PUSH1 0x1 PUSH1 0xA0 SHL SUB AND SWAP1 JUMP JUMPDEST POP PUSH1 0x0 SWAP1 JUMP JUMPDEST SWAP1 DUP1 DUP3 EQ PUSH2 0x188A JUMPI PUSH2 0x17C4 DUP2 SLOAD PUSH2 0x1422 JUMP JUMPDEST SWAP1 PUSH1 0x1 PUSH1 0x1 PUSH1 0x40 SHL SUB DUP3 GT PUSH2 0x390 JUMPI DUP2 SWAP1 PUSH2 0x17E9 DUP3 PUSH2 0x17E3 DUP7 SLOAD PUSH2 0x1422 JUMP JUMPDEST DUP7 PUSH2 0x15D1 JUMP JUMPDEST PUSH1 0x0 SWAP1 PUSH1 0x1F DUP4 GT PUSH1 0x1 EQ PUSH2 0x181F JUMPI PUSH1 0x0 SWAP3 PUSH2 0x1814 JUMPI POP POP DUP2 PUSH1 0x1 SHL SWAP2 PUSH1 0x0 NOT SWAP1 PUSH1 0x3 SHL SHR NOT AND OR SWAP1 SSTORE JUMP JUMPDEST ADD SLOAD SWAP1 POP CODESIZE DUP1 PUSH2 0x1658 JUMP JUMPDEST DUP2 MSTORE PUSH1 0x20 DUP1 DUP3 KECCAK256 DUP6 DUP4 MSTORE DUP2 DUP4 KECCAK256 SWAP4 POP SWAP1 PUSH1 0x1F NOT DUP6 AND SWAP1 DUP4 SWAP1 JUMPDEST DUP3 DUP3 LT PUSH2 0x1871 JUMPI POP POP SWAP1 DUP5 PUSH1 0x1 SWAP6 SWAP5 SWAP4 SWAP3 LT PUSH2 0x1858 JUMPI POP POP POP DUP2 SHL ADD SWAP1 SSTORE JUMP JUMPDEST ADD SLOAD PUSH1 0x0 NOT PUSH1 0xF8 DUP5 PUSH1 0x3 SHL AND SHR NOT AND SWAP1 SSTORE CODESIZE DUP1 DUP1 PUSH2 0x16A2 JUMP JUMPDEST DUP5 SWAP6 DUP2 SWAP3 SWAP6 DUP6 ADD SLOAD DUP2 SSTORE PUSH1 0x1 DUP1 SWAP2 ADD SWAP7 ADD SWAP5 ADD SWAP1 PUSH2 0x1838 JUMP JUMPDEST POP POP JUMP INVALID LOG2 PUSH5 0x6970667358 0x22 SLT KECCAK256 LOG0 DUP10 0x25 0xBA 0x24 SWAP11 MLOAD 0xC0 0xA8 STOP PUSH28 0x4F06118A117C914A71776D9B5C4E1719F9E3A3D0164736F6C634300 ADDMOD EQ STOP CALLER "},"methodIdentifiers":{"FEE_DENOMINATOR()":"d73792a9","USDC_ADDRESS()":"bb09d9b7","acceptOwnership()":"79ba5097","allAssetIds(uint256)":"e814d66b","approvedMarketplaces(address)":"543a9eb9","deactivateAsset(string)":"51618eff","getAsset(string)":"cd5286d0","getAssetIdByIndex(uint256)":"8c5deff8","getCurrentOwner(string)":"d55a772d","getRoyaltyFee(string)":"edd91367","getTotalAssets()":"6e07302b","getUserAssets(address)":"765ff061","libraryAssets(string)":"6cb3db25","owner()":"8da5cb5b","pendingOwner()":"e30c3978","platformFeePercentage()":"cdd78cfc","registerAsset(string,string,string,uint256,uint256)":"ff6c0dde","renounceOwnership()":"715018a6","royaltyContract()":"1663ee03","setApprovedMarketplace(address,bool)":"bbf46b84","setRoyaltyContract(address)":"d9aa187c","transferAssetOwnership(string,address)":"2203f8f1","transferOwnership(address)":"f2fde38b","updateRoyaltyFee(string,uint256,uint256)":"675bfec1","usdcToken()":"11eac855","userOwnedAssets(address,uint256)":"5d483ab9"}}}}}