{"ClayLibrary.sol":{"ClayLibrary":{"abi":[{"inputs":[{"internalType":"address","name":"_royaltyContract","type":"address"}],"stateMutability":"nonpayable","type":"constructor"},{"inputs":[{"internalType":"address","name":"owner","type":"address"}],"name":"OwnableInvalidOwner","type":"error"},{"inputs":[{"internalType":"address","name":"account","type":"address"}],"name":"OwnableUnauthorizedAccount","type":"error"},{"inputs":[],"name":"ReentrancyGuardReentrantCall","type":"error"},{"anonymous":false,"inputs":[{"indexed":true,"internalType":"string","name":"projectId","type":"string"},{"indexed":true,"internalType":"address","name":"owner","type":"address"}],"name":"AssetDeleted","type":"event"},{"anonymous":false,"inputs":[{"indexed":true,"internalType":"string","name":"projectId","type":"string"},{"indexed":true,"internalType":"address","name":"creator","type":"address"},{"indexed":false,"internalType":"string","name":"name","type":"string"},{"indexed":false,"internalType":"uint256","name":"price","type":"uint256"}],"name":"AssetRegistered","type":"event"},{"anonymous":false,"inputs":[{"indexed":true,"internalType":"address","name":"previousOwner","type":"address"},{"indexed":true,"internalType":"address","name":"newOwner","type":"address"}],"name":"OwnershipTransferStarted","type":"event"},{"anonymous":false,"inputs":[{"indexed":true,"internalType":"address","name":"previousOwner","type":"address"},{"indexed":true,"internalType":"address","name":"newOwner","type":"address"}],"name":"OwnershipTransferred","type":"event"},{"anonymous":false,"inputs":[{"indexed":true,"internalType":"string","name":"projectId","type":"string"},{"indexed":true,"internalType":"address","name":"previousOwner","type":"address"},{"indexed":true,"internalType":"address","name":"newOwner","type":"address"}],"name":"OwnershipTransferred","type":"event"},{"anonymous":false,"inputs":[{"indexed":true,"internalType":"string","name":"projectId","type":"string"},{"indexed":true,"internalType":"address","name":"owner","type":"address"}],"name":"RoyaltyDisabled","type":"event"},{"anonymous":false,"inputs":[{"indexed":true,"internalType":"string","name":"projectId","type":"string"},{"indexed":false,"internalType":"uint256","name":"newRoyaltyETH","type":"uint256"},{"indexed":false,"internalType":"uint256","name":"newRoyaltyUSDC","type":"uint256"}],"name":"RoyaltyFeeUpdated","type":"event"},{"inputs":[],"name":"FEE_DENOMINATOR","outputs":[{"internalType":"uint256","name":"","type":"uint256"}],"stateMutability":"view","type":"function"},{"inputs":[],"name":"USDC_ADDRESS","outputs":[{"internalType":"address","name":"","type":"address"}],"stateMutability":"view","type":"function"},{"inputs":[],"name":"acceptOwnership","outputs":[],"stateMutability":"nonpayable","type":"function"},{"inputs":[{"internalType":"uint256","name":"","type":"uint256"}],"name":"allAssetIds","outputs":[{"internalType":"string","name":"","type":"string"}],"stateMutability":"view","type":"function"},{"inputs":[{"internalType":"address","name":"","type":"address"}],"name":"approvedMarketplaces","outputs":[{"internalType":"bool","name":"","type":"bool"}],"stateMutability":"view","type":"function"},{"inputs":[{"internalType":"string","name":"projectId","type":"string"}],"name":"deleteAsset","outputs":[],"stateMutability":"nonpayable","type":"function"},{"inputs":[{"internalType":"string","name":"projectId","type":"string"}],"name":"disableRoyalty","outputs":[],"stateMutability":"nonpayable","type":"function"},{"inputs":[{"internalType":"string","name":"projectId","type":"string"}],"name":"enableRoyalty","outputs":[],"stateMutability":"nonpayable","type":"function"},{"inputs":[{"internalType":"string","name":"projectId","type":"string"}],"name":"getAsset","outputs":[{"components":[{"internalType":"string","name":"projectId","type":"string"},{"internalType":"string","name":"name","type":"string"},{"internalType":"string","name":"description","type":"string"},{"internalType":"uint256","name":"royaltyPerImportETH","type":"uint256"},{"internalType":"uint256","name":"royaltyPerImportUSDC","type":"uint256"},{"internalType":"address","name":"currentOwner","type":"address"},{"internalType":"address","name":"originalCreator","type":"address"},{"internalType":"uint256","name":"listedAt","type":"uint256"},{"internalType":"bool","name":"exists","type":"bool"},{"internalType":"bool","name":"royaltyEnabled","type":"bool"}],"internalType":"struct ClayLibrary.LibraryAsset","name":"","type":"tuple"}],"stateMutability":"view","type":"function"},{"inputs":[{"internalType":"uint256","name":"index","type":"uint256"}],"name":"getAssetIdByIndex","outputs":[{"internalType":"string","name":"","type":"string"}],"stateMutability":"view","type":"function"},{"inputs":[{"internalType":"string","name":"projectId","type":"string"}],"name":"getCurrentOwner","outputs":[{"internalType":"address","name":"","type":"address"}],"stateMutability":"view","type":"function"},{"inputs":[{"internalType":"string","name":"projectId","type":"string"}],"name":"getRoyaltyFee","outputs":[{"internalType":"uint256","name":"royaltyETH","type":"uint256"},{"internalType":"uint256","name":"royaltyUSDC","type":"uint256"}],"stateMutability":"view","type":"function"},{"inputs":[],"name":"getTotalAssets","outputs":[{"internalType":"uint256","name":"","type":"uint256"}],"stateMutability":"view","type":"function"},{"inputs":[{"internalType":"address","name":"user","type":"address"}],"name":"getUserAssets","outputs":[{"internalType":"string[]","name":"","type":"string[]"}],"stateMutability":"view","type":"function"},{"inputs":[{"internalType":"string","name":"","type":"string"}],"name":"libraryAssets","outputs":[{"internalType":"string","name":"projectId","type":"string"},{"internalType":"string","name":"name","type":"string"},{"internalType":"string","name":"description","type":"string"},{"internalType":"uint256","name":"royaltyPerImportETH","type":"uint256"},{"internalType":"uint256","name":"royaltyPerImportUSDC","type":"uint256"},{"internalType":"address","name":"currentOwner","type":"address"},{"internalType":"address","name":"originalCreator","type":"address"},{"internalType":"uint256","name":"listedAt","type":"uint256"},{"internalType":"bool","name":"exists","type":"bool"},{"internalType":"bool","name":"royaltyEnabled","type":"bool"}],"stateMutability":"view","type":"function"},{"inputs":[],"name":"owner","outputs":[{"internalType":"address","name":"","type":"address"}],"stateMutability":"view","type":"function"},{"inputs":[],"name":"pendingOwner","outputs":[{"internalType":"address","name":"","type":"address"}],"stateMutability":"view","type":"function"},{"inputs":[],"name":"platformFeePercentage","outputs":[{"internalType":"uint256","name":"","type":"uint256"}],"stateMutability":"view","type":"function"},{"inputs":[{"internalType":"string","name":"projectId","type":"string"},{"internalType":"string","name":"name","type":"string"},{"internalType":"string","name":"description","type":"string"},{"internalType":"uint256","name":"royaltyPerImportETH","type":"uint256"},{"internalType":"uint256","name":"royaltyPerImportUSDC","type":"uint256"}],"name":"registerAsset","outputs":[],"stateMutability":"nonpayable","type":"function"},{"inputs":[],"name":"renounceOwnership","outputs":[],"stateMutability":"nonpayable","type":"function"},{"inputs":[],"name":"royaltyContract","outputs":[{"internalType":"contract IClayRoyalty","name":"","type":"address"}],"stateMutability":"view","type":"function"},{"inputs":[{"internalType":"address","name":"marketplace","type":"address"},{"internalType":"bool","name":"approved","type":"bool"}],"name":"setApprovedMarketplace","outputs":[],"stateMutability":"nonpayable","type":"function"},{"inputs":[{"internalType":"address","name":"_royaltyContract","type":"address"}],"name":"setRoyaltyContract","outputs":[],"stateMutability":"nonpayable","type":"function"},{"inputs":[{"internalType":"string","name":"projectId","type":"string"},{"internalType":"address","name":"newOwner","type":"address"}],"name":"transferAssetOwnership","outputs":[],"stateMutability":"nonpayable","type":"function"},{"inputs":[{"internalType":"address","name":"newOwner","type":"address"}],"name":"transferOwnership","outputs":[],"stateMutability":"nonpayable","type":"function"},{"inputs":[{"internalType":"string","name":"projectId","type":"string"},{"internalType":"uint256","name":"newRoyaltyETH","type":"uint256"},{"internalType":"uint256","name":"newRoyaltyUSDC","type":"uint256"}],"name":"updateRoyaltyFee","outputs":[],"stateMutability":"nonpayable","type":"function"},{"inputs":[],"name":"usdcToken","outputs":[{"internalType":"contract IERC20","name":"","type":"address"}],"stateMutability":"view","type":"function"},{"inputs":[{"internalType":"address","name":"","type":"address"},{"internalType":"uint256","name":"","type":"uint256"}],"name":"userOwnedAssets","outputs":[{"internalType":"string","name":"","type":"string"}],"stateMutability":"view","type":"function"}],"evm":{"bytecode":{"linkReferences":{},"object":"60a0346100f857601f611c3a38819003918201601f19168301916001600160401b038311848410176100fd578084926020946040528339810103126100f857516001600160a01b0390818116908190036100f85733156100df5760018060a01b031980600154166001556000543382821617600055604051933391167f8be0079c531659141344cd1fd0a4f28419497f9722a3daafe3b4186f6b6457e0600080a3600160025560fa60085573833589fcd6edb6e08f4c7c32d4f71b54bda029136080526003541617600355611b26908161011482396080518161154d0152f35b604051631e4fbdf760e01b815260006004820152602490fd5b600080fd5b634e487b7160e01b600052604160045260246000fdfe608080604052600436101561001357600080fd5b60003560e01c90816311eac8551461153a575080631663ee03146115115780631741cfc0146113cd5780632203f8f114611032578063543a9eb914610ff35780635d483ab914610fa6578063675bfec114610ea05780636cb3db2514610d8d5780636e07302b14610d6f578063715018a614610d0a578063765ff06114610c1957806379ba509714610b955780638c5deff814610b275780638da5cb5b14610afe578063bb09d9b714610acf578063bbf46b8414610a76578063cd5286d01461088c578063cdd78cfc1461086e578063d55a772d14610822578063d73792a914610805578063d9aa187c146107c2578063e24aa37c146106d7578063e30c3978146106ae578063e814d66b14610663578063ea608c9c14610507578063edd91367146104c1578063f2fde38b146104565763ff6c0dde1461015357600080fd5b346104515760a0366003190112610451576001600160401b03600435818111610451576101849036906004016115b9565b906024358181116104515761019d9036906004016115b9565b90604435908111610451576101b69036906004016115b9565b916064359181511561040c576040519382519060ff60086020978881818901966101e181838a61177b565b810160058152030190200154166103c75760405186916102008261157c565b85825282820190858252604083019081526060830188815260808401608435815260a085019133835260c086019333855260e087019542875261010088019960018b5261012089019960018b528d604051809381925180926102619261177b565b8101600581520301902097516102779089611833565b516102859060018901611833565b516102939060028801611833565b516003860155516004850155516005840180546001600160a01b039283166001600160a01b031991821617909155915160068501805491909216921691909117905551600782015591516008909201805460ff191692151560ff1692909217825551151581549060081b61ff00169061ff001916179055336000526006845281604060002090610322916118fa565b600754600160401b8110156103b1578060016103419201600755611625565b61039b57826103747f585d38ebcb0fe93ced4d64fbb112388b85b7726e7d87c5142521434d4f1223849461037993611833565b611927565b9261038f6040519260408452604084019061179e565b948201528033940390a3005b634e487b7160e01b600052600060045260246000fd5b634e487b7160e01b600052604160045260246000fd5b60405162461bcd60e51b815260048101879052601860248201527f417373657420616c7265616479207265676973746572656400000000000000006044820152606490fd5b60405162461bcd60e51b815260206004820152601a60248201527f50726f6a6563742049442063616e6e6f7420626520656d7074790000000000006044820152606490fd5b600080fd5b346104515760203660031901126104515761046f61160f565b6104776117c3565b60018060a01b0380911690816001600160601b0360a01b6001541617600155600054167f38d16b8cac22d99fc7c124b9cd0de2d3fa1faef420bfe791d8c362d765e22700600080a3005b34610451576020366003190112610451576004356001600160401b038111610451576104fb6104f660409236906004016115b9565b611985565b82519182526020820152f35b3461045157602080600319360112610451576004356001600160401b038111610451576105389036906004016115b9565b6040518281835161054c818385880161177b565b810160058152030190209060088201805461056960ff8216611947565b60ff8160081c1661061e5760058401546001600160a01b031633036105d957917f59e8620b0742a7acf1fa2c6236758d97e05221785068ee1ef79e8dde26cb755f939161010060409461ff0019161790556105cd6004600384015493015491611927565b948351928352820152a2005b60405162461bcd60e51b815260048101869052601d60248201527f4f6e6c79206f776e65722063616e20656e61626c6520726f79616c74790000006044820152606490fd5b60405162461bcd60e51b815260048101869052601760248201527f526f79616c747920616c726561647920656e61626c65640000000000000000006044820152606490fd5b3461045157602036600319011261045157600435600754811015610451576106966106906106aa92611625565b9061176a565b60405191829160208352602083019061179e565b0390f35b34610451576000366003190112610451576001546040516001600160a01b039091168152602090f35b34610451576020366003190112610451576004356001600160401b038111610451576107079036906004016115b9565b604051602081835161071c818385880161177b565b81016005815203019020600881019081549061073a60ff8316611947565b600501546001600160a01b031633036107855761ffff1916905561075e3391611927565b7fb50a82962555cb439c53739ec19c159c2039e25705651a754caa0857168116e5600080a3005b60405162461bcd60e51b81526020600482015260156024820152744f6e6c79206f776e65722063616e2064656c65746560581b6044820152606490fd5b34610451576020366003190112610451576107db61160f565b6107e36117c3565b600380546001600160a01b0319166001600160a01b0392909216919091179055005b346104515760003660031901126104515760206040516127108152f35b34610451576020366003190112610451576004356001600160401b0381116104515761085c61085760209236906004016115b9565b6119ce565b6040516001600160a01b039091168152f35b34610451576000366003190112610451576020600854604051908152f35b34610451576020366003190112610451576004356001600160401b0381116104515760206108c161091d9236906004016115b9565b60006101206040516108d28161157c565b60608152606085820152606060408201528260608201528260808201528260a08201528260c08201528260e0820152826101008201520152816040519382858094519384920161177b565b8101600581520301902060ff6008604051926109388461157c565b610941816116c4565b845261094f600182016116c4565b6020850152610960600282016116c4565b6040850152600381015460608501526004810154608085015260018060a01b0360058201541660a085015260018060a01b0360068201541660c0850152600781015460e08501520154818116151561010084015260081c161515610120820152604051809160208252610120610a186109e78351610140602087015261016086019061179e565b610a03602085015191601f19928388830301604089015261179e565b9060408501519086830301606087015261179e565b9160608101516080850152608081015160a085015260018060a01b0360a08201511660c085015260018060a01b0360c08201511660e085015260e0810151610100850152610100810151151582850152015115156101408301520390f35b3461045157604036600319011261045157610a8f61160f565b602435801515810361045157610acd91610aa76117c3565b60018060a01b0316600052600460205260406000209060ff801983541691151516179055565b005b3461045157600036600319011261045157602060405173833589fcd6edb6e08f4c7c32d4f71b54bda029138152f35b34610451576000366003190112610451576000546040516001600160a01b039091168152602090f35b3461045157602036600319011261045157600435600754811015610b5a57610696610b546106aa92611625565b506116c4565b60405162461bcd60e51b8152602060048201526013602482015272496e646578206f7574206f6620626f756e647360681b6044820152606490fd5b34610451576000366003190112610451576001546001600160a01b033381831603610c01576001600160601b0360a01b8092166001556000549133908316176000553391167f8be0079c531659141344cd1fd0a4f28419497f9722a3daafe3b4186f6b6457e0600080a3005b60405163118cdaa760e01b8152336004820152602490fd5b3461045157602080600319360112610451576001600160a01b03610c3b61160f565b166000526006815260406000208054906001600160401b0382116103b157829060405192610c6e838260051b0185611598565b8084528284018092600052836000206000915b838310610ce85750505050604051918083019381845251809452604083019360408160051b85010192916000955b828710610cbc5785850386f35b909192938280610cd8600193603f198a8203018652885161179e565b9601920196019592919092610caf565b6001868192610cf9859a999a6116c4565b815201920192019190959495610c81565b3461045157600036600319011261045157610d236117c3565b600180546001600160a01b0319908116909155600080549182168155906001600160a01b03167f8be0079c531659141344cd1fd0a4f28419497f9722a3daafe3b4186f6b6457e08280a3005b34610451576000366003190112610451576020600754604051908152f35b34610451576020366003190112610451576004356001600160401b03811161045157610dd86020610dc5610e4f9336906004016115b9565b816040519382858094519384920161177b565b81016005815203019020610deb816116c4565b9060ff610dfa600183016116c4565b610e06600284016116c4565b92600381015493600482015460018060a01b0390610e6b826005860154169260068601541693610e5d60086007880154970154976040519c8d9c8d61014090818152019061179e565b8c810360208e01529061179e565b908a820360408c015261179e565b966060890152608088015260a087015260c086015260e0850152818116151561010085015260081c1615156101208301520390f35b34610451576060366003190112610451576004356001600160401b03811161045157610ed09036906004016115b9565b602435604435916040516020818351610eec818385880161177b565b8101600581520301902091610f0760ff600885015416611947565b60058301546001600160a01b03163303610f6157610f53604092856004868560037f59e8620b0742a7acf1fa2c6236758d97e05221785068ee1ef79e8dde26cb755f9901550155611927565b9382519182526020820152a2005b60405162461bcd60e51b815260206004820152601d60248201527f4f6e6c79206f776e65722063616e2075706461746520726f79616c74790000006044820152606490fd5b3461045157604036600319011261045157610fbf61160f565b6001600160a01b0316600090815260066020526040902080546024359081101561045157610690610696916106aa93611672565b34610451576020366003190112610451576001600160a01b0361101461160f565b166000526004602052602060ff604060002054166040519015158152f35b34610451576040366003190112610451576004356001600160401b038111610451576110629036906004016115b9565b6024906001600160a01b03908235828116810361045157604051602081845161108e818385890161177b565b81016005815203019020926110a960ff600886015416611947565b806005850154169182331480156113b5575b1561137157818116156113395782600052600660205260406000209460005b865480821015611327576110ee8289611672565b50604051908160008254926111028461168a565b808452936001811690811561130557506001146112c3575b5061112792500382611598565b6020815191012087516020890120146111615750600019811461114c576001016110da565b87634e487b7160e01b60005260116004526000fd5b9060009792939495969719918281019081116112ae5761118461118c9185611672565b509184611672565b9190916112995761119c91611a14565b815480156112845701906111b08282611672565b61126f57611209969798506111c5815461168a565b9081611230575b5050555b60058383166001600160601b0360a01b82840154161791015581811660005260066020526112028560406000206118fa565b1692611927565b7f6840904f5b31827f74e1497360da245f56e530c8c3de3163a2d31f11493273c6600080a4005b600091601f80821160011461124a575050555b88806111cc565b9161126884929382845260208420940160051c8401600185016117d7565b5555611243565b88634e487b7160e01b60005260006004526000fd5b88634e487b7160e01b60005260316004526000fd5b89634e487b7160e01b60005260006004526000fd5b89634e487b7160e01b60005260116004526000fd5b9150506000526020600020906000915b8183106112ec575050816020611127928201018d61111a565b80546020848601810191909152909201916001016112d3565b90506020925061112794915060ff191682840152151560051b8201018d61111a565b505090919294506112099395506111d0565b60405162461bcd60e51b8152602060048201526011818801527024b73b30b634b2103732bb9037bbb732b960791b6044820152606490fd5b60405162461bcd60e51b815260206004820152601a818801527f4e6f7420617574686f72697a656420746f207472616e736665720000000000006044820152606490fd5b5033600052600460205260ff604060002054166110bb565b34610451576020366003190112610451576004356001600160401b038111610451576113fd9036906004016115b9565b6040516020818351611412818385880161177b565b81016005815203019020600881019081549061143060ff8316611947565b60ff8260081c16156114cc57600501546001600160a01b031633036114875761ff00191690556114603391611927565b7f90770cdbe2af4a141faa5d52bf81d7904916cf199ab0684f8d30cb4b477fae86600080a3005b60405162461bcd60e51b815260206004820152601e60248201527f4f6e6c79206f776e65722063616e2064697361626c6520726f79616c747900006044820152606490fd5b60405162461bcd60e51b815260206004820152601860248201527f526f79616c747920616c72656164792064697361626c656400000000000000006044820152606490fd5b34610451576000366003190112610451576003546040516001600160a01b039091168152602090f35b34610451576000366003190112610451577f00000000000000000000000000000000000000000000000000000000000000006001600160a01b03168152602090f35b61014081019081106001600160401b038211176103b157604052565b90601f801991011681019081106001600160401b038211176103b157604052565b81601f82011215610451578035906001600160401b0382116103b157604051926115ed601f8401601f191660200185611598565b8284526020838301011161045157816000926020809301838601378301015290565b600435906001600160a01b038216820361045157565b60075481101561165c5760076000527fa66cc928b5edb82af9bd49922954155ab7b0942694bea4ce44661d9a8736c6880190600090565b634e487b7160e01b600052603260045260246000fd5b805482101561165c5760005260206000200190600090565b90600182811c921680156116ba575b60208310146116a457565b634e487b7160e01b600052602260045260246000fd5b91607f1691611699565b90604051918260008254926116d88461168a565b9081845260019485811690816000146117475750600114611704575b505061170292500383611598565b565b9093915060005260209081600020936000915b81831061172f575050611702935082010138806116f4565b85548884018501529485019487945091830191611717565b91505061170294506020925060ff191682840152151560051b82010138806116f4565b9061039b57611778906116c4565b90565b60005b83811061178e5750506000910152565b818101518382015260200161177e565b906020916117b78151809281855285808601910161177b565b601f01601f1916010190565b6000546001600160a01b03163303610c0157565b8181106117e2575050565b600081556001016117d7565b9190601f81116117fd57505050565b611702926000526020600020906020601f840160051c83019310611829575b601f0160051c01906117d7565b909150819061181c565b91909182516001600160401b0381116103b15761185a81611854845461168a565b846117ee565b602080601f831160011461189657508192939460009261188b575b50508160011b916000199060031b1c1916179055565b015190503880611875565b90601f198316958460005282600020926000905b8882106118e2575050836001959697106118c9575b505050811b019055565b015160001960f88460031b161c191690553880806118bf565b806001859682949686015181550195019301906118aa565b8054600160401b8110156103b15761191791600182018155611672565b91909161039b5761170291611833565b61193f9060206040519282848094519384920161177b565b810103902090565b1561194e57565b60405162461bcd60e51b815260206004820152600f60248201526e105cdcd95d081b9bdd08199bdd5b99608a1b6044820152606490fd5b602061199e91816040519382858094519384920161177b565b810160058152030190209060ff600883015460081c16156119c6576004600383015492015490565b600091508190565b60206119e791816040519382858094519384920161177b565b8101600581520301902060ff60088201541615611a0e57600501546001600160a01b031690565b50600090565b90808214611aec57611a26815461168a565b906001600160401b0382116103b1578190611a4b82611a45865461168a565b866117ee565b600090601f8311600114611a8157600092611a765750508160011b916000199060031b1c1916179055565b015490503880611875565b81526020808220858352818320935090601f1985169083905b828210611ad3575050908460019594939210611aba57505050811b019055565b015460001960f88460031b161c191690553880806118bf565b8495819295850154815560018091019601940190611a9a565b505056fea26469706673582212205b40eb8c31ec503ff4b0b471d6cbc249e6a034f05a08b5374c95a4c0e0d7d78764736f6c63430008140033","opcodes":"PUSH1 0xA0 CALLVALUE PUSH2 0xF8 JUMPI PUSH1 0x1F PUSH2 0x1C3A CODESIZE DUP2 SWAP1 SUB SWAP2 DUP3 ADD PUSH1 0x1F NOT AND DUP4 ADD SWAP2 PUSH1 0x1 PUSH1 0x1 PUSH1 0x40 SHL SUB DUP4 GT DUP5 DUP5 LT OR PUSH2 0xFD JUMPI DUP1 DUP5 SWAP3 PUSH1 0x20 SWAP5 PUSH1 0x40 MSTORE DUP4 CODECOPY DUP2 ADD SUB SLT PUSH2 0xF8 JUMPI MLOAD PUSH1 0x1 PUSH1 0x1 PUSH1 0xA0 SHL SUB SWAP1 DUP2 DUP2 AND SWAP1 DUP2 SWAP1 SUB PUSH2 0xF8 JUMPI CALLER ISZERO PUSH2 0xDF JUMPI PUSH1 0x1 DUP1 PUSH1 0xA0 SHL SUB NOT DUP1 PUSH1 0x1 SLOAD AND PUSH1 0x1 SSTORE PUSH1 0x0 SLOAD CALLER DUP3 DUP3 AND OR PUSH1 0x0 SSTORE PUSH1 0x40 MLOAD SWAP4 CALLER SWAP2 AND PUSH32 0x8BE0079C531659141344CD1FD0A4F28419497F9722A3DAAFE3B4186F6B6457E0 PUSH1 0x0 DUP1 LOG3 PUSH1 0x1 PUSH1 0x2 SSTORE PUSH1 0xFA PUSH1 0x8 SSTORE PUSH20 0x833589FCD6EDB6E08F4C7C32D4F71B54BDA02913 PUSH1 0x80 MSTORE PUSH1 0x3 SLOAD AND OR PUSH1 0x3 SSTORE PUSH2 0x1B26 SWAP1 DUP2 PUSH2 0x114 DUP3 CODECOPY PUSH1 0x80 MLOAD DUP2 PUSH2 0x154D ADD MSTORE RETURN JUMPDEST PUSH1 0x40 MLOAD PUSH4 0x1E4FBDF7 PUSH1 0xE0 SHL DUP2 MSTORE PUSH1 0x0 PUSH1 0x4 DUP3 ADD MSTORE PUSH1 0x24 SWAP1 REVERT JUMPDEST PUSH1 0x0 DUP1 REVERT JUMPDEST PUSH4 0x4E487B71 PUSH1 0xE0 SHL PUSH1 0x0 MSTORE PUSH1 0x41 PUSH1 0x4 MSTORE PUSH1 0x24 PUSH1 0x0 REVERT INVALID PUSH1 0x80 DUP1 PUSH1 0x40 MSTORE PUSH1 0x4 CALLDATASIZE LT ISZERO PUSH2 0x13 JUMPI PUSH1 0x0 DUP1 REVERT JUMPDEST PUSH1 0x0 CALLDATALOAD PUSH1 0xE0 SHR SWAP1 DUP2 PUSH4 0x11EAC855 EQ PUSH2 0x153A JUMPI POP DUP1 PUSH4 0x1663EE03 EQ PUSH2 0x1511 JUMPI DUP1 PUSH4 0x1741CFC0 EQ PUSH2 0x13CD JUMPI DUP1 PUSH4 0x2203F8F1 EQ PUSH2 0x1032 JUMPI DUP1 PUSH4 0x543A9EB9 EQ PUSH2 0xFF3 JUMPI DUP1 PUSH4 0x5D483AB9 EQ PUSH2 0xFA6 JUMPI DUP1 PUSH4 0x675BFEC1 EQ PUSH2 0xEA0 JUMPI DUP1 PUSH4 0x6CB3DB25 EQ PUSH2 0xD8D JUMPI DUP1 PUSH4 0x6E07302B EQ PUSH2 0xD6F JUMPI DUP1 PUSH4 0x715018A6 EQ PUSH2 0xD0A JUMPI DUP1 PUSH4 0x765FF061 EQ PUSH2 0xC19 JUMPI DUP1 PUSH4 0x79BA5097 EQ PUSH2 0xB95 JUMPI DUP1 PUSH4 0x8C5DEFF8 EQ PUSH2 0xB27 JUMPI DUP1 PUSH4 0x8DA5CB5B EQ PUSH2 0xAFE JUMPI DUP1 PUSH4 0xBB09D9B7 EQ PUSH2 0xACF JUMPI DUP1 PUSH4 0xBBF46B84 EQ PUSH2 0xA76 JUMPI DUP1 PUSH4 0xCD5286D0 EQ PUSH2 0x88C JUMPI DUP1 PUSH4 0xCDD78CFC EQ PUSH2 0x86E JUMPI DUP1 PUSH4 0xD55A772D EQ PUSH2 0x822 JUMPI DUP1 PUSH4 0xD73792A9 EQ PUSH2 0x805 JUMPI DUP1 PUSH4 0xD9AA187C EQ PUSH2 0x7C2 JUMPI DUP1 PUSH4 0xE24AA37C EQ PUSH2 0x6D7 JUMPI DUP1 PUSH4 0xE30C3978 EQ PUSH2 0x6AE JUMPI DUP1 PUSH4 0xE814D66B EQ PUSH2 0x663 JUMPI DUP1 PUSH4 0xEA608C9C EQ PUSH2 0x507 JUMPI DUP1 PUSH4 0xEDD91367 EQ PUSH2 0x4C1 JUMPI DUP1 PUSH4 0xF2FDE38B EQ PUSH2 0x456 JUMPI PUSH4 0xFF6C0DDE EQ PUSH2 0x153 JUMPI PUSH1 0x0 DUP1 REVERT JUMPDEST CALLVALUE PUSH2 0x451 JUMPI PUSH1 0xA0 CALLDATASIZE PUSH1 0x3 NOT ADD SLT PUSH2 0x451 JUMPI PUSH1 0x1 PUSH1 0x1 PUSH1 0x40 SHL SUB PUSH1 0x4 CALLDATALOAD DUP2 DUP2 GT PUSH2 0x451 JUMPI PUSH2 0x184 SWAP1 CALLDATASIZE SWAP1 PUSH1 0x4 ADD PUSH2 0x15B9 JUMP JUMPDEST SWAP1 PUSH1 0x24 CALLDATALOAD DUP2 DUP2 GT PUSH2 0x451 JUMPI PUSH2 0x19D SWAP1 CALLDATASIZE SWAP1 PUSH1 0x4 ADD PUSH2 0x15B9 JUMP JUMPDEST SWAP1 PUSH1 0x44 CALLDATALOAD SWAP1 DUP2 GT PUSH2 0x451 JUMPI PUSH2 0x1B6 SWAP1 CALLDATASIZE SWAP1 PUSH1 0x4 ADD PUSH2 0x15B9 JUMP JUMPDEST SWAP2 PUSH1 0x64 CALLDATALOAD SWAP2 DUP2 MLOAD ISZERO PUSH2 0x40C JUMPI PUSH1 0x40 MLOAD SWAP4 DUP3 MLOAD SWAP1 PUSH1 0xFF PUSH1 0x8 PUSH1 0x20 SWAP8 DUP9 DUP2 DUP2 DUP10 ADD SWAP7 PUSH2 0x1E1 DUP2 DUP4 DUP11 PUSH2 0x177B JUMP JUMPDEST DUP2 ADD PUSH1 0x5 DUP2 MSTORE SUB ADD SWAP1 KECCAK256 ADD SLOAD AND PUSH2 0x3C7 JUMPI PUSH1 0x40 MLOAD DUP7 SWAP2 PUSH2 0x200 DUP3 PUSH2 0x157C JUMP JUMPDEST DUP6 DUP3 MSTORE DUP3 DUP3 ADD SWAP1 DUP6 DUP3 MSTORE PUSH1 0x40 DUP4 ADD SWAP1 DUP2 MSTORE PUSH1 0x60 DUP4 ADD DUP9 DUP2 MSTORE PUSH1 0x80 DUP5 ADD PUSH1 0x84 CALLDATALOAD DUP2 MSTORE PUSH1 0xA0 DUP6 ADD SWAP2 CALLER DUP4 MSTORE PUSH1 0xC0 DUP7 ADD SWAP4 CALLER DUP6 MSTORE PUSH1 0xE0 DUP8 ADD SWAP6 TIMESTAMP DUP8 MSTORE PUSH2 0x100 DUP9 ADD SWAP10 PUSH1 0x1 DUP12 MSTORE PUSH2 0x120 DUP10 ADD SWAP10 PUSH1 0x1 DUP12 MSTORE DUP14 PUSH1 0x40 MLOAD DUP1 SWAP4 DUP2 SWAP3 MLOAD DUP1 SWAP3 PUSH2 0x261 SWAP3 PUSH2 0x177B JUMP JUMPDEST DUP2 ADD PUSH1 0x5 DUP2 MSTORE SUB ADD SWAP1 KECCAK256 SWAP8 MLOAD PUSH2 0x277 SWAP1 DUP10 PUSH2 0x1833 JUMP JUMPDEST MLOAD PUSH2 0x285 SWAP1 PUSH1 0x1 DUP10 ADD PUSH2 0x1833 JUMP JUMPDEST MLOAD PUSH2 0x293 SWAP1 PUSH1 0x2 DUP9 ADD PUSH2 0x1833 JUMP JUMPDEST MLOAD PUSH1 0x3 DUP7 ADD SSTORE MLOAD PUSH1 0x4 DUP6 ADD SSTORE MLOAD PUSH1 0x5 DUP5 ADD DUP1 SLOAD PUSH1 0x1 PUSH1 0x1 PUSH1 0xA0 SHL SUB SWAP3 DUP4 AND PUSH1 0x1 PUSH1 0x1 PUSH1 0xA0 SHL SUB NOT SWAP2 DUP3 AND OR SWAP1 SWAP2 SSTORE SWAP2 MLOAD PUSH1 0x6 DUP6 ADD DUP1 SLOAD SWAP2 SWAP1 SWAP3 AND SWAP3 AND SWAP2 SWAP1 SWAP2 OR SWAP1 SSTORE MLOAD PUSH1 0x7 DUP3 ADD SSTORE SWAP2 MLOAD PUSH1 0x8 SWAP1 SWAP3 ADD DUP1 SLOAD PUSH1 0xFF NOT AND SWAP3 ISZERO ISZERO PUSH1 0xFF AND SWAP3 SWAP1 SWAP3 OR DUP3 SSTORE MLOAD ISZERO ISZERO DUP2 SLOAD SWAP1 PUSH1 0x8 SHL PUSH2 0xFF00 AND SWAP1 PUSH2 0xFF00 NOT AND OR SWAP1 SSTORE CALLER PUSH1 0x0 MSTORE PUSH1 0x6 DUP5 MSTORE DUP2 PUSH1 0x40 PUSH1 0x0 KECCAK256 SWAP1 PUSH2 0x322 SWAP2 PUSH2 0x18FA JUMP JUMPDEST PUSH1 0x7 SLOAD PUSH1 0x1 PUSH1 0x40 SHL DUP2 LT ISZERO PUSH2 0x3B1 JUMPI DUP1 PUSH1 0x1 PUSH2 0x341 SWAP3 ADD PUSH1 0x7 SSTORE PUSH2 0x1625 JUMP JUMPDEST PUSH2 0x39B JUMPI DUP3 PUSH2 0x374 PUSH32 0x585D38EBCB0FE93CED4D64FBB112388B85B7726E7D87C5142521434D4F122384 SWAP5 PUSH2 0x379 SWAP4 PUSH2 0x1833 JUMP JUMPDEST PUSH2 0x1927 JUMP JUMPDEST SWAP3 PUSH2 0x38F PUSH1 0x40 MLOAD SWAP3 PUSH1 0x40 DUP5 MSTORE PUSH1 0x40 DUP5 ADD SWAP1 PUSH2 0x179E JUMP JUMPDEST SWAP5 DUP3 ADD MSTORE DUP1 CALLER SWAP5 SUB SWAP1 LOG3 STOP JUMPDEST PUSH4 0x4E487B71 PUSH1 0xE0 SHL PUSH1 0x0 MSTORE PUSH1 0x0 PUSH1 0x4 MSTORE PUSH1 0x24 PUSH1 0x0 REVERT JUMPDEST PUSH4 0x4E487B71 PUSH1 0xE0 SHL PUSH1 0x0 MSTORE PUSH1 0x41 PUSH1 0x4 MSTORE PUSH1 0x24 PUSH1 0x0 REVERT JUMPDEST PUSH1 0x40 MLOAD PUSH3 0x461BCD PUSH1 0xE5 SHL DUP2 MSTORE PUSH1 0x4 DUP2 ADD DUP8 SWAP1 MSTORE PUSH1 0x18 PUSH1 0x24 DUP3 ADD MSTORE PUSH32 0x417373657420616C726561647920726567697374657265640000000000000000 PUSH1 0x44 DUP3 ADD MSTORE PUSH1 0x64 SWAP1 REVERT JUMPDEST PUSH1 0x40 MLOAD PUSH3 0x461BCD PUSH1 0xE5 SHL DUP2 MSTORE PUSH1 0x20 PUSH1 0x4 DUP3 ADD MSTORE PUSH1 0x1A PUSH1 0x24 DUP3 ADD MSTORE PUSH32 0x50726F6A6563742049442063616E6E6F7420626520656D707479000000000000 PUSH1 0x44 DUP3 ADD MSTORE PUSH1 0x64 SWAP1 REVERT JUMPDEST PUSH1 0x0 DUP1 REVERT JUMPDEST CALLVALUE PUSH2 0x451 JUMPI PUSH1 0x20 CALLDATASIZE PUSH1 0x3 NOT ADD SLT PUSH2 0x451 JUMPI PUSH2 0x46F PUSH2 0x160F JUMP JUMPDEST PUSH2 0x477 PUSH2 0x17C3 JUMP JUMPDEST PUSH1 0x1 DUP1 PUSH1 0xA0 SHL SUB DUP1 SWAP2 AND SWAP1 DUP2 PUSH1 0x1 PUSH1 0x1 PUSH1 0x60 SHL SUB PUSH1 0xA0 SHL PUSH1 0x1 SLOAD AND OR PUSH1 0x1 SSTORE PUSH1 0x0 SLOAD AND PUSH32 0x38D16B8CAC22D99FC7C124B9CD0DE2D3FA1FAEF420BFE791D8C362D765E22700 PUSH1 0x0 DUP1 LOG3 STOP JUMPDEST CALLVALUE PUSH2 0x451 JUMPI PUSH1 0x20 CALLDATASIZE PUSH1 0x3 NOT ADD SLT PUSH2 0x451 JUMPI PUSH1 0x4 CALLDATALOAD PUSH1 0x1 PUSH1 0x1 PUSH1 0x40 SHL SUB DUP2 GT PUSH2 0x451 JUMPI PUSH2 0x4FB PUSH2 0x4F6 PUSH1 0x40 SWAP3 CALLDATASIZE SWAP1 PUSH1 0x4 ADD PUSH2 0x15B9 JUMP JUMPDEST PUSH2 0x1985 JUMP JUMPDEST DUP3 MLOAD SWAP2 DUP3 MSTORE PUSH1 0x20 DUP3 ADD MSTORE RETURN JUMPDEST CALLVALUE PUSH2 0x451 JUMPI PUSH1 0x20 DUP1 PUSH1 0x3 NOT CALLDATASIZE ADD SLT PUSH2 0x451 JUMPI PUSH1 0x4 CALLDATALOAD PUSH1 0x1 PUSH1 0x1 PUSH1 0x40 SHL SUB DUP2 GT PUSH2 0x451 JUMPI PUSH2 0x538 SWAP1 CALLDATASIZE SWAP1 PUSH1 0x4 ADD PUSH2 0x15B9 JUMP JUMPDEST PUSH1 0x40 MLOAD DUP3 DUP2 DUP4 MLOAD PUSH2 0x54C DUP2 DUP4 DUP6 DUP9 ADD PUSH2 0x177B JUMP JUMPDEST DUP2 ADD PUSH1 0x5 DUP2 MSTORE SUB ADD SWAP1 KECCAK256 SWAP1 PUSH1 0x8 DUP3 ADD DUP1 SLOAD PUSH2 0x569 PUSH1 0xFF DUP3 AND PUSH2 0x1947 JUMP JUMPDEST PUSH1 0xFF DUP2 PUSH1 0x8 SHR AND PUSH2 0x61E JUMPI PUSH1 0x5 DUP5 ADD SLOAD PUSH1 0x1 PUSH1 0x1 PUSH1 0xA0 SHL SUB AND CALLER SUB PUSH2 0x5D9 JUMPI SWAP2 PUSH32 0x59E8620B0742A7ACF1FA2C6236758D97E05221785068EE1EF79E8DDE26CB755F SWAP4 SWAP2 PUSH2 0x100 PUSH1 0x40 SWAP5 PUSH2 0xFF00 NOT AND OR SWAP1 SSTORE PUSH2 0x5CD PUSH1 0x4 PUSH1 0x3 DUP5 ADD SLOAD SWAP4 ADD SLOAD SWAP2 PUSH2 0x1927 JUMP JUMPDEST SWAP5 DUP4 MLOAD SWAP3 DUP4 MSTORE DUP3 ADD MSTORE LOG2 STOP JUMPDEST PUSH1 0x40 MLOAD PUSH3 0x461BCD PUSH1 0xE5 SHL DUP2 MSTORE PUSH1 0x4 DUP2 ADD DUP7 SWAP1 MSTORE PUSH1 0x1D PUSH1 0x24 DUP3 ADD MSTORE PUSH32 0x4F6E6C79206F776E65722063616E20656E61626C6520726F79616C7479000000 PUSH1 0x44 DUP3 ADD MSTORE PUSH1 0x64 SWAP1 REVERT JUMPDEST PUSH1 0x40 MLOAD PUSH3 0x461BCD PUSH1 0xE5 SHL DUP2 MSTORE PUSH1 0x4 DUP2 ADD DUP7 SWAP1 MSTORE PUSH1 0x17 PUSH1 0x24 DUP3 ADD MSTORE PUSH32 0x526F79616C747920616C726561647920656E61626C6564000000000000000000 PUSH1 0x44 DUP3 ADD MSTORE PUSH1 0x64 SWAP1 REVERT JUMPDEST CALLVALUE PUSH2 0x451 JUMPI PUSH1 0x20 CALLDATASIZE PUSH1 0x3 NOT ADD SLT PUSH2 0x451 JUMPI PUSH1 0x4 CALLDATALOAD PUSH1 0x7 SLOAD DUP2 LT ISZERO PUSH2 0x451 JUMPI PUSH2 0x696 PUSH2 0x690 PUSH2 0x6AA SWAP3 PUSH2 0x1625 JUMP JUMPDEST SWAP1 PUSH2 0x176A JUMP JUMPDEST PUSH1 0x40 MLOAD SWAP2 DUP3 SWAP2 PUSH1 0x20 DUP4 MSTORE PUSH1 0x20 DUP4 ADD SWAP1 PUSH2 0x179E JUMP JUMPDEST SUB SWAP1 RETURN JUMPDEST CALLVALUE PUSH2 0x451 JUMPI PUSH1 0x0 CALLDATASIZE PUSH1 0x3 NOT ADD SLT PUSH2 0x451 JUMPI PUSH1 0x1 SLOAD PUSH1 0x40 MLOAD PUSH1 0x1 PUSH1 0x1 PUSH1 0xA0 SHL SUB SWAP1 SWAP2 AND DUP2 MSTORE PUSH1 0x20 SWAP1 RETURN JUMPDEST CALLVALUE PUSH2 0x451 JUMPI PUSH1 0x20 CALLDATASIZE PUSH1 0x3 NOT ADD SLT PUSH2 0x451 JUMPI PUSH1 0x4 CALLDATALOAD PUSH1 0x1 PUSH1 0x1 PUSH1 0x40 SHL SUB DUP2 GT PUSH2 0x451 JUMPI PUSH2 0x707 SWAP1 CALLDATASIZE SWAP1 PUSH1 0x4 ADD PUSH2 0x15B9 JUMP JUMPDEST PUSH1 0x40 MLOAD PUSH1 0x20 DUP2 DUP4 MLOAD PUSH2 0x71C DUP2 DUP4 DUP6 DUP9 ADD PUSH2 0x177B JUMP JUMPDEST DUP2 ADD PUSH1 0x5 DUP2 MSTORE SUB ADD SWAP1 KECCAK256 PUSH1 0x8 DUP2 ADD SWAP1 DUP2 SLOAD SWAP1 PUSH2 0x73A PUSH1 0xFF DUP4 AND PUSH2 0x1947 JUMP JUMPDEST PUSH1 0x5 ADD SLOAD PUSH1 0x1 PUSH1 0x1 PUSH1 0xA0 SHL SUB AND CALLER SUB PUSH2 0x785 JUMPI PUSH2 0xFFFF NOT AND SWAP1 SSTORE PUSH2 0x75E CALLER SWAP2 PUSH2 0x1927 JUMP JUMPDEST PUSH32 0xB50A82962555CB439C53739EC19C159C2039E25705651A754CAA0857168116E5 PUSH1 0x0 DUP1 LOG3 STOP JUMPDEST PUSH1 0x40 MLOAD PUSH3 0x461BCD PUSH1 0xE5 SHL DUP2 MSTORE PUSH1 0x20 PUSH1 0x4 DUP3 ADD MSTORE PUSH1 0x15 PUSH1 0x24 DUP3 ADD MSTORE PUSH21 0x4F6E6C79206F776E65722063616E2064656C657465 PUSH1 0x58 SHL PUSH1 0x44 DUP3 ADD MSTORE PUSH1 0x64 SWAP1 REVERT JUMPDEST CALLVALUE PUSH2 0x451 JUMPI PUSH1 0x20 CALLDATASIZE PUSH1 0x3 NOT ADD SLT PUSH2 0x451 JUMPI PUSH2 0x7DB PUSH2 0x160F JUMP JUMPDEST PUSH2 0x7E3 PUSH2 0x17C3 JUMP JUMPDEST PUSH1 0x3 DUP1 SLOAD PUSH1 0x1 PUSH1 0x1 PUSH1 0xA0 SHL SUB NOT AND PUSH1 0x1 PUSH1 0x1 PUSH1 0xA0 SHL SUB SWAP3 SWAP1 SWAP3 AND SWAP2 SWAP1 SWAP2 OR SWAP1 SSTORE STOP JUMPDEST CALLVALUE PUSH2 0x451 JUMPI PUSH1 0x0 CALLDATASIZE PUSH1 0x3 NOT ADD SLT PUSH2 0x451 JUMPI PUSH1 0x20 PUSH1 0x40 MLOAD PUSH2 0x2710 DUP2 MSTORE RETURN JUMPDEST CALLVALUE PUSH2 0x451 JUMPI PUSH1 0x20 CALLDATASIZE PUSH1 0x3 NOT ADD SLT PUSH2 0x451 JUMPI PUSH1 0x4 CALLDATALOAD PUSH1 0x1 PUSH1 0x1 PUSH1 0x40 SHL SUB DUP2 GT PUSH2 0x451 JUMPI PUSH2 0x85C PUSH2 0x857 PUSH1 0x20 SWAP3 CALLDATASIZE SWAP1 PUSH1 0x4 ADD PUSH2 0x15B9 JUMP JUMPDEST PUSH2 0x19CE JUMP JUMPDEST PUSH1 0x40 MLOAD PUSH1 0x1 PUSH1 0x1 PUSH1 0xA0 SHL SUB SWAP1 SWAP2 AND DUP2 MSTORE RETURN JUMPDEST CALLVALUE PUSH2 0x451 JUMPI PUSH1 0x0 CALLDATASIZE PUSH1 0x3 NOT ADD SLT PUSH2 0x451 JUMPI PUSH1 0x20 PUSH1 0x8 SLOAD PUSH1 0x40 MLOAD SWAP1 DUP2 MSTORE RETURN JUMPDEST CALLVALUE PUSH2 0x451 JUMPI PUSH1 0x20 CALLDATASIZE PUSH1 0x3 NOT ADD SLT PUSH2 0x451 JUMPI PUSH1 0x4 CALLDATALOAD PUSH1 0x1 PUSH1 0x1 PUSH1 0x40 SHL SUB DUP2 GT PUSH2 0x451 JUMPI PUSH1 0x20 PUSH2 0x8C1 PUSH2 0x91D SWAP3 CALLDATASIZE SWAP1 PUSH1 0x4 ADD PUSH2 0x15B9 JUMP JUMPDEST PUSH1 0x0 PUSH2 0x120 PUSH1 0x40 MLOAD PUSH2 0x8D2 DUP2 PUSH2 0x157C JUMP JUMPDEST PUSH1 0x60 DUP2 MSTORE PUSH1 0x60 DUP6 DUP3 ADD MSTORE PUSH1 0x60 PUSH1 0x40 DUP3 ADD MSTORE DUP3 PUSH1 0x60 DUP3 ADD MSTORE DUP3 PUSH1 0x80 DUP3 ADD MSTORE DUP3 PUSH1 0xA0 DUP3 ADD MSTORE DUP3 PUSH1 0xC0 DUP3 ADD MSTORE DUP3 PUSH1 0xE0 DUP3 ADD MSTORE DUP3 PUSH2 0x100 DUP3 ADD MSTORE ADD MSTORE DUP2 PUSH1 0x40 MLOAD SWAP4 DUP3 DUP6 DUP1 SWAP5 MLOAD SWAP4 DUP5 SWAP3 ADD PUSH2 0x177B JUMP JUMPDEST DUP2 ADD PUSH1 0x5 DUP2 MSTORE SUB ADD SWAP1 KECCAK256 PUSH1 0xFF PUSH1 0x8 PUSH1 0x40 MLOAD SWAP3 PUSH2 0x938 DUP5 PUSH2 0x157C JUMP JUMPDEST PUSH2 0x941 DUP2 PUSH2 0x16C4 JUMP JUMPDEST DUP5 MSTORE PUSH2 0x94F PUSH1 0x1 DUP3 ADD PUSH2 0x16C4 JUMP JUMPDEST PUSH1 0x20 DUP6 ADD MSTORE PUSH2 0x960 PUSH1 0x2 DUP3 ADD PUSH2 0x16C4 JUMP JUMPDEST PUSH1 0x40 DUP6 ADD MSTORE PUSH1 0x3 DUP2 ADD SLOAD PUSH1 0x60 DUP6 ADD MSTORE PUSH1 0x4 DUP2 ADD SLOAD PUSH1 0x80 DUP6 ADD MSTORE PUSH1 0x1 DUP1 PUSH1 0xA0 SHL SUB PUSH1 0x5 DUP3 ADD SLOAD AND PUSH1 0xA0 DUP6 ADD MSTORE PUSH1 0x1 DUP1 PUSH1 0xA0 SHL SUB PUSH1 0x6 DUP3 ADD SLOAD AND PUSH1 0xC0 DUP6 ADD MSTORE PUSH1 0x7 DUP2 ADD SLOAD PUSH1 0xE0 DUP6 ADD MSTORE ADD SLOAD DUP2 DUP2 AND ISZERO ISZERO PUSH2 0x100 DUP5 ADD MSTORE PUSH1 0x8 SHR AND ISZERO ISZERO PUSH2 0x120 DUP3 ADD MSTORE PUSH1 0x40 MLOAD DUP1 SWAP2 PUSH1 0x20 DUP3 MSTORE PUSH2 0x120 PUSH2 0xA18 PUSH2 0x9E7 DUP4 MLOAD PUSH2 0x140 PUSH1 0x20 DUP8 ADD MSTORE PUSH2 0x160 DUP7 ADD SWAP1 PUSH2 0x179E JUMP JUMPDEST PUSH2 0xA03 PUSH1 0x20 DUP6 ADD MLOAD SWAP2 PUSH1 0x1F NOT SWAP3 DUP4 DUP9 DUP4 SUB ADD PUSH1 0x40 DUP10 ADD MSTORE PUSH2 0x179E JUMP JUMPDEST SWAP1 PUSH1 0x40 DUP6 ADD MLOAD SWAP1 DUP7 DUP4 SUB ADD PUSH1 0x60 DUP8 ADD MSTORE PUSH2 0x179E JUMP JUMPDEST SWAP2 PUSH1 0x60 DUP2 ADD MLOAD PUSH1 0x80 DUP6 ADD MSTORE PUSH1 0x80 DUP2 ADD MLOAD PUSH1 0xA0 DUP6 ADD MSTORE PUSH1 0x1 DUP1 PUSH1 0xA0 SHL SUB PUSH1 0xA0 DUP3 ADD MLOAD AND PUSH1 0xC0 DUP6 ADD MSTORE PUSH1 0x1 DUP1 PUSH1 0xA0 SHL SUB PUSH1 0xC0 DUP3 ADD MLOAD AND PUSH1 0xE0 DUP6 ADD MSTORE PUSH1 0xE0 DUP2 ADD MLOAD PUSH2 0x100 DUP6 ADD MSTORE PUSH2 0x100 DUP2 ADD MLOAD ISZERO ISZERO DUP3 DUP6 ADD MSTORE ADD MLOAD ISZERO ISZERO PUSH2 0x140 DUP4 ADD MSTORE SUB SWAP1 RETURN JUMPDEST CALLVALUE PUSH2 0x451 JUMPI PUSH1 0x40 CALLDATASIZE PUSH1 0x3 NOT ADD SLT PUSH2 0x451 JUMPI PUSH2 0xA8F PUSH2 0x160F JUMP JUMPDEST PUSH1 0x24 CALLDATALOAD DUP1 ISZERO ISZERO DUP2 SUB PUSH2 0x451 JUMPI PUSH2 0xACD SWAP2 PUSH2 0xAA7 PUSH2 0x17C3 JUMP JUMPDEST PUSH1 0x1 DUP1 PUSH1 0xA0 SHL SUB AND PUSH1 0x0 MSTORE PUSH1 0x4 PUSH1 0x20 MSTORE PUSH1 0x40 PUSH1 0x0 KECCAK256 SWAP1 PUSH1 0xFF DUP1 NOT DUP4 SLOAD AND SWAP2 ISZERO ISZERO AND OR SWAP1 SSTORE JUMP JUMPDEST STOP JUMPDEST CALLVALUE PUSH2 0x451 JUMPI PUSH1 0x0 CALLDATASIZE PUSH1 0x3 NOT ADD SLT PUSH2 0x451 JUMPI PUSH1 0x20 PUSH1 0x40 MLOAD PUSH20 0x833589FCD6EDB6E08F4C7C32D4F71B54BDA02913 DUP2 MSTORE RETURN JUMPDEST CALLVALUE PUSH2 0x451 JUMPI PUSH1 0x0 CALLDATASIZE PUSH1 0x3 NOT ADD SLT PUSH2 0x451 JUMPI PUSH1 0x0 SLOAD PUSH1 0x40 MLOAD PUSH1 0x1 PUSH1 0x1 PUSH1 0xA0 SHL SUB SWAP1 SWAP2 AND DUP2 MSTORE PUSH1 0x20 SWAP1 RETURN JUMPDEST CALLVALUE PUSH2 0x451 JUMPI PUSH1 0x20 CALLDATASIZE PUSH1 0x3 NOT ADD SLT PUSH2 0x451 JUMPI PUSH1 0x4 CALLDATALOAD PUSH1 0x7 SLOAD DUP2 LT ISZERO PUSH2 0xB5A JUMPI PUSH2 0x696 PUSH2 0xB54 PUSH2 0x6AA SWAP3 PUSH2 0x1625 JUMP JUMPDEST POP PUSH2 0x16C4 JUMP JUMPDEST PUSH1 0x40 MLOAD PUSH3 0x461BCD PUSH1 0xE5 SHL DUP2 MSTORE PUSH1 0x20 PUSH1 0x4 DUP3 ADD MSTORE PUSH1 0x13 PUSH1 0x24 DUP3 ADD MSTORE PUSH19 0x496E646578206F7574206F6620626F756E6473 PUSH1 0x68 SHL PUSH1 0x44 DUP3 ADD MSTORE PUSH1 0x64 SWAP1 REVERT JUMPDEST CALLVALUE PUSH2 0x451 JUMPI PUSH1 0x0 CALLDATASIZE PUSH1 0x3 NOT ADD SLT PUSH2 0x451 JUMPI PUSH1 0x1 SLOAD PUSH1 0x1 PUSH1 0x1 PUSH1 0xA0 SHL SUB CALLER DUP2 DUP4 AND SUB PUSH2 0xC01 JUMPI PUSH1 0x1 PUSH1 0x1 PUSH1 0x60 SHL SUB PUSH1 0xA0 SHL DUP1 SWAP3 AND PUSH1 0x1 SSTORE PUSH1 0x0 SLOAD SWAP2 CALLER SWAP1 DUP4 AND OR PUSH1 0x0 SSTORE CALLER SWAP2 AND PUSH32 0x8BE0079C531659141344CD1FD0A4F28419497F9722A3DAAFE3B4186F6B6457E0 PUSH1 0x0 DUP1 LOG3 STOP JUMPDEST PUSH1 0x40 MLOAD PUSH4 0x118CDAA7 PUSH1 0xE0 SHL DUP2 MSTORE CALLER PUSH1 0x4 DUP3 ADD MSTORE PUSH1 0x24 SWAP1 REVERT JUMPDEST CALLVALUE PUSH2 0x451 JUMPI PUSH1 0x20 DUP1 PUSH1 0x3 NOT CALLDATASIZE ADD SLT PUSH2 0x451 JUMPI PUSH1 0x1 PUSH1 0x1 PUSH1 0xA0 SHL SUB PUSH2 0xC3B PUSH2 0x160F JUMP JUMPDEST AND PUSH1 0x0 MSTORE PUSH1 0x6 DUP2 MSTORE PUSH1 0x40 PUSH1 0x0 KECCAK256 DUP1 SLOAD SWAP1 PUSH1 0x1 PUSH1 0x1 PUSH1 0x40 SHL SUB DUP3 GT PUSH2 0x3B1 JUMPI DUP3 SWAP1 PUSH1 0x40 MLOAD SWAP3 PUSH2 0xC6E DUP4 DUP3 PUSH1 0x5 SHL ADD DUP6 PUSH2 0x1598 JUMP JUMPDEST DUP1 DUP5 MSTORE DUP3 DUP5 ADD DUP1 SWAP3 PUSH1 0x0 MSTORE DUP4 PUSH1 0x0 KECCAK256 PUSH1 0x0 SWAP2 JUMPDEST DUP4 DUP4 LT PUSH2 0xCE8 JUMPI POP POP POP POP PUSH1 0x40 MLOAD SWAP2 DUP1 DUP4 ADD SWAP4 DUP2 DUP5 MSTORE MLOAD DUP1 SWAP5 MSTORE PUSH1 0x40 DUP4 ADD SWAP4 PUSH1 0x40 DUP2 PUSH1 0x5 SHL DUP6 ADD ADD SWAP3 SWAP2 PUSH1 0x0 SWAP6 JUMPDEST DUP3 DUP8 LT PUSH2 0xCBC JUMPI DUP6 DUP6 SUB DUP7 RETURN JUMPDEST SWAP1 SWAP2 SWAP3 SWAP4 DUP3 DUP1 PUSH2 0xCD8 PUSH1 0x1 SWAP4 PUSH1 0x3F NOT DUP11 DUP3 SUB ADD DUP7 MSTORE DUP9 MLOAD PUSH2 0x179E JUMP JUMPDEST SWAP7 ADD SWAP3 ADD SWAP7 ADD SWAP6 SWAP3 SWAP2 SWAP1 SWAP3 PUSH2 0xCAF JUMP JUMPDEST PUSH1 0x1 DUP7 DUP2 SWAP3 PUSH2 0xCF9 DUP6 SWAP11 SWAP10 SWAP11 PUSH2 0x16C4 JUMP JUMPDEST DUP2 MSTORE ADD SWAP3 ADD SWAP3 ADD SWAP2 SWAP1 SWAP6 SWAP5 SWAP6 PUSH2 0xC81 JUMP JUMPDEST CALLVALUE PUSH2 0x451 JUMPI PUSH1 0x0 CALLDATASIZE PUSH1 0x3 NOT ADD SLT PUSH2 0x451 JUMPI PUSH2 0xD23 PUSH2 0x17C3 JUMP JUMPDEST PUSH1 0x1 DUP1 SLOAD PUSH1 0x1 PUSH1 0x1 PUSH1 0xA0 SHL SUB NOT SWAP1 DUP2 AND SWAP1 SWAP2 SSTORE PUSH1 0x0 DUP1 SLOAD SWAP2 DUP3 AND DUP2 SSTORE SWAP1 PUSH1 0x1 PUSH1 0x1 PUSH1 0xA0 SHL SUB AND PUSH32 0x8BE0079C531659141344CD1FD0A4F28419497F9722A3DAAFE3B4186F6B6457E0 DUP3 DUP1 LOG3 STOP JUMPDEST CALLVALUE PUSH2 0x451 JUMPI PUSH1 0x0 CALLDATASIZE PUSH1 0x3 NOT ADD SLT PUSH2 0x451 JUMPI PUSH1 0x20 PUSH1 0x7 SLOAD PUSH1 0x40 MLOAD SWAP1 DUP2 MSTORE RETURN JUMPDEST CALLVALUE PUSH2 0x451 JUMPI PUSH1 0x20 CALLDATASIZE PUSH1 0x3 NOT ADD SLT PUSH2 0x451 JUMPI PUSH1 0x4 CALLDATALOAD PUSH1 0x1 PUSH1 0x1 PUSH1 0x40 SHL SUB DUP2 GT PUSH2 0x451 JUMPI PUSH2 0xDD8 PUSH1 0x20 PUSH2 0xDC5 PUSH2 0xE4F SWAP4 CALLDATASIZE SWAP1 PUSH1 0x4 ADD PUSH2 0x15B9 JUMP JUMPDEST DUP2 PUSH1 0x40 MLOAD SWAP4 DUP3 DUP6 DUP1 SWAP5 MLOAD SWAP4 DUP5 SWAP3 ADD PUSH2 0x177B JUMP JUMPDEST DUP2 ADD PUSH1 0x5 DUP2 MSTORE SUB ADD SWAP1 KECCAK256 PUSH2 0xDEB DUP2 PUSH2 0x16C4 JUMP JUMPDEST SWAP1 PUSH1 0xFF PUSH2 0xDFA PUSH1 0x1 DUP4 ADD PUSH2 0x16C4 JUMP JUMPDEST PUSH2 0xE06 PUSH1 0x2 DUP5 ADD PUSH2 0x16C4 JUMP JUMPDEST SWAP3 PUSH1 0x3 DUP2 ADD SLOAD SWAP4 PUSH1 0x4 DUP3 ADD SLOAD PUSH1 0x1 DUP1 PUSH1 0xA0 SHL SUB SWAP1 PUSH2 0xE6B DUP3 PUSH1 0x5 DUP7 ADD SLOAD AND SWAP3 PUSH1 0x6 DUP7 ADD SLOAD AND SWAP4 PUSH2 0xE5D PUSH1 0x8 PUSH1 0x7 DUP9 ADD SLOAD SWAP8 ADD SLOAD SWAP8 PUSH1 0x40 MLOAD SWAP13 DUP14 SWAP13 DUP14 PUSH2 0x140 SWAP1 DUP2 DUP2 MSTORE ADD SWAP1 PUSH2 0x179E JUMP JUMPDEST DUP13 DUP2 SUB PUSH1 0x20 DUP15 ADD MSTORE SWAP1 PUSH2 0x179E JUMP JUMPDEST SWAP1 DUP11 DUP3 SUB PUSH1 0x40 DUP13 ADD MSTORE PUSH2 0x179E JUMP JUMPDEST SWAP7 PUSH1 0x60 DUP10 ADD MSTORE PUSH1 0x80 DUP9 ADD MSTORE PUSH1 0xA0 DUP8 ADD MSTORE PUSH1 0xC0 DUP7 ADD MSTORE PUSH1 0xE0 DUP6 ADD MSTORE DUP2 DUP2 AND ISZERO ISZERO PUSH2 0x100 DUP6 ADD MSTORE PUSH1 0x8 SHR AND ISZERO ISZERO PUSH2 0x120 DUP4 ADD MSTORE SUB SWAP1 RETURN JUMPDEST CALLVALUE PUSH2 0x451 JUMPI PUSH1 0x60 CALLDATASIZE PUSH1 0x3 NOT ADD SLT PUSH2 0x451 JUMPI PUSH1 0x4 CALLDATALOAD PUSH1 0x1 PUSH1 0x1 PUSH1 0x40 SHL SUB DUP2 GT PUSH2 0x451 JUMPI PUSH2 0xED0 SWAP1 CALLDATASIZE SWAP1 PUSH1 0x4 ADD PUSH2 0x15B9 JUMP JUMPDEST PUSH1 0x24 CALLDATALOAD PUSH1 0x44 CALLDATALOAD SWAP2 PUSH1 0x40 MLOAD PUSH1 0x20 DUP2 DUP4 MLOAD PUSH2 0xEEC DUP2 DUP4 DUP6 DUP9 ADD PUSH2 0x177B JUMP JUMPDEST DUP2 ADD PUSH1 0x5 DUP2 MSTORE SUB ADD SWAP1 KECCAK256 SWAP2 PUSH2 0xF07 PUSH1 0xFF PUSH1 0x8 DUP6 ADD SLOAD AND PUSH2 0x1947 JUMP JUMPDEST PUSH1 0x5 DUP4 ADD SLOAD PUSH1 0x1 PUSH1 0x1 PUSH1 0xA0 SHL SUB AND CALLER SUB PUSH2 0xF61 JUMPI PUSH2 0xF53 PUSH1 0x40 SWAP3 DUP6 PUSH1 0x4 DUP7 DUP6 PUSH1 0x3 PUSH32 0x59E8620B0742A7ACF1FA2C6236758D97E05221785068EE1EF79E8DDE26CB755F SWAP10 ADD SSTORE ADD SSTORE PUSH2 0x1927 JUMP JUMPDEST SWAP4 DUP3 MLOAD SWAP2 DUP3 MSTORE PUSH1 0x20 DUP3 ADD MSTORE LOG2 STOP JUMPDEST PUSH1 0x40 MLOAD PUSH3 0x461BCD PUSH1 0xE5 SHL DUP2 MSTORE PUSH1 0x20 PUSH1 0x4 DUP3 ADD MSTORE PUSH1 0x1D PUSH1 0x24 DUP3 ADD MSTORE PUSH32 0x4F6E6C79206F776E65722063616E2075706461746520726F79616C7479000000 PUSH1 0x44 DUP3 ADD MSTORE PUSH1 0x64 SWAP1 REVERT JUMPDEST CALLVALUE PUSH2 0x451 JUMPI PUSH1 0x40 CALLDATASIZE PUSH1 0x3 NOT ADD SLT PUSH2 0x451 JUMPI PUSH2 0xFBF PUSH2 0x160F JUMP JUMPDEST PUSH1 0x1 PUSH1 0x1 PUSH1 0xA0 SHL SUB AND PUSH1 0x0 SWAP1 DUP2 MSTORE PUSH1 0x6 PUSH1 0x20 MSTORE PUSH1 0x40 SWAP1 KECCAK256 DUP1 SLOAD PUSH1 0x24 CALLDATALOAD SWAP1 DUP2 LT ISZERO PUSH2 0x451 JUMPI PUSH2 0x690 PUSH2 0x696 SWAP2 PUSH2 0x6AA SWAP4 PUSH2 0x1672 JUMP JUMPDEST CALLVALUE PUSH2 0x451 JUMPI PUSH1 0x20 CALLDATASIZE PUSH1 0x3 NOT ADD SLT PUSH2 0x451 JUMPI PUSH1 0x1 PUSH1 0x1 PUSH1 0xA0 SHL SUB PUSH2 0x1014 PUSH2 0x160F JUMP JUMPDEST AND PUSH1 0x0 MSTORE PUSH1 0x4 PUSH1 0x20 MSTORE PUSH1 0x20 PUSH1 0xFF PUSH1 0x40 PUSH1 0x0 KECCAK256 SLOAD AND PUSH1 0x40 MLOAD SWAP1 ISZERO ISZERO DUP2 MSTORE RETURN JUMPDEST CALLVALUE PUSH2 0x451 JUMPI PUSH1 0x40 CALLDATASIZE PUSH1 0x3 NOT ADD SLT PUSH2 0x451 JUMPI PUSH1 0x4 CALLDATALOAD PUSH1 0x1 PUSH1 0x1 PUSH1 0x40 SHL SUB DUP2 GT PUSH2 0x451 JUMPI PUSH2 0x1062 SWAP1 CALLDATASIZE SWAP1 PUSH1 0x4 ADD PUSH2 0x15B9 JUMP JUMPDEST PUSH1 0x24 SWAP1 PUSH1 0x1 PUSH1 0x1 PUSH1 0xA0 SHL SUB SWAP1 DUP3 CALLDATALOAD DUP3 DUP2 AND DUP2 SUB PUSH2 0x451 JUMPI PUSH1 0x40 MLOAD PUSH1 0x20 DUP2 DUP5 MLOAD PUSH2 0x108E DUP2 DUP4 DUP6 DUP10 ADD PUSH2 0x177B JUMP JUMPDEST DUP2 ADD PUSH1 0x5 DUP2 MSTORE SUB ADD SWAP1 KECCAK256 SWAP3 PUSH2 0x10A9 PUSH1 0xFF PUSH1 0x8 DUP7 ADD SLOAD AND PUSH2 0x1947 JUMP JUMPDEST DUP1 PUSH1 0x5 DUP6 ADD SLOAD AND SWAP2 DUP3 CALLER EQ DUP1 ISZERO PUSH2 0x13B5 JUMPI JUMPDEST ISZERO PUSH2 0x1371 JUMPI DUP2 DUP2 AND ISZERO PUSH2 0x1339 JUMPI DUP3 PUSH1 0x0 MSTORE PUSH1 0x6 PUSH1 0x20 MSTORE PUSH1 0x40 PUSH1 0x0 KECCAK256 SWAP5 PUSH1 0x0 JUMPDEST DUP7 SLOAD DUP1 DUP3 LT ISZERO PUSH2 0x1327 JUMPI PUSH2 0x10EE DUP3 DUP10 PUSH2 0x1672 JUMP JUMPDEST POP PUSH1 0x40 MLOAD SWAP1 DUP2 PUSH1 0x0 DUP3 SLOAD SWAP3 PUSH2 0x1102 DUP5 PUSH2 0x168A JUMP JUMPDEST DUP1 DUP5 MSTORE SWAP4 PUSH1 0x1 DUP2 AND SWAP1 DUP2 ISZERO PUSH2 0x1305 JUMPI POP PUSH1 0x1 EQ PUSH2 0x12C3 JUMPI JUMPDEST POP PUSH2 0x1127 SWAP3 POP SUB DUP3 PUSH2 0x1598 JUMP JUMPDEST PUSH1 0x20 DUP2 MLOAD SWAP2 ADD KECCAK256 DUP8 MLOAD PUSH1 0x20 DUP10 ADD KECCAK256 EQ PUSH2 0x1161 JUMPI POP PUSH1 0x0 NOT DUP2 EQ PUSH2 0x114C JUMPI PUSH1 0x1 ADD PUSH2 0x10DA JUMP JUMPDEST DUP8 PUSH4 0x4E487B71 PUSH1 0xE0 SHL PUSH1 0x0 MSTORE PUSH1 0x11 PUSH1 0x4 MSTORE PUSH1 0x0 REVERT JUMPDEST SWAP1 PUSH1 0x0 SWAP8 SWAP3 SWAP4 SWAP5 SWAP6 SWAP7 SWAP8 NOT SWAP2 DUP3 DUP2 ADD SWAP1 DUP2 GT PUSH2 0x12AE JUMPI PUSH2 0x1184 PUSH2 0x118C SWAP2 DUP6 PUSH2 0x1672 JUMP JUMPDEST POP SWAP2 DUP5 PUSH2 0x1672 JUMP JUMPDEST SWAP2 SWAP1 SWAP2 PUSH2 0x1299 JUMPI PUSH2 0x119C SWAP2 PUSH2 0x1A14 JUMP JUMPDEST DUP2 SLOAD DUP1 ISZERO PUSH2 0x1284 JUMPI ADD SWAP1 PUSH2 0x11B0 DUP3 DUP3 PUSH2 0x1672 JUMP JUMPDEST PUSH2 0x126F JUMPI PUSH2 0x1209 SWAP7 SWAP8 SWAP9 POP PUSH2 0x11C5 DUP2 SLOAD PUSH2 0x168A JUMP JUMPDEST SWAP1 DUP2 PUSH2 0x1230 JUMPI JUMPDEST POP POP SSTORE JUMPDEST PUSH1 0x5 DUP4 DUP4 AND PUSH1 0x1 PUSH1 0x1 PUSH1 0x60 SHL SUB PUSH1 0xA0 SHL DUP3 DUP5 ADD SLOAD AND OR SWAP2 ADD SSTORE DUP2 DUP2 AND PUSH1 0x0 MSTORE PUSH1 0x6 PUSH1 0x20 MSTORE PUSH2 0x1202 DUP6 PUSH1 0x40 PUSH1 0x0 KECCAK256 PUSH2 0x18FA JUMP JUMPDEST AND SWAP3 PUSH2 0x1927 JUMP JUMPDEST PUSH32 0x6840904F5B31827F74E1497360DA245F56E530C8C3DE3163A2D31F11493273C6 PUSH1 0x0 DUP1 LOG4 STOP JUMPDEST PUSH1 0x0 SWAP2 PUSH1 0x1F DUP1 DUP3 GT PUSH1 0x1 EQ PUSH2 0x124A JUMPI POP POP SSTORE JUMPDEST DUP9 DUP1 PUSH2 0x11CC JUMP JUMPDEST SWAP2 PUSH2 0x1268 DUP5 SWAP3 SWAP4 DUP3 DUP5 MSTORE PUSH1 0x20 DUP5 KECCAK256 SWAP5 ADD PUSH1 0x5 SHR DUP5 ADD PUSH1 0x1 DUP6 ADD PUSH2 0x17D7 JUMP JUMPDEST SSTORE SSTORE PUSH2 0x1243 JUMP JUMPDEST DUP9 PUSH4 0x4E487B71 PUSH1 0xE0 SHL PUSH1 0x0 MSTORE PUSH1 0x0 PUSH1 0x4 MSTORE PUSH1 0x0 REVERT JUMPDEST DUP9 PUSH4 0x4E487B71 PUSH1 0xE0 SHL PUSH1 0x0 MSTORE PUSH1 0x31 PUSH1 0x4 MSTORE PUSH1 0x0 REVERT JUMPDEST DUP10 PUSH4 0x4E487B71 PUSH1 0xE0 SHL PUSH1 0x0 MSTORE PUSH1 0x0 PUSH1 0x4 MSTORE PUSH1 0x0 REVERT JUMPDEST DUP10 PUSH4 0x4E487B71 PUSH1 0xE0 SHL PUSH1 0x0 MSTORE PUSH1 0x11 PUSH1 0x4 MSTORE PUSH1 0x0 REVERT JUMPDEST SWAP2 POP POP PUSH1 0x0 MSTORE PUSH1 0x20 PUSH1 0x0 KECCAK256 SWAP1 PUSH1 0x0 SWAP2 JUMPDEST DUP2 DUP4 LT PUSH2 0x12EC JUMPI POP POP DUP2 PUSH1 0x20 PUSH2 0x1127 SWAP3 DUP3 ADD ADD DUP14 PUSH2 0x111A JUMP JUMPDEST DUP1 SLOAD PUSH1 0x20 DUP5 DUP7 ADD DUP2 ADD SWAP2 SWAP1 SWAP2 MSTORE SWAP1 SWAP3 ADD SWAP2 PUSH1 0x1 ADD PUSH2 0x12D3 JUMP JUMPDEST SWAP1 POP PUSH1 0x20 SWAP3 POP PUSH2 0x1127 SWAP5 SWAP2 POP PUSH1 0xFF NOT AND DUP3 DUP5 ADD MSTORE ISZERO ISZERO PUSH1 0x5 SHL DUP3 ADD ADD DUP14 PUSH2 0x111A JUMP JUMPDEST POP POP SWAP1 SWAP2 SWAP3 SWAP5 POP PUSH2 0x1209 SWAP4 SWAP6 POP PUSH2 0x11D0 JUMP JUMPDEST PUSH1 0x40 MLOAD PUSH3 0x461BCD PUSH1 0xE5 SHL DUP2 MSTORE PUSH1 0x20 PUSH1 0x4 DUP3 ADD MSTORE PUSH1 0x11 DUP2 DUP9 ADD MSTORE PUSH17 0x24B73B30B634B2103732BB9037BBB732B9 PUSH1 0x79 SHL PUSH1 0x44 DUP3 ADD MSTORE PUSH1 0x64 SWAP1 REVERT JUMPDEST PUSH1 0x40 MLOAD PUSH3 0x461BCD PUSH1 0xE5 SHL DUP2 MSTORE PUSH1 0x20 PUSH1 0x4 DUP3 ADD MSTORE PUSH1 0x1A DUP2 DUP9 ADD MSTORE PUSH32 0x4E6F7420617574686F72697A656420746F207472616E73666572000000000000 PUSH1 0x44 DUP3 ADD MSTORE PUSH1 0x64 SWAP1 REVERT JUMPDEST POP CALLER PUSH1 0x0 MSTORE PUSH1 0x4 PUSH1 0x20 MSTORE PUSH1 0xFF PUSH1 0x40 PUSH1 0x0 KECCAK256 SLOAD AND PUSH2 0x10BB JUMP JUMPDEST CALLVALUE PUSH2 0x451 JUMPI PUSH1 0x20 CALLDATASIZE PUSH1 0x3 NOT ADD SLT PUSH2 0x451 JUMPI PUSH1 0x4 CALLDATALOAD PUSH1 0x1 PUSH1 0x1 PUSH1 0x40 SHL SUB DUP2 GT PUSH2 0x451 JUMPI PUSH2 0x13FD SWAP1 CALLDATASIZE SWAP1 PUSH1 0x4 ADD PUSH2 0x15B9 JUMP JUMPDEST PUSH1 0x40 MLOAD PUSH1 0x20 DUP2 DUP4 MLOAD PUSH2 0x1412 DUP2 DUP4 DUP6 DUP9 ADD PUSH2 0x177B JUMP JUMPDEST DUP2 ADD PUSH1 0x5 DUP2 MSTORE SUB ADD SWAP1 KECCAK256 PUSH1 0x8 DUP2 ADD SWAP1 DUP2 SLOAD SWAP1 PUSH2 0x1430 PUSH1 0xFF DUP4 AND PUSH2 0x1947 JUMP JUMPDEST PUSH1 0xFF DUP3 PUSH1 0x8 SHR AND ISZERO PUSH2 0x14CC JUMPI PUSH1 0x5 ADD SLOAD PUSH1 0x1 PUSH1 0x1 PUSH1 0xA0 SHL SUB AND CALLER SUB PUSH2 0x1487 JUMPI PUSH2 0xFF00 NOT AND SWAP1 SSTORE PUSH2 0x1460 CALLER SWAP2 PUSH2 0x1927 JUMP JUMPDEST PUSH32 0x90770CDBE2AF4A141FAA5D52BF81D7904916CF199AB0684F8D30CB4B477FAE86 PUSH1 0x0 DUP1 LOG3 STOP JUMPDEST PUSH1 0x40 MLOAD PUSH3 0x461BCD PUSH1 0xE5 SHL DUP2 MSTORE PUSH1 0x20 PUSH1 0x4 DUP3 ADD MSTORE PUSH1 0x1E PUSH1 0x24 DUP3 ADD MSTORE PUSH32 0x4F6E6C79206F776E65722063616E2064697361626C6520726F79616C74790000 PUSH1 0x44 DUP3 ADD MSTORE PUSH1 0x64 SWAP1 REVERT JUMPDEST PUSH1 0x40 MLOAD PUSH3 0x461BCD PUSH1 0xE5 SHL DUP2 MSTORE PUSH1 0x20 PUSH1 0x4 DUP3 ADD MSTORE PUSH1 0x18 PUSH1 0x24 DUP3 ADD MSTORE PUSH32 0x526F79616C747920616C72656164792064697361626C65640000000000000000 PUSH1 0x44 DUP3 ADD MSTORE PUSH1 0x64 SWAP1 REVERT JUMPDEST CALLVALUE PUSH2 0x451 JUMPI PUSH1 0x0 CALLDATASIZE PUSH1 0x3 NOT ADD SLT PUSH2 0x451 JUMPI PUSH1 0x3 SLOAD PUSH1 0x40 MLOAD PUSH1 0x1 PUSH1 0x1 PUSH1 0xA0 SHL SUB SWAP1 SWAP2 AND DUP2 MSTORE PUSH1 0x20 SWAP1 RETURN JUMPDEST CALLVALUE PUSH2 0x451 JUMPI PUSH1 0x0 CALLDATASIZE PUSH1 0x3 NOT ADD SLT PUSH2 0x451 JUMPI PUSH32 0x0 PUSH1 0x1 PUSH1 0x1 PUSH1 0xA0 SHL SUB AND DUP2 MSTORE PUSH1 0x20 SWAP1 RETURN JUMPDEST PUSH2 0x140 DUP2 ADD SWAP1 DUP2 LT PUSH1 0x1 PUSH1 0x1 PUSH1 0x40 SHL SUB DUP3 GT OR PUSH2 0x3B1 JUMPI PUSH1 0x40 MSTORE JUMP JUMPDEST SWAP1 PUSH1 0x1F DUP1 NOT SWAP2 ADD AND DUP2 ADD SWAP1 DUP2 LT PUSH1 0x1 PUSH1 0x1 PUSH1 0x40 SHL SUB DUP3 GT OR PUSH2 0x3B1 JUMPI PUSH1 0x40 MSTORE JUMP JUMPDEST DUP2 PUSH1 0x1F DUP3 ADD SLT ISZERO PUSH2 0x451 JUMPI DUP1 CALLDATALOAD SWAP1 PUSH1 0x1 PUSH1 0x1 PUSH1 0x40 SHL SUB DUP3 GT PUSH2 0x3B1 JUMPI PUSH1 0x40 MLOAD SWAP3 PUSH2 0x15ED PUSH1 0x1F DUP5 ADD PUSH1 0x1F NOT AND PUSH1 0x20 ADD DUP6 PUSH2 0x1598 JUMP JUMPDEST DUP3 DUP5 MSTORE PUSH1 0x20 DUP4 DUP4 ADD ADD GT PUSH2 0x451 JUMPI DUP2 PUSH1 0x0 SWAP3 PUSH1 0x20 DUP1 SWAP4 ADD DUP4 DUP7 ADD CALLDATACOPY DUP4 ADD ADD MSTORE SWAP1 JUMP JUMPDEST PUSH1 0x4 CALLDATALOAD SWAP1 PUSH1 0x1 PUSH1 0x1 PUSH1 0xA0 SHL SUB DUP3 AND DUP3 SUB PUSH2 0x451 JUMPI JUMP JUMPDEST PUSH1 0x7 SLOAD DUP2 LT ISZERO PUSH2 0x165C JUMPI PUSH1 0x7 PUSH1 0x0 MSTORE PUSH32 0xA66CC928B5EDB82AF9BD49922954155AB7B0942694BEA4CE44661D9A8736C688 ADD SWAP1 PUSH1 0x0 SWAP1 JUMP JUMPDEST PUSH4 0x4E487B71 PUSH1 0xE0 SHL PUSH1 0x0 MSTORE PUSH1 0x32 PUSH1 0x4 MSTORE PUSH1 0x24 PUSH1 0x0 REVERT JUMPDEST DUP1 SLOAD DUP3 LT ISZERO PUSH2 0x165C JUMPI PUSH1 0x0 MSTORE PUSH1 0x20 PUSH1 0x0 KECCAK256 ADD SWAP1 PUSH1 0x0 SWAP1 JUMP JUMPDEST SWAP1 PUSH1 0x1 DUP3 DUP2 SHR SWAP3 AND DUP1 ISZERO PUSH2 0x16BA JUMPI JUMPDEST PUSH1 0x20 DUP4 LT EQ PUSH2 0x16A4 JUMPI JUMP JUMPDEST PUSH4 0x4E487B71 PUSH1 0xE0 SHL PUSH1 0x0 MSTORE PUSH1 0x22 PUSH1 0x4 MSTORE PUSH1 0x24 PUSH1 0x0 REVERT JUMPDEST SWAP2 PUSH1 0x7F AND SWAP2 PUSH2 0x1699 JUMP JUMPDEST SWAP1 PUSH1 0x40 MLOAD SWAP2 DUP3 PUSH1 0x0 DUP3 SLOAD SWAP3 PUSH2 0x16D8 DUP5 PUSH2 0x168A JUMP JUMPDEST SWAP1 DUP2 DUP5 MSTORE PUSH1 0x1 SWAP5 DUP6 DUP2 AND SWAP1 DUP2 PUSH1 0x0 EQ PUSH2 0x1747 JUMPI POP PUSH1 0x1 EQ PUSH2 0x1704 JUMPI JUMPDEST POP POP PUSH2 0x1702 SWAP3 POP SUB DUP4 PUSH2 0x1598 JUMP JUMPDEST JUMP JUMPDEST SWAP1 SWAP4 SWAP2 POP PUSH1 0x0 MSTORE PUSH1 0x20 SWAP1 DUP2 PUSH1 0x0 KECCAK256 SWAP4 PUSH1 0x0 SWAP2 JUMPDEST DUP2 DUP4 LT PUSH2 0x172F JUMPI POP POP PUSH2 0x1702 SWAP4 POP DUP3 ADD ADD CODESIZE DUP1 PUSH2 0x16F4 JUMP JUMPDEST DUP6 SLOAD DUP9 DUP5 ADD DUP6 ADD MSTORE SWAP5 DUP6 ADD SWAP5 DUP8 SWAP5 POP SWAP2 DUP4 ADD SWAP2 PUSH2 0x1717 JUMP JUMPDEST SWAP2 POP POP PUSH2 0x1702 SWAP5 POP PUSH1 0x20 SWAP3 POP PUSH1 0xFF NOT AND DUP3 DUP5 ADD MSTORE ISZERO ISZERO PUSH1 0x5 SHL DUP3 ADD ADD CODESIZE DUP1 PUSH2 0x16F4 JUMP JUMPDEST SWAP1 PUSH2 0x39B JUMPI PUSH2 0x1778 SWAP1 PUSH2 0x16C4 JUMP JUMPDEST SWAP1 JUMP JUMPDEST PUSH1 0x0 JUMPDEST DUP4 DUP2 LT PUSH2 0x178E JUMPI POP POP PUSH1 0x0 SWAP2 ADD MSTORE JUMP JUMPDEST DUP2 DUP2 ADD MLOAD DUP4 DUP3 ADD MSTORE PUSH1 0x20 ADD PUSH2 0x177E JUMP JUMPDEST SWAP1 PUSH1 0x20 SWAP2 PUSH2 0x17B7 DUP2 MLOAD DUP1 SWAP3 DUP2 DUP6 MSTORE DUP6 DUP1 DUP7 ADD SWAP2 ADD PUSH2 0x177B JUMP JUMPDEST PUSH1 0x1F ADD PUSH1 0x1F NOT AND ADD ADD SWAP1 JUMP JUMPDEST PUSH1 0x0 SLOAD PUSH1 0x1 PUSH1 0x1 PUSH1 0xA0 SHL SUB AND CALLER SUB PUSH2 0xC01 JUMPI JUMP JUMPDEST DUP2 DUP2 LT PUSH2 0x17E2 JUMPI POP POP JUMP JUMPDEST PUSH1 0x0 DUP2 SSTORE PUSH1 0x1 ADD PUSH2 0x17D7 JUMP JUMPDEST SWAP2 SWAP1 PUSH1 0x1F DUP2 GT PUSH2 0x17FD JUMPI POP POP POP JUMP JUMPDEST PUSH2 0x1702 SWAP3 PUSH1 0x0 MSTORE PUSH1 0x20 PUSH1 0x0 KECCAK256 SWAP1 PUSH1 0x20 PUSH1 0x1F DUP5 ADD PUSH1 0x5 SHR DUP4 ADD SWAP4 LT PUSH2 0x1829 JUMPI JUMPDEST PUSH1 0x1F ADD PUSH1 0x5 SHR ADD SWAP1 PUSH2 0x17D7 JUMP JUMPDEST SWAP1 SWAP2 POP DUP2 SWAP1 PUSH2 0x181C JUMP JUMPDEST SWAP2 SWAP1 SWAP2 DUP3 MLOAD PUSH1 0x1 PUSH1 0x1 PUSH1 0x40 SHL SUB DUP2 GT PUSH2 0x3B1 JUMPI PUSH2 0x185A DUP2 PUSH2 0x1854 DUP5 SLOAD PUSH2 0x168A JUMP JUMPDEST DUP5 PUSH2 0x17EE JUMP JUMPDEST PUSH1 0x20 DUP1 PUSH1 0x1F DUP4 GT PUSH1 0x1 EQ PUSH2 0x1896 JUMPI POP DUP2 SWAP3 SWAP4 SWAP5 PUSH1 0x0 SWAP3 PUSH2 0x188B JUMPI JUMPDEST POP POP DUP2 PUSH1 0x1 SHL SWAP2 PUSH1 0x0 NOT SWAP1 PUSH1 0x3 SHL SHR NOT AND OR SWAP1 SSTORE JUMP JUMPDEST ADD MLOAD SWAP1 POP CODESIZE DUP1 PUSH2 0x1875 JUMP JUMPDEST SWAP1 PUSH1 0x1F NOT DUP4 AND SWAP6 DUP5 PUSH1 0x0 MSTORE DUP3 PUSH1 0x0 KECCAK256 SWAP3 PUSH1 0x0 SWAP1 JUMPDEST DUP9 DUP3 LT PUSH2 0x18E2 JUMPI POP POP DUP4 PUSH1 0x1 SWAP6 SWAP7 SWAP8 LT PUSH2 0x18C9 JUMPI JUMPDEST POP POP POP DUP2 SHL ADD SWAP1 SSTORE JUMP JUMPDEST ADD MLOAD PUSH1 0x0 NOT PUSH1 0xF8 DUP5 PUSH1 0x3 SHL AND SHR NOT AND SWAP1 SSTORE CODESIZE DUP1 DUP1 PUSH2 0x18BF JUMP JUMPDEST DUP1 PUSH1 0x1 DUP6 SWAP7 DUP3 SWAP5 SWAP7 DUP7 ADD MLOAD DUP2 SSTORE ADD SWAP6 ADD SWAP4 ADD SWAP1 PUSH2 0x18AA JUMP JUMPDEST DUP1 SLOAD PUSH1 0x1 PUSH1 0x40 SHL DUP2 LT ISZERO PUSH2 0x3B1 JUMPI PUSH2 0x1917 SWAP2 PUSH1 0x1 DUP3 ADD DUP2 SSTORE PUSH2 0x1672 JUMP JUMPDEST SWAP2 SWAP1 SWAP2 PUSH2 0x39B JUMPI PUSH2 0x1702 SWAP2 PUSH2 0x1833 JUMP JUMPDEST PUSH2 0x193F SWAP1 PUSH1 0x20 PUSH1 0x40 MLOAD SWAP3 DUP3 DUP5 DUP1 SWAP5 MLOAD SWAP4 DUP5 SWAP3 ADD PUSH2 0x177B JUMP JUMPDEST DUP2 ADD SUB SWAP1 KECCAK256 SWAP1 JUMP JUMPDEST ISZERO PUSH2 0x194E JUMPI JUMP JUMPDEST PUSH1 0x40 MLOAD PUSH3 0x461BCD PUSH1 0xE5 SHL DUP2 MSTORE PUSH1 0x20 PUSH1 0x4 DUP3 ADD MSTORE PUSH1 0xF PUSH1 0x24 DUP3 ADD MSTORE PUSH15 0x105CDCD95D081B9BDD08199BDD5B99 PUSH1 0x8A SHL PUSH1 0x44 DUP3 ADD MSTORE PUSH1 0x64 SWAP1 REVERT JUMPDEST PUSH1 0x20 PUSH2 0x199E SWAP2 DUP2 PUSH1 0x40 MLOAD SWAP4 DUP3 DUP6 DUP1 SWAP5 MLOAD SWAP4 DUP5 SWAP3 ADD PUSH2 0x177B JUMP JUMPDEST DUP2 ADD PUSH1 0x5 DUP2 MSTORE SUB ADD SWAP1 KECCAK256 SWAP1 PUSH1 0xFF PUSH1 0x8 DUP4 ADD SLOAD PUSH1 0x8 SHR AND ISZERO PUSH2 0x19C6 JUMPI PUSH1 0x4 PUSH1 0x3 DUP4 ADD SLOAD SWAP3 ADD SLOAD SWAP1 JUMP JUMPDEST PUSH1 0x0 SWAP2 POP DUP2 SWAP1 JUMP JUMPDEST PUSH1 0x20 PUSH2 0x19E7 SWAP2 DUP2 PUSH1 0x40 MLOAD SWAP4 DUP3 DUP6 DUP1 SWAP5 MLOAD SWAP4 DUP5 SWAP3 ADD PUSH2 0x177B JUMP JUMPDEST DUP2 ADD PUSH1 0x5 DUP2 MSTORE SUB ADD SWAP1 KECCAK256 PUSH1 0xFF PUSH1 0x8 DUP3 ADD SLOAD AND ISZERO PUSH2 0x1A0E JUMPI PUSH1 0x5 ADD SLOAD PUSH1 0x1 PUSH1 0x1 PUSH1 0xA0 SHL SUB AND SWAP1 JUMP JUMPDEST POP PUSH1 0x0 SWAP1 JUMP JUMPDEST SWAP1 DUP1 DUP3 EQ PUSH2 0x1AEC JUMPI PUSH2 0x1A26 DUP2 SLOAD PUSH2 0x168A JUMP JUMPDEST SWAP1 PUSH1 0x1 PUSH1 0x1 PUSH1 0x40 SHL SUB DUP3 GT PUSH2 0x3B1 JUMPI DUP2 SWAP1 PUSH2 0x1A4B DUP3 PUSH2 0x1A45 DUP7 SLOAD PUSH2 0x168A JUMP JUMPDEST DUP7 PUSH2 0x17EE JUMP JUMPDEST PUSH1 0x0 SWAP1 PUSH1 0x1F DUP4 GT PUSH1 0x1 EQ PUSH2 0x1A81 JUMPI PUSH1 0x0 SWAP3 PUSH2 0x1A76 JUMPI POP POP DUP2 PUSH1 0x1 SHL SWAP2 PUSH1 0x0 NOT SWAP1 PUSH1 0x3 SHL SHR NOT AND OR SWAP1 SSTORE JUMP JUMPDEST ADD SLOAD SWAP1 POP CODESIZE DUP1 PUSH2 0x1875 JUMP JUMPDEST DUP2 MSTORE PUSH1 0x20 DUP1 DUP3 KECCAK256 DUP6 DUP4 MSTORE DUP2 DUP4 KECCAK256 SWAP4 POP SWAP1 PUSH1 0x1F NOT DUP6 AND SWAP1 DUP4 SWAP1 JUMPDEST DUP3 DUP3 LT PUSH2 0x1AD3 JUMPI POP POP SWAP1 DUP5 PUSH1 0x1 SWAP6 SWAP5 SWAP4 SWAP3 LT PUSH2 0x1ABA JUMPI POP POP POP DUP2 SHL ADD SWAP1 SSTORE JUMP JUMPDEST ADD SLOAD PUSH1 0x0 NOT PUSH1 0xF8 DUP5 PUSH1 0x3 SHL AND SHR NOT AND SWAP1 SSTORE CODESIZE DUP1 DUP1 PUSH2 0x18BF JUMP JUMPDEST DUP5 SWAP6 DUP2 SWAP3 SWAP6 DUP6 ADD SLOAD DUP2 SSTORE PUSH1 0x1 DUP1 SWAP2 ADD SWAP7 ADD SWAP5 ADD SWAP1 PUSH2 0x1A9A JUMP JUMPDEST POP POP JUMP INVALID LOG2 PUSH5 0x6970667358 0x22 SLT KECCAK256 JUMPDEST BLOCKHASH 0xEB DUP13 BALANCE 0xEC POP EXTCODEHASH DELEGATECALL 0xB0 0xB4 PUSH18 0xD6CBC249E6A034F05A08B5374C95A4C0E0D7 0xD7 DUP8 PUSH5 0x736F6C6343 STOP ADDMOD EQ STOP CALLER "},"methodIdentifiers":{"FEE_DENOMINATOR()":"d73792a9","USDC_ADDRESS()":"bb09d9b7","acceptOwnership()":"79ba5097","allAssetIds(uint256)":"e814d66b","approvedMarketplaces(address)":"543a9eb9","deleteAsset(string)":"e24aa37c","disableRoyalty(string)":"1741cfc0","enableRoyalty(string)":"ea608c9c","getAsset(string)":"cd5286d0","getAssetIdByIndex(uint256)":"8c5deff8","getCurrentOwner(string)":"d55a772d","getRoyaltyFee(string)":"edd91367","getTotalAssets()":"6e07302b","getUserAssets(address)":"765ff061","libraryAssets(string)":"6cb3db25","owner()":"8da5cb5b","pendingOwner()":"e30c3978","platformFeePercentage()":"cdd78cfc","registerAsset(string,string,string,uint256,uint256)":"ff6c0dde","renounceOwnership()":"715018a6","royaltyContract()":"1663ee03","setApprovedMarketplace(address,bool)":"bbf46b84","setRoyaltyContract(address)":"d9aa187c","transferAssetOwnership(string,address)":"2203f8f1","transferOwnership(address)":"f2fde38b","updateRoyaltyFee(string,uint256,uint256)":"675bfec1","usdcToken()":"11eac855","userOwnedAssets(address,uint256)":"5d483ab9"}}}}}