{"ClayRoyalty.sol":{"ClayRoyalty":{"abi":[{"inputs":[{"internalType":"address","name":"_libraryContract","type":"address"}],"stateMutability":"nonpayable","type":"constructor"},{"inputs":[{"internalType":"address","name":"owner","type":"address"}],"name":"OwnableInvalidOwner","type":"error"},{"inputs":[{"internalType":"address","name":"account","type":"address"}],"name":"OwnableUnauthorizedAccount","type":"error"},{"inputs":[],"name":"ReentrancyGuardReentrantCall","type":"error"},{"anonymous":false,"inputs":[{"indexed":true,"internalType":"address","name":"previousOwner","type":"address"},{"indexed":true,"internalType":"address","name":"newOwner","type":"address"}],"name":"OwnershipTransferred","type":"event"},{"anonymous":false,"inputs":[{"indexed":true,"internalType":"string","name":"projectId","type":"string"},{"indexed":false,"internalType":"uint256","name":"dependencyCount","type":"uint256"}],"name":"RoyaltiesRegistered","type":"event"},{"anonymous":false,"inputs":[{"indexed":true,"internalType":"address","name":"claimant","type":"address"},{"indexed":false,"internalType":"uint256","name":"amountETH","type":"uint256"},{"indexed":false,"internalType":"uint256","name":"amountUSDC","type":"uint256"}],"name":"RoyaltyClaimed","type":"event"},{"anonymous":false,"inputs":[{"indexed":true,"internalType":"string","name":"projectId","type":"string"},{"indexed":true,"internalType":"address","name":"recipient","type":"address"},{"indexed":false,"internalType":"uint256","name":"amountETH","type":"uint256"},{"indexed":false,"internalType":"uint256","name":"amountUSDC","type":"uint256"}],"name":"RoyaltyRecorded","type":"event"},{"inputs":[],"name":"PERCENTAGE_DENOMINATOR","outputs":[{"internalType":"uint256","name":"","type":"uint256"}],"stateMutability":"view","type":"function"},{"inputs":[],"name":"ROYALTY_PERCENTAGE","outputs":[{"internalType":"uint256","name":"","type":"uint256"}],"stateMutability":"view","type":"function"},{"inputs":[],"name":"USDC_ADDRESS","outputs":[{"internalType":"address","name":"","type":"address"}],"stateMutability":"view","type":"function"},{"inputs":[{"internalType":"string","name":"projectId","type":"string"}],"name":"calculateTotalRoyalties","outputs":[{"internalType":"uint256","name":"totalETH","type":"uint256"},{"internalType":"uint256","name":"totalUSDC","type":"uint256"}],"stateMutability":"view","type":"function"},{"inputs":[],"name":"claimRoyaltiesETH","outputs":[],"stateMutability":"nonpayable","type":"function"},{"inputs":[],"name":"claimRoyaltiesUSDC","outputs":[],"stateMutability":"nonpayable","type":"function"},{"inputs":[{"internalType":"address","name":"account","type":"address"}],"name":"getPendingRoyalties","outputs":[{"internalType":"uint256","name":"eth","type":"uint256"},{"internalType":"uint256","name":"usdc","type":"uint256"}],"stateMutability":"view","type":"function"},{"inputs":[{"internalType":"string","name":"projectId","type":"string"}],"name":"getProjectDependencies","outputs":[{"components":[{"internalType":"string","name":"dependencyProjectId","type":"string"},{"internalType":"uint256","name":"royaltyPercentage","type":"uint256"},{"internalType":"uint256","name":"fixedRoyaltyETH","type":"uint256"},{"internalType":"uint256","name":"fixedRoyaltyUSDC","type":"uint256"}],"internalType":"struct ClayRoyalty.LibraryDependency[]","name":"","type":"tuple[]"}],"stateMutability":"view","type":"function"},{"inputs":[],"name":"libraryContract","outputs":[{"internalType":"contract IClayLibrary","name":"","type":"address"}],"stateMutability":"view","type":"function"},{"inputs":[],"name":"owner","outputs":[{"internalType":"address","name":"","type":"address"}],"stateMutability":"view","type":"function"},{"inputs":[{"internalType":"address","name":"","type":"address"}],"name":"pendingRoyaltiesETH","outputs":[{"internalType":"uint256","name":"","type":"uint256"}],"stateMutability":"view","type":"function"},{"inputs":[{"internalType":"address","name":"","type":"address"}],"name":"pendingRoyaltiesUSDC","outputs":[{"internalType":"uint256","name":"","type":"uint256"}],"stateMutability":"view","type":"function"},{"inputs":[{"internalType":"string","name":"","type":"string"}],"name":"projectRoyalties","outputs":[{"internalType":"string","name":"projectId","type":"string"},{"internalType":"bool","name":"hasRoyalties","type":"bool"}],"stateMutability":"view","type":"function"},{"inputs":[{"internalType":"string","name":"projectId","type":"string"},{"internalType":"uint256","name":"price","type":"uint256"},{"internalType":"enum ClayRoyalty.PaymentToken","name":"paymentToken","type":"uint8"}],"name":"recordRoyalties","outputs":[],"stateMutability":"payable","type":"function"},{"inputs":[{"internalType":"string","name":"projectId","type":"string"},{"internalType":"string[]","name":"dependencyProjectIds","type":"string[]"}],"name":"registerProjectRoyalties","outputs":[],"stateMutability":"nonpayable","type":"function"},{"inputs":[],"name":"renounceOwnership","outputs":[],"stateMutability":"nonpayable","type":"function"},{"inputs":[{"internalType":"address","name":"_libraryContract","type":"address"}],"name":"setLibraryContract","outputs":[],"stateMutability":"nonpayable","type":"function"},{"inputs":[{"internalType":"string","name":"","type":"string"}],"name":"totalRoyaltiesPaidETH","outputs":[{"internalType":"uint256","name":"","type":"uint256"}],"stateMutability":"view","type":"function"},{"inputs":[{"internalType":"string","name":"","type":"string"}],"name":"totalRoyaltiesPaidUSDC","outputs":[{"internalType":"uint256","name":"","type":"uint256"}],"stateMutability":"view","type":"function"},{"inputs":[{"internalType":"address","name":"newOwner","type":"address"}],"name":"transferOwnership","outputs":[],"stateMutability":"nonpayable","type":"function"},{"inputs":[],"name":"usdcToken","outputs":[{"internalType":"contract IERC20","name":"","type":"address"}],"stateMutability":"view","type":"function"},{"stateMutability":"payable","type":"receive"}],"evm":{"bytecode":{"linkReferences":{},"object":"60a0346100f957601f611b8138819003918201601f19168301916001600160401b038311848410176100fe578084926020946040528339810103126100f957516001600160a01b0390818116908190036100f95733156100e05760005460018060a01b0319903382821617600055604051933391167f8be0079c531659141344cd1fd0a4f28419497f9722a3daafe3b4186f6b6457e0600080a36001805573833589fcd6edb6e08f4c7c32d4f71b54bda029136080526002541617600255611a6c90816101158239608051818181610622015281816113f101526115510152f35b604051631e4fbdf760e01b815260006004820152602490fd5b600080fd5b634e487b7160e01b600052604160045260246000fdfe608080604052600436101561001d575b50361561001b57600080fd5b005b60003560e01c908163024fa0d6146115805750806311eac8551461153b578063141b5f02146114fd5780631ed6c5991461138a57806330676af614611341578063463b08db146113245780634aa8a12d146112b157806350fd8e71146111725780635bf4b5c414611134578063715018a6146110db57806373a6fe891461107f5780638da5cb5b14611056578063902509c214610f48578063956456d914610efd578063b1ee838e146109f1578063b3cd4254146109d4578063bb09d9b7146109a5578063c578769014610215578063ce0769c5146101ec578063f2fde38b1461015c5763f8a76dfb14610111573861000f565b34610157576020366003190112610157576004356001600160401b0381116101575761014b6101466040923690600401611622565b6118ae565b82519182526020820152f35b600080fd5b34610157576020366003190112610157576004356001600160a01b03818116918290036101575761018b6117a8565b81156101d357600054826bffffffffffffffffffffffff60a01b821617600055167f8be0079c531659141344cd1fd0a4f28419497f9722a3daafe3b4186f6b6457e0600080a3005b604051631e4fbdf760e01b815260006004820152602490fd5b34610157576000366003190112610157576002546040516001600160a01b039091168152602090f35b6060366003190112610157576004356001600160401b03811161015757610240903690600401611622565b60443590600282101561015757610255611a13565b604051602081835161026a8183858801611669565b810160058152030190209160ff60028401541615610960576105cb573415610598576001918201805460025491936000939290916001600160a01b03918216855b8281106104e3575050508334106104a6576000825b610370575b50505081925060206102e4918160405193828580945193849201611669565b81016006815203019020558034116102ff575b505b60018055005b340334811161035a57600080808093335af16103196119e3565b501561032557806102f7565b60405162461bcd60e51b815260206004820152600d60248201526c1499599d5b990819985a5b1959609a1b6044820152606490fd5b634e487b7160e01b600052601160045260246000fd5b85548110156104a15761038c610386828861180d565b50611849565b906103bc60208460025416845190604051808095819463d55a772d60e01b8352866004840152602483019061176c565b03915afa908115610495576103f1938591600093610461575b50604001519182151580610456575b6103f7575b5050506117d4565b826102c0565b169081600052600360205260406000206104128282546118a1565b90557fcb9f559e28915be49dcceef3fd0e6953281bdd4efe058dff26dd513ca503799e604061044089611829565b92815190815260006020820152a38783816103e9565b5081811615156103e4565b60409193506104879060203d60201161048e575b61047f81836115e6565b810190611882565b92906103d5565b503d610475565b6040513d6000823e3d90fd5b6102c5565b60405162461bcd60e51b8152602060048201526015602482015274125b9cdd59999a58da595b9d08115512081cd95b9d605a1b6044820152606490fd5b6105186104f3610386838b61180d565b602081516040518094819263d55a772d60e01b8352846004840152602483019061176c565b0381875afa91821561049557600092610574575b506040015190858215159182610568575b5050610553575b5061054e906117d4565b6102ab565b6105619061054e92986118a1565b9690610544565b1615159050858b61053d565b60409192506105919060203d60201161048e5761047f81836115e6565b919061052c565b60405162461bcd60e51b815260206004820152600b60248201526a139bc8115512081cd95b9d60aa1b6044820152606490fd5b3461091057600182015460025460009291906001600160a01b0316835b828110610878575050508115610828576040516323b872dd60e01b81523360048201523060248201526044810183905260208160648160007f00000000000000000000000000000000000000000000000000000000000000006001600160a01b03165af1908115610495576000916107f9575b50156107b55760005b600184015481101561078857806106846103866106b6936001880161180d565b602060018060a01b0360025416825190604051808097819463d55a772d60e01b8352866004840152602483019061176c565b03915afa908115610495576106e893600092610764575b50606001519081151580610752575b6106ed575b50506117d4565b610664565b60018060a01b031690816000526004602052604060002061070f8282546118a1565b90557fcb9f559e28915be49dcceef3fd0e6953281bdd4efe058dff26dd513ca503799e604061073d87611829565b92815190600082526020820152a385806106e1565b506001600160a01b03811615156106dc565b60609192506107819060203d60201161048e5761047f81836115e6565b91906106cd565b506107a59192506020908160405193828580945193849201611669565b81016007815203019020556102f9565b606460405162461bcd60e51b815260206004820152602060248201527f55534443207472616e7366657220746f20636f6e7472616374206661696c65646044820152fd5b61081b915060203d602011610821575b61081381836115e6565b8101906119cb565b8461065b565b503d610809565b60405162461bcd60e51b815260206004820152602260248201527f4e6f205553444320726f79616c7469657320666f7220746869732070726f6a6560448201526118dd60f21b6064820152608490fd5b61088b6104f36103868360018a0161180d565b0381875afa918215610495576000926108ec575b50606001519081151590816108d9575b506108c4575b506108bf906117d4565b6105e8565b6108d2906108bf92966118a1565b94906108b5565b6001600160a01b031615159050886108af565b60609192506109099060203d60201161048e5761047f81836115e6565b919061089f565b60405162461bcd60e51b815260206004820152602260248201527f446f206e6f742073656e642045544820666f72205553444320726f79616c7469604482015261657360f01b6064820152608490fd5b60405162461bcd60e51b815260206004820152601d60248201527f4e6f20726f79616c7469657320666f7220746869732070726f6a6563740000006044820152606490fd5b3461015757600036600319011261015757602060405173833589fcd6edb6e08f4c7c32d4f71b54bda029138152f35b346101575760003660031901126101575760206040516127108152f35b34610157576040366003190112610157576004356001600160401b03811161015757610a21903690600401611622565b6024356001600160401b0381116101575736602382011215610157578060040135610a4b81611791565b91610a5960405193846115e6565b8183526024602084019260051b820101903682116101575760248101925b828410610ece57858560405160ff600284519260208181880195610a9c818389611669565b81016005815203019020015416610e89576020610ac491604051809381928751928391611669565b8101600581520301902082516001600160401b038111610d3257610ae8825461168c565b601f8111610e41575b50806020601f8211600114610dda57600091610dcf575b508160011b916000199060031b1c19161781555b60028101805460ff1916600117905560005b8251811015610d9757600254610b78906040906001600160a01b0316610b5484876117e3565b51908251808095819463edd9136760e01b835260206004840152602483019061176c565b03915afa801561049557600091600091610d5e575b50610b9883866117e3565b519160405192610ba7846115cb565b8352612710602084015260408301526060820152600183015468010000000000000000811015610d3257806001610be7920160018601556001850161180d565b919091610d485780518051906001600160401b038211610d3257610c0b845461168c565b601f8111610cee575b50602090601f8311600114610c7b579282600393606093610c6b989796600092610c70575b50508160011b9160001990861b1c19161784555b602081015160018501556040810151600285015501519101556117d4565b610b2e565b015190508b80610c39565b908460005260206000209160005b601f1985168110610cd6575083606093610c6b98979693600193600397601f19811610610cbe575b505050811b018455610c4d565b015160001983881b60f8161c191690558b8080610cb1565b91926020600181928685015181550194019201610c89565b846000526020600020601f840160051c810160208510610d2b575b601f830160051c82018110610d1f575050610c14565b60008155600101610d09565b5080610d09565b634e487b7160e01b600052604160045260246000fd5b634e487b7160e01b600052600060045260246000fd5b9150506040813d604011610d8f575b81610d7a604093836115e6565b81010312610157576020815191015186610b8d565b3d9150610d6d565b82517f92da81cc62c0efa31ecf38ecbdd2fb28add3e9af1063dde557cb388d8f9b3ef26020610dc587611829565b92604051908152a2005b905084015185610b08565b91508260005260206000206000925b601f1983168410610e29576001935082601f19811610610e10575b5050811b018155610b1c565b86015160001960f88460031b161c191690558580610e04565b86810151825560209384019360019092019101610de9565b826000526020600020601f830160051c81019160208410610e7f575b601f0160051c01905b818110610e735750610af1565b60008155600101610e66565b9091508190610e5d565b60405162461bcd60e51b815260206004820152601c60248201527f526f79616c7469657320616c72656164792072656769737465726564000000006044820152606490fd5b83356001600160401b03811161015757602091610ef2839260243691870101611622565b815201930192610a77565b34610157576020366003190112610157576004356001600160a01b0381169081900361015757610f2b6117a8565b6bffffffffffffffffffffffff60a01b6002541617600255600080f35b3461015757600036600319011261015757610f61611a13565b33600052600360205260406000205480156110115733600052600360205260006040812055600080808084335af1610f976119e3565b5015610fd657604051908152600060208201527f6fe778711f06ca052305b633ba1b304f4d71c1523776f2aa3059d8d99f5420de60403392a260018055005b60405162461bcd60e51b8152602060048201526013602482015272115512081d1c985b9cd9995c8819985a5b1959606a1b6044820152606490fd5b60405162461bcd60e51b815260206004820152601860248201527f4e6f2070656e64696e672045544820726f79616c7469657300000000000000006044820152606490fd5b34610157576000366003190112610157576000546040516001600160a01b039091168152602090f35b34610157576020366003190112610157576004356001600160401b038111610157576110c860206110b581933690600401611622565b8160405193828580945193849201611669565b8101600781520301902054604051908152f35b34610157576000366003190112610157576110f46117a8565b600080546001600160a01b0319811682556001600160a01b03167f8be0079c531659141344cd1fd0a4f28419497f9722a3daafe3b4186f6b6457e08280a3005b34610157576020366003190112610157576004356001600160a01b038116908190036101575760005260046020526020604060002054604051908152f35b3461015757602080600319360112610157576004356001600160401b038111610157576111a3903690600401611622565b90806111b86040519384815193849201611669565b8201600581528282600194859303019020018054916111d683611791565b926111e460405194856115e6565b8084528184018093600052826000206000915b83831061128c57505050506040519384938285019083865251809152604085019260408260051b87010194936000905b8382106112345787870388f35b918496819592949698508190603f198b820301855289519061125e8251608080845283019061176c565b9183810151848301526040810151604083015260608091015191015298019201920187969593919492611227565b96600485829798969961129e85611849565b81520192019201919096939594966111f7565b34610157576020366003190112610157576004356001600160401b038111610157576112e960206110b5611318933690600401611622565b8101600581520301902060ff6002611300836116c6565b9201541660405192839260408452604084019061176c565b90151560208301520390f35b346101575760003660031901126101575760206040516103e88152f35b34610157576020366003190112610157576004356001600160401b0381116101575761137760206110b581933690600401611622565b8101600681520301902054604051908152f35b34610157576000366003190112610157576113a3611a13565b3360005260206004815260406000205480156114b85733600052600482526000604081205560405163a9059cbb60e01b81523360048201528160248201528281604481600060018060a01b037f0000000000000000000000000000000000000000000000000000000000000000165af19081156104955760009161149b575b501561145f5760405191600083528201527f6fe778711f06ca052305b633ba1b304f4d71c1523776f2aa3059d8d99f5420de60403392a260018055005b60405162461bcd60e51b81526004810183905260146024820152731554d110c81d1c985b9cd9995c8819985a5b195960621b6044820152606490fd5b6114b29150833d85116108215761081381836115e6565b83611422565b60405162461bcd60e51b815260048101839052601960248201527f4e6f2070656e64696e67205553444320726f79616c74696573000000000000006044820152606490fd5b34610157576020366003190112610157576004356001600160a01b038116908190036101575760005260036020526020604060002054604051908152f35b34610157576000366003190112610157576040517f00000000000000000000000000000000000000000000000000000000000000006001600160a01b03168152602090f35b34610157576020366003190112610157576004356001600160a01b03811691908290036101575760409160005260036020528160002054600460205282600020549082526020820152f35b608081019081106001600160401b03821117610d3257604052565b90601f801991011681019081106001600160401b03821117610d3257604052565b6001600160401b038111610d3257601f01601f191660200190565b81601f820112156101575780359061163982611607565b9261164760405194856115e6565b8284526020838301011161015757816000926020809301838601378301015290565b60005b83811061167c5750506000910152565b818101518382015260200161166c565b90600182811c921680156116bc575b60208310146116a657565b634e487b7160e01b600052602260045260246000fd5b91607f169161169b565b90604051918260008254926116da8461168c565b9081845260019485811690816000146117495750600114611706575b5050611704925003836115e6565b565b9093915060005260209081600020936000915b818310611731575050611704935082010138806116f6565b85548884018501529485019487945091830191611719565b91505061170494506020925060ff191682840152151560051b82010138806116f6565b9060209161178581518092818552858086019101611669565b601f01601f1916010190565b6001600160401b038111610d325760051b60200190565b6000546001600160a01b031633036117bc57565b60405163118cdaa760e01b8152336004820152602490fd5b600019811461035a5760010190565b80518210156117f75760209160051b010190565b634e487b7160e01b600052603260045260246000fd5b80548210156117f75760005260206000209060021b0190600090565b61184190602060405192828480945193849201611669565b810103902090565b90604051611856816115cb565b606060038294611865816116c6565b845260018101546020850152600281015460408501520154910152565b9081602091031261015757516001600160a01b03811681036101575790565b9190820180921161035a57565b9060008080936040805182818094516118cd8160209788809601611669565b810160058152030190209160ff600284015416156119c1576001909201805460025490936001600160a01b0391821692865b8681106119125750505050505050509190565b61191f610386828461180d565b61194584825189518093819263d55a772d60e01b8352846004840152602483019061176c565b03818a5afa9081156119b7579086918b9161199a575b5016611971575b5061196c906117d4565b6118ff565b9861196c919b606061198a611993938a8e0151906118a1565b9b0151906118a1565b9a90611962565b6119b19150863d881161048e5761047f81836115e6565b3861195b565b88513d8c823e3d90fd5b5050509250508190565b90816020910312610157575180151581036101575790565b3d15611a0e573d906119f482611607565b91611a0260405193846115e6565b82523d6000602084013e565b606090565b600260015414611a24576002600155565b604051633ee5aeb560e01b8152600490fdfea26469706673582212203afae32459eae26576e68e8508acce76c68162d32d8f36482e3a138d59197f2664736f6c63430008140033","opcodes":"PUSH1 0xA0 CALLVALUE PUSH2 0xF9 JUMPI PUSH1 0x1F PUSH2 0x1B81 CODESIZE DUP2 SWAP1 SUB SWAP2 DUP3 ADD PUSH1 0x1F NOT AND DUP4 ADD SWAP2 PUSH1 0x1 PUSH1 0x1 PUSH1 0x40 SHL SUB DUP4 GT DUP5 DUP5 LT OR PUSH2 0xFE JUMPI DUP1 DUP5 SWAP3 PUSH1 0x20 SWAP5 PUSH1 0x40 MSTORE DUP4 CODECOPY DUP2 ADD SUB SLT PUSH2 0xF9 JUMPI MLOAD PUSH1 0x1 PUSH1 0x1 PUSH1 0xA0 SHL SUB SWAP1 DUP2 DUP2 AND SWAP1 DUP2 SWAP1 SUB PUSH2 0xF9 JUMPI CALLER ISZERO PUSH2 0xE0 JUMPI PUSH1 0x0 SLOAD PUSH1 0x1 DUP1 PUSH1 0xA0 SHL SUB NOT SWAP1 CALLER DUP3 DUP3 AND OR PUSH1 0x0 SSTORE PUSH1 0x40 MLOAD SWAP4 CALLER SWAP2 AND PUSH32 0x8BE0079C531659141344CD1FD0A4F28419497F9722A3DAAFE3B4186F6B6457E0 PUSH1 0x0 DUP1 LOG3 PUSH1 0x1 DUP1 SSTORE PUSH20 0x833589FCD6EDB6E08F4C7C32D4F71B54BDA02913 PUSH1 0x80 MSTORE PUSH1 0x2 SLOAD AND OR PUSH1 0x2 SSTORE PUSH2 0x1A6C SWAP1 DUP2 PUSH2 0x115 DUP3 CODECOPY PUSH1 0x80 MLOAD DUP2 DUP2 DUP2 PUSH2 0x622 ADD MSTORE DUP2 DUP2 PUSH2 0x13F1 ADD MSTORE PUSH2 0x1551 ADD MSTORE RETURN JUMPDEST PUSH1 0x40 MLOAD PUSH4 0x1E4FBDF7 PUSH1 0xE0 SHL DUP2 MSTORE PUSH1 0x0 PUSH1 0x4 DUP3 ADD MSTORE PUSH1 0x24 SWAP1 REVERT JUMPDEST PUSH1 0x0 DUP1 REVERT JUMPDEST PUSH4 0x4E487B71 PUSH1 0xE0 SHL PUSH1 0x0 MSTORE PUSH1 0x41 PUSH1 0x4 MSTORE PUSH1 0x24 PUSH1 0x0 REVERT INVALID PUSH1 0x80 DUP1 PUSH1 0x40 MSTORE PUSH1 0x4 CALLDATASIZE LT ISZERO PUSH2 0x1D JUMPI JUMPDEST POP CALLDATASIZE ISZERO PUSH2 0x1B JUMPI PUSH1 0x0 DUP1 REVERT JUMPDEST STOP JUMPDEST PUSH1 0x0 CALLDATALOAD PUSH1 0xE0 SHR SWAP1 DUP2 PUSH4 0x24FA0D6 EQ PUSH2 0x1580 JUMPI POP DUP1 PUSH4 0x11EAC855 EQ PUSH2 0x153B JUMPI DUP1 PUSH4 0x141B5F02 EQ PUSH2 0x14FD JUMPI DUP1 PUSH4 0x1ED6C599 EQ PUSH2 0x138A JUMPI DUP1 PUSH4 0x30676AF6 EQ PUSH2 0x1341 JUMPI DUP1 PUSH4 0x463B08DB EQ PUSH2 0x1324 JUMPI DUP1 PUSH4 0x4AA8A12D EQ PUSH2 0x12B1 JUMPI DUP1 PUSH4 0x50FD8E71 EQ PUSH2 0x1172 JUMPI DUP1 PUSH4 0x5BF4B5C4 EQ PUSH2 0x1134 JUMPI DUP1 PUSH4 0x715018A6 EQ PUSH2 0x10DB JUMPI DUP1 PUSH4 0x73A6FE89 EQ PUSH2 0x107F JUMPI DUP1 PUSH4 0x8DA5CB5B EQ PUSH2 0x1056 JUMPI DUP1 PUSH4 0x902509C2 EQ PUSH2 0xF48 JUMPI DUP1 PUSH4 0x956456D9 EQ PUSH2 0xEFD JUMPI DUP1 PUSH4 0xB1EE838E EQ PUSH2 0x9F1 JUMPI DUP1 PUSH4 0xB3CD4254 EQ PUSH2 0x9D4 JUMPI DUP1 PUSH4 0xBB09D9B7 EQ PUSH2 0x9A5 JUMPI DUP1 PUSH4 0xC5787690 EQ PUSH2 0x215 JUMPI DUP1 PUSH4 0xCE0769C5 EQ PUSH2 0x1EC JUMPI DUP1 PUSH4 0xF2FDE38B EQ PUSH2 0x15C JUMPI PUSH4 0xF8A76DFB EQ PUSH2 0x111 JUMPI CODESIZE PUSH2 0xF JUMP JUMPDEST CALLVALUE PUSH2 0x157 JUMPI PUSH1 0x20 CALLDATASIZE PUSH1 0x3 NOT ADD SLT PUSH2 0x157 JUMPI PUSH1 0x4 CALLDATALOAD PUSH1 0x1 PUSH1 0x1 PUSH1 0x40 SHL SUB DUP2 GT PUSH2 0x157 JUMPI PUSH2 0x14B PUSH2 0x146 PUSH1 0x40 SWAP3 CALLDATASIZE SWAP1 PUSH1 0x4 ADD PUSH2 0x1622 JUMP JUMPDEST PUSH2 0x18AE JUMP JUMPDEST DUP3 MLOAD SWAP2 DUP3 MSTORE PUSH1 0x20 DUP3 ADD MSTORE RETURN JUMPDEST PUSH1 0x0 DUP1 REVERT JUMPDEST CALLVALUE PUSH2 0x157 JUMPI PUSH1 0x20 CALLDATASIZE PUSH1 0x3 NOT ADD SLT PUSH2 0x157 JUMPI PUSH1 0x4 CALLDATALOAD PUSH1 0x1 PUSH1 0x1 PUSH1 0xA0 SHL SUB DUP2 DUP2 AND SWAP2 DUP3 SWAP1 SUB PUSH2 0x157 JUMPI PUSH2 0x18B PUSH2 0x17A8 JUMP JUMPDEST DUP2 ISZERO PUSH2 0x1D3 JUMPI PUSH1 0x0 SLOAD DUP3 PUSH12 0xFFFFFFFFFFFFFFFFFFFFFFFF PUSH1 0xA0 SHL DUP3 AND OR PUSH1 0x0 SSTORE AND PUSH32 0x8BE0079C531659141344CD1FD0A4F28419497F9722A3DAAFE3B4186F6B6457E0 PUSH1 0x0 DUP1 LOG3 STOP JUMPDEST PUSH1 0x40 MLOAD PUSH4 0x1E4FBDF7 PUSH1 0xE0 SHL DUP2 MSTORE PUSH1 0x0 PUSH1 0x4 DUP3 ADD MSTORE PUSH1 0x24 SWAP1 REVERT JUMPDEST CALLVALUE PUSH2 0x157 JUMPI PUSH1 0x0 CALLDATASIZE PUSH1 0x3 NOT ADD SLT PUSH2 0x157 JUMPI PUSH1 0x2 SLOAD PUSH1 0x40 MLOAD PUSH1 0x1 PUSH1 0x1 PUSH1 0xA0 SHL SUB SWAP1 SWAP2 AND DUP2 MSTORE PUSH1 0x20 SWAP1 RETURN JUMPDEST PUSH1 0x60 CALLDATASIZE PUSH1 0x3 NOT ADD SLT PUSH2 0x157 JUMPI PUSH1 0x4 CALLDATALOAD PUSH1 0x1 PUSH1 0x1 PUSH1 0x40 SHL SUB DUP2 GT PUSH2 0x157 JUMPI PUSH2 0x240 SWAP1 CALLDATASIZE SWAP1 PUSH1 0x4 ADD PUSH2 0x1622 JUMP JUMPDEST PUSH1 0x44 CALLDATALOAD SWAP1 PUSH1 0x2 DUP3 LT ISZERO PUSH2 0x157 JUMPI PUSH2 0x255 PUSH2 0x1A13 JUMP JUMPDEST PUSH1 0x40 MLOAD PUSH1 0x20 DUP2 DUP4 MLOAD PUSH2 0x26A DUP2 DUP4 DUP6 DUP9 ADD PUSH2 0x1669 JUMP JUMPDEST DUP2 ADD PUSH1 0x5 DUP2 MSTORE SUB ADD SWAP1 KECCAK256 SWAP2 PUSH1 0xFF PUSH1 0x2 DUP5 ADD SLOAD AND ISZERO PUSH2 0x960 JUMPI PUSH2 0x5CB JUMPI CALLVALUE ISZERO PUSH2 0x598 JUMPI PUSH1 0x1 SWAP2 DUP3 ADD DUP1 SLOAD PUSH1 0x2 SLOAD SWAP2 SWAP4 PUSH1 0x0 SWAP4 SWAP3 SWAP1 SWAP2 PUSH1 0x1 PUSH1 0x1 PUSH1 0xA0 SHL SUB SWAP2 DUP3 AND DUP6 JUMPDEST DUP3 DUP2 LT PUSH2 0x4E3 JUMPI POP POP POP DUP4 CALLVALUE LT PUSH2 0x4A6 JUMPI PUSH1 0x0 DUP3 JUMPDEST PUSH2 0x370 JUMPI JUMPDEST POP POP POP DUP2 SWAP3 POP PUSH1 0x20 PUSH2 0x2E4 SWAP2 DUP2 PUSH1 0x40 MLOAD SWAP4 DUP3 DUP6 DUP1 SWAP5 MLOAD SWAP4 DUP5 SWAP3 ADD PUSH2 0x1669 JUMP JUMPDEST DUP2 ADD PUSH1 0x6 DUP2 MSTORE SUB ADD SWAP1 KECCAK256 SSTORE DUP1 CALLVALUE GT PUSH2 0x2FF JUMPI JUMPDEST POP JUMPDEST PUSH1 0x1 DUP1 SSTORE STOP JUMPDEST CALLVALUE SUB CALLVALUE DUP2 GT PUSH2 0x35A JUMPI PUSH1 0x0 DUP1 DUP1 DUP1 SWAP4 CALLER GAS CALL PUSH2 0x319 PUSH2 0x19E3 JUMP JUMPDEST POP ISZERO PUSH2 0x325 JUMPI DUP1 PUSH2 0x2F7 JUMP JUMPDEST PUSH1 0x40 MLOAD PUSH3 0x461BCD PUSH1 0xE5 SHL DUP2 MSTORE PUSH1 0x20 PUSH1 0x4 DUP3 ADD MSTORE PUSH1 0xD PUSH1 0x24 DUP3 ADD MSTORE PUSH13 0x1499599D5B990819985A5B1959 PUSH1 0x9A SHL PUSH1 0x44 DUP3 ADD MSTORE PUSH1 0x64 SWAP1 REVERT JUMPDEST PUSH4 0x4E487B71 PUSH1 0xE0 SHL PUSH1 0x0 MSTORE PUSH1 0x11 PUSH1 0x4 MSTORE PUSH1 0x24 PUSH1 0x0 REVERT JUMPDEST DUP6 SLOAD DUP2 LT ISZERO PUSH2 0x4A1 JUMPI PUSH2 0x38C PUSH2 0x386 DUP3 DUP9 PUSH2 0x180D JUMP JUMPDEST POP PUSH2 0x1849 JUMP JUMPDEST SWAP1 PUSH2 0x3BC PUSH1 0x20 DUP5 PUSH1 0x2 SLOAD AND DUP5 MLOAD SWAP1 PUSH1 0x40 MLOAD DUP1 DUP1 SWAP6 DUP2 SWAP5 PUSH4 0xD55A772D PUSH1 0xE0 SHL DUP4 MSTORE DUP7 PUSH1 0x4 DUP5 ADD MSTORE PUSH1 0x24 DUP4 ADD SWAP1 PUSH2 0x176C JUMP JUMPDEST SUB SWAP2 GAS STATICCALL SWAP1 DUP2 ISZERO PUSH2 0x495 JUMPI PUSH2 0x3F1 SWAP4 DUP6 SWAP2 PUSH1 0x0 SWAP4 PUSH2 0x461 JUMPI JUMPDEST POP PUSH1 0x40 ADD MLOAD SWAP2 DUP3 ISZERO ISZERO DUP1 PUSH2 0x456 JUMPI JUMPDEST PUSH2 0x3F7 JUMPI JUMPDEST POP POP POP PUSH2 0x17D4 JUMP JUMPDEST DUP3 PUSH2 0x2C0 JUMP JUMPDEST AND SWAP1 DUP2 PUSH1 0x0 MSTORE PUSH1 0x3 PUSH1 0x20 MSTORE PUSH1 0x40 PUSH1 0x0 KECCAK256 PUSH2 0x412 DUP3 DUP3 SLOAD PUSH2 0x18A1 JUMP JUMPDEST SWAP1 SSTORE PUSH32 0xCB9F559E28915BE49DCCEEF3FD0E6953281BDD4EFE058DFF26DD513CA503799E PUSH1 0x40 PUSH2 0x440 DUP10 PUSH2 0x1829 JUMP JUMPDEST SWAP3 DUP2 MLOAD SWAP1 DUP2 MSTORE PUSH1 0x0 PUSH1 0x20 DUP3 ADD MSTORE LOG3 DUP8 DUP4 DUP2 PUSH2 0x3E9 JUMP JUMPDEST POP DUP2 DUP2 AND ISZERO ISZERO PUSH2 0x3E4 JUMP JUMPDEST PUSH1 0x40 SWAP2 SWAP4 POP PUSH2 0x487 SWAP1 PUSH1 0x20 RETURNDATASIZE PUSH1 0x20 GT PUSH2 0x48E JUMPI JUMPDEST PUSH2 0x47F DUP2 DUP4 PUSH2 0x15E6 JUMP JUMPDEST DUP2 ADD SWAP1 PUSH2 0x1882 JUMP JUMPDEST SWAP3 SWAP1 PUSH2 0x3D5 JUMP JUMPDEST POP RETURNDATASIZE PUSH2 0x475 JUMP JUMPDEST PUSH1 0x40 MLOAD RETURNDATASIZE PUSH1 0x0 DUP3 RETURNDATACOPY RETURNDATASIZE SWAP1 REVERT JUMPDEST PUSH2 0x2C5 JUMP JUMPDEST PUSH1 0x40 MLOAD PUSH3 0x461BCD PUSH1 0xE5 SHL DUP2 MSTORE PUSH1 0x20 PUSH1 0x4 DUP3 ADD MSTORE PUSH1 0x15 PUSH1 0x24 DUP3 ADD MSTORE PUSH21 0x125B9CDD59999A58DA595B9D08115512081CD95B9D PUSH1 0x5A SHL PUSH1 0x44 DUP3 ADD MSTORE PUSH1 0x64 SWAP1 REVERT JUMPDEST PUSH2 0x518 PUSH2 0x4F3 PUSH2 0x386 DUP4 DUP12 PUSH2 0x180D JUMP JUMPDEST PUSH1 0x20 DUP2 MLOAD PUSH1 0x40 MLOAD DUP1 SWAP5 DUP2 SWAP3 PUSH4 0xD55A772D PUSH1 0xE0 SHL DUP4 MSTORE DUP5 PUSH1 0x4 DUP5 ADD MSTORE PUSH1 0x24 DUP4 ADD SWAP1 PUSH2 0x176C JUMP JUMPDEST SUB DUP2 DUP8 GAS STATICCALL SWAP2 DUP3 ISZERO PUSH2 0x495 JUMPI PUSH1 0x0 SWAP3 PUSH2 0x574 JUMPI JUMPDEST POP PUSH1 0x40 ADD MLOAD SWAP1 DUP6 DUP3 ISZERO ISZERO SWAP2 DUP3 PUSH2 0x568 JUMPI JUMPDEST POP POP PUSH2 0x553 JUMPI JUMPDEST POP PUSH2 0x54E SWAP1 PUSH2 0x17D4 JUMP JUMPDEST PUSH2 0x2AB JUMP JUMPDEST PUSH2 0x561 SWAP1 PUSH2 0x54E SWAP3 SWAP9 PUSH2 0x18A1 JUMP JUMPDEST SWAP7 SWAP1 PUSH2 0x544 JUMP JUMPDEST AND ISZERO ISZERO SWAP1 POP DUP6 DUP12 PUSH2 0x53D JUMP JUMPDEST PUSH1 0x40 SWAP2 SWAP3 POP PUSH2 0x591 SWAP1 PUSH1 0x20 RETURNDATASIZE PUSH1 0x20 GT PUSH2 0x48E JUMPI PUSH2 0x47F DUP2 DUP4 PUSH2 0x15E6 JUMP JUMPDEST SWAP2 SWAP1 PUSH2 0x52C JUMP JUMPDEST PUSH1 0x40 MLOAD PUSH3 0x461BCD PUSH1 0xE5 SHL DUP2 MSTORE PUSH1 0x20 PUSH1 0x4 DUP3 ADD MSTORE PUSH1 0xB PUSH1 0x24 DUP3 ADD MSTORE PUSH11 0x139BC8115512081CD95B9D PUSH1 0xAA SHL PUSH1 0x44 DUP3 ADD MSTORE PUSH1 0x64 SWAP1 REVERT JUMPDEST CALLVALUE PUSH2 0x910 JUMPI PUSH1 0x1 DUP3 ADD SLOAD PUSH1 0x2 SLOAD PUSH1 0x0 SWAP3 SWAP2 SWAP1 PUSH1 0x1 PUSH1 0x1 PUSH1 0xA0 SHL SUB AND DUP4 JUMPDEST DUP3 DUP2 LT PUSH2 0x878 JUMPI POP POP POP DUP2 ISZERO PUSH2 0x828 JUMPI PUSH1 0x40 MLOAD PUSH4 0x23B872DD PUSH1 0xE0 SHL DUP2 MSTORE CALLER PUSH1 0x4 DUP3 ADD MSTORE ADDRESS PUSH1 0x24 DUP3 ADD MSTORE PUSH1 0x44 DUP2 ADD DUP4 SWAP1 MSTORE PUSH1 0x20 DUP2 PUSH1 0x64 DUP2 PUSH1 0x0 PUSH32 0x0 PUSH1 0x1 PUSH1 0x1 PUSH1 0xA0 SHL SUB AND GAS CALL SWAP1 DUP2 ISZERO PUSH2 0x495 JUMPI PUSH1 0x0 SWAP2 PUSH2 0x7F9 JUMPI JUMPDEST POP ISZERO PUSH2 0x7B5 JUMPI PUSH1 0x0 JUMPDEST PUSH1 0x1 DUP5 ADD SLOAD DUP2 LT ISZERO PUSH2 0x788 JUMPI DUP1 PUSH2 0x684 PUSH2 0x386 PUSH2 0x6B6 SWAP4 PUSH1 0x1 DUP9 ADD PUSH2 0x180D JUMP JUMPDEST PUSH1 0x20 PUSH1 0x1 DUP1 PUSH1 0xA0 SHL SUB PUSH1 0x2 SLOAD AND DUP3 MLOAD SWAP1 PUSH1 0x40 MLOAD DUP1 DUP1 SWAP8 DUP2 SWAP5 PUSH4 0xD55A772D PUSH1 0xE0 SHL DUP4 MSTORE DUP7 PUSH1 0x4 DUP5 ADD MSTORE PUSH1 0x24 DUP4 ADD SWAP1 PUSH2 0x176C JUMP JUMPDEST SUB SWAP2 GAS STATICCALL SWAP1 DUP2 ISZERO PUSH2 0x495 JUMPI PUSH2 0x6E8 SWAP4 PUSH1 0x0 SWAP3 PUSH2 0x764 JUMPI JUMPDEST POP PUSH1 0x60 ADD MLOAD SWAP1 DUP2 ISZERO ISZERO DUP1 PUSH2 0x752 JUMPI JUMPDEST PUSH2 0x6ED JUMPI JUMPDEST POP POP PUSH2 0x17D4 JUMP JUMPDEST PUSH2 0x664 JUMP JUMPDEST PUSH1 0x1 DUP1 PUSH1 0xA0 SHL SUB AND SWAP1 DUP2 PUSH1 0x0 MSTORE PUSH1 0x4 PUSH1 0x20 MSTORE PUSH1 0x40 PUSH1 0x0 KECCAK256 PUSH2 0x70F DUP3 DUP3 SLOAD PUSH2 0x18A1 JUMP JUMPDEST SWAP1 SSTORE PUSH32 0xCB9F559E28915BE49DCCEEF3FD0E6953281BDD4EFE058DFF26DD513CA503799E PUSH1 0x40 PUSH2 0x73D DUP8 PUSH2 0x1829 JUMP JUMPDEST SWAP3 DUP2 MLOAD SWAP1 PUSH1 0x0 DUP3 MSTORE PUSH1 0x20 DUP3 ADD MSTORE LOG3 DUP6 DUP1 PUSH2 0x6E1 JUMP JUMPDEST POP PUSH1 0x1 PUSH1 0x1 PUSH1 0xA0 SHL SUB DUP2 AND ISZERO ISZERO PUSH2 0x6DC JUMP JUMPDEST PUSH1 0x60 SWAP2 SWAP3 POP PUSH2 0x781 SWAP1 PUSH1 0x20 RETURNDATASIZE PUSH1 0x20 GT PUSH2 0x48E JUMPI PUSH2 0x47F DUP2 DUP4 PUSH2 0x15E6 JUMP JUMPDEST SWAP2 SWAP1 PUSH2 0x6CD JUMP JUMPDEST POP PUSH2 0x7A5 SWAP2 SWAP3 POP PUSH1 0x20 SWAP1 DUP2 PUSH1 0x40 MLOAD SWAP4 DUP3 DUP6 DUP1 SWAP5 MLOAD SWAP4 DUP5 SWAP3 ADD PUSH2 0x1669 JUMP JUMPDEST DUP2 ADD PUSH1 0x7 DUP2 MSTORE SUB ADD SWAP1 KECCAK256 SSTORE PUSH2 0x2F9 JUMP JUMPDEST PUSH1 0x64 PUSH1 0x40 MLOAD PUSH3 0x461BCD PUSH1 0xE5 SHL DUP2 MSTORE PUSH1 0x20 PUSH1 0x4 DUP3 ADD MSTORE PUSH1 0x20 PUSH1 0x24 DUP3 ADD MSTORE PUSH32 0x55534443207472616E7366657220746F20636F6E7472616374206661696C6564 PUSH1 0x44 DUP3 ADD MSTORE REVERT JUMPDEST PUSH2 0x81B SWAP2 POP PUSH1 0x20 RETURNDATASIZE PUSH1 0x20 GT PUSH2 0x821 JUMPI JUMPDEST PUSH2 0x813 DUP2 DUP4 PUSH2 0x15E6 JUMP JUMPDEST DUP2 ADD SWAP1 PUSH2 0x19CB JUMP JUMPDEST DUP5 PUSH2 0x65B JUMP JUMPDEST POP RETURNDATASIZE PUSH2 0x809 JUMP JUMPDEST PUSH1 0x40 MLOAD PUSH3 0x461BCD PUSH1 0xE5 SHL DUP2 MSTORE PUSH1 0x20 PUSH1 0x4 DUP3 ADD MSTORE PUSH1 0x22 PUSH1 0x24 DUP3 ADD MSTORE PUSH32 0x4E6F205553444320726F79616C7469657320666F7220746869732070726F6A65 PUSH1 0x44 DUP3 ADD MSTORE PUSH2 0x18DD PUSH1 0xF2 SHL PUSH1 0x64 DUP3 ADD MSTORE PUSH1 0x84 SWAP1 REVERT JUMPDEST PUSH2 0x88B PUSH2 0x4F3 PUSH2 0x386 DUP4 PUSH1 0x1 DUP11 ADD PUSH2 0x180D JUMP JUMPDEST SUB DUP2 DUP8 GAS STATICCALL SWAP2 DUP3 ISZERO PUSH2 0x495 JUMPI PUSH1 0x0 SWAP3 PUSH2 0x8EC JUMPI JUMPDEST POP PUSH1 0x60 ADD MLOAD SWAP1 DUP2 ISZERO ISZERO SWAP1 DUP2 PUSH2 0x8D9 JUMPI JUMPDEST POP PUSH2 0x8C4 JUMPI JUMPDEST POP PUSH2 0x8BF SWAP1 PUSH2 0x17D4 JUMP JUMPDEST PUSH2 0x5E8 JUMP JUMPDEST PUSH2 0x8D2 SWAP1 PUSH2 0x8BF SWAP3 SWAP7 PUSH2 0x18A1 JUMP JUMPDEST SWAP5 SWAP1 PUSH2 0x8B5 JUMP JUMPDEST PUSH1 0x1 PUSH1 0x1 PUSH1 0xA0 SHL SUB AND ISZERO ISZERO SWAP1 POP DUP9 PUSH2 0x8AF JUMP JUMPDEST PUSH1 0x60 SWAP2 SWAP3 POP PUSH2 0x909 SWAP1 PUSH1 0x20 RETURNDATASIZE PUSH1 0x20 GT PUSH2 0x48E JUMPI PUSH2 0x47F DUP2 DUP4 PUSH2 0x15E6 JUMP JUMPDEST SWAP2 SWAP1 PUSH2 0x89F JUMP JUMPDEST PUSH1 0x40 MLOAD PUSH3 0x461BCD PUSH1 0xE5 SHL DUP2 MSTORE PUSH1 0x20 PUSH1 0x4 DUP3 ADD MSTORE PUSH1 0x22 PUSH1 0x24 DUP3 ADD MSTORE PUSH32 0x446F206E6F742073656E642045544820666F72205553444320726F79616C7469 PUSH1 0x44 DUP3 ADD MSTORE PUSH2 0x6573 PUSH1 0xF0 SHL PUSH1 0x64 DUP3 ADD MSTORE PUSH1 0x84 SWAP1 REVERT JUMPDEST PUSH1 0x40 MLOAD PUSH3 0x461BCD PUSH1 0xE5 SHL DUP2 MSTORE PUSH1 0x20 PUSH1 0x4 DUP3 ADD MSTORE PUSH1 0x1D PUSH1 0x24 DUP3 ADD MSTORE PUSH32 0x4E6F20726F79616C7469657320666F7220746869732070726F6A656374000000 PUSH1 0x44 DUP3 ADD MSTORE PUSH1 0x64 SWAP1 REVERT JUMPDEST CALLVALUE PUSH2 0x157 JUMPI PUSH1 0x0 CALLDATASIZE PUSH1 0x3 NOT ADD SLT PUSH2 0x157 JUMPI PUSH1 0x20 PUSH1 0x40 MLOAD PUSH20 0x833589FCD6EDB6E08F4C7C32D4F71B54BDA02913 DUP2 MSTORE RETURN JUMPDEST CALLVALUE PUSH2 0x157 JUMPI PUSH1 0x0 CALLDATASIZE PUSH1 0x3 NOT ADD SLT PUSH2 0x157 JUMPI PUSH1 0x20 PUSH1 0x40 MLOAD PUSH2 0x2710 DUP2 MSTORE RETURN JUMPDEST CALLVALUE PUSH2 0x157 JUMPI PUSH1 0x40 CALLDATASIZE PUSH1 0x3 NOT ADD SLT PUSH2 0x157 JUMPI PUSH1 0x4 CALLDATALOAD PUSH1 0x1 PUSH1 0x1 PUSH1 0x40 SHL SUB DUP2 GT PUSH2 0x157 JUMPI PUSH2 0xA21 SWAP1 CALLDATASIZE SWAP1 PUSH1 0x4 ADD PUSH2 0x1622 JUMP JUMPDEST PUSH1 0x24 CALLDATALOAD PUSH1 0x1 PUSH1 0x1 PUSH1 0x40 SHL SUB DUP2 GT PUSH2 0x157 JUMPI CALLDATASIZE PUSH1 0x23 DUP3 ADD SLT ISZERO PUSH2 0x157 JUMPI DUP1 PUSH1 0x4 ADD CALLDATALOAD PUSH2 0xA4B DUP2 PUSH2 0x1791 JUMP JUMPDEST SWAP2 PUSH2 0xA59 PUSH1 0x40 MLOAD SWAP4 DUP5 PUSH2 0x15E6 JUMP JUMPDEST DUP2 DUP4 MSTORE PUSH1 0x24 PUSH1 0x20 DUP5 ADD SWAP3 PUSH1 0x5 SHL DUP3 ADD ADD SWAP1 CALLDATASIZE DUP3 GT PUSH2 0x157 JUMPI PUSH1 0x24 DUP2 ADD SWAP3 JUMPDEST DUP3 DUP5 LT PUSH2 0xECE JUMPI DUP6 DUP6 PUSH1 0x40 MLOAD PUSH1 0xFF PUSH1 0x2 DUP5 MLOAD SWAP3 PUSH1 0x20 DUP2 DUP2 DUP9 ADD SWAP6 PUSH2 0xA9C DUP2 DUP4 DUP10 PUSH2 0x1669 JUMP JUMPDEST DUP2 ADD PUSH1 0x5 DUP2 MSTORE SUB ADD SWAP1 KECCAK256 ADD SLOAD AND PUSH2 0xE89 JUMPI PUSH1 0x20 PUSH2 0xAC4 SWAP2 PUSH1 0x40 MLOAD DUP1 SWAP4 DUP2 SWAP3 DUP8 MLOAD SWAP3 DUP4 SWAP2 PUSH2 0x1669 JUMP JUMPDEST DUP2 ADD PUSH1 0x5 DUP2 MSTORE SUB ADD SWAP1 KECCAK256 DUP3 MLOAD PUSH1 0x1 PUSH1 0x1 PUSH1 0x40 SHL SUB DUP2 GT PUSH2 0xD32 JUMPI PUSH2 0xAE8 DUP3 SLOAD PUSH2 0x168C JUMP JUMPDEST PUSH1 0x1F DUP2 GT PUSH2 0xE41 JUMPI JUMPDEST POP DUP1 PUSH1 0x20 PUSH1 0x1F DUP3 GT PUSH1 0x1 EQ PUSH2 0xDDA JUMPI PUSH1 0x0 SWAP2 PUSH2 0xDCF JUMPI JUMPDEST POP DUP2 PUSH1 0x1 SHL SWAP2 PUSH1 0x0 NOT SWAP1 PUSH1 0x3 SHL SHR NOT AND OR DUP2 SSTORE JUMPDEST PUSH1 0x2 DUP2 ADD DUP1 SLOAD PUSH1 0xFF NOT AND PUSH1 0x1 OR SWAP1 SSTORE PUSH1 0x0 JUMPDEST DUP3 MLOAD DUP2 LT ISZERO PUSH2 0xD97 JUMPI PUSH1 0x2 SLOAD PUSH2 0xB78 SWAP1 PUSH1 0x40 SWAP1 PUSH1 0x1 PUSH1 0x1 PUSH1 0xA0 SHL SUB AND PUSH2 0xB54 DUP5 DUP8 PUSH2 0x17E3 JUMP JUMPDEST MLOAD SWAP1 DUP3 MLOAD DUP1 DUP1 SWAP6 DUP2 SWAP5 PUSH4 0xEDD91367 PUSH1 0xE0 SHL DUP4 MSTORE PUSH1 0x20 PUSH1 0x4 DUP5 ADD MSTORE PUSH1 0x24 DUP4 ADD SWAP1 PUSH2 0x176C JUMP JUMPDEST SUB SWAP2 GAS STATICCALL DUP1 ISZERO PUSH2 0x495 JUMPI PUSH1 0x0 SWAP2 PUSH1 0x0 SWAP2 PUSH2 0xD5E JUMPI JUMPDEST POP PUSH2 0xB98 DUP4 DUP7 PUSH2 0x17E3 JUMP JUMPDEST MLOAD SWAP2 PUSH1 0x40 MLOAD SWAP3 PUSH2 0xBA7 DUP5 PUSH2 0x15CB JUMP JUMPDEST DUP4 MSTORE PUSH2 0x2710 PUSH1 0x20 DUP5 ADD MSTORE PUSH1 0x40 DUP4 ADD MSTORE PUSH1 0x60 DUP3 ADD MSTORE PUSH1 0x1 DUP4 ADD SLOAD PUSH9 0x10000000000000000 DUP2 LT ISZERO PUSH2 0xD32 JUMPI DUP1 PUSH1 0x1 PUSH2 0xBE7 SWAP3 ADD PUSH1 0x1 DUP7 ADD SSTORE PUSH1 0x1 DUP6 ADD PUSH2 0x180D JUMP JUMPDEST SWAP2 SWAP1 SWAP2 PUSH2 0xD48 JUMPI DUP1 MLOAD DUP1 MLOAD SWAP1 PUSH1 0x1 PUSH1 0x1 PUSH1 0x40 SHL SUB DUP3 GT PUSH2 0xD32 JUMPI PUSH2 0xC0B DUP5 SLOAD PUSH2 0x168C JUMP JUMPDEST PUSH1 0x1F DUP2 GT PUSH2 0xCEE JUMPI JUMPDEST POP PUSH1 0x20 SWAP1 PUSH1 0x1F DUP4 GT PUSH1 0x1 EQ PUSH2 0xC7B JUMPI SWAP3 DUP3 PUSH1 0x3 SWAP4 PUSH1 0x60 SWAP4 PUSH2 0xC6B SWAP9 SWAP8 SWAP7 PUSH1 0x0 SWAP3 PUSH2 0xC70 JUMPI JUMPDEST POP POP DUP2 PUSH1 0x1 SHL SWAP2 PUSH1 0x0 NOT SWAP1 DUP7 SHL SHR NOT AND OR DUP5 SSTORE JUMPDEST PUSH1 0x20 DUP2 ADD MLOAD PUSH1 0x1 DUP6 ADD SSTORE PUSH1 0x40 DUP2 ADD MLOAD PUSH1 0x2 DUP6 ADD SSTORE ADD MLOAD SWAP2 ADD SSTORE PUSH2 0x17D4 JUMP JUMPDEST PUSH2 0xB2E JUMP JUMPDEST ADD MLOAD SWAP1 POP DUP12 DUP1 PUSH2 0xC39 JUMP JUMPDEST SWAP1 DUP5 PUSH1 0x0 MSTORE PUSH1 0x20 PUSH1 0x0 KECCAK256 SWAP2 PUSH1 0x0 JUMPDEST PUSH1 0x1F NOT DUP6 AND DUP2 LT PUSH2 0xCD6 JUMPI POP DUP4 PUSH1 0x60 SWAP4 PUSH2 0xC6B SWAP9 SWAP8 SWAP7 SWAP4 PUSH1 0x1 SWAP4 PUSH1 0x3 SWAP8 PUSH1 0x1F NOT DUP2 AND LT PUSH2 0xCBE JUMPI JUMPDEST POP POP POP DUP2 SHL ADD DUP5 SSTORE PUSH2 0xC4D JUMP JUMPDEST ADD MLOAD PUSH1 0x0 NOT DUP4 DUP9 SHL PUSH1 0xF8 AND SHR NOT AND SWAP1 SSTORE DUP12 DUP1 DUP1 PUSH2 0xCB1 JUMP JUMPDEST SWAP2 SWAP3 PUSH1 0x20 PUSH1 0x1 DUP2 SWAP3 DUP7 DUP6 ADD MLOAD DUP2 SSTORE ADD SWAP5 ADD SWAP3 ADD PUSH2 0xC89 JUMP JUMPDEST DUP5 PUSH1 0x0 MSTORE PUSH1 0x20 PUSH1 0x0 KECCAK256 PUSH1 0x1F DUP5 ADD PUSH1 0x5 SHR DUP2 ADD PUSH1 0x20 DUP6 LT PUSH2 0xD2B JUMPI JUMPDEST PUSH1 0x1F DUP4 ADD PUSH1 0x5 SHR DUP3 ADD DUP2 LT PUSH2 0xD1F JUMPI POP POP PUSH2 0xC14 JUMP JUMPDEST PUSH1 0x0 DUP2 SSTORE PUSH1 0x1 ADD PUSH2 0xD09 JUMP JUMPDEST POP DUP1 PUSH2 0xD09 JUMP JUMPDEST PUSH4 0x4E487B71 PUSH1 0xE0 SHL PUSH1 0x0 MSTORE PUSH1 0x41 PUSH1 0x4 MSTORE PUSH1 0x24 PUSH1 0x0 REVERT JUMPDEST PUSH4 0x4E487B71 PUSH1 0xE0 SHL PUSH1 0x0 MSTORE PUSH1 0x0 PUSH1 0x4 MSTORE PUSH1 0x24 PUSH1 0x0 REVERT JUMPDEST SWAP2 POP POP PUSH1 0x40 DUP2 RETURNDATASIZE PUSH1 0x40 GT PUSH2 0xD8F JUMPI JUMPDEST DUP2 PUSH2 0xD7A PUSH1 0x40 SWAP4 DUP4 PUSH2 0x15E6 JUMP JUMPDEST DUP2 ADD SUB SLT PUSH2 0x157 JUMPI PUSH1 0x20 DUP2 MLOAD SWAP2 ADD MLOAD DUP7 PUSH2 0xB8D JUMP JUMPDEST RETURNDATASIZE SWAP2 POP PUSH2 0xD6D JUMP JUMPDEST DUP3 MLOAD PUSH32 0x92DA81CC62C0EFA31ECF38ECBDD2FB28ADD3E9AF1063DDE557CB388D8F9B3EF2 PUSH1 0x20 PUSH2 0xDC5 DUP8 PUSH2 0x1829 JUMP JUMPDEST SWAP3 PUSH1 0x40 MLOAD SWAP1 DUP2 MSTORE LOG2 STOP JUMPDEST SWAP1 POP DUP5 ADD MLOAD DUP6 PUSH2 0xB08 JUMP JUMPDEST SWAP2 POP DUP3 PUSH1 0x0 MSTORE PUSH1 0x20 PUSH1 0x0 KECCAK256 PUSH1 0x0 SWAP3 JUMPDEST PUSH1 0x1F NOT DUP4 AND DUP5 LT PUSH2 0xE29 JUMPI PUSH1 0x1 SWAP4 POP DUP3 PUSH1 0x1F NOT DUP2 AND LT PUSH2 0xE10 JUMPI JUMPDEST POP POP DUP2 SHL ADD DUP2 SSTORE PUSH2 0xB1C JUMP JUMPDEST DUP7 ADD MLOAD PUSH1 0x0 NOT PUSH1 0xF8 DUP5 PUSH1 0x3 SHL AND SHR NOT AND SWAP1 SSTORE DUP6 DUP1 PUSH2 0xE04 JUMP JUMPDEST DUP7 DUP2 ADD MLOAD DUP3 SSTORE PUSH1 0x20 SWAP4 DUP5 ADD SWAP4 PUSH1 0x1 SWAP1 SWAP3 ADD SWAP2 ADD PUSH2 0xDE9 JUMP JUMPDEST DUP3 PUSH1 0x0 MSTORE PUSH1 0x20 PUSH1 0x0 KECCAK256 PUSH1 0x1F DUP4 ADD PUSH1 0x5 SHR DUP2 ADD SWAP2 PUSH1 0x20 DUP5 LT PUSH2 0xE7F JUMPI JUMPDEST PUSH1 0x1F ADD PUSH1 0x5 SHR ADD SWAP1 JUMPDEST DUP2 DUP2 LT PUSH2 0xE73 JUMPI POP PUSH2 0xAF1 JUMP JUMPDEST PUSH1 0x0 DUP2 SSTORE PUSH1 0x1 ADD PUSH2 0xE66 JUMP JUMPDEST SWAP1 SWAP2 POP DUP2 SWAP1 PUSH2 0xE5D JUMP JUMPDEST PUSH1 0x40 MLOAD PUSH3 0x461BCD PUSH1 0xE5 SHL DUP2 MSTORE PUSH1 0x20 PUSH1 0x4 DUP3 ADD MSTORE PUSH1 0x1C PUSH1 0x24 DUP3 ADD MSTORE PUSH32 0x526F79616C7469657320616C7265616479207265676973746572656400000000 PUSH1 0x44 DUP3 ADD MSTORE PUSH1 0x64 SWAP1 REVERT JUMPDEST DUP4 CALLDATALOAD PUSH1 0x1 PUSH1 0x1 PUSH1 0x40 SHL SUB DUP2 GT PUSH2 0x157 JUMPI PUSH1 0x20 SWAP2 PUSH2 0xEF2 DUP4 SWAP3 PUSH1 0x24 CALLDATASIZE SWAP2 DUP8 ADD ADD PUSH2 0x1622 JUMP JUMPDEST DUP2 MSTORE ADD SWAP4 ADD SWAP3 PUSH2 0xA77 JUMP JUMPDEST CALLVALUE PUSH2 0x157 JUMPI PUSH1 0x20 CALLDATASIZE PUSH1 0x3 NOT ADD SLT PUSH2 0x157 JUMPI PUSH1 0x4 CALLDATALOAD PUSH1 0x1 PUSH1 0x1 PUSH1 0xA0 SHL SUB DUP2 AND SWAP1 DUP2 SWAP1 SUB PUSH2 0x157 JUMPI PUSH2 0xF2B PUSH2 0x17A8 JUMP JUMPDEST PUSH12 0xFFFFFFFFFFFFFFFFFFFFFFFF PUSH1 0xA0 SHL PUSH1 0x2 SLOAD AND OR PUSH1 0x2 SSTORE PUSH1 0x0 DUP1 RETURN JUMPDEST CALLVALUE PUSH2 0x157 JUMPI PUSH1 0x0 CALLDATASIZE PUSH1 0x3 NOT ADD SLT PUSH2 0x157 JUMPI PUSH2 0xF61 PUSH2 0x1A13 JUMP JUMPDEST CALLER PUSH1 0x0 MSTORE PUSH1 0x3 PUSH1 0x20 MSTORE PUSH1 0x40 PUSH1 0x0 KECCAK256 SLOAD DUP1 ISZERO PUSH2 0x1011 JUMPI CALLER PUSH1 0x0 MSTORE PUSH1 0x3 PUSH1 0x20 MSTORE PUSH1 0x0 PUSH1 0x40 DUP2 KECCAK256 SSTORE PUSH1 0x0 DUP1 DUP1 DUP1 DUP5 CALLER GAS CALL PUSH2 0xF97 PUSH2 0x19E3 JUMP JUMPDEST POP ISZERO PUSH2 0xFD6 JUMPI PUSH1 0x40 MLOAD SWAP1 DUP2 MSTORE PUSH1 0x0 PUSH1 0x20 DUP3 ADD MSTORE PUSH32 0x6FE778711F06CA052305B633BA1B304F4D71C1523776F2AA3059D8D99F5420DE PUSH1 0x40 CALLER SWAP3 LOG2 PUSH1 0x1 DUP1 SSTORE STOP JUMPDEST PUSH1 0x40 MLOAD PUSH3 0x461BCD PUSH1 0xE5 SHL DUP2 MSTORE PUSH1 0x20 PUSH1 0x4 DUP3 ADD MSTORE PUSH1 0x13 PUSH1 0x24 DUP3 ADD MSTORE PUSH19 0x115512081D1C985B9CD9995C8819985A5B1959 PUSH1 0x6A SHL PUSH1 0x44 DUP3 ADD MSTORE PUSH1 0x64 SWAP1 REVERT JUMPDEST PUSH1 0x40 MLOAD PUSH3 0x461BCD PUSH1 0xE5 SHL DUP2 MSTORE PUSH1 0x20 PUSH1 0x4 DUP3 ADD MSTORE PUSH1 0x18 PUSH1 0x24 DUP3 ADD MSTORE PUSH32 0x4E6F2070656E64696E672045544820726F79616C746965730000000000000000 PUSH1 0x44 DUP3 ADD MSTORE PUSH1 0x64 SWAP1 REVERT JUMPDEST CALLVALUE PUSH2 0x157 JUMPI PUSH1 0x0 CALLDATASIZE PUSH1 0x3 NOT ADD SLT PUSH2 0x157 JUMPI PUSH1 0x0 SLOAD PUSH1 0x40 MLOAD PUSH1 0x1 PUSH1 0x1 PUSH1 0xA0 SHL SUB SWAP1 SWAP2 AND DUP2 MSTORE PUSH1 0x20 SWAP1 RETURN JUMPDEST CALLVALUE PUSH2 0x157 JUMPI PUSH1 0x20 CALLDATASIZE PUSH1 0x3 NOT ADD SLT PUSH2 0x157 JUMPI PUSH1 0x4 CALLDATALOAD PUSH1 0x1 PUSH1 0x1 PUSH1 0x40 SHL SUB DUP2 GT PUSH2 0x157 JUMPI PUSH2 0x10C8 PUSH1 0x20 PUSH2 0x10B5 DUP2 SWAP4 CALLDATASIZE SWAP1 PUSH1 0x4 ADD PUSH2 0x1622 JUMP JUMPDEST DUP2 PUSH1 0x40 MLOAD SWAP4 DUP3 DUP6 DUP1 SWAP5 MLOAD SWAP4 DUP5 SWAP3 ADD PUSH2 0x1669 JUMP JUMPDEST DUP2 ADD PUSH1 0x7 DUP2 MSTORE SUB ADD SWAP1 KECCAK256 SLOAD PUSH1 0x40 MLOAD SWAP1 DUP2 MSTORE RETURN JUMPDEST CALLVALUE PUSH2 0x157 JUMPI PUSH1 0x0 CALLDATASIZE PUSH1 0x3 NOT ADD SLT PUSH2 0x157 JUMPI PUSH2 0x10F4 PUSH2 0x17A8 JUMP JUMPDEST PUSH1 0x0 DUP1 SLOAD PUSH1 0x1 PUSH1 0x1 PUSH1 0xA0 SHL SUB NOT DUP2 AND DUP3 SSTORE PUSH1 0x1 PUSH1 0x1 PUSH1 0xA0 SHL SUB AND PUSH32 0x8BE0079C531659141344CD1FD0A4F28419497F9722A3DAAFE3B4186F6B6457E0 DUP3 DUP1 LOG3 STOP JUMPDEST CALLVALUE PUSH2 0x157 JUMPI PUSH1 0x20 CALLDATASIZE PUSH1 0x3 NOT ADD SLT PUSH2 0x157 JUMPI PUSH1 0x4 CALLDATALOAD PUSH1 0x1 PUSH1 0x1 PUSH1 0xA0 SHL SUB DUP2 AND SWAP1 DUP2 SWAP1 SUB PUSH2 0x157 JUMPI PUSH1 0x0 MSTORE PUSH1 0x4 PUSH1 0x20 MSTORE PUSH1 0x20 PUSH1 0x40 PUSH1 0x0 KECCAK256 SLOAD PUSH1 0x40 MLOAD SWAP1 DUP2 MSTORE RETURN JUMPDEST CALLVALUE PUSH2 0x157 JUMPI PUSH1 0x20 DUP1 PUSH1 0x3 NOT CALLDATASIZE ADD SLT PUSH2 0x157 JUMPI PUSH1 0x4 CALLDATALOAD PUSH1 0x1 PUSH1 0x1 PUSH1 0x40 SHL SUB DUP2 GT PUSH2 0x157 JUMPI PUSH2 0x11A3 SWAP1 CALLDATASIZE SWAP1 PUSH1 0x4 ADD PUSH2 0x1622 JUMP JUMPDEST SWAP1 DUP1 PUSH2 0x11B8 PUSH1 0x40 MLOAD SWAP4 DUP5 DUP2 MLOAD SWAP4 DUP5 SWAP3 ADD PUSH2 0x1669 JUMP JUMPDEST DUP3 ADD PUSH1 0x5 DUP2 MSTORE DUP3 DUP3 PUSH1 0x1 SWAP5 DUP6 SWAP4 SUB ADD SWAP1 KECCAK256 ADD DUP1 SLOAD SWAP2 PUSH2 0x11D6 DUP4 PUSH2 0x1791 JUMP JUMPDEST SWAP3 PUSH2 0x11E4 PUSH1 0x40 MLOAD SWAP5 DUP6 PUSH2 0x15E6 JUMP JUMPDEST DUP1 DUP5 MSTORE DUP2 DUP5 ADD DUP1 SWAP4 PUSH1 0x0 MSTORE DUP3 PUSH1 0x0 KECCAK256 PUSH1 0x0 SWAP2 JUMPDEST DUP4 DUP4 LT PUSH2 0x128C JUMPI POP POP POP POP PUSH1 0x40 MLOAD SWAP4 DUP5 SWAP4 DUP3 DUP6 ADD SWAP1 DUP4 DUP7 MSTORE MLOAD DUP1 SWAP2 MSTORE PUSH1 0x40 DUP6 ADD SWAP3 PUSH1 0x40 DUP3 PUSH1 0x5 SHL DUP8 ADD ADD SWAP5 SWAP4 PUSH1 0x0 SWAP1 JUMPDEST DUP4 DUP3 LT PUSH2 0x1234 JUMPI DUP8 DUP8 SUB DUP9 RETURN JUMPDEST SWAP2 DUP5 SWAP7 DUP2 SWAP6 SWAP3 SWAP5 SWAP7 SWAP9 POP DUP2 SWAP1 PUSH1 0x3F NOT DUP12 DUP3 SUB ADD DUP6 MSTORE DUP10 MLOAD SWAP1 PUSH2 0x125E DUP3 MLOAD PUSH1 0x80 DUP1 DUP5 MSTORE DUP4 ADD SWAP1 PUSH2 0x176C JUMP JUMPDEST SWAP2 DUP4 DUP2 ADD MLOAD DUP5 DUP4 ADD MSTORE PUSH1 0x40 DUP2 ADD MLOAD PUSH1 0x40 DUP4 ADD MSTORE PUSH1 0x60 DUP1 SWAP2 ADD MLOAD SWAP2 ADD MSTORE SWAP9 ADD SWAP3 ADD SWAP3 ADD DUP8 SWAP7 SWAP6 SWAP4 SWAP2 SWAP5 SWAP3 PUSH2 0x1227 JUMP JUMPDEST SWAP7 PUSH1 0x4 DUP6 DUP3 SWAP8 SWAP9 SWAP7 SWAP10 PUSH2 0x129E DUP6 PUSH2 0x1849 JUMP JUMPDEST DUP2 MSTORE ADD SWAP3 ADD SWAP3 ADD SWAP2 SWAP1 SWAP7 SWAP4 SWAP6 SWAP5 SWAP7 PUSH2 0x11F7 JUMP JUMPDEST CALLVALUE PUSH2 0x157 JUMPI PUSH1 0x20 CALLDATASIZE PUSH1 0x3 NOT ADD SLT PUSH2 0x157 JUMPI PUSH1 0x4 CALLDATALOAD PUSH1 0x1 PUSH1 0x1 PUSH1 0x40 SHL SUB DUP2 GT PUSH2 0x157 JUMPI PUSH2 0x12E9 PUSH1 0x20 PUSH2 0x10B5 PUSH2 0x1318 SWAP4 CALLDATASIZE SWAP1 PUSH1 0x4 ADD PUSH2 0x1622 JUMP JUMPDEST DUP2 ADD PUSH1 0x5 DUP2 MSTORE SUB ADD SWAP1 KECCAK256 PUSH1 0xFF PUSH1 0x2 PUSH2 0x1300 DUP4 PUSH2 0x16C6 JUMP JUMPDEST SWAP3 ADD SLOAD AND PUSH1 0x40 MLOAD SWAP3 DUP4 SWAP3 PUSH1 0x40 DUP5 MSTORE PUSH1 0x40 DUP5 ADD SWAP1 PUSH2 0x176C JUMP JUMPDEST SWAP1 ISZERO ISZERO PUSH1 0x20 DUP4 ADD MSTORE SUB SWAP1 RETURN JUMPDEST CALLVALUE PUSH2 0x157 JUMPI PUSH1 0x0 CALLDATASIZE PUSH1 0x3 NOT ADD SLT PUSH2 0x157 JUMPI PUSH1 0x20 PUSH1 0x40 MLOAD PUSH2 0x3E8 DUP2 MSTORE RETURN JUMPDEST CALLVALUE PUSH2 0x157 JUMPI PUSH1 0x20 CALLDATASIZE PUSH1 0x3 NOT ADD SLT PUSH2 0x157 JUMPI PUSH1 0x4 CALLDATALOAD PUSH1 0x1 PUSH1 0x1 PUSH1 0x40 SHL SUB DUP2 GT PUSH2 0x157 JUMPI PUSH2 0x1377 PUSH1 0x20 PUSH2 0x10B5 DUP2 SWAP4 CALLDATASIZE SWAP1 PUSH1 0x4 ADD PUSH2 0x1622 JUMP JUMPDEST DUP2 ADD PUSH1 0x6 DUP2 MSTORE SUB ADD SWAP1 KECCAK256 SLOAD PUSH1 0x40 MLOAD SWAP1 DUP2 MSTORE RETURN JUMPDEST CALLVALUE PUSH2 0x157 JUMPI PUSH1 0x0 CALLDATASIZE PUSH1 0x3 NOT ADD SLT PUSH2 0x157 JUMPI PUSH2 0x13A3 PUSH2 0x1A13 JUMP JUMPDEST CALLER PUSH1 0x0 MSTORE PUSH1 0x20 PUSH1 0x4 DUP2 MSTORE PUSH1 0x40 PUSH1 0x0 KECCAK256 SLOAD DUP1 ISZERO PUSH2 0x14B8 JUMPI CALLER PUSH1 0x0 MSTORE PUSH1 0x4 DUP3 MSTORE PUSH1 0x0 PUSH1 0x40 DUP2 KECCAK256 SSTORE PUSH1 0x40 MLOAD PUSH4 0xA9059CBB PUSH1 0xE0 SHL DUP2 MSTORE CALLER PUSH1 0x4 DUP3 ADD MSTORE DUP2 PUSH1 0x24 DUP3 ADD MSTORE DUP3 DUP2 PUSH1 0x44 DUP2 PUSH1 0x0 PUSH1 0x1 DUP1 PUSH1 0xA0 SHL SUB PUSH32 0x0 AND GAS CALL SWAP1 DUP2 ISZERO PUSH2 0x495 JUMPI PUSH1 0x0 SWAP2 PUSH2 0x149B JUMPI JUMPDEST POP ISZERO PUSH2 0x145F JUMPI PUSH1 0x40 MLOAD SWAP2 PUSH1 0x0 DUP4 MSTORE DUP3 ADD MSTORE PUSH32 0x6FE778711F06CA052305B633BA1B304F4D71C1523776F2AA3059D8D99F5420DE PUSH1 0x40 CALLER SWAP3 LOG2 PUSH1 0x1 DUP1 SSTORE STOP JUMPDEST PUSH1 0x40 MLOAD PUSH3 0x461BCD PUSH1 0xE5 SHL DUP2 MSTORE PUSH1 0x4 DUP2 ADD DUP4 SWAP1 MSTORE PUSH1 0x14 PUSH1 0x24 DUP3 ADD MSTORE PUSH20 0x1554D110C81D1C985B9CD9995C8819985A5B1959 PUSH1 0x62 SHL PUSH1 0x44 DUP3 ADD MSTORE PUSH1 0x64 SWAP1 REVERT JUMPDEST PUSH2 0x14B2 SWAP2 POP DUP4 RETURNDATASIZE DUP6 GT PUSH2 0x821 JUMPI PUSH2 0x813 DUP2 DUP4 PUSH2 0x15E6 JUMP JUMPDEST DUP4 PUSH2 0x1422 JUMP JUMPDEST PUSH1 0x40 MLOAD PUSH3 0x461BCD PUSH1 0xE5 SHL DUP2 MSTORE PUSH1 0x4 DUP2 ADD DUP4 SWAP1 MSTORE PUSH1 0x19 PUSH1 0x24 DUP3 ADD MSTORE PUSH32 0x4E6F2070656E64696E67205553444320726F79616C7469657300000000000000 PUSH1 0x44 DUP3 ADD MSTORE PUSH1 0x64 SWAP1 REVERT JUMPDEST CALLVALUE PUSH2 0x157 JUMPI PUSH1 0x20 CALLDATASIZE PUSH1 0x3 NOT ADD SLT PUSH2 0x157 JUMPI PUSH1 0x4 CALLDATALOAD PUSH1 0x1 PUSH1 0x1 PUSH1 0xA0 SHL SUB DUP2 AND SWAP1 DUP2 SWAP1 SUB PUSH2 0x157 JUMPI PUSH1 0x0 MSTORE PUSH1 0x3 PUSH1 0x20 MSTORE PUSH1 0x20 PUSH1 0x40 PUSH1 0x0 KECCAK256 SLOAD PUSH1 0x40 MLOAD SWAP1 DUP2 MSTORE RETURN JUMPDEST CALLVALUE PUSH2 0x157 JUMPI PUSH1 0x0 CALLDATASIZE PUSH1 0x3 NOT ADD SLT PUSH2 0x157 JUMPI PUSH1 0x40 MLOAD PUSH32 0x0 PUSH1 0x1 PUSH1 0x1 PUSH1 0xA0 SHL SUB AND DUP2 MSTORE PUSH1 0x20 SWAP1 RETURN JUMPDEST CALLVALUE PUSH2 0x157 JUMPI PUSH1 0x20 CALLDATASIZE PUSH1 0x3 NOT ADD SLT PUSH2 0x157 JUMPI PUSH1 0x4 CALLDATALOAD PUSH1 0x1 PUSH1 0x1 PUSH1 0xA0 SHL SUB DUP2 AND SWAP2 SWAP1 DUP3 SWAP1 SUB PUSH2 0x157 JUMPI PUSH1 0x40 SWAP2 PUSH1 0x0 MSTORE PUSH1 0x3 PUSH1 0x20 MSTORE DUP2 PUSH1 0x0 KECCAK256 SLOAD PUSH1 0x4 PUSH1 0x20 MSTORE DUP3 PUSH1 0x0 KECCAK256 SLOAD SWAP1 DUP3 MSTORE PUSH1 0x20 DUP3 ADD MSTORE RETURN JUMPDEST PUSH1 0x80 DUP2 ADD SWAP1 DUP2 LT PUSH1 0x1 PUSH1 0x1 PUSH1 0x40 SHL SUB DUP3 GT OR PUSH2 0xD32 JUMPI PUSH1 0x40 MSTORE JUMP JUMPDEST SWAP1 PUSH1 0x1F DUP1 NOT SWAP2 ADD AND DUP2 ADD SWAP1 DUP2 LT PUSH1 0x1 PUSH1 0x1 PUSH1 0x40 SHL SUB DUP3 GT OR PUSH2 0xD32 JUMPI PUSH1 0x40 MSTORE JUMP JUMPDEST PUSH1 0x1 PUSH1 0x1 PUSH1 0x40 SHL SUB DUP2 GT PUSH2 0xD32 JUMPI PUSH1 0x1F ADD PUSH1 0x1F NOT AND PUSH1 0x20 ADD SWAP1 JUMP JUMPDEST DUP2 PUSH1 0x1F DUP3 ADD SLT ISZERO PUSH2 0x157 JUMPI DUP1 CALLDATALOAD SWAP1 PUSH2 0x1639 DUP3 PUSH2 0x1607 JUMP JUMPDEST SWAP3 PUSH2 0x1647 PUSH1 0x40 MLOAD SWAP5 DUP6 PUSH2 0x15E6 JUMP JUMPDEST DUP3 DUP5 MSTORE PUSH1 0x20 DUP4 DUP4 ADD ADD GT PUSH2 0x157 JUMPI DUP2 PUSH1 0x0 SWAP3 PUSH1 0x20 DUP1 SWAP4 ADD DUP4 DUP7 ADD CALLDATACOPY DUP4 ADD ADD MSTORE SWAP1 JUMP JUMPDEST PUSH1 0x0 JUMPDEST DUP4 DUP2 LT PUSH2 0x167C JUMPI POP POP PUSH1 0x0 SWAP2 ADD MSTORE JUMP JUMPDEST DUP2 DUP2 ADD MLOAD DUP4 DUP3 ADD MSTORE PUSH1 0x20 ADD PUSH2 0x166C JUMP JUMPDEST SWAP1 PUSH1 0x1 DUP3 DUP2 SHR SWAP3 AND DUP1 ISZERO PUSH2 0x16BC JUMPI JUMPDEST PUSH1 0x20 DUP4 LT EQ PUSH2 0x16A6 JUMPI JUMP JUMPDEST PUSH4 0x4E487B71 PUSH1 0xE0 SHL PUSH1 0x0 MSTORE PUSH1 0x22 PUSH1 0x4 MSTORE PUSH1 0x24 PUSH1 0x0 REVERT JUMPDEST SWAP2 PUSH1 0x7F AND SWAP2 PUSH2 0x169B JUMP JUMPDEST SWAP1 PUSH1 0x40 MLOAD SWAP2 DUP3 PUSH1 0x0 DUP3 SLOAD SWAP3 PUSH2 0x16DA DUP5 PUSH2 0x168C JUMP JUMPDEST SWAP1 DUP2 DUP5 MSTORE PUSH1 0x1 SWAP5 DUP6 DUP2 AND SWAP1 DUP2 PUSH1 0x0 EQ PUSH2 0x1749 JUMPI POP PUSH1 0x1 EQ PUSH2 0x1706 JUMPI JUMPDEST POP POP PUSH2 0x1704 SWAP3 POP SUB DUP4 PUSH2 0x15E6 JUMP JUMPDEST JUMP JUMPDEST SWAP1 SWAP4 SWAP2 POP PUSH1 0x0 MSTORE PUSH1 0x20 SWAP1 DUP2 PUSH1 0x0 KECCAK256 SWAP4 PUSH1 0x0 SWAP2 JUMPDEST DUP2 DUP4 LT PUSH2 0x1731 JUMPI POP POP PUSH2 0x1704 SWAP4 POP DUP3 ADD ADD CODESIZE DUP1 PUSH2 0x16F6 JUMP JUMPDEST DUP6 SLOAD DUP9 DUP5 ADD DUP6 ADD MSTORE SWAP5 DUP6 ADD SWAP5 DUP8 SWAP5 POP SWAP2 DUP4 ADD SWAP2 PUSH2 0x1719 JUMP JUMPDEST SWAP2 POP POP PUSH2 0x1704 SWAP5 POP PUSH1 0x20 SWAP3 POP PUSH1 0xFF NOT AND DUP3 DUP5 ADD MSTORE ISZERO ISZERO PUSH1 0x5 SHL DUP3 ADD ADD CODESIZE DUP1 PUSH2 0x16F6 JUMP JUMPDEST SWAP1 PUSH1 0x20 SWAP2 PUSH2 0x1785 DUP2 MLOAD DUP1 SWAP3 DUP2 DUP6 MSTORE DUP6 DUP1 DUP7 ADD SWAP2 ADD PUSH2 0x1669 JUMP JUMPDEST PUSH1 0x1F ADD PUSH1 0x1F NOT AND ADD ADD SWAP1 JUMP JUMPDEST PUSH1 0x1 PUSH1 0x1 PUSH1 0x40 SHL SUB DUP2 GT PUSH2 0xD32 JUMPI PUSH1 0x5 SHL PUSH1 0x20 ADD SWAP1 JUMP JUMPDEST PUSH1 0x0 SLOAD PUSH1 0x1 PUSH1 0x1 PUSH1 0xA0 SHL SUB AND CALLER SUB PUSH2 0x17BC JUMPI JUMP JUMPDEST PUSH1 0x40 MLOAD PUSH4 0x118CDAA7 PUSH1 0xE0 SHL DUP2 MSTORE CALLER PUSH1 0x4 DUP3 ADD MSTORE PUSH1 0x24 SWAP1 REVERT JUMPDEST PUSH1 0x0 NOT DUP2 EQ PUSH2 0x35A JUMPI PUSH1 0x1 ADD SWAP1 JUMP JUMPDEST DUP1 MLOAD DUP3 LT ISZERO PUSH2 0x17F7 JUMPI PUSH1 0x20 SWAP2 PUSH1 0x5 SHL ADD ADD SWAP1 JUMP JUMPDEST PUSH4 0x4E487B71 PUSH1 0xE0 SHL PUSH1 0x0 MSTORE PUSH1 0x32 PUSH1 0x4 MSTORE PUSH1 0x24 PUSH1 0x0 REVERT JUMPDEST DUP1 SLOAD DUP3 LT ISZERO PUSH2 0x17F7 JUMPI PUSH1 0x0 MSTORE PUSH1 0x20 PUSH1 0x0 KECCAK256 SWAP1 PUSH1 0x2 SHL ADD SWAP1 PUSH1 0x0 SWAP1 JUMP JUMPDEST PUSH2 0x1841 SWAP1 PUSH1 0x20 PUSH1 0x40 MLOAD SWAP3 DUP3 DUP5 DUP1 SWAP5 MLOAD SWAP4 DUP5 SWAP3 ADD PUSH2 0x1669 JUMP JUMPDEST DUP2 ADD SUB SWAP1 KECCAK256 SWAP1 JUMP JUMPDEST SWAP1 PUSH1 0x40 MLOAD PUSH2 0x1856 DUP2 PUSH2 0x15CB JUMP JUMPDEST PUSH1 0x60 PUSH1 0x3 DUP3 SWAP5 PUSH2 0x1865 DUP2 PUSH2 0x16C6 JUMP JUMPDEST DUP5 MSTORE PUSH1 0x1 DUP2 ADD SLOAD PUSH1 0x20 DUP6 ADD MSTORE PUSH1 0x2 DUP2 ADD SLOAD PUSH1 0x40 DUP6 ADD MSTORE ADD SLOAD SWAP2 ADD MSTORE JUMP JUMPDEST SWAP1 DUP2 PUSH1 0x20 SWAP2 SUB SLT PUSH2 0x157 JUMPI MLOAD PUSH1 0x1 PUSH1 0x1 PUSH1 0xA0 SHL SUB DUP2 AND DUP2 SUB PUSH2 0x157 JUMPI SWAP1 JUMP JUMPDEST SWAP2 SWAP1 DUP3 ADD DUP1 SWAP3 GT PUSH2 0x35A JUMPI JUMP JUMPDEST SWAP1 PUSH1 0x0 DUP1 DUP1 SWAP4 PUSH1 0x40 DUP1 MLOAD DUP3 DUP2 DUP1 SWAP5 MLOAD PUSH2 0x18CD DUP2 PUSH1 0x20 SWAP8 DUP9 DUP1 SWAP7 ADD PUSH2 0x1669 JUMP JUMPDEST DUP2 ADD PUSH1 0x5 DUP2 MSTORE SUB ADD SWAP1 KECCAK256 SWAP2 PUSH1 0xFF PUSH1 0x2 DUP5 ADD SLOAD AND ISZERO PUSH2 0x19C1 JUMPI PUSH1 0x1 SWAP1 SWAP3 ADD DUP1 SLOAD PUSH1 0x2 SLOAD SWAP1 SWAP4 PUSH1 0x1 PUSH1 0x1 PUSH1 0xA0 SHL SUB SWAP2 DUP3 AND SWAP3 DUP7 JUMPDEST DUP7 DUP2 LT PUSH2 0x1912 JUMPI POP POP POP POP POP POP POP POP SWAP2 SWAP1 JUMP JUMPDEST PUSH2 0x191F PUSH2 0x386 DUP3 DUP5 PUSH2 0x180D JUMP JUMPDEST PUSH2 0x1945 DUP5 DUP3 MLOAD DUP10 MLOAD DUP1 SWAP4 DUP2 SWAP3 PUSH4 0xD55A772D PUSH1 0xE0 SHL DUP4 MSTORE DUP5 PUSH1 0x4 DUP5 ADD MSTORE PUSH1 0x24 DUP4 ADD SWAP1 PUSH2 0x176C JUMP JUMPDEST SUB DUP2 DUP11 GAS STATICCALL SWAP1 DUP2 ISZERO PUSH2 0x19B7 JUMPI SWAP1 DUP7 SWAP2 DUP12 SWAP2 PUSH2 0x199A JUMPI JUMPDEST POP AND PUSH2 0x1971 JUMPI JUMPDEST POP PUSH2 0x196C SWAP1 PUSH2 0x17D4 JUMP JUMPDEST PUSH2 0x18FF JUMP JUMPDEST SWAP9 PUSH2 0x196C SWAP2 SWAP12 PUSH1 0x60 PUSH2 0x198A PUSH2 0x1993 SWAP4 DUP11 DUP15 ADD MLOAD SWAP1 PUSH2 0x18A1 JUMP JUMPDEST SWAP12 ADD MLOAD SWAP1 PUSH2 0x18A1 JUMP JUMPDEST SWAP11 SWAP1 PUSH2 0x1962 JUMP JUMPDEST PUSH2 0x19B1 SWAP2 POP DUP7 RETURNDATASIZE DUP9 GT PUSH2 0x48E JUMPI PUSH2 0x47F DUP2 DUP4 PUSH2 0x15E6 JUMP JUMPDEST CODESIZE PUSH2 0x195B JUMP JUMPDEST DUP9 MLOAD RETURNDATASIZE DUP13 DUP3 RETURNDATACOPY RETURNDATASIZE SWAP1 REVERT JUMPDEST POP POP POP SWAP3 POP POP DUP2 SWAP1 JUMP JUMPDEST SWAP1 DUP2 PUSH1 0x20 SWAP2 SUB SLT PUSH2 0x157 JUMPI MLOAD DUP1 ISZERO ISZERO DUP2 SUB PUSH2 0x157 JUMPI SWAP1 JUMP JUMPDEST RETURNDATASIZE ISZERO PUSH2 0x1A0E JUMPI RETURNDATASIZE SWAP1 PUSH2 0x19F4 DUP3 PUSH2 0x1607 JUMP JUMPDEST SWAP2 PUSH2 0x1A02 PUSH1 0x40 MLOAD SWAP4 DUP5 PUSH2 0x15E6 JUMP JUMPDEST DUP3 MSTORE RETURNDATASIZE PUSH1 0x0 PUSH1 0x20 DUP5 ADD RETURNDATACOPY JUMP JUMPDEST PUSH1 0x60 SWAP1 JUMP JUMPDEST PUSH1 0x2 PUSH1 0x1 SLOAD EQ PUSH2 0x1A24 JUMPI PUSH1 0x2 PUSH1 0x1 SSTORE JUMP JUMPDEST PUSH1 0x40 MLOAD PUSH4 0x3EE5AEB5 PUSH1 0xE0 SHL DUP2 MSTORE PUSH1 0x4 SWAP1 REVERT INVALID LOG2 PUSH5 0x6970667358 0x22 SLT KECCAK256 GASPRICE STATICCALL 0xE3 0x24 MSIZE 0xEA 0xE2 PUSH6 0x76E68E8508AC 0xCE PUSH23 0xC68162D32D8F36482E3A138D59197F2664736F6C634300 ADDMOD EQ STOP CALLER "},"methodIdentifiers":{"PERCENTAGE_DENOMINATOR()":"b3cd4254","ROYALTY_PERCENTAGE()":"463b08db","USDC_ADDRESS()":"bb09d9b7","calculateTotalRoyalties(string)":"f8a76dfb","claimRoyaltiesETH()":"902509c2","claimRoyaltiesUSDC()":"1ed6c599","getPendingRoyalties(address)":"024fa0d6","getProjectDependencies(string)":"50fd8e71","libraryContract()":"ce0769c5","owner()":"8da5cb5b","pendingRoyaltiesETH(address)":"141b5f02","pendingRoyaltiesUSDC(address)":"5bf4b5c4","projectRoyalties(string)":"4aa8a12d","recordRoyalties(string,uint256,uint8)":"c5787690","registerProjectRoyalties(string,string[])":"b1ee838e","renounceOwnership()":"715018a6","setLibraryContract(address)":"956456d9","totalRoyaltiesPaidETH(string)":"30676af6","totalRoyaltiesPaidUSDC(string)":"73a6fe89","transferOwnership(address)":"f2fde38b","usdcToken()":"11eac855"}}}}}