{"ClayMarketplace.sol":{"ClayMarketplace":{"abi":[{"inputs":[{"internalType":"address","name":"_libraryContract","type":"address"},{"internalType":"address","name":"_royaltyContract","type":"address"}],"stateMutability":"nonpayable","type":"constructor"},{"inputs":[{"internalType":"address","name":"owner","type":"address"}],"name":"OwnableInvalidOwner","type":"error"},{"inputs":[{"internalType":"address","name":"account","type":"address"}],"name":"OwnableUnauthorizedAccount","type":"error"},{"inputs":[],"name":"ReentrancyGuardReentrantCall","type":"error"},{"anonymous":false,"inputs":[{"indexed":true,"internalType":"string","name":"projectId","type":"string"},{"indexed":true,"internalType":"address","name":"seller","type":"address"},{"indexed":false,"internalType":"uint256","name":"price","type":"uint256"},{"indexed":false,"internalType":"uint256","name":"timestamp","type":"uint256"}],"name":"AssetListed","type":"event"},{"anonymous":false,"inputs":[{"indexed":true,"internalType":"string","name":"projectId","type":"string"},{"indexed":true,"internalType":"address","name":"seller","type":"address"},{"indexed":true,"internalType":"address","name":"buyer","type":"address"},{"indexed":false,"internalType":"uint256","name":"price","type":"uint256"},{"indexed":false,"internalType":"uint256","name":"platformFee","type":"uint256"}],"name":"AssetSold","type":"event"},{"anonymous":false,"inputs":[{"indexed":true,"internalType":"string","name":"projectId","type":"string"},{"indexed":true,"internalType":"address","name":"seller","type":"address"}],"name":"ListingCancelled","type":"event"},{"anonymous":false,"inputs":[{"indexed":true,"internalType":"string","name":"projectId","type":"string"},{"indexed":false,"internalType":"uint256","name":"oldPrice","type":"uint256"},{"indexed":false,"internalType":"uint256","name":"newPrice","type":"uint256"}],"name":"ListingPriceUpdated","type":"event"},{"anonymous":false,"inputs":[{"indexed":true,"internalType":"uint256","name":"offerId","type":"uint256"},{"indexed":true,"internalType":"string","name":"projectId","type":"string"},{"indexed":true,"internalType":"address","name":"seller","type":"address"},{"indexed":false,"internalType":"address","name":"buyer","type":"address"},{"indexed":false,"internalType":"uint256","name":"price","type":"uint256"}],"name":"OfferAccepted","type":"event"},{"anonymous":false,"inputs":[{"indexed":true,"internalType":"uint256","name":"offerId","type":"uint256"},{"indexed":true,"internalType":"string","name":"projectId","type":"string"},{"indexed":true,"internalType":"address","name":"buyer","type":"address"}],"name":"OfferCancelled","type":"event"},{"anonymous":false,"inputs":[{"indexed":true,"internalType":"uint256","name":"offerId","type":"uint256"},{"indexed":true,"internalType":"string","name":"projectId","type":"string"},{"indexed":true,"internalType":"address","name":"buyer","type":"address"},{"indexed":false,"internalType":"uint256","name":"offerPrice","type":"uint256"},{"indexed":false,"internalType":"uint256","name":"expiresAt","type":"uint256"}],"name":"OfferCreated","type":"event"},{"anonymous":false,"inputs":[{"indexed":true,"internalType":"uint256","name":"offerId","type":"uint256"},{"indexed":true,"internalType":"string","name":"projectId","type":"string"},{"indexed":true,"internalType":"address","name":"buyer","type":"address"},{"indexed":false,"internalType":"uint256","name":"refundAmount","type":"uint256"}],"name":"OfferRefundFailed","type":"event"},{"anonymous":false,"inputs":[{"indexed":true,"internalType":"address","name":"previousOwner","type":"address"},{"indexed":true,"internalType":"address","name":"newOwner","type":"address"}],"name":"OwnershipTransferred","type":"event"},{"inputs":[],"name":"FEE_DENOMINATOR","outputs":[{"internalType":"uint256","name":"","type":"uint256"}],"stateMutability":"view","type":"function"},{"inputs":[],"name":"USDC_ADDRESS","outputs":[{"internalType":"address","name":"","type":"address"}],"stateMutability":"view","type":"function"},{"inputs":[{"internalType":"uint256","name":"offerId","type":"uint256"}],"name":"acceptOffer","outputs":[],"stateMutability":"nonpayable","type":"function"},{"inputs":[{"internalType":"uint256","name":"","type":"uint256"}],"name":"activeListings","outputs":[{"internalType":"string","name":"","type":"string"}],"stateMutability":"view","type":"function"},{"inputs":[{"internalType":"string","name":"projectId","type":"string"}],"name":"buyAsset","outputs":[],"stateMutability":"payable","type":"function"},{"inputs":[{"internalType":"string","name":"projectId","type":"string"}],"name":"cancelListing","outputs":[],"stateMutability":"nonpayable","type":"function"},{"inputs":[{"internalType":"uint256","name":"offerId","type":"uint256"}],"name":"cancelOffer","outputs":[],"stateMutability":"nonpayable","type":"function"},{"inputs":[],"name":"getActiveListingsCount","outputs":[{"internalType":"uint256","name":"","type":"uint256"}],"stateMutability":"view","type":"function"},{"inputs":[{"internalType":"string","name":"projectId","type":"string"}],"name":"getProjectOffers","outputs":[{"internalType":"uint256[]","name":"","type":"uint256[]"}],"stateMutability":"view","type":"function"},{"inputs":[],"name":"libraryContract","outputs":[{"internalType":"contract IClayLibrary","name":"","type":"address"}],"stateMutability":"view","type":"function"},{"inputs":[{"internalType":"string","name":"projectId","type":"string"},{"internalType":"uint256","name":"price","type":"uint256"},{"internalType":"enum ClayMarketplace.PaymentToken","name":"paymentToken","type":"uint8"}],"name":"listAsset","outputs":[],"stateMutability":"nonpayable","type":"function"},{"inputs":[{"internalType":"string","name":"","type":"string"}],"name":"listings","outputs":[{"internalType":"string","name":"projectId","type":"string"},{"internalType":"address","name":"seller","type":"address"},{"internalType":"uint256","name":"price","type":"uint256"},{"internalType":"enum ClayMarketplace.PaymentToken","name":"paymentToken","type":"uint8"},{"internalType":"uint256","name":"listedAt","type":"uint256"},{"internalType":"bool","name":"isActive","type":"bool"}],"stateMutability":"view","type":"function"},{"inputs":[{"internalType":"string","name":"projectId","type":"string"},{"internalType":"uint256","name":"offerPrice","type":"uint256"},{"internalType":"enum ClayMarketplace.PaymentToken","name":"paymentToken","type":"uint8"},{"internalType":"uint256","name":"duration","type":"uint256"}],"name":"makeOffer","outputs":[],"stateMutability":"payable","type":"function"},{"inputs":[],"name":"nextOfferId","outputs":[{"internalType":"uint256","name":"","type":"uint256"}],"stateMutability":"view","type":"function"},{"inputs":[{"internalType":"uint256","name":"","type":"uint256"}],"name":"offers","outputs":[{"internalType":"string","name":"projectId","type":"string"},{"internalType":"address","name":"buyer","type":"address"},{"internalType":"uint256","name":"offerPrice","type":"uint256"},{"internalType":"enum ClayMarketplace.PaymentToken","name":"paymentToken","type":"uint8"},{"internalType":"uint256","name":"offeredAt","type":"uint256"},{"internalType":"uint256","name":"expiresAt","type":"uint256"},{"internalType":"bool","name":"isActive","type":"bool"}],"stateMutability":"view","type":"function"},{"inputs":[],"name":"owner","outputs":[{"internalType":"address","name":"","type":"address"}],"stateMutability":"view","type":"function"},{"inputs":[],"name":"platformFeePercentage","outputs":[{"internalType":"uint256","name":"","type":"uint256"}],"stateMutability":"view","type":"function"},{"inputs":[{"internalType":"string","name":"","type":"string"},{"internalType":"uint256","name":"","type":"uint256"}],"name":"projectOffers","outputs":[{"internalType":"uint256","name":"","type":"uint256"}],"stateMutability":"view","type":"function"},{"inputs":[],"name":"renounceOwnership","outputs":[],"stateMutability":"nonpayable","type":"function"},{"inputs":[],"name":"royaltyContract","outputs":[{"internalType":"contract IClayRoyalty","name":"","type":"address"}],"stateMutability":"view","type":"function"},{"inputs":[{"internalType":"address","name":"_royaltyContract","type":"address"}],"name":"setRoyaltyContract","outputs":[],"stateMutability":"nonpayable","type":"function"},{"inputs":[{"internalType":"address","name":"newOwner","type":"address"}],"name":"transferOwnership","outputs":[],"stateMutability":"nonpayable","type":"function"},{"inputs":[{"internalType":"string","name":"projectId","type":"string"},{"internalType":"uint256","name":"newPrice","type":"uint256"}],"name":"updateListingPrice","outputs":[],"stateMutability":"nonpayable","type":"function"},{"inputs":[{"internalType":"uint256","name":"newFeePercentage","type":"uint256"}],"name":"updatePlatformFee","outputs":[],"stateMutability":"nonpayable","type":"function"},{"inputs":[],"name":"usdcToken","outputs":[{"internalType":"contract IERC20","name":"","type":"address"}],"stateMutability":"view","type":"function"},{"inputs":[],"name":"withdrawPlatformFees","outputs":[],"stateMutability":"nonpayable","type":"function"},{"inputs":[],"name":"withdrawPlatformFeesUSDC","outputs":[],"stateMutability":"nonpayable","type":"function"}],"evm":{"bytecode":{"linkReferences":{},"object":"60a0346200014557601f62002d3d38819003918201601f19168301916001600160401b038311848410176200014a57808492604094855283398101031262000145576200005a6020620000528362000160565b920162000160565b33156200012c5760008054336001600160a01b0319808316821784556040519590946001600160a01b03949093859391908416907f8be0079c531659141344cd1fd0a4f28419497f9722a3daafe3b4186f6b6457e09080a360018055600160075560fa600955168360025416176002551690600354161760035573833589fcd6edb6e08f4c7c32d4f71b54bda02913608052612bc790816200017682396080518181816103ba015281816104ce01528181610a0f01528181610d930152818161136601528181611def0152612ae70152f35b604051631e4fbdf760e01b815260006004820152602490fd5b600080fd5b634e487b7160e01b600052604160045260246000fd5b51906001600160a01b0382168203620001455756fe60806040908082526004908136101561001757600080fd5b600090813560e01c90816311eac85514611ddb5750806313b06915146119bf5780631663ee03146119965780635f5d06551461197757806361cf486314611911578063715018a6146118b757806377dec6c3146118085780637b55927c146117e95780638a72ea6a1461174e5780638da5cb5b146117265780639122d55314611647578063943f22611461154a578063a22355581461107a578063a3a6705814611021578063aa0b598814610fb5578063bb09d9b714610f86578063c7ef967214610b50578063c815729d1461074e578063cdd78cfc1461072f578063ce0769c514610706578063d0b7830b14610687578063d73792a91461066a578063d9aa187c14610626578063dceb768614610495578063ef706adf146102ba578063f2fde38b146102275763f941fb991461014e57600080fd5b3461022457602091826003193601126102205780356001600160401b03811161021c579261018461019692829695369101611e83565b8185519382858094519384920161200f565b81016006815203019020908251808584549182815201908194845286842090845b81811061020857505050816101cd910382611e47565b83519485948186019282875251809352850193925b8281106101f157505050500390f35b8351855286955093810193928101926001016101e2565b8254845292880192600192830192016101b7565b8280fd5b5080fd5b80fd5b50913461021c57602036600319011261021c576001600160a01b038235818116939192908490036102b65761025a6120ab565b83156102a0575050600054826001600160601b0360a01b821617600055167f8be0079c531659141344cd1fd0a4f28419497f9722a3daafe3b4186f6b6457e0600080a380f35b51631e4fbdf760e01b8152908101849052602490fd5b8480fd5b5091903461021c5760209182600319360112610491578135916102db61252e565b8285526005845281852093600685018054926102f960ff8516612560565b60018701546001600160a01b0392908316330361044e5760028801549460ff1916905560ff600388015416600281101561043b57889392919061038d5750505080808061035194335af161034b6124fe565b506126b7565b518061035e813395612635565b039020907fa73002eb00b7f458173aec22cf4445bbdb98267f801a7fe3d22dba9382338cdb8480a46001805580f35b855163a9059cbb60e01b8152339181019182526020820195909552919283928592918391829060400103927f0000000000000000000000000000000000000000000000000000000000000000165af19081156104315786916103fa575b506103f591506126b7565b610351565b905081813d831161042a575b6104108183611e47565b810103126102b6576104246103f59161217c565b386103ea565b503d610406565b83513d88823e3d90fd5b634e487b7160e01b895260218252602489fd5b855162461bcd60e51b8152808301859052601b60248201527f4f6e6c792062757965722063616e2063616e63656c206f6666657200000000006044820152606490fd5b8380fd5b5082346102205781600319360112610220576104af6120ab565b80516370a0823160e01b81523084820152926020906001600160a01b037f0000000000000000000000000000000000000000000000000000000000000000811691908387602481865afa96871561061c5786976105e8575b5086156105a5578554855163a9059cbb60e01b815291166001600160a01b031691810191825260208201969096529394938291859182908890829060400103925af191821561059c57508391610565575b83610562836126f3565b80f35b905081813d8311610595575b61057b8183611e47565b810103126102205761058f6105629161217c565b83610558565b503d610571565b513d85823e3d90fd5b845162461bcd60e51b8152808301859052601860248201527f4e6f2055534443206665657320746f20776974686472617700000000000000006044820152606490fd5b9096508381813d8311610615575b6106008183611e47565b8101031261061057519587610507565b600080fd5b503d6105f6565b85513d88823e3d90fd5b50903461022057602036600319011261022057356001600160a01b03811690819003610220576106546120ab565b6001600160601b0360a01b600354161760035580f35b508234610220578160031936011261022057602090516127108152f35b5091903461021c578260031936011261021c576106a26120ab565b479182156106cd5783610562818080808860018060a01b038254165af16106c76124fe565b506126f3565b906020606492519162461bcd60e51b835282015260136024820152724e6f206665657320746f20776974686472617760681b6044820152fd5b50823461022057816003193601126102205760025490516001600160a01b039091168152602090f35b5082346102205781600319360112610220576020906009549051908152f35b5091903461021c576020806003193601126104915781359161076e61252e565b8285526005825283852093600685019161078b60ff845416612560565b6005860154421015610b1f576002548251630cd5286d60e41b81528281018690526001600160a01b039791899082908a1681806107cb602482018861259f565b03915afa8015610b155789918a91610ae2575b506107e89061222b565b8733911603610aa057600281019687549261081361271061080b6009548761247c565b0480956124a5565b60ff6003850154166002811015610a8d57888c91156000146109e3575080808061084894335af16108426124fe565b506124b2565b8160025416908a60018501928484541690803b1561021c578851632203f8f160e01b81528481018a9052918391839182908490829061088a604483018e61259f565b90602483015203925af180156109d9576109b9575b5050907f8c68d600771ad8af3c86a9f96bd5c471eca94aebd78ea274787f8e95e07aaa109661096b94939260ff199182815416905560ff600589518c816108e6818b612635565b86815203019020015416610981575b505061090861090384611f69565b612936565b54168098549785518061091b8186612635565b03902086516001600160a01b03939093168352602083018a905233929091907f9332956e0c3dd558cabf109a274fd9184f7cd2081da1b9d9e28e702cf8a6cc5990604090a4835191828092612635565b0390209382519586528501523393a46001805580f35b6005908a89518092610993828a612635565b90815203019020019081541690556109b26109ad84611f69565b61280f565b38806108f5565b6109c7909594939295611e1e565b6109d5579091928a3861089f565b8a80fd5b88513d84823e3d90fd5b875163a9059cbb60e01b81523385820190815260208101949094529290918391829081906040010391877f0000000000000000000000000000000000000000000000000000000000000000165af18015610a83578b90610a4d575b610a4891506124b2565b610848565b508781813d8311610a7c575b610a638183611e47565b810103126109d557610a77610a489161217c565b610a3e565b503d610a59565b86513d8d823e3d90fd5b634e487b7160e01b8c526021835260248cfd5b5083606492519162461bcd60e51b8352820152601b60248201527f4f6e6c79206f776e65722063616e20616363657074206f6666657200000000006044820152fd5b6107e89250610b0391503d808c833e610afb8183611e47565b810190612189565b509897505050935050505091906107de565b84513d8b823e3d90fd5b83606492519162461bcd60e51b8352820152600d60248201526c13d999995c88195e1c1a5c9959609a1b6044820152fd5b5091906020806003193601126104915781356001600160401b0381116102b657610b7d9036908401611e83565b92610b8661252e565b805182818651610b998183858b0161200f565b8101868152030190209260058401610bb460ff82541661243b565b6001850180546001600160a01b0390811693909290338514610f4357600288019788549560ff6003610bf6612710610bee6009548c61247c565b04809a6124a5565b930154166002811015610f3057610d5d575088543403610d1a578a808080610c2694898954165af16108426124fe565b89846002541691823b1561022057610c5c9288838d93825196879586948593632203f8f160e01b85528401526044830190612032565b33602483015203925af18015610d1057610cd1575b50805460ff191690557f8c68d600771ad8af3c86a9f96bd5c471eca94aebd78ea274787f8e95e07aaa10939291610cbe91610cab8961280f565b610cb489612936565b541695549661241b565b9382519687528601523394a46001805580f35b917f8c68d600771ad8af3c86a9f96bd5c471eca94aebd78ea274787f8e95e07aaa109594939199610d04610cbe94611e1e565b99919394955091610c71565b86513d8c823e3d90fd5b865162461bcd60e51b8152808301899052601960248201527f45786163742045544820616d6f756e74207265717569726564000000000000006044820152606490fd5b9034610ee35787516323b872dd60e01b808252338583019081526001600160a01b03909416602085015260408401929092528c927f0000000000000000000000000000000000000000000000000000000000000000881691908b9082908190606001038187865af1908115610ed957908b9392918591610ea0575b50610de2906124b2565b895191825233858301908152306020820152604081018a905291938492839190829060600103925af1908115610e96578b91610e61575b50610c2657855162461bcd60e51b8152908101879052601c60248201527f506c6174666f726d20666565207472616e73666572206661696c6564000000006044820152606490fd5b90508781813d8311610e8f575b610e788183611e47565b810103126109d557610e899061217c565b38610e19565b503d610e6e565b87513d8d823e3d90fd5b84819592503d8311610ed2575b610eb78183611e47565b8101031261049157610de2610ecc8c9461217c565b90610dd8565b503d610ead565b8a513d86823e3d90fd5b875162461bcd60e51b81528084018a9052602160248201527f446f206e6f742073656e642045544820666f72205553444320707572636861736044820152606560f81b6064820152608490fd5b634e487b7160e01b8d526021845260248dfd5b855162461bcd60e51b8152908101879052601960248201527f43616e6e6f742062757920796f7572206f776e206173736574000000000000006044820152606490fd5b5082346102205781600319360112610220576020905173833589fcd6edb6e08f4c7c32d4f71b54bda029138152f35b5091903461021c57602036600319011261021c57803591610fd46120ab565b6103e88311610fe557505060095580f35b906020606492519162461bcd60e51b8352820152601660248201527546656520746f6f206869676820286d6178203130252960501b6044820152fd5b5082346102205760209161104b6110373661207a565b94908185519382858094519384920161200f565b81016006815203019020908154841015610224575060209261106c91611f17565b91905490519160031b1c8152f35b509190608036600319011261021c576001600160401b0381358181116102b6576110a79036908401611e83565b92602491823594604494853594600286101561154657606493843596891561150e57610e1088101580611501575b156114ce576002548751630cd5286d60e41b815260208682018190529a6001600160a01b03989290918e91829082908c1681806111148c82018f612032565b03915afa9081156114c457828092611498575b50506111329061222b565b8816331461145a5782611330578b34036112fc5750505b6007549761115689612551565b6007554201958642116112ea5787519260e08401908111848210176112d85789928c8e8a948e948d528a88526111c78d868a0193338552818b019586526111a160608c0197886122d4565b600560808c0198428a5260a08d019a8b5260c08d019b60018d528352522098518961233c565b600188019151166001600160601b0360a01b8254161790555160028601555160028110156112c6579184939161120560069460036112269801612403565b518785015551600584015551151591019060ff801983541691151516179055565b8451878185516112398183858a0161200f565b8101600681520301902090815492600160401b8410156112b55750509161128c827fcfed541454dac78f93da97764a61638d187363e6d64a389faa86edcaaf8932bc96959460016112a695018155611f17565b81549060031b9088821b91600019901b191617905561241b565b9482519687528601523394a480f35b634e487b7160e01b8b526041905289fd5b634e487b7160e01b8e5260218752858efd5b634e487b7160e01b8d5260418652848dfd5b634e487b7160e01b8c5260118552838cfd5b7208aa89040c2dadeeadce840dad2e6dac2e8c6d606b1b86916013878e8d519562461bcd60e51b8752860152840152820152fd5b3461141c5788516323b872dd60e01b815233878201908152306020820152604081018e90528e91908d90829081900360600181857f00000000000000000000000000000000000000000000000000000000000000008f165af191821561141157916113d8575b50156113a3575050611149565b731554d110c81d1c985b9cd9995c8819985a5b195960621b86916014878e8d519562461bcd60e51b8752860152840152820152fd5b90508b81813d831161140a575b6113ef8183611e47565b81010312611406576114009061217c565b38611396565b8d80fd5b503d6113e5565b8b51903d90823e3d90fd5b7f446f206e6f742073656e642045544820666f722055534443206f6666657200008691601e878e8d519562461bcd60e51b8752860152840152820152fd5b7f43616e6e6f74206f66666572206f6e20796f7572206f776e20617373657400008691601e878e8d519562461bcd60e51b8752860152840152820152fd5b61113293506114b192503d8091833e610afb8183611e47565b509897505050935050505091908f611127565b8b513d84823e3d90fd5b865162461bcd60e51b81526020818601526010818501526f24b73b30b634b210323ab930ba34b7b760811b818b01528690fd5b5062278d008811156110d5565b865162461bcd60e51b8152602081860152601581850152744f66666572206d75737420686176652076616c756560581b818b01528690fd5b8880fd5b50913461021c57602036600319011261021c5781356001600160401b0381116104915761157a9036908401611e83565b918151602081855161158f8183858a0161200f565b8101848152030190209060058201928354926115ad60ff851661243b565b600101546001600160a01b0316330361160b57505060ff191690556115d18161280f565b6115da81612936565b6115e4339161241b565b7f0ad06290f905050c9dac577e139b4b450621b456073e716db7561a52f3ff89288380a380f35b906020606492519162461bcd60e51b8352820152601660248201527513db9b1e481cd95b1b195c8818d85b8818d85b98d95b60521b6044820152fd5b50913461021c576116573661207a565b928251602081845161166c818385890161200f565b8101848152030190209061168660ff60058401541661243b565b60018201546001600160a01b031633036116ea5750906116db60027f702cf1ff9b007b1ce6285f06d88972428a71330a6f9bc7ac9b49803661dd7bde94936116cf8715156120d7565b0191858354935561241b565b9382519182526020820152a280f35b606490602085519162461bcd60e51b835282015260166024820152754f6e6c792073656c6c65722063616e2075706461746560501b6044820152fd5b508234610220578160031936011261022057905490516001600160a01b039091168152602090f35b5091903461021c57602036600319011261021c57816117c193823581526005602052209161177b83611f69565b9260018060a01b03600182015416926117d460028301549160ff600385015416908401549260ff6006600587015496015416958051998a9960e08b5260e08b0190612032565b9760208a01528801526060870190612057565b608085015260a0840152151560c08301520390f35b5082346102205781600319360112610220576020906008549051908152f35b5091903461021c57602036600319011261021c578035926001600160401b038411610224575061184360206101846118949536908501611e83565b8101848152030190209161185683611f69565b926118a760018060a01b0360018301541693600283015460ff600581600387015416938601549501541694805198899860c08a5260c08a0190612032565b9660208901528701526060860190612057565b6080840152151560a08301520390f35b50346102245780600319360112610224576118d06120ab565b80546001600160a01b03198116825581906001600160a01b03167f8be0079c531659141344cd1fd0a4f28419497f9722a3daafe3b4186f6b6457e08280a380f35b508290346102245760203660031901126102245782356008548110156102205761193a90611eca565b939093611965576119618361194e86611f69565b9051918291602083526020830190612032565b0390f35b634e487b7160e01b8252819052602490fd5b5082346102205781600319360112610220576020906007549051908152f35b50823461022057816003193601126102205760035490516001600160a01b039091168152602090f35b50913461021c57606036600319011261021c576001600160401b039082358281116102b6576119f19036908501611e83565b602493843594604435946002861015611dd757611a0f8715156120d7565b84519584519060ff60056020998a81818b0196611a2d81838a61200f565b81018a815203019020015416611d9e576002548751630cd5286d60e41b81528681018a90526001600160a01b03918c90829084168180611a6f8b82018e612032565b03915afa8015611d94578c918d91611d69575b50611a8c9061222b565b8133911603611d2757806003541680611c1d575b5087519360c0850190811185821017611c0b5790889392918452878552898501338152848601918c8352611ad86060880194856122d4565b611b11611b008d60808a01974289528d60a08c019a60018c525193849283925192839161200f565b81018d81520301902097518861233c565b600187019151166001600160601b0360a01b825416179055516002850155516002811015611bf95791600591611b4e85946003611b699701612403565b518684015551151591019060ff801983541691151516179055565b600854600160401b811015611be757806001611b889201600855611eca565b929092611bd757505081611bc17ff34a4c127ff02f03c1d1fb093bb2c95ec0cfd3c38220b818ef19234533c6b96c9493611bc69361233c565b61241b565b92815194855242908501523393a380f35b634e487b7160e01b885287905286fd5b50634e487b7160e01b87526041825286fd5b634e487b7160e01b8b5260218652848bfd5b634e487b7160e01b8c5260418752858cfd5b8851631833b57b60e11b81528781018b90528a8180611c3e8a82018d612032565b0381855afa908d821561141157898c8e938d9395611cf4575b50516373a6fe8960e01b81529081018390529293839182908190611c7e908d830190612032565b03915afa908115611cea578d91611cb9575b5083611ca85750611ca2908b11612277565b38611aa0565b611cb491508b11612277565b611ca2565b90508a81813d8311611ce3575b611cd08183611e47565b81010312611cdf575138611c90565b8c80fd5b503d611cc6565b8a513d8f823e3d90fd5b945050505081813d8311611d20575b611d0d8183611e47565b81010312611cdf57518a89898c83611c57565b503d611d03565b875162461bcd60e51b81528087018a90526019818701527f4f6e6c79206f776e65722063616e206c697374206173736574000000000000006044820152606490fd5b611a8c9250611d8291503d808f833e610afb8183611e47565b50989750505093505050509190611a82565b89513d8e823e3d90fd5b865162461bcd60e51b815280860189905260148186015273105cdcd95d08185b1c9958591e481b1a5cdd195960621b6044820152606490fd5b8780fd5b9050346102205781600319360112610220577f00000000000000000000000000000000000000000000000000000000000000006001600160a01b03168152602090f35b6001600160401b038111611e3157604052565b634e487b7160e01b600052604160045260246000fd5b90601f801991011681019081106001600160401b03821117611e3157604052565b6001600160401b038111611e3157601f01601f191660200190565b81601f8201121561061057803590611e9a82611e68565b92611ea86040519485611e47565b8284526020838301011161061057816000926020809301838601378301015290565b600854811015611f015760086000527ff3f7a9fe364faab93b216da50a3214154f22a0a2b415b23a84c8169e8b636ee30190600090565b634e487b7160e01b600052603260045260246000fd5b8054821015611f015760005260206000200190600090565b90600182811c92168015611f5f575b6020831014611f4957565b634e487b7160e01b600052602260045260246000fd5b91607f1691611f3e565b9060405191826000825492611f7d84611f2f565b908184526001948581169081600014611fec5750600114611fa9575b5050611fa792500383611e47565b565b9093915060005260209081600020936000915b818310611fd4575050611fa793508201013880611f99565b85548884018501529485019487945091830191611fbc565b915050611fa794506020925060ff191682840152151560051b8201013880611f99565b60005b8381106120225750506000910152565b8181015183820152602001612012565b9060209161204b8151809281855285808601910161200f565b601f01601f1916010190565b9060028210156120645752565b634e487b7160e01b600052602160045260246000fd5b604060031982011261061057600435906001600160401b038211610610576120a491600401611e83565b9060243590565b6000546001600160a01b031633036120bf57565b60405163118cdaa760e01b8152336004820152602490fd5b156120de57565b60405162461bcd60e51b815260206004820152601c60248201527f5072696365206d7573742062652067726561746572207468616e2030000000006044820152606490fd5b81601f8201121561061057805161213981611e68565b926121476040519485611e47565b8184526020828401011161061057612165916020808501910161200f565b90565b51906001600160a01b038216820361061057565b5190811515820361061057565b61014081830312610610578051926001600160401b039384811161061057836121b3918401612123565b93602083015181811161061057846121cc918501612123565b936040840151918211610610576121e4918401612123565b916060810151916080820151916121fd60a08201612168565b9161220a60c08301612168565b9160e081015191612165610120612224610100850161217c565b930161217c565b1561223257565b60405162461bcd60e51b815260206004820152601a60248201527f4173736574206e6f7420666f756e6420696e206c6962726172790000000000006044820152606490fd5b1561227e57565b60405162461bcd60e51b815260206004820152602860248201527f5072696365206d75737420626520686967686572207468616e20726f79616c746044820152671a595cc81c185a5960c21b6064820152608490fd5b60028210156120645752565b8181106122eb575050565b600081556001016122e0565b9190601f811161230657505050565b611fa7926000526020600020906020601f840160051c83019310612332575b601f0160051c01906122e0565b9091508190612325565b91909182516001600160401b038111611e31576123638161235d8454611f2f565b846122f7565b602080601f831160011461239f575081929394600092612394575b50508160011b916000199060031b1c1916179055565b01519050388061237e565b90601f198316958460005282600020926000905b8882106123eb575050836001959697106123d2575b505050811b019055565b015160001960f88460031b161c191690553880806123c8565b806001859682949686015181550195019301906123b3565b9060028110156120645760ff80198354169116179055565b6124339060206040519282848094519384920161200f565b810103902090565b1561244257565b60405162461bcd60e51b81526020600482015260126024820152714c697374696e67206e6f742061637469766560701b6044820152606490fd5b8181029291811591840414171561248f57565b634e487b7160e01b600052601160045260246000fd5b9190820391821161248f57565b156124b957565b60405162461bcd60e51b815260206004820152601860248201527f5061796d656e7420746f2073656c6c6572206661696c656400000000000000006044820152606490fd5b3d15612529573d9061250f82611e68565b9161251d6040519384611e47565b82523d6000602084013e565b606090565b60026001541461253f576002600155565b604051633ee5aeb560e01b8152600490fd5b600019811461248f5760010190565b1561256757565b60405162461bcd60e51b815260206004820152601060248201526f4f66666572206e6f742061637469766560801b6044820152606490fd5b90600092918054916125b083611f2f565b91828252600193848116908160001461261257506001146125d2575b50505050565b90919394506000526020928360002092846000945b8386106125fe5750505050010190388080806125cc565b8054858701830152940193859082016125e7565b9294505050602093945060ff191683830152151560051b010190388080806125cc565b60009291815461264481611f2f565b9260019180831690811561269c57506001146126605750505050565b90919293945060005260209081600020906000915b85831061268b57505050500190388080806125cc565b805485840152918301918101612675565b60ff19168452505050811515909102019150388080806125cc565b156126be57565b60405162461bcd60e51b815260206004820152600d60248201526c1499599d5b990819985a5b1959609a1b6044820152606490fd5b156126fa57565b60405162461bcd60e51b815260206004820152601160248201527015da5d1a191c985dd85b0819985a5b1959607a1b6044820152606490fd5b9080821461280b576127458154611f2f565b906001600160401b038211611e3157819061276a826127648654611f2f565b866122f7565b600090601f83116001146127a0576000926127955750508160011b916000199060031b1c1916179055565b01549050388061237e565b81526020808220858352818320935090601f1985169083905b8282106127f25750509084600195949392106127d957505050811b019055565b015460001960f88460031b161c191690553880806123c8565b84958192958501548155600180910196019401906127b9565b5050565b60005b6008805490818310156125cc5761283c9161284361282f85611eca565b506040519485809261259f565b0384611e47565b8251602080940120855184870120146128675750505061286290612551565b612812565b919350916000199182810190811161248f5761288561288c91611eca565b5091611eca565b91909161290a5761289c91612733565b815480156129205701916128af83611eca565b61290a576128bd8154611f2f565b806128c9575b50505055565b600092601f908183116001146128e657505050555b3880806128c3565b83916129039186949585528420940160051c8401600185016122e0565b55556128de565b634e487b7160e01b600052600060045260246000fd5b634e487b7160e01b600052603160045260246000fd5b906040918251815160209061294e818484870161200f565b8201918181600694858152030190209460005b8654811015612b88576129748188611f17565b9054600391821b1c60005260058452826000209085820180549060ff918281166129ac575b50505050506129a790612551565b612961565b60ff19169055828201546002916000911682811015612b7457612aac5750906129a7939291600080808060018060a01b0360018801541685880154905af16129f26124fe565b505b15612a535750612a04838b611f17565b90546001909301546001600160a01b031692911b1c612a228861241b565b907fa73002eb00b7f458173aec22cf4445bbdb98267f801a7fe3d22dba9382338cdb600080a45b9038808080612999565b90612a5e848c611f17565b9054911b1c9060018060a01b03600184015416920154907f9fdd6fddb8dfea391c0580cc31bc495423ae195ab3ae95994ff20a15aa3b2b4d87612aa08b61241b565b938851908152a4612a49565b600184015482850154875163a9059cbb60e01b81526001600160a01b03928316600482015260248101919091529088908290604490829086907f0000000000000000000000000000000000000000000000000000000000000000165af1918215612b69578092612b26575b5050906129a7949392916129f4565b9091508782813d8311612b62575b612b3e8183611e47565b81010312610224575090612b576129a79594939261217c565b909192939438612b17565b503d612b34565b8751903d90823e3d90fd5b634e487b7160e01b82526021600452602482fd5b5050505050905056fea2646970667358221220b40c7e7c28c6160b272e0db4b24b0ed295b68ca5fb8349971cf33ad7d89c519764736f6c63430008140033","opcodes":"PUSH1 0xA0 CALLVALUE PUSH3 0x145 JUMPI PUSH1 0x1F PUSH3 0x2D3D CODESIZE DUP2 SWAP1 SUB SWAP2 DUP3 ADD PUSH1 0x1F NOT AND DUP4 ADD SWAP2 PUSH1 0x1 PUSH1 0x1 PUSH1 0x40 SHL SUB DUP4 GT DUP5 DUP5 LT OR PUSH3 0x14A JUMPI DUP1 DUP5 SWAP3 PUSH1 0x40 SWAP5 DUP6 MSTORE DUP4 CODECOPY DUP2 ADD SUB SLT PUSH3 0x145 JUMPI PUSH3 0x5A PUSH1 0x20 PUSH3 0x52 DUP4 PUSH3 0x160 JUMP JUMPDEST SWAP3 ADD PUSH3 0x160 JUMP JUMPDEST CALLER ISZERO PUSH3 0x12C JUMPI PUSH1 0x0 DUP1 SLOAD CALLER PUSH1 0x1 PUSH1 0x1 PUSH1 0xA0 SHL SUB NOT DUP1 DUP4 AND DUP3 OR DUP5 SSTORE PUSH1 0x40 MLOAD SWAP6 SWAP1 SWAP5 PUSH1 0x1 PUSH1 0x1 PUSH1 0xA0 SHL SUB SWAP5 SWAP1 SWAP4 DUP6 SWAP4 SWAP2 SWAP1 DUP5 AND SWAP1 PUSH32 0x8BE0079C531659141344CD1FD0A4F28419497F9722A3DAAFE3B4186F6B6457E0 SWAP1 DUP1 LOG3 PUSH1 0x1 DUP1 SSTORE PUSH1 0x1 PUSH1 0x7 SSTORE PUSH1 0xFA PUSH1 0x9 SSTORE AND DUP4 PUSH1 0x2 SLOAD AND OR PUSH1 0x2 SSTORE AND SWAP1 PUSH1 0x3 SLOAD AND OR PUSH1 0x3 SSTORE PUSH20 0x833589FCD6EDB6E08F4C7C32D4F71B54BDA02913 PUSH1 0x80 MSTORE PUSH2 0x2BC7 SWAP1 DUP2 PUSH3 0x176 DUP3 CODECOPY PUSH1 0x80 MLOAD DUP2 DUP2 DUP2 PUSH2 0x3BA ADD MSTORE DUP2 DUP2 PUSH2 0x4CE ADD MSTORE DUP2 DUP2 PUSH2 0xA0F ADD MSTORE DUP2 DUP2 PUSH2 0xD93 ADD MSTORE DUP2 DUP2 PUSH2 0x1366 ADD MSTORE DUP2 DUP2 PUSH2 0x1DEF ADD MSTORE PUSH2 0x2AE7 ADD MSTORE RETURN JUMPDEST PUSH1 0x40 MLOAD PUSH4 0x1E4FBDF7 PUSH1 0xE0 SHL DUP2 MSTORE PUSH1 0x0 PUSH1 0x4 DUP3 ADD MSTORE PUSH1 0x24 SWAP1 REVERT JUMPDEST PUSH1 0x0 DUP1 REVERT JUMPDEST PUSH4 0x4E487B71 PUSH1 0xE0 SHL PUSH1 0x0 MSTORE PUSH1 0x41 PUSH1 0x4 MSTORE PUSH1 0x24 PUSH1 0x0 REVERT JUMPDEST MLOAD SWAP1 PUSH1 0x1 PUSH1 0x1 PUSH1 0xA0 SHL SUB DUP3 AND DUP3 SUB PUSH3 0x145 JUMPI JUMP INVALID PUSH1 0x80 PUSH1 0x40 SWAP1 DUP1 DUP3 MSTORE PUSH1 0x4 SWAP1 DUP2 CALLDATASIZE LT ISZERO PUSH2 0x17 JUMPI PUSH1 0x0 DUP1 REVERT JUMPDEST PUSH1 0x0 SWAP1 DUP2 CALLDATALOAD PUSH1 0xE0 SHR SWAP1 DUP2 PUSH4 0x11EAC855 EQ PUSH2 0x1DDB JUMPI POP DUP1 PUSH4 0x13B06915 EQ PUSH2 0x19BF JUMPI DUP1 PUSH4 0x1663EE03 EQ PUSH2 0x1996 JUMPI DUP1 PUSH4 0x5F5D0655 EQ PUSH2 0x1977 JUMPI DUP1 PUSH4 0x61CF4863 EQ PUSH2 0x1911 JUMPI DUP1 PUSH4 0x715018A6 EQ PUSH2 0x18B7 JUMPI DUP1 PUSH4 0x77DEC6C3 EQ PUSH2 0x1808 JUMPI DUP1 PUSH4 0x7B55927C EQ PUSH2 0x17E9 JUMPI DUP1 PUSH4 0x8A72EA6A EQ PUSH2 0x174E JUMPI DUP1 PUSH4 0x8DA5CB5B EQ PUSH2 0x1726 JUMPI DUP1 PUSH4 0x9122D553 EQ PUSH2 0x1647 JUMPI DUP1 PUSH4 0x943F2261 EQ PUSH2 0x154A JUMPI DUP1 PUSH4 0xA2235558 EQ PUSH2 0x107A JUMPI DUP1 PUSH4 0xA3A67058 EQ PUSH2 0x1021 JUMPI DUP1 PUSH4 0xAA0B5988 EQ PUSH2 0xFB5 JUMPI DUP1 PUSH4 0xBB09D9B7 EQ PUSH2 0xF86 JUMPI DUP1 PUSH4 0xC7EF9672 EQ PUSH2 0xB50 JUMPI DUP1 PUSH4 0xC815729D EQ PUSH2 0x74E JUMPI DUP1 PUSH4 0xCDD78CFC EQ PUSH2 0x72F JUMPI DUP1 PUSH4 0xCE0769C5 EQ PUSH2 0x706 JUMPI DUP1 PUSH4 0xD0B7830B EQ PUSH2 0x687 JUMPI DUP1 PUSH4 0xD73792A9 EQ PUSH2 0x66A JUMPI DUP1 PUSH4 0xD9AA187C EQ PUSH2 0x626 JUMPI DUP1 PUSH4 0xDCEB7686 EQ PUSH2 0x495 JUMPI DUP1 PUSH4 0xEF706ADF EQ PUSH2 0x2BA JUMPI DUP1 PUSH4 0xF2FDE38B EQ PUSH2 0x227 JUMPI PUSH4 0xF941FB99 EQ PUSH2 0x14E JUMPI PUSH1 0x0 DUP1 REVERT JUMPDEST CALLVALUE PUSH2 0x224 JUMPI PUSH1 0x20 SWAP2 DUP3 PUSH1 0x3 NOT CALLDATASIZE ADD SLT PUSH2 0x220 JUMPI DUP1 CALLDATALOAD PUSH1 0x1 PUSH1 0x1 PUSH1 0x40 SHL SUB DUP2 GT PUSH2 0x21C JUMPI SWAP3 PUSH2 0x184 PUSH2 0x196 SWAP3 DUP3 SWAP7 SWAP6 CALLDATASIZE SWAP2 ADD PUSH2 0x1E83 JUMP JUMPDEST DUP2 DUP6 MLOAD SWAP4 DUP3 DUP6 DUP1 SWAP5 MLOAD SWAP4 DUP5 SWAP3 ADD PUSH2 0x200F JUMP JUMPDEST DUP2 ADD PUSH1 0x6 DUP2 MSTORE SUB ADD SWAP1 KECCAK256 SWAP1 DUP3 MLOAD DUP1 DUP6 DUP5 SLOAD SWAP2 DUP3 DUP2 MSTORE ADD SWAP1 DUP2 SWAP5 DUP5 MSTORE DUP7 DUP5 KECCAK256 SWAP1 DUP5 JUMPDEST DUP2 DUP2 LT PUSH2 0x208 JUMPI POP POP POP DUP2 PUSH2 0x1CD SWAP2 SUB DUP3 PUSH2 0x1E47 JUMP JUMPDEST DUP4 MLOAD SWAP5 DUP6 SWAP5 DUP2 DUP7 ADD SWAP3 DUP3 DUP8 MSTORE MLOAD DUP1 SWAP4 MSTORE DUP6 ADD SWAP4 SWAP3 JUMPDEST DUP3 DUP2 LT PUSH2 0x1F1 JUMPI POP POP POP POP SUB SWAP1 RETURN JUMPDEST DUP4 MLOAD DUP6 MSTORE DUP7 SWAP6 POP SWAP4 DUP2 ADD SWAP4 SWAP3 DUP2 ADD SWAP3 PUSH1 0x1 ADD PUSH2 0x1E2 JUMP JUMPDEST DUP3 SLOAD DUP5 MSTORE SWAP3 DUP9 ADD SWAP3 PUSH1 0x1 SWAP3 DUP4 ADD SWAP3 ADD PUSH2 0x1B7 JUMP JUMPDEST DUP3 DUP1 REVERT JUMPDEST POP DUP1 REVERT JUMPDEST DUP1 REVERT JUMPDEST POP SWAP2 CALLVALUE PUSH2 0x21C JUMPI PUSH1 0x20 CALLDATASIZE PUSH1 0x3 NOT ADD SLT PUSH2 0x21C JUMPI PUSH1 0x1 PUSH1 0x1 PUSH1 0xA0 SHL SUB DUP3 CALLDATALOAD DUP2 DUP2 AND SWAP4 SWAP2 SWAP3 SWAP1 DUP5 SWAP1 SUB PUSH2 0x2B6 JUMPI PUSH2 0x25A PUSH2 0x20AB JUMP JUMPDEST DUP4 ISZERO PUSH2 0x2A0 JUMPI POP POP PUSH1 0x0 SLOAD DUP3 PUSH1 0x1 PUSH1 0x1 PUSH1 0x60 SHL SUB PUSH1 0xA0 SHL DUP3 AND OR PUSH1 0x0 SSTORE AND PUSH32 0x8BE0079C531659141344CD1FD0A4F28419497F9722A3DAAFE3B4186F6B6457E0 PUSH1 0x0 DUP1 LOG3 DUP1 RETURN JUMPDEST MLOAD PUSH4 0x1E4FBDF7 PUSH1 0xE0 SHL DUP2 MSTORE SWAP1 DUP2 ADD DUP5 SWAP1 MSTORE PUSH1 0x24 SWAP1 REVERT JUMPDEST DUP5 DUP1 REVERT JUMPDEST POP SWAP2 SWAP1 CALLVALUE PUSH2 0x21C JUMPI PUSH1 0x20 SWAP2 DUP3 PUSH1 0x3 NOT CALLDATASIZE ADD SLT PUSH2 0x491 JUMPI DUP2 CALLDATALOAD SWAP2 PUSH2 0x2DB PUSH2 0x252E JUMP JUMPDEST DUP3 DUP6 MSTORE PUSH1 0x5 DUP5 MSTORE DUP2 DUP6 KECCAK256 SWAP4 PUSH1 0x6 DUP6 ADD DUP1 SLOAD SWAP3 PUSH2 0x2F9 PUSH1 0xFF DUP6 AND PUSH2 0x2560 JUMP JUMPDEST PUSH1 0x1 DUP8 ADD SLOAD PUSH1 0x1 PUSH1 0x1 PUSH1 0xA0 SHL SUB SWAP3 SWAP1 DUP4 AND CALLER SUB PUSH2 0x44E JUMPI PUSH1 0x2 DUP9 ADD SLOAD SWAP5 PUSH1 0xFF NOT AND SWAP1 SSTORE PUSH1 0xFF PUSH1 0x3 DUP9 ADD SLOAD AND PUSH1 0x2 DUP2 LT ISZERO PUSH2 0x43B JUMPI DUP9 SWAP4 SWAP3 SWAP2 SWAP1 PUSH2 0x38D JUMPI POP POP POP DUP1 DUP1 DUP1 PUSH2 0x351 SWAP5 CALLER GAS CALL PUSH2 0x34B PUSH2 0x24FE JUMP JUMPDEST POP PUSH2 0x26B7 JUMP JUMPDEST MLOAD DUP1 PUSH2 0x35E DUP2 CALLER SWAP6 PUSH2 0x2635 JUMP JUMPDEST SUB SWAP1 KECCAK256 SWAP1 PUSH32 0xA73002EB00B7F458173AEC22CF4445BBDB98267F801A7FE3D22DBA9382338CDB DUP5 DUP1 LOG4 PUSH1 0x1 DUP1 SSTORE DUP1 RETURN JUMPDEST DUP6 MLOAD PUSH4 0xA9059CBB PUSH1 0xE0 SHL DUP2 MSTORE CALLER SWAP2 DUP2 ADD SWAP2 DUP3 MSTORE PUSH1 0x20 DUP3 ADD SWAP6 SWAP1 SWAP6 MSTORE SWAP2 SWAP3 DUP4 SWAP3 DUP6 SWAP3 SWAP2 DUP4 SWAP2 DUP3 SWAP1 PUSH1 0x40 ADD SUB SWAP3 PUSH32 0x0 AND GAS CALL SWAP1 DUP2 ISZERO PUSH2 0x431 JUMPI DUP7 SWAP2 PUSH2 0x3FA JUMPI JUMPDEST POP PUSH2 0x3F5 SWAP2 POP PUSH2 0x26B7 JUMP JUMPDEST PUSH2 0x351 JUMP JUMPDEST SWAP1 POP DUP2 DUP2 RETURNDATASIZE DUP4 GT PUSH2 0x42A JUMPI JUMPDEST PUSH2 0x410 DUP2 DUP4 PUSH2 0x1E47 JUMP JUMPDEST DUP2 ADD SUB SLT PUSH2 0x2B6 JUMPI PUSH2 0x424 PUSH2 0x3F5 SWAP2 PUSH2 0x217C JUMP JUMPDEST CODESIZE PUSH2 0x3EA JUMP JUMPDEST POP RETURNDATASIZE PUSH2 0x406 JUMP JUMPDEST DUP4 MLOAD RETURNDATASIZE DUP9 DUP3 RETURNDATACOPY RETURNDATASIZE SWAP1 REVERT JUMPDEST PUSH4 0x4E487B71 PUSH1 0xE0 SHL DUP10 MSTORE PUSH1 0x21 DUP3 MSTORE PUSH1 0x24 DUP10 REVERT JUMPDEST DUP6 MLOAD PUSH3 0x461BCD PUSH1 0xE5 SHL DUP2 MSTORE DUP1 DUP4 ADD DUP6 SWAP1 MSTORE PUSH1 0x1B PUSH1 0x24 DUP3 ADD MSTORE PUSH32 0x4F6E6C792062757965722063616E2063616E63656C206F666665720000000000 PUSH1 0x44 DUP3 ADD MSTORE PUSH1 0x64 SWAP1 REVERT JUMPDEST DUP4 DUP1 REVERT JUMPDEST POP DUP3 CALLVALUE PUSH2 0x220 JUMPI DUP2 PUSH1 0x3 NOT CALLDATASIZE ADD SLT PUSH2 0x220 JUMPI PUSH2 0x4AF PUSH2 0x20AB JUMP JUMPDEST DUP1 MLOAD PUSH4 0x70A08231 PUSH1 0xE0 SHL DUP2 MSTORE ADDRESS DUP5 DUP3 ADD MSTORE SWAP3 PUSH1 0x20 SWAP1 PUSH1 0x1 PUSH1 0x1 PUSH1 0xA0 SHL SUB PUSH32 0x0 DUP2 AND SWAP2 SWAP1 DUP4 DUP8 PUSH1 0x24 DUP2 DUP7 GAS STATICCALL SWAP7 DUP8 ISZERO PUSH2 0x61C JUMPI DUP7 SWAP8 PUSH2 0x5E8 JUMPI JUMPDEST POP DUP7 ISZERO PUSH2 0x5A5 JUMPI DUP6 SLOAD DUP6 MLOAD PUSH4 0xA9059CBB PUSH1 0xE0 SHL DUP2 MSTORE SWAP2 AND PUSH1 0x1 PUSH1 0x1 PUSH1 0xA0 SHL SUB AND SWAP2 DUP2 ADD SWAP2 DUP3 MSTORE PUSH1 0x20 DUP3 ADD SWAP7 SWAP1 SWAP7 MSTORE SWAP4 SWAP5 SWAP4 DUP3 SWAP2 DUP6 SWAP2 DUP3 SWAP1 DUP9 SWAP1 DUP3 SWAP1 PUSH1 0x40 ADD SUB SWAP3 GAS CALL SWAP2 DUP3 ISZERO PUSH2 0x59C JUMPI POP DUP4 SWAP2 PUSH2 0x565 JUMPI JUMPDEST DUP4 PUSH2 0x562 DUP4 PUSH2 0x26F3 JUMP JUMPDEST DUP1 RETURN JUMPDEST SWAP1 POP DUP2 DUP2 RETURNDATASIZE DUP4 GT PUSH2 0x595 JUMPI JUMPDEST PUSH2 0x57B DUP2 DUP4 PUSH2 0x1E47 JUMP JUMPDEST DUP2 ADD SUB SLT PUSH2 0x220 JUMPI PUSH2 0x58F PUSH2 0x562 SWAP2 PUSH2 0x217C JUMP JUMPDEST DUP4 PUSH2 0x558 JUMP JUMPDEST POP RETURNDATASIZE PUSH2 0x571 JUMP JUMPDEST MLOAD RETURNDATASIZE DUP6 DUP3 RETURNDATACOPY RETURNDATASIZE SWAP1 REVERT JUMPDEST DUP5 MLOAD PUSH3 0x461BCD PUSH1 0xE5 SHL DUP2 MSTORE DUP1 DUP4 ADD DUP6 SWAP1 MSTORE PUSH1 0x18 PUSH1 0x24 DUP3 ADD MSTORE PUSH32 0x4E6F2055534443206665657320746F2077697468647261770000000000000000 PUSH1 0x44 DUP3 ADD MSTORE PUSH1 0x64 SWAP1 REVERT JUMPDEST SWAP1 SWAP7 POP DUP4 DUP2 DUP2 RETURNDATASIZE DUP4 GT PUSH2 0x615 JUMPI JUMPDEST PUSH2 0x600 DUP2 DUP4 PUSH2 0x1E47 JUMP JUMPDEST DUP2 ADD SUB SLT PUSH2 0x610 JUMPI MLOAD SWAP6 DUP8 PUSH2 0x507 JUMP JUMPDEST PUSH1 0x0 DUP1 REVERT JUMPDEST POP RETURNDATASIZE PUSH2 0x5F6 JUMP JUMPDEST DUP6 MLOAD RETURNDATASIZE DUP9 DUP3 RETURNDATACOPY RETURNDATASIZE SWAP1 REVERT JUMPDEST POP SWAP1 CALLVALUE PUSH2 0x220 JUMPI PUSH1 0x20 CALLDATASIZE PUSH1 0x3 NOT ADD SLT PUSH2 0x220 JUMPI CALLDATALOAD PUSH1 0x1 PUSH1 0x1 PUSH1 0xA0 SHL SUB DUP2 AND SWAP1 DUP2 SWAP1 SUB PUSH2 0x220 JUMPI PUSH2 0x654 PUSH2 0x20AB JUMP JUMPDEST PUSH1 0x1 PUSH1 0x1 PUSH1 0x60 SHL SUB PUSH1 0xA0 SHL PUSH1 0x3 SLOAD AND OR PUSH1 0x3 SSTORE DUP1 RETURN JUMPDEST POP DUP3 CALLVALUE PUSH2 0x220 JUMPI DUP2 PUSH1 0x3 NOT CALLDATASIZE ADD SLT PUSH2 0x220 JUMPI PUSH1 0x20 SWAP1 MLOAD PUSH2 0x2710 DUP2 MSTORE RETURN JUMPDEST POP SWAP2 SWAP1 CALLVALUE PUSH2 0x21C JUMPI DUP3 PUSH1 0x3 NOT CALLDATASIZE ADD SLT PUSH2 0x21C JUMPI PUSH2 0x6A2 PUSH2 0x20AB JUMP JUMPDEST SELFBALANCE SWAP2 DUP3 ISZERO PUSH2 0x6CD JUMPI DUP4 PUSH2 0x562 DUP2 DUP1 DUP1 DUP1 DUP9 PUSH1 0x1 DUP1 PUSH1 0xA0 SHL SUB DUP3 SLOAD AND GAS CALL PUSH2 0x6C7 PUSH2 0x24FE JUMP JUMPDEST POP PUSH2 0x26F3 JUMP JUMPDEST SWAP1 PUSH1 0x20 PUSH1 0x64 SWAP3 MLOAD SWAP2 PUSH3 0x461BCD PUSH1 0xE5 SHL DUP4 MSTORE DUP3 ADD MSTORE PUSH1 0x13 PUSH1 0x24 DUP3 ADD MSTORE PUSH19 0x4E6F206665657320746F207769746864726177 PUSH1 0x68 SHL PUSH1 0x44 DUP3 ADD MSTORE REVERT JUMPDEST POP DUP3 CALLVALUE PUSH2 0x220 JUMPI DUP2 PUSH1 0x3 NOT CALLDATASIZE ADD SLT PUSH2 0x220 JUMPI PUSH1 0x2 SLOAD SWAP1 MLOAD PUSH1 0x1 PUSH1 0x1 PUSH1 0xA0 SHL SUB SWAP1 SWAP2 AND DUP2 MSTORE PUSH1 0x20 SWAP1 RETURN JUMPDEST POP DUP3 CALLVALUE PUSH2 0x220 JUMPI DUP2 PUSH1 0x3 NOT CALLDATASIZE ADD SLT PUSH2 0x220 JUMPI PUSH1 0x20 SWAP1 PUSH1 0x9 SLOAD SWAP1 MLOAD SWAP1 DUP2 MSTORE RETURN JUMPDEST POP SWAP2 SWAP1 CALLVALUE PUSH2 0x21C JUMPI PUSH1 0x20 DUP1 PUSH1 0x3 NOT CALLDATASIZE ADD SLT PUSH2 0x491 JUMPI DUP2 CALLDATALOAD SWAP2 PUSH2 0x76E PUSH2 0x252E JUMP JUMPDEST DUP3 DUP6 MSTORE PUSH1 0x5 DUP3 MSTORE DUP4 DUP6 KECCAK256 SWAP4 PUSH1 0x6 DUP6 ADD SWAP2 PUSH2 0x78B PUSH1 0xFF DUP5 SLOAD AND PUSH2 0x2560 JUMP JUMPDEST PUSH1 0x5 DUP7 ADD SLOAD TIMESTAMP LT ISZERO PUSH2 0xB1F JUMPI PUSH1 0x2 SLOAD DUP3 MLOAD PUSH4 0xCD5286D PUSH1 0xE4 SHL DUP2 MSTORE DUP3 DUP2 ADD DUP7 SWAP1 MSTORE PUSH1 0x1 PUSH1 0x1 PUSH1 0xA0 SHL SUB SWAP8 SWAP2 DUP10 SWAP1 DUP3 SWAP1 DUP11 AND DUP2 DUP1 PUSH2 0x7CB PUSH1 0x24 DUP3 ADD DUP9 PUSH2 0x259F JUMP JUMPDEST SUB SWAP2 GAS STATICCALL DUP1 ISZERO PUSH2 0xB15 JUMPI DUP10 SWAP2 DUP11 SWAP2 PUSH2 0xAE2 JUMPI JUMPDEST POP PUSH2 0x7E8 SWAP1 PUSH2 0x222B JUMP JUMPDEST DUP8 CALLER SWAP2 AND SUB PUSH2 0xAA0 JUMPI PUSH1 0x2 DUP2 ADD SWAP7 DUP8 SLOAD SWAP3 PUSH2 0x813 PUSH2 0x2710 PUSH2 0x80B PUSH1 0x9 SLOAD DUP8 PUSH2 0x247C JUMP JUMPDEST DIV DUP1 SWAP6 PUSH2 0x24A5 JUMP JUMPDEST PUSH1 0xFF PUSH1 0x3 DUP6 ADD SLOAD AND PUSH1 0x2 DUP2 LT ISZERO PUSH2 0xA8D JUMPI DUP9 DUP13 SWAP2 ISZERO PUSH1 0x0 EQ PUSH2 0x9E3 JUMPI POP DUP1 DUP1 DUP1 PUSH2 0x848 SWAP5 CALLER GAS CALL PUSH2 0x842 PUSH2 0x24FE JUMP JUMPDEST POP PUSH2 0x24B2 JUMP JUMPDEST DUP2 PUSH1 0x2 SLOAD AND SWAP1 DUP11 PUSH1 0x1 DUP6 ADD SWAP3 DUP5 DUP5 SLOAD AND SWAP1 DUP1 EXTCODESIZE ISZERO PUSH2 0x21C JUMPI DUP9 MLOAD PUSH4 0x2203F8F1 PUSH1 0xE0 SHL DUP2 MSTORE DUP5 DUP2 ADD DUP11 SWAP1 MSTORE SWAP2 DUP4 SWAP2 DUP4 SWAP2 DUP3 SWAP1 DUP5 SWAP1 DUP3 SWAP1 PUSH2 0x88A PUSH1 0x44 DUP4 ADD DUP15 PUSH2 0x259F JUMP JUMPDEST SWAP1 PUSH1 0x24 DUP4 ADD MSTORE SUB SWAP3 GAS CALL DUP1 ISZERO PUSH2 0x9D9 JUMPI PUSH2 0x9B9 JUMPI JUMPDEST POP POP SWAP1 PUSH32 0x8C68D600771AD8AF3C86A9F96BD5C471ECA94AEBD78EA274787F8E95E07AAA10 SWAP7 PUSH2 0x96B SWAP5 SWAP4 SWAP3 PUSH1 0xFF NOT SWAP2 DUP3 DUP2 SLOAD AND SWAP1 SSTORE PUSH1 0xFF PUSH1 0x5 DUP10 MLOAD DUP13 DUP2 PUSH2 0x8E6 DUP2 DUP12 PUSH2 0x2635 JUMP JUMPDEST DUP7 DUP2 MSTORE SUB ADD SWAP1 KECCAK256 ADD SLOAD AND PUSH2 0x981 JUMPI JUMPDEST POP POP PUSH2 0x908 PUSH2 0x903 DUP5 PUSH2 0x1F69 JUMP JUMPDEST PUSH2 0x2936 JUMP JUMPDEST SLOAD AND DUP1 SWAP9 SLOAD SWAP8 DUP6 MLOAD DUP1 PUSH2 0x91B DUP2 DUP7 PUSH2 0x2635 JUMP JUMPDEST SUB SWAP1 KECCAK256 DUP7 MLOAD PUSH1 0x1 PUSH1 0x1 PUSH1 0xA0 SHL SUB SWAP4 SWAP1 SWAP4 AND DUP4 MSTORE PUSH1 0x20 DUP4 ADD DUP11 SWAP1 MSTORE CALLER SWAP3 SWAP1 SWAP2 SWAP1 PUSH32 0x9332956E0C3DD558CABF109A274FD9184F7CD2081DA1B9D9E28E702CF8A6CC59 SWAP1 PUSH1 0x40 SWAP1 LOG4 DUP4 MLOAD SWAP2 DUP3 DUP1 SWAP3 PUSH2 0x2635 JUMP JUMPDEST SUB SWAP1 KECCAK256 SWAP4 DUP3 MLOAD SWAP6 DUP7 MSTORE DUP6 ADD MSTORE CALLER SWAP4 LOG4 PUSH1 0x1 DUP1 SSTORE DUP1 RETURN JUMPDEST PUSH1 0x5 SWAP1 DUP11 DUP10 MLOAD DUP1 SWAP3 PUSH2 0x993 DUP3 DUP11 PUSH2 0x2635 JUMP JUMPDEST SWAP1 DUP2 MSTORE SUB ADD SWAP1 KECCAK256 ADD SWAP1 DUP2 SLOAD AND SWAP1 SSTORE PUSH2 0x9B2 PUSH2 0x9AD DUP5 PUSH2 0x1F69 JUMP JUMPDEST PUSH2 0x280F JUMP JUMPDEST CODESIZE DUP1 PUSH2 0x8F5 JUMP JUMPDEST PUSH2 0x9C7 SWAP1 SWAP6 SWAP5 SWAP4 SWAP3 SWAP6 PUSH2 0x1E1E JUMP JUMPDEST PUSH2 0x9D5 JUMPI SWAP1 SWAP2 SWAP3 DUP11 CODESIZE PUSH2 0x89F JUMP JUMPDEST DUP11 DUP1 REVERT JUMPDEST DUP9 MLOAD RETURNDATASIZE DUP5 DUP3 RETURNDATACOPY RETURNDATASIZE SWAP1 REVERT JUMPDEST DUP8 MLOAD PUSH4 0xA9059CBB PUSH1 0xE0 SHL DUP2 MSTORE CALLER DUP6 DUP3 ADD SWAP1 DUP2 MSTORE PUSH1 0x20 DUP2 ADD SWAP5 SWAP1 SWAP5 MSTORE SWAP3 SWAP1 SWAP2 DUP4 SWAP2 DUP3 SWAP1 DUP2 SWAP1 PUSH1 0x40 ADD SUB SWAP2 DUP8 PUSH32 0x0 AND GAS CALL DUP1 ISZERO PUSH2 0xA83 JUMPI DUP12 SWAP1 PUSH2 0xA4D JUMPI JUMPDEST PUSH2 0xA48 SWAP2 POP PUSH2 0x24B2 JUMP JUMPDEST PUSH2 0x848 JUMP JUMPDEST POP DUP8 DUP2 DUP2 RETURNDATASIZE DUP4 GT PUSH2 0xA7C JUMPI JUMPDEST PUSH2 0xA63 DUP2 DUP4 PUSH2 0x1E47 JUMP JUMPDEST DUP2 ADD SUB SLT PUSH2 0x9D5 JUMPI PUSH2 0xA77 PUSH2 0xA48 SWAP2 PUSH2 0x217C JUMP JUMPDEST PUSH2 0xA3E JUMP JUMPDEST POP RETURNDATASIZE PUSH2 0xA59 JUMP JUMPDEST DUP7 MLOAD RETURNDATASIZE DUP14 DUP3 RETURNDATACOPY RETURNDATASIZE SWAP1 REVERT JUMPDEST PUSH4 0x4E487B71 PUSH1 0xE0 SHL DUP13 MSTORE PUSH1 0x21 DUP4 MSTORE PUSH1 0x24 DUP13 REVERT JUMPDEST POP DUP4 PUSH1 0x64 SWAP3 MLOAD SWAP2 PUSH3 0x461BCD PUSH1 0xE5 SHL DUP4 MSTORE DUP3 ADD MSTORE PUSH1 0x1B PUSH1 0x24 DUP3 ADD MSTORE PUSH32 0x4F6E6C79206F776E65722063616E20616363657074206F666665720000000000 PUSH1 0x44 DUP3 ADD MSTORE REVERT JUMPDEST PUSH2 0x7E8 SWAP3 POP PUSH2 0xB03 SWAP2 POP RETURNDATASIZE DUP1 DUP13 DUP4 RETURNDATACOPY PUSH2 0xAFB DUP2 DUP4 PUSH2 0x1E47 JUMP JUMPDEST DUP2 ADD SWAP1 PUSH2 0x2189 JUMP JUMPDEST POP SWAP9 SWAP8 POP POP POP SWAP4 POP POP POP POP SWAP2 SWAP1 PUSH2 0x7DE JUMP JUMPDEST DUP5 MLOAD RETURNDATASIZE DUP12 DUP3 RETURNDATACOPY RETURNDATASIZE SWAP1 REVERT JUMPDEST DUP4 PUSH1 0x64 SWAP3 MLOAD SWAP2 PUSH3 0x461BCD PUSH1 0xE5 SHL DUP4 MSTORE DUP3 ADD MSTORE PUSH1 0xD PUSH1 0x24 DUP3 ADD MSTORE PUSH13 0x13D999995C88195E1C1A5C9959 PUSH1 0x9A SHL PUSH1 0x44 DUP3 ADD MSTORE REVERT JUMPDEST POP SWAP2 SWAP1 PUSH1 0x20 DUP1 PUSH1 0x3 NOT CALLDATASIZE ADD SLT PUSH2 0x491 JUMPI DUP2 CALLDATALOAD PUSH1 0x1 PUSH1 0x1 PUSH1 0x40 SHL SUB DUP2 GT PUSH2 0x2B6 JUMPI PUSH2 0xB7D SWAP1 CALLDATASIZE SWAP1 DUP5 ADD PUSH2 0x1E83 JUMP JUMPDEST SWAP3 PUSH2 0xB86 PUSH2 0x252E JUMP JUMPDEST DUP1 MLOAD DUP3 DUP2 DUP7 MLOAD PUSH2 0xB99 DUP2 DUP4 DUP6 DUP12 ADD PUSH2 0x200F JUMP JUMPDEST DUP2 ADD DUP7 DUP2 MSTORE SUB ADD SWAP1 KECCAK256 SWAP3 PUSH1 0x5 DUP5 ADD PUSH2 0xBB4 PUSH1 0xFF DUP3 SLOAD AND PUSH2 0x243B JUMP JUMPDEST PUSH1 0x1 DUP6 ADD DUP1 SLOAD PUSH1 0x1 PUSH1 0x1 PUSH1 0xA0 SHL SUB SWAP1 DUP2 AND SWAP4 SWAP1 SWAP3 SWAP1 CALLER DUP6 EQ PUSH2 0xF43 JUMPI PUSH1 0x2 DUP9 ADD SWAP8 DUP9 SLOAD SWAP6 PUSH1 0xFF PUSH1 0x3 PUSH2 0xBF6 PUSH2 0x2710 PUSH2 0xBEE PUSH1 0x9 SLOAD DUP13 PUSH2 0x247C JUMP JUMPDEST DIV DUP1 SWAP11 PUSH2 0x24A5 JUMP JUMPDEST SWAP4 ADD SLOAD AND PUSH1 0x2 DUP2 LT ISZERO PUSH2 0xF30 JUMPI PUSH2 0xD5D JUMPI POP DUP9 SLOAD CALLVALUE SUB PUSH2 0xD1A JUMPI DUP11 DUP1 DUP1 DUP1 PUSH2 0xC26 SWAP5 DUP10 DUP10 SLOAD AND GAS CALL PUSH2 0x842 PUSH2 0x24FE JUMP JUMPDEST DUP10 DUP5 PUSH1 0x2 SLOAD AND SWAP2 DUP3 EXTCODESIZE ISZERO PUSH2 0x220 JUMPI PUSH2 0xC5C SWAP3 DUP9 DUP4 DUP14 SWAP4 DUP3 MLOAD SWAP7 DUP8 SWAP6 DUP7 SWAP5 DUP6 SWAP4 PUSH4 0x2203F8F1 PUSH1 0xE0 SHL DUP6 MSTORE DUP5 ADD MSTORE PUSH1 0x44 DUP4 ADD SWAP1 PUSH2 0x2032 JUMP JUMPDEST CALLER PUSH1 0x24 DUP4 ADD MSTORE SUB SWAP3 GAS CALL DUP1 ISZERO PUSH2 0xD10 JUMPI PUSH2 0xCD1 JUMPI JUMPDEST POP DUP1 SLOAD PUSH1 0xFF NOT AND SWAP1 SSTORE PUSH32 0x8C68D600771AD8AF3C86A9F96BD5C471ECA94AEBD78EA274787F8E95E07AAA10 SWAP4 SWAP3 SWAP2 PUSH2 0xCBE SWAP2 PUSH2 0xCAB DUP10 PUSH2 0x280F JUMP JUMPDEST PUSH2 0xCB4 DUP10 PUSH2 0x2936 JUMP JUMPDEST SLOAD AND SWAP6 SLOAD SWAP7 PUSH2 0x241B JUMP JUMPDEST SWAP4 DUP3 MLOAD SWAP7 DUP8 MSTORE DUP7 ADD MSTORE CALLER SWAP5 LOG4 PUSH1 0x1 DUP1 SSTORE DUP1 RETURN JUMPDEST SWAP2 PUSH32 0x8C68D600771AD8AF3C86A9F96BD5C471ECA94AEBD78EA274787F8E95E07AAA10 SWAP6 SWAP5 SWAP4 SWAP2 SWAP10 PUSH2 0xD04 PUSH2 0xCBE SWAP5 PUSH2 0x1E1E JUMP JUMPDEST SWAP10 SWAP2 SWAP4 SWAP5 SWAP6 POP SWAP2 PUSH2 0xC71 JUMP JUMPDEST DUP7 MLOAD RETURNDATASIZE DUP13 DUP3 RETURNDATACOPY RETURNDATASIZE SWAP1 REVERT JUMPDEST DUP7 MLOAD PUSH3 0x461BCD PUSH1 0xE5 SHL DUP2 MSTORE DUP1 DUP4 ADD DUP10 SWAP1 MSTORE PUSH1 0x19 PUSH1 0x24 DUP3 ADD MSTORE PUSH32 0x45786163742045544820616D6F756E7420726571756972656400000000000000 PUSH1 0x44 DUP3 ADD MSTORE PUSH1 0x64 SWAP1 REVERT JUMPDEST SWAP1 CALLVALUE PUSH2 0xEE3 JUMPI DUP8 MLOAD PUSH4 0x23B872DD PUSH1 0xE0 SHL DUP1 DUP3 MSTORE CALLER DUP6 DUP4 ADD SWAP1 DUP2 MSTORE PUSH1 0x1 PUSH1 0x1 PUSH1 0xA0 SHL SUB SWAP1 SWAP5 AND PUSH1 0x20 DUP6 ADD MSTORE PUSH1 0x40 DUP5 ADD SWAP3 SWAP1 SWAP3 MSTORE DUP13 SWAP3 PUSH32 0x0 DUP9 AND SWAP2 SWAP1 DUP12 SWAP1 DUP3 SWAP1 DUP2 SWAP1 PUSH1 0x60 ADD SUB DUP2 DUP8 DUP7 GAS CALL SWAP1 DUP2 ISZERO PUSH2 0xED9 JUMPI SWAP1 DUP12 SWAP4 SWAP3 SWAP2 DUP6 SWAP2 PUSH2 0xEA0 JUMPI JUMPDEST POP PUSH2 0xDE2 SWAP1 PUSH2 0x24B2 JUMP JUMPDEST DUP10 MLOAD SWAP2 DUP3 MSTORE CALLER DUP6 DUP4 ADD SWAP1 DUP2 MSTORE ADDRESS PUSH1 0x20 DUP3 ADD MSTORE PUSH1 0x40 DUP2 ADD DUP11 SWAP1 MSTORE SWAP2 SWAP4 DUP5 SWAP3 DUP4 SWAP2 SWAP1 DUP3 SWAP1 PUSH1 0x60 ADD SUB SWAP3 GAS CALL SWAP1 DUP2 ISZERO PUSH2 0xE96 JUMPI DUP12 SWAP2 PUSH2 0xE61 JUMPI JUMPDEST POP PUSH2 0xC26 JUMPI DUP6 MLOAD PUSH3 0x461BCD PUSH1 0xE5 SHL DUP2 MSTORE SWAP1 DUP2 ADD DUP8 SWAP1 MSTORE PUSH1 0x1C PUSH1 0x24 DUP3 ADD MSTORE PUSH32 0x506C6174666F726D20666565207472616E73666572206661696C656400000000 PUSH1 0x44 DUP3 ADD MSTORE PUSH1 0x64 SWAP1 REVERT JUMPDEST SWAP1 POP DUP8 DUP2 DUP2 RETURNDATASIZE DUP4 GT PUSH2 0xE8F JUMPI JUMPDEST PUSH2 0xE78 DUP2 DUP4 PUSH2 0x1E47 JUMP JUMPDEST DUP2 ADD SUB SLT PUSH2 0x9D5 JUMPI PUSH2 0xE89 SWAP1 PUSH2 0x217C JUMP JUMPDEST CODESIZE PUSH2 0xE19 JUMP JUMPDEST POP RETURNDATASIZE PUSH2 0xE6E JUMP JUMPDEST DUP8 MLOAD RETURNDATASIZE DUP14 DUP3 RETURNDATACOPY RETURNDATASIZE SWAP1 REVERT JUMPDEST DUP5 DUP2 SWAP6 SWAP3 POP RETURNDATASIZE DUP4 GT PUSH2 0xED2 JUMPI JUMPDEST PUSH2 0xEB7 DUP2 DUP4 PUSH2 0x1E47 JUMP JUMPDEST DUP2 ADD SUB SLT PUSH2 0x491 JUMPI PUSH2 0xDE2 PUSH2 0xECC DUP13 SWAP5 PUSH2 0x217C JUMP JUMPDEST SWAP1 PUSH2 0xDD8 JUMP JUMPDEST POP RETURNDATASIZE PUSH2 0xEAD JUMP JUMPDEST DUP11 MLOAD RETURNDATASIZE DUP7 DUP3 RETURNDATACOPY RETURNDATASIZE SWAP1 REVERT JUMPDEST DUP8 MLOAD PUSH3 0x461BCD PUSH1 0xE5 SHL DUP2 MSTORE DUP1 DUP5 ADD DUP11 SWAP1 MSTORE PUSH1 0x21 PUSH1 0x24 DUP3 ADD MSTORE PUSH32 0x446F206E6F742073656E642045544820666F7220555344432070757263686173 PUSH1 0x44 DUP3 ADD MSTORE PUSH1 0x65 PUSH1 0xF8 SHL PUSH1 0x64 DUP3 ADD MSTORE PUSH1 0x84 SWAP1 REVERT JUMPDEST PUSH4 0x4E487B71 PUSH1 0xE0 SHL DUP14 MSTORE PUSH1 0x21 DUP5 MSTORE PUSH1 0x24 DUP14 REVERT JUMPDEST DUP6 MLOAD PUSH3 0x461BCD PUSH1 0xE5 SHL DUP2 MSTORE SWAP1 DUP2 ADD DUP8 SWAP1 MSTORE PUSH1 0x19 PUSH1 0x24 DUP3 ADD MSTORE PUSH32 0x43616E6E6F742062757920796F7572206F776E20617373657400000000000000 PUSH1 0x44 DUP3 ADD MSTORE PUSH1 0x64 SWAP1 REVERT JUMPDEST POP DUP3 CALLVALUE PUSH2 0x220 JUMPI DUP2 PUSH1 0x3 NOT CALLDATASIZE ADD SLT PUSH2 0x220 JUMPI PUSH1 0x20 SWAP1 MLOAD PUSH20 0x833589FCD6EDB6E08F4C7C32D4F71B54BDA02913 DUP2 MSTORE RETURN JUMPDEST POP SWAP2 SWAP1 CALLVALUE PUSH2 0x21C JUMPI PUSH1 0x20 CALLDATASIZE PUSH1 0x3 NOT ADD SLT PUSH2 0x21C JUMPI DUP1 CALLDATALOAD SWAP2 PUSH2 0xFD4 PUSH2 0x20AB JUMP JUMPDEST PUSH2 0x3E8 DUP4 GT PUSH2 0xFE5 JUMPI POP POP PUSH1 0x9 SSTORE DUP1 RETURN JUMPDEST SWAP1 PUSH1 0x20 PUSH1 0x64 SWAP3 MLOAD SWAP2 PUSH3 0x461BCD PUSH1 0xE5 SHL DUP4 MSTORE DUP3 ADD MSTORE PUSH1 0x16 PUSH1 0x24 DUP3 ADD MSTORE PUSH22 0x46656520746F6F206869676820286D61782031302529 PUSH1 0x50 SHL PUSH1 0x44 DUP3 ADD MSTORE REVERT JUMPDEST POP DUP3 CALLVALUE PUSH2 0x220 JUMPI PUSH1 0x20 SWAP2 PUSH2 0x104B PUSH2 0x1037 CALLDATASIZE PUSH2 0x207A JUMP JUMPDEST SWAP5 SWAP1 DUP2 DUP6 MLOAD SWAP4 DUP3 DUP6 DUP1 SWAP5 MLOAD SWAP4 DUP5 SWAP3 ADD PUSH2 0x200F JUMP JUMPDEST DUP2 ADD PUSH1 0x6 DUP2 MSTORE SUB ADD SWAP1 KECCAK256 SWAP1 DUP2 SLOAD DUP5 LT ISZERO PUSH2 0x224 JUMPI POP PUSH1 0x20 SWAP3 PUSH2 0x106C SWAP2 PUSH2 0x1F17 JUMP JUMPDEST SWAP2 SWAP1 SLOAD SWAP1 MLOAD SWAP2 PUSH1 0x3 SHL SHR DUP2 MSTORE RETURN JUMPDEST POP SWAP2 SWAP1 PUSH1 0x80 CALLDATASIZE PUSH1 0x3 NOT ADD SLT PUSH2 0x21C JUMPI PUSH1 0x1 PUSH1 0x1 PUSH1 0x40 SHL SUB DUP2 CALLDATALOAD DUP2 DUP2 GT PUSH2 0x2B6 JUMPI PUSH2 0x10A7 SWAP1 CALLDATASIZE SWAP1 DUP5 ADD PUSH2 0x1E83 JUMP JUMPDEST SWAP3 PUSH1 0x24 SWAP2 DUP3 CALLDATALOAD SWAP5 PUSH1 0x44 SWAP5 DUP6 CALLDATALOAD SWAP5 PUSH1 0x2 DUP7 LT ISZERO PUSH2 0x1546 JUMPI PUSH1 0x64 SWAP4 DUP5 CALLDATALOAD SWAP7 DUP10 ISZERO PUSH2 0x150E JUMPI PUSH2 0xE10 DUP9 LT ISZERO DUP1 PUSH2 0x1501 JUMPI JUMPDEST ISZERO PUSH2 0x14CE JUMPI PUSH1 0x2 SLOAD DUP8 MLOAD PUSH4 0xCD5286D PUSH1 0xE4 SHL DUP2 MSTORE PUSH1 0x20 DUP7 DUP3 ADD DUP2 SWAP1 MSTORE SWAP11 PUSH1 0x1 PUSH1 0x1 PUSH1 0xA0 SHL SUB SWAP9 SWAP3 SWAP1 SWAP2 DUP15 SWAP2 DUP3 SWAP1 DUP3 SWAP1 DUP13 AND DUP2 DUP1 PUSH2 0x1114 DUP13 DUP3 ADD DUP16 PUSH2 0x2032 JUMP JUMPDEST SUB SWAP2 GAS STATICCALL SWAP1 DUP2 ISZERO PUSH2 0x14C4 JUMPI DUP3 DUP1 SWAP3 PUSH2 0x1498 JUMPI JUMPDEST POP POP PUSH2 0x1132 SWAP1 PUSH2 0x222B JUMP JUMPDEST DUP9 AND CALLER EQ PUSH2 0x145A JUMPI DUP3 PUSH2 0x1330 JUMPI DUP12 CALLVALUE SUB PUSH2 0x12FC JUMPI POP POP JUMPDEST PUSH1 0x7 SLOAD SWAP8 PUSH2 0x1156 DUP10 PUSH2 0x2551 JUMP JUMPDEST PUSH1 0x7 SSTORE TIMESTAMP ADD SWAP6 DUP7 TIMESTAMP GT PUSH2 0x12EA JUMPI DUP8 MLOAD SWAP3 PUSH1 0xE0 DUP5 ADD SWAP1 DUP2 GT DUP5 DUP3 LT OR PUSH2 0x12D8 JUMPI DUP10 SWAP3 DUP13 DUP15 DUP11 SWAP5 DUP15 SWAP5 DUP14 MSTORE DUP11 DUP9 MSTORE PUSH2 0x11C7 DUP14 DUP7 DUP11 ADD SWAP4 CALLER DUP6 MSTORE DUP2 DUP12 ADD SWAP6 DUP7 MSTORE PUSH2 0x11A1 PUSH1 0x60 DUP13 ADD SWAP8 DUP9 PUSH2 0x22D4 JUMP JUMPDEST PUSH1 0x5 PUSH1 0x80 DUP13 ADD SWAP9 TIMESTAMP DUP11 MSTORE PUSH1 0xA0 DUP14 ADD SWAP11 DUP12 MSTORE PUSH1 0xC0 DUP14 ADD SWAP12 PUSH1 0x1 DUP14 MSTORE DUP4 MSTORE MSTORE KECCAK256 SWAP9 MLOAD DUP10 PUSH2 0x233C JUMP JUMPDEST PUSH1 0x1 DUP9 ADD SWAP2 MLOAD AND PUSH1 0x1 PUSH1 0x1 PUSH1 0x60 SHL SUB PUSH1 0xA0 SHL DUP3 SLOAD AND OR SWAP1 SSTORE MLOAD PUSH1 0x2 DUP7 ADD SSTORE MLOAD PUSH1 0x2 DUP2 LT ISZERO PUSH2 0x12C6 JUMPI SWAP2 DUP5 SWAP4 SWAP2 PUSH2 0x1205 PUSH1 0x6 SWAP5 PUSH1 0x3 PUSH2 0x1226 SWAP9 ADD PUSH2 0x2403 JUMP JUMPDEST MLOAD DUP8 DUP6 ADD SSTORE MLOAD PUSH1 0x5 DUP5 ADD SSTORE MLOAD ISZERO ISZERO SWAP2 ADD SWAP1 PUSH1 0xFF DUP1 NOT DUP4 SLOAD AND SWAP2 ISZERO ISZERO AND OR SWAP1 SSTORE JUMP JUMPDEST DUP5 MLOAD DUP8 DUP2 DUP6 MLOAD PUSH2 0x1239 DUP2 DUP4 DUP6 DUP11 ADD PUSH2 0x200F JUMP JUMPDEST DUP2 ADD PUSH1 0x6 DUP2 MSTORE SUB ADD SWAP1 KECCAK256 SWAP1 DUP2 SLOAD SWAP3 PUSH1 0x1 PUSH1 0x40 SHL DUP5 LT ISZERO PUSH2 0x12B5 JUMPI POP POP SWAP2 PUSH2 0x128C DUP3 PUSH32 0xCFED541454DAC78F93DA97764A61638D187363E6D64A389FAA86EDCAAF8932BC SWAP7 SWAP6 SWAP5 PUSH1 0x1 PUSH2 0x12A6 SWAP6 ADD DUP2 SSTORE PUSH2 0x1F17 JUMP JUMPDEST DUP2 SLOAD SWAP1 PUSH1 0x3 SHL SWAP1 DUP9 DUP3 SHL SWAP2 PUSH1 0x0 NOT SWAP1 SHL NOT AND OR SWAP1 SSTORE PUSH2 0x241B JUMP JUMPDEST SWAP5 DUP3 MLOAD SWAP7 DUP8 MSTORE DUP7 ADD MSTORE CALLER SWAP5 LOG4 DUP1 RETURN JUMPDEST PUSH4 0x4E487B71 PUSH1 0xE0 SHL DUP12 MSTORE PUSH1 0x41 SWAP1 MSTORE DUP10 REVERT JUMPDEST PUSH4 0x4E487B71 PUSH1 0xE0 SHL DUP15 MSTORE PUSH1 0x21 DUP8 MSTORE DUP6 DUP15 REVERT JUMPDEST PUSH4 0x4E487B71 PUSH1 0xE0 SHL DUP14 MSTORE PUSH1 0x41 DUP7 MSTORE DUP5 DUP14 REVERT JUMPDEST PUSH4 0x4E487B71 PUSH1 0xE0 SHL DUP13 MSTORE PUSH1 0x11 DUP6 MSTORE DUP4 DUP13 REVERT JUMPDEST PUSH19 0x8AA89040C2DADEEADCE840DAD2E6DAC2E8C6D PUSH1 0x6B SHL DUP7 SWAP2 PUSH1 0x13 DUP8 DUP15 DUP14 MLOAD SWAP6 PUSH3 0x461BCD PUSH1 0xE5 SHL DUP8 MSTORE DUP7 ADD MSTORE DUP5 ADD MSTORE DUP3 ADD MSTORE REVERT JUMPDEST CALLVALUE PUSH2 0x141C JUMPI DUP9 MLOAD PUSH4 0x23B872DD PUSH1 0xE0 SHL DUP2 MSTORE CALLER DUP8 DUP3 ADD SWAP1 DUP2 MSTORE ADDRESS PUSH1 0x20 DUP3 ADD MSTORE PUSH1 0x40 DUP2 ADD DUP15 SWAP1 MSTORE DUP15 SWAP2 SWAP1 DUP14 SWAP1 DUP3 SWAP1 DUP2 SWAP1 SUB PUSH1 0x60 ADD DUP2 DUP6 PUSH32 0x0 DUP16 AND GAS CALL SWAP2 DUP3 ISZERO PUSH2 0x1411 JUMPI SWAP2 PUSH2 0x13D8 JUMPI JUMPDEST POP ISZERO PUSH2 0x13A3 JUMPI POP POP PUSH2 0x1149 JUMP JUMPDEST PUSH20 0x1554D110C81D1C985B9CD9995C8819985A5B1959 PUSH1 0x62 SHL DUP7 SWAP2 PUSH1 0x14 DUP8 DUP15 DUP14 MLOAD SWAP6 PUSH3 0x461BCD PUSH1 0xE5 SHL DUP8 MSTORE DUP7 ADD MSTORE DUP5 ADD MSTORE DUP3 ADD MSTORE REVERT JUMPDEST SWAP1 POP DUP12 DUP2 DUP2 RETURNDATASIZE DUP4 GT PUSH2 0x140A JUMPI JUMPDEST PUSH2 0x13EF DUP2 DUP4 PUSH2 0x1E47 JUMP JUMPDEST DUP2 ADD SUB SLT PUSH2 0x1406 JUMPI PUSH2 0x1400 SWAP1 PUSH2 0x217C JUMP JUMPDEST CODESIZE PUSH2 0x1396 JUMP JUMPDEST DUP14 DUP1 REVERT JUMPDEST POP RETURNDATASIZE PUSH2 0x13E5 JUMP JUMPDEST DUP12 MLOAD SWAP1 RETURNDATASIZE SWAP1 DUP3 RETURNDATACOPY RETURNDATASIZE SWAP1 REVERT JUMPDEST PUSH32 0x446F206E6F742073656E642045544820666F722055534443206F666665720000 DUP7 SWAP2 PUSH1 0x1E DUP8 DUP15 DUP14 MLOAD SWAP6 PUSH3 0x461BCD PUSH1 0xE5 SHL DUP8 MSTORE DUP7 ADD MSTORE DUP5 ADD MSTORE DUP3 ADD MSTORE REVERT JUMPDEST PUSH32 0x43616E6E6F74206F66666572206F6E20796F7572206F776E2061737365740000 DUP7 SWAP2 PUSH1 0x1E DUP8 DUP15 DUP14 MLOAD SWAP6 PUSH3 0x461BCD PUSH1 0xE5 SHL DUP8 MSTORE DUP7 ADD MSTORE DUP5 ADD MSTORE DUP3 ADD MSTORE REVERT JUMPDEST PUSH2 0x1132 SWAP4 POP PUSH2 0x14B1 SWAP3 POP RETURNDATASIZE DUP1 SWAP2 DUP4 RETURNDATACOPY PUSH2 0xAFB DUP2 DUP4 PUSH2 0x1E47 JUMP JUMPDEST POP SWAP9 SWAP8 POP POP POP SWAP4 POP POP POP POP SWAP2 SWAP1 DUP16 PUSH2 0x1127 JUMP JUMPDEST DUP12 MLOAD RETURNDATASIZE DUP5 DUP3 RETURNDATACOPY RETURNDATASIZE SWAP1 REVERT JUMPDEST DUP7 MLOAD PUSH3 0x461BCD PUSH1 0xE5 SHL DUP2 MSTORE PUSH1 0x20 DUP2 DUP7 ADD MSTORE PUSH1 0x10 DUP2 DUP6 ADD MSTORE PUSH16 0x24B73B30B634B210323AB930BA34B7B7 PUSH1 0x81 SHL DUP2 DUP12 ADD MSTORE DUP7 SWAP1 REVERT JUMPDEST POP PUSH3 0x278D00 DUP9 GT ISZERO PUSH2 0x10D5 JUMP JUMPDEST DUP7 MLOAD PUSH3 0x461BCD PUSH1 0xE5 SHL DUP2 MSTORE PUSH1 0x20 DUP2 DUP7 ADD MSTORE PUSH1 0x15 DUP2 DUP6 ADD MSTORE PUSH21 0x4F66666572206D75737420686176652076616C7565 PUSH1 0x58 SHL DUP2 DUP12 ADD MSTORE DUP7 SWAP1 REVERT JUMPDEST DUP9 DUP1 REVERT JUMPDEST POP SWAP2 CALLVALUE PUSH2 0x21C JUMPI PUSH1 0x20 CALLDATASIZE PUSH1 0x3 NOT ADD SLT PUSH2 0x21C JUMPI DUP2 CALLDATALOAD PUSH1 0x1 PUSH1 0x1 PUSH1 0x40 SHL SUB DUP2 GT PUSH2 0x491 JUMPI PUSH2 0x157A SWAP1 CALLDATASIZE SWAP1 DUP5 ADD PUSH2 0x1E83 JUMP JUMPDEST SWAP2 DUP2 MLOAD PUSH1 0x20 DUP2 DUP6 MLOAD PUSH2 0x158F DUP2 DUP4 DUP6 DUP11 ADD PUSH2 0x200F JUMP JUMPDEST DUP2 ADD DUP5 DUP2 MSTORE SUB ADD SWAP1 KECCAK256 SWAP1 PUSH1 0x5 DUP3 ADD SWAP3 DUP4 SLOAD SWAP3 PUSH2 0x15AD PUSH1 0xFF DUP6 AND PUSH2 0x243B JUMP JUMPDEST PUSH1 0x1 ADD SLOAD PUSH1 0x1 PUSH1 0x1 PUSH1 0xA0 SHL SUB AND CALLER SUB PUSH2 0x160B JUMPI POP POP PUSH1 0xFF NOT AND SWAP1 SSTORE PUSH2 0x15D1 DUP2 PUSH2 0x280F JUMP JUMPDEST PUSH2 0x15DA DUP2 PUSH2 0x2936 JUMP JUMPDEST PUSH2 0x15E4 CALLER SWAP2 PUSH2 0x241B JUMP JUMPDEST PUSH32 0xAD06290F905050C9DAC577E139B4B450621B456073E716DB7561A52F3FF8928 DUP4 DUP1 LOG3 DUP1 RETURN JUMPDEST SWAP1 PUSH1 0x20 PUSH1 0x64 SWAP3 MLOAD SWAP2 PUSH3 0x461BCD PUSH1 0xE5 SHL DUP4 MSTORE DUP3 ADD MSTORE PUSH1 0x16 PUSH1 0x24 DUP3 ADD MSTORE PUSH22 0x13DB9B1E481CD95B1B195C8818D85B8818D85B98D95B PUSH1 0x52 SHL PUSH1 0x44 DUP3 ADD MSTORE REVERT JUMPDEST POP SWAP2 CALLVALUE PUSH2 0x21C JUMPI PUSH2 0x1657 CALLDATASIZE PUSH2 0x207A JUMP JUMPDEST SWAP3 DUP3 MLOAD PUSH1 0x20 DUP2 DUP5 MLOAD PUSH2 0x166C DUP2 DUP4 DUP6 DUP10 ADD PUSH2 0x200F JUMP JUMPDEST DUP2 ADD DUP5 DUP2 MSTORE SUB ADD SWAP1 KECCAK256 SWAP1 PUSH2 0x1686 PUSH1 0xFF PUSH1 0x5 DUP5 ADD SLOAD AND PUSH2 0x243B JUMP JUMPDEST PUSH1 0x1 DUP3 ADD SLOAD PUSH1 0x1 PUSH1 0x1 PUSH1 0xA0 SHL SUB AND CALLER SUB PUSH2 0x16EA JUMPI POP SWAP1 PUSH2 0x16DB PUSH1 0x2 PUSH32 0x702CF1FF9B007B1CE6285F06D88972428A71330A6F9BC7AC9B49803661DD7BDE SWAP5 SWAP4 PUSH2 0x16CF DUP8 ISZERO ISZERO PUSH2 0x20D7 JUMP JUMPDEST ADD SWAP2 DUP6 DUP4 SLOAD SWAP4 SSTORE PUSH2 0x241B JUMP JUMPDEST SWAP4 DUP3 MLOAD SWAP2 DUP3 MSTORE PUSH1 0x20 DUP3 ADD MSTORE LOG2 DUP1 RETURN JUMPDEST PUSH1 0x64 SWAP1 PUSH1 0x20 DUP6 MLOAD SWAP2 PUSH3 0x461BCD PUSH1 0xE5 SHL DUP4 MSTORE DUP3 ADD MSTORE PUSH1 0x16 PUSH1 0x24 DUP3 ADD MSTORE PUSH22 0x4F6E6C792073656C6C65722063616E20757064617465 PUSH1 0x50 SHL PUSH1 0x44 DUP3 ADD MSTORE REVERT JUMPDEST POP DUP3 CALLVALUE PUSH2 0x220 JUMPI DUP2 PUSH1 0x3 NOT CALLDATASIZE ADD SLT PUSH2 0x220 JUMPI SWAP1 SLOAD SWAP1 MLOAD PUSH1 0x1 PUSH1 0x1 PUSH1 0xA0 SHL SUB SWAP1 SWAP2 AND DUP2 MSTORE PUSH1 0x20 SWAP1 RETURN JUMPDEST POP SWAP2 SWAP1 CALLVALUE PUSH2 0x21C JUMPI PUSH1 0x20 CALLDATASIZE PUSH1 0x3 NOT ADD SLT PUSH2 0x21C JUMPI DUP2 PUSH2 0x17C1 SWAP4 DUP3 CALLDATALOAD DUP2 MSTORE PUSH1 0x5 PUSH1 0x20 MSTORE KECCAK256 SWAP2 PUSH2 0x177B DUP4 PUSH2 0x1F69 JUMP JUMPDEST SWAP3 PUSH1 0x1 DUP1 PUSH1 0xA0 SHL SUB PUSH1 0x1 DUP3 ADD SLOAD AND SWAP3 PUSH2 0x17D4 PUSH1 0x2 DUP4 ADD SLOAD SWAP2 PUSH1 0xFF PUSH1 0x3 DUP6 ADD SLOAD AND SWAP1 DUP5 ADD SLOAD SWAP3 PUSH1 0xFF PUSH1 0x6 PUSH1 0x5 DUP8 ADD SLOAD SWAP7 ADD SLOAD AND SWAP6 DUP1 MLOAD SWAP10 DUP11 SWAP10 PUSH1 0xE0 DUP12 MSTORE PUSH1 0xE0 DUP12 ADD SWAP1 PUSH2 0x2032 JUMP JUMPDEST SWAP8 PUSH1 0x20 DUP11 ADD MSTORE DUP9 ADD MSTORE PUSH1 0x60 DUP8 ADD SWAP1 PUSH2 0x2057 JUMP JUMPDEST PUSH1 0x80 DUP6 ADD MSTORE PUSH1 0xA0 DUP5 ADD MSTORE ISZERO ISZERO PUSH1 0xC0 DUP4 ADD MSTORE SUB SWAP1 RETURN JUMPDEST POP DUP3 CALLVALUE PUSH2 0x220 JUMPI DUP2 PUSH1 0x3 NOT CALLDATASIZE ADD SLT PUSH2 0x220 JUMPI PUSH1 0x20 SWAP1 PUSH1 0x8 SLOAD SWAP1 MLOAD SWAP1 DUP2 MSTORE RETURN JUMPDEST POP SWAP2 SWAP1 CALLVALUE PUSH2 0x21C JUMPI PUSH1 0x20 CALLDATASIZE PUSH1 0x3 NOT ADD SLT PUSH2 0x21C JUMPI DUP1 CALLDATALOAD SWAP3 PUSH1 0x1 PUSH1 0x1 PUSH1 0x40 SHL SUB DUP5 GT PUSH2 0x224 JUMPI POP PUSH2 0x1843 PUSH1 0x20 PUSH2 0x184 PUSH2 0x1894 SWAP6 CALLDATASIZE SWAP1 DUP6 ADD PUSH2 0x1E83 JUMP JUMPDEST DUP2 ADD DUP5 DUP2 MSTORE SUB ADD SWAP1 KECCAK256 SWAP2 PUSH2 0x1856 DUP4 PUSH2 0x1F69 JUMP JUMPDEST SWAP3 PUSH2 0x18A7 PUSH1 0x1 DUP1 PUSH1 0xA0 SHL SUB PUSH1 0x1 DUP4 ADD SLOAD AND SWAP4 PUSH1 0x2 DUP4 ADD SLOAD PUSH1 0xFF PUSH1 0x5 DUP2 PUSH1 0x3 DUP8 ADD SLOAD AND SWAP4 DUP7 ADD SLOAD SWAP6 ADD SLOAD AND SWAP5 DUP1 MLOAD SWAP9 DUP10 SWAP9 PUSH1 0xC0 DUP11 MSTORE PUSH1 0xC0 DUP11 ADD SWAP1 PUSH2 0x2032 JUMP JUMPDEST SWAP7 PUSH1 0x20 DUP10 ADD MSTORE DUP8 ADD MSTORE PUSH1 0x60 DUP7 ADD SWAP1 PUSH2 0x2057 JUMP JUMPDEST PUSH1 0x80 DUP5 ADD MSTORE ISZERO ISZERO PUSH1 0xA0 DUP4 ADD MSTORE SUB SWAP1 RETURN JUMPDEST POP CALLVALUE PUSH2 0x224 JUMPI DUP1 PUSH1 0x3 NOT CALLDATASIZE ADD SLT PUSH2 0x224 JUMPI PUSH2 0x18D0 PUSH2 0x20AB JUMP JUMPDEST DUP1 SLOAD PUSH1 0x1 PUSH1 0x1 PUSH1 0xA0 SHL SUB NOT DUP2 AND DUP3 SSTORE DUP2 SWAP1 PUSH1 0x1 PUSH1 0x1 PUSH1 0xA0 SHL SUB AND PUSH32 0x8BE0079C531659141344CD1FD0A4F28419497F9722A3DAAFE3B4186F6B6457E0 DUP3 DUP1 LOG3 DUP1 RETURN JUMPDEST POP DUP3 SWAP1 CALLVALUE PUSH2 0x224 JUMPI PUSH1 0x20 CALLDATASIZE PUSH1 0x3 NOT ADD SLT PUSH2 0x224 JUMPI DUP3 CALLDATALOAD PUSH1 0x8 SLOAD DUP2 LT ISZERO PUSH2 0x220 JUMPI PUSH2 0x193A SWAP1 PUSH2 0x1ECA JUMP JUMPDEST SWAP4 SWAP1 SWAP4 PUSH2 0x1965 JUMPI PUSH2 0x1961 DUP4 PUSH2 0x194E DUP7 PUSH2 0x1F69 JUMP JUMPDEST SWAP1 MLOAD SWAP2 DUP3 SWAP2 PUSH1 0x20 DUP4 MSTORE PUSH1 0x20 DUP4 ADD SWAP1 PUSH2 0x2032 JUMP JUMPDEST SUB SWAP1 RETURN JUMPDEST PUSH4 0x4E487B71 PUSH1 0xE0 SHL DUP3 MSTORE DUP2 SWAP1 MSTORE PUSH1 0x24 SWAP1 REVERT JUMPDEST POP DUP3 CALLVALUE PUSH2 0x220 JUMPI DUP2 PUSH1 0x3 NOT CALLDATASIZE ADD SLT PUSH2 0x220 JUMPI PUSH1 0x20 SWAP1 PUSH1 0x7 SLOAD SWAP1 MLOAD SWAP1 DUP2 MSTORE RETURN JUMPDEST POP DUP3 CALLVALUE PUSH2 0x220 JUMPI DUP2 PUSH1 0x3 NOT CALLDATASIZE ADD SLT PUSH2 0x220 JUMPI PUSH1 0x3 SLOAD SWAP1 MLOAD PUSH1 0x1 PUSH1 0x1 PUSH1 0xA0 SHL SUB SWAP1 SWAP2 AND DUP2 MSTORE PUSH1 0x20 SWAP1 RETURN JUMPDEST POP SWAP2 CALLVALUE PUSH2 0x21C JUMPI PUSH1 0x60 CALLDATASIZE PUSH1 0x3 NOT ADD SLT PUSH2 0x21C JUMPI PUSH1 0x1 PUSH1 0x1 PUSH1 0x40 SHL SUB SWAP1 DUP3 CALLDATALOAD DUP3 DUP2 GT PUSH2 0x2B6 JUMPI PUSH2 0x19F1 SWAP1 CALLDATASIZE SWAP1 DUP6 ADD PUSH2 0x1E83 JUMP JUMPDEST PUSH1 0x24 SWAP4 DUP5 CALLDATALOAD SWAP5 PUSH1 0x44 CALLDATALOAD SWAP5 PUSH1 0x2 DUP7 LT ISZERO PUSH2 0x1DD7 JUMPI PUSH2 0x1A0F DUP8 ISZERO ISZERO PUSH2 0x20D7 JUMP JUMPDEST DUP5 MLOAD SWAP6 DUP5 MLOAD SWAP1 PUSH1 0xFF PUSH1 0x5 PUSH1 0x20 SWAP10 DUP11 DUP2 DUP2 DUP12 ADD SWAP7 PUSH2 0x1A2D DUP2 DUP4 DUP11 PUSH2 0x200F JUMP JUMPDEST DUP2 ADD DUP11 DUP2 MSTORE SUB ADD SWAP1 KECCAK256 ADD SLOAD AND PUSH2 0x1D9E JUMPI PUSH1 0x2 SLOAD DUP8 MLOAD PUSH4 0xCD5286D PUSH1 0xE4 SHL DUP2 MSTORE DUP7 DUP2 ADD DUP11 SWAP1 MSTORE PUSH1 0x1 PUSH1 0x1 PUSH1 0xA0 SHL SUB SWAP2 DUP13 SWAP1 DUP3 SWAP1 DUP5 AND DUP2 DUP1 PUSH2 0x1A6F DUP12 DUP3 ADD DUP15 PUSH2 0x2032 JUMP JUMPDEST SUB SWAP2 GAS STATICCALL DUP1 ISZERO PUSH2 0x1D94 JUMPI DUP13 SWAP2 DUP14 SWAP2 PUSH2 0x1D69 JUMPI JUMPDEST POP PUSH2 0x1A8C SWAP1 PUSH2 0x222B JUMP JUMPDEST DUP2 CALLER SWAP2 AND SUB PUSH2 0x1D27 JUMPI DUP1 PUSH1 0x3 SLOAD AND DUP1 PUSH2 0x1C1D JUMPI JUMPDEST POP DUP8 MLOAD SWAP4 PUSH1 0xC0 DUP6 ADD SWAP1 DUP2 GT DUP6 DUP3 LT OR PUSH2 0x1C0B JUMPI SWAP1 DUP9 SWAP4 SWAP3 SWAP2 DUP5 MSTORE DUP8 DUP6 MSTORE DUP10 DUP6 ADD CALLER DUP2 MSTORE DUP5 DUP7 ADD SWAP2 DUP13 DUP4 MSTORE PUSH2 0x1AD8 PUSH1 0x60 DUP9 ADD SWAP5 DUP6 PUSH2 0x22D4 JUMP JUMPDEST PUSH2 0x1B11 PUSH2 0x1B00 DUP14 PUSH1 0x80 DUP11 ADD SWAP8 TIMESTAMP DUP10 MSTORE DUP14 PUSH1 0xA0 DUP13 ADD SWAP11 PUSH1 0x1 DUP13 MSTORE MLOAD SWAP4 DUP5 SWAP3 DUP4 SWAP3 MLOAD SWAP3 DUP4 SWAP2 PUSH2 0x200F JUMP JUMPDEST DUP2 ADD DUP14 DUP2 MSTORE SUB ADD SWAP1 KECCAK256 SWAP8 MLOAD DUP9 PUSH2 0x233C JUMP JUMPDEST PUSH1 0x1 DUP8 ADD SWAP2 MLOAD AND PUSH1 0x1 PUSH1 0x1 PUSH1 0x60 SHL SUB PUSH1 0xA0 SHL DUP3 SLOAD AND OR SWAP1 SSTORE MLOAD PUSH1 0x2 DUP6 ADD SSTORE MLOAD PUSH1 0x2 DUP2 LT ISZERO PUSH2 0x1BF9 JUMPI SWAP2 PUSH1 0x5 SWAP2 PUSH2 0x1B4E DUP6 SWAP5 PUSH1 0x3 PUSH2 0x1B69 SWAP8 ADD PUSH2 0x2403 JUMP JUMPDEST MLOAD DUP7 DUP5 ADD SSTORE MLOAD ISZERO ISZERO SWAP2 ADD SWAP1 PUSH1 0xFF DUP1 NOT DUP4 SLOAD AND SWAP2 ISZERO ISZERO AND OR SWAP1 SSTORE JUMP JUMPDEST PUSH1 0x8 SLOAD PUSH1 0x1 PUSH1 0x40 SHL DUP2 LT ISZERO PUSH2 0x1BE7 JUMPI DUP1 PUSH1 0x1 PUSH2 0x1B88 SWAP3 ADD PUSH1 0x8 SSTORE PUSH2 0x1ECA JUMP JUMPDEST SWAP3 SWAP1 SWAP3 PUSH2 0x1BD7 JUMPI POP POP DUP2 PUSH2 0x1BC1 PUSH32 0xF34A4C127FF02F03C1D1FB093BB2C95EC0CFD3C38220B818EF19234533C6B96C SWAP5 SWAP4 PUSH2 0x1BC6 SWAP4 PUSH2 0x233C JUMP JUMPDEST PUSH2 0x241B JUMP JUMPDEST SWAP3 DUP2 MLOAD SWAP5 DUP6 MSTORE TIMESTAMP SWAP1 DUP6 ADD MSTORE CALLER SWAP4 LOG3 DUP1 RETURN JUMPDEST PUSH4 0x4E487B71 PUSH1 0xE0 SHL DUP9 MSTORE DUP8 SWAP1 MSTORE DUP7 REVERT JUMPDEST POP PUSH4 0x4E487B71 PUSH1 0xE0 SHL DUP8 MSTORE PUSH1 0x41 DUP3 MSTORE DUP7 REVERT JUMPDEST PUSH4 0x4E487B71 PUSH1 0xE0 SHL DUP12 MSTORE PUSH1 0x21 DUP7 MSTORE DUP5 DUP12 REVERT JUMPDEST PUSH4 0x4E487B71 PUSH1 0xE0 SHL DUP13 MSTORE PUSH1 0x41 DUP8 MSTORE DUP6 DUP13 REVERT JUMPDEST DUP9 MLOAD PUSH4 0x1833B57B PUSH1 0xE1 SHL DUP2 MSTORE DUP8 DUP2 ADD DUP12 SWAP1 MSTORE DUP11 DUP2 DUP1 PUSH2 0x1C3E DUP11 DUP3 ADD DUP14 PUSH2 0x2032 JUMP JUMPDEST SUB DUP2 DUP6 GAS STATICCALL SWAP1 DUP14 DUP3 ISZERO PUSH2 0x1411 JUMPI DUP10 DUP13 DUP15 SWAP4 DUP14 SWAP4 SWAP6 PUSH2 0x1CF4 JUMPI JUMPDEST POP MLOAD PUSH4 0x73A6FE89 PUSH1 0xE0 SHL DUP2 MSTORE SWAP1 DUP2 ADD DUP4 SWAP1 MSTORE SWAP3 SWAP4 DUP4 SWAP2 DUP3 SWAP1 DUP2 SWAP1 PUSH2 0x1C7E SWAP1 DUP14 DUP4 ADD SWAP1 PUSH2 0x2032 JUMP JUMPDEST SUB SWAP2 GAS STATICCALL SWAP1 DUP2 ISZERO PUSH2 0x1CEA JUMPI DUP14 SWAP2 PUSH2 0x1CB9 JUMPI JUMPDEST POP DUP4 PUSH2 0x1CA8 JUMPI POP PUSH2 0x1CA2 SWAP1 DUP12 GT PUSH2 0x2277 JUMP JUMPDEST CODESIZE PUSH2 0x1AA0 JUMP JUMPDEST PUSH2 0x1CB4 SWAP2 POP DUP12 GT PUSH2 0x2277 JUMP JUMPDEST PUSH2 0x1CA2 JUMP JUMPDEST SWAP1 POP DUP11 DUP2 DUP2 RETURNDATASIZE DUP4 GT PUSH2 0x1CE3 JUMPI JUMPDEST PUSH2 0x1CD0 DUP2 DUP4 PUSH2 0x1E47 JUMP JUMPDEST DUP2 ADD SUB SLT PUSH2 0x1CDF JUMPI MLOAD CODESIZE PUSH2 0x1C90 JUMP JUMPDEST DUP13 DUP1 REVERT JUMPDEST POP RETURNDATASIZE PUSH2 0x1CC6 JUMP JUMPDEST DUP11 MLOAD RETURNDATASIZE DUP16 DUP3 RETURNDATACOPY RETURNDATASIZE SWAP1 REVERT JUMPDEST SWAP5 POP POP POP POP DUP2 DUP2 RETURNDATASIZE DUP4 GT PUSH2 0x1D20 JUMPI JUMPDEST PUSH2 0x1D0D DUP2 DUP4 PUSH2 0x1E47 JUMP JUMPDEST DUP2 ADD SUB SLT PUSH2 0x1CDF JUMPI MLOAD DUP11 DUP10 DUP10 DUP13 DUP4 PUSH2 0x1C57 JUMP JUMPDEST POP RETURNDATASIZE PUSH2 0x1D03 JUMP JUMPDEST DUP8 MLOAD PUSH3 0x461BCD PUSH1 0xE5 SHL DUP2 MSTORE DUP1 DUP8 ADD DUP11 SWAP1 MSTORE PUSH1 0x19 DUP2 DUP8 ADD MSTORE PUSH32 0x4F6E6C79206F776E65722063616E206C69737420617373657400000000000000 PUSH1 0x44 DUP3 ADD MSTORE PUSH1 0x64 SWAP1 REVERT JUMPDEST PUSH2 0x1A8C SWAP3 POP PUSH2 0x1D82 SWAP2 POP RETURNDATASIZE DUP1 DUP16 DUP4 RETURNDATACOPY PUSH2 0xAFB DUP2 DUP4 PUSH2 0x1E47 JUMP JUMPDEST POP SWAP9 SWAP8 POP POP POP SWAP4 POP POP POP POP SWAP2 SWAP1 PUSH2 0x1A82 JUMP JUMPDEST DUP10 MLOAD RETURNDATASIZE DUP15 DUP3 RETURNDATACOPY RETURNDATASIZE SWAP1 REVERT JUMPDEST DUP7 MLOAD PUSH3 0x461BCD PUSH1 0xE5 SHL DUP2 MSTORE DUP1 DUP7 ADD DUP10 SWAP1 MSTORE PUSH1 0x14 DUP2 DUP7 ADD MSTORE PUSH20 0x105CDCD95D08185B1C9958591E481B1A5CDD1959 PUSH1 0x62 SHL PUSH1 0x44 DUP3 ADD MSTORE PUSH1 0x64 SWAP1 REVERT JUMPDEST DUP8 DUP1 REVERT JUMPDEST SWAP1 POP CALLVALUE PUSH2 0x220 JUMPI DUP2 PUSH1 0x3 NOT CALLDATASIZE ADD SLT PUSH2 0x220 JUMPI PUSH32 0x0 PUSH1 0x1 PUSH1 0x1 PUSH1 0xA0 SHL SUB AND DUP2 MSTORE PUSH1 0x20 SWAP1 RETURN JUMPDEST PUSH1 0x1 PUSH1 0x1 PUSH1 0x40 SHL SUB DUP2 GT PUSH2 0x1E31 JUMPI PUSH1 0x40 MSTORE JUMP JUMPDEST PUSH4 0x4E487B71 PUSH1 0xE0 SHL PUSH1 0x0 MSTORE PUSH1 0x41 PUSH1 0x4 MSTORE PUSH1 0x24 PUSH1 0x0 REVERT JUMPDEST SWAP1 PUSH1 0x1F DUP1 NOT SWAP2 ADD AND DUP2 ADD SWAP1 DUP2 LT PUSH1 0x1 PUSH1 0x1 PUSH1 0x40 SHL SUB DUP3 GT OR PUSH2 0x1E31 JUMPI PUSH1 0x40 MSTORE JUMP JUMPDEST PUSH1 0x1 PUSH1 0x1 PUSH1 0x40 SHL SUB DUP2 GT PUSH2 0x1E31 JUMPI PUSH1 0x1F ADD PUSH1 0x1F NOT AND PUSH1 0x20 ADD SWAP1 JUMP JUMPDEST DUP2 PUSH1 0x1F DUP3 ADD SLT ISZERO PUSH2 0x610 JUMPI DUP1 CALLDATALOAD SWAP1 PUSH2 0x1E9A DUP3 PUSH2 0x1E68 JUMP JUMPDEST SWAP3 PUSH2 0x1EA8 PUSH1 0x40 MLOAD SWAP5 DUP6 PUSH2 0x1E47 JUMP JUMPDEST DUP3 DUP5 MSTORE PUSH1 0x20 DUP4 DUP4 ADD ADD GT PUSH2 0x610 JUMPI DUP2 PUSH1 0x0 SWAP3 PUSH1 0x20 DUP1 SWAP4 ADD DUP4 DUP7 ADD CALLDATACOPY DUP4 ADD ADD MSTORE SWAP1 JUMP JUMPDEST PUSH1 0x8 SLOAD DUP2 LT ISZERO PUSH2 0x1F01 JUMPI PUSH1 0x8 PUSH1 0x0 MSTORE PUSH32 0xF3F7A9FE364FAAB93B216DA50A3214154F22A0A2B415B23A84C8169E8B636EE3 ADD SWAP1 PUSH1 0x0 SWAP1 JUMP JUMPDEST PUSH4 0x4E487B71 PUSH1 0xE0 SHL PUSH1 0x0 MSTORE PUSH1 0x32 PUSH1 0x4 MSTORE PUSH1 0x24 PUSH1 0x0 REVERT JUMPDEST DUP1 SLOAD DUP3 LT ISZERO PUSH2 0x1F01 JUMPI PUSH1 0x0 MSTORE PUSH1 0x20 PUSH1 0x0 KECCAK256 ADD SWAP1 PUSH1 0x0 SWAP1 JUMP JUMPDEST SWAP1 PUSH1 0x1 DUP3 DUP2 SHR SWAP3 AND DUP1 ISZERO PUSH2 0x1F5F JUMPI JUMPDEST PUSH1 0x20 DUP4 LT EQ PUSH2 0x1F49 JUMPI JUMP JUMPDEST PUSH4 0x4E487B71 PUSH1 0xE0 SHL PUSH1 0x0 MSTORE PUSH1 0x22 PUSH1 0x4 MSTORE PUSH1 0x24 PUSH1 0x0 REVERT JUMPDEST SWAP2 PUSH1 0x7F AND SWAP2 PUSH2 0x1F3E JUMP JUMPDEST SWAP1 PUSH1 0x40 MLOAD SWAP2 DUP3 PUSH1 0x0 DUP3 SLOAD SWAP3 PUSH2 0x1F7D DUP5 PUSH2 0x1F2F JUMP JUMPDEST SWAP1 DUP2 DUP5 MSTORE PUSH1 0x1 SWAP5 DUP6 DUP2 AND SWAP1 DUP2 PUSH1 0x0 EQ PUSH2 0x1FEC JUMPI POP PUSH1 0x1 EQ PUSH2 0x1FA9 JUMPI JUMPDEST POP POP PUSH2 0x1FA7 SWAP3 POP SUB DUP4 PUSH2 0x1E47 JUMP JUMPDEST JUMP JUMPDEST SWAP1 SWAP4 SWAP2 POP PUSH1 0x0 MSTORE PUSH1 0x20 SWAP1 DUP2 PUSH1 0x0 KECCAK256 SWAP4 PUSH1 0x0 SWAP2 JUMPDEST DUP2 DUP4 LT PUSH2 0x1FD4 JUMPI POP POP PUSH2 0x1FA7 SWAP4 POP DUP3 ADD ADD CODESIZE DUP1 PUSH2 0x1F99 JUMP JUMPDEST DUP6 SLOAD DUP9 DUP5 ADD DUP6 ADD MSTORE SWAP5 DUP6 ADD SWAP5 DUP8 SWAP5 POP SWAP2 DUP4 ADD SWAP2 PUSH2 0x1FBC JUMP JUMPDEST SWAP2 POP POP PUSH2 0x1FA7 SWAP5 POP PUSH1 0x20 SWAP3 POP PUSH1 0xFF NOT AND DUP3 DUP5 ADD MSTORE ISZERO ISZERO PUSH1 0x5 SHL DUP3 ADD ADD CODESIZE DUP1 PUSH2 0x1F99 JUMP JUMPDEST PUSH1 0x0 JUMPDEST DUP4 DUP2 LT PUSH2 0x2022 JUMPI POP POP PUSH1 0x0 SWAP2 ADD MSTORE JUMP JUMPDEST DUP2 DUP2 ADD MLOAD DUP4 DUP3 ADD MSTORE PUSH1 0x20 ADD PUSH2 0x2012 JUMP JUMPDEST SWAP1 PUSH1 0x20 SWAP2 PUSH2 0x204B DUP2 MLOAD DUP1 SWAP3 DUP2 DUP6 MSTORE DUP6 DUP1 DUP7 ADD SWAP2 ADD PUSH2 0x200F JUMP JUMPDEST PUSH1 0x1F ADD PUSH1 0x1F NOT AND ADD ADD SWAP1 JUMP JUMPDEST SWAP1 PUSH1 0x2 DUP3 LT ISZERO PUSH2 0x2064 JUMPI MSTORE JUMP JUMPDEST PUSH4 0x4E487B71 PUSH1 0xE0 SHL PUSH1 0x0 MSTORE PUSH1 0x21 PUSH1 0x4 MSTORE PUSH1 0x24 PUSH1 0x0 REVERT JUMPDEST PUSH1 0x40 PUSH1 0x3 NOT DUP3 ADD SLT PUSH2 0x610 JUMPI PUSH1 0x4 CALLDATALOAD SWAP1 PUSH1 0x1 PUSH1 0x1 PUSH1 0x40 SHL SUB DUP3 GT PUSH2 0x610 JUMPI PUSH2 0x20A4 SWAP2 PUSH1 0x4 ADD PUSH2 0x1E83 JUMP JUMPDEST SWAP1 PUSH1 0x24 CALLDATALOAD SWAP1 JUMP JUMPDEST PUSH1 0x0 SLOAD PUSH1 0x1 PUSH1 0x1 PUSH1 0xA0 SHL SUB AND CALLER SUB PUSH2 0x20BF JUMPI JUMP JUMPDEST PUSH1 0x40 MLOAD PUSH4 0x118CDAA7 PUSH1 0xE0 SHL DUP2 MSTORE CALLER PUSH1 0x4 DUP3 ADD MSTORE PUSH1 0x24 SWAP1 REVERT JUMPDEST ISZERO PUSH2 0x20DE JUMPI JUMP JUMPDEST PUSH1 0x40 MLOAD PUSH3 0x461BCD PUSH1 0xE5 SHL DUP2 MSTORE PUSH1 0x20 PUSH1 0x4 DUP3 ADD MSTORE PUSH1 0x1C PUSH1 0x24 DUP3 ADD MSTORE PUSH32 0x5072696365206D7573742062652067726561746572207468616E203000000000 PUSH1 0x44 DUP3 ADD MSTORE PUSH1 0x64 SWAP1 REVERT JUMPDEST DUP2 PUSH1 0x1F DUP3 ADD SLT ISZERO PUSH2 0x610 JUMPI DUP1 MLOAD PUSH2 0x2139 DUP2 PUSH2 0x1E68 JUMP JUMPDEST SWAP3 PUSH2 0x2147 PUSH1 0x40 MLOAD SWAP5 DUP6 PUSH2 0x1E47 JUMP JUMPDEST DUP2 DUP5 MSTORE PUSH1 0x20 DUP3 DUP5 ADD ADD GT PUSH2 0x610 JUMPI PUSH2 0x2165 SWAP2 PUSH1 0x20 DUP1 DUP6 ADD SWAP2 ADD PUSH2 0x200F JUMP JUMPDEST SWAP1 JUMP JUMPDEST MLOAD SWAP1 PUSH1 0x1 PUSH1 0x1 PUSH1 0xA0 SHL SUB DUP3 AND DUP3 SUB PUSH2 0x610 JUMPI JUMP JUMPDEST MLOAD SWAP1 DUP2 ISZERO ISZERO DUP3 SUB PUSH2 0x610 JUMPI JUMP JUMPDEST PUSH2 0x140 DUP2 DUP4 SUB SLT PUSH2 0x610 JUMPI DUP1 MLOAD SWAP3 PUSH1 0x1 PUSH1 0x1 PUSH1 0x40 SHL SUB SWAP4 DUP5 DUP2 GT PUSH2 0x610 JUMPI DUP4 PUSH2 0x21B3 SWAP2 DUP5 ADD PUSH2 0x2123 JUMP JUMPDEST SWAP4 PUSH1 0x20 DUP4 ADD MLOAD DUP2 DUP2 GT PUSH2 0x610 JUMPI DUP5 PUSH2 0x21CC SWAP2 DUP6 ADD PUSH2 0x2123 JUMP JUMPDEST SWAP4 PUSH1 0x40 DUP5 ADD MLOAD SWAP2 DUP3 GT PUSH2 0x610 JUMPI PUSH2 0x21E4 SWAP2 DUP5 ADD PUSH2 0x2123 JUMP JUMPDEST SWAP2 PUSH1 0x60 DUP2 ADD MLOAD SWAP2 PUSH1 0x80 DUP3 ADD MLOAD SWAP2 PUSH2 0x21FD PUSH1 0xA0 DUP3 ADD PUSH2 0x2168 JUMP JUMPDEST SWAP2 PUSH2 0x220A PUSH1 0xC0 DUP4 ADD PUSH2 0x2168 JUMP JUMPDEST SWAP2 PUSH1 0xE0 DUP2 ADD MLOAD SWAP2 PUSH2 0x2165 PUSH2 0x120 PUSH2 0x2224 PUSH2 0x100 DUP6 ADD PUSH2 0x217C JUMP JUMPDEST SWAP4 ADD PUSH2 0x217C JUMP JUMPDEST ISZERO PUSH2 0x2232 JUMPI JUMP JUMPDEST PUSH1 0x40 MLOAD PUSH3 0x461BCD PUSH1 0xE5 SHL DUP2 MSTORE PUSH1 0x20 PUSH1 0x4 DUP3 ADD MSTORE PUSH1 0x1A PUSH1 0x24 DUP3 ADD MSTORE PUSH32 0x4173736574206E6F7420666F756E6420696E206C696272617279000000000000 PUSH1 0x44 DUP3 ADD MSTORE PUSH1 0x64 SWAP1 REVERT JUMPDEST ISZERO PUSH2 0x227E JUMPI JUMP JUMPDEST PUSH1 0x40 MLOAD PUSH3 0x461BCD PUSH1 0xE5 SHL DUP2 MSTORE PUSH1 0x20 PUSH1 0x4 DUP3 ADD MSTORE PUSH1 0x28 PUSH1 0x24 DUP3 ADD MSTORE PUSH32 0x5072696365206D75737420626520686967686572207468616E20726F79616C74 PUSH1 0x44 DUP3 ADD MSTORE PUSH8 0x1A595CC81C185A59 PUSH1 0xC2 SHL PUSH1 0x64 DUP3 ADD MSTORE PUSH1 0x84 SWAP1 REVERT JUMPDEST PUSH1 0x2 DUP3 LT ISZERO PUSH2 0x2064 JUMPI MSTORE JUMP JUMPDEST DUP2 DUP2 LT PUSH2 0x22EB JUMPI POP POP JUMP JUMPDEST PUSH1 0x0 DUP2 SSTORE PUSH1 0x1 ADD PUSH2 0x22E0 JUMP JUMPDEST SWAP2 SWAP1 PUSH1 0x1F DUP2 GT PUSH2 0x2306 JUMPI POP POP POP JUMP JUMPDEST PUSH2 0x1FA7 SWAP3 PUSH1 0x0 MSTORE PUSH1 0x20 PUSH1 0x0 KECCAK256 SWAP1 PUSH1 0x20 PUSH1 0x1F DUP5 ADD PUSH1 0x5 SHR DUP4 ADD SWAP4 LT PUSH2 0x2332 JUMPI JUMPDEST PUSH1 0x1F ADD PUSH1 0x5 SHR ADD SWAP1 PUSH2 0x22E0 JUMP JUMPDEST SWAP1 SWAP2 POP DUP2 SWAP1 PUSH2 0x2325 JUMP JUMPDEST SWAP2 SWAP1 SWAP2 DUP3 MLOAD PUSH1 0x1 PUSH1 0x1 PUSH1 0x40 SHL SUB DUP2 GT PUSH2 0x1E31 JUMPI PUSH2 0x2363 DUP2 PUSH2 0x235D DUP5 SLOAD PUSH2 0x1F2F JUMP JUMPDEST DUP5 PUSH2 0x22F7 JUMP JUMPDEST PUSH1 0x20 DUP1 PUSH1 0x1F DUP4 GT PUSH1 0x1 EQ PUSH2 0x239F JUMPI POP DUP2 SWAP3 SWAP4 SWAP5 PUSH1 0x0 SWAP3 PUSH2 0x2394 JUMPI JUMPDEST POP POP DUP2 PUSH1 0x1 SHL SWAP2 PUSH1 0x0 NOT SWAP1 PUSH1 0x3 SHL SHR NOT AND OR SWAP1 SSTORE JUMP JUMPDEST ADD MLOAD SWAP1 POP CODESIZE DUP1 PUSH2 0x237E JUMP JUMPDEST SWAP1 PUSH1 0x1F NOT DUP4 AND SWAP6 DUP5 PUSH1 0x0 MSTORE DUP3 PUSH1 0x0 KECCAK256 SWAP3 PUSH1 0x0 SWAP1 JUMPDEST DUP9 DUP3 LT PUSH2 0x23EB JUMPI POP POP DUP4 PUSH1 0x1 SWAP6 SWAP7 SWAP8 LT PUSH2 0x23D2 JUMPI JUMPDEST POP POP POP DUP2 SHL ADD SWAP1 SSTORE JUMP JUMPDEST ADD MLOAD PUSH1 0x0 NOT PUSH1 0xF8 DUP5 PUSH1 0x3 SHL AND SHR NOT AND SWAP1 SSTORE CODESIZE DUP1 DUP1 PUSH2 0x23C8 JUMP JUMPDEST DUP1 PUSH1 0x1 DUP6 SWAP7 DUP3 SWAP5 SWAP7 DUP7 ADD MLOAD DUP2 SSTORE ADD SWAP6 ADD SWAP4 ADD SWAP1 PUSH2 0x23B3 JUMP JUMPDEST SWAP1 PUSH1 0x2 DUP2 LT ISZERO PUSH2 0x2064 JUMPI PUSH1 0xFF DUP1 NOT DUP4 SLOAD AND SWAP2 AND OR SWAP1 SSTORE JUMP JUMPDEST PUSH2 0x2433 SWAP1 PUSH1 0x20 PUSH1 0x40 MLOAD SWAP3 DUP3 DUP5 DUP1 SWAP5 MLOAD SWAP4 DUP5 SWAP3 ADD PUSH2 0x200F JUMP JUMPDEST DUP2 ADD SUB SWAP1 KECCAK256 SWAP1 JUMP JUMPDEST ISZERO PUSH2 0x2442 JUMPI JUMP JUMPDEST PUSH1 0x40 MLOAD PUSH3 0x461BCD PUSH1 0xE5 SHL DUP2 MSTORE PUSH1 0x20 PUSH1 0x4 DUP3 ADD MSTORE PUSH1 0x12 PUSH1 0x24 DUP3 ADD MSTORE PUSH18 0x4C697374696E67206E6F7420616374697665 PUSH1 0x70 SHL PUSH1 0x44 DUP3 ADD MSTORE PUSH1 0x64 SWAP1 REVERT JUMPDEST DUP2 DUP2 MUL SWAP3 SWAP2 DUP2 ISZERO SWAP2 DUP5 DIV EQ OR ISZERO PUSH2 0x248F JUMPI JUMP JUMPDEST PUSH4 0x4E487B71 PUSH1 0xE0 SHL PUSH1 0x0 MSTORE PUSH1 0x11 PUSH1 0x4 MSTORE PUSH1 0x24 PUSH1 0x0 REVERT JUMPDEST SWAP2 SWAP1 DUP3 SUB SWAP2 DUP3 GT PUSH2 0x248F JUMPI JUMP JUMPDEST ISZERO PUSH2 0x24B9 JUMPI JUMP JUMPDEST PUSH1 0x40 MLOAD PUSH3 0x461BCD PUSH1 0xE5 SHL DUP2 MSTORE PUSH1 0x20 PUSH1 0x4 DUP3 ADD MSTORE PUSH1 0x18 PUSH1 0x24 DUP3 ADD MSTORE PUSH32 0x5061796D656E7420746F2073656C6C6572206661696C65640000000000000000 PUSH1 0x44 DUP3 ADD MSTORE PUSH1 0x64 SWAP1 REVERT JUMPDEST RETURNDATASIZE ISZERO PUSH2 0x2529 JUMPI RETURNDATASIZE SWAP1 PUSH2 0x250F DUP3 PUSH2 0x1E68 JUMP JUMPDEST SWAP2 PUSH2 0x251D PUSH1 0x40 MLOAD SWAP4 DUP5 PUSH2 0x1E47 JUMP JUMPDEST DUP3 MSTORE RETURNDATASIZE PUSH1 0x0 PUSH1 0x20 DUP5 ADD RETURNDATACOPY JUMP JUMPDEST PUSH1 0x60 SWAP1 JUMP JUMPDEST PUSH1 0x2 PUSH1 0x1 SLOAD EQ PUSH2 0x253F JUMPI PUSH1 0x2 PUSH1 0x1 SSTORE JUMP JUMPDEST PUSH1 0x40 MLOAD PUSH4 0x3EE5AEB5 PUSH1 0xE0 SHL DUP2 MSTORE PUSH1 0x4 SWAP1 REVERT JUMPDEST PUSH1 0x0 NOT DUP2 EQ PUSH2 0x248F JUMPI PUSH1 0x1 ADD SWAP1 JUMP JUMPDEST ISZERO PUSH2 0x2567 JUMPI JUMP JUMPDEST PUSH1 0x40 MLOAD PUSH3 0x461BCD PUSH1 0xE5 SHL DUP2 MSTORE PUSH1 0x20 PUSH1 0x4 DUP3 ADD MSTORE PUSH1 0x10 PUSH1 0x24 DUP3 ADD MSTORE PUSH16 0x4F66666572206E6F7420616374697665 PUSH1 0x80 SHL PUSH1 0x44 DUP3 ADD MSTORE PUSH1 0x64 SWAP1 REVERT JUMPDEST SWAP1 PUSH1 0x0 SWAP3 SWAP2 DUP1 SLOAD SWAP2 PUSH2 0x25B0 DUP4 PUSH2 0x1F2F JUMP JUMPDEST SWAP2 DUP3 DUP3 MSTORE PUSH1 0x1 SWAP4 DUP5 DUP2 AND SWAP1 DUP2 PUSH1 0x0 EQ PUSH2 0x2612 JUMPI POP PUSH1 0x1 EQ PUSH2 0x25D2 JUMPI JUMPDEST POP POP POP POP JUMP JUMPDEST SWAP1 SWAP2 SWAP4 SWAP5 POP PUSH1 0x0 MSTORE PUSH1 0x20 SWAP3 DUP4 PUSH1 0x0 KECCAK256 SWAP3 DUP5 PUSH1 0x0 SWAP5 JUMPDEST DUP4 DUP7 LT PUSH2 0x25FE JUMPI POP POP POP POP ADD ADD SWAP1 CODESIZE DUP1 DUP1 DUP1 PUSH2 0x25CC JUMP JUMPDEST DUP1 SLOAD DUP6 DUP8 ADD DUP4 ADD MSTORE SWAP5 ADD SWAP4 DUP6 SWAP1 DUP3 ADD PUSH2 0x25E7 JUMP JUMPDEST SWAP3 SWAP5 POP POP POP PUSH1 0x20 SWAP4 SWAP5 POP PUSH1 0xFF NOT AND DUP4 DUP4 ADD MSTORE ISZERO ISZERO PUSH1 0x5 SHL ADD ADD SWAP1 CODESIZE DUP1 DUP1 DUP1 PUSH2 0x25CC JUMP JUMPDEST PUSH1 0x0 SWAP3 SWAP2 DUP2 SLOAD PUSH2 0x2644 DUP2 PUSH2 0x1F2F JUMP JUMPDEST SWAP3 PUSH1 0x1 SWAP2 DUP1 DUP4 AND SWAP1 DUP2 ISZERO PUSH2 0x269C JUMPI POP PUSH1 0x1 EQ PUSH2 0x2660 JUMPI POP POP POP POP JUMP JUMPDEST SWAP1 SWAP2 SWAP3 SWAP4 SWAP5 POP PUSH1 0x0 MSTORE PUSH1 0x20 SWAP1 DUP2 PUSH1 0x0 KECCAK256 SWAP1 PUSH1 0x0 SWAP2 JUMPDEST DUP6 DUP4 LT PUSH2 0x268B JUMPI POP POP POP POP ADD SWAP1 CODESIZE DUP1 DUP1 DUP1 PUSH2 0x25CC JUMP JUMPDEST DUP1 SLOAD DUP6 DUP5 ADD MSTORE SWAP2 DUP4 ADD SWAP2 DUP2 ADD PUSH2 0x2675 JUMP JUMPDEST PUSH1 0xFF NOT AND DUP5 MSTORE POP POP POP DUP2 ISZERO ISZERO SWAP1 SWAP2 MUL ADD SWAP2 POP CODESIZE DUP1 DUP1 DUP1 PUSH2 0x25CC JUMP JUMPDEST ISZERO PUSH2 0x26BE JUMPI JUMP JUMPDEST PUSH1 0x40 MLOAD PUSH3 0x461BCD PUSH1 0xE5 SHL DUP2 MSTORE PUSH1 0x20 PUSH1 0x4 DUP3 ADD MSTORE PUSH1 0xD PUSH1 0x24 DUP3 ADD MSTORE PUSH13 0x1499599D5B990819985A5B1959 PUSH1 0x9A SHL PUSH1 0x44 DUP3 ADD MSTORE PUSH1 0x64 SWAP1 REVERT JUMPDEST ISZERO PUSH2 0x26FA JUMPI JUMP JUMPDEST PUSH1 0x40 MLOAD PUSH3 0x461BCD PUSH1 0xE5 SHL DUP2 MSTORE PUSH1 0x20 PUSH1 0x4 DUP3 ADD MSTORE PUSH1 0x11 PUSH1 0x24 DUP3 ADD MSTORE PUSH17 0x15DA5D1A191C985DD85B0819985A5B1959 PUSH1 0x7A SHL PUSH1 0x44 DUP3 ADD MSTORE PUSH1 0x64 SWAP1 REVERT JUMPDEST SWAP1 DUP1 DUP3 EQ PUSH2 0x280B JUMPI PUSH2 0x2745 DUP2 SLOAD PUSH2 0x1F2F JUMP JUMPDEST SWAP1 PUSH1 0x1 PUSH1 0x1 PUSH1 0x40 SHL SUB DUP3 GT PUSH2 0x1E31 JUMPI DUP2 SWAP1 PUSH2 0x276A DUP3 PUSH2 0x2764 DUP7 SLOAD PUSH2 0x1F2F JUMP JUMPDEST DUP7 PUSH2 0x22F7 JUMP JUMPDEST PUSH1 0x0 SWAP1 PUSH1 0x1F DUP4 GT PUSH1 0x1 EQ PUSH2 0x27A0 JUMPI PUSH1 0x0 SWAP3 PUSH2 0x2795 JUMPI POP POP DUP2 PUSH1 0x1 SHL SWAP2 PUSH1 0x0 NOT SWAP1 PUSH1 0x3 SHL SHR NOT AND OR SWAP1 SSTORE JUMP JUMPDEST ADD SLOAD SWAP1 POP CODESIZE DUP1 PUSH2 0x237E JUMP JUMPDEST DUP2 MSTORE PUSH1 0x20 DUP1 DUP3 KECCAK256 DUP6 DUP4 MSTORE DUP2 DUP4 KECCAK256 SWAP4 POP SWAP1 PUSH1 0x1F NOT DUP6 AND SWAP1 DUP4 SWAP1 JUMPDEST DUP3 DUP3 LT PUSH2 0x27F2 JUMPI POP POP SWAP1 DUP5 PUSH1 0x1 SWAP6 SWAP5 SWAP4 SWAP3 LT PUSH2 0x27D9 JUMPI POP POP POP DUP2 SHL ADD SWAP1 SSTORE JUMP JUMPDEST ADD SLOAD PUSH1 0x0 NOT PUSH1 0xF8 DUP5 PUSH1 0x3 SHL AND SHR NOT AND SWAP1 SSTORE CODESIZE DUP1 DUP1 PUSH2 0x23C8 JUMP JUMPDEST DUP5 SWAP6 DUP2 SWAP3 SWAP6 DUP6 ADD SLOAD DUP2 SSTORE PUSH1 0x1 DUP1 SWAP2 ADD SWAP7 ADD SWAP5 ADD SWAP1 PUSH2 0x27B9 JUMP JUMPDEST POP POP JUMP JUMPDEST PUSH1 0x0 JUMPDEST PUSH1 0x8 DUP1 SLOAD SWAP1 DUP2 DUP4 LT ISZERO PUSH2 0x25CC JUMPI PUSH2 0x283C SWAP2 PUSH2 0x2843 PUSH2 0x282F DUP6 PUSH2 0x1ECA JUMP JUMPDEST POP PUSH1 0x40 MLOAD SWAP5 DUP6 DUP1 SWAP3 PUSH2 0x259F JUMP JUMPDEST SUB DUP5 PUSH2 0x1E47 JUMP JUMPDEST DUP3 MLOAD PUSH1 0x20 DUP1 SWAP5 ADD KECCAK256 DUP6 MLOAD DUP5 DUP8 ADD KECCAK256 EQ PUSH2 0x2867 JUMPI POP POP POP PUSH2 0x2862 SWAP1 PUSH2 0x2551 JUMP JUMPDEST PUSH2 0x2812 JUMP JUMPDEST SWAP2 SWAP4 POP SWAP2 PUSH1 0x0 NOT SWAP2 DUP3 DUP2 ADD SWAP1 DUP2 GT PUSH2 0x248F JUMPI PUSH2 0x2885 PUSH2 0x288C SWAP2 PUSH2 0x1ECA JUMP JUMPDEST POP SWAP2 PUSH2 0x1ECA JUMP JUMPDEST SWAP2 SWAP1 SWAP2 PUSH2 0x290A JUMPI PUSH2 0x289C SWAP2 PUSH2 0x2733 JUMP JUMPDEST DUP2 SLOAD DUP1 ISZERO PUSH2 0x2920 JUMPI ADD SWAP2 PUSH2 0x28AF DUP4 PUSH2 0x1ECA JUMP JUMPDEST PUSH2 0x290A JUMPI PUSH2 0x28BD DUP2 SLOAD PUSH2 0x1F2F JUMP JUMPDEST DUP1 PUSH2 0x28C9 JUMPI JUMPDEST POP POP POP SSTORE JUMP JUMPDEST PUSH1 0x0 SWAP3 PUSH1 0x1F SWAP1 DUP2 DUP4 GT PUSH1 0x1 EQ PUSH2 0x28E6 JUMPI POP POP POP SSTORE JUMPDEST CODESIZE DUP1 DUP1 PUSH2 0x28C3 JUMP JUMPDEST DUP4 SWAP2 PUSH2 0x2903 SWAP2 DUP7 SWAP5 SWAP6 DUP6 MSTORE DUP5 KECCAK256 SWAP5 ADD PUSH1 0x5 SHR DUP5 ADD PUSH1 0x1 DUP6 ADD PUSH2 0x22E0 JUMP JUMPDEST SSTORE SSTORE PUSH2 0x28DE JUMP JUMPDEST PUSH4 0x4E487B71 PUSH1 0xE0 SHL PUSH1 0x0 MSTORE PUSH1 0x0 PUSH1 0x4 MSTORE PUSH1 0x24 PUSH1 0x0 REVERT JUMPDEST PUSH4 0x4E487B71 PUSH1 0xE0 SHL PUSH1 0x0 MSTORE PUSH1 0x31 PUSH1 0x4 MSTORE PUSH1 0x24 PUSH1 0x0 REVERT JUMPDEST SWAP1 PUSH1 0x40 SWAP2 DUP3 MLOAD DUP2 MLOAD PUSH1 0x20 SWAP1 PUSH2 0x294E DUP2 DUP5 DUP5 DUP8 ADD PUSH2 0x200F JUMP JUMPDEST DUP3 ADD SWAP2 DUP2 DUP2 PUSH1 0x6 SWAP5 DUP6 DUP2 MSTORE SUB ADD SWAP1 KECCAK256 SWAP5 PUSH1 0x0 JUMPDEST DUP7 SLOAD DUP2 LT ISZERO PUSH2 0x2B88 JUMPI PUSH2 0x2974 DUP2 DUP9 PUSH2 0x1F17 JUMP JUMPDEST SWAP1 SLOAD PUSH1 0x3 SWAP2 DUP3 SHL SHR PUSH1 0x0 MSTORE PUSH1 0x5 DUP5 MSTORE DUP3 PUSH1 0x0 KECCAK256 SWAP1 DUP6 DUP3 ADD DUP1 SLOAD SWAP1 PUSH1 0xFF SWAP2 DUP3 DUP2 AND PUSH2 0x29AC JUMPI JUMPDEST POP POP POP POP POP PUSH2 0x29A7 SWAP1 PUSH2 0x2551 JUMP JUMPDEST PUSH2 0x2961 JUMP JUMPDEST PUSH1 0xFF NOT AND SWAP1 SSTORE DUP3 DUP3 ADD SLOAD PUSH1 0x2 SWAP2 PUSH1 0x0 SWAP2 AND DUP3 DUP2 LT ISZERO PUSH2 0x2B74 JUMPI PUSH2 0x2AAC JUMPI POP SWAP1 PUSH2 0x29A7 SWAP4 SWAP3 SWAP2 PUSH1 0x0 DUP1 DUP1 DUP1 PUSH1 0x1 DUP1 PUSH1 0xA0 SHL SUB PUSH1 0x1 DUP9 ADD SLOAD AND DUP6 DUP9 ADD SLOAD SWAP1 GAS CALL PUSH2 0x29F2 PUSH2 0x24FE JUMP JUMPDEST POP JUMPDEST ISZERO PUSH2 0x2A53 JUMPI POP PUSH2 0x2A04 DUP4 DUP12 PUSH2 0x1F17 JUMP JUMPDEST SWAP1 SLOAD PUSH1 0x1 SWAP1 SWAP4 ADD SLOAD PUSH1 0x1 PUSH1 0x1 PUSH1 0xA0 SHL SUB AND SWAP3 SWAP2 SHL SHR PUSH2 0x2A22 DUP9 PUSH2 0x241B JUMP JUMPDEST SWAP1 PUSH32 0xA73002EB00B7F458173AEC22CF4445BBDB98267F801A7FE3D22DBA9382338CDB PUSH1 0x0 DUP1 LOG4 JUMPDEST SWAP1 CODESIZE DUP1 DUP1 DUP1 PUSH2 0x2999 JUMP JUMPDEST SWAP1 PUSH2 0x2A5E DUP5 DUP13 PUSH2 0x1F17 JUMP JUMPDEST SWAP1 SLOAD SWAP2 SHL SHR SWAP1 PUSH1 0x1 DUP1 PUSH1 0xA0 SHL SUB PUSH1 0x1 DUP5 ADD SLOAD AND SWAP3 ADD SLOAD SWAP1 PUSH32 0x9FDD6FDDB8DFEA391C0580CC31BC495423AE195AB3AE95994FF20A15AA3B2B4D DUP8 PUSH2 0x2AA0 DUP12 PUSH2 0x241B JUMP JUMPDEST SWAP4 DUP9 MLOAD SWAP1 DUP2 MSTORE LOG4 PUSH2 0x2A49 JUMP JUMPDEST PUSH1 0x1 DUP5 ADD SLOAD DUP3 DUP6 ADD SLOAD DUP8 MLOAD PUSH4 0xA9059CBB PUSH1 0xE0 SHL DUP2 MSTORE PUSH1 0x1 PUSH1 0x1 PUSH1 0xA0 SHL SUB SWAP3 DUP4 AND PUSH1 0x4 DUP3 ADD MSTORE PUSH1 0x24 DUP2 ADD SWAP2 SWAP1 SWAP2 MSTORE SWAP1 DUP9 SWAP1 DUP3 SWAP1 PUSH1 0x44 SWAP1 DUP3 SWAP1 DUP7 SWAP1 PUSH32 0x0 AND GAS CALL SWAP2 DUP3 ISZERO PUSH2 0x2B69 JUMPI DUP1 SWAP3 PUSH2 0x2B26 JUMPI JUMPDEST POP POP SWAP1 PUSH2 0x29A7 SWAP5 SWAP4 SWAP3 SWAP2 PUSH2 0x29F4 JUMP JUMPDEST SWAP1 SWAP2 POP DUP8 DUP3 DUP2 RETURNDATASIZE DUP4 GT PUSH2 0x2B62 JUMPI JUMPDEST PUSH2 0x2B3E DUP2 DUP4 PUSH2 0x1E47 JUMP JUMPDEST DUP2 ADD SUB SLT PUSH2 0x224 JUMPI POP SWAP1 PUSH2 0x2B57 PUSH2 0x29A7 SWAP6 SWAP5 SWAP4 SWAP3 PUSH2 0x217C JUMP JUMPDEST SWAP1 SWAP2 SWAP3 SWAP4 SWAP5 CODESIZE PUSH2 0x2B17 JUMP JUMPDEST POP RETURNDATASIZE PUSH2 0x2B34 JUMP JUMPDEST DUP8 MLOAD SWAP1 RETURNDATASIZE SWAP1 DUP3 RETURNDATACOPY RETURNDATASIZE SWAP1 REVERT JUMPDEST PUSH4 0x4E487B71 PUSH1 0xE0 SHL DUP3 MSTORE PUSH1 0x21 PUSH1 0x4 MSTORE PUSH1 0x24 DUP3 REVERT JUMPDEST POP POP POP POP POP SWAP1 POP JUMP INVALID LOG2 PUSH5 0x6970667358 0x22 SLT KECCAK256 0xB4 0xC PUSH31 0x7C28C6160B272E0DB4B24B0ED295B68CA5FB8349971CF33AD7D89C51976473 PUSH16 0x6C634300081400330000000000000000 "},"methodIdentifiers":{"FEE_DENOMINATOR()":"d73792a9","USDC_ADDRESS()":"bb09d9b7","acceptOffer(uint256)":"c815729d","activeListings(uint256)":"61cf4863","buyAsset(string)":"c7ef9672","cancelListing(string)":"943f2261","cancelOffer(uint256)":"ef706adf","getActiveListingsCount()":"7b55927c","getProjectOffers(string)":"f941fb99","libraryContract()":"ce0769c5","listAsset(string,uint256,uint8)":"13b06915","listings(string)":"77dec6c3","makeOffer(string,uint256,uint8,uint256)":"a2235558","nextOfferId()":"5f5d0655","offers(uint256)":"8a72ea6a","owner()":"8da5cb5b","platformFeePercentage()":"cdd78cfc","projectOffers(string,uint256)":"a3a67058","renounceOwnership()":"715018a6","royaltyContract()":"1663ee03","setRoyaltyContract(address)":"d9aa187c","transferOwnership(address)":"f2fde38b","updateListingPrice(string,uint256)":"9122d553","updatePlatformFee(uint256)":"aa0b5988","usdcToken()":"11eac855","withdrawPlatformFees()":"d0b7830b","withdrawPlatformFeesUSDC()":"dceb7686"}}}}}