{"ClayMarketplace.sol":{"ClayMarketplace":{"abi":[{"inputs":[{"internalType":"address","name":"_libraryContract","type":"address"}],"stateMutability":"nonpayable","type":"constructor"},{"inputs":[{"internalType":"address","name":"owner","type":"address"}],"name":"OwnableInvalidOwner","type":"error"},{"inputs":[{"internalType":"address","name":"account","type":"address"}],"name":"OwnableUnauthorizedAccount","type":"error"},{"inputs":[],"name":"ReentrancyGuardReentrantCall","type":"error"},{"anonymous":false,"inputs":[{"indexed":true,"internalType":"string","name":"projectId","type":"string"},{"indexed":true,"internalType":"address","name":"seller","type":"address"},{"indexed":false,"internalType":"uint256","name":"price","type":"uint256"},{"indexed":false,"internalType":"uint256","name":"timestamp","type":"uint256"}],"name":"AssetListed","type":"event"},{"anonymous":false,"inputs":[{"indexed":true,"internalType":"string","name":"projectId","type":"string"},{"indexed":true,"internalType":"address","name":"seller","type":"address"},{"indexed":true,"internalType":"address","name":"buyer","type":"address"},{"indexed":false,"internalType":"uint256","name":"price","type":"uint256"},{"indexed":false,"internalType":"uint256","name":"platformFee","type":"uint256"}],"name":"AssetSold","type":"event"},{"anonymous":false,"inputs":[{"indexed":true,"internalType":"string","name":"projectId","type":"string"},{"indexed":true,"internalType":"address","name":"seller","type":"address"}],"name":"ListingCancelled","type":"event"},{"anonymous":false,"inputs":[{"indexed":true,"internalType":"string","name":"projectId","type":"string"},{"indexed":false,"internalType":"uint256","name":"oldPrice","type":"uint256"},{"indexed":false,"internalType":"uint256","name":"newPrice","type":"uint256"}],"name":"ListingPriceUpdated","type":"event"},{"anonymous":false,"inputs":[{"indexed":true,"internalType":"uint256","name":"offerId","type":"uint256"},{"indexed":true,"internalType":"string","name":"projectId","type":"string"},{"indexed":true,"internalType":"address","name":"seller","type":"address"},{"indexed":false,"internalType":"address","name":"buyer","type":"address"},{"indexed":false,"internalType":"uint256","name":"price","type":"uint256"}],"name":"OfferAccepted","type":"event"},{"anonymous":false,"inputs":[{"indexed":true,"internalType":"uint256","name":"offerId","type":"uint256"},{"indexed":true,"internalType":"string","name":"projectId","type":"string"},{"indexed":true,"internalType":"address","name":"buyer","type":"address"}],"name":"OfferCancelled","type":"event"},{"anonymous":false,"inputs":[{"indexed":true,"internalType":"uint256","name":"offerId","type":"uint256"},{"indexed":true,"internalType":"string","name":"projectId","type":"string"},{"indexed":true,"internalType":"address","name":"buyer","type":"address"},{"indexed":false,"internalType":"uint256","name":"offerPrice","type":"uint256"},{"indexed":false,"internalType":"uint256","name":"expiresAt","type":"uint256"}],"name":"OfferCreated","type":"event"},{"anonymous":false,"inputs":[{"indexed":true,"internalType":"address","name":"previousOwner","type":"address"},{"indexed":true,"internalType":"address","name":"newOwner","type":"address"}],"name":"OwnershipTransferred","type":"event"},{"inputs":[],"name":"FEE_DENOMINATOR","outputs":[{"internalType":"uint256","name":"","type":"uint256"}],"stateMutability":"view","type":"function"},{"inputs":[],"name":"USDC_ADDRESS","outputs":[{"internalType":"address","name":"","type":"address"}],"stateMutability":"view","type":"function"},{"inputs":[{"internalType":"uint256","name":"offerId","type":"uint256"}],"name":"acceptOffer","outputs":[],"stateMutability":"nonpayable","type":"function"},{"inputs":[{"internalType":"uint256","name":"","type":"uint256"}],"name":"activeListings","outputs":[{"internalType":"string","name":"","type":"string"}],"stateMutability":"view","type":"function"},{"inputs":[{"internalType":"string","name":"projectId","type":"string"}],"name":"buyAsset","outputs":[],"stateMutability":"payable","type":"function"},{"inputs":[{"internalType":"string","name":"projectId","type":"string"}],"name":"cancelListing","outputs":[],"stateMutability":"nonpayable","type":"function"},{"inputs":[{"internalType":"uint256","name":"offerId","type":"uint256"}],"name":"cancelOffer","outputs":[],"stateMutability":"nonpayable","type":"function"},{"inputs":[],"name":"getActiveListingsCount","outputs":[{"internalType":"uint256","name":"","type":"uint256"}],"stateMutability":"view","type":"function"},{"inputs":[{"internalType":"string","name":"projectId","type":"string"}],"name":"getProjectOffers","outputs":[{"internalType":"uint256[]","name":"","type":"uint256[]"}],"stateMutability":"view","type":"function"},{"inputs":[],"name":"libraryContract","outputs":[{"internalType":"contract IClayLibrary","name":"","type":"address"}],"stateMutability":"view","type":"function"},{"inputs":[{"internalType":"string","name":"projectId","type":"string"},{"internalType":"uint256","name":"price","type":"uint256"},{"internalType":"enum ClayMarketplace.PaymentToken","name":"paymentToken","type":"uint8"}],"name":"listAsset","outputs":[],"stateMutability":"nonpayable","type":"function"},{"inputs":[{"internalType":"string","name":"","type":"string"}],"name":"listings","outputs":[{"internalType":"string","name":"projectId","type":"string"},{"internalType":"address","name":"seller","type":"address"},{"internalType":"uint256","name":"price","type":"uint256"},{"internalType":"enum ClayMarketplace.PaymentToken","name":"paymentToken","type":"uint8"},{"internalType":"uint256","name":"listedAt","type":"uint256"},{"internalType":"bool","name":"isActive","type":"bool"}],"stateMutability":"view","type":"function"},{"inputs":[{"internalType":"string","name":"projectId","type":"string"},{"internalType":"uint256","name":"offerPrice","type":"uint256"},{"internalType":"enum ClayMarketplace.PaymentToken","name":"paymentToken","type":"uint8"},{"internalType":"uint256","name":"duration","type":"uint256"}],"name":"makeOffer","outputs":[],"stateMutability":"payable","type":"function"},{"inputs":[],"name":"nextOfferId","outputs":[{"internalType":"uint256","name":"","type":"uint256"}],"stateMutability":"view","type":"function"},{"inputs":[{"internalType":"uint256","name":"","type":"uint256"}],"name":"offers","outputs":[{"internalType":"string","name":"projectId","type":"string"},{"internalType":"address","name":"buyer","type":"address"},{"internalType":"uint256","name":"offerPrice","type":"uint256"},{"internalType":"enum ClayMarketplace.PaymentToken","name":"paymentToken","type":"uint8"},{"internalType":"uint256","name":"offeredAt","type":"uint256"},{"internalType":"uint256","name":"expiresAt","type":"uint256"},{"internalType":"bool","name":"isActive","type":"bool"}],"stateMutability":"view","type":"function"},{"inputs":[],"name":"owner","outputs":[{"internalType":"address","name":"","type":"address"}],"stateMutability":"view","type":"function"},{"inputs":[],"name":"platformFeePercentage","outputs":[{"internalType":"uint256","name":"","type":"uint256"}],"stateMutability":"view","type":"function"},{"inputs":[{"internalType":"string","name":"","type":"string"},{"internalType":"uint256","name":"","type":"uint256"}],"name":"projectOffers","outputs":[{"internalType":"uint256","name":"","type":"uint256"}],"stateMutability":"view","type":"function"},{"inputs":[],"name":"renounceOwnership","outputs":[],"stateMutability":"nonpayable","type":"function"},{"inputs":[{"internalType":"address","name":"newOwner","type":"address"}],"name":"transferOwnership","outputs":[],"stateMutability":"nonpayable","type":"function"},{"inputs":[{"internalType":"string","name":"projectId","type":"string"},{"internalType":"uint256","name":"newPrice","type":"uint256"}],"name":"updateListingPrice","outputs":[],"stateMutability":"nonpayable","type":"function"},{"inputs":[{"internalType":"uint256","name":"newFeePercentage","type":"uint256"}],"name":"updatePlatformFee","outputs":[],"stateMutability":"nonpayable","type":"function"},{"inputs":[],"name":"usdcToken","outputs":[{"internalType":"contract IERC20","name":"","type":"address"}],"stateMutability":"view","type":"function"},{"inputs":[],"name":"withdrawPlatformFees","outputs":[],"stateMutability":"nonpayable","type":"function"},{"inputs":[],"name":"withdrawPlatformFeesUSDC","outputs":[],"stateMutability":"nonpayable","type":"function"}],"evm":{"bytecode":{"linkReferences":{},"object":"60a03461012157601f62002aee38819003918201601f19168301916001600160401b038311848410176101265780849260209460405283398101031261012157516001600160a01b0390818116908190036101215733156101085760005460018060a01b0319903382821617600055604051933391167f8be0079c531659141344cd1fd0a4f28419497f9722a3daafe3b4186f6b6457e0600080a360018055600160065560fa600855600254161760025573833589fcd6edb6e08f4c7c32d4f71b54bda029136080526129b190816200013d82396080518181816103a3015281816104b7015281816109a901528181610d640152818161133601528181611c7b01526128d60152f35b604051631e4fbdf760e01b815260006004820152602490fd5b600080fd5b634e487b7160e01b600052604160045260246000fdfe60806040908082526004908136101561001757600080fd5b600090813560e01c90816311eac85514611c675750806313b069151461195f5780635f5d06551461194057806361cf4863146118da578063715018a61461188057806377dec6c3146117d05780637b55927c146117b15780638a72ea6a146117175780638da5cb5b146116ef5780639122d5531461160f578063943f22611461151a578063a22355581461104b578063a3a6705814610ff2578063aa0b598814610f86578063bb09d9b714610f57578063c7ef967214610af0578063c815729d146106f2578063cdd78cfc146106d3578063ce0769c5146106aa578063d0b7830b1461062b578063d73792a91461060e578063dceb76861461047e578063ef706adf146102a4578063f2fde38b146102115763f941fb991461013857600080fd5b3461020e576020918260031936011261020a5780356001600160401b038111610206579261016e61018092829695369101611d0f565b81855193828580945193849201611ea0565b81016005815203019020908251808584549182815201908194845286842090845b8181106101f257505050816101b7910382611cd3565b83519485948186019282875251809352850193925b8281106101db57505050500390f35b8351855286955093810193928101926001016101cc565b8254845292880192600192830192016101a1565b8280fd5b5080fd5b80fd5b509134610206576020366003190112610206576001600160a01b038235818116939192908490036102a057610244611f3c565b831561028a575050600054826001600160601b0360a01b821617600055167f8be0079c531659141344cd1fd0a4f28419497f9722a3daafe3b4186f6b6457e0600080a380f35b51631e4fbdf760e01b8152908101849052602490fd5b8480fd5b50919034610206576020918260031936011261047a578135916102c561239e565b82855280845281852093600685018054926102e260ff85166123d0565b60018701546001600160a01b039290831633036104375760028801549460ff1916905560ff60038801541660028110156104245788939291906103765750505080808061033a94335af1610334612332565b50612362565b51806103478133956124a5565b039020907fa73002eb00b7f458173aec22cf4445bbdb98267f801a7fe3d22dba9382338cdb8480a46001805580f35b855163a9059cbb60e01b8152339181019182526020820195909552919283928592918391829060400103927f0000000000000000000000000000000000000000000000000000000000000000165af190811561041a5786916103e3575b506103de9150612362565b61033a565b905081813d8311610413575b6103f98183611cd3565b810103126102a05761040d6103de9161200d565b386103d3565b503d6103ef565b83513d88823e3d90fd5b634e487b7160e01b895260218252602489fd5b855162461bcd60e51b8152808301859052601b60248201527f4f6e6c792062757965722063616e2063616e63656c206f6666657200000000006044820152606490fd5b8380fd5b50823461020a578160031936011261020a57610498611f3c565b80516370a0823160e01b81523084820152926020906001600160a01b037f0000000000000000000000000000000000000000000000000000000000000000811691908387602481865afa9687156106045786976105d1575b50861561058e578554855163a9059cbb60e01b815291166001600160a01b031691810191825260208201969096529394938291859182908890829060400103925af19182156105855750839161054e575b8361054b83612527565b80f35b905081813d831161057e575b6105648183611cd3565b8101031261020a5761057861054b9161200d565b83610541565b503d61055a565b513d85823e3d90fd5b845162461bcd60e51b8152808301859052601860248201527f4e6f2055534443206665657320746f20776974686472617700000000000000006044820152606490fd5b9096508381813d83116105fd575b6105e98183611cd3565b810103126105f9575195876104f0565b8580fd5b503d6105df565b85513d88823e3d90fd5b50823461020a578160031936011261020a57602090516127108152f35b50919034610206578260031936011261020657610646611f3c565b47918215610671578361054b818080808860018060a01b038254165af161066b612332565b50612527565b906020606492519162461bcd60e51b835282015260136024820152724e6f206665657320746f20776974686472617760681b6044820152fd5b50823461020a578160031936011261020a5760025490516001600160a01b039091168152602090f35b50823461020a578160031936011261020a576020906008549051908152f35b509190346102065760208060031936011261047a5781359161071261239e565b828552808252838520936006850161072d60ff8254166123d0565b6005860154421015610abe576002548251630cd5286d60e41b81528481018690526001600160a01b039791899082908a16818061076d602482018861240f565b03915afa8015610ab45789918a91610a81575b5061078a906120bc565b8733911603610a3e5760028101968754926107b56127106107ad600854876122b0565b0480956122d9565b60ff6003850154166002811015610a2b57888c911560001461097d57508080806107ea94335af16107e4612332565b506122e6565b8982600254169660018501978489541691813b1561047a5783918991838351809681958294632203f8f160e01b8452830152610829604483018d61240f565b90602483015203925af1801561097357610955575b5050907f8c68d600771ad8af3c86a9f96bd5c471eca94aebd78ea274787f8e95e07aaa1095610909939260ff199081815416905560ff600588518b81610884818a6124a5565b600381520301902001541661091f575b506108a66108a184611dfa565b61276a565b5416809854978551806108b981866124a5565b03902086516001600160a01b03939093168352602083018a905233929091907f9332956e0c3dd558cabf109a274fd9184f7cd2081da1b9d9e28e702cf8a6cc5990604090a48351918280926124a5565b0390209382519586528501523393a46001805580f35b600587518a8161092f81896124a5565b60038152030190200190815416905561094f61094a84611dfa565b612643565b38610894565b6109629094939294611caa565b61096f579091893861083e565b8980fd5b87513d84823e3d90fd5b875163a9059cbb60e01b8152338a820190815260208101949094529290918391829081906040010391877f0000000000000000000000000000000000000000000000000000000000000000165af18015610a21578b906109e7575b6109e291506122e6565b6107ea565b508781813d8311610a1a575b6109fd8183611cd3565b81010312610a1657610a116109e29161200d565b6109d8565b8a80fd5b503d6109f3565b86513d8d823e3d90fd5b634e487b7160e01b8c526021885260248cfd5b825162461bcd60e51b8152808501869052601b60248201527f4f6e6c79206f776e65722063616e20616363657074206f6666657200000000006044820152606490fd5b61078a9250610aa291503d808c833e610a9a8183611cd3565b81019061201a565b50989750505093505050509190610780565b84513d8b823e3d90fd5b5091606492519162461bcd60e51b8352820152600d60248201526c13d999995c88195e1c1a5c9959609a1b6044820152fd5b50919060208060031936011261047a5781356001600160401b0381116102a057610b1d9036908401611d0f565b92610b2661239e565b805182818651610b398183858b01611ea0565b810160038152030190209260058401610b5560ff82541661226f565b6001850180546001600160a01b0390811693909290338514610f1457600288019788549560ff6003610b97612710610b8f6008548c6122b0565b04809a6122d9565b930154166002811015610f0157610d2e575088543410610ceb578a808080610bc794898954165af16107e4612332565b87548a813411610cc9575b50505b89846002541691823b1561020a57610c0b9288838d93825196879586948593632203f8f160e01b85528401526044830190611ec3565b33602483015203925af18015610cbf57610c80575b50805460ff191690557f8c68d600771ad8af3c86a9f96bd5c471eca94aebd78ea274787f8e95e07aaa10939291610c6d91610c5a89612643565b610c638961276a565b541695549661224f565b9382519687528601523394a46001805580f35b917f8c68d600771ad8af3c86a9f96bd5c471eca94aebd78ea274787f8e95e07aaa109594939199610cb3610c6d94611caa565b99919394955091610c20565b86513d8c823e3d90fd5b808080610cd9610ce495346122d9565b335af1610334612332565b388a610bd2565b865162461bcd60e51b8152808301899052601860248201527f496e73756666696369656e7420455448207061796d656e7400000000000000006044820152606490fd5b9034610eb45787516323b872dd60e01b808252338583019081526001600160a01b03909416602085015260408401929092528c927f0000000000000000000000000000000000000000000000000000000000000000881691908b9082908190606001038187865af1908115610eaa57908b9392918591610e71575b50610db3906122e6565b895191825233858301908152306020820152604081018a905291938492839190829060600103925af1908115610e67578b91610e32575b50610bd557855162461bcd60e51b8152908101879052601c60248201527f506c6174666f726d20666565207472616e73666572206661696c6564000000006044820152606490fd5b90508781813d8311610e60575b610e498183611cd3565b81010312610a1657610e5a9061200d565b38610dea565b503d610e3f565b87513d8d823e3d90fd5b84819592503d8311610ea3575b610e888183611cd3565b8101031261047a57610db3610e9d8c9461200d565b90610da9565b503d610e7e565b8a513d86823e3d90fd5b875162461bcd60e51b81528084018a9052602160248201527f446f206e6f742073656e642045544820666f72205553444320707572636861736044820152606560f81b6064820152608490fd5b634e487b7160e01b8d526021845260248dfd5b855162461bcd60e51b8152908101879052601960248201527f43616e6e6f742062757920796f7572206f776e206173736574000000000000006044820152606490fd5b50823461020a578160031936011261020a576020905173833589fcd6edb6e08f4c7c32d4f71b54bda029138152f35b5091903461020657602036600319011261020657803591610fa5611f3c565b6103e88311610fb657505060085580f35b906020606492519162461bcd60e51b8352820152601660248201527546656520746f6f206869676820286d6178203130252960501b6044820152fd5b50823461020a5760209161101c61100836611f0b565b949081855193828580945193849201611ea0565b8101600581520301902090815484101561020e575060209261103d91611da8565b91905490519160031b1c8152f35b5091906080366003190112610206576001600160401b0381358181116102a0576110789036908401611d0f565b9260249182359460449485359460028610156115165760649384359689156114de57610e10881015806114d1575b1561149e576002548751630cd5286d60e41b815260208682018190529a6001600160a01b03989290918e91829082908c1681806110e58c82018f611ec3565b03915afa90811561149457828092611468575b5050611103906120bc565b8816331461142a5782611300578b34036112cc5750505b60065497611127896123c1565b6006554201958642116112ba5787519260e08401908111848210176112a85789928c8e8a948e948d528a88526111978d868a0193338552818b0195865261117260608c019788612108565b8c60808c0198428a5260a08d019a8b5260c08d019b60018d5283525220985189612170565b600188019151166001600160601b0360a01b82541617905551600286015551600281101561129657918493916111d560069460036111f69801612237565b518785015551600584015551151591019060ff801983541691151516179055565b8451878185516112098183858a01611ea0565b8101600581520301902090815492600160401b8410156112855750509161125c827fcfed541454dac78f93da97764a61638d187363e6d64a389faa86edcaaf8932bc969594600161127695018155611da8565b81549060031b9088821b91600019901b191617905561224f565b9482519687528601523394a480f35b634e487b7160e01b8b526041905289fd5b634e487b7160e01b8e5260218752858efd5b634e487b7160e01b8d5260418652848dfd5b634e487b7160e01b8c5260118552838cfd5b7208aa89040c2dadeeadce840dad2e6dac2e8c6d606b1b86916013878e8d519562461bcd60e51b8752860152840152820152fd5b346113ec5788516323b872dd60e01b815233878201908152306020820152604081018e90528e91908d90829081900360600181857f00000000000000000000000000000000000000000000000000000000000000008f165af19182156113e157916113a8575b501561137357505061111a565b731554d110c81d1c985b9cd9995c8819985a5b195960621b86916014878e8d519562461bcd60e51b8752860152840152820152fd5b90508b81813d83116113da575b6113bf8183611cd3565b810103126113d6576113d09061200d565b38611366565b8d80fd5b503d6113b5565b8b51903d90823e3d90fd5b7f446f206e6f742073656e642045544820666f722055534443206f6666657200008691601e878e8d519562461bcd60e51b8752860152840152820152fd5b7f43616e6e6f74206f66666572206f6e20796f7572206f776e20617373657400008691601e878e8d519562461bcd60e51b8752860152840152820152fd5b611103935061148192503d8091833e610a9a8183611cd3565b509897505050935050505091908f6110f8565b8b513d84823e3d90fd5b865162461bcd60e51b81526020818601526010818501526f24b73b30b634b210323ab930ba34b7b760811b818b01528690fd5b5062278d008811156110a6565b865162461bcd60e51b8152602081860152601581850152744f66666572206d75737420686176652076616c756560581b818b01528690fd5b8880fd5b5091346102065760203660031901126102065781356001600160401b03811161047a5761154a9036908401611d0f565b918151602081855161155f8183858a01611ea0565b8101600381520301902090600582019283549261157e60ff851661226f565b600101546001600160a01b031633036115d357505060ff191690556115a281612643565b6115ac339161224f565b7f0ad06290f905050c9dac577e139b4b450621b456073e716db7561a52f3ff89288380a380f35b906020606492519162461bcd60e51b8352820152601660248201527513db9b1e481cd95b1b195c8818d85b8818d85b98d95b60521b6044820152fd5b5091346102065761161f36611f0b565b92825160208184516116348183858901611ea0565b810160038152030190209061164f60ff60058401541661226f565b60018201546001600160a01b031633036116b35750906116a460027f702cf1ff9b007b1ce6285f06d88972428a71330a6f9bc7ac9b49803661dd7bde9493611698871515611f68565b0191858354935561224f565b9382519182526020820152a280f35b606490602085519162461bcd60e51b835282015260166024820152754f6e6c792073656c6c65722063616e2075706461746560501b6044820152fd5b50823461020a578160031936011261020a57905490516001600160a01b039091168152602090f35b509190346102065760203660031901126102065781611789938235815282602052209161174383611dfa565b9260018060a01b036001820154169261179c60028301549160ff600385015416908401549260ff6006600587015496015416958051998a9960e08b5260e08b0190611ec3565b9760208a01528801526060870190611ee8565b608085015260a0840152151560c08301520390f35b50823461020a578160031936011261020a576020906007549051908152f35b50919034610206576020366003190112610206578035926001600160401b03841161020e575061180b602061016e61185d9536908501611d0f565b810160038152030190209161181f83611dfa565b9261187060018060a01b0360018301541693600283015460ff600581600387015416938601549501541694805198899860c08a5260c08a0190611ec3565b9660208901528701526060860190611ee8565b6080840152151560a08301520390f35b503461020e578060031936011261020e57611899611f3c565b80546001600160a01b03198116825581906001600160a01b03167f8be0079c531659141344cd1fd0a4f28419497f9722a3daafe3b4186f6b6457e08280a380f35b5082903461020e57602036600319011261020e57823560075481101561020a5761190390611d5b565b93909361192e5761192a8361191786611dfa565b9051918291602083526020830190611ec3565b0390f35b634e487b7160e01b8252819052602490fd5b50823461020a578160031936011261020a576020906006549051908152f35b509134610206576060366003190112610206576001600160401b039082358281116102a0576119919036908501611d0f565b602493843594604435946002861015611c63576119af871515611f68565b84519584519060ff60056020998a81818b01966119cd81838a611ea0565b81016003815203019020015416611c2a576002548751630cd5286d60e41b81528681018a90526001600160a01b03918c90829084168180611a108b82018e611ec3565b03915afa8015611c20578c918d91611bf5575b50611a2d906120bc565b8133911603611bb35787519360c0850190811185821017611ba15790889392918452878552898501338152848601918c8352611a6d606088019485612108565b611aa7611a958d60808a01974289528d60a08c019a60018c5251938492839251928391611ea0565b81016003815203019020975188612170565b600187019151166001600160601b0360a01b825416179055516002850155516002811015611b8f5791600591611ae485946003611aff9701612237565b518684015551151591019060ff801983541691151516179055565b600754600160401b811015611b7d57806001611b1e9201600755611d5b565b929092611b6d57505081611b577ff34a4c127ff02f03c1d1fb093bb2c95ec0cfd3c38220b818ef19234533c6b96c9493611b5c93612170565b61224f565b92815194855242908501523393a380f35b634e487b7160e01b885287905286fd5b50634e487b7160e01b87526041825286fd5b634e487b7160e01b8b5260218652848bfd5b634e487b7160e01b8c5260418752858cfd5b875162461bcd60e51b81528087018a90526019818701527f4f6e6c79206f776e65722063616e206c697374206173736574000000000000006044820152606490fd5b611a2d9250611c0e91503d808f833e610a9a8183611cd3565b50989750505093505050509190611a23565b89513d8e823e3d90fd5b865162461bcd60e51b815280860189905260148186015273105cdcd95d08185b1c9958591e481b1a5cdd195960621b6044820152606490fd5b8780fd5b90503461020a578160031936011261020a577f00000000000000000000000000000000000000000000000000000000000000006001600160a01b03168152602090f35b6001600160401b038111611cbd57604052565b634e487b7160e01b600052604160045260246000fd5b90601f801991011681019081106001600160401b03821117611cbd57604052565b6001600160401b038111611cbd57601f01601f191660200190565b81601f82011215611d5657803590611d2682611cf4565b92611d346040519485611cd3565b82845260208383010111611d5657816000926020809301838601378301015290565b600080fd5b600754811015611d925760076000527fa66cc928b5edb82af9bd49922954155ab7b0942694bea4ce44661d9a8736c6880190600090565b634e487b7160e01b600052603260045260246000fd5b8054821015611d925760005260206000200190600090565b90600182811c92168015611df0575b6020831014611dda57565b634e487b7160e01b600052602260045260246000fd5b91607f1691611dcf565b9060405191826000825492611e0e84611dc0565b908184526001948581169081600014611e7d5750600114611e3a575b5050611e3892500383611cd3565b565b9093915060005260209081600020936000915b818310611e65575050611e3893508201013880611e2a565b85548884018501529485019487945091830191611e4d565b915050611e3894506020925060ff191682840152151560051b8201013880611e2a565b60005b838110611eb35750506000910152565b8181015183820152602001611ea3565b90602091611edc81518092818552858086019101611ea0565b601f01601f1916010190565b906002821015611ef55752565b634e487b7160e01b600052602160045260246000fd5b6040600319820112611d5657600435906001600160401b038211611d5657611f3591600401611d0f565b9060243590565b6000546001600160a01b03163303611f5057565b60405163118cdaa760e01b8152336004820152602490fd5b15611f6f57565b60405162461bcd60e51b815260206004820152601c60248201527f5072696365206d7573742062652067726561746572207468616e2030000000006044820152606490fd5b81601f82011215611d56578051611fca81611cf4565b92611fd86040519485611cd3565b81845260208284010111611d5657611ff69160208085019101611ea0565b90565b51906001600160a01b0382168203611d5657565b51908115158203611d5657565b61014081830312611d56578051926001600160401b0393848111611d565783612044918401611fb4565b936020830151818111611d56578461205d918501611fb4565b936040840151918211611d5657612075918401611fb4565b9160608101519160808201519161208e60a08201611ff9565b9161209b60c08301611ff9565b9160e081015191611ff66101206120b5610100850161200d565b930161200d565b156120c357565b60405162461bcd60e51b815260206004820152601a60248201527f4173736574206e6f7420666f756e6420696e206c6962726172790000000000006044820152606490fd5b6002821015611ef55752565b81811061211f575050565b60008155600101612114565b9190601f811161213a57505050565b611e38926000526020600020906020601f840160051c83019310612166575b601f0160051c0190612114565b9091508190612159565b91909182516001600160401b038111611cbd57612197816121918454611dc0565b8461212b565b602080601f83116001146121d35750819293946000926121c8575b50508160011b916000199060031b1c1916179055565b0151905038806121b2565b90601f198316958460005282600020926000905b88821061221f57505083600195969710612206575b505050811b019055565b015160001960f88460031b161c191690553880806121fc565b806001859682949686015181550195019301906121e7565b906002811015611ef55760ff80198354169116179055565b61226790602060405192828480945193849201611ea0565b810103902090565b1561227657565b60405162461bcd60e51b81526020600482015260126024820152714c697374696e67206e6f742061637469766560701b6044820152606490fd5b818102929181159184041417156122c357565b634e487b7160e01b600052601160045260246000fd5b919082039182116122c357565b156122ed57565b60405162461bcd60e51b815260206004820152601860248201527f5061796d656e7420746f2073656c6c6572206661696c656400000000000000006044820152606490fd5b3d1561235d573d9061234382611cf4565b916123516040519384611cd3565b82523d6000602084013e565b606090565b1561236957565b60405162461bcd60e51b815260206004820152600d60248201526c1499599d5b990819985a5b1959609a1b6044820152606490fd5b6002600154146123af576002600155565b604051633ee5aeb560e01b8152600490fd5b60001981146122c35760010190565b156123d757565b60405162461bcd60e51b815260206004820152601060248201526f4f66666572206e6f742061637469766560801b6044820152606490fd5b906000929180549161242083611dc0565b9182825260019384811690816000146124825750600114612442575b50505050565b90919394506000526020928360002092846000945b83861061246e57505050500101903880808061243c565b805485870183015294019385908201612457565b9294505050602093945060ff191683830152151560051b0101903880808061243c565b6000929181546124b481611dc0565b9260019180831690811561250c57506001146124d05750505050565b90919293945060005260209081600020906000915b8583106124fb575050505001903880808061243c565b8054858401529183019181016124e5565b60ff191684525050508115159091020191503880808061243c565b1561252e57565b60405162461bcd60e51b815260206004820152601160248201527015da5d1a191c985dd85b0819985a5b1959607a1b6044820152606490fd5b9080821461263f576125798154611dc0565b906001600160401b038211611cbd57819061259e826125988654611dc0565b8661212b565b600090601f83116001146125d4576000926125c95750508160011b916000199060031b1c1916179055565b0154905038806121b2565b81526020808220858352818320935090601f1985169083905b82821061262657505090846001959493921061260d57505050811b019055565b015460001960f88460031b161c191690553880806121fc565b84958192958501548155600180910196019401906125ed565b5050565b60005b60078054908183101561243c576126709161267761266385611d5b565b506040519485809261240f565b0384611cd3565b82516020809401208551848701201461269b57505050612696906123c1565b612646565b91935091600019918281019081116122c3576126b96126c091611d5b565b5091611d5b565b91909161273e576126d091612567565b815480156127545701916126e383611d5b565b61273e576126f18154611dc0565b806126fd575b50505055565b600092601f9081831160011461271a57505050555b3880806126f7565b83916127379186949585528420940160051c840160018501612114565b5555612712565b634e487b7160e01b600052600060045260246000fd5b634e487b7160e01b600052603160045260246000fd5b90604091825180825160209281612785859383858901611ea0565b8101600581520301902060005b8154811015612973576127a58183611da8565b9054600391821b1c60005260049081855287600020916006830180549060ff918281166127e1575b5050505050506127dc906123c1565b612792565b60ff19169055600090838501541691600292838110156129605788918c9161289457505050509060008080806127dc97969560018060a01b0360018801541690870154905af161282f612332565b505b61283f575b829381806127cd565b6128498386611da8565b90546001909301546001600160a01b031692911b1c6128678761224f565b907fa73002eb00b7f458173aec22cf4445bbdb98267f801a7fe3d22dba9382338cdb600080a43880612836565b600187015494870154915163a9059cbb60e01b81526001600160a01b0395861691810191825260208201929092529293909283919082908690829060400103927f0000000000000000000000000000000000000000000000000000000000000000165af1918215612955578092612914575b5050906127dc939291612831565b9091508682813d831161294e575b61292c8183611cd3565b8101031261020e5750906129446127dc94939261200d565b9091929338612906565b503d612922565b8a51903d90823e3d90fd5b634e487b7160e01b835260218252602483fd5b50505050905056fea26469706673582212208789ee66302f64b389a1b2cc3167e5f6915b0e17dc025beb690a3017d75342a664736f6c63430008140033","opcodes":"PUSH1 0xA0 CALLVALUE PUSH2 0x121 JUMPI PUSH1 0x1F PUSH3 0x2AEE CODESIZE DUP2 SWAP1 SUB SWAP2 DUP3 ADD PUSH1 0x1F NOT AND DUP4 ADD SWAP2 PUSH1 0x1 PUSH1 0x1 PUSH1 0x40 SHL SUB DUP4 GT DUP5 DUP5 LT OR PUSH2 0x126 JUMPI DUP1 DUP5 SWAP3 PUSH1 0x20 SWAP5 PUSH1 0x40 MSTORE DUP4 CODECOPY DUP2 ADD SUB SLT PUSH2 0x121 JUMPI MLOAD PUSH1 0x1 PUSH1 0x1 PUSH1 0xA0 SHL SUB SWAP1 DUP2 DUP2 AND SWAP1 DUP2 SWAP1 SUB PUSH2 0x121 JUMPI CALLER ISZERO PUSH2 0x108 JUMPI PUSH1 0x0 SLOAD PUSH1 0x1 DUP1 PUSH1 0xA0 SHL SUB NOT SWAP1 CALLER DUP3 DUP3 AND OR PUSH1 0x0 SSTORE PUSH1 0x40 MLOAD SWAP4 CALLER SWAP2 AND PUSH32 0x8BE0079C531659141344CD1FD0A4F28419497F9722A3DAAFE3B4186F6B6457E0 PUSH1 0x0 DUP1 LOG3 PUSH1 0x1 DUP1 SSTORE PUSH1 0x1 PUSH1 0x6 SSTORE PUSH1 0xFA PUSH1 0x8 SSTORE PUSH1 0x2 SLOAD AND OR PUSH1 0x2 SSTORE PUSH20 0x833589FCD6EDB6E08F4C7C32D4F71B54BDA02913 PUSH1 0x80 MSTORE PUSH2 0x29B1 SWAP1 DUP2 PUSH3 0x13D DUP3 CODECOPY PUSH1 0x80 MLOAD DUP2 DUP2 DUP2 PUSH2 0x3A3 ADD MSTORE DUP2 DUP2 PUSH2 0x4B7 ADD MSTORE DUP2 DUP2 PUSH2 0x9A9 ADD MSTORE DUP2 DUP2 PUSH2 0xD64 ADD MSTORE DUP2 DUP2 PUSH2 0x1336 ADD MSTORE DUP2 DUP2 PUSH2 0x1C7B ADD MSTORE PUSH2 0x28D6 ADD MSTORE RETURN JUMPDEST PUSH1 0x40 MLOAD PUSH4 0x1E4FBDF7 PUSH1 0xE0 SHL DUP2 MSTORE PUSH1 0x0 PUSH1 0x4 DUP3 ADD MSTORE PUSH1 0x24 SWAP1 REVERT JUMPDEST PUSH1 0x0 DUP1 REVERT JUMPDEST PUSH4 0x4E487B71 PUSH1 0xE0 SHL PUSH1 0x0 MSTORE PUSH1 0x41 PUSH1 0x4 MSTORE PUSH1 0x24 PUSH1 0x0 REVERT INVALID PUSH1 0x80 PUSH1 0x40 SWAP1 DUP1 DUP3 MSTORE PUSH1 0x4 SWAP1 DUP2 CALLDATASIZE LT ISZERO PUSH2 0x17 JUMPI PUSH1 0x0 DUP1 REVERT JUMPDEST PUSH1 0x0 SWAP1 DUP2 CALLDATALOAD PUSH1 0xE0 SHR SWAP1 DUP2 PUSH4 0x11EAC855 EQ PUSH2 0x1C67 JUMPI POP DUP1 PUSH4 0x13B06915 EQ PUSH2 0x195F JUMPI DUP1 PUSH4 0x5F5D0655 EQ PUSH2 0x1940 JUMPI DUP1 PUSH4 0x61CF4863 EQ PUSH2 0x18DA JUMPI DUP1 PUSH4 0x715018A6 EQ PUSH2 0x1880 JUMPI DUP1 PUSH4 0x77DEC6C3 EQ PUSH2 0x17D0 JUMPI DUP1 PUSH4 0x7B55927C EQ PUSH2 0x17B1 JUMPI DUP1 PUSH4 0x8A72EA6A EQ PUSH2 0x1717 JUMPI DUP1 PUSH4 0x8DA5CB5B EQ PUSH2 0x16EF JUMPI DUP1 PUSH4 0x9122D553 EQ PUSH2 0x160F JUMPI DUP1 PUSH4 0x943F2261 EQ PUSH2 0x151A JUMPI DUP1 PUSH4 0xA2235558 EQ PUSH2 0x104B JUMPI DUP1 PUSH4 0xA3A67058 EQ PUSH2 0xFF2 JUMPI DUP1 PUSH4 0xAA0B5988 EQ PUSH2 0xF86 JUMPI DUP1 PUSH4 0xBB09D9B7 EQ PUSH2 0xF57 JUMPI DUP1 PUSH4 0xC7EF9672 EQ PUSH2 0xAF0 JUMPI DUP1 PUSH4 0xC815729D EQ PUSH2 0x6F2 JUMPI DUP1 PUSH4 0xCDD78CFC EQ PUSH2 0x6D3 JUMPI DUP1 PUSH4 0xCE0769C5 EQ PUSH2 0x6AA JUMPI DUP1 PUSH4 0xD0B7830B EQ PUSH2 0x62B JUMPI DUP1 PUSH4 0xD73792A9 EQ PUSH2 0x60E JUMPI DUP1 PUSH4 0xDCEB7686 EQ PUSH2 0x47E JUMPI DUP1 PUSH4 0xEF706ADF EQ PUSH2 0x2A4 JUMPI DUP1 PUSH4 0xF2FDE38B EQ PUSH2 0x211 JUMPI PUSH4 0xF941FB99 EQ PUSH2 0x138 JUMPI PUSH1 0x0 DUP1 REVERT JUMPDEST CALLVALUE PUSH2 0x20E JUMPI PUSH1 0x20 SWAP2 DUP3 PUSH1 0x3 NOT CALLDATASIZE ADD SLT PUSH2 0x20A JUMPI DUP1 CALLDATALOAD PUSH1 0x1 PUSH1 0x1 PUSH1 0x40 SHL SUB DUP2 GT PUSH2 0x206 JUMPI SWAP3 PUSH2 0x16E PUSH2 0x180 SWAP3 DUP3 SWAP7 SWAP6 CALLDATASIZE SWAP2 ADD PUSH2 0x1D0F JUMP JUMPDEST DUP2 DUP6 MLOAD SWAP4 DUP3 DUP6 DUP1 SWAP5 MLOAD SWAP4 DUP5 SWAP3 ADD PUSH2 0x1EA0 JUMP JUMPDEST DUP2 ADD PUSH1 0x5 DUP2 MSTORE SUB ADD SWAP1 KECCAK256 SWAP1 DUP3 MLOAD DUP1 DUP6 DUP5 SLOAD SWAP2 DUP3 DUP2 MSTORE ADD SWAP1 DUP2 SWAP5 DUP5 MSTORE DUP7 DUP5 KECCAK256 SWAP1 DUP5 JUMPDEST DUP2 DUP2 LT PUSH2 0x1F2 JUMPI POP POP POP DUP2 PUSH2 0x1B7 SWAP2 SUB DUP3 PUSH2 0x1CD3 JUMP JUMPDEST DUP4 MLOAD SWAP5 DUP6 SWAP5 DUP2 DUP7 ADD SWAP3 DUP3 DUP8 MSTORE MLOAD DUP1 SWAP4 MSTORE DUP6 ADD SWAP4 SWAP3 JUMPDEST DUP3 DUP2 LT PUSH2 0x1DB JUMPI POP POP POP POP SUB SWAP1 RETURN JUMPDEST DUP4 MLOAD DUP6 MSTORE DUP7 SWAP6 POP SWAP4 DUP2 ADD SWAP4 SWAP3 DUP2 ADD SWAP3 PUSH1 0x1 ADD PUSH2 0x1CC JUMP JUMPDEST DUP3 SLOAD DUP5 MSTORE SWAP3 DUP9 ADD SWAP3 PUSH1 0x1 SWAP3 DUP4 ADD SWAP3 ADD PUSH2 0x1A1 JUMP JUMPDEST DUP3 DUP1 REVERT JUMPDEST POP DUP1 REVERT JUMPDEST DUP1 REVERT JUMPDEST POP SWAP2 CALLVALUE PUSH2 0x206 JUMPI PUSH1 0x20 CALLDATASIZE PUSH1 0x3 NOT ADD SLT PUSH2 0x206 JUMPI PUSH1 0x1 PUSH1 0x1 PUSH1 0xA0 SHL SUB DUP3 CALLDATALOAD DUP2 DUP2 AND SWAP4 SWAP2 SWAP3 SWAP1 DUP5 SWAP1 SUB PUSH2 0x2A0 JUMPI PUSH2 0x244 PUSH2 0x1F3C JUMP JUMPDEST DUP4 ISZERO PUSH2 0x28A JUMPI POP POP PUSH1 0x0 SLOAD DUP3 PUSH1 0x1 PUSH1 0x1 PUSH1 0x60 SHL SUB PUSH1 0xA0 SHL DUP3 AND OR PUSH1 0x0 SSTORE AND PUSH32 0x8BE0079C531659141344CD1FD0A4F28419497F9722A3DAAFE3B4186F6B6457E0 PUSH1 0x0 DUP1 LOG3 DUP1 RETURN JUMPDEST MLOAD PUSH4 0x1E4FBDF7 PUSH1 0xE0 SHL DUP2 MSTORE SWAP1 DUP2 ADD DUP5 SWAP1 MSTORE PUSH1 0x24 SWAP1 REVERT JUMPDEST DUP5 DUP1 REVERT JUMPDEST POP SWAP2 SWAP1 CALLVALUE PUSH2 0x206 JUMPI PUSH1 0x20 SWAP2 DUP3 PUSH1 0x3 NOT CALLDATASIZE ADD SLT PUSH2 0x47A JUMPI DUP2 CALLDATALOAD SWAP2 PUSH2 0x2C5 PUSH2 0x239E JUMP JUMPDEST DUP3 DUP6 MSTORE DUP1 DUP5 MSTORE DUP2 DUP6 KECCAK256 SWAP4 PUSH1 0x6 DUP6 ADD DUP1 SLOAD SWAP3 PUSH2 0x2E2 PUSH1 0xFF DUP6 AND PUSH2 0x23D0 JUMP JUMPDEST PUSH1 0x1 DUP8 ADD SLOAD PUSH1 0x1 PUSH1 0x1 PUSH1 0xA0 SHL SUB SWAP3 SWAP1 DUP4 AND CALLER SUB PUSH2 0x437 JUMPI PUSH1 0x2 DUP9 ADD SLOAD SWAP5 PUSH1 0xFF NOT AND SWAP1 SSTORE PUSH1 0xFF PUSH1 0x3 DUP9 ADD SLOAD AND PUSH1 0x2 DUP2 LT ISZERO PUSH2 0x424 JUMPI DUP9 SWAP4 SWAP3 SWAP2 SWAP1 PUSH2 0x376 JUMPI POP POP POP DUP1 DUP1 DUP1 PUSH2 0x33A SWAP5 CALLER GAS CALL PUSH2 0x334 PUSH2 0x2332 JUMP JUMPDEST POP PUSH2 0x2362 JUMP JUMPDEST MLOAD DUP1 PUSH2 0x347 DUP2 CALLER SWAP6 PUSH2 0x24A5 JUMP JUMPDEST SUB SWAP1 KECCAK256 SWAP1 PUSH32 0xA73002EB00B7F458173AEC22CF4445BBDB98267F801A7FE3D22DBA9382338CDB DUP5 DUP1 LOG4 PUSH1 0x1 DUP1 SSTORE DUP1 RETURN JUMPDEST DUP6 MLOAD PUSH4 0xA9059CBB PUSH1 0xE0 SHL DUP2 MSTORE CALLER SWAP2 DUP2 ADD SWAP2 DUP3 MSTORE PUSH1 0x20 DUP3 ADD SWAP6 SWAP1 SWAP6 MSTORE SWAP2 SWAP3 DUP4 SWAP3 DUP6 SWAP3 SWAP2 DUP4 SWAP2 DUP3 SWAP1 PUSH1 0x40 ADD SUB SWAP3 PUSH32 0x0 AND GAS CALL SWAP1 DUP2 ISZERO PUSH2 0x41A JUMPI DUP7 SWAP2 PUSH2 0x3E3 JUMPI JUMPDEST POP PUSH2 0x3DE SWAP2 POP PUSH2 0x2362 JUMP JUMPDEST PUSH2 0x33A JUMP JUMPDEST SWAP1 POP DUP2 DUP2 RETURNDATASIZE DUP4 GT PUSH2 0x413 JUMPI JUMPDEST PUSH2 0x3F9 DUP2 DUP4 PUSH2 0x1CD3 JUMP JUMPDEST DUP2 ADD SUB SLT PUSH2 0x2A0 JUMPI PUSH2 0x40D PUSH2 0x3DE SWAP2 PUSH2 0x200D JUMP JUMPDEST CODESIZE PUSH2 0x3D3 JUMP JUMPDEST POP RETURNDATASIZE PUSH2 0x3EF JUMP JUMPDEST DUP4 MLOAD RETURNDATASIZE DUP9 DUP3 RETURNDATACOPY RETURNDATASIZE SWAP1 REVERT JUMPDEST PUSH4 0x4E487B71 PUSH1 0xE0 SHL DUP10 MSTORE PUSH1 0x21 DUP3 MSTORE PUSH1 0x24 DUP10 REVERT JUMPDEST DUP6 MLOAD PUSH3 0x461BCD PUSH1 0xE5 SHL DUP2 MSTORE DUP1 DUP4 ADD DUP6 SWAP1 MSTORE PUSH1 0x1B PUSH1 0x24 DUP3 ADD MSTORE PUSH32 0x4F6E6C792062757965722063616E2063616E63656C206F666665720000000000 PUSH1 0x44 DUP3 ADD MSTORE PUSH1 0x64 SWAP1 REVERT JUMPDEST DUP4 DUP1 REVERT JUMPDEST POP DUP3 CALLVALUE PUSH2 0x20A JUMPI DUP2 PUSH1 0x3 NOT CALLDATASIZE ADD SLT PUSH2 0x20A JUMPI PUSH2 0x498 PUSH2 0x1F3C JUMP JUMPDEST DUP1 MLOAD PUSH4 0x70A08231 PUSH1 0xE0 SHL DUP2 MSTORE ADDRESS DUP5 DUP3 ADD MSTORE SWAP3 PUSH1 0x20 SWAP1 PUSH1 0x1 PUSH1 0x1 PUSH1 0xA0 SHL SUB PUSH32 0x0 DUP2 AND SWAP2 SWAP1 DUP4 DUP8 PUSH1 0x24 DUP2 DUP7 GAS STATICCALL SWAP7 DUP8 ISZERO PUSH2 0x604 JUMPI DUP7 SWAP8 PUSH2 0x5D1 JUMPI JUMPDEST POP DUP7 ISZERO PUSH2 0x58E JUMPI DUP6 SLOAD DUP6 MLOAD PUSH4 0xA9059CBB PUSH1 0xE0 SHL DUP2 MSTORE SWAP2 AND PUSH1 0x1 PUSH1 0x1 PUSH1 0xA0 SHL SUB AND SWAP2 DUP2 ADD SWAP2 DUP3 MSTORE PUSH1 0x20 DUP3 ADD SWAP7 SWAP1 SWAP7 MSTORE SWAP4 SWAP5 SWAP4 DUP3 SWAP2 DUP6 SWAP2 DUP3 SWAP1 DUP9 SWAP1 DUP3 SWAP1 PUSH1 0x40 ADD SUB SWAP3 GAS CALL SWAP2 DUP3 ISZERO PUSH2 0x585 JUMPI POP DUP4 SWAP2 PUSH2 0x54E JUMPI JUMPDEST DUP4 PUSH2 0x54B DUP4 PUSH2 0x2527 JUMP JUMPDEST DUP1 RETURN JUMPDEST SWAP1 POP DUP2 DUP2 RETURNDATASIZE DUP4 GT PUSH2 0x57E JUMPI JUMPDEST PUSH2 0x564 DUP2 DUP4 PUSH2 0x1CD3 JUMP JUMPDEST DUP2 ADD SUB SLT PUSH2 0x20A JUMPI PUSH2 0x578 PUSH2 0x54B SWAP2 PUSH2 0x200D JUMP JUMPDEST DUP4 PUSH2 0x541 JUMP JUMPDEST POP RETURNDATASIZE PUSH2 0x55A JUMP JUMPDEST MLOAD RETURNDATASIZE DUP6 DUP3 RETURNDATACOPY RETURNDATASIZE SWAP1 REVERT JUMPDEST DUP5 MLOAD PUSH3 0x461BCD PUSH1 0xE5 SHL DUP2 MSTORE DUP1 DUP4 ADD DUP6 SWAP1 MSTORE PUSH1 0x18 PUSH1 0x24 DUP3 ADD MSTORE PUSH32 0x4E6F2055534443206665657320746F2077697468647261770000000000000000 PUSH1 0x44 DUP3 ADD MSTORE PUSH1 0x64 SWAP1 REVERT JUMPDEST SWAP1 SWAP7 POP DUP4 DUP2 DUP2 RETURNDATASIZE DUP4 GT PUSH2 0x5FD JUMPI JUMPDEST PUSH2 0x5E9 DUP2 DUP4 PUSH2 0x1CD3 JUMP JUMPDEST DUP2 ADD SUB SLT PUSH2 0x5F9 JUMPI MLOAD SWAP6 DUP8 PUSH2 0x4F0 JUMP JUMPDEST DUP6 DUP1 REVERT JUMPDEST POP RETURNDATASIZE PUSH2 0x5DF JUMP JUMPDEST DUP6 MLOAD RETURNDATASIZE DUP9 DUP3 RETURNDATACOPY RETURNDATASIZE SWAP1 REVERT JUMPDEST POP DUP3 CALLVALUE PUSH2 0x20A JUMPI DUP2 PUSH1 0x3 NOT CALLDATASIZE ADD SLT PUSH2 0x20A JUMPI PUSH1 0x20 SWAP1 MLOAD PUSH2 0x2710 DUP2 MSTORE RETURN JUMPDEST POP SWAP2 SWAP1 CALLVALUE PUSH2 0x206 JUMPI DUP3 PUSH1 0x3 NOT CALLDATASIZE ADD SLT PUSH2 0x206 JUMPI PUSH2 0x646 PUSH2 0x1F3C JUMP JUMPDEST SELFBALANCE SWAP2 DUP3 ISZERO PUSH2 0x671 JUMPI DUP4 PUSH2 0x54B DUP2 DUP1 DUP1 DUP1 DUP9 PUSH1 0x1 DUP1 PUSH1 0xA0 SHL SUB DUP3 SLOAD AND GAS CALL PUSH2 0x66B PUSH2 0x2332 JUMP JUMPDEST POP PUSH2 0x2527 JUMP JUMPDEST SWAP1 PUSH1 0x20 PUSH1 0x64 SWAP3 MLOAD SWAP2 PUSH3 0x461BCD PUSH1 0xE5 SHL DUP4 MSTORE DUP3 ADD MSTORE PUSH1 0x13 PUSH1 0x24 DUP3 ADD MSTORE PUSH19 0x4E6F206665657320746F207769746864726177 PUSH1 0x68 SHL PUSH1 0x44 DUP3 ADD MSTORE REVERT JUMPDEST POP DUP3 CALLVALUE PUSH2 0x20A JUMPI DUP2 PUSH1 0x3 NOT CALLDATASIZE ADD SLT PUSH2 0x20A JUMPI PUSH1 0x2 SLOAD SWAP1 MLOAD PUSH1 0x1 PUSH1 0x1 PUSH1 0xA0 SHL SUB SWAP1 SWAP2 AND DUP2 MSTORE PUSH1 0x20 SWAP1 RETURN JUMPDEST POP DUP3 CALLVALUE PUSH2 0x20A JUMPI DUP2 PUSH1 0x3 NOT CALLDATASIZE ADD SLT PUSH2 0x20A JUMPI PUSH1 0x20 SWAP1 PUSH1 0x8 SLOAD SWAP1 MLOAD SWAP1 DUP2 MSTORE RETURN JUMPDEST POP SWAP2 SWAP1 CALLVALUE PUSH2 0x206 JUMPI PUSH1 0x20 DUP1 PUSH1 0x3 NOT CALLDATASIZE ADD SLT PUSH2 0x47A JUMPI DUP2 CALLDATALOAD SWAP2 PUSH2 0x712 PUSH2 0x239E JUMP JUMPDEST DUP3 DUP6 MSTORE DUP1 DUP3 MSTORE DUP4 DUP6 KECCAK256 SWAP4 PUSH1 0x6 DUP6 ADD PUSH2 0x72D PUSH1 0xFF DUP3 SLOAD AND PUSH2 0x23D0 JUMP JUMPDEST PUSH1 0x5 DUP7 ADD SLOAD TIMESTAMP LT ISZERO PUSH2 0xABE JUMPI PUSH1 0x2 SLOAD DUP3 MLOAD PUSH4 0xCD5286D PUSH1 0xE4 SHL DUP2 MSTORE DUP5 DUP2 ADD DUP7 SWAP1 MSTORE PUSH1 0x1 PUSH1 0x1 PUSH1 0xA0 SHL SUB SWAP8 SWAP2 DUP10 SWAP1 DUP3 SWAP1 DUP11 AND DUP2 DUP1 PUSH2 0x76D PUSH1 0x24 DUP3 ADD DUP9 PUSH2 0x240F JUMP JUMPDEST SUB SWAP2 GAS STATICCALL DUP1 ISZERO PUSH2 0xAB4 JUMPI DUP10 SWAP2 DUP11 SWAP2 PUSH2 0xA81 JUMPI JUMPDEST POP PUSH2 0x78A SWAP1 PUSH2 0x20BC JUMP JUMPDEST DUP8 CALLER SWAP2 AND SUB PUSH2 0xA3E JUMPI PUSH1 0x2 DUP2 ADD SWAP7 DUP8 SLOAD SWAP3 PUSH2 0x7B5 PUSH2 0x2710 PUSH2 0x7AD PUSH1 0x8 SLOAD DUP8 PUSH2 0x22B0 JUMP JUMPDEST DIV DUP1 SWAP6 PUSH2 0x22D9 JUMP JUMPDEST PUSH1 0xFF PUSH1 0x3 DUP6 ADD SLOAD AND PUSH1 0x2 DUP2 LT ISZERO PUSH2 0xA2B JUMPI DUP9 DUP13 SWAP2 ISZERO PUSH1 0x0 EQ PUSH2 0x97D JUMPI POP DUP1 DUP1 DUP1 PUSH2 0x7EA SWAP5 CALLER GAS CALL PUSH2 0x7E4 PUSH2 0x2332 JUMP JUMPDEST POP PUSH2 0x22E6 JUMP JUMPDEST DUP10 DUP3 PUSH1 0x2 SLOAD AND SWAP7 PUSH1 0x1 DUP6 ADD SWAP8 DUP5 DUP10 SLOAD AND SWAP2 DUP2 EXTCODESIZE ISZERO PUSH2 0x47A JUMPI DUP4 SWAP2 DUP10 SWAP2 DUP4 DUP4 MLOAD DUP1 SWAP7 DUP2 SWAP6 DUP3 SWAP5 PUSH4 0x2203F8F1 PUSH1 0xE0 SHL DUP5 MSTORE DUP4 ADD MSTORE PUSH2 0x829 PUSH1 0x44 DUP4 ADD DUP14 PUSH2 0x240F JUMP JUMPDEST SWAP1 PUSH1 0x24 DUP4 ADD MSTORE SUB SWAP3 GAS CALL DUP1 ISZERO PUSH2 0x973 JUMPI PUSH2 0x955 JUMPI JUMPDEST POP POP SWAP1 PUSH32 0x8C68D600771AD8AF3C86A9F96BD5C471ECA94AEBD78EA274787F8E95E07AAA10 SWAP6 PUSH2 0x909 SWAP4 SWAP3 PUSH1 0xFF NOT SWAP1 DUP2 DUP2 SLOAD AND SWAP1 SSTORE PUSH1 0xFF PUSH1 0x5 DUP9 MLOAD DUP12 DUP2 PUSH2 0x884 DUP2 DUP11 PUSH2 0x24A5 JUMP JUMPDEST PUSH1 0x3 DUP2 MSTORE SUB ADD SWAP1 KECCAK256 ADD SLOAD AND PUSH2 0x91F JUMPI JUMPDEST POP PUSH2 0x8A6 PUSH2 0x8A1 DUP5 PUSH2 0x1DFA JUMP JUMPDEST PUSH2 0x276A JUMP JUMPDEST SLOAD AND DUP1 SWAP9 SLOAD SWAP8 DUP6 MLOAD DUP1 PUSH2 0x8B9 DUP2 DUP7 PUSH2 0x24A5 JUMP JUMPDEST SUB SWAP1 KECCAK256 DUP7 MLOAD PUSH1 0x1 PUSH1 0x1 PUSH1 0xA0 SHL SUB SWAP4 SWAP1 SWAP4 AND DUP4 MSTORE PUSH1 0x20 DUP4 ADD DUP11 SWAP1 MSTORE CALLER SWAP3 SWAP1 SWAP2 SWAP1 PUSH32 0x9332956E0C3DD558CABF109A274FD9184F7CD2081DA1B9D9E28E702CF8A6CC59 SWAP1 PUSH1 0x40 SWAP1 LOG4 DUP4 MLOAD SWAP2 DUP3 DUP1 SWAP3 PUSH2 0x24A5 JUMP JUMPDEST SUB SWAP1 KECCAK256 SWAP4 DUP3 MLOAD SWAP6 DUP7 MSTORE DUP6 ADD MSTORE CALLER SWAP4 LOG4 PUSH1 0x1 DUP1 SSTORE DUP1 RETURN JUMPDEST PUSH1 0x5 DUP8 MLOAD DUP11 DUP2 PUSH2 0x92F DUP2 DUP10 PUSH2 0x24A5 JUMP JUMPDEST PUSH1 0x3 DUP2 MSTORE SUB ADD SWAP1 KECCAK256 ADD SWAP1 DUP2 SLOAD AND SWAP1 SSTORE PUSH2 0x94F PUSH2 0x94A DUP5 PUSH2 0x1DFA JUMP JUMPDEST PUSH2 0x2643 JUMP JUMPDEST CODESIZE PUSH2 0x894 JUMP JUMPDEST PUSH2 0x962 SWAP1 SWAP5 SWAP4 SWAP3 SWAP5 PUSH2 0x1CAA JUMP JUMPDEST PUSH2 0x96F JUMPI SWAP1 SWAP2 DUP10 CODESIZE PUSH2 0x83E JUMP JUMPDEST DUP10 DUP1 REVERT JUMPDEST DUP8 MLOAD RETURNDATASIZE DUP5 DUP3 RETURNDATACOPY RETURNDATASIZE SWAP1 REVERT JUMPDEST DUP8 MLOAD PUSH4 0xA9059CBB PUSH1 0xE0 SHL DUP2 MSTORE CALLER DUP11 DUP3 ADD SWAP1 DUP2 MSTORE PUSH1 0x20 DUP2 ADD SWAP5 SWAP1 SWAP5 MSTORE SWAP3 SWAP1 SWAP2 DUP4 SWAP2 DUP3 SWAP1 DUP2 SWAP1 PUSH1 0x40 ADD SUB SWAP2 DUP8 PUSH32 0x0 AND GAS CALL DUP1 ISZERO PUSH2 0xA21 JUMPI DUP12 SWAP1 PUSH2 0x9E7 JUMPI JUMPDEST PUSH2 0x9E2 SWAP2 POP PUSH2 0x22E6 JUMP JUMPDEST PUSH2 0x7EA JUMP JUMPDEST POP DUP8 DUP2 DUP2 RETURNDATASIZE DUP4 GT PUSH2 0xA1A JUMPI JUMPDEST PUSH2 0x9FD DUP2 DUP4 PUSH2 0x1CD3 JUMP JUMPDEST DUP2 ADD SUB SLT PUSH2 0xA16 JUMPI PUSH2 0xA11 PUSH2 0x9E2 SWAP2 PUSH2 0x200D JUMP JUMPDEST PUSH2 0x9D8 JUMP JUMPDEST DUP11 DUP1 REVERT JUMPDEST POP RETURNDATASIZE PUSH2 0x9F3 JUMP JUMPDEST DUP7 MLOAD RETURNDATASIZE DUP14 DUP3 RETURNDATACOPY RETURNDATASIZE SWAP1 REVERT JUMPDEST PUSH4 0x4E487B71 PUSH1 0xE0 SHL DUP13 MSTORE PUSH1 0x21 DUP9 MSTORE PUSH1 0x24 DUP13 REVERT JUMPDEST DUP3 MLOAD PUSH3 0x461BCD PUSH1 0xE5 SHL DUP2 MSTORE DUP1 DUP6 ADD DUP7 SWAP1 MSTORE PUSH1 0x1B PUSH1 0x24 DUP3 ADD MSTORE PUSH32 0x4F6E6C79206F776E65722063616E20616363657074206F666665720000000000 PUSH1 0x44 DUP3 ADD MSTORE PUSH1 0x64 SWAP1 REVERT JUMPDEST PUSH2 0x78A SWAP3 POP PUSH2 0xAA2 SWAP2 POP RETURNDATASIZE DUP1 DUP13 DUP4 RETURNDATACOPY PUSH2 0xA9A DUP2 DUP4 PUSH2 0x1CD3 JUMP JUMPDEST DUP2 ADD SWAP1 PUSH2 0x201A JUMP JUMPDEST POP SWAP9 SWAP8 POP POP POP SWAP4 POP POP POP POP SWAP2 SWAP1 PUSH2 0x780 JUMP JUMPDEST DUP5 MLOAD RETURNDATASIZE DUP12 DUP3 RETURNDATACOPY RETURNDATASIZE SWAP1 REVERT JUMPDEST POP SWAP2 PUSH1 0x64 SWAP3 MLOAD SWAP2 PUSH3 0x461BCD PUSH1 0xE5 SHL DUP4 MSTORE DUP3 ADD MSTORE PUSH1 0xD PUSH1 0x24 DUP3 ADD MSTORE PUSH13 0x13D999995C88195E1C1A5C9959 PUSH1 0x9A SHL PUSH1 0x44 DUP3 ADD MSTORE REVERT JUMPDEST POP SWAP2 SWAP1 PUSH1 0x20 DUP1 PUSH1 0x3 NOT CALLDATASIZE ADD SLT PUSH2 0x47A JUMPI DUP2 CALLDATALOAD PUSH1 0x1 PUSH1 0x1 PUSH1 0x40 SHL SUB DUP2 GT PUSH2 0x2A0 JUMPI PUSH2 0xB1D SWAP1 CALLDATASIZE SWAP1 DUP5 ADD PUSH2 0x1D0F JUMP JUMPDEST SWAP3 PUSH2 0xB26 PUSH2 0x239E JUMP JUMPDEST DUP1 MLOAD DUP3 DUP2 DUP7 MLOAD PUSH2 0xB39 DUP2 DUP4 DUP6 DUP12 ADD PUSH2 0x1EA0 JUMP JUMPDEST DUP2 ADD PUSH1 0x3 DUP2 MSTORE SUB ADD SWAP1 KECCAK256 SWAP3 PUSH1 0x5 DUP5 ADD PUSH2 0xB55 PUSH1 0xFF DUP3 SLOAD AND PUSH2 0x226F JUMP JUMPDEST PUSH1 0x1 DUP6 ADD DUP1 SLOAD PUSH1 0x1 PUSH1 0x1 PUSH1 0xA0 SHL SUB SWAP1 DUP2 AND SWAP4 SWAP1 SWAP3 SWAP1 CALLER DUP6 EQ PUSH2 0xF14 JUMPI PUSH1 0x2 DUP9 ADD SWAP8 DUP9 SLOAD SWAP6 PUSH1 0xFF PUSH1 0x3 PUSH2 0xB97 PUSH2 0x2710 PUSH2 0xB8F PUSH1 0x8 SLOAD DUP13 PUSH2 0x22B0 JUMP JUMPDEST DIV DUP1 SWAP11 PUSH2 0x22D9 JUMP JUMPDEST SWAP4 ADD SLOAD AND PUSH1 0x2 DUP2 LT ISZERO PUSH2 0xF01 JUMPI PUSH2 0xD2E JUMPI POP DUP9 SLOAD CALLVALUE LT PUSH2 0xCEB JUMPI DUP11 DUP1 DUP1 DUP1 PUSH2 0xBC7 SWAP5 DUP10 DUP10 SLOAD AND GAS CALL PUSH2 0x7E4 PUSH2 0x2332 JUMP JUMPDEST DUP8 SLOAD DUP11 DUP2 CALLVALUE GT PUSH2 0xCC9 JUMPI JUMPDEST POP POP JUMPDEST DUP10 DUP5 PUSH1 0x2 SLOAD AND SWAP2 DUP3 EXTCODESIZE ISZERO PUSH2 0x20A JUMPI PUSH2 0xC0B SWAP3 DUP9 DUP4 DUP14 SWAP4 DUP3 MLOAD SWAP7 DUP8 SWAP6 DUP7 SWAP5 DUP6 SWAP4 PUSH4 0x2203F8F1 PUSH1 0xE0 SHL DUP6 MSTORE DUP5 ADD MSTORE PUSH1 0x44 DUP4 ADD SWAP1 PUSH2 0x1EC3 JUMP JUMPDEST CALLER PUSH1 0x24 DUP4 ADD MSTORE SUB SWAP3 GAS CALL DUP1 ISZERO PUSH2 0xCBF JUMPI PUSH2 0xC80 JUMPI JUMPDEST POP DUP1 SLOAD PUSH1 0xFF NOT AND SWAP1 SSTORE PUSH32 0x8C68D600771AD8AF3C86A9F96BD5C471ECA94AEBD78EA274787F8E95E07AAA10 SWAP4 SWAP3 SWAP2 PUSH2 0xC6D SWAP2 PUSH2 0xC5A DUP10 PUSH2 0x2643 JUMP JUMPDEST PUSH2 0xC63 DUP10 PUSH2 0x276A JUMP JUMPDEST SLOAD AND SWAP6 SLOAD SWAP7 PUSH2 0x224F JUMP JUMPDEST SWAP4 DUP3 MLOAD SWAP7 DUP8 MSTORE DUP7 ADD MSTORE CALLER SWAP5 LOG4 PUSH1 0x1 DUP1 SSTORE DUP1 RETURN JUMPDEST SWAP2 PUSH32 0x8C68D600771AD8AF3C86A9F96BD5C471ECA94AEBD78EA274787F8E95E07AAA10 SWAP6 SWAP5 SWAP4 SWAP2 SWAP10 PUSH2 0xCB3 PUSH2 0xC6D SWAP5 PUSH2 0x1CAA JUMP JUMPDEST SWAP10 SWAP2 SWAP4 SWAP5 SWAP6 POP SWAP2 PUSH2 0xC20 JUMP JUMPDEST DUP7 MLOAD RETURNDATASIZE DUP13 DUP3 RETURNDATACOPY RETURNDATASIZE SWAP1 REVERT JUMPDEST DUP1 DUP1 DUP1 PUSH2 0xCD9 PUSH2 0xCE4 SWAP6 CALLVALUE PUSH2 0x22D9 JUMP JUMPDEST CALLER GAS CALL PUSH2 0x334 PUSH2 0x2332 JUMP JUMPDEST CODESIZE DUP11 PUSH2 0xBD2 JUMP JUMPDEST DUP7 MLOAD PUSH3 0x461BCD PUSH1 0xE5 SHL DUP2 MSTORE DUP1 DUP4 ADD DUP10 SWAP1 MSTORE PUSH1 0x18 PUSH1 0x24 DUP3 ADD MSTORE PUSH32 0x496E73756666696369656E7420455448207061796D656E740000000000000000 PUSH1 0x44 DUP3 ADD MSTORE PUSH1 0x64 SWAP1 REVERT JUMPDEST SWAP1 CALLVALUE PUSH2 0xEB4 JUMPI DUP8 MLOAD PUSH4 0x23B872DD PUSH1 0xE0 SHL DUP1 DUP3 MSTORE CALLER DUP6 DUP4 ADD SWAP1 DUP2 MSTORE PUSH1 0x1 PUSH1 0x1 PUSH1 0xA0 SHL SUB SWAP1 SWAP5 AND PUSH1 0x20 DUP6 ADD MSTORE PUSH1 0x40 DUP5 ADD SWAP3 SWAP1 SWAP3 MSTORE DUP13 SWAP3 PUSH32 0x0 DUP9 AND SWAP2 SWAP1 DUP12 SWAP1 DUP3 SWAP1 DUP2 SWAP1 PUSH1 0x60 ADD SUB DUP2 DUP8 DUP7 GAS CALL SWAP1 DUP2 ISZERO PUSH2 0xEAA JUMPI SWAP1 DUP12 SWAP4 SWAP3 SWAP2 DUP6 SWAP2 PUSH2 0xE71 JUMPI JUMPDEST POP PUSH2 0xDB3 SWAP1 PUSH2 0x22E6 JUMP JUMPDEST DUP10 MLOAD SWAP2 DUP3 MSTORE CALLER DUP6 DUP4 ADD SWAP1 DUP2 MSTORE ADDRESS PUSH1 0x20 DUP3 ADD MSTORE PUSH1 0x40 DUP2 ADD DUP11 SWAP1 MSTORE SWAP2 SWAP4 DUP5 SWAP3 DUP4 SWAP2 SWAP1 DUP3 SWAP1 PUSH1 0x60 ADD SUB SWAP3 GAS CALL SWAP1 DUP2 ISZERO PUSH2 0xE67 JUMPI DUP12 SWAP2 PUSH2 0xE32 JUMPI JUMPDEST POP PUSH2 0xBD5 JUMPI DUP6 MLOAD PUSH3 0x461BCD PUSH1 0xE5 SHL DUP2 MSTORE SWAP1 DUP2 ADD DUP8 SWAP1 MSTORE PUSH1 0x1C PUSH1 0x24 DUP3 ADD MSTORE PUSH32 0x506C6174666F726D20666565207472616E73666572206661696C656400000000 PUSH1 0x44 DUP3 ADD MSTORE PUSH1 0x64 SWAP1 REVERT JUMPDEST SWAP1 POP DUP8 DUP2 DUP2 RETURNDATASIZE DUP4 GT PUSH2 0xE60 JUMPI JUMPDEST PUSH2 0xE49 DUP2 DUP4 PUSH2 0x1CD3 JUMP JUMPDEST DUP2 ADD SUB SLT PUSH2 0xA16 JUMPI PUSH2 0xE5A SWAP1 PUSH2 0x200D JUMP JUMPDEST CODESIZE PUSH2 0xDEA JUMP JUMPDEST POP RETURNDATASIZE PUSH2 0xE3F JUMP JUMPDEST DUP8 MLOAD RETURNDATASIZE DUP14 DUP3 RETURNDATACOPY RETURNDATASIZE SWAP1 REVERT JUMPDEST DUP5 DUP2 SWAP6 SWAP3 POP RETURNDATASIZE DUP4 GT PUSH2 0xEA3 JUMPI JUMPDEST PUSH2 0xE88 DUP2 DUP4 PUSH2 0x1CD3 JUMP JUMPDEST DUP2 ADD SUB SLT PUSH2 0x47A JUMPI PUSH2 0xDB3 PUSH2 0xE9D DUP13 SWAP5 PUSH2 0x200D JUMP JUMPDEST SWAP1 PUSH2 0xDA9 JUMP JUMPDEST POP RETURNDATASIZE PUSH2 0xE7E JUMP JUMPDEST DUP11 MLOAD RETURNDATASIZE DUP7 DUP3 RETURNDATACOPY RETURNDATASIZE SWAP1 REVERT JUMPDEST DUP8 MLOAD PUSH3 0x461BCD PUSH1 0xE5 SHL DUP2 MSTORE DUP1 DUP5 ADD DUP11 SWAP1 MSTORE PUSH1 0x21 PUSH1 0x24 DUP3 ADD MSTORE PUSH32 0x446F206E6F742073656E642045544820666F7220555344432070757263686173 PUSH1 0x44 DUP3 ADD MSTORE PUSH1 0x65 PUSH1 0xF8 SHL PUSH1 0x64 DUP3 ADD MSTORE PUSH1 0x84 SWAP1 REVERT JUMPDEST PUSH4 0x4E487B71 PUSH1 0xE0 SHL DUP14 MSTORE PUSH1 0x21 DUP5 MSTORE PUSH1 0x24 DUP14 REVERT JUMPDEST DUP6 MLOAD PUSH3 0x461BCD PUSH1 0xE5 SHL DUP2 MSTORE SWAP1 DUP2 ADD DUP8 SWAP1 MSTORE PUSH1 0x19 PUSH1 0x24 DUP3 ADD MSTORE PUSH32 0x43616E6E6F742062757920796F7572206F776E20617373657400000000000000 PUSH1 0x44 DUP3 ADD MSTORE PUSH1 0x64 SWAP1 REVERT JUMPDEST POP DUP3 CALLVALUE PUSH2 0x20A JUMPI DUP2 PUSH1 0x3 NOT CALLDATASIZE ADD SLT PUSH2 0x20A JUMPI PUSH1 0x20 SWAP1 MLOAD PUSH20 0x833589FCD6EDB6E08F4C7C32D4F71B54BDA02913 DUP2 MSTORE RETURN JUMPDEST POP SWAP2 SWAP1 CALLVALUE PUSH2 0x206 JUMPI PUSH1 0x20 CALLDATASIZE PUSH1 0x3 NOT ADD SLT PUSH2 0x206 JUMPI DUP1 CALLDATALOAD SWAP2 PUSH2 0xFA5 PUSH2 0x1F3C JUMP JUMPDEST PUSH2 0x3E8 DUP4 GT PUSH2 0xFB6 JUMPI POP POP PUSH1 0x8 SSTORE DUP1 RETURN JUMPDEST SWAP1 PUSH1 0x20 PUSH1 0x64 SWAP3 MLOAD SWAP2 PUSH3 0x461BCD PUSH1 0xE5 SHL DUP4 MSTORE DUP3 ADD MSTORE PUSH1 0x16 PUSH1 0x24 DUP3 ADD MSTORE PUSH22 0x46656520746F6F206869676820286D61782031302529 PUSH1 0x50 SHL PUSH1 0x44 DUP3 ADD MSTORE REVERT JUMPDEST POP DUP3 CALLVALUE PUSH2 0x20A JUMPI PUSH1 0x20 SWAP2 PUSH2 0x101C PUSH2 0x1008 CALLDATASIZE PUSH2 0x1F0B JUMP JUMPDEST SWAP5 SWAP1 DUP2 DUP6 MLOAD SWAP4 DUP3 DUP6 DUP1 SWAP5 MLOAD SWAP4 DUP5 SWAP3 ADD PUSH2 0x1EA0 JUMP JUMPDEST DUP2 ADD PUSH1 0x5 DUP2 MSTORE SUB ADD SWAP1 KECCAK256 SWAP1 DUP2 SLOAD DUP5 LT ISZERO PUSH2 0x20E JUMPI POP PUSH1 0x20 SWAP3 PUSH2 0x103D SWAP2 PUSH2 0x1DA8 JUMP JUMPDEST SWAP2 SWAP1 SLOAD SWAP1 MLOAD SWAP2 PUSH1 0x3 SHL SHR DUP2 MSTORE RETURN JUMPDEST POP SWAP2 SWAP1 PUSH1 0x80 CALLDATASIZE PUSH1 0x3 NOT ADD SLT PUSH2 0x206 JUMPI PUSH1 0x1 PUSH1 0x1 PUSH1 0x40 SHL SUB DUP2 CALLDATALOAD DUP2 DUP2 GT PUSH2 0x2A0 JUMPI PUSH2 0x1078 SWAP1 CALLDATASIZE SWAP1 DUP5 ADD PUSH2 0x1D0F JUMP JUMPDEST SWAP3 PUSH1 0x24 SWAP2 DUP3 CALLDATALOAD SWAP5 PUSH1 0x44 SWAP5 DUP6 CALLDATALOAD SWAP5 PUSH1 0x2 DUP7 LT ISZERO PUSH2 0x1516 JUMPI PUSH1 0x64 SWAP4 DUP5 CALLDATALOAD SWAP7 DUP10 ISZERO PUSH2 0x14DE JUMPI PUSH2 0xE10 DUP9 LT ISZERO DUP1 PUSH2 0x14D1 JUMPI JUMPDEST ISZERO PUSH2 0x149E JUMPI PUSH1 0x2 SLOAD DUP8 MLOAD PUSH4 0xCD5286D PUSH1 0xE4 SHL DUP2 MSTORE PUSH1 0x20 DUP7 DUP3 ADD DUP2 SWAP1 MSTORE SWAP11 PUSH1 0x1 PUSH1 0x1 PUSH1 0xA0 SHL SUB SWAP9 SWAP3 SWAP1 SWAP2 DUP15 SWAP2 DUP3 SWAP1 DUP3 SWAP1 DUP13 AND DUP2 DUP1 PUSH2 0x10E5 DUP13 DUP3 ADD DUP16 PUSH2 0x1EC3 JUMP JUMPDEST SUB SWAP2 GAS STATICCALL SWAP1 DUP2 ISZERO PUSH2 0x1494 JUMPI DUP3 DUP1 SWAP3 PUSH2 0x1468 JUMPI JUMPDEST POP POP PUSH2 0x1103 SWAP1 PUSH2 0x20BC JUMP JUMPDEST DUP9 AND CALLER EQ PUSH2 0x142A JUMPI DUP3 PUSH2 0x1300 JUMPI DUP12 CALLVALUE SUB PUSH2 0x12CC JUMPI POP POP JUMPDEST PUSH1 0x6 SLOAD SWAP8 PUSH2 0x1127 DUP10 PUSH2 0x23C1 JUMP JUMPDEST PUSH1 0x6 SSTORE TIMESTAMP ADD SWAP6 DUP7 TIMESTAMP GT PUSH2 0x12BA JUMPI DUP8 MLOAD SWAP3 PUSH1 0xE0 DUP5 ADD SWAP1 DUP2 GT DUP5 DUP3 LT OR PUSH2 0x12A8 JUMPI DUP10 SWAP3 DUP13 DUP15 DUP11 SWAP5 DUP15 SWAP5 DUP14 MSTORE DUP11 DUP9 MSTORE PUSH2 0x1197 DUP14 DUP7 DUP11 ADD SWAP4 CALLER DUP6 MSTORE DUP2 DUP12 ADD SWAP6 DUP7 MSTORE PUSH2 0x1172 PUSH1 0x60 DUP13 ADD SWAP8 DUP9 PUSH2 0x2108 JUMP JUMPDEST DUP13 PUSH1 0x80 DUP13 ADD SWAP9 TIMESTAMP DUP11 MSTORE PUSH1 0xA0 DUP14 ADD SWAP11 DUP12 MSTORE PUSH1 0xC0 DUP14 ADD SWAP12 PUSH1 0x1 DUP14 MSTORE DUP4 MSTORE MSTORE KECCAK256 SWAP9 MLOAD DUP10 PUSH2 0x2170 JUMP JUMPDEST PUSH1 0x1 DUP9 ADD SWAP2 MLOAD AND PUSH1 0x1 PUSH1 0x1 PUSH1 0x60 SHL SUB PUSH1 0xA0 SHL DUP3 SLOAD AND OR SWAP1 SSTORE MLOAD PUSH1 0x2 DUP7 ADD SSTORE MLOAD PUSH1 0x2 DUP2 LT ISZERO PUSH2 0x1296 JUMPI SWAP2 DUP5 SWAP4 SWAP2 PUSH2 0x11D5 PUSH1 0x6 SWAP5 PUSH1 0x3 PUSH2 0x11F6 SWAP9 ADD PUSH2 0x2237 JUMP JUMPDEST MLOAD DUP8 DUP6 ADD SSTORE MLOAD PUSH1 0x5 DUP5 ADD SSTORE MLOAD ISZERO ISZERO SWAP2 ADD SWAP1 PUSH1 0xFF DUP1 NOT DUP4 SLOAD AND SWAP2 ISZERO ISZERO AND OR SWAP1 SSTORE JUMP JUMPDEST DUP5 MLOAD DUP8 DUP2 DUP6 MLOAD PUSH2 0x1209 DUP2 DUP4 DUP6 DUP11 ADD PUSH2 0x1EA0 JUMP JUMPDEST DUP2 ADD PUSH1 0x5 DUP2 MSTORE SUB ADD SWAP1 KECCAK256 SWAP1 DUP2 SLOAD SWAP3 PUSH1 0x1 PUSH1 0x40 SHL DUP5 LT ISZERO PUSH2 0x1285 JUMPI POP POP SWAP2 PUSH2 0x125C DUP3 PUSH32 0xCFED541454DAC78F93DA97764A61638D187363E6D64A389FAA86EDCAAF8932BC SWAP7 SWAP6 SWAP5 PUSH1 0x1 PUSH2 0x1276 SWAP6 ADD DUP2 SSTORE PUSH2 0x1DA8 JUMP JUMPDEST DUP2 SLOAD SWAP1 PUSH1 0x3 SHL SWAP1 DUP9 DUP3 SHL SWAP2 PUSH1 0x0 NOT SWAP1 SHL NOT AND OR SWAP1 SSTORE PUSH2 0x224F JUMP JUMPDEST SWAP5 DUP3 MLOAD SWAP7 DUP8 MSTORE DUP7 ADD MSTORE CALLER SWAP5 LOG4 DUP1 RETURN JUMPDEST PUSH4 0x4E487B71 PUSH1 0xE0 SHL DUP12 MSTORE PUSH1 0x41 SWAP1 MSTORE DUP10 REVERT JUMPDEST PUSH4 0x4E487B71 PUSH1 0xE0 SHL DUP15 MSTORE PUSH1 0x21 DUP8 MSTORE DUP6 DUP15 REVERT JUMPDEST PUSH4 0x4E487B71 PUSH1 0xE0 SHL DUP14 MSTORE PUSH1 0x41 DUP7 MSTORE DUP5 DUP14 REVERT JUMPDEST PUSH4 0x4E487B71 PUSH1 0xE0 SHL DUP13 MSTORE PUSH1 0x11 DUP6 MSTORE DUP4 DUP13 REVERT JUMPDEST PUSH19 0x8AA89040C2DADEEADCE840DAD2E6DAC2E8C6D PUSH1 0x6B SHL DUP7 SWAP2 PUSH1 0x13 DUP8 DUP15 DUP14 MLOAD SWAP6 PUSH3 0x461BCD PUSH1 0xE5 SHL DUP8 MSTORE DUP7 ADD MSTORE DUP5 ADD MSTORE DUP3 ADD MSTORE REVERT JUMPDEST CALLVALUE PUSH2 0x13EC JUMPI DUP9 MLOAD PUSH4 0x23B872DD PUSH1 0xE0 SHL DUP2 MSTORE CALLER DUP8 DUP3 ADD SWAP1 DUP2 MSTORE ADDRESS PUSH1 0x20 DUP3 ADD MSTORE PUSH1 0x40 DUP2 ADD DUP15 SWAP1 MSTORE DUP15 SWAP2 SWAP1 DUP14 SWAP1 DUP3 SWAP1 DUP2 SWAP1 SUB PUSH1 0x60 ADD DUP2 DUP6 PUSH32 0x0 DUP16 AND GAS CALL SWAP2 DUP3 ISZERO PUSH2 0x13E1 JUMPI SWAP2 PUSH2 0x13A8 JUMPI JUMPDEST POP ISZERO PUSH2 0x1373 JUMPI POP POP PUSH2 0x111A JUMP JUMPDEST PUSH20 0x1554D110C81D1C985B9CD9995C8819985A5B1959 PUSH1 0x62 SHL DUP7 SWAP2 PUSH1 0x14 DUP8 DUP15 DUP14 MLOAD SWAP6 PUSH3 0x461BCD PUSH1 0xE5 SHL DUP8 MSTORE DUP7 ADD MSTORE DUP5 ADD MSTORE DUP3 ADD MSTORE REVERT JUMPDEST SWAP1 POP DUP12 DUP2 DUP2 RETURNDATASIZE DUP4 GT PUSH2 0x13DA JUMPI JUMPDEST PUSH2 0x13BF DUP2 DUP4 PUSH2 0x1CD3 JUMP JUMPDEST DUP2 ADD SUB SLT PUSH2 0x13D6 JUMPI PUSH2 0x13D0 SWAP1 PUSH2 0x200D JUMP JUMPDEST CODESIZE PUSH2 0x1366 JUMP JUMPDEST DUP14 DUP1 REVERT JUMPDEST POP RETURNDATASIZE PUSH2 0x13B5 JUMP JUMPDEST DUP12 MLOAD SWAP1 RETURNDATASIZE SWAP1 DUP3 RETURNDATACOPY RETURNDATASIZE SWAP1 REVERT JUMPDEST PUSH32 0x446F206E6F742073656E642045544820666F722055534443206F666665720000 DUP7 SWAP2 PUSH1 0x1E DUP8 DUP15 DUP14 MLOAD SWAP6 PUSH3 0x461BCD PUSH1 0xE5 SHL DUP8 MSTORE DUP7 ADD MSTORE DUP5 ADD MSTORE DUP3 ADD MSTORE REVERT JUMPDEST PUSH32 0x43616E6E6F74206F66666572206F6E20796F7572206F776E2061737365740000 DUP7 SWAP2 PUSH1 0x1E DUP8 DUP15 DUP14 MLOAD SWAP6 PUSH3 0x461BCD PUSH1 0xE5 SHL DUP8 MSTORE DUP7 ADD MSTORE DUP5 ADD MSTORE DUP3 ADD MSTORE REVERT JUMPDEST PUSH2 0x1103 SWAP4 POP PUSH2 0x1481 SWAP3 POP RETURNDATASIZE DUP1 SWAP2 DUP4 RETURNDATACOPY PUSH2 0xA9A DUP2 DUP4 PUSH2 0x1CD3 JUMP JUMPDEST POP SWAP9 SWAP8 POP POP POP SWAP4 POP POP POP POP SWAP2 SWAP1 DUP16 PUSH2 0x10F8 JUMP JUMPDEST DUP12 MLOAD RETURNDATASIZE DUP5 DUP3 RETURNDATACOPY RETURNDATASIZE SWAP1 REVERT JUMPDEST DUP7 MLOAD PUSH3 0x461BCD PUSH1 0xE5 SHL DUP2 MSTORE PUSH1 0x20 DUP2 DUP7 ADD MSTORE PUSH1 0x10 DUP2 DUP6 ADD MSTORE PUSH16 0x24B73B30B634B210323AB930BA34B7B7 PUSH1 0x81 SHL DUP2 DUP12 ADD MSTORE DUP7 SWAP1 REVERT JUMPDEST POP PUSH3 0x278D00 DUP9 GT ISZERO PUSH2 0x10A6 JUMP JUMPDEST DUP7 MLOAD PUSH3 0x461BCD PUSH1 0xE5 SHL DUP2 MSTORE PUSH1 0x20 DUP2 DUP7 ADD MSTORE PUSH1 0x15 DUP2 DUP6 ADD MSTORE PUSH21 0x4F66666572206D75737420686176652076616C7565 PUSH1 0x58 SHL DUP2 DUP12 ADD MSTORE DUP7 SWAP1 REVERT JUMPDEST DUP9 DUP1 REVERT JUMPDEST POP SWAP2 CALLVALUE PUSH2 0x206 JUMPI PUSH1 0x20 CALLDATASIZE PUSH1 0x3 NOT ADD SLT PUSH2 0x206 JUMPI DUP2 CALLDATALOAD PUSH1 0x1 PUSH1 0x1 PUSH1 0x40 SHL SUB DUP2 GT PUSH2 0x47A JUMPI PUSH2 0x154A SWAP1 CALLDATASIZE SWAP1 DUP5 ADD PUSH2 0x1D0F JUMP JUMPDEST SWAP2 DUP2 MLOAD PUSH1 0x20 DUP2 DUP6 MLOAD PUSH2 0x155F DUP2 DUP4 DUP6 DUP11 ADD PUSH2 0x1EA0 JUMP JUMPDEST DUP2 ADD PUSH1 0x3 DUP2 MSTORE SUB ADD SWAP1 KECCAK256 SWAP1 PUSH1 0x5 DUP3 ADD SWAP3 DUP4 SLOAD SWAP3 PUSH2 0x157E PUSH1 0xFF DUP6 AND PUSH2 0x226F JUMP JUMPDEST PUSH1 0x1 ADD SLOAD PUSH1 0x1 PUSH1 0x1 PUSH1 0xA0 SHL SUB AND CALLER SUB PUSH2 0x15D3 JUMPI POP POP PUSH1 0xFF NOT AND SWAP1 SSTORE PUSH2 0x15A2 DUP2 PUSH2 0x2643 JUMP JUMPDEST PUSH2 0x15AC CALLER SWAP2 PUSH2 0x224F JUMP JUMPDEST PUSH32 0xAD06290F905050C9DAC577E139B4B450621B456073E716DB7561A52F3FF8928 DUP4 DUP1 LOG3 DUP1 RETURN JUMPDEST SWAP1 PUSH1 0x20 PUSH1 0x64 SWAP3 MLOAD SWAP2 PUSH3 0x461BCD PUSH1 0xE5 SHL DUP4 MSTORE DUP3 ADD MSTORE PUSH1 0x16 PUSH1 0x24 DUP3 ADD MSTORE PUSH22 0x13DB9B1E481CD95B1B195C8818D85B8818D85B98D95B PUSH1 0x52 SHL PUSH1 0x44 DUP3 ADD MSTORE REVERT JUMPDEST POP SWAP2 CALLVALUE PUSH2 0x206 JUMPI PUSH2 0x161F CALLDATASIZE PUSH2 0x1F0B JUMP JUMPDEST SWAP3 DUP3 MLOAD PUSH1 0x20 DUP2 DUP5 MLOAD PUSH2 0x1634 DUP2 DUP4 DUP6 DUP10 ADD PUSH2 0x1EA0 JUMP JUMPDEST DUP2 ADD PUSH1 0x3 DUP2 MSTORE SUB ADD SWAP1 KECCAK256 SWAP1 PUSH2 0x164F PUSH1 0xFF PUSH1 0x5 DUP5 ADD SLOAD AND PUSH2 0x226F JUMP JUMPDEST PUSH1 0x1 DUP3 ADD SLOAD PUSH1 0x1 PUSH1 0x1 PUSH1 0xA0 SHL SUB AND CALLER SUB PUSH2 0x16B3 JUMPI POP SWAP1 PUSH2 0x16A4 PUSH1 0x2 PUSH32 0x702CF1FF9B007B1CE6285F06D88972428A71330A6F9BC7AC9B49803661DD7BDE SWAP5 SWAP4 PUSH2 0x1698 DUP8 ISZERO ISZERO PUSH2 0x1F68 JUMP JUMPDEST ADD SWAP2 DUP6 DUP4 SLOAD SWAP4 SSTORE PUSH2 0x224F JUMP JUMPDEST SWAP4 DUP3 MLOAD SWAP2 DUP3 MSTORE PUSH1 0x20 DUP3 ADD MSTORE LOG2 DUP1 RETURN JUMPDEST PUSH1 0x64 SWAP1 PUSH1 0x20 DUP6 MLOAD SWAP2 PUSH3 0x461BCD PUSH1 0xE5 SHL DUP4 MSTORE DUP3 ADD MSTORE PUSH1 0x16 PUSH1 0x24 DUP3 ADD MSTORE PUSH22 0x4F6E6C792073656C6C65722063616E20757064617465 PUSH1 0x50 SHL PUSH1 0x44 DUP3 ADD MSTORE REVERT JUMPDEST POP DUP3 CALLVALUE PUSH2 0x20A JUMPI DUP2 PUSH1 0x3 NOT CALLDATASIZE ADD SLT PUSH2 0x20A JUMPI SWAP1 SLOAD SWAP1 MLOAD PUSH1 0x1 PUSH1 0x1 PUSH1 0xA0 SHL SUB SWAP1 SWAP2 AND DUP2 MSTORE PUSH1 0x20 SWAP1 RETURN JUMPDEST POP SWAP2 SWAP1 CALLVALUE PUSH2 0x206 JUMPI PUSH1 0x20 CALLDATASIZE PUSH1 0x3 NOT ADD SLT PUSH2 0x206 JUMPI DUP2 PUSH2 0x1789 SWAP4 DUP3 CALLDATALOAD DUP2 MSTORE DUP3 PUSH1 0x20 MSTORE KECCAK256 SWAP2 PUSH2 0x1743 DUP4 PUSH2 0x1DFA JUMP JUMPDEST SWAP3 PUSH1 0x1 DUP1 PUSH1 0xA0 SHL SUB PUSH1 0x1 DUP3 ADD SLOAD AND SWAP3 PUSH2 0x179C PUSH1 0x2 DUP4 ADD SLOAD SWAP2 PUSH1 0xFF PUSH1 0x3 DUP6 ADD SLOAD AND SWAP1 DUP5 ADD SLOAD SWAP3 PUSH1 0xFF PUSH1 0x6 PUSH1 0x5 DUP8 ADD SLOAD SWAP7 ADD SLOAD AND SWAP6 DUP1 MLOAD SWAP10 DUP11 SWAP10 PUSH1 0xE0 DUP12 MSTORE PUSH1 0xE0 DUP12 ADD SWAP1 PUSH2 0x1EC3 JUMP JUMPDEST SWAP8 PUSH1 0x20 DUP11 ADD MSTORE DUP9 ADD MSTORE PUSH1 0x60 DUP8 ADD SWAP1 PUSH2 0x1EE8 JUMP JUMPDEST PUSH1 0x80 DUP6 ADD MSTORE PUSH1 0xA0 DUP5 ADD MSTORE ISZERO ISZERO PUSH1 0xC0 DUP4 ADD MSTORE SUB SWAP1 RETURN JUMPDEST POP DUP3 CALLVALUE PUSH2 0x20A JUMPI DUP2 PUSH1 0x3 NOT CALLDATASIZE ADD SLT PUSH2 0x20A JUMPI PUSH1 0x20 SWAP1 PUSH1 0x7 SLOAD SWAP1 MLOAD SWAP1 DUP2 MSTORE RETURN JUMPDEST POP SWAP2 SWAP1 CALLVALUE PUSH2 0x206 JUMPI PUSH1 0x20 CALLDATASIZE PUSH1 0x3 NOT ADD SLT PUSH2 0x206 JUMPI DUP1 CALLDATALOAD SWAP3 PUSH1 0x1 PUSH1 0x1 PUSH1 0x40 SHL SUB DUP5 GT PUSH2 0x20E JUMPI POP PUSH2 0x180B PUSH1 0x20 PUSH2 0x16E PUSH2 0x185D SWAP6 CALLDATASIZE SWAP1 DUP6 ADD PUSH2 0x1D0F JUMP JUMPDEST DUP2 ADD PUSH1 0x3 DUP2 MSTORE SUB ADD SWAP1 KECCAK256 SWAP2 PUSH2 0x181F DUP4 PUSH2 0x1DFA JUMP JUMPDEST SWAP3 PUSH2 0x1870 PUSH1 0x1 DUP1 PUSH1 0xA0 SHL SUB PUSH1 0x1 DUP4 ADD SLOAD AND SWAP4 PUSH1 0x2 DUP4 ADD SLOAD PUSH1 0xFF PUSH1 0x5 DUP2 PUSH1 0x3 DUP8 ADD SLOAD AND SWAP4 DUP7 ADD SLOAD SWAP6 ADD SLOAD AND SWAP5 DUP1 MLOAD SWAP9 DUP10 SWAP9 PUSH1 0xC0 DUP11 MSTORE PUSH1 0xC0 DUP11 ADD SWAP1 PUSH2 0x1EC3 JUMP JUMPDEST SWAP7 PUSH1 0x20 DUP10 ADD MSTORE DUP8 ADD MSTORE PUSH1 0x60 DUP7 ADD SWAP1 PUSH2 0x1EE8 JUMP JUMPDEST PUSH1 0x80 DUP5 ADD MSTORE ISZERO ISZERO PUSH1 0xA0 DUP4 ADD MSTORE SUB SWAP1 RETURN JUMPDEST POP CALLVALUE PUSH2 0x20E JUMPI DUP1 PUSH1 0x3 NOT CALLDATASIZE ADD SLT PUSH2 0x20E JUMPI PUSH2 0x1899 PUSH2 0x1F3C JUMP JUMPDEST DUP1 SLOAD PUSH1 0x1 PUSH1 0x1 PUSH1 0xA0 SHL SUB NOT DUP2 AND DUP3 SSTORE DUP2 SWAP1 PUSH1 0x1 PUSH1 0x1 PUSH1 0xA0 SHL SUB AND PUSH32 0x8BE0079C531659141344CD1FD0A4F28419497F9722A3DAAFE3B4186F6B6457E0 DUP3 DUP1 LOG3 DUP1 RETURN JUMPDEST POP DUP3 SWAP1 CALLVALUE PUSH2 0x20E JUMPI PUSH1 0x20 CALLDATASIZE PUSH1 0x3 NOT ADD SLT PUSH2 0x20E JUMPI DUP3 CALLDATALOAD PUSH1 0x7 SLOAD DUP2 LT ISZERO PUSH2 0x20A JUMPI PUSH2 0x1903 SWAP1 PUSH2 0x1D5B JUMP JUMPDEST SWAP4 SWAP1 SWAP4 PUSH2 0x192E JUMPI PUSH2 0x192A DUP4 PUSH2 0x1917 DUP7 PUSH2 0x1DFA JUMP JUMPDEST SWAP1 MLOAD SWAP2 DUP3 SWAP2 PUSH1 0x20 DUP4 MSTORE PUSH1 0x20 DUP4 ADD SWAP1 PUSH2 0x1EC3 JUMP JUMPDEST SUB SWAP1 RETURN JUMPDEST PUSH4 0x4E487B71 PUSH1 0xE0 SHL DUP3 MSTORE DUP2 SWAP1 MSTORE PUSH1 0x24 SWAP1 REVERT JUMPDEST POP DUP3 CALLVALUE PUSH2 0x20A JUMPI DUP2 PUSH1 0x3 NOT CALLDATASIZE ADD SLT PUSH2 0x20A JUMPI PUSH1 0x20 SWAP1 PUSH1 0x6 SLOAD SWAP1 MLOAD SWAP1 DUP2 MSTORE RETURN JUMPDEST POP SWAP2 CALLVALUE PUSH2 0x206 JUMPI PUSH1 0x60 CALLDATASIZE PUSH1 0x3 NOT ADD SLT PUSH2 0x206 JUMPI PUSH1 0x1 PUSH1 0x1 PUSH1 0x40 SHL SUB SWAP1 DUP3 CALLDATALOAD DUP3 DUP2 GT PUSH2 0x2A0 JUMPI PUSH2 0x1991 SWAP1 CALLDATASIZE SWAP1 DUP6 ADD PUSH2 0x1D0F JUMP JUMPDEST PUSH1 0x24 SWAP4 DUP5 CALLDATALOAD SWAP5 PUSH1 0x44 CALLDATALOAD SWAP5 PUSH1 0x2 DUP7 LT ISZERO PUSH2 0x1C63 JUMPI PUSH2 0x19AF DUP8 ISZERO ISZERO PUSH2 0x1F68 JUMP JUMPDEST DUP5 MLOAD SWAP6 DUP5 MLOAD SWAP1 PUSH1 0xFF PUSH1 0x5 PUSH1 0x20 SWAP10 DUP11 DUP2 DUP2 DUP12 ADD SWAP7 PUSH2 0x19CD DUP2 DUP4 DUP11 PUSH2 0x1EA0 JUMP JUMPDEST DUP2 ADD PUSH1 0x3 DUP2 MSTORE SUB ADD SWAP1 KECCAK256 ADD SLOAD AND PUSH2 0x1C2A JUMPI PUSH1 0x2 SLOAD DUP8 MLOAD PUSH4 0xCD5286D PUSH1 0xE4 SHL DUP2 MSTORE DUP7 DUP2 ADD DUP11 SWAP1 MSTORE PUSH1 0x1 PUSH1 0x1 PUSH1 0xA0 SHL SUB SWAP2 DUP13 SWAP1 DUP3 SWAP1 DUP5 AND DUP2 DUP1 PUSH2 0x1A10 DUP12 DUP3 ADD DUP15 PUSH2 0x1EC3 JUMP JUMPDEST SUB SWAP2 GAS STATICCALL DUP1 ISZERO PUSH2 0x1C20 JUMPI DUP13 SWAP2 DUP14 SWAP2 PUSH2 0x1BF5 JUMPI JUMPDEST POP PUSH2 0x1A2D SWAP1 PUSH2 0x20BC JUMP JUMPDEST DUP2 CALLER SWAP2 AND SUB PUSH2 0x1BB3 JUMPI DUP8 MLOAD SWAP4 PUSH1 0xC0 DUP6 ADD SWAP1 DUP2 GT DUP6 DUP3 LT OR PUSH2 0x1BA1 JUMPI SWAP1 DUP9 SWAP4 SWAP3 SWAP2 DUP5 MSTORE DUP8 DUP6 MSTORE DUP10 DUP6 ADD CALLER DUP2 MSTORE DUP5 DUP7 ADD SWAP2 DUP13 DUP4 MSTORE PUSH2 0x1A6D PUSH1 0x60 DUP9 ADD SWAP5 DUP6 PUSH2 0x2108 JUMP JUMPDEST PUSH2 0x1AA7 PUSH2 0x1A95 DUP14 PUSH1 0x80 DUP11 ADD SWAP8 TIMESTAMP DUP10 MSTORE DUP14 PUSH1 0xA0 DUP13 ADD SWAP11 PUSH1 0x1 DUP13 MSTORE MLOAD SWAP4 DUP5 SWAP3 DUP4 SWAP3 MLOAD SWAP3 DUP4 SWAP2 PUSH2 0x1EA0 JUMP JUMPDEST DUP2 ADD PUSH1 0x3 DUP2 MSTORE SUB ADD SWAP1 KECCAK256 SWAP8 MLOAD DUP9 PUSH2 0x2170 JUMP JUMPDEST PUSH1 0x1 DUP8 ADD SWAP2 MLOAD AND PUSH1 0x1 PUSH1 0x1 PUSH1 0x60 SHL SUB PUSH1 0xA0 SHL DUP3 SLOAD AND OR SWAP1 SSTORE MLOAD PUSH1 0x2 DUP6 ADD SSTORE MLOAD PUSH1 0x2 DUP2 LT ISZERO PUSH2 0x1B8F JUMPI SWAP2 PUSH1 0x5 SWAP2 PUSH2 0x1AE4 DUP6 SWAP5 PUSH1 0x3 PUSH2 0x1AFF SWAP8 ADD PUSH2 0x2237 JUMP JUMPDEST MLOAD DUP7 DUP5 ADD SSTORE MLOAD ISZERO ISZERO SWAP2 ADD SWAP1 PUSH1 0xFF DUP1 NOT DUP4 SLOAD AND SWAP2 ISZERO ISZERO AND OR SWAP1 SSTORE JUMP JUMPDEST PUSH1 0x7 SLOAD PUSH1 0x1 PUSH1 0x40 SHL DUP2 LT ISZERO PUSH2 0x1B7D JUMPI DUP1 PUSH1 0x1 PUSH2 0x1B1E SWAP3 ADD PUSH1 0x7 SSTORE PUSH2 0x1D5B JUMP JUMPDEST SWAP3 SWAP1 SWAP3 PUSH2 0x1B6D JUMPI POP POP DUP2 PUSH2 0x1B57 PUSH32 0xF34A4C127FF02F03C1D1FB093BB2C95EC0CFD3C38220B818EF19234533C6B96C SWAP5 SWAP4 PUSH2 0x1B5C SWAP4 PUSH2 0x2170 JUMP JUMPDEST PUSH2 0x224F JUMP JUMPDEST SWAP3 DUP2 MLOAD SWAP5 DUP6 MSTORE TIMESTAMP SWAP1 DUP6 ADD MSTORE CALLER SWAP4 LOG3 DUP1 RETURN JUMPDEST PUSH4 0x4E487B71 PUSH1 0xE0 SHL DUP9 MSTORE DUP8 SWAP1 MSTORE DUP7 REVERT JUMPDEST POP PUSH4 0x4E487B71 PUSH1 0xE0 SHL DUP8 MSTORE PUSH1 0x41 DUP3 MSTORE DUP7 REVERT JUMPDEST PUSH4 0x4E487B71 PUSH1 0xE0 SHL DUP12 MSTORE PUSH1 0x21 DUP7 MSTORE DUP5 DUP12 REVERT JUMPDEST PUSH4 0x4E487B71 PUSH1 0xE0 SHL DUP13 MSTORE PUSH1 0x41 DUP8 MSTORE DUP6 DUP13 REVERT JUMPDEST DUP8 MLOAD PUSH3 0x461BCD PUSH1 0xE5 SHL DUP2 MSTORE DUP1 DUP8 ADD DUP11 SWAP1 MSTORE PUSH1 0x19 DUP2 DUP8 ADD MSTORE PUSH32 0x4F6E6C79206F776E65722063616E206C69737420617373657400000000000000 PUSH1 0x44 DUP3 ADD MSTORE PUSH1 0x64 SWAP1 REVERT JUMPDEST PUSH2 0x1A2D SWAP3 POP PUSH2 0x1C0E SWAP2 POP RETURNDATASIZE DUP1 DUP16 DUP4 RETURNDATACOPY PUSH2 0xA9A DUP2 DUP4 PUSH2 0x1CD3 JUMP JUMPDEST POP SWAP9 SWAP8 POP POP POP SWAP4 POP POP POP POP SWAP2 SWAP1 PUSH2 0x1A23 JUMP JUMPDEST DUP10 MLOAD RETURNDATASIZE DUP15 DUP3 RETURNDATACOPY RETURNDATASIZE SWAP1 REVERT JUMPDEST DUP7 MLOAD PUSH3 0x461BCD PUSH1 0xE5 SHL DUP2 MSTORE DUP1 DUP7 ADD DUP10 SWAP1 MSTORE PUSH1 0x14 DUP2 DUP7 ADD MSTORE PUSH20 0x105CDCD95D08185B1C9958591E481B1A5CDD1959 PUSH1 0x62 SHL PUSH1 0x44 DUP3 ADD MSTORE PUSH1 0x64 SWAP1 REVERT JUMPDEST DUP8 DUP1 REVERT JUMPDEST SWAP1 POP CALLVALUE PUSH2 0x20A JUMPI DUP2 PUSH1 0x3 NOT CALLDATASIZE ADD SLT PUSH2 0x20A JUMPI PUSH32 0x0 PUSH1 0x1 PUSH1 0x1 PUSH1 0xA0 SHL SUB AND DUP2 MSTORE PUSH1 0x20 SWAP1 RETURN JUMPDEST PUSH1 0x1 PUSH1 0x1 PUSH1 0x40 SHL SUB DUP2 GT PUSH2 0x1CBD JUMPI PUSH1 0x40 MSTORE JUMP JUMPDEST PUSH4 0x4E487B71 PUSH1 0xE0 SHL PUSH1 0x0 MSTORE PUSH1 0x41 PUSH1 0x4 MSTORE PUSH1 0x24 PUSH1 0x0 REVERT JUMPDEST SWAP1 PUSH1 0x1F DUP1 NOT SWAP2 ADD AND DUP2 ADD SWAP1 DUP2 LT PUSH1 0x1 PUSH1 0x1 PUSH1 0x40 SHL SUB DUP3 GT OR PUSH2 0x1CBD JUMPI PUSH1 0x40 MSTORE JUMP JUMPDEST PUSH1 0x1 PUSH1 0x1 PUSH1 0x40 SHL SUB DUP2 GT PUSH2 0x1CBD JUMPI PUSH1 0x1F ADD PUSH1 0x1F NOT AND PUSH1 0x20 ADD SWAP1 JUMP JUMPDEST DUP2 PUSH1 0x1F DUP3 ADD SLT ISZERO PUSH2 0x1D56 JUMPI DUP1 CALLDATALOAD SWAP1 PUSH2 0x1D26 DUP3 PUSH2 0x1CF4 JUMP JUMPDEST SWAP3 PUSH2 0x1D34 PUSH1 0x40 MLOAD SWAP5 DUP6 PUSH2 0x1CD3 JUMP JUMPDEST DUP3 DUP5 MSTORE PUSH1 0x20 DUP4 DUP4 ADD ADD GT PUSH2 0x1D56 JUMPI DUP2 PUSH1 0x0 SWAP3 PUSH1 0x20 DUP1 SWAP4 ADD DUP4 DUP7 ADD CALLDATACOPY DUP4 ADD ADD MSTORE SWAP1 JUMP JUMPDEST PUSH1 0x0 DUP1 REVERT JUMPDEST PUSH1 0x7 SLOAD DUP2 LT ISZERO PUSH2 0x1D92 JUMPI PUSH1 0x7 PUSH1 0x0 MSTORE PUSH32 0xA66CC928B5EDB82AF9BD49922954155AB7B0942694BEA4CE44661D9A8736C688 ADD SWAP1 PUSH1 0x0 SWAP1 JUMP JUMPDEST PUSH4 0x4E487B71 PUSH1 0xE0 SHL PUSH1 0x0 MSTORE PUSH1 0x32 PUSH1 0x4 MSTORE PUSH1 0x24 PUSH1 0x0 REVERT JUMPDEST DUP1 SLOAD DUP3 LT ISZERO PUSH2 0x1D92 JUMPI PUSH1 0x0 MSTORE PUSH1 0x20 PUSH1 0x0 KECCAK256 ADD SWAP1 PUSH1 0x0 SWAP1 JUMP JUMPDEST SWAP1 PUSH1 0x1 DUP3 DUP2 SHR SWAP3 AND DUP1 ISZERO PUSH2 0x1DF0 JUMPI JUMPDEST PUSH1 0x20 DUP4 LT EQ PUSH2 0x1DDA JUMPI JUMP JUMPDEST PUSH4 0x4E487B71 PUSH1 0xE0 SHL PUSH1 0x0 MSTORE PUSH1 0x22 PUSH1 0x4 MSTORE PUSH1 0x24 PUSH1 0x0 REVERT JUMPDEST SWAP2 PUSH1 0x7F AND SWAP2 PUSH2 0x1DCF JUMP JUMPDEST SWAP1 PUSH1 0x40 MLOAD SWAP2 DUP3 PUSH1 0x0 DUP3 SLOAD SWAP3 PUSH2 0x1E0E DUP5 PUSH2 0x1DC0 JUMP JUMPDEST SWAP1 DUP2 DUP5 MSTORE PUSH1 0x1 SWAP5 DUP6 DUP2 AND SWAP1 DUP2 PUSH1 0x0 EQ PUSH2 0x1E7D JUMPI POP PUSH1 0x1 EQ PUSH2 0x1E3A JUMPI JUMPDEST POP POP PUSH2 0x1E38 SWAP3 POP SUB DUP4 PUSH2 0x1CD3 JUMP JUMPDEST JUMP JUMPDEST SWAP1 SWAP4 SWAP2 POP PUSH1 0x0 MSTORE PUSH1 0x20 SWAP1 DUP2 PUSH1 0x0 KECCAK256 SWAP4 PUSH1 0x0 SWAP2 JUMPDEST DUP2 DUP4 LT PUSH2 0x1E65 JUMPI POP POP PUSH2 0x1E38 SWAP4 POP DUP3 ADD ADD CODESIZE DUP1 PUSH2 0x1E2A JUMP JUMPDEST DUP6 SLOAD DUP9 DUP5 ADD DUP6 ADD MSTORE SWAP5 DUP6 ADD SWAP5 DUP8 SWAP5 POP SWAP2 DUP4 ADD SWAP2 PUSH2 0x1E4D JUMP JUMPDEST SWAP2 POP POP PUSH2 0x1E38 SWAP5 POP PUSH1 0x20 SWAP3 POP PUSH1 0xFF NOT AND DUP3 DUP5 ADD MSTORE ISZERO ISZERO PUSH1 0x5 SHL DUP3 ADD ADD CODESIZE DUP1 PUSH2 0x1E2A JUMP JUMPDEST PUSH1 0x0 JUMPDEST DUP4 DUP2 LT PUSH2 0x1EB3 JUMPI POP POP PUSH1 0x0 SWAP2 ADD MSTORE JUMP JUMPDEST DUP2 DUP2 ADD MLOAD DUP4 DUP3 ADD MSTORE PUSH1 0x20 ADD PUSH2 0x1EA3 JUMP JUMPDEST SWAP1 PUSH1 0x20 SWAP2 PUSH2 0x1EDC DUP2 MLOAD DUP1 SWAP3 DUP2 DUP6 MSTORE DUP6 DUP1 DUP7 ADD SWAP2 ADD PUSH2 0x1EA0 JUMP JUMPDEST PUSH1 0x1F ADD PUSH1 0x1F NOT AND ADD ADD SWAP1 JUMP JUMPDEST SWAP1 PUSH1 0x2 DUP3 LT ISZERO PUSH2 0x1EF5 JUMPI MSTORE JUMP JUMPDEST PUSH4 0x4E487B71 PUSH1 0xE0 SHL PUSH1 0x0 MSTORE PUSH1 0x21 PUSH1 0x4 MSTORE PUSH1 0x24 PUSH1 0x0 REVERT JUMPDEST PUSH1 0x40 PUSH1 0x3 NOT DUP3 ADD SLT PUSH2 0x1D56 JUMPI PUSH1 0x4 CALLDATALOAD SWAP1 PUSH1 0x1 PUSH1 0x1 PUSH1 0x40 SHL SUB DUP3 GT PUSH2 0x1D56 JUMPI PUSH2 0x1F35 SWAP2 PUSH1 0x4 ADD PUSH2 0x1D0F JUMP JUMPDEST SWAP1 PUSH1 0x24 CALLDATALOAD SWAP1 JUMP JUMPDEST PUSH1 0x0 SLOAD PUSH1 0x1 PUSH1 0x1 PUSH1 0xA0 SHL SUB AND CALLER SUB PUSH2 0x1F50 JUMPI JUMP JUMPDEST PUSH1 0x40 MLOAD PUSH4 0x118CDAA7 PUSH1 0xE0 SHL DUP2 MSTORE CALLER PUSH1 0x4 DUP3 ADD MSTORE PUSH1 0x24 SWAP1 REVERT JUMPDEST ISZERO PUSH2 0x1F6F JUMPI JUMP JUMPDEST PUSH1 0x40 MLOAD PUSH3 0x461BCD PUSH1 0xE5 SHL DUP2 MSTORE PUSH1 0x20 PUSH1 0x4 DUP3 ADD MSTORE PUSH1 0x1C PUSH1 0x24 DUP3 ADD MSTORE PUSH32 0x5072696365206D7573742062652067726561746572207468616E203000000000 PUSH1 0x44 DUP3 ADD MSTORE PUSH1 0x64 SWAP1 REVERT JUMPDEST DUP2 PUSH1 0x1F DUP3 ADD SLT ISZERO PUSH2 0x1D56 JUMPI DUP1 MLOAD PUSH2 0x1FCA DUP2 PUSH2 0x1CF4 JUMP JUMPDEST SWAP3 PUSH2 0x1FD8 PUSH1 0x40 MLOAD SWAP5 DUP6 PUSH2 0x1CD3 JUMP JUMPDEST DUP2 DUP5 MSTORE PUSH1 0x20 DUP3 DUP5 ADD ADD GT PUSH2 0x1D56 JUMPI PUSH2 0x1FF6 SWAP2 PUSH1 0x20 DUP1 DUP6 ADD SWAP2 ADD PUSH2 0x1EA0 JUMP JUMPDEST SWAP1 JUMP JUMPDEST MLOAD SWAP1 PUSH1 0x1 PUSH1 0x1 PUSH1 0xA0 SHL SUB DUP3 AND DUP3 SUB PUSH2 0x1D56 JUMPI JUMP JUMPDEST MLOAD SWAP1 DUP2 ISZERO ISZERO DUP3 SUB PUSH2 0x1D56 JUMPI JUMP JUMPDEST PUSH2 0x140 DUP2 DUP4 SUB SLT PUSH2 0x1D56 JUMPI DUP1 MLOAD SWAP3 PUSH1 0x1 PUSH1 0x1 PUSH1 0x40 SHL SUB SWAP4 DUP5 DUP2 GT PUSH2 0x1D56 JUMPI DUP4 PUSH2 0x2044 SWAP2 DUP5 ADD PUSH2 0x1FB4 JUMP JUMPDEST SWAP4 PUSH1 0x20 DUP4 ADD MLOAD DUP2 DUP2 GT PUSH2 0x1D56 JUMPI DUP5 PUSH2 0x205D SWAP2 DUP6 ADD PUSH2 0x1FB4 JUMP JUMPDEST SWAP4 PUSH1 0x40 DUP5 ADD MLOAD SWAP2 DUP3 GT PUSH2 0x1D56 JUMPI PUSH2 0x2075 SWAP2 DUP5 ADD PUSH2 0x1FB4 JUMP JUMPDEST SWAP2 PUSH1 0x60 DUP2 ADD MLOAD SWAP2 PUSH1 0x80 DUP3 ADD MLOAD SWAP2 PUSH2 0x208E PUSH1 0xA0 DUP3 ADD PUSH2 0x1FF9 JUMP JUMPDEST SWAP2 PUSH2 0x209B PUSH1 0xC0 DUP4 ADD PUSH2 0x1FF9 JUMP JUMPDEST SWAP2 PUSH1 0xE0 DUP2 ADD MLOAD SWAP2 PUSH2 0x1FF6 PUSH2 0x120 PUSH2 0x20B5 PUSH2 0x100 DUP6 ADD PUSH2 0x200D JUMP JUMPDEST SWAP4 ADD PUSH2 0x200D JUMP JUMPDEST ISZERO PUSH2 0x20C3 JUMPI JUMP JUMPDEST PUSH1 0x40 MLOAD PUSH3 0x461BCD PUSH1 0xE5 SHL DUP2 MSTORE PUSH1 0x20 PUSH1 0x4 DUP3 ADD MSTORE PUSH1 0x1A PUSH1 0x24 DUP3 ADD MSTORE PUSH32 0x4173736574206E6F7420666F756E6420696E206C696272617279000000000000 PUSH1 0x44 DUP3 ADD MSTORE PUSH1 0x64 SWAP1 REVERT JUMPDEST PUSH1 0x2 DUP3 LT ISZERO PUSH2 0x1EF5 JUMPI MSTORE JUMP JUMPDEST DUP2 DUP2 LT PUSH2 0x211F JUMPI POP POP JUMP JUMPDEST PUSH1 0x0 DUP2 SSTORE PUSH1 0x1 ADD PUSH2 0x2114 JUMP JUMPDEST SWAP2 SWAP1 PUSH1 0x1F DUP2 GT PUSH2 0x213A JUMPI POP POP POP JUMP JUMPDEST PUSH2 0x1E38 SWAP3 PUSH1 0x0 MSTORE PUSH1 0x20 PUSH1 0x0 KECCAK256 SWAP1 PUSH1 0x20 PUSH1 0x1F DUP5 ADD PUSH1 0x5 SHR DUP4 ADD SWAP4 LT PUSH2 0x2166 JUMPI JUMPDEST PUSH1 0x1F ADD PUSH1 0x5 SHR ADD SWAP1 PUSH2 0x2114 JUMP JUMPDEST SWAP1 SWAP2 POP DUP2 SWAP1 PUSH2 0x2159 JUMP JUMPDEST SWAP2 SWAP1 SWAP2 DUP3 MLOAD PUSH1 0x1 PUSH1 0x1 PUSH1 0x40 SHL SUB DUP2 GT PUSH2 0x1CBD JUMPI PUSH2 0x2197 DUP2 PUSH2 0x2191 DUP5 SLOAD PUSH2 0x1DC0 JUMP JUMPDEST DUP5 PUSH2 0x212B JUMP JUMPDEST PUSH1 0x20 DUP1 PUSH1 0x1F DUP4 GT PUSH1 0x1 EQ PUSH2 0x21D3 JUMPI POP DUP2 SWAP3 SWAP4 SWAP5 PUSH1 0x0 SWAP3 PUSH2 0x21C8 JUMPI JUMPDEST POP POP DUP2 PUSH1 0x1 SHL SWAP2 PUSH1 0x0 NOT SWAP1 PUSH1 0x3 SHL SHR NOT AND OR SWAP1 SSTORE JUMP JUMPDEST ADD MLOAD SWAP1 POP CODESIZE DUP1 PUSH2 0x21B2 JUMP JUMPDEST SWAP1 PUSH1 0x1F NOT DUP4 AND SWAP6 DUP5 PUSH1 0x0 MSTORE DUP3 PUSH1 0x0 KECCAK256 SWAP3 PUSH1 0x0 SWAP1 JUMPDEST DUP9 DUP3 LT PUSH2 0x221F JUMPI POP POP DUP4 PUSH1 0x1 SWAP6 SWAP7 SWAP8 LT PUSH2 0x2206 JUMPI JUMPDEST POP POP POP DUP2 SHL ADD SWAP1 SSTORE JUMP JUMPDEST ADD MLOAD PUSH1 0x0 NOT PUSH1 0xF8 DUP5 PUSH1 0x3 SHL AND SHR NOT AND SWAP1 SSTORE CODESIZE DUP1 DUP1 PUSH2 0x21FC JUMP JUMPDEST DUP1 PUSH1 0x1 DUP6 SWAP7 DUP3 SWAP5 SWAP7 DUP7 ADD MLOAD DUP2 SSTORE ADD SWAP6 ADD SWAP4 ADD SWAP1 PUSH2 0x21E7 JUMP JUMPDEST SWAP1 PUSH1 0x2 DUP2 LT ISZERO PUSH2 0x1EF5 JUMPI PUSH1 0xFF DUP1 NOT DUP4 SLOAD AND SWAP2 AND OR SWAP1 SSTORE JUMP JUMPDEST PUSH2 0x2267 SWAP1 PUSH1 0x20 PUSH1 0x40 MLOAD SWAP3 DUP3 DUP5 DUP1 SWAP5 MLOAD SWAP4 DUP5 SWAP3 ADD PUSH2 0x1EA0 JUMP JUMPDEST DUP2 ADD SUB SWAP1 KECCAK256 SWAP1 JUMP JUMPDEST ISZERO PUSH2 0x2276 JUMPI JUMP JUMPDEST PUSH1 0x40 MLOAD PUSH3 0x461BCD PUSH1 0xE5 SHL DUP2 MSTORE PUSH1 0x20 PUSH1 0x4 DUP3 ADD MSTORE PUSH1 0x12 PUSH1 0x24 DUP3 ADD MSTORE PUSH18 0x4C697374696E67206E6F7420616374697665 PUSH1 0x70 SHL PUSH1 0x44 DUP3 ADD MSTORE PUSH1 0x64 SWAP1 REVERT JUMPDEST DUP2 DUP2 MUL SWAP3 SWAP2 DUP2 ISZERO SWAP2 DUP5 DIV EQ OR ISZERO PUSH2 0x22C3 JUMPI JUMP JUMPDEST PUSH4 0x4E487B71 PUSH1 0xE0 SHL PUSH1 0x0 MSTORE PUSH1 0x11 PUSH1 0x4 MSTORE PUSH1 0x24 PUSH1 0x0 REVERT JUMPDEST SWAP2 SWAP1 DUP3 SUB SWAP2 DUP3 GT PUSH2 0x22C3 JUMPI JUMP JUMPDEST ISZERO PUSH2 0x22ED JUMPI JUMP JUMPDEST PUSH1 0x40 MLOAD PUSH3 0x461BCD PUSH1 0xE5 SHL DUP2 MSTORE PUSH1 0x20 PUSH1 0x4 DUP3 ADD MSTORE PUSH1 0x18 PUSH1 0x24 DUP3 ADD MSTORE PUSH32 0x5061796D656E7420746F2073656C6C6572206661696C65640000000000000000 PUSH1 0x44 DUP3 ADD MSTORE PUSH1 0x64 SWAP1 REVERT JUMPDEST RETURNDATASIZE ISZERO PUSH2 0x235D JUMPI RETURNDATASIZE SWAP1 PUSH2 0x2343 DUP3 PUSH2 0x1CF4 JUMP JUMPDEST SWAP2 PUSH2 0x2351 PUSH1 0x40 MLOAD SWAP4 DUP5 PUSH2 0x1CD3 JUMP JUMPDEST DUP3 MSTORE RETURNDATASIZE PUSH1 0x0 PUSH1 0x20 DUP5 ADD RETURNDATACOPY JUMP JUMPDEST PUSH1 0x60 SWAP1 JUMP JUMPDEST ISZERO PUSH2 0x2369 JUMPI JUMP JUMPDEST PUSH1 0x40 MLOAD PUSH3 0x461BCD PUSH1 0xE5 SHL DUP2 MSTORE PUSH1 0x20 PUSH1 0x4 DUP3 ADD MSTORE PUSH1 0xD PUSH1 0x24 DUP3 ADD MSTORE PUSH13 0x1499599D5B990819985A5B1959 PUSH1 0x9A SHL PUSH1 0x44 DUP3 ADD MSTORE PUSH1 0x64 SWAP1 REVERT JUMPDEST PUSH1 0x2 PUSH1 0x1 SLOAD EQ PUSH2 0x23AF JUMPI PUSH1 0x2 PUSH1 0x1 SSTORE JUMP JUMPDEST PUSH1 0x40 MLOAD PUSH4 0x3EE5AEB5 PUSH1 0xE0 SHL DUP2 MSTORE PUSH1 0x4 SWAP1 REVERT JUMPDEST PUSH1 0x0 NOT DUP2 EQ PUSH2 0x22C3 JUMPI PUSH1 0x1 ADD SWAP1 JUMP JUMPDEST ISZERO PUSH2 0x23D7 JUMPI JUMP JUMPDEST PUSH1 0x40 MLOAD PUSH3 0x461BCD PUSH1 0xE5 SHL DUP2 MSTORE PUSH1 0x20 PUSH1 0x4 DUP3 ADD MSTORE PUSH1 0x10 PUSH1 0x24 DUP3 ADD MSTORE PUSH16 0x4F66666572206E6F7420616374697665 PUSH1 0x80 SHL PUSH1 0x44 DUP3 ADD MSTORE PUSH1 0x64 SWAP1 REVERT JUMPDEST SWAP1 PUSH1 0x0 SWAP3 SWAP2 DUP1 SLOAD SWAP2 PUSH2 0x2420 DUP4 PUSH2 0x1DC0 JUMP JUMPDEST SWAP2 DUP3 DUP3 MSTORE PUSH1 0x1 SWAP4 DUP5 DUP2 AND SWAP1 DUP2 PUSH1 0x0 EQ PUSH2 0x2482 JUMPI POP PUSH1 0x1 EQ PUSH2 0x2442 JUMPI JUMPDEST POP POP POP POP JUMP JUMPDEST SWAP1 SWAP2 SWAP4 SWAP5 POP PUSH1 0x0 MSTORE PUSH1 0x20 SWAP3 DUP4 PUSH1 0x0 KECCAK256 SWAP3 DUP5 PUSH1 0x0 SWAP5 JUMPDEST DUP4 DUP7 LT PUSH2 0x246E JUMPI POP POP POP POP ADD ADD SWAP1 CODESIZE DUP1 DUP1 DUP1 PUSH2 0x243C JUMP JUMPDEST DUP1 SLOAD DUP6 DUP8 ADD DUP4 ADD MSTORE SWAP5 ADD SWAP4 DUP6 SWAP1 DUP3 ADD PUSH2 0x2457 JUMP JUMPDEST SWAP3 SWAP5 POP POP POP PUSH1 0x20 SWAP4 SWAP5 POP PUSH1 0xFF NOT AND DUP4 DUP4 ADD MSTORE ISZERO ISZERO PUSH1 0x5 SHL ADD ADD SWAP1 CODESIZE DUP1 DUP1 DUP1 PUSH2 0x243C JUMP JUMPDEST PUSH1 0x0 SWAP3 SWAP2 DUP2 SLOAD PUSH2 0x24B4 DUP2 PUSH2 0x1DC0 JUMP JUMPDEST SWAP3 PUSH1 0x1 SWAP2 DUP1 DUP4 AND SWAP1 DUP2 ISZERO PUSH2 0x250C JUMPI POP PUSH1 0x1 EQ PUSH2 0x24D0 JUMPI POP POP POP POP JUMP JUMPDEST SWAP1 SWAP2 SWAP3 SWAP4 SWAP5 POP PUSH1 0x0 MSTORE PUSH1 0x20 SWAP1 DUP2 PUSH1 0x0 KECCAK256 SWAP1 PUSH1 0x0 SWAP2 JUMPDEST DUP6 DUP4 LT PUSH2 0x24FB JUMPI POP POP POP POP ADD SWAP1 CODESIZE DUP1 DUP1 DUP1 PUSH2 0x243C JUMP JUMPDEST DUP1 SLOAD DUP6 DUP5 ADD MSTORE SWAP2 DUP4 ADD SWAP2 DUP2 ADD PUSH2 0x24E5 JUMP JUMPDEST PUSH1 0xFF NOT AND DUP5 MSTORE POP POP POP DUP2 ISZERO ISZERO SWAP1 SWAP2 MUL ADD SWAP2 POP CODESIZE DUP1 DUP1 DUP1 PUSH2 0x243C JUMP JUMPDEST ISZERO PUSH2 0x252E JUMPI JUMP JUMPDEST PUSH1 0x40 MLOAD PUSH3 0x461BCD PUSH1 0xE5 SHL DUP2 MSTORE PUSH1 0x20 PUSH1 0x4 DUP3 ADD MSTORE PUSH1 0x11 PUSH1 0x24 DUP3 ADD MSTORE PUSH17 0x15DA5D1A191C985DD85B0819985A5B1959 PUSH1 0x7A SHL PUSH1 0x44 DUP3 ADD MSTORE PUSH1 0x64 SWAP1 REVERT JUMPDEST SWAP1 DUP1 DUP3 EQ PUSH2 0x263F JUMPI PUSH2 0x2579 DUP2 SLOAD PUSH2 0x1DC0 JUMP JUMPDEST SWAP1 PUSH1 0x1 PUSH1 0x1 PUSH1 0x40 SHL SUB DUP3 GT PUSH2 0x1CBD JUMPI DUP2 SWAP1 PUSH2 0x259E DUP3 PUSH2 0x2598 DUP7 SLOAD PUSH2 0x1DC0 JUMP JUMPDEST DUP7 PUSH2 0x212B JUMP JUMPDEST PUSH1 0x0 SWAP1 PUSH1 0x1F DUP4 GT PUSH1 0x1 EQ PUSH2 0x25D4 JUMPI PUSH1 0x0 SWAP3 PUSH2 0x25C9 JUMPI POP POP DUP2 PUSH1 0x1 SHL SWAP2 PUSH1 0x0 NOT SWAP1 PUSH1 0x3 SHL SHR NOT AND OR SWAP1 SSTORE JUMP JUMPDEST ADD SLOAD SWAP1 POP CODESIZE DUP1 PUSH2 0x21B2 JUMP JUMPDEST DUP2 MSTORE PUSH1 0x20 DUP1 DUP3 KECCAK256 DUP6 DUP4 MSTORE DUP2 DUP4 KECCAK256 SWAP4 POP SWAP1 PUSH1 0x1F NOT DUP6 AND SWAP1 DUP4 SWAP1 JUMPDEST DUP3 DUP3 LT PUSH2 0x2626 JUMPI POP POP SWAP1 DUP5 PUSH1 0x1 SWAP6 SWAP5 SWAP4 SWAP3 LT PUSH2 0x260D JUMPI POP POP POP DUP2 SHL ADD SWAP1 SSTORE JUMP JUMPDEST ADD SLOAD PUSH1 0x0 NOT PUSH1 0xF8 DUP5 PUSH1 0x3 SHL AND SHR NOT AND SWAP1 SSTORE CODESIZE DUP1 DUP1 PUSH2 0x21FC JUMP JUMPDEST DUP5 SWAP6 DUP2 SWAP3 SWAP6 DUP6 ADD SLOAD DUP2 SSTORE PUSH1 0x1 DUP1 SWAP2 ADD SWAP7 ADD SWAP5 ADD SWAP1 PUSH2 0x25ED JUMP JUMPDEST POP POP JUMP JUMPDEST PUSH1 0x0 JUMPDEST PUSH1 0x7 DUP1 SLOAD SWAP1 DUP2 DUP4 LT ISZERO PUSH2 0x243C JUMPI PUSH2 0x2670 SWAP2 PUSH2 0x2677 PUSH2 0x2663 DUP6 PUSH2 0x1D5B JUMP JUMPDEST POP PUSH1 0x40 MLOAD SWAP5 DUP6 DUP1 SWAP3 PUSH2 0x240F JUMP JUMPDEST SUB DUP5 PUSH2 0x1CD3 JUMP JUMPDEST DUP3 MLOAD PUSH1 0x20 DUP1 SWAP5 ADD KECCAK256 DUP6 MLOAD DUP5 DUP8 ADD KECCAK256 EQ PUSH2 0x269B JUMPI POP POP POP PUSH2 0x2696 SWAP1 PUSH2 0x23C1 JUMP JUMPDEST PUSH2 0x2646 JUMP JUMPDEST SWAP2 SWAP4 POP SWAP2 PUSH1 0x0 NOT SWAP2 DUP3 DUP2 ADD SWAP1 DUP2 GT PUSH2 0x22C3 JUMPI PUSH2 0x26B9 PUSH2 0x26C0 SWAP2 PUSH2 0x1D5B JUMP JUMPDEST POP SWAP2 PUSH2 0x1D5B JUMP JUMPDEST SWAP2 SWAP1 SWAP2 PUSH2 0x273E JUMPI PUSH2 0x26D0 SWAP2 PUSH2 0x2567 JUMP JUMPDEST DUP2 SLOAD DUP1 ISZERO PUSH2 0x2754 JUMPI ADD SWAP2 PUSH2 0x26E3 DUP4 PUSH2 0x1D5B JUMP JUMPDEST PUSH2 0x273E JUMPI PUSH2 0x26F1 DUP2 SLOAD PUSH2 0x1DC0 JUMP JUMPDEST DUP1 PUSH2 0x26FD JUMPI JUMPDEST POP POP POP SSTORE JUMP JUMPDEST PUSH1 0x0 SWAP3 PUSH1 0x1F SWAP1 DUP2 DUP4 GT PUSH1 0x1 EQ PUSH2 0x271A JUMPI POP POP POP SSTORE JUMPDEST CODESIZE DUP1 DUP1 PUSH2 0x26F7 JUMP JUMPDEST DUP4 SWAP2 PUSH2 0x2737 SWAP2 DUP7 SWAP5 SWAP6 DUP6 MSTORE DUP5 KECCAK256 SWAP5 ADD PUSH1 0x5 SHR DUP5 ADD PUSH1 0x1 DUP6 ADD PUSH2 0x2114 JUMP JUMPDEST SSTORE SSTORE PUSH2 0x2712 JUMP JUMPDEST PUSH4 0x4E487B71 PUSH1 0xE0 SHL PUSH1 0x0 MSTORE PUSH1 0x0 PUSH1 0x4 MSTORE PUSH1 0x24 PUSH1 0x0 REVERT JUMPDEST PUSH4 0x4E487B71 PUSH1 0xE0 SHL PUSH1 0x0 MSTORE PUSH1 0x31 PUSH1 0x4 MSTORE PUSH1 0x24 PUSH1 0x0 REVERT JUMPDEST SWAP1 PUSH1 0x40 SWAP2 DUP3 MLOAD DUP1 DUP3 MLOAD PUSH1 0x20 SWAP3 DUP2 PUSH2 0x2785 DUP6 SWAP4 DUP4 DUP6 DUP10 ADD PUSH2 0x1EA0 JUMP JUMPDEST DUP2 ADD PUSH1 0x5 DUP2 MSTORE SUB ADD SWAP1 KECCAK256 PUSH1 0x0 JUMPDEST DUP2 SLOAD DUP2 LT ISZERO PUSH2 0x2973 JUMPI PUSH2 0x27A5 DUP2 DUP4 PUSH2 0x1DA8 JUMP JUMPDEST SWAP1 SLOAD PUSH1 0x3 SWAP2 DUP3 SHL SHR PUSH1 0x0 MSTORE PUSH1 0x4 SWAP1 DUP2 DUP6 MSTORE DUP8 PUSH1 0x0 KECCAK256 SWAP2 PUSH1 0x6 DUP4 ADD DUP1 SLOAD SWAP1 PUSH1 0xFF SWAP2 DUP3 DUP2 AND PUSH2 0x27E1 JUMPI JUMPDEST POP POP POP POP POP POP PUSH2 0x27DC SWAP1 PUSH2 0x23C1 JUMP JUMPDEST PUSH2 0x2792 JUMP JUMPDEST PUSH1 0xFF NOT AND SWAP1 SSTORE PUSH1 0x0 SWAP1 DUP4 DUP6 ADD SLOAD AND SWAP2 PUSH1 0x2 SWAP3 DUP4 DUP2 LT ISZERO PUSH2 0x2960 JUMPI DUP9 SWAP2 DUP13 SWAP2 PUSH2 0x2894 JUMPI POP POP POP POP SWAP1 PUSH1 0x0 DUP1 DUP1 DUP1 PUSH2 0x27DC SWAP8 SWAP7 SWAP6 PUSH1 0x1 DUP1 PUSH1 0xA0 SHL SUB PUSH1 0x1 DUP9 ADD SLOAD AND SWAP1 DUP8 ADD SLOAD SWAP1 GAS CALL PUSH2 0x282F PUSH2 0x2332 JUMP JUMPDEST POP JUMPDEST PUSH2 0x283F JUMPI JUMPDEST DUP3 SWAP4 DUP2 DUP1 PUSH2 0x27CD JUMP JUMPDEST PUSH2 0x2849 DUP4 DUP7 PUSH2 0x1DA8 JUMP JUMPDEST SWAP1 SLOAD PUSH1 0x1 SWAP1 SWAP4 ADD SLOAD PUSH1 0x1 PUSH1 0x1 PUSH1 0xA0 SHL SUB AND SWAP3 SWAP2 SHL SHR PUSH2 0x2867 DUP8 PUSH2 0x224F JUMP JUMPDEST SWAP1 PUSH32 0xA73002EB00B7F458173AEC22CF4445BBDB98267F801A7FE3D22DBA9382338CDB PUSH1 0x0 DUP1 LOG4 CODESIZE DUP1 PUSH2 0x2836 JUMP JUMPDEST PUSH1 0x1 DUP8 ADD SLOAD SWAP5 DUP8 ADD SLOAD SWAP2 MLOAD PUSH4 0xA9059CBB PUSH1 0xE0 SHL DUP2 MSTORE PUSH1 0x1 PUSH1 0x1 PUSH1 0xA0 SHL SUB SWAP6 DUP7 AND SWAP2 DUP2 ADD SWAP2 DUP3 MSTORE PUSH1 0x20 DUP3 ADD SWAP3 SWAP1 SWAP3 MSTORE SWAP3 SWAP4 SWAP1 SWAP3 DUP4 SWAP2 SWAP1 DUP3 SWAP1 DUP7 SWAP1 DUP3 SWAP1 PUSH1 0x40 ADD SUB SWAP3 PUSH32 0x0 AND GAS CALL SWAP2 DUP3 ISZERO PUSH2 0x2955 JUMPI DUP1 SWAP3 PUSH2 0x2914 JUMPI JUMPDEST POP POP SWAP1 PUSH2 0x27DC SWAP4 SWAP3 SWAP2 PUSH2 0x2831 JUMP JUMPDEST SWAP1 SWAP2 POP DUP7 DUP3 DUP2 RETURNDATASIZE DUP4 GT PUSH2 0x294E JUMPI JUMPDEST PUSH2 0x292C DUP2 DUP4 PUSH2 0x1CD3 JUMP JUMPDEST DUP2 ADD SUB SLT PUSH2 0x20E JUMPI POP SWAP1 PUSH2 0x2944 PUSH2 0x27DC SWAP5 SWAP4 SWAP3 PUSH2 0x200D JUMP JUMPDEST SWAP1 SWAP2 SWAP3 SWAP4 CODESIZE PUSH2 0x2906 JUMP JUMPDEST POP RETURNDATASIZE PUSH2 0x2922 JUMP JUMPDEST DUP11 MLOAD SWAP1 RETURNDATASIZE SWAP1 DUP3 RETURNDATACOPY RETURNDATASIZE SWAP1 REVERT JUMPDEST PUSH4 0x4E487B71 PUSH1 0xE0 SHL DUP4 MSTORE PUSH1 0x21 DUP3 MSTORE PUSH1 0x24 DUP4 REVERT JUMPDEST POP POP POP POP SWAP1 POP JUMP INVALID LOG2 PUSH5 0x6970667358 0x22 SLT KECCAK256 DUP8 DUP10 0xEE PUSH7 0x302F64B389A1B2 0xCC BALANCE PUSH8 0xE5F6915B0E17DC02 JUMPDEST 0xEB PUSH10 0xA3017D75342A664736F PUSH13 0x63430008140033000000000000 "},"methodIdentifiers":{"FEE_DENOMINATOR()":"d73792a9","USDC_ADDRESS()":"bb09d9b7","acceptOffer(uint256)":"c815729d","activeListings(uint256)":"61cf4863","buyAsset(string)":"c7ef9672","cancelListing(string)":"943f2261","cancelOffer(uint256)":"ef706adf","getActiveListingsCount()":"7b55927c","getProjectOffers(string)":"f941fb99","libraryContract()":"ce0769c5","listAsset(string,uint256,uint8)":"13b06915","listings(string)":"77dec6c3","makeOffer(string,uint256,uint8,uint256)":"a2235558","nextOfferId()":"5f5d0655","offers(uint256)":"8a72ea6a","owner()":"8da5cb5b","platformFeePercentage()":"cdd78cfc","projectOffers(string,uint256)":"a3a67058","renounceOwnership()":"715018a6","transferOwnership(address)":"f2fde38b","updateListingPrice(string,uint256)":"9122d553","updatePlatformFee(uint256)":"aa0b5988","usdcToken()":"11eac855","withdrawPlatformFees()":"d0b7830b","withdrawPlatformFeesUSDC()":"dceb7686"}}}}}