{"ClayLibrary.sol":{"ClayLibrary":{"abi":[{"inputs":[{"internalType":"address","name":"_royaltyContract","type":"address"}],"stateMutability":"nonpayable","type":"constructor"},{"inputs":[{"internalType":"address","name":"owner","type":"address"}],"name":"OwnableInvalidOwner","type":"error"},{"inputs":[{"internalType":"address","name":"account","type":"address"}],"name":"OwnableUnauthorizedAccount","type":"error"},{"inputs":[],"name":"ReentrancyGuardReentrantCall","type":"error"},{"anonymous":false,"inputs":[{"indexed":true,"internalType":"string","name":"projectId","type":"string"},{"indexed":true,"internalType":"address","name":"owner","type":"address"}],"name":"AssetDeleted","type":"event"},{"anonymous":false,"inputs":[{"indexed":true,"internalType":"string","name":"projectId","type":"string"},{"indexed":true,"internalType":"address","name":"creator","type":"address"},{"indexed":false,"internalType":"string","name":"name","type":"string"},{"indexed":false,"internalType":"uint256","name":"price","type":"uint256"}],"name":"AssetRegistered","type":"event"},{"anonymous":false,"inputs":[{"indexed":true,"internalType":"address","name":"previousOwner","type":"address"},{"indexed":true,"internalType":"address","name":"newOwner","type":"address"}],"name":"OwnershipTransferStarted","type":"event"},{"anonymous":false,"inputs":[{"indexed":true,"internalType":"address","name":"previousOwner","type":"address"},{"indexed":true,"internalType":"address","name":"newOwner","type":"address"}],"name":"OwnershipTransferred","type":"event"},{"anonymous":false,"inputs":[{"indexed":true,"internalType":"string","name":"projectId","type":"string"},{"indexed":true,"internalType":"address","name":"previousOwner","type":"address"},{"indexed":true,"internalType":"address","name":"newOwner","type":"address"}],"name":"OwnershipTransferred","type":"event"},{"anonymous":false,"inputs":[{"indexed":true,"internalType":"string","name":"projectId","type":"string"},{"indexed":true,"internalType":"address","name":"owner","type":"address"}],"name":"RoyaltyDisabled","type":"event"},{"anonymous":false,"inputs":[{"indexed":true,"internalType":"string","name":"projectId","type":"string"},{"indexed":false,"internalType":"uint256","name":"newRoyaltyETH","type":"uint256"},{"indexed":false,"internalType":"uint256","name":"newRoyaltyUSDC","type":"uint256"}],"name":"RoyaltyFeeUpdated","type":"event"},{"inputs":[],"name":"FEE_DENOMINATOR","outputs":[{"internalType":"uint256","name":"","type":"uint256"}],"stateMutability":"view","type":"function"},{"inputs":[],"name":"USDC_ADDRESS","outputs":[{"internalType":"address","name":"","type":"address"}],"stateMutability":"view","type":"function"},{"inputs":[],"name":"acceptOwnership","outputs":[],"stateMutability":"nonpayable","type":"function"},{"inputs":[{"internalType":"uint256","name":"","type":"uint256"}],"name":"allAssetIds","outputs":[{"internalType":"string","name":"","type":"string"}],"stateMutability":"view","type":"function"},{"inputs":[{"internalType":"address","name":"","type":"address"}],"name":"approvedMarketplaces","outputs":[{"internalType":"bool","name":"","type":"bool"}],"stateMutability":"view","type":"function"},{"inputs":[{"internalType":"string","name":"projectId","type":"string"}],"name":"deleteAsset","outputs":[],"stateMutability":"nonpayable","type":"function"},{"inputs":[{"internalType":"string","name":"projectId","type":"string"}],"name":"disableRoyalty","outputs":[],"stateMutability":"nonpayable","type":"function"},{"inputs":[{"internalType":"string","name":"projectId","type":"string"}],"name":"enableRoyalty","outputs":[],"stateMutability":"nonpayable","type":"function"},{"inputs":[{"internalType":"string","name":"projectId","type":"string"}],"name":"getAsset","outputs":[{"components":[{"internalType":"string","name":"projectId","type":"string"},{"internalType":"string","name":"name","type":"string"},{"internalType":"string","name":"description","type":"string"},{"internalType":"uint256","name":"royaltyPerImportETH","type":"uint256"},{"internalType":"uint256","name":"royaltyPerImportUSDC","type":"uint256"},{"internalType":"address","name":"currentOwner","type":"address"},{"internalType":"address","name":"originalCreator","type":"address"},{"internalType":"uint256","name":"listedAt","type":"uint256"},{"internalType":"bool","name":"exists","type":"bool"},{"internalType":"bool","name":"royaltyEnabled","type":"bool"}],"internalType":"struct ClayLibrary.LibraryAsset","name":"","type":"tuple"}],"stateMutability":"view","type":"function"},{"inputs":[{"internalType":"uint256","name":"index","type":"uint256"}],"name":"getAssetIdByIndex","outputs":[{"internalType":"string","name":"","type":"string"}],"stateMutability":"view","type":"function"},{"inputs":[{"internalType":"string","name":"projectId","type":"string"}],"name":"getCurrentOwner","outputs":[{"internalType":"address","name":"","type":"address"}],"stateMutability":"view","type":"function"},{"inputs":[{"internalType":"string","name":"projectId","type":"string"}],"name":"getRoyaltyFee","outputs":[{"internalType":"uint256","name":"royaltyETH","type":"uint256"},{"internalType":"uint256","name":"royaltyUSDC","type":"uint256"}],"stateMutability":"view","type":"function"},{"inputs":[],"name":"getTotalAssets","outputs":[{"internalType":"uint256","name":"","type":"uint256"}],"stateMutability":"view","type":"function"},{"inputs":[{"internalType":"address","name":"user","type":"address"}],"name":"getUserAssets","outputs":[{"internalType":"string[]","name":"","type":"string[]"}],"stateMutability":"view","type":"function"},{"inputs":[{"internalType":"string","name":"","type":"string"}],"name":"libraryAssets","outputs":[{"internalType":"string","name":"projectId","type":"string"},{"internalType":"string","name":"name","type":"string"},{"internalType":"string","name":"description","type":"string"},{"internalType":"uint256","name":"royaltyPerImportETH","type":"uint256"},{"internalType":"uint256","name":"royaltyPerImportUSDC","type":"uint256"},{"internalType":"address","name":"currentOwner","type":"address"},{"internalType":"address","name":"originalCreator","type":"address"},{"internalType":"uint256","name":"listedAt","type":"uint256"},{"internalType":"bool","name":"exists","type":"bool"},{"internalType":"bool","name":"royaltyEnabled","type":"bool"}],"stateMutability":"view","type":"function"},{"inputs":[],"name":"owner","outputs":[{"internalType":"address","name":"","type":"address"}],"stateMutability":"view","type":"function"},{"inputs":[],"name":"pendingOwner","outputs":[{"internalType":"address","name":"","type":"address"}],"stateMutability":"view","type":"function"},{"inputs":[],"name":"platformFeePercentage","outputs":[{"internalType":"uint256","name":"","type":"uint256"}],"stateMutability":"view","type":"function"},{"inputs":[{"internalType":"string","name":"projectId","type":"string"},{"internalType":"string","name":"name","type":"string"},{"internalType":"string","name":"description","type":"string"},{"internalType":"uint256","name":"royaltyPerImportETH","type":"uint256"},{"internalType":"uint256","name":"royaltyPerImportUSDC","type":"uint256"}],"name":"registerAsset","outputs":[],"stateMutability":"nonpayable","type":"function"},{"inputs":[],"name":"renounceOwnership","outputs":[],"stateMutability":"nonpayable","type":"function"},{"inputs":[],"name":"royaltyContract","outputs":[{"internalType":"contract IClayRoyalty","name":"","type":"address"}],"stateMutability":"view","type":"function"},{"inputs":[{"internalType":"address","name":"marketplace","type":"address"},{"internalType":"bool","name":"approved","type":"bool"}],"name":"setApprovedMarketplace","outputs":[],"stateMutability":"nonpayable","type":"function"},{"inputs":[{"internalType":"address","name":"_royaltyContract","type":"address"}],"name":"setRoyaltyContract","outputs":[],"stateMutability":"nonpayable","type":"function"},{"inputs":[{"internalType":"string","name":"projectId","type":"string"},{"internalType":"address","name":"newOwner","type":"address"}],"name":"transferAssetOwnership","outputs":[],"stateMutability":"nonpayable","type":"function"},{"inputs":[{"internalType":"address","name":"newOwner","type":"address"}],"name":"transferOwnership","outputs":[],"stateMutability":"nonpayable","type":"function"},{"inputs":[{"internalType":"string","name":"projectId","type":"string"},{"internalType":"uint256","name":"newRoyaltyETH","type":"uint256"},{"internalType":"uint256","name":"newRoyaltyUSDC","type":"uint256"}],"name":"updateRoyaltyFee","outputs":[],"stateMutability":"nonpayable","type":"function"},{"inputs":[],"name":"usdcToken","outputs":[{"internalType":"contract IERC20","name":"","type":"address"}],"stateMutability":"view","type":"function"},{"inputs":[{"internalType":"address","name":"","type":"address"},{"internalType":"uint256","name":"","type":"uint256"}],"name":"userOwnedAssets","outputs":[{"internalType":"string","name":"","type":"string"}],"stateMutability":"view","type":"function"}],"evm":{"bytecode":{"linkReferences":{},"object":"60a0346100f857601f611cc138819003918201601f19168301916001600160401b038311848410176100fd578084926020946040528339810103126100f857516001600160a01b0390818116908190036100f85733156100df5760018060a01b031980600154166001556000543382821617600055604051933391167f8be0079c531659141344cd1fd0a4f28419497f9722a3daafe3b4186f6b6457e0600080a3600160025560fa60085573833589fcd6edb6e08f4c7c32d4f71b54bda029136080526003541617600355611bad90816101148239608051816115890152f35b604051631e4fbdf760e01b815260006004820152602490fd5b600080fd5b634e487b7160e01b600052604160045260246000fdfe608080604052600436101561001357600080fd5b60003560e01c90816311eac85514611576575080631663ee031461154d5780631741cfc0146114095780632203f8f11461106e578063543a9eb91461102f5780635d483ab914610fe2578063675bfec114610ec05780636cb3db2514610dad5780636e07302b14610d8f578063715018a614610d2a578063765ff06114610c3957806379ba509714610bb55780638c5deff814610b475780638da5cb5b14610b1e578063bb09d9b714610aef578063bbf46b8414610a96578063cd5286d0146108ac578063cdd78cfc1461088e578063d55a772d14610842578063d73792a914610825578063d9aa187c146107e2578063e24aa37c146106f7578063e30c3978146106ce578063e814d66b14610683578063ea608c9c14610527578063edd91367146104e1578063f2fde38b146104765763ff6c0dde1461015357600080fd5b346104715760a0366003190112610471576001600160401b03600435818111610471576101849036906004016115f5565b906024358181116104715761019d9036906004016115f5565b90604435908111610471576101b69036906004016115f5565b916064359160843582511561042c578315801590610423575b6101d890611813565b6040519483519160ff60086020988981818a01976101f781838b6117b7565b810160058152030190200154166103de5790869160405191610218836115b8565b868352838301918683526040840191825260608401908982526080850190815260a085019133835260c086019333855260e087019542875261010088019960018b5261012089019960018b528d60405180938192518092610278926117b7565b81016005815203019020975161028e90896118ba565b5161029c90600189016118ba565b516102aa90600288016118ba565b516003860155516004850155516005840180546001600160a01b039283166001600160a01b031991821617909155915160068501805491909216921691909117905551600782015591516008909201805460ff191692151560ff1692909217825551151581549060081b61ff00169061ff00191617905533600052600684528160406000209061033991611981565b600754600160401b8110156103c8578060016103589201600755611661565b6103b2578261038b7f585d38ebcb0fe93ced4d64fbb112388b85b7726e7d87c5142521434d4f12238494610390936118ba565b6119ae565b926103a6604051926040845260408401906117da565b948201528033940390a3005b634e487b7160e01b600052600060045260246000fd5b634e487b7160e01b600052604160045260246000fd5b60405162461bcd60e51b815260048101889052601860248201527f417373657420616c7265616479207265676973746572656400000000000000006044820152606490fd5b508015156101cf565b60405162461bcd60e51b815260206004820152601a60248201527f50726f6a6563742049442063616e6e6f7420626520656d7074790000000000006044820152606490fd5b600080fd5b346104715760203660031901126104715761048f61164b565b6104976117ff565b60018060a01b0380911690816001600160601b0360a01b6001541617600155600054167f38d16b8cac22d99fc7c124b9cd0de2d3fa1faef420bfe791d8c362d765e22700600080a3005b34610471576020366003190112610471576004356001600160401b0381116104715761051b61051660409236906004016115f5565b611a0c565b82519182526020820152f35b3461047157602080600319360112610471576004356001600160401b038111610471576105589036906004016115f5565b6040518281835161056c81838588016117b7565b810160058152030190209060088201805461058960ff82166119ce565b60ff8160081c1661063e5760058401546001600160a01b031633036105f957917f59e8620b0742a7acf1fa2c6236758d97e05221785068ee1ef79e8dde26cb755f939161010060409461ff0019161790556105ed60046003840154930154916119ae565b948351928352820152a2005b60405162461bcd60e51b815260048101869052601d60248201527f4f6e6c79206f776e65722063616e20656e61626c6520726f79616c74790000006044820152606490fd5b60405162461bcd60e51b815260048101869052601760248201527f526f79616c747920616c726561647920656e61626c65640000000000000000006044820152606490fd5b3461047157602036600319011261047157600435600754811015610471576106b66106b06106ca92611661565b906117a6565b6040519182916020835260208301906117da565b0390f35b34610471576000366003190112610471576001546040516001600160a01b039091168152602090f35b34610471576020366003190112610471576004356001600160401b038111610471576107279036906004016115f5565b604051602081835161073c81838588016117b7565b81016005815203019020600881019081549061075a60ff83166119ce565b600501546001600160a01b031633036107a55761ffff1916905561077e33916119ae565b7fb50a82962555cb439c53739ec19c159c2039e25705651a754caa0857168116e5600080a3005b60405162461bcd60e51b81526020600482015260156024820152744f6e6c79206f776e65722063616e2064656c65746560581b6044820152606490fd5b34610471576020366003190112610471576107fb61164b565b6108036117ff565b600380546001600160a01b0319166001600160a01b0392909216919091179055005b346104715760003660031901126104715760206040516127108152f35b34610471576020366003190112610471576004356001600160401b0381116104715761087c61087760209236906004016115f5565b611a55565b6040516001600160a01b039091168152f35b34610471576000366003190112610471576020600854604051908152f35b34610471576020366003190112610471576004356001600160401b0381116104715760206108e161093d9236906004016115f5565b60006101206040516108f2816115b8565b60608152606085820152606060408201528260608201528260808201528260a08201528260c08201528260e082015282610100820152015281604051938285809451938492016117b7565b8101600581520301902060ff600860405192610958846115b8565b61096181611700565b845261096f60018201611700565b602085015261098060028201611700565b6040850152600381015460608501526004810154608085015260018060a01b0360058201541660a085015260018060a01b0360068201541660c0850152600781015460e08501520154818116151561010084015260081c161515610120820152604051809160208252610120610a38610a07835161014060208701526101608601906117da565b610a23602085015191601f1992838883030160408901526117da565b906040850151908683030160608701526117da565b9160608101516080850152608081015160a085015260018060a01b0360a08201511660c085015260018060a01b0360c08201511660e085015260e0810151610100850152610100810151151582850152015115156101408301520390f35b3461047157604036600319011261047157610aaf61164b565b602435801515810361047157610aed91610ac76117ff565b60018060a01b0316600052600460205260406000209060ff801983541691151516179055565b005b3461047157600036600319011261047157602060405173833589fcd6edb6e08f4c7c32d4f71b54bda029138152f35b34610471576000366003190112610471576000546040516001600160a01b039091168152602090f35b3461047157602036600319011261047157600435600754811015610b7a576106b6610b746106ca92611661565b50611700565b60405162461bcd60e51b8152602060048201526013602482015272496e646578206f7574206f6620626f756e647360681b6044820152606490fd5b34610471576000366003190112610471576001546001600160a01b033381831603610c21576001600160601b0360a01b8092166001556000549133908316176000553391167f8be0079c531659141344cd1fd0a4f28419497f9722a3daafe3b4186f6b6457e0600080a3005b60405163118cdaa760e01b8152336004820152602490fd5b3461047157602080600319360112610471576001600160a01b03610c5b61164b565b166000526006815260406000208054906001600160401b0382116103c857829060405192610c8e838260051b01856115d4565b8084528284018092600052836000206000915b838310610d085750505050604051918083019381845251809452604083019360408160051b85010192916000955b828710610cdc5785850386f35b909192938280610cf8600193603f198a820301865288516117da565b9601920196019592919092610ccf565b6001868192610d19859a999a611700565b815201920192019190959495610ca1565b3461047157600036600319011261047157610d436117ff565b600180546001600160a01b0319908116909155600080549182168155906001600160a01b03167f8be0079c531659141344cd1fd0a4f28419497f9722a3daafe3b4186f6b6457e08280a3005b34610471576000366003190112610471576020600754604051908152f35b34610471576020366003190112610471576004356001600160401b03811161047157610df86020610de5610e6f9336906004016115f5565b81604051938285809451938492016117b7565b81016005815203019020610e0b81611700565b9060ff610e1a60018301611700565b610e2660028401611700565b92600381015493600482015460018060a01b0390610e8b826005860154169260068601541693610e7d60086007880154970154976040519c8d9c8d6101409081815201906117da565b8c810360208e0152906117da565b908a820360408c01526117da565b966060890152608088015260a087015260c086015260e0850152818116151561010085015260081c1615156101208301520390f35b34610471576060366003190112610471576004356001600160401b03811161047157610ef09036906004016115f5565b602435604435916040516020818351610f0c81838588016117b7565b8101600581520301902091610f2760ff6008850154166119ce565b60058301546001600160a01b03163303610f9d57610f866040928560047f59e8620b0742a7acf1fa2c6236758d97e05221785068ee1ef79e8dde26cb755f968515801590610f94575b610f7990611813565b85600382015501556119ae565b9382519182526020820152a2005b50821515610f70565b60405162461bcd60e51b815260206004820152601d60248201527f4f6e6c79206f776e65722063616e2075706461746520726f79616c74790000006044820152606490fd5b3461047157604036600319011261047157610ffb61164b565b6001600160a01b03166000908152600660205260409020805460243590811015610471576106b06106b6916106ca936116ae565b34610471576020366003190112610471576001600160a01b0361105061164b565b166000526004602052602060ff604060002054166040519015158152f35b34610471576040366003190112610471576004356001600160401b0381116104715761109e9036906004016115f5565b6024906001600160a01b0390823582811681036104715760405160208184516110ca81838589016117b7565b81016005815203019020926110e560ff6008860154166119ce565b806005850154169182331480156113f1575b156113ad57818116156113755782600052600660205260406000209460005b8654808210156113635761112a82896116ae565b506040519081600082549261113e846116c6565b808452936001811690811561134157506001146112ff575b50611163925003826115d4565b60208151910120875160208901201461119d5750600019811461118857600101611116565b87634e487b7160e01b60005260116004526000fd5b9060009792939495969719918281019081116112ea576111c06111c891856116ae565b5091846116ae565b9190916112d5576111d891611a9b565b815480156112c05701906111ec82826116ae565b6112ab576112459697985061120181546116c6565b908161126c575b5050555b60058383166001600160601b0360a01b828401541617910155818116600052600660205261123e856040600020611981565b16926119ae565b7f6840904f5b31827f74e1497360da245f56e530c8c3de3163a2d31f11493273c6600080a4005b600091601f808211600114611286575050555b8880611208565b916112a484929382845260208420940160051c84016001850161185e565b555561127f565b88634e487b7160e01b60005260006004526000fd5b88634e487b7160e01b60005260316004526000fd5b89634e487b7160e01b60005260006004526000fd5b89634e487b7160e01b60005260116004526000fd5b9150506000526020600020906000915b818310611328575050816020611163928201018d611156565b805460208486018101919091529092019160010161130f565b90506020925061116394915060ff191682840152151560051b8201018d611156565b5050909192945061124593955061120c565b60405162461bcd60e51b8152602060048201526011818801527024b73b30b634b2103732bb9037bbb732b960791b6044820152606490fd5b60405162461bcd60e51b815260206004820152601a818801527f4e6f7420617574686f72697a656420746f207472616e736665720000000000006044820152606490fd5b5033600052600460205260ff604060002054166110f7565b34610471576020366003190112610471576004356001600160401b038111610471576114399036906004016115f5565b604051602081835161144e81838588016117b7565b81016005815203019020600881019081549061146c60ff83166119ce565b60ff8260081c161561150857600501546001600160a01b031633036114c35761ff001916905561149c33916119ae565b7f90770cdbe2af4a141faa5d52bf81d7904916cf199ab0684f8d30cb4b477fae86600080a3005b60405162461bcd60e51b815260206004820152601e60248201527f4f6e6c79206f776e65722063616e2064697361626c6520726f79616c747900006044820152606490fd5b60405162461bcd60e51b815260206004820152601860248201527f526f79616c747920616c72656164792064697361626c656400000000000000006044820152606490fd5b34610471576000366003190112610471576003546040516001600160a01b039091168152602090f35b34610471576000366003190112610471577f00000000000000000000000000000000000000000000000000000000000000006001600160a01b03168152602090f35b61014081019081106001600160401b038211176103c857604052565b90601f801991011681019081106001600160401b038211176103c857604052565b81601f82011215610471578035906001600160401b0382116103c85760405192611629601f8401601f1916602001856115d4565b8284526020838301011161047157816000926020809301838601378301015290565b600435906001600160a01b038216820361047157565b6007548110156116985760076000527fa66cc928b5edb82af9bd49922954155ab7b0942694bea4ce44661d9a8736c6880190600090565b634e487b7160e01b600052603260045260246000fd5b80548210156116985760005260206000200190600090565b90600182811c921680156116f6575b60208310146116e057565b634e487b7160e01b600052602260045260246000fd5b91607f16916116d5565b9060405191826000825492611714846116c6565b9081845260019485811690816000146117835750600114611740575b505061173e925003836115d4565b565b9093915060005260209081600020936000915b81831061176b57505061173e93508201013880611730565b85548884018501529485019487945091830191611753565b91505061173e94506020925060ff191682840152151560051b8201013880611730565b906103b2576117b490611700565b90565b60005b8381106117ca5750506000910152565b81810151838201526020016117ba565b906020916117f3815180928185528580860191016117b7565b601f01601f1916010190565b6000546001600160a01b03163303610c2157565b1561181a57565b606460405162461bcd60e51b815260206004820152602060248201527f4174206c65617374206f6e6520726f79616c7479206d757374206265207365746044820152fd5b818110611869575050565b6000815560010161185e565b9190601f811161188457505050565b61173e926000526020600020906020601f840160051c830193106118b0575b601f0160051c019061185e565b90915081906118a3565b91909182516001600160401b0381116103c8576118e1816118db84546116c6565b84611875565b602080601f831160011461191d575081929394600092611912575b50508160011b916000199060031b1c1916179055565b0151905038806118fc565b90601f198316958460005282600020926000905b88821061196957505083600195969710611950575b505050811b019055565b015160001960f88460031b161c19169055388080611946565b80600185968294968601518155019501930190611931565b8054600160401b8110156103c85761199e916001820181556116ae565b9190916103b25761173e916118ba565b6119c6906020604051928284809451938492016117b7565b810103902090565b156119d557565b60405162461bcd60e51b815260206004820152600f60248201526e105cdcd95d081b9bdd08199bdd5b99608a1b6044820152606490fd5b6020611a259181604051938285809451938492016117b7565b810160058152030190209060ff600883015460081c1615611a4d576004600383015492015490565b600091508190565b6020611a6e9181604051938285809451938492016117b7565b8101600581520301902060ff60088201541615611a9557600501546001600160a01b031690565b50600090565b90808214611b7357611aad81546116c6565b906001600160401b0382116103c8578190611ad282611acc86546116c6565b86611875565b600090601f8311600114611b0857600092611afd5750508160011b916000199060031b1c1916179055565b0154905038806118fc565b81526020808220858352818320935090601f1985169083905b828210611b5a575050908460019594939210611b4157505050811b019055565b015460001960f88460031b161c19169055388080611946565b8495819295850154815560018091019601940190611b21565b505056fea26469706673582212203ba5a7da3649804f59793fbf679def64b99816684e249c8aeda01673a94ef3ae64736f6c63430008140033","opcodes":"PUSH1 0xA0 CALLVALUE PUSH2 0xF8 JUMPI PUSH1 0x1F PUSH2 0x1CC1 CODESIZE DUP2 SWAP1 SUB SWAP2 DUP3 ADD PUSH1 0x1F NOT AND DUP4 ADD SWAP2 PUSH1 0x1 PUSH1 0x1 PUSH1 0x40 SHL SUB DUP4 GT DUP5 DUP5 LT OR PUSH2 0xFD JUMPI DUP1 DUP5 SWAP3 PUSH1 0x20 SWAP5 PUSH1 0x40 MSTORE DUP4 CODECOPY DUP2 ADD SUB SLT PUSH2 0xF8 JUMPI MLOAD PUSH1 0x1 PUSH1 0x1 PUSH1 0xA0 SHL SUB SWAP1 DUP2 DUP2 AND SWAP1 DUP2 SWAP1 SUB PUSH2 0xF8 JUMPI CALLER ISZERO PUSH2 0xDF JUMPI PUSH1 0x1 DUP1 PUSH1 0xA0 SHL SUB NOT DUP1 PUSH1 0x1 SLOAD AND PUSH1 0x1 SSTORE PUSH1 0x0 SLOAD CALLER DUP3 DUP3 AND OR PUSH1 0x0 SSTORE PUSH1 0x40 MLOAD SWAP4 CALLER SWAP2 AND PUSH32 0x8BE0079C531659141344CD1FD0A4F28419497F9722A3DAAFE3B4186F6B6457E0 PUSH1 0x0 DUP1 LOG3 PUSH1 0x1 PUSH1 0x2 SSTORE PUSH1 0xFA PUSH1 0x8 SSTORE PUSH20 0x833589FCD6EDB6E08F4C7C32D4F71B54BDA02913 PUSH1 0x80 MSTORE PUSH1 0x3 SLOAD AND OR PUSH1 0x3 SSTORE PUSH2 0x1BAD SWAP1 DUP2 PUSH2 0x114 DUP3 CODECOPY PUSH1 0x80 MLOAD DUP2 PUSH2 0x1589 ADD MSTORE RETURN JUMPDEST PUSH1 0x40 MLOAD PUSH4 0x1E4FBDF7 PUSH1 0xE0 SHL DUP2 MSTORE PUSH1 0x0 PUSH1 0x4 DUP3 ADD MSTORE PUSH1 0x24 SWAP1 REVERT JUMPDEST PUSH1 0x0 DUP1 REVERT JUMPDEST PUSH4 0x4E487B71 PUSH1 0xE0 SHL PUSH1 0x0 MSTORE PUSH1 0x41 PUSH1 0x4 MSTORE PUSH1 0x24 PUSH1 0x0 REVERT INVALID PUSH1 0x80 DUP1 PUSH1 0x40 MSTORE PUSH1 0x4 CALLDATASIZE LT ISZERO PUSH2 0x13 JUMPI PUSH1 0x0 DUP1 REVERT JUMPDEST PUSH1 0x0 CALLDATALOAD PUSH1 0xE0 SHR SWAP1 DUP2 PUSH4 0x11EAC855 EQ PUSH2 0x1576 JUMPI POP DUP1 PUSH4 0x1663EE03 EQ PUSH2 0x154D JUMPI DUP1 PUSH4 0x1741CFC0 EQ PUSH2 0x1409 JUMPI DUP1 PUSH4 0x2203F8F1 EQ PUSH2 0x106E JUMPI DUP1 PUSH4 0x543A9EB9 EQ PUSH2 0x102F JUMPI DUP1 PUSH4 0x5D483AB9 EQ PUSH2 0xFE2 JUMPI DUP1 PUSH4 0x675BFEC1 EQ PUSH2 0xEC0 JUMPI DUP1 PUSH4 0x6CB3DB25 EQ PUSH2 0xDAD JUMPI DUP1 PUSH4 0x6E07302B EQ PUSH2 0xD8F JUMPI DUP1 PUSH4 0x715018A6 EQ PUSH2 0xD2A JUMPI DUP1 PUSH4 0x765FF061 EQ PUSH2 0xC39 JUMPI DUP1 PUSH4 0x79BA5097 EQ PUSH2 0xBB5 JUMPI DUP1 PUSH4 0x8C5DEFF8 EQ PUSH2 0xB47 JUMPI DUP1 PUSH4 0x8DA5CB5B EQ PUSH2 0xB1E JUMPI DUP1 PUSH4 0xBB09D9B7 EQ PUSH2 0xAEF JUMPI DUP1 PUSH4 0xBBF46B84 EQ PUSH2 0xA96 JUMPI DUP1 PUSH4 0xCD5286D0 EQ PUSH2 0x8AC JUMPI DUP1 PUSH4 0xCDD78CFC EQ PUSH2 0x88E JUMPI DUP1 PUSH4 0xD55A772D EQ PUSH2 0x842 JUMPI DUP1 PUSH4 0xD73792A9 EQ PUSH2 0x825 JUMPI DUP1 PUSH4 0xD9AA187C EQ PUSH2 0x7E2 JUMPI DUP1 PUSH4 0xE24AA37C EQ PUSH2 0x6F7 JUMPI DUP1 PUSH4 0xE30C3978 EQ PUSH2 0x6CE JUMPI DUP1 PUSH4 0xE814D66B EQ PUSH2 0x683 JUMPI DUP1 PUSH4 0xEA608C9C EQ PUSH2 0x527 JUMPI DUP1 PUSH4 0xEDD91367 EQ PUSH2 0x4E1 JUMPI DUP1 PUSH4 0xF2FDE38B EQ PUSH2 0x476 JUMPI PUSH4 0xFF6C0DDE EQ PUSH2 0x153 JUMPI PUSH1 0x0 DUP1 REVERT JUMPDEST CALLVALUE PUSH2 0x471 JUMPI PUSH1 0xA0 CALLDATASIZE PUSH1 0x3 NOT ADD SLT PUSH2 0x471 JUMPI PUSH1 0x1 PUSH1 0x1 PUSH1 0x40 SHL SUB PUSH1 0x4 CALLDATALOAD DUP2 DUP2 GT PUSH2 0x471 JUMPI PUSH2 0x184 SWAP1 CALLDATASIZE SWAP1 PUSH1 0x4 ADD PUSH2 0x15F5 JUMP JUMPDEST SWAP1 PUSH1 0x24 CALLDATALOAD DUP2 DUP2 GT PUSH2 0x471 JUMPI PUSH2 0x19D SWAP1 CALLDATASIZE SWAP1 PUSH1 0x4 ADD PUSH2 0x15F5 JUMP JUMPDEST SWAP1 PUSH1 0x44 CALLDATALOAD SWAP1 DUP2 GT PUSH2 0x471 JUMPI PUSH2 0x1B6 SWAP1 CALLDATASIZE SWAP1 PUSH1 0x4 ADD PUSH2 0x15F5 JUMP JUMPDEST SWAP2 PUSH1 0x64 CALLDATALOAD SWAP2 PUSH1 0x84 CALLDATALOAD DUP3 MLOAD ISZERO PUSH2 0x42C JUMPI DUP4 ISZERO DUP1 ISZERO SWAP1 PUSH2 0x423 JUMPI JUMPDEST PUSH2 0x1D8 SWAP1 PUSH2 0x1813 JUMP JUMPDEST PUSH1 0x40 MLOAD SWAP5 DUP4 MLOAD SWAP2 PUSH1 0xFF PUSH1 0x8 PUSH1 0x20 SWAP9 DUP10 DUP2 DUP2 DUP11 ADD SWAP8 PUSH2 0x1F7 DUP2 DUP4 DUP12 PUSH2 0x17B7 JUMP JUMPDEST DUP2 ADD PUSH1 0x5 DUP2 MSTORE SUB ADD SWAP1 KECCAK256 ADD SLOAD AND PUSH2 0x3DE JUMPI SWAP1 DUP7 SWAP2 PUSH1 0x40 MLOAD SWAP2 PUSH2 0x218 DUP4 PUSH2 0x15B8 JUMP JUMPDEST DUP7 DUP4 MSTORE DUP4 DUP4 ADD SWAP2 DUP7 DUP4 MSTORE PUSH1 0x40 DUP5 ADD SWAP2 DUP3 MSTORE PUSH1 0x60 DUP5 ADD SWAP1 DUP10 DUP3 MSTORE PUSH1 0x80 DUP6 ADD SWAP1 DUP2 MSTORE PUSH1 0xA0 DUP6 ADD SWAP2 CALLER DUP4 MSTORE PUSH1 0xC0 DUP7 ADD SWAP4 CALLER DUP6 MSTORE PUSH1 0xE0 DUP8 ADD SWAP6 TIMESTAMP DUP8 MSTORE PUSH2 0x100 DUP9 ADD SWAP10 PUSH1 0x1 DUP12 MSTORE PUSH2 0x120 DUP10 ADD SWAP10 PUSH1 0x1 DUP12 MSTORE DUP14 PUSH1 0x40 MLOAD DUP1 SWAP4 DUP2 SWAP3 MLOAD DUP1 SWAP3 PUSH2 0x278 SWAP3 PUSH2 0x17B7 JUMP JUMPDEST DUP2 ADD PUSH1 0x5 DUP2 MSTORE SUB ADD SWAP1 KECCAK256 SWAP8 MLOAD PUSH2 0x28E SWAP1 DUP10 PUSH2 0x18BA JUMP JUMPDEST MLOAD PUSH2 0x29C SWAP1 PUSH1 0x1 DUP10 ADD PUSH2 0x18BA JUMP JUMPDEST MLOAD PUSH2 0x2AA SWAP1 PUSH1 0x2 DUP9 ADD PUSH2 0x18BA JUMP JUMPDEST MLOAD PUSH1 0x3 DUP7 ADD SSTORE MLOAD PUSH1 0x4 DUP6 ADD SSTORE MLOAD PUSH1 0x5 DUP5 ADD DUP1 SLOAD PUSH1 0x1 PUSH1 0x1 PUSH1 0xA0 SHL SUB SWAP3 DUP4 AND PUSH1 0x1 PUSH1 0x1 PUSH1 0xA0 SHL SUB NOT SWAP2 DUP3 AND OR SWAP1 SWAP2 SSTORE SWAP2 MLOAD PUSH1 0x6 DUP6 ADD DUP1 SLOAD SWAP2 SWAP1 SWAP3 AND SWAP3 AND SWAP2 SWAP1 SWAP2 OR SWAP1 SSTORE MLOAD PUSH1 0x7 DUP3 ADD SSTORE SWAP2 MLOAD PUSH1 0x8 SWAP1 SWAP3 ADD DUP1 SLOAD PUSH1 0xFF NOT AND SWAP3 ISZERO ISZERO PUSH1 0xFF AND SWAP3 SWAP1 SWAP3 OR DUP3 SSTORE MLOAD ISZERO ISZERO DUP2 SLOAD SWAP1 PUSH1 0x8 SHL PUSH2 0xFF00 AND SWAP1 PUSH2 0xFF00 NOT AND OR SWAP1 SSTORE CALLER PUSH1 0x0 MSTORE PUSH1 0x6 DUP5 MSTORE DUP2 PUSH1 0x40 PUSH1 0x0 KECCAK256 SWAP1 PUSH2 0x339 SWAP2 PUSH2 0x1981 JUMP JUMPDEST PUSH1 0x7 SLOAD PUSH1 0x1 PUSH1 0x40 SHL DUP2 LT ISZERO PUSH2 0x3C8 JUMPI DUP1 PUSH1 0x1 PUSH2 0x358 SWAP3 ADD PUSH1 0x7 SSTORE PUSH2 0x1661 JUMP JUMPDEST PUSH2 0x3B2 JUMPI DUP3 PUSH2 0x38B PUSH32 0x585D38EBCB0FE93CED4D64FBB112388B85B7726E7D87C5142521434D4F122384 SWAP5 PUSH2 0x390 SWAP4 PUSH2 0x18BA JUMP JUMPDEST PUSH2 0x19AE JUMP JUMPDEST SWAP3 PUSH2 0x3A6 PUSH1 0x40 MLOAD SWAP3 PUSH1 0x40 DUP5 MSTORE PUSH1 0x40 DUP5 ADD SWAP1 PUSH2 0x17DA JUMP JUMPDEST SWAP5 DUP3 ADD MSTORE DUP1 CALLER SWAP5 SUB SWAP1 LOG3 STOP JUMPDEST PUSH4 0x4E487B71 PUSH1 0xE0 SHL PUSH1 0x0 MSTORE PUSH1 0x0 PUSH1 0x4 MSTORE PUSH1 0x24 PUSH1 0x0 REVERT JUMPDEST PUSH4 0x4E487B71 PUSH1 0xE0 SHL PUSH1 0x0 MSTORE PUSH1 0x41 PUSH1 0x4 MSTORE PUSH1 0x24 PUSH1 0x0 REVERT JUMPDEST PUSH1 0x40 MLOAD PUSH3 0x461BCD PUSH1 0xE5 SHL DUP2 MSTORE PUSH1 0x4 DUP2 ADD DUP9 SWAP1 MSTORE PUSH1 0x18 PUSH1 0x24 DUP3 ADD MSTORE PUSH32 0x417373657420616C726561647920726567697374657265640000000000000000 PUSH1 0x44 DUP3 ADD MSTORE PUSH1 0x64 SWAP1 REVERT JUMPDEST POP DUP1 ISZERO ISZERO PUSH2 0x1CF JUMP JUMPDEST PUSH1 0x40 MLOAD PUSH3 0x461BCD PUSH1 0xE5 SHL DUP2 MSTORE PUSH1 0x20 PUSH1 0x4 DUP3 ADD MSTORE PUSH1 0x1A PUSH1 0x24 DUP3 ADD MSTORE PUSH32 0x50726F6A6563742049442063616E6E6F7420626520656D707479000000000000 PUSH1 0x44 DUP3 ADD MSTORE PUSH1 0x64 SWAP1 REVERT JUMPDEST PUSH1 0x0 DUP1 REVERT JUMPDEST CALLVALUE PUSH2 0x471 JUMPI PUSH1 0x20 CALLDATASIZE PUSH1 0x3 NOT ADD SLT PUSH2 0x471 JUMPI PUSH2 0x48F PUSH2 0x164B JUMP JUMPDEST PUSH2 0x497 PUSH2 0x17FF JUMP JUMPDEST PUSH1 0x1 DUP1 PUSH1 0xA0 SHL SUB DUP1 SWAP2 AND SWAP1 DUP2 PUSH1 0x1 PUSH1 0x1 PUSH1 0x60 SHL SUB PUSH1 0xA0 SHL PUSH1 0x1 SLOAD AND OR PUSH1 0x1 SSTORE PUSH1 0x0 SLOAD AND PUSH32 0x38D16B8CAC22D99FC7C124B9CD0DE2D3FA1FAEF420BFE791D8C362D765E22700 PUSH1 0x0 DUP1 LOG3 STOP JUMPDEST CALLVALUE PUSH2 0x471 JUMPI PUSH1 0x20 CALLDATASIZE PUSH1 0x3 NOT ADD SLT PUSH2 0x471 JUMPI PUSH1 0x4 CALLDATALOAD PUSH1 0x1 PUSH1 0x1 PUSH1 0x40 SHL SUB DUP2 GT PUSH2 0x471 JUMPI PUSH2 0x51B PUSH2 0x516 PUSH1 0x40 SWAP3 CALLDATASIZE SWAP1 PUSH1 0x4 ADD PUSH2 0x15F5 JUMP JUMPDEST PUSH2 0x1A0C JUMP JUMPDEST DUP3 MLOAD SWAP2 DUP3 MSTORE PUSH1 0x20 DUP3 ADD MSTORE RETURN JUMPDEST CALLVALUE PUSH2 0x471 JUMPI PUSH1 0x20 DUP1 PUSH1 0x3 NOT CALLDATASIZE ADD SLT PUSH2 0x471 JUMPI PUSH1 0x4 CALLDATALOAD PUSH1 0x1 PUSH1 0x1 PUSH1 0x40 SHL SUB DUP2 GT PUSH2 0x471 JUMPI PUSH2 0x558 SWAP1 CALLDATASIZE SWAP1 PUSH1 0x4 ADD PUSH2 0x15F5 JUMP JUMPDEST PUSH1 0x40 MLOAD DUP3 DUP2 DUP4 MLOAD PUSH2 0x56C DUP2 DUP4 DUP6 DUP9 ADD PUSH2 0x17B7 JUMP JUMPDEST DUP2 ADD PUSH1 0x5 DUP2 MSTORE SUB ADD SWAP1 KECCAK256 SWAP1 PUSH1 0x8 DUP3 ADD DUP1 SLOAD PUSH2 0x589 PUSH1 0xFF DUP3 AND PUSH2 0x19CE JUMP JUMPDEST PUSH1 0xFF DUP2 PUSH1 0x8 SHR AND PUSH2 0x63E JUMPI PUSH1 0x5 DUP5 ADD SLOAD PUSH1 0x1 PUSH1 0x1 PUSH1 0xA0 SHL SUB AND CALLER SUB PUSH2 0x5F9 JUMPI SWAP2 PUSH32 0x59E8620B0742A7ACF1FA2C6236758D97E05221785068EE1EF79E8DDE26CB755F SWAP4 SWAP2 PUSH2 0x100 PUSH1 0x40 SWAP5 PUSH2 0xFF00 NOT AND OR SWAP1 SSTORE PUSH2 0x5ED PUSH1 0x4 PUSH1 0x3 DUP5 ADD SLOAD SWAP4 ADD SLOAD SWAP2 PUSH2 0x19AE JUMP JUMPDEST SWAP5 DUP4 MLOAD SWAP3 DUP4 MSTORE DUP3 ADD MSTORE LOG2 STOP JUMPDEST PUSH1 0x40 MLOAD PUSH3 0x461BCD PUSH1 0xE5 SHL DUP2 MSTORE PUSH1 0x4 DUP2 ADD DUP7 SWAP1 MSTORE PUSH1 0x1D PUSH1 0x24 DUP3 ADD MSTORE PUSH32 0x4F6E6C79206F776E65722063616E20656E61626C6520726F79616C7479000000 PUSH1 0x44 DUP3 ADD MSTORE PUSH1 0x64 SWAP1 REVERT JUMPDEST PUSH1 0x40 MLOAD PUSH3 0x461BCD PUSH1 0xE5 SHL DUP2 MSTORE PUSH1 0x4 DUP2 ADD DUP7 SWAP1 MSTORE PUSH1 0x17 PUSH1 0x24 DUP3 ADD MSTORE PUSH32 0x526F79616C747920616C726561647920656E61626C6564000000000000000000 PUSH1 0x44 DUP3 ADD MSTORE PUSH1 0x64 SWAP1 REVERT JUMPDEST CALLVALUE PUSH2 0x471 JUMPI PUSH1 0x20 CALLDATASIZE PUSH1 0x3 NOT ADD SLT PUSH2 0x471 JUMPI PUSH1 0x4 CALLDATALOAD PUSH1 0x7 SLOAD DUP2 LT ISZERO PUSH2 0x471 JUMPI PUSH2 0x6B6 PUSH2 0x6B0 PUSH2 0x6CA SWAP3 PUSH2 0x1661 JUMP JUMPDEST SWAP1 PUSH2 0x17A6 JUMP JUMPDEST PUSH1 0x40 MLOAD SWAP2 DUP3 SWAP2 PUSH1 0x20 DUP4 MSTORE PUSH1 0x20 DUP4 ADD SWAP1 PUSH2 0x17DA JUMP JUMPDEST SUB SWAP1 RETURN JUMPDEST CALLVALUE PUSH2 0x471 JUMPI PUSH1 0x0 CALLDATASIZE PUSH1 0x3 NOT ADD SLT PUSH2 0x471 JUMPI PUSH1 0x1 SLOAD PUSH1 0x40 MLOAD PUSH1 0x1 PUSH1 0x1 PUSH1 0xA0 SHL SUB SWAP1 SWAP2 AND DUP2 MSTORE PUSH1 0x20 SWAP1 RETURN JUMPDEST CALLVALUE PUSH2 0x471 JUMPI PUSH1 0x20 CALLDATASIZE PUSH1 0x3 NOT ADD SLT PUSH2 0x471 JUMPI PUSH1 0x4 CALLDATALOAD PUSH1 0x1 PUSH1 0x1 PUSH1 0x40 SHL SUB DUP2 GT PUSH2 0x471 JUMPI PUSH2 0x727 SWAP1 CALLDATASIZE SWAP1 PUSH1 0x4 ADD PUSH2 0x15F5 JUMP JUMPDEST PUSH1 0x40 MLOAD PUSH1 0x20 DUP2 DUP4 MLOAD PUSH2 0x73C DUP2 DUP4 DUP6 DUP9 ADD PUSH2 0x17B7 JUMP JUMPDEST DUP2 ADD PUSH1 0x5 DUP2 MSTORE SUB ADD SWAP1 KECCAK256 PUSH1 0x8 DUP2 ADD SWAP1 DUP2 SLOAD SWAP1 PUSH2 0x75A PUSH1 0xFF DUP4 AND PUSH2 0x19CE JUMP JUMPDEST PUSH1 0x5 ADD SLOAD PUSH1 0x1 PUSH1 0x1 PUSH1 0xA0 SHL SUB AND CALLER SUB PUSH2 0x7A5 JUMPI PUSH2 0xFFFF NOT AND SWAP1 SSTORE PUSH2 0x77E CALLER SWAP2 PUSH2 0x19AE JUMP JUMPDEST PUSH32 0xB50A82962555CB439C53739EC19C159C2039E25705651A754CAA0857168116E5 PUSH1 0x0 DUP1 LOG3 STOP JUMPDEST PUSH1 0x40 MLOAD PUSH3 0x461BCD PUSH1 0xE5 SHL DUP2 MSTORE PUSH1 0x20 PUSH1 0x4 DUP3 ADD MSTORE PUSH1 0x15 PUSH1 0x24 DUP3 ADD MSTORE PUSH21 0x4F6E6C79206F776E65722063616E2064656C657465 PUSH1 0x58 SHL PUSH1 0x44 DUP3 ADD MSTORE PUSH1 0x64 SWAP1 REVERT JUMPDEST CALLVALUE PUSH2 0x471 JUMPI PUSH1 0x20 CALLDATASIZE PUSH1 0x3 NOT ADD SLT PUSH2 0x471 JUMPI PUSH2 0x7FB PUSH2 0x164B JUMP JUMPDEST PUSH2 0x803 PUSH2 0x17FF JUMP JUMPDEST PUSH1 0x3 DUP1 SLOAD PUSH1 0x1 PUSH1 0x1 PUSH1 0xA0 SHL SUB NOT AND PUSH1 0x1 PUSH1 0x1 PUSH1 0xA0 SHL SUB SWAP3 SWAP1 SWAP3 AND SWAP2 SWAP1 SWAP2 OR SWAP1 SSTORE STOP JUMPDEST CALLVALUE PUSH2 0x471 JUMPI PUSH1 0x0 CALLDATASIZE PUSH1 0x3 NOT ADD SLT PUSH2 0x471 JUMPI PUSH1 0x20 PUSH1 0x40 MLOAD PUSH2 0x2710 DUP2 MSTORE RETURN JUMPDEST CALLVALUE PUSH2 0x471 JUMPI PUSH1 0x20 CALLDATASIZE PUSH1 0x3 NOT ADD SLT PUSH2 0x471 JUMPI PUSH1 0x4 CALLDATALOAD PUSH1 0x1 PUSH1 0x1 PUSH1 0x40 SHL SUB DUP2 GT PUSH2 0x471 JUMPI PUSH2 0x87C PUSH2 0x877 PUSH1 0x20 SWAP3 CALLDATASIZE SWAP1 PUSH1 0x4 ADD PUSH2 0x15F5 JUMP JUMPDEST PUSH2 0x1A55 JUMP JUMPDEST PUSH1 0x40 MLOAD PUSH1 0x1 PUSH1 0x1 PUSH1 0xA0 SHL SUB SWAP1 SWAP2 AND DUP2 MSTORE RETURN JUMPDEST CALLVALUE PUSH2 0x471 JUMPI PUSH1 0x0 CALLDATASIZE PUSH1 0x3 NOT ADD SLT PUSH2 0x471 JUMPI PUSH1 0x20 PUSH1 0x8 SLOAD PUSH1 0x40 MLOAD SWAP1 DUP2 MSTORE RETURN JUMPDEST CALLVALUE PUSH2 0x471 JUMPI PUSH1 0x20 CALLDATASIZE PUSH1 0x3 NOT ADD SLT PUSH2 0x471 JUMPI PUSH1 0x4 CALLDATALOAD PUSH1 0x1 PUSH1 0x1 PUSH1 0x40 SHL SUB DUP2 GT PUSH2 0x471 JUMPI PUSH1 0x20 PUSH2 0x8E1 PUSH2 0x93D SWAP3 CALLDATASIZE SWAP1 PUSH1 0x4 ADD PUSH2 0x15F5 JUMP JUMPDEST PUSH1 0x0 PUSH2 0x120 PUSH1 0x40 MLOAD PUSH2 0x8F2 DUP2 PUSH2 0x15B8 JUMP JUMPDEST PUSH1 0x60 DUP2 MSTORE PUSH1 0x60 DUP6 DUP3 ADD MSTORE PUSH1 0x60 PUSH1 0x40 DUP3 ADD MSTORE DUP3 PUSH1 0x60 DUP3 ADD MSTORE DUP3 PUSH1 0x80 DUP3 ADD MSTORE DUP3 PUSH1 0xA0 DUP3 ADD MSTORE DUP3 PUSH1 0xC0 DUP3 ADD MSTORE DUP3 PUSH1 0xE0 DUP3 ADD MSTORE DUP3 PUSH2 0x100 DUP3 ADD MSTORE ADD MSTORE DUP2 PUSH1 0x40 MLOAD SWAP4 DUP3 DUP6 DUP1 SWAP5 MLOAD SWAP4 DUP5 SWAP3 ADD PUSH2 0x17B7 JUMP JUMPDEST DUP2 ADD PUSH1 0x5 DUP2 MSTORE SUB ADD SWAP1 KECCAK256 PUSH1 0xFF PUSH1 0x8 PUSH1 0x40 MLOAD SWAP3 PUSH2 0x958 DUP5 PUSH2 0x15B8 JUMP JUMPDEST PUSH2 0x961 DUP2 PUSH2 0x1700 JUMP JUMPDEST DUP5 MSTORE PUSH2 0x96F PUSH1 0x1 DUP3 ADD PUSH2 0x1700 JUMP JUMPDEST PUSH1 0x20 DUP6 ADD MSTORE PUSH2 0x980 PUSH1 0x2 DUP3 ADD PUSH2 0x1700 JUMP JUMPDEST PUSH1 0x40 DUP6 ADD MSTORE PUSH1 0x3 DUP2 ADD SLOAD PUSH1 0x60 DUP6 ADD MSTORE PUSH1 0x4 DUP2 ADD SLOAD PUSH1 0x80 DUP6 ADD MSTORE PUSH1 0x1 DUP1 PUSH1 0xA0 SHL SUB PUSH1 0x5 DUP3 ADD SLOAD AND PUSH1 0xA0 DUP6 ADD MSTORE PUSH1 0x1 DUP1 PUSH1 0xA0 SHL SUB PUSH1 0x6 DUP3 ADD SLOAD AND PUSH1 0xC0 DUP6 ADD MSTORE PUSH1 0x7 DUP2 ADD SLOAD PUSH1 0xE0 DUP6 ADD MSTORE ADD SLOAD DUP2 DUP2 AND ISZERO ISZERO PUSH2 0x100 DUP5 ADD MSTORE PUSH1 0x8 SHR AND ISZERO ISZERO PUSH2 0x120 DUP3 ADD MSTORE PUSH1 0x40 MLOAD DUP1 SWAP2 PUSH1 0x20 DUP3 MSTORE PUSH2 0x120 PUSH2 0xA38 PUSH2 0xA07 DUP4 MLOAD PUSH2 0x140 PUSH1 0x20 DUP8 ADD MSTORE PUSH2 0x160 DUP7 ADD SWAP1 PUSH2 0x17DA JUMP JUMPDEST PUSH2 0xA23 PUSH1 0x20 DUP6 ADD MLOAD SWAP2 PUSH1 0x1F NOT SWAP3 DUP4 DUP9 DUP4 SUB ADD PUSH1 0x40 DUP10 ADD MSTORE PUSH2 0x17DA JUMP JUMPDEST SWAP1 PUSH1 0x40 DUP6 ADD MLOAD SWAP1 DUP7 DUP4 SUB ADD PUSH1 0x60 DUP8 ADD MSTORE PUSH2 0x17DA JUMP JUMPDEST SWAP2 PUSH1 0x60 DUP2 ADD MLOAD PUSH1 0x80 DUP6 ADD MSTORE PUSH1 0x80 DUP2 ADD MLOAD PUSH1 0xA0 DUP6 ADD MSTORE PUSH1 0x1 DUP1 PUSH1 0xA0 SHL SUB PUSH1 0xA0 DUP3 ADD MLOAD AND PUSH1 0xC0 DUP6 ADD MSTORE PUSH1 0x1 DUP1 PUSH1 0xA0 SHL SUB PUSH1 0xC0 DUP3 ADD MLOAD AND PUSH1 0xE0 DUP6 ADD MSTORE PUSH1 0xE0 DUP2 ADD MLOAD PUSH2 0x100 DUP6 ADD MSTORE PUSH2 0x100 DUP2 ADD MLOAD ISZERO ISZERO DUP3 DUP6 ADD MSTORE ADD MLOAD ISZERO ISZERO PUSH2 0x140 DUP4 ADD MSTORE SUB SWAP1 RETURN JUMPDEST CALLVALUE PUSH2 0x471 JUMPI PUSH1 0x40 CALLDATASIZE PUSH1 0x3 NOT ADD SLT PUSH2 0x471 JUMPI PUSH2 0xAAF PUSH2 0x164B JUMP JUMPDEST PUSH1 0x24 CALLDATALOAD DUP1 ISZERO ISZERO DUP2 SUB PUSH2 0x471 JUMPI PUSH2 0xAED SWAP2 PUSH2 0xAC7 PUSH2 0x17FF JUMP JUMPDEST PUSH1 0x1 DUP1 PUSH1 0xA0 SHL SUB AND PUSH1 0x0 MSTORE PUSH1 0x4 PUSH1 0x20 MSTORE PUSH1 0x40 PUSH1 0x0 KECCAK256 SWAP1 PUSH1 0xFF DUP1 NOT DUP4 SLOAD AND SWAP2 ISZERO ISZERO AND OR SWAP1 SSTORE JUMP JUMPDEST STOP JUMPDEST CALLVALUE PUSH2 0x471 JUMPI PUSH1 0x0 CALLDATASIZE PUSH1 0x3 NOT ADD SLT PUSH2 0x471 JUMPI PUSH1 0x20 PUSH1 0x40 MLOAD PUSH20 0x833589FCD6EDB6E08F4C7C32D4F71B54BDA02913 DUP2 MSTORE RETURN JUMPDEST CALLVALUE PUSH2 0x471 JUMPI PUSH1 0x0 CALLDATASIZE PUSH1 0x3 NOT ADD SLT PUSH2 0x471 JUMPI PUSH1 0x0 SLOAD PUSH1 0x40 MLOAD PUSH1 0x1 PUSH1 0x1 PUSH1 0xA0 SHL SUB SWAP1 SWAP2 AND DUP2 MSTORE PUSH1 0x20 SWAP1 RETURN JUMPDEST CALLVALUE PUSH2 0x471 JUMPI PUSH1 0x20 CALLDATASIZE PUSH1 0x3 NOT ADD SLT PUSH2 0x471 JUMPI PUSH1 0x4 CALLDATALOAD PUSH1 0x7 SLOAD DUP2 LT ISZERO PUSH2 0xB7A JUMPI PUSH2 0x6B6 PUSH2 0xB74 PUSH2 0x6CA SWAP3 PUSH2 0x1661 JUMP JUMPDEST POP PUSH2 0x1700 JUMP JUMPDEST PUSH1 0x40 MLOAD PUSH3 0x461BCD PUSH1 0xE5 SHL DUP2 MSTORE PUSH1 0x20 PUSH1 0x4 DUP3 ADD MSTORE PUSH1 0x13 PUSH1 0x24 DUP3 ADD MSTORE PUSH19 0x496E646578206F7574206F6620626F756E6473 PUSH1 0x68 SHL PUSH1 0x44 DUP3 ADD MSTORE PUSH1 0x64 SWAP1 REVERT JUMPDEST CALLVALUE PUSH2 0x471 JUMPI PUSH1 0x0 CALLDATASIZE PUSH1 0x3 NOT ADD SLT PUSH2 0x471 JUMPI PUSH1 0x1 SLOAD PUSH1 0x1 PUSH1 0x1 PUSH1 0xA0 SHL SUB CALLER DUP2 DUP4 AND SUB PUSH2 0xC21 JUMPI PUSH1 0x1 PUSH1 0x1 PUSH1 0x60 SHL SUB PUSH1 0xA0 SHL DUP1 SWAP3 AND PUSH1 0x1 SSTORE PUSH1 0x0 SLOAD SWAP2 CALLER SWAP1 DUP4 AND OR PUSH1 0x0 SSTORE CALLER SWAP2 AND PUSH32 0x8BE0079C531659141344CD1FD0A4F28419497F9722A3DAAFE3B4186F6B6457E0 PUSH1 0x0 DUP1 LOG3 STOP JUMPDEST PUSH1 0x40 MLOAD PUSH4 0x118CDAA7 PUSH1 0xE0 SHL DUP2 MSTORE CALLER PUSH1 0x4 DUP3 ADD MSTORE PUSH1 0x24 SWAP1 REVERT JUMPDEST CALLVALUE PUSH2 0x471 JUMPI PUSH1 0x20 DUP1 PUSH1 0x3 NOT CALLDATASIZE ADD SLT PUSH2 0x471 JUMPI PUSH1 0x1 PUSH1 0x1 PUSH1 0xA0 SHL SUB PUSH2 0xC5B PUSH2 0x164B JUMP JUMPDEST AND PUSH1 0x0 MSTORE PUSH1 0x6 DUP2 MSTORE PUSH1 0x40 PUSH1 0x0 KECCAK256 DUP1 SLOAD SWAP1 PUSH1 0x1 PUSH1 0x1 PUSH1 0x40 SHL SUB DUP3 GT PUSH2 0x3C8 JUMPI DUP3 SWAP1 PUSH1 0x40 MLOAD SWAP3 PUSH2 0xC8E DUP4 DUP3 PUSH1 0x5 SHL ADD DUP6 PUSH2 0x15D4 JUMP JUMPDEST DUP1 DUP5 MSTORE DUP3 DUP5 ADD DUP1 SWAP3 PUSH1 0x0 MSTORE DUP4 PUSH1 0x0 KECCAK256 PUSH1 0x0 SWAP2 JUMPDEST DUP4 DUP4 LT PUSH2 0xD08 JUMPI POP POP POP POP PUSH1 0x40 MLOAD SWAP2 DUP1 DUP4 ADD SWAP4 DUP2 DUP5 MSTORE MLOAD DUP1 SWAP5 MSTORE PUSH1 0x40 DUP4 ADD SWAP4 PUSH1 0x40 DUP2 PUSH1 0x5 SHL DUP6 ADD ADD SWAP3 SWAP2 PUSH1 0x0 SWAP6 JUMPDEST DUP3 DUP8 LT PUSH2 0xCDC JUMPI DUP6 DUP6 SUB DUP7 RETURN JUMPDEST SWAP1 SWAP2 SWAP3 SWAP4 DUP3 DUP1 PUSH2 0xCF8 PUSH1 0x1 SWAP4 PUSH1 0x3F NOT DUP11 DUP3 SUB ADD DUP7 MSTORE DUP9 MLOAD PUSH2 0x17DA JUMP JUMPDEST SWAP7 ADD SWAP3 ADD SWAP7 ADD SWAP6 SWAP3 SWAP2 SWAP1 SWAP3 PUSH2 0xCCF JUMP JUMPDEST PUSH1 0x1 DUP7 DUP2 SWAP3 PUSH2 0xD19 DUP6 SWAP11 SWAP10 SWAP11 PUSH2 0x1700 JUMP JUMPDEST DUP2 MSTORE ADD SWAP3 ADD SWAP3 ADD SWAP2 SWAP1 SWAP6 SWAP5 SWAP6 PUSH2 0xCA1 JUMP JUMPDEST CALLVALUE PUSH2 0x471 JUMPI PUSH1 0x0 CALLDATASIZE PUSH1 0x3 NOT ADD SLT PUSH2 0x471 JUMPI PUSH2 0xD43 PUSH2 0x17FF JUMP JUMPDEST PUSH1 0x1 DUP1 SLOAD PUSH1 0x1 PUSH1 0x1 PUSH1 0xA0 SHL SUB NOT SWAP1 DUP2 AND SWAP1 SWAP2 SSTORE PUSH1 0x0 DUP1 SLOAD SWAP2 DUP3 AND DUP2 SSTORE SWAP1 PUSH1 0x1 PUSH1 0x1 PUSH1 0xA0 SHL SUB AND PUSH32 0x8BE0079C531659141344CD1FD0A4F28419497F9722A3DAAFE3B4186F6B6457E0 DUP3 DUP1 LOG3 STOP JUMPDEST CALLVALUE PUSH2 0x471 JUMPI PUSH1 0x0 CALLDATASIZE PUSH1 0x3 NOT ADD SLT PUSH2 0x471 JUMPI PUSH1 0x20 PUSH1 0x7 SLOAD PUSH1 0x40 MLOAD SWAP1 DUP2 MSTORE RETURN JUMPDEST CALLVALUE PUSH2 0x471 JUMPI PUSH1 0x20 CALLDATASIZE PUSH1 0x3 NOT ADD SLT PUSH2 0x471 JUMPI PUSH1 0x4 CALLDATALOAD PUSH1 0x1 PUSH1 0x1 PUSH1 0x40 SHL SUB DUP2 GT PUSH2 0x471 JUMPI PUSH2 0xDF8 PUSH1 0x20 PUSH2 0xDE5 PUSH2 0xE6F SWAP4 CALLDATASIZE SWAP1 PUSH1 0x4 ADD PUSH2 0x15F5 JUMP JUMPDEST DUP2 PUSH1 0x40 MLOAD SWAP4 DUP3 DUP6 DUP1 SWAP5 MLOAD SWAP4 DUP5 SWAP3 ADD PUSH2 0x17B7 JUMP JUMPDEST DUP2 ADD PUSH1 0x5 DUP2 MSTORE SUB ADD SWAP1 KECCAK256 PUSH2 0xE0B DUP2 PUSH2 0x1700 JUMP JUMPDEST SWAP1 PUSH1 0xFF PUSH2 0xE1A PUSH1 0x1 DUP4 ADD PUSH2 0x1700 JUMP JUMPDEST PUSH2 0xE26 PUSH1 0x2 DUP5 ADD PUSH2 0x1700 JUMP JUMPDEST SWAP3 PUSH1 0x3 DUP2 ADD SLOAD SWAP4 PUSH1 0x4 DUP3 ADD SLOAD PUSH1 0x1 DUP1 PUSH1 0xA0 SHL SUB SWAP1 PUSH2 0xE8B DUP3 PUSH1 0x5 DUP7 ADD SLOAD AND SWAP3 PUSH1 0x6 DUP7 ADD SLOAD AND SWAP4 PUSH2 0xE7D PUSH1 0x8 PUSH1 0x7 DUP9 ADD SLOAD SWAP8 ADD SLOAD SWAP8 PUSH1 0x40 MLOAD SWAP13 DUP14 SWAP13 DUP14 PUSH2 0x140 SWAP1 DUP2 DUP2 MSTORE ADD SWAP1 PUSH2 0x17DA JUMP JUMPDEST DUP13 DUP2 SUB PUSH1 0x20 DUP15 ADD MSTORE SWAP1 PUSH2 0x17DA JUMP JUMPDEST SWAP1 DUP11 DUP3 SUB PUSH1 0x40 DUP13 ADD MSTORE PUSH2 0x17DA JUMP JUMPDEST SWAP7 PUSH1 0x60 DUP10 ADD MSTORE PUSH1 0x80 DUP9 ADD MSTORE PUSH1 0xA0 DUP8 ADD MSTORE PUSH1 0xC0 DUP7 ADD MSTORE PUSH1 0xE0 DUP6 ADD MSTORE DUP2 DUP2 AND ISZERO ISZERO PUSH2 0x100 DUP6 ADD MSTORE PUSH1 0x8 SHR AND ISZERO ISZERO PUSH2 0x120 DUP4 ADD MSTORE SUB SWAP1 RETURN JUMPDEST CALLVALUE PUSH2 0x471 JUMPI PUSH1 0x60 CALLDATASIZE PUSH1 0x3 NOT ADD SLT PUSH2 0x471 JUMPI PUSH1 0x4 CALLDATALOAD PUSH1 0x1 PUSH1 0x1 PUSH1 0x40 SHL SUB DUP2 GT PUSH2 0x471 JUMPI PUSH2 0xEF0 SWAP1 CALLDATASIZE SWAP1 PUSH1 0x4 ADD PUSH2 0x15F5 JUMP JUMPDEST PUSH1 0x24 CALLDATALOAD PUSH1 0x44 CALLDATALOAD SWAP2 PUSH1 0x40 MLOAD PUSH1 0x20 DUP2 DUP4 MLOAD PUSH2 0xF0C DUP2 DUP4 DUP6 DUP9 ADD PUSH2 0x17B7 JUMP JUMPDEST DUP2 ADD PUSH1 0x5 DUP2 MSTORE SUB ADD SWAP1 KECCAK256 SWAP2 PUSH2 0xF27 PUSH1 0xFF PUSH1 0x8 DUP6 ADD SLOAD AND PUSH2 0x19CE JUMP JUMPDEST PUSH1 0x5 DUP4 ADD SLOAD PUSH1 0x1 PUSH1 0x1 PUSH1 0xA0 SHL SUB AND CALLER SUB PUSH2 0xF9D JUMPI PUSH2 0xF86 PUSH1 0x40 SWAP3 DUP6 PUSH1 0x4 PUSH32 0x59E8620B0742A7ACF1FA2C6236758D97E05221785068EE1EF79E8DDE26CB755F SWAP7 DUP6 ISZERO DUP1 ISZERO SWAP1 PUSH2 0xF94 JUMPI JUMPDEST PUSH2 0xF79 SWAP1 PUSH2 0x1813 JUMP JUMPDEST DUP6 PUSH1 0x3 DUP3 ADD SSTORE ADD SSTORE PUSH2 0x19AE JUMP JUMPDEST SWAP4 DUP3 MLOAD SWAP2 DUP3 MSTORE PUSH1 0x20 DUP3 ADD MSTORE LOG2 STOP JUMPDEST POP DUP3 ISZERO ISZERO PUSH2 0xF70 JUMP JUMPDEST PUSH1 0x40 MLOAD PUSH3 0x461BCD PUSH1 0xE5 SHL DUP2 MSTORE PUSH1 0x20 PUSH1 0x4 DUP3 ADD MSTORE PUSH1 0x1D PUSH1 0x24 DUP3 ADD MSTORE PUSH32 0x4F6E6C79206F776E65722063616E2075706461746520726F79616C7479000000 PUSH1 0x44 DUP3 ADD MSTORE PUSH1 0x64 SWAP1 REVERT JUMPDEST CALLVALUE PUSH2 0x471 JUMPI PUSH1 0x40 CALLDATASIZE PUSH1 0x3 NOT ADD SLT PUSH2 0x471 JUMPI PUSH2 0xFFB PUSH2 0x164B JUMP JUMPDEST PUSH1 0x1 PUSH1 0x1 PUSH1 0xA0 SHL SUB AND PUSH1 0x0 SWAP1 DUP2 MSTORE PUSH1 0x6 PUSH1 0x20 MSTORE PUSH1 0x40 SWAP1 KECCAK256 DUP1 SLOAD PUSH1 0x24 CALLDATALOAD SWAP1 DUP2 LT ISZERO PUSH2 0x471 JUMPI PUSH2 0x6B0 PUSH2 0x6B6 SWAP2 PUSH2 0x6CA SWAP4 PUSH2 0x16AE JUMP JUMPDEST CALLVALUE PUSH2 0x471 JUMPI PUSH1 0x20 CALLDATASIZE PUSH1 0x3 NOT ADD SLT PUSH2 0x471 JUMPI PUSH1 0x1 PUSH1 0x1 PUSH1 0xA0 SHL SUB PUSH2 0x1050 PUSH2 0x164B JUMP JUMPDEST AND PUSH1 0x0 MSTORE PUSH1 0x4 PUSH1 0x20 MSTORE PUSH1 0x20 PUSH1 0xFF PUSH1 0x40 PUSH1 0x0 KECCAK256 SLOAD AND PUSH1 0x40 MLOAD SWAP1 ISZERO ISZERO DUP2 MSTORE RETURN JUMPDEST CALLVALUE PUSH2 0x471 JUMPI PUSH1 0x40 CALLDATASIZE PUSH1 0x3 NOT ADD SLT PUSH2 0x471 JUMPI PUSH1 0x4 CALLDATALOAD PUSH1 0x1 PUSH1 0x1 PUSH1 0x40 SHL SUB DUP2 GT PUSH2 0x471 JUMPI PUSH2 0x109E SWAP1 CALLDATASIZE SWAP1 PUSH1 0x4 ADD PUSH2 0x15F5 JUMP JUMPDEST PUSH1 0x24 SWAP1 PUSH1 0x1 PUSH1 0x1 PUSH1 0xA0 SHL SUB SWAP1 DUP3 CALLDATALOAD DUP3 DUP2 AND DUP2 SUB PUSH2 0x471 JUMPI PUSH1 0x40 MLOAD PUSH1 0x20 DUP2 DUP5 MLOAD PUSH2 0x10CA DUP2 DUP4 DUP6 DUP10 ADD PUSH2 0x17B7 JUMP JUMPDEST DUP2 ADD PUSH1 0x5 DUP2 MSTORE SUB ADD SWAP1 KECCAK256 SWAP3 PUSH2 0x10E5 PUSH1 0xFF PUSH1 0x8 DUP7 ADD SLOAD AND PUSH2 0x19CE JUMP JUMPDEST DUP1 PUSH1 0x5 DUP6 ADD SLOAD AND SWAP2 DUP3 CALLER EQ DUP1 ISZERO PUSH2 0x13F1 JUMPI JUMPDEST ISZERO PUSH2 0x13AD JUMPI DUP2 DUP2 AND ISZERO PUSH2 0x1375 JUMPI DUP3 PUSH1 0x0 MSTORE PUSH1 0x6 PUSH1 0x20 MSTORE PUSH1 0x40 PUSH1 0x0 KECCAK256 SWAP5 PUSH1 0x0 JUMPDEST DUP7 SLOAD DUP1 DUP3 LT ISZERO PUSH2 0x1363 JUMPI PUSH2 0x112A DUP3 DUP10 PUSH2 0x16AE JUMP JUMPDEST POP PUSH1 0x40 MLOAD SWAP1 DUP2 PUSH1 0x0 DUP3 SLOAD SWAP3 PUSH2 0x113E DUP5 PUSH2 0x16C6 JUMP JUMPDEST DUP1 DUP5 MSTORE SWAP4 PUSH1 0x1 DUP2 AND SWAP1 DUP2 ISZERO PUSH2 0x1341 JUMPI POP PUSH1 0x1 EQ PUSH2 0x12FF JUMPI JUMPDEST POP PUSH2 0x1163 SWAP3 POP SUB DUP3 PUSH2 0x15D4 JUMP JUMPDEST PUSH1 0x20 DUP2 MLOAD SWAP2 ADD KECCAK256 DUP8 MLOAD PUSH1 0x20 DUP10 ADD KECCAK256 EQ PUSH2 0x119D JUMPI POP PUSH1 0x0 NOT DUP2 EQ PUSH2 0x1188 JUMPI PUSH1 0x1 ADD PUSH2 0x1116 JUMP JUMPDEST DUP8 PUSH4 0x4E487B71 PUSH1 0xE0 SHL PUSH1 0x0 MSTORE PUSH1 0x11 PUSH1 0x4 MSTORE PUSH1 0x0 REVERT JUMPDEST SWAP1 PUSH1 0x0 SWAP8 SWAP3 SWAP4 SWAP5 SWAP6 SWAP7 SWAP8 NOT SWAP2 DUP3 DUP2 ADD SWAP1 DUP2 GT PUSH2 0x12EA JUMPI PUSH2 0x11C0 PUSH2 0x11C8 SWAP2 DUP6 PUSH2 0x16AE JUMP JUMPDEST POP SWAP2 DUP5 PUSH2 0x16AE JUMP JUMPDEST SWAP2 SWAP1 SWAP2 PUSH2 0x12D5 JUMPI PUSH2 0x11D8 SWAP2 PUSH2 0x1A9B JUMP JUMPDEST DUP2 SLOAD DUP1 ISZERO PUSH2 0x12C0 JUMPI ADD SWAP1 PUSH2 0x11EC DUP3 DUP3 PUSH2 0x16AE JUMP JUMPDEST PUSH2 0x12AB JUMPI PUSH2 0x1245 SWAP7 SWAP8 SWAP9 POP PUSH2 0x1201 DUP2 SLOAD PUSH2 0x16C6 JUMP JUMPDEST SWAP1 DUP2 PUSH2 0x126C JUMPI JUMPDEST POP POP SSTORE JUMPDEST PUSH1 0x5 DUP4 DUP4 AND PUSH1 0x1 PUSH1 0x1 PUSH1 0x60 SHL SUB PUSH1 0xA0 SHL DUP3 DUP5 ADD SLOAD AND OR SWAP2 ADD SSTORE DUP2 DUP2 AND PUSH1 0x0 MSTORE PUSH1 0x6 PUSH1 0x20 MSTORE PUSH2 0x123E DUP6 PUSH1 0x40 PUSH1 0x0 KECCAK256 PUSH2 0x1981 JUMP JUMPDEST AND SWAP3 PUSH2 0x19AE JUMP JUMPDEST PUSH32 0x6840904F5B31827F74E1497360DA245F56E530C8C3DE3163A2D31F11493273C6 PUSH1 0x0 DUP1 LOG4 STOP JUMPDEST PUSH1 0x0 SWAP2 PUSH1 0x1F DUP1 DUP3 GT PUSH1 0x1 EQ PUSH2 0x1286 JUMPI POP POP SSTORE JUMPDEST DUP9 DUP1 PUSH2 0x1208 JUMP JUMPDEST SWAP2 PUSH2 0x12A4 DUP5 SWAP3 SWAP4 DUP3 DUP5 MSTORE PUSH1 0x20 DUP5 KECCAK256 SWAP5 ADD PUSH1 0x5 SHR DUP5 ADD PUSH1 0x1 DUP6 ADD PUSH2 0x185E JUMP JUMPDEST SSTORE SSTORE PUSH2 0x127F JUMP JUMPDEST DUP9 PUSH4 0x4E487B71 PUSH1 0xE0 SHL PUSH1 0x0 MSTORE PUSH1 0x0 PUSH1 0x4 MSTORE PUSH1 0x0 REVERT JUMPDEST DUP9 PUSH4 0x4E487B71 PUSH1 0xE0 SHL PUSH1 0x0 MSTORE PUSH1 0x31 PUSH1 0x4 MSTORE PUSH1 0x0 REVERT JUMPDEST DUP10 PUSH4 0x4E487B71 PUSH1 0xE0 SHL PUSH1 0x0 MSTORE PUSH1 0x0 PUSH1 0x4 MSTORE PUSH1 0x0 REVERT JUMPDEST DUP10 PUSH4 0x4E487B71 PUSH1 0xE0 SHL PUSH1 0x0 MSTORE PUSH1 0x11 PUSH1 0x4 MSTORE PUSH1 0x0 REVERT JUMPDEST SWAP2 POP POP PUSH1 0x0 MSTORE PUSH1 0x20 PUSH1 0x0 KECCAK256 SWAP1 PUSH1 0x0 SWAP2 JUMPDEST DUP2 DUP4 LT PUSH2 0x1328 JUMPI POP POP DUP2 PUSH1 0x20 PUSH2 0x1163 SWAP3 DUP3 ADD ADD DUP14 PUSH2 0x1156 JUMP JUMPDEST DUP1 SLOAD PUSH1 0x20 DUP5 DUP7 ADD DUP2 ADD SWAP2 SWAP1 SWAP2 MSTORE SWAP1 SWAP3 ADD SWAP2 PUSH1 0x1 ADD PUSH2 0x130F JUMP JUMPDEST SWAP1 POP PUSH1 0x20 SWAP3 POP PUSH2 0x1163 SWAP5 SWAP2 POP PUSH1 0xFF NOT AND DUP3 DUP5 ADD MSTORE ISZERO ISZERO PUSH1 0x5 SHL DUP3 ADD ADD DUP14 PUSH2 0x1156 JUMP JUMPDEST POP POP SWAP1 SWAP2 SWAP3 SWAP5 POP PUSH2 0x1245 SWAP4 SWAP6 POP PUSH2 0x120C JUMP JUMPDEST PUSH1 0x40 MLOAD PUSH3 0x461BCD PUSH1 0xE5 SHL DUP2 MSTORE PUSH1 0x20 PUSH1 0x4 DUP3 ADD MSTORE PUSH1 0x11 DUP2 DUP9 ADD MSTORE PUSH17 0x24B73B30B634B2103732BB9037BBB732B9 PUSH1 0x79 SHL PUSH1 0x44 DUP3 ADD MSTORE PUSH1 0x64 SWAP1 REVERT JUMPDEST PUSH1 0x40 MLOAD PUSH3 0x461BCD PUSH1 0xE5 SHL DUP2 MSTORE PUSH1 0x20 PUSH1 0x4 DUP3 ADD MSTORE PUSH1 0x1A DUP2 DUP9 ADD MSTORE PUSH32 0x4E6F7420617574686F72697A656420746F207472616E73666572000000000000 PUSH1 0x44 DUP3 ADD MSTORE PUSH1 0x64 SWAP1 REVERT JUMPDEST POP CALLER PUSH1 0x0 MSTORE PUSH1 0x4 PUSH1 0x20 MSTORE PUSH1 0xFF PUSH1 0x40 PUSH1 0x0 KECCAK256 SLOAD AND PUSH2 0x10F7 JUMP JUMPDEST CALLVALUE PUSH2 0x471 JUMPI PUSH1 0x20 CALLDATASIZE PUSH1 0x3 NOT ADD SLT PUSH2 0x471 JUMPI PUSH1 0x4 CALLDATALOAD PUSH1 0x1 PUSH1 0x1 PUSH1 0x40 SHL SUB DUP2 GT PUSH2 0x471 JUMPI PUSH2 0x1439 SWAP1 CALLDATASIZE SWAP1 PUSH1 0x4 ADD PUSH2 0x15F5 JUMP JUMPDEST PUSH1 0x40 MLOAD PUSH1 0x20 DUP2 DUP4 MLOAD PUSH2 0x144E DUP2 DUP4 DUP6 DUP9 ADD PUSH2 0x17B7 JUMP JUMPDEST DUP2 ADD PUSH1 0x5 DUP2 MSTORE SUB ADD SWAP1 KECCAK256 PUSH1 0x8 DUP2 ADD SWAP1 DUP2 SLOAD SWAP1 PUSH2 0x146C PUSH1 0xFF DUP4 AND PUSH2 0x19CE JUMP JUMPDEST PUSH1 0xFF DUP3 PUSH1 0x8 SHR AND ISZERO PUSH2 0x1508 JUMPI PUSH1 0x5 ADD SLOAD PUSH1 0x1 PUSH1 0x1 PUSH1 0xA0 SHL SUB AND CALLER SUB PUSH2 0x14C3 JUMPI PUSH2 0xFF00 NOT AND SWAP1 SSTORE PUSH2 0x149C CALLER SWAP2 PUSH2 0x19AE JUMP JUMPDEST PUSH32 0x90770CDBE2AF4A141FAA5D52BF81D7904916CF199AB0684F8D30CB4B477FAE86 PUSH1 0x0 DUP1 LOG3 STOP JUMPDEST PUSH1 0x40 MLOAD PUSH3 0x461BCD PUSH1 0xE5 SHL DUP2 MSTORE PUSH1 0x20 PUSH1 0x4 DUP3 ADD MSTORE PUSH1 0x1E PUSH1 0x24 DUP3 ADD MSTORE PUSH32 0x4F6E6C79206F776E65722063616E2064697361626C6520726F79616C74790000 PUSH1 0x44 DUP3 ADD MSTORE PUSH1 0x64 SWAP1 REVERT JUMPDEST PUSH1 0x40 MLOAD PUSH3 0x461BCD PUSH1 0xE5 SHL DUP2 MSTORE PUSH1 0x20 PUSH1 0x4 DUP3 ADD MSTORE PUSH1 0x18 PUSH1 0x24 DUP3 ADD MSTORE PUSH32 0x526F79616C747920616C72656164792064697361626C65640000000000000000 PUSH1 0x44 DUP3 ADD MSTORE PUSH1 0x64 SWAP1 REVERT JUMPDEST CALLVALUE PUSH2 0x471 JUMPI PUSH1 0x0 CALLDATASIZE PUSH1 0x3 NOT ADD SLT PUSH2 0x471 JUMPI PUSH1 0x3 SLOAD PUSH1 0x40 MLOAD PUSH1 0x1 PUSH1 0x1 PUSH1 0xA0 SHL SUB SWAP1 SWAP2 AND DUP2 MSTORE PUSH1 0x20 SWAP1 RETURN JUMPDEST CALLVALUE PUSH2 0x471 JUMPI PUSH1 0x0 CALLDATASIZE PUSH1 0x3 NOT ADD SLT PUSH2 0x471 JUMPI PUSH32 0x0 PUSH1 0x1 PUSH1 0x1 PUSH1 0xA0 SHL SUB AND DUP2 MSTORE PUSH1 0x20 SWAP1 RETURN JUMPDEST PUSH2 0x140 DUP2 ADD SWAP1 DUP2 LT PUSH1 0x1 PUSH1 0x1 PUSH1 0x40 SHL SUB DUP3 GT OR PUSH2 0x3C8 JUMPI PUSH1 0x40 MSTORE JUMP JUMPDEST SWAP1 PUSH1 0x1F DUP1 NOT SWAP2 ADD AND DUP2 ADD SWAP1 DUP2 LT PUSH1 0x1 PUSH1 0x1 PUSH1 0x40 SHL SUB DUP3 GT OR PUSH2 0x3C8 JUMPI PUSH1 0x40 MSTORE JUMP JUMPDEST DUP2 PUSH1 0x1F DUP3 ADD SLT ISZERO PUSH2 0x471 JUMPI DUP1 CALLDATALOAD SWAP1 PUSH1 0x1 PUSH1 0x1 PUSH1 0x40 SHL SUB DUP3 GT PUSH2 0x3C8 JUMPI PUSH1 0x40 MLOAD SWAP3 PUSH2 0x1629 PUSH1 0x1F DUP5 ADD PUSH1 0x1F NOT AND PUSH1 0x20 ADD DUP6 PUSH2 0x15D4 JUMP JUMPDEST DUP3 DUP5 MSTORE PUSH1 0x20 DUP4 DUP4 ADD ADD GT PUSH2 0x471 JUMPI DUP2 PUSH1 0x0 SWAP3 PUSH1 0x20 DUP1 SWAP4 ADD DUP4 DUP7 ADD CALLDATACOPY DUP4 ADD ADD MSTORE SWAP1 JUMP JUMPDEST PUSH1 0x4 CALLDATALOAD SWAP1 PUSH1 0x1 PUSH1 0x1 PUSH1 0xA0 SHL SUB DUP3 AND DUP3 SUB PUSH2 0x471 JUMPI JUMP JUMPDEST PUSH1 0x7 SLOAD DUP2 LT ISZERO PUSH2 0x1698 JUMPI PUSH1 0x7 PUSH1 0x0 MSTORE PUSH32 0xA66CC928B5EDB82AF9BD49922954155AB7B0942694BEA4CE44661D9A8736C688 ADD SWAP1 PUSH1 0x0 SWAP1 JUMP JUMPDEST PUSH4 0x4E487B71 PUSH1 0xE0 SHL PUSH1 0x0 MSTORE PUSH1 0x32 PUSH1 0x4 MSTORE PUSH1 0x24 PUSH1 0x0 REVERT JUMPDEST DUP1 SLOAD DUP3 LT ISZERO PUSH2 0x1698 JUMPI PUSH1 0x0 MSTORE PUSH1 0x20 PUSH1 0x0 KECCAK256 ADD SWAP1 PUSH1 0x0 SWAP1 JUMP JUMPDEST SWAP1 PUSH1 0x1 DUP3 DUP2 SHR SWAP3 AND DUP1 ISZERO PUSH2 0x16F6 JUMPI JUMPDEST PUSH1 0x20 DUP4 LT EQ PUSH2 0x16E0 JUMPI JUMP JUMPDEST PUSH4 0x4E487B71 PUSH1 0xE0 SHL PUSH1 0x0 MSTORE PUSH1 0x22 PUSH1 0x4 MSTORE PUSH1 0x24 PUSH1 0x0 REVERT JUMPDEST SWAP2 PUSH1 0x7F AND SWAP2 PUSH2 0x16D5 JUMP JUMPDEST SWAP1 PUSH1 0x40 MLOAD SWAP2 DUP3 PUSH1 0x0 DUP3 SLOAD SWAP3 PUSH2 0x1714 DUP5 PUSH2 0x16C6 JUMP JUMPDEST SWAP1 DUP2 DUP5 MSTORE PUSH1 0x1 SWAP5 DUP6 DUP2 AND SWAP1 DUP2 PUSH1 0x0 EQ PUSH2 0x1783 JUMPI POP PUSH1 0x1 EQ PUSH2 0x1740 JUMPI JUMPDEST POP POP PUSH2 0x173E SWAP3 POP SUB DUP4 PUSH2 0x15D4 JUMP JUMPDEST JUMP JUMPDEST SWAP1 SWAP4 SWAP2 POP PUSH1 0x0 MSTORE PUSH1 0x20 SWAP1 DUP2 PUSH1 0x0 KECCAK256 SWAP4 PUSH1 0x0 SWAP2 JUMPDEST DUP2 DUP4 LT PUSH2 0x176B JUMPI POP POP PUSH2 0x173E SWAP4 POP DUP3 ADD ADD CODESIZE DUP1 PUSH2 0x1730 JUMP JUMPDEST DUP6 SLOAD DUP9 DUP5 ADD DUP6 ADD MSTORE SWAP5 DUP6 ADD SWAP5 DUP8 SWAP5 POP SWAP2 DUP4 ADD SWAP2 PUSH2 0x1753 JUMP JUMPDEST SWAP2 POP POP PUSH2 0x173E SWAP5 POP PUSH1 0x20 SWAP3 POP PUSH1 0xFF NOT AND DUP3 DUP5 ADD MSTORE ISZERO ISZERO PUSH1 0x5 SHL DUP3 ADD ADD CODESIZE DUP1 PUSH2 0x1730 JUMP JUMPDEST SWAP1 PUSH2 0x3B2 JUMPI PUSH2 0x17B4 SWAP1 PUSH2 0x1700 JUMP JUMPDEST SWAP1 JUMP JUMPDEST PUSH1 0x0 JUMPDEST DUP4 DUP2 LT PUSH2 0x17CA JUMPI POP POP PUSH1 0x0 SWAP2 ADD MSTORE JUMP JUMPDEST DUP2 DUP2 ADD MLOAD DUP4 DUP3 ADD MSTORE PUSH1 0x20 ADD PUSH2 0x17BA JUMP JUMPDEST SWAP1 PUSH1 0x20 SWAP2 PUSH2 0x17F3 DUP2 MLOAD DUP1 SWAP3 DUP2 DUP6 MSTORE DUP6 DUP1 DUP7 ADD SWAP2 ADD PUSH2 0x17B7 JUMP JUMPDEST PUSH1 0x1F ADD PUSH1 0x1F NOT AND ADD ADD SWAP1 JUMP JUMPDEST PUSH1 0x0 SLOAD PUSH1 0x1 PUSH1 0x1 PUSH1 0xA0 SHL SUB AND CALLER SUB PUSH2 0xC21 JUMPI JUMP JUMPDEST ISZERO PUSH2 0x181A JUMPI JUMP JUMPDEST PUSH1 0x64 PUSH1 0x40 MLOAD PUSH3 0x461BCD PUSH1 0xE5 SHL DUP2 MSTORE PUSH1 0x20 PUSH1 0x4 DUP3 ADD MSTORE PUSH1 0x20 PUSH1 0x24 DUP3 ADD MSTORE PUSH32 0x4174206C65617374206F6E6520726F79616C7479206D75737420626520736574 PUSH1 0x44 DUP3 ADD MSTORE REVERT JUMPDEST DUP2 DUP2 LT PUSH2 0x1869 JUMPI POP POP JUMP JUMPDEST PUSH1 0x0 DUP2 SSTORE PUSH1 0x1 ADD PUSH2 0x185E JUMP JUMPDEST SWAP2 SWAP1 PUSH1 0x1F DUP2 GT PUSH2 0x1884 JUMPI POP POP POP JUMP JUMPDEST PUSH2 0x173E SWAP3 PUSH1 0x0 MSTORE PUSH1 0x20 PUSH1 0x0 KECCAK256 SWAP1 PUSH1 0x20 PUSH1 0x1F DUP5 ADD PUSH1 0x5 SHR DUP4 ADD SWAP4 LT PUSH2 0x18B0 JUMPI JUMPDEST PUSH1 0x1F ADD PUSH1 0x5 SHR ADD SWAP1 PUSH2 0x185E JUMP JUMPDEST SWAP1 SWAP2 POP DUP2 SWAP1 PUSH2 0x18A3 JUMP JUMPDEST SWAP2 SWAP1 SWAP2 DUP3 MLOAD PUSH1 0x1 PUSH1 0x1 PUSH1 0x40 SHL SUB DUP2 GT PUSH2 0x3C8 JUMPI PUSH2 0x18E1 DUP2 PUSH2 0x18DB DUP5 SLOAD PUSH2 0x16C6 JUMP JUMPDEST DUP5 PUSH2 0x1875 JUMP JUMPDEST PUSH1 0x20 DUP1 PUSH1 0x1F DUP4 GT PUSH1 0x1 EQ PUSH2 0x191D JUMPI POP DUP2 SWAP3 SWAP4 SWAP5 PUSH1 0x0 SWAP3 PUSH2 0x1912 JUMPI JUMPDEST POP POP DUP2 PUSH1 0x1 SHL SWAP2 PUSH1 0x0 NOT SWAP1 PUSH1 0x3 SHL SHR NOT AND OR SWAP1 SSTORE JUMP JUMPDEST ADD MLOAD SWAP1 POP CODESIZE DUP1 PUSH2 0x18FC JUMP JUMPDEST SWAP1 PUSH1 0x1F NOT DUP4 AND SWAP6 DUP5 PUSH1 0x0 MSTORE DUP3 PUSH1 0x0 KECCAK256 SWAP3 PUSH1 0x0 SWAP1 JUMPDEST DUP9 DUP3 LT PUSH2 0x1969 JUMPI POP POP DUP4 PUSH1 0x1 SWAP6 SWAP7 SWAP8 LT PUSH2 0x1950 JUMPI JUMPDEST POP POP POP DUP2 SHL ADD SWAP1 SSTORE JUMP JUMPDEST ADD MLOAD PUSH1 0x0 NOT PUSH1 0xF8 DUP5 PUSH1 0x3 SHL AND SHR NOT AND SWAP1 SSTORE CODESIZE DUP1 DUP1 PUSH2 0x1946 JUMP JUMPDEST DUP1 PUSH1 0x1 DUP6 SWAP7 DUP3 SWAP5 SWAP7 DUP7 ADD MLOAD DUP2 SSTORE ADD SWAP6 ADD SWAP4 ADD SWAP1 PUSH2 0x1931 JUMP JUMPDEST DUP1 SLOAD PUSH1 0x1 PUSH1 0x40 SHL DUP2 LT ISZERO PUSH2 0x3C8 JUMPI PUSH2 0x199E SWAP2 PUSH1 0x1 DUP3 ADD DUP2 SSTORE PUSH2 0x16AE JUMP JUMPDEST SWAP2 SWAP1 SWAP2 PUSH2 0x3B2 JUMPI PUSH2 0x173E SWAP2 PUSH2 0x18BA JUMP JUMPDEST PUSH2 0x19C6 SWAP1 PUSH1 0x20 PUSH1 0x40 MLOAD SWAP3 DUP3 DUP5 DUP1 SWAP5 MLOAD SWAP4 DUP5 SWAP3 ADD PUSH2 0x17B7 JUMP JUMPDEST DUP2 ADD SUB SWAP1 KECCAK256 SWAP1 JUMP JUMPDEST ISZERO PUSH2 0x19D5 JUMPI JUMP JUMPDEST PUSH1 0x40 MLOAD PUSH3 0x461BCD PUSH1 0xE5 SHL DUP2 MSTORE PUSH1 0x20 PUSH1 0x4 DUP3 ADD MSTORE PUSH1 0xF PUSH1 0x24 DUP3 ADD MSTORE PUSH15 0x105CDCD95D081B9BDD08199BDD5B99 PUSH1 0x8A SHL PUSH1 0x44 DUP3 ADD MSTORE PUSH1 0x64 SWAP1 REVERT JUMPDEST PUSH1 0x20 PUSH2 0x1A25 SWAP2 DUP2 PUSH1 0x40 MLOAD SWAP4 DUP3 DUP6 DUP1 SWAP5 MLOAD SWAP4 DUP5 SWAP3 ADD PUSH2 0x17B7 JUMP JUMPDEST DUP2 ADD PUSH1 0x5 DUP2 MSTORE SUB ADD SWAP1 KECCAK256 SWAP1 PUSH1 0xFF PUSH1 0x8 DUP4 ADD SLOAD PUSH1 0x8 SHR AND ISZERO PUSH2 0x1A4D JUMPI PUSH1 0x4 PUSH1 0x3 DUP4 ADD SLOAD SWAP3 ADD SLOAD SWAP1 JUMP JUMPDEST PUSH1 0x0 SWAP2 POP DUP2 SWAP1 JUMP JUMPDEST PUSH1 0x20 PUSH2 0x1A6E SWAP2 DUP2 PUSH1 0x40 MLOAD SWAP4 DUP3 DUP6 DUP1 SWAP5 MLOAD SWAP4 DUP5 SWAP3 ADD PUSH2 0x17B7 JUMP JUMPDEST DUP2 ADD PUSH1 0x5 DUP2 MSTORE SUB ADD SWAP1 KECCAK256 PUSH1 0xFF PUSH1 0x8 DUP3 ADD SLOAD AND ISZERO PUSH2 0x1A95 JUMPI PUSH1 0x5 ADD SLOAD PUSH1 0x1 PUSH1 0x1 PUSH1 0xA0 SHL SUB AND SWAP1 JUMP JUMPDEST POP PUSH1 0x0 SWAP1 JUMP JUMPDEST SWAP1 DUP1 DUP3 EQ PUSH2 0x1B73 JUMPI PUSH2 0x1AAD DUP2 SLOAD PUSH2 0x16C6 JUMP JUMPDEST SWAP1 PUSH1 0x1 PUSH1 0x1 PUSH1 0x40 SHL SUB DUP3 GT PUSH2 0x3C8 JUMPI DUP2 SWAP1 PUSH2 0x1AD2 DUP3 PUSH2 0x1ACC DUP7 SLOAD PUSH2 0x16C6 JUMP JUMPDEST DUP7 PUSH2 0x1875 JUMP JUMPDEST PUSH1 0x0 SWAP1 PUSH1 0x1F DUP4 GT PUSH1 0x1 EQ PUSH2 0x1B08 JUMPI PUSH1 0x0 SWAP3 PUSH2 0x1AFD JUMPI POP POP DUP2 PUSH1 0x1 SHL SWAP2 PUSH1 0x0 NOT SWAP1 PUSH1 0x3 SHL SHR NOT AND OR SWAP1 SSTORE JUMP JUMPDEST ADD SLOAD SWAP1 POP CODESIZE DUP1 PUSH2 0x18FC JUMP JUMPDEST DUP2 MSTORE PUSH1 0x20 DUP1 DUP3 KECCAK256 DUP6 DUP4 MSTORE DUP2 DUP4 KECCAK256 SWAP4 POP SWAP1 PUSH1 0x1F NOT DUP6 AND SWAP1 DUP4 SWAP1 JUMPDEST DUP3 DUP3 LT PUSH2 0x1B5A JUMPI POP POP SWAP1 DUP5 PUSH1 0x1 SWAP6 SWAP5 SWAP4 SWAP3 LT PUSH2 0x1B41 JUMPI POP POP POP DUP2 SHL ADD SWAP1 SSTORE JUMP JUMPDEST ADD SLOAD PUSH1 0x0 NOT PUSH1 0xF8 DUP5 PUSH1 0x3 SHL AND SHR NOT AND SWAP1 SSTORE CODESIZE DUP1 DUP1 PUSH2 0x1946 JUMP JUMPDEST DUP5 SWAP6 DUP2 SWAP3 SWAP6 DUP6 ADD SLOAD DUP2 SSTORE PUSH1 0x1 DUP1 SWAP2 ADD SWAP7 ADD SWAP5 ADD SWAP1 PUSH2 0x1B21 JUMP JUMPDEST POP POP JUMP INVALID LOG2 PUSH5 0x6970667358 0x22 SLT KECCAK256 EXTCODESIZE 0xA5 0xA7 0xDA CALLDATASIZE 0x49 DUP1 0x4F MSIZE PUSH26 0x3FBF679DEF64B99816684E249C8AEDA01673A94EF3AE64736F6C PUSH4 0x43000814 STOP CALLER "},"methodIdentifiers":{"FEE_DENOMINATOR()":"d73792a9","USDC_ADDRESS()":"bb09d9b7","acceptOwnership()":"79ba5097","allAssetIds(uint256)":"e814d66b","approvedMarketplaces(address)":"543a9eb9","deleteAsset(string)":"e24aa37c","disableRoyalty(string)":"1741cfc0","enableRoyalty(string)":"ea608c9c","getAsset(string)":"cd5286d0","getAssetIdByIndex(uint256)":"8c5deff8","getCurrentOwner(string)":"d55a772d","getRoyaltyFee(string)":"edd91367","getTotalAssets()":"6e07302b","getUserAssets(address)":"765ff061","libraryAssets(string)":"6cb3db25","owner()":"8da5cb5b","pendingOwner()":"e30c3978","platformFeePercentage()":"cdd78cfc","registerAsset(string,string,string,uint256,uint256)":"ff6c0dde","renounceOwnership()":"715018a6","royaltyContract()":"1663ee03","setApprovedMarketplace(address,bool)":"bbf46b84","setRoyaltyContract(address)":"d9aa187c","transferAssetOwnership(string,address)":"2203f8f1","transferOwnership(address)":"f2fde38b","updateRoyaltyFee(string,uint256,uint256)":"675bfec1","usdcToken()":"11eac855","userOwnedAssets(address,uint256)":"5d483ab9"}}}}}