{"ClayRoyalty.sol":{"ClayRoyalty":{"abi":[{"inputs":[{"internalType":"address","name":"_libraryContract","type":"address"}],"stateMutability":"nonpayable","type":"constructor"},{"inputs":[{"internalType":"address","name":"owner","type":"address"}],"name":"OwnableInvalidOwner","type":"error"},{"inputs":[{"internalType":"address","name":"account","type":"address"}],"name":"OwnableUnauthorizedAccount","type":"error"},{"inputs":[],"name":"ReentrancyGuardReentrantCall","type":"error"},{"anonymous":false,"inputs":[{"indexed":true,"internalType":"address","name":"previousOwner","type":"address"},{"indexed":true,"internalType":"address","name":"newOwner","type":"address"}],"name":"OwnershipTransferred","type":"event"},{"anonymous":false,"inputs":[{"indexed":true,"internalType":"string","name":"projectId","type":"string"},{"indexed":false,"internalType":"uint256","name":"dependencyCount","type":"uint256"}],"name":"RoyaltiesRegistered","type":"event"},{"anonymous":false,"inputs":[{"indexed":true,"internalType":"address","name":"claimant","type":"address"},{"indexed":false,"internalType":"uint256","name":"amountETH","type":"uint256"},{"indexed":false,"internalType":"uint256","name":"amountUSDC","type":"uint256"}],"name":"RoyaltyClaimed","type":"event"},{"anonymous":false,"inputs":[{"indexed":true,"internalType":"string","name":"projectId","type":"string"},{"indexed":true,"internalType":"address","name":"recipient","type":"address"},{"indexed":false,"internalType":"uint256","name":"amountETH","type":"uint256"},{"indexed":false,"internalType":"uint256","name":"amountUSDC","type":"uint256"}],"name":"RoyaltyRecorded","type":"event"},{"inputs":[],"name":"PERCENTAGE_DENOMINATOR","outputs":[{"internalType":"uint256","name":"","type":"uint256"}],"stateMutability":"view","type":"function"},{"inputs":[],"name":"ROYALTY_PERCENTAGE","outputs":[{"internalType":"uint256","name":"","type":"uint256"}],"stateMutability":"view","type":"function"},{"inputs":[],"name":"USDC_ADDRESS","outputs":[{"internalType":"address","name":"","type":"address"}],"stateMutability":"view","type":"function"},{"inputs":[{"internalType":"string","name":"projectId","type":"string"}],"name":"calculateTotalRoyalties","outputs":[{"internalType":"uint256","name":"totalETH","type":"uint256"},{"internalType":"uint256","name":"totalUSDC","type":"uint256"}],"stateMutability":"view","type":"function"},{"inputs":[],"name":"claimRoyaltiesETH","outputs":[],"stateMutability":"nonpayable","type":"function"},{"inputs":[],"name":"claimRoyaltiesUSDC","outputs":[],"stateMutability":"nonpayable","type":"function"},{"inputs":[{"internalType":"address","name":"account","type":"address"}],"name":"getPendingRoyalties","outputs":[{"internalType":"uint256","name":"eth","type":"uint256"},{"internalType":"uint256","name":"usdc","type":"uint256"}],"stateMutability":"view","type":"function"},{"inputs":[{"internalType":"string","name":"projectId","type":"string"}],"name":"getProjectDependencies","outputs":[{"components":[{"internalType":"string","name":"dependencyProjectId","type":"string"},{"internalType":"uint256","name":"royaltyPercentage","type":"uint256"},{"internalType":"uint256","name":"fixedRoyaltyETH","type":"uint256"},{"internalType":"uint256","name":"fixedRoyaltyUSDC","type":"uint256"}],"internalType":"struct ClayRoyalty.LibraryDependency[]","name":"","type":"tuple[]"}],"stateMutability":"view","type":"function"},{"inputs":[],"name":"libraryContract","outputs":[{"internalType":"contract IClayLibrary","name":"","type":"address"}],"stateMutability":"view","type":"function"},{"inputs":[],"name":"owner","outputs":[{"internalType":"address","name":"","type":"address"}],"stateMutability":"view","type":"function"},{"inputs":[{"internalType":"address","name":"","type":"address"}],"name":"pendingRoyaltiesETH","outputs":[{"internalType":"uint256","name":"","type":"uint256"}],"stateMutability":"view","type":"function"},{"inputs":[{"internalType":"address","name":"","type":"address"}],"name":"pendingRoyaltiesUSDC","outputs":[{"internalType":"uint256","name":"","type":"uint256"}],"stateMutability":"view","type":"function"},{"inputs":[{"internalType":"string","name":"","type":"string"}],"name":"projectRoyalties","outputs":[{"internalType":"string","name":"projectId","type":"string"},{"internalType":"bool","name":"hasRoyalties","type":"bool"}],"stateMutability":"view","type":"function"},{"inputs":[{"internalType":"string","name":"projectId","type":"string"},{"internalType":"uint256","name":"price","type":"uint256"},{"internalType":"enum ClayRoyalty.PaymentToken","name":"paymentToken","type":"uint8"}],"name":"recordRoyalties","outputs":[],"stateMutability":"payable","type":"function"},{"inputs":[{"internalType":"string","name":"projectId","type":"string"},{"internalType":"string[]","name":"dependencyProjectIds","type":"string[]"}],"name":"registerProjectRoyalties","outputs":[],"stateMutability":"nonpayable","type":"function"},{"inputs":[],"name":"renounceOwnership","outputs":[],"stateMutability":"nonpayable","type":"function"},{"inputs":[{"internalType":"address","name":"_libraryContract","type":"address"}],"name":"setLibraryContract","outputs":[],"stateMutability":"nonpayable","type":"function"},{"inputs":[{"internalType":"address","name":"newOwner","type":"address"}],"name":"transferOwnership","outputs":[],"stateMutability":"nonpayable","type":"function"},{"inputs":[],"name":"usdcToken","outputs":[{"internalType":"contract IERC20","name":"","type":"address"}],"stateMutability":"view","type":"function"},{"stateMutability":"payable","type":"receive"}],"evm":{"bytecode":{"linkReferences":{},"object":"60a0346100f957601f61180938819003918201601f19168301916001600160401b038311848410176100fe578084926020946040528339810103126100f957516001600160a01b0390818116908190036100f95733156100e05760005460018060a01b0319903382821617600055604051933391167f8be0079c531659141344cd1fd0a4f28419497f9722a3daafe3b4186f6b6457e0600080a36001805573833589fcd6edb6e08f4c7c32d4f71b54bda0291360805260025416176002556116f49081610115823960805181818161045f0152818161111301526112730152f35b604051631e4fbdf760e01b815260006004820152602490fd5b600080fd5b634e487b7160e01b600052604160045260246000fdfe608080604052600436101561001d575b50361561001b57600080fd5b005b60003560e01c908163024fa0d6146112a25750806311eac8551461125d578063141b5f021461121f5780631ed6c599146110ac578063463b08db1461108f5780634aa8a12d1461100957806350fd8e7114610eca5780635bf4b5c414610e8c578063715018a614610e335780638da5cb5b14610e0a578063902509c214610cda578063956456d914610c8f578063b1ee838e1461077d578063b3cd425414610760578063bb09d9b714610731578063c5787690146101ff578063ce0769c5146101d6578063f2fde38b146101465763f8a76dfb146100fb573861000f565b34610141576020366003190112610141576004356001600160401b038111610141576101356101306040923690600401611344565b6115c7565b82519182526020820152f35b600080fd5b34610141576020366003190112610141576004356001600160a01b0381811691829003610141576101756114ca565b81156101bd57600054826bffffffffffffffffffffffff60a01b821617600055167f8be0079c531659141344cd1fd0a4f28419497f9722a3daafe3b4186f6b6457e0600080a3005b604051631e4fbdf760e01b815260006004820152602490fd5b34610141576000366003190112610141576002546040516001600160a01b039091168152602090f35b606080600319360112610141576004356001600160401b0381116101415761022b903690600401611344565b604490813592600292838510156101415761024461169b565b604051918284516020948161025d879383858b0161138b565b810160058152030190209560ff8688015416156106ed57610403575034156103d25750600193840193926000845b61029d575b5050505050505b60018055005b85548110156103cd57806102bd6102b76102ee9389611545565b50611581565b60018060a01b038581865416835190604051808098819463d55a772d60e01b8352866004840152602483019061148e565b03915afa9182156103c1576103219460009361038f575b50604001519182151580610384575b610327575b5050506114f6565b8461028b565b1690816000526003865260406000206103418282546115ba565b90557fcb9f559e28915be49dcceef3fd0e6953281bdd4efe058dff26dd513ca503799e604061036f89611561565b928151908152600089820152a3878080610319565b508181161515610314565b60409193506103b390883d8a116103ba575b6103ab8183611308565b81019061167c565b9290610305565b503d6103a1565b6040513d6000823e3d90fd5b610290565b906a139bc8115512081cd95b9d60aa1b6064926040519262461bcd60e51b84526004840152600b6024840152820152fd5b9493903461069f57600095600060018097019081545b8082106106755750508715610626576040516323b872dd60e01b815233600482015230602480830191909152848201999099526001600160a01b039390868160648160007f00000000000000000000000000000000000000000000000000000000000000008a165af19081156103c1576000916105f9575b50156105b857506000875b6104af575b505050505050505050610297565b81548110156105b357806104c96102b76104f39385611545565b87868854168251908d60405180978194829363d55a772d60e01b845287600485015283019061148e565b03915afa9081156103c15785879161052695600094610594575b5001519182151580610589575b61052c575050506114f6565b8761049c565b1690816000526004895260406000206105468282546115ba565b90557fcb9f559e28915be49dcceef3fd0e6953281bdd4efe058dff26dd513ca503799e60406105748c611561565b92815190600082528c820152a38a8581610319565b50818116151561051a565b6105ac9194508b3d8d116103ba576103ab8183611308565b928e61050d565b6104a1565b887f55534443207472616e7366657220746f20636f6e7472616374206661696c6564606492886040519362461bcd60e51b8552816004860152840152820152fd5b6106199150873d891161061f575b6106118183611308565b810190611664565b8a610491565b503d610607565b60405162461bcd60e51b815260048101869052602260248201527f4e6f205553444320726f79616c7469657320666f7220746869732070726f6a65818501526118dd60f21b6064820152608490fd5b909861069361069991600361068a8d87611545565b500154906115ba565b996114f6565b90610419565b827f446f206e6f742073656e642045544820666f72205553444320726f79616c74696084926040519262461bcd60e51b845260048401526022602484015282015261657360f01b6064820152fd5b60405162461bcd60e51b815260048101859052601d60248201527f4e6f20726f79616c7469657320666f7220746869732070726f6a65637400000081850152606490fd5b3461014157600036600319011261014157602060405173833589fcd6edb6e08f4c7c32d4f71b54bda029138152f35b346101415760003660031901126101415760206040516127108152f35b34610141576040366003190112610141576004356001600160401b038111610141576107ad903690600401611344565b602435906001600160401b03821161014157366023830112156101415781600401356107d8816114b3565b926107e66040519485611308565b8184526024602085019260051b820101903682116101415760248101925b828410610c6057858560405160ff60028351926020818187019561082981838961138b565b81016005815203019020015416610c1b5760206108519160405180938192865192839161138b565b81016005815203019020918151926001600160401b038411610ac65761087781546113ae565b601f8111610bd3575b50602093601f8111600114610b6e578091929394600091610b63575b508160011b916000199060031b1c19161781555b60028101805460ff1916600117905560005b8251811015610b2b5760025461090c906040906001600160a01b03166108e8848761151b565b51908251808095819463edd9136760e01b835260206004840152602483019061148e565b03915afa80156103c157600091600091610af2575b5061092c838661151b565b51916040519261093b846112ed565b8352612710602084015260408301526060820152600183015468010000000000000000811015610ac65780600161097b9201600186015560018501611545565b919091610adc5780518051906001600160401b038211610ac65761099f84546113ae565b601f8111610a82575b50602090601f8311600114610a0f5792826003936060936109ff989796600092610a04575b50508160011b9160001990861b1c19161784555b602081015160018501556040810151600285015501519101556114f6565b6108c2565b015190508b806109cd565b908460005260206000209160005b601f1985168110610a6a5750836060936109ff98979693600193600397601f19811610610a52575b505050811b0184556109e1565b015160001983881b60f8161c191690558b8080610a45565b91926020600181928685015181550194019201610a1d565b846000526020600020601f840160051c810160208510610abf575b601f830160051c82018110610ab35750506109a8565b60008155600101610a9d565b5080610a9d565b634e487b7160e01b600052604160045260246000fd5b634e487b7160e01b600052600060045260246000fd5b9150506040813d604011610b23575b81610b0e60409383611308565b81010312610141576020815191015186610921565b3d9150610b01565b82517f92da81cc62c0efa31ecf38ecbdd2fb28add3e9af1063dde557cb388d8f9b3ef26020610b5987611561565b92604051908152a2005b90508401518561089c565b601f198116948260005260206000209060005b878110610bbb57508260019495969710610ba2575b5050811b0181556108b0565b86015160001960f88460031b161c191690558580610b96565b9091602060018192858a015181550193019101610b81565b816000526020600020601f860160051c81019160208710610c11575b601f0160051c01905b818110610c055750610880565b60008155600101610bf8565b9091508190610bef565b60405162461bcd60e51b815260206004820152601c60248201527f526f79616c7469657320616c72656164792072656769737465726564000000006044820152606490fd5b83356001600160401b03811161014157602091610c84839260243691870101611344565b815201930192610804565b34610141576020366003190112610141576004356001600160a01b0381169081900361014157610cbd6114ca565b6bffffffffffffffffffffffff60a01b6002541617600255600080f35b3461014157600036600319011261014157610cf361169b565b33600052602060038152604060002054908115610dc657336000526003815260006040812055600080808085335af13d15610dc1573d610d3281611329565b90610d406040519283611308565b81526000833d92013e5b15610d87576000906040519283528201527f6fe778711f06ca052305b633ba1b304f4d71c1523776f2aa3059d8d99f5420de60403392a260018055005b6064906040519062461bcd60e51b825260048201526013602482015272115512081d1c985b9cd9995c8819985a5b1959606a1b6044820152fd5b610d4a565b6064906040519062461bcd60e51b82526004820152601860248201527f4e6f2070656e64696e672045544820726f79616c7469657300000000000000006044820152fd5b34610141576000366003190112610141576000546040516001600160a01b039091168152602090f35b3461014157600036600319011261014157610e4c6114ca565b600080546001600160a01b0319811682556001600160a01b03167f8be0079c531659141344cd1fd0a4f28419497f9722a3daafe3b4186f6b6457e08280a3005b34610141576020366003190112610141576004356001600160a01b038116908190036101415760005260046020526020604060002054604051908152f35b3461014157602080600319360112610141576004356001600160401b03811161014157610efb903690600401611344565b9080610f10604051938481519384920161138b565b820160058152828260019485930301902001805491610f2e836114b3565b92610f3c6040519485611308565b8084528184018093600052826000206000915b838310610fe457505050506040519384938285019083865251809152604085019260408260051b87010194936000905b838210610f8c5787870388f35b918496819592949698508190603f198b8203018552895190610fb68251608080845283019061148e565b9183810151848301526040810151604083015260608091015191015298019201920187969593919492610f7f565b966004858297989699610ff685611581565b8152019201920191909693959496610f4f565b34610141576020366003190112610141576004356001600160401b038111610141576110546020611041611083933690600401611344565b816040519382858094519384920161138b565b8101600581520301902060ff600261106b836113e8565b9201541660405192839260408452604084019061148e565b90151560208301520390f35b346101415760003660031901126101415760206040516103e88152f35b34610141576000366003190112610141576110c561169b565b3360005260206004815260406000205480156111da5733600052600482526000604081205560405163a9059cbb60e01b81523360048201528160248201528281604481600060018060a01b037f0000000000000000000000000000000000000000000000000000000000000000165af19081156103c1576000916111bd575b50156111815760405191600083528201527f6fe778711f06ca052305b633ba1b304f4d71c1523776f2aa3059d8d99f5420de60403392a260018055005b60405162461bcd60e51b81526004810183905260146024820152731554d110c81d1c985b9cd9995c8819985a5b195960621b6044820152606490fd5b6111d49150833d851161061f576106118183611308565b83611144565b60405162461bcd60e51b815260048101839052601960248201527f4e6f2070656e64696e67205553444320726f79616c74696573000000000000006044820152606490fd5b34610141576020366003190112610141576004356001600160a01b038116908190036101415760005260036020526020604060002054604051908152f35b34610141576000366003190112610141576040517f00000000000000000000000000000000000000000000000000000000000000006001600160a01b03168152602090f35b34610141576020366003190112610141576004356001600160a01b03811691908290036101415760409160005260036020528160002054600460205282600020549082526020820152f35b608081019081106001600160401b03821117610ac657604052565b90601f801991011681019081106001600160401b03821117610ac657604052565b6001600160401b038111610ac657601f01601f191660200190565b81601f820112156101415780359061135b82611329565b926113696040519485611308565b8284526020838301011161014157816000926020809301838601378301015290565b60005b83811061139e5750506000910152565b818101518382015260200161138e565b90600182811c921680156113de575b60208310146113c857565b634e487b7160e01b600052602260045260246000fd5b91607f16916113bd565b90604051918260008254926113fc846113ae565b90818452600194858116908160001461146b5750600114611428575b505061142692500383611308565b565b9093915060005260209081600020936000915b81831061145357505061142693508201013880611418565b8554888401850152948501948794509183019161143b565b91505061142694506020925060ff191682840152151560051b8201013880611418565b906020916114a78151809281855285808601910161138b565b601f01601f1916010190565b6001600160401b038111610ac65760051b60200190565b6000546001600160a01b031633036114de57565b60405163118cdaa760e01b8152336004820152602490fd5b60001981146115055760010190565b634e487b7160e01b600052601160045260246000fd5b805182101561152f5760209160051b010190565b634e487b7160e01b600052603260045260246000fd5b805482101561152f5760005260206000209060021b0190600090565b6115799060206040519282848094519384920161138b565b810103902090565b9060405161158e816112ed565b60606003829461159d816113e8565b845260018101546020850152600281015460408501520154910152565b9190820180921161150557565b90600080926115e660206040928184519382858094519384920161138b565b810160058152030190209060ff6002830154161561165757600160009201908154915b82841061161857505050509190565b9091929561164961164f9160606116406116356102b78c88611545565b98878a0151906115ba565b970151906115ba565b966114f6565b929190611609565b5050509050600090600090565b90816020910312610141575180151581036101415790565b9081602091031261014157516001600160a01b03811681036101415790565b6002600154146116ac576002600155565b604051633ee5aeb560e01b8152600490fdfea26469706673582212207504485f2c97a735f4533a4d4024c4308f689f00322d757ff03d532f8a9c4fd164736f6c63430008140033","opcodes":"PUSH1 0xA0 CALLVALUE PUSH2 0xF9 JUMPI PUSH1 0x1F PUSH2 0x1809 CODESIZE DUP2 SWAP1 SUB SWAP2 DUP3 ADD PUSH1 0x1F NOT AND DUP4 ADD SWAP2 PUSH1 0x1 PUSH1 0x1 PUSH1 0x40 SHL SUB DUP4 GT DUP5 DUP5 LT OR PUSH2 0xFE JUMPI DUP1 DUP5 SWAP3 PUSH1 0x20 SWAP5 PUSH1 0x40 MSTORE DUP4 CODECOPY DUP2 ADD SUB SLT PUSH2 0xF9 JUMPI MLOAD PUSH1 0x1 PUSH1 0x1 PUSH1 0xA0 SHL SUB SWAP1 DUP2 DUP2 AND SWAP1 DUP2 SWAP1 SUB PUSH2 0xF9 JUMPI CALLER ISZERO PUSH2 0xE0 JUMPI PUSH1 0x0 SLOAD PUSH1 0x1 DUP1 PUSH1 0xA0 SHL SUB NOT SWAP1 CALLER DUP3 DUP3 AND OR PUSH1 0x0 SSTORE PUSH1 0x40 MLOAD SWAP4 CALLER SWAP2 AND PUSH32 0x8BE0079C531659141344CD1FD0A4F28419497F9722A3DAAFE3B4186F6B6457E0 PUSH1 0x0 DUP1 LOG3 PUSH1 0x1 DUP1 SSTORE PUSH20 0x833589FCD6EDB6E08F4C7C32D4F71B54BDA02913 PUSH1 0x80 MSTORE PUSH1 0x2 SLOAD AND OR PUSH1 0x2 SSTORE PUSH2 0x16F4 SWAP1 DUP2 PUSH2 0x115 DUP3 CODECOPY PUSH1 0x80 MLOAD DUP2 DUP2 DUP2 PUSH2 0x45F ADD MSTORE DUP2 DUP2 PUSH2 0x1113 ADD MSTORE PUSH2 0x1273 ADD MSTORE RETURN JUMPDEST PUSH1 0x40 MLOAD PUSH4 0x1E4FBDF7 PUSH1 0xE0 SHL DUP2 MSTORE PUSH1 0x0 PUSH1 0x4 DUP3 ADD MSTORE PUSH1 0x24 SWAP1 REVERT JUMPDEST PUSH1 0x0 DUP1 REVERT JUMPDEST PUSH4 0x4E487B71 PUSH1 0xE0 SHL PUSH1 0x0 MSTORE PUSH1 0x41 PUSH1 0x4 MSTORE PUSH1 0x24 PUSH1 0x0 REVERT INVALID PUSH1 0x80 DUP1 PUSH1 0x40 MSTORE PUSH1 0x4 CALLDATASIZE LT ISZERO PUSH2 0x1D JUMPI JUMPDEST POP CALLDATASIZE ISZERO PUSH2 0x1B JUMPI PUSH1 0x0 DUP1 REVERT JUMPDEST STOP JUMPDEST PUSH1 0x0 CALLDATALOAD PUSH1 0xE0 SHR SWAP1 DUP2 PUSH4 0x24FA0D6 EQ PUSH2 0x12A2 JUMPI POP DUP1 PUSH4 0x11EAC855 EQ PUSH2 0x125D JUMPI DUP1 PUSH4 0x141B5F02 EQ PUSH2 0x121F JUMPI DUP1 PUSH4 0x1ED6C599 EQ PUSH2 0x10AC JUMPI DUP1 PUSH4 0x463B08DB EQ PUSH2 0x108F JUMPI DUP1 PUSH4 0x4AA8A12D EQ PUSH2 0x1009 JUMPI DUP1 PUSH4 0x50FD8E71 EQ PUSH2 0xECA JUMPI DUP1 PUSH4 0x5BF4B5C4 EQ PUSH2 0xE8C JUMPI DUP1 PUSH4 0x715018A6 EQ PUSH2 0xE33 JUMPI DUP1 PUSH4 0x8DA5CB5B EQ PUSH2 0xE0A JUMPI DUP1 PUSH4 0x902509C2 EQ PUSH2 0xCDA JUMPI DUP1 PUSH4 0x956456D9 EQ PUSH2 0xC8F JUMPI DUP1 PUSH4 0xB1EE838E EQ PUSH2 0x77D JUMPI DUP1 PUSH4 0xB3CD4254 EQ PUSH2 0x760 JUMPI DUP1 PUSH4 0xBB09D9B7 EQ PUSH2 0x731 JUMPI DUP1 PUSH4 0xC5787690 EQ PUSH2 0x1FF JUMPI DUP1 PUSH4 0xCE0769C5 EQ PUSH2 0x1D6 JUMPI DUP1 PUSH4 0xF2FDE38B EQ PUSH2 0x146 JUMPI PUSH4 0xF8A76DFB EQ PUSH2 0xFB JUMPI CODESIZE PUSH2 0xF JUMP JUMPDEST CALLVALUE PUSH2 0x141 JUMPI PUSH1 0x20 CALLDATASIZE PUSH1 0x3 NOT ADD SLT PUSH2 0x141 JUMPI PUSH1 0x4 CALLDATALOAD PUSH1 0x1 PUSH1 0x1 PUSH1 0x40 SHL SUB DUP2 GT PUSH2 0x141 JUMPI PUSH2 0x135 PUSH2 0x130 PUSH1 0x40 SWAP3 CALLDATASIZE SWAP1 PUSH1 0x4 ADD PUSH2 0x1344 JUMP JUMPDEST PUSH2 0x15C7 JUMP JUMPDEST DUP3 MLOAD SWAP2 DUP3 MSTORE PUSH1 0x20 DUP3 ADD MSTORE RETURN JUMPDEST PUSH1 0x0 DUP1 REVERT JUMPDEST CALLVALUE PUSH2 0x141 JUMPI PUSH1 0x20 CALLDATASIZE PUSH1 0x3 NOT ADD SLT PUSH2 0x141 JUMPI PUSH1 0x4 CALLDATALOAD PUSH1 0x1 PUSH1 0x1 PUSH1 0xA0 SHL SUB DUP2 DUP2 AND SWAP2 DUP3 SWAP1 SUB PUSH2 0x141 JUMPI PUSH2 0x175 PUSH2 0x14CA JUMP JUMPDEST DUP2 ISZERO PUSH2 0x1BD JUMPI PUSH1 0x0 SLOAD DUP3 PUSH12 0xFFFFFFFFFFFFFFFFFFFFFFFF PUSH1 0xA0 SHL DUP3 AND OR PUSH1 0x0 SSTORE AND PUSH32 0x8BE0079C531659141344CD1FD0A4F28419497F9722A3DAAFE3B4186F6B6457E0 PUSH1 0x0 DUP1 LOG3 STOP JUMPDEST PUSH1 0x40 MLOAD PUSH4 0x1E4FBDF7 PUSH1 0xE0 SHL DUP2 MSTORE PUSH1 0x0 PUSH1 0x4 DUP3 ADD MSTORE PUSH1 0x24 SWAP1 REVERT JUMPDEST CALLVALUE PUSH2 0x141 JUMPI PUSH1 0x0 CALLDATASIZE PUSH1 0x3 NOT ADD SLT PUSH2 0x141 JUMPI PUSH1 0x2 SLOAD PUSH1 0x40 MLOAD PUSH1 0x1 PUSH1 0x1 PUSH1 0xA0 SHL SUB SWAP1 SWAP2 AND DUP2 MSTORE PUSH1 0x20 SWAP1 RETURN JUMPDEST PUSH1 0x60 DUP1 PUSH1 0x3 NOT CALLDATASIZE ADD SLT PUSH2 0x141 JUMPI PUSH1 0x4 CALLDATALOAD PUSH1 0x1 PUSH1 0x1 PUSH1 0x40 SHL SUB DUP2 GT PUSH2 0x141 JUMPI PUSH2 0x22B SWAP1 CALLDATASIZE SWAP1 PUSH1 0x4 ADD PUSH2 0x1344 JUMP JUMPDEST PUSH1 0x44 SWAP1 DUP2 CALLDATALOAD SWAP3 PUSH1 0x2 SWAP3 DUP4 DUP6 LT ISZERO PUSH2 0x141 JUMPI PUSH2 0x244 PUSH2 0x169B JUMP JUMPDEST PUSH1 0x40 MLOAD SWAP2 DUP3 DUP5 MLOAD PUSH1 0x20 SWAP5 DUP2 PUSH2 0x25D DUP8 SWAP4 DUP4 DUP6 DUP12 ADD PUSH2 0x138B JUMP JUMPDEST DUP2 ADD PUSH1 0x5 DUP2 MSTORE SUB ADD SWAP1 KECCAK256 SWAP6 PUSH1 0xFF DUP7 DUP9 ADD SLOAD AND ISZERO PUSH2 0x6ED JUMPI PUSH2 0x403 JUMPI POP CALLVALUE ISZERO PUSH2 0x3D2 JUMPI POP PUSH1 0x1 SWAP4 DUP5 ADD SWAP4 SWAP3 PUSH1 0x0 DUP5 JUMPDEST PUSH2 0x29D JUMPI JUMPDEST POP POP POP POP POP POP JUMPDEST PUSH1 0x1 DUP1 SSTORE STOP JUMPDEST DUP6 SLOAD DUP2 LT ISZERO PUSH2 0x3CD JUMPI DUP1 PUSH2 0x2BD PUSH2 0x2B7 PUSH2 0x2EE SWAP4 DUP10 PUSH2 0x1545 JUMP JUMPDEST POP PUSH2 0x1581 JUMP JUMPDEST PUSH1 0x1 DUP1 PUSH1 0xA0 SHL SUB DUP6 DUP2 DUP7 SLOAD AND DUP4 MLOAD SWAP1 PUSH1 0x40 MLOAD DUP1 DUP1 SWAP9 DUP2 SWAP5 PUSH4 0xD55A772D PUSH1 0xE0 SHL DUP4 MSTORE DUP7 PUSH1 0x4 DUP5 ADD MSTORE PUSH1 0x24 DUP4 ADD SWAP1 PUSH2 0x148E JUMP JUMPDEST SUB SWAP2 GAS STATICCALL SWAP2 DUP3 ISZERO PUSH2 0x3C1 JUMPI PUSH2 0x321 SWAP5 PUSH1 0x0 SWAP4 PUSH2 0x38F JUMPI JUMPDEST POP PUSH1 0x40 ADD MLOAD SWAP2 DUP3 ISZERO ISZERO DUP1 PUSH2 0x384 JUMPI JUMPDEST PUSH2 0x327 JUMPI JUMPDEST POP POP POP PUSH2 0x14F6 JUMP JUMPDEST DUP5 PUSH2 0x28B JUMP JUMPDEST AND SWAP1 DUP2 PUSH1 0x0 MSTORE PUSH1 0x3 DUP7 MSTORE PUSH1 0x40 PUSH1 0x0 KECCAK256 PUSH2 0x341 DUP3 DUP3 SLOAD PUSH2 0x15BA JUMP JUMPDEST SWAP1 SSTORE PUSH32 0xCB9F559E28915BE49DCCEEF3FD0E6953281BDD4EFE058DFF26DD513CA503799E PUSH1 0x40 PUSH2 0x36F DUP10 PUSH2 0x1561 JUMP JUMPDEST SWAP3 DUP2 MLOAD SWAP1 DUP2 MSTORE PUSH1 0x0 DUP10 DUP3 ADD MSTORE LOG3 DUP8 DUP1 DUP1 PUSH2 0x319 JUMP JUMPDEST POP DUP2 DUP2 AND ISZERO ISZERO PUSH2 0x314 JUMP JUMPDEST PUSH1 0x40 SWAP2 SWAP4 POP PUSH2 0x3B3 SWAP1 DUP9 RETURNDATASIZE DUP11 GT PUSH2 0x3BA JUMPI JUMPDEST PUSH2 0x3AB DUP2 DUP4 PUSH2 0x1308 JUMP JUMPDEST DUP2 ADD SWAP1 PUSH2 0x167C JUMP JUMPDEST SWAP3 SWAP1 PUSH2 0x305 JUMP JUMPDEST POP RETURNDATASIZE PUSH2 0x3A1 JUMP JUMPDEST PUSH1 0x40 MLOAD RETURNDATASIZE PUSH1 0x0 DUP3 RETURNDATACOPY RETURNDATASIZE SWAP1 REVERT JUMPDEST PUSH2 0x290 JUMP JUMPDEST SWAP1 PUSH11 0x139BC8115512081CD95B9D PUSH1 0xAA SHL PUSH1 0x64 SWAP3 PUSH1 0x40 MLOAD SWAP3 PUSH3 0x461BCD PUSH1 0xE5 SHL DUP5 MSTORE PUSH1 0x4 DUP5 ADD MSTORE PUSH1 0xB PUSH1 0x24 DUP5 ADD MSTORE DUP3 ADD MSTORE REVERT JUMPDEST SWAP5 SWAP4 SWAP1 CALLVALUE PUSH2 0x69F JUMPI PUSH1 0x0 SWAP6 PUSH1 0x0 PUSH1 0x1 DUP1 SWAP8 ADD SWAP1 DUP2 SLOAD JUMPDEST DUP1 DUP3 LT PUSH2 0x675 JUMPI POP POP DUP8 ISZERO PUSH2 0x626 JUMPI PUSH1 0x40 MLOAD PUSH4 0x23B872DD PUSH1 0xE0 SHL DUP2 MSTORE CALLER PUSH1 0x4 DUP3 ADD MSTORE ADDRESS PUSH1 0x24 DUP1 DUP4 ADD SWAP2 SWAP1 SWAP2 MSTORE DUP5 DUP3 ADD SWAP10 SWAP1 SWAP10 MSTORE PUSH1 0x1 PUSH1 0x1 PUSH1 0xA0 SHL SUB SWAP4 SWAP1 DUP7 DUP2 PUSH1 0x64 DUP2 PUSH1 0x0 PUSH32 0x0 DUP11 AND GAS CALL SWAP1 DUP2 ISZERO PUSH2 0x3C1 JUMPI PUSH1 0x0 SWAP2 PUSH2 0x5F9 JUMPI JUMPDEST POP ISZERO PUSH2 0x5B8 JUMPI POP PUSH1 0x0 DUP8 JUMPDEST PUSH2 0x4AF JUMPI JUMPDEST POP POP POP POP POP POP POP POP POP PUSH2 0x297 JUMP JUMPDEST DUP2 SLOAD DUP2 LT ISZERO PUSH2 0x5B3 JUMPI DUP1 PUSH2 0x4C9 PUSH2 0x2B7 PUSH2 0x4F3 SWAP4 DUP6 PUSH2 0x1545 JUMP JUMPDEST DUP8 DUP7 DUP9 SLOAD AND DUP3 MLOAD SWAP1 DUP14 PUSH1 0x40 MLOAD DUP1 SWAP8 DUP2 SWAP5 DUP3 SWAP4 PUSH4 0xD55A772D PUSH1 0xE0 SHL DUP5 MSTORE DUP8 PUSH1 0x4 DUP6 ADD MSTORE DUP4 ADD SWAP1 PUSH2 0x148E JUMP JUMPDEST SUB SWAP2 GAS STATICCALL SWAP1 DUP2 ISZERO PUSH2 0x3C1 JUMPI DUP6 DUP8 SWAP2 PUSH2 0x526 SWAP6 PUSH1 0x0 SWAP5 PUSH2 0x594 JUMPI JUMPDEST POP ADD MLOAD SWAP2 DUP3 ISZERO ISZERO DUP1 PUSH2 0x589 JUMPI JUMPDEST PUSH2 0x52C JUMPI POP POP POP PUSH2 0x14F6 JUMP JUMPDEST DUP8 PUSH2 0x49C JUMP JUMPDEST AND SWAP1 DUP2 PUSH1 0x0 MSTORE PUSH1 0x4 DUP10 MSTORE PUSH1 0x40 PUSH1 0x0 KECCAK256 PUSH2 0x546 DUP3 DUP3 SLOAD PUSH2 0x15BA JUMP JUMPDEST SWAP1 SSTORE PUSH32 0xCB9F559E28915BE49DCCEEF3FD0E6953281BDD4EFE058DFF26DD513CA503799E PUSH1 0x40 PUSH2 0x574 DUP13 PUSH2 0x1561 JUMP JUMPDEST SWAP3 DUP2 MLOAD SWAP1 PUSH1 0x0 DUP3 MSTORE DUP13 DUP3 ADD MSTORE LOG3 DUP11 DUP6 DUP2 PUSH2 0x319 JUMP JUMPDEST POP DUP2 DUP2 AND ISZERO ISZERO PUSH2 0x51A JUMP JUMPDEST PUSH2 0x5AC SWAP2 SWAP5 POP DUP12 RETURNDATASIZE DUP14 GT PUSH2 0x3BA JUMPI PUSH2 0x3AB DUP2 DUP4 PUSH2 0x1308 JUMP JUMPDEST SWAP3 DUP15 PUSH2 0x50D JUMP JUMPDEST PUSH2 0x4A1 JUMP JUMPDEST DUP9 PUSH32 0x55534443207472616E7366657220746F20636F6E7472616374206661696C6564 PUSH1 0x64 SWAP3 DUP9 PUSH1 0x40 MLOAD SWAP4 PUSH3 0x461BCD PUSH1 0xE5 SHL DUP6 MSTORE DUP2 PUSH1 0x4 DUP7 ADD MSTORE DUP5 ADD MSTORE DUP3 ADD MSTORE REVERT JUMPDEST PUSH2 0x619 SWAP2 POP DUP8 RETURNDATASIZE DUP10 GT PUSH2 0x61F JUMPI JUMPDEST PUSH2 0x611 DUP2 DUP4 PUSH2 0x1308 JUMP JUMPDEST DUP2 ADD SWAP1 PUSH2 0x1664 JUMP JUMPDEST DUP11 PUSH2 0x491 JUMP JUMPDEST POP RETURNDATASIZE PUSH2 0x607 JUMP JUMPDEST PUSH1 0x40 MLOAD PUSH3 0x461BCD PUSH1 0xE5 SHL DUP2 MSTORE PUSH1 0x4 DUP2 ADD DUP7 SWAP1 MSTORE PUSH1 0x22 PUSH1 0x24 DUP3 ADD MSTORE PUSH32 0x4E6F205553444320726F79616C7469657320666F7220746869732070726F6A65 DUP2 DUP6 ADD MSTORE PUSH2 0x18DD PUSH1 0xF2 SHL PUSH1 0x64 DUP3 ADD MSTORE PUSH1 0x84 SWAP1 REVERT JUMPDEST SWAP1 SWAP9 PUSH2 0x693 PUSH2 0x699 SWAP2 PUSH1 0x3 PUSH2 0x68A DUP14 DUP8 PUSH2 0x1545 JUMP JUMPDEST POP ADD SLOAD SWAP1 PUSH2 0x15BA JUMP JUMPDEST SWAP10 PUSH2 0x14F6 JUMP JUMPDEST SWAP1 PUSH2 0x419 JUMP JUMPDEST DUP3 PUSH32 0x446F206E6F742073656E642045544820666F72205553444320726F79616C7469 PUSH1 0x84 SWAP3 PUSH1 0x40 MLOAD SWAP3 PUSH3 0x461BCD PUSH1 0xE5 SHL DUP5 MSTORE PUSH1 0x4 DUP5 ADD MSTORE PUSH1 0x22 PUSH1 0x24 DUP5 ADD MSTORE DUP3 ADD MSTORE PUSH2 0x6573 PUSH1 0xF0 SHL PUSH1 0x64 DUP3 ADD MSTORE REVERT JUMPDEST PUSH1 0x40 MLOAD PUSH3 0x461BCD PUSH1 0xE5 SHL DUP2 MSTORE PUSH1 0x4 DUP2 ADD DUP6 SWAP1 MSTORE PUSH1 0x1D PUSH1 0x24 DUP3 ADD MSTORE PUSH32 0x4E6F20726F79616C7469657320666F7220746869732070726F6A656374000000 DUP2 DUP6 ADD MSTORE PUSH1 0x64 SWAP1 REVERT JUMPDEST CALLVALUE PUSH2 0x141 JUMPI PUSH1 0x0 CALLDATASIZE PUSH1 0x3 NOT ADD SLT PUSH2 0x141 JUMPI PUSH1 0x20 PUSH1 0x40 MLOAD PUSH20 0x833589FCD6EDB6E08F4C7C32D4F71B54BDA02913 DUP2 MSTORE RETURN JUMPDEST CALLVALUE PUSH2 0x141 JUMPI PUSH1 0x0 CALLDATASIZE PUSH1 0x3 NOT ADD SLT PUSH2 0x141 JUMPI PUSH1 0x20 PUSH1 0x40 MLOAD PUSH2 0x2710 DUP2 MSTORE RETURN JUMPDEST CALLVALUE PUSH2 0x141 JUMPI PUSH1 0x40 CALLDATASIZE PUSH1 0x3 NOT ADD SLT PUSH2 0x141 JUMPI PUSH1 0x4 CALLDATALOAD PUSH1 0x1 PUSH1 0x1 PUSH1 0x40 SHL SUB DUP2 GT PUSH2 0x141 JUMPI PUSH2 0x7AD SWAP1 CALLDATASIZE SWAP1 PUSH1 0x4 ADD PUSH2 0x1344 JUMP JUMPDEST PUSH1 0x24 CALLDATALOAD SWAP1 PUSH1 0x1 PUSH1 0x1 PUSH1 0x40 SHL SUB DUP3 GT PUSH2 0x141 JUMPI CALLDATASIZE PUSH1 0x23 DUP4 ADD SLT ISZERO PUSH2 0x141 JUMPI DUP2 PUSH1 0x4 ADD CALLDATALOAD PUSH2 0x7D8 DUP2 PUSH2 0x14B3 JUMP JUMPDEST SWAP3 PUSH2 0x7E6 PUSH1 0x40 MLOAD SWAP5 DUP6 PUSH2 0x1308 JUMP JUMPDEST DUP2 DUP5 MSTORE PUSH1 0x24 PUSH1 0x20 DUP6 ADD SWAP3 PUSH1 0x5 SHL DUP3 ADD ADD SWAP1 CALLDATASIZE DUP3 GT PUSH2 0x141 JUMPI PUSH1 0x24 DUP2 ADD SWAP3 JUMPDEST DUP3 DUP5 LT PUSH2 0xC60 JUMPI DUP6 DUP6 PUSH1 0x40 MLOAD PUSH1 0xFF PUSH1 0x2 DUP4 MLOAD SWAP3 PUSH1 0x20 DUP2 DUP2 DUP8 ADD SWAP6 PUSH2 0x829 DUP2 DUP4 DUP10 PUSH2 0x138B JUMP JUMPDEST DUP2 ADD PUSH1 0x5 DUP2 MSTORE SUB ADD SWAP1 KECCAK256 ADD SLOAD AND PUSH2 0xC1B JUMPI PUSH1 0x20 PUSH2 0x851 SWAP2 PUSH1 0x40 MLOAD DUP1 SWAP4 DUP2 SWAP3 DUP7 MLOAD SWAP3 DUP4 SWAP2 PUSH2 0x138B JUMP JUMPDEST DUP2 ADD PUSH1 0x5 DUP2 MSTORE SUB ADD SWAP1 KECCAK256 SWAP2 DUP2 MLOAD SWAP3 PUSH1 0x1 PUSH1 0x1 PUSH1 0x40 SHL SUB DUP5 GT PUSH2 0xAC6 JUMPI PUSH2 0x877 DUP2 SLOAD PUSH2 0x13AE JUMP JUMPDEST PUSH1 0x1F DUP2 GT PUSH2 0xBD3 JUMPI JUMPDEST POP PUSH1 0x20 SWAP4 PUSH1 0x1F DUP2 GT PUSH1 0x1 EQ PUSH2 0xB6E JUMPI DUP1 SWAP2 SWAP3 SWAP4 SWAP5 PUSH1 0x0 SWAP2 PUSH2 0xB63 JUMPI JUMPDEST POP DUP2 PUSH1 0x1 SHL SWAP2 PUSH1 0x0 NOT SWAP1 PUSH1 0x3 SHL SHR NOT AND OR DUP2 SSTORE JUMPDEST PUSH1 0x2 DUP2 ADD DUP1 SLOAD PUSH1 0xFF NOT AND PUSH1 0x1 OR SWAP1 SSTORE PUSH1 0x0 JUMPDEST DUP3 MLOAD DUP2 LT ISZERO PUSH2 0xB2B JUMPI PUSH1 0x2 SLOAD PUSH2 0x90C SWAP1 PUSH1 0x40 SWAP1 PUSH1 0x1 PUSH1 0x1 PUSH1 0xA0 SHL SUB AND PUSH2 0x8E8 DUP5 DUP8 PUSH2 0x151B JUMP JUMPDEST MLOAD SWAP1 DUP3 MLOAD DUP1 DUP1 SWAP6 DUP2 SWAP5 PUSH4 0xEDD91367 PUSH1 0xE0 SHL DUP4 MSTORE PUSH1 0x20 PUSH1 0x4 DUP5 ADD MSTORE PUSH1 0x24 DUP4 ADD SWAP1 PUSH2 0x148E JUMP JUMPDEST SUB SWAP2 GAS STATICCALL DUP1 ISZERO PUSH2 0x3C1 JUMPI PUSH1 0x0 SWAP2 PUSH1 0x0 SWAP2 PUSH2 0xAF2 JUMPI JUMPDEST POP PUSH2 0x92C DUP4 DUP7 PUSH2 0x151B JUMP JUMPDEST MLOAD SWAP2 PUSH1 0x40 MLOAD SWAP3 PUSH2 0x93B DUP5 PUSH2 0x12ED JUMP JUMPDEST DUP4 MSTORE PUSH2 0x2710 PUSH1 0x20 DUP5 ADD MSTORE PUSH1 0x40 DUP4 ADD MSTORE PUSH1 0x60 DUP3 ADD MSTORE PUSH1 0x1 DUP4 ADD SLOAD PUSH9 0x10000000000000000 DUP2 LT ISZERO PUSH2 0xAC6 JUMPI DUP1 PUSH1 0x1 PUSH2 0x97B SWAP3 ADD PUSH1 0x1 DUP7 ADD SSTORE PUSH1 0x1 DUP6 ADD PUSH2 0x1545 JUMP JUMPDEST SWAP2 SWAP1 SWAP2 PUSH2 0xADC JUMPI DUP1 MLOAD DUP1 MLOAD SWAP1 PUSH1 0x1 PUSH1 0x1 PUSH1 0x40 SHL SUB DUP3 GT PUSH2 0xAC6 JUMPI PUSH2 0x99F DUP5 SLOAD PUSH2 0x13AE JUMP JUMPDEST PUSH1 0x1F DUP2 GT PUSH2 0xA82 JUMPI JUMPDEST POP PUSH1 0x20 SWAP1 PUSH1 0x1F DUP4 GT PUSH1 0x1 EQ PUSH2 0xA0F JUMPI SWAP3 DUP3 PUSH1 0x3 SWAP4 PUSH1 0x60 SWAP4 PUSH2 0x9FF SWAP9 SWAP8 SWAP7 PUSH1 0x0 SWAP3 PUSH2 0xA04 JUMPI JUMPDEST POP POP DUP2 PUSH1 0x1 SHL SWAP2 PUSH1 0x0 NOT SWAP1 DUP7 SHL SHR NOT AND OR DUP5 SSTORE JUMPDEST PUSH1 0x20 DUP2 ADD MLOAD PUSH1 0x1 DUP6 ADD SSTORE PUSH1 0x40 DUP2 ADD MLOAD PUSH1 0x2 DUP6 ADD SSTORE ADD MLOAD SWAP2 ADD SSTORE PUSH2 0x14F6 JUMP JUMPDEST PUSH2 0x8C2 JUMP JUMPDEST ADD MLOAD SWAP1 POP DUP12 DUP1 PUSH2 0x9CD JUMP JUMPDEST SWAP1 DUP5 PUSH1 0x0 MSTORE PUSH1 0x20 PUSH1 0x0 KECCAK256 SWAP2 PUSH1 0x0 JUMPDEST PUSH1 0x1F NOT DUP6 AND DUP2 LT PUSH2 0xA6A JUMPI POP DUP4 PUSH1 0x60 SWAP4 PUSH2 0x9FF SWAP9 SWAP8 SWAP7 SWAP4 PUSH1 0x1 SWAP4 PUSH1 0x3 SWAP8 PUSH1 0x1F NOT DUP2 AND LT PUSH2 0xA52 JUMPI JUMPDEST POP POP POP DUP2 SHL ADD DUP5 SSTORE PUSH2 0x9E1 JUMP JUMPDEST ADD MLOAD PUSH1 0x0 NOT DUP4 DUP9 SHL PUSH1 0xF8 AND SHR NOT AND SWAP1 SSTORE DUP12 DUP1 DUP1 PUSH2 0xA45 JUMP JUMPDEST SWAP2 SWAP3 PUSH1 0x20 PUSH1 0x1 DUP2 SWAP3 DUP7 DUP6 ADD MLOAD DUP2 SSTORE ADD SWAP5 ADD SWAP3 ADD PUSH2 0xA1D JUMP JUMPDEST DUP5 PUSH1 0x0 MSTORE PUSH1 0x20 PUSH1 0x0 KECCAK256 PUSH1 0x1F DUP5 ADD PUSH1 0x5 SHR DUP2 ADD PUSH1 0x20 DUP6 LT PUSH2 0xABF JUMPI JUMPDEST PUSH1 0x1F DUP4 ADD PUSH1 0x5 SHR DUP3 ADD DUP2 LT PUSH2 0xAB3 JUMPI POP POP PUSH2 0x9A8 JUMP JUMPDEST PUSH1 0x0 DUP2 SSTORE PUSH1 0x1 ADD PUSH2 0xA9D JUMP JUMPDEST POP DUP1 PUSH2 0xA9D JUMP JUMPDEST PUSH4 0x4E487B71 PUSH1 0xE0 SHL PUSH1 0x0 MSTORE PUSH1 0x41 PUSH1 0x4 MSTORE PUSH1 0x24 PUSH1 0x0 REVERT JUMPDEST PUSH4 0x4E487B71 PUSH1 0xE0 SHL PUSH1 0x0 MSTORE PUSH1 0x0 PUSH1 0x4 MSTORE PUSH1 0x24 PUSH1 0x0 REVERT JUMPDEST SWAP2 POP POP PUSH1 0x40 DUP2 RETURNDATASIZE PUSH1 0x40 GT PUSH2 0xB23 JUMPI JUMPDEST DUP2 PUSH2 0xB0E PUSH1 0x40 SWAP4 DUP4 PUSH2 0x1308 JUMP JUMPDEST DUP2 ADD SUB SLT PUSH2 0x141 JUMPI PUSH1 0x20 DUP2 MLOAD SWAP2 ADD MLOAD DUP7 PUSH2 0x921 JUMP JUMPDEST RETURNDATASIZE SWAP2 POP PUSH2 0xB01 JUMP JUMPDEST DUP3 MLOAD PUSH32 0x92DA81CC62C0EFA31ECF38ECBDD2FB28ADD3E9AF1063DDE557CB388D8F9B3EF2 PUSH1 0x20 PUSH2 0xB59 DUP8 PUSH2 0x1561 JUMP JUMPDEST SWAP3 PUSH1 0x40 MLOAD SWAP1 DUP2 MSTORE LOG2 STOP JUMPDEST SWAP1 POP DUP5 ADD MLOAD DUP6 PUSH2 0x89C JUMP JUMPDEST PUSH1 0x1F NOT DUP2 AND SWAP5 DUP3 PUSH1 0x0 MSTORE PUSH1 0x20 PUSH1 0x0 KECCAK256 SWAP1 PUSH1 0x0 JUMPDEST DUP8 DUP2 LT PUSH2 0xBBB JUMPI POP DUP3 PUSH1 0x1 SWAP5 SWAP6 SWAP7 SWAP8 LT PUSH2 0xBA2 JUMPI JUMPDEST POP POP DUP2 SHL ADD DUP2 SSTORE PUSH2 0x8B0 JUMP JUMPDEST DUP7 ADD MLOAD PUSH1 0x0 NOT PUSH1 0xF8 DUP5 PUSH1 0x3 SHL AND SHR NOT AND SWAP1 SSTORE DUP6 DUP1 PUSH2 0xB96 JUMP JUMPDEST SWAP1 SWAP2 PUSH1 0x20 PUSH1 0x1 DUP2 SWAP3 DUP6 DUP11 ADD MLOAD DUP2 SSTORE ADD SWAP4 ADD SWAP2 ADD PUSH2 0xB81 JUMP JUMPDEST DUP2 PUSH1 0x0 MSTORE PUSH1 0x20 PUSH1 0x0 KECCAK256 PUSH1 0x1F DUP7 ADD PUSH1 0x5 SHR DUP2 ADD SWAP2 PUSH1 0x20 DUP8 LT PUSH2 0xC11 JUMPI JUMPDEST PUSH1 0x1F ADD PUSH1 0x5 SHR ADD SWAP1 JUMPDEST DUP2 DUP2 LT PUSH2 0xC05 JUMPI POP PUSH2 0x880 JUMP JUMPDEST PUSH1 0x0 DUP2 SSTORE PUSH1 0x1 ADD PUSH2 0xBF8 JUMP JUMPDEST SWAP1 SWAP2 POP DUP2 SWAP1 PUSH2 0xBEF JUMP JUMPDEST PUSH1 0x40 MLOAD PUSH3 0x461BCD PUSH1 0xE5 SHL DUP2 MSTORE PUSH1 0x20 PUSH1 0x4 DUP3 ADD MSTORE PUSH1 0x1C PUSH1 0x24 DUP3 ADD MSTORE PUSH32 0x526F79616C7469657320616C7265616479207265676973746572656400000000 PUSH1 0x44 DUP3 ADD MSTORE PUSH1 0x64 SWAP1 REVERT JUMPDEST DUP4 CALLDATALOAD PUSH1 0x1 PUSH1 0x1 PUSH1 0x40 SHL SUB DUP2 GT PUSH2 0x141 JUMPI PUSH1 0x20 SWAP2 PUSH2 0xC84 DUP4 SWAP3 PUSH1 0x24 CALLDATASIZE SWAP2 DUP8 ADD ADD PUSH2 0x1344 JUMP JUMPDEST DUP2 MSTORE ADD SWAP4 ADD SWAP3 PUSH2 0x804 JUMP JUMPDEST CALLVALUE PUSH2 0x141 JUMPI PUSH1 0x20 CALLDATASIZE PUSH1 0x3 NOT ADD SLT PUSH2 0x141 JUMPI PUSH1 0x4 CALLDATALOAD PUSH1 0x1 PUSH1 0x1 PUSH1 0xA0 SHL SUB DUP2 AND SWAP1 DUP2 SWAP1 SUB PUSH2 0x141 JUMPI PUSH2 0xCBD PUSH2 0x14CA JUMP JUMPDEST PUSH12 0xFFFFFFFFFFFFFFFFFFFFFFFF PUSH1 0xA0 SHL PUSH1 0x2 SLOAD AND OR PUSH1 0x2 SSTORE PUSH1 0x0 DUP1 RETURN JUMPDEST CALLVALUE PUSH2 0x141 JUMPI PUSH1 0x0 CALLDATASIZE PUSH1 0x3 NOT ADD SLT PUSH2 0x141 JUMPI PUSH2 0xCF3 PUSH2 0x169B JUMP JUMPDEST CALLER PUSH1 0x0 MSTORE PUSH1 0x20 PUSH1 0x3 DUP2 MSTORE PUSH1 0x40 PUSH1 0x0 KECCAK256 SLOAD SWAP1 DUP2 ISZERO PUSH2 0xDC6 JUMPI CALLER PUSH1 0x0 MSTORE PUSH1 0x3 DUP2 MSTORE PUSH1 0x0 PUSH1 0x40 DUP2 KECCAK256 SSTORE PUSH1 0x0 DUP1 DUP1 DUP1 DUP6 CALLER GAS CALL RETURNDATASIZE ISZERO PUSH2 0xDC1 JUMPI RETURNDATASIZE PUSH2 0xD32 DUP2 PUSH2 0x1329 JUMP JUMPDEST SWAP1 PUSH2 0xD40 PUSH1 0x40 MLOAD SWAP3 DUP4 PUSH2 0x1308 JUMP JUMPDEST DUP2 MSTORE PUSH1 0x0 DUP4 RETURNDATASIZE SWAP3 ADD RETURNDATACOPY JUMPDEST ISZERO PUSH2 0xD87 JUMPI PUSH1 0x0 SWAP1 PUSH1 0x40 MLOAD SWAP3 DUP4 MSTORE DUP3 ADD MSTORE PUSH32 0x6FE778711F06CA052305B633BA1B304F4D71C1523776F2AA3059D8D99F5420DE PUSH1 0x40 CALLER SWAP3 LOG2 PUSH1 0x1 DUP1 SSTORE STOP JUMPDEST PUSH1 0x64 SWAP1 PUSH1 0x40 MLOAD SWAP1 PUSH3 0x461BCD PUSH1 0xE5 SHL DUP3 MSTORE PUSH1 0x4 DUP3 ADD MSTORE PUSH1 0x13 PUSH1 0x24 DUP3 ADD MSTORE PUSH19 0x115512081D1C985B9CD9995C8819985A5B1959 PUSH1 0x6A SHL PUSH1 0x44 DUP3 ADD MSTORE REVERT JUMPDEST PUSH2 0xD4A JUMP JUMPDEST PUSH1 0x64 SWAP1 PUSH1 0x40 MLOAD SWAP1 PUSH3 0x461BCD PUSH1 0xE5 SHL DUP3 MSTORE PUSH1 0x4 DUP3 ADD MSTORE PUSH1 0x18 PUSH1 0x24 DUP3 ADD MSTORE PUSH32 0x4E6F2070656E64696E672045544820726F79616C746965730000000000000000 PUSH1 0x44 DUP3 ADD MSTORE REVERT JUMPDEST CALLVALUE PUSH2 0x141 JUMPI PUSH1 0x0 CALLDATASIZE PUSH1 0x3 NOT ADD SLT PUSH2 0x141 JUMPI PUSH1 0x0 SLOAD PUSH1 0x40 MLOAD PUSH1 0x1 PUSH1 0x1 PUSH1 0xA0 SHL SUB SWAP1 SWAP2 AND DUP2 MSTORE PUSH1 0x20 SWAP1 RETURN JUMPDEST CALLVALUE PUSH2 0x141 JUMPI PUSH1 0x0 CALLDATASIZE PUSH1 0x3 NOT ADD SLT PUSH2 0x141 JUMPI PUSH2 0xE4C PUSH2 0x14CA JUMP JUMPDEST PUSH1 0x0 DUP1 SLOAD PUSH1 0x1 PUSH1 0x1 PUSH1 0xA0 SHL SUB NOT DUP2 AND DUP3 SSTORE PUSH1 0x1 PUSH1 0x1 PUSH1 0xA0 SHL SUB AND PUSH32 0x8BE0079C531659141344CD1FD0A4F28419497F9722A3DAAFE3B4186F6B6457E0 DUP3 DUP1 LOG3 STOP JUMPDEST CALLVALUE PUSH2 0x141 JUMPI PUSH1 0x20 CALLDATASIZE PUSH1 0x3 NOT ADD SLT PUSH2 0x141 JUMPI PUSH1 0x4 CALLDATALOAD PUSH1 0x1 PUSH1 0x1 PUSH1 0xA0 SHL SUB DUP2 AND SWAP1 DUP2 SWAP1 SUB PUSH2 0x141 JUMPI PUSH1 0x0 MSTORE PUSH1 0x4 PUSH1 0x20 MSTORE PUSH1 0x20 PUSH1 0x40 PUSH1 0x0 KECCAK256 SLOAD PUSH1 0x40 MLOAD SWAP1 DUP2 MSTORE RETURN JUMPDEST CALLVALUE PUSH2 0x141 JUMPI PUSH1 0x20 DUP1 PUSH1 0x3 NOT CALLDATASIZE ADD SLT PUSH2 0x141 JUMPI PUSH1 0x4 CALLDATALOAD PUSH1 0x1 PUSH1 0x1 PUSH1 0x40 SHL SUB DUP2 GT PUSH2 0x141 JUMPI PUSH2 0xEFB SWAP1 CALLDATASIZE SWAP1 PUSH1 0x4 ADD PUSH2 0x1344 JUMP JUMPDEST SWAP1 DUP1 PUSH2 0xF10 PUSH1 0x40 MLOAD SWAP4 DUP5 DUP2 MLOAD SWAP4 DUP5 SWAP3 ADD PUSH2 0x138B JUMP JUMPDEST DUP3 ADD PUSH1 0x5 DUP2 MSTORE DUP3 DUP3 PUSH1 0x1 SWAP5 DUP6 SWAP4 SUB ADD SWAP1 KECCAK256 ADD DUP1 SLOAD SWAP2 PUSH2 0xF2E DUP4 PUSH2 0x14B3 JUMP JUMPDEST SWAP3 PUSH2 0xF3C PUSH1 0x40 MLOAD SWAP5 DUP6 PUSH2 0x1308 JUMP JUMPDEST DUP1 DUP5 MSTORE DUP2 DUP5 ADD DUP1 SWAP4 PUSH1 0x0 MSTORE DUP3 PUSH1 0x0 KECCAK256 PUSH1 0x0 SWAP2 JUMPDEST DUP4 DUP4 LT PUSH2 0xFE4 JUMPI POP POP POP POP PUSH1 0x40 MLOAD SWAP4 DUP5 SWAP4 DUP3 DUP6 ADD SWAP1 DUP4 DUP7 MSTORE MLOAD DUP1 SWAP2 MSTORE PUSH1 0x40 DUP6 ADD SWAP3 PUSH1 0x40 DUP3 PUSH1 0x5 SHL DUP8 ADD ADD SWAP5 SWAP4 PUSH1 0x0 SWAP1 JUMPDEST DUP4 DUP3 LT PUSH2 0xF8C JUMPI DUP8 DUP8 SUB DUP9 RETURN JUMPDEST SWAP2 DUP5 SWAP7 DUP2 SWAP6 SWAP3 SWAP5 SWAP7 SWAP9 POP DUP2 SWAP1 PUSH1 0x3F NOT DUP12 DUP3 SUB ADD DUP6 MSTORE DUP10 MLOAD SWAP1 PUSH2 0xFB6 DUP3 MLOAD PUSH1 0x80 DUP1 DUP5 MSTORE DUP4 ADD SWAP1 PUSH2 0x148E JUMP JUMPDEST SWAP2 DUP4 DUP2 ADD MLOAD DUP5 DUP4 ADD MSTORE PUSH1 0x40 DUP2 ADD MLOAD PUSH1 0x40 DUP4 ADD MSTORE PUSH1 0x60 DUP1 SWAP2 ADD MLOAD SWAP2 ADD MSTORE SWAP9 ADD SWAP3 ADD SWAP3 ADD DUP8 SWAP7 SWAP6 SWAP4 SWAP2 SWAP5 SWAP3 PUSH2 0xF7F JUMP JUMPDEST SWAP7 PUSH1 0x4 DUP6 DUP3 SWAP8 SWAP9 SWAP7 SWAP10 PUSH2 0xFF6 DUP6 PUSH2 0x1581 JUMP JUMPDEST DUP2 MSTORE ADD SWAP3 ADD SWAP3 ADD SWAP2 SWAP1 SWAP7 SWAP4 SWAP6 SWAP5 SWAP7 PUSH2 0xF4F JUMP JUMPDEST CALLVALUE PUSH2 0x141 JUMPI PUSH1 0x20 CALLDATASIZE PUSH1 0x3 NOT ADD SLT PUSH2 0x141 JUMPI PUSH1 0x4 CALLDATALOAD PUSH1 0x1 PUSH1 0x1 PUSH1 0x40 SHL SUB DUP2 GT PUSH2 0x141 JUMPI PUSH2 0x1054 PUSH1 0x20 PUSH2 0x1041 PUSH2 0x1083 SWAP4 CALLDATASIZE SWAP1 PUSH1 0x4 ADD PUSH2 0x1344 JUMP JUMPDEST DUP2 PUSH1 0x40 MLOAD SWAP4 DUP3 DUP6 DUP1 SWAP5 MLOAD SWAP4 DUP5 SWAP3 ADD PUSH2 0x138B JUMP JUMPDEST DUP2 ADD PUSH1 0x5 DUP2 MSTORE SUB ADD SWAP1 KECCAK256 PUSH1 0xFF PUSH1 0x2 PUSH2 0x106B DUP4 PUSH2 0x13E8 JUMP JUMPDEST SWAP3 ADD SLOAD AND PUSH1 0x40 MLOAD SWAP3 DUP4 SWAP3 PUSH1 0x40 DUP5 MSTORE PUSH1 0x40 DUP5 ADD SWAP1 PUSH2 0x148E JUMP JUMPDEST SWAP1 ISZERO ISZERO PUSH1 0x20 DUP4 ADD MSTORE SUB SWAP1 RETURN JUMPDEST CALLVALUE PUSH2 0x141 JUMPI PUSH1 0x0 CALLDATASIZE PUSH1 0x3 NOT ADD SLT PUSH2 0x141 JUMPI PUSH1 0x20 PUSH1 0x40 MLOAD PUSH2 0x3E8 DUP2 MSTORE RETURN JUMPDEST CALLVALUE PUSH2 0x141 JUMPI PUSH1 0x0 CALLDATASIZE PUSH1 0x3 NOT ADD SLT PUSH2 0x141 JUMPI PUSH2 0x10C5 PUSH2 0x169B JUMP JUMPDEST CALLER PUSH1 0x0 MSTORE PUSH1 0x20 PUSH1 0x4 DUP2 MSTORE PUSH1 0x40 PUSH1 0x0 KECCAK256 SLOAD DUP1 ISZERO PUSH2 0x11DA JUMPI CALLER PUSH1 0x0 MSTORE PUSH1 0x4 DUP3 MSTORE PUSH1 0x0 PUSH1 0x40 DUP2 KECCAK256 SSTORE PUSH1 0x40 MLOAD PUSH4 0xA9059CBB PUSH1 0xE0 SHL DUP2 MSTORE CALLER PUSH1 0x4 DUP3 ADD MSTORE DUP2 PUSH1 0x24 DUP3 ADD MSTORE DUP3 DUP2 PUSH1 0x44 DUP2 PUSH1 0x0 PUSH1 0x1 DUP1 PUSH1 0xA0 SHL SUB PUSH32 0x0 AND GAS CALL SWAP1 DUP2 ISZERO PUSH2 0x3C1 JUMPI PUSH1 0x0 SWAP2 PUSH2 0x11BD JUMPI JUMPDEST POP ISZERO PUSH2 0x1181 JUMPI PUSH1 0x40 MLOAD SWAP2 PUSH1 0x0 DUP4 MSTORE DUP3 ADD MSTORE PUSH32 0x6FE778711F06CA052305B633BA1B304F4D71C1523776F2AA3059D8D99F5420DE PUSH1 0x40 CALLER SWAP3 LOG2 PUSH1 0x1 DUP1 SSTORE STOP JUMPDEST PUSH1 0x40 MLOAD PUSH3 0x461BCD PUSH1 0xE5 SHL DUP2 MSTORE PUSH1 0x4 DUP2 ADD DUP4 SWAP1 MSTORE PUSH1 0x14 PUSH1 0x24 DUP3 ADD MSTORE PUSH20 0x1554D110C81D1C985B9CD9995C8819985A5B1959 PUSH1 0x62 SHL PUSH1 0x44 DUP3 ADD MSTORE PUSH1 0x64 SWAP1 REVERT JUMPDEST PUSH2 0x11D4 SWAP2 POP DUP4 RETURNDATASIZE DUP6 GT PUSH2 0x61F JUMPI PUSH2 0x611 DUP2 DUP4 PUSH2 0x1308 JUMP JUMPDEST DUP4 PUSH2 0x1144 JUMP JUMPDEST PUSH1 0x40 MLOAD PUSH3 0x461BCD PUSH1 0xE5 SHL DUP2 MSTORE PUSH1 0x4 DUP2 ADD DUP4 SWAP1 MSTORE PUSH1 0x19 PUSH1 0x24 DUP3 ADD MSTORE PUSH32 0x4E6F2070656E64696E67205553444320726F79616C7469657300000000000000 PUSH1 0x44 DUP3 ADD MSTORE PUSH1 0x64 SWAP1 REVERT JUMPDEST CALLVALUE PUSH2 0x141 JUMPI PUSH1 0x20 CALLDATASIZE PUSH1 0x3 NOT ADD SLT PUSH2 0x141 JUMPI PUSH1 0x4 CALLDATALOAD PUSH1 0x1 PUSH1 0x1 PUSH1 0xA0 SHL SUB DUP2 AND SWAP1 DUP2 SWAP1 SUB PUSH2 0x141 JUMPI PUSH1 0x0 MSTORE PUSH1 0x3 PUSH1 0x20 MSTORE PUSH1 0x20 PUSH1 0x40 PUSH1 0x0 KECCAK256 SLOAD PUSH1 0x40 MLOAD SWAP1 DUP2 MSTORE RETURN JUMPDEST CALLVALUE PUSH2 0x141 JUMPI PUSH1 0x0 CALLDATASIZE PUSH1 0x3 NOT ADD SLT PUSH2 0x141 JUMPI PUSH1 0x40 MLOAD PUSH32 0x0 PUSH1 0x1 PUSH1 0x1 PUSH1 0xA0 SHL SUB AND DUP2 MSTORE PUSH1 0x20 SWAP1 RETURN JUMPDEST CALLVALUE PUSH2 0x141 JUMPI PUSH1 0x20 CALLDATASIZE PUSH1 0x3 NOT ADD SLT PUSH2 0x141 JUMPI PUSH1 0x4 CALLDATALOAD PUSH1 0x1 PUSH1 0x1 PUSH1 0xA0 SHL SUB DUP2 AND SWAP2 SWAP1 DUP3 SWAP1 SUB PUSH2 0x141 JUMPI PUSH1 0x40 SWAP2 PUSH1 0x0 MSTORE PUSH1 0x3 PUSH1 0x20 MSTORE DUP2 PUSH1 0x0 KECCAK256 SLOAD PUSH1 0x4 PUSH1 0x20 MSTORE DUP3 PUSH1 0x0 KECCAK256 SLOAD SWAP1 DUP3 MSTORE PUSH1 0x20 DUP3 ADD MSTORE RETURN JUMPDEST PUSH1 0x80 DUP2 ADD SWAP1 DUP2 LT PUSH1 0x1 PUSH1 0x1 PUSH1 0x40 SHL SUB DUP3 GT OR PUSH2 0xAC6 JUMPI PUSH1 0x40 MSTORE JUMP JUMPDEST SWAP1 PUSH1 0x1F DUP1 NOT SWAP2 ADD AND DUP2 ADD SWAP1 DUP2 LT PUSH1 0x1 PUSH1 0x1 PUSH1 0x40 SHL SUB DUP3 GT OR PUSH2 0xAC6 JUMPI PUSH1 0x40 MSTORE JUMP JUMPDEST PUSH1 0x1 PUSH1 0x1 PUSH1 0x40 SHL SUB DUP2 GT PUSH2 0xAC6 JUMPI PUSH1 0x1F ADD PUSH1 0x1F NOT AND PUSH1 0x20 ADD SWAP1 JUMP JUMPDEST DUP2 PUSH1 0x1F DUP3 ADD SLT ISZERO PUSH2 0x141 JUMPI DUP1 CALLDATALOAD SWAP1 PUSH2 0x135B DUP3 PUSH2 0x1329 JUMP JUMPDEST SWAP3 PUSH2 0x1369 PUSH1 0x40 MLOAD SWAP5 DUP6 PUSH2 0x1308 JUMP JUMPDEST DUP3 DUP5 MSTORE PUSH1 0x20 DUP4 DUP4 ADD ADD GT PUSH2 0x141 JUMPI DUP2 PUSH1 0x0 SWAP3 PUSH1 0x20 DUP1 SWAP4 ADD DUP4 DUP7 ADD CALLDATACOPY DUP4 ADD ADD MSTORE SWAP1 JUMP JUMPDEST PUSH1 0x0 JUMPDEST DUP4 DUP2 LT PUSH2 0x139E JUMPI POP POP PUSH1 0x0 SWAP2 ADD MSTORE JUMP JUMPDEST DUP2 DUP2 ADD MLOAD DUP4 DUP3 ADD MSTORE PUSH1 0x20 ADD PUSH2 0x138E JUMP JUMPDEST SWAP1 PUSH1 0x1 DUP3 DUP2 SHR SWAP3 AND DUP1 ISZERO PUSH2 0x13DE JUMPI JUMPDEST PUSH1 0x20 DUP4 LT EQ PUSH2 0x13C8 JUMPI JUMP JUMPDEST PUSH4 0x4E487B71 PUSH1 0xE0 SHL PUSH1 0x0 MSTORE PUSH1 0x22 PUSH1 0x4 MSTORE PUSH1 0x24 PUSH1 0x0 REVERT JUMPDEST SWAP2 PUSH1 0x7F AND SWAP2 PUSH2 0x13BD JUMP JUMPDEST SWAP1 PUSH1 0x40 MLOAD SWAP2 DUP3 PUSH1 0x0 DUP3 SLOAD SWAP3 PUSH2 0x13FC DUP5 PUSH2 0x13AE JUMP JUMPDEST SWAP1 DUP2 DUP5 MSTORE PUSH1 0x1 SWAP5 DUP6 DUP2 AND SWAP1 DUP2 PUSH1 0x0 EQ PUSH2 0x146B JUMPI POP PUSH1 0x1 EQ PUSH2 0x1428 JUMPI JUMPDEST POP POP PUSH2 0x1426 SWAP3 POP SUB DUP4 PUSH2 0x1308 JUMP JUMPDEST JUMP JUMPDEST SWAP1 SWAP4 SWAP2 POP PUSH1 0x0 MSTORE PUSH1 0x20 SWAP1 DUP2 PUSH1 0x0 KECCAK256 SWAP4 PUSH1 0x0 SWAP2 JUMPDEST DUP2 DUP4 LT PUSH2 0x1453 JUMPI POP POP PUSH2 0x1426 SWAP4 POP DUP3 ADD ADD CODESIZE DUP1 PUSH2 0x1418 JUMP JUMPDEST DUP6 SLOAD DUP9 DUP5 ADD DUP6 ADD MSTORE SWAP5 DUP6 ADD SWAP5 DUP8 SWAP5 POP SWAP2 DUP4 ADD SWAP2 PUSH2 0x143B JUMP JUMPDEST SWAP2 POP POP PUSH2 0x1426 SWAP5 POP PUSH1 0x20 SWAP3 POP PUSH1 0xFF NOT AND DUP3 DUP5 ADD MSTORE ISZERO ISZERO PUSH1 0x5 SHL DUP3 ADD ADD CODESIZE DUP1 PUSH2 0x1418 JUMP JUMPDEST SWAP1 PUSH1 0x20 SWAP2 PUSH2 0x14A7 DUP2 MLOAD DUP1 SWAP3 DUP2 DUP6 MSTORE DUP6 DUP1 DUP7 ADD SWAP2 ADD PUSH2 0x138B JUMP JUMPDEST PUSH1 0x1F ADD PUSH1 0x1F NOT AND ADD ADD SWAP1 JUMP JUMPDEST PUSH1 0x1 PUSH1 0x1 PUSH1 0x40 SHL SUB DUP2 GT PUSH2 0xAC6 JUMPI PUSH1 0x5 SHL PUSH1 0x20 ADD SWAP1 JUMP JUMPDEST PUSH1 0x0 SLOAD PUSH1 0x1 PUSH1 0x1 PUSH1 0xA0 SHL SUB AND CALLER SUB PUSH2 0x14DE JUMPI JUMP JUMPDEST PUSH1 0x40 MLOAD PUSH4 0x118CDAA7 PUSH1 0xE0 SHL DUP2 MSTORE CALLER PUSH1 0x4 DUP3 ADD MSTORE PUSH1 0x24 SWAP1 REVERT JUMPDEST PUSH1 0x0 NOT DUP2 EQ PUSH2 0x1505 JUMPI PUSH1 0x1 ADD SWAP1 JUMP JUMPDEST PUSH4 0x4E487B71 PUSH1 0xE0 SHL PUSH1 0x0 MSTORE PUSH1 0x11 PUSH1 0x4 MSTORE PUSH1 0x24 PUSH1 0x0 REVERT JUMPDEST DUP1 MLOAD DUP3 LT ISZERO PUSH2 0x152F JUMPI PUSH1 0x20 SWAP2 PUSH1 0x5 SHL ADD ADD SWAP1 JUMP JUMPDEST PUSH4 0x4E487B71 PUSH1 0xE0 SHL PUSH1 0x0 MSTORE PUSH1 0x32 PUSH1 0x4 MSTORE PUSH1 0x24 PUSH1 0x0 REVERT JUMPDEST DUP1 SLOAD DUP3 LT ISZERO PUSH2 0x152F JUMPI PUSH1 0x0 MSTORE PUSH1 0x20 PUSH1 0x0 KECCAK256 SWAP1 PUSH1 0x2 SHL ADD SWAP1 PUSH1 0x0 SWAP1 JUMP JUMPDEST PUSH2 0x1579 SWAP1 PUSH1 0x20 PUSH1 0x40 MLOAD SWAP3 DUP3 DUP5 DUP1 SWAP5 MLOAD SWAP4 DUP5 SWAP3 ADD PUSH2 0x138B JUMP JUMPDEST DUP2 ADD SUB SWAP1 KECCAK256 SWAP1 JUMP JUMPDEST SWAP1 PUSH1 0x40 MLOAD PUSH2 0x158E DUP2 PUSH2 0x12ED JUMP JUMPDEST PUSH1 0x60 PUSH1 0x3 DUP3 SWAP5 PUSH2 0x159D DUP2 PUSH2 0x13E8 JUMP JUMPDEST DUP5 MSTORE PUSH1 0x1 DUP2 ADD SLOAD PUSH1 0x20 DUP6 ADD MSTORE PUSH1 0x2 DUP2 ADD SLOAD PUSH1 0x40 DUP6 ADD MSTORE ADD SLOAD SWAP2 ADD MSTORE JUMP JUMPDEST SWAP2 SWAP1 DUP3 ADD DUP1 SWAP3 GT PUSH2 0x1505 JUMPI JUMP JUMPDEST SWAP1 PUSH1 0x0 DUP1 SWAP3 PUSH2 0x15E6 PUSH1 0x20 PUSH1 0x40 SWAP3 DUP2 DUP5 MLOAD SWAP4 DUP3 DUP6 DUP1 SWAP5 MLOAD SWAP4 DUP5 SWAP3 ADD PUSH2 0x138B JUMP JUMPDEST DUP2 ADD PUSH1 0x5 DUP2 MSTORE SUB ADD SWAP1 KECCAK256 SWAP1 PUSH1 0xFF PUSH1 0x2 DUP4 ADD SLOAD AND ISZERO PUSH2 0x1657 JUMPI PUSH1 0x1 PUSH1 0x0 SWAP3 ADD SWAP1 DUP2 SLOAD SWAP2 JUMPDEST DUP3 DUP5 LT PUSH2 0x1618 JUMPI POP POP POP POP SWAP2 SWAP1 JUMP JUMPDEST SWAP1 SWAP2 SWAP3 SWAP6 PUSH2 0x1649 PUSH2 0x164F SWAP2 PUSH1 0x60 PUSH2 0x1640 PUSH2 0x1635 PUSH2 0x2B7 DUP13 DUP9 PUSH2 0x1545 JUMP JUMPDEST SWAP9 DUP8 DUP11 ADD MLOAD SWAP1 PUSH2 0x15BA JUMP JUMPDEST SWAP8 ADD MLOAD SWAP1 PUSH2 0x15BA JUMP JUMPDEST SWAP7 PUSH2 0x14F6 JUMP JUMPDEST SWAP3 SWAP2 SWAP1 PUSH2 0x1609 JUMP JUMPDEST POP POP POP SWAP1 POP PUSH1 0x0 SWAP1 PUSH1 0x0 SWAP1 JUMP JUMPDEST SWAP1 DUP2 PUSH1 0x20 SWAP2 SUB SLT PUSH2 0x141 JUMPI MLOAD DUP1 ISZERO ISZERO DUP2 SUB PUSH2 0x141 JUMPI SWAP1 JUMP JUMPDEST SWAP1 DUP2 PUSH1 0x20 SWAP2 SUB SLT PUSH2 0x141 JUMPI MLOAD PUSH1 0x1 PUSH1 0x1 PUSH1 0xA0 SHL SUB DUP2 AND DUP2 SUB PUSH2 0x141 JUMPI SWAP1 JUMP JUMPDEST PUSH1 0x2 PUSH1 0x1 SLOAD EQ PUSH2 0x16AC JUMPI PUSH1 0x2 PUSH1 0x1 SSTORE JUMP JUMPDEST PUSH1 0x40 MLOAD PUSH4 0x3EE5AEB5 PUSH1 0xE0 SHL DUP2 MSTORE PUSH1 0x4 SWAP1 REVERT INVALID LOG2 PUSH5 0x6970667358 0x22 SLT KECCAK256 PUSH22 0x4485F2C97A735F4533A4D4024C4308F689F00322D75 PUSH32 0xF03D532F8A9C4FD164736F6C6343000814003300000000000000000000000000 "},"methodIdentifiers":{"PERCENTAGE_DENOMINATOR()":"b3cd4254","ROYALTY_PERCENTAGE()":"463b08db","USDC_ADDRESS()":"bb09d9b7","calculateTotalRoyalties(string)":"f8a76dfb","claimRoyaltiesETH()":"902509c2","claimRoyaltiesUSDC()":"1ed6c599","getPendingRoyalties(address)":"024fa0d6","getProjectDependencies(string)":"50fd8e71","libraryContract()":"ce0769c5","owner()":"8da5cb5b","pendingRoyaltiesETH(address)":"141b5f02","pendingRoyaltiesUSDC(address)":"5bf4b5c4","projectRoyalties(string)":"4aa8a12d","recordRoyalties(string,uint256,uint8)":"c5787690","registerProjectRoyalties(string,string[])":"b1ee838e","renounceOwnership()":"715018a6","setLibraryContract(address)":"956456d9","transferOwnership(address)":"f2fde38b","usdcToken()":"11eac855"}}}}}