{"ClayLibrary.sol":{"ClayLibrary":{"abi":[{"inputs":[{"internalType":"address","name":"_royaltyContract","type":"address"}],"stateMutability":"nonpayable","type":"constructor"},{"inputs":[{"internalType":"address","name":"owner","type":"address"}],"name":"OwnableInvalidOwner","type":"error"},{"inputs":[{"internalType":"address","name":"account","type":"address"}],"name":"OwnableUnauthorizedAccount","type":"error"},{"inputs":[],"name":"ReentrancyGuardReentrantCall","type":"error"},{"anonymous":false,"inputs":[{"indexed":true,"internalType":"string","name":"projectId","type":"string"},{"indexed":true,"internalType":"address","name":"owner","type":"address"}],"name":"AssetDeactivated","type":"event"},{"anonymous":false,"inputs":[{"indexed":true,"internalType":"string","name":"projectId","type":"string"},{"indexed":false,"internalType":"uint256","name":"oldPrice","type":"uint256"},{"indexed":false,"internalType":"uint256","name":"newPrice","type":"uint256"}],"name":"AssetPriceUpdated","type":"event"},{"anonymous":false,"inputs":[{"indexed":true,"internalType":"string","name":"projectId","type":"string"},{"indexed":true,"internalType":"address","name":"buyer","type":"address"},{"indexed":true,"internalType":"address","name":"currentOwner","type":"address"},{"indexed":false,"internalType":"uint256","name":"price","type":"uint256"},{"indexed":false,"internalType":"uint256","name":"platformFee","type":"uint256"}],"name":"AssetPurchased","type":"event"},{"anonymous":false,"inputs":[{"indexed":true,"internalType":"string","name":"projectId","type":"string"},{"indexed":true,"internalType":"address","name":"creator","type":"address"},{"indexed":false,"internalType":"string","name":"name","type":"string"},{"indexed":false,"internalType":"uint256","name":"price","type":"uint256"}],"name":"AssetRegistered","type":"event"},{"anonymous":false,"inputs":[{"indexed":true,"internalType":"address","name":"previousOwner","type":"address"},{"indexed":true,"internalType":"address","name":"newOwner","type":"address"}],"name":"OwnershipTransferStarted","type":"event"},{"anonymous":false,"inputs":[{"indexed":true,"internalType":"address","name":"previousOwner","type":"address"},{"indexed":true,"internalType":"address","name":"newOwner","type":"address"}],"name":"OwnershipTransferred","type":"event"},{"anonymous":false,"inputs":[{"indexed":true,"internalType":"string","name":"projectId","type":"string"},{"indexed":true,"internalType":"address","name":"previousOwner","type":"address"},{"indexed":true,"internalType":"address","name":"newOwner","type":"address"}],"name":"OwnershipTransferred","type":"event"},{"inputs":[],"name":"FEE_DENOMINATOR","outputs":[{"internalType":"uint256","name":"","type":"uint256"}],"stateMutability":"view","type":"function"},{"inputs":[],"name":"USDC_ADDRESS","outputs":[{"internalType":"address","name":"","type":"address"}],"stateMutability":"view","type":"function"},{"inputs":[],"name":"acceptOwnership","outputs":[],"stateMutability":"nonpayable","type":"function"},{"inputs":[{"internalType":"uint256","name":"","type":"uint256"}],"name":"allAssetIds","outputs":[{"internalType":"string","name":"","type":"string"}],"stateMutability":"view","type":"function"},{"inputs":[{"internalType":"address","name":"","type":"address"}],"name":"approvedMarketplaces","outputs":[{"internalType":"bool","name":"","type":"bool"}],"stateMutability":"view","type":"function"},{"inputs":[{"internalType":"string","name":"","type":"string"},{"internalType":"uint256","name":"","type":"uint256"}],"name":"assetPurchasers","outputs":[{"internalType":"address","name":"","type":"address"}],"stateMutability":"view","type":"function"},{"inputs":[{"internalType":"string","name":"projectId","type":"string"}],"name":"deactivateAsset","outputs":[],"stateMutability":"nonpayable","type":"function"},{"inputs":[{"internalType":"string","name":"projectId","type":"string"}],"name":"getAsset","outputs":[{"components":[{"internalType":"string","name":"projectId","type":"string"},{"internalType":"string","name":"name","type":"string"},{"internalType":"string","name":"description","type":"string"},{"internalType":"uint256","name":"priceETH","type":"uint256"},{"internalType":"uint256","name":"priceUSDC","type":"uint256"},{"internalType":"address","name":"currentOwner","type":"address"},{"internalType":"address","name":"originalCreator","type":"address"},{"internalType":"uint256","name":"totalRevenueETH","type":"uint256"},{"internalType":"uint256","name":"totalRevenueUSDC","type":"uint256"},{"internalType":"uint256","name":"purchaseCount","type":"uint256"},{"internalType":"uint256","name":"listedAt","type":"uint256"},{"internalType":"bool","name":"isActive","type":"bool"}],"internalType":"struct ClayLibrary.LibraryAsset","name":"","type":"tuple"}],"stateMutability":"view","type":"function"},{"inputs":[{"internalType":"uint256","name":"index","type":"uint256"}],"name":"getAssetIdByIndex","outputs":[{"internalType":"string","name":"","type":"string"}],"stateMutability":"view","type":"function"},{"inputs":[{"internalType":"string","name":"projectId","type":"string"}],"name":"getAssetPurchasers","outputs":[{"internalType":"address[]","name":"","type":"address[]"}],"stateMutability":"view","type":"function"},{"inputs":[{"internalType":"string","name":"projectId","type":"string"}],"name":"getCurrentOwner","outputs":[{"internalType":"address","name":"","type":"address"}],"stateMutability":"view","type":"function"},{"inputs":[],"name":"getTotalAssets","outputs":[{"internalType":"uint256","name":"","type":"uint256"}],"stateMutability":"view","type":"function"},{"inputs":[{"internalType":"address","name":"user","type":"address"}],"name":"getUserAssets","outputs":[{"internalType":"string[]","name":"","type":"string[]"}],"stateMutability":"view","type":"function"},{"inputs":[{"internalType":"string","name":"","type":"string"}],"name":"libraryAssets","outputs":[{"internalType":"string","name":"projectId","type":"string"},{"internalType":"string","name":"name","type":"string"},{"internalType":"string","name":"description","type":"string"},{"internalType":"uint256","name":"priceETH","type":"uint256"},{"internalType":"uint256","name":"priceUSDC","type":"uint256"},{"internalType":"address","name":"currentOwner","type":"address"},{"internalType":"address","name":"originalCreator","type":"address"},{"internalType":"uint256","name":"totalRevenueETH","type":"uint256"},{"internalType":"uint256","name":"totalRevenueUSDC","type":"uint256"},{"internalType":"uint256","name":"purchaseCount","type":"uint256"},{"internalType":"uint256","name":"listedAt","type":"uint256"},{"internalType":"bool","name":"isActive","type":"bool"}],"stateMutability":"view","type":"function"},{"inputs":[],"name":"owner","outputs":[{"internalType":"address","name":"","type":"address"}],"stateMutability":"view","type":"function"},{"inputs":[],"name":"pendingOwner","outputs":[{"internalType":"address","name":"","type":"address"}],"stateMutability":"view","type":"function"},{"inputs":[],"name":"platformFeePercentage","outputs":[{"internalType":"uint256","name":"","type":"uint256"}],"stateMutability":"view","type":"function"},{"inputs":[{"internalType":"string","name":"projectId","type":"string"}],"name":"purchaseAssetWithETH","outputs":[],"stateMutability":"payable","type":"function"},{"inputs":[{"internalType":"string","name":"projectId","type":"string"}],"name":"purchaseAssetWithUSDC","outputs":[],"stateMutability":"nonpayable","type":"function"},{"inputs":[{"internalType":"string","name":"projectId","type":"string"},{"internalType":"string","name":"name","type":"string"},{"internalType":"string","name":"description","type":"string"},{"internalType":"uint256","name":"priceETH","type":"uint256"},{"internalType":"uint256","name":"priceUSDC","type":"uint256"}],"name":"registerAsset","outputs":[],"stateMutability":"nonpayable","type":"function"},{"inputs":[],"name":"renounceOwnership","outputs":[],"stateMutability":"nonpayable","type":"function"},{"inputs":[],"name":"royaltyContract","outputs":[{"internalType":"contract IClayRoyalty","name":"","type":"address"}],"stateMutability":"view","type":"function"},{"inputs":[{"internalType":"address","name":"marketplace","type":"address"},{"internalType":"bool","name":"approved","type":"bool"}],"name":"setApprovedMarketplace","outputs":[],"stateMutability":"nonpayable","type":"function"},{"inputs":[{"internalType":"address","name":"_royaltyContract","type":"address"}],"name":"setRoyaltyContract","outputs":[],"stateMutability":"nonpayable","type":"function"},{"inputs":[{"internalType":"string","name":"projectId","type":"string"},{"internalType":"address","name":"newOwner","type":"address"}],"name":"transferAssetOwnership","outputs":[],"stateMutability":"nonpayable","type":"function"},{"inputs":[{"internalType":"address","name":"newOwner","type":"address"}],"name":"transferOwnership","outputs":[],"stateMutability":"nonpayable","type":"function"},{"inputs":[{"internalType":"string","name":"projectId","type":"string"},{"internalType":"uint256","name":"newPriceETH","type":"uint256"},{"internalType":"uint256","name":"newPriceUSDC","type":"uint256"}],"name":"updateAssetPrice","outputs":[],"stateMutability":"nonpayable","type":"function"},{"inputs":[{"internalType":"uint256","name":"newFeePercentage","type":"uint256"}],"name":"updatePlatformFee","outputs":[],"stateMutability":"nonpayable","type":"function"},{"inputs":[],"name":"usdcToken","outputs":[{"internalType":"contract IERC20","name":"","type":"address"}],"stateMutability":"view","type":"function"},{"inputs":[{"internalType":"address","name":"","type":"address"},{"internalType":"uint256","name":"","type":"uint256"}],"name":"userOwnedAssets","outputs":[{"internalType":"string","name":"","type":"string"}],"stateMutability":"view","type":"function"},{"inputs":[],"name":"withdrawPlatformFeesETH","outputs":[],"stateMutability":"nonpayable","type":"function"},{"inputs":[],"name":"withdrawPlatformFeesUSDC","outputs":[],"stateMutability":"nonpayable","type":"function"}],"evm":{"bytecode":{"linkReferences":{},"object":"60a03461010857601f620029a538819003918201601f19168301916001600160401b0383118484101761010d5780849260209460405283398101031261010857516001600160a01b0390818116908190036101085733156100ef5760018060a01b031980600154166001556000543382821617600055604051933391167f8be0079c531659141344cd1fd0a4f28419497f9722a3daafe3b4186f6b6457e0600080a3600160025560fa60095573833589fcd6edb6e08f4c7c32d4f71b54bda029136080526003541617600355612881908162000124823960805181818161063101528181610b400152611e9b0152f35b604051631e4fbdf760e01b815260006004820152602490fd5b600080fd5b634e487b7160e01b600052604160045260246000fdfe6080604052600436101561001257600080fd5b6000803560e01c80630f393baf14611eca57806311eac85514611e855780631663ee0314611e5c5780632203f8f114611ad357806351618eff146119a5578063543a9eb9146119665780635d483ab91461191a5780636cb3db25146118035780636e07302b146117e5578063715018a614611780578063765ff0611461168057806379ba5097146116025780638ada33dc146112ca5780638bccf009146112435780638c5deff8146111d45780638da5cb5b146111ad5780639c521838146111265780639ff95b8e14611041578063aa0b598814610fd7578063bb09d9b714610fa8578063bbf46b8414610f52578063cd5286d014610d30578063cdd78cfc14610d12578063d55a772d14610cc5578063d73792a914610ca8578063d9aa187c14610c63578063dceb768614610b07578063e30c397814610ade578063e814d66b14610a91578063f2fde38b14610a24578063fb0558461461054a5763ff6c0dde1461017d57600080fd5b346105475760a0366003190112610547576001600160401b03600435818111610543576101ae903690600401612102565b9060243581811161053f576101c7903690600401612102565b9060443590811161053f576101e0903690600401612102565b9160643591608435938251156104fa5783158015906104f1575b61020390612316565b60405194835160ff600b6020988981818a01956102218183896122ba565b810160058152030190200154166104ac5760035485926001600160a01b03928a928a9290851680610429575b5060405196879561025d876120aa565b878752848701928a845260408801928352606088018d81526080890191825260a089019333855260c08a019533875260e08b01978a89526101008c01998b8b526101208d019b8c526101408d019c8d429052610160019d60018f52604051809381925180926102cb926122ba565b81016005815203019020809d516102e191612462565b516102ef9060018e01612462565b516102fd9060028d01612462565b5160038b01555160048a01558060058a01925116916bffffffffffffffffffffffff60a01b9283825416179055600689019251169082541617905551600786015551600885015551600984015551600a83015551151590600b019061036d919060ff801983541691151516179055565b3385526007845281604086209061038391612529565b600854600160401b811015610413578060016103a29201600855612164565b6103fd57826103d57f585d38ebcb0fe93ced4d64fbb112388b85b7726e7d87c5142521434d4f122384946103da93612462565b612556565b926103f0604051926040845260408401906122dd565b948201528033940390a380f35b634e487b7160e01b600052600060045260246000fd5b634e487b7160e01b600052604160045260246000fd5b908093918b61044f98604051998a948593849363010d358360e21b85526004850161237a565b03915afa9182156104a15761046e8b938a978691610474575b5061239c565b3861024d565b6104949150853d871161049a575b61048c81836120c6565b810190612362565b38610468565b503d610482565b6040513d85823e3d90fd5b60405162461bcd60e51b815260048101889052601860248201527f417373657420616c7265616479207265676973746572656400000000000000006044820152606490fd5b508415156101fa565b60405162461bcd60e51b815260206004820152601a60248201527f50726f6a6563742049442063616e6e6f7420626520656d7074790000000000006044820152606490fd5b8380fd5b8280fd5b80fd5b503461054757602080600319360112610a20576004356001600160401b0381116105435761057c903690600401612102565b6105846126c8565b6040519181519281818185019561059c8183896122ba565b81016005815203019020926105b760ff600b86015416612576565b600484019384549182156109ca576003546001600160a01b039288929184168061093d575b506105f76127106105ef600954886125f1565b048096612604565b6005820180546040516323b872dd60e01b8082523360048301529188166001600160a01b03166024820152604481019390935290949092917f00000000000000000000000000000000000000000000000000000000000000008716908c908a8160648185875af1801561083b578261067c8c928e946106a69691610920575b50612641565b60405188815233600482015230602482015260448101929092529092839190829081906064820190565b0391865af1908115610915578d916108f8575b50156108b3579088918161077a575b5050506009915088546106e0600883019182546125ce565b905501805490600182018092116107665761072e9493926107249261071092556040519182918a519283916122ba565b81019060068252878133930301902061268d565b5416945493612556565b916040519384528301527f9f1cf37e6808c30667b45ef497cdbe9240ff2b62734e74189ac2c7f4a76d487d60403393a4600160025580f35b634e487b7160e01b8a52601160045260248afd5b60035460405195865233600487015288166001600160a01b031660248601526044850191909152919291829060649082908e905af19081156108a8578a9161088b575b501561084657888460035416895490803b15610543576107fe83918b83604051809681958294630c57876960e41b84526060600485015260648401906122dd565b9060248301526001604483015203925af1801561083b57610823575b829188916106c8565b61082c90612097565b61083757883861081a565b8880fd5b6040513d84823e3d90fd5b60405162461bcd60e51b815260048101879052601760248201527f526f79616c7479207472616e73666572206661696c65640000000000000000006044820152606490fd5b6108a29150873d891161049a5761048c81836120c6565b386107bd565b6040513d8c823e3d90fd5b60405162461bcd60e51b8152600481018a9052601c60248201527f506c6174666f726d20666565207472616e73666572206661696c6564000000006044820152606490fd5b61090f91508a3d8c1161049a5761048c81836120c6565b386106b9565b6040513d8f823e3d90fd5b6109379150853d871161049a5761048c81836120c6565b38610676565b60408051635fb8273360e11b81526060600482015292945090829081808d610968606483018e6122dd565b9060248301528a604483015203915afa9081156109bf57899161098e575b5091386105dc565b6109b0915060403d6040116109b8575b6109a881836120c6565b8101906125b8565b905038610986565b503d61099e565b6040513d8b823e3d90fd5b60405162461bcd60e51b815260048101859052602860248201527f55534443207061796d656e74206e6f7420616363657074656420666f722074686044820152671a5cc8185cdcd95d60c21b6064820152608490fd5b5080fd5b503461054757602036600319011261054757610a3e61214e565b610a46612302565b600180546001600160a01b0319166001600160a01b0392831690811790915582549091167f38d16b8cac22d99fc7c124b9cd0de2d3fa1faef420bfe791d8c362d765e227008380a380f35b5034610547576020366003190112610547576004359060085482101561054757610ada610ac6610ac084612164565b906122a9565b6040519182916020835260208301906122dd565b0390f35b50346105475780600319360112610547576001546040516001600160a01b039091168152602090f35b5034610547578060031936011261054757610b20612302565b6040516370a0823160e01b81523060048201526020906001600160a01b037f0000000000000000000000000000000000000000000000000000000000000000811691908382602481865afa918215610c58578592610c25575b508115610be057906044849286541686604051958694859363a9059cbb60e01b8552600485015260248401525af19081156104a157610bc0928492610bc3575b505061272f565b80f35b610bd99250803d1061049a5761048c81836120c6565b3880610bb9565b60405162461bcd60e51b815260048101859052601860248201527f4e6f2055534443206665657320746f20776974686472617700000000000000006044820152606490fd5b9091508381813d8311610c51575b610c3d81836120c6565b81010312610c4d57519038610b79565b8480fd5b503d610c33565b6040513d87823e3d90fd5b503461054757602036600319011261054757610c7d61214e565b610c85612302565b60018060a01b03166bffffffffffffffffffffffff60a01b600354161760035580f35b503461054757806003193601126105475760206040516127108152f35b503461054757602036600319011261054757600435906001600160401b038211610547576020610d00610cfb3660048601612102565b6126e9565b6040516001600160a01b039091168152f35b50346105475780600319360112610547576020600954604051908152f35b5034610547576020366003190112610547576004356001600160401b038111610a2057610dd091610d676020923690600401612102565b90610160604051610d77816120aa565b60608152606085820152606060408201528260608201528260808201528260a08201528260c08201528260e0820152826101008201528261012082015282610140820152015281604051938285809451938492016122ba565b8101600581520301902060ff600b60405192610deb846120aa565b610df481612203565b8452610e0260018201612203565b6020850152610e1360028201612203565b6040850152600381015460608501526004810154608085015260018060a01b0360058201541660a085015260018060a01b0360068201541660c0850152600781015460e085015260088101546101008501526009810154610120850152600a8101546101408501520154161515610160820152604051809160208252610160610ede610ead835161018060208701526101a08601906122dd565b610ec9602085015191601f1992838883030160408901526122dd565b906040850151908683030160608701526122dd565b9160608101516080850152608081015160a085015260018060a01b0360a08201511660c085015260018060a01b0360c08201511660e085015260e081015161010085015261010081015161012085015261012081015161014085015261014081015182850152015115156101808301520390f35b503461054757604036600319011261054757610f6c61214e565b602435801515810361054357610bc091610f84612302565b60018060a01b031683526004602052604083209060ff801983541691151516179055565b5034610547578060031936011261054757602060405173833589fcd6edb6e08f4c7c32d4f71b54bda029138152f35b503461054757602036600319011261054757600435610ff4612302565b6103e881116110035760095580f35b60405162461bcd60e51b815260206004820152601660248201527546656520746f6f206869676820286d6178203130252960501b6044820152606490fd5b503461054757602080600319360112610a20576004356001600160401b038111610543578161107761108a923690600401612102565b81604051938285809451938492016122ba565b8101600681520301902060405192838383549182815201908193835284832090835b81811061110957505050846110c29103856120c6565b60405193838594850191818652518092526040850193925b8281106110e957505050500390f35b83516001600160a01b0316855286955093810193928101926001016110da565b82546001600160a01b0316845292860192600192830192016110ac565b503461054757806003193601126105475761113f612302565b4780156111685781808080610bc09460018060a01b038254165af1611162612611565b5061272f565b60405162461bcd60e51b815260206004820152601760248201527f4e6f20455448206665657320746f2077697468647261770000000000000000006044820152606490fd5b5034610547578060031936011261054757546040516001600160a01b039091168152602090f35b50346105475760203660031901126105475760043560085481101561120857610ac6611202610ada92612164565b50612203565b60405162461bcd60e51b8152602060048201526013602482015272496e646578206f7574206f6620626f756e647360681b6044820152606490fd5b5034610547576040366003190112610547576004356001600160401b038111610a2057611274903690600401612102565b9061129160206024359381604051938285809451938492016122ba565b810160068152030190209081548310156105475760206112b184846121b1565b905460405160039290921b1c6001600160a01b03168152f35b50602080600319360112610a20576004356001600160401b038111610543576112f7903690600401612102565b6112ff6126c8565b604051918151928181818501956113178183896122ba565b810160058152030190209261133260ff600b86015416612576565b600384019384549081156115ad576003546001600160a01b0392908316908882611542575b61136181836125ce565b928334106114ec57908a9181611487575b50505050865493600961139461271061138c8354896125f1565b048097612604565b936113af8b80808060058601998b8b54165af1610676612611565b89546113c0600783019182546125ce565b9055018054906001820180921161147357878b9493611400936113ef9355604051809381928d519283916122ba565b81016006815203019020339061268d565b803411611419575b50509061072e915416945493612556565b8180611426819334612604565b335af1611431612611565b501561143e578638611408565b60405162461bcd60e51b815260048101859052600d60248201526c1499599d5b990819985a5b1959609a1b6044820152606490fd5b634e487b7160e01b8b52601160045260248bfd5b803b1561054357604051630c57876960e41b815260606004820152938492839182906114b6606483018f6122dd565b90602483015286604483015203925af180156109bf576114d9575b888180611372565b6114e590989198612097565b96386114d1565b60405162461bcd60e51b815260048101899052602860248201527f496e73756666696369656e74207061796d656e7420287072696365202b20726f60448201526779616c746965732960c01b6064820152608490fd5b5060408051635fb8273360e11b815260606004820152908180611568606482018c6122dd565b8560248301528d60448301520381865afa9081156108a8578a9161158d575b50611357565b6115a6915060403d6040116109b8576109a881836120c6565b5038611587565b60405162461bcd60e51b815260048101859052602760248201527f455448207061796d656e74206e6f7420616363657074656420666f72207468696044820152661cc8185cdcd95d60ca1b6064820152608490fd5b50346105475780600319360112610547576001546001600160a01b033381831603611668576001600160a01b031991821660015582543392811683178455167f8be0079c531659141344cd1fd0a4f28419497f9722a3daafe3b4186f6b6457e08380a380f35b60405163118cdaa760e01b8152336004820152602490fd5b503461054757602080600319360112610a20576001600160a01b036116a361214e565b168252600781526040822080546001600160401b03811161176c579192604051926116d3858260051b01856120c6565b8084528484018093835285832083915b8383106117485750505050604051928484019085855251809152604084019460408260051b8601019392955b82871061171c5785850386f35b909192938280611738600193603f198a820301865288516122dd565b960192019601959291909261170f565b600188819261175a859b9a989b612203565b815201920192019190969395966116e3565b634e487b7160e01b84526041600452602484fd5b5034610547578060031936011261054757611799612302565b600180546001600160a01b03199081169091558154908116825581906001600160a01b03167f8be0079c531659141344cd1fd0a4f28419497f9722a3daafe3b4186f6b6457e08280a380f35b50346105475780600319360112610547576020600854604051908152f35b503461054757602036600319011261054757600435906001600160401b0382116105475761183960206110773660048601612102565b810160058152030190206118c661184f82612203565b9161185c60018201612203565b9261186960028301612203565b91600381015492600482015460018060a01b0380600585015416906006850154166007850154916008860154936118e26009880154966118d460ff600b600a8c01549b0154169a6040519e8f9e8f926101808085528401906122dd565b9160208184039101526122dd565b8c810360408e0152906122dd565b9860608b015260808a015260a089015260c088015260e087015261010086015261012085015261014084015215156101608301520390f35b50346105475760403660031901126105475761193461214e565b6001600160a01b031681526007602052604081208054602435929083101561054757610ada610ac6610ac085856121b1565b50346105475760203660031901126105475760209060ff906040906001600160a01b0361199161214e565b168152600484522054166040519015158152f35b5034610547576020366003190112610547576004356001600160401b038111610a20576119d6903690600401612102565b60405160208183516119eb81838588016122ba565b81016005815203019020600b81019081549060ff821615611a9557600501546001600160a01b03163303611a505760ff19169055611a293391612556565b7fbf7659f4659900a03fed4ad2fc77c3602180b8afcf682077f6e38e88d0cf58f48380a380f35b60405162461bcd60e51b815260206004820152601960248201527f4f6e6c79206f776e65722063616e2064656163746976617465000000000000006044820152606490fd5b60405162461bcd60e51b8152602060048201526016602482015275417373657420616c726561647920696e61637469766560501b6044820152606490fd5b5034610547576040366003190112610547576004356001600160401b038111610a2057611b04903690600401612102565b6024916001600160a01b039183358381168103610543576040516020818451611b3081838589016122ba565b8101600581520301902093611b4b60ff600b87015416612576565b80600586015416918233148015611e46575b15611e025781811615611dca5782855260076020526040852095855b875480821015611db757611b8d828a6121b1565b5060405190818a825492611ba0846121c9565b8084529360018116908115611d955750600114611d57575b50611bc5925003826120c6565b602081519101208751602089012014611bfd57506000198114611bea57600101611b79565b634e487b7160e01b875260116004528887fd5b90600098929394959697981991828101908111611d4457611c21611c2991856121b1565b5091846121b1565b919091611d3157611c399161276f565b81548015611d1e570190611c4d82826121b1565b999099611d0c57508789611c67611ca798999a9b546121c9565b80611cce575b505050555b60050180546001600160a01b0319168284169081179091558652600760205260408620611ca0908690612529565b1692612556565b7f6840904f5b31827f74e1497360da245f56e530c8c3de3163a2d31f11493273c68480a480f35b82601f808311600114611ce857505050555b883880611c6d565b83825260208220939192611d05910160051c840160018501612406565b5555611ce0565b634e487b7160e01b8952600489905288fd5b634e487b7160e01b895260316004528989fd5b634e487b7160e01b8a5260048a90528a8afd5b634e487b7160e01b8a5260116004528a8afd5b8c52505060208a208a91905b818310611d7c575050816020611bc59282010138611bb8565b8054602084860181019190915290920191600101611d63565b905060209250611bc594915060ff191682840152151560051b82010138611bb8565b5050909192949650611ca7939550611c72565b60405162461bcd60e51b8152602060048201526011818901527024b73b30b634b2103732bb9037bbb732b960791b6044820152606490fd5b60405162461bcd60e51b815260206004820152601a818901527f4e6f7420617574686f72697a656420746f207472616e736665720000000000006044820152606490fd5b50338552600460205260ff604086205416611b5d565b50346105475780600319360112610547576003546040516001600160a01b039091168152602090f35b50346105475780600319360112610547576040517f00000000000000000000000000000000000000000000000000000000000000006001600160a01b03168152602090f35b5034610547576060366003190112610547576004356001600160401b038111610a2057611efb903690600401612102565b60243590604435906040519283825160209581611f1c8893838589016122ba565b8101600581520301902091611f3760ff600b85015416612576565b60058301546001600160a01b039081163303612052578215801590612049575b611f6090612316565b6003541680611fb5575b5090611fa883927f6f614e54fafe71f7c0a065e36894602ca7ed071e7be8df9bade0418e775fac569560046003604097019585875497550155612556565b948351928352820152a280f35b92919085604051809563010d358360e21b82528180611fd98a88886004850161237a565b03915afa90811561203e577f6f614e54fafe71f7c0a065e36894602ca7ed071e7be8df9bade0418e775fac569561201c611fa8936040978b91612027575061239c565b955091929350611f6a565b61049491508a3d8c1161049a5761048c81836120c6565b6040513d89823e3d90fd5b50841515611f57565b60405162461bcd60e51b815260048101879052601b60248201527f4f6e6c79206f776e65722063616e2075706461746520707269636500000000006044820152606490fd5b6001600160401b03811161041357604052565b61018081019081106001600160401b0382111761041357604052565b90601f801991011681019081106001600160401b0382111761041357604052565b6001600160401b03811161041357601f01601f191660200190565b81601f8201121561214957803590612119826120e7565b9261212760405194856120c6565b8284526020838301011161214957816000926020809301838601378301015290565b600080fd5b600435906001600160a01b038216820361214957565b60085481101561219b5760086000527ff3f7a9fe364faab93b216da50a3214154f22a0a2b415b23a84c8169e8b636ee30190600090565b634e487b7160e01b600052603260045260246000fd5b805482101561219b5760005260206000200190600090565b90600182811c921680156121f9575b60208310146121e357565b634e487b7160e01b600052602260045260246000fd5b91607f16916121d8565b9060405191826000825492612217846121c9565b9081845260019485811690816000146122865750600114612243575b5050612241925003836120c6565b565b9093915060005260209081600020936000915b81831061226e57505061224193508201013880612233565b85548884018501529485019487945091830191612256565b91505061224194506020925060ff191682840152151560051b8201013880612233565b906103fd576122b790612203565b90565b60005b8381106122cd5750506000910152565b81810151838201526020016122bd565b906020916122f6815180928185528580860191016122ba565b601f01601f1916010190565b6000546001600160a01b0316330361166857565b1561231d57565b60405162461bcd60e51b815260206004820152601e60248201527f4174206c65617374206f6e65207072696365206d7573742062652073657400006044820152606490fd5b90816020910312612149575180151581036121495790565b612392604092959493956060835260608301906122dd565b9460208201520152565b156123a357565b60405162461bcd60e51b815260206004820152603560248201527f50726963652062656c6f77206d696e696d756d20286d75737420636f76657220604482015274646570656e64656e637920726f79616c746965732960581b6064820152608490fd5b818110612411575050565b60008155600101612406565b9190601f811161242c57505050565b612241926000526020600020906020601f840160051c83019310612458575b601f0160051c0190612406565b909150819061244b565b91909182516001600160401b038111610413576124898161248384546121c9565b8461241d565b602080601f83116001146124c55750819293946000926124ba575b50508160011b916000199060031b1c1916179055565b0151905038806124a4565b90601f198316958460005282600020926000905b888210612511575050836001959697106124f8575b505050811b019055565b015160001960f88460031b161c191690553880806124ee565b806001859682949686015181550195019301906124d9565b8054600160401b81101561041357612546916001820181556121b1565b9190916103fd5761224191612462565b61256e906020604051928284809451938492016122ba565b810103902090565b1561257d57565b60405162461bcd60e51b81526020600482015260136024820152724173736574206e6f7420617661696c61626c6560681b6044820152606490fd5b9190826040910312612149576020825192015190565b919082018092116125db57565b634e487b7160e01b600052601160045260246000fd5b818102929181159184041417156125db57565b919082039182116125db57565b3d1561263c573d90612622826120e7565b9161263060405193846120c6565b82523d6000602084013e565b606090565b1561264857565b60405162461bcd60e51b815260206004820152601760248201527f5061796d656e7420746f206f776e6572206661696c65640000000000000000006044820152606490fd5b8054600160401b811015610413576126aa916001820181556121b1565b819291549060031b9160018060a01b03809116831b921b1916179055565b60028054146126d75760028055565b604051633ee5aeb560e01b8152600490fd5b60206127029181604051938285809451938492016122ba565b8101600581520301902060ff600b820154161561272957600501546001600160a01b031690565b50600090565b1561273657565b60405162461bcd60e51b815260206004820152601160248201527015da5d1a191c985dd85b0819985a5b1959607a1b6044820152606490fd5b908082146128475761278181546121c9565b906001600160401b0382116104135781906127a6826127a086546121c9565b8661241d565b600090601f83116001146127dc576000926127d15750508160011b916000199060031b1c1916179055565b0154905038806124a4565b81526020808220858352818320935090601f1985169083905b82821061282e57505090846001959493921061281557505050811b019055565b015460001960f88460031b161c191690553880806124ee565b84958192958501548155600180910196019401906127f5565b505056fea2646970667358221220dc25a05b105f24f31cd18c1999c3bb01ece743ae1f4a9266743a591a6cc45ea864736f6c63430008140033","opcodes":"PUSH1 0xA0 CALLVALUE PUSH2 0x108 JUMPI PUSH1 0x1F PUSH3 0x29A5 CODESIZE DUP2 SWAP1 SUB SWAP2 DUP3 ADD PUSH1 0x1F NOT AND DUP4 ADD SWAP2 PUSH1 0x1 PUSH1 0x1 PUSH1 0x40 SHL SUB DUP4 GT DUP5 DUP5 LT OR PUSH2 0x10D JUMPI DUP1 DUP5 SWAP3 PUSH1 0x20 SWAP5 PUSH1 0x40 MSTORE DUP4 CODECOPY DUP2 ADD SUB SLT PUSH2 0x108 JUMPI MLOAD PUSH1 0x1 PUSH1 0x1 PUSH1 0xA0 SHL SUB SWAP1 DUP2 DUP2 AND SWAP1 DUP2 SWAP1 SUB PUSH2 0x108 JUMPI CALLER ISZERO PUSH2 0xEF JUMPI PUSH1 0x1 DUP1 PUSH1 0xA0 SHL SUB NOT DUP1 PUSH1 0x1 SLOAD AND PUSH1 0x1 SSTORE PUSH1 0x0 SLOAD CALLER DUP3 DUP3 AND OR PUSH1 0x0 SSTORE PUSH1 0x40 MLOAD SWAP4 CALLER SWAP2 AND PUSH32 0x8BE0079C531659141344CD1FD0A4F28419497F9722A3DAAFE3B4186F6B6457E0 PUSH1 0x0 DUP1 LOG3 PUSH1 0x1 PUSH1 0x2 SSTORE PUSH1 0xFA PUSH1 0x9 SSTORE PUSH20 0x833589FCD6EDB6E08F4C7C32D4F71B54BDA02913 PUSH1 0x80 MSTORE PUSH1 0x3 SLOAD AND OR PUSH1 0x3 SSTORE PUSH2 0x2881 SWAP1 DUP2 PUSH3 0x124 DUP3 CODECOPY PUSH1 0x80 MLOAD DUP2 DUP2 DUP2 PUSH2 0x631 ADD MSTORE DUP2 DUP2 PUSH2 0xB40 ADD MSTORE PUSH2 0x1E9B ADD MSTORE RETURN JUMPDEST PUSH1 0x40 MLOAD PUSH4 0x1E4FBDF7 PUSH1 0xE0 SHL DUP2 MSTORE PUSH1 0x0 PUSH1 0x4 DUP3 ADD MSTORE PUSH1 0x24 SWAP1 REVERT JUMPDEST PUSH1 0x0 DUP1 REVERT JUMPDEST PUSH4 0x4E487B71 PUSH1 0xE0 SHL PUSH1 0x0 MSTORE PUSH1 0x41 PUSH1 0x4 MSTORE PUSH1 0x24 PUSH1 0x0 REVERT INVALID PUSH1 0x80 PUSH1 0x40 MSTORE PUSH1 0x4 CALLDATASIZE LT ISZERO PUSH2 0x12 JUMPI PUSH1 0x0 DUP1 REVERT JUMPDEST PUSH1 0x0 DUP1 CALLDATALOAD PUSH1 0xE0 SHR DUP1 PUSH4 0xF393BAF EQ PUSH2 0x1ECA JUMPI DUP1 PUSH4 0x11EAC855 EQ PUSH2 0x1E85 JUMPI DUP1 PUSH4 0x1663EE03 EQ PUSH2 0x1E5C JUMPI DUP1 PUSH4 0x2203F8F1 EQ PUSH2 0x1AD3 JUMPI DUP1 PUSH4 0x51618EFF EQ PUSH2 0x19A5 JUMPI DUP1 PUSH4 0x543A9EB9 EQ PUSH2 0x1966 JUMPI DUP1 PUSH4 0x5D483AB9 EQ PUSH2 0x191A JUMPI DUP1 PUSH4 0x6CB3DB25 EQ PUSH2 0x1803 JUMPI DUP1 PUSH4 0x6E07302B EQ PUSH2 0x17E5 JUMPI DUP1 PUSH4 0x715018A6 EQ PUSH2 0x1780 JUMPI DUP1 PUSH4 0x765FF061 EQ PUSH2 0x1680 JUMPI DUP1 PUSH4 0x79BA5097 EQ PUSH2 0x1602 JUMPI DUP1 PUSH4 0x8ADA33DC EQ PUSH2 0x12CA JUMPI DUP1 PUSH4 0x8BCCF009 EQ PUSH2 0x1243 JUMPI DUP1 PUSH4 0x8C5DEFF8 EQ PUSH2 0x11D4 JUMPI DUP1 PUSH4 0x8DA5CB5B EQ PUSH2 0x11AD JUMPI DUP1 PUSH4 0x9C521838 EQ PUSH2 0x1126 JUMPI DUP1 PUSH4 0x9FF95B8E EQ PUSH2 0x1041 JUMPI DUP1 PUSH4 0xAA0B5988 EQ PUSH2 0xFD7 JUMPI DUP1 PUSH4 0xBB09D9B7 EQ PUSH2 0xFA8 JUMPI DUP1 PUSH4 0xBBF46B84 EQ PUSH2 0xF52 JUMPI DUP1 PUSH4 0xCD5286D0 EQ PUSH2 0xD30 JUMPI DUP1 PUSH4 0xCDD78CFC EQ PUSH2 0xD12 JUMPI DUP1 PUSH4 0xD55A772D EQ PUSH2 0xCC5 JUMPI DUP1 PUSH4 0xD73792A9 EQ PUSH2 0xCA8 JUMPI DUP1 PUSH4 0xD9AA187C EQ PUSH2 0xC63 JUMPI DUP1 PUSH4 0xDCEB7686 EQ PUSH2 0xB07 JUMPI DUP1 PUSH4 0xE30C3978 EQ PUSH2 0xADE JUMPI DUP1 PUSH4 0xE814D66B EQ PUSH2 0xA91 JUMPI DUP1 PUSH4 0xF2FDE38B EQ PUSH2 0xA24 JUMPI DUP1 PUSH4 0xFB055846 EQ PUSH2 0x54A JUMPI PUSH4 0xFF6C0DDE EQ PUSH2 0x17D JUMPI PUSH1 0x0 DUP1 REVERT JUMPDEST CALLVALUE PUSH2 0x547 JUMPI PUSH1 0xA0 CALLDATASIZE PUSH1 0x3 NOT ADD SLT PUSH2 0x547 JUMPI PUSH1 0x1 PUSH1 0x1 PUSH1 0x40 SHL SUB PUSH1 0x4 CALLDATALOAD DUP2 DUP2 GT PUSH2 0x543 JUMPI PUSH2 0x1AE SWAP1 CALLDATASIZE SWAP1 PUSH1 0x4 ADD PUSH2 0x2102 JUMP JUMPDEST SWAP1 PUSH1 0x24 CALLDATALOAD DUP2 DUP2 GT PUSH2 0x53F JUMPI PUSH2 0x1C7 SWAP1 CALLDATASIZE SWAP1 PUSH1 0x4 ADD PUSH2 0x2102 JUMP JUMPDEST SWAP1 PUSH1 0x44 CALLDATALOAD SWAP1 DUP2 GT PUSH2 0x53F JUMPI PUSH2 0x1E0 SWAP1 CALLDATASIZE SWAP1 PUSH1 0x4 ADD PUSH2 0x2102 JUMP JUMPDEST SWAP2 PUSH1 0x64 CALLDATALOAD SWAP2 PUSH1 0x84 CALLDATALOAD SWAP4 DUP3 MLOAD ISZERO PUSH2 0x4FA JUMPI DUP4 ISZERO DUP1 ISZERO SWAP1 PUSH2 0x4F1 JUMPI JUMPDEST PUSH2 0x203 SWAP1 PUSH2 0x2316 JUMP JUMPDEST PUSH1 0x40 MLOAD SWAP5 DUP4 MLOAD PUSH1 0xFF PUSH1 0xB PUSH1 0x20 SWAP9 DUP10 DUP2 DUP2 DUP11 ADD SWAP6 PUSH2 0x221 DUP2 DUP4 DUP10 PUSH2 0x22BA JUMP JUMPDEST DUP2 ADD PUSH1 0x5 DUP2 MSTORE SUB ADD SWAP1 KECCAK256 ADD SLOAD AND PUSH2 0x4AC JUMPI PUSH1 0x3 SLOAD DUP6 SWAP3 PUSH1 0x1 PUSH1 0x1 PUSH1 0xA0 SHL SUB SWAP3 DUP11 SWAP3 DUP11 SWAP3 SWAP1 DUP6 AND DUP1 PUSH2 0x429 JUMPI JUMPDEST POP PUSH1 0x40 MLOAD SWAP7 DUP8 SWAP6 PUSH2 0x25D DUP8 PUSH2 0x20AA JUMP JUMPDEST DUP8 DUP8 MSTORE DUP5 DUP8 ADD SWAP3 DUP11 DUP5 MSTORE PUSH1 0x40 DUP9 ADD SWAP3 DUP4 MSTORE PUSH1 0x60 DUP9 ADD DUP14 DUP2 MSTORE PUSH1 0x80 DUP10 ADD SWAP2 DUP3 MSTORE PUSH1 0xA0 DUP10 ADD SWAP4 CALLER DUP6 MSTORE PUSH1 0xC0 DUP11 ADD SWAP6 CALLER DUP8 MSTORE PUSH1 0xE0 DUP12 ADD SWAP8 DUP11 DUP10 MSTORE PUSH2 0x100 DUP13 ADD SWAP10 DUP12 DUP12 MSTORE PUSH2 0x120 DUP14 ADD SWAP12 DUP13 MSTORE PUSH2 0x140 DUP14 ADD SWAP13 DUP14 TIMESTAMP SWAP1 MSTORE PUSH2 0x160 ADD SWAP14 PUSH1 0x1 DUP16 MSTORE PUSH1 0x40 MLOAD DUP1 SWAP4 DUP2 SWAP3 MLOAD DUP1 SWAP3 PUSH2 0x2CB SWAP3 PUSH2 0x22BA JUMP JUMPDEST DUP2 ADD PUSH1 0x5 DUP2 MSTORE SUB ADD SWAP1 KECCAK256 DUP1 SWAP14 MLOAD PUSH2 0x2E1 SWAP2 PUSH2 0x2462 JUMP JUMPDEST MLOAD PUSH2 0x2EF SWAP1 PUSH1 0x1 DUP15 ADD PUSH2 0x2462 JUMP JUMPDEST MLOAD PUSH2 0x2FD SWAP1 PUSH1 0x2 DUP14 ADD PUSH2 0x2462 JUMP JUMPDEST MLOAD PUSH1 0x3 DUP12 ADD SSTORE MLOAD PUSH1 0x4 DUP11 ADD SSTORE DUP1 PUSH1 0x5 DUP11 ADD SWAP3 MLOAD AND SWAP2 PUSH12 0xFFFFFFFFFFFFFFFFFFFFFFFF PUSH1 0xA0 SHL SWAP3 DUP4 DUP3 SLOAD AND OR SWAP1 SSTORE PUSH1 0x6 DUP10 ADD SWAP3 MLOAD AND SWAP1 DUP3 SLOAD AND OR SWAP1 SSTORE MLOAD PUSH1 0x7 DUP7 ADD SSTORE MLOAD PUSH1 0x8 DUP6 ADD SSTORE MLOAD PUSH1 0x9 DUP5 ADD SSTORE MLOAD PUSH1 0xA DUP4 ADD SSTORE MLOAD ISZERO ISZERO SWAP1 PUSH1 0xB ADD SWAP1 PUSH2 0x36D SWAP2 SWAP1 PUSH1 0xFF DUP1 NOT DUP4 SLOAD AND SWAP2 ISZERO ISZERO AND OR SWAP1 SSTORE JUMP JUMPDEST CALLER DUP6 MSTORE PUSH1 0x7 DUP5 MSTORE DUP2 PUSH1 0x40 DUP7 KECCAK256 SWAP1 PUSH2 0x383 SWAP2 PUSH2 0x2529 JUMP JUMPDEST PUSH1 0x8 SLOAD PUSH1 0x1 PUSH1 0x40 SHL DUP2 LT ISZERO PUSH2 0x413 JUMPI DUP1 PUSH1 0x1 PUSH2 0x3A2 SWAP3 ADD PUSH1 0x8 SSTORE PUSH2 0x2164 JUMP JUMPDEST PUSH2 0x3FD JUMPI DUP3 PUSH2 0x3D5 PUSH32 0x585D38EBCB0FE93CED4D64FBB112388B85B7726E7D87C5142521434D4F122384 SWAP5 PUSH2 0x3DA SWAP4 PUSH2 0x2462 JUMP JUMPDEST PUSH2 0x2556 JUMP JUMPDEST SWAP3 PUSH2 0x3F0 PUSH1 0x40 MLOAD SWAP3 PUSH1 0x40 DUP5 MSTORE PUSH1 0x40 DUP5 ADD SWAP1 PUSH2 0x22DD JUMP JUMPDEST SWAP5 DUP3 ADD MSTORE DUP1 CALLER SWAP5 SUB SWAP1 LOG3 DUP1 RETURN JUMPDEST PUSH4 0x4E487B71 PUSH1 0xE0 SHL PUSH1 0x0 MSTORE PUSH1 0x0 PUSH1 0x4 MSTORE PUSH1 0x24 PUSH1 0x0 REVERT JUMPDEST PUSH4 0x4E487B71 PUSH1 0xE0 SHL PUSH1 0x0 MSTORE PUSH1 0x41 PUSH1 0x4 MSTORE PUSH1 0x24 PUSH1 0x0 REVERT JUMPDEST SWAP1 DUP1 SWAP4 SWAP2 DUP12 PUSH2 0x44F SWAP9 PUSH1 0x40 MLOAD SWAP10 DUP11 SWAP5 DUP6 SWAP4 DUP5 SWAP4 PUSH4 0x10D3583 PUSH1 0xE2 SHL DUP6 MSTORE PUSH1 0x4 DUP6 ADD PUSH2 0x237A JUMP JUMPDEST SUB SWAP2 GAS STATICCALL SWAP2 DUP3 ISZERO PUSH2 0x4A1 JUMPI PUSH2 0x46E DUP12 SWAP4 DUP11 SWAP8 DUP7 SWAP2 PUSH2 0x474 JUMPI JUMPDEST POP PUSH2 0x239C JUMP JUMPDEST CODESIZE PUSH2 0x24D JUMP JUMPDEST PUSH2 0x494 SWAP2 POP DUP6 RETURNDATASIZE DUP8 GT PUSH2 0x49A JUMPI JUMPDEST PUSH2 0x48C DUP2 DUP4 PUSH2 0x20C6 JUMP JUMPDEST DUP2 ADD SWAP1 PUSH2 0x2362 JUMP JUMPDEST CODESIZE PUSH2 0x468 JUMP JUMPDEST POP RETURNDATASIZE PUSH2 0x482 JUMP JUMPDEST PUSH1 0x40 MLOAD RETURNDATASIZE DUP6 DUP3 RETURNDATACOPY RETURNDATASIZE SWAP1 REVERT JUMPDEST PUSH1 0x40 MLOAD PUSH3 0x461BCD PUSH1 0xE5 SHL DUP2 MSTORE PUSH1 0x4 DUP2 ADD DUP9 SWAP1 MSTORE PUSH1 0x18 PUSH1 0x24 DUP3 ADD MSTORE PUSH32 0x417373657420616C726561647920726567697374657265640000000000000000 PUSH1 0x44 DUP3 ADD MSTORE PUSH1 0x64 SWAP1 REVERT JUMPDEST POP DUP5 ISZERO ISZERO PUSH2 0x1FA JUMP JUMPDEST PUSH1 0x40 MLOAD PUSH3 0x461BCD PUSH1 0xE5 SHL DUP2 MSTORE PUSH1 0x20 PUSH1 0x4 DUP3 ADD MSTORE PUSH1 0x1A PUSH1 0x24 DUP3 ADD MSTORE PUSH32 0x50726F6A6563742049442063616E6E6F7420626520656D707479000000000000 PUSH1 0x44 DUP3 ADD MSTORE PUSH1 0x64 SWAP1 REVERT JUMPDEST DUP4 DUP1 REVERT JUMPDEST DUP3 DUP1 REVERT JUMPDEST DUP1 REVERT JUMPDEST POP CALLVALUE PUSH2 0x547 JUMPI PUSH1 0x20 DUP1 PUSH1 0x3 NOT CALLDATASIZE ADD SLT PUSH2 0xA20 JUMPI PUSH1 0x4 CALLDATALOAD PUSH1 0x1 PUSH1 0x1 PUSH1 0x40 SHL SUB DUP2 GT PUSH2 0x543 JUMPI PUSH2 0x57C SWAP1 CALLDATASIZE SWAP1 PUSH1 0x4 ADD PUSH2 0x2102 JUMP JUMPDEST PUSH2 0x584 PUSH2 0x26C8 JUMP JUMPDEST PUSH1 0x40 MLOAD SWAP2 DUP2 MLOAD SWAP3 DUP2 DUP2 DUP2 DUP6 ADD SWAP6 PUSH2 0x59C DUP2 DUP4 DUP10 PUSH2 0x22BA JUMP JUMPDEST DUP2 ADD PUSH1 0x5 DUP2 MSTORE SUB ADD SWAP1 KECCAK256 SWAP3 PUSH2 0x5B7 PUSH1 0xFF PUSH1 0xB DUP7 ADD SLOAD AND PUSH2 0x2576 JUMP JUMPDEST PUSH1 0x4 DUP5 ADD SWAP4 DUP5 SLOAD SWAP2 DUP3 ISZERO PUSH2 0x9CA JUMPI PUSH1 0x3 SLOAD PUSH1 0x1 PUSH1 0x1 PUSH1 0xA0 SHL SUB SWAP3 DUP9 SWAP3 SWAP2 DUP5 AND DUP1 PUSH2 0x93D JUMPI JUMPDEST POP PUSH2 0x5F7 PUSH2 0x2710 PUSH2 0x5EF PUSH1 0x9 SLOAD DUP9 PUSH2 0x25F1 JUMP JUMPDEST DIV DUP1 SWAP7 PUSH2 0x2604 JUMP JUMPDEST PUSH1 0x5 DUP3 ADD DUP1 SLOAD PUSH1 0x40 MLOAD PUSH4 0x23B872DD PUSH1 0xE0 SHL DUP1 DUP3 MSTORE CALLER PUSH1 0x4 DUP4 ADD MSTORE SWAP2 DUP9 AND PUSH1 0x1 PUSH1 0x1 PUSH1 0xA0 SHL SUB AND PUSH1 0x24 DUP3 ADD MSTORE PUSH1 0x44 DUP2 ADD SWAP4 SWAP1 SWAP4 MSTORE SWAP1 SWAP5 SWAP1 SWAP3 SWAP2 PUSH32 0x0 DUP8 AND SWAP1 DUP13 SWAP1 DUP11 DUP2 PUSH1 0x64 DUP2 DUP6 DUP8 GAS CALL DUP1 ISZERO PUSH2 0x83B JUMPI DUP3 PUSH2 0x67C DUP13 SWAP3 DUP15 SWAP5 PUSH2 0x6A6 SWAP7 SWAP2 PUSH2 0x920 JUMPI JUMPDEST POP PUSH2 0x2641 JUMP JUMPDEST PUSH1 0x40 MLOAD DUP9 DUP2 MSTORE CALLER PUSH1 0x4 DUP3 ADD MSTORE ADDRESS PUSH1 0x24 DUP3 ADD MSTORE PUSH1 0x44 DUP2 ADD SWAP3 SWAP1 SWAP3 MSTORE SWAP1 SWAP3 DUP4 SWAP2 SWAP1 DUP3 SWAP1 DUP2 SWAP1 PUSH1 0x64 DUP3 ADD SWAP1 JUMP JUMPDEST SUB SWAP2 DUP7 GAS CALL SWAP1 DUP2 ISZERO PUSH2 0x915 JUMPI DUP14 SWAP2 PUSH2 0x8F8 JUMPI JUMPDEST POP ISZERO PUSH2 0x8B3 JUMPI SWAP1 DUP9 SWAP2 DUP2 PUSH2 0x77A JUMPI JUMPDEST POP POP POP PUSH1 0x9 SWAP2 POP DUP9 SLOAD PUSH2 0x6E0 PUSH1 0x8 DUP4 ADD SWAP2 DUP3 SLOAD PUSH2 0x25CE JUMP JUMPDEST SWAP1 SSTORE ADD DUP1 SLOAD SWAP1 PUSH1 0x1 DUP3 ADD DUP1 SWAP3 GT PUSH2 0x766 JUMPI PUSH2 0x72E SWAP5 SWAP4 SWAP3 PUSH2 0x724 SWAP3 PUSH2 0x710 SWAP3 SSTORE PUSH1 0x40 MLOAD SWAP2 DUP3 SWAP2 DUP11 MLOAD SWAP3 DUP4 SWAP2 PUSH2 0x22BA JUMP JUMPDEST DUP2 ADD SWAP1 PUSH1 0x6 DUP3 MSTORE DUP8 DUP2 CALLER SWAP4 SUB ADD SWAP1 KECCAK256 PUSH2 0x268D JUMP JUMPDEST SLOAD AND SWAP5 SLOAD SWAP4 PUSH2 0x2556 JUMP JUMPDEST SWAP2 PUSH1 0x40 MLOAD SWAP4 DUP5 MSTORE DUP4 ADD MSTORE PUSH32 0x9F1CF37E6808C30667B45EF497CDBE9240FF2B62734E74189AC2C7F4A76D487D PUSH1 0x40 CALLER SWAP4 LOG4 PUSH1 0x1 PUSH1 0x2 SSTORE DUP1 RETURN JUMPDEST PUSH4 0x4E487B71 PUSH1 0xE0 SHL DUP11 MSTORE PUSH1 0x11 PUSH1 0x4 MSTORE PUSH1 0x24 DUP11 REVERT JUMPDEST PUSH1 0x3 SLOAD PUSH1 0x40 MLOAD SWAP6 DUP7 MSTORE CALLER PUSH1 0x4 DUP8 ADD MSTORE DUP9 AND PUSH1 0x1 PUSH1 0x1 PUSH1 0xA0 SHL SUB AND PUSH1 0x24 DUP7 ADD MSTORE PUSH1 0x44 DUP6 ADD SWAP2 SWAP1 SWAP2 MSTORE SWAP2 SWAP3 SWAP2 DUP3 SWAP1 PUSH1 0x64 SWAP1 DUP3 SWAP1 DUP15 SWAP1 GAS CALL SWAP1 DUP2 ISZERO PUSH2 0x8A8 JUMPI DUP11 SWAP2 PUSH2 0x88B JUMPI JUMPDEST POP ISZERO PUSH2 0x846 JUMPI DUP9 DUP5 PUSH1 0x3 SLOAD AND DUP10 SLOAD SWAP1 DUP1 EXTCODESIZE ISZERO PUSH2 0x543 JUMPI PUSH2 0x7FE DUP4 SWAP2 DUP12 DUP4 PUSH1 0x40 MLOAD DUP1 SWAP7 DUP2 SWAP6 DUP3 SWAP5 PUSH4 0xC578769 PUSH1 0xE4 SHL DUP5 MSTORE PUSH1 0x60 PUSH1 0x4 DUP6 ADD MSTORE PUSH1 0x64 DUP5 ADD SWAP1 PUSH2 0x22DD JUMP JUMPDEST SWAP1 PUSH1 0x24 DUP4 ADD MSTORE PUSH1 0x1 PUSH1 0x44 DUP4 ADD MSTORE SUB SWAP3 GAS CALL DUP1 ISZERO PUSH2 0x83B JUMPI PUSH2 0x823 JUMPI JUMPDEST DUP3 SWAP2 DUP9 SWAP2 PUSH2 0x6C8 JUMP JUMPDEST PUSH2 0x82C SWAP1 PUSH2 0x2097 JUMP JUMPDEST PUSH2 0x837 JUMPI DUP9 CODESIZE PUSH2 0x81A JUMP JUMPDEST DUP9 DUP1 REVERT JUMPDEST PUSH1 0x40 MLOAD RETURNDATASIZE DUP5 DUP3 RETURNDATACOPY RETURNDATASIZE SWAP1 REVERT JUMPDEST PUSH1 0x40 MLOAD PUSH3 0x461BCD PUSH1 0xE5 SHL DUP2 MSTORE PUSH1 0x4 DUP2 ADD DUP8 SWAP1 MSTORE PUSH1 0x17 PUSH1 0x24 DUP3 ADD MSTORE PUSH32 0x526F79616C7479207472616E73666572206661696C6564000000000000000000 PUSH1 0x44 DUP3 ADD MSTORE PUSH1 0x64 SWAP1 REVERT JUMPDEST PUSH2 0x8A2 SWAP2 POP DUP8 RETURNDATASIZE DUP10 GT PUSH2 0x49A JUMPI PUSH2 0x48C DUP2 DUP4 PUSH2 0x20C6 JUMP JUMPDEST CODESIZE PUSH2 0x7BD JUMP JUMPDEST PUSH1 0x40 MLOAD RETURNDATASIZE DUP13 DUP3 RETURNDATACOPY RETURNDATASIZE SWAP1 REVERT JUMPDEST PUSH1 0x40 MLOAD PUSH3 0x461BCD PUSH1 0xE5 SHL DUP2 MSTORE PUSH1 0x4 DUP2 ADD DUP11 SWAP1 MSTORE PUSH1 0x1C PUSH1 0x24 DUP3 ADD MSTORE PUSH32 0x506C6174666F726D20666565207472616E73666572206661696C656400000000 PUSH1 0x44 DUP3 ADD MSTORE PUSH1 0x64 SWAP1 REVERT JUMPDEST PUSH2 0x90F SWAP2 POP DUP11 RETURNDATASIZE DUP13 GT PUSH2 0x49A JUMPI PUSH2 0x48C DUP2 DUP4 PUSH2 0x20C6 JUMP JUMPDEST CODESIZE PUSH2 0x6B9 JUMP JUMPDEST PUSH1 0x40 MLOAD RETURNDATASIZE DUP16 DUP3 RETURNDATACOPY RETURNDATASIZE SWAP1 REVERT JUMPDEST PUSH2 0x937 SWAP2 POP DUP6 RETURNDATASIZE DUP8 GT PUSH2 0x49A JUMPI PUSH2 0x48C DUP2 DUP4 PUSH2 0x20C6 JUMP JUMPDEST CODESIZE PUSH2 0x676 JUMP JUMPDEST PUSH1 0x40 DUP1 MLOAD PUSH4 0x5FB82733 PUSH1 0xE1 SHL DUP2 MSTORE PUSH1 0x60 PUSH1 0x4 DUP3 ADD MSTORE SWAP3 SWAP5 POP SWAP1 DUP3 SWAP1 DUP2 DUP1 DUP14 PUSH2 0x968 PUSH1 0x64 DUP4 ADD DUP15 PUSH2 0x22DD JUMP JUMPDEST SWAP1 PUSH1 0x24 DUP4 ADD MSTORE DUP11 PUSH1 0x44 DUP4 ADD MSTORE SUB SWAP2 GAS STATICCALL SWAP1 DUP2 ISZERO PUSH2 0x9BF JUMPI DUP10 SWAP2 PUSH2 0x98E JUMPI JUMPDEST POP SWAP2 CODESIZE PUSH2 0x5DC JUMP JUMPDEST PUSH2 0x9B0 SWAP2 POP PUSH1 0x40 RETURNDATASIZE PUSH1 0x40 GT PUSH2 0x9B8 JUMPI JUMPDEST PUSH2 0x9A8 DUP2 DUP4 PUSH2 0x20C6 JUMP JUMPDEST DUP2 ADD SWAP1 PUSH2 0x25B8 JUMP JUMPDEST SWAP1 POP CODESIZE PUSH2 0x986 JUMP JUMPDEST POP RETURNDATASIZE PUSH2 0x99E JUMP JUMPDEST PUSH1 0x40 MLOAD RETURNDATASIZE DUP12 DUP3 RETURNDATACOPY RETURNDATASIZE SWAP1 REVERT JUMPDEST PUSH1 0x40 MLOAD PUSH3 0x461BCD PUSH1 0xE5 SHL DUP2 MSTORE PUSH1 0x4 DUP2 ADD DUP6 SWAP1 MSTORE PUSH1 0x28 PUSH1 0x24 DUP3 ADD MSTORE PUSH32 0x55534443207061796D656E74206E6F7420616363657074656420666F72207468 PUSH1 0x44 DUP3 ADD MSTORE PUSH8 0x1A5CC8185CDCD95D PUSH1 0xC2 SHL PUSH1 0x64 DUP3 ADD MSTORE PUSH1 0x84 SWAP1 REVERT JUMPDEST POP DUP1 REVERT JUMPDEST POP CALLVALUE PUSH2 0x547 JUMPI PUSH1 0x20 CALLDATASIZE PUSH1 0x3 NOT ADD SLT PUSH2 0x547 JUMPI PUSH2 0xA3E PUSH2 0x214E JUMP JUMPDEST PUSH2 0xA46 PUSH2 0x2302 JUMP JUMPDEST PUSH1 0x1 DUP1 SLOAD PUSH1 0x1 PUSH1 0x1 PUSH1 0xA0 SHL SUB NOT AND PUSH1 0x1 PUSH1 0x1 PUSH1 0xA0 SHL SUB SWAP3 DUP4 AND SWAP1 DUP2 OR SWAP1 SWAP2 SSTORE DUP3 SLOAD SWAP1 SWAP2 AND PUSH32 0x38D16B8CAC22D99FC7C124B9CD0DE2D3FA1FAEF420BFE791D8C362D765E22700 DUP4 DUP1 LOG3 DUP1 RETURN JUMPDEST POP CALLVALUE PUSH2 0x547 JUMPI PUSH1 0x20 CALLDATASIZE PUSH1 0x3 NOT ADD SLT PUSH2 0x547 JUMPI PUSH1 0x4 CALLDATALOAD SWAP1 PUSH1 0x8 SLOAD DUP3 LT ISZERO PUSH2 0x547 JUMPI PUSH2 0xADA PUSH2 0xAC6 PUSH2 0xAC0 DUP5 PUSH2 0x2164 JUMP JUMPDEST SWAP1 PUSH2 0x22A9 JUMP JUMPDEST PUSH1 0x40 MLOAD SWAP2 DUP3 SWAP2 PUSH1 0x20 DUP4 MSTORE PUSH1 0x20 DUP4 ADD SWAP1 PUSH2 0x22DD JUMP JUMPDEST SUB SWAP1 RETURN JUMPDEST POP CALLVALUE PUSH2 0x547 JUMPI DUP1 PUSH1 0x3 NOT CALLDATASIZE ADD SLT PUSH2 0x547 JUMPI PUSH1 0x1 SLOAD PUSH1 0x40 MLOAD PUSH1 0x1 PUSH1 0x1 PUSH1 0xA0 SHL SUB SWAP1 SWAP2 AND DUP2 MSTORE PUSH1 0x20 SWAP1 RETURN JUMPDEST POP CALLVALUE PUSH2 0x547 JUMPI DUP1 PUSH1 0x3 NOT CALLDATASIZE ADD SLT PUSH2 0x547 JUMPI PUSH2 0xB20 PUSH2 0x2302 JUMP JUMPDEST PUSH1 0x40 MLOAD PUSH4 0x70A08231 PUSH1 0xE0 SHL DUP2 MSTORE ADDRESS PUSH1 0x4 DUP3 ADD MSTORE PUSH1 0x20 SWAP1 PUSH1 0x1 PUSH1 0x1 PUSH1 0xA0 SHL SUB PUSH32 0x0 DUP2 AND SWAP2 SWAP1 DUP4 DUP3 PUSH1 0x24 DUP2 DUP7 GAS STATICCALL SWAP2 DUP3 ISZERO PUSH2 0xC58 JUMPI DUP6 SWAP3 PUSH2 0xC25 JUMPI JUMPDEST POP DUP2 ISZERO PUSH2 0xBE0 JUMPI SWAP1 PUSH1 0x44 DUP5 SWAP3 DUP7 SLOAD AND DUP7 PUSH1 0x40 MLOAD SWAP6 DUP7 SWAP5 DUP6 SWAP4 PUSH4 0xA9059CBB PUSH1 0xE0 SHL DUP6 MSTORE PUSH1 0x4 DUP6 ADD MSTORE PUSH1 0x24 DUP5 ADD MSTORE GAS CALL SWAP1 DUP2 ISZERO PUSH2 0x4A1 JUMPI PUSH2 0xBC0 SWAP3 DUP5 SWAP3 PUSH2 0xBC3 JUMPI JUMPDEST POP POP PUSH2 0x272F JUMP JUMPDEST DUP1 RETURN JUMPDEST PUSH2 0xBD9 SWAP3 POP DUP1 RETURNDATASIZE LT PUSH2 0x49A JUMPI PUSH2 0x48C DUP2 DUP4 PUSH2 0x20C6 JUMP JUMPDEST CODESIZE DUP1 PUSH2 0xBB9 JUMP JUMPDEST PUSH1 0x40 MLOAD PUSH3 0x461BCD PUSH1 0xE5 SHL DUP2 MSTORE PUSH1 0x4 DUP2 ADD DUP6 SWAP1 MSTORE PUSH1 0x18 PUSH1 0x24 DUP3 ADD MSTORE PUSH32 0x4E6F2055534443206665657320746F2077697468647261770000000000000000 PUSH1 0x44 DUP3 ADD MSTORE PUSH1 0x64 SWAP1 REVERT JUMPDEST SWAP1 SWAP2 POP DUP4 DUP2 DUP2 RETURNDATASIZE DUP4 GT PUSH2 0xC51 JUMPI JUMPDEST PUSH2 0xC3D DUP2 DUP4 PUSH2 0x20C6 JUMP JUMPDEST DUP2 ADD SUB SLT PUSH2 0xC4D JUMPI MLOAD SWAP1 CODESIZE PUSH2 0xB79 JUMP JUMPDEST DUP5 DUP1 REVERT JUMPDEST POP RETURNDATASIZE PUSH2 0xC33 JUMP JUMPDEST PUSH1 0x40 MLOAD RETURNDATASIZE DUP8 DUP3 RETURNDATACOPY RETURNDATASIZE SWAP1 REVERT JUMPDEST POP CALLVALUE PUSH2 0x547 JUMPI PUSH1 0x20 CALLDATASIZE PUSH1 0x3 NOT ADD SLT PUSH2 0x547 JUMPI PUSH2 0xC7D PUSH2 0x214E JUMP JUMPDEST PUSH2 0xC85 PUSH2 0x2302 JUMP JUMPDEST PUSH1 0x1 DUP1 PUSH1 0xA0 SHL SUB AND PUSH12 0xFFFFFFFFFFFFFFFFFFFFFFFF PUSH1 0xA0 SHL PUSH1 0x3 SLOAD AND OR PUSH1 0x3 SSTORE DUP1 RETURN JUMPDEST POP CALLVALUE PUSH2 0x547 JUMPI DUP1 PUSH1 0x3 NOT CALLDATASIZE ADD SLT PUSH2 0x547 JUMPI PUSH1 0x20 PUSH1 0x40 MLOAD PUSH2 0x2710 DUP2 MSTORE RETURN JUMPDEST POP CALLVALUE PUSH2 0x547 JUMPI PUSH1 0x20 CALLDATASIZE PUSH1 0x3 NOT ADD SLT PUSH2 0x547 JUMPI PUSH1 0x4 CALLDATALOAD SWAP1 PUSH1 0x1 PUSH1 0x1 PUSH1 0x40 SHL SUB DUP3 GT PUSH2 0x547 JUMPI PUSH1 0x20 PUSH2 0xD00 PUSH2 0xCFB CALLDATASIZE PUSH1 0x4 DUP7 ADD PUSH2 0x2102 JUMP JUMPDEST PUSH2 0x26E9 JUMP JUMPDEST PUSH1 0x40 MLOAD PUSH1 0x1 PUSH1 0x1 PUSH1 0xA0 SHL SUB SWAP1 SWAP2 AND DUP2 MSTORE RETURN JUMPDEST POP CALLVALUE PUSH2 0x547 JUMPI DUP1 PUSH1 0x3 NOT CALLDATASIZE ADD SLT PUSH2 0x547 JUMPI PUSH1 0x20 PUSH1 0x9 SLOAD PUSH1 0x40 MLOAD SWAP1 DUP2 MSTORE RETURN JUMPDEST POP CALLVALUE PUSH2 0x547 JUMPI PUSH1 0x20 CALLDATASIZE PUSH1 0x3 NOT ADD SLT PUSH2 0x547 JUMPI PUSH1 0x4 CALLDATALOAD PUSH1 0x1 PUSH1 0x1 PUSH1 0x40 SHL SUB DUP2 GT PUSH2 0xA20 JUMPI PUSH2 0xDD0 SWAP2 PUSH2 0xD67 PUSH1 0x20 SWAP3 CALLDATASIZE SWAP1 PUSH1 0x4 ADD PUSH2 0x2102 JUMP JUMPDEST SWAP1 PUSH2 0x160 PUSH1 0x40 MLOAD PUSH2 0xD77 DUP2 PUSH2 0x20AA JUMP JUMPDEST PUSH1 0x60 DUP2 MSTORE PUSH1 0x60 DUP6 DUP3 ADD MSTORE PUSH1 0x60 PUSH1 0x40 DUP3 ADD MSTORE DUP3 PUSH1 0x60 DUP3 ADD MSTORE DUP3 PUSH1 0x80 DUP3 ADD MSTORE DUP3 PUSH1 0xA0 DUP3 ADD MSTORE DUP3 PUSH1 0xC0 DUP3 ADD MSTORE DUP3 PUSH1 0xE0 DUP3 ADD MSTORE DUP3 PUSH2 0x100 DUP3 ADD MSTORE DUP3 PUSH2 0x120 DUP3 ADD MSTORE DUP3 PUSH2 0x140 DUP3 ADD MSTORE ADD MSTORE DUP2 PUSH1 0x40 MLOAD SWAP4 DUP3 DUP6 DUP1 SWAP5 MLOAD SWAP4 DUP5 SWAP3 ADD PUSH2 0x22BA JUMP JUMPDEST DUP2 ADD PUSH1 0x5 DUP2 MSTORE SUB ADD SWAP1 KECCAK256 PUSH1 0xFF PUSH1 0xB PUSH1 0x40 MLOAD SWAP3 PUSH2 0xDEB DUP5 PUSH2 0x20AA JUMP JUMPDEST PUSH2 0xDF4 DUP2 PUSH2 0x2203 JUMP JUMPDEST DUP5 MSTORE PUSH2 0xE02 PUSH1 0x1 DUP3 ADD PUSH2 0x2203 JUMP JUMPDEST PUSH1 0x20 DUP6 ADD MSTORE PUSH2 0xE13 PUSH1 0x2 DUP3 ADD PUSH2 0x2203 JUMP JUMPDEST PUSH1 0x40 DUP6 ADD MSTORE PUSH1 0x3 DUP2 ADD SLOAD PUSH1 0x60 DUP6 ADD MSTORE PUSH1 0x4 DUP2 ADD SLOAD PUSH1 0x80 DUP6 ADD MSTORE PUSH1 0x1 DUP1 PUSH1 0xA0 SHL SUB PUSH1 0x5 DUP3 ADD SLOAD AND PUSH1 0xA0 DUP6 ADD MSTORE PUSH1 0x1 DUP1 PUSH1 0xA0 SHL SUB PUSH1 0x6 DUP3 ADD SLOAD AND PUSH1 0xC0 DUP6 ADD MSTORE PUSH1 0x7 DUP2 ADD SLOAD PUSH1 0xE0 DUP6 ADD MSTORE PUSH1 0x8 DUP2 ADD SLOAD PUSH2 0x100 DUP6 ADD MSTORE PUSH1 0x9 DUP2 ADD SLOAD PUSH2 0x120 DUP6 ADD MSTORE PUSH1 0xA DUP2 ADD SLOAD PUSH2 0x140 DUP6 ADD MSTORE ADD SLOAD AND ISZERO ISZERO PUSH2 0x160 DUP3 ADD MSTORE PUSH1 0x40 MLOAD DUP1 SWAP2 PUSH1 0x20 DUP3 MSTORE PUSH2 0x160 PUSH2 0xEDE PUSH2 0xEAD DUP4 MLOAD PUSH2 0x180 PUSH1 0x20 DUP8 ADD MSTORE PUSH2 0x1A0 DUP7 ADD SWAP1 PUSH2 0x22DD JUMP JUMPDEST PUSH2 0xEC9 PUSH1 0x20 DUP6 ADD MLOAD SWAP2 PUSH1 0x1F NOT SWAP3 DUP4 DUP9 DUP4 SUB ADD PUSH1 0x40 DUP10 ADD MSTORE PUSH2 0x22DD JUMP JUMPDEST SWAP1 PUSH1 0x40 DUP6 ADD MLOAD SWAP1 DUP7 DUP4 SUB ADD PUSH1 0x60 DUP8 ADD MSTORE PUSH2 0x22DD JUMP JUMPDEST SWAP2 PUSH1 0x60 DUP2 ADD MLOAD PUSH1 0x80 DUP6 ADD MSTORE PUSH1 0x80 DUP2 ADD MLOAD PUSH1 0xA0 DUP6 ADD MSTORE PUSH1 0x1 DUP1 PUSH1 0xA0 SHL SUB PUSH1 0xA0 DUP3 ADD MLOAD AND PUSH1 0xC0 DUP6 ADD MSTORE PUSH1 0x1 DUP1 PUSH1 0xA0 SHL SUB PUSH1 0xC0 DUP3 ADD MLOAD AND PUSH1 0xE0 DUP6 ADD MSTORE PUSH1 0xE0 DUP2 ADD MLOAD PUSH2 0x100 DUP6 ADD MSTORE PUSH2 0x100 DUP2 ADD MLOAD PUSH2 0x120 DUP6 ADD MSTORE PUSH2 0x120 DUP2 ADD MLOAD PUSH2 0x140 DUP6 ADD MSTORE PUSH2 0x140 DUP2 ADD MLOAD DUP3 DUP6 ADD MSTORE ADD MLOAD ISZERO ISZERO PUSH2 0x180 DUP4 ADD MSTORE SUB SWAP1 RETURN JUMPDEST POP CALLVALUE PUSH2 0x547 JUMPI PUSH1 0x40 CALLDATASIZE PUSH1 0x3 NOT ADD SLT PUSH2 0x547 JUMPI PUSH2 0xF6C PUSH2 0x214E JUMP JUMPDEST PUSH1 0x24 CALLDATALOAD DUP1 ISZERO ISZERO DUP2 SUB PUSH2 0x543 JUMPI PUSH2 0xBC0 SWAP2 PUSH2 0xF84 PUSH2 0x2302 JUMP JUMPDEST PUSH1 0x1 DUP1 PUSH1 0xA0 SHL SUB AND DUP4 MSTORE PUSH1 0x4 PUSH1 0x20 MSTORE PUSH1 0x40 DUP4 KECCAK256 SWAP1 PUSH1 0xFF DUP1 NOT DUP4 SLOAD AND SWAP2 ISZERO ISZERO AND OR SWAP1 SSTORE JUMP JUMPDEST POP CALLVALUE PUSH2 0x547 JUMPI DUP1 PUSH1 0x3 NOT CALLDATASIZE ADD SLT PUSH2 0x547 JUMPI PUSH1 0x20 PUSH1 0x40 MLOAD PUSH20 0x833589FCD6EDB6E08F4C7C32D4F71B54BDA02913 DUP2 MSTORE RETURN JUMPDEST POP CALLVALUE PUSH2 0x547 JUMPI PUSH1 0x20 CALLDATASIZE PUSH1 0x3 NOT ADD SLT PUSH2 0x547 JUMPI PUSH1 0x4 CALLDATALOAD PUSH2 0xFF4 PUSH2 0x2302 JUMP JUMPDEST PUSH2 0x3E8 DUP2 GT PUSH2 0x1003 JUMPI PUSH1 0x9 SSTORE DUP1 RETURN JUMPDEST PUSH1 0x40 MLOAD PUSH3 0x461BCD PUSH1 0xE5 SHL DUP2 MSTORE PUSH1 0x20 PUSH1 0x4 DUP3 ADD MSTORE PUSH1 0x16 PUSH1 0x24 DUP3 ADD MSTORE PUSH22 0x46656520746F6F206869676820286D61782031302529 PUSH1 0x50 SHL PUSH1 0x44 DUP3 ADD MSTORE PUSH1 0x64 SWAP1 REVERT JUMPDEST POP CALLVALUE PUSH2 0x547 JUMPI PUSH1 0x20 DUP1 PUSH1 0x3 NOT CALLDATASIZE ADD SLT PUSH2 0xA20 JUMPI PUSH1 0x4 CALLDATALOAD PUSH1 0x1 PUSH1 0x1 PUSH1 0x40 SHL SUB DUP2 GT PUSH2 0x543 JUMPI DUP2 PUSH2 0x1077 PUSH2 0x108A SWAP3 CALLDATASIZE SWAP1 PUSH1 0x4 ADD PUSH2 0x2102 JUMP JUMPDEST DUP2 PUSH1 0x40 MLOAD SWAP4 DUP3 DUP6 DUP1 SWAP5 MLOAD SWAP4 DUP5 SWAP3 ADD PUSH2 0x22BA JUMP JUMPDEST DUP2 ADD PUSH1 0x6 DUP2 MSTORE SUB ADD SWAP1 KECCAK256 PUSH1 0x40 MLOAD SWAP3 DUP4 DUP4 DUP4 SLOAD SWAP2 DUP3 DUP2 MSTORE ADD SWAP1 DUP2 SWAP4 DUP4 MSTORE DUP5 DUP4 KECCAK256 SWAP1 DUP4 JUMPDEST DUP2 DUP2 LT PUSH2 0x1109 JUMPI POP POP POP DUP5 PUSH2 0x10C2 SWAP2 SUB DUP6 PUSH2 0x20C6 JUMP JUMPDEST PUSH1 0x40 MLOAD SWAP4 DUP4 DUP6 SWAP5 DUP6 ADD SWAP2 DUP2 DUP7 MSTORE MLOAD DUP1 SWAP3 MSTORE PUSH1 0x40 DUP6 ADD SWAP4 SWAP3 JUMPDEST DUP3 DUP2 LT PUSH2 0x10E9 JUMPI POP POP POP POP SUB SWAP1 RETURN JUMPDEST DUP4 MLOAD PUSH1 0x1 PUSH1 0x1 PUSH1 0xA0 SHL SUB AND DUP6 MSTORE DUP7 SWAP6 POP SWAP4 DUP2 ADD SWAP4 SWAP3 DUP2 ADD SWAP3 PUSH1 0x1 ADD PUSH2 0x10DA JUMP JUMPDEST DUP3 SLOAD PUSH1 0x1 PUSH1 0x1 PUSH1 0xA0 SHL SUB AND DUP5 MSTORE SWAP3 DUP7 ADD SWAP3 PUSH1 0x1 SWAP3 DUP4 ADD SWAP3 ADD PUSH2 0x10AC JUMP JUMPDEST POP CALLVALUE PUSH2 0x547 JUMPI DUP1 PUSH1 0x3 NOT CALLDATASIZE ADD SLT PUSH2 0x547 JUMPI PUSH2 0x113F PUSH2 0x2302 JUMP JUMPDEST SELFBALANCE DUP1 ISZERO PUSH2 0x1168 JUMPI DUP2 DUP1 DUP1 DUP1 PUSH2 0xBC0 SWAP5 PUSH1 0x1 DUP1 PUSH1 0xA0 SHL SUB DUP3 SLOAD AND GAS CALL PUSH2 0x1162 PUSH2 0x2611 JUMP JUMPDEST POP PUSH2 0x272F JUMP JUMPDEST PUSH1 0x40 MLOAD PUSH3 0x461BCD PUSH1 0xE5 SHL DUP2 MSTORE PUSH1 0x20 PUSH1 0x4 DUP3 ADD MSTORE PUSH1 0x17 PUSH1 0x24 DUP3 ADD MSTORE PUSH32 0x4E6F20455448206665657320746F207769746864726177000000000000000000 PUSH1 0x44 DUP3 ADD MSTORE PUSH1 0x64 SWAP1 REVERT JUMPDEST POP CALLVALUE PUSH2 0x547 JUMPI DUP1 PUSH1 0x3 NOT CALLDATASIZE ADD SLT PUSH2 0x547 JUMPI SLOAD PUSH1 0x40 MLOAD PUSH1 0x1 PUSH1 0x1 PUSH1 0xA0 SHL SUB SWAP1 SWAP2 AND DUP2 MSTORE PUSH1 0x20 SWAP1 RETURN JUMPDEST POP CALLVALUE PUSH2 0x547 JUMPI PUSH1 0x20 CALLDATASIZE PUSH1 0x3 NOT ADD SLT PUSH2 0x547 JUMPI PUSH1 0x4 CALLDATALOAD PUSH1 0x8 SLOAD DUP2 LT ISZERO PUSH2 0x1208 JUMPI PUSH2 0xAC6 PUSH2 0x1202 PUSH2 0xADA SWAP3 PUSH2 0x2164 JUMP JUMPDEST POP PUSH2 0x2203 JUMP JUMPDEST PUSH1 0x40 MLOAD PUSH3 0x461BCD PUSH1 0xE5 SHL DUP2 MSTORE PUSH1 0x20 PUSH1 0x4 DUP3 ADD MSTORE PUSH1 0x13 PUSH1 0x24 DUP3 ADD MSTORE PUSH19 0x496E646578206F7574206F6620626F756E6473 PUSH1 0x68 SHL PUSH1 0x44 DUP3 ADD MSTORE PUSH1 0x64 SWAP1 REVERT JUMPDEST POP CALLVALUE PUSH2 0x547 JUMPI PUSH1 0x40 CALLDATASIZE PUSH1 0x3 NOT ADD SLT PUSH2 0x547 JUMPI PUSH1 0x4 CALLDATALOAD PUSH1 0x1 PUSH1 0x1 PUSH1 0x40 SHL SUB DUP2 GT PUSH2 0xA20 JUMPI PUSH2 0x1274 SWAP1 CALLDATASIZE SWAP1 PUSH1 0x4 ADD PUSH2 0x2102 JUMP JUMPDEST SWAP1 PUSH2 0x1291 PUSH1 0x20 PUSH1 0x24 CALLDATALOAD SWAP4 DUP2 PUSH1 0x40 MLOAD SWAP4 DUP3 DUP6 DUP1 SWAP5 MLOAD SWAP4 DUP5 SWAP3 ADD PUSH2 0x22BA JUMP JUMPDEST DUP2 ADD PUSH1 0x6 DUP2 MSTORE SUB ADD SWAP1 KECCAK256 SWAP1 DUP2 SLOAD DUP4 LT ISZERO PUSH2 0x547 JUMPI PUSH1 0x20 PUSH2 0x12B1 DUP5 DUP5 PUSH2 0x21B1 JUMP JUMPDEST SWAP1 SLOAD PUSH1 0x40 MLOAD PUSH1 0x3 SWAP3 SWAP1 SWAP3 SHL SHR PUSH1 0x1 PUSH1 0x1 PUSH1 0xA0 SHL SUB AND DUP2 MSTORE RETURN JUMPDEST POP PUSH1 0x20 DUP1 PUSH1 0x3 NOT CALLDATASIZE ADD SLT PUSH2 0xA20 JUMPI PUSH1 0x4 CALLDATALOAD PUSH1 0x1 PUSH1 0x1 PUSH1 0x40 SHL SUB DUP2 GT PUSH2 0x543 JUMPI PUSH2 0x12F7 SWAP1 CALLDATASIZE SWAP1 PUSH1 0x4 ADD PUSH2 0x2102 JUMP JUMPDEST PUSH2 0x12FF PUSH2 0x26C8 JUMP JUMPDEST PUSH1 0x40 MLOAD SWAP2 DUP2 MLOAD SWAP3 DUP2 DUP2 DUP2 DUP6 ADD SWAP6 PUSH2 0x1317 DUP2 DUP4 DUP10 PUSH2 0x22BA JUMP JUMPDEST DUP2 ADD PUSH1 0x5 DUP2 MSTORE SUB ADD SWAP1 KECCAK256 SWAP3 PUSH2 0x1332 PUSH1 0xFF PUSH1 0xB DUP7 ADD SLOAD AND PUSH2 0x2576 JUMP JUMPDEST PUSH1 0x3 DUP5 ADD SWAP4 DUP5 SLOAD SWAP1 DUP2 ISZERO PUSH2 0x15AD JUMPI PUSH1 0x3 SLOAD PUSH1 0x1 PUSH1 0x1 PUSH1 0xA0 SHL SUB SWAP3 SWAP1 DUP4 AND SWAP1 DUP9 DUP3 PUSH2 0x1542 JUMPI JUMPDEST PUSH2 0x1361 DUP2 DUP4 PUSH2 0x25CE JUMP JUMPDEST SWAP3 DUP4 CALLVALUE LT PUSH2 0x14EC JUMPI SWAP1 DUP11 SWAP2 DUP2 PUSH2 0x1487 JUMPI JUMPDEST POP POP POP POP DUP7 SLOAD SWAP4 PUSH1 0x9 PUSH2 0x1394 PUSH2 0x2710 PUSH2 0x138C DUP4 SLOAD DUP10 PUSH2 0x25F1 JUMP JUMPDEST DIV DUP1 SWAP8 PUSH2 0x2604 JUMP JUMPDEST SWAP4 PUSH2 0x13AF DUP12 DUP1 DUP1 DUP1 PUSH1 0x5 DUP7 ADD SWAP10 DUP12 DUP12 SLOAD AND GAS CALL PUSH2 0x676 PUSH2 0x2611 JUMP JUMPDEST DUP10 SLOAD PUSH2 0x13C0 PUSH1 0x7 DUP4 ADD SWAP2 DUP3 SLOAD PUSH2 0x25CE JUMP JUMPDEST SWAP1 SSTORE ADD DUP1 SLOAD SWAP1 PUSH1 0x1 DUP3 ADD DUP1 SWAP3 GT PUSH2 0x1473 JUMPI DUP8 DUP12 SWAP5 SWAP4 PUSH2 0x1400 SWAP4 PUSH2 0x13EF SWAP4 SSTORE PUSH1 0x40 MLOAD DUP1 SWAP4 DUP2 SWAP3 DUP14 MLOAD SWAP3 DUP4 SWAP2 PUSH2 0x22BA JUMP JUMPDEST DUP2 ADD PUSH1 0x6 DUP2 MSTORE SUB ADD SWAP1 KECCAK256 CALLER SWAP1 PUSH2 0x268D JUMP JUMPDEST DUP1 CALLVALUE GT PUSH2 0x1419 JUMPI JUMPDEST POP POP SWAP1 PUSH2 0x72E SWAP2 SLOAD AND SWAP5 SLOAD SWAP4 PUSH2 0x2556 JUMP JUMPDEST DUP2 DUP1 PUSH2 0x1426 DUP2 SWAP4 CALLVALUE PUSH2 0x2604 JUMP JUMPDEST CALLER GAS CALL PUSH2 0x1431 PUSH2 0x2611 JUMP JUMPDEST POP ISZERO PUSH2 0x143E JUMPI DUP7 CODESIZE PUSH2 0x1408 JUMP JUMPDEST PUSH1 0x40 MLOAD PUSH3 0x461BCD PUSH1 0xE5 SHL DUP2 MSTORE PUSH1 0x4 DUP2 ADD DUP6 SWAP1 MSTORE PUSH1 0xD PUSH1 0x24 DUP3 ADD MSTORE PUSH13 0x1499599D5B990819985A5B1959 PUSH1 0x9A SHL PUSH1 0x44 DUP3 ADD MSTORE PUSH1 0x64 SWAP1 REVERT JUMPDEST PUSH4 0x4E487B71 PUSH1 0xE0 SHL DUP12 MSTORE PUSH1 0x11 PUSH1 0x4 MSTORE PUSH1 0x24 DUP12 REVERT JUMPDEST DUP1 EXTCODESIZE ISZERO PUSH2 0x543 JUMPI PUSH1 0x40 MLOAD PUSH4 0xC578769 PUSH1 0xE4 SHL DUP2 MSTORE PUSH1 0x60 PUSH1 0x4 DUP3 ADD MSTORE SWAP4 DUP5 SWAP3 DUP4 SWAP2 DUP3 SWAP1 PUSH2 0x14B6 PUSH1 0x64 DUP4 ADD DUP16 PUSH2 0x22DD JUMP JUMPDEST SWAP1 PUSH1 0x24 DUP4 ADD MSTORE DUP7 PUSH1 0x44 DUP4 ADD MSTORE SUB SWAP3 GAS CALL DUP1 ISZERO PUSH2 0x9BF JUMPI PUSH2 0x14D9 JUMPI JUMPDEST DUP9 DUP2 DUP1 PUSH2 0x1372 JUMP JUMPDEST PUSH2 0x14E5 SWAP1 SWAP9 SWAP2 SWAP9 PUSH2 0x2097 JUMP JUMPDEST SWAP7 CODESIZE PUSH2 0x14D1 JUMP JUMPDEST PUSH1 0x40 MLOAD PUSH3 0x461BCD PUSH1 0xE5 SHL DUP2 MSTORE PUSH1 0x4 DUP2 ADD DUP10 SWAP1 MSTORE PUSH1 0x28 PUSH1 0x24 DUP3 ADD MSTORE PUSH32 0x496E73756666696369656E74207061796D656E7420287072696365202B20726F PUSH1 0x44 DUP3 ADD MSTORE PUSH8 0x79616C7469657329 PUSH1 0xC0 SHL PUSH1 0x64 DUP3 ADD MSTORE PUSH1 0x84 SWAP1 REVERT JUMPDEST POP PUSH1 0x40 DUP1 MLOAD PUSH4 0x5FB82733 PUSH1 0xE1 SHL DUP2 MSTORE PUSH1 0x60 PUSH1 0x4 DUP3 ADD MSTORE SWAP1 DUP2 DUP1 PUSH2 0x1568 PUSH1 0x64 DUP3 ADD DUP13 PUSH2 0x22DD JUMP JUMPDEST DUP6 PUSH1 0x24 DUP4 ADD MSTORE DUP14 PUSH1 0x44 DUP4 ADD MSTORE SUB DUP2 DUP7 GAS STATICCALL SWAP1 DUP2 ISZERO PUSH2 0x8A8 JUMPI DUP11 SWAP2 PUSH2 0x158D JUMPI JUMPDEST POP PUSH2 0x1357 JUMP JUMPDEST PUSH2 0x15A6 SWAP2 POP PUSH1 0x40 RETURNDATASIZE PUSH1 0x40 GT PUSH2 0x9B8 JUMPI PUSH2 0x9A8 DUP2 DUP4 PUSH2 0x20C6 JUMP JUMPDEST POP CODESIZE PUSH2 0x1587 JUMP JUMPDEST PUSH1 0x40 MLOAD PUSH3 0x461BCD PUSH1 0xE5 SHL DUP2 MSTORE PUSH1 0x4 DUP2 ADD DUP6 SWAP1 MSTORE PUSH1 0x27 PUSH1 0x24 DUP3 ADD MSTORE PUSH32 0x455448207061796D656E74206E6F7420616363657074656420666F7220746869 PUSH1 0x44 DUP3 ADD MSTORE PUSH7 0x1CC8185CDCD95D PUSH1 0xCA SHL PUSH1 0x64 DUP3 ADD MSTORE PUSH1 0x84 SWAP1 REVERT JUMPDEST POP CALLVALUE PUSH2 0x547 JUMPI DUP1 PUSH1 0x3 NOT CALLDATASIZE ADD SLT PUSH2 0x547 JUMPI PUSH1 0x1 SLOAD PUSH1 0x1 PUSH1 0x1 PUSH1 0xA0 SHL SUB CALLER DUP2 DUP4 AND SUB PUSH2 0x1668 JUMPI PUSH1 0x1 PUSH1 0x1 PUSH1 0xA0 SHL SUB NOT SWAP2 DUP3 AND PUSH1 0x1 SSTORE DUP3 SLOAD CALLER SWAP3 DUP2 AND DUP4 OR DUP5 SSTORE AND PUSH32 0x8BE0079C531659141344CD1FD0A4F28419497F9722A3DAAFE3B4186F6B6457E0 DUP4 DUP1 LOG3 DUP1 RETURN JUMPDEST PUSH1 0x40 MLOAD PUSH4 0x118CDAA7 PUSH1 0xE0 SHL DUP2 MSTORE CALLER PUSH1 0x4 DUP3 ADD MSTORE PUSH1 0x24 SWAP1 REVERT JUMPDEST POP CALLVALUE PUSH2 0x547 JUMPI PUSH1 0x20 DUP1 PUSH1 0x3 NOT CALLDATASIZE ADD SLT PUSH2 0xA20 JUMPI PUSH1 0x1 PUSH1 0x1 PUSH1 0xA0 SHL SUB PUSH2 0x16A3 PUSH2 0x214E JUMP JUMPDEST AND DUP3 MSTORE PUSH1 0x7 DUP2 MSTORE PUSH1 0x40 DUP3 KECCAK256 DUP1 SLOAD PUSH1 0x1 PUSH1 0x1 PUSH1 0x40 SHL SUB DUP2 GT PUSH2 0x176C JUMPI SWAP2 SWAP3 PUSH1 0x40 MLOAD SWAP3 PUSH2 0x16D3 DUP6 DUP3 PUSH1 0x5 SHL ADD DUP6 PUSH2 0x20C6 JUMP JUMPDEST DUP1 DUP5 MSTORE DUP5 DUP5 ADD DUP1 SWAP4 DUP4 MSTORE DUP6 DUP4 KECCAK256 DUP4 SWAP2 JUMPDEST DUP4 DUP4 LT PUSH2 0x1748 JUMPI POP POP POP POP PUSH1 0x40 MLOAD SWAP3 DUP5 DUP5 ADD SWAP1 DUP6 DUP6 MSTORE MLOAD DUP1 SWAP2 MSTORE PUSH1 0x40 DUP5 ADD SWAP5 PUSH1 0x40 DUP3 PUSH1 0x5 SHL DUP7 ADD ADD SWAP4 SWAP3 SWAP6 JUMPDEST DUP3 DUP8 LT PUSH2 0x171C JUMPI DUP6 DUP6 SUB DUP7 RETURN JUMPDEST SWAP1 SWAP2 SWAP3 SWAP4 DUP3 DUP1 PUSH2 0x1738 PUSH1 0x1 SWAP4 PUSH1 0x3F NOT DUP11 DUP3 SUB ADD DUP7 MSTORE DUP9 MLOAD PUSH2 0x22DD JUMP JUMPDEST SWAP7 ADD SWAP3 ADD SWAP7 ADD SWAP6 SWAP3 SWAP2 SWAP1 SWAP3 PUSH2 0x170F JUMP JUMPDEST PUSH1 0x1 DUP9 DUP2 SWAP3 PUSH2 0x175A DUP6 SWAP12 SWAP11 SWAP9 SWAP12 PUSH2 0x2203 JUMP JUMPDEST DUP2 MSTORE ADD SWAP3 ADD SWAP3 ADD SWAP2 SWAP1 SWAP7 SWAP4 SWAP6 SWAP7 PUSH2 0x16E3 JUMP JUMPDEST PUSH4 0x4E487B71 PUSH1 0xE0 SHL DUP5 MSTORE PUSH1 0x41 PUSH1 0x4 MSTORE PUSH1 0x24 DUP5 REVERT JUMPDEST POP CALLVALUE PUSH2 0x547 JUMPI DUP1 PUSH1 0x3 NOT CALLDATASIZE ADD SLT PUSH2 0x547 JUMPI PUSH2 0x1799 PUSH2 0x2302 JUMP JUMPDEST PUSH1 0x1 DUP1 SLOAD PUSH1 0x1 PUSH1 0x1 PUSH1 0xA0 SHL SUB NOT SWAP1 DUP2 AND SWAP1 SWAP2 SSTORE DUP2 SLOAD SWAP1 DUP2 AND DUP3 SSTORE DUP2 SWAP1 PUSH1 0x1 PUSH1 0x1 PUSH1 0xA0 SHL SUB AND PUSH32 0x8BE0079C531659141344CD1FD0A4F28419497F9722A3DAAFE3B4186F6B6457E0 DUP3 DUP1 LOG3 DUP1 RETURN JUMPDEST POP CALLVALUE PUSH2 0x547 JUMPI DUP1 PUSH1 0x3 NOT CALLDATASIZE ADD SLT PUSH2 0x547 JUMPI PUSH1 0x20 PUSH1 0x8 SLOAD PUSH1 0x40 MLOAD SWAP1 DUP2 MSTORE RETURN JUMPDEST POP CALLVALUE PUSH2 0x547 JUMPI PUSH1 0x20 CALLDATASIZE PUSH1 0x3 NOT ADD SLT PUSH2 0x547 JUMPI PUSH1 0x4 CALLDATALOAD SWAP1 PUSH1 0x1 PUSH1 0x1 PUSH1 0x40 SHL SUB DUP3 GT PUSH2 0x547 JUMPI PUSH2 0x1839 PUSH1 0x20 PUSH2 0x1077 CALLDATASIZE PUSH1 0x4 DUP7 ADD PUSH2 0x2102 JUMP JUMPDEST DUP2 ADD PUSH1 0x5 DUP2 MSTORE SUB ADD SWAP1 KECCAK256 PUSH2 0x18C6 PUSH2 0x184F DUP3 PUSH2 0x2203 JUMP JUMPDEST SWAP2 PUSH2 0x185C PUSH1 0x1 DUP3 ADD PUSH2 0x2203 JUMP JUMPDEST SWAP3 PUSH2 0x1869 PUSH1 0x2 DUP4 ADD PUSH2 0x2203 JUMP JUMPDEST SWAP2 PUSH1 0x3 DUP2 ADD SLOAD SWAP3 PUSH1 0x4 DUP3 ADD SLOAD PUSH1 0x1 DUP1 PUSH1 0xA0 SHL SUB DUP1 PUSH1 0x5 DUP6 ADD SLOAD AND SWAP1 PUSH1 0x6 DUP6 ADD SLOAD AND PUSH1 0x7 DUP6 ADD SLOAD SWAP2 PUSH1 0x8 DUP7 ADD SLOAD SWAP4 PUSH2 0x18E2 PUSH1 0x9 DUP9 ADD SLOAD SWAP7 PUSH2 0x18D4 PUSH1 0xFF PUSH1 0xB PUSH1 0xA DUP13 ADD SLOAD SWAP12 ADD SLOAD AND SWAP11 PUSH1 0x40 MLOAD SWAP15 DUP16 SWAP15 DUP16 SWAP3 PUSH2 0x180 DUP1 DUP6 MSTORE DUP5 ADD SWAP1 PUSH2 0x22DD JUMP JUMPDEST SWAP2 PUSH1 0x20 DUP2 DUP5 SUB SWAP2 ADD MSTORE PUSH2 0x22DD JUMP JUMPDEST DUP13 DUP2 SUB PUSH1 0x40 DUP15 ADD MSTORE SWAP1 PUSH2 0x22DD JUMP JUMPDEST SWAP9 PUSH1 0x60 DUP12 ADD MSTORE PUSH1 0x80 DUP11 ADD MSTORE PUSH1 0xA0 DUP10 ADD MSTORE PUSH1 0xC0 DUP9 ADD MSTORE PUSH1 0xE0 DUP8 ADD MSTORE PUSH2 0x100 DUP7 ADD MSTORE PUSH2 0x120 DUP6 ADD MSTORE PUSH2 0x140 DUP5 ADD MSTORE ISZERO ISZERO PUSH2 0x160 DUP4 ADD MSTORE SUB SWAP1 RETURN JUMPDEST POP CALLVALUE PUSH2 0x547 JUMPI PUSH1 0x40 CALLDATASIZE PUSH1 0x3 NOT ADD SLT PUSH2 0x547 JUMPI PUSH2 0x1934 PUSH2 0x214E JUMP JUMPDEST PUSH1 0x1 PUSH1 0x1 PUSH1 0xA0 SHL SUB AND DUP2 MSTORE PUSH1 0x7 PUSH1 0x20 MSTORE PUSH1 0x40 DUP2 KECCAK256 DUP1 SLOAD PUSH1 0x24 CALLDATALOAD SWAP3 SWAP1 DUP4 LT ISZERO PUSH2 0x547 JUMPI PUSH2 0xADA PUSH2 0xAC6 PUSH2 0xAC0 DUP6 DUP6 PUSH2 0x21B1 JUMP JUMPDEST POP CALLVALUE PUSH2 0x547 JUMPI PUSH1 0x20 CALLDATASIZE PUSH1 0x3 NOT ADD SLT PUSH2 0x547 JUMPI PUSH1 0x20 SWAP1 PUSH1 0xFF SWAP1 PUSH1 0x40 SWAP1 PUSH1 0x1 PUSH1 0x1 PUSH1 0xA0 SHL SUB PUSH2 0x1991 PUSH2 0x214E JUMP JUMPDEST AND DUP2 MSTORE PUSH1 0x4 DUP5 MSTORE KECCAK256 SLOAD AND PUSH1 0x40 MLOAD SWAP1 ISZERO ISZERO DUP2 MSTORE RETURN JUMPDEST POP CALLVALUE PUSH2 0x547 JUMPI PUSH1 0x20 CALLDATASIZE PUSH1 0x3 NOT ADD SLT PUSH2 0x547 JUMPI PUSH1 0x4 CALLDATALOAD PUSH1 0x1 PUSH1 0x1 PUSH1 0x40 SHL SUB DUP2 GT PUSH2 0xA20 JUMPI PUSH2 0x19D6 SWAP1 CALLDATASIZE SWAP1 PUSH1 0x4 ADD PUSH2 0x2102 JUMP JUMPDEST PUSH1 0x40 MLOAD PUSH1 0x20 DUP2 DUP4 MLOAD PUSH2 0x19EB DUP2 DUP4 DUP6 DUP9 ADD PUSH2 0x22BA JUMP JUMPDEST DUP2 ADD PUSH1 0x5 DUP2 MSTORE SUB ADD SWAP1 KECCAK256 PUSH1 0xB DUP2 ADD SWAP1 DUP2 SLOAD SWAP1 PUSH1 0xFF DUP3 AND ISZERO PUSH2 0x1A95 JUMPI PUSH1 0x5 ADD SLOAD PUSH1 0x1 PUSH1 0x1 PUSH1 0xA0 SHL SUB AND CALLER SUB PUSH2 0x1A50 JUMPI PUSH1 0xFF NOT AND SWAP1 SSTORE PUSH2 0x1A29 CALLER SWAP2 PUSH2 0x2556 JUMP JUMPDEST PUSH32 0xBF7659F4659900A03FED4AD2FC77C3602180B8AFCF682077F6E38E88D0CF58F4 DUP4 DUP1 LOG3 DUP1 RETURN JUMPDEST PUSH1 0x40 MLOAD PUSH3 0x461BCD PUSH1 0xE5 SHL DUP2 MSTORE PUSH1 0x20 PUSH1 0x4 DUP3 ADD MSTORE PUSH1 0x19 PUSH1 0x24 DUP3 ADD MSTORE PUSH32 0x4F6E6C79206F776E65722063616E206465616374697661746500000000000000 PUSH1 0x44 DUP3 ADD MSTORE PUSH1 0x64 SWAP1 REVERT JUMPDEST PUSH1 0x40 MLOAD PUSH3 0x461BCD PUSH1 0xE5 SHL DUP2 MSTORE PUSH1 0x20 PUSH1 0x4 DUP3 ADD MSTORE PUSH1 0x16 PUSH1 0x24 DUP3 ADD MSTORE PUSH22 0x417373657420616C726561647920696E616374697665 PUSH1 0x50 SHL PUSH1 0x44 DUP3 ADD MSTORE PUSH1 0x64 SWAP1 REVERT JUMPDEST POP CALLVALUE PUSH2 0x547 JUMPI PUSH1 0x40 CALLDATASIZE PUSH1 0x3 NOT ADD SLT PUSH2 0x547 JUMPI PUSH1 0x4 CALLDATALOAD PUSH1 0x1 PUSH1 0x1 PUSH1 0x40 SHL SUB DUP2 GT PUSH2 0xA20 JUMPI PUSH2 0x1B04 SWAP1 CALLDATASIZE SWAP1 PUSH1 0x4 ADD PUSH2 0x2102 JUMP JUMPDEST PUSH1 0x24 SWAP2 PUSH1 0x1 PUSH1 0x1 PUSH1 0xA0 SHL SUB SWAP2 DUP4 CALLDATALOAD DUP4 DUP2 AND DUP2 SUB PUSH2 0x543 JUMPI PUSH1 0x40 MLOAD PUSH1 0x20 DUP2 DUP5 MLOAD PUSH2 0x1B30 DUP2 DUP4 DUP6 DUP10 ADD PUSH2 0x22BA JUMP JUMPDEST DUP2 ADD PUSH1 0x5 DUP2 MSTORE SUB ADD SWAP1 KECCAK256 SWAP4 PUSH2 0x1B4B PUSH1 0xFF PUSH1 0xB DUP8 ADD SLOAD AND PUSH2 0x2576 JUMP JUMPDEST DUP1 PUSH1 0x5 DUP7 ADD SLOAD AND SWAP2 DUP3 CALLER EQ DUP1 ISZERO PUSH2 0x1E46 JUMPI JUMPDEST ISZERO PUSH2 0x1E02 JUMPI DUP2 DUP2 AND ISZERO PUSH2 0x1DCA JUMPI DUP3 DUP6 MSTORE PUSH1 0x7 PUSH1 0x20 MSTORE PUSH1 0x40 DUP6 KECCAK256 SWAP6 DUP6 JUMPDEST DUP8 SLOAD DUP1 DUP3 LT ISZERO PUSH2 0x1DB7 JUMPI PUSH2 0x1B8D DUP3 DUP11 PUSH2 0x21B1 JUMP JUMPDEST POP PUSH1 0x40 MLOAD SWAP1 DUP2 DUP11 DUP3 SLOAD SWAP3 PUSH2 0x1BA0 DUP5 PUSH2 0x21C9 JUMP JUMPDEST DUP1 DUP5 MSTORE SWAP4 PUSH1 0x1 DUP2 AND SWAP1 DUP2 ISZERO PUSH2 0x1D95 JUMPI POP PUSH1 0x1 EQ PUSH2 0x1D57 JUMPI JUMPDEST POP PUSH2 0x1BC5 SWAP3 POP SUB DUP3 PUSH2 0x20C6 JUMP JUMPDEST PUSH1 0x20 DUP2 MLOAD SWAP2 ADD KECCAK256 DUP8 MLOAD PUSH1 0x20 DUP10 ADD KECCAK256 EQ PUSH2 0x1BFD JUMPI POP PUSH1 0x0 NOT DUP2 EQ PUSH2 0x1BEA JUMPI PUSH1 0x1 ADD PUSH2 0x1B79 JUMP JUMPDEST PUSH4 0x4E487B71 PUSH1 0xE0 SHL DUP8 MSTORE PUSH1 0x11 PUSH1 0x4 MSTORE DUP9 DUP8 REVERT JUMPDEST SWAP1 PUSH1 0x0 SWAP9 SWAP3 SWAP4 SWAP5 SWAP6 SWAP7 SWAP8 SWAP9 NOT SWAP2 DUP3 DUP2 ADD SWAP1 DUP2 GT PUSH2 0x1D44 JUMPI PUSH2 0x1C21 PUSH2 0x1C29 SWAP2 DUP6 PUSH2 0x21B1 JUMP JUMPDEST POP SWAP2 DUP5 PUSH2 0x21B1 JUMP JUMPDEST SWAP2 SWAP1 SWAP2 PUSH2 0x1D31 JUMPI PUSH2 0x1C39 SWAP2 PUSH2 0x276F JUMP JUMPDEST DUP2 SLOAD DUP1 ISZERO PUSH2 0x1D1E JUMPI ADD SWAP1 PUSH2 0x1C4D DUP3 DUP3 PUSH2 0x21B1 JUMP JUMPDEST SWAP10 SWAP1 SWAP10 PUSH2 0x1D0C JUMPI POP DUP8 DUP10 PUSH2 0x1C67 PUSH2 0x1CA7 SWAP9 SWAP10 SWAP11 SWAP12 SLOAD PUSH2 0x21C9 JUMP JUMPDEST DUP1 PUSH2 0x1CCE JUMPI JUMPDEST POP POP POP SSTORE JUMPDEST PUSH1 0x5 ADD DUP1 SLOAD PUSH1 0x1 PUSH1 0x1 PUSH1 0xA0 SHL SUB NOT AND DUP3 DUP5 AND SWAP1 DUP2 OR SWAP1 SWAP2 SSTORE DUP7 MSTORE PUSH1 0x7 PUSH1 0x20 MSTORE PUSH1 0x40 DUP7 KECCAK256 PUSH2 0x1CA0 SWAP1 DUP7 SWAP1 PUSH2 0x2529 JUMP JUMPDEST AND SWAP3 PUSH2 0x2556 JUMP JUMPDEST PUSH32 0x6840904F5B31827F74E1497360DA245F56E530C8C3DE3163A2D31F11493273C6 DUP5 DUP1 LOG4 DUP1 RETURN JUMPDEST DUP3 PUSH1 0x1F DUP1 DUP4 GT PUSH1 0x1 EQ PUSH2 0x1CE8 JUMPI POP POP POP SSTORE JUMPDEST DUP9 CODESIZE DUP1 PUSH2 0x1C6D JUMP JUMPDEST DUP4 DUP3 MSTORE PUSH1 0x20 DUP3 KECCAK256 SWAP4 SWAP2 SWAP3 PUSH2 0x1D05 SWAP2 ADD PUSH1 0x5 SHR DUP5 ADD PUSH1 0x1 DUP6 ADD PUSH2 0x2406 JUMP JUMPDEST SSTORE SSTORE PUSH2 0x1CE0 JUMP JUMPDEST PUSH4 0x4E487B71 PUSH1 0xE0 SHL DUP10 MSTORE PUSH1 0x4 DUP10 SWAP1 MSTORE DUP9 REVERT JUMPDEST PUSH4 0x4E487B71 PUSH1 0xE0 SHL DUP10 MSTORE PUSH1 0x31 PUSH1 0x4 MSTORE DUP10 DUP10 REVERT JUMPDEST PUSH4 0x4E487B71 PUSH1 0xE0 SHL DUP11 MSTORE PUSH1 0x4 DUP11 SWAP1 MSTORE DUP11 DUP11 REVERT JUMPDEST PUSH4 0x4E487B71 PUSH1 0xE0 SHL DUP11 MSTORE PUSH1 0x11 PUSH1 0x4 MSTORE DUP11 DUP11 REVERT JUMPDEST DUP13 MSTORE POP POP PUSH1 0x20 DUP11 KECCAK256 DUP11 SWAP2 SWAP1 JUMPDEST DUP2 DUP4 LT PUSH2 0x1D7C JUMPI POP POP DUP2 PUSH1 0x20 PUSH2 0x1BC5 SWAP3 DUP3 ADD ADD CODESIZE PUSH2 0x1BB8 JUMP JUMPDEST DUP1 SLOAD PUSH1 0x20 DUP5 DUP7 ADD DUP2 ADD SWAP2 SWAP1 SWAP2 MSTORE SWAP1 SWAP3 ADD SWAP2 PUSH1 0x1 ADD PUSH2 0x1D63 JUMP JUMPDEST SWAP1 POP PUSH1 0x20 SWAP3 POP PUSH2 0x1BC5 SWAP5 SWAP2 POP PUSH1 0xFF NOT AND DUP3 DUP5 ADD MSTORE ISZERO ISZERO PUSH1 0x5 SHL DUP3 ADD ADD CODESIZE PUSH2 0x1BB8 JUMP JUMPDEST POP POP SWAP1 SWAP2 SWAP3 SWAP5 SWAP7 POP PUSH2 0x1CA7 SWAP4 SWAP6 POP PUSH2 0x1C72 JUMP JUMPDEST PUSH1 0x40 MLOAD PUSH3 0x461BCD PUSH1 0xE5 SHL DUP2 MSTORE PUSH1 0x20 PUSH1 0x4 DUP3 ADD MSTORE PUSH1 0x11 DUP2 DUP10 ADD MSTORE PUSH17 0x24B73B30B634B2103732BB9037BBB732B9 PUSH1 0x79 SHL PUSH1 0x44 DUP3 ADD MSTORE PUSH1 0x64 SWAP1 REVERT JUMPDEST PUSH1 0x40 MLOAD PUSH3 0x461BCD PUSH1 0xE5 SHL DUP2 MSTORE PUSH1 0x20 PUSH1 0x4 DUP3 ADD MSTORE PUSH1 0x1A DUP2 DUP10 ADD MSTORE PUSH32 0x4E6F7420617574686F72697A656420746F207472616E73666572000000000000 PUSH1 0x44 DUP3 ADD MSTORE PUSH1 0x64 SWAP1 REVERT JUMPDEST POP CALLER DUP6 MSTORE PUSH1 0x4 PUSH1 0x20 MSTORE PUSH1 0xFF PUSH1 0x40 DUP7 KECCAK256 SLOAD AND PUSH2 0x1B5D JUMP JUMPDEST POP CALLVALUE PUSH2 0x547 JUMPI DUP1 PUSH1 0x3 NOT CALLDATASIZE ADD SLT PUSH2 0x547 JUMPI PUSH1 0x3 SLOAD PUSH1 0x40 MLOAD PUSH1 0x1 PUSH1 0x1 PUSH1 0xA0 SHL SUB SWAP1 SWAP2 AND DUP2 MSTORE PUSH1 0x20 SWAP1 RETURN JUMPDEST POP CALLVALUE PUSH2 0x547 JUMPI DUP1 PUSH1 0x3 NOT CALLDATASIZE ADD SLT PUSH2 0x547 JUMPI PUSH1 0x40 MLOAD PUSH32 0x0 PUSH1 0x1 PUSH1 0x1 PUSH1 0xA0 SHL SUB AND DUP2 MSTORE PUSH1 0x20 SWAP1 RETURN JUMPDEST POP CALLVALUE PUSH2 0x547 JUMPI PUSH1 0x60 CALLDATASIZE PUSH1 0x3 NOT ADD SLT PUSH2 0x547 JUMPI PUSH1 0x4 CALLDATALOAD PUSH1 0x1 PUSH1 0x1 PUSH1 0x40 SHL SUB DUP2 GT PUSH2 0xA20 JUMPI PUSH2 0x1EFB SWAP1 CALLDATASIZE SWAP1 PUSH1 0x4 ADD PUSH2 0x2102 JUMP JUMPDEST PUSH1 0x24 CALLDATALOAD SWAP1 PUSH1 0x44 CALLDATALOAD SWAP1 PUSH1 0x40 MLOAD SWAP3 DUP4 DUP3 MLOAD PUSH1 0x20 SWAP6 DUP2 PUSH2 0x1F1C DUP9 SWAP4 DUP4 DUP6 DUP10 ADD PUSH2 0x22BA JUMP JUMPDEST DUP2 ADD PUSH1 0x5 DUP2 MSTORE SUB ADD SWAP1 KECCAK256 SWAP2 PUSH2 0x1F37 PUSH1 0xFF PUSH1 0xB DUP6 ADD SLOAD AND PUSH2 0x2576 JUMP JUMPDEST PUSH1 0x5 DUP4 ADD SLOAD PUSH1 0x1 PUSH1 0x1 PUSH1 0xA0 SHL SUB SWAP1 DUP2 AND CALLER SUB PUSH2 0x2052 JUMPI DUP3 ISZERO DUP1 ISZERO SWAP1 PUSH2 0x2049 JUMPI JUMPDEST PUSH2 0x1F60 SWAP1 PUSH2 0x2316 JUMP JUMPDEST PUSH1 0x3 SLOAD AND DUP1 PUSH2 0x1FB5 JUMPI JUMPDEST POP SWAP1 PUSH2 0x1FA8 DUP4 SWAP3 PUSH32 0x6F614E54FAFE71F7C0A065E36894602CA7ED071E7BE8DF9BADE0418E775FAC56 SWAP6 PUSH1 0x4 PUSH1 0x3 PUSH1 0x40 SWAP8 ADD SWAP6 DUP6 DUP8 SLOAD SWAP8 SSTORE ADD SSTORE PUSH2 0x2556 JUMP JUMPDEST SWAP5 DUP4 MLOAD SWAP3 DUP4 MSTORE DUP3 ADD MSTORE LOG2 DUP1 RETURN JUMPDEST SWAP3 SWAP2 SWAP1 DUP6 PUSH1 0x40 MLOAD DUP1 SWAP6 PUSH4 0x10D3583 PUSH1 0xE2 SHL DUP3 MSTORE DUP2 DUP1 PUSH2 0x1FD9 DUP11 DUP9 DUP9 PUSH1 0x4 DUP6 ADD PUSH2 0x237A JUMP JUMPDEST SUB SWAP2 GAS STATICCALL SWAP1 DUP2 ISZERO PUSH2 0x203E JUMPI PUSH32 0x6F614E54FAFE71F7C0A065E36894602CA7ED071E7BE8DF9BADE0418E775FAC56 SWAP6 PUSH2 0x201C PUSH2 0x1FA8 SWAP4 PUSH1 0x40 SWAP8 DUP12 SWAP2 PUSH2 0x2027 JUMPI POP PUSH2 0x239C JUMP JUMPDEST SWAP6 POP SWAP2 SWAP3 SWAP4 POP PUSH2 0x1F6A JUMP JUMPDEST PUSH2 0x494 SWAP2 POP DUP11 RETURNDATASIZE DUP13 GT PUSH2 0x49A JUMPI PUSH2 0x48C DUP2 DUP4 PUSH2 0x20C6 JUMP JUMPDEST PUSH1 0x40 MLOAD RETURNDATASIZE DUP10 DUP3 RETURNDATACOPY RETURNDATASIZE SWAP1 REVERT JUMPDEST POP DUP5 ISZERO ISZERO PUSH2 0x1F57 JUMP JUMPDEST PUSH1 0x40 MLOAD PUSH3 0x461BCD PUSH1 0xE5 SHL DUP2 MSTORE PUSH1 0x4 DUP2 ADD DUP8 SWAP1 MSTORE PUSH1 0x1B PUSH1 0x24 DUP3 ADD MSTORE PUSH32 0x4F6E6C79206F776E65722063616E207570646174652070726963650000000000 PUSH1 0x44 DUP3 ADD MSTORE PUSH1 0x64 SWAP1 REVERT JUMPDEST PUSH1 0x1 PUSH1 0x1 PUSH1 0x40 SHL SUB DUP2 GT PUSH2 0x413 JUMPI PUSH1 0x40 MSTORE JUMP JUMPDEST PUSH2 0x180 DUP2 ADD SWAP1 DUP2 LT PUSH1 0x1 PUSH1 0x1 PUSH1 0x40 SHL SUB DUP3 GT OR PUSH2 0x413 JUMPI PUSH1 0x40 MSTORE JUMP JUMPDEST SWAP1 PUSH1 0x1F DUP1 NOT SWAP2 ADD AND DUP2 ADD SWAP1 DUP2 LT PUSH1 0x1 PUSH1 0x1 PUSH1 0x40 SHL SUB DUP3 GT OR PUSH2 0x413 JUMPI PUSH1 0x40 MSTORE JUMP JUMPDEST PUSH1 0x1 PUSH1 0x1 PUSH1 0x40 SHL SUB DUP2 GT PUSH2 0x413 JUMPI PUSH1 0x1F ADD PUSH1 0x1F NOT AND PUSH1 0x20 ADD SWAP1 JUMP JUMPDEST DUP2 PUSH1 0x1F DUP3 ADD SLT ISZERO PUSH2 0x2149 JUMPI DUP1 CALLDATALOAD SWAP1 PUSH2 0x2119 DUP3 PUSH2 0x20E7 JUMP JUMPDEST SWAP3 PUSH2 0x2127 PUSH1 0x40 MLOAD SWAP5 DUP6 PUSH2 0x20C6 JUMP JUMPDEST DUP3 DUP5 MSTORE PUSH1 0x20 DUP4 DUP4 ADD ADD GT PUSH2 0x2149 JUMPI DUP2 PUSH1 0x0 SWAP3 PUSH1 0x20 DUP1 SWAP4 ADD DUP4 DUP7 ADD CALLDATACOPY DUP4 ADD ADD MSTORE SWAP1 JUMP JUMPDEST PUSH1 0x0 DUP1 REVERT JUMPDEST PUSH1 0x4 CALLDATALOAD SWAP1 PUSH1 0x1 PUSH1 0x1 PUSH1 0xA0 SHL SUB DUP3 AND DUP3 SUB PUSH2 0x2149 JUMPI JUMP JUMPDEST PUSH1 0x8 SLOAD DUP2 LT ISZERO PUSH2 0x219B JUMPI PUSH1 0x8 PUSH1 0x0 MSTORE PUSH32 0xF3F7A9FE364FAAB93B216DA50A3214154F22A0A2B415B23A84C8169E8B636EE3 ADD SWAP1 PUSH1 0x0 SWAP1 JUMP JUMPDEST PUSH4 0x4E487B71 PUSH1 0xE0 SHL PUSH1 0x0 MSTORE PUSH1 0x32 PUSH1 0x4 MSTORE PUSH1 0x24 PUSH1 0x0 REVERT JUMPDEST DUP1 SLOAD DUP3 LT ISZERO PUSH2 0x219B JUMPI PUSH1 0x0 MSTORE PUSH1 0x20 PUSH1 0x0 KECCAK256 ADD SWAP1 PUSH1 0x0 SWAP1 JUMP JUMPDEST SWAP1 PUSH1 0x1 DUP3 DUP2 SHR SWAP3 AND DUP1 ISZERO PUSH2 0x21F9 JUMPI JUMPDEST PUSH1 0x20 DUP4 LT EQ PUSH2 0x21E3 JUMPI JUMP JUMPDEST PUSH4 0x4E487B71 PUSH1 0xE0 SHL PUSH1 0x0 MSTORE PUSH1 0x22 PUSH1 0x4 MSTORE PUSH1 0x24 PUSH1 0x0 REVERT JUMPDEST SWAP2 PUSH1 0x7F AND SWAP2 PUSH2 0x21D8 JUMP JUMPDEST SWAP1 PUSH1 0x40 MLOAD SWAP2 DUP3 PUSH1 0x0 DUP3 SLOAD SWAP3 PUSH2 0x2217 DUP5 PUSH2 0x21C9 JUMP JUMPDEST SWAP1 DUP2 DUP5 MSTORE PUSH1 0x1 SWAP5 DUP6 DUP2 AND SWAP1 DUP2 PUSH1 0x0 EQ PUSH2 0x2286 JUMPI POP PUSH1 0x1 EQ PUSH2 0x2243 JUMPI JUMPDEST POP POP PUSH2 0x2241 SWAP3 POP SUB DUP4 PUSH2 0x20C6 JUMP JUMPDEST JUMP JUMPDEST SWAP1 SWAP4 SWAP2 POP PUSH1 0x0 MSTORE PUSH1 0x20 SWAP1 DUP2 PUSH1 0x0 KECCAK256 SWAP4 PUSH1 0x0 SWAP2 JUMPDEST DUP2 DUP4 LT PUSH2 0x226E JUMPI POP POP PUSH2 0x2241 SWAP4 POP DUP3 ADD ADD CODESIZE DUP1 PUSH2 0x2233 JUMP JUMPDEST DUP6 SLOAD DUP9 DUP5 ADD DUP6 ADD MSTORE SWAP5 DUP6 ADD SWAP5 DUP8 SWAP5 POP SWAP2 DUP4 ADD SWAP2 PUSH2 0x2256 JUMP JUMPDEST SWAP2 POP POP PUSH2 0x2241 SWAP5 POP PUSH1 0x20 SWAP3 POP PUSH1 0xFF NOT AND DUP3 DUP5 ADD MSTORE ISZERO ISZERO PUSH1 0x5 SHL DUP3 ADD ADD CODESIZE DUP1 PUSH2 0x2233 JUMP JUMPDEST SWAP1 PUSH2 0x3FD JUMPI PUSH2 0x22B7 SWAP1 PUSH2 0x2203 JUMP JUMPDEST SWAP1 JUMP JUMPDEST PUSH1 0x0 JUMPDEST DUP4 DUP2 LT PUSH2 0x22CD JUMPI POP POP PUSH1 0x0 SWAP2 ADD MSTORE JUMP JUMPDEST DUP2 DUP2 ADD MLOAD DUP4 DUP3 ADD MSTORE PUSH1 0x20 ADD PUSH2 0x22BD JUMP JUMPDEST SWAP1 PUSH1 0x20 SWAP2 PUSH2 0x22F6 DUP2 MLOAD DUP1 SWAP3 DUP2 DUP6 MSTORE DUP6 DUP1 DUP7 ADD SWAP2 ADD PUSH2 0x22BA JUMP JUMPDEST PUSH1 0x1F ADD PUSH1 0x1F NOT AND ADD ADD SWAP1 JUMP JUMPDEST PUSH1 0x0 SLOAD PUSH1 0x1 PUSH1 0x1 PUSH1 0xA0 SHL SUB AND CALLER SUB PUSH2 0x1668 JUMPI JUMP JUMPDEST ISZERO PUSH2 0x231D JUMPI JUMP JUMPDEST PUSH1 0x40 MLOAD PUSH3 0x461BCD PUSH1 0xE5 SHL DUP2 MSTORE PUSH1 0x20 PUSH1 0x4 DUP3 ADD MSTORE PUSH1 0x1E PUSH1 0x24 DUP3 ADD MSTORE PUSH32 0x4174206C65617374206F6E65207072696365206D757374206265207365740000 PUSH1 0x44 DUP3 ADD MSTORE PUSH1 0x64 SWAP1 REVERT JUMPDEST SWAP1 DUP2 PUSH1 0x20 SWAP2 SUB SLT PUSH2 0x2149 JUMPI MLOAD DUP1 ISZERO ISZERO DUP2 SUB PUSH2 0x2149 JUMPI SWAP1 JUMP JUMPDEST PUSH2 0x2392 PUSH1 0x40 SWAP3 SWAP6 SWAP5 SWAP4 SWAP6 PUSH1 0x60 DUP4 MSTORE PUSH1 0x60 DUP4 ADD SWAP1 PUSH2 0x22DD JUMP JUMPDEST SWAP5 PUSH1 0x20 DUP3 ADD MSTORE ADD MSTORE JUMP JUMPDEST ISZERO PUSH2 0x23A3 JUMPI JUMP JUMPDEST PUSH1 0x40 MLOAD PUSH3 0x461BCD PUSH1 0xE5 SHL DUP2 MSTORE PUSH1 0x20 PUSH1 0x4 DUP3 ADD MSTORE PUSH1 0x35 PUSH1 0x24 DUP3 ADD MSTORE PUSH32 0x50726963652062656C6F77206D696E696D756D20286D75737420636F76657220 PUSH1 0x44 DUP3 ADD MSTORE PUSH21 0x646570656E64656E637920726F79616C7469657329 PUSH1 0x58 SHL PUSH1 0x64 DUP3 ADD MSTORE PUSH1 0x84 SWAP1 REVERT JUMPDEST DUP2 DUP2 LT PUSH2 0x2411 JUMPI POP POP JUMP JUMPDEST PUSH1 0x0 DUP2 SSTORE PUSH1 0x1 ADD PUSH2 0x2406 JUMP JUMPDEST SWAP2 SWAP1 PUSH1 0x1F DUP2 GT PUSH2 0x242C JUMPI POP POP POP JUMP JUMPDEST PUSH2 0x2241 SWAP3 PUSH1 0x0 MSTORE PUSH1 0x20 PUSH1 0x0 KECCAK256 SWAP1 PUSH1 0x20 PUSH1 0x1F DUP5 ADD PUSH1 0x5 SHR DUP4 ADD SWAP4 LT PUSH2 0x2458 JUMPI JUMPDEST PUSH1 0x1F ADD PUSH1 0x5 SHR ADD SWAP1 PUSH2 0x2406 JUMP JUMPDEST SWAP1 SWAP2 POP DUP2 SWAP1 PUSH2 0x244B JUMP JUMPDEST SWAP2 SWAP1 SWAP2 DUP3 MLOAD PUSH1 0x1 PUSH1 0x1 PUSH1 0x40 SHL SUB DUP2 GT PUSH2 0x413 JUMPI PUSH2 0x2489 DUP2 PUSH2 0x2483 DUP5 SLOAD PUSH2 0x21C9 JUMP JUMPDEST DUP5 PUSH2 0x241D JUMP JUMPDEST PUSH1 0x20 DUP1 PUSH1 0x1F DUP4 GT PUSH1 0x1 EQ PUSH2 0x24C5 JUMPI POP DUP2 SWAP3 SWAP4 SWAP5 PUSH1 0x0 SWAP3 PUSH2 0x24BA JUMPI JUMPDEST POP POP DUP2 PUSH1 0x1 SHL SWAP2 PUSH1 0x0 NOT SWAP1 PUSH1 0x3 SHL SHR NOT AND OR SWAP1 SSTORE JUMP JUMPDEST ADD MLOAD SWAP1 POP CODESIZE DUP1 PUSH2 0x24A4 JUMP JUMPDEST SWAP1 PUSH1 0x1F NOT DUP4 AND SWAP6 DUP5 PUSH1 0x0 MSTORE DUP3 PUSH1 0x0 KECCAK256 SWAP3 PUSH1 0x0 SWAP1 JUMPDEST DUP9 DUP3 LT PUSH2 0x2511 JUMPI POP POP DUP4 PUSH1 0x1 SWAP6 SWAP7 SWAP8 LT PUSH2 0x24F8 JUMPI JUMPDEST POP POP POP DUP2 SHL ADD SWAP1 SSTORE JUMP JUMPDEST ADD MLOAD PUSH1 0x0 NOT PUSH1 0xF8 DUP5 PUSH1 0x3 SHL AND SHR NOT AND SWAP1 SSTORE CODESIZE DUP1 DUP1 PUSH2 0x24EE JUMP JUMPDEST DUP1 PUSH1 0x1 DUP6 SWAP7 DUP3 SWAP5 SWAP7 DUP7 ADD MLOAD DUP2 SSTORE ADD SWAP6 ADD SWAP4 ADD SWAP1 PUSH2 0x24D9 JUMP JUMPDEST DUP1 SLOAD PUSH1 0x1 PUSH1 0x40 SHL DUP2 LT ISZERO PUSH2 0x413 JUMPI PUSH2 0x2546 SWAP2 PUSH1 0x1 DUP3 ADD DUP2 SSTORE PUSH2 0x21B1 JUMP JUMPDEST SWAP2 SWAP1 SWAP2 PUSH2 0x3FD JUMPI PUSH2 0x2241 SWAP2 PUSH2 0x2462 JUMP JUMPDEST PUSH2 0x256E SWAP1 PUSH1 0x20 PUSH1 0x40 MLOAD SWAP3 DUP3 DUP5 DUP1 SWAP5 MLOAD SWAP4 DUP5 SWAP3 ADD PUSH2 0x22BA JUMP JUMPDEST DUP2 ADD SUB SWAP1 KECCAK256 SWAP1 JUMP JUMPDEST ISZERO PUSH2 0x257D JUMPI JUMP JUMPDEST PUSH1 0x40 MLOAD PUSH3 0x461BCD PUSH1 0xE5 SHL DUP2 MSTORE PUSH1 0x20 PUSH1 0x4 DUP3 ADD MSTORE PUSH1 0x13 PUSH1 0x24 DUP3 ADD MSTORE PUSH19 0x4173736574206E6F7420617661696C61626C65 PUSH1 0x68 SHL PUSH1 0x44 DUP3 ADD MSTORE PUSH1 0x64 SWAP1 REVERT JUMPDEST SWAP2 SWAP1 DUP3 PUSH1 0x40 SWAP2 SUB SLT PUSH2 0x2149 JUMPI PUSH1 0x20 DUP3 MLOAD SWAP3 ADD MLOAD SWAP1 JUMP JUMPDEST SWAP2 SWAP1 DUP3 ADD DUP1 SWAP3 GT PUSH2 0x25DB JUMPI JUMP JUMPDEST PUSH4 0x4E487B71 PUSH1 0xE0 SHL PUSH1 0x0 MSTORE PUSH1 0x11 PUSH1 0x4 MSTORE PUSH1 0x24 PUSH1 0x0 REVERT JUMPDEST DUP2 DUP2 MUL SWAP3 SWAP2 DUP2 ISZERO SWAP2 DUP5 DIV EQ OR ISZERO PUSH2 0x25DB JUMPI JUMP JUMPDEST SWAP2 SWAP1 DUP3 SUB SWAP2 DUP3 GT PUSH2 0x25DB JUMPI JUMP JUMPDEST RETURNDATASIZE ISZERO PUSH2 0x263C JUMPI RETURNDATASIZE SWAP1 PUSH2 0x2622 DUP3 PUSH2 0x20E7 JUMP JUMPDEST SWAP2 PUSH2 0x2630 PUSH1 0x40 MLOAD SWAP4 DUP5 PUSH2 0x20C6 JUMP JUMPDEST DUP3 MSTORE RETURNDATASIZE PUSH1 0x0 PUSH1 0x20 DUP5 ADD RETURNDATACOPY JUMP JUMPDEST PUSH1 0x60 SWAP1 JUMP JUMPDEST ISZERO PUSH2 0x2648 JUMPI JUMP JUMPDEST PUSH1 0x40 MLOAD PUSH3 0x461BCD PUSH1 0xE5 SHL DUP2 MSTORE PUSH1 0x20 PUSH1 0x4 DUP3 ADD MSTORE PUSH1 0x17 PUSH1 0x24 DUP3 ADD MSTORE PUSH32 0x5061796D656E7420746F206F776E6572206661696C6564000000000000000000 PUSH1 0x44 DUP3 ADD MSTORE PUSH1 0x64 SWAP1 REVERT JUMPDEST DUP1 SLOAD PUSH1 0x1 PUSH1 0x40 SHL DUP2 LT ISZERO PUSH2 0x413 JUMPI PUSH2 0x26AA SWAP2 PUSH1 0x1 DUP3 ADD DUP2 SSTORE PUSH2 0x21B1 JUMP JUMPDEST DUP2 SWAP3 SWAP2 SLOAD SWAP1 PUSH1 0x3 SHL SWAP2 PUSH1 0x1 DUP1 PUSH1 0xA0 SHL SUB DUP1 SWAP2 AND DUP4 SHL SWAP3 SHL NOT AND OR SWAP1 SSTORE JUMP JUMPDEST PUSH1 0x2 DUP1 SLOAD EQ PUSH2 0x26D7 JUMPI PUSH1 0x2 DUP1 SSTORE JUMP JUMPDEST PUSH1 0x40 MLOAD PUSH4 0x3EE5AEB5 PUSH1 0xE0 SHL DUP2 MSTORE PUSH1 0x4 SWAP1 REVERT JUMPDEST PUSH1 0x20 PUSH2 0x2702 SWAP2 DUP2 PUSH1 0x40 MLOAD SWAP4 DUP3 DUP6 DUP1 SWAP5 MLOAD SWAP4 DUP5 SWAP3 ADD PUSH2 0x22BA JUMP JUMPDEST DUP2 ADD PUSH1 0x5 DUP2 MSTORE SUB ADD SWAP1 KECCAK256 PUSH1 0xFF PUSH1 0xB DUP3 ADD SLOAD AND ISZERO PUSH2 0x2729 JUMPI PUSH1 0x5 ADD SLOAD PUSH1 0x1 PUSH1 0x1 PUSH1 0xA0 SHL SUB AND SWAP1 JUMP JUMPDEST POP PUSH1 0x0 SWAP1 JUMP JUMPDEST ISZERO PUSH2 0x2736 JUMPI JUMP JUMPDEST PUSH1 0x40 MLOAD PUSH3 0x461BCD PUSH1 0xE5 SHL DUP2 MSTORE PUSH1 0x20 PUSH1 0x4 DUP3 ADD MSTORE PUSH1 0x11 PUSH1 0x24 DUP3 ADD MSTORE PUSH17 0x15DA5D1A191C985DD85B0819985A5B1959 PUSH1 0x7A SHL PUSH1 0x44 DUP3 ADD MSTORE PUSH1 0x64 SWAP1 REVERT JUMPDEST SWAP1 DUP1 DUP3 EQ PUSH2 0x2847 JUMPI PUSH2 0x2781 DUP2 SLOAD PUSH2 0x21C9 JUMP JUMPDEST SWAP1 PUSH1 0x1 PUSH1 0x1 PUSH1 0x40 SHL SUB DUP3 GT PUSH2 0x413 JUMPI DUP2 SWAP1 PUSH2 0x27A6 DUP3 PUSH2 0x27A0 DUP7 SLOAD PUSH2 0x21C9 JUMP JUMPDEST DUP7 PUSH2 0x241D JUMP JUMPDEST PUSH1 0x0 SWAP1 PUSH1 0x1F DUP4 GT PUSH1 0x1 EQ PUSH2 0x27DC JUMPI PUSH1 0x0 SWAP3 PUSH2 0x27D1 JUMPI POP POP DUP2 PUSH1 0x1 SHL SWAP2 PUSH1 0x0 NOT SWAP1 PUSH1 0x3 SHL SHR NOT AND OR SWAP1 SSTORE JUMP JUMPDEST ADD SLOAD SWAP1 POP CODESIZE DUP1 PUSH2 0x24A4 JUMP JUMPDEST DUP2 MSTORE PUSH1 0x20 DUP1 DUP3 KECCAK256 DUP6 DUP4 MSTORE DUP2 DUP4 KECCAK256 SWAP4 POP SWAP1 PUSH1 0x1F NOT DUP6 AND SWAP1 DUP4 SWAP1 JUMPDEST DUP3 DUP3 LT PUSH2 0x282E JUMPI POP POP SWAP1 DUP5 PUSH1 0x1 SWAP6 SWAP5 SWAP4 SWAP3 LT PUSH2 0x2815 JUMPI POP POP POP DUP2 SHL ADD SWAP1 SSTORE JUMP JUMPDEST ADD SLOAD PUSH1 0x0 NOT PUSH1 0xF8 DUP5 PUSH1 0x3 SHL AND SHR NOT AND SWAP1 SSTORE CODESIZE DUP1 DUP1 PUSH2 0x24EE JUMP JUMPDEST DUP5 SWAP6 DUP2 SWAP3 SWAP6 DUP6 ADD SLOAD DUP2 SSTORE PUSH1 0x1 DUP1 SWAP2 ADD SWAP7 ADD SWAP5 ADD SWAP1 PUSH2 0x27F5 JUMP JUMPDEST POP POP JUMP INVALID LOG2 PUSH5 0x6970667358 0x22 SLT KECCAK256 0xDC 0x25 LOG0 JUMPDEST LT PUSH0 0x24 RETURN SHR 0xD1 DUP13 NOT SWAP10 0xC3 0xBB ADD 0xEC 0xE7 NUMBER 0xAE 0x1F 0x4A SWAP3 PUSH7 0x743A591A6CC45E 0xA8 PUSH5 0x736F6C6343 STOP ADDMOD EQ STOP CALLER "},"methodIdentifiers":{"FEE_DENOMINATOR()":"d73792a9","USDC_ADDRESS()":"bb09d9b7","acceptOwnership()":"79ba5097","allAssetIds(uint256)":"e814d66b","approvedMarketplaces(address)":"543a9eb9","assetPurchasers(string,uint256)":"8bccf009","deactivateAsset(string)":"51618eff","getAsset(string)":"cd5286d0","getAssetIdByIndex(uint256)":"8c5deff8","getAssetPurchasers(string)":"9ff95b8e","getCurrentOwner(string)":"d55a772d","getTotalAssets()":"6e07302b","getUserAssets(address)":"765ff061","libraryAssets(string)":"6cb3db25","owner()":"8da5cb5b","pendingOwner()":"e30c3978","platformFeePercentage()":"cdd78cfc","purchaseAssetWithETH(string)":"8ada33dc","purchaseAssetWithUSDC(string)":"fb055846","registerAsset(string,string,string,uint256,uint256)":"ff6c0dde","renounceOwnership()":"715018a6","royaltyContract()":"1663ee03","setApprovedMarketplace(address,bool)":"bbf46b84","setRoyaltyContract(address)":"d9aa187c","transferAssetOwnership(string,address)":"2203f8f1","transferOwnership(address)":"f2fde38b","updateAssetPrice(string,uint256,uint256)":"0f393baf","updatePlatformFee(uint256)":"aa0b5988","usdcToken()":"11eac855","userOwnedAssets(address,uint256)":"5d483ab9","withdrawPlatformFeesETH()":"9c521838","withdrawPlatformFeesUSDC()":"dceb7686"}}}}}