{"ClayMarketplace.sol":{"ClayMarketplace":{"abi":[{"inputs":[{"internalType":"address","name":"_libraryContract","type":"address"}],"stateMutability":"nonpayable","type":"constructor"},{"inputs":[{"internalType":"address","name":"owner","type":"address"}],"name":"OwnableInvalidOwner","type":"error"},{"inputs":[{"internalType":"address","name":"account","type":"address"}],"name":"OwnableUnauthorizedAccount","type":"error"},{"inputs":[],"name":"ReentrancyGuardReentrantCall","type":"error"},{"anonymous":false,"inputs":[{"indexed":true,"internalType":"string","name":"projectId","type":"string"},{"indexed":true,"internalType":"address","name":"seller","type":"address"},{"indexed":false,"internalType":"uint256","name":"price","type":"uint256"},{"indexed":false,"internalType":"uint256","name":"timestamp","type":"uint256"}],"name":"AssetListed","type":"event"},{"anonymous":false,"inputs":[{"indexed":true,"internalType":"string","name":"projectId","type":"string"},{"indexed":true,"internalType":"address","name":"seller","type":"address"},{"indexed":true,"internalType":"address","name":"buyer","type":"address"},{"indexed":false,"internalType":"uint256","name":"price","type":"uint256"},{"indexed":false,"internalType":"uint256","name":"platformFee","type":"uint256"}],"name":"AssetSold","type":"event"},{"anonymous":false,"inputs":[{"indexed":true,"internalType":"string","name":"projectId","type":"string"},{"indexed":true,"internalType":"address","name":"seller","type":"address"}],"name":"ListingCancelled","type":"event"},{"anonymous":false,"inputs":[{"indexed":true,"internalType":"uint256","name":"offerId","type":"uint256"},{"indexed":true,"internalType":"string","name":"projectId","type":"string"},{"indexed":true,"internalType":"address","name":"seller","type":"address"},{"indexed":false,"internalType":"address","name":"buyer","type":"address"},{"indexed":false,"internalType":"uint256","name":"price","type":"uint256"}],"name":"OfferAccepted","type":"event"},{"anonymous":false,"inputs":[{"indexed":true,"internalType":"uint256","name":"offerId","type":"uint256"},{"indexed":true,"internalType":"string","name":"projectId","type":"string"},{"indexed":true,"internalType":"address","name":"buyer","type":"address"}],"name":"OfferCancelled","type":"event"},{"anonymous":false,"inputs":[{"indexed":true,"internalType":"uint256","name":"offerId","type":"uint256"},{"indexed":true,"internalType":"string","name":"projectId","type":"string"},{"indexed":true,"internalType":"address","name":"buyer","type":"address"},{"indexed":false,"internalType":"uint256","name":"offerPrice","type":"uint256"},{"indexed":false,"internalType":"uint256","name":"expiresAt","type":"uint256"}],"name":"OfferCreated","type":"event"},{"anonymous":false,"inputs":[{"indexed":true,"internalType":"address","name":"previousOwner","type":"address"},{"indexed":true,"internalType":"address","name":"newOwner","type":"address"}],"name":"OwnershipTransferred","type":"event"},{"inputs":[],"name":"FEE_DENOMINATOR","outputs":[{"internalType":"uint256","name":"","type":"uint256"}],"stateMutability":"view","type":"function"},{"inputs":[],"name":"USDC_ADDRESS","outputs":[{"internalType":"address","name":"","type":"address"}],"stateMutability":"view","type":"function"},{"inputs":[{"internalType":"uint256","name":"offerId","type":"uint256"}],"name":"acceptOffer","outputs":[],"stateMutability":"nonpayable","type":"function"},{"inputs":[{"internalType":"uint256","name":"","type":"uint256"}],"name":"activeListings","outputs":[{"internalType":"string","name":"","type":"string"}],"stateMutability":"view","type":"function"},{"inputs":[{"internalType":"string","name":"projectId","type":"string"}],"name":"buyAsset","outputs":[],"stateMutability":"payable","type":"function"},{"inputs":[{"internalType":"string","name":"projectId","type":"string"}],"name":"cancelListing","outputs":[],"stateMutability":"nonpayable","type":"function"},{"inputs":[{"internalType":"uint256","name":"offerId","type":"uint256"}],"name":"cancelOffer","outputs":[],"stateMutability":"nonpayable","type":"function"},{"inputs":[],"name":"getActiveListingsCount","outputs":[{"internalType":"uint256","name":"","type":"uint256"}],"stateMutability":"view","type":"function"},{"inputs":[{"internalType":"string","name":"projectId","type":"string"}],"name":"getProjectOffers","outputs":[{"internalType":"uint256[]","name":"","type":"uint256[]"}],"stateMutability":"view","type":"function"},{"inputs":[],"name":"libraryContract","outputs":[{"internalType":"contract IClayLibrary","name":"","type":"address"}],"stateMutability":"view","type":"function"},{"inputs":[{"internalType":"string","name":"projectId","type":"string"},{"internalType":"uint256","name":"price","type":"uint256"},{"internalType":"enum ClayMarketplace.PaymentToken","name":"paymentToken","type":"uint8"}],"name":"listAsset","outputs":[],"stateMutability":"nonpayable","type":"function"},{"inputs":[{"internalType":"string","name":"","type":"string"}],"name":"listings","outputs":[{"internalType":"string","name":"projectId","type":"string"},{"internalType":"address","name":"seller","type":"address"},{"internalType":"uint256","name":"price","type":"uint256"},{"internalType":"enum ClayMarketplace.PaymentToken","name":"paymentToken","type":"uint8"},{"internalType":"uint256","name":"listedAt","type":"uint256"},{"internalType":"bool","name":"isActive","type":"bool"}],"stateMutability":"view","type":"function"},{"inputs":[{"internalType":"string","name":"projectId","type":"string"},{"internalType":"uint256","name":"offerPrice","type":"uint256"},{"internalType":"enum ClayMarketplace.PaymentToken","name":"paymentToken","type":"uint8"},{"internalType":"uint256","name":"duration","type":"uint256"}],"name":"makeOffer","outputs":[],"stateMutability":"payable","type":"function"},{"inputs":[],"name":"nextOfferId","outputs":[{"internalType":"uint256","name":"","type":"uint256"}],"stateMutability":"view","type":"function"},{"inputs":[{"internalType":"uint256","name":"","type":"uint256"}],"name":"offers","outputs":[{"internalType":"string","name":"projectId","type":"string"},{"internalType":"address","name":"buyer","type":"address"},{"internalType":"uint256","name":"offerPrice","type":"uint256"},{"internalType":"enum ClayMarketplace.PaymentToken","name":"paymentToken","type":"uint8"},{"internalType":"uint256","name":"offeredAt","type":"uint256"},{"internalType":"uint256","name":"expiresAt","type":"uint256"},{"internalType":"bool","name":"isActive","type":"bool"}],"stateMutability":"view","type":"function"},{"inputs":[],"name":"owner","outputs":[{"internalType":"address","name":"","type":"address"}],"stateMutability":"view","type":"function"},{"inputs":[],"name":"platformFeePercentage","outputs":[{"internalType":"uint256","name":"","type":"uint256"}],"stateMutability":"view","type":"function"},{"inputs":[{"internalType":"string","name":"","type":"string"},{"internalType":"uint256","name":"","type":"uint256"}],"name":"projectOffers","outputs":[{"internalType":"uint256","name":"","type":"uint256"}],"stateMutability":"view","type":"function"},{"inputs":[],"name":"renounceOwnership","outputs":[],"stateMutability":"nonpayable","type":"function"},{"inputs":[{"internalType":"address","name":"newOwner","type":"address"}],"name":"transferOwnership","outputs":[],"stateMutability":"nonpayable","type":"function"},{"inputs":[{"internalType":"uint256","name":"newFeePercentage","type":"uint256"}],"name":"updatePlatformFee","outputs":[],"stateMutability":"nonpayable","type":"function"},{"inputs":[],"name":"usdcToken","outputs":[{"internalType":"contract IERC20","name":"","type":"address"}],"stateMutability":"view","type":"function"},{"inputs":[],"name":"withdrawPlatformFees","outputs":[],"stateMutability":"nonpayable","type":"function"},{"inputs":[],"name":"withdrawPlatformFeesUSDC","outputs":[],"stateMutability":"nonpayable","type":"function"}],"evm":{"bytecode":{"linkReferences":{},"object":"60a03461012157601f620029f238819003918201601f19168301916001600160401b038311848410176101265780849260209460405283398101031261012157516001600160a01b0390818116908190036101215733156101085760005460018060a01b0319903382821617600055604051933391167f8be0079c531659141344cd1fd0a4f28419497f9722a3daafe3b4186f6b6457e0600080a360018055600160065560fa600855600254161760025573036cbd53842c5426634e7929541ec2318f3dcf7e6080526128b590816200013d8239608051818181610398015281816104ac0152818161099e01528181610d5b0152818161134f01528181611bf501526127da0152f35b604051631e4fbdf760e01b815260006004820152602490fd5b600080fd5b634e487b7160e01b600052604160045260246000fdfe60806040908082526004908136101561001757600080fd5b600090813560e01c90816311eac85514611be15750806313b069151461189a5780635f5d06551461187b57806361cf486314611815578063715018a6146117bb57806377dec6c31461170b5780637b55927c146116ec5780638a72ea6a146116525780638da5cb5b1461162a578063943f226114611535578063a223555814611064578063a3a6705814610fe9578063aa0b598814610f7d578063bb09d9b714610f4e578063c7ef967214610ae7578063c815729d146106e7578063cdd78cfc146106c8578063ce0769c51461069f578063d0b7830b14610620578063d73792a914610603578063dceb768614610473578063ef706adf14610299578063f2fde38b146102065763f941fb991461012d57600080fd5b3461020357602091826003193601126101ff5780356001600160401b0381116101fb579261016361017592829695369101611c89565b81855193828580945193849201611e1a565b81016005815203019020908251808584549182815201908194845286842090845b8181106101e757505050816101ac910382611c4d565b83519485948186019282875251809352850193925b8281106101d057505050500390f35b8351855286955093810193928101926001016101c1565b825484529288019260019283019201610196565b8280fd5b5080fd5b80fd5b5091346101fb5760203660031901126101fb576001600160a01b0382358181169391929084900361029557610239611e85565b831561027f575050600054826001600160601b0360a01b821617600055167f8be0079c531659141344cd1fd0a4f28419497f9722a3daafe3b4186f6b6457e0600080a380f35b51631e4fbdf760e01b8152908101849052602490fd5b8480fd5b509190346101fb576020918260031936011261046f578135916102ba6122a2565b82855280845281852093600685018054926102d760ff85166122d4565b60018701546001600160a01b0392908316330361042c5760028801549460ff1916905560ff600388015416600281101561041957889392919061036b5750505080808061032f94335af1610329612236565b50612266565b518061033c8133956123a9565b039020907fa73002eb00b7f458173aec22cf4445bbdb98267f801a7fe3d22dba9382338cdb8480a46001805580f35b855163a9059cbb60e01b8152339181019182526020820195909552919283928592918391829060400103927f0000000000000000000000000000000000000000000000000000000000000000165af190811561040f5786916103d8575b506103d39150612266565b61032f565b905081813d8311610408575b6103ee8183611c4d565b81010312610295576104026103d391611f0a565b386103c8565b503d6103e4565b83513d88823e3d90fd5b634e487b7160e01b895260218252602489fd5b855162461bcd60e51b8152808301859052601b60248201527f4f6e6c792062757965722063616e2063616e63656c206f6666657200000000006044820152606490fd5b8380fd5b5082346101ff57816003193601126101ff5761048d611e85565b80516370a0823160e01b81523084820152926020906001600160a01b037f0000000000000000000000000000000000000000000000000000000000000000811691908387602481865afa9687156105f95786976105c6575b508615610583578554855163a9059cbb60e01b815291166001600160a01b031691810191825260208201969096529394938291859182908890829060400103925af191821561057a57508391610543575b836105408361242b565b80f35b905081813d8311610573575b6105598183611c4d565b810103126101ff5761056d61054091611f0a565b83610536565b503d61054f565b513d85823e3d90fd5b845162461bcd60e51b8152808301859052601860248201527f4e6f2055534443206665657320746f20776974686472617700000000000000006044820152606490fd5b9096508381813d83116105f2575b6105de8183611c4d565b810103126105ee575195876104e5565b8580fd5b503d6105d4565b85513d88823e3d90fd5b5082346101ff57816003193601126101ff57602090516127108152f35b509190346101fb57826003193601126101fb5761063b611e85565b479182156106665783610540818080808860018060a01b038254165af1610660612236565b5061242b565b906020606492519162461bcd60e51b835282015260136024820152724e6f206665657320746f20776974686472617760681b6044820152fd5b5082346101ff57816003193601126101ff5760025490516001600160a01b039091168152602090f35b5082346101ff57816003193601126101ff576020906008549051908152f35b509190346101fb5760208060031936011261046f578135916107076122a2565b828552808252838520936006850161072260ff8254166122d4565b6005860154421015610ab5576002548251630cd5286d60e41b81528481018690526001600160a01b039791899082908a1681806107626024820188612313565b03915afa8015610aab5789918a91610a76575b5061077f90611fc0565b8733911603610a335760028101968754926107aa6127106107a2600854876121b4565b0480956121dd565b60ff6003850154166002811015610a2057888c911560001461097257508080806107df94335af16107d9612236565b506121ea565b8982600254169660018501978489541691813b1561046f5783918991838351809681958294632203f8f160e01b845283015261081e604483018d612313565b90602483015203925af180156109685761094a575b5050907f8c68d600771ad8af3c86a9f96bd5c471eca94aebd78ea274787f8e95e07aaa10956108fe939260ff199081815416905560ff600588518b81610879818a6123a9565b6003815203019020015416610914575b5061089b61089684611d74565b61266e565b5416809854978551806108ae81866123a9565b03902086516001600160a01b03939093168352602083018a905233929091907f9332956e0c3dd558cabf109a274fd9184f7cd2081da1b9d9e28e702cf8a6cc5990604090a48351918280926123a9565b0390209382519586528501523393a46001805580f35b600587518a8161092481896123a9565b60038152030190200190815416905561094461093f84611d74565b612547565b38610889565b6109579094939294611c24565b6109645790918938610833565b8980fd5b87513d84823e3d90fd5b875163a9059cbb60e01b8152338a820190815260208101949094529290918391829081906040010391877f0000000000000000000000000000000000000000000000000000000000000000165af18015610a16578b906109dc575b6109d791506121ea565b6107df565b508781813d8311610a0f575b6109f28183611c4d565b81010312610a0b57610a066109d791611f0a565b6109cd565b8a80fd5b503d6109e8565b86513d8d823e3d90fd5b634e487b7160e01b8c526021885260248cfd5b825162461bcd60e51b8152808501869052601b60248201527f4f6e6c79206f776e65722063616e20616363657074206f6666657200000000006044820152606490fd5b61077f9250610a9791503d808c833e610a8f8183611c4d565b810190611f17565b9b9a50505050505093505050509190610775565b84513d8b823e3d90fd5b5091606492519162461bcd60e51b8352820152600d60248201526c13d999995c88195e1c1a5c9959609a1b6044820152fd5b50919060208060031936011261046f5781356001600160401b03811161029557610b149036908401611c89565b92610b1d6122a2565b805182818651610b308183858b01611e1a565b810160038152030190209260058401610b4c60ff825416612173565b6001850180546001600160a01b0390811693909290338514610f0b57600288019788549560ff6003610b8e612710610b866008548c6121b4565b04809a6121dd565b930154166002811015610ef857610d25575088543410610ce2578a808080610bbe94898954165af16107d9612236565b87548a813411610cc0575b50505b89846002541691823b156101ff57610c029288838d93825196879586948593632203f8f160e01b85528401526044830190611e3d565b33602483015203925af18015610cb657610c77575b50805460ff191690557f8c68d600771ad8af3c86a9f96bd5c471eca94aebd78ea274787f8e95e07aaa10939291610c6491610c5189612547565b610c5a8961266e565b5416955496612153565b9382519687528601523394a46001805580f35b917f8c68d600771ad8af3c86a9f96bd5c471eca94aebd78ea274787f8e95e07aaa109594939199610caa610c6494611c24565b99919394955091610c17565b86513d8c823e3d90fd5b808080610cd0610cdb95346121dd565b335af1610329612236565b388a610bc9565b865162461bcd60e51b8152808301899052601860248201527f496e73756666696369656e7420455448207061796d656e7400000000000000006044820152606490fd5b9034610eab5787516323b872dd60e01b808252338583019081526001600160a01b03909416602085015260408401929092528c927f0000000000000000000000000000000000000000000000000000000000000000881691908b9082908190606001038187865af1908115610ea157908b9392918591610e68575b50610daa906121ea565b895191825233858301908152306020820152604081018a905291938492839190829060600103925af1908115610e5e578b91610e29575b50610bcc57855162461bcd60e51b8152908101879052601c60248201527f506c6174666f726d20666565207472616e73666572206661696c6564000000006044820152606490fd5b90508781813d8311610e57575b610e408183611c4d565b81010312610a0b57610e5190611f0a565b38610de1565b503d610e36565b87513d8d823e3d90fd5b84819592503d8311610e9a575b610e7f8183611c4d565b8101031261046f57610daa610e948c94611f0a565b90610da0565b503d610e75565b8a513d86823e3d90fd5b875162461bcd60e51b81528084018a9052602160248201527f446f206e6f742073656e642045544820666f72205553444320707572636861736044820152606560f81b6064820152608490fd5b634e487b7160e01b8d526021845260248dfd5b855162461bcd60e51b8152908101879052601960248201527f43616e6e6f742062757920796f7572206f776e206173736574000000000000006044820152606490fd5b5082346101ff57816003193601126101ff576020905173036cbd53842c5426634e7929541ec2318f3dcf7e8152f35b509190346101fb5760203660031901126101fb57803591610f9c611e85565b6103e88311610fad57505060085580f35b906020606492519162461bcd60e51b8352820152601660248201527546656520746f6f206869676820286d6178203130252960501b6044820152fd5b509190346101fb57816003193601126101fb578035906001600160401b03821161046f5761101991369101611c89565b9161103560206024359481855193828580945193849201611e1a565b81016005815203019020908154841015610203575060209261105691611d22565b91905490519160031b1c8152f35b50919060803660031901126101fb576001600160401b038135818111610295576110919036908401611c89565b9260249182359460449485359460028610156115315760649384359689156114f957610e10881015806114ec575b156114b9576002548751630cd5286d60e41b815260208682018190529a6001600160a01b03989290918e91829082908c1681806110fe8c82018f611e3d565b03915afa9081156114af57828092611481575b505061111c90611fc0565b881633146114435782611319578b34036112e55750505b60065497611140896122c5565b6006554201958642116112d35787519260e08401908111848210176112c15789928c8e8a948e948d528a88526111b08d868a0193338552818b0195865261118b60608c01978861200c565b8c60808c0198428a5260a08d019a8b5260c08d019b60018d5283525220985189612074565b600188019151166001600160601b0360a01b8254161790555160028601555160028110156112af57918493916111ee600694600361120f980161213b565b518785015551600584015551151591019060ff801983541691151516179055565b8451878185516112228183858a01611e1a565b8101600581520301902090815492600160401b84101561129e57505091611275827fcfed541454dac78f93da97764a61638d187363e6d64a389faa86edcaaf8932bc969594600161128f95018155611d22565b81549060031b9088821b91600019901b1916179055612153565b9482519687528601523394a480f35b634e487b7160e01b8b526041905289fd5b634e487b7160e01b8e5260218752858efd5b634e487b7160e01b8d5260418652848dfd5b634e487b7160e01b8c5260118552838cfd5b7208aa89040c2dadeeadce840dad2e6dac2e8c6d606b1b86916013878e8d519562461bcd60e51b8752860152840152820152fd5b346114055788516323b872dd60e01b815233878201908152306020820152604081018e90528e91908d90829081900360600181857f00000000000000000000000000000000000000000000000000000000000000008f165af19182156113fa57916113c1575b501561138c575050611133565b731554d110c81d1c985b9cd9995c8819985a5b195960621b86916014878e8d519562461bcd60e51b8752860152840152820152fd5b90508b81813d83116113f3575b6113d88183611c4d565b810103126113ef576113e990611f0a565b3861137f565b8d80fd5b503d6113ce565b8b51903d90823e3d90fd5b7f446f206e6f742073656e642045544820666f722055534443206f6666657200008691601e878e8d519562461bcd60e51b8752860152840152820152fd5b7f43616e6e6f74206f66666572206f6e20796f7572206f776e20617373657400008691601e878e8d519562461bcd60e51b8752860152840152820152fd5b61111c935061149a92503d8091833e610a8f8183611c4d565b9b9a505050505050935050505091908f611111565b8b513d84823e3d90fd5b865162461bcd60e51b81526020818601526010818501526f24b73b30b634b210323ab930ba34b7b760811b818b01528690fd5b5062278d008811156110bf565b865162461bcd60e51b8152602081860152601581850152744f66666572206d75737420686176652076616c756560581b818b01528690fd5b8880fd5b5091346101fb5760203660031901126101fb5781356001600160401b03811161046f576115659036908401611c89565b918151602081855161157a8183858a01611e1a565b8101600381520301902090600582019283549261159960ff8516612173565b600101546001600160a01b031633036115ee57505060ff191690556115bd81612547565b6115c73391612153565b7f0ad06290f905050c9dac577e139b4b450621b456073e716db7561a52f3ff89288380a380f35b906020606492519162461bcd60e51b8352820152601660248201527513db9b1e481cd95b1b195c8818d85b8818d85b98d95b60521b6044820152fd5b5082346101ff57816003193601126101ff57905490516001600160a01b039091168152602090f35b509190346101fb5760203660031901126101fb57816116c4938235815282602052209161167e83611d74565b9260018060a01b03600182015416926116d760028301549160ff600385015416908401549260ff6006600587015496015416958051998a9960e08b5260e08b0190611e3d565b9760208a01528801526060870190611e62565b608085015260a0840152151560c08301520390f35b5082346101ff57816003193601126101ff576020906007549051908152f35b509190346101fb5760203660031901126101fb578035926001600160401b038411610203575061174660206101636117989536908501611c89565b810160038152030190209161175a83611d74565b926117ab60018060a01b0360018301541693600283015460ff600581600387015416938601549501541694805198899860c08a5260c08a0190611e3d565b9660208901528701526060860190611e62565b6080840152151560a08301520390f35b50346102035780600319360112610203576117d4611e85565b80546001600160a01b03198116825581906001600160a01b03167f8be0079c531659141344cd1fd0a4f28419497f9722a3daafe3b4186f6b6457e08280a380f35b508290346102035760203660031901126102035782356007548110156101ff5761183e90611cd5565b939093611869576118658361185286611d74565b9051918291602083526020830190611e3d565b0390f35b634e487b7160e01b8252819052602490fd5b5082346101ff57816003193601126101ff576020906006549051908152f35b5091346101fb5760603660031901126101fb576001600160401b03908235828111610295576118cc9036908501611c89565b602493843594604435946002861015611bdd578615611b9b5784519584519060ff60056020998a81818b019661190381838a611e1a565b81016003815203019020015416611b62576002548751630cd5286d60e41b81528681018a90526001600160a01b03918c908290841681806119468b82018e611e3d565b03915afa8015611b58578c918d91611b2b575b5061196390611fc0565b8133911603611ae95787519360c0850190811185821017611ad75790889392918452878552898501338152848601918c83526119a360608801948561200c565b6119dd6119cb8d60808a01974289528d60a08c019a60018c5251938492839251928391611e1a565b81016003815203019020975188612074565b600187019151166001600160601b0360a01b825416179055516002850155516002811015611ac55791600591611a1a85946003611a35970161213b565b518684015551151591019060ff801983541691151516179055565b600754600160401b811015611ab357806001611a549201600755611cd5565b929092611aa357505081611a8d7ff34a4c127ff02f03c1d1fb093bb2c95ec0cfd3c38220b818ef19234533c6b96c9493611a9293612074565b612153565b92815194855242908501523393a380f35b634e487b7160e01b885287905286fd5b50634e487b7160e01b87526041825286fd5b634e487b7160e01b8b5260218652848bfd5b634e487b7160e01b8c5260418752858cfd5b875162461bcd60e51b81528087018a90526019818701527f4f6e6c79206f776e65722063616e206c697374206173736574000000000000006044820152606490fd5b6119639250611b4491503d808f833e610a8f8183611c4d565b9b9a50505050505093505050509190611959565b89513d8e823e3d90fd5b865162461bcd60e51b815280860189905260148186015273105cdcd95d08185b1c9958591e481b1a5cdd195960621b6044820152606490fd5b845162461bcd60e51b8152602081850152601c818401527f5072696365206d7573742062652067726561746572207468616e2030000000006044820152606490fd5b8780fd5b9050346101ff57816003193601126101ff577f00000000000000000000000000000000000000000000000000000000000000006001600160a01b03168152602090f35b6001600160401b038111611c3757604052565b634e487b7160e01b600052604160045260246000fd5b90601f801991011681019081106001600160401b03821117611c3757604052565b6001600160401b038111611c3757601f01601f191660200190565b81601f82011215611cd057803590611ca082611c6e565b92611cae6040519485611c4d565b82845260208383010111611cd057816000926020809301838601378301015290565b600080fd5b600754811015611d0c5760076000527fa66cc928b5edb82af9bd49922954155ab7b0942694bea4ce44661d9a8736c6880190600090565b634e487b7160e01b600052603260045260246000fd5b8054821015611d0c5760005260206000200190600090565b90600182811c92168015611d6a575b6020831014611d5457565b634e487b7160e01b600052602260045260246000fd5b91607f1691611d49565b9060405191826000825492611d8884611d3a565b908184526001948581169081600014611df75750600114611db4575b5050611db292500383611c4d565b565b9093915060005260209081600020936000915b818310611ddf575050611db293508201013880611da4565b85548884018501529485019487945091830191611dc7565b915050611db294506020925060ff191682840152151560051b8201013880611da4565b60005b838110611e2d5750506000910152565b8181015183820152602001611e1d565b90602091611e5681518092818552858086019101611e1a565b601f01601f1916010190565b906002821015611e6f5752565b634e487b7160e01b600052602160045260246000fd5b6000546001600160a01b03163303611e9957565b60405163118cdaa760e01b8152336004820152602490fd5b81601f82011215611cd0578051611ec781611c6e565b92611ed56040519485611c4d565b81845260208284010111611cd057611ef39160208085019101611e1a565b90565b51906001600160a01b0382168203611cd057565b51908115158203611cd057565b61018081830312611cd0578051926001600160401b0393848111611cd05783611f41918401611eb1565b936020830151818111611cd05784611f5a918501611eb1565b936040840151918211611cd057611f72918401611eb1565b91606081015191608082015191611f8b60a08201611ef6565b91611f9860c08301611ef6565b9160e0810151916101008201519161012081015191611ef36101606101408401519301611f0a565b15611fc757565b60405162461bcd60e51b815260206004820152601a60248201527f4173736574206e6f7420666f756e6420696e206c6962726172790000000000006044820152606490fd5b6002821015611e6f5752565b818110612023575050565b60008155600101612018565b9190601f811161203e57505050565b611db2926000526020600020906020601f840160051c8301931061206a575b601f0160051c0190612018565b909150819061205d565b91909182516001600160401b038111611c375761209b816120958454611d3a565b8461202f565b602080601f83116001146120d75750819293946000926120cc575b50508160011b916000199060031b1c1916179055565b0151905038806120b6565b90601f198316958460005282600020926000905b8882106121235750508360019596971061210a575b505050811b019055565b015160001960f88460031b161c19169055388080612100565b806001859682949686015181550195019301906120eb565b906002811015611e6f5760ff80198354169116179055565b61216b90602060405192828480945193849201611e1a565b810103902090565b1561217a57565b60405162461bcd60e51b81526020600482015260126024820152714c697374696e67206e6f742061637469766560701b6044820152606490fd5b818102929181159184041417156121c757565b634e487b7160e01b600052601160045260246000fd5b919082039182116121c757565b156121f157565b60405162461bcd60e51b815260206004820152601860248201527f5061796d656e7420746f2073656c6c6572206661696c656400000000000000006044820152606490fd5b3d15612261573d9061224782611c6e565b916122556040519384611c4d565b82523d6000602084013e565b606090565b1561226d57565b60405162461bcd60e51b815260206004820152600d60248201526c1499599d5b990819985a5b1959609a1b6044820152606490fd5b6002600154146122b3576002600155565b604051633ee5aeb560e01b8152600490fd5b60001981146121c75760010190565b156122db57565b60405162461bcd60e51b815260206004820152601060248201526f4f66666572206e6f742061637469766560801b6044820152606490fd5b906000929180549161232483611d3a565b9182825260019384811690816000146123865750600114612346575b50505050565b90919394506000526020928360002092846000945b838610612372575050505001019038808080612340565b80548587018301529401938590820161235b565b9294505050602093945060ff191683830152151560051b01019038808080612340565b6000929181546123b881611d3a565b9260019180831690811561241057506001146123d45750505050565b90919293945060005260209081600020906000915b8583106123ff5750505050019038808080612340565b8054858401529183019181016123e9565b60ff1916845250505081151590910201915038808080612340565b1561243257565b60405162461bcd60e51b815260206004820152601160248201527015da5d1a191c985dd85b0819985a5b1959607a1b6044820152606490fd5b908082146125435761247d8154611d3a565b906001600160401b038211611c375781906124a28261249c8654611d3a565b8661202f565b600090601f83116001146124d8576000926124cd5750508160011b916000199060031b1c1916179055565b0154905038806120b6565b81526020808220858352818320935090601f1985169083905b82821061252a57505090846001959493921061251157505050811b019055565b015460001960f88460031b161c19169055388080612100565b84958192958501548155600180910196019401906124f1565b5050565b60005b600780549081831015612340576125749161257b61256785611cd5565b5060405194858092612313565b0384611c4d565b82516020809401208551848701201461259f5750505061259a906122c5565b61254a565b91935091600019918281019081116121c7576125bd6125c491611cd5565b5091611cd5565b919091612642576125d49161246b565b815480156126585701916125e783611cd5565b612642576125f58154611d3a565b80612601575b50505055565b600092601f9081831160011461261e57505050555b3880806125fb565b839161263b9186949585528420940160051c840160018501612018565b5555612616565b634e487b7160e01b600052600060045260246000fd5b634e487b7160e01b600052603160045260246000fd5b90604091825180825160209281612689859383858901611e1a565b8101600581520301902060005b8154811015612877576126a98183611d22565b9054600391821b1c60005260049081855287600020916006830180549060ff918281166126e5575b5050505050506126e0906122c5565b612696565b60ff19169055600090838501541691600292838110156128645788918c9161279857505050509060008080806126e097969560018060a01b0360018801541690870154905af1612733612236565b505b612743575b829381806126d1565b61274d8386611d22565b90546001909301546001600160a01b031692911b1c61276b87612153565b907fa73002eb00b7f458173aec22cf4445bbdb98267f801a7fe3d22dba9382338cdb600080a4388061273a565b600187015494870154915163a9059cbb60e01b81526001600160a01b0395861691810191825260208201929092529293909283919082908690829060400103927f0000000000000000000000000000000000000000000000000000000000000000165af1918215612859578092612818575b5050906126e0939291612735565b9091508682813d8311612852575b6128308183611c4d565b810103126102035750906128486126e0949392611f0a565b909192933861280a565b503d612826565b8a51903d90823e3d90fd5b634e487b7160e01b835260218252602483fd5b50505050905056fea26469706673582212208e83733ad30491f6dc52364d21256f1b397ff45fd341520e8c67e5b3badcbeb764736f6c63430008140033","opcodes":"PUSH1 0xA0 CALLVALUE PUSH2 0x121 JUMPI PUSH1 0x1F PUSH3 0x29F2 CODESIZE DUP2 SWAP1 SUB SWAP2 DUP3 ADD PUSH1 0x1F NOT AND DUP4 ADD SWAP2 PUSH1 0x1 PUSH1 0x1 PUSH1 0x40 SHL SUB DUP4 GT DUP5 DUP5 LT OR PUSH2 0x126 JUMPI DUP1 DUP5 SWAP3 PUSH1 0x20 SWAP5 PUSH1 0x40 MSTORE DUP4 CODECOPY DUP2 ADD SUB SLT PUSH2 0x121 JUMPI MLOAD PUSH1 0x1 PUSH1 0x1 PUSH1 0xA0 SHL SUB SWAP1 DUP2 DUP2 AND SWAP1 DUP2 SWAP1 SUB PUSH2 0x121 JUMPI CALLER ISZERO PUSH2 0x108 JUMPI PUSH1 0x0 SLOAD PUSH1 0x1 DUP1 PUSH1 0xA0 SHL SUB NOT SWAP1 CALLER DUP3 DUP3 AND OR PUSH1 0x0 SSTORE PUSH1 0x40 MLOAD SWAP4 CALLER SWAP2 AND PUSH32 0x8BE0079C531659141344CD1FD0A4F28419497F9722A3DAAFE3B4186F6B6457E0 PUSH1 0x0 DUP1 LOG3 PUSH1 0x1 DUP1 SSTORE PUSH1 0x1 PUSH1 0x6 SSTORE PUSH1 0xFA PUSH1 0x8 SSTORE PUSH1 0x2 SLOAD AND OR PUSH1 0x2 SSTORE PUSH20 0x36CBD53842C5426634E7929541EC2318F3DCF7E PUSH1 0x80 MSTORE PUSH2 0x28B5 SWAP1 DUP2 PUSH3 0x13D DUP3 CODECOPY PUSH1 0x80 MLOAD DUP2 DUP2 DUP2 PUSH2 0x398 ADD MSTORE DUP2 DUP2 PUSH2 0x4AC ADD MSTORE DUP2 DUP2 PUSH2 0x99E ADD MSTORE DUP2 DUP2 PUSH2 0xD5B ADD MSTORE DUP2 DUP2 PUSH2 0x134F ADD MSTORE DUP2 DUP2 PUSH2 0x1BF5 ADD MSTORE PUSH2 0x27DA ADD MSTORE RETURN JUMPDEST PUSH1 0x40 MLOAD PUSH4 0x1E4FBDF7 PUSH1 0xE0 SHL DUP2 MSTORE PUSH1 0x0 PUSH1 0x4 DUP3 ADD MSTORE PUSH1 0x24 SWAP1 REVERT JUMPDEST PUSH1 0x0 DUP1 REVERT JUMPDEST PUSH4 0x4E487B71 PUSH1 0xE0 SHL PUSH1 0x0 MSTORE PUSH1 0x41 PUSH1 0x4 MSTORE PUSH1 0x24 PUSH1 0x0 REVERT INVALID PUSH1 0x80 PUSH1 0x40 SWAP1 DUP1 DUP3 MSTORE PUSH1 0x4 SWAP1 DUP2 CALLDATASIZE LT ISZERO PUSH2 0x17 JUMPI PUSH1 0x0 DUP1 REVERT JUMPDEST PUSH1 0x0 SWAP1 DUP2 CALLDATALOAD PUSH1 0xE0 SHR SWAP1 DUP2 PUSH4 0x11EAC855 EQ PUSH2 0x1BE1 JUMPI POP DUP1 PUSH4 0x13B06915 EQ PUSH2 0x189A JUMPI DUP1 PUSH4 0x5F5D0655 EQ PUSH2 0x187B JUMPI DUP1 PUSH4 0x61CF4863 EQ PUSH2 0x1815 JUMPI DUP1 PUSH4 0x715018A6 EQ PUSH2 0x17BB JUMPI DUP1 PUSH4 0x77DEC6C3 EQ PUSH2 0x170B JUMPI DUP1 PUSH4 0x7B55927C EQ PUSH2 0x16EC JUMPI DUP1 PUSH4 0x8A72EA6A EQ PUSH2 0x1652 JUMPI DUP1 PUSH4 0x8DA5CB5B EQ PUSH2 0x162A JUMPI DUP1 PUSH4 0x943F2261 EQ PUSH2 0x1535 JUMPI DUP1 PUSH4 0xA2235558 EQ PUSH2 0x1064 JUMPI DUP1 PUSH4 0xA3A67058 EQ PUSH2 0xFE9 JUMPI DUP1 PUSH4 0xAA0B5988 EQ PUSH2 0xF7D JUMPI DUP1 PUSH4 0xBB09D9B7 EQ PUSH2 0xF4E JUMPI DUP1 PUSH4 0xC7EF9672 EQ PUSH2 0xAE7 JUMPI DUP1 PUSH4 0xC815729D EQ PUSH2 0x6E7 JUMPI DUP1 PUSH4 0xCDD78CFC EQ PUSH2 0x6C8 JUMPI DUP1 PUSH4 0xCE0769C5 EQ PUSH2 0x69F JUMPI DUP1 PUSH4 0xD0B7830B EQ PUSH2 0x620 JUMPI DUP1 PUSH4 0xD73792A9 EQ PUSH2 0x603 JUMPI DUP1 PUSH4 0xDCEB7686 EQ PUSH2 0x473 JUMPI DUP1 PUSH4 0xEF706ADF EQ PUSH2 0x299 JUMPI DUP1 PUSH4 0xF2FDE38B EQ PUSH2 0x206 JUMPI PUSH4 0xF941FB99 EQ PUSH2 0x12D JUMPI PUSH1 0x0 DUP1 REVERT JUMPDEST CALLVALUE PUSH2 0x203 JUMPI PUSH1 0x20 SWAP2 DUP3 PUSH1 0x3 NOT CALLDATASIZE ADD SLT PUSH2 0x1FF JUMPI DUP1 CALLDATALOAD PUSH1 0x1 PUSH1 0x1 PUSH1 0x40 SHL SUB DUP2 GT PUSH2 0x1FB JUMPI SWAP3 PUSH2 0x163 PUSH2 0x175 SWAP3 DUP3 SWAP7 SWAP6 CALLDATASIZE SWAP2 ADD PUSH2 0x1C89 JUMP JUMPDEST DUP2 DUP6 MLOAD SWAP4 DUP3 DUP6 DUP1 SWAP5 MLOAD SWAP4 DUP5 SWAP3 ADD PUSH2 0x1E1A JUMP JUMPDEST DUP2 ADD PUSH1 0x5 DUP2 MSTORE SUB ADD SWAP1 KECCAK256 SWAP1 DUP3 MLOAD DUP1 DUP6 DUP5 SLOAD SWAP2 DUP3 DUP2 MSTORE ADD SWAP1 DUP2 SWAP5 DUP5 MSTORE DUP7 DUP5 KECCAK256 SWAP1 DUP5 JUMPDEST DUP2 DUP2 LT PUSH2 0x1E7 JUMPI POP POP POP DUP2 PUSH2 0x1AC SWAP2 SUB DUP3 PUSH2 0x1C4D JUMP JUMPDEST DUP4 MLOAD SWAP5 DUP6 SWAP5 DUP2 DUP7 ADD SWAP3 DUP3 DUP8 MSTORE MLOAD DUP1 SWAP4 MSTORE DUP6 ADD SWAP4 SWAP3 JUMPDEST DUP3 DUP2 LT PUSH2 0x1D0 JUMPI POP POP POP POP SUB SWAP1 RETURN JUMPDEST DUP4 MLOAD DUP6 MSTORE DUP7 SWAP6 POP SWAP4 DUP2 ADD SWAP4 SWAP3 DUP2 ADD SWAP3 PUSH1 0x1 ADD PUSH2 0x1C1 JUMP JUMPDEST DUP3 SLOAD DUP5 MSTORE SWAP3 DUP9 ADD SWAP3 PUSH1 0x1 SWAP3 DUP4 ADD SWAP3 ADD PUSH2 0x196 JUMP JUMPDEST DUP3 DUP1 REVERT JUMPDEST POP DUP1 REVERT JUMPDEST DUP1 REVERT JUMPDEST POP SWAP2 CALLVALUE PUSH2 0x1FB JUMPI PUSH1 0x20 CALLDATASIZE PUSH1 0x3 NOT ADD SLT PUSH2 0x1FB JUMPI PUSH1 0x1 PUSH1 0x1 PUSH1 0xA0 SHL SUB DUP3 CALLDATALOAD DUP2 DUP2 AND SWAP4 SWAP2 SWAP3 SWAP1 DUP5 SWAP1 SUB PUSH2 0x295 JUMPI PUSH2 0x239 PUSH2 0x1E85 JUMP JUMPDEST DUP4 ISZERO PUSH2 0x27F JUMPI POP POP PUSH1 0x0 SLOAD DUP3 PUSH1 0x1 PUSH1 0x1 PUSH1 0x60 SHL SUB PUSH1 0xA0 SHL DUP3 AND OR PUSH1 0x0 SSTORE AND PUSH32 0x8BE0079C531659141344CD1FD0A4F28419497F9722A3DAAFE3B4186F6B6457E0 PUSH1 0x0 DUP1 LOG3 DUP1 RETURN JUMPDEST MLOAD PUSH4 0x1E4FBDF7 PUSH1 0xE0 SHL DUP2 MSTORE SWAP1 DUP2 ADD DUP5 SWAP1 MSTORE PUSH1 0x24 SWAP1 REVERT JUMPDEST DUP5 DUP1 REVERT JUMPDEST POP SWAP2 SWAP1 CALLVALUE PUSH2 0x1FB JUMPI PUSH1 0x20 SWAP2 DUP3 PUSH1 0x3 NOT CALLDATASIZE ADD SLT PUSH2 0x46F JUMPI DUP2 CALLDATALOAD SWAP2 PUSH2 0x2BA PUSH2 0x22A2 JUMP JUMPDEST DUP3 DUP6 MSTORE DUP1 DUP5 MSTORE DUP2 DUP6 KECCAK256 SWAP4 PUSH1 0x6 DUP6 ADD DUP1 SLOAD SWAP3 PUSH2 0x2D7 PUSH1 0xFF DUP6 AND PUSH2 0x22D4 JUMP JUMPDEST PUSH1 0x1 DUP8 ADD SLOAD PUSH1 0x1 PUSH1 0x1 PUSH1 0xA0 SHL SUB SWAP3 SWAP1 DUP4 AND CALLER SUB PUSH2 0x42C JUMPI PUSH1 0x2 DUP9 ADD SLOAD SWAP5 PUSH1 0xFF NOT AND SWAP1 SSTORE PUSH1 0xFF PUSH1 0x3 DUP9 ADD SLOAD AND PUSH1 0x2 DUP2 LT ISZERO PUSH2 0x419 JUMPI DUP9 SWAP4 SWAP3 SWAP2 SWAP1 PUSH2 0x36B JUMPI POP POP POP DUP1 DUP1 DUP1 PUSH2 0x32F SWAP5 CALLER GAS CALL PUSH2 0x329 PUSH2 0x2236 JUMP JUMPDEST POP PUSH2 0x2266 JUMP JUMPDEST MLOAD DUP1 PUSH2 0x33C DUP2 CALLER SWAP6 PUSH2 0x23A9 JUMP JUMPDEST SUB SWAP1 KECCAK256 SWAP1 PUSH32 0xA73002EB00B7F458173AEC22CF4445BBDB98267F801A7FE3D22DBA9382338CDB DUP5 DUP1 LOG4 PUSH1 0x1 DUP1 SSTORE DUP1 RETURN JUMPDEST DUP6 MLOAD PUSH4 0xA9059CBB PUSH1 0xE0 SHL DUP2 MSTORE CALLER SWAP2 DUP2 ADD SWAP2 DUP3 MSTORE PUSH1 0x20 DUP3 ADD SWAP6 SWAP1 SWAP6 MSTORE SWAP2 SWAP3 DUP4 SWAP3 DUP6 SWAP3 SWAP2 DUP4 SWAP2 DUP3 SWAP1 PUSH1 0x40 ADD SUB SWAP3 PUSH32 0x0 AND GAS CALL SWAP1 DUP2 ISZERO PUSH2 0x40F JUMPI DUP7 SWAP2 PUSH2 0x3D8 JUMPI JUMPDEST POP PUSH2 0x3D3 SWAP2 POP PUSH2 0x2266 JUMP JUMPDEST PUSH2 0x32F JUMP JUMPDEST SWAP1 POP DUP2 DUP2 RETURNDATASIZE DUP4 GT PUSH2 0x408 JUMPI JUMPDEST PUSH2 0x3EE DUP2 DUP4 PUSH2 0x1C4D JUMP JUMPDEST DUP2 ADD SUB SLT PUSH2 0x295 JUMPI PUSH2 0x402 PUSH2 0x3D3 SWAP2 PUSH2 0x1F0A JUMP JUMPDEST CODESIZE PUSH2 0x3C8 JUMP JUMPDEST POP RETURNDATASIZE PUSH2 0x3E4 JUMP JUMPDEST DUP4 MLOAD RETURNDATASIZE DUP9 DUP3 RETURNDATACOPY RETURNDATASIZE SWAP1 REVERT JUMPDEST PUSH4 0x4E487B71 PUSH1 0xE0 SHL DUP10 MSTORE PUSH1 0x21 DUP3 MSTORE PUSH1 0x24 DUP10 REVERT JUMPDEST DUP6 MLOAD PUSH3 0x461BCD PUSH1 0xE5 SHL DUP2 MSTORE DUP1 DUP4 ADD DUP6 SWAP1 MSTORE PUSH1 0x1B PUSH1 0x24 DUP3 ADD MSTORE PUSH32 0x4F6E6C792062757965722063616E2063616E63656C206F666665720000000000 PUSH1 0x44 DUP3 ADD MSTORE PUSH1 0x64 SWAP1 REVERT JUMPDEST DUP4 DUP1 REVERT JUMPDEST POP DUP3 CALLVALUE PUSH2 0x1FF JUMPI DUP2 PUSH1 0x3 NOT CALLDATASIZE ADD SLT PUSH2 0x1FF JUMPI PUSH2 0x48D PUSH2 0x1E85 JUMP JUMPDEST DUP1 MLOAD PUSH4 0x70A08231 PUSH1 0xE0 SHL DUP2 MSTORE ADDRESS DUP5 DUP3 ADD MSTORE SWAP3 PUSH1 0x20 SWAP1 PUSH1 0x1 PUSH1 0x1 PUSH1 0xA0 SHL SUB PUSH32 0x0 DUP2 AND SWAP2 SWAP1 DUP4 DUP8 PUSH1 0x24 DUP2 DUP7 GAS STATICCALL SWAP7 DUP8 ISZERO PUSH2 0x5F9 JUMPI DUP7 SWAP8 PUSH2 0x5C6 JUMPI JUMPDEST POP DUP7 ISZERO PUSH2 0x583 JUMPI DUP6 SLOAD DUP6 MLOAD PUSH4 0xA9059CBB PUSH1 0xE0 SHL DUP2 MSTORE SWAP2 AND PUSH1 0x1 PUSH1 0x1 PUSH1 0xA0 SHL SUB AND SWAP2 DUP2 ADD SWAP2 DUP3 MSTORE PUSH1 0x20 DUP3 ADD SWAP7 SWAP1 SWAP7 MSTORE SWAP4 SWAP5 SWAP4 DUP3 SWAP2 DUP6 SWAP2 DUP3 SWAP1 DUP9 SWAP1 DUP3 SWAP1 PUSH1 0x40 ADD SUB SWAP3 GAS CALL SWAP2 DUP3 ISZERO PUSH2 0x57A JUMPI POP DUP4 SWAP2 PUSH2 0x543 JUMPI JUMPDEST DUP4 PUSH2 0x540 DUP4 PUSH2 0x242B JUMP JUMPDEST DUP1 RETURN JUMPDEST SWAP1 POP DUP2 DUP2 RETURNDATASIZE DUP4 GT PUSH2 0x573 JUMPI JUMPDEST PUSH2 0x559 DUP2 DUP4 PUSH2 0x1C4D JUMP JUMPDEST DUP2 ADD SUB SLT PUSH2 0x1FF JUMPI PUSH2 0x56D PUSH2 0x540 SWAP2 PUSH2 0x1F0A JUMP JUMPDEST DUP4 PUSH2 0x536 JUMP JUMPDEST POP RETURNDATASIZE PUSH2 0x54F JUMP JUMPDEST MLOAD RETURNDATASIZE DUP6 DUP3 RETURNDATACOPY RETURNDATASIZE SWAP1 REVERT JUMPDEST DUP5 MLOAD PUSH3 0x461BCD PUSH1 0xE5 SHL DUP2 MSTORE DUP1 DUP4 ADD DUP6 SWAP1 MSTORE PUSH1 0x18 PUSH1 0x24 DUP3 ADD MSTORE PUSH32 0x4E6F2055534443206665657320746F2077697468647261770000000000000000 PUSH1 0x44 DUP3 ADD MSTORE PUSH1 0x64 SWAP1 REVERT JUMPDEST SWAP1 SWAP7 POP DUP4 DUP2 DUP2 RETURNDATASIZE DUP4 GT PUSH2 0x5F2 JUMPI JUMPDEST PUSH2 0x5DE DUP2 DUP4 PUSH2 0x1C4D JUMP JUMPDEST DUP2 ADD SUB SLT PUSH2 0x5EE JUMPI MLOAD SWAP6 DUP8 PUSH2 0x4E5 JUMP JUMPDEST DUP6 DUP1 REVERT JUMPDEST POP RETURNDATASIZE PUSH2 0x5D4 JUMP JUMPDEST DUP6 MLOAD RETURNDATASIZE DUP9 DUP3 RETURNDATACOPY RETURNDATASIZE SWAP1 REVERT JUMPDEST POP DUP3 CALLVALUE PUSH2 0x1FF JUMPI DUP2 PUSH1 0x3 NOT CALLDATASIZE ADD SLT PUSH2 0x1FF JUMPI PUSH1 0x20 SWAP1 MLOAD PUSH2 0x2710 DUP2 MSTORE RETURN JUMPDEST POP SWAP2 SWAP1 CALLVALUE PUSH2 0x1FB JUMPI DUP3 PUSH1 0x3 NOT CALLDATASIZE ADD SLT PUSH2 0x1FB JUMPI PUSH2 0x63B PUSH2 0x1E85 JUMP JUMPDEST SELFBALANCE SWAP2 DUP3 ISZERO PUSH2 0x666 JUMPI DUP4 PUSH2 0x540 DUP2 DUP1 DUP1 DUP1 DUP9 PUSH1 0x1 DUP1 PUSH1 0xA0 SHL SUB DUP3 SLOAD AND GAS CALL PUSH2 0x660 PUSH2 0x2236 JUMP JUMPDEST POP PUSH2 0x242B JUMP JUMPDEST SWAP1 PUSH1 0x20 PUSH1 0x64 SWAP3 MLOAD SWAP2 PUSH3 0x461BCD PUSH1 0xE5 SHL DUP4 MSTORE DUP3 ADD MSTORE PUSH1 0x13 PUSH1 0x24 DUP3 ADD MSTORE PUSH19 0x4E6F206665657320746F207769746864726177 PUSH1 0x68 SHL PUSH1 0x44 DUP3 ADD MSTORE REVERT JUMPDEST POP DUP3 CALLVALUE PUSH2 0x1FF JUMPI DUP2 PUSH1 0x3 NOT CALLDATASIZE ADD SLT PUSH2 0x1FF JUMPI PUSH1 0x2 SLOAD SWAP1 MLOAD PUSH1 0x1 PUSH1 0x1 PUSH1 0xA0 SHL SUB SWAP1 SWAP2 AND DUP2 MSTORE PUSH1 0x20 SWAP1 RETURN JUMPDEST POP DUP3 CALLVALUE PUSH2 0x1FF JUMPI DUP2 PUSH1 0x3 NOT CALLDATASIZE ADD SLT PUSH2 0x1FF JUMPI PUSH1 0x20 SWAP1 PUSH1 0x8 SLOAD SWAP1 MLOAD SWAP1 DUP2 MSTORE RETURN JUMPDEST POP SWAP2 SWAP1 CALLVALUE PUSH2 0x1FB JUMPI PUSH1 0x20 DUP1 PUSH1 0x3 NOT CALLDATASIZE ADD SLT PUSH2 0x46F JUMPI DUP2 CALLDATALOAD SWAP2 PUSH2 0x707 PUSH2 0x22A2 JUMP JUMPDEST DUP3 DUP6 MSTORE DUP1 DUP3 MSTORE DUP4 DUP6 KECCAK256 SWAP4 PUSH1 0x6 DUP6 ADD PUSH2 0x722 PUSH1 0xFF DUP3 SLOAD AND PUSH2 0x22D4 JUMP JUMPDEST PUSH1 0x5 DUP7 ADD SLOAD TIMESTAMP LT ISZERO PUSH2 0xAB5 JUMPI PUSH1 0x2 SLOAD DUP3 MLOAD PUSH4 0xCD5286D PUSH1 0xE4 SHL DUP2 MSTORE DUP5 DUP2 ADD DUP7 SWAP1 MSTORE PUSH1 0x1 PUSH1 0x1 PUSH1 0xA0 SHL SUB SWAP8 SWAP2 DUP10 SWAP1 DUP3 SWAP1 DUP11 AND DUP2 DUP1 PUSH2 0x762 PUSH1 0x24 DUP3 ADD DUP9 PUSH2 0x2313 JUMP JUMPDEST SUB SWAP2 GAS STATICCALL DUP1 ISZERO PUSH2 0xAAB JUMPI DUP10 SWAP2 DUP11 SWAP2 PUSH2 0xA76 JUMPI JUMPDEST POP PUSH2 0x77F SWAP1 PUSH2 0x1FC0 JUMP JUMPDEST DUP8 CALLER SWAP2 AND SUB PUSH2 0xA33 JUMPI PUSH1 0x2 DUP2 ADD SWAP7 DUP8 SLOAD SWAP3 PUSH2 0x7AA PUSH2 0x2710 PUSH2 0x7A2 PUSH1 0x8 SLOAD DUP8 PUSH2 0x21B4 JUMP JUMPDEST DIV DUP1 SWAP6 PUSH2 0x21DD JUMP JUMPDEST PUSH1 0xFF PUSH1 0x3 DUP6 ADD SLOAD AND PUSH1 0x2 DUP2 LT ISZERO PUSH2 0xA20 JUMPI DUP9 DUP13 SWAP2 ISZERO PUSH1 0x0 EQ PUSH2 0x972 JUMPI POP DUP1 DUP1 DUP1 PUSH2 0x7DF SWAP5 CALLER GAS CALL PUSH2 0x7D9 PUSH2 0x2236 JUMP JUMPDEST POP PUSH2 0x21EA JUMP JUMPDEST DUP10 DUP3 PUSH1 0x2 SLOAD AND SWAP7 PUSH1 0x1 DUP6 ADD SWAP8 DUP5 DUP10 SLOAD AND SWAP2 DUP2 EXTCODESIZE ISZERO PUSH2 0x46F JUMPI DUP4 SWAP2 DUP10 SWAP2 DUP4 DUP4 MLOAD DUP1 SWAP7 DUP2 SWAP6 DUP3 SWAP5 PUSH4 0x2203F8F1 PUSH1 0xE0 SHL DUP5 MSTORE DUP4 ADD MSTORE PUSH2 0x81E PUSH1 0x44 DUP4 ADD DUP14 PUSH2 0x2313 JUMP JUMPDEST SWAP1 PUSH1 0x24 DUP4 ADD MSTORE SUB SWAP3 GAS CALL DUP1 ISZERO PUSH2 0x968 JUMPI PUSH2 0x94A JUMPI JUMPDEST POP POP SWAP1 PUSH32 0x8C68D600771AD8AF3C86A9F96BD5C471ECA94AEBD78EA274787F8E95E07AAA10 SWAP6 PUSH2 0x8FE SWAP4 SWAP3 PUSH1 0xFF NOT SWAP1 DUP2 DUP2 SLOAD AND SWAP1 SSTORE PUSH1 0xFF PUSH1 0x5 DUP9 MLOAD DUP12 DUP2 PUSH2 0x879 DUP2 DUP11 PUSH2 0x23A9 JUMP JUMPDEST PUSH1 0x3 DUP2 MSTORE SUB ADD SWAP1 KECCAK256 ADD SLOAD AND PUSH2 0x914 JUMPI JUMPDEST POP PUSH2 0x89B PUSH2 0x896 DUP5 PUSH2 0x1D74 JUMP JUMPDEST PUSH2 0x266E JUMP JUMPDEST SLOAD AND DUP1 SWAP9 SLOAD SWAP8 DUP6 MLOAD DUP1 PUSH2 0x8AE DUP2 DUP7 PUSH2 0x23A9 JUMP JUMPDEST SUB SWAP1 KECCAK256 DUP7 MLOAD PUSH1 0x1 PUSH1 0x1 PUSH1 0xA0 SHL SUB SWAP4 SWAP1 SWAP4 AND DUP4 MSTORE PUSH1 0x20 DUP4 ADD DUP11 SWAP1 MSTORE CALLER SWAP3 SWAP1 SWAP2 SWAP1 PUSH32 0x9332956E0C3DD558CABF109A274FD9184F7CD2081DA1B9D9E28E702CF8A6CC59 SWAP1 PUSH1 0x40 SWAP1 LOG4 DUP4 MLOAD SWAP2 DUP3 DUP1 SWAP3 PUSH2 0x23A9 JUMP JUMPDEST SUB SWAP1 KECCAK256 SWAP4 DUP3 MLOAD SWAP6 DUP7 MSTORE DUP6 ADD MSTORE CALLER SWAP4 LOG4 PUSH1 0x1 DUP1 SSTORE DUP1 RETURN JUMPDEST PUSH1 0x5 DUP8 MLOAD DUP11 DUP2 PUSH2 0x924 DUP2 DUP10 PUSH2 0x23A9 JUMP JUMPDEST PUSH1 0x3 DUP2 MSTORE SUB ADD SWAP1 KECCAK256 ADD SWAP1 DUP2 SLOAD AND SWAP1 SSTORE PUSH2 0x944 PUSH2 0x93F DUP5 PUSH2 0x1D74 JUMP JUMPDEST PUSH2 0x2547 JUMP JUMPDEST CODESIZE PUSH2 0x889 JUMP JUMPDEST PUSH2 0x957 SWAP1 SWAP5 SWAP4 SWAP3 SWAP5 PUSH2 0x1C24 JUMP JUMPDEST PUSH2 0x964 JUMPI SWAP1 SWAP2 DUP10 CODESIZE PUSH2 0x833 JUMP JUMPDEST DUP10 DUP1 REVERT JUMPDEST DUP8 MLOAD RETURNDATASIZE DUP5 DUP3 RETURNDATACOPY RETURNDATASIZE SWAP1 REVERT JUMPDEST DUP8 MLOAD PUSH4 0xA9059CBB PUSH1 0xE0 SHL DUP2 MSTORE CALLER DUP11 DUP3 ADD SWAP1 DUP2 MSTORE PUSH1 0x20 DUP2 ADD SWAP5 SWAP1 SWAP5 MSTORE SWAP3 SWAP1 SWAP2 DUP4 SWAP2 DUP3 SWAP1 DUP2 SWAP1 PUSH1 0x40 ADD SUB SWAP2 DUP8 PUSH32 0x0 AND GAS CALL DUP1 ISZERO PUSH2 0xA16 JUMPI DUP12 SWAP1 PUSH2 0x9DC JUMPI JUMPDEST PUSH2 0x9D7 SWAP2 POP PUSH2 0x21EA JUMP JUMPDEST PUSH2 0x7DF JUMP JUMPDEST POP DUP8 DUP2 DUP2 RETURNDATASIZE DUP4 GT PUSH2 0xA0F JUMPI JUMPDEST PUSH2 0x9F2 DUP2 DUP4 PUSH2 0x1C4D JUMP JUMPDEST DUP2 ADD SUB SLT PUSH2 0xA0B JUMPI PUSH2 0xA06 PUSH2 0x9D7 SWAP2 PUSH2 0x1F0A JUMP JUMPDEST PUSH2 0x9CD JUMP JUMPDEST DUP11 DUP1 REVERT JUMPDEST POP RETURNDATASIZE PUSH2 0x9E8 JUMP JUMPDEST DUP7 MLOAD RETURNDATASIZE DUP14 DUP3 RETURNDATACOPY RETURNDATASIZE SWAP1 REVERT JUMPDEST PUSH4 0x4E487B71 PUSH1 0xE0 SHL DUP13 MSTORE PUSH1 0x21 DUP9 MSTORE PUSH1 0x24 DUP13 REVERT JUMPDEST DUP3 MLOAD PUSH3 0x461BCD PUSH1 0xE5 SHL DUP2 MSTORE DUP1 DUP6 ADD DUP7 SWAP1 MSTORE PUSH1 0x1B PUSH1 0x24 DUP3 ADD MSTORE PUSH32 0x4F6E6C79206F776E65722063616E20616363657074206F666665720000000000 PUSH1 0x44 DUP3 ADD MSTORE PUSH1 0x64 SWAP1 REVERT JUMPDEST PUSH2 0x77F SWAP3 POP PUSH2 0xA97 SWAP2 POP RETURNDATASIZE DUP1 DUP13 DUP4 RETURNDATACOPY PUSH2 0xA8F DUP2 DUP4 PUSH2 0x1C4D JUMP JUMPDEST DUP2 ADD SWAP1 PUSH2 0x1F17 JUMP JUMPDEST SWAP12 SWAP11 POP POP POP POP POP POP SWAP4 POP POP POP POP SWAP2 SWAP1 PUSH2 0x775 JUMP JUMPDEST DUP5 MLOAD RETURNDATASIZE DUP12 DUP3 RETURNDATACOPY RETURNDATASIZE SWAP1 REVERT JUMPDEST POP SWAP2 PUSH1 0x64 SWAP3 MLOAD SWAP2 PUSH3 0x461BCD PUSH1 0xE5 SHL DUP4 MSTORE DUP3 ADD MSTORE PUSH1 0xD PUSH1 0x24 DUP3 ADD MSTORE PUSH13 0x13D999995C88195E1C1A5C9959 PUSH1 0x9A SHL PUSH1 0x44 DUP3 ADD MSTORE REVERT JUMPDEST POP SWAP2 SWAP1 PUSH1 0x20 DUP1 PUSH1 0x3 NOT CALLDATASIZE ADD SLT PUSH2 0x46F JUMPI DUP2 CALLDATALOAD PUSH1 0x1 PUSH1 0x1 PUSH1 0x40 SHL SUB DUP2 GT PUSH2 0x295 JUMPI PUSH2 0xB14 SWAP1 CALLDATASIZE SWAP1 DUP5 ADD PUSH2 0x1C89 JUMP JUMPDEST SWAP3 PUSH2 0xB1D PUSH2 0x22A2 JUMP JUMPDEST DUP1 MLOAD DUP3 DUP2 DUP7 MLOAD PUSH2 0xB30 DUP2 DUP4 DUP6 DUP12 ADD PUSH2 0x1E1A JUMP JUMPDEST DUP2 ADD PUSH1 0x3 DUP2 MSTORE SUB ADD SWAP1 KECCAK256 SWAP3 PUSH1 0x5 DUP5 ADD PUSH2 0xB4C PUSH1 0xFF DUP3 SLOAD AND PUSH2 0x2173 JUMP JUMPDEST PUSH1 0x1 DUP6 ADD DUP1 SLOAD PUSH1 0x1 PUSH1 0x1 PUSH1 0xA0 SHL SUB SWAP1 DUP2 AND SWAP4 SWAP1 SWAP3 SWAP1 CALLER DUP6 EQ PUSH2 0xF0B JUMPI PUSH1 0x2 DUP9 ADD SWAP8 DUP9 SLOAD SWAP6 PUSH1 0xFF PUSH1 0x3 PUSH2 0xB8E PUSH2 0x2710 PUSH2 0xB86 PUSH1 0x8 SLOAD DUP13 PUSH2 0x21B4 JUMP JUMPDEST DIV DUP1 SWAP11 PUSH2 0x21DD JUMP JUMPDEST SWAP4 ADD SLOAD AND PUSH1 0x2 DUP2 LT ISZERO PUSH2 0xEF8 JUMPI PUSH2 0xD25 JUMPI POP DUP9 SLOAD CALLVALUE LT PUSH2 0xCE2 JUMPI DUP11 DUP1 DUP1 DUP1 PUSH2 0xBBE SWAP5 DUP10 DUP10 SLOAD AND GAS CALL PUSH2 0x7D9 PUSH2 0x2236 JUMP JUMPDEST DUP8 SLOAD DUP11 DUP2 CALLVALUE GT PUSH2 0xCC0 JUMPI JUMPDEST POP POP JUMPDEST DUP10 DUP5 PUSH1 0x2 SLOAD AND SWAP2 DUP3 EXTCODESIZE ISZERO PUSH2 0x1FF JUMPI PUSH2 0xC02 SWAP3 DUP9 DUP4 DUP14 SWAP4 DUP3 MLOAD SWAP7 DUP8 SWAP6 DUP7 SWAP5 DUP6 SWAP4 PUSH4 0x2203F8F1 PUSH1 0xE0 SHL DUP6 MSTORE DUP5 ADD MSTORE PUSH1 0x44 DUP4 ADD SWAP1 PUSH2 0x1E3D JUMP JUMPDEST CALLER PUSH1 0x24 DUP4 ADD MSTORE SUB SWAP3 GAS CALL DUP1 ISZERO PUSH2 0xCB6 JUMPI PUSH2 0xC77 JUMPI JUMPDEST POP DUP1 SLOAD PUSH1 0xFF NOT AND SWAP1 SSTORE PUSH32 0x8C68D600771AD8AF3C86A9F96BD5C471ECA94AEBD78EA274787F8E95E07AAA10 SWAP4 SWAP3 SWAP2 PUSH2 0xC64 SWAP2 PUSH2 0xC51 DUP10 PUSH2 0x2547 JUMP JUMPDEST PUSH2 0xC5A DUP10 PUSH2 0x266E JUMP JUMPDEST SLOAD AND SWAP6 SLOAD SWAP7 PUSH2 0x2153 JUMP JUMPDEST SWAP4 DUP3 MLOAD SWAP7 DUP8 MSTORE DUP7 ADD MSTORE CALLER SWAP5 LOG4 PUSH1 0x1 DUP1 SSTORE DUP1 RETURN JUMPDEST SWAP2 PUSH32 0x8C68D600771AD8AF3C86A9F96BD5C471ECA94AEBD78EA274787F8E95E07AAA10 SWAP6 SWAP5 SWAP4 SWAP2 SWAP10 PUSH2 0xCAA PUSH2 0xC64 SWAP5 PUSH2 0x1C24 JUMP JUMPDEST SWAP10 SWAP2 SWAP4 SWAP5 SWAP6 POP SWAP2 PUSH2 0xC17 JUMP JUMPDEST DUP7 MLOAD RETURNDATASIZE DUP13 DUP3 RETURNDATACOPY RETURNDATASIZE SWAP1 REVERT JUMPDEST DUP1 DUP1 DUP1 PUSH2 0xCD0 PUSH2 0xCDB SWAP6 CALLVALUE PUSH2 0x21DD JUMP JUMPDEST CALLER GAS CALL PUSH2 0x329 PUSH2 0x2236 JUMP JUMPDEST CODESIZE DUP11 PUSH2 0xBC9 JUMP JUMPDEST DUP7 MLOAD PUSH3 0x461BCD PUSH1 0xE5 SHL DUP2 MSTORE DUP1 DUP4 ADD DUP10 SWAP1 MSTORE PUSH1 0x18 PUSH1 0x24 DUP3 ADD MSTORE PUSH32 0x496E73756666696369656E7420455448207061796D656E740000000000000000 PUSH1 0x44 DUP3 ADD MSTORE PUSH1 0x64 SWAP1 REVERT JUMPDEST SWAP1 CALLVALUE PUSH2 0xEAB JUMPI DUP8 MLOAD PUSH4 0x23B872DD PUSH1 0xE0 SHL DUP1 DUP3 MSTORE CALLER DUP6 DUP4 ADD SWAP1 DUP2 MSTORE PUSH1 0x1 PUSH1 0x1 PUSH1 0xA0 SHL SUB SWAP1 SWAP5 AND PUSH1 0x20 DUP6 ADD MSTORE PUSH1 0x40 DUP5 ADD SWAP3 SWAP1 SWAP3 MSTORE DUP13 SWAP3 PUSH32 0x0 DUP9 AND SWAP2 SWAP1 DUP12 SWAP1 DUP3 SWAP1 DUP2 SWAP1 PUSH1 0x60 ADD SUB DUP2 DUP8 DUP7 GAS CALL SWAP1 DUP2 ISZERO PUSH2 0xEA1 JUMPI SWAP1 DUP12 SWAP4 SWAP3 SWAP2 DUP6 SWAP2 PUSH2 0xE68 JUMPI JUMPDEST POP PUSH2 0xDAA SWAP1 PUSH2 0x21EA JUMP JUMPDEST DUP10 MLOAD SWAP2 DUP3 MSTORE CALLER DUP6 DUP4 ADD SWAP1 DUP2 MSTORE ADDRESS PUSH1 0x20 DUP3 ADD MSTORE PUSH1 0x40 DUP2 ADD DUP11 SWAP1 MSTORE SWAP2 SWAP4 DUP5 SWAP3 DUP4 SWAP2 SWAP1 DUP3 SWAP1 PUSH1 0x60 ADD SUB SWAP3 GAS CALL SWAP1 DUP2 ISZERO PUSH2 0xE5E JUMPI DUP12 SWAP2 PUSH2 0xE29 JUMPI JUMPDEST POP PUSH2 0xBCC JUMPI DUP6 MLOAD PUSH3 0x461BCD PUSH1 0xE5 SHL DUP2 MSTORE SWAP1 DUP2 ADD DUP8 SWAP1 MSTORE PUSH1 0x1C PUSH1 0x24 DUP3 ADD MSTORE PUSH32 0x506C6174666F726D20666565207472616E73666572206661696C656400000000 PUSH1 0x44 DUP3 ADD MSTORE PUSH1 0x64 SWAP1 REVERT JUMPDEST SWAP1 POP DUP8 DUP2 DUP2 RETURNDATASIZE DUP4 GT PUSH2 0xE57 JUMPI JUMPDEST PUSH2 0xE40 DUP2 DUP4 PUSH2 0x1C4D JUMP JUMPDEST DUP2 ADD SUB SLT PUSH2 0xA0B JUMPI PUSH2 0xE51 SWAP1 PUSH2 0x1F0A JUMP JUMPDEST CODESIZE PUSH2 0xDE1 JUMP JUMPDEST POP RETURNDATASIZE PUSH2 0xE36 JUMP JUMPDEST DUP8 MLOAD RETURNDATASIZE DUP14 DUP3 RETURNDATACOPY RETURNDATASIZE SWAP1 REVERT JUMPDEST DUP5 DUP2 SWAP6 SWAP3 POP RETURNDATASIZE DUP4 GT PUSH2 0xE9A JUMPI JUMPDEST PUSH2 0xE7F DUP2 DUP4 PUSH2 0x1C4D JUMP JUMPDEST DUP2 ADD SUB SLT PUSH2 0x46F JUMPI PUSH2 0xDAA PUSH2 0xE94 DUP13 SWAP5 PUSH2 0x1F0A JUMP JUMPDEST SWAP1 PUSH2 0xDA0 JUMP JUMPDEST POP RETURNDATASIZE PUSH2 0xE75 JUMP JUMPDEST DUP11 MLOAD RETURNDATASIZE DUP7 DUP3 RETURNDATACOPY RETURNDATASIZE SWAP1 REVERT JUMPDEST DUP8 MLOAD PUSH3 0x461BCD PUSH1 0xE5 SHL DUP2 MSTORE DUP1 DUP5 ADD DUP11 SWAP1 MSTORE PUSH1 0x21 PUSH1 0x24 DUP3 ADD MSTORE PUSH32 0x446F206E6F742073656E642045544820666F7220555344432070757263686173 PUSH1 0x44 DUP3 ADD MSTORE PUSH1 0x65 PUSH1 0xF8 SHL PUSH1 0x64 DUP3 ADD MSTORE PUSH1 0x84 SWAP1 REVERT JUMPDEST PUSH4 0x4E487B71 PUSH1 0xE0 SHL DUP14 MSTORE PUSH1 0x21 DUP5 MSTORE PUSH1 0x24 DUP14 REVERT JUMPDEST DUP6 MLOAD PUSH3 0x461BCD PUSH1 0xE5 SHL DUP2 MSTORE SWAP1 DUP2 ADD DUP8 SWAP1 MSTORE PUSH1 0x19 PUSH1 0x24 DUP3 ADD MSTORE PUSH32 0x43616E6E6F742062757920796F7572206F776E20617373657400000000000000 PUSH1 0x44 DUP3 ADD MSTORE PUSH1 0x64 SWAP1 REVERT JUMPDEST POP DUP3 CALLVALUE PUSH2 0x1FF JUMPI DUP2 PUSH1 0x3 NOT CALLDATASIZE ADD SLT PUSH2 0x1FF JUMPI PUSH1 0x20 SWAP1 MLOAD PUSH20 0x36CBD53842C5426634E7929541EC2318F3DCF7E DUP2 MSTORE RETURN JUMPDEST POP SWAP2 SWAP1 CALLVALUE PUSH2 0x1FB JUMPI PUSH1 0x20 CALLDATASIZE PUSH1 0x3 NOT ADD SLT PUSH2 0x1FB JUMPI DUP1 CALLDATALOAD SWAP2 PUSH2 0xF9C PUSH2 0x1E85 JUMP JUMPDEST PUSH2 0x3E8 DUP4 GT PUSH2 0xFAD JUMPI POP POP PUSH1 0x8 SSTORE DUP1 RETURN JUMPDEST SWAP1 PUSH1 0x20 PUSH1 0x64 SWAP3 MLOAD SWAP2 PUSH3 0x461BCD PUSH1 0xE5 SHL DUP4 MSTORE DUP3 ADD MSTORE PUSH1 0x16 PUSH1 0x24 DUP3 ADD MSTORE PUSH22 0x46656520746F6F206869676820286D61782031302529 PUSH1 0x50 SHL PUSH1 0x44 DUP3 ADD MSTORE REVERT JUMPDEST POP SWAP2 SWAP1 CALLVALUE PUSH2 0x1FB JUMPI DUP2 PUSH1 0x3 NOT CALLDATASIZE ADD SLT PUSH2 0x1FB JUMPI DUP1 CALLDATALOAD SWAP1 PUSH1 0x1 PUSH1 0x1 PUSH1 0x40 SHL SUB DUP3 GT PUSH2 0x46F JUMPI PUSH2 0x1019 SWAP2 CALLDATASIZE SWAP2 ADD PUSH2 0x1C89 JUMP JUMPDEST SWAP2 PUSH2 0x1035 PUSH1 0x20 PUSH1 0x24 CALLDATALOAD SWAP5 DUP2 DUP6 MLOAD SWAP4 DUP3 DUP6 DUP1 SWAP5 MLOAD SWAP4 DUP5 SWAP3 ADD PUSH2 0x1E1A JUMP JUMPDEST DUP2 ADD PUSH1 0x5 DUP2 MSTORE SUB ADD SWAP1 KECCAK256 SWAP1 DUP2 SLOAD DUP5 LT ISZERO PUSH2 0x203 JUMPI POP PUSH1 0x20 SWAP3 PUSH2 0x1056 SWAP2 PUSH2 0x1D22 JUMP JUMPDEST SWAP2 SWAP1 SLOAD SWAP1 MLOAD SWAP2 PUSH1 0x3 SHL SHR DUP2 MSTORE RETURN JUMPDEST POP SWAP2 SWAP1 PUSH1 0x80 CALLDATASIZE PUSH1 0x3 NOT ADD SLT PUSH2 0x1FB JUMPI PUSH1 0x1 PUSH1 0x1 PUSH1 0x40 SHL SUB DUP2 CALLDATALOAD DUP2 DUP2 GT PUSH2 0x295 JUMPI PUSH2 0x1091 SWAP1 CALLDATASIZE SWAP1 DUP5 ADD PUSH2 0x1C89 JUMP JUMPDEST SWAP3 PUSH1 0x24 SWAP2 DUP3 CALLDATALOAD SWAP5 PUSH1 0x44 SWAP5 DUP6 CALLDATALOAD SWAP5 PUSH1 0x2 DUP7 LT ISZERO PUSH2 0x1531 JUMPI PUSH1 0x64 SWAP4 DUP5 CALLDATALOAD SWAP7 DUP10 ISZERO PUSH2 0x14F9 JUMPI PUSH2 0xE10 DUP9 LT ISZERO DUP1 PUSH2 0x14EC JUMPI JUMPDEST ISZERO PUSH2 0x14B9 JUMPI PUSH1 0x2 SLOAD DUP8 MLOAD PUSH4 0xCD5286D PUSH1 0xE4 SHL DUP2 MSTORE PUSH1 0x20 DUP7 DUP3 ADD DUP2 SWAP1 MSTORE SWAP11 PUSH1 0x1 PUSH1 0x1 PUSH1 0xA0 SHL SUB SWAP9 SWAP3 SWAP1 SWAP2 DUP15 SWAP2 DUP3 SWAP1 DUP3 SWAP1 DUP13 AND DUP2 DUP1 PUSH2 0x10FE DUP13 DUP3 ADD DUP16 PUSH2 0x1E3D JUMP JUMPDEST SUB SWAP2 GAS STATICCALL SWAP1 DUP2 ISZERO PUSH2 0x14AF JUMPI DUP3 DUP1 SWAP3 PUSH2 0x1481 JUMPI JUMPDEST POP POP PUSH2 0x111C SWAP1 PUSH2 0x1FC0 JUMP JUMPDEST DUP9 AND CALLER EQ PUSH2 0x1443 JUMPI DUP3 PUSH2 0x1319 JUMPI DUP12 CALLVALUE SUB PUSH2 0x12E5 JUMPI POP POP JUMPDEST PUSH1 0x6 SLOAD SWAP8 PUSH2 0x1140 DUP10 PUSH2 0x22C5 JUMP JUMPDEST PUSH1 0x6 SSTORE TIMESTAMP ADD SWAP6 DUP7 TIMESTAMP GT PUSH2 0x12D3 JUMPI DUP8 MLOAD SWAP3 PUSH1 0xE0 DUP5 ADD SWAP1 DUP2 GT DUP5 DUP3 LT OR PUSH2 0x12C1 JUMPI DUP10 SWAP3 DUP13 DUP15 DUP11 SWAP5 DUP15 SWAP5 DUP14 MSTORE DUP11 DUP9 MSTORE PUSH2 0x11B0 DUP14 DUP7 DUP11 ADD SWAP4 CALLER DUP6 MSTORE DUP2 DUP12 ADD SWAP6 DUP7 MSTORE PUSH2 0x118B PUSH1 0x60 DUP13 ADD SWAP8 DUP9 PUSH2 0x200C JUMP JUMPDEST DUP13 PUSH1 0x80 DUP13 ADD SWAP9 TIMESTAMP DUP11 MSTORE PUSH1 0xA0 DUP14 ADD SWAP11 DUP12 MSTORE PUSH1 0xC0 DUP14 ADD SWAP12 PUSH1 0x1 DUP14 MSTORE DUP4 MSTORE MSTORE KECCAK256 SWAP9 MLOAD DUP10 PUSH2 0x2074 JUMP JUMPDEST PUSH1 0x1 DUP9 ADD SWAP2 MLOAD AND PUSH1 0x1 PUSH1 0x1 PUSH1 0x60 SHL SUB PUSH1 0xA0 SHL DUP3 SLOAD AND OR SWAP1 SSTORE MLOAD PUSH1 0x2 DUP7 ADD SSTORE MLOAD PUSH1 0x2 DUP2 LT ISZERO PUSH2 0x12AF JUMPI SWAP2 DUP5 SWAP4 SWAP2 PUSH2 0x11EE PUSH1 0x6 SWAP5 PUSH1 0x3 PUSH2 0x120F SWAP9 ADD PUSH2 0x213B JUMP JUMPDEST MLOAD DUP8 DUP6 ADD SSTORE MLOAD PUSH1 0x5 DUP5 ADD SSTORE MLOAD ISZERO ISZERO SWAP2 ADD SWAP1 PUSH1 0xFF DUP1 NOT DUP4 SLOAD AND SWAP2 ISZERO ISZERO AND OR SWAP1 SSTORE JUMP JUMPDEST DUP5 MLOAD DUP8 DUP2 DUP6 MLOAD PUSH2 0x1222 DUP2 DUP4 DUP6 DUP11 ADD PUSH2 0x1E1A JUMP JUMPDEST DUP2 ADD PUSH1 0x5 DUP2 MSTORE SUB ADD SWAP1 KECCAK256 SWAP1 DUP2 SLOAD SWAP3 PUSH1 0x1 PUSH1 0x40 SHL DUP5 LT ISZERO PUSH2 0x129E JUMPI POP POP SWAP2 PUSH2 0x1275 DUP3 PUSH32 0xCFED541454DAC78F93DA97764A61638D187363E6D64A389FAA86EDCAAF8932BC SWAP7 SWAP6 SWAP5 PUSH1 0x1 PUSH2 0x128F SWAP6 ADD DUP2 SSTORE PUSH2 0x1D22 JUMP JUMPDEST DUP2 SLOAD SWAP1 PUSH1 0x3 SHL SWAP1 DUP9 DUP3 SHL SWAP2 PUSH1 0x0 NOT SWAP1 SHL NOT AND OR SWAP1 SSTORE PUSH2 0x2153 JUMP JUMPDEST SWAP5 DUP3 MLOAD SWAP7 DUP8 MSTORE DUP7 ADD MSTORE CALLER SWAP5 LOG4 DUP1 RETURN JUMPDEST PUSH4 0x4E487B71 PUSH1 0xE0 SHL DUP12 MSTORE PUSH1 0x41 SWAP1 MSTORE DUP10 REVERT JUMPDEST PUSH4 0x4E487B71 PUSH1 0xE0 SHL DUP15 MSTORE PUSH1 0x21 DUP8 MSTORE DUP6 DUP15 REVERT JUMPDEST PUSH4 0x4E487B71 PUSH1 0xE0 SHL DUP14 MSTORE PUSH1 0x41 DUP7 MSTORE DUP5 DUP14 REVERT JUMPDEST PUSH4 0x4E487B71 PUSH1 0xE0 SHL DUP13 MSTORE PUSH1 0x11 DUP6 MSTORE DUP4 DUP13 REVERT JUMPDEST PUSH19 0x8AA89040C2DADEEADCE840DAD2E6DAC2E8C6D PUSH1 0x6B SHL DUP7 SWAP2 PUSH1 0x13 DUP8 DUP15 DUP14 MLOAD SWAP6 PUSH3 0x461BCD PUSH1 0xE5 SHL DUP8 MSTORE DUP7 ADD MSTORE DUP5 ADD MSTORE DUP3 ADD MSTORE REVERT JUMPDEST CALLVALUE PUSH2 0x1405 JUMPI DUP9 MLOAD PUSH4 0x23B872DD PUSH1 0xE0 SHL DUP2 MSTORE CALLER DUP8 DUP3 ADD SWAP1 DUP2 MSTORE ADDRESS PUSH1 0x20 DUP3 ADD MSTORE PUSH1 0x40 DUP2 ADD DUP15 SWAP1 MSTORE DUP15 SWAP2 SWAP1 DUP14 SWAP1 DUP3 SWAP1 DUP2 SWAP1 SUB PUSH1 0x60 ADD DUP2 DUP6 PUSH32 0x0 DUP16 AND GAS CALL SWAP2 DUP3 ISZERO PUSH2 0x13FA JUMPI SWAP2 PUSH2 0x13C1 JUMPI JUMPDEST POP ISZERO PUSH2 0x138C JUMPI POP POP PUSH2 0x1133 JUMP JUMPDEST PUSH20 0x1554D110C81D1C985B9CD9995C8819985A5B1959 PUSH1 0x62 SHL DUP7 SWAP2 PUSH1 0x14 DUP8 DUP15 DUP14 MLOAD SWAP6 PUSH3 0x461BCD PUSH1 0xE5 SHL DUP8 MSTORE DUP7 ADD MSTORE DUP5 ADD MSTORE DUP3 ADD MSTORE REVERT JUMPDEST SWAP1 POP DUP12 DUP2 DUP2 RETURNDATASIZE DUP4 GT PUSH2 0x13F3 JUMPI JUMPDEST PUSH2 0x13D8 DUP2 DUP4 PUSH2 0x1C4D JUMP JUMPDEST DUP2 ADD SUB SLT PUSH2 0x13EF JUMPI PUSH2 0x13E9 SWAP1 PUSH2 0x1F0A JUMP JUMPDEST CODESIZE PUSH2 0x137F JUMP JUMPDEST DUP14 DUP1 REVERT JUMPDEST POP RETURNDATASIZE PUSH2 0x13CE JUMP JUMPDEST DUP12 MLOAD SWAP1 RETURNDATASIZE SWAP1 DUP3 RETURNDATACOPY RETURNDATASIZE SWAP1 REVERT JUMPDEST PUSH32 0x446F206E6F742073656E642045544820666F722055534443206F666665720000 DUP7 SWAP2 PUSH1 0x1E DUP8 DUP15 DUP14 MLOAD SWAP6 PUSH3 0x461BCD PUSH1 0xE5 SHL DUP8 MSTORE DUP7 ADD MSTORE DUP5 ADD MSTORE DUP3 ADD MSTORE REVERT JUMPDEST PUSH32 0x43616E6E6F74206F66666572206F6E20796F7572206F776E2061737365740000 DUP7 SWAP2 PUSH1 0x1E DUP8 DUP15 DUP14 MLOAD SWAP6 PUSH3 0x461BCD PUSH1 0xE5 SHL DUP8 MSTORE DUP7 ADD MSTORE DUP5 ADD MSTORE DUP3 ADD MSTORE REVERT JUMPDEST PUSH2 0x111C SWAP4 POP PUSH2 0x149A SWAP3 POP RETURNDATASIZE DUP1 SWAP2 DUP4 RETURNDATACOPY PUSH2 0xA8F DUP2 DUP4 PUSH2 0x1C4D JUMP JUMPDEST SWAP12 SWAP11 POP POP POP POP POP POP SWAP4 POP POP POP POP SWAP2 SWAP1 DUP16 PUSH2 0x1111 JUMP JUMPDEST DUP12 MLOAD RETURNDATASIZE DUP5 DUP3 RETURNDATACOPY RETURNDATASIZE SWAP1 REVERT JUMPDEST DUP7 MLOAD PUSH3 0x461BCD PUSH1 0xE5 SHL DUP2 MSTORE PUSH1 0x20 DUP2 DUP7 ADD MSTORE PUSH1 0x10 DUP2 DUP6 ADD MSTORE PUSH16 0x24B73B30B634B210323AB930BA34B7B7 PUSH1 0x81 SHL DUP2 DUP12 ADD MSTORE DUP7 SWAP1 REVERT JUMPDEST POP PUSH3 0x278D00 DUP9 GT ISZERO PUSH2 0x10BF JUMP JUMPDEST DUP7 MLOAD PUSH3 0x461BCD PUSH1 0xE5 SHL DUP2 MSTORE PUSH1 0x20 DUP2 DUP7 ADD MSTORE PUSH1 0x15 DUP2 DUP6 ADD MSTORE PUSH21 0x4F66666572206D75737420686176652076616C7565 PUSH1 0x58 SHL DUP2 DUP12 ADD MSTORE DUP7 SWAP1 REVERT JUMPDEST DUP9 DUP1 REVERT JUMPDEST POP SWAP2 CALLVALUE PUSH2 0x1FB JUMPI PUSH1 0x20 CALLDATASIZE PUSH1 0x3 NOT ADD SLT PUSH2 0x1FB JUMPI DUP2 CALLDATALOAD PUSH1 0x1 PUSH1 0x1 PUSH1 0x40 SHL SUB DUP2 GT PUSH2 0x46F JUMPI PUSH2 0x1565 SWAP1 CALLDATASIZE SWAP1 DUP5 ADD PUSH2 0x1C89 JUMP JUMPDEST SWAP2 DUP2 MLOAD PUSH1 0x20 DUP2 DUP6 MLOAD PUSH2 0x157A DUP2 DUP4 DUP6 DUP11 ADD PUSH2 0x1E1A JUMP JUMPDEST DUP2 ADD PUSH1 0x3 DUP2 MSTORE SUB ADD SWAP1 KECCAK256 SWAP1 PUSH1 0x5 DUP3 ADD SWAP3 DUP4 SLOAD SWAP3 PUSH2 0x1599 PUSH1 0xFF DUP6 AND PUSH2 0x2173 JUMP JUMPDEST PUSH1 0x1 ADD SLOAD PUSH1 0x1 PUSH1 0x1 PUSH1 0xA0 SHL SUB AND CALLER SUB PUSH2 0x15EE JUMPI POP POP PUSH1 0xFF NOT AND SWAP1 SSTORE PUSH2 0x15BD DUP2 PUSH2 0x2547 JUMP JUMPDEST PUSH2 0x15C7 CALLER SWAP2 PUSH2 0x2153 JUMP JUMPDEST PUSH32 0xAD06290F905050C9DAC577E139B4B450621B456073E716DB7561A52F3FF8928 DUP4 DUP1 LOG3 DUP1 RETURN JUMPDEST SWAP1 PUSH1 0x20 PUSH1 0x64 SWAP3 MLOAD SWAP2 PUSH3 0x461BCD PUSH1 0xE5 SHL DUP4 MSTORE DUP3 ADD MSTORE PUSH1 0x16 PUSH1 0x24 DUP3 ADD MSTORE PUSH22 0x13DB9B1E481CD95B1B195C8818D85B8818D85B98D95B PUSH1 0x52 SHL PUSH1 0x44 DUP3 ADD MSTORE REVERT JUMPDEST POP DUP3 CALLVALUE PUSH2 0x1FF JUMPI DUP2 PUSH1 0x3 NOT CALLDATASIZE ADD SLT PUSH2 0x1FF JUMPI SWAP1 SLOAD SWAP1 MLOAD PUSH1 0x1 PUSH1 0x1 PUSH1 0xA0 SHL SUB SWAP1 SWAP2 AND DUP2 MSTORE PUSH1 0x20 SWAP1 RETURN JUMPDEST POP SWAP2 SWAP1 CALLVALUE PUSH2 0x1FB JUMPI PUSH1 0x20 CALLDATASIZE PUSH1 0x3 NOT ADD SLT PUSH2 0x1FB JUMPI DUP2 PUSH2 0x16C4 SWAP4 DUP3 CALLDATALOAD DUP2 MSTORE DUP3 PUSH1 0x20 MSTORE KECCAK256 SWAP2 PUSH2 0x167E DUP4 PUSH2 0x1D74 JUMP JUMPDEST SWAP3 PUSH1 0x1 DUP1 PUSH1 0xA0 SHL SUB PUSH1 0x1 DUP3 ADD SLOAD AND SWAP3 PUSH2 0x16D7 PUSH1 0x2 DUP4 ADD SLOAD SWAP2 PUSH1 0xFF PUSH1 0x3 DUP6 ADD SLOAD AND SWAP1 DUP5 ADD SLOAD SWAP3 PUSH1 0xFF PUSH1 0x6 PUSH1 0x5 DUP8 ADD SLOAD SWAP7 ADD SLOAD AND SWAP6 DUP1 MLOAD SWAP10 DUP11 SWAP10 PUSH1 0xE0 DUP12 MSTORE PUSH1 0xE0 DUP12 ADD SWAP1 PUSH2 0x1E3D JUMP JUMPDEST SWAP8 PUSH1 0x20 DUP11 ADD MSTORE DUP9 ADD MSTORE PUSH1 0x60 DUP8 ADD SWAP1 PUSH2 0x1E62 JUMP JUMPDEST PUSH1 0x80 DUP6 ADD MSTORE PUSH1 0xA0 DUP5 ADD MSTORE ISZERO ISZERO PUSH1 0xC0 DUP4 ADD MSTORE SUB SWAP1 RETURN JUMPDEST POP DUP3 CALLVALUE PUSH2 0x1FF JUMPI DUP2 PUSH1 0x3 NOT CALLDATASIZE ADD SLT PUSH2 0x1FF JUMPI PUSH1 0x20 SWAP1 PUSH1 0x7 SLOAD SWAP1 MLOAD SWAP1 DUP2 MSTORE RETURN JUMPDEST POP SWAP2 SWAP1 CALLVALUE PUSH2 0x1FB JUMPI PUSH1 0x20 CALLDATASIZE PUSH1 0x3 NOT ADD SLT PUSH2 0x1FB JUMPI DUP1 CALLDATALOAD SWAP3 PUSH1 0x1 PUSH1 0x1 PUSH1 0x40 SHL SUB DUP5 GT PUSH2 0x203 JUMPI POP PUSH2 0x1746 PUSH1 0x20 PUSH2 0x163 PUSH2 0x1798 SWAP6 CALLDATASIZE SWAP1 DUP6 ADD PUSH2 0x1C89 JUMP JUMPDEST DUP2 ADD PUSH1 0x3 DUP2 MSTORE SUB ADD SWAP1 KECCAK256 SWAP2 PUSH2 0x175A DUP4 PUSH2 0x1D74 JUMP JUMPDEST SWAP3 PUSH2 0x17AB PUSH1 0x1 DUP1 PUSH1 0xA0 SHL SUB PUSH1 0x1 DUP4 ADD SLOAD AND SWAP4 PUSH1 0x2 DUP4 ADD SLOAD PUSH1 0xFF PUSH1 0x5 DUP2 PUSH1 0x3 DUP8 ADD SLOAD AND SWAP4 DUP7 ADD SLOAD SWAP6 ADD SLOAD AND SWAP5 DUP1 MLOAD SWAP9 DUP10 SWAP9 PUSH1 0xC0 DUP11 MSTORE PUSH1 0xC0 DUP11 ADD SWAP1 PUSH2 0x1E3D JUMP JUMPDEST SWAP7 PUSH1 0x20 DUP10 ADD MSTORE DUP8 ADD MSTORE PUSH1 0x60 DUP7 ADD SWAP1 PUSH2 0x1E62 JUMP JUMPDEST PUSH1 0x80 DUP5 ADD MSTORE ISZERO ISZERO PUSH1 0xA0 DUP4 ADD MSTORE SUB SWAP1 RETURN JUMPDEST POP CALLVALUE PUSH2 0x203 JUMPI DUP1 PUSH1 0x3 NOT CALLDATASIZE ADD SLT PUSH2 0x203 JUMPI PUSH2 0x17D4 PUSH2 0x1E85 JUMP JUMPDEST DUP1 SLOAD PUSH1 0x1 PUSH1 0x1 PUSH1 0xA0 SHL SUB NOT DUP2 AND DUP3 SSTORE DUP2 SWAP1 PUSH1 0x1 PUSH1 0x1 PUSH1 0xA0 SHL SUB AND PUSH32 0x8BE0079C531659141344CD1FD0A4F28419497F9722A3DAAFE3B4186F6B6457E0 DUP3 DUP1 LOG3 DUP1 RETURN JUMPDEST POP DUP3 SWAP1 CALLVALUE PUSH2 0x203 JUMPI PUSH1 0x20 CALLDATASIZE PUSH1 0x3 NOT ADD SLT PUSH2 0x203 JUMPI DUP3 CALLDATALOAD PUSH1 0x7 SLOAD DUP2 LT ISZERO PUSH2 0x1FF JUMPI PUSH2 0x183E SWAP1 PUSH2 0x1CD5 JUMP JUMPDEST SWAP4 SWAP1 SWAP4 PUSH2 0x1869 JUMPI PUSH2 0x1865 DUP4 PUSH2 0x1852 DUP7 PUSH2 0x1D74 JUMP JUMPDEST SWAP1 MLOAD SWAP2 DUP3 SWAP2 PUSH1 0x20 DUP4 MSTORE PUSH1 0x20 DUP4 ADD SWAP1 PUSH2 0x1E3D JUMP JUMPDEST SUB SWAP1 RETURN JUMPDEST PUSH4 0x4E487B71 PUSH1 0xE0 SHL DUP3 MSTORE DUP2 SWAP1 MSTORE PUSH1 0x24 SWAP1 REVERT JUMPDEST POP DUP3 CALLVALUE PUSH2 0x1FF JUMPI DUP2 PUSH1 0x3 NOT CALLDATASIZE ADD SLT PUSH2 0x1FF JUMPI PUSH1 0x20 SWAP1 PUSH1 0x6 SLOAD SWAP1 MLOAD SWAP1 DUP2 MSTORE RETURN JUMPDEST POP SWAP2 CALLVALUE PUSH2 0x1FB JUMPI PUSH1 0x60 CALLDATASIZE PUSH1 0x3 NOT ADD SLT PUSH2 0x1FB JUMPI PUSH1 0x1 PUSH1 0x1 PUSH1 0x40 SHL SUB SWAP1 DUP3 CALLDATALOAD DUP3 DUP2 GT PUSH2 0x295 JUMPI PUSH2 0x18CC SWAP1 CALLDATASIZE SWAP1 DUP6 ADD PUSH2 0x1C89 JUMP JUMPDEST PUSH1 0x24 SWAP4 DUP5 CALLDATALOAD SWAP5 PUSH1 0x44 CALLDATALOAD SWAP5 PUSH1 0x2 DUP7 LT ISZERO PUSH2 0x1BDD JUMPI DUP7 ISZERO PUSH2 0x1B9B JUMPI DUP5 MLOAD SWAP6 DUP5 MLOAD SWAP1 PUSH1 0xFF PUSH1 0x5 PUSH1 0x20 SWAP10 DUP11 DUP2 DUP2 DUP12 ADD SWAP7 PUSH2 0x1903 DUP2 DUP4 DUP11 PUSH2 0x1E1A JUMP JUMPDEST DUP2 ADD PUSH1 0x3 DUP2 MSTORE SUB ADD SWAP1 KECCAK256 ADD SLOAD AND PUSH2 0x1B62 JUMPI PUSH1 0x2 SLOAD DUP8 MLOAD PUSH4 0xCD5286D PUSH1 0xE4 SHL DUP2 MSTORE DUP7 DUP2 ADD DUP11 SWAP1 MSTORE PUSH1 0x1 PUSH1 0x1 PUSH1 0xA0 SHL SUB SWAP2 DUP13 SWAP1 DUP3 SWAP1 DUP5 AND DUP2 DUP1 PUSH2 0x1946 DUP12 DUP3 ADD DUP15 PUSH2 0x1E3D JUMP JUMPDEST SUB SWAP2 GAS STATICCALL DUP1 ISZERO PUSH2 0x1B58 JUMPI DUP13 SWAP2 DUP14 SWAP2 PUSH2 0x1B2B JUMPI JUMPDEST POP PUSH2 0x1963 SWAP1 PUSH2 0x1FC0 JUMP JUMPDEST DUP2 CALLER SWAP2 AND SUB PUSH2 0x1AE9 JUMPI DUP8 MLOAD SWAP4 PUSH1 0xC0 DUP6 ADD SWAP1 DUP2 GT DUP6 DUP3 LT OR PUSH2 0x1AD7 JUMPI SWAP1 DUP9 SWAP4 SWAP3 SWAP2 DUP5 MSTORE DUP8 DUP6 MSTORE DUP10 DUP6 ADD CALLER DUP2 MSTORE DUP5 DUP7 ADD SWAP2 DUP13 DUP4 MSTORE PUSH2 0x19A3 PUSH1 0x60 DUP9 ADD SWAP5 DUP6 PUSH2 0x200C JUMP JUMPDEST PUSH2 0x19DD PUSH2 0x19CB DUP14 PUSH1 0x80 DUP11 ADD SWAP8 TIMESTAMP DUP10 MSTORE DUP14 PUSH1 0xA0 DUP13 ADD SWAP11 PUSH1 0x1 DUP13 MSTORE MLOAD SWAP4 DUP5 SWAP3 DUP4 SWAP3 MLOAD SWAP3 DUP4 SWAP2 PUSH2 0x1E1A JUMP JUMPDEST DUP2 ADD PUSH1 0x3 DUP2 MSTORE SUB ADD SWAP1 KECCAK256 SWAP8 MLOAD DUP9 PUSH2 0x2074 JUMP JUMPDEST PUSH1 0x1 DUP8 ADD SWAP2 MLOAD AND PUSH1 0x1 PUSH1 0x1 PUSH1 0x60 SHL SUB PUSH1 0xA0 SHL DUP3 SLOAD AND OR SWAP1 SSTORE MLOAD PUSH1 0x2 DUP6 ADD SSTORE MLOAD PUSH1 0x2 DUP2 LT ISZERO PUSH2 0x1AC5 JUMPI SWAP2 PUSH1 0x5 SWAP2 PUSH2 0x1A1A DUP6 SWAP5 PUSH1 0x3 PUSH2 0x1A35 SWAP8 ADD PUSH2 0x213B JUMP JUMPDEST MLOAD DUP7 DUP5 ADD SSTORE MLOAD ISZERO ISZERO SWAP2 ADD SWAP1 PUSH1 0xFF DUP1 NOT DUP4 SLOAD AND SWAP2 ISZERO ISZERO AND OR SWAP1 SSTORE JUMP JUMPDEST PUSH1 0x7 SLOAD PUSH1 0x1 PUSH1 0x40 SHL DUP2 LT ISZERO PUSH2 0x1AB3 JUMPI DUP1 PUSH1 0x1 PUSH2 0x1A54 SWAP3 ADD PUSH1 0x7 SSTORE PUSH2 0x1CD5 JUMP JUMPDEST SWAP3 SWAP1 SWAP3 PUSH2 0x1AA3 JUMPI POP POP DUP2 PUSH2 0x1A8D PUSH32 0xF34A4C127FF02F03C1D1FB093BB2C95EC0CFD3C38220B818EF19234533C6B96C SWAP5 SWAP4 PUSH2 0x1A92 SWAP4 PUSH2 0x2074 JUMP JUMPDEST PUSH2 0x2153 JUMP JUMPDEST SWAP3 DUP2 MLOAD SWAP5 DUP6 MSTORE TIMESTAMP SWAP1 DUP6 ADD MSTORE CALLER SWAP4 LOG3 DUP1 RETURN JUMPDEST PUSH4 0x4E487B71 PUSH1 0xE0 SHL DUP9 MSTORE DUP8 SWAP1 MSTORE DUP7 REVERT JUMPDEST POP PUSH4 0x4E487B71 PUSH1 0xE0 SHL DUP8 MSTORE PUSH1 0x41 DUP3 MSTORE DUP7 REVERT JUMPDEST PUSH4 0x4E487B71 PUSH1 0xE0 SHL DUP12 MSTORE PUSH1 0x21 DUP7 MSTORE DUP5 DUP12 REVERT JUMPDEST PUSH4 0x4E487B71 PUSH1 0xE0 SHL DUP13 MSTORE PUSH1 0x41 DUP8 MSTORE DUP6 DUP13 REVERT JUMPDEST DUP8 MLOAD PUSH3 0x461BCD PUSH1 0xE5 SHL DUP2 MSTORE DUP1 DUP8 ADD DUP11 SWAP1 MSTORE PUSH1 0x19 DUP2 DUP8 ADD MSTORE PUSH32 0x4F6E6C79206F776E65722063616E206C69737420617373657400000000000000 PUSH1 0x44 DUP3 ADD MSTORE PUSH1 0x64 SWAP1 REVERT JUMPDEST PUSH2 0x1963 SWAP3 POP PUSH2 0x1B44 SWAP2 POP RETURNDATASIZE DUP1 DUP16 DUP4 RETURNDATACOPY PUSH2 0xA8F DUP2 DUP4 PUSH2 0x1C4D JUMP JUMPDEST SWAP12 SWAP11 POP POP POP POP POP POP SWAP4 POP POP POP POP SWAP2 SWAP1 PUSH2 0x1959 JUMP JUMPDEST DUP10 MLOAD RETURNDATASIZE DUP15 DUP3 RETURNDATACOPY RETURNDATASIZE SWAP1 REVERT JUMPDEST DUP7 MLOAD PUSH3 0x461BCD PUSH1 0xE5 SHL DUP2 MSTORE DUP1 DUP7 ADD DUP10 SWAP1 MSTORE PUSH1 0x14 DUP2 DUP7 ADD MSTORE PUSH20 0x105CDCD95D08185B1C9958591E481B1A5CDD1959 PUSH1 0x62 SHL PUSH1 0x44 DUP3 ADD MSTORE PUSH1 0x64 SWAP1 REVERT JUMPDEST DUP5 MLOAD PUSH3 0x461BCD PUSH1 0xE5 SHL DUP2 MSTORE PUSH1 0x20 DUP2 DUP6 ADD MSTORE PUSH1 0x1C DUP2 DUP5 ADD MSTORE PUSH32 0x5072696365206D7573742062652067726561746572207468616E203000000000 PUSH1 0x44 DUP3 ADD MSTORE PUSH1 0x64 SWAP1 REVERT JUMPDEST DUP8 DUP1 REVERT JUMPDEST SWAP1 POP CALLVALUE PUSH2 0x1FF JUMPI DUP2 PUSH1 0x3 NOT CALLDATASIZE ADD SLT PUSH2 0x1FF JUMPI PUSH32 0x0 PUSH1 0x1 PUSH1 0x1 PUSH1 0xA0 SHL SUB AND DUP2 MSTORE PUSH1 0x20 SWAP1 RETURN JUMPDEST PUSH1 0x1 PUSH1 0x1 PUSH1 0x40 SHL SUB DUP2 GT PUSH2 0x1C37 JUMPI PUSH1 0x40 MSTORE JUMP JUMPDEST PUSH4 0x4E487B71 PUSH1 0xE0 SHL PUSH1 0x0 MSTORE PUSH1 0x41 PUSH1 0x4 MSTORE PUSH1 0x24 PUSH1 0x0 REVERT JUMPDEST SWAP1 PUSH1 0x1F DUP1 NOT SWAP2 ADD AND DUP2 ADD SWAP1 DUP2 LT PUSH1 0x1 PUSH1 0x1 PUSH1 0x40 SHL SUB DUP3 GT OR PUSH2 0x1C37 JUMPI PUSH1 0x40 MSTORE JUMP JUMPDEST PUSH1 0x1 PUSH1 0x1 PUSH1 0x40 SHL SUB DUP2 GT PUSH2 0x1C37 JUMPI PUSH1 0x1F ADD PUSH1 0x1F NOT AND PUSH1 0x20 ADD SWAP1 JUMP JUMPDEST DUP2 PUSH1 0x1F DUP3 ADD SLT ISZERO PUSH2 0x1CD0 JUMPI DUP1 CALLDATALOAD SWAP1 PUSH2 0x1CA0 DUP3 PUSH2 0x1C6E JUMP JUMPDEST SWAP3 PUSH2 0x1CAE PUSH1 0x40 MLOAD SWAP5 DUP6 PUSH2 0x1C4D JUMP JUMPDEST DUP3 DUP5 MSTORE PUSH1 0x20 DUP4 DUP4 ADD ADD GT PUSH2 0x1CD0 JUMPI DUP2 PUSH1 0x0 SWAP3 PUSH1 0x20 DUP1 SWAP4 ADD DUP4 DUP7 ADD CALLDATACOPY DUP4 ADD ADD MSTORE SWAP1 JUMP JUMPDEST PUSH1 0x0 DUP1 REVERT JUMPDEST PUSH1 0x7 SLOAD DUP2 LT ISZERO PUSH2 0x1D0C JUMPI PUSH1 0x7 PUSH1 0x0 MSTORE PUSH32 0xA66CC928B5EDB82AF9BD49922954155AB7B0942694BEA4CE44661D9A8736C688 ADD SWAP1 PUSH1 0x0 SWAP1 JUMP JUMPDEST PUSH4 0x4E487B71 PUSH1 0xE0 SHL PUSH1 0x0 MSTORE PUSH1 0x32 PUSH1 0x4 MSTORE PUSH1 0x24 PUSH1 0x0 REVERT JUMPDEST DUP1 SLOAD DUP3 LT ISZERO PUSH2 0x1D0C JUMPI PUSH1 0x0 MSTORE PUSH1 0x20 PUSH1 0x0 KECCAK256 ADD SWAP1 PUSH1 0x0 SWAP1 JUMP JUMPDEST SWAP1 PUSH1 0x1 DUP3 DUP2 SHR SWAP3 AND DUP1 ISZERO PUSH2 0x1D6A JUMPI JUMPDEST PUSH1 0x20 DUP4 LT EQ PUSH2 0x1D54 JUMPI JUMP JUMPDEST PUSH4 0x4E487B71 PUSH1 0xE0 SHL PUSH1 0x0 MSTORE PUSH1 0x22 PUSH1 0x4 MSTORE PUSH1 0x24 PUSH1 0x0 REVERT JUMPDEST SWAP2 PUSH1 0x7F AND SWAP2 PUSH2 0x1D49 JUMP JUMPDEST SWAP1 PUSH1 0x40 MLOAD SWAP2 DUP3 PUSH1 0x0 DUP3 SLOAD SWAP3 PUSH2 0x1D88 DUP5 PUSH2 0x1D3A JUMP JUMPDEST SWAP1 DUP2 DUP5 MSTORE PUSH1 0x1 SWAP5 DUP6 DUP2 AND SWAP1 DUP2 PUSH1 0x0 EQ PUSH2 0x1DF7 JUMPI POP PUSH1 0x1 EQ PUSH2 0x1DB4 JUMPI JUMPDEST POP POP PUSH2 0x1DB2 SWAP3 POP SUB DUP4 PUSH2 0x1C4D JUMP JUMPDEST JUMP JUMPDEST SWAP1 SWAP4 SWAP2 POP PUSH1 0x0 MSTORE PUSH1 0x20 SWAP1 DUP2 PUSH1 0x0 KECCAK256 SWAP4 PUSH1 0x0 SWAP2 JUMPDEST DUP2 DUP4 LT PUSH2 0x1DDF JUMPI POP POP PUSH2 0x1DB2 SWAP4 POP DUP3 ADD ADD CODESIZE DUP1 PUSH2 0x1DA4 JUMP JUMPDEST DUP6 SLOAD DUP9 DUP5 ADD DUP6 ADD MSTORE SWAP5 DUP6 ADD SWAP5 DUP8 SWAP5 POP SWAP2 DUP4 ADD SWAP2 PUSH2 0x1DC7 JUMP JUMPDEST SWAP2 POP POP PUSH2 0x1DB2 SWAP5 POP PUSH1 0x20 SWAP3 POP PUSH1 0xFF NOT AND DUP3 DUP5 ADD MSTORE ISZERO ISZERO PUSH1 0x5 SHL DUP3 ADD ADD CODESIZE DUP1 PUSH2 0x1DA4 JUMP JUMPDEST PUSH1 0x0 JUMPDEST DUP4 DUP2 LT PUSH2 0x1E2D JUMPI POP POP PUSH1 0x0 SWAP2 ADD MSTORE JUMP JUMPDEST DUP2 DUP2 ADD MLOAD DUP4 DUP3 ADD MSTORE PUSH1 0x20 ADD PUSH2 0x1E1D JUMP JUMPDEST SWAP1 PUSH1 0x20 SWAP2 PUSH2 0x1E56 DUP2 MLOAD DUP1 SWAP3 DUP2 DUP6 MSTORE DUP6 DUP1 DUP7 ADD SWAP2 ADD PUSH2 0x1E1A JUMP JUMPDEST PUSH1 0x1F ADD PUSH1 0x1F NOT AND ADD ADD SWAP1 JUMP JUMPDEST SWAP1 PUSH1 0x2 DUP3 LT ISZERO PUSH2 0x1E6F JUMPI MSTORE JUMP JUMPDEST PUSH4 0x4E487B71 PUSH1 0xE0 SHL PUSH1 0x0 MSTORE PUSH1 0x21 PUSH1 0x4 MSTORE PUSH1 0x24 PUSH1 0x0 REVERT JUMPDEST PUSH1 0x0 SLOAD PUSH1 0x1 PUSH1 0x1 PUSH1 0xA0 SHL SUB AND CALLER SUB PUSH2 0x1E99 JUMPI JUMP JUMPDEST PUSH1 0x40 MLOAD PUSH4 0x118CDAA7 PUSH1 0xE0 SHL DUP2 MSTORE CALLER PUSH1 0x4 DUP3 ADD MSTORE PUSH1 0x24 SWAP1 REVERT JUMPDEST DUP2 PUSH1 0x1F DUP3 ADD SLT ISZERO PUSH2 0x1CD0 JUMPI DUP1 MLOAD PUSH2 0x1EC7 DUP2 PUSH2 0x1C6E JUMP JUMPDEST SWAP3 PUSH2 0x1ED5 PUSH1 0x40 MLOAD SWAP5 DUP6 PUSH2 0x1C4D JUMP JUMPDEST DUP2 DUP5 MSTORE PUSH1 0x20 DUP3 DUP5 ADD ADD GT PUSH2 0x1CD0 JUMPI PUSH2 0x1EF3 SWAP2 PUSH1 0x20 DUP1 DUP6 ADD SWAP2 ADD PUSH2 0x1E1A JUMP JUMPDEST SWAP1 JUMP JUMPDEST MLOAD SWAP1 PUSH1 0x1 PUSH1 0x1 PUSH1 0xA0 SHL SUB DUP3 AND DUP3 SUB PUSH2 0x1CD0 JUMPI JUMP JUMPDEST MLOAD SWAP1 DUP2 ISZERO ISZERO DUP3 SUB PUSH2 0x1CD0 JUMPI JUMP JUMPDEST PUSH2 0x180 DUP2 DUP4 SUB SLT PUSH2 0x1CD0 JUMPI DUP1 MLOAD SWAP3 PUSH1 0x1 PUSH1 0x1 PUSH1 0x40 SHL SUB SWAP4 DUP5 DUP2 GT PUSH2 0x1CD0 JUMPI DUP4 PUSH2 0x1F41 SWAP2 DUP5 ADD PUSH2 0x1EB1 JUMP JUMPDEST SWAP4 PUSH1 0x20 DUP4 ADD MLOAD DUP2 DUP2 GT PUSH2 0x1CD0 JUMPI DUP5 PUSH2 0x1F5A SWAP2 DUP6 ADD PUSH2 0x1EB1 JUMP JUMPDEST SWAP4 PUSH1 0x40 DUP5 ADD MLOAD SWAP2 DUP3 GT PUSH2 0x1CD0 JUMPI PUSH2 0x1F72 SWAP2 DUP5 ADD PUSH2 0x1EB1 JUMP JUMPDEST SWAP2 PUSH1 0x60 DUP2 ADD MLOAD SWAP2 PUSH1 0x80 DUP3 ADD MLOAD SWAP2 PUSH2 0x1F8B PUSH1 0xA0 DUP3 ADD PUSH2 0x1EF6 JUMP JUMPDEST SWAP2 PUSH2 0x1F98 PUSH1 0xC0 DUP4 ADD PUSH2 0x1EF6 JUMP JUMPDEST SWAP2 PUSH1 0xE0 DUP2 ADD MLOAD SWAP2 PUSH2 0x100 DUP3 ADD MLOAD SWAP2 PUSH2 0x120 DUP2 ADD MLOAD SWAP2 PUSH2 0x1EF3 PUSH2 0x160 PUSH2 0x140 DUP5 ADD MLOAD SWAP4 ADD PUSH2 0x1F0A JUMP JUMPDEST ISZERO PUSH2 0x1FC7 JUMPI JUMP JUMPDEST PUSH1 0x40 MLOAD PUSH3 0x461BCD PUSH1 0xE5 SHL DUP2 MSTORE PUSH1 0x20 PUSH1 0x4 DUP3 ADD MSTORE PUSH1 0x1A PUSH1 0x24 DUP3 ADD MSTORE PUSH32 0x4173736574206E6F7420666F756E6420696E206C696272617279000000000000 PUSH1 0x44 DUP3 ADD MSTORE PUSH1 0x64 SWAP1 REVERT JUMPDEST PUSH1 0x2 DUP3 LT ISZERO PUSH2 0x1E6F JUMPI MSTORE JUMP JUMPDEST DUP2 DUP2 LT PUSH2 0x2023 JUMPI POP POP JUMP JUMPDEST PUSH1 0x0 DUP2 SSTORE PUSH1 0x1 ADD PUSH2 0x2018 JUMP JUMPDEST SWAP2 SWAP1 PUSH1 0x1F DUP2 GT PUSH2 0x203E JUMPI POP POP POP JUMP JUMPDEST PUSH2 0x1DB2 SWAP3 PUSH1 0x0 MSTORE PUSH1 0x20 PUSH1 0x0 KECCAK256 SWAP1 PUSH1 0x20 PUSH1 0x1F DUP5 ADD PUSH1 0x5 SHR DUP4 ADD SWAP4 LT PUSH2 0x206A JUMPI JUMPDEST PUSH1 0x1F ADD PUSH1 0x5 SHR ADD SWAP1 PUSH2 0x2018 JUMP JUMPDEST SWAP1 SWAP2 POP DUP2 SWAP1 PUSH2 0x205D JUMP JUMPDEST SWAP2 SWAP1 SWAP2 DUP3 MLOAD PUSH1 0x1 PUSH1 0x1 PUSH1 0x40 SHL SUB DUP2 GT PUSH2 0x1C37 JUMPI PUSH2 0x209B DUP2 PUSH2 0x2095 DUP5 SLOAD PUSH2 0x1D3A JUMP JUMPDEST DUP5 PUSH2 0x202F JUMP JUMPDEST PUSH1 0x20 DUP1 PUSH1 0x1F DUP4 GT PUSH1 0x1 EQ PUSH2 0x20D7 JUMPI POP DUP2 SWAP3 SWAP4 SWAP5 PUSH1 0x0 SWAP3 PUSH2 0x20CC JUMPI JUMPDEST POP POP DUP2 PUSH1 0x1 SHL SWAP2 PUSH1 0x0 NOT SWAP1 PUSH1 0x3 SHL SHR NOT AND OR SWAP1 SSTORE JUMP JUMPDEST ADD MLOAD SWAP1 POP CODESIZE DUP1 PUSH2 0x20B6 JUMP JUMPDEST SWAP1 PUSH1 0x1F NOT DUP4 AND SWAP6 DUP5 PUSH1 0x0 MSTORE DUP3 PUSH1 0x0 KECCAK256 SWAP3 PUSH1 0x0 SWAP1 JUMPDEST DUP9 DUP3 LT PUSH2 0x2123 JUMPI POP POP DUP4 PUSH1 0x1 SWAP6 SWAP7 SWAP8 LT PUSH2 0x210A JUMPI JUMPDEST POP POP POP DUP2 SHL ADD SWAP1 SSTORE JUMP JUMPDEST ADD MLOAD PUSH1 0x0 NOT PUSH1 0xF8 DUP5 PUSH1 0x3 SHL AND SHR NOT AND SWAP1 SSTORE CODESIZE DUP1 DUP1 PUSH2 0x2100 JUMP JUMPDEST DUP1 PUSH1 0x1 DUP6 SWAP7 DUP3 SWAP5 SWAP7 DUP7 ADD MLOAD DUP2 SSTORE ADD SWAP6 ADD SWAP4 ADD SWAP1 PUSH2 0x20EB JUMP JUMPDEST SWAP1 PUSH1 0x2 DUP2 LT ISZERO PUSH2 0x1E6F JUMPI PUSH1 0xFF DUP1 NOT DUP4 SLOAD AND SWAP2 AND OR SWAP1 SSTORE JUMP JUMPDEST PUSH2 0x216B SWAP1 PUSH1 0x20 PUSH1 0x40 MLOAD SWAP3 DUP3 DUP5 DUP1 SWAP5 MLOAD SWAP4 DUP5 SWAP3 ADD PUSH2 0x1E1A JUMP JUMPDEST DUP2 ADD SUB SWAP1 KECCAK256 SWAP1 JUMP JUMPDEST ISZERO PUSH2 0x217A JUMPI JUMP JUMPDEST PUSH1 0x40 MLOAD PUSH3 0x461BCD PUSH1 0xE5 SHL DUP2 MSTORE PUSH1 0x20 PUSH1 0x4 DUP3 ADD MSTORE PUSH1 0x12 PUSH1 0x24 DUP3 ADD MSTORE PUSH18 0x4C697374696E67206E6F7420616374697665 PUSH1 0x70 SHL PUSH1 0x44 DUP3 ADD MSTORE PUSH1 0x64 SWAP1 REVERT JUMPDEST DUP2 DUP2 MUL SWAP3 SWAP2 DUP2 ISZERO SWAP2 DUP5 DIV EQ OR ISZERO PUSH2 0x21C7 JUMPI JUMP JUMPDEST PUSH4 0x4E487B71 PUSH1 0xE0 SHL PUSH1 0x0 MSTORE PUSH1 0x11 PUSH1 0x4 MSTORE PUSH1 0x24 PUSH1 0x0 REVERT JUMPDEST SWAP2 SWAP1 DUP3 SUB SWAP2 DUP3 GT PUSH2 0x21C7 JUMPI JUMP JUMPDEST ISZERO PUSH2 0x21F1 JUMPI JUMP JUMPDEST PUSH1 0x40 MLOAD PUSH3 0x461BCD PUSH1 0xE5 SHL DUP2 MSTORE PUSH1 0x20 PUSH1 0x4 DUP3 ADD MSTORE PUSH1 0x18 PUSH1 0x24 DUP3 ADD MSTORE PUSH32 0x5061796D656E7420746F2073656C6C6572206661696C65640000000000000000 PUSH1 0x44 DUP3 ADD MSTORE PUSH1 0x64 SWAP1 REVERT JUMPDEST RETURNDATASIZE ISZERO PUSH2 0x2261 JUMPI RETURNDATASIZE SWAP1 PUSH2 0x2247 DUP3 PUSH2 0x1C6E JUMP JUMPDEST SWAP2 PUSH2 0x2255 PUSH1 0x40 MLOAD SWAP4 DUP5 PUSH2 0x1C4D JUMP JUMPDEST DUP3 MSTORE RETURNDATASIZE PUSH1 0x0 PUSH1 0x20 DUP5 ADD RETURNDATACOPY JUMP JUMPDEST PUSH1 0x60 SWAP1 JUMP JUMPDEST ISZERO PUSH2 0x226D JUMPI JUMP JUMPDEST PUSH1 0x40 MLOAD PUSH3 0x461BCD PUSH1 0xE5 SHL DUP2 MSTORE PUSH1 0x20 PUSH1 0x4 DUP3 ADD MSTORE PUSH1 0xD PUSH1 0x24 DUP3 ADD MSTORE PUSH13 0x1499599D5B990819985A5B1959 PUSH1 0x9A SHL PUSH1 0x44 DUP3 ADD MSTORE PUSH1 0x64 SWAP1 REVERT JUMPDEST PUSH1 0x2 PUSH1 0x1 SLOAD EQ PUSH2 0x22B3 JUMPI PUSH1 0x2 PUSH1 0x1 SSTORE JUMP JUMPDEST PUSH1 0x40 MLOAD PUSH4 0x3EE5AEB5 PUSH1 0xE0 SHL DUP2 MSTORE PUSH1 0x4 SWAP1 REVERT JUMPDEST PUSH1 0x0 NOT DUP2 EQ PUSH2 0x21C7 JUMPI PUSH1 0x1 ADD SWAP1 JUMP JUMPDEST ISZERO PUSH2 0x22DB JUMPI JUMP JUMPDEST PUSH1 0x40 MLOAD PUSH3 0x461BCD PUSH1 0xE5 SHL DUP2 MSTORE PUSH1 0x20 PUSH1 0x4 DUP3 ADD MSTORE PUSH1 0x10 PUSH1 0x24 DUP3 ADD MSTORE PUSH16 0x4F66666572206E6F7420616374697665 PUSH1 0x80 SHL PUSH1 0x44 DUP3 ADD MSTORE PUSH1 0x64 SWAP1 REVERT JUMPDEST SWAP1 PUSH1 0x0 SWAP3 SWAP2 DUP1 SLOAD SWAP2 PUSH2 0x2324 DUP4 PUSH2 0x1D3A JUMP JUMPDEST SWAP2 DUP3 DUP3 MSTORE PUSH1 0x1 SWAP4 DUP5 DUP2 AND SWAP1 DUP2 PUSH1 0x0 EQ PUSH2 0x2386 JUMPI POP PUSH1 0x1 EQ PUSH2 0x2346 JUMPI JUMPDEST POP POP POP POP JUMP JUMPDEST SWAP1 SWAP2 SWAP4 SWAP5 POP PUSH1 0x0 MSTORE PUSH1 0x20 SWAP3 DUP4 PUSH1 0x0 KECCAK256 SWAP3 DUP5 PUSH1 0x0 SWAP5 JUMPDEST DUP4 DUP7 LT PUSH2 0x2372 JUMPI POP POP POP POP ADD ADD SWAP1 CODESIZE DUP1 DUP1 DUP1 PUSH2 0x2340 JUMP JUMPDEST DUP1 SLOAD DUP6 DUP8 ADD DUP4 ADD MSTORE SWAP5 ADD SWAP4 DUP6 SWAP1 DUP3 ADD PUSH2 0x235B JUMP JUMPDEST SWAP3 SWAP5 POP POP POP PUSH1 0x20 SWAP4 SWAP5 POP PUSH1 0xFF NOT AND DUP4 DUP4 ADD MSTORE ISZERO ISZERO PUSH1 0x5 SHL ADD ADD SWAP1 CODESIZE DUP1 DUP1 DUP1 PUSH2 0x2340 JUMP JUMPDEST PUSH1 0x0 SWAP3 SWAP2 DUP2 SLOAD PUSH2 0x23B8 DUP2 PUSH2 0x1D3A JUMP JUMPDEST SWAP3 PUSH1 0x1 SWAP2 DUP1 DUP4 AND SWAP1 DUP2 ISZERO PUSH2 0x2410 JUMPI POP PUSH1 0x1 EQ PUSH2 0x23D4 JUMPI POP POP POP POP JUMP JUMPDEST SWAP1 SWAP2 SWAP3 SWAP4 SWAP5 POP PUSH1 0x0 MSTORE PUSH1 0x20 SWAP1 DUP2 PUSH1 0x0 KECCAK256 SWAP1 PUSH1 0x0 SWAP2 JUMPDEST DUP6 DUP4 LT PUSH2 0x23FF JUMPI POP POP POP POP ADD SWAP1 CODESIZE DUP1 DUP1 DUP1 PUSH2 0x2340 JUMP JUMPDEST DUP1 SLOAD DUP6 DUP5 ADD MSTORE SWAP2 DUP4 ADD SWAP2 DUP2 ADD PUSH2 0x23E9 JUMP JUMPDEST PUSH1 0xFF NOT AND DUP5 MSTORE POP POP POP DUP2 ISZERO ISZERO SWAP1 SWAP2 MUL ADD SWAP2 POP CODESIZE DUP1 DUP1 DUP1 PUSH2 0x2340 JUMP JUMPDEST ISZERO PUSH2 0x2432 JUMPI JUMP JUMPDEST PUSH1 0x40 MLOAD PUSH3 0x461BCD PUSH1 0xE5 SHL DUP2 MSTORE PUSH1 0x20 PUSH1 0x4 DUP3 ADD MSTORE PUSH1 0x11 PUSH1 0x24 DUP3 ADD MSTORE PUSH17 0x15DA5D1A191C985DD85B0819985A5B1959 PUSH1 0x7A SHL PUSH1 0x44 DUP3 ADD MSTORE PUSH1 0x64 SWAP1 REVERT JUMPDEST SWAP1 DUP1 DUP3 EQ PUSH2 0x2543 JUMPI PUSH2 0x247D DUP2 SLOAD PUSH2 0x1D3A JUMP JUMPDEST SWAP1 PUSH1 0x1 PUSH1 0x1 PUSH1 0x40 SHL SUB DUP3 GT PUSH2 0x1C37 JUMPI DUP2 SWAP1 PUSH2 0x24A2 DUP3 PUSH2 0x249C DUP7 SLOAD PUSH2 0x1D3A JUMP JUMPDEST DUP7 PUSH2 0x202F JUMP JUMPDEST PUSH1 0x0 SWAP1 PUSH1 0x1F DUP4 GT PUSH1 0x1 EQ PUSH2 0x24D8 JUMPI PUSH1 0x0 SWAP3 PUSH2 0x24CD JUMPI POP POP DUP2 PUSH1 0x1 SHL SWAP2 PUSH1 0x0 NOT SWAP1 PUSH1 0x3 SHL SHR NOT AND OR SWAP1 SSTORE JUMP JUMPDEST ADD SLOAD SWAP1 POP CODESIZE DUP1 PUSH2 0x20B6 JUMP JUMPDEST DUP2 MSTORE PUSH1 0x20 DUP1 DUP3 KECCAK256 DUP6 DUP4 MSTORE DUP2 DUP4 KECCAK256 SWAP4 POP SWAP1 PUSH1 0x1F NOT DUP6 AND SWAP1 DUP4 SWAP1 JUMPDEST DUP3 DUP3 LT PUSH2 0x252A JUMPI POP POP SWAP1 DUP5 PUSH1 0x1 SWAP6 SWAP5 SWAP4 SWAP3 LT PUSH2 0x2511 JUMPI POP POP POP DUP2 SHL ADD SWAP1 SSTORE JUMP JUMPDEST ADD SLOAD PUSH1 0x0 NOT PUSH1 0xF8 DUP5 PUSH1 0x3 SHL AND SHR NOT AND SWAP1 SSTORE CODESIZE DUP1 DUP1 PUSH2 0x2100 JUMP JUMPDEST DUP5 SWAP6 DUP2 SWAP3 SWAP6 DUP6 ADD SLOAD DUP2 SSTORE PUSH1 0x1 DUP1 SWAP2 ADD SWAP7 ADD SWAP5 ADD SWAP1 PUSH2 0x24F1 JUMP JUMPDEST POP POP JUMP JUMPDEST PUSH1 0x0 JUMPDEST PUSH1 0x7 DUP1 SLOAD SWAP1 DUP2 DUP4 LT ISZERO PUSH2 0x2340 JUMPI PUSH2 0x2574 SWAP2 PUSH2 0x257B PUSH2 0x2567 DUP6 PUSH2 0x1CD5 JUMP JUMPDEST POP PUSH1 0x40 MLOAD SWAP5 DUP6 DUP1 SWAP3 PUSH2 0x2313 JUMP JUMPDEST SUB DUP5 PUSH2 0x1C4D JUMP JUMPDEST DUP3 MLOAD PUSH1 0x20 DUP1 SWAP5 ADD KECCAK256 DUP6 MLOAD DUP5 DUP8 ADD KECCAK256 EQ PUSH2 0x259F JUMPI POP POP POP PUSH2 0x259A SWAP1 PUSH2 0x22C5 JUMP JUMPDEST PUSH2 0x254A JUMP JUMPDEST SWAP2 SWAP4 POP SWAP2 PUSH1 0x0 NOT SWAP2 DUP3 DUP2 ADD SWAP1 DUP2 GT PUSH2 0x21C7 JUMPI PUSH2 0x25BD PUSH2 0x25C4 SWAP2 PUSH2 0x1CD5 JUMP JUMPDEST POP SWAP2 PUSH2 0x1CD5 JUMP JUMPDEST SWAP2 SWAP1 SWAP2 PUSH2 0x2642 JUMPI PUSH2 0x25D4 SWAP2 PUSH2 0x246B JUMP JUMPDEST DUP2 SLOAD DUP1 ISZERO PUSH2 0x2658 JUMPI ADD SWAP2 PUSH2 0x25E7 DUP4 PUSH2 0x1CD5 JUMP JUMPDEST PUSH2 0x2642 JUMPI PUSH2 0x25F5 DUP2 SLOAD PUSH2 0x1D3A JUMP JUMPDEST DUP1 PUSH2 0x2601 JUMPI JUMPDEST POP POP POP SSTORE JUMP JUMPDEST PUSH1 0x0 SWAP3 PUSH1 0x1F SWAP1 DUP2 DUP4 GT PUSH1 0x1 EQ PUSH2 0x261E JUMPI POP POP POP SSTORE JUMPDEST CODESIZE DUP1 DUP1 PUSH2 0x25FB JUMP JUMPDEST DUP4 SWAP2 PUSH2 0x263B SWAP2 DUP7 SWAP5 SWAP6 DUP6 MSTORE DUP5 KECCAK256 SWAP5 ADD PUSH1 0x5 SHR DUP5 ADD PUSH1 0x1 DUP6 ADD PUSH2 0x2018 JUMP JUMPDEST SSTORE SSTORE PUSH2 0x2616 JUMP JUMPDEST PUSH4 0x4E487B71 PUSH1 0xE0 SHL PUSH1 0x0 MSTORE PUSH1 0x0 PUSH1 0x4 MSTORE PUSH1 0x24 PUSH1 0x0 REVERT JUMPDEST PUSH4 0x4E487B71 PUSH1 0xE0 SHL PUSH1 0x0 MSTORE PUSH1 0x31 PUSH1 0x4 MSTORE PUSH1 0x24 PUSH1 0x0 REVERT JUMPDEST SWAP1 PUSH1 0x40 SWAP2 DUP3 MLOAD DUP1 DUP3 MLOAD PUSH1 0x20 SWAP3 DUP2 PUSH2 0x2689 DUP6 SWAP4 DUP4 DUP6 DUP10 ADD PUSH2 0x1E1A JUMP JUMPDEST DUP2 ADD PUSH1 0x5 DUP2 MSTORE SUB ADD SWAP1 KECCAK256 PUSH1 0x0 JUMPDEST DUP2 SLOAD DUP2 LT ISZERO PUSH2 0x2877 JUMPI PUSH2 0x26A9 DUP2 DUP4 PUSH2 0x1D22 JUMP JUMPDEST SWAP1 SLOAD PUSH1 0x3 SWAP2 DUP3 SHL SHR PUSH1 0x0 MSTORE PUSH1 0x4 SWAP1 DUP2 DUP6 MSTORE DUP8 PUSH1 0x0 KECCAK256 SWAP2 PUSH1 0x6 DUP4 ADD DUP1 SLOAD SWAP1 PUSH1 0xFF SWAP2 DUP3 DUP2 AND PUSH2 0x26E5 JUMPI JUMPDEST POP POP POP POP POP POP PUSH2 0x26E0 SWAP1 PUSH2 0x22C5 JUMP JUMPDEST PUSH2 0x2696 JUMP JUMPDEST PUSH1 0xFF NOT AND SWAP1 SSTORE PUSH1 0x0 SWAP1 DUP4 DUP6 ADD SLOAD AND SWAP2 PUSH1 0x2 SWAP3 DUP4 DUP2 LT ISZERO PUSH2 0x2864 JUMPI DUP9 SWAP2 DUP13 SWAP2 PUSH2 0x2798 JUMPI POP POP POP POP SWAP1 PUSH1 0x0 DUP1 DUP1 DUP1 PUSH2 0x26E0 SWAP8 SWAP7 SWAP6 PUSH1 0x1 DUP1 PUSH1 0xA0 SHL SUB PUSH1 0x1 DUP9 ADD SLOAD AND SWAP1 DUP8 ADD SLOAD SWAP1 GAS CALL PUSH2 0x2733 PUSH2 0x2236 JUMP JUMPDEST POP JUMPDEST PUSH2 0x2743 JUMPI JUMPDEST DUP3 SWAP4 DUP2 DUP1 PUSH2 0x26D1 JUMP JUMPDEST PUSH2 0x274D DUP4 DUP7 PUSH2 0x1D22 JUMP JUMPDEST SWAP1 SLOAD PUSH1 0x1 SWAP1 SWAP4 ADD SLOAD PUSH1 0x1 PUSH1 0x1 PUSH1 0xA0 SHL SUB AND SWAP3 SWAP2 SHL SHR PUSH2 0x276B DUP8 PUSH2 0x2153 JUMP JUMPDEST SWAP1 PUSH32 0xA73002EB00B7F458173AEC22CF4445BBDB98267F801A7FE3D22DBA9382338CDB PUSH1 0x0 DUP1 LOG4 CODESIZE DUP1 PUSH2 0x273A JUMP JUMPDEST PUSH1 0x1 DUP8 ADD SLOAD SWAP5 DUP8 ADD SLOAD SWAP2 MLOAD PUSH4 0xA9059CBB PUSH1 0xE0 SHL DUP2 MSTORE PUSH1 0x1 PUSH1 0x1 PUSH1 0xA0 SHL SUB SWAP6 DUP7 AND SWAP2 DUP2 ADD SWAP2 DUP3 MSTORE PUSH1 0x20 DUP3 ADD SWAP3 SWAP1 SWAP3 MSTORE SWAP3 SWAP4 SWAP1 SWAP3 DUP4 SWAP2 SWAP1 DUP3 SWAP1 DUP7 SWAP1 DUP3 SWAP1 PUSH1 0x40 ADD SUB SWAP3 PUSH32 0x0 AND GAS CALL SWAP2 DUP3 ISZERO PUSH2 0x2859 JUMPI DUP1 SWAP3 PUSH2 0x2818 JUMPI JUMPDEST POP POP SWAP1 PUSH2 0x26E0 SWAP4 SWAP3 SWAP2 PUSH2 0x2735 JUMP JUMPDEST SWAP1 SWAP2 POP DUP7 DUP3 DUP2 RETURNDATASIZE DUP4 GT PUSH2 0x2852 JUMPI JUMPDEST PUSH2 0x2830 DUP2 DUP4 PUSH2 0x1C4D JUMP JUMPDEST DUP2 ADD SUB SLT PUSH2 0x203 JUMPI POP SWAP1 PUSH2 0x2848 PUSH2 0x26E0 SWAP5 SWAP4 SWAP3 PUSH2 0x1F0A JUMP JUMPDEST SWAP1 SWAP2 SWAP3 SWAP4 CODESIZE PUSH2 0x280A JUMP JUMPDEST POP RETURNDATASIZE PUSH2 0x2826 JUMP JUMPDEST DUP11 MLOAD SWAP1 RETURNDATASIZE SWAP1 DUP3 RETURNDATACOPY RETURNDATASIZE SWAP1 REVERT JUMPDEST PUSH4 0x4E487B71 PUSH1 0xE0 SHL DUP4 MSTORE PUSH1 0x21 DUP3 MSTORE PUSH1 0x24 DUP4 REVERT JUMPDEST POP POP POP POP SWAP1 POP JUMP INVALID LOG2 PUSH5 0x6970667358 0x22 SLT KECCAK256 DUP15 DUP4 PUSH20 0x3AD30491F6DC52364D21256F1B397FF45FD34152 0xE DUP13 PUSH8 0xE5B3BADCBEB76473 PUSH16 0x6C634300081400330000000000000000 "},"methodIdentifiers":{"FEE_DENOMINATOR()":"d73792a9","USDC_ADDRESS()":"bb09d9b7","acceptOffer(uint256)":"c815729d","activeListings(uint256)":"61cf4863","buyAsset(string)":"c7ef9672","cancelListing(string)":"943f2261","cancelOffer(uint256)":"ef706adf","getActiveListingsCount()":"7b55927c","getProjectOffers(string)":"f941fb99","libraryContract()":"ce0769c5","listAsset(string,uint256,uint8)":"13b06915","listings(string)":"77dec6c3","makeOffer(string,uint256,uint8,uint256)":"a2235558","nextOfferId()":"5f5d0655","offers(uint256)":"8a72ea6a","owner()":"8da5cb5b","platformFeePercentage()":"cdd78cfc","projectOffers(string,uint256)":"a3a67058","renounceOwnership()":"715018a6","transferOwnership(address)":"f2fde38b","updatePlatformFee(uint256)":"aa0b5988","usdcToken()":"11eac855","withdrawPlatformFees()":"d0b7830b","withdrawPlatformFeesUSDC()":"dceb7686"}}}}}