{"ClayLibrary.sol":{"ClayLibrary":{"abi":[{"inputs":[],"stateMutability":"nonpayable","type":"constructor"},{"inputs":[{"internalType":"address","name":"owner","type":"address"}],"name":"OwnableInvalidOwner","type":"error"},{"inputs":[{"internalType":"address","name":"account","type":"address"}],"name":"OwnableUnauthorizedAccount","type":"error"},{"inputs":[],"name":"ReentrancyGuardReentrantCall","type":"error"},{"anonymous":false,"inputs":[{"indexed":true,"internalType":"string","name":"projectId","type":"string"},{"indexed":true,"internalType":"address","name":"owner","type":"address"}],"name":"AssetDeactivated","type":"event"},{"anonymous":false,"inputs":[{"indexed":true,"internalType":"string","name":"projectId","type":"string"},{"indexed":false,"internalType":"uint256","name":"oldPrice","type":"uint256"},{"indexed":false,"internalType":"uint256","name":"newPrice","type":"uint256"}],"name":"AssetPriceUpdated","type":"event"},{"anonymous":false,"inputs":[{"indexed":true,"internalType":"string","name":"projectId","type":"string"},{"indexed":true,"internalType":"address","name":"buyer","type":"address"},{"indexed":true,"internalType":"address","name":"currentOwner","type":"address"},{"indexed":false,"internalType":"uint256","name":"price","type":"uint256"},{"indexed":false,"internalType":"uint256","name":"platformFee","type":"uint256"}],"name":"AssetPurchased","type":"event"},{"anonymous":false,"inputs":[{"indexed":true,"internalType":"string","name":"projectId","type":"string"},{"indexed":true,"internalType":"address","name":"creator","type":"address"},{"indexed":false,"internalType":"string","name":"name","type":"string"},{"indexed":false,"internalType":"uint256","name":"price","type":"uint256"}],"name":"AssetRegistered","type":"event"},{"anonymous":false,"inputs":[{"indexed":true,"internalType":"address","name":"previousOwner","type":"address"},{"indexed":true,"internalType":"address","name":"newOwner","type":"address"}],"name":"OwnershipTransferred","type":"event"},{"anonymous":false,"inputs":[{"indexed":true,"internalType":"string","name":"projectId","type":"string"},{"indexed":true,"internalType":"address","name":"previousOwner","type":"address"},{"indexed":true,"internalType":"address","name":"newOwner","type":"address"}],"name":"OwnershipTransferred","type":"event"},{"inputs":[],"name":"FEE_DENOMINATOR","outputs":[{"internalType":"uint256","name":"","type":"uint256"}],"stateMutability":"view","type":"function"},{"inputs":[],"name":"USDC_ADDRESS","outputs":[{"internalType":"address","name":"","type":"address"}],"stateMutability":"view","type":"function"},{"inputs":[{"internalType":"uint256","name":"","type":"uint256"}],"name":"allAssetIds","outputs":[{"internalType":"string","name":"","type":"string"}],"stateMutability":"view","type":"function"},{"inputs":[{"internalType":"string","name":"","type":"string"},{"internalType":"uint256","name":"","type":"uint256"}],"name":"assetPurchasers","outputs":[{"internalType":"address","name":"","type":"address"}],"stateMutability":"view","type":"function"},{"inputs":[{"internalType":"string","name":"projectId","type":"string"}],"name":"deactivateAsset","outputs":[],"stateMutability":"nonpayable","type":"function"},{"inputs":[{"internalType":"string","name":"projectId","type":"string"}],"name":"getAsset","outputs":[{"components":[{"internalType":"string","name":"projectId","type":"string"},{"internalType":"string","name":"name","type":"string"},{"internalType":"string","name":"description","type":"string"},{"internalType":"uint256","name":"priceETH","type":"uint256"},{"internalType":"uint256","name":"priceUSDC","type":"uint256"},{"internalType":"address","name":"currentOwner","type":"address"},{"internalType":"address","name":"originalCreator","type":"address"},{"internalType":"uint256","name":"totalRevenueETH","type":"uint256"},{"internalType":"uint256","name":"totalRevenueUSDC","type":"uint256"},{"internalType":"uint256","name":"purchaseCount","type":"uint256"},{"internalType":"uint256","name":"listedAt","type":"uint256"},{"internalType":"bool","name":"isActive","type":"bool"}],"internalType":"struct ClayLibrary.LibraryAsset","name":"","type":"tuple"}],"stateMutability":"view","type":"function"},{"inputs":[{"internalType":"uint256","name":"index","type":"uint256"}],"name":"getAssetIdByIndex","outputs":[{"internalType":"string","name":"","type":"string"}],"stateMutability":"view","type":"function"},{"inputs":[{"internalType":"string","name":"projectId","type":"string"}],"name":"getAssetPurchasers","outputs":[{"internalType":"address[]","name":"","type":"address[]"}],"stateMutability":"view","type":"function"},{"inputs":[],"name":"getTotalAssets","outputs":[{"internalType":"uint256","name":"","type":"uint256"}],"stateMutability":"view","type":"function"},{"inputs":[{"internalType":"address","name":"user","type":"address"}],"name":"getUserAssets","outputs":[{"internalType":"string[]","name":"","type":"string[]"}],"stateMutability":"view","type":"function"},{"inputs":[{"internalType":"string","name":"","type":"string"}],"name":"libraryAssets","outputs":[{"internalType":"string","name":"projectId","type":"string"},{"internalType":"string","name":"name","type":"string"},{"internalType":"string","name":"description","type":"string"},{"internalType":"uint256","name":"priceETH","type":"uint256"},{"internalType":"uint256","name":"priceUSDC","type":"uint256"},{"internalType":"address","name":"currentOwner","type":"address"},{"internalType":"address","name":"originalCreator","type":"address"},{"internalType":"uint256","name":"totalRevenueETH","type":"uint256"},{"internalType":"uint256","name":"totalRevenueUSDC","type":"uint256"},{"internalType":"uint256","name":"purchaseCount","type":"uint256"},{"internalType":"uint256","name":"listedAt","type":"uint256"},{"internalType":"bool","name":"isActive","type":"bool"}],"stateMutability":"view","type":"function"},{"inputs":[],"name":"owner","outputs":[{"internalType":"address","name":"","type":"address"}],"stateMutability":"view","type":"function"},{"inputs":[],"name":"platformFeePercentage","outputs":[{"internalType":"uint256","name":"","type":"uint256"}],"stateMutability":"view","type":"function"},{"inputs":[{"internalType":"string","name":"projectId","type":"string"}],"name":"purchaseAssetWithETH","outputs":[],"stateMutability":"payable","type":"function"},{"inputs":[{"internalType":"string","name":"projectId","type":"string"}],"name":"purchaseAssetWithUSDC","outputs":[],"stateMutability":"nonpayable","type":"function"},{"inputs":[{"internalType":"string","name":"projectId","type":"string"},{"internalType":"string","name":"name","type":"string"},{"internalType":"string","name":"description","type":"string"},{"internalType":"uint256","name":"priceETH","type":"uint256"},{"internalType":"uint256","name":"priceUSDC","type":"uint256"}],"name":"registerAsset","outputs":[],"stateMutability":"nonpayable","type":"function"},{"inputs":[],"name":"renounceOwnership","outputs":[],"stateMutability":"nonpayable","type":"function"},{"inputs":[{"internalType":"string","name":"projectId","type":"string"},{"internalType":"address","name":"newOwner","type":"address"}],"name":"transferAssetOwnership","outputs":[],"stateMutability":"nonpayable","type":"function"},{"inputs":[{"internalType":"address","name":"newOwner","type":"address"}],"name":"transferOwnership","outputs":[],"stateMutability":"nonpayable","type":"function"},{"inputs":[{"internalType":"string","name":"projectId","type":"string"},{"internalType":"uint256","name":"newPriceETH","type":"uint256"},{"internalType":"uint256","name":"newPriceUSDC","type":"uint256"}],"name":"updateAssetPrice","outputs":[],"stateMutability":"nonpayable","type":"function"},{"inputs":[{"internalType":"uint256","name":"newFeePercentage","type":"uint256"}],"name":"updatePlatformFee","outputs":[],"stateMutability":"nonpayable","type":"function"},{"inputs":[],"name":"usdcToken","outputs":[{"internalType":"contract IERC20","name":"","type":"address"}],"stateMutability":"view","type":"function"},{"inputs":[{"internalType":"address","name":"","type":"address"},{"internalType":"uint256","name":"","type":"uint256"}],"name":"userOwnedAssets","outputs":[{"internalType":"string","name":"","type":"string"}],"stateMutability":"view","type":"function"},{"inputs":[],"name":"withdrawPlatformFeesETH","outputs":[],"stateMutability":"nonpayable","type":"function"},{"inputs":[],"name":"withdrawPlatformFeesUSDC","outputs":[],"stateMutability":"nonpayable","type":"function"}],"evm":{"bytecode":{"linkReferences":{},"object":"60a080604052346100b257331561009c5760008054336001600160a01b03198216811783556040519290916001600160a01b0316907f8be0079c531659141344cd1fd0a4f28419497f9722a3daafe3b4186f6b6457e09080a36001805560fa60065573036cbd53842c5426634e7929541ec2318f3dcf7e6080526120cb90816100b882396080518181816105320152818161085f01526118890152f35b631e4fbdf760e01b815260006004820152602490fd5b600080fdfe6080604052600436101561001257600080fd5b60003560e01c80630f393baf146118b857806311eac855146118735780632203f8f1146114f857806351618eff146113cb5780635d483ab91461137e5780636cb3db25146112685780636e07302b1461124a578063715018a6146111f1578063765ff061146111005780638ada33dc14610ef95780638bccf00914610e755780638c5deff814610e075780638da5cb5b14610dde5780639c52183814610d525780639ff95b8e14610c69578063aa0b598814610c01578063bb09d9b714610bd2578063cd5286d0146109b1578063cdd78cfc14610993578063d73792a914610976578063dceb768614610826578063e814d66b146107db578063f2fde38b14610752578063fb055846146104675763ff6c0dde1461012f57600080fd5b346104625760a0366003190112610462576001600160401b0360043581811161046257610160903690600401611a35565b9060243581811161046257610179903690600401611a35565b9060443590811161046257610192903690600401611a35565b916064359260843582511561041d578415801590610414575b6101b490611c5c565b60ff600b60405160208187516101cd8183858c01611be8565b810160028152030190200154166103cf57604051916101eb836119dd565b838352846020840152604083015284606083015260808201523360a08201523360c0820152600060e082015260006101008201526000610120820152426101408201526001610160820152610160600b60405160208186516102508183858b01611be8565b81016002815203019020610265845182611d04565b610276602085015160018301611d04565b610287604085015160028301611d04565b60608401516003820155608084015160048201556005810160018060a01b03908160a087015116906001600160601b0360a01b9182825416179055600683019160c0870151169082541617905560e0840151600782015561010084015160088201556101208401516009820155610140840151600a82015501910151151560ff80198354169116179055336000526004602052610328816040600020611dcb565b600554600160401b8110156103b9578060016103479201600555611a92565b6103a3578161037a7f585d38ebcb0fe93ced4d64fbb112388b85b7726e7d87c5142521434d4f1223849361037f93611d04565b611df8565b9161039560405191604083526040830190611c0b565b9360208201528033940390a3005b634e487b7160e01b600052600060045260246000fd5b634e487b7160e01b600052604160045260246000fd5b60405162461bcd60e51b815260206004820152601860248201527f417373657420616c7265616479207265676973746572656400000000000000006044820152606490fd5b508015156101ab565b60405162461bcd60e51b815260206004820152601a60248201527f50726f6a6563742049442063616e6e6f7420626520656d7074790000000000006044820152606490fd5b600080fd5b3461046257602080600319360112610462576004356001600160401b03811161046257610498903690600401611a35565b6104a0611f3e565b604051918151928181818501956104b8818389611be8565b810160028152030190206104d260ff600b83015416611e18565b600481019384549182156106fc576104fa6127106104f260065486611e5a565b048094611e6d565b6005820180546040516323b872dd60e01b8082523360048301526001600160a01b0392831660248301526044820194909452909391927f00000000000000000000000000000000000000000000000000000000000000008516919088826064816000875af19182156106d357899261057a916000916106df575b50611eaa565b6040519081523360048201523060248201526044810188905291829060649082906000905af19081156106d3576000916106a6575b50156106615760099088546105c960088301918254611ef6565b9055018054906001820180921161064b576106159461060b926105f792556040519182918a51928391611be8565b810190600382528781339303019020611f03565b5416945493611df8565b916040519384528301527f9f1cf37e6808c30667b45ef497cdbe9240ff2b62734e74189ac2c7f4a76d487d60403393a460018055005b634e487b7160e01b600052601160045260246000fd5b60405162461bcd60e51b815260048101879052601c60248201527f506c6174666f726d20666565207472616e73666572206661696c6564000000006044820152606490fd5b6106c69150873d89116106cc575b6106be81836119f9565b810190611f61565b896105af565b503d6106b4565b6040513d6000823e3d90fd5b6106f69150843d86116106cc576106be81836119f9565b8d610574565b60405162461bcd60e51b815260048101859052602860248201527f55534443207061796d656e74206e6f7420616363657074656420666f722074686044820152671a5cc8185cdcd95d60c21b6064820152608490fd5b346104625760203660031901126104625761076b611a7c565b610773611c30565b6001600160a01b039081169081156107c257600054826001600160601b0360a01b821617600055167f8be0079c531659141344cd1fd0a4f28419497f9722a3daafe3b4186f6b6457e0600080a3005b604051631e4fbdf760e01b815260006004820152602490fd5b34610462576020366003190112610462576004356005548110156104625761080e61080861082292611a92565b90611bd7565b604051918291602083526020830190611c0b565b0390f35b346104625760003660031901126104625761083f611c30565b6040516370a0823160e01b81523060048201526020906001600160a01b037f0000000000000000000000000000000000000000000000000000000000000000811691908382602481865afa9182156106d357600092610947575b508115610902579060448492600054166000604051958694859363a9059cbb60e01b8552600485015260248401525af19081156106d3576108e3926000926108e5575b5050611f79565b005b6108fb9250803d106106cc576106be81836119f9565b82806108dc565b60405162461bcd60e51b815260048101859052601860248201527f4e6f2055534443206665657320746f20776974686472617700000000000000006044820152606490fd5b9091508381813d831161096f575b61095f81836119f9565b8101031261046257519084610899565b503d610955565b346104625760003660031901126104625760206040516127108152f35b34610462576000366003190112610462576020600654604051908152f35b34610462576020366003190112610462576004356001600160401b0381116104625760206109e6610a50923690600401611a35565b60006101606040516109f7816119dd565b60608152606085820152606060408201528260608201528260808201528260a08201528260c08201528260e082015282610100820152826101208201528261014082015201528160405193828580945193849201611be8565b8101600281520301902060ff600b60405192610a6b846119dd565b610a7481611b31565b8452610a8260018201611b31565b6020850152610a9360028201611b31565b6040850152600381015460608501526004810154608085015260018060a01b0360058201541660a085015260018060a01b0360068201541660c0850152600781015460e085015260088101546101008501526009810154610120850152600a8101546101408501520154161515610160820152604051809160208252610160610b5e610b2d835161018060208701526101a0860190611c0b565b610b49602085015191601f199283888303016040890152611c0b565b90604085015190868303016060870152611c0b565b9160608101516080850152608081015160a085015260018060a01b0360a08201511660c085015260018060a01b0360c08201511660e085015260e081015161010085015261010081015161012085015261012081015161014085015261014081015182850152015115156101808301520390f35b3461046257600036600319011261046257602060405173036cbd53842c5426634e7929541ec2318f3dcf7e8152f35b3461046257602036600319011261046257600435610c1d611c30565b6103e88111610c2b57600655005b60405162461bcd60e51b815260206004820152601660248201527546656520746f6f206869676820286d6178203130252960501b6044820152606490fd5b3461046257602080600319360112610462576004356001600160401b0381116104625781610c9e610cb1923690600401611a35565b8160405193828580945193849201611be8565b8101600381520301902060405190818382549182815201908192600052846000209060005b86828210610d35578686610cec828803836119f9565b604051928392818401908285525180915260408401929160005b828110610d1557505050500390f35b83516001600160a01b031685528695509381019392810192600101610d06565b83546001600160a01b031685529093019260019283019201610cd6565b3461046257600036600319011261046257610d6b611c30565b478015610d9957600080546108e3928291829182916001600160a01b03165af1610d93611e7a565b50611f79565b60405162461bcd60e51b815260206004820152601760248201527f4e6f20455448206665657320746f2077697468647261770000000000000000006044820152606490fd5b34610462576000366003190112610462576000546040516001600160a01b039091168152602090f35b3461046257602036600319011261046257600435600554811015610e3a5761080e610e3461082292611a92565b50611b31565b60405162461bcd60e51b8152602060048201526013602482015272496e646578206f7574206f6620626f756e647360681b6044820152606490fd5b34610462576040366003190112610462576004356001600160401b03811161046257610ea5903690600401611a35565b610ec16020602435928160405193828580945193849201611be8565b81016003815203019020805482101561046257602091610ee091611adf565b905460405160039290921b1c6001600160a01b03168152f35b602080600319360112610462576004356001600160401b03811161046257610f25903690600401611a35565b610f2d611f3e565b60405191815192818181850195610f45818389611be8565b81016002815203019020610f5f60ff600b83015416611e18565b600381019384549182156110ab5782341061106f57610f866127106104f260065486611e5a565b9160096005830192610fac600080808060018060a01b03998a8a54165af1610574611e7a565b8854610fbd60078301918254611ef6565b9055018054906001820180921161064b57556040518651610ffa9287918391610fe99082908490611be8565b810160038152030190203390611f03565b8554803411611014575b5090610615915416945493611df8565b60008080611023819434611e6d565b335af161102e611e7a565b501561103a5786611004565b60405162461bcd60e51b815260048101859052600d60248201526c1499599d5b990819985a5b1959609a1b6044820152606490fd5b60405162461bcd60e51b8152600481018590526014602482015273125b9cdd59999a58da595b9d081c185e5b595b9d60621b6044820152606490fd5b60405162461bcd60e51b815260048101859052602760248201527f455448207061796d656e74206e6f7420616363657074656420666f72207468696044820152661cc8185cdcd95d60ca1b6064820152608490fd5b3461046257602080600319360112610462576001600160a01b03611122611a7c565b166000526004815260406000208054906001600160401b0382116103b957829060405192611155838260051b01856119f9565b8084528284018092600052836000206000915b8383106111cf5750505050604051918083019381845251809452604083019360408160051b85010192916000955b8287106111a35785850386f35b9091929382806111bf600193603f198a82030186528851611c0b565b9601920196019592919092611196565b60018681926111e0859a999a611b31565b815201920192019190959495611168565b346104625760003660031901126104625761120a611c30565b600080546001600160a01b0319811682556001600160a01b03167f8be0079c531659141344cd1fd0a4f28419497f9722a3daafe3b4186f6b6457e08280a3005b34610462576000366003190112610462576020600554604051908152f35b34610462576020366003190112610462576004356001600160401b038111610462576020610c9e61129d923690600401611a35565b8101600281520301902061132a6112b382611b31565b916112c060018201611b31565b926112cd60028301611b31565b91600381015492600482015460018060a01b03806005850154169060068501541660078501549160088601549361134660098801549661133860ff600b600a8c01549b0154169a6040519e8f9e8f92610180808552840190611c0b565b916020818403910152611c0b565b8c810360408e015290611c0b565b9860608b015260808a015260a089015260c088015260e087015261010086015261012085015261014084015215156101608301520390f35b3461046257604036600319011261046257611397611a7c565b6001600160a01b031660009081526004602052604090208054602435908110156104625761080861080e9161082293611adf565b34610462576020366003190112610462576004356001600160401b038111610462576113fb903690600401611a35565b60405160208183516114108183858801611be8565b81016002815203019020600b81019081549060ff8216156114ba57600501546001600160a01b031633036114755760ff1916905561144e3391611df8565b7fbf7659f4659900a03fed4ad2fc77c3602180b8afcf682077f6e38e88d0cf58f4600080a3005b60405162461bcd60e51b815260206004820152601960248201527f4f6e6c79206f776e65722063616e2064656163746976617465000000000000006044820152606490fd5b60405162461bcd60e51b8152602060048201526016602482015275417373657420616c726561647920696e61637469766560501b6044820152606490fd5b34610462576040366003190112610462576004356001600160401b03811161046257611528903690600401611a35565b6024906001600160a01b0390823582811681036104625760405160208184516115548183858901611be8565b810160028152030190209261156f60ff600b86015416611e18565b806005850154169182330361182f57818116156117f75782600052600460205260406000209460005b8654808210156117e5576115ac8289611adf565b50604051908160008254926115c084611af7565b80845293600181169081156117c35750600114611781575b506115e5925003826119f9565b60208151910120875160208901201461161f5750600019811461160a57600101611598565b87634e487b7160e01b60005260116004526000fd5b90600097929394959697199182810190811161176c5761164261164a9185611adf565b509184611adf565b9190916117575761165a91611fb9565b8154801561174257019061166e8282611adf565b61172d576116c7969798506116838154611af7565b90816116ee575b5050555b60058383166001600160601b0360a01b82840154161791015581811660005260046020526116c0856040600020611dcb565b1692611df8565b7f6840904f5b31827f74e1497360da245f56e530c8c3de3163a2d31f11493273c6600080a4005b600091601f808211600114611708575050555b888061168a565b9161172684929382845260208420940160051c840160018501611ca8565b5555611701565b88634e487b7160e01b60005260006004526000fd5b88634e487b7160e01b60005260316004526000fd5b89634e487b7160e01b60005260006004526000fd5b89634e487b7160e01b60005260116004526000fd5b9150506000526020600020906000915b8183106117aa5750508160206115e5928201018d6115d8565b8054602084860181019190915290920191600101611791565b9050602092506115e594915060ff191682840152151560051b8201018d6115d8565b505090919294506116c793955061168e565b60405162461bcd60e51b8152602060048201526011818801527024b73b30b634b2103732bb9037bbb732b960791b6044820152606490fd5b60405162461bcd60e51b815260206004820152601f818801527f4f6e6c792063757272656e74206f776e65722063616e207472616e73666572006044820152606490fd5b34610462576000366003190112610462576040517f00000000000000000000000000000000000000000000000000000000000000006001600160a01b03168152602090f35b34610462576060366003190112610462576004356001600160401b038111610462576118e8903690600401611a35565b602435906044359060405160208183516119058183858801611be8565b8101600281520301902061191f60ff600b83015416611e18565b60058101546001600160a01b03163303611998576119816040927f6f614e54fafe71f7c0a065e36894602ca7ed071e7be8df9bade0418e775fac5694861580159061198f575b61196e90611c5c565b6004600385019488865496550155611df8565b9382519182526020820152a2005b50801515611965565b60405162461bcd60e51b815260206004820152601b60248201527f4f6e6c79206f776e65722063616e2075706461746520707269636500000000006044820152606490fd5b61018081019081106001600160401b038211176103b957604052565b90601f801991011681019081106001600160401b038211176103b957604052565b6001600160401b0381116103b957601f01601f191660200190565b81601f8201121561046257803590611a4c82611a1a565b92611a5a60405194856119f9565b8284526020838301011161046257816000926020809301838601378301015290565b600435906001600160a01b038216820361046257565b600554811015611ac95760056000527f036b6384b5eca791c62761152d0c79bb0604c104a5fb6f4eb0703f3154bb3db00190600090565b634e487b7160e01b600052603260045260246000fd5b8054821015611ac95760005260206000200190600090565b90600182811c92168015611b27575b6020831014611b1157565b634e487b7160e01b600052602260045260246000fd5b91607f1691611b06565b9060405191826000825492611b4584611af7565b908184526001948581169081600014611bb45750600114611b71575b5050611b6f925003836119f9565b565b9093915060005260209081600020936000915b818310611b9c575050611b6f93508201013880611b61565b85548884018501529485019487945091830191611b84565b915050611b6f94506020925060ff191682840152151560051b8201013880611b61565b906103a357611be590611b31565b90565b60005b838110611bfb5750506000910152565b8181015183820152602001611beb565b90602091611c2481518092818552858086019101611be8565b601f01601f1916010190565b6000546001600160a01b03163303611c4457565b60405163118cdaa760e01b8152336004820152602490fd5b15611c6357565b60405162461bcd60e51b815260206004820152601e60248201527f4174206c65617374206f6e65207072696365206d7573742062652073657400006044820152606490fd5b818110611cb3575050565b60008155600101611ca8565b9190601f8111611cce57505050565b611b6f926000526020600020906020601f840160051c83019310611cfa575b601f0160051c0190611ca8565b9091508190611ced565b91909182516001600160401b0381116103b957611d2b81611d258454611af7565b84611cbf565b602080601f8311600114611d67575081929394600092611d5c575b50508160011b916000199060031b1c1916179055565b015190503880611d46565b90601f198316958460005282600020926000905b888210611db357505083600195969710611d9a575b505050811b019055565b015160001960f88460031b161c19169055388080611d90565b80600185968294968601518155019501930190611d7b565b8054600160401b8110156103b957611de891600182018155611adf565b9190916103a357611b6f91611d04565b611e1090602060405192828480945193849201611be8565b810103902090565b15611e1f57565b60405162461bcd60e51b81526020600482015260136024820152724173736574206e6f7420617661696c61626c6560681b6044820152606490fd5b8181029291811591840414171561064b57565b9190820391821161064b57565b3d15611ea5573d90611e8b82611a1a565b91611e9960405193846119f9565b82523d6000602084013e565b606090565b15611eb157565b60405162461bcd60e51b815260206004820152601760248201527f5061796d656e7420746f206f776e6572206661696c65640000000000000000006044820152606490fd5b9190820180921161064b57565b8054600160401b8110156103b957611f2091600182018155611adf565b819291549060031b9160018060a01b03809116831b921b1916179055565b600260015414611f4f576002600155565b604051633ee5aeb560e01b8152600490fd5b90816020910312610462575180151581036104625790565b15611f8057565b60405162461bcd60e51b815260206004820152601160248201527015da5d1a191c985dd85b0819985a5b1959607a1b6044820152606490fd5b9080821461209157611fcb8154611af7565b906001600160401b0382116103b9578190611ff082611fea8654611af7565b86611cbf565b600090601f83116001146120265760009261201b5750508160011b916000199060031b1c1916179055565b015490503880611d46565b81526020808220858352818320935090601f1985169083905b82821061207857505090846001959493921061205f57505050811b019055565b015460001960f88460031b161c19169055388080611d90565b849581929585015481556001809101960194019061203f565b505056fea2646970667358221220ab2e80b703bcfcb9e1914956523b43366263d1af7af405da1f260e323c31935b64736f6c63430008140033","opcodes":"PUSH1 0xA0 DUP1 PUSH1 0x40 MSTORE CALLVALUE PUSH2 0xB2 JUMPI CALLER ISZERO PUSH2 0x9C JUMPI PUSH1 0x0 DUP1 SLOAD CALLER PUSH1 0x1 PUSH1 0x1 PUSH1 0xA0 SHL SUB NOT DUP3 AND DUP2 OR DUP4 SSTORE PUSH1 0x40 MLOAD SWAP3 SWAP1 SWAP2 PUSH1 0x1 PUSH1 0x1 PUSH1 0xA0 SHL SUB AND SWAP1 PUSH32 0x8BE0079C531659141344CD1FD0A4F28419497F9722A3DAAFE3B4186F6B6457E0 SWAP1 DUP1 LOG3 PUSH1 0x1 DUP1 SSTORE PUSH1 0xFA PUSH1 0x6 SSTORE PUSH20 0x36CBD53842C5426634E7929541EC2318F3DCF7E PUSH1 0x80 MSTORE PUSH2 0x20CB SWAP1 DUP2 PUSH2 0xB8 DUP3 CODECOPY PUSH1 0x80 MLOAD DUP2 DUP2 DUP2 PUSH2 0x532 ADD MSTORE DUP2 DUP2 PUSH2 0x85F ADD MSTORE PUSH2 0x1889 ADD MSTORE RETURN JUMPDEST PUSH4 0x1E4FBDF7 PUSH1 0xE0 SHL DUP2 MSTORE PUSH1 0x0 PUSH1 0x4 DUP3 ADD MSTORE PUSH1 0x24 SWAP1 REVERT JUMPDEST PUSH1 0x0 DUP1 REVERT INVALID PUSH1 0x80 PUSH1 0x40 MSTORE PUSH1 0x4 CALLDATASIZE LT ISZERO PUSH2 0x12 JUMPI PUSH1 0x0 DUP1 REVERT JUMPDEST PUSH1 0x0 CALLDATALOAD PUSH1 0xE0 SHR DUP1 PUSH4 0xF393BAF EQ PUSH2 0x18B8 JUMPI DUP1 PUSH4 0x11EAC855 EQ PUSH2 0x1873 JUMPI DUP1 PUSH4 0x2203F8F1 EQ PUSH2 0x14F8 JUMPI DUP1 PUSH4 0x51618EFF EQ PUSH2 0x13CB JUMPI DUP1 PUSH4 0x5D483AB9 EQ PUSH2 0x137E JUMPI DUP1 PUSH4 0x6CB3DB25 EQ PUSH2 0x1268 JUMPI DUP1 PUSH4 0x6E07302B EQ PUSH2 0x124A JUMPI DUP1 PUSH4 0x715018A6 EQ PUSH2 0x11F1 JUMPI DUP1 PUSH4 0x765FF061 EQ PUSH2 0x1100 JUMPI DUP1 PUSH4 0x8ADA33DC EQ PUSH2 0xEF9 JUMPI DUP1 PUSH4 0x8BCCF009 EQ PUSH2 0xE75 JUMPI DUP1 PUSH4 0x8C5DEFF8 EQ PUSH2 0xE07 JUMPI DUP1 PUSH4 0x8DA5CB5B EQ PUSH2 0xDDE JUMPI DUP1 PUSH4 0x9C521838 EQ PUSH2 0xD52 JUMPI DUP1 PUSH4 0x9FF95B8E EQ PUSH2 0xC69 JUMPI DUP1 PUSH4 0xAA0B5988 EQ PUSH2 0xC01 JUMPI DUP1 PUSH4 0xBB09D9B7 EQ PUSH2 0xBD2 JUMPI DUP1 PUSH4 0xCD5286D0 EQ PUSH2 0x9B1 JUMPI DUP1 PUSH4 0xCDD78CFC EQ PUSH2 0x993 JUMPI DUP1 PUSH4 0xD73792A9 EQ PUSH2 0x976 JUMPI DUP1 PUSH4 0xDCEB7686 EQ PUSH2 0x826 JUMPI DUP1 PUSH4 0xE814D66B EQ PUSH2 0x7DB JUMPI DUP1 PUSH4 0xF2FDE38B EQ PUSH2 0x752 JUMPI DUP1 PUSH4 0xFB055846 EQ PUSH2 0x467 JUMPI PUSH4 0xFF6C0DDE EQ PUSH2 0x12F JUMPI PUSH1 0x0 DUP1 REVERT JUMPDEST CALLVALUE PUSH2 0x462 JUMPI PUSH1 0xA0 CALLDATASIZE PUSH1 0x3 NOT ADD SLT PUSH2 0x462 JUMPI PUSH1 0x1 PUSH1 0x1 PUSH1 0x40 SHL SUB PUSH1 0x4 CALLDATALOAD DUP2 DUP2 GT PUSH2 0x462 JUMPI PUSH2 0x160 SWAP1 CALLDATASIZE SWAP1 PUSH1 0x4 ADD PUSH2 0x1A35 JUMP JUMPDEST SWAP1 PUSH1 0x24 CALLDATALOAD DUP2 DUP2 GT PUSH2 0x462 JUMPI PUSH2 0x179 SWAP1 CALLDATASIZE SWAP1 PUSH1 0x4 ADD PUSH2 0x1A35 JUMP JUMPDEST SWAP1 PUSH1 0x44 CALLDATALOAD SWAP1 DUP2 GT PUSH2 0x462 JUMPI PUSH2 0x192 SWAP1 CALLDATASIZE SWAP1 PUSH1 0x4 ADD PUSH2 0x1A35 JUMP JUMPDEST SWAP2 PUSH1 0x64 CALLDATALOAD SWAP3 PUSH1 0x84 CALLDATALOAD DUP3 MLOAD ISZERO PUSH2 0x41D JUMPI DUP5 ISZERO DUP1 ISZERO SWAP1 PUSH2 0x414 JUMPI JUMPDEST PUSH2 0x1B4 SWAP1 PUSH2 0x1C5C JUMP JUMPDEST PUSH1 0xFF PUSH1 0xB PUSH1 0x40 MLOAD PUSH1 0x20 DUP2 DUP8 MLOAD PUSH2 0x1CD DUP2 DUP4 DUP6 DUP13 ADD PUSH2 0x1BE8 JUMP JUMPDEST DUP2 ADD PUSH1 0x2 DUP2 MSTORE SUB ADD SWAP1 KECCAK256 ADD SLOAD AND PUSH2 0x3CF JUMPI PUSH1 0x40 MLOAD SWAP2 PUSH2 0x1EB DUP4 PUSH2 0x19DD JUMP JUMPDEST DUP4 DUP4 MSTORE DUP5 PUSH1 0x20 DUP5 ADD MSTORE PUSH1 0x40 DUP4 ADD MSTORE DUP5 PUSH1 0x60 DUP4 ADD MSTORE PUSH1 0x80 DUP3 ADD MSTORE CALLER PUSH1 0xA0 DUP3 ADD MSTORE CALLER PUSH1 0xC0 DUP3 ADD MSTORE PUSH1 0x0 PUSH1 0xE0 DUP3 ADD MSTORE PUSH1 0x0 PUSH2 0x100 DUP3 ADD MSTORE PUSH1 0x0 PUSH2 0x120 DUP3 ADD MSTORE TIMESTAMP PUSH2 0x140 DUP3 ADD MSTORE PUSH1 0x1 PUSH2 0x160 DUP3 ADD MSTORE PUSH2 0x160 PUSH1 0xB PUSH1 0x40 MLOAD PUSH1 0x20 DUP2 DUP7 MLOAD PUSH2 0x250 DUP2 DUP4 DUP6 DUP12 ADD PUSH2 0x1BE8 JUMP JUMPDEST DUP2 ADD PUSH1 0x2 DUP2 MSTORE SUB ADD SWAP1 KECCAK256 PUSH2 0x265 DUP5 MLOAD DUP3 PUSH2 0x1D04 JUMP JUMPDEST PUSH2 0x276 PUSH1 0x20 DUP6 ADD MLOAD PUSH1 0x1 DUP4 ADD PUSH2 0x1D04 JUMP JUMPDEST PUSH2 0x287 PUSH1 0x40 DUP6 ADD MLOAD PUSH1 0x2 DUP4 ADD PUSH2 0x1D04 JUMP JUMPDEST PUSH1 0x60 DUP5 ADD MLOAD PUSH1 0x3 DUP3 ADD SSTORE PUSH1 0x80 DUP5 ADD MLOAD PUSH1 0x4 DUP3 ADD SSTORE PUSH1 0x5 DUP2 ADD PUSH1 0x1 DUP1 PUSH1 0xA0 SHL SUB SWAP1 DUP2 PUSH1 0xA0 DUP8 ADD MLOAD AND SWAP1 PUSH1 0x1 PUSH1 0x1 PUSH1 0x60 SHL SUB PUSH1 0xA0 SHL SWAP2 DUP3 DUP3 SLOAD AND OR SWAP1 SSTORE PUSH1 0x6 DUP4 ADD SWAP2 PUSH1 0xC0 DUP8 ADD MLOAD AND SWAP1 DUP3 SLOAD AND OR SWAP1 SSTORE PUSH1 0xE0 DUP5 ADD MLOAD PUSH1 0x7 DUP3 ADD SSTORE PUSH2 0x100 DUP5 ADD MLOAD PUSH1 0x8 DUP3 ADD SSTORE PUSH2 0x120 DUP5 ADD MLOAD PUSH1 0x9 DUP3 ADD SSTORE PUSH2 0x140 DUP5 ADD MLOAD PUSH1 0xA DUP3 ADD SSTORE ADD SWAP2 ADD MLOAD ISZERO ISZERO PUSH1 0xFF DUP1 NOT DUP4 SLOAD AND SWAP2 AND OR SWAP1 SSTORE CALLER PUSH1 0x0 MSTORE PUSH1 0x4 PUSH1 0x20 MSTORE PUSH2 0x328 DUP2 PUSH1 0x40 PUSH1 0x0 KECCAK256 PUSH2 0x1DCB JUMP JUMPDEST PUSH1 0x5 SLOAD PUSH1 0x1 PUSH1 0x40 SHL DUP2 LT ISZERO PUSH2 0x3B9 JUMPI DUP1 PUSH1 0x1 PUSH2 0x347 SWAP3 ADD PUSH1 0x5 SSTORE PUSH2 0x1A92 JUMP JUMPDEST PUSH2 0x3A3 JUMPI DUP2 PUSH2 0x37A PUSH32 0x585D38EBCB0FE93CED4D64FBB112388B85B7726E7D87C5142521434D4F122384 SWAP4 PUSH2 0x37F SWAP4 PUSH2 0x1D04 JUMP JUMPDEST PUSH2 0x1DF8 JUMP JUMPDEST SWAP2 PUSH2 0x395 PUSH1 0x40 MLOAD SWAP2 PUSH1 0x40 DUP4 MSTORE PUSH1 0x40 DUP4 ADD SWAP1 PUSH2 0x1C0B JUMP JUMPDEST SWAP4 PUSH1 0x20 DUP3 ADD MSTORE DUP1 CALLER SWAP5 SUB SWAP1 LOG3 STOP JUMPDEST PUSH4 0x4E487B71 PUSH1 0xE0 SHL PUSH1 0x0 MSTORE PUSH1 0x0 PUSH1 0x4 MSTORE PUSH1 0x24 PUSH1 0x0 REVERT JUMPDEST PUSH4 0x4E487B71 PUSH1 0xE0 SHL PUSH1 0x0 MSTORE PUSH1 0x41 PUSH1 0x4 MSTORE PUSH1 0x24 PUSH1 0x0 REVERT JUMPDEST PUSH1 0x40 MLOAD PUSH3 0x461BCD PUSH1 0xE5 SHL DUP2 MSTORE PUSH1 0x20 PUSH1 0x4 DUP3 ADD MSTORE PUSH1 0x18 PUSH1 0x24 DUP3 ADD MSTORE PUSH32 0x417373657420616C726561647920726567697374657265640000000000000000 PUSH1 0x44 DUP3 ADD MSTORE PUSH1 0x64 SWAP1 REVERT JUMPDEST POP DUP1 ISZERO ISZERO PUSH2 0x1AB JUMP JUMPDEST PUSH1 0x40 MLOAD PUSH3 0x461BCD PUSH1 0xE5 SHL DUP2 MSTORE PUSH1 0x20 PUSH1 0x4 DUP3 ADD MSTORE PUSH1 0x1A PUSH1 0x24 DUP3 ADD MSTORE PUSH32 0x50726F6A6563742049442063616E6E6F7420626520656D707479000000000000 PUSH1 0x44 DUP3 ADD MSTORE PUSH1 0x64 SWAP1 REVERT JUMPDEST PUSH1 0x0 DUP1 REVERT JUMPDEST CALLVALUE PUSH2 0x462 JUMPI PUSH1 0x20 DUP1 PUSH1 0x3 NOT CALLDATASIZE ADD SLT PUSH2 0x462 JUMPI PUSH1 0x4 CALLDATALOAD PUSH1 0x1 PUSH1 0x1 PUSH1 0x40 SHL SUB DUP2 GT PUSH2 0x462 JUMPI PUSH2 0x498 SWAP1 CALLDATASIZE SWAP1 PUSH1 0x4 ADD PUSH2 0x1A35 JUMP JUMPDEST PUSH2 0x4A0 PUSH2 0x1F3E JUMP JUMPDEST PUSH1 0x40 MLOAD SWAP2 DUP2 MLOAD SWAP3 DUP2 DUP2 DUP2 DUP6 ADD SWAP6 PUSH2 0x4B8 DUP2 DUP4 DUP10 PUSH2 0x1BE8 JUMP JUMPDEST DUP2 ADD PUSH1 0x2 DUP2 MSTORE SUB ADD SWAP1 KECCAK256 PUSH2 0x4D2 PUSH1 0xFF PUSH1 0xB DUP4 ADD SLOAD AND PUSH2 0x1E18 JUMP JUMPDEST PUSH1 0x4 DUP2 ADD SWAP4 DUP5 SLOAD SWAP2 DUP3 ISZERO PUSH2 0x6FC JUMPI PUSH2 0x4FA PUSH2 0x2710 PUSH2 0x4F2 PUSH1 0x6 SLOAD DUP7 PUSH2 0x1E5A JUMP JUMPDEST DIV DUP1 SWAP5 PUSH2 0x1E6D JUMP JUMPDEST PUSH1 0x5 DUP3 ADD DUP1 SLOAD PUSH1 0x40 MLOAD PUSH4 0x23B872DD PUSH1 0xE0 SHL DUP1 DUP3 MSTORE CALLER PUSH1 0x4 DUP4 ADD MSTORE PUSH1 0x1 PUSH1 0x1 PUSH1 0xA0 SHL SUB SWAP3 DUP4 AND PUSH1 0x24 DUP4 ADD MSTORE PUSH1 0x44 DUP3 ADD SWAP5 SWAP1 SWAP5 MSTORE SWAP1 SWAP4 SWAP2 SWAP3 PUSH32 0x0 DUP6 AND SWAP2 SWAP1 DUP9 DUP3 PUSH1 0x64 DUP2 PUSH1 0x0 DUP8 GAS CALL SWAP2 DUP3 ISZERO PUSH2 0x6D3 JUMPI DUP10 SWAP3 PUSH2 0x57A SWAP2 PUSH1 0x0 SWAP2 PUSH2 0x6DF JUMPI JUMPDEST POP PUSH2 0x1EAA JUMP JUMPDEST PUSH1 0x40 MLOAD SWAP1 DUP2 MSTORE CALLER PUSH1 0x4 DUP3 ADD MSTORE ADDRESS PUSH1 0x24 DUP3 ADD MSTORE PUSH1 0x44 DUP2 ADD DUP9 SWAP1 MSTORE SWAP2 DUP3 SWAP1 PUSH1 0x64 SWAP1 DUP3 SWAP1 PUSH1 0x0 SWAP1 GAS CALL SWAP1 DUP2 ISZERO PUSH2 0x6D3 JUMPI PUSH1 0x0 SWAP2 PUSH2 0x6A6 JUMPI JUMPDEST POP ISZERO PUSH2 0x661 JUMPI PUSH1 0x9 SWAP1 DUP9 SLOAD PUSH2 0x5C9 PUSH1 0x8 DUP4 ADD SWAP2 DUP3 SLOAD PUSH2 0x1EF6 JUMP JUMPDEST SWAP1 SSTORE ADD DUP1 SLOAD SWAP1 PUSH1 0x1 DUP3 ADD DUP1 SWAP3 GT PUSH2 0x64B JUMPI PUSH2 0x615 SWAP5 PUSH2 0x60B SWAP3 PUSH2 0x5F7 SWAP3 SSTORE PUSH1 0x40 MLOAD SWAP2 DUP3 SWAP2 DUP11 MLOAD SWAP3 DUP4 SWAP2 PUSH2 0x1BE8 JUMP JUMPDEST DUP2 ADD SWAP1 PUSH1 0x3 DUP3 MSTORE DUP8 DUP2 CALLER SWAP4 SUB ADD SWAP1 KECCAK256 PUSH2 0x1F03 JUMP JUMPDEST SLOAD AND SWAP5 SLOAD SWAP4 PUSH2 0x1DF8 JUMP JUMPDEST SWAP2 PUSH1 0x40 MLOAD SWAP4 DUP5 MSTORE DUP4 ADD MSTORE PUSH32 0x9F1CF37E6808C30667B45EF497CDBE9240FF2B62734E74189AC2C7F4A76D487D PUSH1 0x40 CALLER SWAP4 LOG4 PUSH1 0x1 DUP1 SSTORE STOP JUMPDEST PUSH4 0x4E487B71 PUSH1 0xE0 SHL PUSH1 0x0 MSTORE PUSH1 0x11 PUSH1 0x4 MSTORE PUSH1 0x24 PUSH1 0x0 REVERT JUMPDEST PUSH1 0x40 MLOAD PUSH3 0x461BCD PUSH1 0xE5 SHL DUP2 MSTORE PUSH1 0x4 DUP2 ADD DUP8 SWAP1 MSTORE PUSH1 0x1C PUSH1 0x24 DUP3 ADD MSTORE PUSH32 0x506C6174666F726D20666565207472616E73666572206661696C656400000000 PUSH1 0x44 DUP3 ADD MSTORE PUSH1 0x64 SWAP1 REVERT JUMPDEST PUSH2 0x6C6 SWAP2 POP DUP8 RETURNDATASIZE DUP10 GT PUSH2 0x6CC JUMPI JUMPDEST PUSH2 0x6BE DUP2 DUP4 PUSH2 0x19F9 JUMP JUMPDEST DUP2 ADD SWAP1 PUSH2 0x1F61 JUMP JUMPDEST DUP10 PUSH2 0x5AF JUMP JUMPDEST POP RETURNDATASIZE PUSH2 0x6B4 JUMP JUMPDEST PUSH1 0x40 MLOAD RETURNDATASIZE PUSH1 0x0 DUP3 RETURNDATACOPY RETURNDATASIZE SWAP1 REVERT JUMPDEST PUSH2 0x6F6 SWAP2 POP DUP5 RETURNDATASIZE DUP7 GT PUSH2 0x6CC JUMPI PUSH2 0x6BE DUP2 DUP4 PUSH2 0x19F9 JUMP JUMPDEST DUP14 PUSH2 0x574 JUMP JUMPDEST PUSH1 0x40 MLOAD PUSH3 0x461BCD PUSH1 0xE5 SHL DUP2 MSTORE PUSH1 0x4 DUP2 ADD DUP6 SWAP1 MSTORE PUSH1 0x28 PUSH1 0x24 DUP3 ADD MSTORE PUSH32 0x55534443207061796D656E74206E6F7420616363657074656420666F72207468 PUSH1 0x44 DUP3 ADD MSTORE PUSH8 0x1A5CC8185CDCD95D PUSH1 0xC2 SHL PUSH1 0x64 DUP3 ADD MSTORE PUSH1 0x84 SWAP1 REVERT JUMPDEST CALLVALUE PUSH2 0x462 JUMPI PUSH1 0x20 CALLDATASIZE PUSH1 0x3 NOT ADD SLT PUSH2 0x462 JUMPI PUSH2 0x76B PUSH2 0x1A7C JUMP JUMPDEST PUSH2 0x773 PUSH2 0x1C30 JUMP JUMPDEST PUSH1 0x1 PUSH1 0x1 PUSH1 0xA0 SHL SUB SWAP1 DUP2 AND SWAP1 DUP2 ISZERO PUSH2 0x7C2 JUMPI PUSH1 0x0 SLOAD DUP3 PUSH1 0x1 PUSH1 0x1 PUSH1 0x60 SHL SUB PUSH1 0xA0 SHL DUP3 AND OR PUSH1 0x0 SSTORE AND PUSH32 0x8BE0079C531659141344CD1FD0A4F28419497F9722A3DAAFE3B4186F6B6457E0 PUSH1 0x0 DUP1 LOG3 STOP JUMPDEST PUSH1 0x40 MLOAD PUSH4 0x1E4FBDF7 PUSH1 0xE0 SHL DUP2 MSTORE PUSH1 0x0 PUSH1 0x4 DUP3 ADD MSTORE PUSH1 0x24 SWAP1 REVERT JUMPDEST CALLVALUE PUSH2 0x462 JUMPI PUSH1 0x20 CALLDATASIZE PUSH1 0x3 NOT ADD SLT PUSH2 0x462 JUMPI PUSH1 0x4 CALLDATALOAD PUSH1 0x5 SLOAD DUP2 LT ISZERO PUSH2 0x462 JUMPI PUSH2 0x80E PUSH2 0x808 PUSH2 0x822 SWAP3 PUSH2 0x1A92 JUMP JUMPDEST SWAP1 PUSH2 0x1BD7 JUMP JUMPDEST PUSH1 0x40 MLOAD SWAP2 DUP3 SWAP2 PUSH1 0x20 DUP4 MSTORE PUSH1 0x20 DUP4 ADD SWAP1 PUSH2 0x1C0B JUMP JUMPDEST SUB SWAP1 RETURN JUMPDEST CALLVALUE PUSH2 0x462 JUMPI PUSH1 0x0 CALLDATASIZE PUSH1 0x3 NOT ADD SLT PUSH2 0x462 JUMPI PUSH2 0x83F PUSH2 0x1C30 JUMP JUMPDEST PUSH1 0x40 MLOAD PUSH4 0x70A08231 PUSH1 0xE0 SHL DUP2 MSTORE ADDRESS PUSH1 0x4 DUP3 ADD MSTORE PUSH1 0x20 SWAP1 PUSH1 0x1 PUSH1 0x1 PUSH1 0xA0 SHL SUB PUSH32 0x0 DUP2 AND SWAP2 SWAP1 DUP4 DUP3 PUSH1 0x24 DUP2 DUP7 GAS STATICCALL SWAP2 DUP3 ISZERO PUSH2 0x6D3 JUMPI PUSH1 0x0 SWAP3 PUSH2 0x947 JUMPI JUMPDEST POP DUP2 ISZERO PUSH2 0x902 JUMPI SWAP1 PUSH1 0x44 DUP5 SWAP3 PUSH1 0x0 SLOAD AND PUSH1 0x0 PUSH1 0x40 MLOAD SWAP6 DUP7 SWAP5 DUP6 SWAP4 PUSH4 0xA9059CBB PUSH1 0xE0 SHL DUP6 MSTORE PUSH1 0x4 DUP6 ADD MSTORE PUSH1 0x24 DUP5 ADD MSTORE GAS CALL SWAP1 DUP2 ISZERO PUSH2 0x6D3 JUMPI PUSH2 0x8E3 SWAP3 PUSH1 0x0 SWAP3 PUSH2 0x8E5 JUMPI JUMPDEST POP POP PUSH2 0x1F79 JUMP JUMPDEST STOP JUMPDEST PUSH2 0x8FB SWAP3 POP DUP1 RETURNDATASIZE LT PUSH2 0x6CC JUMPI PUSH2 0x6BE DUP2 DUP4 PUSH2 0x19F9 JUMP JUMPDEST DUP3 DUP1 PUSH2 0x8DC JUMP JUMPDEST PUSH1 0x40 MLOAD PUSH3 0x461BCD PUSH1 0xE5 SHL DUP2 MSTORE PUSH1 0x4 DUP2 ADD DUP6 SWAP1 MSTORE PUSH1 0x18 PUSH1 0x24 DUP3 ADD MSTORE PUSH32 0x4E6F2055534443206665657320746F2077697468647261770000000000000000 PUSH1 0x44 DUP3 ADD MSTORE PUSH1 0x64 SWAP1 REVERT JUMPDEST SWAP1 SWAP2 POP DUP4 DUP2 DUP2 RETURNDATASIZE DUP4 GT PUSH2 0x96F JUMPI JUMPDEST PUSH2 0x95F DUP2 DUP4 PUSH2 0x19F9 JUMP JUMPDEST DUP2 ADD SUB SLT PUSH2 0x462 JUMPI MLOAD SWAP1 DUP5 PUSH2 0x899 JUMP JUMPDEST POP RETURNDATASIZE PUSH2 0x955 JUMP JUMPDEST CALLVALUE PUSH2 0x462 JUMPI PUSH1 0x0 CALLDATASIZE PUSH1 0x3 NOT ADD SLT PUSH2 0x462 JUMPI PUSH1 0x20 PUSH1 0x40 MLOAD PUSH2 0x2710 DUP2 MSTORE RETURN JUMPDEST CALLVALUE PUSH2 0x462 JUMPI PUSH1 0x0 CALLDATASIZE PUSH1 0x3 NOT ADD SLT PUSH2 0x462 JUMPI PUSH1 0x20 PUSH1 0x6 SLOAD PUSH1 0x40 MLOAD SWAP1 DUP2 MSTORE RETURN JUMPDEST CALLVALUE PUSH2 0x462 JUMPI PUSH1 0x20 CALLDATASIZE PUSH1 0x3 NOT ADD SLT PUSH2 0x462 JUMPI PUSH1 0x4 CALLDATALOAD PUSH1 0x1 PUSH1 0x1 PUSH1 0x40 SHL SUB DUP2 GT PUSH2 0x462 JUMPI PUSH1 0x20 PUSH2 0x9E6 PUSH2 0xA50 SWAP3 CALLDATASIZE SWAP1 PUSH1 0x4 ADD PUSH2 0x1A35 JUMP JUMPDEST PUSH1 0x0 PUSH2 0x160 PUSH1 0x40 MLOAD PUSH2 0x9F7 DUP2 PUSH2 0x19DD JUMP JUMPDEST PUSH1 0x60 DUP2 MSTORE PUSH1 0x60 DUP6 DUP3 ADD MSTORE PUSH1 0x60 PUSH1 0x40 DUP3 ADD MSTORE DUP3 PUSH1 0x60 DUP3 ADD MSTORE DUP3 PUSH1 0x80 DUP3 ADD MSTORE DUP3 PUSH1 0xA0 DUP3 ADD MSTORE DUP3 PUSH1 0xC0 DUP3 ADD MSTORE DUP3 PUSH1 0xE0 DUP3 ADD MSTORE DUP3 PUSH2 0x100 DUP3 ADD MSTORE DUP3 PUSH2 0x120 DUP3 ADD MSTORE DUP3 PUSH2 0x140 DUP3 ADD MSTORE ADD MSTORE DUP2 PUSH1 0x40 MLOAD SWAP4 DUP3 DUP6 DUP1 SWAP5 MLOAD SWAP4 DUP5 SWAP3 ADD PUSH2 0x1BE8 JUMP JUMPDEST DUP2 ADD PUSH1 0x2 DUP2 MSTORE SUB ADD SWAP1 KECCAK256 PUSH1 0xFF PUSH1 0xB PUSH1 0x40 MLOAD SWAP3 PUSH2 0xA6B DUP5 PUSH2 0x19DD JUMP JUMPDEST PUSH2 0xA74 DUP2 PUSH2 0x1B31 JUMP JUMPDEST DUP5 MSTORE PUSH2 0xA82 PUSH1 0x1 DUP3 ADD PUSH2 0x1B31 JUMP JUMPDEST PUSH1 0x20 DUP6 ADD MSTORE PUSH2 0xA93 PUSH1 0x2 DUP3 ADD PUSH2 0x1B31 JUMP JUMPDEST PUSH1 0x40 DUP6 ADD MSTORE PUSH1 0x3 DUP2 ADD SLOAD PUSH1 0x60 DUP6 ADD MSTORE PUSH1 0x4 DUP2 ADD SLOAD PUSH1 0x80 DUP6 ADD MSTORE PUSH1 0x1 DUP1 PUSH1 0xA0 SHL SUB PUSH1 0x5 DUP3 ADD SLOAD AND PUSH1 0xA0 DUP6 ADD MSTORE PUSH1 0x1 DUP1 PUSH1 0xA0 SHL SUB PUSH1 0x6 DUP3 ADD SLOAD AND PUSH1 0xC0 DUP6 ADD MSTORE PUSH1 0x7 DUP2 ADD SLOAD PUSH1 0xE0 DUP6 ADD MSTORE PUSH1 0x8 DUP2 ADD SLOAD PUSH2 0x100 DUP6 ADD MSTORE PUSH1 0x9 DUP2 ADD SLOAD PUSH2 0x120 DUP6 ADD MSTORE PUSH1 0xA DUP2 ADD SLOAD PUSH2 0x140 DUP6 ADD MSTORE ADD SLOAD AND ISZERO ISZERO PUSH2 0x160 DUP3 ADD MSTORE PUSH1 0x40 MLOAD DUP1 SWAP2 PUSH1 0x20 DUP3 MSTORE PUSH2 0x160 PUSH2 0xB5E PUSH2 0xB2D DUP4 MLOAD PUSH2 0x180 PUSH1 0x20 DUP8 ADD MSTORE PUSH2 0x1A0 DUP7 ADD SWAP1 PUSH2 0x1C0B JUMP JUMPDEST PUSH2 0xB49 PUSH1 0x20 DUP6 ADD MLOAD SWAP2 PUSH1 0x1F NOT SWAP3 DUP4 DUP9 DUP4 SUB ADD PUSH1 0x40 DUP10 ADD MSTORE PUSH2 0x1C0B JUMP JUMPDEST SWAP1 PUSH1 0x40 DUP6 ADD MLOAD SWAP1 DUP7 DUP4 SUB ADD PUSH1 0x60 DUP8 ADD MSTORE PUSH2 0x1C0B JUMP JUMPDEST SWAP2 PUSH1 0x60 DUP2 ADD MLOAD PUSH1 0x80 DUP6 ADD MSTORE PUSH1 0x80 DUP2 ADD MLOAD PUSH1 0xA0 DUP6 ADD MSTORE PUSH1 0x1 DUP1 PUSH1 0xA0 SHL SUB PUSH1 0xA0 DUP3 ADD MLOAD AND PUSH1 0xC0 DUP6 ADD MSTORE PUSH1 0x1 DUP1 PUSH1 0xA0 SHL SUB PUSH1 0xC0 DUP3 ADD MLOAD AND PUSH1 0xE0 DUP6 ADD MSTORE PUSH1 0xE0 DUP2 ADD MLOAD PUSH2 0x100 DUP6 ADD MSTORE PUSH2 0x100 DUP2 ADD MLOAD PUSH2 0x120 DUP6 ADD MSTORE PUSH2 0x120 DUP2 ADD MLOAD PUSH2 0x140 DUP6 ADD MSTORE PUSH2 0x140 DUP2 ADD MLOAD DUP3 DUP6 ADD MSTORE ADD MLOAD ISZERO ISZERO PUSH2 0x180 DUP4 ADD MSTORE SUB SWAP1 RETURN JUMPDEST CALLVALUE PUSH2 0x462 JUMPI PUSH1 0x0 CALLDATASIZE PUSH1 0x3 NOT ADD SLT PUSH2 0x462 JUMPI PUSH1 0x20 PUSH1 0x40 MLOAD PUSH20 0x36CBD53842C5426634E7929541EC2318F3DCF7E DUP2 MSTORE RETURN JUMPDEST CALLVALUE PUSH2 0x462 JUMPI PUSH1 0x20 CALLDATASIZE PUSH1 0x3 NOT ADD SLT PUSH2 0x462 JUMPI PUSH1 0x4 CALLDATALOAD PUSH2 0xC1D PUSH2 0x1C30 JUMP JUMPDEST PUSH2 0x3E8 DUP2 GT PUSH2 0xC2B JUMPI PUSH1 0x6 SSTORE STOP JUMPDEST PUSH1 0x40 MLOAD PUSH3 0x461BCD PUSH1 0xE5 SHL DUP2 MSTORE PUSH1 0x20 PUSH1 0x4 DUP3 ADD MSTORE PUSH1 0x16 PUSH1 0x24 DUP3 ADD MSTORE PUSH22 0x46656520746F6F206869676820286D61782031302529 PUSH1 0x50 SHL PUSH1 0x44 DUP3 ADD MSTORE PUSH1 0x64 SWAP1 REVERT JUMPDEST CALLVALUE PUSH2 0x462 JUMPI PUSH1 0x20 DUP1 PUSH1 0x3 NOT CALLDATASIZE ADD SLT PUSH2 0x462 JUMPI PUSH1 0x4 CALLDATALOAD PUSH1 0x1 PUSH1 0x1 PUSH1 0x40 SHL SUB DUP2 GT PUSH2 0x462 JUMPI DUP2 PUSH2 0xC9E PUSH2 0xCB1 SWAP3 CALLDATASIZE SWAP1 PUSH1 0x4 ADD PUSH2 0x1A35 JUMP JUMPDEST DUP2 PUSH1 0x40 MLOAD SWAP4 DUP3 DUP6 DUP1 SWAP5 MLOAD SWAP4 DUP5 SWAP3 ADD PUSH2 0x1BE8 JUMP JUMPDEST DUP2 ADD PUSH1 0x3 DUP2 MSTORE SUB ADD SWAP1 KECCAK256 PUSH1 0x40 MLOAD SWAP1 DUP2 DUP4 DUP3 SLOAD SWAP2 DUP3 DUP2 MSTORE ADD SWAP1 DUP2 SWAP3 PUSH1 0x0 MSTORE DUP5 PUSH1 0x0 KECCAK256 SWAP1 PUSH1 0x0 JUMPDEST DUP7 DUP3 DUP3 LT PUSH2 0xD35 JUMPI DUP7 DUP7 PUSH2 0xCEC DUP3 DUP9 SUB DUP4 PUSH2 0x19F9 JUMP JUMPDEST PUSH1 0x40 MLOAD SWAP3 DUP4 SWAP3 DUP2 DUP5 ADD SWAP1 DUP3 DUP6 MSTORE MLOAD DUP1 SWAP2 MSTORE PUSH1 0x40 DUP5 ADD SWAP3 SWAP2 PUSH1 0x0 JUMPDEST DUP3 DUP2 LT PUSH2 0xD15 JUMPI POP POP POP POP SUB SWAP1 RETURN JUMPDEST DUP4 MLOAD PUSH1 0x1 PUSH1 0x1 PUSH1 0xA0 SHL SUB AND DUP6 MSTORE DUP7 SWAP6 POP SWAP4 DUP2 ADD SWAP4 SWAP3 DUP2 ADD SWAP3 PUSH1 0x1 ADD PUSH2 0xD06 JUMP JUMPDEST DUP4 SLOAD PUSH1 0x1 PUSH1 0x1 PUSH1 0xA0 SHL SUB AND DUP6 MSTORE SWAP1 SWAP4 ADD SWAP3 PUSH1 0x1 SWAP3 DUP4 ADD SWAP3 ADD PUSH2 0xCD6 JUMP JUMPDEST CALLVALUE PUSH2 0x462 JUMPI PUSH1 0x0 CALLDATASIZE PUSH1 0x3 NOT ADD SLT PUSH2 0x462 JUMPI PUSH2 0xD6B PUSH2 0x1C30 JUMP JUMPDEST SELFBALANCE DUP1 ISZERO PUSH2 0xD99 JUMPI PUSH1 0x0 DUP1 SLOAD PUSH2 0x8E3 SWAP3 DUP3 SWAP2 DUP3 SWAP2 DUP3 SWAP2 PUSH1 0x1 PUSH1 0x1 PUSH1 0xA0 SHL SUB AND GAS CALL PUSH2 0xD93 PUSH2 0x1E7A JUMP JUMPDEST POP PUSH2 0x1F79 JUMP JUMPDEST PUSH1 0x40 MLOAD PUSH3 0x461BCD PUSH1 0xE5 SHL DUP2 MSTORE PUSH1 0x20 PUSH1 0x4 DUP3 ADD MSTORE PUSH1 0x17 PUSH1 0x24 DUP3 ADD MSTORE PUSH32 0x4E6F20455448206665657320746F207769746864726177000000000000000000 PUSH1 0x44 DUP3 ADD MSTORE PUSH1 0x64 SWAP1 REVERT JUMPDEST CALLVALUE PUSH2 0x462 JUMPI PUSH1 0x0 CALLDATASIZE PUSH1 0x3 NOT ADD SLT PUSH2 0x462 JUMPI PUSH1 0x0 SLOAD PUSH1 0x40 MLOAD PUSH1 0x1 PUSH1 0x1 PUSH1 0xA0 SHL SUB SWAP1 SWAP2 AND DUP2 MSTORE PUSH1 0x20 SWAP1 RETURN JUMPDEST CALLVALUE PUSH2 0x462 JUMPI PUSH1 0x20 CALLDATASIZE PUSH1 0x3 NOT ADD SLT PUSH2 0x462 JUMPI PUSH1 0x4 CALLDATALOAD PUSH1 0x5 SLOAD DUP2 LT ISZERO PUSH2 0xE3A JUMPI PUSH2 0x80E PUSH2 0xE34 PUSH2 0x822 SWAP3 PUSH2 0x1A92 JUMP JUMPDEST POP PUSH2 0x1B31 JUMP JUMPDEST PUSH1 0x40 MLOAD PUSH3 0x461BCD PUSH1 0xE5 SHL DUP2 MSTORE PUSH1 0x20 PUSH1 0x4 DUP3 ADD MSTORE PUSH1 0x13 PUSH1 0x24 DUP3 ADD MSTORE PUSH19 0x496E646578206F7574206F6620626F756E6473 PUSH1 0x68 SHL PUSH1 0x44 DUP3 ADD MSTORE PUSH1 0x64 SWAP1 REVERT JUMPDEST CALLVALUE PUSH2 0x462 JUMPI PUSH1 0x40 CALLDATASIZE PUSH1 0x3 NOT ADD SLT PUSH2 0x462 JUMPI PUSH1 0x4 CALLDATALOAD PUSH1 0x1 PUSH1 0x1 PUSH1 0x40 SHL SUB DUP2 GT PUSH2 0x462 JUMPI PUSH2 0xEA5 SWAP1 CALLDATASIZE SWAP1 PUSH1 0x4 ADD PUSH2 0x1A35 JUMP JUMPDEST PUSH2 0xEC1 PUSH1 0x20 PUSH1 0x24 CALLDATALOAD SWAP3 DUP2 PUSH1 0x40 MLOAD SWAP4 DUP3 DUP6 DUP1 SWAP5 MLOAD SWAP4 DUP5 SWAP3 ADD PUSH2 0x1BE8 JUMP JUMPDEST DUP2 ADD PUSH1 0x3 DUP2 MSTORE SUB ADD SWAP1 KECCAK256 DUP1 SLOAD DUP3 LT ISZERO PUSH2 0x462 JUMPI PUSH1 0x20 SWAP2 PUSH2 0xEE0 SWAP2 PUSH2 0x1ADF JUMP JUMPDEST SWAP1 SLOAD PUSH1 0x40 MLOAD PUSH1 0x3 SWAP3 SWAP1 SWAP3 SHL SHR PUSH1 0x1 PUSH1 0x1 PUSH1 0xA0 SHL SUB AND DUP2 MSTORE RETURN JUMPDEST PUSH1 0x20 DUP1 PUSH1 0x3 NOT CALLDATASIZE ADD SLT PUSH2 0x462 JUMPI PUSH1 0x4 CALLDATALOAD PUSH1 0x1 PUSH1 0x1 PUSH1 0x40 SHL SUB DUP2 GT PUSH2 0x462 JUMPI PUSH2 0xF25 SWAP1 CALLDATASIZE SWAP1 PUSH1 0x4 ADD PUSH2 0x1A35 JUMP JUMPDEST PUSH2 0xF2D PUSH2 0x1F3E JUMP JUMPDEST PUSH1 0x40 MLOAD SWAP2 DUP2 MLOAD SWAP3 DUP2 DUP2 DUP2 DUP6 ADD SWAP6 PUSH2 0xF45 DUP2 DUP4 DUP10 PUSH2 0x1BE8 JUMP JUMPDEST DUP2 ADD PUSH1 0x2 DUP2 MSTORE SUB ADD SWAP1 KECCAK256 PUSH2 0xF5F PUSH1 0xFF PUSH1 0xB DUP4 ADD SLOAD AND PUSH2 0x1E18 JUMP JUMPDEST PUSH1 0x3 DUP2 ADD SWAP4 DUP5 SLOAD SWAP2 DUP3 ISZERO PUSH2 0x10AB JUMPI DUP3 CALLVALUE LT PUSH2 0x106F JUMPI PUSH2 0xF86 PUSH2 0x2710 PUSH2 0x4F2 PUSH1 0x6 SLOAD DUP7 PUSH2 0x1E5A JUMP JUMPDEST SWAP2 PUSH1 0x9 PUSH1 0x5 DUP4 ADD SWAP3 PUSH2 0xFAC PUSH1 0x0 DUP1 DUP1 DUP1 PUSH1 0x1 DUP1 PUSH1 0xA0 SHL SUB SWAP10 DUP11 DUP11 SLOAD AND GAS CALL PUSH2 0x574 PUSH2 0x1E7A JUMP JUMPDEST DUP9 SLOAD PUSH2 0xFBD PUSH1 0x7 DUP4 ADD SWAP2 DUP3 SLOAD PUSH2 0x1EF6 JUMP JUMPDEST SWAP1 SSTORE ADD DUP1 SLOAD SWAP1 PUSH1 0x1 DUP3 ADD DUP1 SWAP3 GT PUSH2 0x64B JUMPI SSTORE PUSH1 0x40 MLOAD DUP7 MLOAD PUSH2 0xFFA SWAP3 DUP8 SWAP2 DUP4 SWAP2 PUSH2 0xFE9 SWAP1 DUP3 SWAP1 DUP5 SWAP1 PUSH2 0x1BE8 JUMP JUMPDEST DUP2 ADD PUSH1 0x3 DUP2 MSTORE SUB ADD SWAP1 KECCAK256 CALLER SWAP1 PUSH2 0x1F03 JUMP JUMPDEST DUP6 SLOAD DUP1 CALLVALUE GT PUSH2 0x1014 JUMPI JUMPDEST POP SWAP1 PUSH2 0x615 SWAP2 SLOAD AND SWAP5 SLOAD SWAP4 PUSH2 0x1DF8 JUMP JUMPDEST PUSH1 0x0 DUP1 DUP1 PUSH2 0x1023 DUP2 SWAP5 CALLVALUE PUSH2 0x1E6D JUMP JUMPDEST CALLER GAS CALL PUSH2 0x102E PUSH2 0x1E7A JUMP JUMPDEST POP ISZERO PUSH2 0x103A JUMPI DUP7 PUSH2 0x1004 JUMP JUMPDEST PUSH1 0x40 MLOAD PUSH3 0x461BCD PUSH1 0xE5 SHL DUP2 MSTORE PUSH1 0x4 DUP2 ADD DUP6 SWAP1 MSTORE PUSH1 0xD PUSH1 0x24 DUP3 ADD MSTORE PUSH13 0x1499599D5B990819985A5B1959 PUSH1 0x9A SHL PUSH1 0x44 DUP3 ADD MSTORE PUSH1 0x64 SWAP1 REVERT JUMPDEST PUSH1 0x40 MLOAD PUSH3 0x461BCD PUSH1 0xE5 SHL DUP2 MSTORE PUSH1 0x4 DUP2 ADD DUP6 SWAP1 MSTORE PUSH1 0x14 PUSH1 0x24 DUP3 ADD MSTORE PUSH20 0x125B9CDD59999A58DA595B9D081C185E5B595B9D PUSH1 0x62 SHL PUSH1 0x44 DUP3 ADD MSTORE PUSH1 0x64 SWAP1 REVERT JUMPDEST PUSH1 0x40 MLOAD PUSH3 0x461BCD PUSH1 0xE5 SHL DUP2 MSTORE PUSH1 0x4 DUP2 ADD DUP6 SWAP1 MSTORE PUSH1 0x27 PUSH1 0x24 DUP3 ADD MSTORE PUSH32 0x455448207061796D656E74206E6F7420616363657074656420666F7220746869 PUSH1 0x44 DUP3 ADD MSTORE PUSH7 0x1CC8185CDCD95D PUSH1 0xCA SHL PUSH1 0x64 DUP3 ADD MSTORE PUSH1 0x84 SWAP1 REVERT JUMPDEST CALLVALUE PUSH2 0x462 JUMPI PUSH1 0x20 DUP1 PUSH1 0x3 NOT CALLDATASIZE ADD SLT PUSH2 0x462 JUMPI PUSH1 0x1 PUSH1 0x1 PUSH1 0xA0 SHL SUB PUSH2 0x1122 PUSH2 0x1A7C JUMP JUMPDEST AND PUSH1 0x0 MSTORE PUSH1 0x4 DUP2 MSTORE PUSH1 0x40 PUSH1 0x0 KECCAK256 DUP1 SLOAD SWAP1 PUSH1 0x1 PUSH1 0x1 PUSH1 0x40 SHL SUB DUP3 GT PUSH2 0x3B9 JUMPI DUP3 SWAP1 PUSH1 0x40 MLOAD SWAP3 PUSH2 0x1155 DUP4 DUP3 PUSH1 0x5 SHL ADD DUP6 PUSH2 0x19F9 JUMP JUMPDEST DUP1 DUP5 MSTORE DUP3 DUP5 ADD DUP1 SWAP3 PUSH1 0x0 MSTORE DUP4 PUSH1 0x0 KECCAK256 PUSH1 0x0 SWAP2 JUMPDEST DUP4 DUP4 LT PUSH2 0x11CF JUMPI POP POP POP POP PUSH1 0x40 MLOAD SWAP2 DUP1 DUP4 ADD SWAP4 DUP2 DUP5 MSTORE MLOAD DUP1 SWAP5 MSTORE PUSH1 0x40 DUP4 ADD SWAP4 PUSH1 0x40 DUP2 PUSH1 0x5 SHL DUP6 ADD ADD SWAP3 SWAP2 PUSH1 0x0 SWAP6 JUMPDEST DUP3 DUP8 LT PUSH2 0x11A3 JUMPI DUP6 DUP6 SUB DUP7 RETURN JUMPDEST SWAP1 SWAP2 SWAP3 SWAP4 DUP3 DUP1 PUSH2 0x11BF PUSH1 0x1 SWAP4 PUSH1 0x3F NOT DUP11 DUP3 SUB ADD DUP7 MSTORE DUP9 MLOAD PUSH2 0x1C0B JUMP JUMPDEST SWAP7 ADD SWAP3 ADD SWAP7 ADD SWAP6 SWAP3 SWAP2 SWAP1 SWAP3 PUSH2 0x1196 JUMP JUMPDEST PUSH1 0x1 DUP7 DUP2 SWAP3 PUSH2 0x11E0 DUP6 SWAP11 SWAP10 SWAP11 PUSH2 0x1B31 JUMP JUMPDEST DUP2 MSTORE ADD SWAP3 ADD SWAP3 ADD SWAP2 SWAP1 SWAP6 SWAP5 SWAP6 PUSH2 0x1168 JUMP JUMPDEST CALLVALUE PUSH2 0x462 JUMPI PUSH1 0x0 CALLDATASIZE PUSH1 0x3 NOT ADD SLT PUSH2 0x462 JUMPI PUSH2 0x120A PUSH2 0x1C30 JUMP JUMPDEST PUSH1 0x0 DUP1 SLOAD PUSH1 0x1 PUSH1 0x1 PUSH1 0xA0 SHL SUB NOT DUP2 AND DUP3 SSTORE PUSH1 0x1 PUSH1 0x1 PUSH1 0xA0 SHL SUB AND PUSH32 0x8BE0079C531659141344CD1FD0A4F28419497F9722A3DAAFE3B4186F6B6457E0 DUP3 DUP1 LOG3 STOP JUMPDEST CALLVALUE PUSH2 0x462 JUMPI PUSH1 0x0 CALLDATASIZE PUSH1 0x3 NOT ADD SLT PUSH2 0x462 JUMPI PUSH1 0x20 PUSH1 0x5 SLOAD PUSH1 0x40 MLOAD SWAP1 DUP2 MSTORE RETURN JUMPDEST CALLVALUE PUSH2 0x462 JUMPI PUSH1 0x20 CALLDATASIZE PUSH1 0x3 NOT ADD SLT PUSH2 0x462 JUMPI PUSH1 0x4 CALLDATALOAD PUSH1 0x1 PUSH1 0x1 PUSH1 0x40 SHL SUB DUP2 GT PUSH2 0x462 JUMPI PUSH1 0x20 PUSH2 0xC9E PUSH2 0x129D SWAP3 CALLDATASIZE SWAP1 PUSH1 0x4 ADD PUSH2 0x1A35 JUMP JUMPDEST DUP2 ADD PUSH1 0x2 DUP2 MSTORE SUB ADD SWAP1 KECCAK256 PUSH2 0x132A PUSH2 0x12B3 DUP3 PUSH2 0x1B31 JUMP JUMPDEST SWAP2 PUSH2 0x12C0 PUSH1 0x1 DUP3 ADD PUSH2 0x1B31 JUMP JUMPDEST SWAP3 PUSH2 0x12CD PUSH1 0x2 DUP4 ADD PUSH2 0x1B31 JUMP JUMPDEST SWAP2 PUSH1 0x3 DUP2 ADD SLOAD SWAP3 PUSH1 0x4 DUP3 ADD SLOAD PUSH1 0x1 DUP1 PUSH1 0xA0 SHL SUB DUP1 PUSH1 0x5 DUP6 ADD SLOAD AND SWAP1 PUSH1 0x6 DUP6 ADD SLOAD AND PUSH1 0x7 DUP6 ADD SLOAD SWAP2 PUSH1 0x8 DUP7 ADD SLOAD SWAP4 PUSH2 0x1346 PUSH1 0x9 DUP9 ADD SLOAD SWAP7 PUSH2 0x1338 PUSH1 0xFF PUSH1 0xB PUSH1 0xA DUP13 ADD SLOAD SWAP12 ADD SLOAD AND SWAP11 PUSH1 0x40 MLOAD SWAP15 DUP16 SWAP15 DUP16 SWAP3 PUSH2 0x180 DUP1 DUP6 MSTORE DUP5 ADD SWAP1 PUSH2 0x1C0B JUMP JUMPDEST SWAP2 PUSH1 0x20 DUP2 DUP5 SUB SWAP2 ADD MSTORE PUSH2 0x1C0B JUMP JUMPDEST DUP13 DUP2 SUB PUSH1 0x40 DUP15 ADD MSTORE SWAP1 PUSH2 0x1C0B JUMP JUMPDEST SWAP9 PUSH1 0x60 DUP12 ADD MSTORE PUSH1 0x80 DUP11 ADD MSTORE PUSH1 0xA0 DUP10 ADD MSTORE PUSH1 0xC0 DUP9 ADD MSTORE PUSH1 0xE0 DUP8 ADD MSTORE PUSH2 0x100 DUP7 ADD MSTORE PUSH2 0x120 DUP6 ADD MSTORE PUSH2 0x140 DUP5 ADD MSTORE ISZERO ISZERO PUSH2 0x160 DUP4 ADD MSTORE SUB SWAP1 RETURN JUMPDEST CALLVALUE PUSH2 0x462 JUMPI PUSH1 0x40 CALLDATASIZE PUSH1 0x3 NOT ADD SLT PUSH2 0x462 JUMPI PUSH2 0x1397 PUSH2 0x1A7C JUMP JUMPDEST PUSH1 0x1 PUSH1 0x1 PUSH1 0xA0 SHL SUB AND PUSH1 0x0 SWAP1 DUP2 MSTORE PUSH1 0x4 PUSH1 0x20 MSTORE PUSH1 0x40 SWAP1 KECCAK256 DUP1 SLOAD PUSH1 0x24 CALLDATALOAD SWAP1 DUP2 LT ISZERO PUSH2 0x462 JUMPI PUSH2 0x808 PUSH2 0x80E SWAP2 PUSH2 0x822 SWAP4 PUSH2 0x1ADF JUMP JUMPDEST CALLVALUE PUSH2 0x462 JUMPI PUSH1 0x20 CALLDATASIZE PUSH1 0x3 NOT ADD SLT PUSH2 0x462 JUMPI PUSH1 0x4 CALLDATALOAD PUSH1 0x1 PUSH1 0x1 PUSH1 0x40 SHL SUB DUP2 GT PUSH2 0x462 JUMPI PUSH2 0x13FB SWAP1 CALLDATASIZE SWAP1 PUSH1 0x4 ADD PUSH2 0x1A35 JUMP JUMPDEST PUSH1 0x40 MLOAD PUSH1 0x20 DUP2 DUP4 MLOAD PUSH2 0x1410 DUP2 DUP4 DUP6 DUP9 ADD PUSH2 0x1BE8 JUMP JUMPDEST DUP2 ADD PUSH1 0x2 DUP2 MSTORE SUB ADD SWAP1 KECCAK256 PUSH1 0xB DUP2 ADD SWAP1 DUP2 SLOAD SWAP1 PUSH1 0xFF DUP3 AND ISZERO PUSH2 0x14BA JUMPI PUSH1 0x5 ADD SLOAD PUSH1 0x1 PUSH1 0x1 PUSH1 0xA0 SHL SUB AND CALLER SUB PUSH2 0x1475 JUMPI PUSH1 0xFF NOT AND SWAP1 SSTORE PUSH2 0x144E CALLER SWAP2 PUSH2 0x1DF8 JUMP JUMPDEST PUSH32 0xBF7659F4659900A03FED4AD2FC77C3602180B8AFCF682077F6E38E88D0CF58F4 PUSH1 0x0 DUP1 LOG3 STOP JUMPDEST PUSH1 0x40 MLOAD PUSH3 0x461BCD PUSH1 0xE5 SHL DUP2 MSTORE PUSH1 0x20 PUSH1 0x4 DUP3 ADD MSTORE PUSH1 0x19 PUSH1 0x24 DUP3 ADD MSTORE PUSH32 0x4F6E6C79206F776E65722063616E206465616374697661746500000000000000 PUSH1 0x44 DUP3 ADD MSTORE PUSH1 0x64 SWAP1 REVERT JUMPDEST PUSH1 0x40 MLOAD PUSH3 0x461BCD PUSH1 0xE5 SHL DUP2 MSTORE PUSH1 0x20 PUSH1 0x4 DUP3 ADD MSTORE PUSH1 0x16 PUSH1 0x24 DUP3 ADD MSTORE PUSH22 0x417373657420616C726561647920696E616374697665 PUSH1 0x50 SHL PUSH1 0x44 DUP3 ADD MSTORE PUSH1 0x64 SWAP1 REVERT JUMPDEST CALLVALUE PUSH2 0x462 JUMPI PUSH1 0x40 CALLDATASIZE PUSH1 0x3 NOT ADD SLT PUSH2 0x462 JUMPI PUSH1 0x4 CALLDATALOAD PUSH1 0x1 PUSH1 0x1 PUSH1 0x40 SHL SUB DUP2 GT PUSH2 0x462 JUMPI PUSH2 0x1528 SWAP1 CALLDATASIZE SWAP1 PUSH1 0x4 ADD PUSH2 0x1A35 JUMP JUMPDEST PUSH1 0x24 SWAP1 PUSH1 0x1 PUSH1 0x1 PUSH1 0xA0 SHL SUB SWAP1 DUP3 CALLDATALOAD DUP3 DUP2 AND DUP2 SUB PUSH2 0x462 JUMPI PUSH1 0x40 MLOAD PUSH1 0x20 DUP2 DUP5 MLOAD PUSH2 0x1554 DUP2 DUP4 DUP6 DUP10 ADD PUSH2 0x1BE8 JUMP JUMPDEST DUP2 ADD PUSH1 0x2 DUP2 MSTORE SUB ADD SWAP1 KECCAK256 SWAP3 PUSH2 0x156F PUSH1 0xFF PUSH1 0xB DUP7 ADD SLOAD AND PUSH2 0x1E18 JUMP JUMPDEST DUP1 PUSH1 0x5 DUP6 ADD SLOAD AND SWAP2 DUP3 CALLER SUB PUSH2 0x182F JUMPI DUP2 DUP2 AND ISZERO PUSH2 0x17F7 JUMPI DUP3 PUSH1 0x0 MSTORE PUSH1 0x4 PUSH1 0x20 MSTORE PUSH1 0x40 PUSH1 0x0 KECCAK256 SWAP5 PUSH1 0x0 JUMPDEST DUP7 SLOAD DUP1 DUP3 LT ISZERO PUSH2 0x17E5 JUMPI PUSH2 0x15AC DUP3 DUP10 PUSH2 0x1ADF JUMP JUMPDEST POP PUSH1 0x40 MLOAD SWAP1 DUP2 PUSH1 0x0 DUP3 SLOAD SWAP3 PUSH2 0x15C0 DUP5 PUSH2 0x1AF7 JUMP JUMPDEST DUP1 DUP5 MSTORE SWAP4 PUSH1 0x1 DUP2 AND SWAP1 DUP2 ISZERO PUSH2 0x17C3 JUMPI POP PUSH1 0x1 EQ PUSH2 0x1781 JUMPI JUMPDEST POP PUSH2 0x15E5 SWAP3 POP SUB DUP3 PUSH2 0x19F9 JUMP JUMPDEST PUSH1 0x20 DUP2 MLOAD SWAP2 ADD KECCAK256 DUP8 MLOAD PUSH1 0x20 DUP10 ADD KECCAK256 EQ PUSH2 0x161F JUMPI POP PUSH1 0x0 NOT DUP2 EQ PUSH2 0x160A JUMPI PUSH1 0x1 ADD PUSH2 0x1598 JUMP JUMPDEST DUP8 PUSH4 0x4E487B71 PUSH1 0xE0 SHL PUSH1 0x0 MSTORE PUSH1 0x11 PUSH1 0x4 MSTORE PUSH1 0x0 REVERT JUMPDEST SWAP1 PUSH1 0x0 SWAP8 SWAP3 SWAP4 SWAP5 SWAP6 SWAP7 SWAP8 NOT SWAP2 DUP3 DUP2 ADD SWAP1 DUP2 GT PUSH2 0x176C JUMPI PUSH2 0x1642 PUSH2 0x164A SWAP2 DUP6 PUSH2 0x1ADF JUMP JUMPDEST POP SWAP2 DUP5 PUSH2 0x1ADF JUMP JUMPDEST SWAP2 SWAP1 SWAP2 PUSH2 0x1757 JUMPI PUSH2 0x165A SWAP2 PUSH2 0x1FB9 JUMP JUMPDEST DUP2 SLOAD DUP1 ISZERO PUSH2 0x1742 JUMPI ADD SWAP1 PUSH2 0x166E DUP3 DUP3 PUSH2 0x1ADF JUMP JUMPDEST PUSH2 0x172D JUMPI PUSH2 0x16C7 SWAP7 SWAP8 SWAP9 POP PUSH2 0x1683 DUP2 SLOAD PUSH2 0x1AF7 JUMP JUMPDEST SWAP1 DUP2 PUSH2 0x16EE JUMPI JUMPDEST POP POP SSTORE JUMPDEST PUSH1 0x5 DUP4 DUP4 AND PUSH1 0x1 PUSH1 0x1 PUSH1 0x60 SHL SUB PUSH1 0xA0 SHL DUP3 DUP5 ADD SLOAD AND OR SWAP2 ADD SSTORE DUP2 DUP2 AND PUSH1 0x0 MSTORE PUSH1 0x4 PUSH1 0x20 MSTORE PUSH2 0x16C0 DUP6 PUSH1 0x40 PUSH1 0x0 KECCAK256 PUSH2 0x1DCB JUMP JUMPDEST AND SWAP3 PUSH2 0x1DF8 JUMP JUMPDEST PUSH32 0x6840904F5B31827F74E1497360DA245F56E530C8C3DE3163A2D31F11493273C6 PUSH1 0x0 DUP1 LOG4 STOP JUMPDEST PUSH1 0x0 SWAP2 PUSH1 0x1F DUP1 DUP3 GT PUSH1 0x1 EQ PUSH2 0x1708 JUMPI POP POP SSTORE JUMPDEST DUP9 DUP1 PUSH2 0x168A JUMP JUMPDEST SWAP2 PUSH2 0x1726 DUP5 SWAP3 SWAP4 DUP3 DUP5 MSTORE PUSH1 0x20 DUP5 KECCAK256 SWAP5 ADD PUSH1 0x5 SHR DUP5 ADD PUSH1 0x1 DUP6 ADD PUSH2 0x1CA8 JUMP JUMPDEST SSTORE SSTORE PUSH2 0x1701 JUMP JUMPDEST DUP9 PUSH4 0x4E487B71 PUSH1 0xE0 SHL PUSH1 0x0 MSTORE PUSH1 0x0 PUSH1 0x4 MSTORE PUSH1 0x0 REVERT JUMPDEST DUP9 PUSH4 0x4E487B71 PUSH1 0xE0 SHL PUSH1 0x0 MSTORE PUSH1 0x31 PUSH1 0x4 MSTORE PUSH1 0x0 REVERT JUMPDEST DUP10 PUSH4 0x4E487B71 PUSH1 0xE0 SHL PUSH1 0x0 MSTORE PUSH1 0x0 PUSH1 0x4 MSTORE PUSH1 0x0 REVERT JUMPDEST DUP10 PUSH4 0x4E487B71 PUSH1 0xE0 SHL PUSH1 0x0 MSTORE PUSH1 0x11 PUSH1 0x4 MSTORE PUSH1 0x0 REVERT JUMPDEST SWAP2 POP POP PUSH1 0x0 MSTORE PUSH1 0x20 PUSH1 0x0 KECCAK256 SWAP1 PUSH1 0x0 SWAP2 JUMPDEST DUP2 DUP4 LT PUSH2 0x17AA JUMPI POP POP DUP2 PUSH1 0x20 PUSH2 0x15E5 SWAP3 DUP3 ADD ADD DUP14 PUSH2 0x15D8 JUMP JUMPDEST DUP1 SLOAD PUSH1 0x20 DUP5 DUP7 ADD DUP2 ADD SWAP2 SWAP1 SWAP2 MSTORE SWAP1 SWAP3 ADD SWAP2 PUSH1 0x1 ADD PUSH2 0x1791 JUMP JUMPDEST SWAP1 POP PUSH1 0x20 SWAP3 POP PUSH2 0x15E5 SWAP5 SWAP2 POP PUSH1 0xFF NOT AND DUP3 DUP5 ADD MSTORE ISZERO ISZERO PUSH1 0x5 SHL DUP3 ADD ADD DUP14 PUSH2 0x15D8 JUMP JUMPDEST POP POP SWAP1 SWAP2 SWAP3 SWAP5 POP PUSH2 0x16C7 SWAP4 SWAP6 POP PUSH2 0x168E JUMP JUMPDEST PUSH1 0x40 MLOAD PUSH3 0x461BCD PUSH1 0xE5 SHL DUP2 MSTORE PUSH1 0x20 PUSH1 0x4 DUP3 ADD MSTORE PUSH1 0x11 DUP2 DUP9 ADD MSTORE PUSH17 0x24B73B30B634B2103732BB9037BBB732B9 PUSH1 0x79 SHL PUSH1 0x44 DUP3 ADD MSTORE PUSH1 0x64 SWAP1 REVERT JUMPDEST PUSH1 0x40 MLOAD PUSH3 0x461BCD PUSH1 0xE5 SHL DUP2 MSTORE PUSH1 0x20 PUSH1 0x4 DUP3 ADD MSTORE PUSH1 0x1F DUP2 DUP9 ADD MSTORE PUSH32 0x4F6E6C792063757272656E74206F776E65722063616E207472616E7366657200 PUSH1 0x44 DUP3 ADD MSTORE PUSH1 0x64 SWAP1 REVERT JUMPDEST CALLVALUE PUSH2 0x462 JUMPI PUSH1 0x0 CALLDATASIZE PUSH1 0x3 NOT ADD SLT PUSH2 0x462 JUMPI PUSH1 0x40 MLOAD PUSH32 0x0 PUSH1 0x1 PUSH1 0x1 PUSH1 0xA0 SHL SUB AND DUP2 MSTORE PUSH1 0x20 SWAP1 RETURN JUMPDEST CALLVALUE PUSH2 0x462 JUMPI PUSH1 0x60 CALLDATASIZE PUSH1 0x3 NOT ADD SLT PUSH2 0x462 JUMPI PUSH1 0x4 CALLDATALOAD PUSH1 0x1 PUSH1 0x1 PUSH1 0x40 SHL SUB DUP2 GT PUSH2 0x462 JUMPI PUSH2 0x18E8 SWAP1 CALLDATASIZE SWAP1 PUSH1 0x4 ADD PUSH2 0x1A35 JUMP JUMPDEST PUSH1 0x24 CALLDATALOAD SWAP1 PUSH1 0x44 CALLDATALOAD SWAP1 PUSH1 0x40 MLOAD PUSH1 0x20 DUP2 DUP4 MLOAD PUSH2 0x1905 DUP2 DUP4 DUP6 DUP9 ADD PUSH2 0x1BE8 JUMP JUMPDEST DUP2 ADD PUSH1 0x2 DUP2 MSTORE SUB ADD SWAP1 KECCAK256 PUSH2 0x191F PUSH1 0xFF PUSH1 0xB DUP4 ADD SLOAD AND PUSH2 0x1E18 JUMP JUMPDEST PUSH1 0x5 DUP2 ADD SLOAD PUSH1 0x1 PUSH1 0x1 PUSH1 0xA0 SHL SUB AND CALLER SUB PUSH2 0x1998 JUMPI PUSH2 0x1981 PUSH1 0x40 SWAP3 PUSH32 0x6F614E54FAFE71F7C0A065E36894602CA7ED071E7BE8DF9BADE0418E775FAC56 SWAP5 DUP7 ISZERO DUP1 ISZERO SWAP1 PUSH2 0x198F JUMPI JUMPDEST PUSH2 0x196E SWAP1 PUSH2 0x1C5C JUMP JUMPDEST PUSH1 0x4 PUSH1 0x3 DUP6 ADD SWAP5 DUP9 DUP7 SLOAD SWAP7 SSTORE ADD SSTORE PUSH2 0x1DF8 JUMP JUMPDEST SWAP4 DUP3 MLOAD SWAP2 DUP3 MSTORE PUSH1 0x20 DUP3 ADD MSTORE LOG2 STOP JUMPDEST POP DUP1 ISZERO ISZERO PUSH2 0x1965 JUMP JUMPDEST PUSH1 0x40 MLOAD PUSH3 0x461BCD PUSH1 0xE5 SHL DUP2 MSTORE PUSH1 0x20 PUSH1 0x4 DUP3 ADD MSTORE PUSH1 0x1B PUSH1 0x24 DUP3 ADD MSTORE PUSH32 0x4F6E6C79206F776E65722063616E207570646174652070726963650000000000 PUSH1 0x44 DUP3 ADD MSTORE PUSH1 0x64 SWAP1 REVERT JUMPDEST PUSH2 0x180 DUP2 ADD SWAP1 DUP2 LT PUSH1 0x1 PUSH1 0x1 PUSH1 0x40 SHL SUB DUP3 GT OR PUSH2 0x3B9 JUMPI PUSH1 0x40 MSTORE JUMP JUMPDEST SWAP1 PUSH1 0x1F DUP1 NOT SWAP2 ADD AND DUP2 ADD SWAP1 DUP2 LT PUSH1 0x1 PUSH1 0x1 PUSH1 0x40 SHL SUB DUP3 GT OR PUSH2 0x3B9 JUMPI PUSH1 0x40 MSTORE JUMP JUMPDEST PUSH1 0x1 PUSH1 0x1 PUSH1 0x40 SHL SUB DUP2 GT PUSH2 0x3B9 JUMPI PUSH1 0x1F ADD PUSH1 0x1F NOT AND PUSH1 0x20 ADD SWAP1 JUMP JUMPDEST DUP2 PUSH1 0x1F DUP3 ADD SLT ISZERO PUSH2 0x462 JUMPI DUP1 CALLDATALOAD SWAP1 PUSH2 0x1A4C DUP3 PUSH2 0x1A1A JUMP JUMPDEST SWAP3 PUSH2 0x1A5A PUSH1 0x40 MLOAD SWAP5 DUP6 PUSH2 0x19F9 JUMP JUMPDEST DUP3 DUP5 MSTORE PUSH1 0x20 DUP4 DUP4 ADD ADD GT PUSH2 0x462 JUMPI DUP2 PUSH1 0x0 SWAP3 PUSH1 0x20 DUP1 SWAP4 ADD DUP4 DUP7 ADD CALLDATACOPY DUP4 ADD ADD MSTORE SWAP1 JUMP JUMPDEST PUSH1 0x4 CALLDATALOAD SWAP1 PUSH1 0x1 PUSH1 0x1 PUSH1 0xA0 SHL SUB DUP3 AND DUP3 SUB PUSH2 0x462 JUMPI JUMP JUMPDEST PUSH1 0x5 SLOAD DUP2 LT ISZERO PUSH2 0x1AC9 JUMPI PUSH1 0x5 PUSH1 0x0 MSTORE PUSH32 0x36B6384B5ECA791C62761152D0C79BB0604C104A5FB6F4EB0703F3154BB3DB0 ADD SWAP1 PUSH1 0x0 SWAP1 JUMP JUMPDEST PUSH4 0x4E487B71 PUSH1 0xE0 SHL PUSH1 0x0 MSTORE PUSH1 0x32 PUSH1 0x4 MSTORE PUSH1 0x24 PUSH1 0x0 REVERT JUMPDEST DUP1 SLOAD DUP3 LT ISZERO PUSH2 0x1AC9 JUMPI PUSH1 0x0 MSTORE PUSH1 0x20 PUSH1 0x0 KECCAK256 ADD SWAP1 PUSH1 0x0 SWAP1 JUMP JUMPDEST SWAP1 PUSH1 0x1 DUP3 DUP2 SHR SWAP3 AND DUP1 ISZERO PUSH2 0x1B27 JUMPI JUMPDEST PUSH1 0x20 DUP4 LT EQ PUSH2 0x1B11 JUMPI JUMP JUMPDEST PUSH4 0x4E487B71 PUSH1 0xE0 SHL PUSH1 0x0 MSTORE PUSH1 0x22 PUSH1 0x4 MSTORE PUSH1 0x24 PUSH1 0x0 REVERT JUMPDEST SWAP2 PUSH1 0x7F AND SWAP2 PUSH2 0x1B06 JUMP JUMPDEST SWAP1 PUSH1 0x40 MLOAD SWAP2 DUP3 PUSH1 0x0 DUP3 SLOAD SWAP3 PUSH2 0x1B45 DUP5 PUSH2 0x1AF7 JUMP JUMPDEST SWAP1 DUP2 DUP5 MSTORE PUSH1 0x1 SWAP5 DUP6 DUP2 AND SWAP1 DUP2 PUSH1 0x0 EQ PUSH2 0x1BB4 JUMPI POP PUSH1 0x1 EQ PUSH2 0x1B71 JUMPI JUMPDEST POP POP PUSH2 0x1B6F SWAP3 POP SUB DUP4 PUSH2 0x19F9 JUMP JUMPDEST JUMP JUMPDEST SWAP1 SWAP4 SWAP2 POP PUSH1 0x0 MSTORE PUSH1 0x20 SWAP1 DUP2 PUSH1 0x0 KECCAK256 SWAP4 PUSH1 0x0 SWAP2 JUMPDEST DUP2 DUP4 LT PUSH2 0x1B9C JUMPI POP POP PUSH2 0x1B6F SWAP4 POP DUP3 ADD ADD CODESIZE DUP1 PUSH2 0x1B61 JUMP JUMPDEST DUP6 SLOAD DUP9 DUP5 ADD DUP6 ADD MSTORE SWAP5 DUP6 ADD SWAP5 DUP8 SWAP5 POP SWAP2 DUP4 ADD SWAP2 PUSH2 0x1B84 JUMP JUMPDEST SWAP2 POP POP PUSH2 0x1B6F SWAP5 POP PUSH1 0x20 SWAP3 POP PUSH1 0xFF NOT AND DUP3 DUP5 ADD MSTORE ISZERO ISZERO PUSH1 0x5 SHL DUP3 ADD ADD CODESIZE DUP1 PUSH2 0x1B61 JUMP JUMPDEST SWAP1 PUSH2 0x3A3 JUMPI PUSH2 0x1BE5 SWAP1 PUSH2 0x1B31 JUMP JUMPDEST SWAP1 JUMP JUMPDEST PUSH1 0x0 JUMPDEST DUP4 DUP2 LT PUSH2 0x1BFB JUMPI POP POP PUSH1 0x0 SWAP2 ADD MSTORE JUMP JUMPDEST DUP2 DUP2 ADD MLOAD DUP4 DUP3 ADD MSTORE PUSH1 0x20 ADD PUSH2 0x1BEB JUMP JUMPDEST SWAP1 PUSH1 0x20 SWAP2 PUSH2 0x1C24 DUP2 MLOAD DUP1 SWAP3 DUP2 DUP6 MSTORE DUP6 DUP1 DUP7 ADD SWAP2 ADD PUSH2 0x1BE8 JUMP JUMPDEST PUSH1 0x1F ADD PUSH1 0x1F NOT AND ADD ADD SWAP1 JUMP JUMPDEST PUSH1 0x0 SLOAD PUSH1 0x1 PUSH1 0x1 PUSH1 0xA0 SHL SUB AND CALLER SUB PUSH2 0x1C44 JUMPI JUMP JUMPDEST PUSH1 0x40 MLOAD PUSH4 0x118CDAA7 PUSH1 0xE0 SHL DUP2 MSTORE CALLER PUSH1 0x4 DUP3 ADD MSTORE PUSH1 0x24 SWAP1 REVERT JUMPDEST ISZERO PUSH2 0x1C63 JUMPI JUMP JUMPDEST PUSH1 0x40 MLOAD PUSH3 0x461BCD PUSH1 0xE5 SHL DUP2 MSTORE PUSH1 0x20 PUSH1 0x4 DUP3 ADD MSTORE PUSH1 0x1E PUSH1 0x24 DUP3 ADD MSTORE PUSH32 0x4174206C65617374206F6E65207072696365206D757374206265207365740000 PUSH1 0x44 DUP3 ADD MSTORE PUSH1 0x64 SWAP1 REVERT JUMPDEST DUP2 DUP2 LT PUSH2 0x1CB3 JUMPI POP POP JUMP JUMPDEST PUSH1 0x0 DUP2 SSTORE PUSH1 0x1 ADD PUSH2 0x1CA8 JUMP JUMPDEST SWAP2 SWAP1 PUSH1 0x1F DUP2 GT PUSH2 0x1CCE JUMPI POP POP POP JUMP JUMPDEST PUSH2 0x1B6F SWAP3 PUSH1 0x0 MSTORE PUSH1 0x20 PUSH1 0x0 KECCAK256 SWAP1 PUSH1 0x20 PUSH1 0x1F DUP5 ADD PUSH1 0x5 SHR DUP4 ADD SWAP4 LT PUSH2 0x1CFA JUMPI JUMPDEST PUSH1 0x1F ADD PUSH1 0x5 SHR ADD SWAP1 PUSH2 0x1CA8 JUMP JUMPDEST SWAP1 SWAP2 POP DUP2 SWAP1 PUSH2 0x1CED JUMP JUMPDEST SWAP2 SWAP1 SWAP2 DUP3 MLOAD PUSH1 0x1 PUSH1 0x1 PUSH1 0x40 SHL SUB DUP2 GT PUSH2 0x3B9 JUMPI PUSH2 0x1D2B DUP2 PUSH2 0x1D25 DUP5 SLOAD PUSH2 0x1AF7 JUMP JUMPDEST DUP5 PUSH2 0x1CBF JUMP JUMPDEST PUSH1 0x20 DUP1 PUSH1 0x1F DUP4 GT PUSH1 0x1 EQ PUSH2 0x1D67 JUMPI POP DUP2 SWAP3 SWAP4 SWAP5 PUSH1 0x0 SWAP3 PUSH2 0x1D5C JUMPI JUMPDEST POP POP DUP2 PUSH1 0x1 SHL SWAP2 PUSH1 0x0 NOT SWAP1 PUSH1 0x3 SHL SHR NOT AND OR SWAP1 SSTORE JUMP JUMPDEST ADD MLOAD SWAP1 POP CODESIZE DUP1 PUSH2 0x1D46 JUMP JUMPDEST SWAP1 PUSH1 0x1F NOT DUP4 AND SWAP6 DUP5 PUSH1 0x0 MSTORE DUP3 PUSH1 0x0 KECCAK256 SWAP3 PUSH1 0x0 SWAP1 JUMPDEST DUP9 DUP3 LT PUSH2 0x1DB3 JUMPI POP POP DUP4 PUSH1 0x1 SWAP6 SWAP7 SWAP8 LT PUSH2 0x1D9A JUMPI JUMPDEST POP POP POP DUP2 SHL ADD SWAP1 SSTORE JUMP JUMPDEST ADD MLOAD PUSH1 0x0 NOT PUSH1 0xF8 DUP5 PUSH1 0x3 SHL AND SHR NOT AND SWAP1 SSTORE CODESIZE DUP1 DUP1 PUSH2 0x1D90 JUMP JUMPDEST DUP1 PUSH1 0x1 DUP6 SWAP7 DUP3 SWAP5 SWAP7 DUP7 ADD MLOAD DUP2 SSTORE ADD SWAP6 ADD SWAP4 ADD SWAP1 PUSH2 0x1D7B JUMP JUMPDEST DUP1 SLOAD PUSH1 0x1 PUSH1 0x40 SHL DUP2 LT ISZERO PUSH2 0x3B9 JUMPI PUSH2 0x1DE8 SWAP2 PUSH1 0x1 DUP3 ADD DUP2 SSTORE PUSH2 0x1ADF JUMP JUMPDEST SWAP2 SWAP1 SWAP2 PUSH2 0x3A3 JUMPI PUSH2 0x1B6F SWAP2 PUSH2 0x1D04 JUMP JUMPDEST PUSH2 0x1E10 SWAP1 PUSH1 0x20 PUSH1 0x40 MLOAD SWAP3 DUP3 DUP5 DUP1 SWAP5 MLOAD SWAP4 DUP5 SWAP3 ADD PUSH2 0x1BE8 JUMP JUMPDEST DUP2 ADD SUB SWAP1 KECCAK256 SWAP1 JUMP JUMPDEST ISZERO PUSH2 0x1E1F JUMPI JUMP JUMPDEST PUSH1 0x40 MLOAD PUSH3 0x461BCD PUSH1 0xE5 SHL DUP2 MSTORE PUSH1 0x20 PUSH1 0x4 DUP3 ADD MSTORE PUSH1 0x13 PUSH1 0x24 DUP3 ADD MSTORE PUSH19 0x4173736574206E6F7420617661696C61626C65 PUSH1 0x68 SHL PUSH1 0x44 DUP3 ADD MSTORE PUSH1 0x64 SWAP1 REVERT JUMPDEST DUP2 DUP2 MUL SWAP3 SWAP2 DUP2 ISZERO SWAP2 DUP5 DIV EQ OR ISZERO PUSH2 0x64B JUMPI JUMP JUMPDEST SWAP2 SWAP1 DUP3 SUB SWAP2 DUP3 GT PUSH2 0x64B JUMPI JUMP JUMPDEST RETURNDATASIZE ISZERO PUSH2 0x1EA5 JUMPI RETURNDATASIZE SWAP1 PUSH2 0x1E8B DUP3 PUSH2 0x1A1A JUMP JUMPDEST SWAP2 PUSH2 0x1E99 PUSH1 0x40 MLOAD SWAP4 DUP5 PUSH2 0x19F9 JUMP JUMPDEST DUP3 MSTORE RETURNDATASIZE PUSH1 0x0 PUSH1 0x20 DUP5 ADD RETURNDATACOPY JUMP JUMPDEST PUSH1 0x60 SWAP1 JUMP JUMPDEST ISZERO PUSH2 0x1EB1 JUMPI JUMP JUMPDEST PUSH1 0x40 MLOAD PUSH3 0x461BCD PUSH1 0xE5 SHL DUP2 MSTORE PUSH1 0x20 PUSH1 0x4 DUP3 ADD MSTORE PUSH1 0x17 PUSH1 0x24 DUP3 ADD MSTORE PUSH32 0x5061796D656E7420746F206F776E6572206661696C6564000000000000000000 PUSH1 0x44 DUP3 ADD MSTORE PUSH1 0x64 SWAP1 REVERT JUMPDEST SWAP2 SWAP1 DUP3 ADD DUP1 SWAP3 GT PUSH2 0x64B JUMPI JUMP JUMPDEST DUP1 SLOAD PUSH1 0x1 PUSH1 0x40 SHL DUP2 LT ISZERO PUSH2 0x3B9 JUMPI PUSH2 0x1F20 SWAP2 PUSH1 0x1 DUP3 ADD DUP2 SSTORE PUSH2 0x1ADF JUMP JUMPDEST DUP2 SWAP3 SWAP2 SLOAD SWAP1 PUSH1 0x3 SHL SWAP2 PUSH1 0x1 DUP1 PUSH1 0xA0 SHL SUB DUP1 SWAP2 AND DUP4 SHL SWAP3 SHL NOT AND OR SWAP1 SSTORE JUMP JUMPDEST PUSH1 0x2 PUSH1 0x1 SLOAD EQ PUSH2 0x1F4F JUMPI PUSH1 0x2 PUSH1 0x1 SSTORE JUMP JUMPDEST PUSH1 0x40 MLOAD PUSH4 0x3EE5AEB5 PUSH1 0xE0 SHL DUP2 MSTORE PUSH1 0x4 SWAP1 REVERT JUMPDEST SWAP1 DUP2 PUSH1 0x20 SWAP2 SUB SLT PUSH2 0x462 JUMPI MLOAD DUP1 ISZERO ISZERO DUP2 SUB PUSH2 0x462 JUMPI SWAP1 JUMP JUMPDEST ISZERO PUSH2 0x1F80 JUMPI JUMP JUMPDEST PUSH1 0x40 MLOAD PUSH3 0x461BCD PUSH1 0xE5 SHL DUP2 MSTORE PUSH1 0x20 PUSH1 0x4 DUP3 ADD MSTORE PUSH1 0x11 PUSH1 0x24 DUP3 ADD MSTORE PUSH17 0x15DA5D1A191C985DD85B0819985A5B1959 PUSH1 0x7A SHL PUSH1 0x44 DUP3 ADD MSTORE PUSH1 0x64 SWAP1 REVERT JUMPDEST SWAP1 DUP1 DUP3 EQ PUSH2 0x2091 JUMPI PUSH2 0x1FCB DUP2 SLOAD PUSH2 0x1AF7 JUMP JUMPDEST SWAP1 PUSH1 0x1 PUSH1 0x1 PUSH1 0x40 SHL SUB DUP3 GT PUSH2 0x3B9 JUMPI DUP2 SWAP1 PUSH2 0x1FF0 DUP3 PUSH2 0x1FEA DUP7 SLOAD PUSH2 0x1AF7 JUMP JUMPDEST DUP7 PUSH2 0x1CBF JUMP JUMPDEST PUSH1 0x0 SWAP1 PUSH1 0x1F DUP4 GT PUSH1 0x1 EQ PUSH2 0x2026 JUMPI PUSH1 0x0 SWAP3 PUSH2 0x201B JUMPI POP POP DUP2 PUSH1 0x1 SHL SWAP2 PUSH1 0x0 NOT SWAP1 PUSH1 0x3 SHL SHR NOT AND OR SWAP1 SSTORE JUMP JUMPDEST ADD SLOAD SWAP1 POP CODESIZE DUP1 PUSH2 0x1D46 JUMP JUMPDEST DUP2 MSTORE PUSH1 0x20 DUP1 DUP3 KECCAK256 DUP6 DUP4 MSTORE DUP2 DUP4 KECCAK256 SWAP4 POP SWAP1 PUSH1 0x1F NOT DUP6 AND SWAP1 DUP4 SWAP1 JUMPDEST DUP3 DUP3 LT PUSH2 0x2078 JUMPI POP POP SWAP1 DUP5 PUSH1 0x1 SWAP6 SWAP5 SWAP4 SWAP3 LT PUSH2 0x205F JUMPI POP POP POP DUP2 SHL ADD SWAP1 SSTORE JUMP JUMPDEST ADD SLOAD PUSH1 0x0 NOT PUSH1 0xF8 DUP5 PUSH1 0x3 SHL AND SHR NOT AND SWAP1 SSTORE CODESIZE DUP1 DUP1 PUSH2 0x1D90 JUMP JUMPDEST DUP5 SWAP6 DUP2 SWAP3 SWAP6 DUP6 ADD SLOAD DUP2 SSTORE PUSH1 0x1 DUP1 SWAP2 ADD SWAP7 ADD SWAP5 ADD SWAP1 PUSH2 0x203F JUMP JUMPDEST POP POP JUMP INVALID LOG2 PUSH5 0x6970667358 0x22 SLT KECCAK256 0xAB 0x2E DUP1 0xB7 SUB 0xBC 0xFC 0xB9 0xE1 SWAP2 0x49 JUMP MSTORE EXTCODESIZE NUMBER CALLDATASIZE PUSH3 0x63D1AF PUSH27 0xF405DA1F260E323C31935B64736F6C634300081400330000000000 "},"methodIdentifiers":{"FEE_DENOMINATOR()":"d73792a9","USDC_ADDRESS()":"bb09d9b7","allAssetIds(uint256)":"e814d66b","assetPurchasers(string,uint256)":"8bccf009","deactivateAsset(string)":"51618eff","getAsset(string)":"cd5286d0","getAssetIdByIndex(uint256)":"8c5deff8","getAssetPurchasers(string)":"9ff95b8e","getTotalAssets()":"6e07302b","getUserAssets(address)":"765ff061","libraryAssets(string)":"6cb3db25","owner()":"8da5cb5b","platformFeePercentage()":"cdd78cfc","purchaseAssetWithETH(string)":"8ada33dc","purchaseAssetWithUSDC(string)":"fb055846","registerAsset(string,string,string,uint256,uint256)":"ff6c0dde","renounceOwnership()":"715018a6","transferAssetOwnership(string,address)":"2203f8f1","transferOwnership(address)":"f2fde38b","updateAssetPrice(string,uint256,uint256)":"0f393baf","updatePlatformFee(uint256)":"aa0b5988","usdcToken()":"11eac855","userOwnedAssets(address,uint256)":"5d483ab9","withdrawPlatformFeesETH()":"9c521838","withdrawPlatformFeesUSDC()":"dceb7686"}}}}}