{"ClayRoyalty.sol":{"ClayRoyalty":{"abi":[{"inputs":[{"internalType":"address","name":"_libraryContract","type":"address"}],"stateMutability":"nonpayable","type":"constructor"},{"inputs":[{"internalType":"address","name":"owner","type":"address"}],"name":"OwnableInvalidOwner","type":"error"},{"inputs":[{"internalType":"address","name":"account","type":"address"}],"name":"OwnableUnauthorizedAccount","type":"error"},{"inputs":[],"name":"ReentrancyGuardReentrantCall","type":"error"},{"anonymous":false,"inputs":[{"indexed":true,"internalType":"address","name":"previousOwner","type":"address"},{"indexed":true,"internalType":"address","name":"newOwner","type":"address"}],"name":"OwnershipTransferred","type":"event"},{"anonymous":false,"inputs":[{"indexed":true,"internalType":"string","name":"projectId","type":"string"},{"indexed":false,"internalType":"uint256","name":"dependencyCount","type":"uint256"}],"name":"RoyaltiesRegistered","type":"event"},{"anonymous":false,"inputs":[{"indexed":true,"internalType":"address","name":"claimant","type":"address"},{"indexed":false,"internalType":"uint256","name":"amountETH","type":"uint256"},{"indexed":false,"internalType":"uint256","name":"amountUSDC","type":"uint256"}],"name":"RoyaltyClaimed","type":"event"},{"anonymous":false,"inputs":[{"indexed":true,"internalType":"string","name":"projectId","type":"string"},{"indexed":true,"internalType":"address","name":"recipient","type":"address"},{"indexed":false,"internalType":"uint256","name":"amountETH","type":"uint256"},{"indexed":false,"internalType":"uint256","name":"amountUSDC","type":"uint256"}],"name":"RoyaltyRecorded","type":"event"},{"inputs":[],"name":"PERCENTAGE_DENOMINATOR","outputs":[{"internalType":"uint256","name":"","type":"uint256"}],"stateMutability":"view","type":"function"},{"inputs":[],"name":"ROYALTY_PERCENTAGE","outputs":[{"internalType":"uint256","name":"","type":"uint256"}],"stateMutability":"view","type":"function"},{"inputs":[],"name":"USDC_ADDRESS","outputs":[{"internalType":"address","name":"","type":"address"}],"stateMutability":"view","type":"function"},{"inputs":[{"internalType":"string","name":"projectId","type":"string"},{"internalType":"uint256","name":"priceETH","type":"uint256"},{"internalType":"uint256","name":"priceUSDC","type":"uint256"}],"name":"calculateTotalRoyalties","outputs":[{"internalType":"uint256","name":"totalETH","type":"uint256"},{"internalType":"uint256","name":"totalUSDC","type":"uint256"}],"stateMutability":"view","type":"function"},{"inputs":[],"name":"claimRoyaltiesETH","outputs":[],"stateMutability":"nonpayable","type":"function"},{"inputs":[],"name":"claimRoyaltiesUSDC","outputs":[],"stateMutability":"nonpayable","type":"function"},{"inputs":[{"internalType":"address","name":"account","type":"address"}],"name":"getPendingRoyalties","outputs":[{"internalType":"uint256","name":"eth","type":"uint256"},{"internalType":"uint256","name":"usdc","type":"uint256"}],"stateMutability":"view","type":"function"},{"inputs":[{"internalType":"string","name":"projectId","type":"string"}],"name":"getProjectDependencies","outputs":[{"components":[{"internalType":"string","name":"dependencyProjectId","type":"string"},{"internalType":"uint256","name":"royaltyPercentage","type":"uint256"},{"internalType":"uint256","name":"fixedRoyaltyETH","type":"uint256"},{"internalType":"uint256","name":"fixedRoyaltyUSDC","type":"uint256"}],"internalType":"struct ClayRoyalty.LibraryDependency[]","name":"","type":"tuple[]"}],"stateMutability":"view","type":"function"},{"inputs":[],"name":"libraryContract","outputs":[{"internalType":"contract IClayLibrary","name":"","type":"address"}],"stateMutability":"view","type":"function"},{"inputs":[],"name":"owner","outputs":[{"internalType":"address","name":"","type":"address"}],"stateMutability":"view","type":"function"},{"inputs":[{"internalType":"address","name":"","type":"address"}],"name":"pendingRoyaltiesETH","outputs":[{"internalType":"uint256","name":"","type":"uint256"}],"stateMutability":"view","type":"function"},{"inputs":[{"internalType":"address","name":"","type":"address"}],"name":"pendingRoyaltiesUSDC","outputs":[{"internalType":"uint256","name":"","type":"uint256"}],"stateMutability":"view","type":"function"},{"inputs":[{"internalType":"string","name":"","type":"string"}],"name":"projectRoyalties","outputs":[{"internalType":"string","name":"projectId","type":"string"},{"internalType":"bool","name":"hasRoyalties","type":"bool"}],"stateMutability":"view","type":"function"},{"inputs":[{"internalType":"string","name":"projectId","type":"string"},{"internalType":"uint256","name":"price","type":"uint256"},{"internalType":"enum ClayRoyalty.PaymentToken","name":"paymentToken","type":"uint8"}],"name":"recordRoyalties","outputs":[],"stateMutability":"payable","type":"function"},{"inputs":[{"internalType":"string","name":"projectId","type":"string"},{"internalType":"string[]","name":"dependencyProjectIds","type":"string[]"},{"internalType":"uint256[]","name":"dependencyPricesETH","type":"uint256[]"},{"internalType":"uint256[]","name":"dependencyPricesUSDC","type":"uint256[]"},{"internalType":"uint256[]","name":"royaltyPercentages","type":"uint256[]"}],"name":"registerProjectRoyalties","outputs":[],"stateMutability":"nonpayable","type":"function"},{"inputs":[],"name":"renounceOwnership","outputs":[],"stateMutability":"nonpayable","type":"function"},{"inputs":[{"internalType":"address","name":"_libraryContract","type":"address"}],"name":"setLibraryContract","outputs":[],"stateMutability":"nonpayable","type":"function"},{"inputs":[{"internalType":"address","name":"newOwner","type":"address"}],"name":"transferOwnership","outputs":[],"stateMutability":"nonpayable","type":"function"},{"inputs":[],"name":"usdcToken","outputs":[{"internalType":"contract IERC20","name":"","type":"address"}],"stateMutability":"view","type":"function"},{"inputs":[{"internalType":"string","name":"projectId","type":"string"},{"internalType":"uint256","name":"priceETH","type":"uint256"},{"internalType":"uint256","name":"priceUSDC","type":"uint256"}],"name":"validatePrice","outputs":[{"internalType":"bool","name":"","type":"bool"}],"stateMutability":"view","type":"function"},{"stateMutability":"payable","type":"receive"}],"evm":{"bytecode":{"linkReferences":{},"object":"60a0346100f257601f61183e38819003918201601f19168301916001600160401b038311848410176100f7578084926020946040528339810103126100f257516001600160a01b0390818116908190036100f25733156100d95760005460018060a01b0319903382821617600055604051933391167f8be0079c531659141344cd1fd0a4f28419497f9722a3daafe3b4186f6b6457e0600080a36001805573833589fcd6edb6e08f4c7c32d4f71b54bda029136080526002541617600255611730908161010e8239608051818181610a820152610bfb0152f35b604051631e4fbdf760e01b815260006004820152602490fd5b600080fd5b634e487b7160e01b600052604160045260246000fdfe608080604052600436101561001d575b50361561001b57600080fd5b005b60003560e01c908163024fa0d614611195575080630434d60c146111725780630a3213df14610c2a57806311eac85514610be5578063141b5f0214610ba75780631ed6c59914610a1b578063463b08db146109fe5780634aa8a12d1461097857806350fd8e71146108395780635bf4b5c4146107fb578063715018a6146107a25780638da5cb5b14610779578063902509c214610649578063956456d9146105fe578063b3cd4254146105e1578063bb09d9b7146105b2578063bf704e661461058c578063c5787690146101c4578063ce0769c51461019b5763f2fde38b14610106573861000f565b34610196576020366003190112610196576004356001600160a01b038181169182900361019657610135611450565b811561017d57600054826bffffffffffffffffffffffff60a01b821617600055167f8be0079c531659141344cd1fd0a4f28419497f9722a3daafe3b4186f6b6457e0600080a3005b604051631e4fbdf760e01b815260006004820152602490fd5b600080fd5b34610196576000366003190112610196576002546040516001600160a01b039091168152602090f35b606080600319360112610196576004356001600160401b038111610196576101f0903690600401611237565b906044359160029182841015610196576102086116d7565b6040519081835160209381610221869383858a01611328565b810160058152030190209460ff858701541615610547576103c75750341561039557600193840193926000845b610260575b5050505050505b60018055005b8554811015610390578061028061027a6102b1938961151c565b50611558565b60018060a01b038581865416835190604051808098819463d55a772d60e01b8352866004840152602483019061142b565b03915afa918215610384576102e494600093610352575b50604001519182151580610347575b6102ea575b5050506114ba565b8461024e565b169081600052600386526040600020610304828254611591565b90557fcb9f559e28915be49dcceef3fd0e6953281bdd4efe058dff26dd513ca503799e604061033289611538565b928151908152600089820152a38780806102dc565b5081811615156102d7565b604091935061037690883d8a1161037d575b61036e81836111fb565b8101906116b8565b92906102c8565b503d610364565b6040513d6000823e3d90fd5b610253565b6064906040519062461bcd60e51b82526004820152600b60248201526a139bc8115512081cd95b9d60aa1b6044820152fd5b346104f757600194850194936000855b6103e8575b5050505050505061025a565b86548110156104f2576103fe61027a828961151c565b9061043360018060a01b038681865416855190604051808096819463d55a772d60e01b8352866004840152602483019061142b565b03915afa918215610384576104659487916000946104d3575b50015191821515806104c8575b61046b575050506114ba565b856103d7565b169081600052600487526040600020610485828254611591565b90557fcb9f559e28915be49dcceef3fd0e6953281bdd4efe058dff26dd513ca503799e60406104b38a611538565b92815190600082528a820152a38880806102dc565b508181161515610459565b6104eb919450893d8b1161037d5761036e81836111fb565b928c61044c565b6103dc565b60405162461bcd60e51b815260048101839052602260248201527f446f206e6f742073656e642045544820666f72205553444320726f79616c7469604482015261657360f01b6064820152608490fd5b60405162461bcd60e51b815260048101849052601d60248201527f4e6f20726f79616c7469657320666f7220746869732070726f6a6563740000006044820152606490fd5b346101965760406105a661059f3661127e565b505061159e565b82519182526020820152f35b3461019657600036600319011261019657602060405173833589fcd6edb6e08f4c7c32d4f71b54bda029138152f35b346101965760003660031901126101965760206040516127108152f35b34610196576020366003190112610196576004356001600160a01b038116908190036101965761062c611450565b6bffffffffffffffffffffffff60a01b6002541617600255600080f35b34610196576000366003190112610196576106626116d7565b3360005260206003815260406000205490811561073557336000526003815260006040812055600080808085335af13d15610730573d6106a18161121c565b906106af60405192836111fb565b81526000833d92013e5b156106f6576000906040519283528201527f6fe778711f06ca052305b633ba1b304f4d71c1523776f2aa3059d8d99f5420de60403392a260018055005b6064906040519062461bcd60e51b825260048201526013602482015272115512081d1c985b9cd9995c8819985a5b1959606a1b6044820152fd5b6106b9565b6064906040519062461bcd60e51b82526004820152601860248201527f4e6f2070656e64696e672045544820726f79616c7469657300000000000000006044820152fd5b34610196576000366003190112610196576000546040516001600160a01b039091168152602090f35b34610196576000366003190112610196576107bb611450565b600080546001600160a01b0319811682556001600160a01b03167f8be0079c531659141344cd1fd0a4f28419497f9722a3daafe3b4186f6b6457e08280a3005b34610196576020366003190112610196576004356001600160a01b038116908190036101965760005260046020526020604060002054604051908152f35b3461019657602080600319360112610196576004356001600160401b0381116101965761086a903690600401611237565b908061087f6040519384815193849201611328565b82016005815282826001948593030190200180549161089d836112b3565b926108ab60405194856111fb565b8084528184018093600052826000206000915b83831061095357505050506040519384938285019083865251809152604085019260408260051b87010194936000905b8382106108fb5787870388f35b918496819592949698508190603f198b82030185528951906109258251608080845283019061142b565b91838101518483015260408101516040830152606080910151910152980192019201879695939194926108ee565b96600485829798969961096585611558565b81520192019201919096939594966108be565b34610196576020366003190112610196576004356001600160401b038111610196576109c360206109b06109f2933690600401611237565b8160405193828580945193849201611328565b8101600581520301902060ff60026109da83611385565b9201541660405192839260408452604084019061142b565b90151560208301520390f35b346101965760003660031901126101965760206040516103e88152f35b3461019657600036600319011261019657610a346116d7565b336000526020600481526040600020548015610b625733600052600482526000604081205560405163a9059cbb60e01b81523360048201528160248201528281604481600060018060a01b037f0000000000000000000000000000000000000000000000000000000000000000165af190811561038457600091610b2c575b5015610af05760405191600083528201527f6fe778711f06ca052305b633ba1b304f4d71c1523776f2aa3059d8d99f5420de60403392a260018055005b60405162461bcd60e51b81526004810183905260146024820152731554d110c81d1c985b9cd9995c8819985a5b195960621b6044820152606490fd5b90508281813d8311610b5b575b610b4381836111fb565b81010312610196575180151581036101965783610ab3565b503d610b39565b60405162461bcd60e51b815260048101839052601960248201527f4e6f2070656e64696e67205553444320726f79616c74696573000000000000006044820152606490fd5b34610196576020366003190112610196576004356001600160a01b038116908190036101965760005260036020526020604060002054604051908152f35b34610196576000366003190112610196576040517f00000000000000000000000000000000000000000000000000000000000000006001600160a01b03168152602090f35b346101965760a0366003190112610196576004356001600160401b03811161019657610c5a903690600401611237565b602435906001600160401b0382116101965736602383011215610196578160040135610c85816112b3565b92610c9360405194856111fb565b8184526024602085019260051b820101903682116101965760248101925b8284106111435785856044356001600160401b03811161019657610cd99036906004016112ca565b6064356001600160401b03811161019657610cf89036906004016112ca565b926084356001600160401b03811161019657610d189036906004016112ca565b93610d26825186511461147c565b610d33825184511461147c565b610d40825182511461147c565b60405160ff6002865192602081818a0195610d5c818389611328565b810160058152030190200154166110fe576020610d8491604051809381928951928391611328565b810160058152030190209284516001600160401b038111610fe457610da9855461134b565b601f81116110ba575b50806020601f821160011461105357600091611048575b508160011b916000199060031b1c19161784555b60028401805460ff1916600117905560005b835181101561101057610e1d610e0582846114df565b51612710918291610e16858c6114df565b5190611509565b0490610e37610e2c84876114df565b51610e16858c6114df565b04610e4283876114df565b5191610e4e848b6114df565b5160405193610e5c856111e0565b8452602084015260408301526060820152600186015468010000000000000000811015610fe457806001610e99920160018901556001880161151c565b919091610ffa5780518051906001600160401b038211610fe457610ebd845461134b565b601f8111610fa0575b50602090601f8311600114610f2d579282600393606093610f1d989796600092610f22575b50508160011b9160001990861b1c19161784555b602081015160018501556040810151600285015501519101556114ba565b610def565b015190508e80610eeb565b908460005260206000209160005b601f1985168110610f88575083606093610f1d98979693600193600397601f19811610610f70575b505050811b018455610eff565b015160001983881b60f8161c191690558e8080610f63565b91926020600181928685015181550194019201610f3b565b846000526020600020601f840160051c810160208510610fdd575b601f830160051c82018110610fd1575050610ec6565b60008155600101610fbb565b5080610fbb565b634e487b7160e01b600052604160045260246000fd5b634e487b7160e01b600052600060045260246000fd5b83517f92da81cc62c0efa31ecf38ecbdd2fb28add3e9af1063dde557cb388d8f9b3ef2602061103e89611538565b92604051908152a2005b905086015188610dc9565b91508560005260206000206000925b601f19831684106110a2576001935082601f19811610611089575b5050811b018455610ddd565b88015160001960f88460031b161c19169055888061107d565b88810151825560209384019360019092019101611062565b856000526020600020601f830160051c8101602084106110f7575b601f830160051c820181106110eb575050610db2565b600081556001016110d5565b50806110d5565b60405162461bcd60e51b815260206004820152601c60248201527f526f79616c7469657320616c72656164792072656769737465726564000000006044820152606490fd5b83356001600160401b03811161019657602091611167839260243691870101611237565b815201930192610cb1565b3461019657602061118b6111853661127e565b9161163b565b6040519015158152f35b34610196576020366003190112610196576004356001600160a01b03811691908290036101965760409160005260036020528160002054600460205282600020549082526020820152f35b608081019081106001600160401b03821117610fe457604052565b90601f801991011681019081106001600160401b03821117610fe457604052565b6001600160401b038111610fe457601f01601f191660200190565b81601f820112156101965780359061124e8261121c565b9261125c60405194856111fb565b8284526020838301011161019657816000926020809301838601378301015290565b606060031982011261019657600435906001600160401b038211610196576112a891600401611237565b906024359060443590565b6001600160401b038111610fe45760051b60200190565b81601f82011215610196578035916112e1836112b3565b926112ef60405194856111fb565b808452602092838086019260051b820101928311610196578301905b828210611319575050505090565b8135815290830190830161130b565b60005b83811061133b5750506000910152565b818101518382015260200161132b565b90600182811c9216801561137b575b602083101461136557565b634e487b7160e01b600052602260045260246000fd5b91607f169161135a565b90604051918260008254926113998461134b565b90818452600194858116908160001461140857506001146113c5575b50506113c3925003836111fb565b565b9093915060005260209081600020936000915b8183106113f05750506113c3935082010138806113b5565b855488840185015294850194879450918301916113d8565b9150506113c394506020925060ff191682840152151560051b82010138806113b5565b9060209161144481518092818552858086019101611328565b601f01601f1916010190565b6000546001600160a01b0316330361146457565b60405163118cdaa760e01b8152336004820152602490fd5b1561148357565b60405162461bcd60e51b815260206004820152600f60248201526e098cadccee8d040dad2e6dac2e8c6d608b1b6044820152606490fd5b60001981146114c95760010190565b634e487b7160e01b600052601160045260246000fd5b80518210156114f35760209160051b010190565b634e487b7160e01b600052603260045260246000fd5b818102929181159184041417156114c957565b80548210156114f35760005260206000209060021b0190600090565b61155090602060405192828480945193849201611328565b810103902090565b90604051611565816111e0565b60606003829461157481611385565b845260018101546020850152600281015460408501520154910152565b919082018092116114c957565b90600080926115bd602060409281845193828580945193849201611328565b810160058152030190209060ff6002830154161561162e57600160009201908154915b8284106115ef57505050509190565b9091929561162061162691606061161761160c61027a8c8861151c565b98878a015190611591565b97015190611591565b966114ba565b9291906115e0565b5050509050600090600090565b91909160ff600260405160208185516116578183858a01611328565b81016005815203019020015416156116b0576116729061159e565b9083151593846116a5575b5050811515918261169a575b50508115611695575090565b905090565b101590503880611689565b10159250388061167d565b505050600190565b9081602091031261019657516001600160a01b03811681036101965790565b6002600154146116e8576002600155565b604051633ee5aeb560e01b8152600490fdfea2646970667358221220974633caedb5e648b7da0663ce1f01dc45536b661fc75f34084b4542571522d564736f6c63430008140033","opcodes":"PUSH1 0xA0 CALLVALUE PUSH2 0xF2 JUMPI PUSH1 0x1F PUSH2 0x183E CODESIZE DUP2 SWAP1 SUB SWAP2 DUP3 ADD PUSH1 0x1F NOT AND DUP4 ADD SWAP2 PUSH1 0x1 PUSH1 0x1 PUSH1 0x40 SHL SUB DUP4 GT DUP5 DUP5 LT OR PUSH2 0xF7 JUMPI DUP1 DUP5 SWAP3 PUSH1 0x20 SWAP5 PUSH1 0x40 MSTORE DUP4 CODECOPY DUP2 ADD SUB SLT PUSH2 0xF2 JUMPI MLOAD PUSH1 0x1 PUSH1 0x1 PUSH1 0xA0 SHL SUB SWAP1 DUP2 DUP2 AND SWAP1 DUP2 SWAP1 SUB PUSH2 0xF2 JUMPI CALLER ISZERO PUSH2 0xD9 JUMPI PUSH1 0x0 SLOAD PUSH1 0x1 DUP1 PUSH1 0xA0 SHL SUB NOT SWAP1 CALLER DUP3 DUP3 AND OR PUSH1 0x0 SSTORE PUSH1 0x40 MLOAD SWAP4 CALLER SWAP2 AND PUSH32 0x8BE0079C531659141344CD1FD0A4F28419497F9722A3DAAFE3B4186F6B6457E0 PUSH1 0x0 DUP1 LOG3 PUSH1 0x1 DUP1 SSTORE PUSH20 0x833589FCD6EDB6E08F4C7C32D4F71B54BDA02913 PUSH1 0x80 MSTORE PUSH1 0x2 SLOAD AND OR PUSH1 0x2 SSTORE PUSH2 0x1730 SWAP1 DUP2 PUSH2 0x10E DUP3 CODECOPY PUSH1 0x80 MLOAD DUP2 DUP2 DUP2 PUSH2 0xA82 ADD MSTORE PUSH2 0xBFB ADD MSTORE RETURN JUMPDEST PUSH1 0x40 MLOAD PUSH4 0x1E4FBDF7 PUSH1 0xE0 SHL DUP2 MSTORE PUSH1 0x0 PUSH1 0x4 DUP3 ADD MSTORE PUSH1 0x24 SWAP1 REVERT JUMPDEST PUSH1 0x0 DUP1 REVERT JUMPDEST PUSH4 0x4E487B71 PUSH1 0xE0 SHL PUSH1 0x0 MSTORE PUSH1 0x41 PUSH1 0x4 MSTORE PUSH1 0x24 PUSH1 0x0 REVERT INVALID PUSH1 0x80 DUP1 PUSH1 0x40 MSTORE PUSH1 0x4 CALLDATASIZE LT ISZERO PUSH2 0x1D JUMPI JUMPDEST POP CALLDATASIZE ISZERO PUSH2 0x1B JUMPI PUSH1 0x0 DUP1 REVERT JUMPDEST STOP JUMPDEST PUSH1 0x0 CALLDATALOAD PUSH1 0xE0 SHR SWAP1 DUP2 PUSH4 0x24FA0D6 EQ PUSH2 0x1195 JUMPI POP DUP1 PUSH4 0x434D60C EQ PUSH2 0x1172 JUMPI DUP1 PUSH4 0xA3213DF EQ PUSH2 0xC2A JUMPI DUP1 PUSH4 0x11EAC855 EQ PUSH2 0xBE5 JUMPI DUP1 PUSH4 0x141B5F02 EQ PUSH2 0xBA7 JUMPI DUP1 PUSH4 0x1ED6C599 EQ PUSH2 0xA1B JUMPI DUP1 PUSH4 0x463B08DB EQ PUSH2 0x9FE JUMPI DUP1 PUSH4 0x4AA8A12D EQ PUSH2 0x978 JUMPI DUP1 PUSH4 0x50FD8E71 EQ PUSH2 0x839 JUMPI DUP1 PUSH4 0x5BF4B5C4 EQ PUSH2 0x7FB JUMPI DUP1 PUSH4 0x715018A6 EQ PUSH2 0x7A2 JUMPI DUP1 PUSH4 0x8DA5CB5B EQ PUSH2 0x779 JUMPI DUP1 PUSH4 0x902509C2 EQ PUSH2 0x649 JUMPI DUP1 PUSH4 0x956456D9 EQ PUSH2 0x5FE JUMPI DUP1 PUSH4 0xB3CD4254 EQ PUSH2 0x5E1 JUMPI DUP1 PUSH4 0xBB09D9B7 EQ PUSH2 0x5B2 JUMPI DUP1 PUSH4 0xBF704E66 EQ PUSH2 0x58C JUMPI DUP1 PUSH4 0xC5787690 EQ PUSH2 0x1C4 JUMPI DUP1 PUSH4 0xCE0769C5 EQ PUSH2 0x19B JUMPI PUSH4 0xF2FDE38B EQ PUSH2 0x106 JUMPI CODESIZE PUSH2 0xF JUMP JUMPDEST CALLVALUE PUSH2 0x196 JUMPI PUSH1 0x20 CALLDATASIZE PUSH1 0x3 NOT ADD SLT PUSH2 0x196 JUMPI PUSH1 0x4 CALLDATALOAD PUSH1 0x1 PUSH1 0x1 PUSH1 0xA0 SHL SUB DUP2 DUP2 AND SWAP2 DUP3 SWAP1 SUB PUSH2 0x196 JUMPI PUSH2 0x135 PUSH2 0x1450 JUMP JUMPDEST DUP2 ISZERO PUSH2 0x17D JUMPI PUSH1 0x0 SLOAD DUP3 PUSH12 0xFFFFFFFFFFFFFFFFFFFFFFFF PUSH1 0xA0 SHL DUP3 AND OR PUSH1 0x0 SSTORE AND PUSH32 0x8BE0079C531659141344CD1FD0A4F28419497F9722A3DAAFE3B4186F6B6457E0 PUSH1 0x0 DUP1 LOG3 STOP JUMPDEST PUSH1 0x40 MLOAD PUSH4 0x1E4FBDF7 PUSH1 0xE0 SHL DUP2 MSTORE PUSH1 0x0 PUSH1 0x4 DUP3 ADD MSTORE PUSH1 0x24 SWAP1 REVERT JUMPDEST PUSH1 0x0 DUP1 REVERT JUMPDEST CALLVALUE PUSH2 0x196 JUMPI PUSH1 0x0 CALLDATASIZE PUSH1 0x3 NOT ADD SLT PUSH2 0x196 JUMPI PUSH1 0x2 SLOAD PUSH1 0x40 MLOAD PUSH1 0x1 PUSH1 0x1 PUSH1 0xA0 SHL SUB SWAP1 SWAP2 AND DUP2 MSTORE PUSH1 0x20 SWAP1 RETURN JUMPDEST PUSH1 0x60 DUP1 PUSH1 0x3 NOT CALLDATASIZE ADD SLT PUSH2 0x196 JUMPI PUSH1 0x4 CALLDATALOAD PUSH1 0x1 PUSH1 0x1 PUSH1 0x40 SHL SUB DUP2 GT PUSH2 0x196 JUMPI PUSH2 0x1F0 SWAP1 CALLDATASIZE SWAP1 PUSH1 0x4 ADD PUSH2 0x1237 JUMP JUMPDEST SWAP1 PUSH1 0x44 CALLDATALOAD SWAP2 PUSH1 0x2 SWAP2 DUP3 DUP5 LT ISZERO PUSH2 0x196 JUMPI PUSH2 0x208 PUSH2 0x16D7 JUMP JUMPDEST PUSH1 0x40 MLOAD SWAP1 DUP2 DUP4 MLOAD PUSH1 0x20 SWAP4 DUP2 PUSH2 0x221 DUP7 SWAP4 DUP4 DUP6 DUP11 ADD PUSH2 0x1328 JUMP JUMPDEST DUP2 ADD PUSH1 0x5 DUP2 MSTORE SUB ADD SWAP1 KECCAK256 SWAP5 PUSH1 0xFF DUP6 DUP8 ADD SLOAD AND ISZERO PUSH2 0x547 JUMPI PUSH2 0x3C7 JUMPI POP CALLVALUE ISZERO PUSH2 0x395 JUMPI PUSH1 0x1 SWAP4 DUP5 ADD SWAP4 SWAP3 PUSH1 0x0 DUP5 JUMPDEST PUSH2 0x260 JUMPI JUMPDEST POP POP POP POP POP POP JUMPDEST PUSH1 0x1 DUP1 SSTORE STOP JUMPDEST DUP6 SLOAD DUP2 LT ISZERO PUSH2 0x390 JUMPI DUP1 PUSH2 0x280 PUSH2 0x27A PUSH2 0x2B1 SWAP4 DUP10 PUSH2 0x151C JUMP JUMPDEST POP PUSH2 0x1558 JUMP JUMPDEST PUSH1 0x1 DUP1 PUSH1 0xA0 SHL SUB DUP6 DUP2 DUP7 SLOAD AND DUP4 MLOAD SWAP1 PUSH1 0x40 MLOAD DUP1 DUP1 SWAP9 DUP2 SWAP5 PUSH4 0xD55A772D PUSH1 0xE0 SHL DUP4 MSTORE DUP7 PUSH1 0x4 DUP5 ADD MSTORE PUSH1 0x24 DUP4 ADD SWAP1 PUSH2 0x142B JUMP JUMPDEST SUB SWAP2 GAS STATICCALL SWAP2 DUP3 ISZERO PUSH2 0x384 JUMPI PUSH2 0x2E4 SWAP5 PUSH1 0x0 SWAP4 PUSH2 0x352 JUMPI JUMPDEST POP PUSH1 0x40 ADD MLOAD SWAP2 DUP3 ISZERO ISZERO DUP1 PUSH2 0x347 JUMPI JUMPDEST PUSH2 0x2EA JUMPI JUMPDEST POP POP POP PUSH2 0x14BA JUMP JUMPDEST DUP5 PUSH2 0x24E JUMP JUMPDEST AND SWAP1 DUP2 PUSH1 0x0 MSTORE PUSH1 0x3 DUP7 MSTORE PUSH1 0x40 PUSH1 0x0 KECCAK256 PUSH2 0x304 DUP3 DUP3 SLOAD PUSH2 0x1591 JUMP JUMPDEST SWAP1 SSTORE PUSH32 0xCB9F559E28915BE49DCCEEF3FD0E6953281BDD4EFE058DFF26DD513CA503799E PUSH1 0x40 PUSH2 0x332 DUP10 PUSH2 0x1538 JUMP JUMPDEST SWAP3 DUP2 MLOAD SWAP1 DUP2 MSTORE PUSH1 0x0 DUP10 DUP3 ADD MSTORE LOG3 DUP8 DUP1 DUP1 PUSH2 0x2DC JUMP JUMPDEST POP DUP2 DUP2 AND ISZERO ISZERO PUSH2 0x2D7 JUMP JUMPDEST PUSH1 0x40 SWAP2 SWAP4 POP PUSH2 0x376 SWAP1 DUP9 RETURNDATASIZE DUP11 GT PUSH2 0x37D JUMPI JUMPDEST PUSH2 0x36E DUP2 DUP4 PUSH2 0x11FB JUMP JUMPDEST DUP2 ADD SWAP1 PUSH2 0x16B8 JUMP JUMPDEST SWAP3 SWAP1 PUSH2 0x2C8 JUMP JUMPDEST POP RETURNDATASIZE PUSH2 0x364 JUMP JUMPDEST PUSH1 0x40 MLOAD RETURNDATASIZE PUSH1 0x0 DUP3 RETURNDATACOPY RETURNDATASIZE SWAP1 REVERT JUMPDEST PUSH2 0x253 JUMP JUMPDEST PUSH1 0x64 SWAP1 PUSH1 0x40 MLOAD SWAP1 PUSH3 0x461BCD PUSH1 0xE5 SHL DUP3 MSTORE PUSH1 0x4 DUP3 ADD MSTORE PUSH1 0xB PUSH1 0x24 DUP3 ADD MSTORE PUSH11 0x139BC8115512081CD95B9D PUSH1 0xAA SHL PUSH1 0x44 DUP3 ADD MSTORE REVERT JUMPDEST CALLVALUE PUSH2 0x4F7 JUMPI PUSH1 0x1 SWAP5 DUP6 ADD SWAP5 SWAP4 PUSH1 0x0 DUP6 JUMPDEST PUSH2 0x3E8 JUMPI JUMPDEST POP POP POP POP POP POP POP PUSH2 0x25A JUMP JUMPDEST DUP7 SLOAD DUP2 LT ISZERO PUSH2 0x4F2 JUMPI PUSH2 0x3FE PUSH2 0x27A DUP3 DUP10 PUSH2 0x151C JUMP JUMPDEST SWAP1 PUSH2 0x433 PUSH1 0x1 DUP1 PUSH1 0xA0 SHL SUB DUP7 DUP2 DUP7 SLOAD AND DUP6 MLOAD SWAP1 PUSH1 0x40 MLOAD DUP1 DUP1 SWAP7 DUP2 SWAP5 PUSH4 0xD55A772D PUSH1 0xE0 SHL DUP4 MSTORE DUP7 PUSH1 0x4 DUP5 ADD MSTORE PUSH1 0x24 DUP4 ADD SWAP1 PUSH2 0x142B JUMP JUMPDEST SUB SWAP2 GAS STATICCALL SWAP2 DUP3 ISZERO PUSH2 0x384 JUMPI PUSH2 0x465 SWAP5 DUP8 SWAP2 PUSH1 0x0 SWAP5 PUSH2 0x4D3 JUMPI JUMPDEST POP ADD MLOAD SWAP2 DUP3 ISZERO ISZERO DUP1 PUSH2 0x4C8 JUMPI JUMPDEST PUSH2 0x46B JUMPI POP POP POP PUSH2 0x14BA JUMP JUMPDEST DUP6 PUSH2 0x3D7 JUMP JUMPDEST AND SWAP1 DUP2 PUSH1 0x0 MSTORE PUSH1 0x4 DUP8 MSTORE PUSH1 0x40 PUSH1 0x0 KECCAK256 PUSH2 0x485 DUP3 DUP3 SLOAD PUSH2 0x1591 JUMP JUMPDEST SWAP1 SSTORE PUSH32 0xCB9F559E28915BE49DCCEEF3FD0E6953281BDD4EFE058DFF26DD513CA503799E PUSH1 0x40 PUSH2 0x4B3 DUP11 PUSH2 0x1538 JUMP JUMPDEST SWAP3 DUP2 MLOAD SWAP1 PUSH1 0x0 DUP3 MSTORE DUP11 DUP3 ADD MSTORE LOG3 DUP9 DUP1 DUP1 PUSH2 0x2DC JUMP JUMPDEST POP DUP2 DUP2 AND ISZERO ISZERO PUSH2 0x459 JUMP JUMPDEST PUSH2 0x4EB SWAP2 SWAP5 POP DUP10 RETURNDATASIZE DUP12 GT PUSH2 0x37D JUMPI PUSH2 0x36E DUP2 DUP4 PUSH2 0x11FB JUMP JUMPDEST SWAP3 DUP13 PUSH2 0x44C JUMP JUMPDEST PUSH2 0x3DC JUMP JUMPDEST PUSH1 0x40 MLOAD PUSH3 0x461BCD PUSH1 0xE5 SHL DUP2 MSTORE PUSH1 0x4 DUP2 ADD DUP4 SWAP1 MSTORE PUSH1 0x22 PUSH1 0x24 DUP3 ADD MSTORE PUSH32 0x446F206E6F742073656E642045544820666F72205553444320726F79616C7469 PUSH1 0x44 DUP3 ADD MSTORE PUSH2 0x6573 PUSH1 0xF0 SHL PUSH1 0x64 DUP3 ADD MSTORE PUSH1 0x84 SWAP1 REVERT JUMPDEST PUSH1 0x40 MLOAD PUSH3 0x461BCD PUSH1 0xE5 SHL DUP2 MSTORE PUSH1 0x4 DUP2 ADD DUP5 SWAP1 MSTORE PUSH1 0x1D PUSH1 0x24 DUP3 ADD MSTORE PUSH32 0x4E6F20726F79616C7469657320666F7220746869732070726F6A656374000000 PUSH1 0x44 DUP3 ADD MSTORE PUSH1 0x64 SWAP1 REVERT JUMPDEST CALLVALUE PUSH2 0x196 JUMPI PUSH1 0x40 PUSH2 0x5A6 PUSH2 0x59F CALLDATASIZE PUSH2 0x127E JUMP JUMPDEST POP POP PUSH2 0x159E JUMP JUMPDEST DUP3 MLOAD SWAP2 DUP3 MSTORE PUSH1 0x20 DUP3 ADD MSTORE RETURN JUMPDEST CALLVALUE PUSH2 0x196 JUMPI PUSH1 0x0 CALLDATASIZE PUSH1 0x3 NOT ADD SLT PUSH2 0x196 JUMPI PUSH1 0x20 PUSH1 0x40 MLOAD PUSH20 0x833589FCD6EDB6E08F4C7C32D4F71B54BDA02913 DUP2 MSTORE RETURN JUMPDEST CALLVALUE PUSH2 0x196 JUMPI PUSH1 0x0 CALLDATASIZE PUSH1 0x3 NOT ADD SLT PUSH2 0x196 JUMPI PUSH1 0x20 PUSH1 0x40 MLOAD PUSH2 0x2710 DUP2 MSTORE RETURN JUMPDEST CALLVALUE PUSH2 0x196 JUMPI PUSH1 0x20 CALLDATASIZE PUSH1 0x3 NOT ADD SLT PUSH2 0x196 JUMPI PUSH1 0x4 CALLDATALOAD PUSH1 0x1 PUSH1 0x1 PUSH1 0xA0 SHL SUB DUP2 AND SWAP1 DUP2 SWAP1 SUB PUSH2 0x196 JUMPI PUSH2 0x62C PUSH2 0x1450 JUMP JUMPDEST PUSH12 0xFFFFFFFFFFFFFFFFFFFFFFFF PUSH1 0xA0 SHL PUSH1 0x2 SLOAD AND OR PUSH1 0x2 SSTORE PUSH1 0x0 DUP1 RETURN JUMPDEST CALLVALUE PUSH2 0x196 JUMPI PUSH1 0x0 CALLDATASIZE PUSH1 0x3 NOT ADD SLT PUSH2 0x196 JUMPI PUSH2 0x662 PUSH2 0x16D7 JUMP JUMPDEST CALLER PUSH1 0x0 MSTORE PUSH1 0x20 PUSH1 0x3 DUP2 MSTORE PUSH1 0x40 PUSH1 0x0 KECCAK256 SLOAD SWAP1 DUP2 ISZERO PUSH2 0x735 JUMPI CALLER PUSH1 0x0 MSTORE PUSH1 0x3 DUP2 MSTORE PUSH1 0x0 PUSH1 0x40 DUP2 KECCAK256 SSTORE PUSH1 0x0 DUP1 DUP1 DUP1 DUP6 CALLER GAS CALL RETURNDATASIZE ISZERO PUSH2 0x730 JUMPI RETURNDATASIZE PUSH2 0x6A1 DUP2 PUSH2 0x121C JUMP JUMPDEST SWAP1 PUSH2 0x6AF PUSH1 0x40 MLOAD SWAP3 DUP4 PUSH2 0x11FB JUMP JUMPDEST DUP2 MSTORE PUSH1 0x0 DUP4 RETURNDATASIZE SWAP3 ADD RETURNDATACOPY JUMPDEST ISZERO PUSH2 0x6F6 JUMPI PUSH1 0x0 SWAP1 PUSH1 0x40 MLOAD SWAP3 DUP4 MSTORE DUP3 ADD MSTORE PUSH32 0x6FE778711F06CA052305B633BA1B304F4D71C1523776F2AA3059D8D99F5420DE PUSH1 0x40 CALLER SWAP3 LOG2 PUSH1 0x1 DUP1 SSTORE STOP JUMPDEST PUSH1 0x64 SWAP1 PUSH1 0x40 MLOAD SWAP1 PUSH3 0x461BCD PUSH1 0xE5 SHL DUP3 MSTORE PUSH1 0x4 DUP3 ADD MSTORE PUSH1 0x13 PUSH1 0x24 DUP3 ADD MSTORE PUSH19 0x115512081D1C985B9CD9995C8819985A5B1959 PUSH1 0x6A SHL PUSH1 0x44 DUP3 ADD MSTORE REVERT JUMPDEST PUSH2 0x6B9 JUMP JUMPDEST PUSH1 0x64 SWAP1 PUSH1 0x40 MLOAD SWAP1 PUSH3 0x461BCD PUSH1 0xE5 SHL DUP3 MSTORE PUSH1 0x4 DUP3 ADD MSTORE PUSH1 0x18 PUSH1 0x24 DUP3 ADD MSTORE PUSH32 0x4E6F2070656E64696E672045544820726F79616C746965730000000000000000 PUSH1 0x44 DUP3 ADD MSTORE REVERT JUMPDEST CALLVALUE PUSH2 0x196 JUMPI PUSH1 0x0 CALLDATASIZE PUSH1 0x3 NOT ADD SLT PUSH2 0x196 JUMPI PUSH1 0x0 SLOAD PUSH1 0x40 MLOAD PUSH1 0x1 PUSH1 0x1 PUSH1 0xA0 SHL SUB SWAP1 SWAP2 AND DUP2 MSTORE PUSH1 0x20 SWAP1 RETURN JUMPDEST CALLVALUE PUSH2 0x196 JUMPI PUSH1 0x0 CALLDATASIZE PUSH1 0x3 NOT ADD SLT PUSH2 0x196 JUMPI PUSH2 0x7BB PUSH2 0x1450 JUMP JUMPDEST PUSH1 0x0 DUP1 SLOAD PUSH1 0x1 PUSH1 0x1 PUSH1 0xA0 SHL SUB NOT DUP2 AND DUP3 SSTORE PUSH1 0x1 PUSH1 0x1 PUSH1 0xA0 SHL SUB AND PUSH32 0x8BE0079C531659141344CD1FD0A4F28419497F9722A3DAAFE3B4186F6B6457E0 DUP3 DUP1 LOG3 STOP JUMPDEST CALLVALUE PUSH2 0x196 JUMPI PUSH1 0x20 CALLDATASIZE PUSH1 0x3 NOT ADD SLT PUSH2 0x196 JUMPI PUSH1 0x4 CALLDATALOAD PUSH1 0x1 PUSH1 0x1 PUSH1 0xA0 SHL SUB DUP2 AND SWAP1 DUP2 SWAP1 SUB PUSH2 0x196 JUMPI PUSH1 0x0 MSTORE PUSH1 0x4 PUSH1 0x20 MSTORE PUSH1 0x20 PUSH1 0x40 PUSH1 0x0 KECCAK256 SLOAD PUSH1 0x40 MLOAD SWAP1 DUP2 MSTORE RETURN JUMPDEST CALLVALUE PUSH2 0x196 JUMPI PUSH1 0x20 DUP1 PUSH1 0x3 NOT CALLDATASIZE ADD SLT PUSH2 0x196 JUMPI PUSH1 0x4 CALLDATALOAD PUSH1 0x1 PUSH1 0x1 PUSH1 0x40 SHL SUB DUP2 GT PUSH2 0x196 JUMPI PUSH2 0x86A SWAP1 CALLDATASIZE SWAP1 PUSH1 0x4 ADD PUSH2 0x1237 JUMP JUMPDEST SWAP1 DUP1 PUSH2 0x87F PUSH1 0x40 MLOAD SWAP4 DUP5 DUP2 MLOAD SWAP4 DUP5 SWAP3 ADD PUSH2 0x1328 JUMP JUMPDEST DUP3 ADD PUSH1 0x5 DUP2 MSTORE DUP3 DUP3 PUSH1 0x1 SWAP5 DUP6 SWAP4 SUB ADD SWAP1 KECCAK256 ADD DUP1 SLOAD SWAP2 PUSH2 0x89D DUP4 PUSH2 0x12B3 JUMP JUMPDEST SWAP3 PUSH2 0x8AB PUSH1 0x40 MLOAD SWAP5 DUP6 PUSH2 0x11FB JUMP JUMPDEST DUP1 DUP5 MSTORE DUP2 DUP5 ADD DUP1 SWAP4 PUSH1 0x0 MSTORE DUP3 PUSH1 0x0 KECCAK256 PUSH1 0x0 SWAP2 JUMPDEST DUP4 DUP4 LT PUSH2 0x953 JUMPI POP POP POP POP PUSH1 0x40 MLOAD SWAP4 DUP5 SWAP4 DUP3 DUP6 ADD SWAP1 DUP4 DUP7 MSTORE MLOAD DUP1 SWAP2 MSTORE PUSH1 0x40 DUP6 ADD SWAP3 PUSH1 0x40 DUP3 PUSH1 0x5 SHL DUP8 ADD ADD SWAP5 SWAP4 PUSH1 0x0 SWAP1 JUMPDEST DUP4 DUP3 LT PUSH2 0x8FB JUMPI DUP8 DUP8 SUB DUP9 RETURN JUMPDEST SWAP2 DUP5 SWAP7 DUP2 SWAP6 SWAP3 SWAP5 SWAP7 SWAP9 POP DUP2 SWAP1 PUSH1 0x3F NOT DUP12 DUP3 SUB ADD DUP6 MSTORE DUP10 MLOAD SWAP1 PUSH2 0x925 DUP3 MLOAD PUSH1 0x80 DUP1 DUP5 MSTORE DUP4 ADD SWAP1 PUSH2 0x142B JUMP JUMPDEST SWAP2 DUP4 DUP2 ADD MLOAD DUP5 DUP4 ADD MSTORE PUSH1 0x40 DUP2 ADD MLOAD PUSH1 0x40 DUP4 ADD MSTORE PUSH1 0x60 DUP1 SWAP2 ADD MLOAD SWAP2 ADD MSTORE SWAP9 ADD SWAP3 ADD SWAP3 ADD DUP8 SWAP7 SWAP6 SWAP4 SWAP2 SWAP5 SWAP3 PUSH2 0x8EE JUMP JUMPDEST SWAP7 PUSH1 0x4 DUP6 DUP3 SWAP8 SWAP9 SWAP7 SWAP10 PUSH2 0x965 DUP6 PUSH2 0x1558 JUMP JUMPDEST DUP2 MSTORE ADD SWAP3 ADD SWAP3 ADD SWAP2 SWAP1 SWAP7 SWAP4 SWAP6 SWAP5 SWAP7 PUSH2 0x8BE JUMP JUMPDEST CALLVALUE PUSH2 0x196 JUMPI PUSH1 0x20 CALLDATASIZE PUSH1 0x3 NOT ADD SLT PUSH2 0x196 JUMPI PUSH1 0x4 CALLDATALOAD PUSH1 0x1 PUSH1 0x1 PUSH1 0x40 SHL SUB DUP2 GT PUSH2 0x196 JUMPI PUSH2 0x9C3 PUSH1 0x20 PUSH2 0x9B0 PUSH2 0x9F2 SWAP4 CALLDATASIZE SWAP1 PUSH1 0x4 ADD PUSH2 0x1237 JUMP JUMPDEST DUP2 PUSH1 0x40 MLOAD SWAP4 DUP3 DUP6 DUP1 SWAP5 MLOAD SWAP4 DUP5 SWAP3 ADD PUSH2 0x1328 JUMP JUMPDEST DUP2 ADD PUSH1 0x5 DUP2 MSTORE SUB ADD SWAP1 KECCAK256 PUSH1 0xFF PUSH1 0x2 PUSH2 0x9DA DUP4 PUSH2 0x1385 JUMP JUMPDEST SWAP3 ADD SLOAD AND PUSH1 0x40 MLOAD SWAP3 DUP4 SWAP3 PUSH1 0x40 DUP5 MSTORE PUSH1 0x40 DUP5 ADD SWAP1 PUSH2 0x142B JUMP JUMPDEST SWAP1 ISZERO ISZERO PUSH1 0x20 DUP4 ADD MSTORE SUB SWAP1 RETURN JUMPDEST CALLVALUE PUSH2 0x196 JUMPI PUSH1 0x0 CALLDATASIZE PUSH1 0x3 NOT ADD SLT PUSH2 0x196 JUMPI PUSH1 0x20 PUSH1 0x40 MLOAD PUSH2 0x3E8 DUP2 MSTORE RETURN JUMPDEST CALLVALUE PUSH2 0x196 JUMPI PUSH1 0x0 CALLDATASIZE PUSH1 0x3 NOT ADD SLT PUSH2 0x196 JUMPI PUSH2 0xA34 PUSH2 0x16D7 JUMP JUMPDEST CALLER PUSH1 0x0 MSTORE PUSH1 0x20 PUSH1 0x4 DUP2 MSTORE PUSH1 0x40 PUSH1 0x0 KECCAK256 SLOAD DUP1 ISZERO PUSH2 0xB62 JUMPI CALLER PUSH1 0x0 MSTORE PUSH1 0x4 DUP3 MSTORE PUSH1 0x0 PUSH1 0x40 DUP2 KECCAK256 SSTORE PUSH1 0x40 MLOAD PUSH4 0xA9059CBB PUSH1 0xE0 SHL DUP2 MSTORE CALLER PUSH1 0x4 DUP3 ADD MSTORE DUP2 PUSH1 0x24 DUP3 ADD MSTORE DUP3 DUP2 PUSH1 0x44 DUP2 PUSH1 0x0 PUSH1 0x1 DUP1 PUSH1 0xA0 SHL SUB PUSH32 0x0 AND GAS CALL SWAP1 DUP2 ISZERO PUSH2 0x384 JUMPI PUSH1 0x0 SWAP2 PUSH2 0xB2C JUMPI JUMPDEST POP ISZERO PUSH2 0xAF0 JUMPI PUSH1 0x40 MLOAD SWAP2 PUSH1 0x0 DUP4 MSTORE DUP3 ADD MSTORE PUSH32 0x6FE778711F06CA052305B633BA1B304F4D71C1523776F2AA3059D8D99F5420DE PUSH1 0x40 CALLER SWAP3 LOG2 PUSH1 0x1 DUP1 SSTORE STOP JUMPDEST PUSH1 0x40 MLOAD PUSH3 0x461BCD PUSH1 0xE5 SHL DUP2 MSTORE PUSH1 0x4 DUP2 ADD DUP4 SWAP1 MSTORE PUSH1 0x14 PUSH1 0x24 DUP3 ADD MSTORE PUSH20 0x1554D110C81D1C985B9CD9995C8819985A5B1959 PUSH1 0x62 SHL PUSH1 0x44 DUP3 ADD MSTORE PUSH1 0x64 SWAP1 REVERT JUMPDEST SWAP1 POP DUP3 DUP2 DUP2 RETURNDATASIZE DUP4 GT PUSH2 0xB5B JUMPI JUMPDEST PUSH2 0xB43 DUP2 DUP4 PUSH2 0x11FB JUMP JUMPDEST DUP2 ADD SUB SLT PUSH2 0x196 JUMPI MLOAD DUP1 ISZERO ISZERO DUP2 SUB PUSH2 0x196 JUMPI DUP4 PUSH2 0xAB3 JUMP JUMPDEST POP RETURNDATASIZE PUSH2 0xB39 JUMP JUMPDEST PUSH1 0x40 MLOAD PUSH3 0x461BCD PUSH1 0xE5 SHL DUP2 MSTORE PUSH1 0x4 DUP2 ADD DUP4 SWAP1 MSTORE PUSH1 0x19 PUSH1 0x24 DUP3 ADD MSTORE PUSH32 0x4E6F2070656E64696E67205553444320726F79616C7469657300000000000000 PUSH1 0x44 DUP3 ADD MSTORE PUSH1 0x64 SWAP1 REVERT JUMPDEST CALLVALUE PUSH2 0x196 JUMPI PUSH1 0x20 CALLDATASIZE PUSH1 0x3 NOT ADD SLT PUSH2 0x196 JUMPI PUSH1 0x4 CALLDATALOAD PUSH1 0x1 PUSH1 0x1 PUSH1 0xA0 SHL SUB DUP2 AND SWAP1 DUP2 SWAP1 SUB PUSH2 0x196 JUMPI PUSH1 0x0 MSTORE PUSH1 0x3 PUSH1 0x20 MSTORE PUSH1 0x20 PUSH1 0x40 PUSH1 0x0 KECCAK256 SLOAD PUSH1 0x40 MLOAD SWAP1 DUP2 MSTORE RETURN JUMPDEST CALLVALUE PUSH2 0x196 JUMPI PUSH1 0x0 CALLDATASIZE PUSH1 0x3 NOT ADD SLT PUSH2 0x196 JUMPI PUSH1 0x40 MLOAD PUSH32 0x0 PUSH1 0x1 PUSH1 0x1 PUSH1 0xA0 SHL SUB AND DUP2 MSTORE PUSH1 0x20 SWAP1 RETURN JUMPDEST CALLVALUE PUSH2 0x196 JUMPI PUSH1 0xA0 CALLDATASIZE PUSH1 0x3 NOT ADD SLT PUSH2 0x196 JUMPI PUSH1 0x4 CALLDATALOAD PUSH1 0x1 PUSH1 0x1 PUSH1 0x40 SHL SUB DUP2 GT PUSH2 0x196 JUMPI PUSH2 0xC5A SWAP1 CALLDATASIZE SWAP1 PUSH1 0x4 ADD PUSH2 0x1237 JUMP JUMPDEST PUSH1 0x24 CALLDATALOAD SWAP1 PUSH1 0x1 PUSH1 0x1 PUSH1 0x40 SHL SUB DUP3 GT PUSH2 0x196 JUMPI CALLDATASIZE PUSH1 0x23 DUP4 ADD SLT ISZERO PUSH2 0x196 JUMPI DUP2 PUSH1 0x4 ADD CALLDATALOAD PUSH2 0xC85 DUP2 PUSH2 0x12B3 JUMP JUMPDEST SWAP3 PUSH2 0xC93 PUSH1 0x40 MLOAD SWAP5 DUP6 PUSH2 0x11FB JUMP JUMPDEST DUP2 DUP5 MSTORE PUSH1 0x24 PUSH1 0x20 DUP6 ADD SWAP3 PUSH1 0x5 SHL DUP3 ADD ADD SWAP1 CALLDATASIZE DUP3 GT PUSH2 0x196 JUMPI PUSH1 0x24 DUP2 ADD SWAP3 JUMPDEST DUP3 DUP5 LT PUSH2 0x1143 JUMPI DUP6 DUP6 PUSH1 0x44 CALLDATALOAD PUSH1 0x1 PUSH1 0x1 PUSH1 0x40 SHL SUB DUP2 GT PUSH2 0x196 JUMPI PUSH2 0xCD9 SWAP1 CALLDATASIZE SWAP1 PUSH1 0x4 ADD PUSH2 0x12CA JUMP JUMPDEST PUSH1 0x64 CALLDATALOAD PUSH1 0x1 PUSH1 0x1 PUSH1 0x40 SHL SUB DUP2 GT PUSH2 0x196 JUMPI PUSH2 0xCF8 SWAP1 CALLDATASIZE SWAP1 PUSH1 0x4 ADD PUSH2 0x12CA JUMP JUMPDEST SWAP3 PUSH1 0x84 CALLDATALOAD PUSH1 0x1 PUSH1 0x1 PUSH1 0x40 SHL SUB DUP2 GT PUSH2 0x196 JUMPI PUSH2 0xD18 SWAP1 CALLDATASIZE SWAP1 PUSH1 0x4 ADD PUSH2 0x12CA JUMP JUMPDEST SWAP4 PUSH2 0xD26 DUP3 MLOAD DUP7 MLOAD EQ PUSH2 0x147C JUMP JUMPDEST PUSH2 0xD33 DUP3 MLOAD DUP5 MLOAD EQ PUSH2 0x147C JUMP JUMPDEST PUSH2 0xD40 DUP3 MLOAD DUP3 MLOAD EQ PUSH2 0x147C JUMP JUMPDEST PUSH1 0x40 MLOAD PUSH1 0xFF PUSH1 0x2 DUP7 MLOAD SWAP3 PUSH1 0x20 DUP2 DUP2 DUP11 ADD SWAP6 PUSH2 0xD5C DUP2 DUP4 DUP10 PUSH2 0x1328 JUMP JUMPDEST DUP2 ADD PUSH1 0x5 DUP2 MSTORE SUB ADD SWAP1 KECCAK256 ADD SLOAD AND PUSH2 0x10FE JUMPI PUSH1 0x20 PUSH2 0xD84 SWAP2 PUSH1 0x40 MLOAD DUP1 SWAP4 DUP2 SWAP3 DUP10 MLOAD SWAP3 DUP4 SWAP2 PUSH2 0x1328 JUMP JUMPDEST DUP2 ADD PUSH1 0x5 DUP2 MSTORE SUB ADD SWAP1 KECCAK256 SWAP3 DUP5 MLOAD PUSH1 0x1 PUSH1 0x1 PUSH1 0x40 SHL SUB DUP2 GT PUSH2 0xFE4 JUMPI PUSH2 0xDA9 DUP6 SLOAD PUSH2 0x134B JUMP JUMPDEST PUSH1 0x1F DUP2 GT PUSH2 0x10BA JUMPI JUMPDEST POP DUP1 PUSH1 0x20 PUSH1 0x1F DUP3 GT PUSH1 0x1 EQ PUSH2 0x1053 JUMPI PUSH1 0x0 SWAP2 PUSH2 0x1048 JUMPI JUMPDEST POP DUP2 PUSH1 0x1 SHL SWAP2 PUSH1 0x0 NOT SWAP1 PUSH1 0x3 SHL SHR NOT AND OR DUP5 SSTORE JUMPDEST PUSH1 0x2 DUP5 ADD DUP1 SLOAD PUSH1 0xFF NOT AND PUSH1 0x1 OR SWAP1 SSTORE PUSH1 0x0 JUMPDEST DUP4 MLOAD DUP2 LT ISZERO PUSH2 0x1010 JUMPI PUSH2 0xE1D PUSH2 0xE05 DUP3 DUP5 PUSH2 0x14DF JUMP JUMPDEST MLOAD PUSH2 0x2710 SWAP2 DUP3 SWAP2 PUSH2 0xE16 DUP6 DUP13 PUSH2 0x14DF JUMP JUMPDEST MLOAD SWAP1 PUSH2 0x1509 JUMP JUMPDEST DIV SWAP1 PUSH2 0xE37 PUSH2 0xE2C DUP5 DUP8 PUSH2 0x14DF JUMP JUMPDEST MLOAD PUSH2 0xE16 DUP6 DUP13 PUSH2 0x14DF JUMP JUMPDEST DIV PUSH2 0xE42 DUP4 DUP8 PUSH2 0x14DF JUMP JUMPDEST MLOAD SWAP2 PUSH2 0xE4E DUP5 DUP12 PUSH2 0x14DF JUMP JUMPDEST MLOAD PUSH1 0x40 MLOAD SWAP4 PUSH2 0xE5C DUP6 PUSH2 0x11E0 JUMP JUMPDEST DUP5 MSTORE PUSH1 0x20 DUP5 ADD MSTORE PUSH1 0x40 DUP4 ADD MSTORE PUSH1 0x60 DUP3 ADD MSTORE PUSH1 0x1 DUP7 ADD SLOAD PUSH9 0x10000000000000000 DUP2 LT ISZERO PUSH2 0xFE4 JUMPI DUP1 PUSH1 0x1 PUSH2 0xE99 SWAP3 ADD PUSH1 0x1 DUP10 ADD SSTORE PUSH1 0x1 DUP9 ADD PUSH2 0x151C JUMP JUMPDEST SWAP2 SWAP1 SWAP2 PUSH2 0xFFA JUMPI DUP1 MLOAD DUP1 MLOAD SWAP1 PUSH1 0x1 PUSH1 0x1 PUSH1 0x40 SHL SUB DUP3 GT PUSH2 0xFE4 JUMPI PUSH2 0xEBD DUP5 SLOAD PUSH2 0x134B JUMP JUMPDEST PUSH1 0x1F DUP2 GT PUSH2 0xFA0 JUMPI JUMPDEST POP PUSH1 0x20 SWAP1 PUSH1 0x1F DUP4 GT PUSH1 0x1 EQ PUSH2 0xF2D JUMPI SWAP3 DUP3 PUSH1 0x3 SWAP4 PUSH1 0x60 SWAP4 PUSH2 0xF1D SWAP9 SWAP8 SWAP7 PUSH1 0x0 SWAP3 PUSH2 0xF22 JUMPI JUMPDEST POP POP DUP2 PUSH1 0x1 SHL SWAP2 PUSH1 0x0 NOT SWAP1 DUP7 SHL SHR NOT AND OR DUP5 SSTORE JUMPDEST PUSH1 0x20 DUP2 ADD MLOAD PUSH1 0x1 DUP6 ADD SSTORE PUSH1 0x40 DUP2 ADD MLOAD PUSH1 0x2 DUP6 ADD SSTORE ADD MLOAD SWAP2 ADD SSTORE PUSH2 0x14BA JUMP JUMPDEST PUSH2 0xDEF JUMP JUMPDEST ADD MLOAD SWAP1 POP DUP15 DUP1 PUSH2 0xEEB JUMP JUMPDEST SWAP1 DUP5 PUSH1 0x0 MSTORE PUSH1 0x20 PUSH1 0x0 KECCAK256 SWAP2 PUSH1 0x0 JUMPDEST PUSH1 0x1F NOT DUP6 AND DUP2 LT PUSH2 0xF88 JUMPI POP DUP4 PUSH1 0x60 SWAP4 PUSH2 0xF1D SWAP9 SWAP8 SWAP7 SWAP4 PUSH1 0x1 SWAP4 PUSH1 0x3 SWAP8 PUSH1 0x1F NOT DUP2 AND LT PUSH2 0xF70 JUMPI JUMPDEST POP POP POP DUP2 SHL ADD DUP5 SSTORE PUSH2 0xEFF JUMP JUMPDEST ADD MLOAD PUSH1 0x0 NOT DUP4 DUP9 SHL PUSH1 0xF8 AND SHR NOT AND SWAP1 SSTORE DUP15 DUP1 DUP1 PUSH2 0xF63 JUMP JUMPDEST SWAP2 SWAP3 PUSH1 0x20 PUSH1 0x1 DUP2 SWAP3 DUP7 DUP6 ADD MLOAD DUP2 SSTORE ADD SWAP5 ADD SWAP3 ADD PUSH2 0xF3B JUMP JUMPDEST DUP5 PUSH1 0x0 MSTORE PUSH1 0x20 PUSH1 0x0 KECCAK256 PUSH1 0x1F DUP5 ADD PUSH1 0x5 SHR DUP2 ADD PUSH1 0x20 DUP6 LT PUSH2 0xFDD JUMPI JUMPDEST PUSH1 0x1F DUP4 ADD PUSH1 0x5 SHR DUP3 ADD DUP2 LT PUSH2 0xFD1 JUMPI POP POP PUSH2 0xEC6 JUMP JUMPDEST PUSH1 0x0 DUP2 SSTORE PUSH1 0x1 ADD PUSH2 0xFBB JUMP JUMPDEST POP DUP1 PUSH2 0xFBB JUMP JUMPDEST PUSH4 0x4E487B71 PUSH1 0xE0 SHL PUSH1 0x0 MSTORE PUSH1 0x41 PUSH1 0x4 MSTORE PUSH1 0x24 PUSH1 0x0 REVERT JUMPDEST PUSH4 0x4E487B71 PUSH1 0xE0 SHL PUSH1 0x0 MSTORE PUSH1 0x0 PUSH1 0x4 MSTORE PUSH1 0x24 PUSH1 0x0 REVERT JUMPDEST DUP4 MLOAD PUSH32 0x92DA81CC62C0EFA31ECF38ECBDD2FB28ADD3E9AF1063DDE557CB388D8F9B3EF2 PUSH1 0x20 PUSH2 0x103E DUP10 PUSH2 0x1538 JUMP JUMPDEST SWAP3 PUSH1 0x40 MLOAD SWAP1 DUP2 MSTORE LOG2 STOP JUMPDEST SWAP1 POP DUP7 ADD MLOAD DUP9 PUSH2 0xDC9 JUMP JUMPDEST SWAP2 POP DUP6 PUSH1 0x0 MSTORE PUSH1 0x20 PUSH1 0x0 KECCAK256 PUSH1 0x0 SWAP3 JUMPDEST PUSH1 0x1F NOT DUP4 AND DUP5 LT PUSH2 0x10A2 JUMPI PUSH1 0x1 SWAP4 POP DUP3 PUSH1 0x1F NOT DUP2 AND LT PUSH2 0x1089 JUMPI JUMPDEST POP POP DUP2 SHL ADD DUP5 SSTORE PUSH2 0xDDD JUMP JUMPDEST DUP9 ADD MLOAD PUSH1 0x0 NOT PUSH1 0xF8 DUP5 PUSH1 0x3 SHL AND SHR NOT AND SWAP1 SSTORE DUP9 DUP1 PUSH2 0x107D JUMP JUMPDEST DUP9 DUP2 ADD MLOAD DUP3 SSTORE PUSH1 0x20 SWAP4 DUP5 ADD SWAP4 PUSH1 0x1 SWAP1 SWAP3 ADD SWAP2 ADD PUSH2 0x1062 JUMP JUMPDEST DUP6 PUSH1 0x0 MSTORE PUSH1 0x20 PUSH1 0x0 KECCAK256 PUSH1 0x1F DUP4 ADD PUSH1 0x5 SHR DUP2 ADD PUSH1 0x20 DUP5 LT PUSH2 0x10F7 JUMPI JUMPDEST PUSH1 0x1F DUP4 ADD PUSH1 0x5 SHR DUP3 ADD DUP2 LT PUSH2 0x10EB JUMPI POP POP PUSH2 0xDB2 JUMP JUMPDEST PUSH1 0x0 DUP2 SSTORE PUSH1 0x1 ADD PUSH2 0x10D5 JUMP JUMPDEST POP DUP1 PUSH2 0x10D5 JUMP JUMPDEST PUSH1 0x40 MLOAD PUSH3 0x461BCD PUSH1 0xE5 SHL DUP2 MSTORE PUSH1 0x20 PUSH1 0x4 DUP3 ADD MSTORE PUSH1 0x1C PUSH1 0x24 DUP3 ADD MSTORE PUSH32 0x526F79616C7469657320616C7265616479207265676973746572656400000000 PUSH1 0x44 DUP3 ADD MSTORE PUSH1 0x64 SWAP1 REVERT JUMPDEST DUP4 CALLDATALOAD PUSH1 0x1 PUSH1 0x1 PUSH1 0x40 SHL SUB DUP2 GT PUSH2 0x196 JUMPI PUSH1 0x20 SWAP2 PUSH2 0x1167 DUP4 SWAP3 PUSH1 0x24 CALLDATASIZE SWAP2 DUP8 ADD ADD PUSH2 0x1237 JUMP JUMPDEST DUP2 MSTORE ADD SWAP4 ADD SWAP3 PUSH2 0xCB1 JUMP JUMPDEST CALLVALUE PUSH2 0x196 JUMPI PUSH1 0x20 PUSH2 0x118B PUSH2 0x1185 CALLDATASIZE PUSH2 0x127E JUMP JUMPDEST SWAP2 PUSH2 0x163B JUMP JUMPDEST PUSH1 0x40 MLOAD SWAP1 ISZERO ISZERO DUP2 MSTORE RETURN JUMPDEST CALLVALUE PUSH2 0x196 JUMPI PUSH1 0x20 CALLDATASIZE PUSH1 0x3 NOT ADD SLT PUSH2 0x196 JUMPI PUSH1 0x4 CALLDATALOAD PUSH1 0x1 PUSH1 0x1 PUSH1 0xA0 SHL SUB DUP2 AND SWAP2 SWAP1 DUP3 SWAP1 SUB PUSH2 0x196 JUMPI PUSH1 0x40 SWAP2 PUSH1 0x0 MSTORE PUSH1 0x3 PUSH1 0x20 MSTORE DUP2 PUSH1 0x0 KECCAK256 SLOAD PUSH1 0x4 PUSH1 0x20 MSTORE DUP3 PUSH1 0x0 KECCAK256 SLOAD SWAP1 DUP3 MSTORE PUSH1 0x20 DUP3 ADD MSTORE RETURN JUMPDEST PUSH1 0x80 DUP2 ADD SWAP1 DUP2 LT PUSH1 0x1 PUSH1 0x1 PUSH1 0x40 SHL SUB DUP3 GT OR PUSH2 0xFE4 JUMPI PUSH1 0x40 MSTORE JUMP JUMPDEST SWAP1 PUSH1 0x1F DUP1 NOT SWAP2 ADD AND DUP2 ADD SWAP1 DUP2 LT PUSH1 0x1 PUSH1 0x1 PUSH1 0x40 SHL SUB DUP3 GT OR PUSH2 0xFE4 JUMPI PUSH1 0x40 MSTORE JUMP JUMPDEST PUSH1 0x1 PUSH1 0x1 PUSH1 0x40 SHL SUB DUP2 GT PUSH2 0xFE4 JUMPI PUSH1 0x1F ADD PUSH1 0x1F NOT AND PUSH1 0x20 ADD SWAP1 JUMP JUMPDEST DUP2 PUSH1 0x1F DUP3 ADD SLT ISZERO PUSH2 0x196 JUMPI DUP1 CALLDATALOAD SWAP1 PUSH2 0x124E DUP3 PUSH2 0x121C JUMP JUMPDEST SWAP3 PUSH2 0x125C PUSH1 0x40 MLOAD SWAP5 DUP6 PUSH2 0x11FB JUMP JUMPDEST DUP3 DUP5 MSTORE PUSH1 0x20 DUP4 DUP4 ADD ADD GT PUSH2 0x196 JUMPI DUP2 PUSH1 0x0 SWAP3 PUSH1 0x20 DUP1 SWAP4 ADD DUP4 DUP7 ADD CALLDATACOPY DUP4 ADD ADD MSTORE SWAP1 JUMP JUMPDEST PUSH1 0x60 PUSH1 0x3 NOT DUP3 ADD SLT PUSH2 0x196 JUMPI PUSH1 0x4 CALLDATALOAD SWAP1 PUSH1 0x1 PUSH1 0x1 PUSH1 0x40 SHL SUB DUP3 GT PUSH2 0x196 JUMPI PUSH2 0x12A8 SWAP2 PUSH1 0x4 ADD PUSH2 0x1237 JUMP JUMPDEST SWAP1 PUSH1 0x24 CALLDATALOAD SWAP1 PUSH1 0x44 CALLDATALOAD SWAP1 JUMP JUMPDEST PUSH1 0x1 PUSH1 0x1 PUSH1 0x40 SHL SUB DUP2 GT PUSH2 0xFE4 JUMPI PUSH1 0x5 SHL PUSH1 0x20 ADD SWAP1 JUMP JUMPDEST DUP2 PUSH1 0x1F DUP3 ADD SLT ISZERO PUSH2 0x196 JUMPI DUP1 CALLDATALOAD SWAP2 PUSH2 0x12E1 DUP4 PUSH2 0x12B3 JUMP JUMPDEST SWAP3 PUSH2 0x12EF PUSH1 0x40 MLOAD SWAP5 DUP6 PUSH2 0x11FB JUMP JUMPDEST DUP1 DUP5 MSTORE PUSH1 0x20 SWAP3 DUP4 DUP1 DUP7 ADD SWAP3 PUSH1 0x5 SHL DUP3 ADD ADD SWAP3 DUP4 GT PUSH2 0x196 JUMPI DUP4 ADD SWAP1 JUMPDEST DUP3 DUP3 LT PUSH2 0x1319 JUMPI POP POP POP POP SWAP1 JUMP JUMPDEST DUP2 CALLDATALOAD DUP2 MSTORE SWAP1 DUP4 ADD SWAP1 DUP4 ADD PUSH2 0x130B JUMP JUMPDEST PUSH1 0x0 JUMPDEST DUP4 DUP2 LT PUSH2 0x133B JUMPI POP POP PUSH1 0x0 SWAP2 ADD MSTORE JUMP JUMPDEST DUP2 DUP2 ADD MLOAD DUP4 DUP3 ADD MSTORE PUSH1 0x20 ADD PUSH2 0x132B JUMP JUMPDEST SWAP1 PUSH1 0x1 DUP3 DUP2 SHR SWAP3 AND DUP1 ISZERO PUSH2 0x137B JUMPI JUMPDEST PUSH1 0x20 DUP4 LT EQ PUSH2 0x1365 JUMPI JUMP JUMPDEST PUSH4 0x4E487B71 PUSH1 0xE0 SHL PUSH1 0x0 MSTORE PUSH1 0x22 PUSH1 0x4 MSTORE PUSH1 0x24 PUSH1 0x0 REVERT JUMPDEST SWAP2 PUSH1 0x7F AND SWAP2 PUSH2 0x135A JUMP JUMPDEST SWAP1 PUSH1 0x40 MLOAD SWAP2 DUP3 PUSH1 0x0 DUP3 SLOAD SWAP3 PUSH2 0x1399 DUP5 PUSH2 0x134B JUMP JUMPDEST SWAP1 DUP2 DUP5 MSTORE PUSH1 0x1 SWAP5 DUP6 DUP2 AND SWAP1 DUP2 PUSH1 0x0 EQ PUSH2 0x1408 JUMPI POP PUSH1 0x1 EQ PUSH2 0x13C5 JUMPI JUMPDEST POP POP PUSH2 0x13C3 SWAP3 POP SUB DUP4 PUSH2 0x11FB JUMP JUMPDEST JUMP JUMPDEST SWAP1 SWAP4 SWAP2 POP PUSH1 0x0 MSTORE PUSH1 0x20 SWAP1 DUP2 PUSH1 0x0 KECCAK256 SWAP4 PUSH1 0x0 SWAP2 JUMPDEST DUP2 DUP4 LT PUSH2 0x13F0 JUMPI POP POP PUSH2 0x13C3 SWAP4 POP DUP3 ADD ADD CODESIZE DUP1 PUSH2 0x13B5 JUMP JUMPDEST DUP6 SLOAD DUP9 DUP5 ADD DUP6 ADD MSTORE SWAP5 DUP6 ADD SWAP5 DUP8 SWAP5 POP SWAP2 DUP4 ADD SWAP2 PUSH2 0x13D8 JUMP JUMPDEST SWAP2 POP POP PUSH2 0x13C3 SWAP5 POP PUSH1 0x20 SWAP3 POP PUSH1 0xFF NOT AND DUP3 DUP5 ADD MSTORE ISZERO ISZERO PUSH1 0x5 SHL DUP3 ADD ADD CODESIZE DUP1 PUSH2 0x13B5 JUMP JUMPDEST SWAP1 PUSH1 0x20 SWAP2 PUSH2 0x1444 DUP2 MLOAD DUP1 SWAP3 DUP2 DUP6 MSTORE DUP6 DUP1 DUP7 ADD SWAP2 ADD PUSH2 0x1328 JUMP JUMPDEST PUSH1 0x1F ADD PUSH1 0x1F NOT AND ADD ADD SWAP1 JUMP JUMPDEST PUSH1 0x0 SLOAD PUSH1 0x1 PUSH1 0x1 PUSH1 0xA0 SHL SUB AND CALLER SUB PUSH2 0x1464 JUMPI JUMP JUMPDEST PUSH1 0x40 MLOAD PUSH4 0x118CDAA7 PUSH1 0xE0 SHL DUP2 MSTORE CALLER PUSH1 0x4 DUP3 ADD MSTORE PUSH1 0x24 SWAP1 REVERT JUMPDEST ISZERO PUSH2 0x1483 JUMPI JUMP JUMPDEST PUSH1 0x40 MLOAD PUSH3 0x461BCD PUSH1 0xE5 SHL DUP2 MSTORE PUSH1 0x20 PUSH1 0x4 DUP3 ADD MSTORE PUSH1 0xF PUSH1 0x24 DUP3 ADD MSTORE PUSH15 0x98CADCCEE8D040DAD2E6DAC2E8C6D PUSH1 0x8B SHL PUSH1 0x44 DUP3 ADD MSTORE PUSH1 0x64 SWAP1 REVERT JUMPDEST PUSH1 0x0 NOT DUP2 EQ PUSH2 0x14C9 JUMPI PUSH1 0x1 ADD SWAP1 JUMP JUMPDEST PUSH4 0x4E487B71 PUSH1 0xE0 SHL PUSH1 0x0 MSTORE PUSH1 0x11 PUSH1 0x4 MSTORE PUSH1 0x24 PUSH1 0x0 REVERT JUMPDEST DUP1 MLOAD DUP3 LT ISZERO PUSH2 0x14F3 JUMPI PUSH1 0x20 SWAP2 PUSH1 0x5 SHL ADD ADD SWAP1 JUMP JUMPDEST PUSH4 0x4E487B71 PUSH1 0xE0 SHL PUSH1 0x0 MSTORE PUSH1 0x32 PUSH1 0x4 MSTORE PUSH1 0x24 PUSH1 0x0 REVERT JUMPDEST DUP2 DUP2 MUL SWAP3 SWAP2 DUP2 ISZERO SWAP2 DUP5 DIV EQ OR ISZERO PUSH2 0x14C9 JUMPI JUMP JUMPDEST DUP1 SLOAD DUP3 LT ISZERO PUSH2 0x14F3 JUMPI PUSH1 0x0 MSTORE PUSH1 0x20 PUSH1 0x0 KECCAK256 SWAP1 PUSH1 0x2 SHL ADD SWAP1 PUSH1 0x0 SWAP1 JUMP JUMPDEST PUSH2 0x1550 SWAP1 PUSH1 0x20 PUSH1 0x40 MLOAD SWAP3 DUP3 DUP5 DUP1 SWAP5 MLOAD SWAP4 DUP5 SWAP3 ADD PUSH2 0x1328 JUMP JUMPDEST DUP2 ADD SUB SWAP1 KECCAK256 SWAP1 JUMP JUMPDEST SWAP1 PUSH1 0x40 MLOAD PUSH2 0x1565 DUP2 PUSH2 0x11E0 JUMP JUMPDEST PUSH1 0x60 PUSH1 0x3 DUP3 SWAP5 PUSH2 0x1574 DUP2 PUSH2 0x1385 JUMP JUMPDEST DUP5 MSTORE PUSH1 0x1 DUP2 ADD SLOAD PUSH1 0x20 DUP6 ADD MSTORE PUSH1 0x2 DUP2 ADD SLOAD PUSH1 0x40 DUP6 ADD MSTORE ADD SLOAD SWAP2 ADD MSTORE JUMP JUMPDEST SWAP2 SWAP1 DUP3 ADD DUP1 SWAP3 GT PUSH2 0x14C9 JUMPI JUMP JUMPDEST SWAP1 PUSH1 0x0 DUP1 SWAP3 PUSH2 0x15BD PUSH1 0x20 PUSH1 0x40 SWAP3 DUP2 DUP5 MLOAD SWAP4 DUP3 DUP6 DUP1 SWAP5 MLOAD SWAP4 DUP5 SWAP3 ADD PUSH2 0x1328 JUMP JUMPDEST DUP2 ADD PUSH1 0x5 DUP2 MSTORE SUB ADD SWAP1 KECCAK256 SWAP1 PUSH1 0xFF PUSH1 0x2 DUP4 ADD SLOAD AND ISZERO PUSH2 0x162E JUMPI PUSH1 0x1 PUSH1 0x0 SWAP3 ADD SWAP1 DUP2 SLOAD SWAP2 JUMPDEST DUP3 DUP5 LT PUSH2 0x15EF JUMPI POP POP POP POP SWAP2 SWAP1 JUMP JUMPDEST SWAP1 SWAP2 SWAP3 SWAP6 PUSH2 0x1620 PUSH2 0x1626 SWAP2 PUSH1 0x60 PUSH2 0x1617 PUSH2 0x160C PUSH2 0x27A DUP13 DUP9 PUSH2 0x151C JUMP JUMPDEST SWAP9 DUP8 DUP11 ADD MLOAD SWAP1 PUSH2 0x1591 JUMP JUMPDEST SWAP8 ADD MLOAD SWAP1 PUSH2 0x1591 JUMP JUMPDEST SWAP7 PUSH2 0x14BA JUMP JUMPDEST SWAP3 SWAP2 SWAP1 PUSH2 0x15E0 JUMP JUMPDEST POP POP POP SWAP1 POP PUSH1 0x0 SWAP1 PUSH1 0x0 SWAP1 JUMP JUMPDEST SWAP2 SWAP1 SWAP2 PUSH1 0xFF PUSH1 0x2 PUSH1 0x40 MLOAD PUSH1 0x20 DUP2 DUP6 MLOAD PUSH2 0x1657 DUP2 DUP4 DUP6 DUP11 ADD PUSH2 0x1328 JUMP JUMPDEST DUP2 ADD PUSH1 0x5 DUP2 MSTORE SUB ADD SWAP1 KECCAK256 ADD SLOAD AND ISZERO PUSH2 0x16B0 JUMPI PUSH2 0x1672 SWAP1 PUSH2 0x159E JUMP JUMPDEST SWAP1 DUP4 ISZERO ISZERO SWAP4 DUP5 PUSH2 0x16A5 JUMPI JUMPDEST POP POP DUP2 ISZERO ISZERO SWAP2 DUP3 PUSH2 0x169A JUMPI JUMPDEST POP POP DUP2 ISZERO PUSH2 0x1695 JUMPI POP SWAP1 JUMP JUMPDEST SWAP1 POP SWAP1 JUMP JUMPDEST LT ISZERO SWAP1 POP CODESIZE DUP1 PUSH2 0x1689 JUMP JUMPDEST LT ISZERO SWAP3 POP CODESIZE DUP1 PUSH2 0x167D JUMP JUMPDEST POP POP POP PUSH1 0x1 SWAP1 JUMP JUMPDEST SWAP1 DUP2 PUSH1 0x20 SWAP2 SUB SLT PUSH2 0x196 JUMPI MLOAD PUSH1 0x1 PUSH1 0x1 PUSH1 0xA0 SHL SUB DUP2 AND DUP2 SUB PUSH2 0x196 JUMPI SWAP1 JUMP JUMPDEST PUSH1 0x2 PUSH1 0x1 SLOAD EQ PUSH2 0x16E8 JUMPI PUSH1 0x2 PUSH1 0x1 SSTORE JUMP JUMPDEST PUSH1 0x40 MLOAD PUSH4 0x3EE5AEB5 PUSH1 0xE0 SHL DUP2 MSTORE PUSH1 0x4 SWAP1 REVERT INVALID LOG2 PUSH5 0x6970667358 0x22 SLT KECCAK256 SWAP8 CHAINID CALLER 0xCA 0xED 0xB5 0xE6 BASEFEE 0xB7 0xDA MOD PUSH4 0xCE1F01DC GASLIMIT MSTORE8 PUSH12 0x661FC75F34084B4542571522 0xD5 PUSH5 0x736F6C6343 STOP ADDMOD EQ STOP CALLER "},"methodIdentifiers":{"PERCENTAGE_DENOMINATOR()":"b3cd4254","ROYALTY_PERCENTAGE()":"463b08db","USDC_ADDRESS()":"bb09d9b7","calculateTotalRoyalties(string,uint256,uint256)":"bf704e66","claimRoyaltiesETH()":"902509c2","claimRoyaltiesUSDC()":"1ed6c599","getPendingRoyalties(address)":"024fa0d6","getProjectDependencies(string)":"50fd8e71","libraryContract()":"ce0769c5","owner()":"8da5cb5b","pendingRoyaltiesETH(address)":"141b5f02","pendingRoyaltiesUSDC(address)":"5bf4b5c4","projectRoyalties(string)":"4aa8a12d","recordRoyalties(string,uint256,uint8)":"c5787690","registerProjectRoyalties(string,string[],uint256[],uint256[],uint256[])":"0a3213df","renounceOwnership()":"715018a6","setLibraryContract(address)":"956456d9","transferOwnership(address)":"f2fde38b","usdcToken()":"11eac855","validatePrice(string,uint256,uint256)":"0434d60c"}}}}}