{"ClayRoyalty.sol":{"ClayRoyalty":{"abi":[{"inputs":[],"stateMutability":"nonpayable","type":"constructor"},{"inputs":[{"internalType":"address","name":"owner","type":"address"}],"name":"OwnableInvalidOwner","type":"error"},{"inputs":[{"internalType":"address","name":"account","type":"address"}],"name":"OwnableUnauthorizedAccount","type":"error"},{"inputs":[],"name":"ReentrancyGuardReentrantCall","type":"error"},{"anonymous":false,"inputs":[{"indexed":true,"internalType":"address","name":"previousOwner","type":"address"},{"indexed":true,"internalType":"address","name":"newOwner","type":"address"}],"name":"OwnershipTransferred","type":"event"},{"anonymous":false,"inputs":[{"indexed":true,"internalType":"string","name":"projectId","type":"string"},{"indexed":true,"internalType":"string","name":"dependencyId","type":"string"},{"indexed":true,"internalType":"address","name":"creator","type":"address"},{"indexed":false,"internalType":"uint256","name":"amountETH","type":"uint256"},{"indexed":false,"internalType":"uint256","name":"amountUSDC","type":"uint256"}],"name":"RoyaltiesPaid","type":"event"},{"anonymous":false,"inputs":[{"indexed":true,"internalType":"string","name":"projectId","type":"string"},{"indexed":false,"internalType":"uint256","name":"dependencyCount","type":"uint256"},{"indexed":false,"internalType":"uint256","name":"totalRoyaltyETH","type":"uint256"},{"indexed":false,"internalType":"uint256","name":"totalRoyaltyUSDC","type":"uint256"}],"name":"RoyaltiesRegistered","type":"event"},{"inputs":[],"name":"PERCENTAGE_DENOMINATOR","outputs":[{"internalType":"uint256","name":"","type":"uint256"}],"stateMutability":"view","type":"function"},{"inputs":[],"name":"ROYALTY_PERCENTAGE","outputs":[{"internalType":"uint256","name":"","type":"uint256"}],"stateMutability":"view","type":"function"},{"inputs":[],"name":"USDC_ADDRESS","outputs":[{"internalType":"address","name":"","type":"address"}],"stateMutability":"view","type":"function"},{"inputs":[{"internalType":"string","name":"projectId","type":"string"},{"internalType":"enum ClayRoyalty.PaymentToken","name":"paymentToken","type":"uint8"}],"name":"distributeRoyalties","outputs":[],"stateMutability":"payable","type":"function"},{"inputs":[{"internalType":"string","name":"projectId","type":"string"}],"name":"getMinimumPrice","outputs":[{"internalType":"uint256","name":"minPriceETH","type":"uint256"},{"internalType":"uint256","name":"minPriceUSDC","type":"uint256"}],"stateMutability":"view","type":"function"},{"inputs":[{"internalType":"string","name":"projectId","type":"string"}],"name":"getProjectDependencies","outputs":[{"components":[{"internalType":"string","name":"projectId","type":"string"},{"internalType":"address","name":"creator","type":"address"},{"internalType":"uint256","name":"royaltyETH","type":"uint256"},{"internalType":"uint256","name":"royaltyUSDC","type":"uint256"}],"internalType":"struct ClayRoyalty.LibraryDependency[]","name":"","type":"tuple[]"}],"stateMutability":"view","type":"function"},{"inputs":[{"internalType":"string","name":"projectId","type":"string"}],"name":"getTotalRoyalties","outputs":[{"internalType":"uint256","name":"totalETH","type":"uint256"},{"internalType":"uint256","name":"totalUSDC","type":"uint256"}],"stateMutability":"view","type":"function"},{"inputs":[],"name":"owner","outputs":[{"internalType":"address","name":"","type":"address"}],"stateMutability":"view","type":"function"},{"inputs":[{"internalType":"string","name":"","type":"string"}],"name":"projectRoyalties","outputs":[{"internalType":"string","name":"projectId","type":"string"},{"internalType":"uint256","name":"totalRoyaltyETH","type":"uint256"},{"internalType":"uint256","name":"totalRoyaltyUSDC","type":"uint256"},{"internalType":"bool","name":"hasRoyalties","type":"bool"}],"stateMutability":"view","type":"function"},{"inputs":[{"internalType":"string","name":"projectId","type":"string"},{"internalType":"string[]","name":"dependencyIds","type":"string[]"},{"internalType":"address[]","name":"dependencyCreators","type":"address[]"},{"internalType":"uint256[]","name":"dependencyPricesETH","type":"uint256[]"},{"internalType":"uint256[]","name":"dependencyPricesUSDC","type":"uint256[]"}],"name":"registerProjectRoyalties","outputs":[],"stateMutability":"nonpayable","type":"function"},{"inputs":[],"name":"renounceOwnership","outputs":[],"stateMutability":"nonpayable","type":"function"},{"inputs":[{"internalType":"address","name":"newOwner","type":"address"}],"name":"transferOwnership","outputs":[],"stateMutability":"nonpayable","type":"function"},{"inputs":[],"name":"usdcToken","outputs":[{"internalType":"contract IERC20","name":"","type":"address"}],"stateMutability":"view","type":"function"},{"inputs":[{"internalType":"string","name":"projectId","type":"string"},{"internalType":"uint256","name":"priceETH","type":"uint256"},{"internalType":"uint256","name":"priceUSDC","type":"uint256"}],"name":"validatePrice","outputs":[{"internalType":"bool","name":"","type":"bool"}],"stateMutability":"view","type":"function"}],"evm":{"bytecode":{"linkReferences":{},"object":"60a080604052346100a65733156100905760008054336001600160a01b03198216811783556040519290916001600160a01b0316907f8be0079c531659141344cd1fd0a4f28419497f9722a3daafe3b4186f6b6457e09080a36001805573833589fcd6edb6e08f4c7c32d4f71b54bda029136080526113d090816100ac8239608051818181610c1d0152610e7e0152f35b631e4fbdf760e01b815260006004820152602490fd5b600080fdfe6080604052600436101561001257600080fd5b60003560e01c80630434d60c14610ead5780630467f04a1461014b57806311eac85514610e68578063463b08db14610e4b5780634aa8a12d14610dae57806350698181146109a957806350fd8e7114610862578063681229a01461021e578063715018a6146101c55780638da5cb5b1461019c578063b3cd42541461017f578063bb09d9b714610150578063e2b3a4d31461014b5763f2fde38b146100b657600080fd5b34610146576020366003190112610146576004356001600160a01b0381811691829003610146576100e561119d565b811561012d57600054826bffffffffffffffffffffffff60a01b821617600055167f8be0079c531659141344cd1fd0a4f28419497f9722a3daafe3b4186f6b6457e0600080a3005b604051631e4fbdf760e01b815260006004820152602490fd5b600080fd5b610f97565b3461014657600036600319011261014657602060405173833589fcd6edb6e08f4c7c32d4f71b54bda029138152f35b346101465760003660031901126101465760206040516127108152f35b34610146576000366003190112610146576000546040516001600160a01b039091168152602090f35b34610146576000366003190112610146576101de61119d565b600080546001600160a01b0319811682556001600160a01b03167f8be0079c531659141344cd1fd0a4f28419497f9722a3daafe3b4186f6b6457e08280a3005b346101465760a0366003190112610146576004356001600160401b0381116101465761024e903690600401610f50565b602435906001600160401b038211610146573660238301121561014657816004013561027981611128565b926102876040519485610f14565b8184526024602085019260051b820101903682116101465760248101925b8284106108335760443585876001600160401b03831161014657366023840112156101465782600401356102d881611128565b936102e66040519586610f14565b8185526024602086019260051b8201019036821161014657602401915b818310610813575050506064356001600160401b0381116101465761032c90369060040161113f565b906084356001600160401b0381116101465761034c90369060040161113f565b9361035a82518251146111c9565b61036782518451146111c9565b61037482518651146111c9565b6040519460ff600487602081895161039081848d019d8e611000565b810160028152030190200154166107ce576000916103bd6020600098604051809381928b51928391611000565b810160028152030190209486516001600160401b038111610684576103e28754611023565b601f811161078a575b50806020601f821160011461072257600091610717575b508160011b916000199060031b1c19161786555b60048601805460ff191660011790556000975b85518910156106c65761043c8983611216565b51806103e88102046103e814811517156106b05761045a8a86611216565b5195866103e88102046103e814871517156106b0576104798b89611216565b51916001600160a01b0361048d8d88611216565b51166040519361049c85610ef9565b8452602084015261271092836103e88302046040820152836103e88a0204606082015260018b01546801000000000000000081101561068457808c6001806104eb940191015560018d01611240565b91909161069a5780518051906001600160401b0382116106845761050f8454611023565b601f8111610640575b50602090601f83116001146105bd5787956103e8956003606061059d97876105ac9e9c986105a69e988c986000926105b2575b50508160011b9160001990861b1c19161784555b6001840160018060a01b036020830151166bffffffffffffffffffffffff60a01b82541617905560408101516002850155015191015502049061125c565b9802049061125c565b98611207565b97610429565b01519050388061054b565b908460005260206000209160005b601f19851681106106285750956103e8956003606061059d976001886105ac9f9d99986105a69f9d988d998f9b601f19811610610610575b505050811b01845561055f565b015160001983881b60f8161c19169055388080610603565b919260206001819286850151815501940192016105cb565b846000526020600020601f840160051c81016020851061067d575b601f830160051c82018110610671575050610518565b6000815560010161065b565b508061065b565b634e487b7160e01b600052604160045260246000fd5b634e487b7160e01b600052600060045260246000fd5b634e487b7160e01b600052601160045260246000fd5b7f90852e23d98cfd0bfb841a78f89528019f9f8df93b9ac09d395a8dca85c808d4606089836107038a8a9660038e89600282015501555192611269565b9460405192835260208301526040820152a2005b90508801518a610402565b91508760005260206000206000925b8a601f198416851061077357506001935082601f1981161061075a575b5050811b018655610416565b8a015160001960f88460031b161c191690558a8061074e565b810151825560209384019360019092019101610731565b876000526020600020601f830160051c8101602084106107c7575b601f830160051c820181106107bb5750506103eb565b600081556001016107a5565b50806107a5565b60405162461bcd60e51b815260206004820152601c60248201527f526f79616c7469657320616c72656164792072656769737465726564000000006044820152606490fd5b82356001600160a01b038116810361014657815260209283019201610303565b83356001600160401b03811161014657602091610857839260243691870101610f50565b8152019301926102a5565b3461014657602080600319360112610146576004356001600160401b03811161014657610893903690600401610f50565b90806108a86040519384815193849201611000565b8201600281528282600194859303019020018054916108c683611128565b926108d46040519485610f14565b8084528184018093600052826000206000915b83831061098457505050506040519384938285019083865251809152604085019260408260051b87010194936000905b8382106109245787870388f35b918496819592949698508190603f198b820301855289519061094e82516080808452830190611103565b9160018060a01b038482015116848301526040810151604083015260608091015191015298019201920187969593919492610917565b966004858297989699610996856112e3565b81520192019201919096939594966108e7565b6040366003190112610146576004356001600160401b038111610146576109d4903690600401610f50565b602435600281101561014657600260015414610d9c5760026001556040516020818451610a048183858901611000565b810160028152030190209060ff60048301541615610d5757610ba057600281019182543410610b5b5760016000939201925b8354811015610aeb5780610a56610a50610a6b9387611240565b506112e3565b6040810190815180610a70575b505050611207565b610a36565b6020820191610a99600080808060018060a01b0396878951165af1610a9361136a565b50611325565b519151169151907f18b34082ce4e137e46d932122239d7a120d3eaf5e7f50697068797df73d5dd236040610ad5610acf89611269565b93611269565b93815190815260006020820152a4858080610a63565b50505434818103925082116106b0573403610b09575b505b60018055005b600080808093335af1610b1a61136a565b5015610b265780610b01565b60405162461bcd60e51b815260206004820152600d60248201526c1499599d5b990819985a5b1959609a1b6044820152606490fd5b60405162461bcd60e51b815260206004820152601e60248201527f496e73756666696369656e742045544820666f7220726f79616c7469657300006044820152606490fd5b34610d075760005b6001820154811015610cff57610bc4610a508260018501611240565b90606082015180610be0575b50610bdb9150611207565b610ba8565b6020838101516040516323b872dd60e01b81523360048201526001600160a01b0391821660248201526044810193909352829060649082906000907f0000000000000000000000000000000000000000000000000000000000000000165af1908115610cf357600091610cb4575b5091610c5c610bdb93611325565b8051606060018060a01b03602084015116920151907f18b34082ce4e137e46d932122239d7a120d3eaf5e7f50697068797df73d5dd236040610ca0610acf8a611269565b93815190600082526020820152a484610bd0565b90506020813d602011610ceb575b81610ccf60209383610f14565b8101031261014657519182151583036101465791610c5c610c4e565b3d9150610cc2565b6040513d6000823e3d90fd5b505050610b03565b60405162461bcd60e51b815260206004820152602260248201527f446f206e6f742073656e642045544820666f72205553444320726f79616c7469604482015261657360f01b6064820152608490fd5b60405162461bcd60e51b815260206004820152601a60248201527f4e6f20726f79616c7469657320746f20646973747269627574650000000000006044820152606490fd5b604051633ee5aeb560e01b8152600490fd5b34610146576020366003190112610146576004356001600160401b03811161014657610df96020610de6610e35933690600401610f50565b8160405193828580945193849201611000565b81016002815203019020610e0c8161105d565b9060028101549060ff600460038301549201541690604051948594608086526080860190611103565b9260208501526040840152151560608301520390f35b346101465760003660031901126101465760206040516103e88152f35b34610146576000366003190112610146576040517f00000000000000000000000000000000000000000000000000000000000000006001600160a01b03168152602090f35b34610146576060366003190112610146576004356001600160401b03811161014657610eef610ee26020923690600401610f50565b6044359060243590611289565b6040519015158152f35b608081019081106001600160401b0382111761068457604052565b90601f801991011681019081106001600160401b0382111761068457604052565b6001600160401b03811161068457601f01601f191660200190565b81601f8201121561014657803590610f6782610f35565b92610f756040519485610f14565b8284526020838301011161014657816000926020809301838601378301015290565b34610146576020366003190112610146576004356001600160401b03811161014657610fe06020610fce6040933690600401610f50565b81845193828580945193849201611000565b810160028152030190206003600282015491015482519182526020820152f35b60005b8381106110135750506000910152565b8181015183820152602001611003565b90600182811c92168015611053575b602083101461103d57565b634e487b7160e01b600052602260045260246000fd5b91607f1691611032565b906040519182600082549261107184611023565b9081845260019485811690816000146110e0575060011461109d575b505061109b92500383610f14565b565b9093915060005260209081600020936000915b8183106110c857505061109b9350820101388061108d565b855488840185015294850194879450918301916110b0565b91505061109b94506020925060ff191682840152151560051b820101388061108d565b9060209161111c81518092818552858086019101611000565b601f01601f1916010190565b6001600160401b0381116106845760051b60200190565b81601f820112156101465780359161115683611128565b926111646040519485610f14565b808452602092838086019260051b820101928311610146578301905b82821061118e575050505090565b81358152908301908301611180565b6000546001600160a01b031633036111b157565b60405163118cdaa760e01b8152336004820152602490fd5b156111d057565b60405162461bcd60e51b815260206004820152600f60248201526e098cadccee8d040dad2e6dac2e8c6d608b1b6044820152606490fd5b60001981146106b05760010190565b805182101561122a5760209160051b010190565b634e487b7160e01b600052603260045260246000fd5b805482101561122a5760005260206000209060021b0190600090565b919082018092116106b057565b61128190602060405192828480945193849201611000565b810103902090565b60206112a5919392938160405193828580945193849201611000565b810160028152030190209160ff600484015416156112db5760039060028401541192015411158115916112d6575090565b905090565b505050600190565b906040516112f081610ef9565b6060600382946112ff8161105d565b845260018101546001600160a01b03166020850152600281015460408501520154910152565b1561132c57565b60405162461bcd60e51b8152602060048201526016602482015275149bde585b1d1e481c185e5b595b9d0819985a5b195960521b6044820152606490fd5b3d15611395573d9061137b82610f35565b916113896040519384610f14565b82523d6000602084013e565b60609056fea26469706673582212200cad0410bded29f67f6e4717800ba37a9cf9f5ce170e4b683539523e0e32910564736f6c63430008140033","opcodes":"PUSH1 0xA0 DUP1 PUSH1 0x40 MSTORE CALLVALUE PUSH2 0xA6 JUMPI CALLER ISZERO PUSH2 0x90 JUMPI PUSH1 0x0 DUP1 SLOAD CALLER PUSH1 0x1 PUSH1 0x1 PUSH1 0xA0 SHL SUB NOT DUP3 AND DUP2 OR DUP4 SSTORE PUSH1 0x40 MLOAD SWAP3 SWAP1 SWAP2 PUSH1 0x1 PUSH1 0x1 PUSH1 0xA0 SHL SUB AND SWAP1 PUSH32 0x8BE0079C531659141344CD1FD0A4F28419497F9722A3DAAFE3B4186F6B6457E0 SWAP1 DUP1 LOG3 PUSH1 0x1 DUP1 SSTORE PUSH20 0x833589FCD6EDB6E08F4C7C32D4F71B54BDA02913 PUSH1 0x80 MSTORE PUSH2 0x13D0 SWAP1 DUP2 PUSH2 0xAC DUP3 CODECOPY PUSH1 0x80 MLOAD DUP2 DUP2 DUP2 PUSH2 0xC1D ADD MSTORE PUSH2 0xE7E ADD MSTORE RETURN JUMPDEST PUSH4 0x1E4FBDF7 PUSH1 0xE0 SHL DUP2 MSTORE PUSH1 0x0 PUSH1 0x4 DUP3 ADD MSTORE PUSH1 0x24 SWAP1 REVERT JUMPDEST PUSH1 0x0 DUP1 REVERT INVALID PUSH1 0x80 PUSH1 0x40 MSTORE PUSH1 0x4 CALLDATASIZE LT ISZERO PUSH2 0x12 JUMPI PUSH1 0x0 DUP1 REVERT JUMPDEST PUSH1 0x0 CALLDATALOAD PUSH1 0xE0 SHR DUP1 PUSH4 0x434D60C EQ PUSH2 0xEAD JUMPI DUP1 PUSH4 0x467F04A EQ PUSH2 0x14B JUMPI DUP1 PUSH4 0x11EAC855 EQ PUSH2 0xE68 JUMPI DUP1 PUSH4 0x463B08DB EQ PUSH2 0xE4B JUMPI DUP1 PUSH4 0x4AA8A12D EQ PUSH2 0xDAE JUMPI DUP1 PUSH4 0x50698181 EQ PUSH2 0x9A9 JUMPI DUP1 PUSH4 0x50FD8E71 EQ PUSH2 0x862 JUMPI DUP1 PUSH4 0x681229A0 EQ PUSH2 0x21E JUMPI DUP1 PUSH4 0x715018A6 EQ PUSH2 0x1C5 JUMPI DUP1 PUSH4 0x8DA5CB5B EQ PUSH2 0x19C JUMPI DUP1 PUSH4 0xB3CD4254 EQ PUSH2 0x17F JUMPI DUP1 PUSH4 0xBB09D9B7 EQ PUSH2 0x150 JUMPI DUP1 PUSH4 0xE2B3A4D3 EQ PUSH2 0x14B JUMPI PUSH4 0xF2FDE38B EQ PUSH2 0xB6 JUMPI PUSH1 0x0 DUP1 REVERT JUMPDEST CALLVALUE PUSH2 0x146 JUMPI PUSH1 0x20 CALLDATASIZE PUSH1 0x3 NOT ADD SLT PUSH2 0x146 JUMPI PUSH1 0x4 CALLDATALOAD PUSH1 0x1 PUSH1 0x1 PUSH1 0xA0 SHL SUB DUP2 DUP2 AND SWAP2 DUP3 SWAP1 SUB PUSH2 0x146 JUMPI PUSH2 0xE5 PUSH2 0x119D JUMP JUMPDEST DUP2 ISZERO PUSH2 0x12D JUMPI PUSH1 0x0 SLOAD DUP3 PUSH12 0xFFFFFFFFFFFFFFFFFFFFFFFF PUSH1 0xA0 SHL DUP3 AND OR PUSH1 0x0 SSTORE AND PUSH32 0x8BE0079C531659141344CD1FD0A4F28419497F9722A3DAAFE3B4186F6B6457E0 PUSH1 0x0 DUP1 LOG3 STOP JUMPDEST PUSH1 0x40 MLOAD PUSH4 0x1E4FBDF7 PUSH1 0xE0 SHL DUP2 MSTORE PUSH1 0x0 PUSH1 0x4 DUP3 ADD MSTORE PUSH1 0x24 SWAP1 REVERT JUMPDEST PUSH1 0x0 DUP1 REVERT JUMPDEST PUSH2 0xF97 JUMP JUMPDEST CALLVALUE PUSH2 0x146 JUMPI PUSH1 0x0 CALLDATASIZE PUSH1 0x3 NOT ADD SLT PUSH2 0x146 JUMPI PUSH1 0x20 PUSH1 0x40 MLOAD PUSH20 0x833589FCD6EDB6E08F4C7C32D4F71B54BDA02913 DUP2 MSTORE RETURN JUMPDEST CALLVALUE PUSH2 0x146 JUMPI PUSH1 0x0 CALLDATASIZE PUSH1 0x3 NOT ADD SLT PUSH2 0x146 JUMPI PUSH1 0x20 PUSH1 0x40 MLOAD PUSH2 0x2710 DUP2 MSTORE RETURN JUMPDEST CALLVALUE PUSH2 0x146 JUMPI PUSH1 0x0 CALLDATASIZE PUSH1 0x3 NOT ADD SLT PUSH2 0x146 JUMPI PUSH1 0x0 SLOAD PUSH1 0x40 MLOAD PUSH1 0x1 PUSH1 0x1 PUSH1 0xA0 SHL SUB SWAP1 SWAP2 AND DUP2 MSTORE PUSH1 0x20 SWAP1 RETURN JUMPDEST CALLVALUE PUSH2 0x146 JUMPI PUSH1 0x0 CALLDATASIZE PUSH1 0x3 NOT ADD SLT PUSH2 0x146 JUMPI PUSH2 0x1DE PUSH2 0x119D JUMP JUMPDEST PUSH1 0x0 DUP1 SLOAD PUSH1 0x1 PUSH1 0x1 PUSH1 0xA0 SHL SUB NOT DUP2 AND DUP3 SSTORE PUSH1 0x1 PUSH1 0x1 PUSH1 0xA0 SHL SUB AND PUSH32 0x8BE0079C531659141344CD1FD0A4F28419497F9722A3DAAFE3B4186F6B6457E0 DUP3 DUP1 LOG3 STOP JUMPDEST CALLVALUE PUSH2 0x146 JUMPI PUSH1 0xA0 CALLDATASIZE PUSH1 0x3 NOT ADD SLT PUSH2 0x146 JUMPI PUSH1 0x4 CALLDATALOAD PUSH1 0x1 PUSH1 0x1 PUSH1 0x40 SHL SUB DUP2 GT PUSH2 0x146 JUMPI PUSH2 0x24E SWAP1 CALLDATASIZE SWAP1 PUSH1 0x4 ADD PUSH2 0xF50 JUMP JUMPDEST PUSH1 0x24 CALLDATALOAD SWAP1 PUSH1 0x1 PUSH1 0x1 PUSH1 0x40 SHL SUB DUP3 GT PUSH2 0x146 JUMPI CALLDATASIZE PUSH1 0x23 DUP4 ADD SLT ISZERO PUSH2 0x146 JUMPI DUP2 PUSH1 0x4 ADD CALLDATALOAD PUSH2 0x279 DUP2 PUSH2 0x1128 JUMP JUMPDEST SWAP3 PUSH2 0x287 PUSH1 0x40 MLOAD SWAP5 DUP6 PUSH2 0xF14 JUMP JUMPDEST DUP2 DUP5 MSTORE PUSH1 0x24 PUSH1 0x20 DUP6 ADD SWAP3 PUSH1 0x5 SHL DUP3 ADD ADD SWAP1 CALLDATASIZE DUP3 GT PUSH2 0x146 JUMPI PUSH1 0x24 DUP2 ADD SWAP3 JUMPDEST DUP3 DUP5 LT PUSH2 0x833 JUMPI PUSH1 0x44 CALLDATALOAD DUP6 DUP8 PUSH1 0x1 PUSH1 0x1 PUSH1 0x40 SHL SUB DUP4 GT PUSH2 0x146 JUMPI CALLDATASIZE PUSH1 0x23 DUP5 ADD SLT ISZERO PUSH2 0x146 JUMPI DUP3 PUSH1 0x4 ADD CALLDATALOAD PUSH2 0x2D8 DUP2 PUSH2 0x1128 JUMP JUMPDEST SWAP4 PUSH2 0x2E6 PUSH1 0x40 MLOAD SWAP6 DUP7 PUSH2 0xF14 JUMP JUMPDEST DUP2 DUP6 MSTORE PUSH1 0x24 PUSH1 0x20 DUP7 ADD SWAP3 PUSH1 0x5 SHL DUP3 ADD ADD SWAP1 CALLDATASIZE DUP3 GT PUSH2 0x146 JUMPI PUSH1 0x24 ADD SWAP2 JUMPDEST DUP2 DUP4 LT PUSH2 0x813 JUMPI POP POP POP PUSH1 0x64 CALLDATALOAD PUSH1 0x1 PUSH1 0x1 PUSH1 0x40 SHL SUB DUP2 GT PUSH2 0x146 JUMPI PUSH2 0x32C SWAP1 CALLDATASIZE SWAP1 PUSH1 0x4 ADD PUSH2 0x113F JUMP JUMPDEST SWAP1 PUSH1 0x84 CALLDATALOAD PUSH1 0x1 PUSH1 0x1 PUSH1 0x40 SHL SUB DUP2 GT PUSH2 0x146 JUMPI PUSH2 0x34C SWAP1 CALLDATASIZE SWAP1 PUSH1 0x4 ADD PUSH2 0x113F JUMP JUMPDEST SWAP4 PUSH2 0x35A DUP3 MLOAD DUP3 MLOAD EQ PUSH2 0x11C9 JUMP JUMPDEST PUSH2 0x367 DUP3 MLOAD DUP5 MLOAD EQ PUSH2 0x11C9 JUMP JUMPDEST PUSH2 0x374 DUP3 MLOAD DUP7 MLOAD EQ PUSH2 0x11C9 JUMP JUMPDEST PUSH1 0x40 MLOAD SWAP5 PUSH1 0xFF PUSH1 0x4 DUP8 PUSH1 0x20 DUP2 DUP10 MLOAD PUSH2 0x390 DUP2 DUP5 DUP14 ADD SWAP14 DUP15 PUSH2 0x1000 JUMP JUMPDEST DUP2 ADD PUSH1 0x2 DUP2 MSTORE SUB ADD SWAP1 KECCAK256 ADD SLOAD AND PUSH2 0x7CE JUMPI PUSH1 0x0 SWAP2 PUSH2 0x3BD PUSH1 0x20 PUSH1 0x0 SWAP9 PUSH1 0x40 MLOAD DUP1 SWAP4 DUP2 SWAP3 DUP12 MLOAD SWAP3 DUP4 SWAP2 PUSH2 0x1000 JUMP JUMPDEST DUP2 ADD PUSH1 0x2 DUP2 MSTORE SUB ADD SWAP1 KECCAK256 SWAP5 DUP7 MLOAD PUSH1 0x1 PUSH1 0x1 PUSH1 0x40 SHL SUB DUP2 GT PUSH2 0x684 JUMPI PUSH2 0x3E2 DUP8 SLOAD PUSH2 0x1023 JUMP JUMPDEST PUSH1 0x1F DUP2 GT PUSH2 0x78A JUMPI JUMPDEST POP DUP1 PUSH1 0x20 PUSH1 0x1F DUP3 GT PUSH1 0x1 EQ PUSH2 0x722 JUMPI PUSH1 0x0 SWAP2 PUSH2 0x717 JUMPI JUMPDEST POP DUP2 PUSH1 0x1 SHL SWAP2 PUSH1 0x0 NOT SWAP1 PUSH1 0x3 SHL SHR NOT AND OR DUP7 SSTORE JUMPDEST PUSH1 0x4 DUP7 ADD DUP1 SLOAD PUSH1 0xFF NOT AND PUSH1 0x1 OR SWAP1 SSTORE PUSH1 0x0 SWAP8 JUMPDEST DUP6 MLOAD DUP10 LT ISZERO PUSH2 0x6C6 JUMPI PUSH2 0x43C DUP10 DUP4 PUSH2 0x1216 JUMP JUMPDEST MLOAD DUP1 PUSH2 0x3E8 DUP2 MUL DIV PUSH2 0x3E8 EQ DUP2 ISZERO OR ISZERO PUSH2 0x6B0 JUMPI PUSH2 0x45A DUP11 DUP7 PUSH2 0x1216 JUMP JUMPDEST MLOAD SWAP6 DUP7 PUSH2 0x3E8 DUP2 MUL DIV PUSH2 0x3E8 EQ DUP8 ISZERO OR ISZERO PUSH2 0x6B0 JUMPI PUSH2 0x479 DUP12 DUP10 PUSH2 0x1216 JUMP JUMPDEST MLOAD SWAP2 PUSH1 0x1 PUSH1 0x1 PUSH1 0xA0 SHL SUB PUSH2 0x48D DUP14 DUP9 PUSH2 0x1216 JUMP JUMPDEST MLOAD AND PUSH1 0x40 MLOAD SWAP4 PUSH2 0x49C DUP6 PUSH2 0xEF9 JUMP JUMPDEST DUP5 MSTORE PUSH1 0x20 DUP5 ADD MSTORE PUSH2 0x2710 SWAP3 DUP4 PUSH2 0x3E8 DUP4 MUL DIV PUSH1 0x40 DUP3 ADD MSTORE DUP4 PUSH2 0x3E8 DUP11 MUL DIV PUSH1 0x60 DUP3 ADD MSTORE PUSH1 0x1 DUP12 ADD SLOAD PUSH9 0x10000000000000000 DUP2 LT ISZERO PUSH2 0x684 JUMPI DUP1 DUP13 PUSH1 0x1 DUP1 PUSH2 0x4EB SWAP5 ADD SWAP2 ADD SSTORE PUSH1 0x1 DUP14 ADD PUSH2 0x1240 JUMP JUMPDEST SWAP2 SWAP1 SWAP2 PUSH2 0x69A JUMPI DUP1 MLOAD DUP1 MLOAD SWAP1 PUSH1 0x1 PUSH1 0x1 PUSH1 0x40 SHL SUB DUP3 GT PUSH2 0x684 JUMPI PUSH2 0x50F DUP5 SLOAD PUSH2 0x1023 JUMP JUMPDEST PUSH1 0x1F DUP2 GT PUSH2 0x640 JUMPI JUMPDEST POP PUSH1 0x20 SWAP1 PUSH1 0x1F DUP4 GT PUSH1 0x1 EQ PUSH2 0x5BD JUMPI DUP8 SWAP6 PUSH2 0x3E8 SWAP6 PUSH1 0x3 PUSH1 0x60 PUSH2 0x59D SWAP8 DUP8 PUSH2 0x5AC SWAP15 SWAP13 SWAP9 PUSH2 0x5A6 SWAP15 SWAP9 DUP13 SWAP9 PUSH1 0x0 SWAP3 PUSH2 0x5B2 JUMPI JUMPDEST POP POP DUP2 PUSH1 0x1 SHL SWAP2 PUSH1 0x0 NOT SWAP1 DUP7 SHL SHR NOT AND OR DUP5 SSTORE JUMPDEST PUSH1 0x1 DUP5 ADD PUSH1 0x1 DUP1 PUSH1 0xA0 SHL SUB PUSH1 0x20 DUP4 ADD MLOAD AND PUSH12 0xFFFFFFFFFFFFFFFFFFFFFFFF PUSH1 0xA0 SHL DUP3 SLOAD AND OR SWAP1 SSTORE PUSH1 0x40 DUP2 ADD MLOAD PUSH1 0x2 DUP6 ADD SSTORE ADD MLOAD SWAP2 ADD SSTORE MUL DIV SWAP1 PUSH2 0x125C JUMP JUMPDEST SWAP9 MUL DIV SWAP1 PUSH2 0x125C JUMP JUMPDEST SWAP9 PUSH2 0x1207 JUMP JUMPDEST SWAP8 PUSH2 0x429 JUMP JUMPDEST ADD MLOAD SWAP1 POP CODESIZE DUP1 PUSH2 0x54B JUMP JUMPDEST SWAP1 DUP5 PUSH1 0x0 MSTORE PUSH1 0x20 PUSH1 0x0 KECCAK256 SWAP2 PUSH1 0x0 JUMPDEST PUSH1 0x1F NOT DUP6 AND DUP2 LT PUSH2 0x628 JUMPI POP SWAP6 PUSH2 0x3E8 SWAP6 PUSH1 0x3 PUSH1 0x60 PUSH2 0x59D SWAP8 PUSH1 0x1 DUP9 PUSH2 0x5AC SWAP16 SWAP14 SWAP10 SWAP9 PUSH2 0x5A6 SWAP16 SWAP14 SWAP9 DUP14 SWAP10 DUP16 SWAP12 PUSH1 0x1F NOT DUP2 AND LT PUSH2 0x610 JUMPI JUMPDEST POP POP POP DUP2 SHL ADD DUP5 SSTORE PUSH2 0x55F JUMP JUMPDEST ADD MLOAD PUSH1 0x0 NOT DUP4 DUP9 SHL PUSH1 0xF8 AND SHR NOT AND SWAP1 SSTORE CODESIZE DUP1 DUP1 PUSH2 0x603 JUMP JUMPDEST SWAP2 SWAP3 PUSH1 0x20 PUSH1 0x1 DUP2 SWAP3 DUP7 DUP6 ADD MLOAD DUP2 SSTORE ADD SWAP5 ADD SWAP3 ADD PUSH2 0x5CB JUMP JUMPDEST DUP5 PUSH1 0x0 MSTORE PUSH1 0x20 PUSH1 0x0 KECCAK256 PUSH1 0x1F DUP5 ADD PUSH1 0x5 SHR DUP2 ADD PUSH1 0x20 DUP6 LT PUSH2 0x67D JUMPI JUMPDEST PUSH1 0x1F DUP4 ADD PUSH1 0x5 SHR DUP3 ADD DUP2 LT PUSH2 0x671 JUMPI POP POP PUSH2 0x518 JUMP JUMPDEST PUSH1 0x0 DUP2 SSTORE PUSH1 0x1 ADD PUSH2 0x65B JUMP JUMPDEST POP DUP1 PUSH2 0x65B JUMP JUMPDEST PUSH4 0x4E487B71 PUSH1 0xE0 SHL PUSH1 0x0 MSTORE PUSH1 0x41 PUSH1 0x4 MSTORE PUSH1 0x24 PUSH1 0x0 REVERT JUMPDEST PUSH4 0x4E487B71 PUSH1 0xE0 SHL PUSH1 0x0 MSTORE PUSH1 0x0 PUSH1 0x4 MSTORE PUSH1 0x24 PUSH1 0x0 REVERT JUMPDEST PUSH4 0x4E487B71 PUSH1 0xE0 SHL PUSH1 0x0 MSTORE PUSH1 0x11 PUSH1 0x4 MSTORE PUSH1 0x24 PUSH1 0x0 REVERT JUMPDEST PUSH32 0x90852E23D98CFD0BFB841A78F89528019F9F8DF93B9AC09D395A8DCA85C808D4 PUSH1 0x60 DUP10 DUP4 PUSH2 0x703 DUP11 DUP11 SWAP7 PUSH1 0x3 DUP15 DUP10 PUSH1 0x2 DUP3 ADD SSTORE ADD SSTORE MLOAD SWAP3 PUSH2 0x1269 JUMP JUMPDEST SWAP5 PUSH1 0x40 MLOAD SWAP3 DUP4 MSTORE PUSH1 0x20 DUP4 ADD MSTORE PUSH1 0x40 DUP3 ADD MSTORE LOG2 STOP JUMPDEST SWAP1 POP DUP9 ADD MLOAD DUP11 PUSH2 0x402 JUMP JUMPDEST SWAP2 POP DUP8 PUSH1 0x0 MSTORE PUSH1 0x20 PUSH1 0x0 KECCAK256 PUSH1 0x0 SWAP3 JUMPDEST DUP11 PUSH1 0x1F NOT DUP5 AND DUP6 LT PUSH2 0x773 JUMPI POP PUSH1 0x1 SWAP4 POP DUP3 PUSH1 0x1F NOT DUP2 AND LT PUSH2 0x75A JUMPI JUMPDEST POP POP DUP2 SHL ADD DUP7 SSTORE PUSH2 0x416 JUMP JUMPDEST DUP11 ADD MLOAD PUSH1 0x0 NOT PUSH1 0xF8 DUP5 PUSH1 0x3 SHL AND SHR NOT AND SWAP1 SSTORE DUP11 DUP1 PUSH2 0x74E JUMP JUMPDEST DUP2 ADD MLOAD DUP3 SSTORE PUSH1 0x20 SWAP4 DUP5 ADD SWAP4 PUSH1 0x1 SWAP1 SWAP3 ADD SWAP2 ADD PUSH2 0x731 JUMP JUMPDEST DUP8 PUSH1 0x0 MSTORE PUSH1 0x20 PUSH1 0x0 KECCAK256 PUSH1 0x1F DUP4 ADD PUSH1 0x5 SHR DUP2 ADD PUSH1 0x20 DUP5 LT PUSH2 0x7C7 JUMPI JUMPDEST PUSH1 0x1F DUP4 ADD PUSH1 0x5 SHR DUP3 ADD DUP2 LT PUSH2 0x7BB JUMPI POP POP PUSH2 0x3EB JUMP JUMPDEST PUSH1 0x0 DUP2 SSTORE PUSH1 0x1 ADD PUSH2 0x7A5 JUMP JUMPDEST POP DUP1 PUSH2 0x7A5 JUMP JUMPDEST PUSH1 0x40 MLOAD PUSH3 0x461BCD PUSH1 0xE5 SHL DUP2 MSTORE PUSH1 0x20 PUSH1 0x4 DUP3 ADD MSTORE PUSH1 0x1C PUSH1 0x24 DUP3 ADD MSTORE PUSH32 0x526F79616C7469657320616C7265616479207265676973746572656400000000 PUSH1 0x44 DUP3 ADD MSTORE PUSH1 0x64 SWAP1 REVERT JUMPDEST DUP3 CALLDATALOAD PUSH1 0x1 PUSH1 0x1 PUSH1 0xA0 SHL SUB DUP2 AND DUP2 SUB PUSH2 0x146 JUMPI DUP2 MSTORE PUSH1 0x20 SWAP3 DUP4 ADD SWAP3 ADD PUSH2 0x303 JUMP JUMPDEST DUP4 CALLDATALOAD PUSH1 0x1 PUSH1 0x1 PUSH1 0x40 SHL SUB DUP2 GT PUSH2 0x146 JUMPI PUSH1 0x20 SWAP2 PUSH2 0x857 DUP4 SWAP3 PUSH1 0x24 CALLDATASIZE SWAP2 DUP8 ADD ADD PUSH2 0xF50 JUMP JUMPDEST DUP2 MSTORE ADD SWAP4 ADD SWAP3 PUSH2 0x2A5 JUMP JUMPDEST CALLVALUE PUSH2 0x146 JUMPI PUSH1 0x20 DUP1 PUSH1 0x3 NOT CALLDATASIZE ADD SLT PUSH2 0x146 JUMPI PUSH1 0x4 CALLDATALOAD PUSH1 0x1 PUSH1 0x1 PUSH1 0x40 SHL SUB DUP2 GT PUSH2 0x146 JUMPI PUSH2 0x893 SWAP1 CALLDATASIZE SWAP1 PUSH1 0x4 ADD PUSH2 0xF50 JUMP JUMPDEST SWAP1 DUP1 PUSH2 0x8A8 PUSH1 0x40 MLOAD SWAP4 DUP5 DUP2 MLOAD SWAP4 DUP5 SWAP3 ADD PUSH2 0x1000 JUMP JUMPDEST DUP3 ADD PUSH1 0x2 DUP2 MSTORE DUP3 DUP3 PUSH1 0x1 SWAP5 DUP6 SWAP4 SUB ADD SWAP1 KECCAK256 ADD DUP1 SLOAD SWAP2 PUSH2 0x8C6 DUP4 PUSH2 0x1128 JUMP JUMPDEST SWAP3 PUSH2 0x8D4 PUSH1 0x40 MLOAD SWAP5 DUP6 PUSH2 0xF14 JUMP JUMPDEST DUP1 DUP5 MSTORE DUP2 DUP5 ADD DUP1 SWAP4 PUSH1 0x0 MSTORE DUP3 PUSH1 0x0 KECCAK256 PUSH1 0x0 SWAP2 JUMPDEST DUP4 DUP4 LT PUSH2 0x984 JUMPI POP POP POP POP PUSH1 0x40 MLOAD SWAP4 DUP5 SWAP4 DUP3 DUP6 ADD SWAP1 DUP4 DUP7 MSTORE MLOAD DUP1 SWAP2 MSTORE PUSH1 0x40 DUP6 ADD SWAP3 PUSH1 0x40 DUP3 PUSH1 0x5 SHL DUP8 ADD ADD SWAP5 SWAP4 PUSH1 0x0 SWAP1 JUMPDEST DUP4 DUP3 LT PUSH2 0x924 JUMPI DUP8 DUP8 SUB DUP9 RETURN JUMPDEST SWAP2 DUP5 SWAP7 DUP2 SWAP6 SWAP3 SWAP5 SWAP7 SWAP9 POP DUP2 SWAP1 PUSH1 0x3F NOT DUP12 DUP3 SUB ADD DUP6 MSTORE DUP10 MLOAD SWAP1 PUSH2 0x94E DUP3 MLOAD PUSH1 0x80 DUP1 DUP5 MSTORE DUP4 ADD SWAP1 PUSH2 0x1103 JUMP JUMPDEST SWAP2 PUSH1 0x1 DUP1 PUSH1 0xA0 SHL SUB DUP5 DUP3 ADD MLOAD AND DUP5 DUP4 ADD MSTORE PUSH1 0x40 DUP2 ADD MLOAD PUSH1 0x40 DUP4 ADD MSTORE PUSH1 0x60 DUP1 SWAP2 ADD MLOAD SWAP2 ADD MSTORE SWAP9 ADD SWAP3 ADD SWAP3 ADD DUP8 SWAP7 SWAP6 SWAP4 SWAP2 SWAP5 SWAP3 PUSH2 0x917 JUMP JUMPDEST SWAP7 PUSH1 0x4 DUP6 DUP3 SWAP8 SWAP9 SWAP7 SWAP10 PUSH2 0x996 DUP6 PUSH2 0x12E3 JUMP JUMPDEST DUP2 MSTORE ADD SWAP3 ADD SWAP3 ADD SWAP2 SWAP1 SWAP7 SWAP4 SWAP6 SWAP5 SWAP7 PUSH2 0x8E7 JUMP JUMPDEST PUSH1 0x40 CALLDATASIZE PUSH1 0x3 NOT ADD SLT PUSH2 0x146 JUMPI PUSH1 0x4 CALLDATALOAD PUSH1 0x1 PUSH1 0x1 PUSH1 0x40 SHL SUB DUP2 GT PUSH2 0x146 JUMPI PUSH2 0x9D4 SWAP1 CALLDATASIZE SWAP1 PUSH1 0x4 ADD PUSH2 0xF50 JUMP JUMPDEST PUSH1 0x24 CALLDATALOAD PUSH1 0x2 DUP2 LT ISZERO PUSH2 0x146 JUMPI PUSH1 0x2 PUSH1 0x1 SLOAD EQ PUSH2 0xD9C JUMPI PUSH1 0x2 PUSH1 0x1 SSTORE PUSH1 0x40 MLOAD PUSH1 0x20 DUP2 DUP5 MLOAD PUSH2 0xA04 DUP2 DUP4 DUP6 DUP10 ADD PUSH2 0x1000 JUMP JUMPDEST DUP2 ADD PUSH1 0x2 DUP2 MSTORE SUB ADD SWAP1 KECCAK256 SWAP1 PUSH1 0xFF PUSH1 0x4 DUP4 ADD SLOAD AND ISZERO PUSH2 0xD57 JUMPI PUSH2 0xBA0 JUMPI PUSH1 0x2 DUP2 ADD SWAP2 DUP3 SLOAD CALLVALUE LT PUSH2 0xB5B JUMPI PUSH1 0x1 PUSH1 0x0 SWAP4 SWAP3 ADD SWAP3 JUMPDEST DUP4 SLOAD DUP2 LT ISZERO PUSH2 0xAEB JUMPI DUP1 PUSH2 0xA56 PUSH2 0xA50 PUSH2 0xA6B SWAP4 DUP8 PUSH2 0x1240 JUMP JUMPDEST POP PUSH2 0x12E3 JUMP JUMPDEST PUSH1 0x40 DUP2 ADD SWAP1 DUP2 MLOAD DUP1 PUSH2 0xA70 JUMPI JUMPDEST POP POP POP PUSH2 0x1207 JUMP JUMPDEST PUSH2 0xA36 JUMP JUMPDEST PUSH1 0x20 DUP3 ADD SWAP2 PUSH2 0xA99 PUSH1 0x0 DUP1 DUP1 DUP1 PUSH1 0x1 DUP1 PUSH1 0xA0 SHL SUB SWAP7 DUP8 DUP10 MLOAD AND GAS CALL PUSH2 0xA93 PUSH2 0x136A JUMP JUMPDEST POP PUSH2 0x1325 JUMP JUMPDEST MLOAD SWAP2 MLOAD AND SWAP2 MLOAD SWAP1 PUSH32 0x18B34082CE4E137E46D932122239D7A120D3EAF5E7F50697068797DF73D5DD23 PUSH1 0x40 PUSH2 0xAD5 PUSH2 0xACF DUP10 PUSH2 0x1269 JUMP JUMPDEST SWAP4 PUSH2 0x1269 JUMP JUMPDEST SWAP4 DUP2 MLOAD SWAP1 DUP2 MSTORE PUSH1 0x0 PUSH1 0x20 DUP3 ADD MSTORE LOG4 DUP6 DUP1 DUP1 PUSH2 0xA63 JUMP JUMPDEST POP POP SLOAD CALLVALUE DUP2 DUP2 SUB SWAP3 POP DUP3 GT PUSH2 0x6B0 JUMPI CALLVALUE SUB PUSH2 0xB09 JUMPI JUMPDEST POP JUMPDEST PUSH1 0x1 DUP1 SSTORE STOP JUMPDEST PUSH1 0x0 DUP1 DUP1 DUP1 SWAP4 CALLER GAS CALL PUSH2 0xB1A PUSH2 0x136A JUMP JUMPDEST POP ISZERO PUSH2 0xB26 JUMPI DUP1 PUSH2 0xB01 JUMP JUMPDEST PUSH1 0x40 MLOAD PUSH3 0x461BCD PUSH1 0xE5 SHL DUP2 MSTORE PUSH1 0x20 PUSH1 0x4 DUP3 ADD MSTORE PUSH1 0xD PUSH1 0x24 DUP3 ADD MSTORE PUSH13 0x1499599D5B990819985A5B1959 PUSH1 0x9A SHL PUSH1 0x44 DUP3 ADD MSTORE PUSH1 0x64 SWAP1 REVERT JUMPDEST PUSH1 0x40 MLOAD PUSH3 0x461BCD PUSH1 0xE5 SHL DUP2 MSTORE PUSH1 0x20 PUSH1 0x4 DUP3 ADD MSTORE PUSH1 0x1E PUSH1 0x24 DUP3 ADD MSTORE PUSH32 0x496E73756666696369656E742045544820666F7220726F79616C746965730000 PUSH1 0x44 DUP3 ADD MSTORE PUSH1 0x64 SWAP1 REVERT JUMPDEST CALLVALUE PUSH2 0xD07 JUMPI PUSH1 0x0 JUMPDEST PUSH1 0x1 DUP3 ADD SLOAD DUP2 LT ISZERO PUSH2 0xCFF JUMPI PUSH2 0xBC4 PUSH2 0xA50 DUP3 PUSH1 0x1 DUP6 ADD PUSH2 0x1240 JUMP JUMPDEST SWAP1 PUSH1 0x60 DUP3 ADD MLOAD DUP1 PUSH2 0xBE0 JUMPI JUMPDEST POP PUSH2 0xBDB SWAP2 POP PUSH2 0x1207 JUMP JUMPDEST PUSH2 0xBA8 JUMP JUMPDEST PUSH1 0x20 DUP4 DUP2 ADD MLOAD PUSH1 0x40 MLOAD PUSH4 0x23B872DD PUSH1 0xE0 SHL DUP2 MSTORE CALLER PUSH1 0x4 DUP3 ADD MSTORE PUSH1 0x1 PUSH1 0x1 PUSH1 0xA0 SHL SUB SWAP2 DUP3 AND PUSH1 0x24 DUP3 ADD MSTORE PUSH1 0x44 DUP2 ADD SWAP4 SWAP1 SWAP4 MSTORE DUP3 SWAP1 PUSH1 0x64 SWAP1 DUP3 SWAP1 PUSH1 0x0 SWAP1 PUSH32 0x0 AND GAS CALL SWAP1 DUP2 ISZERO PUSH2 0xCF3 JUMPI PUSH1 0x0 SWAP2 PUSH2 0xCB4 JUMPI JUMPDEST POP SWAP2 PUSH2 0xC5C PUSH2 0xBDB SWAP4 PUSH2 0x1325 JUMP JUMPDEST DUP1 MLOAD PUSH1 0x60 PUSH1 0x1 DUP1 PUSH1 0xA0 SHL SUB PUSH1 0x20 DUP5 ADD MLOAD AND SWAP3 ADD MLOAD SWAP1 PUSH32 0x18B34082CE4E137E46D932122239D7A120D3EAF5E7F50697068797DF73D5DD23 PUSH1 0x40 PUSH2 0xCA0 PUSH2 0xACF DUP11 PUSH2 0x1269 JUMP JUMPDEST SWAP4 DUP2 MLOAD SWAP1 PUSH1 0x0 DUP3 MSTORE PUSH1 0x20 DUP3 ADD MSTORE LOG4 DUP5 PUSH2 0xBD0 JUMP JUMPDEST SWAP1 POP PUSH1 0x20 DUP2 RETURNDATASIZE PUSH1 0x20 GT PUSH2 0xCEB JUMPI JUMPDEST DUP2 PUSH2 0xCCF PUSH1 0x20 SWAP4 DUP4 PUSH2 0xF14 JUMP JUMPDEST DUP2 ADD SUB SLT PUSH2 0x146 JUMPI MLOAD SWAP2 DUP3 ISZERO ISZERO DUP4 SUB PUSH2 0x146 JUMPI SWAP2 PUSH2 0xC5C PUSH2 0xC4E JUMP JUMPDEST RETURNDATASIZE SWAP2 POP PUSH2 0xCC2 JUMP JUMPDEST PUSH1 0x40 MLOAD RETURNDATASIZE PUSH1 0x0 DUP3 RETURNDATACOPY RETURNDATASIZE SWAP1 REVERT JUMPDEST POP POP POP PUSH2 0xB03 JUMP JUMPDEST PUSH1 0x40 MLOAD PUSH3 0x461BCD PUSH1 0xE5 SHL DUP2 MSTORE PUSH1 0x20 PUSH1 0x4 DUP3 ADD MSTORE PUSH1 0x22 PUSH1 0x24 DUP3 ADD MSTORE PUSH32 0x446F206E6F742073656E642045544820666F72205553444320726F79616C7469 PUSH1 0x44 DUP3 ADD MSTORE PUSH2 0x6573 PUSH1 0xF0 SHL PUSH1 0x64 DUP3 ADD MSTORE PUSH1 0x84 SWAP1 REVERT JUMPDEST PUSH1 0x40 MLOAD PUSH3 0x461BCD PUSH1 0xE5 SHL DUP2 MSTORE PUSH1 0x20 PUSH1 0x4 DUP3 ADD MSTORE PUSH1 0x1A PUSH1 0x24 DUP3 ADD MSTORE PUSH32 0x4E6F20726F79616C7469657320746F2064697374726962757465000000000000 PUSH1 0x44 DUP3 ADD MSTORE PUSH1 0x64 SWAP1 REVERT JUMPDEST PUSH1 0x40 MLOAD PUSH4 0x3EE5AEB5 PUSH1 0xE0 SHL DUP2 MSTORE PUSH1 0x4 SWAP1 REVERT JUMPDEST CALLVALUE PUSH2 0x146 JUMPI PUSH1 0x20 CALLDATASIZE PUSH1 0x3 NOT ADD SLT PUSH2 0x146 JUMPI PUSH1 0x4 CALLDATALOAD PUSH1 0x1 PUSH1 0x1 PUSH1 0x40 SHL SUB DUP2 GT PUSH2 0x146 JUMPI PUSH2 0xDF9 PUSH1 0x20 PUSH2 0xDE6 PUSH2 0xE35 SWAP4 CALLDATASIZE SWAP1 PUSH1 0x4 ADD PUSH2 0xF50 JUMP JUMPDEST DUP2 PUSH1 0x40 MLOAD SWAP4 DUP3 DUP6 DUP1 SWAP5 MLOAD SWAP4 DUP5 SWAP3 ADD PUSH2 0x1000 JUMP JUMPDEST DUP2 ADD PUSH1 0x2 DUP2 MSTORE SUB ADD SWAP1 KECCAK256 PUSH2 0xE0C DUP2 PUSH2 0x105D JUMP JUMPDEST SWAP1 PUSH1 0x2 DUP2 ADD SLOAD SWAP1 PUSH1 0xFF PUSH1 0x4 PUSH1 0x3 DUP4 ADD SLOAD SWAP3 ADD SLOAD AND SWAP1 PUSH1 0x40 MLOAD SWAP5 DUP6 SWAP5 PUSH1 0x80 DUP7 MSTORE PUSH1 0x80 DUP7 ADD SWAP1 PUSH2 0x1103 JUMP JUMPDEST SWAP3 PUSH1 0x20 DUP6 ADD MSTORE PUSH1 0x40 DUP5 ADD MSTORE ISZERO ISZERO PUSH1 0x60 DUP4 ADD MSTORE SUB SWAP1 RETURN JUMPDEST CALLVALUE PUSH2 0x146 JUMPI PUSH1 0x0 CALLDATASIZE PUSH1 0x3 NOT ADD SLT PUSH2 0x146 JUMPI PUSH1 0x20 PUSH1 0x40 MLOAD PUSH2 0x3E8 DUP2 MSTORE RETURN JUMPDEST CALLVALUE PUSH2 0x146 JUMPI PUSH1 0x0 CALLDATASIZE PUSH1 0x3 NOT ADD SLT PUSH2 0x146 JUMPI PUSH1 0x40 MLOAD PUSH32 0x0 PUSH1 0x1 PUSH1 0x1 PUSH1 0xA0 SHL SUB AND DUP2 MSTORE PUSH1 0x20 SWAP1 RETURN JUMPDEST CALLVALUE PUSH2 0x146 JUMPI PUSH1 0x60 CALLDATASIZE PUSH1 0x3 NOT ADD SLT PUSH2 0x146 JUMPI PUSH1 0x4 CALLDATALOAD PUSH1 0x1 PUSH1 0x1 PUSH1 0x40 SHL SUB DUP2 GT PUSH2 0x146 JUMPI PUSH2 0xEEF PUSH2 0xEE2 PUSH1 0x20 SWAP3 CALLDATASIZE SWAP1 PUSH1 0x4 ADD PUSH2 0xF50 JUMP JUMPDEST PUSH1 0x44 CALLDATALOAD SWAP1 PUSH1 0x24 CALLDATALOAD SWAP1 PUSH2 0x1289 JUMP JUMPDEST PUSH1 0x40 MLOAD SWAP1 ISZERO ISZERO DUP2 MSTORE RETURN JUMPDEST PUSH1 0x80 DUP2 ADD SWAP1 DUP2 LT PUSH1 0x1 PUSH1 0x1 PUSH1 0x40 SHL SUB DUP3 GT OR PUSH2 0x684 JUMPI PUSH1 0x40 MSTORE JUMP JUMPDEST SWAP1 PUSH1 0x1F DUP1 NOT SWAP2 ADD AND DUP2 ADD SWAP1 DUP2 LT PUSH1 0x1 PUSH1 0x1 PUSH1 0x40 SHL SUB DUP3 GT OR PUSH2 0x684 JUMPI PUSH1 0x40 MSTORE JUMP JUMPDEST PUSH1 0x1 PUSH1 0x1 PUSH1 0x40 SHL SUB DUP2 GT PUSH2 0x684 JUMPI PUSH1 0x1F ADD PUSH1 0x1F NOT AND PUSH1 0x20 ADD SWAP1 JUMP JUMPDEST DUP2 PUSH1 0x1F DUP3 ADD SLT ISZERO PUSH2 0x146 JUMPI DUP1 CALLDATALOAD SWAP1 PUSH2 0xF67 DUP3 PUSH2 0xF35 JUMP JUMPDEST SWAP3 PUSH2 0xF75 PUSH1 0x40 MLOAD SWAP5 DUP6 PUSH2 0xF14 JUMP JUMPDEST DUP3 DUP5 MSTORE PUSH1 0x20 DUP4 DUP4 ADD ADD GT PUSH2 0x146 JUMPI DUP2 PUSH1 0x0 SWAP3 PUSH1 0x20 DUP1 SWAP4 ADD DUP4 DUP7 ADD CALLDATACOPY DUP4 ADD ADD MSTORE SWAP1 JUMP JUMPDEST CALLVALUE PUSH2 0x146 JUMPI PUSH1 0x20 CALLDATASIZE PUSH1 0x3 NOT ADD SLT PUSH2 0x146 JUMPI PUSH1 0x4 CALLDATALOAD PUSH1 0x1 PUSH1 0x1 PUSH1 0x40 SHL SUB DUP2 GT PUSH2 0x146 JUMPI PUSH2 0xFE0 PUSH1 0x20 PUSH2 0xFCE PUSH1 0x40 SWAP4 CALLDATASIZE SWAP1 PUSH1 0x4 ADD PUSH2 0xF50 JUMP JUMPDEST DUP2 DUP5 MLOAD SWAP4 DUP3 DUP6 DUP1 SWAP5 MLOAD SWAP4 DUP5 SWAP3 ADD PUSH2 0x1000 JUMP JUMPDEST DUP2 ADD PUSH1 0x2 DUP2 MSTORE SUB ADD SWAP1 KECCAK256 PUSH1 0x3 PUSH1 0x2 DUP3 ADD SLOAD SWAP2 ADD SLOAD DUP3 MLOAD SWAP2 DUP3 MSTORE PUSH1 0x20 DUP3 ADD MSTORE RETURN JUMPDEST PUSH1 0x0 JUMPDEST DUP4 DUP2 LT PUSH2 0x1013 JUMPI POP POP PUSH1 0x0 SWAP2 ADD MSTORE JUMP JUMPDEST DUP2 DUP2 ADD MLOAD DUP4 DUP3 ADD MSTORE PUSH1 0x20 ADD PUSH2 0x1003 JUMP JUMPDEST SWAP1 PUSH1 0x1 DUP3 DUP2 SHR SWAP3 AND DUP1 ISZERO PUSH2 0x1053 JUMPI JUMPDEST PUSH1 0x20 DUP4 LT EQ PUSH2 0x103D JUMPI JUMP JUMPDEST PUSH4 0x4E487B71 PUSH1 0xE0 SHL PUSH1 0x0 MSTORE PUSH1 0x22 PUSH1 0x4 MSTORE PUSH1 0x24 PUSH1 0x0 REVERT JUMPDEST SWAP2 PUSH1 0x7F AND SWAP2 PUSH2 0x1032 JUMP JUMPDEST SWAP1 PUSH1 0x40 MLOAD SWAP2 DUP3 PUSH1 0x0 DUP3 SLOAD SWAP3 PUSH2 0x1071 DUP5 PUSH2 0x1023 JUMP JUMPDEST SWAP1 DUP2 DUP5 MSTORE PUSH1 0x1 SWAP5 DUP6 DUP2 AND SWAP1 DUP2 PUSH1 0x0 EQ PUSH2 0x10E0 JUMPI POP PUSH1 0x1 EQ PUSH2 0x109D JUMPI JUMPDEST POP POP PUSH2 0x109B SWAP3 POP SUB DUP4 PUSH2 0xF14 JUMP JUMPDEST JUMP JUMPDEST SWAP1 SWAP4 SWAP2 POP PUSH1 0x0 MSTORE PUSH1 0x20 SWAP1 DUP2 PUSH1 0x0 KECCAK256 SWAP4 PUSH1 0x0 SWAP2 JUMPDEST DUP2 DUP4 LT PUSH2 0x10C8 JUMPI POP POP PUSH2 0x109B SWAP4 POP DUP3 ADD ADD CODESIZE DUP1 PUSH2 0x108D JUMP JUMPDEST DUP6 SLOAD DUP9 DUP5 ADD DUP6 ADD MSTORE SWAP5 DUP6 ADD SWAP5 DUP8 SWAP5 POP SWAP2 DUP4 ADD SWAP2 PUSH2 0x10B0 JUMP JUMPDEST SWAP2 POP POP PUSH2 0x109B SWAP5 POP PUSH1 0x20 SWAP3 POP PUSH1 0xFF NOT AND DUP3 DUP5 ADD MSTORE ISZERO ISZERO PUSH1 0x5 SHL DUP3 ADD ADD CODESIZE DUP1 PUSH2 0x108D JUMP JUMPDEST SWAP1 PUSH1 0x20 SWAP2 PUSH2 0x111C DUP2 MLOAD DUP1 SWAP3 DUP2 DUP6 MSTORE DUP6 DUP1 DUP7 ADD SWAP2 ADD PUSH2 0x1000 JUMP JUMPDEST PUSH1 0x1F ADD PUSH1 0x1F NOT AND ADD ADD SWAP1 JUMP JUMPDEST PUSH1 0x1 PUSH1 0x1 PUSH1 0x40 SHL SUB DUP2 GT PUSH2 0x684 JUMPI PUSH1 0x5 SHL PUSH1 0x20 ADD SWAP1 JUMP JUMPDEST DUP2 PUSH1 0x1F DUP3 ADD SLT ISZERO PUSH2 0x146 JUMPI DUP1 CALLDATALOAD SWAP2 PUSH2 0x1156 DUP4 PUSH2 0x1128 JUMP JUMPDEST SWAP3 PUSH2 0x1164 PUSH1 0x40 MLOAD SWAP5 DUP6 PUSH2 0xF14 JUMP JUMPDEST DUP1 DUP5 MSTORE PUSH1 0x20 SWAP3 DUP4 DUP1 DUP7 ADD SWAP3 PUSH1 0x5 SHL DUP3 ADD ADD SWAP3 DUP4 GT PUSH2 0x146 JUMPI DUP4 ADD SWAP1 JUMPDEST DUP3 DUP3 LT PUSH2 0x118E JUMPI POP POP POP POP SWAP1 JUMP JUMPDEST DUP2 CALLDATALOAD DUP2 MSTORE SWAP1 DUP4 ADD SWAP1 DUP4 ADD PUSH2 0x1180 JUMP JUMPDEST PUSH1 0x0 SLOAD PUSH1 0x1 PUSH1 0x1 PUSH1 0xA0 SHL SUB AND CALLER SUB PUSH2 0x11B1 JUMPI JUMP JUMPDEST PUSH1 0x40 MLOAD PUSH4 0x118CDAA7 PUSH1 0xE0 SHL DUP2 MSTORE CALLER PUSH1 0x4 DUP3 ADD MSTORE PUSH1 0x24 SWAP1 REVERT JUMPDEST ISZERO PUSH2 0x11D0 JUMPI JUMP JUMPDEST PUSH1 0x40 MLOAD PUSH3 0x461BCD PUSH1 0xE5 SHL DUP2 MSTORE PUSH1 0x20 PUSH1 0x4 DUP3 ADD MSTORE PUSH1 0xF PUSH1 0x24 DUP3 ADD MSTORE PUSH15 0x98CADCCEE8D040DAD2E6DAC2E8C6D PUSH1 0x8B SHL PUSH1 0x44 DUP3 ADD MSTORE PUSH1 0x64 SWAP1 REVERT JUMPDEST PUSH1 0x0 NOT DUP2 EQ PUSH2 0x6B0 JUMPI PUSH1 0x1 ADD SWAP1 JUMP JUMPDEST DUP1 MLOAD DUP3 LT ISZERO PUSH2 0x122A JUMPI PUSH1 0x20 SWAP2 PUSH1 0x5 SHL ADD ADD SWAP1 JUMP JUMPDEST PUSH4 0x4E487B71 PUSH1 0xE0 SHL PUSH1 0x0 MSTORE PUSH1 0x32 PUSH1 0x4 MSTORE PUSH1 0x24 PUSH1 0x0 REVERT JUMPDEST DUP1 SLOAD DUP3 LT ISZERO PUSH2 0x122A JUMPI PUSH1 0x0 MSTORE PUSH1 0x20 PUSH1 0x0 KECCAK256 SWAP1 PUSH1 0x2 SHL ADD SWAP1 PUSH1 0x0 SWAP1 JUMP JUMPDEST SWAP2 SWAP1 DUP3 ADD DUP1 SWAP3 GT PUSH2 0x6B0 JUMPI JUMP JUMPDEST PUSH2 0x1281 SWAP1 PUSH1 0x20 PUSH1 0x40 MLOAD SWAP3 DUP3 DUP5 DUP1 SWAP5 MLOAD SWAP4 DUP5 SWAP3 ADD PUSH2 0x1000 JUMP JUMPDEST DUP2 ADD SUB SWAP1 KECCAK256 SWAP1 JUMP JUMPDEST PUSH1 0x20 PUSH2 0x12A5 SWAP2 SWAP4 SWAP3 SWAP4 DUP2 PUSH1 0x40 MLOAD SWAP4 DUP3 DUP6 DUP1 SWAP5 MLOAD SWAP4 DUP5 SWAP3 ADD PUSH2 0x1000 JUMP JUMPDEST DUP2 ADD PUSH1 0x2 DUP2 MSTORE SUB ADD SWAP1 KECCAK256 SWAP2 PUSH1 0xFF PUSH1 0x4 DUP5 ADD SLOAD AND ISZERO PUSH2 0x12DB JUMPI PUSH1 0x3 SWAP1 PUSH1 0x2 DUP5 ADD SLOAD GT SWAP3 ADD SLOAD GT ISZERO DUP2 ISZERO SWAP2 PUSH2 0x12D6 JUMPI POP SWAP1 JUMP JUMPDEST SWAP1 POP SWAP1 JUMP JUMPDEST POP POP POP PUSH1 0x1 SWAP1 JUMP JUMPDEST SWAP1 PUSH1 0x40 MLOAD PUSH2 0x12F0 DUP2 PUSH2 0xEF9 JUMP JUMPDEST PUSH1 0x60 PUSH1 0x3 DUP3 SWAP5 PUSH2 0x12FF DUP2 PUSH2 0x105D JUMP JUMPDEST DUP5 MSTORE PUSH1 0x1 DUP2 ADD SLOAD PUSH1 0x1 PUSH1 0x1 PUSH1 0xA0 SHL SUB AND PUSH1 0x20 DUP6 ADD MSTORE PUSH1 0x2 DUP2 ADD SLOAD PUSH1 0x40 DUP6 ADD MSTORE ADD SLOAD SWAP2 ADD MSTORE JUMP JUMPDEST ISZERO PUSH2 0x132C JUMPI JUMP JUMPDEST PUSH1 0x40 MLOAD PUSH3 0x461BCD PUSH1 0xE5 SHL DUP2 MSTORE PUSH1 0x20 PUSH1 0x4 DUP3 ADD MSTORE PUSH1 0x16 PUSH1 0x24 DUP3 ADD MSTORE PUSH22 0x149BDE585B1D1E481C185E5B595B9D0819985A5B1959 PUSH1 0x52 SHL PUSH1 0x44 DUP3 ADD MSTORE PUSH1 0x64 SWAP1 REVERT JUMPDEST RETURNDATASIZE ISZERO PUSH2 0x1395 JUMPI RETURNDATASIZE SWAP1 PUSH2 0x137B DUP3 PUSH2 0xF35 JUMP JUMPDEST SWAP2 PUSH2 0x1389 PUSH1 0x40 MLOAD SWAP4 DUP5 PUSH2 0xF14 JUMP JUMPDEST DUP3 MSTORE RETURNDATASIZE PUSH1 0x0 PUSH1 0x20 DUP5 ADD RETURNDATACOPY JUMP JUMPDEST PUSH1 0x60 SWAP1 JUMP INVALID LOG2 PUSH5 0x6970667358 0x22 SLT KECCAK256 0xC 0xAD DIV LT 0xBD 0xED 0x29 0xF6 PUSH32 0x6E4717800BA37A9CF9F5CE170E4B683539523E0E32910564736F6C6343000814 STOP CALLER "},"methodIdentifiers":{"PERCENTAGE_DENOMINATOR()":"b3cd4254","ROYALTY_PERCENTAGE()":"463b08db","USDC_ADDRESS()":"bb09d9b7","distributeRoyalties(string,uint8)":"50698181","getMinimumPrice(string)":"0467f04a","getProjectDependencies(string)":"50fd8e71","getTotalRoyalties(string)":"e2b3a4d3","owner()":"8da5cb5b","projectRoyalties(string)":"4aa8a12d","registerProjectRoyalties(string,string[],address[],uint256[],uint256[])":"681229a0","renounceOwnership()":"715018a6","transferOwnership(address)":"f2fde38b","usdcToken()":"11eac855","validatePrice(string,uint256,uint256)":"0434d60c"}}}}}