{"ClayLibrary.sol":{"ClayLibrary":{"abi":[{"inputs":[{"internalType":"address","name":"_royaltyContract","type":"address"}],"stateMutability":"nonpayable","type":"constructor"},{"inputs":[{"internalType":"address","name":"owner","type":"address"}],"name":"OwnableInvalidOwner","type":"error"},{"inputs":[{"internalType":"address","name":"account","type":"address"}],"name":"OwnableUnauthorizedAccount","type":"error"},{"inputs":[],"name":"ReentrancyGuardReentrantCall","type":"error"},{"anonymous":false,"inputs":[{"indexed":true,"internalType":"string","name":"projectId","type":"string"},{"indexed":true,"internalType":"address","name":"owner","type":"address"}],"name":"AssetDeactivated","type":"event"},{"anonymous":false,"inputs":[{"indexed":true,"internalType":"string","name":"projectId","type":"string"},{"indexed":false,"internalType":"uint256","name":"oldPrice","type":"uint256"},{"indexed":false,"internalType":"uint256","name":"newPrice","type":"uint256"}],"name":"AssetPriceUpdated","type":"event"},{"anonymous":false,"inputs":[{"indexed":true,"internalType":"string","name":"projectId","type":"string"},{"indexed":true,"internalType":"address","name":"buyer","type":"address"},{"indexed":true,"internalType":"address","name":"currentOwner","type":"address"},{"indexed":false,"internalType":"uint256","name":"price","type":"uint256"},{"indexed":false,"internalType":"uint256","name":"platformFee","type":"uint256"}],"name":"AssetPurchased","type":"event"},{"anonymous":false,"inputs":[{"indexed":true,"internalType":"string","name":"projectId","type":"string"},{"indexed":true,"internalType":"address","name":"creator","type":"address"},{"indexed":false,"internalType":"string","name":"name","type":"string"},{"indexed":false,"internalType":"uint256","name":"price","type":"uint256"}],"name":"AssetRegistered","type":"event"},{"anonymous":false,"inputs":[{"indexed":true,"internalType":"address","name":"previousOwner","type":"address"},{"indexed":true,"internalType":"address","name":"newOwner","type":"address"}],"name":"OwnershipTransferred","type":"event"},{"anonymous":false,"inputs":[{"indexed":true,"internalType":"string","name":"projectId","type":"string"},{"indexed":true,"internalType":"address","name":"previousOwner","type":"address"},{"indexed":true,"internalType":"address","name":"newOwner","type":"address"}],"name":"OwnershipTransferred","type":"event"},{"inputs":[],"name":"FEE_DENOMINATOR","outputs":[{"internalType":"uint256","name":"","type":"uint256"}],"stateMutability":"view","type":"function"},{"inputs":[],"name":"USDC_ADDRESS","outputs":[{"internalType":"address","name":"","type":"address"}],"stateMutability":"view","type":"function"},{"inputs":[{"internalType":"uint256","name":"","type":"uint256"}],"name":"allAssetIds","outputs":[{"internalType":"string","name":"","type":"string"}],"stateMutability":"view","type":"function"},{"inputs":[{"internalType":"string","name":"","type":"string"},{"internalType":"uint256","name":"","type":"uint256"}],"name":"assetPurchasers","outputs":[{"internalType":"address","name":"","type":"address"}],"stateMutability":"view","type":"function"},{"inputs":[{"internalType":"string","name":"projectId","type":"string"}],"name":"deactivateAsset","outputs":[],"stateMutability":"nonpayable","type":"function"},{"inputs":[{"internalType":"string","name":"projectId","type":"string"}],"name":"getAsset","outputs":[{"components":[{"internalType":"string","name":"projectId","type":"string"},{"internalType":"string","name":"name","type":"string"},{"internalType":"string","name":"description","type":"string"},{"internalType":"uint256","name":"priceETH","type":"uint256"},{"internalType":"uint256","name":"priceUSDC","type":"uint256"},{"internalType":"address","name":"currentOwner","type":"address"},{"internalType":"address","name":"originalCreator","type":"address"},{"internalType":"uint256","name":"totalRevenueETH","type":"uint256"},{"internalType":"uint256","name":"totalRevenueUSDC","type":"uint256"},{"internalType":"uint256","name":"purchaseCount","type":"uint256"},{"internalType":"uint256","name":"listedAt","type":"uint256"},{"internalType":"bool","name":"isActive","type":"bool"}],"internalType":"struct ClayLibrary.LibraryAsset","name":"","type":"tuple"}],"stateMutability":"view","type":"function"},{"inputs":[{"internalType":"uint256","name":"index","type":"uint256"}],"name":"getAssetIdByIndex","outputs":[{"internalType":"string","name":"","type":"string"}],"stateMutability":"view","type":"function"},{"inputs":[{"internalType":"string","name":"projectId","type":"string"}],"name":"getAssetPurchasers","outputs":[{"internalType":"address[]","name":"","type":"address[]"}],"stateMutability":"view","type":"function"},{"inputs":[],"name":"getTotalAssets","outputs":[{"internalType":"uint256","name":"","type":"uint256"}],"stateMutability":"view","type":"function"},{"inputs":[{"internalType":"address","name":"user","type":"address"}],"name":"getUserAssets","outputs":[{"internalType":"string[]","name":"","type":"string[]"}],"stateMutability":"view","type":"function"},{"inputs":[{"internalType":"string","name":"","type":"string"}],"name":"libraryAssets","outputs":[{"internalType":"string","name":"projectId","type":"string"},{"internalType":"string","name":"name","type":"string"},{"internalType":"string","name":"description","type":"string"},{"internalType":"uint256","name":"priceETH","type":"uint256"},{"internalType":"uint256","name":"priceUSDC","type":"uint256"},{"internalType":"address","name":"currentOwner","type":"address"},{"internalType":"address","name":"originalCreator","type":"address"},{"internalType":"uint256","name":"totalRevenueETH","type":"uint256"},{"internalType":"uint256","name":"totalRevenueUSDC","type":"uint256"},{"internalType":"uint256","name":"purchaseCount","type":"uint256"},{"internalType":"uint256","name":"listedAt","type":"uint256"},{"internalType":"bool","name":"isActive","type":"bool"}],"stateMutability":"view","type":"function"},{"inputs":[],"name":"owner","outputs":[{"internalType":"address","name":"","type":"address"}],"stateMutability":"view","type":"function"},{"inputs":[],"name":"platformFeePercentage","outputs":[{"internalType":"uint256","name":"","type":"uint256"}],"stateMutability":"view","type":"function"},{"inputs":[{"internalType":"string","name":"projectId","type":"string"}],"name":"purchaseAssetWithETH","outputs":[],"stateMutability":"payable","type":"function"},{"inputs":[{"internalType":"string","name":"projectId","type":"string"}],"name":"purchaseAssetWithUSDC","outputs":[],"stateMutability":"nonpayable","type":"function"},{"inputs":[{"internalType":"string","name":"projectId","type":"string"},{"internalType":"string","name":"name","type":"string"},{"internalType":"string","name":"description","type":"string"},{"internalType":"uint256","name":"priceETH","type":"uint256"},{"internalType":"uint256","name":"priceUSDC","type":"uint256"}],"name":"registerAsset","outputs":[],"stateMutability":"nonpayable","type":"function"},{"inputs":[],"name":"renounceOwnership","outputs":[],"stateMutability":"nonpayable","type":"function"},{"inputs":[],"name":"royaltyContract","outputs":[{"internalType":"contract IClayRoyalty","name":"","type":"address"}],"stateMutability":"view","type":"function"},{"inputs":[{"internalType":"address","name":"_royaltyContract","type":"address"}],"name":"setRoyaltyContract","outputs":[],"stateMutability":"nonpayable","type":"function"},{"inputs":[{"internalType":"string","name":"projectId","type":"string"},{"internalType":"address","name":"newOwner","type":"address"}],"name":"transferAssetOwnership","outputs":[],"stateMutability":"nonpayable","type":"function"},{"inputs":[{"internalType":"address","name":"newOwner","type":"address"}],"name":"transferOwnership","outputs":[],"stateMutability":"nonpayable","type":"function"},{"inputs":[{"internalType":"string","name":"projectId","type":"string"},{"internalType":"uint256","name":"newPriceETH","type":"uint256"},{"internalType":"uint256","name":"newPriceUSDC","type":"uint256"}],"name":"updateAssetPrice","outputs":[],"stateMutability":"nonpayable","type":"function"},{"inputs":[{"internalType":"uint256","name":"newFeePercentage","type":"uint256"}],"name":"updatePlatformFee","outputs":[],"stateMutability":"nonpayable","type":"function"},{"inputs":[],"name":"usdcToken","outputs":[{"internalType":"contract IERC20","name":"","type":"address"}],"stateMutability":"view","type":"function"},{"inputs":[{"internalType":"address","name":"","type":"address"},{"internalType":"uint256","name":"","type":"uint256"}],"name":"userOwnedAssets","outputs":[{"internalType":"string","name":"","type":"string"}],"stateMutability":"view","type":"function"},{"inputs":[],"name":"withdrawPlatformFeesETH","outputs":[],"stateMutability":"nonpayable","type":"function"},{"inputs":[],"name":"withdrawPlatformFeesUSDC","outputs":[],"stateMutability":"nonpayable","type":"function"}],"evm":{"bytecode":{"linkReferences":{},"object":"60a03461010057601f6200278f38819003918201601f19168301916001600160401b038311848410176101055780849260209460405283398101031261010057516001600160a01b0390818116908190036101005733156100e75760005460018060a01b0319903382821617600055604051933391167f8be0079c531659141344cd1fd0a4f28419497f9722a3daafe3b4186f6b6457e0600080a36001805560fa60075573833589fcd6edb6e08f4c7c32d4f71b54bda02913608052600254161760025561267390816200011c823960805181818161066e01528181610bec0152611dbf0152f35b604051631e4fbdf760e01b815260006004820152602490fd5b600080fd5b634e487b7160e01b600052604160045260246000fdfe6080604052600436101561001257600080fd5b6000803560e01c80630f393baf14611dee57806311eac85514611da95780631663ee0314611d805780632203f8f114611a1557806351618eff146118e75780635d483ab91461189b5780636cb3db25146117845780636e07302b14611766578063715018a61461170c578063765ff0611461160c5780638ada33dc146112e35780638bccf0091461125c5780638c5deff8146111ed5780638da5cb5b146111c65780639c5218381461113f5780639ff95b8e1461105a578063aa0b598814610ff0578063bb09d9b714610fc1578063cd5286d014610d9f578063cdd78cfc14610d81578063d73792a914610d64578063d9aa187c14610d24578063dceb768614610bb3578063e814d66b14610b66578063f2fde38b14610adb578063fb055846146105895763ff6c0dde1461014657600080fd5b346105865760a0366003190112610586576001600160401b0360043581811161058257610177903690600401611f96565b90602491823582811161057e57610192903690600401611f96565b9160443590811161057e576101ab903690600401611f96565b926064359360843583511561053a578515801590610531575b6101cd906121d8565b60405160ff600b865192602081818a01956101e9818389612164565b810160038152030190200154166104ed576002546001600160a01b031680610401575b506040519261021a84611f3e565b85845260208401928784526040850191825260608501908982526080860190815260a086019133835260c087019333855260e08801958d87528d6101008a01528d6101208a0152426101408a01526101608901600190526040518080928d51809261028492612164565b81016003815203602001902096885161029d9089612298565b516102ab9060018901612298565b516102b99060028801612298565b5160038601555160048501556005840190600160a01b60019003905116906001600160601b0360a01b91828254161790556006840191600160a01b600190039051169082541617905551600782015561010082015160088201556101208201516009820155610140820151600a820155600b01906101600151151560ff198254169060ff1617905533855260056020528160408620906103589161235f565b600654600160401b8110156103ec578060016103779201600655611ff8565b9190916103d85750816103ae7f585d38ebcb0fe93ced4d64fbb112388b85b7726e7d87c5142521434d4f122384936103b393612298565b61238c565b916103c960405191604083526040830190612187565b9360208201528033940390a380f35b634e487b7160e01b60005260006004526000fd5b50634e487b7160e01b60009081526041600452fd5b6020604051809263010d358360e21b8252606060048301528180610428606482018c612187565b8d8b83015288604483015203915afa9081156104e25789916104b3575b5015610451573861020c565b60405162461bcd60e51b8152602060048201526035818601527f50726963652062656c6f77206d696e696d756d20286d75737420636f76657220604482015274646570656e64656e637920726f79616c746965732960581b6064820152608490fd5b6104d5915060203d6020116104db575b6104cd8183611f5a565b810190612224565b38610445565b503d6104c3565b6040513d8b823e3d90fd5b60405162461bcd60e51b8152602060048201526018818601527f417373657420616c7265616479207265676973746572656400000000000000006044820152606490fd5b508015156101c4565b60405162461bcd60e51b815260206004820152601a818501527f50726f6a6563742049442063616e6e6f7420626520656d7074790000000000006044820152606490fd5b8480fd5b8280fd5b80fd5b5034610586576020806003193601126108ac576004356001600160401b038111610582576105bb903690600401611f96565b6105c36124fe565b604051918151928181818501956105db818389612164565b81016003815203019020926105f660ff600b860154166123ac565b60048401938454918215610a85576002546001600160a01b0392889291841680610a12575b5061063661271061062e60075488612427565b04809661243a565b6005820180546040516323b872dd60e01b8082523360048301529188166001600160a01b0316602482015260448101939093529094917f0000000000000000000000000000000000000000000000000000000000000000871691908c908a8160648185885af180156108a157826106ba8c928e946106e496916109f5575b50612477565b60405185815233600482015230602482015260448101929092529092839190829081906064820190565b0391875af19081156109ea578d916109cd575b501561098857826107b3575b505050600990885461071a60088301918254612404565b9055018054906001820180921161079f5761076894939261075e9261074a92556040519182918a51928391612164565b8101906004825287813393030190206124c3565b541694549361238c565b916040519384528301527f9f1cf37e6808c30667b45ef497cdbe9240ff2b62734e74189ac2c7f4a76d487d60403393a46001805580f35b634e487b7160e01b8a52601160045260248afd5b6040519081523360048201523060248201526044810183905288816064818f865af190811561097d578c91610960575b501561090f5760025460405163095ea7b360e01b81529087166001600160a01b03166004820152602481019290925287908290818d816044810103925af1908115610904578a916108e7575b50156108b057888460025416803b156108ac578161086d81928b604051948580948193635069818160e01b8352604060048401526044830190612187565b6001602483015203925af180156108a157610889575b80610703565b61089290611f15565b61089d578838610883565b8880fd5b6040513d84823e3d90fd5b5080fd5b60405162461bcd60e51b815260048101879052600f60248201526e105c1c1c9bdd985b0819985a5b1959608a1b6044820152606490fd5b6108fe9150873d89116104db576104cd8183611f5a565b3861082f565b6040513d8c823e3d90fd5b60405162461bcd60e51b815260048101899052602360248201527f526f79616c7479207472616e7366657220746f20636f6e7472616374206661696044820152621b195960ea1b6064820152608490fd5b6109779150893d8b116104db576104cd8183611f5a565b386107e3565b6040513d8e823e3d90fd5b60405162461bcd60e51b8152600481018a9052601c60248201527f506c6174666f726d20666565207472616e73666572206661696c6564000000006044820152606490fd5b6109e491508a3d8c116104db576104cd8183611f5a565b386106f7565b6040513d8f823e3d90fd5b610a0c9150853d87116104db576104cd8183611f5a565b386106b4565b90925060408051809263e2b3a4d360e01b82528860048301528180610a3a602482018d612187565b03915afa9081156104e2578991610a54575b50913861061b565b610a76915060403d604011610a7e575b610a6e8183611f5a565b8101906123ee565b905038610a4c565b503d610a64565b60405162461bcd60e51b815260048101859052602860248201527f55534443207061796d656e74206e6f7420616363657074656420666f722074686044820152671a5cc8185cdcd95d60c21b6064820152608490fd5b503461058657602036600319011261058657610af5611fe2565b610afd6121ac565b6001600160a01b03908116908115610b4d57600054826001600160601b0360a01b821617600055167f8be0079c531659141344cd1fd0a4f28419497f9722a3daafe3b4186f6b6457e0600080a380f35b604051631e4fbdf760e01b815260048101849052602490fd5b5034610586576020366003190112610586576004359060065482101561058657610baf610b9b610b9584611ff8565b9061213d565b604051918291602083526020830190612187565b0390f35b5034610586578060031936011261058657610bcc6121ac565b6040516370a0823160e01b81523060048201526020906001600160a01b037f00000000000000000000000000000000000000000000000000000000000000008116908383602481855afa928315610d19578593610cea575b508215610ca557845460405163a9059cbb60e01b815291166001600160a01b031660048201526024810192909252829082908186816044810103925af1908115610c9a57610c7a928492610c7d575b5050612521565b80f35b610c939250803d106104db576104cd8183611f5a565b3880610c73565b6040513d85823e3d90fd5b60405162461bcd60e51b815260048101859052601860248201527f4e6f2055534443206665657320746f20776974686472617700000000000000006044820152606490fd5b9092508381813d8311610d12575b610d028183611f5a565b8101031261057e57519138610c24565b503d610cf8565b6040513d87823e3d90fd5b503461058657602036600319011261058657610d3e611fe2565b610d466121ac565b60018060a01b03166001600160601b0360a01b600254161760025580f35b503461058657806003193601126105865760206040516127108152f35b50346105865780600319360112610586576020600754604051908152f35b5034610586576020366003190112610586576004356001600160401b0381116108ac57610e3f91610dd66020923690600401611f96565b90610160604051610de681611f3e565b60608152606085820152606060408201528260608201528260808201528260a08201528260c08201528260e082015282610100820152826101208201528261014082015201528160405193828580945193849201612164565b8101600381520301902060ff600b60405192610e5a84611f3e565b610e6381612097565b8452610e7160018201612097565b6020850152610e8260028201612097565b6040850152600381015460608501526004810154608085015260018060a01b0360058201541660a085015260018060a01b0360068201541660c0850152600781015460e085015260088101546101008501526009810154610120850152600a8101546101408501520154161515610160820152604051809160208252610160610f4d610f1c835161018060208701526101a0860190612187565b610f38602085015191601f199283888303016040890152612187565b90604085015190868303016060870152612187565b9160608101516080850152608081015160a085015260018060a01b0360a08201511660c085015260018060a01b0360c08201511660e085015260e081015161010085015261010081015161012085015261012081015161014085015261014081015182850152015115156101808301520390f35b5034610586578060031936011261058657602060405173833589fcd6edb6e08f4c7c32d4f71b54bda029138152f35b50346105865760203660031901126105865760043561100d6121ac565b6103e8811161101c5760075580f35b60405162461bcd60e51b815260206004820152601660248201527546656520746f6f206869676820286d6178203130252960501b6044820152606490fd5b5034610586576020806003193601126108ac576004356001600160401b03811161058257816110906110a3923690600401611f96565b8160405193828580945193849201612164565b8101600481520301902060405192838383549182815201908193835284832090835b81811061112257505050846110db910385611f5a565b60405193838594850191818652518092526040850193925b82811061110257505050500390f35b83516001600160a01b0316855286955093810193928101926001016110f3565b82546001600160a01b0316845292860192600192830192016110c5565b50346105865780600319360112610586576111586121ac565b4780156111815781808080610c7a9460018060a01b038254165af161117b612447565b50612521565b60405162461bcd60e51b815260206004820152601760248201527f4e6f20455448206665657320746f2077697468647261770000000000000000006044820152606490fd5b5034610586578060031936011261058657546040516001600160a01b039091168152602090f35b50346105865760203660031901126105865760043560065481101561122157610b9b61121b610baf92611ff8565b50612097565b60405162461bcd60e51b8152602060048201526013602482015272496e646578206f7574206f6620626f756e647360681b6044820152606490fd5b5034610586576040366003190112610586576004356001600160401b0381116108ac5761128d903690600401611f96565b906112aa6020602435938160405193828580945193849201612164565b810160048152030190209081548310156105865760206112ca8484612045565b905460405160039290921b1c6001600160a01b03168152f35b506020806003193601126108ac576004356001600160401b03811161058257611310903690600401611f96565b6113186124fe565b60405191815192818181850195611330818389612164565b810160038152030190209261134b60ff600b860154166123ac565b600384019384549081156115b7576002546001600160a01b0392889184169081611552575b8261137a91612404565b918234106114fc57808a9161149f575b50505086549360096113ac6127106113a460075489612427565b04809761243a565b936113c78b80808060058601998b8b54165af16106b4612447565b89546113d860078301918254612404565b9055018054906001820180921161148b57878b9493611418936114079355604051809381928d51928391612164565b8101600481520301902033906124c3565b803411611431575b50509061076891541694549361238c565b818061143e81933461243a565b335af1611449612447565b5015611456578638611420565b60405162461bcd60e51b815260048101859052600d60248201526c1499599d5b990819985a5b1959609a1b6044820152606490fd5b634e487b7160e01b8b52601160045260248bfd5b823b156108ac5760405192838092635069818160e01b825260406004830152816114cd8d6044830190612187565b86602483015203925af180156104e2576114e9575b888161138a565b6114f590989198611f15565b96386114e2565b60405162461bcd60e51b815260048101889052602860248201527f496e73756666696369656e74207061796d656e7420287072696365202b20726f60448201526779616c746965732960c01b6064820152608490fd5b915060405163e2b3a4d360e01b815286600482015260408180611578602482018c612187565b0381855afa80156109045761137a918b91611597575b50929050611370565b6115b0915060403d604011610a7e57610a6e8183611f5a565b503861158e565b60405162461bcd60e51b815260048101859052602760248201527f455448207061796d656e74206e6f7420616363657074656420666f72207468696044820152661cc8185cdcd95d60ca1b6064820152608490fd5b5034610586576020806003193601126108ac576001600160a01b0361162f611fe2565b168252600581526040822080546001600160401b0381116116f85791926040519261165f858260051b0185611f5a565b8084528484018093835285832083915b8383106116d45750505050604051928484019085855251809152604084019460408260051b8601019392955b8287106116a85785850386f35b9091929382806116c4600193603f198a82030186528851612187565b960192019601959291909261169b565b60018881926116e6859b9a989b612097565b8152019201920191909693959661166f565b634e487b7160e01b84526041600452602484fd5b50346105865780600319360112610586576117256121ac565b80546001600160a01b03198116825581906001600160a01b03167f8be0079c531659141344cd1fd0a4f28419497f9722a3daafe3b4186f6b6457e08280a380f35b50346105865780600319360112610586576020600654604051908152f35b503461058657602036600319011261058657600435906001600160401b038211610586576117ba60206110903660048601611f96565b810160038152030190206118476117d082612097565b916117dd60018201612097565b926117ea60028301612097565b91600381015492600482015460018060a01b03806005850154169060068501541660078501549160088601549361186360098801549661185560ff600b600a8c01549b0154169a6040519e8f9e8f92610180808552840190612187565b916020818403910152612187565b8c810360408e015290612187565b9860608b015260808a015260a089015260c088015260e087015261010086015261012085015261014084015215156101608301520390f35b5034610586576040366003190112610586576118b5611fe2565b6001600160a01b031681526005602052604081208054602435929083101561058657610baf610b9b610b958585612045565b5034610586576020366003190112610586576004356001600160401b0381116108ac57611918903690600401611f96565b604051602081835161192d8183858801612164565b81016003815203019020600b81019081549060ff8216156119d757600501546001600160a01b031633036119925760ff1916905561196b339161238c565b7fbf7659f4659900a03fed4ad2fc77c3602180b8afcf682077f6e38e88d0cf58f48380a380f35b60405162461bcd60e51b815260206004820152601960248201527f4f6e6c79206f776e65722063616e2064656163746976617465000000000000006044820152606490fd5b60405162461bcd60e51b8152602060048201526016602482015275417373657420616c726561647920696e61637469766560501b6044820152606490fd5b5034610586576040366003190112610586576004356001600160401b0381116108ac57611a46903690600401611f96565b6024916001600160a01b039183358381168103610582576040516020818451611a728183858901612164565b8101600381520301902093611a8d60ff600b870154166123ac565b8060058601541691823303611d3c5781811615611d045782855260056020526040852095855b875480821015611cf157611ac7828a612045565b5060405190818a825492611ada8461205d565b8084529360018116908115611ccf5750600114611c91575b50611aff92500382611f5a565b602081519101208751602089012014611b3757506000198114611b2457600101611ab3565b634e487b7160e01b875260116004528887fd5b90600098929394959697981991828101908111611c7e57611b5b611b639185612045565b509184612045565b919091611c6b57611b7391612561565b81548015611c58570190611b878282612045565b999099611c4657508789611ba1611be198999a9b5461205d565b80611c08575b505050555b600590810180546001600160a01b031916838516908117909155875260205260408620611bda90869061235f565b169261238c565b7f6840904f5b31827f74e1497360da245f56e530c8c3de3163a2d31f11493273c68480a480f35b82601f808311600114611c2257505050555b883880611ba7565b83825260208220939192611c3f910160051c84016001850161223c565b5555611c1a565b634e487b7160e01b8952600489905288fd5b634e487b7160e01b895260316004528989fd5b634e487b7160e01b8a5260048a90528a8afd5b634e487b7160e01b8a5260116004528a8afd5b8c52505060208a208a91905b818310611cb6575050816020611aff9282010138611af2565b8054602084860181019190915290920191600101611c9d565b905060209250611aff94915060ff191682840152151560051b82010138611af2565b5050909192949650611be1939550611bac565b60405162461bcd60e51b8152602060048201526011818901527024b73b30b634b2103732bb9037bbb732b960791b6044820152606490fd5b60405162461bcd60e51b815260206004820152601f818901527f4f6e6c792063757272656e74206f776e65722063616e207472616e73666572006044820152606490fd5b50346105865780600319360112610586576002546040516001600160a01b039091168152602090f35b50346105865780600319360112610586576040517f00000000000000000000000000000000000000000000000000000000000000006001600160a01b03168152602090f35b5034610586576060366003190112610586576004356001600160401b0381116108ac57611e1f903690600401611f96565b60243590604435906040516020818351611e3c8183858801612164565b81016003815203019020611e5660ff600b830154166123ac565b60058101546001600160a01b03163303611ed057611eb86040927f6f614e54fafe71f7c0a065e36894602ca7ed071e7be8df9bade0418e775fac56948615801590611ec7575b611ea5906121d8565b600460038501948886549655015561238c565b9382519182526020820152a280f35b50801515611e9c565b60405162461bcd60e51b815260206004820152601b60248201527f4f6e6c79206f776e65722063616e2075706461746520707269636500000000006044820152606490fd5b6001600160401b038111611f2857604052565b634e487b7160e01b600052604160045260246000fd5b61018081019081106001600160401b03821117611f2857604052565b90601f801991011681019081106001600160401b03821117611f2857604052565b6001600160401b038111611f2857601f01601f191660200190565b81601f82011215611fdd57803590611fad82611f7b565b92611fbb6040519485611f5a565b82845260208383010111611fdd57816000926020809301838601378301015290565b600080fd5b600435906001600160a01b0382168203611fdd57565b60065481101561202f5760066000527ff652222313e28459528d920b65115c16c04f3efc82aaedc97be59f3f377c0d3f0190600090565b634e487b7160e01b600052603260045260246000fd5b805482101561202f5760005260206000200190600090565b90600182811c9216801561208d575b602083101461207757565b634e487b7160e01b600052602260045260246000fd5b91607f169161206c565b90604051918260008254926120ab8461205d565b90818452600194858116908160001461211a57506001146120d7575b50506120d592500383611f5a565b565b9093915060005260209081600020936000915b8183106121025750506120d5935082010138806120c7565b855488840185015294850194879450918301916120ea565b9150506120d594506020925060ff191682840152151560051b82010138806120c7565b9061214e5761214b90612097565b90565b634e487b7160e01b600052600060045260246000fd5b60005b8381106121775750506000910152565b8181015183820152602001612167565b906020916121a081518092818552858086019101612164565b601f01601f1916010190565b6000546001600160a01b031633036121c057565b60405163118cdaa760e01b8152336004820152602490fd5b156121df57565b60405162461bcd60e51b815260206004820152601e60248201527f4174206c65617374206f6e65207072696365206d7573742062652073657400006044820152606490fd5b90816020910312611fdd57518015158103611fdd5790565b818110612247575050565b6000815560010161223c565b9190601f811161226257505050565b6120d5926000526020600020906020601f840160051c8301931061228e575b601f0160051c019061223c565b9091508190612281565b91909182516001600160401b038111611f28576122bf816122b9845461205d565b84612253565b602080601f83116001146122fb5750819293946000926122f0575b50508160011b916000199060031b1c1916179055565b0151905038806122da565b90601f198316958460005282600020926000905b8882106123475750508360019596971061232e575b505050811b019055565b015160001960f88460031b161c19169055388080612324565b8060018596829496860151815501950193019061230f565b8054600160401b811015611f285761237c91600182018155612045565b91909161214e576120d591612298565b6123a490602060405192828480945193849201612164565b810103902090565b156123b357565b60405162461bcd60e51b81526020600482015260136024820152724173736574206e6f7420617661696c61626c6560681b6044820152606490fd5b9190826040910312611fdd576020825192015190565b9190820180921161241157565b634e487b7160e01b600052601160045260246000fd5b8181029291811591840414171561241157565b9190820391821161241157565b3d15612472573d9061245882611f7b565b916124666040519384611f5a565b82523d6000602084013e565b606090565b1561247e57565b60405162461bcd60e51b815260206004820152601760248201527f5061796d656e7420746f206f776e6572206661696c65640000000000000000006044820152606490fd5b8054600160401b811015611f28576124e091600182018155612045565b819291549060031b9160018060a01b03809116831b921b1916179055565b60026001541461250f576002600155565b604051633ee5aeb560e01b8152600490fd5b1561252857565b60405162461bcd60e51b815260206004820152601160248201527015da5d1a191c985dd85b0819985a5b1959607a1b6044820152606490fd5b9080821461263957612573815461205d565b906001600160401b038211611f2857819061259882612592865461205d565b86612253565b600090601f83116001146125ce576000926125c35750508160011b916000199060031b1c1916179055565b0154905038806122da565b81526020808220858352818320935090601f1985169083905b82821061262057505090846001959493921061260757505050811b019055565b015460001960f88460031b161c19169055388080612324565b84958192958501548155600180910196019401906125e7565b505056fea2646970667358221220283627ebd2a6cc7f030d612e7c00b1d1c537176848b42f388fec5ed42826b4f164736f6c63430008140033","opcodes":"PUSH1 0xA0 CALLVALUE PUSH2 0x100 JUMPI PUSH1 0x1F PUSH3 0x278F CODESIZE DUP2 SWAP1 SUB SWAP2 DUP3 ADD PUSH1 0x1F NOT AND DUP4 ADD SWAP2 PUSH1 0x1 PUSH1 0x1 PUSH1 0x40 SHL SUB DUP4 GT DUP5 DUP5 LT OR PUSH2 0x105 JUMPI DUP1 DUP5 SWAP3 PUSH1 0x20 SWAP5 PUSH1 0x40 MSTORE DUP4 CODECOPY DUP2 ADD SUB SLT PUSH2 0x100 JUMPI MLOAD PUSH1 0x1 PUSH1 0x1 PUSH1 0xA0 SHL SUB SWAP1 DUP2 DUP2 AND SWAP1 DUP2 SWAP1 SUB PUSH2 0x100 JUMPI CALLER ISZERO PUSH2 0xE7 JUMPI PUSH1 0x0 SLOAD PUSH1 0x1 DUP1 PUSH1 0xA0 SHL SUB NOT SWAP1 CALLER DUP3 DUP3 AND OR PUSH1 0x0 SSTORE PUSH1 0x40 MLOAD SWAP4 CALLER SWAP2 AND PUSH32 0x8BE0079C531659141344CD1FD0A4F28419497F9722A3DAAFE3B4186F6B6457E0 PUSH1 0x0 DUP1 LOG3 PUSH1 0x1 DUP1 SSTORE PUSH1 0xFA PUSH1 0x7 SSTORE PUSH20 0x833589FCD6EDB6E08F4C7C32D4F71B54BDA02913 PUSH1 0x80 MSTORE PUSH1 0x2 SLOAD AND OR PUSH1 0x2 SSTORE PUSH2 0x2673 SWAP1 DUP2 PUSH3 0x11C DUP3 CODECOPY PUSH1 0x80 MLOAD DUP2 DUP2 DUP2 PUSH2 0x66E ADD MSTORE DUP2 DUP2 PUSH2 0xBEC ADD MSTORE PUSH2 0x1DBF ADD MSTORE RETURN JUMPDEST PUSH1 0x40 MLOAD PUSH4 0x1E4FBDF7 PUSH1 0xE0 SHL DUP2 MSTORE PUSH1 0x0 PUSH1 0x4 DUP3 ADD MSTORE PUSH1 0x24 SWAP1 REVERT JUMPDEST PUSH1 0x0 DUP1 REVERT JUMPDEST PUSH4 0x4E487B71 PUSH1 0xE0 SHL PUSH1 0x0 MSTORE PUSH1 0x41 PUSH1 0x4 MSTORE PUSH1 0x24 PUSH1 0x0 REVERT INVALID PUSH1 0x80 PUSH1 0x40 MSTORE PUSH1 0x4 CALLDATASIZE LT ISZERO PUSH2 0x12 JUMPI PUSH1 0x0 DUP1 REVERT JUMPDEST PUSH1 0x0 DUP1 CALLDATALOAD PUSH1 0xE0 SHR DUP1 PUSH4 0xF393BAF EQ PUSH2 0x1DEE JUMPI DUP1 PUSH4 0x11EAC855 EQ PUSH2 0x1DA9 JUMPI DUP1 PUSH4 0x1663EE03 EQ PUSH2 0x1D80 JUMPI DUP1 PUSH4 0x2203F8F1 EQ PUSH2 0x1A15 JUMPI DUP1 PUSH4 0x51618EFF EQ PUSH2 0x18E7 JUMPI DUP1 PUSH4 0x5D483AB9 EQ PUSH2 0x189B JUMPI DUP1 PUSH4 0x6CB3DB25 EQ PUSH2 0x1784 JUMPI DUP1 PUSH4 0x6E07302B EQ PUSH2 0x1766 JUMPI DUP1 PUSH4 0x715018A6 EQ PUSH2 0x170C JUMPI DUP1 PUSH4 0x765FF061 EQ PUSH2 0x160C JUMPI DUP1 PUSH4 0x8ADA33DC EQ PUSH2 0x12E3 JUMPI DUP1 PUSH4 0x8BCCF009 EQ PUSH2 0x125C JUMPI DUP1 PUSH4 0x8C5DEFF8 EQ PUSH2 0x11ED JUMPI DUP1 PUSH4 0x8DA5CB5B EQ PUSH2 0x11C6 JUMPI DUP1 PUSH4 0x9C521838 EQ PUSH2 0x113F JUMPI DUP1 PUSH4 0x9FF95B8E EQ PUSH2 0x105A JUMPI DUP1 PUSH4 0xAA0B5988 EQ PUSH2 0xFF0 JUMPI DUP1 PUSH4 0xBB09D9B7 EQ PUSH2 0xFC1 JUMPI DUP1 PUSH4 0xCD5286D0 EQ PUSH2 0xD9F JUMPI DUP1 PUSH4 0xCDD78CFC EQ PUSH2 0xD81 JUMPI DUP1 PUSH4 0xD73792A9 EQ PUSH2 0xD64 JUMPI DUP1 PUSH4 0xD9AA187C EQ PUSH2 0xD24 JUMPI DUP1 PUSH4 0xDCEB7686 EQ PUSH2 0xBB3 JUMPI DUP1 PUSH4 0xE814D66B EQ PUSH2 0xB66 JUMPI DUP1 PUSH4 0xF2FDE38B EQ PUSH2 0xADB JUMPI DUP1 PUSH4 0xFB055846 EQ PUSH2 0x589 JUMPI PUSH4 0xFF6C0DDE EQ PUSH2 0x146 JUMPI PUSH1 0x0 DUP1 REVERT JUMPDEST CALLVALUE PUSH2 0x586 JUMPI PUSH1 0xA0 CALLDATASIZE PUSH1 0x3 NOT ADD SLT PUSH2 0x586 JUMPI PUSH1 0x1 PUSH1 0x1 PUSH1 0x40 SHL SUB PUSH1 0x4 CALLDATALOAD DUP2 DUP2 GT PUSH2 0x582 JUMPI PUSH2 0x177 SWAP1 CALLDATASIZE SWAP1 PUSH1 0x4 ADD PUSH2 0x1F96 JUMP JUMPDEST SWAP1 PUSH1 0x24 SWAP2 DUP3 CALLDATALOAD DUP3 DUP2 GT PUSH2 0x57E JUMPI PUSH2 0x192 SWAP1 CALLDATASIZE SWAP1 PUSH1 0x4 ADD PUSH2 0x1F96 JUMP JUMPDEST SWAP2 PUSH1 0x44 CALLDATALOAD SWAP1 DUP2 GT PUSH2 0x57E JUMPI PUSH2 0x1AB SWAP1 CALLDATASIZE SWAP1 PUSH1 0x4 ADD PUSH2 0x1F96 JUMP JUMPDEST SWAP3 PUSH1 0x64 CALLDATALOAD SWAP4 PUSH1 0x84 CALLDATALOAD DUP4 MLOAD ISZERO PUSH2 0x53A JUMPI DUP6 ISZERO DUP1 ISZERO SWAP1 PUSH2 0x531 JUMPI JUMPDEST PUSH2 0x1CD SWAP1 PUSH2 0x21D8 JUMP JUMPDEST PUSH1 0x40 MLOAD PUSH1 0xFF PUSH1 0xB DUP7 MLOAD SWAP3 PUSH1 0x20 DUP2 DUP2 DUP11 ADD SWAP6 PUSH2 0x1E9 DUP2 DUP4 DUP10 PUSH2 0x2164 JUMP JUMPDEST DUP2 ADD PUSH1 0x3 DUP2 MSTORE SUB ADD SWAP1 KECCAK256 ADD SLOAD AND PUSH2 0x4ED JUMPI PUSH1 0x2 SLOAD PUSH1 0x1 PUSH1 0x1 PUSH1 0xA0 SHL SUB AND DUP1 PUSH2 0x401 JUMPI JUMPDEST POP PUSH1 0x40 MLOAD SWAP3 PUSH2 0x21A DUP5 PUSH2 0x1F3E JUMP JUMPDEST DUP6 DUP5 MSTORE PUSH1 0x20 DUP5 ADD SWAP3 DUP8 DUP5 MSTORE PUSH1 0x40 DUP6 ADD SWAP2 DUP3 MSTORE PUSH1 0x60 DUP6 ADD SWAP1 DUP10 DUP3 MSTORE PUSH1 0x80 DUP7 ADD SWAP1 DUP2 MSTORE PUSH1 0xA0 DUP7 ADD SWAP2 CALLER DUP4 MSTORE PUSH1 0xC0 DUP8 ADD SWAP4 CALLER DUP6 MSTORE PUSH1 0xE0 DUP9 ADD SWAP6 DUP14 DUP8 MSTORE DUP14 PUSH2 0x100 DUP11 ADD MSTORE DUP14 PUSH2 0x120 DUP11 ADD MSTORE TIMESTAMP PUSH2 0x140 DUP11 ADD MSTORE PUSH2 0x160 DUP10 ADD PUSH1 0x1 SWAP1 MSTORE PUSH1 0x40 MLOAD DUP1 DUP1 SWAP3 DUP14 MLOAD DUP1 SWAP3 PUSH2 0x284 SWAP3 PUSH2 0x2164 JUMP JUMPDEST DUP2 ADD PUSH1 0x3 DUP2 MSTORE SUB PUSH1 0x20 ADD SWAP1 KECCAK256 SWAP7 DUP9 MLOAD PUSH2 0x29D SWAP1 DUP10 PUSH2 0x2298 JUMP JUMPDEST MLOAD PUSH2 0x2AB SWAP1 PUSH1 0x1 DUP10 ADD PUSH2 0x2298 JUMP JUMPDEST MLOAD PUSH2 0x2B9 SWAP1 PUSH1 0x2 DUP9 ADD PUSH2 0x2298 JUMP JUMPDEST MLOAD PUSH1 0x3 DUP7 ADD SSTORE MLOAD PUSH1 0x4 DUP6 ADD SSTORE PUSH1 0x5 DUP5 ADD SWAP1 PUSH1 0x1 PUSH1 0xA0 SHL PUSH1 0x1 SWAP1 SUB SWAP1 MLOAD AND SWAP1 PUSH1 0x1 PUSH1 0x1 PUSH1 0x60 SHL SUB PUSH1 0xA0 SHL SWAP2 DUP3 DUP3 SLOAD AND OR SWAP1 SSTORE PUSH1 0x6 DUP5 ADD SWAP2 PUSH1 0x1 PUSH1 0xA0 SHL PUSH1 0x1 SWAP1 SUB SWAP1 MLOAD AND SWAP1 DUP3 SLOAD AND OR SWAP1 SSTORE MLOAD PUSH1 0x7 DUP3 ADD SSTORE PUSH2 0x100 DUP3 ADD MLOAD PUSH1 0x8 DUP3 ADD SSTORE PUSH2 0x120 DUP3 ADD MLOAD PUSH1 0x9 DUP3 ADD SSTORE PUSH2 0x140 DUP3 ADD MLOAD PUSH1 0xA DUP3 ADD SSTORE PUSH1 0xB ADD SWAP1 PUSH2 0x160 ADD MLOAD ISZERO ISZERO PUSH1 0xFF NOT DUP3 SLOAD AND SWAP1 PUSH1 0xFF AND OR SWAP1 SSTORE CALLER DUP6 MSTORE PUSH1 0x5 PUSH1 0x20 MSTORE DUP2 PUSH1 0x40 DUP7 KECCAK256 SWAP1 PUSH2 0x358 SWAP2 PUSH2 0x235F JUMP JUMPDEST PUSH1 0x6 SLOAD PUSH1 0x1 PUSH1 0x40 SHL DUP2 LT ISZERO PUSH2 0x3EC JUMPI DUP1 PUSH1 0x1 PUSH2 0x377 SWAP3 ADD PUSH1 0x6 SSTORE PUSH2 0x1FF8 JUMP JUMPDEST SWAP2 SWAP1 SWAP2 PUSH2 0x3D8 JUMPI POP DUP2 PUSH2 0x3AE PUSH32 0x585D38EBCB0FE93CED4D64FBB112388B85B7726E7D87C5142521434D4F122384 SWAP4 PUSH2 0x3B3 SWAP4 PUSH2 0x2298 JUMP JUMPDEST PUSH2 0x238C JUMP JUMPDEST SWAP2 PUSH2 0x3C9 PUSH1 0x40 MLOAD SWAP2 PUSH1 0x40 DUP4 MSTORE PUSH1 0x40 DUP4 ADD SWAP1 PUSH2 0x2187 JUMP JUMPDEST SWAP4 PUSH1 0x20 DUP3 ADD MSTORE DUP1 CALLER SWAP5 SUB SWAP1 LOG3 DUP1 RETURN JUMPDEST PUSH4 0x4E487B71 PUSH1 0xE0 SHL PUSH1 0x0 MSTORE PUSH1 0x0 PUSH1 0x4 MSTORE PUSH1 0x0 REVERT JUMPDEST POP PUSH4 0x4E487B71 PUSH1 0xE0 SHL PUSH1 0x0 SWAP1 DUP2 MSTORE PUSH1 0x41 PUSH1 0x4 MSTORE REVERT JUMPDEST PUSH1 0x20 PUSH1 0x40 MLOAD DUP1 SWAP3 PUSH4 0x10D3583 PUSH1 0xE2 SHL DUP3 MSTORE PUSH1 0x60 PUSH1 0x4 DUP4 ADD MSTORE DUP2 DUP1 PUSH2 0x428 PUSH1 0x64 DUP3 ADD DUP13 PUSH2 0x2187 JUMP JUMPDEST DUP14 DUP12 DUP4 ADD MSTORE DUP9 PUSH1 0x44 DUP4 ADD MSTORE SUB SWAP2 GAS STATICCALL SWAP1 DUP2 ISZERO PUSH2 0x4E2 JUMPI DUP10 SWAP2 PUSH2 0x4B3 JUMPI JUMPDEST POP ISZERO PUSH2 0x451 JUMPI CODESIZE PUSH2 0x20C JUMP JUMPDEST PUSH1 0x40 MLOAD PUSH3 0x461BCD PUSH1 0xE5 SHL DUP2 MSTORE PUSH1 0x20 PUSH1 0x4 DUP3 ADD MSTORE PUSH1 0x35 DUP2 DUP7 ADD MSTORE PUSH32 0x50726963652062656C6F77206D696E696D756D20286D75737420636F76657220 PUSH1 0x44 DUP3 ADD MSTORE PUSH21 0x646570656E64656E637920726F79616C7469657329 PUSH1 0x58 SHL PUSH1 0x64 DUP3 ADD MSTORE PUSH1 0x84 SWAP1 REVERT JUMPDEST PUSH2 0x4D5 SWAP2 POP PUSH1 0x20 RETURNDATASIZE PUSH1 0x20 GT PUSH2 0x4DB JUMPI JUMPDEST PUSH2 0x4CD DUP2 DUP4 PUSH2 0x1F5A JUMP JUMPDEST DUP2 ADD SWAP1 PUSH2 0x2224 JUMP JUMPDEST CODESIZE PUSH2 0x445 JUMP JUMPDEST POP RETURNDATASIZE PUSH2 0x4C3 JUMP JUMPDEST PUSH1 0x40 MLOAD RETURNDATASIZE DUP12 DUP3 RETURNDATACOPY RETURNDATASIZE SWAP1 REVERT JUMPDEST PUSH1 0x40 MLOAD PUSH3 0x461BCD PUSH1 0xE5 SHL DUP2 MSTORE PUSH1 0x20 PUSH1 0x4 DUP3 ADD MSTORE PUSH1 0x18 DUP2 DUP7 ADD MSTORE PUSH32 0x417373657420616C726561647920726567697374657265640000000000000000 PUSH1 0x44 DUP3 ADD MSTORE PUSH1 0x64 SWAP1 REVERT JUMPDEST POP DUP1 ISZERO ISZERO PUSH2 0x1C4 JUMP JUMPDEST PUSH1 0x40 MLOAD PUSH3 0x461BCD PUSH1 0xE5 SHL DUP2 MSTORE PUSH1 0x20 PUSH1 0x4 DUP3 ADD MSTORE PUSH1 0x1A DUP2 DUP6 ADD MSTORE PUSH32 0x50726F6A6563742049442063616E6E6F7420626520656D707479000000000000 PUSH1 0x44 DUP3 ADD MSTORE PUSH1 0x64 SWAP1 REVERT JUMPDEST DUP5 DUP1 REVERT JUMPDEST DUP3 DUP1 REVERT JUMPDEST DUP1 REVERT JUMPDEST POP CALLVALUE PUSH2 0x586 JUMPI PUSH1 0x20 DUP1 PUSH1 0x3 NOT CALLDATASIZE ADD SLT PUSH2 0x8AC JUMPI PUSH1 0x4 CALLDATALOAD PUSH1 0x1 PUSH1 0x1 PUSH1 0x40 SHL SUB DUP2 GT PUSH2 0x582 JUMPI PUSH2 0x5BB SWAP1 CALLDATASIZE SWAP1 PUSH1 0x4 ADD PUSH2 0x1F96 JUMP JUMPDEST PUSH2 0x5C3 PUSH2 0x24FE JUMP JUMPDEST PUSH1 0x40 MLOAD SWAP2 DUP2 MLOAD SWAP3 DUP2 DUP2 DUP2 DUP6 ADD SWAP6 PUSH2 0x5DB DUP2 DUP4 DUP10 PUSH2 0x2164 JUMP JUMPDEST DUP2 ADD PUSH1 0x3 DUP2 MSTORE SUB ADD SWAP1 KECCAK256 SWAP3 PUSH2 0x5F6 PUSH1 0xFF PUSH1 0xB DUP7 ADD SLOAD AND PUSH2 0x23AC JUMP JUMPDEST PUSH1 0x4 DUP5 ADD SWAP4 DUP5 SLOAD SWAP2 DUP3 ISZERO PUSH2 0xA85 JUMPI PUSH1 0x2 SLOAD PUSH1 0x1 PUSH1 0x1 PUSH1 0xA0 SHL SUB SWAP3 DUP9 SWAP3 SWAP2 DUP5 AND DUP1 PUSH2 0xA12 JUMPI JUMPDEST POP PUSH2 0x636 PUSH2 0x2710 PUSH2 0x62E PUSH1 0x7 SLOAD DUP9 PUSH2 0x2427 JUMP JUMPDEST DIV DUP1 SWAP7 PUSH2 0x243A JUMP JUMPDEST PUSH1 0x5 DUP3 ADD DUP1 SLOAD PUSH1 0x40 MLOAD PUSH4 0x23B872DD PUSH1 0xE0 SHL DUP1 DUP3 MSTORE CALLER PUSH1 0x4 DUP4 ADD MSTORE SWAP2 DUP9 AND PUSH1 0x1 PUSH1 0x1 PUSH1 0xA0 SHL SUB AND PUSH1 0x24 DUP3 ADD MSTORE PUSH1 0x44 DUP2 ADD SWAP4 SWAP1 SWAP4 MSTORE SWAP1 SWAP5 SWAP2 PUSH32 0x0 DUP8 AND SWAP2 SWAP1 DUP13 SWAP1 DUP11 DUP2 PUSH1 0x64 DUP2 DUP6 DUP9 GAS CALL DUP1 ISZERO PUSH2 0x8A1 JUMPI DUP3 PUSH2 0x6BA DUP13 SWAP3 DUP15 SWAP5 PUSH2 0x6E4 SWAP7 SWAP2 PUSH2 0x9F5 JUMPI JUMPDEST POP PUSH2 0x2477 JUMP JUMPDEST PUSH1 0x40 MLOAD DUP6 DUP2 MSTORE CALLER PUSH1 0x4 DUP3 ADD MSTORE ADDRESS PUSH1 0x24 DUP3 ADD MSTORE PUSH1 0x44 DUP2 ADD SWAP3 SWAP1 SWAP3 MSTORE SWAP1 SWAP3 DUP4 SWAP2 SWAP1 DUP3 SWAP1 DUP2 SWAP1 PUSH1 0x64 DUP3 ADD SWAP1 JUMP JUMPDEST SUB SWAP2 DUP8 GAS CALL SWAP1 DUP2 ISZERO PUSH2 0x9EA JUMPI DUP14 SWAP2 PUSH2 0x9CD JUMPI JUMPDEST POP ISZERO PUSH2 0x988 JUMPI DUP3 PUSH2 0x7B3 JUMPI JUMPDEST POP POP POP PUSH1 0x9 SWAP1 DUP9 SLOAD PUSH2 0x71A PUSH1 0x8 DUP4 ADD SWAP2 DUP3 SLOAD PUSH2 0x2404 JUMP JUMPDEST SWAP1 SSTORE ADD DUP1 SLOAD SWAP1 PUSH1 0x1 DUP3 ADD DUP1 SWAP3 GT PUSH2 0x79F JUMPI PUSH2 0x768 SWAP5 SWAP4 SWAP3 PUSH2 0x75E SWAP3 PUSH2 0x74A SWAP3 SSTORE PUSH1 0x40 MLOAD SWAP2 DUP3 SWAP2 DUP11 MLOAD SWAP3 DUP4 SWAP2 PUSH2 0x2164 JUMP JUMPDEST DUP2 ADD SWAP1 PUSH1 0x4 DUP3 MSTORE DUP8 DUP2 CALLER SWAP4 SUB ADD SWAP1 KECCAK256 PUSH2 0x24C3 JUMP JUMPDEST SLOAD AND SWAP5 SLOAD SWAP4 PUSH2 0x238C JUMP JUMPDEST SWAP2 PUSH1 0x40 MLOAD SWAP4 DUP5 MSTORE DUP4 ADD MSTORE PUSH32 0x9F1CF37E6808C30667B45EF497CDBE9240FF2B62734E74189AC2C7F4A76D487D PUSH1 0x40 CALLER SWAP4 LOG4 PUSH1 0x1 DUP1 SSTORE DUP1 RETURN JUMPDEST PUSH4 0x4E487B71 PUSH1 0xE0 SHL DUP11 MSTORE PUSH1 0x11 PUSH1 0x4 MSTORE PUSH1 0x24 DUP11 REVERT JUMPDEST PUSH1 0x40 MLOAD SWAP1 DUP2 MSTORE CALLER PUSH1 0x4 DUP3 ADD MSTORE ADDRESS PUSH1 0x24 DUP3 ADD MSTORE PUSH1 0x44 DUP2 ADD DUP4 SWAP1 MSTORE DUP9 DUP2 PUSH1 0x64 DUP2 DUP16 DUP7 GAS CALL SWAP1 DUP2 ISZERO PUSH2 0x97D JUMPI DUP13 SWAP2 PUSH2 0x960 JUMPI JUMPDEST POP ISZERO PUSH2 0x90F JUMPI PUSH1 0x2 SLOAD PUSH1 0x40 MLOAD PUSH4 0x95EA7B3 PUSH1 0xE0 SHL DUP2 MSTORE SWAP1 DUP8 AND PUSH1 0x1 PUSH1 0x1 PUSH1 0xA0 SHL SUB AND PUSH1 0x4 DUP3 ADD MSTORE PUSH1 0x24 DUP2 ADD SWAP3 SWAP1 SWAP3 MSTORE DUP8 SWAP1 DUP3 SWAP1 DUP2 DUP14 DUP2 PUSH1 0x44 DUP2 ADD SUB SWAP3 GAS CALL SWAP1 DUP2 ISZERO PUSH2 0x904 JUMPI DUP11 SWAP2 PUSH2 0x8E7 JUMPI JUMPDEST POP ISZERO PUSH2 0x8B0 JUMPI DUP9 DUP5 PUSH1 0x2 SLOAD AND DUP1 EXTCODESIZE ISZERO PUSH2 0x8AC JUMPI DUP2 PUSH2 0x86D DUP2 SWAP3 DUP12 PUSH1 0x40 MLOAD SWAP5 DUP6 DUP1 SWAP5 DUP2 SWAP4 PUSH4 0x50698181 PUSH1 0xE0 SHL DUP4 MSTORE PUSH1 0x40 PUSH1 0x4 DUP5 ADD MSTORE PUSH1 0x44 DUP4 ADD SWAP1 PUSH2 0x2187 JUMP JUMPDEST PUSH1 0x1 PUSH1 0x24 DUP4 ADD MSTORE SUB SWAP3 GAS CALL DUP1 ISZERO PUSH2 0x8A1 JUMPI PUSH2 0x889 JUMPI JUMPDEST DUP1 PUSH2 0x703 JUMP JUMPDEST PUSH2 0x892 SWAP1 PUSH2 0x1F15 JUMP JUMPDEST PUSH2 0x89D JUMPI DUP9 CODESIZE PUSH2 0x883 JUMP JUMPDEST DUP9 DUP1 REVERT JUMPDEST PUSH1 0x40 MLOAD RETURNDATASIZE DUP5 DUP3 RETURNDATACOPY RETURNDATASIZE SWAP1 REVERT JUMPDEST POP DUP1 REVERT JUMPDEST PUSH1 0x40 MLOAD PUSH3 0x461BCD PUSH1 0xE5 SHL DUP2 MSTORE PUSH1 0x4 DUP2 ADD DUP8 SWAP1 MSTORE PUSH1 0xF PUSH1 0x24 DUP3 ADD MSTORE PUSH15 0x105C1C1C9BDD985B0819985A5B1959 PUSH1 0x8A SHL PUSH1 0x44 DUP3 ADD MSTORE PUSH1 0x64 SWAP1 REVERT JUMPDEST PUSH2 0x8FE SWAP2 POP DUP8 RETURNDATASIZE DUP10 GT PUSH2 0x4DB JUMPI PUSH2 0x4CD DUP2 DUP4 PUSH2 0x1F5A JUMP JUMPDEST CODESIZE PUSH2 0x82F JUMP JUMPDEST PUSH1 0x40 MLOAD RETURNDATASIZE DUP13 DUP3 RETURNDATACOPY RETURNDATASIZE SWAP1 REVERT JUMPDEST PUSH1 0x40 MLOAD PUSH3 0x461BCD PUSH1 0xE5 SHL DUP2 MSTORE PUSH1 0x4 DUP2 ADD DUP10 SWAP1 MSTORE PUSH1 0x23 PUSH1 0x24 DUP3 ADD MSTORE PUSH32 0x526F79616C7479207472616E7366657220746F20636F6E747261637420666169 PUSH1 0x44 DUP3 ADD MSTORE PUSH3 0x1B1959 PUSH1 0xEA SHL PUSH1 0x64 DUP3 ADD MSTORE PUSH1 0x84 SWAP1 REVERT JUMPDEST PUSH2 0x977 SWAP2 POP DUP10 RETURNDATASIZE DUP12 GT PUSH2 0x4DB JUMPI PUSH2 0x4CD DUP2 DUP4 PUSH2 0x1F5A JUMP JUMPDEST CODESIZE PUSH2 0x7E3 JUMP JUMPDEST PUSH1 0x40 MLOAD RETURNDATASIZE DUP15 DUP3 RETURNDATACOPY RETURNDATASIZE SWAP1 REVERT JUMPDEST PUSH1 0x40 MLOAD PUSH3 0x461BCD PUSH1 0xE5 SHL DUP2 MSTORE PUSH1 0x4 DUP2 ADD DUP11 SWAP1 MSTORE PUSH1 0x1C PUSH1 0x24 DUP3 ADD MSTORE PUSH32 0x506C6174666F726D20666565207472616E73666572206661696C656400000000 PUSH1 0x44 DUP3 ADD MSTORE PUSH1 0x64 SWAP1 REVERT JUMPDEST PUSH2 0x9E4 SWAP2 POP DUP11 RETURNDATASIZE DUP13 GT PUSH2 0x4DB JUMPI PUSH2 0x4CD DUP2 DUP4 PUSH2 0x1F5A JUMP JUMPDEST CODESIZE PUSH2 0x6F7 JUMP JUMPDEST PUSH1 0x40 MLOAD RETURNDATASIZE DUP16 DUP3 RETURNDATACOPY RETURNDATASIZE SWAP1 REVERT JUMPDEST PUSH2 0xA0C SWAP2 POP DUP6 RETURNDATASIZE DUP8 GT PUSH2 0x4DB JUMPI PUSH2 0x4CD DUP2 DUP4 PUSH2 0x1F5A JUMP JUMPDEST CODESIZE PUSH2 0x6B4 JUMP JUMPDEST SWAP1 SWAP3 POP PUSH1 0x40 DUP1 MLOAD DUP1 SWAP3 PUSH4 0xE2B3A4D3 PUSH1 0xE0 SHL DUP3 MSTORE DUP9 PUSH1 0x4 DUP4 ADD MSTORE DUP2 DUP1 PUSH2 0xA3A PUSH1 0x24 DUP3 ADD DUP14 PUSH2 0x2187 JUMP JUMPDEST SUB SWAP2 GAS STATICCALL SWAP1 DUP2 ISZERO PUSH2 0x4E2 JUMPI DUP10 SWAP2 PUSH2 0xA54 JUMPI JUMPDEST POP SWAP2 CODESIZE PUSH2 0x61B JUMP JUMPDEST PUSH2 0xA76 SWAP2 POP PUSH1 0x40 RETURNDATASIZE PUSH1 0x40 GT PUSH2 0xA7E JUMPI JUMPDEST PUSH2 0xA6E DUP2 DUP4 PUSH2 0x1F5A JUMP JUMPDEST DUP2 ADD SWAP1 PUSH2 0x23EE JUMP JUMPDEST SWAP1 POP CODESIZE PUSH2 0xA4C JUMP JUMPDEST POP RETURNDATASIZE PUSH2 0xA64 JUMP JUMPDEST PUSH1 0x40 MLOAD PUSH3 0x461BCD PUSH1 0xE5 SHL DUP2 MSTORE PUSH1 0x4 DUP2 ADD DUP6 SWAP1 MSTORE PUSH1 0x28 PUSH1 0x24 DUP3 ADD MSTORE PUSH32 0x55534443207061796D656E74206E6F7420616363657074656420666F72207468 PUSH1 0x44 DUP3 ADD MSTORE PUSH8 0x1A5CC8185CDCD95D PUSH1 0xC2 SHL PUSH1 0x64 DUP3 ADD MSTORE PUSH1 0x84 SWAP1 REVERT JUMPDEST POP CALLVALUE PUSH2 0x586 JUMPI PUSH1 0x20 CALLDATASIZE PUSH1 0x3 NOT ADD SLT PUSH2 0x586 JUMPI PUSH2 0xAF5 PUSH2 0x1FE2 JUMP JUMPDEST PUSH2 0xAFD PUSH2 0x21AC JUMP JUMPDEST PUSH1 0x1 PUSH1 0x1 PUSH1 0xA0 SHL SUB SWAP1 DUP2 AND SWAP1 DUP2 ISZERO PUSH2 0xB4D JUMPI PUSH1 0x0 SLOAD DUP3 PUSH1 0x1 PUSH1 0x1 PUSH1 0x60 SHL SUB PUSH1 0xA0 SHL DUP3 AND OR PUSH1 0x0 SSTORE AND PUSH32 0x8BE0079C531659141344CD1FD0A4F28419497F9722A3DAAFE3B4186F6B6457E0 PUSH1 0x0 DUP1 LOG3 DUP1 RETURN JUMPDEST PUSH1 0x40 MLOAD PUSH4 0x1E4FBDF7 PUSH1 0xE0 SHL DUP2 MSTORE PUSH1 0x4 DUP2 ADD DUP5 SWAP1 MSTORE PUSH1 0x24 SWAP1 REVERT JUMPDEST POP CALLVALUE PUSH2 0x586 JUMPI PUSH1 0x20 CALLDATASIZE PUSH1 0x3 NOT ADD SLT PUSH2 0x586 JUMPI PUSH1 0x4 CALLDATALOAD SWAP1 PUSH1 0x6 SLOAD DUP3 LT ISZERO PUSH2 0x586 JUMPI PUSH2 0xBAF PUSH2 0xB9B PUSH2 0xB95 DUP5 PUSH2 0x1FF8 JUMP JUMPDEST SWAP1 PUSH2 0x213D JUMP JUMPDEST PUSH1 0x40 MLOAD SWAP2 DUP3 SWAP2 PUSH1 0x20 DUP4 MSTORE PUSH1 0x20 DUP4 ADD SWAP1 PUSH2 0x2187 JUMP JUMPDEST SUB SWAP1 RETURN JUMPDEST POP CALLVALUE PUSH2 0x586 JUMPI DUP1 PUSH1 0x3 NOT CALLDATASIZE ADD SLT PUSH2 0x586 JUMPI PUSH2 0xBCC PUSH2 0x21AC JUMP JUMPDEST PUSH1 0x40 MLOAD PUSH4 0x70A08231 PUSH1 0xE0 SHL DUP2 MSTORE ADDRESS PUSH1 0x4 DUP3 ADD MSTORE PUSH1 0x20 SWAP1 PUSH1 0x1 PUSH1 0x1 PUSH1 0xA0 SHL SUB PUSH32 0x0 DUP2 AND SWAP1 DUP4 DUP4 PUSH1 0x24 DUP2 DUP6 GAS STATICCALL SWAP3 DUP4 ISZERO PUSH2 0xD19 JUMPI DUP6 SWAP4 PUSH2 0xCEA JUMPI JUMPDEST POP DUP3 ISZERO PUSH2 0xCA5 JUMPI DUP5 SLOAD PUSH1 0x40 MLOAD PUSH4 0xA9059CBB PUSH1 0xE0 SHL DUP2 MSTORE SWAP2 AND PUSH1 0x1 PUSH1 0x1 PUSH1 0xA0 SHL SUB AND PUSH1 0x4 DUP3 ADD MSTORE PUSH1 0x24 DUP2 ADD SWAP3 SWAP1 SWAP3 MSTORE DUP3 SWAP1 DUP3 SWAP1 DUP2 DUP7 DUP2 PUSH1 0x44 DUP2 ADD SUB SWAP3 GAS CALL SWAP1 DUP2 ISZERO PUSH2 0xC9A JUMPI PUSH2 0xC7A SWAP3 DUP5 SWAP3 PUSH2 0xC7D JUMPI JUMPDEST POP POP PUSH2 0x2521 JUMP JUMPDEST DUP1 RETURN JUMPDEST PUSH2 0xC93 SWAP3 POP DUP1 RETURNDATASIZE LT PUSH2 0x4DB JUMPI PUSH2 0x4CD DUP2 DUP4 PUSH2 0x1F5A JUMP JUMPDEST CODESIZE DUP1 PUSH2 0xC73 JUMP JUMPDEST PUSH1 0x40 MLOAD RETURNDATASIZE DUP6 DUP3 RETURNDATACOPY RETURNDATASIZE SWAP1 REVERT JUMPDEST PUSH1 0x40 MLOAD PUSH3 0x461BCD PUSH1 0xE5 SHL DUP2 MSTORE PUSH1 0x4 DUP2 ADD DUP6 SWAP1 MSTORE PUSH1 0x18 PUSH1 0x24 DUP3 ADD MSTORE PUSH32 0x4E6F2055534443206665657320746F2077697468647261770000000000000000 PUSH1 0x44 DUP3 ADD MSTORE PUSH1 0x64 SWAP1 REVERT JUMPDEST SWAP1 SWAP3 POP DUP4 DUP2 DUP2 RETURNDATASIZE DUP4 GT PUSH2 0xD12 JUMPI JUMPDEST PUSH2 0xD02 DUP2 DUP4 PUSH2 0x1F5A JUMP JUMPDEST DUP2 ADD SUB SLT PUSH2 0x57E JUMPI MLOAD SWAP2 CODESIZE PUSH2 0xC24 JUMP JUMPDEST POP RETURNDATASIZE PUSH2 0xCF8 JUMP JUMPDEST PUSH1 0x40 MLOAD RETURNDATASIZE DUP8 DUP3 RETURNDATACOPY RETURNDATASIZE SWAP1 REVERT JUMPDEST POP CALLVALUE PUSH2 0x586 JUMPI PUSH1 0x20 CALLDATASIZE PUSH1 0x3 NOT ADD SLT PUSH2 0x586 JUMPI PUSH2 0xD3E PUSH2 0x1FE2 JUMP JUMPDEST PUSH2 0xD46 PUSH2 0x21AC JUMP JUMPDEST PUSH1 0x1 DUP1 PUSH1 0xA0 SHL SUB AND PUSH1 0x1 PUSH1 0x1 PUSH1 0x60 SHL SUB PUSH1 0xA0 SHL PUSH1 0x2 SLOAD AND OR PUSH1 0x2 SSTORE DUP1 RETURN JUMPDEST POP CALLVALUE PUSH2 0x586 JUMPI DUP1 PUSH1 0x3 NOT CALLDATASIZE ADD SLT PUSH2 0x586 JUMPI PUSH1 0x20 PUSH1 0x40 MLOAD PUSH2 0x2710 DUP2 MSTORE RETURN JUMPDEST POP CALLVALUE PUSH2 0x586 JUMPI DUP1 PUSH1 0x3 NOT CALLDATASIZE ADD SLT PUSH2 0x586 JUMPI PUSH1 0x20 PUSH1 0x7 SLOAD PUSH1 0x40 MLOAD SWAP1 DUP2 MSTORE RETURN JUMPDEST POP CALLVALUE PUSH2 0x586 JUMPI PUSH1 0x20 CALLDATASIZE PUSH1 0x3 NOT ADD SLT PUSH2 0x586 JUMPI PUSH1 0x4 CALLDATALOAD PUSH1 0x1 PUSH1 0x1 PUSH1 0x40 SHL SUB DUP2 GT PUSH2 0x8AC JUMPI PUSH2 0xE3F SWAP2 PUSH2 0xDD6 PUSH1 0x20 SWAP3 CALLDATASIZE SWAP1 PUSH1 0x4 ADD PUSH2 0x1F96 JUMP JUMPDEST SWAP1 PUSH2 0x160 PUSH1 0x40 MLOAD PUSH2 0xDE6 DUP2 PUSH2 0x1F3E JUMP JUMPDEST PUSH1 0x60 DUP2 MSTORE PUSH1 0x60 DUP6 DUP3 ADD MSTORE PUSH1 0x60 PUSH1 0x40 DUP3 ADD MSTORE DUP3 PUSH1 0x60 DUP3 ADD MSTORE DUP3 PUSH1 0x80 DUP3 ADD MSTORE DUP3 PUSH1 0xA0 DUP3 ADD MSTORE DUP3 PUSH1 0xC0 DUP3 ADD MSTORE DUP3 PUSH1 0xE0 DUP3 ADD MSTORE DUP3 PUSH2 0x100 DUP3 ADD MSTORE DUP3 PUSH2 0x120 DUP3 ADD MSTORE DUP3 PUSH2 0x140 DUP3 ADD MSTORE ADD MSTORE DUP2 PUSH1 0x40 MLOAD SWAP4 DUP3 DUP6 DUP1 SWAP5 MLOAD SWAP4 DUP5 SWAP3 ADD PUSH2 0x2164 JUMP JUMPDEST DUP2 ADD PUSH1 0x3 DUP2 MSTORE SUB ADD SWAP1 KECCAK256 PUSH1 0xFF PUSH1 0xB PUSH1 0x40 MLOAD SWAP3 PUSH2 0xE5A DUP5 PUSH2 0x1F3E JUMP JUMPDEST PUSH2 0xE63 DUP2 PUSH2 0x2097 JUMP JUMPDEST DUP5 MSTORE PUSH2 0xE71 PUSH1 0x1 DUP3 ADD PUSH2 0x2097 JUMP JUMPDEST PUSH1 0x20 DUP6 ADD MSTORE PUSH2 0xE82 PUSH1 0x2 DUP3 ADD PUSH2 0x2097 JUMP JUMPDEST PUSH1 0x40 DUP6 ADD MSTORE PUSH1 0x3 DUP2 ADD SLOAD PUSH1 0x60 DUP6 ADD MSTORE PUSH1 0x4 DUP2 ADD SLOAD PUSH1 0x80 DUP6 ADD MSTORE PUSH1 0x1 DUP1 PUSH1 0xA0 SHL SUB PUSH1 0x5 DUP3 ADD SLOAD AND PUSH1 0xA0 DUP6 ADD MSTORE PUSH1 0x1 DUP1 PUSH1 0xA0 SHL SUB PUSH1 0x6 DUP3 ADD SLOAD AND PUSH1 0xC0 DUP6 ADD MSTORE PUSH1 0x7 DUP2 ADD SLOAD PUSH1 0xE0 DUP6 ADD MSTORE PUSH1 0x8 DUP2 ADD SLOAD PUSH2 0x100 DUP6 ADD MSTORE PUSH1 0x9 DUP2 ADD SLOAD PUSH2 0x120 DUP6 ADD MSTORE PUSH1 0xA DUP2 ADD SLOAD PUSH2 0x140 DUP6 ADD MSTORE ADD SLOAD AND ISZERO ISZERO PUSH2 0x160 DUP3 ADD MSTORE PUSH1 0x40 MLOAD DUP1 SWAP2 PUSH1 0x20 DUP3 MSTORE PUSH2 0x160 PUSH2 0xF4D PUSH2 0xF1C DUP4 MLOAD PUSH2 0x180 PUSH1 0x20 DUP8 ADD MSTORE PUSH2 0x1A0 DUP7 ADD SWAP1 PUSH2 0x2187 JUMP JUMPDEST PUSH2 0xF38 PUSH1 0x20 DUP6 ADD MLOAD SWAP2 PUSH1 0x1F NOT SWAP3 DUP4 DUP9 DUP4 SUB ADD PUSH1 0x40 DUP10 ADD MSTORE PUSH2 0x2187 JUMP JUMPDEST SWAP1 PUSH1 0x40 DUP6 ADD MLOAD SWAP1 DUP7 DUP4 SUB ADD PUSH1 0x60 DUP8 ADD MSTORE PUSH2 0x2187 JUMP JUMPDEST SWAP2 PUSH1 0x60 DUP2 ADD MLOAD PUSH1 0x80 DUP6 ADD MSTORE PUSH1 0x80 DUP2 ADD MLOAD PUSH1 0xA0 DUP6 ADD MSTORE PUSH1 0x1 DUP1 PUSH1 0xA0 SHL SUB PUSH1 0xA0 DUP3 ADD MLOAD AND PUSH1 0xC0 DUP6 ADD MSTORE PUSH1 0x1 DUP1 PUSH1 0xA0 SHL SUB PUSH1 0xC0 DUP3 ADD MLOAD AND PUSH1 0xE0 DUP6 ADD MSTORE PUSH1 0xE0 DUP2 ADD MLOAD PUSH2 0x100 DUP6 ADD MSTORE PUSH2 0x100 DUP2 ADD MLOAD PUSH2 0x120 DUP6 ADD MSTORE PUSH2 0x120 DUP2 ADD MLOAD PUSH2 0x140 DUP6 ADD MSTORE PUSH2 0x140 DUP2 ADD MLOAD DUP3 DUP6 ADD MSTORE ADD MLOAD ISZERO ISZERO PUSH2 0x180 DUP4 ADD MSTORE SUB SWAP1 RETURN JUMPDEST POP CALLVALUE PUSH2 0x586 JUMPI DUP1 PUSH1 0x3 NOT CALLDATASIZE ADD SLT PUSH2 0x586 JUMPI PUSH1 0x20 PUSH1 0x40 MLOAD PUSH20 0x833589FCD6EDB6E08F4C7C32D4F71B54BDA02913 DUP2 MSTORE RETURN JUMPDEST POP CALLVALUE PUSH2 0x586 JUMPI PUSH1 0x20 CALLDATASIZE PUSH1 0x3 NOT ADD SLT PUSH2 0x586 JUMPI PUSH1 0x4 CALLDATALOAD PUSH2 0x100D PUSH2 0x21AC JUMP JUMPDEST PUSH2 0x3E8 DUP2 GT PUSH2 0x101C JUMPI PUSH1 0x7 SSTORE DUP1 RETURN JUMPDEST PUSH1 0x40 MLOAD PUSH3 0x461BCD PUSH1 0xE5 SHL DUP2 MSTORE PUSH1 0x20 PUSH1 0x4 DUP3 ADD MSTORE PUSH1 0x16 PUSH1 0x24 DUP3 ADD MSTORE PUSH22 0x46656520746F6F206869676820286D61782031302529 PUSH1 0x50 SHL PUSH1 0x44 DUP3 ADD MSTORE PUSH1 0x64 SWAP1 REVERT JUMPDEST POP CALLVALUE PUSH2 0x586 JUMPI PUSH1 0x20 DUP1 PUSH1 0x3 NOT CALLDATASIZE ADD SLT PUSH2 0x8AC JUMPI PUSH1 0x4 CALLDATALOAD PUSH1 0x1 PUSH1 0x1 PUSH1 0x40 SHL SUB DUP2 GT PUSH2 0x582 JUMPI DUP2 PUSH2 0x1090 PUSH2 0x10A3 SWAP3 CALLDATASIZE SWAP1 PUSH1 0x4 ADD PUSH2 0x1F96 JUMP JUMPDEST DUP2 PUSH1 0x40 MLOAD SWAP4 DUP3 DUP6 DUP1 SWAP5 MLOAD SWAP4 DUP5 SWAP3 ADD PUSH2 0x2164 JUMP JUMPDEST DUP2 ADD PUSH1 0x4 DUP2 MSTORE SUB ADD SWAP1 KECCAK256 PUSH1 0x40 MLOAD SWAP3 DUP4 DUP4 DUP4 SLOAD SWAP2 DUP3 DUP2 MSTORE ADD SWAP1 DUP2 SWAP4 DUP4 MSTORE DUP5 DUP4 KECCAK256 SWAP1 DUP4 JUMPDEST DUP2 DUP2 LT PUSH2 0x1122 JUMPI POP POP POP DUP5 PUSH2 0x10DB SWAP2 SUB DUP6 PUSH2 0x1F5A JUMP JUMPDEST PUSH1 0x40 MLOAD SWAP4 DUP4 DUP6 SWAP5 DUP6 ADD SWAP2 DUP2 DUP7 MSTORE MLOAD DUP1 SWAP3 MSTORE PUSH1 0x40 DUP6 ADD SWAP4 SWAP3 JUMPDEST DUP3 DUP2 LT PUSH2 0x1102 JUMPI POP POP POP POP SUB SWAP1 RETURN JUMPDEST DUP4 MLOAD PUSH1 0x1 PUSH1 0x1 PUSH1 0xA0 SHL SUB AND DUP6 MSTORE DUP7 SWAP6 POP SWAP4 DUP2 ADD SWAP4 SWAP3 DUP2 ADD SWAP3 PUSH1 0x1 ADD PUSH2 0x10F3 JUMP JUMPDEST DUP3 SLOAD PUSH1 0x1 PUSH1 0x1 PUSH1 0xA0 SHL SUB AND DUP5 MSTORE SWAP3 DUP7 ADD SWAP3 PUSH1 0x1 SWAP3 DUP4 ADD SWAP3 ADD PUSH2 0x10C5 JUMP JUMPDEST POP CALLVALUE PUSH2 0x586 JUMPI DUP1 PUSH1 0x3 NOT CALLDATASIZE ADD SLT PUSH2 0x586 JUMPI PUSH2 0x1158 PUSH2 0x21AC JUMP JUMPDEST SELFBALANCE DUP1 ISZERO PUSH2 0x1181 JUMPI DUP2 DUP1 DUP1 DUP1 PUSH2 0xC7A SWAP5 PUSH1 0x1 DUP1 PUSH1 0xA0 SHL SUB DUP3 SLOAD AND GAS CALL PUSH2 0x117B PUSH2 0x2447 JUMP JUMPDEST POP PUSH2 0x2521 JUMP JUMPDEST PUSH1 0x40 MLOAD PUSH3 0x461BCD PUSH1 0xE5 SHL DUP2 MSTORE PUSH1 0x20 PUSH1 0x4 DUP3 ADD MSTORE PUSH1 0x17 PUSH1 0x24 DUP3 ADD MSTORE PUSH32 0x4E6F20455448206665657320746F207769746864726177000000000000000000 PUSH1 0x44 DUP3 ADD MSTORE PUSH1 0x64 SWAP1 REVERT JUMPDEST POP CALLVALUE PUSH2 0x586 JUMPI DUP1 PUSH1 0x3 NOT CALLDATASIZE ADD SLT PUSH2 0x586 JUMPI SLOAD PUSH1 0x40 MLOAD PUSH1 0x1 PUSH1 0x1 PUSH1 0xA0 SHL SUB SWAP1 SWAP2 AND DUP2 MSTORE PUSH1 0x20 SWAP1 RETURN JUMPDEST POP CALLVALUE PUSH2 0x586 JUMPI PUSH1 0x20 CALLDATASIZE PUSH1 0x3 NOT ADD SLT PUSH2 0x586 JUMPI PUSH1 0x4 CALLDATALOAD PUSH1 0x6 SLOAD DUP2 LT ISZERO PUSH2 0x1221 JUMPI PUSH2 0xB9B PUSH2 0x121B PUSH2 0xBAF SWAP3 PUSH2 0x1FF8 JUMP JUMPDEST POP PUSH2 0x2097 JUMP JUMPDEST PUSH1 0x40 MLOAD PUSH3 0x461BCD PUSH1 0xE5 SHL DUP2 MSTORE PUSH1 0x20 PUSH1 0x4 DUP3 ADD MSTORE PUSH1 0x13 PUSH1 0x24 DUP3 ADD MSTORE PUSH19 0x496E646578206F7574206F6620626F756E6473 PUSH1 0x68 SHL PUSH1 0x44 DUP3 ADD MSTORE PUSH1 0x64 SWAP1 REVERT JUMPDEST POP CALLVALUE PUSH2 0x586 JUMPI PUSH1 0x40 CALLDATASIZE PUSH1 0x3 NOT ADD SLT PUSH2 0x586 JUMPI PUSH1 0x4 CALLDATALOAD PUSH1 0x1 PUSH1 0x1 PUSH1 0x40 SHL SUB DUP2 GT PUSH2 0x8AC JUMPI PUSH2 0x128D SWAP1 CALLDATASIZE SWAP1 PUSH1 0x4 ADD PUSH2 0x1F96 JUMP JUMPDEST SWAP1 PUSH2 0x12AA PUSH1 0x20 PUSH1 0x24 CALLDATALOAD SWAP4 DUP2 PUSH1 0x40 MLOAD SWAP4 DUP3 DUP6 DUP1 SWAP5 MLOAD SWAP4 DUP5 SWAP3 ADD PUSH2 0x2164 JUMP JUMPDEST DUP2 ADD PUSH1 0x4 DUP2 MSTORE SUB ADD SWAP1 KECCAK256 SWAP1 DUP2 SLOAD DUP4 LT ISZERO PUSH2 0x586 JUMPI PUSH1 0x20 PUSH2 0x12CA DUP5 DUP5 PUSH2 0x2045 JUMP JUMPDEST SWAP1 SLOAD PUSH1 0x40 MLOAD PUSH1 0x3 SWAP3 SWAP1 SWAP3 SHL SHR PUSH1 0x1 PUSH1 0x1 PUSH1 0xA0 SHL SUB AND DUP2 MSTORE RETURN JUMPDEST POP PUSH1 0x20 DUP1 PUSH1 0x3 NOT CALLDATASIZE ADD SLT PUSH2 0x8AC JUMPI PUSH1 0x4 CALLDATALOAD PUSH1 0x1 PUSH1 0x1 PUSH1 0x40 SHL SUB DUP2 GT PUSH2 0x582 JUMPI PUSH2 0x1310 SWAP1 CALLDATASIZE SWAP1 PUSH1 0x4 ADD PUSH2 0x1F96 JUMP JUMPDEST PUSH2 0x1318 PUSH2 0x24FE JUMP JUMPDEST PUSH1 0x40 MLOAD SWAP2 DUP2 MLOAD SWAP3 DUP2 DUP2 DUP2 DUP6 ADD SWAP6 PUSH2 0x1330 DUP2 DUP4 DUP10 PUSH2 0x2164 JUMP JUMPDEST DUP2 ADD PUSH1 0x3 DUP2 MSTORE SUB ADD SWAP1 KECCAK256 SWAP3 PUSH2 0x134B PUSH1 0xFF PUSH1 0xB DUP7 ADD SLOAD AND PUSH2 0x23AC JUMP JUMPDEST PUSH1 0x3 DUP5 ADD SWAP4 DUP5 SLOAD SWAP1 DUP2 ISZERO PUSH2 0x15B7 JUMPI PUSH1 0x2 SLOAD PUSH1 0x1 PUSH1 0x1 PUSH1 0xA0 SHL SUB SWAP3 DUP9 SWAP2 DUP5 AND SWAP1 DUP2 PUSH2 0x1552 JUMPI JUMPDEST DUP3 PUSH2 0x137A SWAP2 PUSH2 0x2404 JUMP JUMPDEST SWAP2 DUP3 CALLVALUE LT PUSH2 0x14FC JUMPI DUP1 DUP11 SWAP2 PUSH2 0x149F JUMPI JUMPDEST POP POP POP DUP7 SLOAD SWAP4 PUSH1 0x9 PUSH2 0x13AC PUSH2 0x2710 PUSH2 0x13A4 PUSH1 0x7 SLOAD DUP10 PUSH2 0x2427 JUMP JUMPDEST DIV DUP1 SWAP8 PUSH2 0x243A JUMP JUMPDEST SWAP4 PUSH2 0x13C7 DUP12 DUP1 DUP1 DUP1 PUSH1 0x5 DUP7 ADD SWAP10 DUP12 DUP12 SLOAD AND GAS CALL PUSH2 0x6B4 PUSH2 0x2447 JUMP JUMPDEST DUP10 SLOAD PUSH2 0x13D8 PUSH1 0x7 DUP4 ADD SWAP2 DUP3 SLOAD PUSH2 0x2404 JUMP JUMPDEST SWAP1 SSTORE ADD DUP1 SLOAD SWAP1 PUSH1 0x1 DUP3 ADD DUP1 SWAP3 GT PUSH2 0x148B JUMPI DUP8 DUP12 SWAP5 SWAP4 PUSH2 0x1418 SWAP4 PUSH2 0x1407 SWAP4 SSTORE PUSH1 0x40 MLOAD DUP1 SWAP4 DUP2 SWAP3 DUP14 MLOAD SWAP3 DUP4 SWAP2 PUSH2 0x2164 JUMP JUMPDEST DUP2 ADD PUSH1 0x4 DUP2 MSTORE SUB ADD SWAP1 KECCAK256 CALLER SWAP1 PUSH2 0x24C3 JUMP JUMPDEST DUP1 CALLVALUE GT PUSH2 0x1431 JUMPI JUMPDEST POP POP SWAP1 PUSH2 0x768 SWAP2 SLOAD AND SWAP5 SLOAD SWAP4 PUSH2 0x238C JUMP JUMPDEST DUP2 DUP1 PUSH2 0x143E DUP2 SWAP4 CALLVALUE PUSH2 0x243A JUMP JUMPDEST CALLER GAS CALL PUSH2 0x1449 PUSH2 0x2447 JUMP JUMPDEST POP ISZERO PUSH2 0x1456 JUMPI DUP7 CODESIZE PUSH2 0x1420 JUMP JUMPDEST PUSH1 0x40 MLOAD PUSH3 0x461BCD PUSH1 0xE5 SHL DUP2 MSTORE PUSH1 0x4 DUP2 ADD DUP6 SWAP1 MSTORE PUSH1 0xD PUSH1 0x24 DUP3 ADD MSTORE PUSH13 0x1499599D5B990819985A5B1959 PUSH1 0x9A SHL PUSH1 0x44 DUP3 ADD MSTORE PUSH1 0x64 SWAP1 REVERT JUMPDEST PUSH4 0x4E487B71 PUSH1 0xE0 SHL DUP12 MSTORE PUSH1 0x11 PUSH1 0x4 MSTORE PUSH1 0x24 DUP12 REVERT JUMPDEST DUP3 EXTCODESIZE ISZERO PUSH2 0x8AC JUMPI PUSH1 0x40 MLOAD SWAP3 DUP4 DUP1 SWAP3 PUSH4 0x50698181 PUSH1 0xE0 SHL DUP3 MSTORE PUSH1 0x40 PUSH1 0x4 DUP4 ADD MSTORE DUP2 PUSH2 0x14CD DUP14 PUSH1 0x44 DUP4 ADD SWAP1 PUSH2 0x2187 JUMP JUMPDEST DUP7 PUSH1 0x24 DUP4 ADD MSTORE SUB SWAP3 GAS CALL DUP1 ISZERO PUSH2 0x4E2 JUMPI PUSH2 0x14E9 JUMPI JUMPDEST DUP9 DUP2 PUSH2 0x138A JUMP JUMPDEST PUSH2 0x14F5 SWAP1 SWAP9 SWAP2 SWAP9 PUSH2 0x1F15 JUMP JUMPDEST SWAP7 CODESIZE PUSH2 0x14E2 JUMP JUMPDEST PUSH1 0x40 MLOAD PUSH3 0x461BCD PUSH1 0xE5 SHL DUP2 MSTORE PUSH1 0x4 DUP2 ADD DUP9 SWAP1 MSTORE PUSH1 0x28 PUSH1 0x24 DUP3 ADD MSTORE PUSH32 0x496E73756666696369656E74207061796D656E7420287072696365202B20726F PUSH1 0x44 DUP3 ADD MSTORE PUSH8 0x79616C7469657329 PUSH1 0xC0 SHL PUSH1 0x64 DUP3 ADD MSTORE PUSH1 0x84 SWAP1 REVERT JUMPDEST SWAP2 POP PUSH1 0x40 MLOAD PUSH4 0xE2B3A4D3 PUSH1 0xE0 SHL DUP2 MSTORE DUP7 PUSH1 0x4 DUP3 ADD MSTORE PUSH1 0x40 DUP2 DUP1 PUSH2 0x1578 PUSH1 0x24 DUP3 ADD DUP13 PUSH2 0x2187 JUMP JUMPDEST SUB DUP2 DUP6 GAS STATICCALL DUP1 ISZERO PUSH2 0x904 JUMPI PUSH2 0x137A SWAP2 DUP12 SWAP2 PUSH2 0x1597 JUMPI JUMPDEST POP SWAP3 SWAP1 POP PUSH2 0x1370 JUMP JUMPDEST PUSH2 0x15B0 SWAP2 POP PUSH1 0x40 RETURNDATASIZE PUSH1 0x40 GT PUSH2 0xA7E JUMPI PUSH2 0xA6E DUP2 DUP4 PUSH2 0x1F5A JUMP JUMPDEST POP CODESIZE PUSH2 0x158E JUMP JUMPDEST PUSH1 0x40 MLOAD PUSH3 0x461BCD PUSH1 0xE5 SHL DUP2 MSTORE PUSH1 0x4 DUP2 ADD DUP6 SWAP1 MSTORE PUSH1 0x27 PUSH1 0x24 DUP3 ADD MSTORE PUSH32 0x455448207061796D656E74206E6F7420616363657074656420666F7220746869 PUSH1 0x44 DUP3 ADD MSTORE PUSH7 0x1CC8185CDCD95D PUSH1 0xCA SHL PUSH1 0x64 DUP3 ADD MSTORE PUSH1 0x84 SWAP1 REVERT JUMPDEST POP CALLVALUE PUSH2 0x586 JUMPI PUSH1 0x20 DUP1 PUSH1 0x3 NOT CALLDATASIZE ADD SLT PUSH2 0x8AC JUMPI PUSH1 0x1 PUSH1 0x1 PUSH1 0xA0 SHL SUB PUSH2 0x162F PUSH2 0x1FE2 JUMP JUMPDEST AND DUP3 MSTORE PUSH1 0x5 DUP2 MSTORE PUSH1 0x40 DUP3 KECCAK256 DUP1 SLOAD PUSH1 0x1 PUSH1 0x1 PUSH1 0x40 SHL SUB DUP2 GT PUSH2 0x16F8 JUMPI SWAP2 SWAP3 PUSH1 0x40 MLOAD SWAP3 PUSH2 0x165F DUP6 DUP3 PUSH1 0x5 SHL ADD DUP6 PUSH2 0x1F5A JUMP JUMPDEST DUP1 DUP5 MSTORE DUP5 DUP5 ADD DUP1 SWAP4 DUP4 MSTORE DUP6 DUP4 KECCAK256 DUP4 SWAP2 JUMPDEST DUP4 DUP4 LT PUSH2 0x16D4 JUMPI POP POP POP POP PUSH1 0x40 MLOAD SWAP3 DUP5 DUP5 ADD SWAP1 DUP6 DUP6 MSTORE MLOAD DUP1 SWAP2 MSTORE PUSH1 0x40 DUP5 ADD SWAP5 PUSH1 0x40 DUP3 PUSH1 0x5 SHL DUP7 ADD ADD SWAP4 SWAP3 SWAP6 JUMPDEST DUP3 DUP8 LT PUSH2 0x16A8 JUMPI DUP6 DUP6 SUB DUP7 RETURN JUMPDEST SWAP1 SWAP2 SWAP3 SWAP4 DUP3 DUP1 PUSH2 0x16C4 PUSH1 0x1 SWAP4 PUSH1 0x3F NOT DUP11 DUP3 SUB ADD DUP7 MSTORE DUP9 MLOAD PUSH2 0x2187 JUMP JUMPDEST SWAP7 ADD SWAP3 ADD SWAP7 ADD SWAP6 SWAP3 SWAP2 SWAP1 SWAP3 PUSH2 0x169B JUMP JUMPDEST PUSH1 0x1 DUP9 DUP2 SWAP3 PUSH2 0x16E6 DUP6 SWAP12 SWAP11 SWAP9 SWAP12 PUSH2 0x2097 JUMP JUMPDEST DUP2 MSTORE ADD SWAP3 ADD SWAP3 ADD SWAP2 SWAP1 SWAP7 SWAP4 SWAP6 SWAP7 PUSH2 0x166F JUMP JUMPDEST PUSH4 0x4E487B71 PUSH1 0xE0 SHL DUP5 MSTORE PUSH1 0x41 PUSH1 0x4 MSTORE PUSH1 0x24 DUP5 REVERT JUMPDEST POP CALLVALUE PUSH2 0x586 JUMPI DUP1 PUSH1 0x3 NOT CALLDATASIZE ADD SLT PUSH2 0x586 JUMPI PUSH2 0x1725 PUSH2 0x21AC JUMP JUMPDEST DUP1 SLOAD PUSH1 0x1 PUSH1 0x1 PUSH1 0xA0 SHL SUB NOT DUP2 AND DUP3 SSTORE DUP2 SWAP1 PUSH1 0x1 PUSH1 0x1 PUSH1 0xA0 SHL SUB AND PUSH32 0x8BE0079C531659141344CD1FD0A4F28419497F9722A3DAAFE3B4186F6B6457E0 DUP3 DUP1 LOG3 DUP1 RETURN JUMPDEST POP CALLVALUE PUSH2 0x586 JUMPI DUP1 PUSH1 0x3 NOT CALLDATASIZE ADD SLT PUSH2 0x586 JUMPI PUSH1 0x20 PUSH1 0x6 SLOAD PUSH1 0x40 MLOAD SWAP1 DUP2 MSTORE RETURN JUMPDEST POP CALLVALUE PUSH2 0x586 JUMPI PUSH1 0x20 CALLDATASIZE PUSH1 0x3 NOT ADD SLT PUSH2 0x586 JUMPI PUSH1 0x4 CALLDATALOAD SWAP1 PUSH1 0x1 PUSH1 0x1 PUSH1 0x40 SHL SUB DUP3 GT PUSH2 0x586 JUMPI PUSH2 0x17BA PUSH1 0x20 PUSH2 0x1090 CALLDATASIZE PUSH1 0x4 DUP7 ADD PUSH2 0x1F96 JUMP JUMPDEST DUP2 ADD PUSH1 0x3 DUP2 MSTORE SUB ADD SWAP1 KECCAK256 PUSH2 0x1847 PUSH2 0x17D0 DUP3 PUSH2 0x2097 JUMP JUMPDEST SWAP2 PUSH2 0x17DD PUSH1 0x1 DUP3 ADD PUSH2 0x2097 JUMP JUMPDEST SWAP3 PUSH2 0x17EA PUSH1 0x2 DUP4 ADD PUSH2 0x2097 JUMP JUMPDEST SWAP2 PUSH1 0x3 DUP2 ADD SLOAD SWAP3 PUSH1 0x4 DUP3 ADD SLOAD PUSH1 0x1 DUP1 PUSH1 0xA0 SHL SUB DUP1 PUSH1 0x5 DUP6 ADD SLOAD AND SWAP1 PUSH1 0x6 DUP6 ADD SLOAD AND PUSH1 0x7 DUP6 ADD SLOAD SWAP2 PUSH1 0x8 DUP7 ADD SLOAD SWAP4 PUSH2 0x1863 PUSH1 0x9 DUP9 ADD SLOAD SWAP7 PUSH2 0x1855 PUSH1 0xFF PUSH1 0xB PUSH1 0xA DUP13 ADD SLOAD SWAP12 ADD SLOAD AND SWAP11 PUSH1 0x40 MLOAD SWAP15 DUP16 SWAP15 DUP16 SWAP3 PUSH2 0x180 DUP1 DUP6 MSTORE DUP5 ADD SWAP1 PUSH2 0x2187 JUMP JUMPDEST SWAP2 PUSH1 0x20 DUP2 DUP5 SUB SWAP2 ADD MSTORE PUSH2 0x2187 JUMP JUMPDEST DUP13 DUP2 SUB PUSH1 0x40 DUP15 ADD MSTORE SWAP1 PUSH2 0x2187 JUMP JUMPDEST SWAP9 PUSH1 0x60 DUP12 ADD MSTORE PUSH1 0x80 DUP11 ADD MSTORE PUSH1 0xA0 DUP10 ADD MSTORE PUSH1 0xC0 DUP9 ADD MSTORE PUSH1 0xE0 DUP8 ADD MSTORE PUSH2 0x100 DUP7 ADD MSTORE PUSH2 0x120 DUP6 ADD MSTORE PUSH2 0x140 DUP5 ADD MSTORE ISZERO ISZERO PUSH2 0x160 DUP4 ADD MSTORE SUB SWAP1 RETURN JUMPDEST POP CALLVALUE PUSH2 0x586 JUMPI PUSH1 0x40 CALLDATASIZE PUSH1 0x3 NOT ADD SLT PUSH2 0x586 JUMPI PUSH2 0x18B5 PUSH2 0x1FE2 JUMP JUMPDEST PUSH1 0x1 PUSH1 0x1 PUSH1 0xA0 SHL SUB AND DUP2 MSTORE PUSH1 0x5 PUSH1 0x20 MSTORE PUSH1 0x40 DUP2 KECCAK256 DUP1 SLOAD PUSH1 0x24 CALLDATALOAD SWAP3 SWAP1 DUP4 LT ISZERO PUSH2 0x586 JUMPI PUSH2 0xBAF PUSH2 0xB9B PUSH2 0xB95 DUP6 DUP6 PUSH2 0x2045 JUMP JUMPDEST POP CALLVALUE PUSH2 0x586 JUMPI PUSH1 0x20 CALLDATASIZE PUSH1 0x3 NOT ADD SLT PUSH2 0x586 JUMPI PUSH1 0x4 CALLDATALOAD PUSH1 0x1 PUSH1 0x1 PUSH1 0x40 SHL SUB DUP2 GT PUSH2 0x8AC JUMPI PUSH2 0x1918 SWAP1 CALLDATASIZE SWAP1 PUSH1 0x4 ADD PUSH2 0x1F96 JUMP JUMPDEST PUSH1 0x40 MLOAD PUSH1 0x20 DUP2 DUP4 MLOAD PUSH2 0x192D DUP2 DUP4 DUP6 DUP9 ADD PUSH2 0x2164 JUMP JUMPDEST DUP2 ADD PUSH1 0x3 DUP2 MSTORE SUB ADD SWAP1 KECCAK256 PUSH1 0xB DUP2 ADD SWAP1 DUP2 SLOAD SWAP1 PUSH1 0xFF DUP3 AND ISZERO PUSH2 0x19D7 JUMPI PUSH1 0x5 ADD SLOAD PUSH1 0x1 PUSH1 0x1 PUSH1 0xA0 SHL SUB AND CALLER SUB PUSH2 0x1992 JUMPI PUSH1 0xFF NOT AND SWAP1 SSTORE PUSH2 0x196B CALLER SWAP2 PUSH2 0x238C JUMP JUMPDEST PUSH32 0xBF7659F4659900A03FED4AD2FC77C3602180B8AFCF682077F6E38E88D0CF58F4 DUP4 DUP1 LOG3 DUP1 RETURN JUMPDEST PUSH1 0x40 MLOAD PUSH3 0x461BCD PUSH1 0xE5 SHL DUP2 MSTORE PUSH1 0x20 PUSH1 0x4 DUP3 ADD MSTORE PUSH1 0x19 PUSH1 0x24 DUP3 ADD MSTORE PUSH32 0x4F6E6C79206F776E65722063616E206465616374697661746500000000000000 PUSH1 0x44 DUP3 ADD MSTORE PUSH1 0x64 SWAP1 REVERT JUMPDEST PUSH1 0x40 MLOAD PUSH3 0x461BCD PUSH1 0xE5 SHL DUP2 MSTORE PUSH1 0x20 PUSH1 0x4 DUP3 ADD MSTORE PUSH1 0x16 PUSH1 0x24 DUP3 ADD MSTORE PUSH22 0x417373657420616C726561647920696E616374697665 PUSH1 0x50 SHL PUSH1 0x44 DUP3 ADD MSTORE PUSH1 0x64 SWAP1 REVERT JUMPDEST POP CALLVALUE PUSH2 0x586 JUMPI PUSH1 0x40 CALLDATASIZE PUSH1 0x3 NOT ADD SLT PUSH2 0x586 JUMPI PUSH1 0x4 CALLDATALOAD PUSH1 0x1 PUSH1 0x1 PUSH1 0x40 SHL SUB DUP2 GT PUSH2 0x8AC JUMPI PUSH2 0x1A46 SWAP1 CALLDATASIZE SWAP1 PUSH1 0x4 ADD PUSH2 0x1F96 JUMP JUMPDEST PUSH1 0x24 SWAP2 PUSH1 0x1 PUSH1 0x1 PUSH1 0xA0 SHL SUB SWAP2 DUP4 CALLDATALOAD DUP4 DUP2 AND DUP2 SUB PUSH2 0x582 JUMPI PUSH1 0x40 MLOAD PUSH1 0x20 DUP2 DUP5 MLOAD PUSH2 0x1A72 DUP2 DUP4 DUP6 DUP10 ADD PUSH2 0x2164 JUMP JUMPDEST DUP2 ADD PUSH1 0x3 DUP2 MSTORE SUB ADD SWAP1 KECCAK256 SWAP4 PUSH2 0x1A8D PUSH1 0xFF PUSH1 0xB DUP8 ADD SLOAD AND PUSH2 0x23AC JUMP JUMPDEST DUP1 PUSH1 0x5 DUP7 ADD SLOAD AND SWAP2 DUP3 CALLER SUB PUSH2 0x1D3C JUMPI DUP2 DUP2 AND ISZERO PUSH2 0x1D04 JUMPI DUP3 DUP6 MSTORE PUSH1 0x5 PUSH1 0x20 MSTORE PUSH1 0x40 DUP6 KECCAK256 SWAP6 DUP6 JUMPDEST DUP8 SLOAD DUP1 DUP3 LT ISZERO PUSH2 0x1CF1 JUMPI PUSH2 0x1AC7 DUP3 DUP11 PUSH2 0x2045 JUMP JUMPDEST POP PUSH1 0x40 MLOAD SWAP1 DUP2 DUP11 DUP3 SLOAD SWAP3 PUSH2 0x1ADA DUP5 PUSH2 0x205D JUMP JUMPDEST DUP1 DUP5 MSTORE SWAP4 PUSH1 0x1 DUP2 AND SWAP1 DUP2 ISZERO PUSH2 0x1CCF JUMPI POP PUSH1 0x1 EQ PUSH2 0x1C91 JUMPI JUMPDEST POP PUSH2 0x1AFF SWAP3 POP SUB DUP3 PUSH2 0x1F5A JUMP JUMPDEST PUSH1 0x20 DUP2 MLOAD SWAP2 ADD KECCAK256 DUP8 MLOAD PUSH1 0x20 DUP10 ADD KECCAK256 EQ PUSH2 0x1B37 JUMPI POP PUSH1 0x0 NOT DUP2 EQ PUSH2 0x1B24 JUMPI PUSH1 0x1 ADD PUSH2 0x1AB3 JUMP JUMPDEST PUSH4 0x4E487B71 PUSH1 0xE0 SHL DUP8 MSTORE PUSH1 0x11 PUSH1 0x4 MSTORE DUP9 DUP8 REVERT JUMPDEST SWAP1 PUSH1 0x0 SWAP9 SWAP3 SWAP4 SWAP5 SWAP6 SWAP7 SWAP8 SWAP9 NOT SWAP2 DUP3 DUP2 ADD SWAP1 DUP2 GT PUSH2 0x1C7E JUMPI PUSH2 0x1B5B PUSH2 0x1B63 SWAP2 DUP6 PUSH2 0x2045 JUMP JUMPDEST POP SWAP2 DUP5 PUSH2 0x2045 JUMP JUMPDEST SWAP2 SWAP1 SWAP2 PUSH2 0x1C6B JUMPI PUSH2 0x1B73 SWAP2 PUSH2 0x2561 JUMP JUMPDEST DUP2 SLOAD DUP1 ISZERO PUSH2 0x1C58 JUMPI ADD SWAP1 PUSH2 0x1B87 DUP3 DUP3 PUSH2 0x2045 JUMP JUMPDEST SWAP10 SWAP1 SWAP10 PUSH2 0x1C46 JUMPI POP DUP8 DUP10 PUSH2 0x1BA1 PUSH2 0x1BE1 SWAP9 SWAP10 SWAP11 SWAP12 SLOAD PUSH2 0x205D JUMP JUMPDEST DUP1 PUSH2 0x1C08 JUMPI JUMPDEST POP POP POP SSTORE JUMPDEST PUSH1 0x5 SWAP1 DUP2 ADD DUP1 SLOAD PUSH1 0x1 PUSH1 0x1 PUSH1 0xA0 SHL SUB NOT AND DUP4 DUP6 AND SWAP1 DUP2 OR SWAP1 SWAP2 SSTORE DUP8 MSTORE PUSH1 0x20 MSTORE PUSH1 0x40 DUP7 KECCAK256 PUSH2 0x1BDA SWAP1 DUP7 SWAP1 PUSH2 0x235F JUMP JUMPDEST AND SWAP3 PUSH2 0x238C JUMP JUMPDEST PUSH32 0x6840904F5B31827F74E1497360DA245F56E530C8C3DE3163A2D31F11493273C6 DUP5 DUP1 LOG4 DUP1 RETURN JUMPDEST DUP3 PUSH1 0x1F DUP1 DUP4 GT PUSH1 0x1 EQ PUSH2 0x1C22 JUMPI POP POP POP SSTORE JUMPDEST DUP9 CODESIZE DUP1 PUSH2 0x1BA7 JUMP JUMPDEST DUP4 DUP3 MSTORE PUSH1 0x20 DUP3 KECCAK256 SWAP4 SWAP2 SWAP3 PUSH2 0x1C3F SWAP2 ADD PUSH1 0x5 SHR DUP5 ADD PUSH1 0x1 DUP6 ADD PUSH2 0x223C JUMP JUMPDEST SSTORE SSTORE PUSH2 0x1C1A JUMP JUMPDEST PUSH4 0x4E487B71 PUSH1 0xE0 SHL DUP10 MSTORE PUSH1 0x4 DUP10 SWAP1 MSTORE DUP9 REVERT JUMPDEST PUSH4 0x4E487B71 PUSH1 0xE0 SHL DUP10 MSTORE PUSH1 0x31 PUSH1 0x4 MSTORE DUP10 DUP10 REVERT JUMPDEST PUSH4 0x4E487B71 PUSH1 0xE0 SHL DUP11 MSTORE PUSH1 0x4 DUP11 SWAP1 MSTORE DUP11 DUP11 REVERT JUMPDEST PUSH4 0x4E487B71 PUSH1 0xE0 SHL DUP11 MSTORE PUSH1 0x11 PUSH1 0x4 MSTORE DUP11 DUP11 REVERT JUMPDEST DUP13 MSTORE POP POP PUSH1 0x20 DUP11 KECCAK256 DUP11 SWAP2 SWAP1 JUMPDEST DUP2 DUP4 LT PUSH2 0x1CB6 JUMPI POP POP DUP2 PUSH1 0x20 PUSH2 0x1AFF SWAP3 DUP3 ADD ADD CODESIZE PUSH2 0x1AF2 JUMP JUMPDEST DUP1 SLOAD PUSH1 0x20 DUP5 DUP7 ADD DUP2 ADD SWAP2 SWAP1 SWAP2 MSTORE SWAP1 SWAP3 ADD SWAP2 PUSH1 0x1 ADD PUSH2 0x1C9D JUMP JUMPDEST SWAP1 POP PUSH1 0x20 SWAP3 POP PUSH2 0x1AFF SWAP5 SWAP2 POP PUSH1 0xFF NOT AND DUP3 DUP5 ADD MSTORE ISZERO ISZERO PUSH1 0x5 SHL DUP3 ADD ADD CODESIZE PUSH2 0x1AF2 JUMP JUMPDEST POP POP SWAP1 SWAP2 SWAP3 SWAP5 SWAP7 POP PUSH2 0x1BE1 SWAP4 SWAP6 POP PUSH2 0x1BAC JUMP JUMPDEST PUSH1 0x40 MLOAD PUSH3 0x461BCD PUSH1 0xE5 SHL DUP2 MSTORE PUSH1 0x20 PUSH1 0x4 DUP3 ADD MSTORE PUSH1 0x11 DUP2 DUP10 ADD MSTORE PUSH17 0x24B73B30B634B2103732BB9037BBB732B9 PUSH1 0x79 SHL PUSH1 0x44 DUP3 ADD MSTORE PUSH1 0x64 SWAP1 REVERT JUMPDEST PUSH1 0x40 MLOAD PUSH3 0x461BCD PUSH1 0xE5 SHL DUP2 MSTORE PUSH1 0x20 PUSH1 0x4 DUP3 ADD MSTORE PUSH1 0x1F DUP2 DUP10 ADD MSTORE PUSH32 0x4F6E6C792063757272656E74206F776E65722063616E207472616E7366657200 PUSH1 0x44 DUP3 ADD MSTORE PUSH1 0x64 SWAP1 REVERT JUMPDEST POP CALLVALUE PUSH2 0x586 JUMPI DUP1 PUSH1 0x3 NOT CALLDATASIZE ADD SLT PUSH2 0x586 JUMPI PUSH1 0x2 SLOAD PUSH1 0x40 MLOAD PUSH1 0x1 PUSH1 0x1 PUSH1 0xA0 SHL SUB SWAP1 SWAP2 AND DUP2 MSTORE PUSH1 0x20 SWAP1 RETURN JUMPDEST POP CALLVALUE PUSH2 0x586 JUMPI DUP1 PUSH1 0x3 NOT CALLDATASIZE ADD SLT PUSH2 0x586 JUMPI PUSH1 0x40 MLOAD PUSH32 0x0 PUSH1 0x1 PUSH1 0x1 PUSH1 0xA0 SHL SUB AND DUP2 MSTORE PUSH1 0x20 SWAP1 RETURN JUMPDEST POP CALLVALUE PUSH2 0x586 JUMPI PUSH1 0x60 CALLDATASIZE PUSH1 0x3 NOT ADD SLT PUSH2 0x586 JUMPI PUSH1 0x4 CALLDATALOAD PUSH1 0x1 PUSH1 0x1 PUSH1 0x40 SHL SUB DUP2 GT PUSH2 0x8AC JUMPI PUSH2 0x1E1F SWAP1 CALLDATASIZE SWAP1 PUSH1 0x4 ADD PUSH2 0x1F96 JUMP JUMPDEST PUSH1 0x24 CALLDATALOAD SWAP1 PUSH1 0x44 CALLDATALOAD SWAP1 PUSH1 0x40 MLOAD PUSH1 0x20 DUP2 DUP4 MLOAD PUSH2 0x1E3C DUP2 DUP4 DUP6 DUP9 ADD PUSH2 0x2164 JUMP JUMPDEST DUP2 ADD PUSH1 0x3 DUP2 MSTORE SUB ADD SWAP1 KECCAK256 PUSH2 0x1E56 PUSH1 0xFF PUSH1 0xB DUP4 ADD SLOAD AND PUSH2 0x23AC JUMP JUMPDEST PUSH1 0x5 DUP2 ADD SLOAD PUSH1 0x1 PUSH1 0x1 PUSH1 0xA0 SHL SUB AND CALLER SUB PUSH2 0x1ED0 JUMPI PUSH2 0x1EB8 PUSH1 0x40 SWAP3 PUSH32 0x6F614E54FAFE71F7C0A065E36894602CA7ED071E7BE8DF9BADE0418E775FAC56 SWAP5 DUP7 ISZERO DUP1 ISZERO SWAP1 PUSH2 0x1EC7 JUMPI JUMPDEST PUSH2 0x1EA5 SWAP1 PUSH2 0x21D8 JUMP JUMPDEST PUSH1 0x4 PUSH1 0x3 DUP6 ADD SWAP5 DUP9 DUP7 SLOAD SWAP7 SSTORE ADD SSTORE PUSH2 0x238C JUMP JUMPDEST SWAP4 DUP3 MLOAD SWAP2 DUP3 MSTORE PUSH1 0x20 DUP3 ADD MSTORE LOG2 DUP1 RETURN JUMPDEST POP DUP1 ISZERO ISZERO PUSH2 0x1E9C JUMP JUMPDEST PUSH1 0x40 MLOAD PUSH3 0x461BCD PUSH1 0xE5 SHL DUP2 MSTORE PUSH1 0x20 PUSH1 0x4 DUP3 ADD MSTORE PUSH1 0x1B PUSH1 0x24 DUP3 ADD MSTORE PUSH32 0x4F6E6C79206F776E65722063616E207570646174652070726963650000000000 PUSH1 0x44 DUP3 ADD MSTORE PUSH1 0x64 SWAP1 REVERT JUMPDEST PUSH1 0x1 PUSH1 0x1 PUSH1 0x40 SHL SUB DUP2 GT PUSH2 0x1F28 JUMPI PUSH1 0x40 MSTORE JUMP JUMPDEST PUSH4 0x4E487B71 PUSH1 0xE0 SHL PUSH1 0x0 MSTORE PUSH1 0x41 PUSH1 0x4 MSTORE PUSH1 0x24 PUSH1 0x0 REVERT JUMPDEST PUSH2 0x180 DUP2 ADD SWAP1 DUP2 LT PUSH1 0x1 PUSH1 0x1 PUSH1 0x40 SHL SUB DUP3 GT OR PUSH2 0x1F28 JUMPI PUSH1 0x40 MSTORE JUMP JUMPDEST SWAP1 PUSH1 0x1F DUP1 NOT SWAP2 ADD AND DUP2 ADD SWAP1 DUP2 LT PUSH1 0x1 PUSH1 0x1 PUSH1 0x40 SHL SUB DUP3 GT OR PUSH2 0x1F28 JUMPI PUSH1 0x40 MSTORE JUMP JUMPDEST PUSH1 0x1 PUSH1 0x1 PUSH1 0x40 SHL SUB DUP2 GT PUSH2 0x1F28 JUMPI PUSH1 0x1F ADD PUSH1 0x1F NOT AND PUSH1 0x20 ADD SWAP1 JUMP JUMPDEST DUP2 PUSH1 0x1F DUP3 ADD SLT ISZERO PUSH2 0x1FDD JUMPI DUP1 CALLDATALOAD SWAP1 PUSH2 0x1FAD DUP3 PUSH2 0x1F7B JUMP JUMPDEST SWAP3 PUSH2 0x1FBB PUSH1 0x40 MLOAD SWAP5 DUP6 PUSH2 0x1F5A JUMP JUMPDEST DUP3 DUP5 MSTORE PUSH1 0x20 DUP4 DUP4 ADD ADD GT PUSH2 0x1FDD JUMPI DUP2 PUSH1 0x0 SWAP3 PUSH1 0x20 DUP1 SWAP4 ADD DUP4 DUP7 ADD CALLDATACOPY DUP4 ADD ADD MSTORE SWAP1 JUMP JUMPDEST PUSH1 0x0 DUP1 REVERT JUMPDEST PUSH1 0x4 CALLDATALOAD SWAP1 PUSH1 0x1 PUSH1 0x1 PUSH1 0xA0 SHL SUB DUP3 AND DUP3 SUB PUSH2 0x1FDD JUMPI JUMP JUMPDEST PUSH1 0x6 SLOAD DUP2 LT ISZERO PUSH2 0x202F JUMPI PUSH1 0x6 PUSH1 0x0 MSTORE PUSH32 0xF652222313E28459528D920B65115C16C04F3EFC82AAEDC97BE59F3F377C0D3F ADD SWAP1 PUSH1 0x0 SWAP1 JUMP JUMPDEST PUSH4 0x4E487B71 PUSH1 0xE0 SHL PUSH1 0x0 MSTORE PUSH1 0x32 PUSH1 0x4 MSTORE PUSH1 0x24 PUSH1 0x0 REVERT JUMPDEST DUP1 SLOAD DUP3 LT ISZERO PUSH2 0x202F JUMPI PUSH1 0x0 MSTORE PUSH1 0x20 PUSH1 0x0 KECCAK256 ADD SWAP1 PUSH1 0x0 SWAP1 JUMP JUMPDEST SWAP1 PUSH1 0x1 DUP3 DUP2 SHR SWAP3 AND DUP1 ISZERO PUSH2 0x208D JUMPI JUMPDEST PUSH1 0x20 DUP4 LT EQ PUSH2 0x2077 JUMPI JUMP JUMPDEST PUSH4 0x4E487B71 PUSH1 0xE0 SHL PUSH1 0x0 MSTORE PUSH1 0x22 PUSH1 0x4 MSTORE PUSH1 0x24 PUSH1 0x0 REVERT JUMPDEST SWAP2 PUSH1 0x7F AND SWAP2 PUSH2 0x206C JUMP JUMPDEST SWAP1 PUSH1 0x40 MLOAD SWAP2 DUP3 PUSH1 0x0 DUP3 SLOAD SWAP3 PUSH2 0x20AB DUP5 PUSH2 0x205D JUMP JUMPDEST SWAP1 DUP2 DUP5 MSTORE PUSH1 0x1 SWAP5 DUP6 DUP2 AND SWAP1 DUP2 PUSH1 0x0 EQ PUSH2 0x211A JUMPI POP PUSH1 0x1 EQ PUSH2 0x20D7 JUMPI JUMPDEST POP POP PUSH2 0x20D5 SWAP3 POP SUB DUP4 PUSH2 0x1F5A JUMP JUMPDEST JUMP JUMPDEST SWAP1 SWAP4 SWAP2 POP PUSH1 0x0 MSTORE PUSH1 0x20 SWAP1 DUP2 PUSH1 0x0 KECCAK256 SWAP4 PUSH1 0x0 SWAP2 JUMPDEST DUP2 DUP4 LT PUSH2 0x2102 JUMPI POP POP PUSH2 0x20D5 SWAP4 POP DUP3 ADD ADD CODESIZE DUP1 PUSH2 0x20C7 JUMP JUMPDEST DUP6 SLOAD DUP9 DUP5 ADD DUP6 ADD MSTORE SWAP5 DUP6 ADD SWAP5 DUP8 SWAP5 POP SWAP2 DUP4 ADD SWAP2 PUSH2 0x20EA JUMP JUMPDEST SWAP2 POP POP PUSH2 0x20D5 SWAP5 POP PUSH1 0x20 SWAP3 POP PUSH1 0xFF NOT AND DUP3 DUP5 ADD MSTORE ISZERO ISZERO PUSH1 0x5 SHL DUP3 ADD ADD CODESIZE DUP1 PUSH2 0x20C7 JUMP JUMPDEST SWAP1 PUSH2 0x214E JUMPI PUSH2 0x214B SWAP1 PUSH2 0x2097 JUMP JUMPDEST SWAP1 JUMP JUMPDEST PUSH4 0x4E487B71 PUSH1 0xE0 SHL PUSH1 0x0 MSTORE PUSH1 0x0 PUSH1 0x4 MSTORE PUSH1 0x24 PUSH1 0x0 REVERT JUMPDEST PUSH1 0x0 JUMPDEST DUP4 DUP2 LT PUSH2 0x2177 JUMPI POP POP PUSH1 0x0 SWAP2 ADD MSTORE JUMP JUMPDEST DUP2 DUP2 ADD MLOAD DUP4 DUP3 ADD MSTORE PUSH1 0x20 ADD PUSH2 0x2167 JUMP JUMPDEST SWAP1 PUSH1 0x20 SWAP2 PUSH2 0x21A0 DUP2 MLOAD DUP1 SWAP3 DUP2 DUP6 MSTORE DUP6 DUP1 DUP7 ADD SWAP2 ADD PUSH2 0x2164 JUMP JUMPDEST PUSH1 0x1F ADD PUSH1 0x1F NOT AND ADD ADD SWAP1 JUMP JUMPDEST PUSH1 0x0 SLOAD PUSH1 0x1 PUSH1 0x1 PUSH1 0xA0 SHL SUB AND CALLER SUB PUSH2 0x21C0 JUMPI JUMP JUMPDEST PUSH1 0x40 MLOAD PUSH4 0x118CDAA7 PUSH1 0xE0 SHL DUP2 MSTORE CALLER PUSH1 0x4 DUP3 ADD MSTORE PUSH1 0x24 SWAP1 REVERT JUMPDEST ISZERO PUSH2 0x21DF JUMPI JUMP JUMPDEST PUSH1 0x40 MLOAD PUSH3 0x461BCD PUSH1 0xE5 SHL DUP2 MSTORE PUSH1 0x20 PUSH1 0x4 DUP3 ADD MSTORE PUSH1 0x1E PUSH1 0x24 DUP3 ADD MSTORE PUSH32 0x4174206C65617374206F6E65207072696365206D757374206265207365740000 PUSH1 0x44 DUP3 ADD MSTORE PUSH1 0x64 SWAP1 REVERT JUMPDEST SWAP1 DUP2 PUSH1 0x20 SWAP2 SUB SLT PUSH2 0x1FDD JUMPI MLOAD DUP1 ISZERO ISZERO DUP2 SUB PUSH2 0x1FDD JUMPI SWAP1 JUMP JUMPDEST DUP2 DUP2 LT PUSH2 0x2247 JUMPI POP POP JUMP JUMPDEST PUSH1 0x0 DUP2 SSTORE PUSH1 0x1 ADD PUSH2 0x223C JUMP JUMPDEST SWAP2 SWAP1 PUSH1 0x1F DUP2 GT PUSH2 0x2262 JUMPI POP POP POP JUMP JUMPDEST PUSH2 0x20D5 SWAP3 PUSH1 0x0 MSTORE PUSH1 0x20 PUSH1 0x0 KECCAK256 SWAP1 PUSH1 0x20 PUSH1 0x1F DUP5 ADD PUSH1 0x5 SHR DUP4 ADD SWAP4 LT PUSH2 0x228E JUMPI JUMPDEST PUSH1 0x1F ADD PUSH1 0x5 SHR ADD SWAP1 PUSH2 0x223C JUMP JUMPDEST SWAP1 SWAP2 POP DUP2 SWAP1 PUSH2 0x2281 JUMP JUMPDEST SWAP2 SWAP1 SWAP2 DUP3 MLOAD PUSH1 0x1 PUSH1 0x1 PUSH1 0x40 SHL SUB DUP2 GT PUSH2 0x1F28 JUMPI PUSH2 0x22BF DUP2 PUSH2 0x22B9 DUP5 SLOAD PUSH2 0x205D JUMP JUMPDEST DUP5 PUSH2 0x2253 JUMP JUMPDEST PUSH1 0x20 DUP1 PUSH1 0x1F DUP4 GT PUSH1 0x1 EQ PUSH2 0x22FB JUMPI POP DUP2 SWAP3 SWAP4 SWAP5 PUSH1 0x0 SWAP3 PUSH2 0x22F0 JUMPI JUMPDEST POP POP DUP2 PUSH1 0x1 SHL SWAP2 PUSH1 0x0 NOT SWAP1 PUSH1 0x3 SHL SHR NOT AND OR SWAP1 SSTORE JUMP JUMPDEST ADD MLOAD SWAP1 POP CODESIZE DUP1 PUSH2 0x22DA JUMP JUMPDEST SWAP1 PUSH1 0x1F NOT DUP4 AND SWAP6 DUP5 PUSH1 0x0 MSTORE DUP3 PUSH1 0x0 KECCAK256 SWAP3 PUSH1 0x0 SWAP1 JUMPDEST DUP9 DUP3 LT PUSH2 0x2347 JUMPI POP POP DUP4 PUSH1 0x1 SWAP6 SWAP7 SWAP8 LT PUSH2 0x232E JUMPI JUMPDEST POP POP POP DUP2 SHL ADD SWAP1 SSTORE JUMP JUMPDEST ADD MLOAD PUSH1 0x0 NOT PUSH1 0xF8 DUP5 PUSH1 0x3 SHL AND SHR NOT AND SWAP1 SSTORE CODESIZE DUP1 DUP1 PUSH2 0x2324 JUMP JUMPDEST DUP1 PUSH1 0x1 DUP6 SWAP7 DUP3 SWAP5 SWAP7 DUP7 ADD MLOAD DUP2 SSTORE ADD SWAP6 ADD SWAP4 ADD SWAP1 PUSH2 0x230F JUMP JUMPDEST DUP1 SLOAD PUSH1 0x1 PUSH1 0x40 SHL DUP2 LT ISZERO PUSH2 0x1F28 JUMPI PUSH2 0x237C SWAP2 PUSH1 0x1 DUP3 ADD DUP2 SSTORE PUSH2 0x2045 JUMP JUMPDEST SWAP2 SWAP1 SWAP2 PUSH2 0x214E JUMPI PUSH2 0x20D5 SWAP2 PUSH2 0x2298 JUMP JUMPDEST PUSH2 0x23A4 SWAP1 PUSH1 0x20 PUSH1 0x40 MLOAD SWAP3 DUP3 DUP5 DUP1 SWAP5 MLOAD SWAP4 DUP5 SWAP3 ADD PUSH2 0x2164 JUMP JUMPDEST DUP2 ADD SUB SWAP1 KECCAK256 SWAP1 JUMP JUMPDEST ISZERO PUSH2 0x23B3 JUMPI JUMP JUMPDEST PUSH1 0x40 MLOAD PUSH3 0x461BCD PUSH1 0xE5 SHL DUP2 MSTORE PUSH1 0x20 PUSH1 0x4 DUP3 ADD MSTORE PUSH1 0x13 PUSH1 0x24 DUP3 ADD MSTORE PUSH19 0x4173736574206E6F7420617661696C61626C65 PUSH1 0x68 SHL PUSH1 0x44 DUP3 ADD MSTORE PUSH1 0x64 SWAP1 REVERT JUMPDEST SWAP2 SWAP1 DUP3 PUSH1 0x40 SWAP2 SUB SLT PUSH2 0x1FDD JUMPI PUSH1 0x20 DUP3 MLOAD SWAP3 ADD MLOAD SWAP1 JUMP JUMPDEST SWAP2 SWAP1 DUP3 ADD DUP1 SWAP3 GT PUSH2 0x2411 JUMPI JUMP JUMPDEST PUSH4 0x4E487B71 PUSH1 0xE0 SHL PUSH1 0x0 MSTORE PUSH1 0x11 PUSH1 0x4 MSTORE PUSH1 0x24 PUSH1 0x0 REVERT JUMPDEST DUP2 DUP2 MUL SWAP3 SWAP2 DUP2 ISZERO SWAP2 DUP5 DIV EQ OR ISZERO PUSH2 0x2411 JUMPI JUMP JUMPDEST SWAP2 SWAP1 DUP3 SUB SWAP2 DUP3 GT PUSH2 0x2411 JUMPI JUMP JUMPDEST RETURNDATASIZE ISZERO PUSH2 0x2472 JUMPI RETURNDATASIZE SWAP1 PUSH2 0x2458 DUP3 PUSH2 0x1F7B JUMP JUMPDEST SWAP2 PUSH2 0x2466 PUSH1 0x40 MLOAD SWAP4 DUP5 PUSH2 0x1F5A JUMP JUMPDEST DUP3 MSTORE RETURNDATASIZE PUSH1 0x0 PUSH1 0x20 DUP5 ADD RETURNDATACOPY JUMP JUMPDEST PUSH1 0x60 SWAP1 JUMP JUMPDEST ISZERO PUSH2 0x247E JUMPI JUMP JUMPDEST PUSH1 0x40 MLOAD PUSH3 0x461BCD PUSH1 0xE5 SHL DUP2 MSTORE PUSH1 0x20 PUSH1 0x4 DUP3 ADD MSTORE PUSH1 0x17 PUSH1 0x24 DUP3 ADD MSTORE PUSH32 0x5061796D656E7420746F206F776E6572206661696C6564000000000000000000 PUSH1 0x44 DUP3 ADD MSTORE PUSH1 0x64 SWAP1 REVERT JUMPDEST DUP1 SLOAD PUSH1 0x1 PUSH1 0x40 SHL DUP2 LT ISZERO PUSH2 0x1F28 JUMPI PUSH2 0x24E0 SWAP2 PUSH1 0x1 DUP3 ADD DUP2 SSTORE PUSH2 0x2045 JUMP JUMPDEST DUP2 SWAP3 SWAP2 SLOAD SWAP1 PUSH1 0x3 SHL SWAP2 PUSH1 0x1 DUP1 PUSH1 0xA0 SHL SUB DUP1 SWAP2 AND DUP4 SHL SWAP3 SHL NOT AND OR SWAP1 SSTORE JUMP JUMPDEST PUSH1 0x2 PUSH1 0x1 SLOAD EQ PUSH2 0x250F JUMPI PUSH1 0x2 PUSH1 0x1 SSTORE JUMP JUMPDEST PUSH1 0x40 MLOAD PUSH4 0x3EE5AEB5 PUSH1 0xE0 SHL DUP2 MSTORE PUSH1 0x4 SWAP1 REVERT JUMPDEST ISZERO PUSH2 0x2528 JUMPI JUMP JUMPDEST PUSH1 0x40 MLOAD PUSH3 0x461BCD PUSH1 0xE5 SHL DUP2 MSTORE PUSH1 0x20 PUSH1 0x4 DUP3 ADD MSTORE PUSH1 0x11 PUSH1 0x24 DUP3 ADD MSTORE PUSH17 0x15DA5D1A191C985DD85B0819985A5B1959 PUSH1 0x7A SHL PUSH1 0x44 DUP3 ADD MSTORE PUSH1 0x64 SWAP1 REVERT JUMPDEST SWAP1 DUP1 DUP3 EQ PUSH2 0x2639 JUMPI PUSH2 0x2573 DUP2 SLOAD PUSH2 0x205D JUMP JUMPDEST SWAP1 PUSH1 0x1 PUSH1 0x1 PUSH1 0x40 SHL SUB DUP3 GT PUSH2 0x1F28 JUMPI DUP2 SWAP1 PUSH2 0x2598 DUP3 PUSH2 0x2592 DUP7 SLOAD PUSH2 0x205D JUMP JUMPDEST DUP7 PUSH2 0x2253 JUMP JUMPDEST PUSH1 0x0 SWAP1 PUSH1 0x1F DUP4 GT PUSH1 0x1 EQ PUSH2 0x25CE JUMPI PUSH1 0x0 SWAP3 PUSH2 0x25C3 JUMPI POP POP DUP2 PUSH1 0x1 SHL SWAP2 PUSH1 0x0 NOT SWAP1 PUSH1 0x3 SHL SHR NOT AND OR SWAP1 SSTORE JUMP JUMPDEST ADD SLOAD SWAP1 POP CODESIZE DUP1 PUSH2 0x22DA JUMP JUMPDEST DUP2 MSTORE PUSH1 0x20 DUP1 DUP3 KECCAK256 DUP6 DUP4 MSTORE DUP2 DUP4 KECCAK256 SWAP4 POP SWAP1 PUSH1 0x1F NOT DUP6 AND SWAP1 DUP4 SWAP1 JUMPDEST DUP3 DUP3 LT PUSH2 0x2620 JUMPI POP POP SWAP1 DUP5 PUSH1 0x1 SWAP6 SWAP5 SWAP4 SWAP3 LT PUSH2 0x2607 JUMPI POP POP POP DUP2 SHL ADD SWAP1 SSTORE JUMP JUMPDEST ADD SLOAD PUSH1 0x0 NOT PUSH1 0xF8 DUP5 PUSH1 0x3 SHL AND SHR NOT AND SWAP1 SSTORE CODESIZE DUP1 DUP1 PUSH2 0x2324 JUMP JUMPDEST DUP5 SWAP6 DUP2 SWAP3 SWAP6 DUP6 ADD SLOAD DUP2 SSTORE PUSH1 0x1 DUP1 SWAP2 ADD SWAP7 ADD SWAP5 ADD SWAP1 PUSH2 0x25E7 JUMP JUMPDEST POP POP JUMP INVALID LOG2 PUSH5 0x6970667358 0x22 SLT KECCAK256 0x28 CALLDATASIZE 0x27 0xEB 0xD2 0xA6 0xCC PUSH32 0x30D612E7C00B1D1C537176848B42F388FEC5ED42826B4F164736F6C63430008 EQ STOP CALLER "},"methodIdentifiers":{"FEE_DENOMINATOR()":"d73792a9","USDC_ADDRESS()":"bb09d9b7","allAssetIds(uint256)":"e814d66b","assetPurchasers(string,uint256)":"8bccf009","deactivateAsset(string)":"51618eff","getAsset(string)":"cd5286d0","getAssetIdByIndex(uint256)":"8c5deff8","getAssetPurchasers(string)":"9ff95b8e","getTotalAssets()":"6e07302b","getUserAssets(address)":"765ff061","libraryAssets(string)":"6cb3db25","owner()":"8da5cb5b","platformFeePercentage()":"cdd78cfc","purchaseAssetWithETH(string)":"8ada33dc","purchaseAssetWithUSDC(string)":"fb055846","registerAsset(string,string,string,uint256,uint256)":"ff6c0dde","renounceOwnership()":"715018a6","royaltyContract()":"1663ee03","setRoyaltyContract(address)":"d9aa187c","transferAssetOwnership(string,address)":"2203f8f1","transferOwnership(address)":"f2fde38b","updateAssetPrice(string,uint256,uint256)":"0f393baf","updatePlatformFee(uint256)":"aa0b5988","usdcToken()":"11eac855","userOwnedAssets(address,uint256)":"5d483ab9","withdrawPlatformFeesETH()":"9c521838","withdrawPlatformFeesUSDC()":"dceb7686"}}}}}