{"ClayRoyalty.sol":{"ClayRoyalty":{"abi":[{"inputs":[{"internalType":"address","name":"_libraryContract","type":"address"}],"stateMutability":"nonpayable","type":"constructor"},{"inputs":[{"internalType":"address","name":"owner","type":"address"}],"name":"OwnableInvalidOwner","type":"error"},{"inputs":[{"internalType":"address","name":"account","type":"address"}],"name":"OwnableUnauthorizedAccount","type":"error"},{"inputs":[],"name":"ReentrancyGuardReentrantCall","type":"error"},{"anonymous":false,"inputs":[{"indexed":true,"internalType":"address","name":"previousOwner","type":"address"},{"indexed":true,"internalType":"address","name":"newOwner","type":"address"}],"name":"OwnershipTransferred","type":"event"},{"anonymous":false,"inputs":[{"indexed":true,"internalType":"string","name":"projectId","type":"string"},{"indexed":false,"internalType":"uint256","name":"dependencyCount","type":"uint256"}],"name":"RoyaltiesRegistered","type":"event"},{"anonymous":false,"inputs":[{"indexed":true,"internalType":"address","name":"claimant","type":"address"},{"indexed":false,"internalType":"uint256","name":"amountETH","type":"uint256"},{"indexed":false,"internalType":"uint256","name":"amountUSDC","type":"uint256"}],"name":"RoyaltyClaimed","type":"event"},{"anonymous":false,"inputs":[{"indexed":true,"internalType":"string","name":"projectId","type":"string"},{"indexed":true,"internalType":"address","name":"recipient","type":"address"},{"indexed":false,"internalType":"uint256","name":"amountETH","type":"uint256"},{"indexed":false,"internalType":"uint256","name":"amountUSDC","type":"uint256"}],"name":"RoyaltyRecorded","type":"event"},{"inputs":[],"name":"PERCENTAGE_DENOMINATOR","outputs":[{"internalType":"uint256","name":"","type":"uint256"}],"stateMutability":"view","type":"function"},{"inputs":[],"name":"ROYALTY_PERCENTAGE","outputs":[{"internalType":"uint256","name":"","type":"uint256"}],"stateMutability":"view","type":"function"},{"inputs":[],"name":"USDC_ADDRESS","outputs":[{"internalType":"address","name":"","type":"address"}],"stateMutability":"view","type":"function"},{"inputs":[{"internalType":"string","name":"projectId","type":"string"},{"internalType":"uint256","name":"priceETH","type":"uint256"},{"internalType":"uint256","name":"priceUSDC","type":"uint256"}],"name":"calculateTotalRoyalties","outputs":[{"internalType":"uint256","name":"totalETH","type":"uint256"},{"internalType":"uint256","name":"totalUSDC","type":"uint256"}],"stateMutability":"view","type":"function"},{"inputs":[],"name":"claimRoyaltiesETH","outputs":[],"stateMutability":"nonpayable","type":"function"},{"inputs":[],"name":"claimRoyaltiesUSDC","outputs":[],"stateMutability":"nonpayable","type":"function"},{"inputs":[{"internalType":"address","name":"account","type":"address"}],"name":"getPendingRoyalties","outputs":[{"internalType":"uint256","name":"eth","type":"uint256"},{"internalType":"uint256","name":"usdc","type":"uint256"}],"stateMutability":"view","type":"function"},{"inputs":[{"internalType":"string","name":"projectId","type":"string"}],"name":"getProjectDependencies","outputs":[{"components":[{"internalType":"string","name":"dependencyProjectId","type":"string"},{"internalType":"uint256","name":"royaltyPercentage","type":"uint256"}],"internalType":"struct ClayRoyalty.LibraryDependency[]","name":"","type":"tuple[]"}],"stateMutability":"view","type":"function"},{"inputs":[],"name":"libraryContract","outputs":[{"internalType":"contract IClayLibrary","name":"","type":"address"}],"stateMutability":"view","type":"function"},{"inputs":[],"name":"owner","outputs":[{"internalType":"address","name":"","type":"address"}],"stateMutability":"view","type":"function"},{"inputs":[{"internalType":"address","name":"","type":"address"}],"name":"pendingRoyaltiesETH","outputs":[{"internalType":"uint256","name":"","type":"uint256"}],"stateMutability":"view","type":"function"},{"inputs":[{"internalType":"address","name":"","type":"address"}],"name":"pendingRoyaltiesUSDC","outputs":[{"internalType":"uint256","name":"","type":"uint256"}],"stateMutability":"view","type":"function"},{"inputs":[{"internalType":"string","name":"","type":"string"}],"name":"projectRoyalties","outputs":[{"internalType":"string","name":"projectId","type":"string"},{"internalType":"bool","name":"hasRoyalties","type":"bool"}],"stateMutability":"view","type":"function"},{"inputs":[{"internalType":"string","name":"projectId","type":"string"},{"internalType":"uint256","name":"price","type":"uint256"},{"internalType":"enum ClayRoyalty.PaymentToken","name":"paymentToken","type":"uint8"}],"name":"recordRoyalties","outputs":[],"stateMutability":"payable","type":"function"},{"inputs":[{"internalType":"string","name":"projectId","type":"string"},{"internalType":"string[]","name":"dependencyProjectIds","type":"string[]"},{"internalType":"uint256[]","name":"royaltyPercentages","type":"uint256[]"}],"name":"registerProjectRoyalties","outputs":[],"stateMutability":"nonpayable","type":"function"},{"inputs":[],"name":"renounceOwnership","outputs":[],"stateMutability":"nonpayable","type":"function"},{"inputs":[{"internalType":"address","name":"_libraryContract","type":"address"}],"name":"setLibraryContract","outputs":[],"stateMutability":"nonpayable","type":"function"},{"inputs":[{"internalType":"address","name":"newOwner","type":"address"}],"name":"transferOwnership","outputs":[],"stateMutability":"nonpayable","type":"function"},{"inputs":[],"name":"usdcToken","outputs":[{"internalType":"contract IERC20","name":"","type":"address"}],"stateMutability":"view","type":"function"},{"inputs":[{"internalType":"string","name":"projectId","type":"string"},{"internalType":"uint256","name":"priceETH","type":"uint256"},{"internalType":"uint256","name":"priceUSDC","type":"uint256"}],"name":"validatePrice","outputs":[{"internalType":"bool","name":"","type":"bool"}],"stateMutability":"view","type":"function"},{"stateMutability":"payable","type":"receive"}],"evm":{"bytecode":{"linkReferences":{},"object":"60a0346100f257601f61179c38819003918201601f19168301916001600160401b038311848410176100f7578084926020946040528339810103126100f257516001600160a01b0390818116908190036100f25733156100d95760005460018060a01b0319903382821617600055604051933391167f8be0079c531659141344cd1fd0a4f28419497f9722a3daafe3b4186f6b6457e0600080a36001805573833589fcd6edb6e08f4c7c32d4f71b54bda02913608052600254161760025561168e908161010e8239608051818181610fb801526111310152f35b604051631e4fbdf760e01b815260006004820152602490fd5b600080fd5b634e487b7160e01b600052604160045260246000fdfe608080604052600436101561001d575b50361561001b57600080fd5b005b60003560e01c908163024fa0d614611183575080630434d60c1461116057806311eac8551461111b578063141b5f02146110dd5780631ed6c59914610f51578063463b08db14610f345780634aa8a12d14610eae57806350fd8e7114610d825780635bf4b5c414610d44578063715018a614610ceb57806374d3d93d146107d35780638da5cb5b146107aa578063902509c21461067a578063956456d91461062f578063b3cd425414610612578063bb09d9b7146105e3578063bf704e66146105be578063c5787690146101c4578063ce0769c51461019b5763f2fde38b14610106573861000f565b34610196576020366003190112610196576004356001600160a01b0381811691829003610196576101356113e0565b811561017d57600054826bffffffffffffffffffffffff60a01b821617600055167f8be0079c531659141344cd1fd0a4f28419497f9722a3daafe3b4186f6b6457e0600080a3005b604051631e4fbdf760e01b815260006004820152602490fd5b600080fd5b34610196576000366003190112610196576002546040516001600160a01b039091168152602090f35b6060366003190112610196576004356001600160401b038111610196576101ef903690600401611225565b6024908135906044356002808210156101965761020a611635565b6040519182845160209481610223879383858b016112a1565b810160058152030190209060ff83830154161561057a576103e05734156103ae57600194908501906000865b610263575b50505050505050505b60018055005b82548110156103a95761027f610279828561145b565b50611497565b906102b460018060a01b0387818854168551908d60405180968194829363d55a772d60e01b84528760048501528301906113a4565b03915afa91821561039d576102f6948991600094610364575b50612710916102de910151876114bc565b049182151580610359575b6102fc575b50505061140c565b8661024f565b1690816000526003885260406000206103168282546114cf565b90557fcb9f559e28915be49dcceef3fd0e6953281bdd4efe058dff26dd513ca503799e60406103448b611477565b92815190815260008b820152a38980806102ee565b5081811615156102e9565b6102de9194509161038d61271093823d8411610396575b61038581836111e9565b810190611616565b949150916102cd565b503d61037b565b6040513d6000823e3d90fd5b610254565b60405162461bcd60e51b815260048101849052600b818801526a139bc8115512081cd95b9d60aa1b6044820152606490fd5b903461052b57600194918501916000865b610403575b505050505050505061025d565b835481101561052657610419610279828661145b565b9061044e60018060a01b0387818754168551908d60405180968194829363d55a772d60e01b84528760048501528301906113a4565b03915afa91821561039d5761048f9489916000946104fd575b5061271091610478910151876114bc565b0491821515806104f2575b6104955750505061140c565b866103f1565b1690816000526004885260406000206104af8282546114cf565b90557fcb9f559e28915be49dcceef3fd0e6953281bdd4efe058dff26dd513ca503799e60406104dd8b611477565b92815190600082528b820152a38980806102ee565b508181161515610483565b6104789194509161051d61271093823d84116103965761038581836111e9565b94915091610467565b6103f6565b60405162461bcd60e51b8152600481018490526022818801527f446f206e6f742073656e642045544820666f72205553444320726f79616c7469604482015261657360f01b6064820152608490fd5b60405162461bcd60e51b815260048101859052601d818901527f4e6f20726f79616c7469657320666f7220746869732070726f6a6563740000006044820152606490fd5b346101965760406105d76105d13661126c565b916114dc565b82519182526020820152f35b3461019657600036600319011261019657602060405173833589fcd6edb6e08f4c7c32d4f71b54bda029138152f35b346101965760003660031901126101965760206040516127108152f35b34610196576020366003190112610196576004356001600160a01b038116908190036101965761065d6113e0565b6bffffffffffffffffffffffff60a01b6002541617600255600080f35b3461019657600036600319011261019657610693611635565b3360005260206003815260406000205490811561076657336000526003815260006040812055600080808085335af13d15610761573d6106d28161120a565b906106e060405192836111e9565b81526000833d92013e5b15610727576000906040519283528201527f6fe778711f06ca052305b633ba1b304f4d71c1523776f2aa3059d8d99f5420de60403392a260018055005b6064906040519062461bcd60e51b825260048201526013602482015272115512081d1c985b9cd9995c8819985a5b1959606a1b6044820152fd5b6106ea565b6064906040519062461bcd60e51b82526004820152601860248201527f4e6f2070656e64696e672045544820726f79616c7469657300000000000000006044820152fd5b34610196576000366003190112610196576000546040516001600160a01b039091168152602090f35b34610196576060366003190112610196576004356001600160401b03811161019657610803903690600401611225565b602435906001600160401b038211610196573660238301121561019657816004013561082e816113c9565b9261083c60405194856111e9565b8184526024602085019260051b820101903682116101965760248101925b828410610cbc5760443585876001600160401b03831161019657366023840112156101965782600401359261088e846113c9565b9361089c60405195866111e9565b8085526024602086019160051b8301019136831161019657602401905b828210610cac575050508051835103610c755760405160ff6002845192602081818801956108e88183896112a1565b81016005815203019020015416610c30576020610910916040518093819287519283916112a1565b810160058152030190209082516001600160401b038111610b125761093583546112c4565b601f8111610be8575b50806020601f8211600114610b8157600091610b76575b508160011b916000199060031b1c19161782555b60028201805460ff1916600117905560005b8151811015610b3e5761098e8183611431565b516109998287611431565b51604051916109a7836111ce565b82526020820152600184015468010000000000000000811015610b12578060016109da920160018701556001860161145b565b919091610b285780518051906001600160401b038211610b12576109fe84546112c4565b601f8111610ace575b50602090601f8311600114610a5a579282600193602093610a4a989796600092610a4f575b5050600019600383901b1c191690841b1784555b015191015561140c565b61097b565b015190508c80610a2c565b908460005260206000209160005b601f1985168110610ab6575083602093610a4a98979693600196938794601f19811610610a9d575b505050811b018455610a40565b015160001960f88460031b161c191690558c8080610a90565b91926020600181928685015181550194019201610a68565b846000526020600020601f840160051c810160208510610b0b575b601f830160051c82018110610aff575050610a07565b60008155600101610ae9565b5080610ae9565b634e487b7160e01b600052604160045260246000fd5b634e487b7160e01b600052600060045260246000fd5b81517f92da81cc62c0efa31ecf38ecbdd2fb28add3e9af1063dde557cb388d8f9b3ef26020610b6c87611477565b92604051908152a2005b905084015186610955565b91508360005260206000206000925b601f1983168410610bd0576001935082601f19811610610bb7575b5050811b018255610969565b86015160001960f88460031b161c191690558680610bab565b86810151825560209384019360019092019101610b90565b836000526020600020601f830160051c81019160208410610c26575b601f0160051c01905b818110610c1a575061093e565b60008155600101610c0d565b9091508190610c04565b60405162461bcd60e51b815260206004820152601c60248201527f526f79616c7469657320616c72656164792072656769737465726564000000006044820152606490fd5b60405162461bcd60e51b815260206004820152600f60248201526e098cadccee8d040dad2e6dac2e8c6d608b1b6044820152606490fd5b81358152602091820191016108b9565b83356001600160401b03811161019657602091610ce0839260243691870101611225565b81520193019261085a565b3461019657600036600319011261019657610d046113e0565b600080546001600160a01b0319811682556001600160a01b03167f8be0079c531659141344cd1fd0a4f28419497f9722a3daafe3b4186f6b6457e08280a3005b34610196576020366003190112610196576004356001600160a01b038116908190036101965760005260046020526020604060002054604051908152f35b3461019657602080600319360112610196576004356001600160401b03811161019657610db3903690600401611225565b9080610dc860405193848151938492016112a1565b820160058152828260019485930301902001805491610de6836113c9565b92610df460405194856111e9565b8084528184018093600052826000206000915b838310610e8957505050506040519384938285019083865251809152604085019260408260051b87010194936000905b838210610e445787870388f35b918496819592949698508190603f198b82030185528951908280610e7184516040855260408501906113a4565b93015191015298019201920187969593919492610e37565b966002858297989699610e9b85611497565b8152019201920191909693959496610e07565b34610196576020366003190112610196576004356001600160401b03811161019657610ef96020610ee6610f28933690600401611225565b81604051938285809451938492016112a1565b8101600581520301902060ff6002610f10836112fe565b920154166040519283926040845260408401906113a4565b90151560208301520390f35b346101965760003660031901126101965760206040516103e88152f35b3461019657600036600319011261019657610f6a611635565b3360005260206004815260406000205480156110985733600052600482526000604081205560405163a9059cbb60e01b81523360048201528160248201528281604481600060018060a01b037f0000000000000000000000000000000000000000000000000000000000000000165af190811561039d57600091611062575b50156110265760405191600083528201527f6fe778711f06ca052305b633ba1b304f4d71c1523776f2aa3059d8d99f5420de60403392a260018055005b60405162461bcd60e51b81526004810183905260146024820152731554d110c81d1c985b9cd9995c8819985a5b195960621b6044820152606490fd5b90508281813d8311611091575b61107981836111e9565b81010312610196575180151581036101965783610fe9565b503d61106f565b60405162461bcd60e51b815260048101839052601960248201527f4e6f2070656e64696e67205553444320726f79616c74696573000000000000006044820152606490fd5b34610196576020366003190112610196576004356001600160a01b038116908190036101965760005260036020526020604060002054604051908152f35b34610196576000366003190112610196576040517f00000000000000000000000000000000000000000000000000000000000000006001600160a01b03168152602090f35b346101965760206111796111733661126c565b91611597565b6040519015158152f35b34610196576020366003190112610196576004356001600160a01b03811691908290036101965760409160005260036020528160002054600460205282600020549082526020820152f35b604081019081106001600160401b03821117610b1257604052565b90601f801991011681019081106001600160401b03821117610b1257604052565b6001600160401b038111610b1257601f01601f191660200190565b81601f820112156101965780359061123c8261120a565b9261124a60405194856111e9565b8284526020838301011161019657816000926020809301838601378301015290565b606060031982011261019657600435906001600160401b0382116101965761129691600401611225565b906024359060443590565b60005b8381106112b45750506000910152565b81810151838201526020016112a4565b90600182811c921680156112f4575b60208310146112de57565b634e487b7160e01b600052602260045260246000fd5b91607f16916112d3565b9060405191826000825492611312846112c4565b908184526001948581169081600014611381575060011461133e575b505061133c925003836111e9565b565b9093915060005260209081600020936000915b81831061136957505061133c9350820101388061132e565b85548884018501529485019487945091830191611351565b91505061133c94506020925060ff191682840152151560051b820101388061132e565b906020916113bd815180928185528580860191016112a1565b601f01601f1916010190565b6001600160401b038111610b125760051b60200190565b6000546001600160a01b031633036113f457565b60405163118cdaa760e01b8152336004820152602490fd5b600019811461141b5760010190565b634e487b7160e01b600052601160045260246000fd5b80518210156114455760209160051b010190565b634e487b7160e01b600052603260045260246000fd5b80548210156114455760005260206000209060011b0190600090565b61148f906020604051928284809451938492016112a1565b810103902090565b906040516114a4816111ce565b6020600182946114b3816112fe565b84520154910152565b8181029291811591840414171561141b57565b9190820180921161141b57565b9291909260009160009460405183818095516114fe81602098898096016112a1565b810160058152030190209260ff60028501541615611588579190600160009401928354935b848610611534575050505050509190565b90919293949761157861157e91611569611569611570876115598f610279908a61145b565b019b8c612710948591518c6114bc565b04906114cf565b9a51896114bc565b9861140c565b9493929190611523565b50505050509050600090600090565b91909160ff600260405160208185516115b38183858a016112a1565b810160058152030190200154161561160e5781836115d0926114dc565b908315159384611603575b505081151591826115f8575b505081156115f3575090565b905090565b1015905038806115e7565b1015925038806115db565b505050600190565b9081602091031261019657516001600160a01b03811681036101965790565b600260015414611646576002600155565b604051633ee5aeb560e01b8152600490fdfea264697066735822122069665549c1fa4ade459b2e7f57d74dae162b8f599be04d9c854b640cdcd66a1064736f6c63430008140033","opcodes":"PUSH1 0xA0 CALLVALUE PUSH2 0xF2 JUMPI PUSH1 0x1F PUSH2 0x179C CODESIZE DUP2 SWAP1 SUB SWAP2 DUP3 ADD PUSH1 0x1F NOT AND DUP4 ADD SWAP2 PUSH1 0x1 PUSH1 0x1 PUSH1 0x40 SHL SUB DUP4 GT DUP5 DUP5 LT OR PUSH2 0xF7 JUMPI DUP1 DUP5 SWAP3 PUSH1 0x20 SWAP5 PUSH1 0x40 MSTORE DUP4 CODECOPY DUP2 ADD SUB SLT PUSH2 0xF2 JUMPI MLOAD PUSH1 0x1 PUSH1 0x1 PUSH1 0xA0 SHL SUB SWAP1 DUP2 DUP2 AND SWAP1 DUP2 SWAP1 SUB PUSH2 0xF2 JUMPI CALLER ISZERO PUSH2 0xD9 JUMPI PUSH1 0x0 SLOAD PUSH1 0x1 DUP1 PUSH1 0xA0 SHL SUB NOT SWAP1 CALLER DUP3 DUP3 AND OR PUSH1 0x0 SSTORE PUSH1 0x40 MLOAD SWAP4 CALLER SWAP2 AND PUSH32 0x8BE0079C531659141344CD1FD0A4F28419497F9722A3DAAFE3B4186F6B6457E0 PUSH1 0x0 DUP1 LOG3 PUSH1 0x1 DUP1 SSTORE PUSH20 0x833589FCD6EDB6E08F4C7C32D4F71B54BDA02913 PUSH1 0x80 MSTORE PUSH1 0x2 SLOAD AND OR PUSH1 0x2 SSTORE PUSH2 0x168E SWAP1 DUP2 PUSH2 0x10E DUP3 CODECOPY PUSH1 0x80 MLOAD DUP2 DUP2 DUP2 PUSH2 0xFB8 ADD MSTORE PUSH2 0x1131 ADD MSTORE RETURN JUMPDEST PUSH1 0x40 MLOAD PUSH4 0x1E4FBDF7 PUSH1 0xE0 SHL DUP2 MSTORE PUSH1 0x0 PUSH1 0x4 DUP3 ADD MSTORE PUSH1 0x24 SWAP1 REVERT JUMPDEST PUSH1 0x0 DUP1 REVERT JUMPDEST PUSH4 0x4E487B71 PUSH1 0xE0 SHL PUSH1 0x0 MSTORE PUSH1 0x41 PUSH1 0x4 MSTORE PUSH1 0x24 PUSH1 0x0 REVERT INVALID PUSH1 0x80 DUP1 PUSH1 0x40 MSTORE PUSH1 0x4 CALLDATASIZE LT ISZERO PUSH2 0x1D JUMPI JUMPDEST POP CALLDATASIZE ISZERO PUSH2 0x1B JUMPI PUSH1 0x0 DUP1 REVERT JUMPDEST STOP JUMPDEST PUSH1 0x0 CALLDATALOAD PUSH1 0xE0 SHR SWAP1 DUP2 PUSH4 0x24FA0D6 EQ PUSH2 0x1183 JUMPI POP DUP1 PUSH4 0x434D60C EQ PUSH2 0x1160 JUMPI DUP1 PUSH4 0x11EAC855 EQ PUSH2 0x111B JUMPI DUP1 PUSH4 0x141B5F02 EQ PUSH2 0x10DD JUMPI DUP1 PUSH4 0x1ED6C599 EQ PUSH2 0xF51 JUMPI DUP1 PUSH4 0x463B08DB EQ PUSH2 0xF34 JUMPI DUP1 PUSH4 0x4AA8A12D EQ PUSH2 0xEAE JUMPI DUP1 PUSH4 0x50FD8E71 EQ PUSH2 0xD82 JUMPI DUP1 PUSH4 0x5BF4B5C4 EQ PUSH2 0xD44 JUMPI DUP1 PUSH4 0x715018A6 EQ PUSH2 0xCEB JUMPI DUP1 PUSH4 0x74D3D93D EQ PUSH2 0x7D3 JUMPI DUP1 PUSH4 0x8DA5CB5B EQ PUSH2 0x7AA JUMPI DUP1 PUSH4 0x902509C2 EQ PUSH2 0x67A JUMPI DUP1 PUSH4 0x956456D9 EQ PUSH2 0x62F JUMPI DUP1 PUSH4 0xB3CD4254 EQ PUSH2 0x612 JUMPI DUP1 PUSH4 0xBB09D9B7 EQ PUSH2 0x5E3 JUMPI DUP1 PUSH4 0xBF704E66 EQ PUSH2 0x5BE JUMPI DUP1 PUSH4 0xC5787690 EQ PUSH2 0x1C4 JUMPI DUP1 PUSH4 0xCE0769C5 EQ PUSH2 0x19B JUMPI PUSH4 0xF2FDE38B EQ PUSH2 0x106 JUMPI CODESIZE PUSH2 0xF JUMP JUMPDEST CALLVALUE PUSH2 0x196 JUMPI PUSH1 0x20 CALLDATASIZE PUSH1 0x3 NOT ADD SLT PUSH2 0x196 JUMPI PUSH1 0x4 CALLDATALOAD PUSH1 0x1 PUSH1 0x1 PUSH1 0xA0 SHL SUB DUP2 DUP2 AND SWAP2 DUP3 SWAP1 SUB PUSH2 0x196 JUMPI PUSH2 0x135 PUSH2 0x13E0 JUMP JUMPDEST DUP2 ISZERO PUSH2 0x17D JUMPI PUSH1 0x0 SLOAD DUP3 PUSH12 0xFFFFFFFFFFFFFFFFFFFFFFFF PUSH1 0xA0 SHL DUP3 AND OR PUSH1 0x0 SSTORE AND PUSH32 0x8BE0079C531659141344CD1FD0A4F28419497F9722A3DAAFE3B4186F6B6457E0 PUSH1 0x0 DUP1 LOG3 STOP JUMPDEST PUSH1 0x40 MLOAD PUSH4 0x1E4FBDF7 PUSH1 0xE0 SHL DUP2 MSTORE PUSH1 0x0 PUSH1 0x4 DUP3 ADD MSTORE PUSH1 0x24 SWAP1 REVERT JUMPDEST PUSH1 0x0 DUP1 REVERT JUMPDEST CALLVALUE PUSH2 0x196 JUMPI PUSH1 0x0 CALLDATASIZE PUSH1 0x3 NOT ADD SLT PUSH2 0x196 JUMPI PUSH1 0x2 SLOAD PUSH1 0x40 MLOAD PUSH1 0x1 PUSH1 0x1 PUSH1 0xA0 SHL SUB SWAP1 SWAP2 AND DUP2 MSTORE PUSH1 0x20 SWAP1 RETURN JUMPDEST PUSH1 0x60 CALLDATASIZE PUSH1 0x3 NOT ADD SLT PUSH2 0x196 JUMPI PUSH1 0x4 CALLDATALOAD PUSH1 0x1 PUSH1 0x1 PUSH1 0x40 SHL SUB DUP2 GT PUSH2 0x196 JUMPI PUSH2 0x1EF SWAP1 CALLDATASIZE SWAP1 PUSH1 0x4 ADD PUSH2 0x1225 JUMP JUMPDEST PUSH1 0x24 SWAP1 DUP2 CALLDATALOAD SWAP1 PUSH1 0x44 CALLDATALOAD PUSH1 0x2 DUP1 DUP3 LT ISZERO PUSH2 0x196 JUMPI PUSH2 0x20A PUSH2 0x1635 JUMP JUMPDEST PUSH1 0x40 MLOAD SWAP2 DUP3 DUP5 MLOAD PUSH1 0x20 SWAP5 DUP2 PUSH2 0x223 DUP8 SWAP4 DUP4 DUP6 DUP12 ADD PUSH2 0x12A1 JUMP JUMPDEST DUP2 ADD PUSH1 0x5 DUP2 MSTORE SUB ADD SWAP1 KECCAK256 SWAP1 PUSH1 0xFF DUP4 DUP4 ADD SLOAD AND ISZERO PUSH2 0x57A JUMPI PUSH2 0x3E0 JUMPI CALLVALUE ISZERO PUSH2 0x3AE JUMPI PUSH1 0x1 SWAP5 SWAP1 DUP6 ADD SWAP1 PUSH1 0x0 DUP7 JUMPDEST PUSH2 0x263 JUMPI JUMPDEST POP POP POP POP POP POP POP POP JUMPDEST PUSH1 0x1 DUP1 SSTORE STOP JUMPDEST DUP3 SLOAD DUP2 LT ISZERO PUSH2 0x3A9 JUMPI PUSH2 0x27F PUSH2 0x279 DUP3 DUP6 PUSH2 0x145B JUMP JUMPDEST POP PUSH2 0x1497 JUMP JUMPDEST SWAP1 PUSH2 0x2B4 PUSH1 0x1 DUP1 PUSH1 0xA0 SHL SUB DUP8 DUP2 DUP9 SLOAD AND DUP6 MLOAD SWAP1 DUP14 PUSH1 0x40 MLOAD DUP1 SWAP7 DUP2 SWAP5 DUP3 SWAP4 PUSH4 0xD55A772D PUSH1 0xE0 SHL DUP5 MSTORE DUP8 PUSH1 0x4 DUP6 ADD MSTORE DUP4 ADD SWAP1 PUSH2 0x13A4 JUMP JUMPDEST SUB SWAP2 GAS STATICCALL SWAP2 DUP3 ISZERO PUSH2 0x39D JUMPI PUSH2 0x2F6 SWAP5 DUP10 SWAP2 PUSH1 0x0 SWAP5 PUSH2 0x364 JUMPI JUMPDEST POP PUSH2 0x2710 SWAP2 PUSH2 0x2DE SWAP2 ADD MLOAD DUP8 PUSH2 0x14BC JUMP JUMPDEST DIV SWAP2 DUP3 ISZERO ISZERO DUP1 PUSH2 0x359 JUMPI JUMPDEST PUSH2 0x2FC JUMPI JUMPDEST POP POP POP PUSH2 0x140C JUMP JUMPDEST DUP7 PUSH2 0x24F JUMP JUMPDEST AND SWAP1 DUP2 PUSH1 0x0 MSTORE PUSH1 0x3 DUP9 MSTORE PUSH1 0x40 PUSH1 0x0 KECCAK256 PUSH2 0x316 DUP3 DUP3 SLOAD PUSH2 0x14CF JUMP JUMPDEST SWAP1 SSTORE PUSH32 0xCB9F559E28915BE49DCCEEF3FD0E6953281BDD4EFE058DFF26DD513CA503799E PUSH1 0x40 PUSH2 0x344 DUP12 PUSH2 0x1477 JUMP JUMPDEST SWAP3 DUP2 MLOAD SWAP1 DUP2 MSTORE PUSH1 0x0 DUP12 DUP3 ADD MSTORE LOG3 DUP10 DUP1 DUP1 PUSH2 0x2EE JUMP JUMPDEST POP DUP2 DUP2 AND ISZERO ISZERO PUSH2 0x2E9 JUMP JUMPDEST PUSH2 0x2DE SWAP2 SWAP5 POP SWAP2 PUSH2 0x38D PUSH2 0x2710 SWAP4 DUP3 RETURNDATASIZE DUP5 GT PUSH2 0x396 JUMPI JUMPDEST PUSH2 0x385 DUP2 DUP4 PUSH2 0x11E9 JUMP JUMPDEST DUP2 ADD SWAP1 PUSH2 0x1616 JUMP JUMPDEST SWAP5 SWAP2 POP SWAP2 PUSH2 0x2CD JUMP JUMPDEST POP RETURNDATASIZE PUSH2 0x37B JUMP JUMPDEST PUSH1 0x40 MLOAD RETURNDATASIZE PUSH1 0x0 DUP3 RETURNDATACOPY RETURNDATASIZE SWAP1 REVERT JUMPDEST PUSH2 0x254 JUMP JUMPDEST PUSH1 0x40 MLOAD PUSH3 0x461BCD PUSH1 0xE5 SHL DUP2 MSTORE PUSH1 0x4 DUP2 ADD DUP5 SWAP1 MSTORE PUSH1 0xB DUP2 DUP9 ADD MSTORE PUSH11 0x139BC8115512081CD95B9D PUSH1 0xAA SHL PUSH1 0x44 DUP3 ADD MSTORE PUSH1 0x64 SWAP1 REVERT JUMPDEST SWAP1 CALLVALUE PUSH2 0x52B JUMPI PUSH1 0x1 SWAP5 SWAP2 DUP6 ADD SWAP2 PUSH1 0x0 DUP7 JUMPDEST PUSH2 0x403 JUMPI JUMPDEST POP POP POP POP POP POP POP POP PUSH2 0x25D JUMP JUMPDEST DUP4 SLOAD DUP2 LT ISZERO PUSH2 0x526 JUMPI PUSH2 0x419 PUSH2 0x279 DUP3 DUP7 PUSH2 0x145B JUMP JUMPDEST SWAP1 PUSH2 0x44E PUSH1 0x1 DUP1 PUSH1 0xA0 SHL SUB DUP8 DUP2 DUP8 SLOAD AND DUP6 MLOAD SWAP1 DUP14 PUSH1 0x40 MLOAD DUP1 SWAP7 DUP2 SWAP5 DUP3 SWAP4 PUSH4 0xD55A772D PUSH1 0xE0 SHL DUP5 MSTORE DUP8 PUSH1 0x4 DUP6 ADD MSTORE DUP4 ADD SWAP1 PUSH2 0x13A4 JUMP JUMPDEST SUB SWAP2 GAS STATICCALL SWAP2 DUP3 ISZERO PUSH2 0x39D JUMPI PUSH2 0x48F SWAP5 DUP10 SWAP2 PUSH1 0x0 SWAP5 PUSH2 0x4FD JUMPI JUMPDEST POP PUSH2 0x2710 SWAP2 PUSH2 0x478 SWAP2 ADD MLOAD DUP8 PUSH2 0x14BC JUMP JUMPDEST DIV SWAP2 DUP3 ISZERO ISZERO DUP1 PUSH2 0x4F2 JUMPI JUMPDEST PUSH2 0x495 JUMPI POP POP POP PUSH2 0x140C JUMP JUMPDEST DUP7 PUSH2 0x3F1 JUMP JUMPDEST AND SWAP1 DUP2 PUSH1 0x0 MSTORE PUSH1 0x4 DUP9 MSTORE PUSH1 0x40 PUSH1 0x0 KECCAK256 PUSH2 0x4AF DUP3 DUP3 SLOAD PUSH2 0x14CF JUMP JUMPDEST SWAP1 SSTORE PUSH32 0xCB9F559E28915BE49DCCEEF3FD0E6953281BDD4EFE058DFF26DD513CA503799E PUSH1 0x40 PUSH2 0x4DD DUP12 PUSH2 0x1477 JUMP JUMPDEST SWAP3 DUP2 MLOAD SWAP1 PUSH1 0x0 DUP3 MSTORE DUP12 DUP3 ADD MSTORE LOG3 DUP10 DUP1 DUP1 PUSH2 0x2EE JUMP JUMPDEST POP DUP2 DUP2 AND ISZERO ISZERO PUSH2 0x483 JUMP JUMPDEST PUSH2 0x478 SWAP2 SWAP5 POP SWAP2 PUSH2 0x51D PUSH2 0x2710 SWAP4 DUP3 RETURNDATASIZE DUP5 GT PUSH2 0x396 JUMPI PUSH2 0x385 DUP2 DUP4 PUSH2 0x11E9 JUMP JUMPDEST SWAP5 SWAP2 POP SWAP2 PUSH2 0x467 JUMP JUMPDEST PUSH2 0x3F6 JUMP JUMPDEST PUSH1 0x40 MLOAD PUSH3 0x461BCD PUSH1 0xE5 SHL DUP2 MSTORE PUSH1 0x4 DUP2 ADD DUP5 SWAP1 MSTORE PUSH1 0x22 DUP2 DUP9 ADD MSTORE PUSH32 0x446F206E6F742073656E642045544820666F72205553444320726F79616C7469 PUSH1 0x44 DUP3 ADD MSTORE PUSH2 0x6573 PUSH1 0xF0 SHL PUSH1 0x64 DUP3 ADD MSTORE PUSH1 0x84 SWAP1 REVERT JUMPDEST PUSH1 0x40 MLOAD PUSH3 0x461BCD PUSH1 0xE5 SHL DUP2 MSTORE PUSH1 0x4 DUP2 ADD DUP6 SWAP1 MSTORE PUSH1 0x1D DUP2 DUP10 ADD MSTORE PUSH32 0x4E6F20726F79616C7469657320666F7220746869732070726F6A656374000000 PUSH1 0x44 DUP3 ADD MSTORE PUSH1 0x64 SWAP1 REVERT JUMPDEST CALLVALUE PUSH2 0x196 JUMPI PUSH1 0x40 PUSH2 0x5D7 PUSH2 0x5D1 CALLDATASIZE PUSH2 0x126C JUMP JUMPDEST SWAP2 PUSH2 0x14DC JUMP JUMPDEST DUP3 MLOAD SWAP2 DUP3 MSTORE PUSH1 0x20 DUP3 ADD MSTORE RETURN JUMPDEST CALLVALUE PUSH2 0x196 JUMPI PUSH1 0x0 CALLDATASIZE PUSH1 0x3 NOT ADD SLT PUSH2 0x196 JUMPI PUSH1 0x20 PUSH1 0x40 MLOAD PUSH20 0x833589FCD6EDB6E08F4C7C32D4F71B54BDA02913 DUP2 MSTORE RETURN JUMPDEST CALLVALUE PUSH2 0x196 JUMPI PUSH1 0x0 CALLDATASIZE PUSH1 0x3 NOT ADD SLT PUSH2 0x196 JUMPI PUSH1 0x20 PUSH1 0x40 MLOAD PUSH2 0x2710 DUP2 MSTORE RETURN JUMPDEST CALLVALUE PUSH2 0x196 JUMPI PUSH1 0x20 CALLDATASIZE PUSH1 0x3 NOT ADD SLT PUSH2 0x196 JUMPI PUSH1 0x4 CALLDATALOAD PUSH1 0x1 PUSH1 0x1 PUSH1 0xA0 SHL SUB DUP2 AND SWAP1 DUP2 SWAP1 SUB PUSH2 0x196 JUMPI PUSH2 0x65D PUSH2 0x13E0 JUMP JUMPDEST PUSH12 0xFFFFFFFFFFFFFFFFFFFFFFFF PUSH1 0xA0 SHL PUSH1 0x2 SLOAD AND OR PUSH1 0x2 SSTORE PUSH1 0x0 DUP1 RETURN JUMPDEST CALLVALUE PUSH2 0x196 JUMPI PUSH1 0x0 CALLDATASIZE PUSH1 0x3 NOT ADD SLT PUSH2 0x196 JUMPI PUSH2 0x693 PUSH2 0x1635 JUMP JUMPDEST CALLER PUSH1 0x0 MSTORE PUSH1 0x20 PUSH1 0x3 DUP2 MSTORE PUSH1 0x40 PUSH1 0x0 KECCAK256 SLOAD SWAP1 DUP2 ISZERO PUSH2 0x766 JUMPI CALLER PUSH1 0x0 MSTORE PUSH1 0x3 DUP2 MSTORE PUSH1 0x0 PUSH1 0x40 DUP2 KECCAK256 SSTORE PUSH1 0x0 DUP1 DUP1 DUP1 DUP6 CALLER GAS CALL RETURNDATASIZE ISZERO PUSH2 0x761 JUMPI RETURNDATASIZE PUSH2 0x6D2 DUP2 PUSH2 0x120A JUMP JUMPDEST SWAP1 PUSH2 0x6E0 PUSH1 0x40 MLOAD SWAP3 DUP4 PUSH2 0x11E9 JUMP JUMPDEST DUP2 MSTORE PUSH1 0x0 DUP4 RETURNDATASIZE SWAP3 ADD RETURNDATACOPY JUMPDEST ISZERO PUSH2 0x727 JUMPI PUSH1 0x0 SWAP1 PUSH1 0x40 MLOAD SWAP3 DUP4 MSTORE DUP3 ADD MSTORE PUSH32 0x6FE778711F06CA052305B633BA1B304F4D71C1523776F2AA3059D8D99F5420DE PUSH1 0x40 CALLER SWAP3 LOG2 PUSH1 0x1 DUP1 SSTORE STOP JUMPDEST PUSH1 0x64 SWAP1 PUSH1 0x40 MLOAD SWAP1 PUSH3 0x461BCD PUSH1 0xE5 SHL DUP3 MSTORE PUSH1 0x4 DUP3 ADD MSTORE PUSH1 0x13 PUSH1 0x24 DUP3 ADD MSTORE PUSH19 0x115512081D1C985B9CD9995C8819985A5B1959 PUSH1 0x6A SHL PUSH1 0x44 DUP3 ADD MSTORE REVERT JUMPDEST PUSH2 0x6EA JUMP JUMPDEST PUSH1 0x64 SWAP1 PUSH1 0x40 MLOAD SWAP1 PUSH3 0x461BCD PUSH1 0xE5 SHL DUP3 MSTORE PUSH1 0x4 DUP3 ADD MSTORE PUSH1 0x18 PUSH1 0x24 DUP3 ADD MSTORE PUSH32 0x4E6F2070656E64696E672045544820726F79616C746965730000000000000000 PUSH1 0x44 DUP3 ADD MSTORE REVERT JUMPDEST CALLVALUE PUSH2 0x196 JUMPI PUSH1 0x0 CALLDATASIZE PUSH1 0x3 NOT ADD SLT PUSH2 0x196 JUMPI PUSH1 0x0 SLOAD PUSH1 0x40 MLOAD PUSH1 0x1 PUSH1 0x1 PUSH1 0xA0 SHL SUB SWAP1 SWAP2 AND DUP2 MSTORE PUSH1 0x20 SWAP1 RETURN JUMPDEST CALLVALUE PUSH2 0x196 JUMPI PUSH1 0x60 CALLDATASIZE PUSH1 0x3 NOT ADD SLT PUSH2 0x196 JUMPI PUSH1 0x4 CALLDATALOAD PUSH1 0x1 PUSH1 0x1 PUSH1 0x40 SHL SUB DUP2 GT PUSH2 0x196 JUMPI PUSH2 0x803 SWAP1 CALLDATASIZE SWAP1 PUSH1 0x4 ADD PUSH2 0x1225 JUMP JUMPDEST PUSH1 0x24 CALLDATALOAD SWAP1 PUSH1 0x1 PUSH1 0x1 PUSH1 0x40 SHL SUB DUP3 GT PUSH2 0x196 JUMPI CALLDATASIZE PUSH1 0x23 DUP4 ADD SLT ISZERO PUSH2 0x196 JUMPI DUP2 PUSH1 0x4 ADD CALLDATALOAD PUSH2 0x82E DUP2 PUSH2 0x13C9 JUMP JUMPDEST SWAP3 PUSH2 0x83C PUSH1 0x40 MLOAD SWAP5 DUP6 PUSH2 0x11E9 JUMP JUMPDEST DUP2 DUP5 MSTORE PUSH1 0x24 PUSH1 0x20 DUP6 ADD SWAP3 PUSH1 0x5 SHL DUP3 ADD ADD SWAP1 CALLDATASIZE DUP3 GT PUSH2 0x196 JUMPI PUSH1 0x24 DUP2 ADD SWAP3 JUMPDEST DUP3 DUP5 LT PUSH2 0xCBC JUMPI PUSH1 0x44 CALLDATALOAD DUP6 DUP8 PUSH1 0x1 PUSH1 0x1 PUSH1 0x40 SHL SUB DUP4 GT PUSH2 0x196 JUMPI CALLDATASIZE PUSH1 0x23 DUP5 ADD SLT ISZERO PUSH2 0x196 JUMPI DUP3 PUSH1 0x4 ADD CALLDATALOAD SWAP3 PUSH2 0x88E DUP5 PUSH2 0x13C9 JUMP JUMPDEST SWAP4 PUSH2 0x89C PUSH1 0x40 MLOAD SWAP6 DUP7 PUSH2 0x11E9 JUMP JUMPDEST DUP1 DUP6 MSTORE PUSH1 0x24 PUSH1 0x20 DUP7 ADD SWAP2 PUSH1 0x5 SHL DUP4 ADD ADD SWAP2 CALLDATASIZE DUP4 GT PUSH2 0x196 JUMPI PUSH1 0x24 ADD SWAP1 JUMPDEST DUP3 DUP3 LT PUSH2 0xCAC JUMPI POP POP POP DUP1 MLOAD DUP4 MLOAD SUB PUSH2 0xC75 JUMPI PUSH1 0x40 MLOAD PUSH1 0xFF PUSH1 0x2 DUP5 MLOAD SWAP3 PUSH1 0x20 DUP2 DUP2 DUP9 ADD SWAP6 PUSH2 0x8E8 DUP2 DUP4 DUP10 PUSH2 0x12A1 JUMP JUMPDEST DUP2 ADD PUSH1 0x5 DUP2 MSTORE SUB ADD SWAP1 KECCAK256 ADD SLOAD AND PUSH2 0xC30 JUMPI PUSH1 0x20 PUSH2 0x910 SWAP2 PUSH1 0x40 MLOAD DUP1 SWAP4 DUP2 SWAP3 DUP8 MLOAD SWAP3 DUP4 SWAP2 PUSH2 0x12A1 JUMP JUMPDEST DUP2 ADD PUSH1 0x5 DUP2 MSTORE SUB ADD SWAP1 KECCAK256 SWAP1 DUP3 MLOAD PUSH1 0x1 PUSH1 0x1 PUSH1 0x40 SHL SUB DUP2 GT PUSH2 0xB12 JUMPI PUSH2 0x935 DUP4 SLOAD PUSH2 0x12C4 JUMP JUMPDEST PUSH1 0x1F DUP2 GT PUSH2 0xBE8 JUMPI JUMPDEST POP DUP1 PUSH1 0x20 PUSH1 0x1F DUP3 GT PUSH1 0x1 EQ PUSH2 0xB81 JUMPI PUSH1 0x0 SWAP2 PUSH2 0xB76 JUMPI JUMPDEST POP DUP2 PUSH1 0x1 SHL SWAP2 PUSH1 0x0 NOT SWAP1 PUSH1 0x3 SHL SHR NOT AND OR DUP3 SSTORE JUMPDEST PUSH1 0x2 DUP3 ADD DUP1 SLOAD PUSH1 0xFF NOT AND PUSH1 0x1 OR SWAP1 SSTORE PUSH1 0x0 JUMPDEST DUP2 MLOAD DUP2 LT ISZERO PUSH2 0xB3E JUMPI PUSH2 0x98E DUP2 DUP4 PUSH2 0x1431 JUMP JUMPDEST MLOAD PUSH2 0x999 DUP3 DUP8 PUSH2 0x1431 JUMP JUMPDEST MLOAD PUSH1 0x40 MLOAD SWAP2 PUSH2 0x9A7 DUP4 PUSH2 0x11CE JUMP JUMPDEST DUP3 MSTORE PUSH1 0x20 DUP3 ADD MSTORE PUSH1 0x1 DUP5 ADD SLOAD PUSH9 0x10000000000000000 DUP2 LT ISZERO PUSH2 0xB12 JUMPI DUP1 PUSH1 0x1 PUSH2 0x9DA SWAP3 ADD PUSH1 0x1 DUP8 ADD SSTORE PUSH1 0x1 DUP7 ADD PUSH2 0x145B JUMP JUMPDEST SWAP2 SWAP1 SWAP2 PUSH2 0xB28 JUMPI DUP1 MLOAD DUP1 MLOAD SWAP1 PUSH1 0x1 PUSH1 0x1 PUSH1 0x40 SHL SUB DUP3 GT PUSH2 0xB12 JUMPI PUSH2 0x9FE DUP5 SLOAD PUSH2 0x12C4 JUMP JUMPDEST PUSH1 0x1F DUP2 GT PUSH2 0xACE JUMPI JUMPDEST POP PUSH1 0x20 SWAP1 PUSH1 0x1F DUP4 GT PUSH1 0x1 EQ PUSH2 0xA5A JUMPI SWAP3 DUP3 PUSH1 0x1 SWAP4 PUSH1 0x20 SWAP4 PUSH2 0xA4A SWAP9 SWAP8 SWAP7 PUSH1 0x0 SWAP3 PUSH2 0xA4F JUMPI JUMPDEST POP POP PUSH1 0x0 NOT PUSH1 0x3 DUP4 SWAP1 SHL SHR NOT AND SWAP1 DUP5 SHL OR DUP5 SSTORE JUMPDEST ADD MLOAD SWAP2 ADD SSTORE PUSH2 0x140C JUMP JUMPDEST PUSH2 0x97B JUMP JUMPDEST ADD MLOAD SWAP1 POP DUP13 DUP1 PUSH2 0xA2C JUMP JUMPDEST SWAP1 DUP5 PUSH1 0x0 MSTORE PUSH1 0x20 PUSH1 0x0 KECCAK256 SWAP2 PUSH1 0x0 JUMPDEST PUSH1 0x1F NOT DUP6 AND DUP2 LT PUSH2 0xAB6 JUMPI POP DUP4 PUSH1 0x20 SWAP4 PUSH2 0xA4A SWAP9 SWAP8 SWAP7 SWAP4 PUSH1 0x1 SWAP7 SWAP4 DUP8 SWAP5 PUSH1 0x1F NOT DUP2 AND LT PUSH2 0xA9D JUMPI JUMPDEST POP POP POP DUP2 SHL ADD DUP5 SSTORE PUSH2 0xA40 JUMP JUMPDEST ADD MLOAD PUSH1 0x0 NOT PUSH1 0xF8 DUP5 PUSH1 0x3 SHL AND SHR NOT AND SWAP1 SSTORE DUP13 DUP1 DUP1 PUSH2 0xA90 JUMP JUMPDEST SWAP2 SWAP3 PUSH1 0x20 PUSH1 0x1 DUP2 SWAP3 DUP7 DUP6 ADD MLOAD DUP2 SSTORE ADD SWAP5 ADD SWAP3 ADD PUSH2 0xA68 JUMP JUMPDEST DUP5 PUSH1 0x0 MSTORE PUSH1 0x20 PUSH1 0x0 KECCAK256 PUSH1 0x1F DUP5 ADD PUSH1 0x5 SHR DUP2 ADD PUSH1 0x20 DUP6 LT PUSH2 0xB0B JUMPI JUMPDEST PUSH1 0x1F DUP4 ADD PUSH1 0x5 SHR DUP3 ADD DUP2 LT PUSH2 0xAFF JUMPI POP POP PUSH2 0xA07 JUMP JUMPDEST PUSH1 0x0 DUP2 SSTORE PUSH1 0x1 ADD PUSH2 0xAE9 JUMP JUMPDEST POP DUP1 PUSH2 0xAE9 JUMP JUMPDEST PUSH4 0x4E487B71 PUSH1 0xE0 SHL PUSH1 0x0 MSTORE PUSH1 0x41 PUSH1 0x4 MSTORE PUSH1 0x24 PUSH1 0x0 REVERT JUMPDEST PUSH4 0x4E487B71 PUSH1 0xE0 SHL PUSH1 0x0 MSTORE PUSH1 0x0 PUSH1 0x4 MSTORE PUSH1 0x24 PUSH1 0x0 REVERT JUMPDEST DUP2 MLOAD PUSH32 0x92DA81CC62C0EFA31ECF38ECBDD2FB28ADD3E9AF1063DDE557CB388D8F9B3EF2 PUSH1 0x20 PUSH2 0xB6C DUP8 PUSH2 0x1477 JUMP JUMPDEST SWAP3 PUSH1 0x40 MLOAD SWAP1 DUP2 MSTORE LOG2 STOP JUMPDEST SWAP1 POP DUP5 ADD MLOAD DUP7 PUSH2 0x955 JUMP JUMPDEST SWAP2 POP DUP4 PUSH1 0x0 MSTORE PUSH1 0x20 PUSH1 0x0 KECCAK256 PUSH1 0x0 SWAP3 JUMPDEST PUSH1 0x1F NOT DUP4 AND DUP5 LT PUSH2 0xBD0 JUMPI PUSH1 0x1 SWAP4 POP DUP3 PUSH1 0x1F NOT DUP2 AND LT PUSH2 0xBB7 JUMPI JUMPDEST POP POP DUP2 SHL ADD DUP3 SSTORE PUSH2 0x969 JUMP JUMPDEST DUP7 ADD MLOAD PUSH1 0x0 NOT PUSH1 0xF8 DUP5 PUSH1 0x3 SHL AND SHR NOT AND SWAP1 SSTORE DUP7 DUP1 PUSH2 0xBAB JUMP JUMPDEST DUP7 DUP2 ADD MLOAD DUP3 SSTORE PUSH1 0x20 SWAP4 DUP5 ADD SWAP4 PUSH1 0x1 SWAP1 SWAP3 ADD SWAP2 ADD PUSH2 0xB90 JUMP JUMPDEST DUP4 PUSH1 0x0 MSTORE PUSH1 0x20 PUSH1 0x0 KECCAK256 PUSH1 0x1F DUP4 ADD PUSH1 0x5 SHR DUP2 ADD SWAP2 PUSH1 0x20 DUP5 LT PUSH2 0xC26 JUMPI JUMPDEST PUSH1 0x1F ADD PUSH1 0x5 SHR ADD SWAP1 JUMPDEST DUP2 DUP2 LT PUSH2 0xC1A JUMPI POP PUSH2 0x93E JUMP JUMPDEST PUSH1 0x0 DUP2 SSTORE PUSH1 0x1 ADD PUSH2 0xC0D JUMP JUMPDEST SWAP1 SWAP2 POP DUP2 SWAP1 PUSH2 0xC04 JUMP JUMPDEST PUSH1 0x40 MLOAD PUSH3 0x461BCD PUSH1 0xE5 SHL DUP2 MSTORE PUSH1 0x20 PUSH1 0x4 DUP3 ADD MSTORE PUSH1 0x1C PUSH1 0x24 DUP3 ADD MSTORE PUSH32 0x526F79616C7469657320616C7265616479207265676973746572656400000000 PUSH1 0x44 DUP3 ADD MSTORE PUSH1 0x64 SWAP1 REVERT JUMPDEST PUSH1 0x40 MLOAD PUSH3 0x461BCD PUSH1 0xE5 SHL DUP2 MSTORE PUSH1 0x20 PUSH1 0x4 DUP3 ADD MSTORE PUSH1 0xF PUSH1 0x24 DUP3 ADD MSTORE PUSH15 0x98CADCCEE8D040DAD2E6DAC2E8C6D PUSH1 0x8B SHL PUSH1 0x44 DUP3 ADD MSTORE PUSH1 0x64 SWAP1 REVERT JUMPDEST DUP2 CALLDATALOAD DUP2 MSTORE PUSH1 0x20 SWAP2 DUP3 ADD SWAP2 ADD PUSH2 0x8B9 JUMP JUMPDEST DUP4 CALLDATALOAD PUSH1 0x1 PUSH1 0x1 PUSH1 0x40 SHL SUB DUP2 GT PUSH2 0x196 JUMPI PUSH1 0x20 SWAP2 PUSH2 0xCE0 DUP4 SWAP3 PUSH1 0x24 CALLDATASIZE SWAP2 DUP8 ADD ADD PUSH2 0x1225 JUMP JUMPDEST DUP2 MSTORE ADD SWAP4 ADD SWAP3 PUSH2 0x85A JUMP JUMPDEST CALLVALUE PUSH2 0x196 JUMPI PUSH1 0x0 CALLDATASIZE PUSH1 0x3 NOT ADD SLT PUSH2 0x196 JUMPI PUSH2 0xD04 PUSH2 0x13E0 JUMP JUMPDEST PUSH1 0x0 DUP1 SLOAD PUSH1 0x1 PUSH1 0x1 PUSH1 0xA0 SHL SUB NOT DUP2 AND DUP3 SSTORE PUSH1 0x1 PUSH1 0x1 PUSH1 0xA0 SHL SUB AND PUSH32 0x8BE0079C531659141344CD1FD0A4F28419497F9722A3DAAFE3B4186F6B6457E0 DUP3 DUP1 LOG3 STOP JUMPDEST CALLVALUE PUSH2 0x196 JUMPI PUSH1 0x20 CALLDATASIZE PUSH1 0x3 NOT ADD SLT PUSH2 0x196 JUMPI PUSH1 0x4 CALLDATALOAD PUSH1 0x1 PUSH1 0x1 PUSH1 0xA0 SHL SUB DUP2 AND SWAP1 DUP2 SWAP1 SUB PUSH2 0x196 JUMPI PUSH1 0x0 MSTORE PUSH1 0x4 PUSH1 0x20 MSTORE PUSH1 0x20 PUSH1 0x40 PUSH1 0x0 KECCAK256 SLOAD PUSH1 0x40 MLOAD SWAP1 DUP2 MSTORE RETURN JUMPDEST CALLVALUE PUSH2 0x196 JUMPI PUSH1 0x20 DUP1 PUSH1 0x3 NOT CALLDATASIZE ADD SLT PUSH2 0x196 JUMPI PUSH1 0x4 CALLDATALOAD PUSH1 0x1 PUSH1 0x1 PUSH1 0x40 SHL SUB DUP2 GT PUSH2 0x196 JUMPI PUSH2 0xDB3 SWAP1 CALLDATASIZE SWAP1 PUSH1 0x4 ADD PUSH2 0x1225 JUMP JUMPDEST SWAP1 DUP1 PUSH2 0xDC8 PUSH1 0x40 MLOAD SWAP4 DUP5 DUP2 MLOAD SWAP4 DUP5 SWAP3 ADD PUSH2 0x12A1 JUMP JUMPDEST DUP3 ADD PUSH1 0x5 DUP2 MSTORE DUP3 DUP3 PUSH1 0x1 SWAP5 DUP6 SWAP4 SUB ADD SWAP1 KECCAK256 ADD DUP1 SLOAD SWAP2 PUSH2 0xDE6 DUP4 PUSH2 0x13C9 JUMP JUMPDEST SWAP3 PUSH2 0xDF4 PUSH1 0x40 MLOAD SWAP5 DUP6 PUSH2 0x11E9 JUMP JUMPDEST DUP1 DUP5 MSTORE DUP2 DUP5 ADD DUP1 SWAP4 PUSH1 0x0 MSTORE DUP3 PUSH1 0x0 KECCAK256 PUSH1 0x0 SWAP2 JUMPDEST DUP4 DUP4 LT PUSH2 0xE89 JUMPI POP POP POP POP PUSH1 0x40 MLOAD SWAP4 DUP5 SWAP4 DUP3 DUP6 ADD SWAP1 DUP4 DUP7 MSTORE MLOAD DUP1 SWAP2 MSTORE PUSH1 0x40 DUP6 ADD SWAP3 PUSH1 0x40 DUP3 PUSH1 0x5 SHL DUP8 ADD ADD SWAP5 SWAP4 PUSH1 0x0 SWAP1 JUMPDEST DUP4 DUP3 LT PUSH2 0xE44 JUMPI DUP8 DUP8 SUB DUP9 RETURN JUMPDEST SWAP2 DUP5 SWAP7 DUP2 SWAP6 SWAP3 SWAP5 SWAP7 SWAP9 POP DUP2 SWAP1 PUSH1 0x3F NOT DUP12 DUP3 SUB ADD DUP6 MSTORE DUP10 MLOAD SWAP1 DUP3 DUP1 PUSH2 0xE71 DUP5 MLOAD PUSH1 0x40 DUP6 MSTORE PUSH1 0x40 DUP6 ADD SWAP1 PUSH2 0x13A4 JUMP JUMPDEST SWAP4 ADD MLOAD SWAP2 ADD MSTORE SWAP9 ADD SWAP3 ADD SWAP3 ADD DUP8 SWAP7 SWAP6 SWAP4 SWAP2 SWAP5 SWAP3 PUSH2 0xE37 JUMP JUMPDEST SWAP7 PUSH1 0x2 DUP6 DUP3 SWAP8 SWAP9 SWAP7 SWAP10 PUSH2 0xE9B DUP6 PUSH2 0x1497 JUMP JUMPDEST DUP2 MSTORE ADD SWAP3 ADD SWAP3 ADD SWAP2 SWAP1 SWAP7 SWAP4 SWAP6 SWAP5 SWAP7 PUSH2 0xE07 JUMP JUMPDEST CALLVALUE PUSH2 0x196 JUMPI PUSH1 0x20 CALLDATASIZE PUSH1 0x3 NOT ADD SLT PUSH2 0x196 JUMPI PUSH1 0x4 CALLDATALOAD PUSH1 0x1 PUSH1 0x1 PUSH1 0x40 SHL SUB DUP2 GT PUSH2 0x196 JUMPI PUSH2 0xEF9 PUSH1 0x20 PUSH2 0xEE6 PUSH2 0xF28 SWAP4 CALLDATASIZE SWAP1 PUSH1 0x4 ADD PUSH2 0x1225 JUMP JUMPDEST DUP2 PUSH1 0x40 MLOAD SWAP4 DUP3 DUP6 DUP1 SWAP5 MLOAD SWAP4 DUP5 SWAP3 ADD PUSH2 0x12A1 JUMP JUMPDEST DUP2 ADD PUSH1 0x5 DUP2 MSTORE SUB ADD SWAP1 KECCAK256 PUSH1 0xFF PUSH1 0x2 PUSH2 0xF10 DUP4 PUSH2 0x12FE JUMP JUMPDEST SWAP3 ADD SLOAD AND PUSH1 0x40 MLOAD SWAP3 DUP4 SWAP3 PUSH1 0x40 DUP5 MSTORE PUSH1 0x40 DUP5 ADD SWAP1 PUSH2 0x13A4 JUMP JUMPDEST SWAP1 ISZERO ISZERO PUSH1 0x20 DUP4 ADD MSTORE SUB SWAP1 RETURN JUMPDEST CALLVALUE PUSH2 0x196 JUMPI PUSH1 0x0 CALLDATASIZE PUSH1 0x3 NOT ADD SLT PUSH2 0x196 JUMPI PUSH1 0x20 PUSH1 0x40 MLOAD PUSH2 0x3E8 DUP2 MSTORE RETURN JUMPDEST CALLVALUE PUSH2 0x196 JUMPI PUSH1 0x0 CALLDATASIZE PUSH1 0x3 NOT ADD SLT PUSH2 0x196 JUMPI PUSH2 0xF6A PUSH2 0x1635 JUMP JUMPDEST CALLER PUSH1 0x0 MSTORE PUSH1 0x20 PUSH1 0x4 DUP2 MSTORE PUSH1 0x40 PUSH1 0x0 KECCAK256 SLOAD DUP1 ISZERO PUSH2 0x1098 JUMPI CALLER PUSH1 0x0 MSTORE PUSH1 0x4 DUP3 MSTORE PUSH1 0x0 PUSH1 0x40 DUP2 KECCAK256 SSTORE PUSH1 0x40 MLOAD PUSH4 0xA9059CBB PUSH1 0xE0 SHL DUP2 MSTORE CALLER PUSH1 0x4 DUP3 ADD MSTORE DUP2 PUSH1 0x24 DUP3 ADD MSTORE DUP3 DUP2 PUSH1 0x44 DUP2 PUSH1 0x0 PUSH1 0x1 DUP1 PUSH1 0xA0 SHL SUB PUSH32 0x0 AND GAS CALL SWAP1 DUP2 ISZERO PUSH2 0x39D JUMPI PUSH1 0x0 SWAP2 PUSH2 0x1062 JUMPI JUMPDEST POP ISZERO PUSH2 0x1026 JUMPI PUSH1 0x40 MLOAD SWAP2 PUSH1 0x0 DUP4 MSTORE DUP3 ADD MSTORE PUSH32 0x6FE778711F06CA052305B633BA1B304F4D71C1523776F2AA3059D8D99F5420DE PUSH1 0x40 CALLER SWAP3 LOG2 PUSH1 0x1 DUP1 SSTORE STOP JUMPDEST PUSH1 0x40 MLOAD PUSH3 0x461BCD PUSH1 0xE5 SHL DUP2 MSTORE PUSH1 0x4 DUP2 ADD DUP4 SWAP1 MSTORE PUSH1 0x14 PUSH1 0x24 DUP3 ADD MSTORE PUSH20 0x1554D110C81D1C985B9CD9995C8819985A5B1959 PUSH1 0x62 SHL PUSH1 0x44 DUP3 ADD MSTORE PUSH1 0x64 SWAP1 REVERT JUMPDEST SWAP1 POP DUP3 DUP2 DUP2 RETURNDATASIZE DUP4 GT PUSH2 0x1091 JUMPI JUMPDEST PUSH2 0x1079 DUP2 DUP4 PUSH2 0x11E9 JUMP JUMPDEST DUP2 ADD SUB SLT PUSH2 0x196 JUMPI MLOAD DUP1 ISZERO ISZERO DUP2 SUB PUSH2 0x196 JUMPI DUP4 PUSH2 0xFE9 JUMP JUMPDEST POP RETURNDATASIZE PUSH2 0x106F JUMP JUMPDEST PUSH1 0x40 MLOAD PUSH3 0x461BCD PUSH1 0xE5 SHL DUP2 MSTORE PUSH1 0x4 DUP2 ADD DUP4 SWAP1 MSTORE PUSH1 0x19 PUSH1 0x24 DUP3 ADD MSTORE PUSH32 0x4E6F2070656E64696E67205553444320726F79616C7469657300000000000000 PUSH1 0x44 DUP3 ADD MSTORE PUSH1 0x64 SWAP1 REVERT JUMPDEST CALLVALUE PUSH2 0x196 JUMPI PUSH1 0x20 CALLDATASIZE PUSH1 0x3 NOT ADD SLT PUSH2 0x196 JUMPI PUSH1 0x4 CALLDATALOAD PUSH1 0x1 PUSH1 0x1 PUSH1 0xA0 SHL SUB DUP2 AND SWAP1 DUP2 SWAP1 SUB PUSH2 0x196 JUMPI PUSH1 0x0 MSTORE PUSH1 0x3 PUSH1 0x20 MSTORE PUSH1 0x20 PUSH1 0x40 PUSH1 0x0 KECCAK256 SLOAD PUSH1 0x40 MLOAD SWAP1 DUP2 MSTORE RETURN JUMPDEST CALLVALUE PUSH2 0x196 JUMPI PUSH1 0x0 CALLDATASIZE PUSH1 0x3 NOT ADD SLT PUSH2 0x196 JUMPI PUSH1 0x40 MLOAD PUSH32 0x0 PUSH1 0x1 PUSH1 0x1 PUSH1 0xA0 SHL SUB AND DUP2 MSTORE PUSH1 0x20 SWAP1 RETURN JUMPDEST CALLVALUE PUSH2 0x196 JUMPI PUSH1 0x20 PUSH2 0x1179 PUSH2 0x1173 CALLDATASIZE PUSH2 0x126C JUMP JUMPDEST SWAP2 PUSH2 0x1597 JUMP JUMPDEST PUSH1 0x40 MLOAD SWAP1 ISZERO ISZERO DUP2 MSTORE RETURN JUMPDEST CALLVALUE PUSH2 0x196 JUMPI PUSH1 0x20 CALLDATASIZE PUSH1 0x3 NOT ADD SLT PUSH2 0x196 JUMPI PUSH1 0x4 CALLDATALOAD PUSH1 0x1 PUSH1 0x1 PUSH1 0xA0 SHL SUB DUP2 AND SWAP2 SWAP1 DUP3 SWAP1 SUB PUSH2 0x196 JUMPI PUSH1 0x40 SWAP2 PUSH1 0x0 MSTORE PUSH1 0x3 PUSH1 0x20 MSTORE DUP2 PUSH1 0x0 KECCAK256 SLOAD PUSH1 0x4 PUSH1 0x20 MSTORE DUP3 PUSH1 0x0 KECCAK256 SLOAD SWAP1 DUP3 MSTORE PUSH1 0x20 DUP3 ADD MSTORE RETURN JUMPDEST PUSH1 0x40 DUP2 ADD SWAP1 DUP2 LT PUSH1 0x1 PUSH1 0x1 PUSH1 0x40 SHL SUB DUP3 GT OR PUSH2 0xB12 JUMPI PUSH1 0x40 MSTORE JUMP JUMPDEST SWAP1 PUSH1 0x1F DUP1 NOT SWAP2 ADD AND DUP2 ADD SWAP1 DUP2 LT PUSH1 0x1 PUSH1 0x1 PUSH1 0x40 SHL SUB DUP3 GT OR PUSH2 0xB12 JUMPI PUSH1 0x40 MSTORE JUMP JUMPDEST PUSH1 0x1 PUSH1 0x1 PUSH1 0x40 SHL SUB DUP2 GT PUSH2 0xB12 JUMPI PUSH1 0x1F ADD PUSH1 0x1F NOT AND PUSH1 0x20 ADD SWAP1 JUMP JUMPDEST DUP2 PUSH1 0x1F DUP3 ADD SLT ISZERO PUSH2 0x196 JUMPI DUP1 CALLDATALOAD SWAP1 PUSH2 0x123C DUP3 PUSH2 0x120A JUMP JUMPDEST SWAP3 PUSH2 0x124A PUSH1 0x40 MLOAD SWAP5 DUP6 PUSH2 0x11E9 JUMP JUMPDEST DUP3 DUP5 MSTORE PUSH1 0x20 DUP4 DUP4 ADD ADD GT PUSH2 0x196 JUMPI DUP2 PUSH1 0x0 SWAP3 PUSH1 0x20 DUP1 SWAP4 ADD DUP4 DUP7 ADD CALLDATACOPY DUP4 ADD ADD MSTORE SWAP1 JUMP JUMPDEST PUSH1 0x60 PUSH1 0x3 NOT DUP3 ADD SLT PUSH2 0x196 JUMPI PUSH1 0x4 CALLDATALOAD SWAP1 PUSH1 0x1 PUSH1 0x1 PUSH1 0x40 SHL SUB DUP3 GT PUSH2 0x196 JUMPI PUSH2 0x1296 SWAP2 PUSH1 0x4 ADD PUSH2 0x1225 JUMP JUMPDEST SWAP1 PUSH1 0x24 CALLDATALOAD SWAP1 PUSH1 0x44 CALLDATALOAD SWAP1 JUMP JUMPDEST PUSH1 0x0 JUMPDEST DUP4 DUP2 LT PUSH2 0x12B4 JUMPI POP POP PUSH1 0x0 SWAP2 ADD MSTORE JUMP JUMPDEST DUP2 DUP2 ADD MLOAD DUP4 DUP3 ADD MSTORE PUSH1 0x20 ADD PUSH2 0x12A4 JUMP JUMPDEST SWAP1 PUSH1 0x1 DUP3 DUP2 SHR SWAP3 AND DUP1 ISZERO PUSH2 0x12F4 JUMPI JUMPDEST PUSH1 0x20 DUP4 LT EQ PUSH2 0x12DE JUMPI JUMP JUMPDEST PUSH4 0x4E487B71 PUSH1 0xE0 SHL PUSH1 0x0 MSTORE PUSH1 0x22 PUSH1 0x4 MSTORE PUSH1 0x24 PUSH1 0x0 REVERT JUMPDEST SWAP2 PUSH1 0x7F AND SWAP2 PUSH2 0x12D3 JUMP JUMPDEST SWAP1 PUSH1 0x40 MLOAD SWAP2 DUP3 PUSH1 0x0 DUP3 SLOAD SWAP3 PUSH2 0x1312 DUP5 PUSH2 0x12C4 JUMP JUMPDEST SWAP1 DUP2 DUP5 MSTORE PUSH1 0x1 SWAP5 DUP6 DUP2 AND SWAP1 DUP2 PUSH1 0x0 EQ PUSH2 0x1381 JUMPI POP PUSH1 0x1 EQ PUSH2 0x133E JUMPI JUMPDEST POP POP PUSH2 0x133C SWAP3 POP SUB DUP4 PUSH2 0x11E9 JUMP JUMPDEST JUMP JUMPDEST SWAP1 SWAP4 SWAP2 POP PUSH1 0x0 MSTORE PUSH1 0x20 SWAP1 DUP2 PUSH1 0x0 KECCAK256 SWAP4 PUSH1 0x0 SWAP2 JUMPDEST DUP2 DUP4 LT PUSH2 0x1369 JUMPI POP POP PUSH2 0x133C SWAP4 POP DUP3 ADD ADD CODESIZE DUP1 PUSH2 0x132E JUMP JUMPDEST DUP6 SLOAD DUP9 DUP5 ADD DUP6 ADD MSTORE SWAP5 DUP6 ADD SWAP5 DUP8 SWAP5 POP SWAP2 DUP4 ADD SWAP2 PUSH2 0x1351 JUMP JUMPDEST SWAP2 POP POP PUSH2 0x133C SWAP5 POP PUSH1 0x20 SWAP3 POP PUSH1 0xFF NOT AND DUP3 DUP5 ADD MSTORE ISZERO ISZERO PUSH1 0x5 SHL DUP3 ADD ADD CODESIZE DUP1 PUSH2 0x132E JUMP JUMPDEST SWAP1 PUSH1 0x20 SWAP2 PUSH2 0x13BD DUP2 MLOAD DUP1 SWAP3 DUP2 DUP6 MSTORE DUP6 DUP1 DUP7 ADD SWAP2 ADD PUSH2 0x12A1 JUMP JUMPDEST PUSH1 0x1F ADD PUSH1 0x1F NOT AND ADD ADD SWAP1 JUMP JUMPDEST PUSH1 0x1 PUSH1 0x1 PUSH1 0x40 SHL SUB DUP2 GT PUSH2 0xB12 JUMPI PUSH1 0x5 SHL PUSH1 0x20 ADD SWAP1 JUMP JUMPDEST PUSH1 0x0 SLOAD PUSH1 0x1 PUSH1 0x1 PUSH1 0xA0 SHL SUB AND CALLER SUB PUSH2 0x13F4 JUMPI JUMP JUMPDEST PUSH1 0x40 MLOAD PUSH4 0x118CDAA7 PUSH1 0xE0 SHL DUP2 MSTORE CALLER PUSH1 0x4 DUP3 ADD MSTORE PUSH1 0x24 SWAP1 REVERT JUMPDEST PUSH1 0x0 NOT DUP2 EQ PUSH2 0x141B JUMPI PUSH1 0x1 ADD SWAP1 JUMP JUMPDEST PUSH4 0x4E487B71 PUSH1 0xE0 SHL PUSH1 0x0 MSTORE PUSH1 0x11 PUSH1 0x4 MSTORE PUSH1 0x24 PUSH1 0x0 REVERT JUMPDEST DUP1 MLOAD DUP3 LT ISZERO PUSH2 0x1445 JUMPI PUSH1 0x20 SWAP2 PUSH1 0x5 SHL ADD ADD SWAP1 JUMP JUMPDEST PUSH4 0x4E487B71 PUSH1 0xE0 SHL PUSH1 0x0 MSTORE PUSH1 0x32 PUSH1 0x4 MSTORE PUSH1 0x24 PUSH1 0x0 REVERT JUMPDEST DUP1 SLOAD DUP3 LT ISZERO PUSH2 0x1445 JUMPI PUSH1 0x0 MSTORE PUSH1 0x20 PUSH1 0x0 KECCAK256 SWAP1 PUSH1 0x1 SHL ADD SWAP1 PUSH1 0x0 SWAP1 JUMP JUMPDEST PUSH2 0x148F SWAP1 PUSH1 0x20 PUSH1 0x40 MLOAD SWAP3 DUP3 DUP5 DUP1 SWAP5 MLOAD SWAP4 DUP5 SWAP3 ADD PUSH2 0x12A1 JUMP JUMPDEST DUP2 ADD SUB SWAP1 KECCAK256 SWAP1 JUMP JUMPDEST SWAP1 PUSH1 0x40 MLOAD PUSH2 0x14A4 DUP2 PUSH2 0x11CE JUMP JUMPDEST PUSH1 0x20 PUSH1 0x1 DUP3 SWAP5 PUSH2 0x14B3 DUP2 PUSH2 0x12FE JUMP JUMPDEST DUP5 MSTORE ADD SLOAD SWAP2 ADD MSTORE JUMP JUMPDEST DUP2 DUP2 MUL SWAP3 SWAP2 DUP2 ISZERO SWAP2 DUP5 DIV EQ OR ISZERO PUSH2 0x141B JUMPI JUMP JUMPDEST SWAP2 SWAP1 DUP3 ADD DUP1 SWAP3 GT PUSH2 0x141B JUMPI JUMP JUMPDEST SWAP3 SWAP2 SWAP1 SWAP3 PUSH1 0x0 SWAP2 PUSH1 0x0 SWAP5 PUSH1 0x40 MLOAD DUP4 DUP2 DUP1 SWAP6 MLOAD PUSH2 0x14FE DUP2 PUSH1 0x20 SWAP9 DUP10 DUP1 SWAP7 ADD PUSH2 0x12A1 JUMP JUMPDEST DUP2 ADD PUSH1 0x5 DUP2 MSTORE SUB ADD SWAP1 KECCAK256 SWAP3 PUSH1 0xFF PUSH1 0x2 DUP6 ADD SLOAD AND ISZERO PUSH2 0x1588 JUMPI SWAP2 SWAP1 PUSH1 0x1 PUSH1 0x0 SWAP5 ADD SWAP3 DUP4 SLOAD SWAP4 JUMPDEST DUP5 DUP7 LT PUSH2 0x1534 JUMPI POP POP POP POP POP POP SWAP2 SWAP1 JUMP JUMPDEST SWAP1 SWAP2 SWAP3 SWAP4 SWAP5 SWAP8 PUSH2 0x1578 PUSH2 0x157E SWAP2 PUSH2 0x1569 PUSH2 0x1569 PUSH2 0x1570 DUP8 PUSH2 0x1559 DUP16 PUSH2 0x279 SWAP1 DUP11 PUSH2 0x145B JUMP JUMPDEST ADD SWAP12 DUP13 PUSH2 0x2710 SWAP5 DUP6 SWAP2 MLOAD DUP13 PUSH2 0x14BC JUMP JUMPDEST DIV SWAP1 PUSH2 0x14CF JUMP JUMPDEST SWAP11 MLOAD DUP10 PUSH2 0x14BC JUMP JUMPDEST SWAP9 PUSH2 0x140C JUMP JUMPDEST SWAP5 SWAP4 SWAP3 SWAP2 SWAP1 PUSH2 0x1523 JUMP JUMPDEST POP POP POP POP POP SWAP1 POP PUSH1 0x0 SWAP1 PUSH1 0x0 SWAP1 JUMP JUMPDEST SWAP2 SWAP1 SWAP2 PUSH1 0xFF PUSH1 0x2 PUSH1 0x40 MLOAD PUSH1 0x20 DUP2 DUP6 MLOAD PUSH2 0x15B3 DUP2 DUP4 DUP6 DUP11 ADD PUSH2 0x12A1 JUMP JUMPDEST DUP2 ADD PUSH1 0x5 DUP2 MSTORE SUB ADD SWAP1 KECCAK256 ADD SLOAD AND ISZERO PUSH2 0x160E JUMPI DUP2 DUP4 PUSH2 0x15D0 SWAP3 PUSH2 0x14DC JUMP JUMPDEST SWAP1 DUP4 ISZERO ISZERO SWAP4 DUP5 PUSH2 0x1603 JUMPI JUMPDEST POP POP DUP2 ISZERO ISZERO SWAP2 DUP3 PUSH2 0x15F8 JUMPI JUMPDEST POP POP DUP2 ISZERO PUSH2 0x15F3 JUMPI POP SWAP1 JUMP JUMPDEST SWAP1 POP SWAP1 JUMP JUMPDEST LT ISZERO SWAP1 POP CODESIZE DUP1 PUSH2 0x15E7 JUMP JUMPDEST LT ISZERO SWAP3 POP CODESIZE DUP1 PUSH2 0x15DB JUMP JUMPDEST POP POP POP PUSH1 0x1 SWAP1 JUMP JUMPDEST SWAP1 DUP2 PUSH1 0x20 SWAP2 SUB SLT PUSH2 0x196 JUMPI MLOAD PUSH1 0x1 PUSH1 0x1 PUSH1 0xA0 SHL SUB DUP2 AND DUP2 SUB PUSH2 0x196 JUMPI SWAP1 JUMP JUMPDEST PUSH1 0x2 PUSH1 0x1 SLOAD EQ PUSH2 0x1646 JUMPI PUSH1 0x2 PUSH1 0x1 SSTORE JUMP JUMPDEST PUSH1 0x40 MLOAD PUSH4 0x3EE5AEB5 PUSH1 0xE0 SHL DUP2 MSTORE PUSH1 0x4 SWAP1 REVERT INVALID LOG2 PUSH5 0x6970667358 0x22 SLT KECCAK256 PUSH10 0x665549C1FA4ADE459B2E PUSH32 0x57D74DAE162B8F599BE04D9C854B640CDCD66A1064736F6C6343000814003300 "},"methodIdentifiers":{"PERCENTAGE_DENOMINATOR()":"b3cd4254","ROYALTY_PERCENTAGE()":"463b08db","USDC_ADDRESS()":"bb09d9b7","calculateTotalRoyalties(string,uint256,uint256)":"bf704e66","claimRoyaltiesETH()":"902509c2","claimRoyaltiesUSDC()":"1ed6c599","getPendingRoyalties(address)":"024fa0d6","getProjectDependencies(string)":"50fd8e71","libraryContract()":"ce0769c5","owner()":"8da5cb5b","pendingRoyaltiesETH(address)":"141b5f02","pendingRoyaltiesUSDC(address)":"5bf4b5c4","projectRoyalties(string)":"4aa8a12d","recordRoyalties(string,uint256,uint8)":"c5787690","registerProjectRoyalties(string,string[],uint256[])":"74d3d93d","renounceOwnership()":"715018a6","setLibraryContract(address)":"956456d9","transferOwnership(address)":"f2fde38b","usdcToken()":"11eac855","validatePrice(string,uint256,uint256)":"0434d60c"}}}}}