{"ClayRoyalty.sol":{"ClayRoyalty":{"abi":[{"inputs":[{"internalType":"address","name":"_libraryContract","type":"address"}],"stateMutability":"nonpayable","type":"constructor"},{"inputs":[{"internalType":"address","name":"owner","type":"address"}],"name":"OwnableInvalidOwner","type":"error"},{"inputs":[{"internalType":"address","name":"account","type":"address"}],"name":"OwnableUnauthorizedAccount","type":"error"},{"inputs":[],"name":"ReentrancyGuardReentrantCall","type":"error"},{"anonymous":false,"inputs":[{"indexed":true,"internalType":"address","name":"previousOwner","type":"address"},{"indexed":true,"internalType":"address","name":"newOwner","type":"address"}],"name":"OwnershipTransferred","type":"event"},{"anonymous":false,"inputs":[{"indexed":true,"internalType":"string","name":"projectId","type":"string"},{"indexed":false,"internalType":"uint256","name":"dependencyCount","type":"uint256"}],"name":"RoyaltiesRegistered","type":"event"},{"anonymous":false,"inputs":[{"indexed":true,"internalType":"address","name":"claimant","type":"address"},{"indexed":false,"internalType":"uint256","name":"amountETH","type":"uint256"},{"indexed":false,"internalType":"uint256","name":"amountUSDC","type":"uint256"}],"name":"RoyaltyClaimed","type":"event"},{"anonymous":false,"inputs":[{"indexed":true,"internalType":"string","name":"projectId","type":"string"},{"indexed":true,"internalType":"address","name":"recipient","type":"address"},{"indexed":false,"internalType":"uint256","name":"amountETH","type":"uint256"},{"indexed":false,"internalType":"uint256","name":"amountUSDC","type":"uint256"}],"name":"RoyaltyRecorded","type":"event"},{"inputs":[],"name":"PERCENTAGE_DENOMINATOR","outputs":[{"internalType":"uint256","name":"","type":"uint256"}],"stateMutability":"view","type":"function"},{"inputs":[],"name":"ROYALTY_PERCENTAGE","outputs":[{"internalType":"uint256","name":"","type":"uint256"}],"stateMutability":"view","type":"function"},{"inputs":[],"name":"USDC_ADDRESS","outputs":[{"internalType":"address","name":"","type":"address"}],"stateMutability":"view","type":"function"},{"inputs":[{"internalType":"string","name":"projectId","type":"string"}],"name":"calculateTotalRoyalties","outputs":[{"internalType":"uint256","name":"totalETH","type":"uint256"},{"internalType":"uint256","name":"totalUSDC","type":"uint256"}],"stateMutability":"view","type":"function"},{"inputs":[],"name":"claimRoyaltiesETH","outputs":[],"stateMutability":"nonpayable","type":"function"},{"inputs":[],"name":"claimRoyaltiesUSDC","outputs":[],"stateMutability":"nonpayable","type":"function"},{"inputs":[{"internalType":"string","name":"libraryProjectId","type":"string"}],"name":"distributeNestedRoyalties","outputs":[],"stateMutability":"pure","type":"function"},{"inputs":[{"internalType":"address","name":"account","type":"address"}],"name":"getPendingRoyalties","outputs":[{"internalType":"uint256","name":"eth","type":"uint256"},{"internalType":"uint256","name":"usdc","type":"uint256"}],"stateMutability":"view","type":"function"},{"inputs":[{"internalType":"string","name":"projectId","type":"string"}],"name":"getProjectDependencies","outputs":[{"components":[{"internalType":"string","name":"dependencyProjectId","type":"string"},{"internalType":"uint256","name":"royaltyPercentage","type":"uint256"},{"internalType":"uint256","name":"fixedRoyaltyETH","type":"uint256"},{"internalType":"uint256","name":"fixedRoyaltyUSDC","type":"uint256"},{"internalType":"bool","name":"isDirect","type":"bool"}],"internalType":"struct ClayRoyalty.LibraryDependency[]","name":"","type":"tuple[]"}],"stateMutability":"view","type":"function"},{"inputs":[],"name":"libraryContract","outputs":[{"internalType":"contract IClayLibrary","name":"","type":"address"}],"stateMutability":"view","type":"function"},{"inputs":[],"name":"owner","outputs":[{"internalType":"address","name":"","type":"address"}],"stateMutability":"view","type":"function"},{"inputs":[{"internalType":"address","name":"","type":"address"}],"name":"pendingRoyaltiesETH","outputs":[{"internalType":"uint256","name":"","type":"uint256"}],"stateMutability":"view","type":"function"},{"inputs":[{"internalType":"address","name":"","type":"address"}],"name":"pendingRoyaltiesUSDC","outputs":[{"internalType":"uint256","name":"","type":"uint256"}],"stateMutability":"view","type":"function"},{"inputs":[{"internalType":"string","name":"","type":"string"},{"internalType":"uint256","name":"","type":"uint256"}],"name":"projectDirectDependencies","outputs":[{"internalType":"string","name":"","type":"string"}],"stateMutability":"view","type":"function"},{"inputs":[{"internalType":"string","name":"","type":"string"}],"name":"projectRoyalties","outputs":[{"internalType":"string","name":"projectId","type":"string"},{"internalType":"bool","name":"hasRoyalties","type":"bool"}],"stateMutability":"view","type":"function"},{"inputs":[{"internalType":"string","name":"projectId","type":"string"},{"internalType":"uint256","name":"price","type":"uint256"},{"internalType":"enum ClayRoyalty.PaymentToken","name":"paymentToken","type":"uint8"}],"name":"recordRoyalties","outputs":[],"stateMutability":"payable","type":"function"},{"inputs":[{"internalType":"string","name":"projectId","type":"string"},{"internalType":"string[]","name":"dependencyProjectIds","type":"string[]"},{"internalType":"string[]","name":"directDependencyIds","type":"string[]"}],"name":"registerProjectRoyalties","outputs":[],"stateMutability":"nonpayable","type":"function"},{"inputs":[],"name":"renounceOwnership","outputs":[],"stateMutability":"nonpayable","type":"function"},{"inputs":[{"internalType":"address","name":"_libraryContract","type":"address"}],"name":"setLibraryContract","outputs":[],"stateMutability":"nonpayable","type":"function"},{"inputs":[{"internalType":"string","name":"","type":"string"}],"name":"totalRoyaltiesPaidETH","outputs":[{"internalType":"uint256","name":"","type":"uint256"}],"stateMutability":"view","type":"function"},{"inputs":[{"internalType":"string","name":"","type":"string"}],"name":"totalRoyaltiesPaidUSDC","outputs":[{"internalType":"uint256","name":"","type":"uint256"}],"stateMutability":"view","type":"function"},{"inputs":[{"internalType":"address","name":"newOwner","type":"address"}],"name":"transferOwnership","outputs":[],"stateMutability":"nonpayable","type":"function"},{"inputs":[],"name":"usdcToken","outputs":[{"internalType":"contract IERC20","name":"","type":"address"}],"stateMutability":"view","type":"function"},{"stateMutability":"payable","type":"receive"}],"evm":{"bytecode":{"linkReferences":{},"object":"60a0346100f957601f6120f038819003918201601f19168301916001600160401b038311848410176100fe578084926020946040528339810103126100f957516001600160a01b0390818116908190036100f95733156100e05760005460018060a01b0319903382821617600055604051933391167f8be0079c531659141344cd1fd0a4f28419497f9722a3daafe3b4186f6b6457e0600080a36001805573833589fcd6edb6e08f4c7c32d4f71b54bda029136080526002541617600255611fdb90816101158239608051818181610871015281816116dc015261183c0152f35b604051631e4fbdf760e01b815260006004820152602490fd5b600080fd5b634e487b7160e01b600052604160045260246000fdfe608080604052600436101561001d575b50361561001b57600080fd5b005b60003560e01c908163024fa0d61461186b5750806311eac85514611826578063141b5f02146117e85780631ed6c5991461167557806330676af61461162c578063463b08db1461160f5780634aa8a12d1461159c57806350fd8e711461144e5780635bf4b5c41461141057806361c810f11461109e578063715018a61461104557806373a6fe8914610fe95780638da5cb5b14610fc0578063902509c214610eb2578063956456d914610e67578063b3cd425414610e4a578063b9293c2614610da3578063bb09d9b714610d74578063c5787690146102d7578063ce0769c5146102ae578063d92c462d14610202578063f2fde38b146101725763f8a76dfb14610127573861000f565b3461016d57602036600319011261016d576004356001600160401b03811161016d5761016161015c604092369060040161190d565b611d8b565b82519182526020820152f35b600080fd5b3461016d57602036600319011261016d576004356001600160a01b038181169182900361016d576101a1611b67565b81156101e957600054826bffffffffffffffffffffffff60a01b821617600055167f8be0079c531659141344cd1fd0a4f28419497f9722a3daafe3b4186f6b6457e0600080a3005b604051631e4fbdf760e01b815260006004820152602490fd5b3461016d57602036600319011261016d576004356001600160401b03811161016d5761023290369060040161190d565b5060405162461bcd60e51b815260206004820152604760248201527f46756e6374696f6e20646570726563617465643a20526f79616c74696573206160448201527f7265206e6f77206175746f2d6469737472696275746564206174207061796d656064820152666e742074696d6560c81b608482015260a490fd5b3461016d57600036600319011261016d576002546040516001600160a01b039091168152602090f35b606036600319011261016d576004356001600160401b03811161016d5761030290369060040161190d565b604435600281101561016d57610316611f62565b604051602081845161032b8183858901611954565b810160058152030190209060ff60028301541615610d2f5761081b5734156107e8576000906000600182015460018060a01b0360025416915b818110610720575050508134106106e35791906000925b60018101548410156106505761039d6103978560018401611cdb565b50611d17565b93608085015115610643576103dd602060018060a01b0360025416875190604051808095819463d55a772d60e01b83528660048401526024830190611a7d565b03915afa9081156105f257600091610624575b5060408601519586151580610612575b61041c575b50506104149192939450611ca2565b92919061037b565b6000906104298151611977565b9060ff6002830154166104ac575b50508087610450610455936104149798999a1015611eca565b611f25565b9060018060a01b0316908160005260036020526040600020610478828254611d7e565b9055600080516020611f86833981519152604061049489611cf7565b92815190815260006020820152a38493929186610405565b9490979692919560005b60018a01548110156105fe576105076104d56103978360018e01611cdb565b602060018060a01b0360025416825190604051808096819463d55a772d60e01b83528660048401526024830190611a7d565b03915afa9182156105f2576000926105be575b5060400190815190811515806105ac575b610541575b50505061053c90611ca2565b6104b6565b61053c93929a6105779160018060a01b03169283600052600360205261056d6040600020918254611d7e565b90558b5190611d7e565b99600080516020611f8683398151915260406105968c51935193611cf7565b92815190815260006020820152a3908b80610530565b506001600160a01b038116151561052b565b60409192506105e49060203d6020116105eb575b6105dc81836118d1565b810190611d5f565b919061051a565b503d6105d2565b6040513d6000823e3d90fd5b509697509195949193509080610414610437565b506001600160a01b0382161515610400565b61063d915060203d6020116105eb576105dc81836118d1565b866103f0565b6104149192939450611ca2565b50915061066d602083928160405193828580945193849201611954565b8101600681520301902055803411610688575b505b60018055005b60008080610697819434611f25565b335af16106a2611f32565b50156106ae5780610680565b60405162461bcd60e51b815260206004820152600d60248201526c1499599d5b990819985a5b1959609a1b6044820152606490fd5b60405162461bcd60e51b8152602060048201526015602482015274125b9cdd59999a58da595b9d08115512081cd95b9d605a1b6044820152606490fd5b6107306103978260018701611cdb565b60808101511561078d5780602061076392516040518094819263d55a772d60e01b83528460048401526024830190611a7d565b0381885afa9182156105f2576000926107c4575b50604001519081151590816107b1575b5061079c575b5061079790611ca2565b610364565b6107aa906107979296611d7e565b949061078d565b6001600160a01b03161515905088610787565b60409192506107e19060203d6020116105eb576105dc81836118d1565b9190610777565b60405162461bcd60e51b815260206004820152600b60248201526a139bc8115512081cd95b9d60aa1b6044820152606490fd5b34610cdf576000906000600182015460018060a01b0360025416915b818110610c17575050508115610bc7576040516323b872dd60e01b81523360048201523060248201526044810183905260208160648160007f00000000000000000000000000000000000000000000000000000000000000006001600160a01b03165af19081156105f257600091610b98575b5015610b545791906000925b6001810154841015610b28576108d26103978560018401611cdb565b93608085015115610b1b57610912602060018060a01b0360025416875190604051808095819463d55a772d60e01b83528660048401526024830190611a7d565b03915afa9081156105f257600091610afc575b5060608601519586151580610aea575b610951575b50506109499192939450611ca2565b9291906108b6565b60009061095e8151611977565b9060ff6002830154166109dc575b50508087610450610985936109499798999a1015611eca565b9060018060a01b03169081600052600460205260406000206109a8828254611d7e565b9055600080516020611f8683398151915260406109c489611cf7565b92815190600082526020820152a3849392918661093a565b9490979692919560005b60018a0154811015610ad657610a056104d56103978360018e01611cdb565b03915afa9182156105f257600092610ab2575b506060019081519081151580610aa0575b610a3f575b505050610a3a90611ca2565b6109e6565b610a3a93929a610a6b9160018060a01b03169283600052600460205261056d6040600020918254611d7e565b99600080516020611f868339815191526040610a8a8c51935193611cf7565b92815190600082526020820152a3908b80610a2e565b506001600160a01b0381161515610a29565b6060919250610acf9060203d6020116105eb576105dc81836118d1565b9190610a18565b50969750919594919350908061094961096c565b506001600160a01b0382161515610935565b610b15915060203d6020116105eb576105dc81836118d1565b86610925565b6109499192939450611ca2565b5091506020610b44918160405193828580945193849201611954565b8101600781520301902055610682565b606460405162461bcd60e51b815260206004820152602060248201527f55534443207472616e7366657220746f20636f6e7472616374206661696c65646044820152fd5b610bba915060203d602011610bc0575b610bb281836118d1565b810190611eb2565b846108aa565b503d610ba8565b60405162461bcd60e51b815260206004820152602260248201527f4e6f205553444320726f79616c7469657320666f7220746869732070726f6a6560448201526118dd60f21b6064820152608490fd5b610c276103978260018701611cdb565b608081015115610c8457806020610c5a92516040518094819263d55a772d60e01b83528460048401526024830190611a7d565b0381885afa9182156105f257600092610cbb575b5060600151908115159081610ca8575b50610c93575b50610c8e90611ca2565b610837565b610ca190610c8e9296611d7e565b9490610c84565b6001600160a01b03161515905088610c7e565b6060919250610cd89060203d6020116105eb576105dc81836118d1565b9190610c6e565b60405162461bcd60e51b815260206004820152602260248201527f446f206e6f742073656e642045544820666f72205553444320726f79616c7469604482015261657360f01b6064820152608490fd5b60405162461bcd60e51b815260206004820152601d60248201527f4e6f20726f79616c7469657320666f7220746869732070726f6a6563740000006044820152606490fd5b3461016d57600036600319011261016d57602060405173833589fcd6edb6e08f4c7c32d4f71b54bda029138152f35b3461016d57604036600319011261016d576004356001600160401b03811161016d57610dd390369060040161190d565b610def6020602435928160405193828580945193849201611954565b8101600881520301902090815481101561016d57610e0c91611b39565b610e3457610e1c610e30916119d7565b604051918291602083526020830190611a7d565b0390f35b634e487b7160e01b600052600060045260246000fd5b3461016d57600036600319011261016d5760206040516127108152f35b3461016d57602036600319011261016d576004356001600160a01b0381169081900361016d57610e95611b67565b6bffffffffffffffffffffffff60a01b6002541617600255600080f35b3461016d57600036600319011261016d57610ecb611f62565b3360005260036020526040600020548015610f7b5733600052600360205260006040812055600080808084335af1610f01611f32565b5015610f4057604051908152600060208201527f6fe778711f06ca052305b633ba1b304f4d71c1523776f2aa3059d8d99f5420de60403392a260018055005b60405162461bcd60e51b8152602060048201526013602482015272115512081d1c985b9cd9995c8819985a5b1959606a1b6044820152606490fd5b60405162461bcd60e51b815260206004820152601860248201527f4e6f2070656e64696e672045544820726f79616c7469657300000000000000006044820152606490fd5b3461016d57600036600319011261016d576000546040516001600160a01b039091168152602090f35b3461016d57602036600319011261016d576004356001600160401b03811161016d57611032602061101f8193369060040161190d565b8160405193828580945193849201611954565b8101600781520301902054604051908152f35b3461016d57600036600319011261016d5761105e611b67565b600080546001600160a01b0319811682556001600160a01b03167f8be0079c531659141344cd1fd0a4f28419497f9722a3daafe3b4186f6b6457e08280a3005b3461016d57606036600319011261016d576001600160401b0360043581811161016d576110cf90369060040161190d565b9060243581811161016d576110e8903690600401611ab9565b9060443590811161016d57611101903690600401611ab9565b9160ff6002604051602081855161111b8183858a01611954565b810160058152030190200154166113cb5760405160208183516111418183858801611954565b810160058152030190206111558282611b93565b60028101805460ff1916600117905560005b84518110156111ea5760405160208185516111858183858a01611954565b810160088152030190209061119a8187611cc7565b51918054600160401b8110156111d4576111b991600182018155611b39565b610e34576111cf926111ca91611b93565b611ca2565b611167565b634e487b7160e01b600052604160045260246000fd5b509290916000915b81518310156113935760025461123c906040906001600160a01b03166112188686611cc7565b51908251808095819463edd9136760e01b8352602060048401526024830190611a7d565b03915afa9182156105f257600091600093611358575b5060009560005b825181101561134d5761126c8184611cc7565b516020815191012061127e8888611cc7565b5160208151910120146112995761129490611ca2565b611259565b5094919095506001905b6112ad8386611cc7565b5190604051916112bc836118b6565b825260208201946127108652604083019182526060830190815260808301931515845260018a0154600160401b8110156111d457806001611306920160018d015560018c01611cdb565b929092610e34576113469661131e6004955185611b93565b516001840155516002830155516003820155019051151560ff80198354169116179055611ca2565b91926111f2565b5094919590956112a3565b915091506040813d60401161138b575b81611375604093836118d1565b8101031261016d57602081519101519187611252565b3d9150611368565b81517f92da81cc62c0efa31ecf38ecbdd2fb28add3e9af1063dde557cb388d8f9b3ef260206113c187611cf7565b92604051908152a2005b60405162461bcd60e51b815260206004820152601c60248201527f526f79616c7469657320616c72656164792072656769737465726564000000006044820152606490fd5b3461016d57602036600319011261016d576004356001600160a01b0381169081900361016d5760005260046020526020604060002054604051908152f35b3461016d5760208060031936011261016d576004356001600160401b03811161016d5761147f90369060040161190d565b90806114946040519384815193849201611954565b8201600590818152838360019586930301902001908154936114b585611aa2565b946114c360405196876118d1565b8086528486018094600052856000206000915b83831061157457505050506040519484869586019181875251809252604082818801951b87010194936000905b8382106115105787870388f35b918496819592949698508190603f198b820301855289519061153a825160a0808452830190611a7d565b9183810151848301526040810151604083015260608082015190830152608080910151151591015298019201920187969593919492611503565b93858882989996611587859c999c611d17565b815201920192019190979497969593966114d6565b3461016d57602036600319011261016d576004356001600160401b03811161016d576115d4602061101f61160393369060040161190d565b8101600581520301902060ff60026115eb836119d7565b92015416604051928392604084526040840190611a7d565b90151560208301520390f35b3461016d57600036600319011261016d5760206040516103e88152f35b3461016d57602036600319011261016d576004356001600160401b03811161016d57611662602061101f8193369060040161190d565b8101600681520301902054604051908152f35b3461016d57600036600319011261016d5761168e611f62565b3360005260206004815260406000205480156117a35733600052600482526000604081205560405163a9059cbb60e01b81523360048201528160248201528281604481600060018060a01b037f0000000000000000000000000000000000000000000000000000000000000000165af19081156105f257600091611786575b501561174a5760405191600083528201527f6fe778711f06ca052305b633ba1b304f4d71c1523776f2aa3059d8d99f5420de60403392a260018055005b60405162461bcd60e51b81526004810183905260146024820152731554d110c81d1c985b9cd9995c8819985a5b195960621b6044820152606490fd5b61179d9150833d8511610bc057610bb281836118d1565b8361170d565b60405162461bcd60e51b815260048101839052601960248201527f4e6f2070656e64696e67205553444320726f79616c74696573000000000000006044820152606490fd5b3461016d57602036600319011261016d576004356001600160a01b0381169081900361016d5760005260036020526020604060002054604051908152f35b3461016d57600036600319011261016d576040517f00000000000000000000000000000000000000000000000000000000000000006001600160a01b03168152602090f35b3461016d57602036600319011261016d576004356001600160a01b038116919082900361016d5760409160005260036020528160002054600460205282600020549082526020820152f35b60a081019081106001600160401b038211176111d457604052565b90601f801991011681019081106001600160401b038211176111d457604052565b6001600160401b0381116111d457601f01601f191660200190565b81601f8201121561016d57803590611924826118f2565b9261193260405194856118d1565b8284526020838301011161016d57816000926020809301838601378301015290565b60005b8381106119675750506000910152565b8181015183820152602001611957565b6020611990918160405193828580945193849201611954565b8101600581520301902090565b90600182811c921680156119cd575b60208310146119b757565b634e487b7160e01b600052602260045260246000fd5b91607f16916119ac565b90604051918260008254926119eb8461199d565b908184526001948581169081600014611a5a5750600114611a17575b5050611a15925003836118d1565b565b9093915060005260209081600020936000915b818310611a42575050611a1593508201013880611a07565b85548884018501529485019487945091830191611a2a565b915050611a1594506020925060ff191682840152151560051b8201013880611a07565b90602091611a9681518092818552858086019101611954565b601f01601f1916010190565b6001600160401b0381116111d45760051b60200190565b9080601f8301121561016d57813590611ad182611aa2565b92611adf60405194856118d1565b828452602092838086019160051b8301019280841161016d57848301915b848310611b0d5750505050505090565b82356001600160401b03811161016d578691611b2e8484809489010161190d565b815201920191611afd565b8054821015611b515760005260206000200190600090565b634e487b7160e01b600052603260045260246000fd5b6000546001600160a01b03163303611b7b57565b60405163118cdaa760e01b8152336004820152602490fd5b91909182516001600160401b0381116111d457611bb0825461199d565b601f8111611c5a575b50602080601f8311600114611bf6575081929394600092611beb575b50508160011b916000199060031b1c1916179055565b015190503880611bd5565b90601f198316958460005282600020926000905b888210611c4257505083600195969710611c29575b505050811b019055565b015160001960f88460031b161c19169055388080611c1f565b80600185968294968601518155019501930190611c0a565b600083815260208120601f840160051c81019260208510611c98575b601f0160051c01915b828110611c8d575050611bb9565b818155600101611c7f565b9092508290611c76565b6000198114611cb15760010190565b634e487b7160e01b600052601160045260246000fd5b8051821015611b515760209160051b010190565b8054821015611b51576000526005602060002091020190600090565b611d0f90602060405192828480945193849201611954565b810103902090565b90604051611d24816118b6565b608060ff60048395611d35816119d7565b85526001810154602086015260028101546040860152600381015460608601520154161515910152565b9081602091031261016d57516001600160a01b038116810361016d5790565b91908201809211611cb157565b906000808093604080518281809451611daa8160209788809601611954565b810160058152030190209160ff60028401541615611ea8576001909201805460025490936001600160a01b0391821692865b868110611def5750505050505050509190565b611dfc6103978284611cdb565b608081015115611e4957611e2c84825189518093819263d55a772d60e01b83528460048401526024830190611a7d565b03818a5afa908115611e9e579086918b91611e81575b5016611e58575b50611e5390611ca2565b611ddc565b98611e53919b6060611e71611e7a938a8e015190611d7e565b9b015190611d7e565b9a90611e49565b611e989150863d88116105eb576105dc81836118d1565b38611e42565b88513d8c823e3d90fd5b5050509250508190565b9081602091031261016d5751801515810361016d5790565b15611ed157565b60405162461bcd60e51b815260206004820152602660248201527f4c69627261727920726f79616c7479206c657373207468616e20646570656e64604482015265656e6369657360d01b6064820152608490fd5b91908203918211611cb157565b3d15611f5d573d90611f43826118f2565b91611f5160405193846118d1565b82523d6000602084013e565b606090565b600260015414611f73576002600155565b604051633ee5aeb560e01b8152600490fdfecb9f559e28915be49dcceef3fd0e6953281bdd4efe058dff26dd513ca503799ea264697066735822122055f207439de3ed80ff64a7ac415c37f3630fdf5ff959be46716f8c74996888fd64736f6c63430008140033","opcodes":"PUSH1 0xA0 CALLVALUE PUSH2 0xF9 JUMPI PUSH1 0x1F PUSH2 0x20F0 CODESIZE DUP2 SWAP1 SUB SWAP2 DUP3 ADD PUSH1 0x1F NOT AND DUP4 ADD SWAP2 PUSH1 0x1 PUSH1 0x1 PUSH1 0x40 SHL SUB DUP4 GT DUP5 DUP5 LT OR PUSH2 0xFE JUMPI DUP1 DUP5 SWAP3 PUSH1 0x20 SWAP5 PUSH1 0x40 MSTORE DUP4 CODECOPY DUP2 ADD SUB SLT PUSH2 0xF9 JUMPI MLOAD PUSH1 0x1 PUSH1 0x1 PUSH1 0xA0 SHL SUB SWAP1 DUP2 DUP2 AND SWAP1 DUP2 SWAP1 SUB PUSH2 0xF9 JUMPI CALLER ISZERO PUSH2 0xE0 JUMPI PUSH1 0x0 SLOAD PUSH1 0x1 DUP1 PUSH1 0xA0 SHL SUB NOT SWAP1 CALLER DUP3 DUP3 AND OR PUSH1 0x0 SSTORE PUSH1 0x40 MLOAD SWAP4 CALLER SWAP2 AND PUSH32 0x8BE0079C531659141344CD1FD0A4F28419497F9722A3DAAFE3B4186F6B6457E0 PUSH1 0x0 DUP1 LOG3 PUSH1 0x1 DUP1 SSTORE PUSH20 0x833589FCD6EDB6E08F4C7C32D4F71B54BDA02913 PUSH1 0x80 MSTORE PUSH1 0x2 SLOAD AND OR PUSH1 0x2 SSTORE PUSH2 0x1FDB SWAP1 DUP2 PUSH2 0x115 DUP3 CODECOPY PUSH1 0x80 MLOAD DUP2 DUP2 DUP2 PUSH2 0x871 ADD MSTORE DUP2 DUP2 PUSH2 0x16DC ADD MSTORE PUSH2 0x183C ADD MSTORE RETURN JUMPDEST PUSH1 0x40 MLOAD PUSH4 0x1E4FBDF7 PUSH1 0xE0 SHL DUP2 MSTORE PUSH1 0x0 PUSH1 0x4 DUP3 ADD MSTORE PUSH1 0x24 SWAP1 REVERT JUMPDEST PUSH1 0x0 DUP1 REVERT JUMPDEST PUSH4 0x4E487B71 PUSH1 0xE0 SHL PUSH1 0x0 MSTORE PUSH1 0x41 PUSH1 0x4 MSTORE PUSH1 0x24 PUSH1 0x0 REVERT INVALID PUSH1 0x80 DUP1 PUSH1 0x40 MSTORE PUSH1 0x4 CALLDATASIZE LT ISZERO PUSH2 0x1D JUMPI JUMPDEST POP CALLDATASIZE ISZERO PUSH2 0x1B JUMPI PUSH1 0x0 DUP1 REVERT JUMPDEST STOP JUMPDEST PUSH1 0x0 CALLDATALOAD PUSH1 0xE0 SHR SWAP1 DUP2 PUSH4 0x24FA0D6 EQ PUSH2 0x186B JUMPI POP DUP1 PUSH4 0x11EAC855 EQ PUSH2 0x1826 JUMPI DUP1 PUSH4 0x141B5F02 EQ PUSH2 0x17E8 JUMPI DUP1 PUSH4 0x1ED6C599 EQ PUSH2 0x1675 JUMPI DUP1 PUSH4 0x30676AF6 EQ PUSH2 0x162C JUMPI DUP1 PUSH4 0x463B08DB EQ PUSH2 0x160F JUMPI DUP1 PUSH4 0x4AA8A12D EQ PUSH2 0x159C JUMPI DUP1 PUSH4 0x50FD8E71 EQ PUSH2 0x144E JUMPI DUP1 PUSH4 0x5BF4B5C4 EQ PUSH2 0x1410 JUMPI DUP1 PUSH4 0x61C810F1 EQ PUSH2 0x109E JUMPI DUP1 PUSH4 0x715018A6 EQ PUSH2 0x1045 JUMPI DUP1 PUSH4 0x73A6FE89 EQ PUSH2 0xFE9 JUMPI DUP1 PUSH4 0x8DA5CB5B EQ PUSH2 0xFC0 JUMPI DUP1 PUSH4 0x902509C2 EQ PUSH2 0xEB2 JUMPI DUP1 PUSH4 0x956456D9 EQ PUSH2 0xE67 JUMPI DUP1 PUSH4 0xB3CD4254 EQ PUSH2 0xE4A JUMPI DUP1 PUSH4 0xB9293C26 EQ PUSH2 0xDA3 JUMPI DUP1 PUSH4 0xBB09D9B7 EQ PUSH2 0xD74 JUMPI DUP1 PUSH4 0xC5787690 EQ PUSH2 0x2D7 JUMPI DUP1 PUSH4 0xCE0769C5 EQ PUSH2 0x2AE JUMPI DUP1 PUSH4 0xD92C462D EQ PUSH2 0x202 JUMPI DUP1 PUSH4 0xF2FDE38B EQ PUSH2 0x172 JUMPI PUSH4 0xF8A76DFB EQ PUSH2 0x127 JUMPI CODESIZE PUSH2 0xF JUMP JUMPDEST CALLVALUE PUSH2 0x16D JUMPI PUSH1 0x20 CALLDATASIZE PUSH1 0x3 NOT ADD SLT PUSH2 0x16D JUMPI PUSH1 0x4 CALLDATALOAD PUSH1 0x1 PUSH1 0x1 PUSH1 0x40 SHL SUB DUP2 GT PUSH2 0x16D JUMPI PUSH2 0x161 PUSH2 0x15C PUSH1 0x40 SWAP3 CALLDATASIZE SWAP1 PUSH1 0x4 ADD PUSH2 0x190D JUMP JUMPDEST PUSH2 0x1D8B JUMP JUMPDEST DUP3 MLOAD SWAP2 DUP3 MSTORE PUSH1 0x20 DUP3 ADD MSTORE RETURN JUMPDEST PUSH1 0x0 DUP1 REVERT JUMPDEST CALLVALUE PUSH2 0x16D JUMPI PUSH1 0x20 CALLDATASIZE PUSH1 0x3 NOT ADD SLT PUSH2 0x16D JUMPI PUSH1 0x4 CALLDATALOAD PUSH1 0x1 PUSH1 0x1 PUSH1 0xA0 SHL SUB DUP2 DUP2 AND SWAP2 DUP3 SWAP1 SUB PUSH2 0x16D JUMPI PUSH2 0x1A1 PUSH2 0x1B67 JUMP JUMPDEST DUP2 ISZERO PUSH2 0x1E9 JUMPI PUSH1 0x0 SLOAD DUP3 PUSH12 0xFFFFFFFFFFFFFFFFFFFFFFFF PUSH1 0xA0 SHL DUP3 AND OR PUSH1 0x0 SSTORE AND PUSH32 0x8BE0079C531659141344CD1FD0A4F28419497F9722A3DAAFE3B4186F6B6457E0 PUSH1 0x0 DUP1 LOG3 STOP JUMPDEST PUSH1 0x40 MLOAD PUSH4 0x1E4FBDF7 PUSH1 0xE0 SHL DUP2 MSTORE PUSH1 0x0 PUSH1 0x4 DUP3 ADD MSTORE PUSH1 0x24 SWAP1 REVERT JUMPDEST CALLVALUE PUSH2 0x16D JUMPI PUSH1 0x20 CALLDATASIZE PUSH1 0x3 NOT ADD SLT PUSH2 0x16D JUMPI PUSH1 0x4 CALLDATALOAD PUSH1 0x1 PUSH1 0x1 PUSH1 0x40 SHL SUB DUP2 GT PUSH2 0x16D JUMPI PUSH2 0x232 SWAP1 CALLDATASIZE SWAP1 PUSH1 0x4 ADD PUSH2 0x190D JUMP JUMPDEST POP PUSH1 0x40 MLOAD PUSH3 0x461BCD PUSH1 0xE5 SHL DUP2 MSTORE PUSH1 0x20 PUSH1 0x4 DUP3 ADD MSTORE PUSH1 0x47 PUSH1 0x24 DUP3 ADD MSTORE PUSH32 0x46756E6374696F6E20646570726563617465643A20526F79616C746965732061 PUSH1 0x44 DUP3 ADD MSTORE PUSH32 0x7265206E6F77206175746F2D6469737472696275746564206174207061796D65 PUSH1 0x64 DUP3 ADD MSTORE PUSH7 0x6E742074696D65 PUSH1 0xC8 SHL PUSH1 0x84 DUP3 ADD MSTORE PUSH1 0xA4 SWAP1 REVERT JUMPDEST CALLVALUE PUSH2 0x16D JUMPI PUSH1 0x0 CALLDATASIZE PUSH1 0x3 NOT ADD SLT PUSH2 0x16D JUMPI PUSH1 0x2 SLOAD PUSH1 0x40 MLOAD PUSH1 0x1 PUSH1 0x1 PUSH1 0xA0 SHL SUB SWAP1 SWAP2 AND DUP2 MSTORE PUSH1 0x20 SWAP1 RETURN JUMPDEST PUSH1 0x60 CALLDATASIZE PUSH1 0x3 NOT ADD SLT PUSH2 0x16D JUMPI PUSH1 0x4 CALLDATALOAD PUSH1 0x1 PUSH1 0x1 PUSH1 0x40 SHL SUB DUP2 GT PUSH2 0x16D JUMPI PUSH2 0x302 SWAP1 CALLDATASIZE SWAP1 PUSH1 0x4 ADD PUSH2 0x190D JUMP JUMPDEST PUSH1 0x44 CALLDATALOAD PUSH1 0x2 DUP2 LT ISZERO PUSH2 0x16D JUMPI PUSH2 0x316 PUSH2 0x1F62 JUMP JUMPDEST PUSH1 0x40 MLOAD PUSH1 0x20 DUP2 DUP5 MLOAD PUSH2 0x32B DUP2 DUP4 DUP6 DUP10 ADD PUSH2 0x1954 JUMP JUMPDEST DUP2 ADD PUSH1 0x5 DUP2 MSTORE SUB ADD SWAP1 KECCAK256 SWAP1 PUSH1 0xFF PUSH1 0x2 DUP4 ADD SLOAD AND ISZERO PUSH2 0xD2F JUMPI PUSH2 0x81B JUMPI CALLVALUE ISZERO PUSH2 0x7E8 JUMPI PUSH1 0x0 SWAP1 PUSH1 0x0 PUSH1 0x1 DUP3 ADD SLOAD PUSH1 0x1 DUP1 PUSH1 0xA0 SHL SUB PUSH1 0x2 SLOAD AND SWAP2 JUMPDEST DUP2 DUP2 LT PUSH2 0x720 JUMPI POP POP POP DUP2 CALLVALUE LT PUSH2 0x6E3 JUMPI SWAP2 SWAP1 PUSH1 0x0 SWAP3 JUMPDEST PUSH1 0x1 DUP2 ADD SLOAD DUP5 LT ISZERO PUSH2 0x650 JUMPI PUSH2 0x39D PUSH2 0x397 DUP6 PUSH1 0x1 DUP5 ADD PUSH2 0x1CDB JUMP JUMPDEST POP PUSH2 0x1D17 JUMP JUMPDEST SWAP4 PUSH1 0x80 DUP6 ADD MLOAD ISZERO PUSH2 0x643 JUMPI PUSH2 0x3DD PUSH1 0x20 PUSH1 0x1 DUP1 PUSH1 0xA0 SHL SUB PUSH1 0x2 SLOAD AND DUP8 MLOAD SWAP1 PUSH1 0x40 MLOAD DUP1 DUP1 SWAP6 DUP2 SWAP5 PUSH4 0xD55A772D PUSH1 0xE0 SHL DUP4 MSTORE DUP7 PUSH1 0x4 DUP5 ADD MSTORE PUSH1 0x24 DUP4 ADD SWAP1 PUSH2 0x1A7D JUMP JUMPDEST SUB SWAP2 GAS STATICCALL SWAP1 DUP2 ISZERO PUSH2 0x5F2 JUMPI PUSH1 0x0 SWAP2 PUSH2 0x624 JUMPI JUMPDEST POP PUSH1 0x40 DUP7 ADD MLOAD SWAP6 DUP7 ISZERO ISZERO DUP1 PUSH2 0x612 JUMPI JUMPDEST PUSH2 0x41C JUMPI JUMPDEST POP POP PUSH2 0x414 SWAP2 SWAP3 SWAP4 SWAP5 POP PUSH2 0x1CA2 JUMP JUMPDEST SWAP3 SWAP2 SWAP1 PUSH2 0x37B JUMP JUMPDEST PUSH1 0x0 SWAP1 PUSH2 0x429 DUP2 MLOAD PUSH2 0x1977 JUMP JUMPDEST SWAP1 PUSH1 0xFF PUSH1 0x2 DUP4 ADD SLOAD AND PUSH2 0x4AC JUMPI JUMPDEST POP POP DUP1 DUP8 PUSH2 0x450 PUSH2 0x455 SWAP4 PUSH2 0x414 SWAP8 SWAP9 SWAP10 SWAP11 LT ISZERO PUSH2 0x1ECA JUMP JUMPDEST PUSH2 0x1F25 JUMP JUMPDEST SWAP1 PUSH1 0x1 DUP1 PUSH1 0xA0 SHL SUB AND SWAP1 DUP2 PUSH1 0x0 MSTORE PUSH1 0x3 PUSH1 0x20 MSTORE PUSH1 0x40 PUSH1 0x0 KECCAK256 PUSH2 0x478 DUP3 DUP3 SLOAD PUSH2 0x1D7E JUMP JUMPDEST SWAP1 SSTORE PUSH1 0x0 DUP1 MLOAD PUSH1 0x20 PUSH2 0x1F86 DUP4 CODECOPY DUP2 MLOAD SWAP2 MSTORE PUSH1 0x40 PUSH2 0x494 DUP10 PUSH2 0x1CF7 JUMP JUMPDEST SWAP3 DUP2 MLOAD SWAP1 DUP2 MSTORE PUSH1 0x0 PUSH1 0x20 DUP3 ADD MSTORE LOG3 DUP5 SWAP4 SWAP3 SWAP2 DUP7 PUSH2 0x405 JUMP JUMPDEST SWAP5 SWAP1 SWAP8 SWAP7 SWAP3 SWAP2 SWAP6 PUSH1 0x0 JUMPDEST PUSH1 0x1 DUP11 ADD SLOAD DUP2 LT ISZERO PUSH2 0x5FE JUMPI PUSH2 0x507 PUSH2 0x4D5 PUSH2 0x397 DUP4 PUSH1 0x1 DUP15 ADD PUSH2 0x1CDB JUMP JUMPDEST PUSH1 0x20 PUSH1 0x1 DUP1 PUSH1 0xA0 SHL SUB PUSH1 0x2 SLOAD AND DUP3 MLOAD SWAP1 PUSH1 0x40 MLOAD DUP1 DUP1 SWAP7 DUP2 SWAP5 PUSH4 0xD55A772D PUSH1 0xE0 SHL DUP4 MSTORE DUP7 PUSH1 0x4 DUP5 ADD MSTORE PUSH1 0x24 DUP4 ADD SWAP1 PUSH2 0x1A7D JUMP JUMPDEST SUB SWAP2 GAS STATICCALL SWAP2 DUP3 ISZERO PUSH2 0x5F2 JUMPI PUSH1 0x0 SWAP3 PUSH2 0x5BE JUMPI JUMPDEST POP PUSH1 0x40 ADD SWAP1 DUP2 MLOAD SWAP1 DUP2 ISZERO ISZERO DUP1 PUSH2 0x5AC JUMPI JUMPDEST PUSH2 0x541 JUMPI JUMPDEST POP POP POP PUSH2 0x53C SWAP1 PUSH2 0x1CA2 JUMP JUMPDEST PUSH2 0x4B6 JUMP JUMPDEST PUSH2 0x53C SWAP4 SWAP3 SWAP11 PUSH2 0x577 SWAP2 PUSH1 0x1 DUP1 PUSH1 0xA0 SHL SUB AND SWAP3 DUP4 PUSH1 0x0 MSTORE PUSH1 0x3 PUSH1 0x20 MSTORE PUSH2 0x56D PUSH1 0x40 PUSH1 0x0 KECCAK256 SWAP2 DUP3 SLOAD PUSH2 0x1D7E JUMP JUMPDEST SWAP1 SSTORE DUP12 MLOAD SWAP1 PUSH2 0x1D7E JUMP JUMPDEST SWAP10 PUSH1 0x0 DUP1 MLOAD PUSH1 0x20 PUSH2 0x1F86 DUP4 CODECOPY DUP2 MLOAD SWAP2 MSTORE PUSH1 0x40 PUSH2 0x596 DUP13 MLOAD SWAP4 MLOAD SWAP4 PUSH2 0x1CF7 JUMP JUMPDEST SWAP3 DUP2 MLOAD SWAP1 DUP2 MSTORE PUSH1 0x0 PUSH1 0x20 DUP3 ADD MSTORE LOG3 SWAP1 DUP12 DUP1 PUSH2 0x530 JUMP JUMPDEST POP PUSH1 0x1 PUSH1 0x1 PUSH1 0xA0 SHL SUB DUP2 AND ISZERO ISZERO PUSH2 0x52B JUMP JUMPDEST PUSH1 0x40 SWAP2 SWAP3 POP PUSH2 0x5E4 SWAP1 PUSH1 0x20 RETURNDATASIZE PUSH1 0x20 GT PUSH2 0x5EB JUMPI JUMPDEST PUSH2 0x5DC DUP2 DUP4 PUSH2 0x18D1 JUMP JUMPDEST DUP2 ADD SWAP1 PUSH2 0x1D5F JUMP JUMPDEST SWAP2 SWAP1 PUSH2 0x51A JUMP JUMPDEST POP RETURNDATASIZE PUSH2 0x5D2 JUMP JUMPDEST PUSH1 0x40 MLOAD RETURNDATASIZE PUSH1 0x0 DUP3 RETURNDATACOPY RETURNDATASIZE SWAP1 REVERT JUMPDEST POP SWAP7 SWAP8 POP SWAP2 SWAP6 SWAP5 SWAP2 SWAP4 POP SWAP1 DUP1 PUSH2 0x414 PUSH2 0x437 JUMP JUMPDEST POP PUSH1 0x1 PUSH1 0x1 PUSH1 0xA0 SHL SUB DUP3 AND ISZERO ISZERO PUSH2 0x400 JUMP JUMPDEST PUSH2 0x63D SWAP2 POP PUSH1 0x20 RETURNDATASIZE PUSH1 0x20 GT PUSH2 0x5EB JUMPI PUSH2 0x5DC DUP2 DUP4 PUSH2 0x18D1 JUMP JUMPDEST DUP7 PUSH2 0x3F0 JUMP JUMPDEST PUSH2 0x414 SWAP2 SWAP3 SWAP4 SWAP5 POP PUSH2 0x1CA2 JUMP JUMPDEST POP SWAP2 POP PUSH2 0x66D PUSH1 0x20 DUP4 SWAP3 DUP2 PUSH1 0x40 MLOAD SWAP4 DUP3 DUP6 DUP1 SWAP5 MLOAD SWAP4 DUP5 SWAP3 ADD PUSH2 0x1954 JUMP JUMPDEST DUP2 ADD PUSH1 0x6 DUP2 MSTORE SUB ADD SWAP1 KECCAK256 SSTORE DUP1 CALLVALUE GT PUSH2 0x688 JUMPI JUMPDEST POP JUMPDEST PUSH1 0x1 DUP1 SSTORE STOP JUMPDEST PUSH1 0x0 DUP1 DUP1 PUSH2 0x697 DUP2 SWAP5 CALLVALUE PUSH2 0x1F25 JUMP JUMPDEST CALLER GAS CALL PUSH2 0x6A2 PUSH2 0x1F32 JUMP JUMPDEST POP ISZERO PUSH2 0x6AE JUMPI DUP1 PUSH2 0x680 JUMP JUMPDEST PUSH1 0x40 MLOAD PUSH3 0x461BCD PUSH1 0xE5 SHL DUP2 MSTORE PUSH1 0x20 PUSH1 0x4 DUP3 ADD MSTORE PUSH1 0xD PUSH1 0x24 DUP3 ADD MSTORE PUSH13 0x1499599D5B990819985A5B1959 PUSH1 0x9A SHL PUSH1 0x44 DUP3 ADD MSTORE PUSH1 0x64 SWAP1 REVERT JUMPDEST PUSH1 0x40 MLOAD PUSH3 0x461BCD PUSH1 0xE5 SHL DUP2 MSTORE PUSH1 0x20 PUSH1 0x4 DUP3 ADD MSTORE PUSH1 0x15 PUSH1 0x24 DUP3 ADD MSTORE PUSH21 0x125B9CDD59999A58DA595B9D08115512081CD95B9D PUSH1 0x5A SHL PUSH1 0x44 DUP3 ADD MSTORE PUSH1 0x64 SWAP1 REVERT JUMPDEST PUSH2 0x730 PUSH2 0x397 DUP3 PUSH1 0x1 DUP8 ADD PUSH2 0x1CDB JUMP JUMPDEST PUSH1 0x80 DUP2 ADD MLOAD ISZERO PUSH2 0x78D JUMPI DUP1 PUSH1 0x20 PUSH2 0x763 SWAP3 MLOAD PUSH1 0x40 MLOAD DUP1 SWAP5 DUP2 SWAP3 PUSH4 0xD55A772D PUSH1 0xE0 SHL DUP4 MSTORE DUP5 PUSH1 0x4 DUP5 ADD MSTORE PUSH1 0x24 DUP4 ADD SWAP1 PUSH2 0x1A7D JUMP JUMPDEST SUB DUP2 DUP9 GAS STATICCALL SWAP2 DUP3 ISZERO PUSH2 0x5F2 JUMPI PUSH1 0x0 SWAP3 PUSH2 0x7C4 JUMPI JUMPDEST POP PUSH1 0x40 ADD MLOAD SWAP1 DUP2 ISZERO ISZERO SWAP1 DUP2 PUSH2 0x7B1 JUMPI JUMPDEST POP PUSH2 0x79C JUMPI JUMPDEST POP PUSH2 0x797 SWAP1 PUSH2 0x1CA2 JUMP JUMPDEST PUSH2 0x364 JUMP JUMPDEST PUSH2 0x7AA SWAP1 PUSH2 0x797 SWAP3 SWAP7 PUSH2 0x1D7E JUMP JUMPDEST SWAP5 SWAP1 PUSH2 0x78D JUMP JUMPDEST PUSH1 0x1 PUSH1 0x1 PUSH1 0xA0 SHL SUB AND ISZERO ISZERO SWAP1 POP DUP9 PUSH2 0x787 JUMP JUMPDEST PUSH1 0x40 SWAP2 SWAP3 POP PUSH2 0x7E1 SWAP1 PUSH1 0x20 RETURNDATASIZE PUSH1 0x20 GT PUSH2 0x5EB JUMPI PUSH2 0x5DC DUP2 DUP4 PUSH2 0x18D1 JUMP JUMPDEST SWAP2 SWAP1 PUSH2 0x777 JUMP JUMPDEST PUSH1 0x40 MLOAD PUSH3 0x461BCD PUSH1 0xE5 SHL DUP2 MSTORE PUSH1 0x20 PUSH1 0x4 DUP3 ADD MSTORE PUSH1 0xB PUSH1 0x24 DUP3 ADD MSTORE PUSH11 0x139BC8115512081CD95B9D PUSH1 0xAA SHL PUSH1 0x44 DUP3 ADD MSTORE PUSH1 0x64 SWAP1 REVERT JUMPDEST CALLVALUE PUSH2 0xCDF JUMPI PUSH1 0x0 SWAP1 PUSH1 0x0 PUSH1 0x1 DUP3 ADD SLOAD PUSH1 0x1 DUP1 PUSH1 0xA0 SHL SUB PUSH1 0x2 SLOAD AND SWAP2 JUMPDEST DUP2 DUP2 LT PUSH2 0xC17 JUMPI POP POP POP DUP2 ISZERO PUSH2 0xBC7 JUMPI PUSH1 0x40 MLOAD PUSH4 0x23B872DD PUSH1 0xE0 SHL DUP2 MSTORE CALLER PUSH1 0x4 DUP3 ADD MSTORE ADDRESS PUSH1 0x24 DUP3 ADD MSTORE PUSH1 0x44 DUP2 ADD DUP4 SWAP1 MSTORE PUSH1 0x20 DUP2 PUSH1 0x64 DUP2 PUSH1 0x0 PUSH32 0x0 PUSH1 0x1 PUSH1 0x1 PUSH1 0xA0 SHL SUB AND GAS CALL SWAP1 DUP2 ISZERO PUSH2 0x5F2 JUMPI PUSH1 0x0 SWAP2 PUSH2 0xB98 JUMPI JUMPDEST POP ISZERO PUSH2 0xB54 JUMPI SWAP2 SWAP1 PUSH1 0x0 SWAP3 JUMPDEST PUSH1 0x1 DUP2 ADD SLOAD DUP5 LT ISZERO PUSH2 0xB28 JUMPI PUSH2 0x8D2 PUSH2 0x397 DUP6 PUSH1 0x1 DUP5 ADD PUSH2 0x1CDB JUMP JUMPDEST SWAP4 PUSH1 0x80 DUP6 ADD MLOAD ISZERO PUSH2 0xB1B JUMPI PUSH2 0x912 PUSH1 0x20 PUSH1 0x1 DUP1 PUSH1 0xA0 SHL SUB PUSH1 0x2 SLOAD AND DUP8 MLOAD SWAP1 PUSH1 0x40 MLOAD DUP1 DUP1 SWAP6 DUP2 SWAP5 PUSH4 0xD55A772D PUSH1 0xE0 SHL DUP4 MSTORE DUP7 PUSH1 0x4 DUP5 ADD MSTORE PUSH1 0x24 DUP4 ADD SWAP1 PUSH2 0x1A7D JUMP JUMPDEST SUB SWAP2 GAS STATICCALL SWAP1 DUP2 ISZERO PUSH2 0x5F2 JUMPI PUSH1 0x0 SWAP2 PUSH2 0xAFC JUMPI JUMPDEST POP PUSH1 0x60 DUP7 ADD MLOAD SWAP6 DUP7 ISZERO ISZERO DUP1 PUSH2 0xAEA JUMPI JUMPDEST PUSH2 0x951 JUMPI JUMPDEST POP POP PUSH2 0x949 SWAP2 SWAP3 SWAP4 SWAP5 POP PUSH2 0x1CA2 JUMP JUMPDEST SWAP3 SWAP2 SWAP1 PUSH2 0x8B6 JUMP JUMPDEST PUSH1 0x0 SWAP1 PUSH2 0x95E DUP2 MLOAD PUSH2 0x1977 JUMP JUMPDEST SWAP1 PUSH1 0xFF PUSH1 0x2 DUP4 ADD SLOAD AND PUSH2 0x9DC JUMPI JUMPDEST POP POP DUP1 DUP8 PUSH2 0x450 PUSH2 0x985 SWAP4 PUSH2 0x949 SWAP8 SWAP9 SWAP10 SWAP11 LT ISZERO PUSH2 0x1ECA JUMP JUMPDEST SWAP1 PUSH1 0x1 DUP1 PUSH1 0xA0 SHL SUB AND SWAP1 DUP2 PUSH1 0x0 MSTORE PUSH1 0x4 PUSH1 0x20 MSTORE PUSH1 0x40 PUSH1 0x0 KECCAK256 PUSH2 0x9A8 DUP3 DUP3 SLOAD PUSH2 0x1D7E JUMP JUMPDEST SWAP1 SSTORE PUSH1 0x0 DUP1 MLOAD PUSH1 0x20 PUSH2 0x1F86 DUP4 CODECOPY DUP2 MLOAD SWAP2 MSTORE PUSH1 0x40 PUSH2 0x9C4 DUP10 PUSH2 0x1CF7 JUMP JUMPDEST SWAP3 DUP2 MLOAD SWAP1 PUSH1 0x0 DUP3 MSTORE PUSH1 0x20 DUP3 ADD MSTORE LOG3 DUP5 SWAP4 SWAP3 SWAP2 DUP7 PUSH2 0x93A JUMP JUMPDEST SWAP5 SWAP1 SWAP8 SWAP7 SWAP3 SWAP2 SWAP6 PUSH1 0x0 JUMPDEST PUSH1 0x1 DUP11 ADD SLOAD DUP2 LT ISZERO PUSH2 0xAD6 JUMPI PUSH2 0xA05 PUSH2 0x4D5 PUSH2 0x397 DUP4 PUSH1 0x1 DUP15 ADD PUSH2 0x1CDB JUMP JUMPDEST SUB SWAP2 GAS STATICCALL SWAP2 DUP3 ISZERO PUSH2 0x5F2 JUMPI PUSH1 0x0 SWAP3 PUSH2 0xAB2 JUMPI JUMPDEST POP PUSH1 0x60 ADD SWAP1 DUP2 MLOAD SWAP1 DUP2 ISZERO ISZERO DUP1 PUSH2 0xAA0 JUMPI JUMPDEST PUSH2 0xA3F JUMPI JUMPDEST POP POP POP PUSH2 0xA3A SWAP1 PUSH2 0x1CA2 JUMP JUMPDEST PUSH2 0x9E6 JUMP JUMPDEST PUSH2 0xA3A SWAP4 SWAP3 SWAP11 PUSH2 0xA6B SWAP2 PUSH1 0x1 DUP1 PUSH1 0xA0 SHL SUB AND SWAP3 DUP4 PUSH1 0x0 MSTORE PUSH1 0x4 PUSH1 0x20 MSTORE PUSH2 0x56D PUSH1 0x40 PUSH1 0x0 KECCAK256 SWAP2 DUP3 SLOAD PUSH2 0x1D7E JUMP JUMPDEST SWAP10 PUSH1 0x0 DUP1 MLOAD PUSH1 0x20 PUSH2 0x1F86 DUP4 CODECOPY DUP2 MLOAD SWAP2 MSTORE PUSH1 0x40 PUSH2 0xA8A DUP13 MLOAD SWAP4 MLOAD SWAP4 PUSH2 0x1CF7 JUMP JUMPDEST SWAP3 DUP2 MLOAD SWAP1 PUSH1 0x0 DUP3 MSTORE PUSH1 0x20 DUP3 ADD MSTORE LOG3 SWAP1 DUP12 DUP1 PUSH2 0xA2E JUMP JUMPDEST POP PUSH1 0x1 PUSH1 0x1 PUSH1 0xA0 SHL SUB DUP2 AND ISZERO ISZERO PUSH2 0xA29 JUMP JUMPDEST PUSH1 0x60 SWAP2 SWAP3 POP PUSH2 0xACF SWAP1 PUSH1 0x20 RETURNDATASIZE PUSH1 0x20 GT PUSH2 0x5EB JUMPI PUSH2 0x5DC DUP2 DUP4 PUSH2 0x18D1 JUMP JUMPDEST SWAP2 SWAP1 PUSH2 0xA18 JUMP JUMPDEST POP SWAP7 SWAP8 POP SWAP2 SWAP6 SWAP5 SWAP2 SWAP4 POP SWAP1 DUP1 PUSH2 0x949 PUSH2 0x96C JUMP JUMPDEST POP PUSH1 0x1 PUSH1 0x1 PUSH1 0xA0 SHL SUB DUP3 AND ISZERO ISZERO PUSH2 0x935 JUMP JUMPDEST PUSH2 0xB15 SWAP2 POP PUSH1 0x20 RETURNDATASIZE PUSH1 0x20 GT PUSH2 0x5EB JUMPI PUSH2 0x5DC DUP2 DUP4 PUSH2 0x18D1 JUMP JUMPDEST DUP7 PUSH2 0x925 JUMP JUMPDEST PUSH2 0x949 SWAP2 SWAP3 SWAP4 SWAP5 POP PUSH2 0x1CA2 JUMP JUMPDEST POP SWAP2 POP PUSH1 0x20 PUSH2 0xB44 SWAP2 DUP2 PUSH1 0x40 MLOAD SWAP4 DUP3 DUP6 DUP1 SWAP5 MLOAD SWAP4 DUP5 SWAP3 ADD PUSH2 0x1954 JUMP JUMPDEST DUP2 ADD PUSH1 0x7 DUP2 MSTORE SUB ADD SWAP1 KECCAK256 SSTORE PUSH2 0x682 JUMP JUMPDEST PUSH1 0x64 PUSH1 0x40 MLOAD PUSH3 0x461BCD PUSH1 0xE5 SHL DUP2 MSTORE PUSH1 0x20 PUSH1 0x4 DUP3 ADD MSTORE PUSH1 0x20 PUSH1 0x24 DUP3 ADD MSTORE PUSH32 0x55534443207472616E7366657220746F20636F6E7472616374206661696C6564 PUSH1 0x44 DUP3 ADD MSTORE REVERT JUMPDEST PUSH2 0xBBA SWAP2 POP PUSH1 0x20 RETURNDATASIZE PUSH1 0x20 GT PUSH2 0xBC0 JUMPI JUMPDEST PUSH2 0xBB2 DUP2 DUP4 PUSH2 0x18D1 JUMP JUMPDEST DUP2 ADD SWAP1 PUSH2 0x1EB2 JUMP JUMPDEST DUP5 PUSH2 0x8AA JUMP JUMPDEST POP RETURNDATASIZE PUSH2 0xBA8 JUMP JUMPDEST PUSH1 0x40 MLOAD PUSH3 0x461BCD PUSH1 0xE5 SHL DUP2 MSTORE PUSH1 0x20 PUSH1 0x4 DUP3 ADD MSTORE PUSH1 0x22 PUSH1 0x24 DUP3 ADD MSTORE PUSH32 0x4E6F205553444320726F79616C7469657320666F7220746869732070726F6A65 PUSH1 0x44 DUP3 ADD MSTORE PUSH2 0x18DD PUSH1 0xF2 SHL PUSH1 0x64 DUP3 ADD MSTORE PUSH1 0x84 SWAP1 REVERT JUMPDEST PUSH2 0xC27 PUSH2 0x397 DUP3 PUSH1 0x1 DUP8 ADD PUSH2 0x1CDB JUMP JUMPDEST PUSH1 0x80 DUP2 ADD MLOAD ISZERO PUSH2 0xC84 JUMPI DUP1 PUSH1 0x20 PUSH2 0xC5A SWAP3 MLOAD PUSH1 0x40 MLOAD DUP1 SWAP5 DUP2 SWAP3 PUSH4 0xD55A772D PUSH1 0xE0 SHL DUP4 MSTORE DUP5 PUSH1 0x4 DUP5 ADD MSTORE PUSH1 0x24 DUP4 ADD SWAP1 PUSH2 0x1A7D JUMP JUMPDEST SUB DUP2 DUP9 GAS STATICCALL SWAP2 DUP3 ISZERO PUSH2 0x5F2 JUMPI PUSH1 0x0 SWAP3 PUSH2 0xCBB JUMPI JUMPDEST POP PUSH1 0x60 ADD MLOAD SWAP1 DUP2 ISZERO ISZERO SWAP1 DUP2 PUSH2 0xCA8 JUMPI JUMPDEST POP PUSH2 0xC93 JUMPI JUMPDEST POP PUSH2 0xC8E SWAP1 PUSH2 0x1CA2 JUMP JUMPDEST PUSH2 0x837 JUMP JUMPDEST PUSH2 0xCA1 SWAP1 PUSH2 0xC8E SWAP3 SWAP7 PUSH2 0x1D7E JUMP JUMPDEST SWAP5 SWAP1 PUSH2 0xC84 JUMP JUMPDEST PUSH1 0x1 PUSH1 0x1 PUSH1 0xA0 SHL SUB AND ISZERO ISZERO SWAP1 POP DUP9 PUSH2 0xC7E JUMP JUMPDEST PUSH1 0x60 SWAP2 SWAP3 POP PUSH2 0xCD8 SWAP1 PUSH1 0x20 RETURNDATASIZE PUSH1 0x20 GT PUSH2 0x5EB JUMPI PUSH2 0x5DC DUP2 DUP4 PUSH2 0x18D1 JUMP JUMPDEST SWAP2 SWAP1 PUSH2 0xC6E JUMP JUMPDEST PUSH1 0x40 MLOAD PUSH3 0x461BCD PUSH1 0xE5 SHL DUP2 MSTORE PUSH1 0x20 PUSH1 0x4 DUP3 ADD MSTORE PUSH1 0x22 PUSH1 0x24 DUP3 ADD MSTORE PUSH32 0x446F206E6F742073656E642045544820666F72205553444320726F79616C7469 PUSH1 0x44 DUP3 ADD MSTORE PUSH2 0x6573 PUSH1 0xF0 SHL PUSH1 0x64 DUP3 ADD MSTORE PUSH1 0x84 SWAP1 REVERT JUMPDEST PUSH1 0x40 MLOAD PUSH3 0x461BCD PUSH1 0xE5 SHL DUP2 MSTORE PUSH1 0x20 PUSH1 0x4 DUP3 ADD MSTORE PUSH1 0x1D PUSH1 0x24 DUP3 ADD MSTORE PUSH32 0x4E6F20726F79616C7469657320666F7220746869732070726F6A656374000000 PUSH1 0x44 DUP3 ADD MSTORE PUSH1 0x64 SWAP1 REVERT JUMPDEST CALLVALUE PUSH2 0x16D JUMPI PUSH1 0x0 CALLDATASIZE PUSH1 0x3 NOT ADD SLT PUSH2 0x16D JUMPI PUSH1 0x20 PUSH1 0x40 MLOAD PUSH20 0x833589FCD6EDB6E08F4C7C32D4F71B54BDA02913 DUP2 MSTORE RETURN JUMPDEST CALLVALUE PUSH2 0x16D JUMPI PUSH1 0x40 CALLDATASIZE PUSH1 0x3 NOT ADD SLT PUSH2 0x16D JUMPI PUSH1 0x4 CALLDATALOAD PUSH1 0x1 PUSH1 0x1 PUSH1 0x40 SHL SUB DUP2 GT PUSH2 0x16D JUMPI PUSH2 0xDD3 SWAP1 CALLDATASIZE SWAP1 PUSH1 0x4 ADD PUSH2 0x190D JUMP JUMPDEST PUSH2 0xDEF PUSH1 0x20 PUSH1 0x24 CALLDATALOAD SWAP3 DUP2 PUSH1 0x40 MLOAD SWAP4 DUP3 DUP6 DUP1 SWAP5 MLOAD SWAP4 DUP5 SWAP3 ADD PUSH2 0x1954 JUMP JUMPDEST DUP2 ADD PUSH1 0x8 DUP2 MSTORE SUB ADD SWAP1 KECCAK256 SWAP1 DUP2 SLOAD DUP2 LT ISZERO PUSH2 0x16D JUMPI PUSH2 0xE0C SWAP2 PUSH2 0x1B39 JUMP JUMPDEST PUSH2 0xE34 JUMPI PUSH2 0xE1C PUSH2 0xE30 SWAP2 PUSH2 0x19D7 JUMP JUMPDEST PUSH1 0x40 MLOAD SWAP2 DUP3 SWAP2 PUSH1 0x20 DUP4 MSTORE PUSH1 0x20 DUP4 ADD SWAP1 PUSH2 0x1A7D JUMP JUMPDEST SUB SWAP1 RETURN JUMPDEST PUSH4 0x4E487B71 PUSH1 0xE0 SHL PUSH1 0x0 MSTORE PUSH1 0x0 PUSH1 0x4 MSTORE PUSH1 0x24 PUSH1 0x0 REVERT JUMPDEST CALLVALUE PUSH2 0x16D JUMPI PUSH1 0x0 CALLDATASIZE PUSH1 0x3 NOT ADD SLT PUSH2 0x16D JUMPI PUSH1 0x20 PUSH1 0x40 MLOAD PUSH2 0x2710 DUP2 MSTORE RETURN JUMPDEST CALLVALUE PUSH2 0x16D JUMPI PUSH1 0x20 CALLDATASIZE PUSH1 0x3 NOT ADD SLT PUSH2 0x16D JUMPI PUSH1 0x4 CALLDATALOAD PUSH1 0x1 PUSH1 0x1 PUSH1 0xA0 SHL SUB DUP2 AND SWAP1 DUP2 SWAP1 SUB PUSH2 0x16D JUMPI PUSH2 0xE95 PUSH2 0x1B67 JUMP JUMPDEST PUSH12 0xFFFFFFFFFFFFFFFFFFFFFFFF PUSH1 0xA0 SHL PUSH1 0x2 SLOAD AND OR PUSH1 0x2 SSTORE PUSH1 0x0 DUP1 RETURN JUMPDEST CALLVALUE PUSH2 0x16D JUMPI PUSH1 0x0 CALLDATASIZE PUSH1 0x3 NOT ADD SLT PUSH2 0x16D JUMPI PUSH2 0xECB PUSH2 0x1F62 JUMP JUMPDEST CALLER PUSH1 0x0 MSTORE PUSH1 0x3 PUSH1 0x20 MSTORE PUSH1 0x40 PUSH1 0x0 KECCAK256 SLOAD DUP1 ISZERO PUSH2 0xF7B JUMPI CALLER PUSH1 0x0 MSTORE PUSH1 0x3 PUSH1 0x20 MSTORE PUSH1 0x0 PUSH1 0x40 DUP2 KECCAK256 SSTORE PUSH1 0x0 DUP1 DUP1 DUP1 DUP5 CALLER GAS CALL PUSH2 0xF01 PUSH2 0x1F32 JUMP JUMPDEST POP ISZERO PUSH2 0xF40 JUMPI PUSH1 0x40 MLOAD SWAP1 DUP2 MSTORE PUSH1 0x0 PUSH1 0x20 DUP3 ADD MSTORE PUSH32 0x6FE778711F06CA052305B633BA1B304F4D71C1523776F2AA3059D8D99F5420DE PUSH1 0x40 CALLER SWAP3 LOG2 PUSH1 0x1 DUP1 SSTORE STOP JUMPDEST PUSH1 0x40 MLOAD PUSH3 0x461BCD PUSH1 0xE5 SHL DUP2 MSTORE PUSH1 0x20 PUSH1 0x4 DUP3 ADD MSTORE PUSH1 0x13 PUSH1 0x24 DUP3 ADD MSTORE PUSH19 0x115512081D1C985B9CD9995C8819985A5B1959 PUSH1 0x6A SHL PUSH1 0x44 DUP3 ADD MSTORE PUSH1 0x64 SWAP1 REVERT JUMPDEST PUSH1 0x40 MLOAD PUSH3 0x461BCD PUSH1 0xE5 SHL DUP2 MSTORE PUSH1 0x20 PUSH1 0x4 DUP3 ADD MSTORE PUSH1 0x18 PUSH1 0x24 DUP3 ADD MSTORE PUSH32 0x4E6F2070656E64696E672045544820726F79616C746965730000000000000000 PUSH1 0x44 DUP3 ADD MSTORE PUSH1 0x64 SWAP1 REVERT JUMPDEST CALLVALUE PUSH2 0x16D JUMPI PUSH1 0x0 CALLDATASIZE PUSH1 0x3 NOT ADD SLT PUSH2 0x16D JUMPI PUSH1 0x0 SLOAD PUSH1 0x40 MLOAD PUSH1 0x1 PUSH1 0x1 PUSH1 0xA0 SHL SUB SWAP1 SWAP2 AND DUP2 MSTORE PUSH1 0x20 SWAP1 RETURN JUMPDEST CALLVALUE PUSH2 0x16D JUMPI PUSH1 0x20 CALLDATASIZE PUSH1 0x3 NOT ADD SLT PUSH2 0x16D JUMPI PUSH1 0x4 CALLDATALOAD PUSH1 0x1 PUSH1 0x1 PUSH1 0x40 SHL SUB DUP2 GT PUSH2 0x16D JUMPI PUSH2 0x1032 PUSH1 0x20 PUSH2 0x101F DUP2 SWAP4 CALLDATASIZE SWAP1 PUSH1 0x4 ADD PUSH2 0x190D JUMP JUMPDEST DUP2 PUSH1 0x40 MLOAD SWAP4 DUP3 DUP6 DUP1 SWAP5 MLOAD SWAP4 DUP5 SWAP3 ADD PUSH2 0x1954 JUMP JUMPDEST DUP2 ADD PUSH1 0x7 DUP2 MSTORE SUB ADD SWAP1 KECCAK256 SLOAD PUSH1 0x40 MLOAD SWAP1 DUP2 MSTORE RETURN JUMPDEST CALLVALUE PUSH2 0x16D JUMPI PUSH1 0x0 CALLDATASIZE PUSH1 0x3 NOT ADD SLT PUSH2 0x16D JUMPI PUSH2 0x105E PUSH2 0x1B67 JUMP JUMPDEST PUSH1 0x0 DUP1 SLOAD PUSH1 0x1 PUSH1 0x1 PUSH1 0xA0 SHL SUB NOT DUP2 AND DUP3 SSTORE PUSH1 0x1 PUSH1 0x1 PUSH1 0xA0 SHL SUB AND PUSH32 0x8BE0079C531659141344CD1FD0A4F28419497F9722A3DAAFE3B4186F6B6457E0 DUP3 DUP1 LOG3 STOP JUMPDEST CALLVALUE PUSH2 0x16D JUMPI PUSH1 0x60 CALLDATASIZE PUSH1 0x3 NOT ADD SLT PUSH2 0x16D JUMPI PUSH1 0x1 PUSH1 0x1 PUSH1 0x40 SHL SUB PUSH1 0x4 CALLDATALOAD DUP2 DUP2 GT PUSH2 0x16D JUMPI PUSH2 0x10CF SWAP1 CALLDATASIZE SWAP1 PUSH1 0x4 ADD PUSH2 0x190D JUMP JUMPDEST SWAP1 PUSH1 0x24 CALLDATALOAD DUP2 DUP2 GT PUSH2 0x16D JUMPI PUSH2 0x10E8 SWAP1 CALLDATASIZE SWAP1 PUSH1 0x4 ADD PUSH2 0x1AB9 JUMP JUMPDEST SWAP1 PUSH1 0x44 CALLDATALOAD SWAP1 DUP2 GT PUSH2 0x16D JUMPI PUSH2 0x1101 SWAP1 CALLDATASIZE SWAP1 PUSH1 0x4 ADD PUSH2 0x1AB9 JUMP JUMPDEST SWAP2 PUSH1 0xFF PUSH1 0x2 PUSH1 0x40 MLOAD PUSH1 0x20 DUP2 DUP6 MLOAD PUSH2 0x111B DUP2 DUP4 DUP6 DUP11 ADD PUSH2 0x1954 JUMP JUMPDEST DUP2 ADD PUSH1 0x5 DUP2 MSTORE SUB ADD SWAP1 KECCAK256 ADD SLOAD AND PUSH2 0x13CB JUMPI PUSH1 0x40 MLOAD PUSH1 0x20 DUP2 DUP4 MLOAD PUSH2 0x1141 DUP2 DUP4 DUP6 DUP9 ADD PUSH2 0x1954 JUMP JUMPDEST DUP2 ADD PUSH1 0x5 DUP2 MSTORE SUB ADD SWAP1 KECCAK256 PUSH2 0x1155 DUP3 DUP3 PUSH2 0x1B93 JUMP JUMPDEST PUSH1 0x2 DUP2 ADD DUP1 SLOAD PUSH1 0xFF NOT AND PUSH1 0x1 OR SWAP1 SSTORE PUSH1 0x0 JUMPDEST DUP5 MLOAD DUP2 LT ISZERO PUSH2 0x11EA JUMPI PUSH1 0x40 MLOAD PUSH1 0x20 DUP2 DUP6 MLOAD PUSH2 0x1185 DUP2 DUP4 DUP6 DUP11 ADD PUSH2 0x1954 JUMP JUMPDEST DUP2 ADD PUSH1 0x8 DUP2 MSTORE SUB ADD SWAP1 KECCAK256 SWAP1 PUSH2 0x119A DUP2 DUP8 PUSH2 0x1CC7 JUMP JUMPDEST MLOAD SWAP2 DUP1 SLOAD PUSH1 0x1 PUSH1 0x40 SHL DUP2 LT ISZERO PUSH2 0x11D4 JUMPI PUSH2 0x11B9 SWAP2 PUSH1 0x1 DUP3 ADD DUP2 SSTORE PUSH2 0x1B39 JUMP JUMPDEST PUSH2 0xE34 JUMPI PUSH2 0x11CF SWAP3 PUSH2 0x11CA SWAP2 PUSH2 0x1B93 JUMP JUMPDEST PUSH2 0x1CA2 JUMP JUMPDEST PUSH2 0x1167 JUMP JUMPDEST PUSH4 0x4E487B71 PUSH1 0xE0 SHL PUSH1 0x0 MSTORE PUSH1 0x41 PUSH1 0x4 MSTORE PUSH1 0x24 PUSH1 0x0 REVERT JUMPDEST POP SWAP3 SWAP1 SWAP2 PUSH1 0x0 SWAP2 JUMPDEST DUP2 MLOAD DUP4 LT ISZERO PUSH2 0x1393 JUMPI PUSH1 0x2 SLOAD PUSH2 0x123C SWAP1 PUSH1 0x40 SWAP1 PUSH1 0x1 PUSH1 0x1 PUSH1 0xA0 SHL SUB AND PUSH2 0x1218 DUP7 DUP7 PUSH2 0x1CC7 JUMP JUMPDEST MLOAD SWAP1 DUP3 MLOAD DUP1 DUP1 SWAP6 DUP2 SWAP5 PUSH4 0xEDD91367 PUSH1 0xE0 SHL DUP4 MSTORE PUSH1 0x20 PUSH1 0x4 DUP5 ADD MSTORE PUSH1 0x24 DUP4 ADD SWAP1 PUSH2 0x1A7D JUMP JUMPDEST SUB SWAP2 GAS STATICCALL SWAP2 DUP3 ISZERO PUSH2 0x5F2 JUMPI PUSH1 0x0 SWAP2 PUSH1 0x0 SWAP4 PUSH2 0x1358 JUMPI JUMPDEST POP PUSH1 0x0 SWAP6 PUSH1 0x0 JUMPDEST DUP3 MLOAD DUP2 LT ISZERO PUSH2 0x134D JUMPI PUSH2 0x126C DUP2 DUP5 PUSH2 0x1CC7 JUMP JUMPDEST MLOAD PUSH1 0x20 DUP2 MLOAD SWAP2 ADD KECCAK256 PUSH2 0x127E DUP9 DUP9 PUSH2 0x1CC7 JUMP JUMPDEST MLOAD PUSH1 0x20 DUP2 MLOAD SWAP2 ADD KECCAK256 EQ PUSH2 0x1299 JUMPI PUSH2 0x1294 SWAP1 PUSH2 0x1CA2 JUMP JUMPDEST PUSH2 0x1259 JUMP JUMPDEST POP SWAP5 SWAP2 SWAP1 SWAP6 POP PUSH1 0x1 SWAP1 JUMPDEST PUSH2 0x12AD DUP4 DUP7 PUSH2 0x1CC7 JUMP JUMPDEST MLOAD SWAP1 PUSH1 0x40 MLOAD SWAP2 PUSH2 0x12BC DUP4 PUSH2 0x18B6 JUMP JUMPDEST DUP3 MSTORE PUSH1 0x20 DUP3 ADD SWAP5 PUSH2 0x2710 DUP7 MSTORE PUSH1 0x40 DUP4 ADD SWAP2 DUP3 MSTORE PUSH1 0x60 DUP4 ADD SWAP1 DUP2 MSTORE PUSH1 0x80 DUP4 ADD SWAP4 ISZERO ISZERO DUP5 MSTORE PUSH1 0x1 DUP11 ADD SLOAD PUSH1 0x1 PUSH1 0x40 SHL DUP2 LT ISZERO PUSH2 0x11D4 JUMPI DUP1 PUSH1 0x1 PUSH2 0x1306 SWAP3 ADD PUSH1 0x1 DUP14 ADD SSTORE PUSH1 0x1 DUP13 ADD PUSH2 0x1CDB JUMP JUMPDEST SWAP3 SWAP1 SWAP3 PUSH2 0xE34 JUMPI PUSH2 0x1346 SWAP7 PUSH2 0x131E PUSH1 0x4 SWAP6 MLOAD DUP6 PUSH2 0x1B93 JUMP JUMPDEST MLOAD PUSH1 0x1 DUP5 ADD SSTORE MLOAD PUSH1 0x2 DUP4 ADD SSTORE MLOAD PUSH1 0x3 DUP3 ADD SSTORE ADD SWAP1 MLOAD ISZERO ISZERO PUSH1 0xFF DUP1 NOT DUP4 SLOAD AND SWAP2 AND OR SWAP1 SSTORE PUSH2 0x1CA2 JUMP JUMPDEST SWAP2 SWAP3 PUSH2 0x11F2 JUMP JUMPDEST POP SWAP5 SWAP2 SWAP6 SWAP1 SWAP6 PUSH2 0x12A3 JUMP JUMPDEST SWAP2 POP SWAP2 POP PUSH1 0x40 DUP2 RETURNDATASIZE PUSH1 0x40 GT PUSH2 0x138B JUMPI JUMPDEST DUP2 PUSH2 0x1375 PUSH1 0x40 SWAP4 DUP4 PUSH2 0x18D1 JUMP JUMPDEST DUP2 ADD SUB SLT PUSH2 0x16D JUMPI PUSH1 0x20 DUP2 MLOAD SWAP2 ADD MLOAD SWAP2 DUP8 PUSH2 0x1252 JUMP JUMPDEST RETURNDATASIZE SWAP2 POP PUSH2 0x1368 JUMP JUMPDEST DUP2 MLOAD PUSH32 0x92DA81CC62C0EFA31ECF38ECBDD2FB28ADD3E9AF1063DDE557CB388D8F9B3EF2 PUSH1 0x20 PUSH2 0x13C1 DUP8 PUSH2 0x1CF7 JUMP JUMPDEST SWAP3 PUSH1 0x40 MLOAD SWAP1 DUP2 MSTORE LOG2 STOP JUMPDEST PUSH1 0x40 MLOAD PUSH3 0x461BCD PUSH1 0xE5 SHL DUP2 MSTORE PUSH1 0x20 PUSH1 0x4 DUP3 ADD MSTORE PUSH1 0x1C PUSH1 0x24 DUP3 ADD MSTORE PUSH32 0x526F79616C7469657320616C7265616479207265676973746572656400000000 PUSH1 0x44 DUP3 ADD MSTORE PUSH1 0x64 SWAP1 REVERT JUMPDEST CALLVALUE PUSH2 0x16D JUMPI PUSH1 0x20 CALLDATASIZE PUSH1 0x3 NOT ADD SLT PUSH2 0x16D JUMPI PUSH1 0x4 CALLDATALOAD PUSH1 0x1 PUSH1 0x1 PUSH1 0xA0 SHL SUB DUP2 AND SWAP1 DUP2 SWAP1 SUB PUSH2 0x16D JUMPI PUSH1 0x0 MSTORE PUSH1 0x4 PUSH1 0x20 MSTORE PUSH1 0x20 PUSH1 0x40 PUSH1 0x0 KECCAK256 SLOAD PUSH1 0x40 MLOAD SWAP1 DUP2 MSTORE RETURN JUMPDEST CALLVALUE PUSH2 0x16D JUMPI PUSH1 0x20 DUP1 PUSH1 0x3 NOT CALLDATASIZE ADD SLT PUSH2 0x16D JUMPI PUSH1 0x4 CALLDATALOAD PUSH1 0x1 PUSH1 0x1 PUSH1 0x40 SHL SUB DUP2 GT PUSH2 0x16D JUMPI PUSH2 0x147F SWAP1 CALLDATASIZE SWAP1 PUSH1 0x4 ADD PUSH2 0x190D JUMP JUMPDEST SWAP1 DUP1 PUSH2 0x1494 PUSH1 0x40 MLOAD SWAP4 DUP5 DUP2 MLOAD SWAP4 DUP5 SWAP3 ADD PUSH2 0x1954 JUMP JUMPDEST DUP3 ADD PUSH1 0x5 SWAP1 DUP2 DUP2 MSTORE DUP4 DUP4 PUSH1 0x1 SWAP6 DUP7 SWAP4 SUB ADD SWAP1 KECCAK256 ADD SWAP1 DUP2 SLOAD SWAP4 PUSH2 0x14B5 DUP6 PUSH2 0x1AA2 JUMP JUMPDEST SWAP5 PUSH2 0x14C3 PUSH1 0x40 MLOAD SWAP7 DUP8 PUSH2 0x18D1 JUMP JUMPDEST DUP1 DUP7 MSTORE DUP5 DUP7 ADD DUP1 SWAP5 PUSH1 0x0 MSTORE DUP6 PUSH1 0x0 KECCAK256 PUSH1 0x0 SWAP2 JUMPDEST DUP4 DUP4 LT PUSH2 0x1574 JUMPI POP POP POP POP PUSH1 0x40 MLOAD SWAP5 DUP5 DUP7 SWAP6 DUP7 ADD SWAP2 DUP2 DUP8 MSTORE MLOAD DUP1 SWAP3 MSTORE PUSH1 0x40 DUP3 DUP2 DUP9 ADD SWAP6 SHL DUP8 ADD ADD SWAP5 SWAP4 PUSH1 0x0 SWAP1 JUMPDEST DUP4 DUP3 LT PUSH2 0x1510 JUMPI DUP8 DUP8 SUB DUP9 RETURN JUMPDEST SWAP2 DUP5 SWAP7 DUP2 SWAP6 SWAP3 SWAP5 SWAP7 SWAP9 POP DUP2 SWAP1 PUSH1 0x3F NOT DUP12 DUP3 SUB ADD DUP6 MSTORE DUP10 MLOAD SWAP1 PUSH2 0x153A DUP3 MLOAD PUSH1 0xA0 DUP1 DUP5 MSTORE DUP4 ADD SWAP1 PUSH2 0x1A7D JUMP JUMPDEST SWAP2 DUP4 DUP2 ADD MLOAD DUP5 DUP4 ADD MSTORE PUSH1 0x40 DUP2 ADD MLOAD PUSH1 0x40 DUP4 ADD MSTORE PUSH1 0x60 DUP1 DUP3 ADD MLOAD SWAP1 DUP4 ADD MSTORE PUSH1 0x80 DUP1 SWAP2 ADD MLOAD ISZERO ISZERO SWAP2 ADD MSTORE SWAP9 ADD SWAP3 ADD SWAP3 ADD DUP8 SWAP7 SWAP6 SWAP4 SWAP2 SWAP5 SWAP3 PUSH2 0x1503 JUMP JUMPDEST SWAP4 DUP6 DUP9 DUP3 SWAP9 SWAP10 SWAP7 PUSH2 0x1587 DUP6 SWAP13 SWAP10 SWAP13 PUSH2 0x1D17 JUMP JUMPDEST DUP2 MSTORE ADD SWAP3 ADD SWAP3 ADD SWAP2 SWAP1 SWAP8 SWAP5 SWAP8 SWAP7 SWAP6 SWAP4 SWAP7 PUSH2 0x14D6 JUMP JUMPDEST CALLVALUE PUSH2 0x16D JUMPI PUSH1 0x20 CALLDATASIZE PUSH1 0x3 NOT ADD SLT PUSH2 0x16D JUMPI PUSH1 0x4 CALLDATALOAD PUSH1 0x1 PUSH1 0x1 PUSH1 0x40 SHL SUB DUP2 GT PUSH2 0x16D JUMPI PUSH2 0x15D4 PUSH1 0x20 PUSH2 0x101F PUSH2 0x1603 SWAP4 CALLDATASIZE SWAP1 PUSH1 0x4 ADD PUSH2 0x190D JUMP JUMPDEST DUP2 ADD PUSH1 0x5 DUP2 MSTORE SUB ADD SWAP1 KECCAK256 PUSH1 0xFF PUSH1 0x2 PUSH2 0x15EB DUP4 PUSH2 0x19D7 JUMP JUMPDEST SWAP3 ADD SLOAD AND PUSH1 0x40 MLOAD SWAP3 DUP4 SWAP3 PUSH1 0x40 DUP5 MSTORE PUSH1 0x40 DUP5 ADD SWAP1 PUSH2 0x1A7D JUMP JUMPDEST SWAP1 ISZERO ISZERO PUSH1 0x20 DUP4 ADD MSTORE SUB SWAP1 RETURN JUMPDEST CALLVALUE PUSH2 0x16D JUMPI PUSH1 0x0 CALLDATASIZE PUSH1 0x3 NOT ADD SLT PUSH2 0x16D JUMPI PUSH1 0x20 PUSH1 0x40 MLOAD PUSH2 0x3E8 DUP2 MSTORE RETURN JUMPDEST CALLVALUE PUSH2 0x16D JUMPI PUSH1 0x20 CALLDATASIZE PUSH1 0x3 NOT ADD SLT PUSH2 0x16D JUMPI PUSH1 0x4 CALLDATALOAD PUSH1 0x1 PUSH1 0x1 PUSH1 0x40 SHL SUB DUP2 GT PUSH2 0x16D JUMPI PUSH2 0x1662 PUSH1 0x20 PUSH2 0x101F DUP2 SWAP4 CALLDATASIZE SWAP1 PUSH1 0x4 ADD PUSH2 0x190D JUMP JUMPDEST DUP2 ADD PUSH1 0x6 DUP2 MSTORE SUB ADD SWAP1 KECCAK256 SLOAD PUSH1 0x40 MLOAD SWAP1 DUP2 MSTORE RETURN JUMPDEST CALLVALUE PUSH2 0x16D JUMPI PUSH1 0x0 CALLDATASIZE PUSH1 0x3 NOT ADD SLT PUSH2 0x16D JUMPI PUSH2 0x168E PUSH2 0x1F62 JUMP JUMPDEST CALLER PUSH1 0x0 MSTORE PUSH1 0x20 PUSH1 0x4 DUP2 MSTORE PUSH1 0x40 PUSH1 0x0 KECCAK256 SLOAD DUP1 ISZERO PUSH2 0x17A3 JUMPI CALLER PUSH1 0x0 MSTORE PUSH1 0x4 DUP3 MSTORE PUSH1 0x0 PUSH1 0x40 DUP2 KECCAK256 SSTORE PUSH1 0x40 MLOAD PUSH4 0xA9059CBB PUSH1 0xE0 SHL DUP2 MSTORE CALLER PUSH1 0x4 DUP3 ADD MSTORE DUP2 PUSH1 0x24 DUP3 ADD MSTORE DUP3 DUP2 PUSH1 0x44 DUP2 PUSH1 0x0 PUSH1 0x1 DUP1 PUSH1 0xA0 SHL SUB PUSH32 0x0 AND GAS CALL SWAP1 DUP2 ISZERO PUSH2 0x5F2 JUMPI PUSH1 0x0 SWAP2 PUSH2 0x1786 JUMPI JUMPDEST POP ISZERO PUSH2 0x174A JUMPI PUSH1 0x40 MLOAD SWAP2 PUSH1 0x0 DUP4 MSTORE DUP3 ADD MSTORE PUSH32 0x6FE778711F06CA052305B633BA1B304F4D71C1523776F2AA3059D8D99F5420DE PUSH1 0x40 CALLER SWAP3 LOG2 PUSH1 0x1 DUP1 SSTORE STOP JUMPDEST PUSH1 0x40 MLOAD PUSH3 0x461BCD PUSH1 0xE5 SHL DUP2 MSTORE PUSH1 0x4 DUP2 ADD DUP4 SWAP1 MSTORE PUSH1 0x14 PUSH1 0x24 DUP3 ADD MSTORE PUSH20 0x1554D110C81D1C985B9CD9995C8819985A5B1959 PUSH1 0x62 SHL PUSH1 0x44 DUP3 ADD MSTORE PUSH1 0x64 SWAP1 REVERT JUMPDEST PUSH2 0x179D SWAP2 POP DUP4 RETURNDATASIZE DUP6 GT PUSH2 0xBC0 JUMPI PUSH2 0xBB2 DUP2 DUP4 PUSH2 0x18D1 JUMP JUMPDEST DUP4 PUSH2 0x170D JUMP JUMPDEST PUSH1 0x40 MLOAD PUSH3 0x461BCD PUSH1 0xE5 SHL DUP2 MSTORE PUSH1 0x4 DUP2 ADD DUP4 SWAP1 MSTORE PUSH1 0x19 PUSH1 0x24 DUP3 ADD MSTORE PUSH32 0x4E6F2070656E64696E67205553444320726F79616C7469657300000000000000 PUSH1 0x44 DUP3 ADD MSTORE PUSH1 0x64 SWAP1 REVERT JUMPDEST CALLVALUE PUSH2 0x16D JUMPI PUSH1 0x20 CALLDATASIZE PUSH1 0x3 NOT ADD SLT PUSH2 0x16D JUMPI PUSH1 0x4 CALLDATALOAD PUSH1 0x1 PUSH1 0x1 PUSH1 0xA0 SHL SUB DUP2 AND SWAP1 DUP2 SWAP1 SUB PUSH2 0x16D JUMPI PUSH1 0x0 MSTORE PUSH1 0x3 PUSH1 0x20 MSTORE PUSH1 0x20 PUSH1 0x40 PUSH1 0x0 KECCAK256 SLOAD PUSH1 0x40 MLOAD SWAP1 DUP2 MSTORE RETURN JUMPDEST CALLVALUE PUSH2 0x16D JUMPI PUSH1 0x0 CALLDATASIZE PUSH1 0x3 NOT ADD SLT PUSH2 0x16D JUMPI PUSH1 0x40 MLOAD PUSH32 0x0 PUSH1 0x1 PUSH1 0x1 PUSH1 0xA0 SHL SUB AND DUP2 MSTORE PUSH1 0x20 SWAP1 RETURN JUMPDEST CALLVALUE PUSH2 0x16D JUMPI PUSH1 0x20 CALLDATASIZE PUSH1 0x3 NOT ADD SLT PUSH2 0x16D JUMPI PUSH1 0x4 CALLDATALOAD PUSH1 0x1 PUSH1 0x1 PUSH1 0xA0 SHL SUB DUP2 AND SWAP2 SWAP1 DUP3 SWAP1 SUB PUSH2 0x16D JUMPI PUSH1 0x40 SWAP2 PUSH1 0x0 MSTORE PUSH1 0x3 PUSH1 0x20 MSTORE DUP2 PUSH1 0x0 KECCAK256 SLOAD PUSH1 0x4 PUSH1 0x20 MSTORE DUP3 PUSH1 0x0 KECCAK256 SLOAD SWAP1 DUP3 MSTORE PUSH1 0x20 DUP3 ADD MSTORE RETURN JUMPDEST PUSH1 0xA0 DUP2 ADD SWAP1 DUP2 LT PUSH1 0x1 PUSH1 0x1 PUSH1 0x40 SHL SUB DUP3 GT OR PUSH2 0x11D4 JUMPI PUSH1 0x40 MSTORE JUMP JUMPDEST SWAP1 PUSH1 0x1F DUP1 NOT SWAP2 ADD AND DUP2 ADD SWAP1 DUP2 LT PUSH1 0x1 PUSH1 0x1 PUSH1 0x40 SHL SUB DUP3 GT OR PUSH2 0x11D4 JUMPI PUSH1 0x40 MSTORE JUMP JUMPDEST PUSH1 0x1 PUSH1 0x1 PUSH1 0x40 SHL SUB DUP2 GT PUSH2 0x11D4 JUMPI PUSH1 0x1F ADD PUSH1 0x1F NOT AND PUSH1 0x20 ADD SWAP1 JUMP JUMPDEST DUP2 PUSH1 0x1F DUP3 ADD SLT ISZERO PUSH2 0x16D JUMPI DUP1 CALLDATALOAD SWAP1 PUSH2 0x1924 DUP3 PUSH2 0x18F2 JUMP JUMPDEST SWAP3 PUSH2 0x1932 PUSH1 0x40 MLOAD SWAP5 DUP6 PUSH2 0x18D1 JUMP JUMPDEST DUP3 DUP5 MSTORE PUSH1 0x20 DUP4 DUP4 ADD ADD GT PUSH2 0x16D JUMPI DUP2 PUSH1 0x0 SWAP3 PUSH1 0x20 DUP1 SWAP4 ADD DUP4 DUP7 ADD CALLDATACOPY DUP4 ADD ADD MSTORE SWAP1 JUMP JUMPDEST PUSH1 0x0 JUMPDEST DUP4 DUP2 LT PUSH2 0x1967 JUMPI POP POP PUSH1 0x0 SWAP2 ADD MSTORE JUMP JUMPDEST DUP2 DUP2 ADD MLOAD DUP4 DUP3 ADD MSTORE PUSH1 0x20 ADD PUSH2 0x1957 JUMP JUMPDEST PUSH1 0x20 PUSH2 0x1990 SWAP2 DUP2 PUSH1 0x40 MLOAD SWAP4 DUP3 DUP6 DUP1 SWAP5 MLOAD SWAP4 DUP5 SWAP3 ADD PUSH2 0x1954 JUMP JUMPDEST DUP2 ADD PUSH1 0x5 DUP2 MSTORE SUB ADD SWAP1 KECCAK256 SWAP1 JUMP JUMPDEST SWAP1 PUSH1 0x1 DUP3 DUP2 SHR SWAP3 AND DUP1 ISZERO PUSH2 0x19CD JUMPI JUMPDEST PUSH1 0x20 DUP4 LT EQ PUSH2 0x19B7 JUMPI JUMP JUMPDEST PUSH4 0x4E487B71 PUSH1 0xE0 SHL PUSH1 0x0 MSTORE PUSH1 0x22 PUSH1 0x4 MSTORE PUSH1 0x24 PUSH1 0x0 REVERT JUMPDEST SWAP2 PUSH1 0x7F AND SWAP2 PUSH2 0x19AC JUMP JUMPDEST SWAP1 PUSH1 0x40 MLOAD SWAP2 DUP3 PUSH1 0x0 DUP3 SLOAD SWAP3 PUSH2 0x19EB DUP5 PUSH2 0x199D JUMP JUMPDEST SWAP1 DUP2 DUP5 MSTORE PUSH1 0x1 SWAP5 DUP6 DUP2 AND SWAP1 DUP2 PUSH1 0x0 EQ PUSH2 0x1A5A JUMPI POP PUSH1 0x1 EQ PUSH2 0x1A17 JUMPI JUMPDEST POP POP PUSH2 0x1A15 SWAP3 POP SUB DUP4 PUSH2 0x18D1 JUMP JUMPDEST JUMP JUMPDEST SWAP1 SWAP4 SWAP2 POP PUSH1 0x0 MSTORE PUSH1 0x20 SWAP1 DUP2 PUSH1 0x0 KECCAK256 SWAP4 PUSH1 0x0 SWAP2 JUMPDEST DUP2 DUP4 LT PUSH2 0x1A42 JUMPI POP POP PUSH2 0x1A15 SWAP4 POP DUP3 ADD ADD CODESIZE DUP1 PUSH2 0x1A07 JUMP JUMPDEST DUP6 SLOAD DUP9 DUP5 ADD DUP6 ADD MSTORE SWAP5 DUP6 ADD SWAP5 DUP8 SWAP5 POP SWAP2 DUP4 ADD SWAP2 PUSH2 0x1A2A JUMP JUMPDEST SWAP2 POP POP PUSH2 0x1A15 SWAP5 POP PUSH1 0x20 SWAP3 POP PUSH1 0xFF NOT AND DUP3 DUP5 ADD MSTORE ISZERO ISZERO PUSH1 0x5 SHL DUP3 ADD ADD CODESIZE DUP1 PUSH2 0x1A07 JUMP JUMPDEST SWAP1 PUSH1 0x20 SWAP2 PUSH2 0x1A96 DUP2 MLOAD DUP1 SWAP3 DUP2 DUP6 MSTORE DUP6 DUP1 DUP7 ADD SWAP2 ADD PUSH2 0x1954 JUMP JUMPDEST PUSH1 0x1F ADD PUSH1 0x1F NOT AND ADD ADD SWAP1 JUMP JUMPDEST PUSH1 0x1 PUSH1 0x1 PUSH1 0x40 SHL SUB DUP2 GT PUSH2 0x11D4 JUMPI PUSH1 0x5 SHL PUSH1 0x20 ADD SWAP1 JUMP JUMPDEST SWAP1 DUP1 PUSH1 0x1F DUP4 ADD SLT ISZERO PUSH2 0x16D JUMPI DUP2 CALLDATALOAD SWAP1 PUSH2 0x1AD1 DUP3 PUSH2 0x1AA2 JUMP JUMPDEST SWAP3 PUSH2 0x1ADF PUSH1 0x40 MLOAD SWAP5 DUP6 PUSH2 0x18D1 JUMP JUMPDEST DUP3 DUP5 MSTORE PUSH1 0x20 SWAP3 DUP4 DUP1 DUP7 ADD SWAP2 PUSH1 0x5 SHL DUP4 ADD ADD SWAP3 DUP1 DUP5 GT PUSH2 0x16D JUMPI DUP5 DUP4 ADD SWAP2 JUMPDEST DUP5 DUP4 LT PUSH2 0x1B0D JUMPI POP POP POP POP POP POP SWAP1 JUMP JUMPDEST DUP3 CALLDATALOAD PUSH1 0x1 PUSH1 0x1 PUSH1 0x40 SHL SUB DUP2 GT PUSH2 0x16D JUMPI DUP7 SWAP2 PUSH2 0x1B2E DUP5 DUP5 DUP1 SWAP5 DUP10 ADD ADD PUSH2 0x190D JUMP JUMPDEST DUP2 MSTORE ADD SWAP3 ADD SWAP2 PUSH2 0x1AFD JUMP JUMPDEST DUP1 SLOAD DUP3 LT ISZERO PUSH2 0x1B51 JUMPI PUSH1 0x0 MSTORE PUSH1 0x20 PUSH1 0x0 KECCAK256 ADD SWAP1 PUSH1 0x0 SWAP1 JUMP JUMPDEST PUSH4 0x4E487B71 PUSH1 0xE0 SHL PUSH1 0x0 MSTORE PUSH1 0x32 PUSH1 0x4 MSTORE PUSH1 0x24 PUSH1 0x0 REVERT JUMPDEST PUSH1 0x0 SLOAD PUSH1 0x1 PUSH1 0x1 PUSH1 0xA0 SHL SUB AND CALLER SUB PUSH2 0x1B7B JUMPI JUMP JUMPDEST PUSH1 0x40 MLOAD PUSH4 0x118CDAA7 PUSH1 0xE0 SHL DUP2 MSTORE CALLER PUSH1 0x4 DUP3 ADD MSTORE PUSH1 0x24 SWAP1 REVERT JUMPDEST SWAP2 SWAP1 SWAP2 DUP3 MLOAD PUSH1 0x1 PUSH1 0x1 PUSH1 0x40 SHL SUB DUP2 GT PUSH2 0x11D4 JUMPI PUSH2 0x1BB0 DUP3 SLOAD PUSH2 0x199D JUMP JUMPDEST PUSH1 0x1F DUP2 GT PUSH2 0x1C5A JUMPI JUMPDEST POP PUSH1 0x20 DUP1 PUSH1 0x1F DUP4 GT PUSH1 0x1 EQ PUSH2 0x1BF6 JUMPI POP DUP2 SWAP3 SWAP4 SWAP5 PUSH1 0x0 SWAP3 PUSH2 0x1BEB JUMPI JUMPDEST POP POP DUP2 PUSH1 0x1 SHL SWAP2 PUSH1 0x0 NOT SWAP1 PUSH1 0x3 SHL SHR NOT AND OR SWAP1 SSTORE JUMP JUMPDEST ADD MLOAD SWAP1 POP CODESIZE DUP1 PUSH2 0x1BD5 JUMP JUMPDEST SWAP1 PUSH1 0x1F NOT DUP4 AND SWAP6 DUP5 PUSH1 0x0 MSTORE DUP3 PUSH1 0x0 KECCAK256 SWAP3 PUSH1 0x0 SWAP1 JUMPDEST DUP9 DUP3 LT PUSH2 0x1C42 JUMPI POP POP DUP4 PUSH1 0x1 SWAP6 SWAP7 SWAP8 LT PUSH2 0x1C29 JUMPI JUMPDEST POP POP POP DUP2 SHL ADD SWAP1 SSTORE JUMP JUMPDEST ADD MLOAD PUSH1 0x0 NOT PUSH1 0xF8 DUP5 PUSH1 0x3 SHL AND SHR NOT AND SWAP1 SSTORE CODESIZE DUP1 DUP1 PUSH2 0x1C1F JUMP JUMPDEST DUP1 PUSH1 0x1 DUP6 SWAP7 DUP3 SWAP5 SWAP7 DUP7 ADD MLOAD DUP2 SSTORE ADD SWAP6 ADD SWAP4 ADD SWAP1 PUSH2 0x1C0A JUMP JUMPDEST PUSH1 0x0 DUP4 DUP2 MSTORE PUSH1 0x20 DUP2 KECCAK256 PUSH1 0x1F DUP5 ADD PUSH1 0x5 SHR DUP2 ADD SWAP3 PUSH1 0x20 DUP6 LT PUSH2 0x1C98 JUMPI JUMPDEST PUSH1 0x1F ADD PUSH1 0x5 SHR ADD SWAP2 JUMPDEST DUP3 DUP2 LT PUSH2 0x1C8D JUMPI POP POP PUSH2 0x1BB9 JUMP JUMPDEST DUP2 DUP2 SSTORE PUSH1 0x1 ADD PUSH2 0x1C7F JUMP JUMPDEST SWAP1 SWAP3 POP DUP3 SWAP1 PUSH2 0x1C76 JUMP JUMPDEST PUSH1 0x0 NOT DUP2 EQ PUSH2 0x1CB1 JUMPI PUSH1 0x1 ADD SWAP1 JUMP JUMPDEST PUSH4 0x4E487B71 PUSH1 0xE0 SHL PUSH1 0x0 MSTORE PUSH1 0x11 PUSH1 0x4 MSTORE PUSH1 0x24 PUSH1 0x0 REVERT JUMPDEST DUP1 MLOAD DUP3 LT ISZERO PUSH2 0x1B51 JUMPI PUSH1 0x20 SWAP2 PUSH1 0x5 SHL ADD ADD SWAP1 JUMP JUMPDEST DUP1 SLOAD DUP3 LT ISZERO PUSH2 0x1B51 JUMPI PUSH1 0x0 MSTORE PUSH1 0x5 PUSH1 0x20 PUSH1 0x0 KECCAK256 SWAP2 MUL ADD SWAP1 PUSH1 0x0 SWAP1 JUMP JUMPDEST PUSH2 0x1D0F SWAP1 PUSH1 0x20 PUSH1 0x40 MLOAD SWAP3 DUP3 DUP5 DUP1 SWAP5 MLOAD SWAP4 DUP5 SWAP3 ADD PUSH2 0x1954 JUMP JUMPDEST DUP2 ADD SUB SWAP1 KECCAK256 SWAP1 JUMP JUMPDEST SWAP1 PUSH1 0x40 MLOAD PUSH2 0x1D24 DUP2 PUSH2 0x18B6 JUMP JUMPDEST PUSH1 0x80 PUSH1 0xFF PUSH1 0x4 DUP4 SWAP6 PUSH2 0x1D35 DUP2 PUSH2 0x19D7 JUMP JUMPDEST DUP6 MSTORE PUSH1 0x1 DUP2 ADD SLOAD PUSH1 0x20 DUP7 ADD MSTORE PUSH1 0x2 DUP2 ADD SLOAD PUSH1 0x40 DUP7 ADD MSTORE PUSH1 0x3 DUP2 ADD SLOAD PUSH1 0x60 DUP7 ADD MSTORE ADD SLOAD AND ISZERO ISZERO SWAP2 ADD MSTORE JUMP JUMPDEST SWAP1 DUP2 PUSH1 0x20 SWAP2 SUB SLT PUSH2 0x16D JUMPI MLOAD PUSH1 0x1 PUSH1 0x1 PUSH1 0xA0 SHL SUB DUP2 AND DUP2 SUB PUSH2 0x16D JUMPI SWAP1 JUMP JUMPDEST SWAP2 SWAP1 DUP3 ADD DUP1 SWAP3 GT PUSH2 0x1CB1 JUMPI JUMP JUMPDEST SWAP1 PUSH1 0x0 DUP1 DUP1 SWAP4 PUSH1 0x40 DUP1 MLOAD DUP3 DUP2 DUP1 SWAP5 MLOAD PUSH2 0x1DAA DUP2 PUSH1 0x20 SWAP8 DUP9 DUP1 SWAP7 ADD PUSH2 0x1954 JUMP JUMPDEST DUP2 ADD PUSH1 0x5 DUP2 MSTORE SUB ADD SWAP1 KECCAK256 SWAP2 PUSH1 0xFF PUSH1 0x2 DUP5 ADD SLOAD AND ISZERO PUSH2 0x1EA8 JUMPI PUSH1 0x1 SWAP1 SWAP3 ADD DUP1 SLOAD PUSH1 0x2 SLOAD SWAP1 SWAP4 PUSH1 0x1 PUSH1 0x1 PUSH1 0xA0 SHL SUB SWAP2 DUP3 AND SWAP3 DUP7 JUMPDEST DUP7 DUP2 LT PUSH2 0x1DEF JUMPI POP POP POP POP POP POP POP POP SWAP2 SWAP1 JUMP JUMPDEST PUSH2 0x1DFC PUSH2 0x397 DUP3 DUP5 PUSH2 0x1CDB JUMP JUMPDEST PUSH1 0x80 DUP2 ADD MLOAD ISZERO PUSH2 0x1E49 JUMPI PUSH2 0x1E2C DUP5 DUP3 MLOAD DUP10 MLOAD DUP1 SWAP4 DUP2 SWAP3 PUSH4 0xD55A772D PUSH1 0xE0 SHL DUP4 MSTORE DUP5 PUSH1 0x4 DUP5 ADD MSTORE PUSH1 0x24 DUP4 ADD SWAP1 PUSH2 0x1A7D JUMP JUMPDEST SUB DUP2 DUP11 GAS STATICCALL SWAP1 DUP2 ISZERO PUSH2 0x1E9E JUMPI SWAP1 DUP7 SWAP2 DUP12 SWAP2 PUSH2 0x1E81 JUMPI JUMPDEST POP AND PUSH2 0x1E58 JUMPI JUMPDEST POP PUSH2 0x1E53 SWAP1 PUSH2 0x1CA2 JUMP JUMPDEST PUSH2 0x1DDC JUMP JUMPDEST SWAP9 PUSH2 0x1E53 SWAP2 SWAP12 PUSH1 0x60 PUSH2 0x1E71 PUSH2 0x1E7A SWAP4 DUP11 DUP15 ADD MLOAD SWAP1 PUSH2 0x1D7E JUMP JUMPDEST SWAP12 ADD MLOAD SWAP1 PUSH2 0x1D7E JUMP JUMPDEST SWAP11 SWAP1 PUSH2 0x1E49 JUMP JUMPDEST PUSH2 0x1E98 SWAP2 POP DUP7 RETURNDATASIZE DUP9 GT PUSH2 0x5EB JUMPI PUSH2 0x5DC DUP2 DUP4 PUSH2 0x18D1 JUMP JUMPDEST CODESIZE PUSH2 0x1E42 JUMP JUMPDEST DUP9 MLOAD RETURNDATASIZE DUP13 DUP3 RETURNDATACOPY RETURNDATASIZE SWAP1 REVERT JUMPDEST POP POP POP SWAP3 POP POP DUP2 SWAP1 JUMP JUMPDEST SWAP1 DUP2 PUSH1 0x20 SWAP2 SUB SLT PUSH2 0x16D JUMPI MLOAD DUP1 ISZERO ISZERO DUP2 SUB PUSH2 0x16D JUMPI SWAP1 JUMP JUMPDEST ISZERO PUSH2 0x1ED1 JUMPI JUMP JUMPDEST PUSH1 0x40 MLOAD PUSH3 0x461BCD PUSH1 0xE5 SHL DUP2 MSTORE PUSH1 0x20 PUSH1 0x4 DUP3 ADD MSTORE PUSH1 0x26 PUSH1 0x24 DUP3 ADD MSTORE PUSH32 0x4C69627261727920726F79616C7479206C657373207468616E20646570656E64 PUSH1 0x44 DUP3 ADD MSTORE PUSH6 0x656E63696573 PUSH1 0xD0 SHL PUSH1 0x64 DUP3 ADD MSTORE PUSH1 0x84 SWAP1 REVERT JUMPDEST SWAP2 SWAP1 DUP3 SUB SWAP2 DUP3 GT PUSH2 0x1CB1 JUMPI JUMP JUMPDEST RETURNDATASIZE ISZERO PUSH2 0x1F5D JUMPI RETURNDATASIZE SWAP1 PUSH2 0x1F43 DUP3 PUSH2 0x18F2 JUMP JUMPDEST SWAP2 PUSH2 0x1F51 PUSH1 0x40 MLOAD SWAP4 DUP5 PUSH2 0x18D1 JUMP JUMPDEST DUP3 MSTORE RETURNDATASIZE PUSH1 0x0 PUSH1 0x20 DUP5 ADD RETURNDATACOPY JUMP JUMPDEST PUSH1 0x60 SWAP1 JUMP JUMPDEST PUSH1 0x2 PUSH1 0x1 SLOAD EQ PUSH2 0x1F73 JUMPI PUSH1 0x2 PUSH1 0x1 SSTORE JUMP JUMPDEST PUSH1 0x40 MLOAD PUSH4 0x3EE5AEB5 PUSH1 0xE0 SHL DUP2 MSTORE PUSH1 0x4 SWAP1 REVERT INVALID 0xCB SWAP16 SSTORE SWAP15 0x28 SWAP2 JUMPDEST 0xE4 SWAP14 0xCC 0xEE RETURN REVERT 0xE PUSH10 0x53281BDD4EFE058DFF26 0xDD MLOAD EXTCODECOPY 0xA5 SUB PUSH26 0x9EA264697066735822122055F207439DE3ED80FF64A7AC415C37 RETURN PUSH4 0xFDF5FF9 MSIZE 0xBE CHAINID PUSH18 0x6F8C74996888FD64736F6C63430008140033 "},"methodIdentifiers":{"PERCENTAGE_DENOMINATOR()":"b3cd4254","ROYALTY_PERCENTAGE()":"463b08db","USDC_ADDRESS()":"bb09d9b7","calculateTotalRoyalties(string)":"f8a76dfb","claimRoyaltiesETH()":"902509c2","claimRoyaltiesUSDC()":"1ed6c599","distributeNestedRoyalties(string)":"d92c462d","getPendingRoyalties(address)":"024fa0d6","getProjectDependencies(string)":"50fd8e71","libraryContract()":"ce0769c5","owner()":"8da5cb5b","pendingRoyaltiesETH(address)":"141b5f02","pendingRoyaltiesUSDC(address)":"5bf4b5c4","projectDirectDependencies(string,uint256)":"b9293c26","projectRoyalties(string)":"4aa8a12d","recordRoyalties(string,uint256,uint8)":"c5787690","registerProjectRoyalties(string,string[],string[])":"61c810f1","renounceOwnership()":"715018a6","setLibraryContract(address)":"956456d9","totalRoyaltiesPaidETH(string)":"30676af6","totalRoyaltiesPaidUSDC(string)":"73a6fe89","transferOwnership(address)":"f2fde38b","usdcToken()":"11eac855"}}}}}