{"ClayLibrary.sol":{"ClayLibrary":{"abi":[{"inputs":[{"internalType":"address","name":"_royaltyContract","type":"address"}],"stateMutability":"nonpayable","type":"constructor"},{"inputs":[{"internalType":"address","name":"owner","type":"address"}],"name":"OwnableInvalidOwner","type":"error"},{"inputs":[{"internalType":"address","name":"account","type":"address"}],"name":"OwnableUnauthorizedAccount","type":"error"},{"inputs":[],"name":"ReentrancyGuardReentrantCall","type":"error"},{"anonymous":false,"inputs":[{"indexed":true,"internalType":"string","name":"projectId","type":"string"},{"indexed":true,"internalType":"address","name":"owner","type":"address"}],"name":"AssetDeleted","type":"event"},{"anonymous":false,"inputs":[{"indexed":true,"internalType":"string","name":"projectId","type":"string"},{"indexed":true,"internalType":"address","name":"creator","type":"address"},{"indexed":false,"internalType":"string","name":"name","type":"string"},{"indexed":false,"internalType":"uint256","name":"price","type":"uint256"}],"name":"AssetRegistered","type":"event"},{"anonymous":false,"inputs":[{"indexed":true,"internalType":"address","name":"previousOwner","type":"address"},{"indexed":true,"internalType":"address","name":"newOwner","type":"address"}],"name":"OwnershipTransferStarted","type":"event"},{"anonymous":false,"inputs":[{"indexed":true,"internalType":"address","name":"previousOwner","type":"address"},{"indexed":true,"internalType":"address","name":"newOwner","type":"address"}],"name":"OwnershipTransferred","type":"event"},{"anonymous":false,"inputs":[{"indexed":true,"internalType":"string","name":"projectId","type":"string"},{"indexed":true,"internalType":"address","name":"previousOwner","type":"address"},{"indexed":true,"internalType":"address","name":"newOwner","type":"address"}],"name":"OwnershipTransferred","type":"event"},{"anonymous":false,"inputs":[{"indexed":true,"internalType":"string","name":"projectId","type":"string"},{"indexed":true,"internalType":"address","name":"owner","type":"address"}],"name":"RoyaltyDisabled","type":"event"},{"anonymous":false,"inputs":[{"indexed":true,"internalType":"string","name":"projectId","type":"string"},{"indexed":false,"internalType":"uint256","name":"newRoyaltyETH","type":"uint256"},{"indexed":false,"internalType":"uint256","name":"newRoyaltyUSDC","type":"uint256"}],"name":"RoyaltyFeeUpdated","type":"event"},{"inputs":[],"name":"FEE_DENOMINATOR","outputs":[{"internalType":"uint256","name":"","type":"uint256"}],"stateMutability":"view","type":"function"},{"inputs":[],"name":"USDC_ADDRESS","outputs":[{"internalType":"address","name":"","type":"address"}],"stateMutability":"view","type":"function"},{"inputs":[],"name":"acceptOwnership","outputs":[],"stateMutability":"nonpayable","type":"function"},{"inputs":[{"internalType":"uint256","name":"","type":"uint256"}],"name":"allAssetIds","outputs":[{"internalType":"string","name":"","type":"string"}],"stateMutability":"view","type":"function"},{"inputs":[{"internalType":"address","name":"","type":"address"}],"name":"approvedMarketplaces","outputs":[{"internalType":"bool","name":"","type":"bool"}],"stateMutability":"view","type":"function"},{"inputs":[{"internalType":"string","name":"projectId","type":"string"}],"name":"deleteAsset","outputs":[],"stateMutability":"nonpayable","type":"function"},{"inputs":[{"internalType":"string","name":"projectId","type":"string"}],"name":"disableRoyalty","outputs":[],"stateMutability":"nonpayable","type":"function"},{"inputs":[{"internalType":"string","name":"projectId","type":"string"}],"name":"enableRoyalty","outputs":[],"stateMutability":"nonpayable","type":"function"},{"inputs":[{"internalType":"string","name":"projectId","type":"string"}],"name":"getAsset","outputs":[{"components":[{"internalType":"string","name":"projectId","type":"string"},{"internalType":"string","name":"name","type":"string"},{"internalType":"string","name":"description","type":"string"},{"internalType":"uint256","name":"royaltyPerImportETH","type":"uint256"},{"internalType":"uint256","name":"royaltyPerImportUSDC","type":"uint256"},{"internalType":"address","name":"currentOwner","type":"address"},{"internalType":"address","name":"originalCreator","type":"address"},{"internalType":"uint256","name":"listedAt","type":"uint256"},{"internalType":"bool","name":"exists","type":"bool"},{"internalType":"bool","name":"royaltyEnabled","type":"bool"}],"internalType":"struct ClayLibrary.LibraryAsset","name":"","type":"tuple"}],"stateMutability":"view","type":"function"},{"inputs":[{"internalType":"uint256","name":"index","type":"uint256"}],"name":"getAssetIdByIndex","outputs":[{"internalType":"string","name":"","type":"string"}],"stateMutability":"view","type":"function"},{"inputs":[{"internalType":"string","name":"projectId","type":"string"}],"name":"getCurrentOwner","outputs":[{"internalType":"address","name":"","type":"address"}],"stateMutability":"view","type":"function"},{"inputs":[{"internalType":"string","name":"projectId","type":"string"}],"name":"getLibraryDependencies","outputs":[{"internalType":"string[]","name":"","type":"string[]"}],"stateMutability":"view","type":"function"},{"inputs":[{"internalType":"string","name":"projectId","type":"string"}],"name":"getRoyaltyFee","outputs":[{"internalType":"uint256","name":"royaltyETH","type":"uint256"},{"internalType":"uint256","name":"royaltyUSDC","type":"uint256"}],"stateMutability":"view","type":"function"},{"inputs":[],"name":"getTotalAssets","outputs":[{"internalType":"uint256","name":"","type":"uint256"}],"stateMutability":"view","type":"function"},{"inputs":[{"internalType":"address","name":"user","type":"address"}],"name":"getUserAssets","outputs":[{"internalType":"string[]","name":"","type":"string[]"}],"stateMutability":"view","type":"function"},{"inputs":[{"internalType":"string","name":"","type":"string"}],"name":"libraryAssets","outputs":[{"internalType":"string","name":"projectId","type":"string"},{"internalType":"string","name":"name","type":"string"},{"internalType":"string","name":"description","type":"string"},{"internalType":"uint256","name":"royaltyPerImportETH","type":"uint256"},{"internalType":"uint256","name":"royaltyPerImportUSDC","type":"uint256"},{"internalType":"address","name":"currentOwner","type":"address"},{"internalType":"address","name":"originalCreator","type":"address"},{"internalType":"uint256","name":"listedAt","type":"uint256"},{"internalType":"bool","name":"exists","type":"bool"},{"internalType":"bool","name":"royaltyEnabled","type":"bool"}],"stateMutability":"view","type":"function"},{"inputs":[{"internalType":"string","name":"","type":"string"},{"internalType":"uint256","name":"","type":"uint256"}],"name":"libraryDependencies","outputs":[{"internalType":"string","name":"","type":"string"}],"stateMutability":"view","type":"function"},{"inputs":[],"name":"owner","outputs":[{"internalType":"address","name":"","type":"address"}],"stateMutability":"view","type":"function"},{"inputs":[],"name":"pendingOwner","outputs":[{"internalType":"address","name":"","type":"address"}],"stateMutability":"view","type":"function"},{"inputs":[],"name":"platformFeePercentage","outputs":[{"internalType":"uint256","name":"","type":"uint256"}],"stateMutability":"view","type":"function"},{"inputs":[{"internalType":"string","name":"projectId","type":"string"},{"internalType":"string","name":"name","type":"string"},{"internalType":"string","name":"description","type":"string"},{"internalType":"uint256","name":"royaltyPerImportETH","type":"uint256"},{"internalType":"uint256","name":"royaltyPerImportUSDC","type":"uint256"},{"internalType":"string[]","name":"dependencyProjectIds","type":"string[]"}],"name":"registerAsset","outputs":[],"stateMutability":"nonpayable","type":"function"},{"inputs":[],"name":"renounceOwnership","outputs":[],"stateMutability":"nonpayable","type":"function"},{"inputs":[],"name":"royaltyContract","outputs":[{"internalType":"contract IClayRoyalty","name":"","type":"address"}],"stateMutability":"view","type":"function"},{"inputs":[{"internalType":"address","name":"marketplace","type":"address"},{"internalType":"bool","name":"approved","type":"bool"}],"name":"setApprovedMarketplace","outputs":[],"stateMutability":"nonpayable","type":"function"},{"inputs":[{"internalType":"address","name":"_royaltyContract","type":"address"}],"name":"setRoyaltyContract","outputs":[],"stateMutability":"nonpayable","type":"function"},{"inputs":[{"internalType":"string","name":"projectId","type":"string"},{"internalType":"address","name":"newOwner","type":"address"}],"name":"transferAssetOwnership","outputs":[],"stateMutability":"nonpayable","type":"function"},{"inputs":[{"internalType":"address","name":"newOwner","type":"address"}],"name":"transferOwnership","outputs":[],"stateMutability":"nonpayable","type":"function"},{"inputs":[{"internalType":"string","name":"projectId","type":"string"},{"internalType":"uint256","name":"newRoyaltyETH","type":"uint256"},{"internalType":"uint256","name":"newRoyaltyUSDC","type":"uint256"}],"name":"updateRoyaltyFee","outputs":[],"stateMutability":"nonpayable","type":"function"},{"inputs":[],"name":"usdcToken","outputs":[{"internalType":"contract IERC20","name":"","type":"address"}],"stateMutability":"view","type":"function"},{"inputs":[{"internalType":"address","name":"","type":"address"},{"internalType":"uint256","name":"","type":"uint256"}],"name":"userOwnedAssets","outputs":[{"internalType":"string","name":"","type":"string"}],"stateMutability":"view","type":"function"}],"evm":{"bytecode":{"linkReferences":{},"object":"60a0346100f857601f6120c138819003918201601f19168301916001600160401b038311848410176100fd578084926020946040528339810103126100f857516001600160a01b0390818116908190036100f85733156100df5760018060a01b031980600154166001556000543382821617600055604051933391167f8be0079c531659141344cd1fd0a4f28419497f9722a3daafe3b4186f6b6457e0600080a3600160025560fa60095573833589fcd6edb6e08f4c7c32d4f71b54bda029136080526003541617600355611fad90816101148239608051816118220152f35b604051631e4fbdf760e01b815260006004820152602490fd5b600080fd5b634e487b7160e01b600052604160045260246000fdfe6080604052600436101561001257600080fd5b60003560e01c8063078a0d1d146118c15780630a741a541461185157806311eac8551461180c5780631663ee03146117e35780631741cfc01461169f5780632203f8f11461134a578063543a9eb91461130b5780635d483ab9146112be578063675bfec1146111b85780636cb3db25146110a55780636e07302b14611087578063715018a614611022578063765ff06114610f9957806379ba509714610f155780638c5deff814610ea75780638da5cb5b14610e7e578063bb09d9b714610e4f578063bbf46b8414610df6578063cd5286d014610c0c578063cdd78cfc14610bee578063d55a772d14610ba2578063d73792a914610b85578063d9578f701461051a578063d9aa187c146104d7578063e24aa37c146103ec578063e30c3978146103c3578063e814d66b14610378578063ea608c9c1461021c578063edd91367146101d65763f2fde38b1461016657600080fd5b346101d15760203660031901126101d15761017f611bed565b610187611c1a565b60018060a01b0380911690816001600160601b0360a01b6001541617600155600054167f38d16b8cac22d99fc7c124b9cd0de2d3fa1faef420bfe791d8c362d765e22700600080a3005b600080fd5b346101d15760203660031901126101d1576004356001600160401b0381116101d15761021061020b6040923690600401611997565b611e0c565b82519182526020820152f35b346101d1576020806003193601126101d1576004356001600160401b0381116101d15761024d903690600401611997565b6040518281835161026181838588016119ed565b810160058152030190209060088201805461027e60ff8216611dce565b60ff8160081c166103335760058401546001600160a01b031633036102ee57917f59e8620b0742a7acf1fa2c6236758d97e05221785068ee1ef79e8dde26cb755f939161010060409461ff0019161790556102e26004600384015493015491611dae565b948351928352820152a2005b60405162461bcd60e51b815260048101869052601d60248201527f4f6e6c79206f776e65722063616e20656e61626c6520726f79616c74790000006044820152606490fd5b60405162461bcd60e51b815260048101869052601760248201527f526f79616c747920616c726561647920656e61626c65640000000000000000006044820152606490fd5b346101d15760203660031901126101d1576004356007548110156101d1576103ab6103a56103bf92611a97565b90611bdc565b604051918291602083526020830190611a10565b0390f35b346101d15760003660031901126101d1576001546040516001600160a01b039091168152602090f35b346101d15760203660031901126101d1576004356001600160401b0381116101d15761041c903690600401611997565b604051602081835161043181838588016119ed565b81016005815203019020600881019081549061044f60ff8316611dce565b600501546001600160a01b0316330361049a5761ffff191690556104733391611dae565b7fb50a82962555cb439c53739ec19c159c2039e25705651a754caa0857168116e5600080a3005b60405162461bcd60e51b81526020600482015260156024820152744f6e6c79206f776e65722063616e2064656c65746560581b6044820152606490fd5b346101d15760203660031901126101d1576104f0611bed565b6104f8611c1a565b600380546001600160a01b0319166001600160a01b0392909216919091179055005b346101d15760c03660031901126101d1576001600160401b036004358181116101d15761054b903690600401611997565b6024358281116101d157610563903690600401611997565b906044358381116101d15761057c903690600401611997565b9060a435938085116101d157366023860112156101d15784600401356105a181611c03565b956105af6040519788611976565b8187526024602088019260051b820101913683116101d15760248201905b838210610b5d575050505050805115610b185760009160009160005b865181101561067f576106156020610601838a611c3d565b5181604051938285809451938492016119ed565b8101600581520301902060088082015460ff908181169283610673575b505050610649575b5061064490611c2e565b6105e9565b946106449194600461066361066c9360038a015490611c51565b97015490611c51565b939061063a565b1c169050898080610632565b50848693858015801590610b0f575b610a7f575b505060405160208184516106aa81838589016119ed565b810160058152030190209260018060a01b03600685015416806109f4575b806109ef5750335b604051916106dd8361195a565b8483528360208401526040830152606435606083015260843560808301523360a083015260018060a01b031660c08201524260e0820152600161010082015260016101208201526101206008604051602081875161073e8183858c016119ed565b81016005815203019020610753845182611cba565b610764602085015160018301611cba565b610775604085015160028301611cba565b60608401516003820155608084015160048201556005810160018060a01b0360a086015116906001600160601b0360a01b9182825416179055600682019060018060a01b0360c0870151169082541617905560e0840151600782015501916107f06101008201511515849060ff801983541691151516179055565b0151151561ff0082549160081b169061ff001916179055604051602081845161081c81838589016119ed565b810160088152030190208054906000815581610982575b505060005b84518110156108825761087d90610878604051602081875161085d8183858c016119ed565b810160088152030190206108718389611c3d565b5190611d81565b611c2e565b610838565b5060068301549092906001600160a01b031661095b57503360005260066020526108b0816040600020611d81565b600754600160401b811015610945578060016108cf9201600755611a97565b91909161092f576108e3816108e893611cba565b611dae565b7f585d38ebcb0fe93ced4d64fbb112388b85b7726e7d87c5142521434d4f12238461091e60405193604085526040850190611a10565b9260643560208201528033940390a3005b634e487b7160e01b600052600060045260246000fd5b634e487b7160e01b600052604160045260246000fd5b9060ff60086108e893015416611dae573360005260066020526108e3816040600020611d81565b6000526020600020908101905b8181101561083357806109a460019254611afc565b806109b1575b500161098f565b601f9081811184146109ca575050600081555b876109aa565b6109e660009284845260208420920160051c8201858301611c5e565b818355556109c4565b6106d0565b60ff600886015416158015610a69575b6106c85760405162461bcd60e51b815260206004820152603360248201527f4f6e6c79206f776e65722063616e2072652d7265676973746572206f722061736044820152721cd95d081b5d5cdd0818994819195b195d1959606a1b6064820152608490fd5b5060058501546001600160a01b03163314610a04565b60643511908115610b03575b5015610a98578480610693565b60405162461bcd60e51b815260206004820152603760248201527f4c69627261727920726f79616c7479206d75737420626520686967686572207460448201527f68616e2073756d206f6620646570656e64656e636965730000000000000000006064820152608490fd5b90506084351185610a8b565b5081151561068e565b60405162461bcd60e51b815260206004820152601a60248201527f50726f6a6563742049442063616e6e6f7420626520656d7074790000000000006044820152606490fd5b81358581116101d157602091610b7a839260243691880101611997565b8152019101906105cd565b346101d15760003660031901126101d15760206040516127108152f35b346101d15760203660031901126101d1576004356001600160401b0381116101d157610bdc610bd76020923690600401611997565b611e55565b6040516001600160a01b039091168152f35b346101d15760003660031901126101d1576020600954604051908152f35b346101d15760203660031901126101d1576004356001600160401b0381116101d1576020610c41610c9d923690600401611997565b6000610120604051610c528161195a565b60608152606085820152606060408201528260608201528260808201528260a08201528260c08201528260e082015282610100820152015281604051938285809451938492016119ed565b8101600581520301902060ff600860405192610cb88461195a565b610cc181611b36565b8452610ccf60018201611b36565b6020850152610ce060028201611b36565b6040850152600381015460608501526004810154608085015260018060a01b0360058201541660a085015260018060a01b0360068201541660c0850152600781015460e08501520154818116151561010084015260081c161515610120820152604051809160208252610120610d98610d6783516101406020870152610160860190611a10565b610d83602085015191601f199283888303016040890152611a10565b90604085015190868303016060870152611a10565b9160608101516080850152608081015160a085015260018060a01b0360a08201511660c085015260018060a01b0360c08201511660e085015260e0810151610100850152610100810151151582850152015115156101408301520390f35b346101d15760403660031901126101d157610e0f611bed565b60243580151581036101d157610e4d91610e27611c1a565b60018060a01b0316600052600460205260406000209060ff801983541691151516179055565b005b346101d15760003660031901126101d157602060405173833589fcd6edb6e08f4c7c32d4f71b54bda029138152f35b346101d15760003660031901126101d1576000546040516001600160a01b039091168152602090f35b346101d15760203660031901126101d157600435600754811015610eda576103ab610ed46103bf92611a97565b50611b36565b60405162461bcd60e51b8152602060048201526013602482015272496e646578206f7574206f6620626f756e647360681b6044820152606490fd5b346101d15760003660031901126101d1576001546001600160a01b033381831603610f81576001600160601b0360a01b8092166001556000549133908316176000553391167f8be0079c531659141344cd1fd0a4f28419497f9722a3daafe3b4186f6b6457e0600080a3005b60405163118cdaa760e01b8152336004820152602490fd5b346101d1576020806003193601126101d1576001600160a01b03610fbb611bed565b166000526006815260406000208054610fd381611c03565b91610fe16040519384611976565b8183526000908152838120938084015b83831061100657604051806103bf8782611a35565b600182819261101489611b36565b815201960192019194610ff1565b346101d15760003660031901126101d15761103b611c1a565b600180546001600160a01b0319908116909155600080549182168155906001600160a01b03167f8be0079c531659141344cd1fd0a4f28419497f9722a3daafe3b4186f6b6457e08280a3005b346101d15760003660031901126101d1576020600754604051908152f35b346101d15760203660031901126101d1576004356001600160401b0381116101d1576110f060206110dd611167933690600401611997565b81604051938285809451938492016119ed565b8101600581520301902061110381611b36565b9060ff61111260018301611b36565b61111e60028401611b36565b92600381015493600482015460018060a01b039061118382600586015416926006860154169361117560086007880154970154976040519c8d9c8d610140908181520190611a10565b8c810360208e015290611a10565b908a820360408c0152611a10565b966060890152608088015260a087015260c086015260e0850152818116151561010085015260081c1615156101208301520390f35b346101d15760603660031901126101d1576004356001600160401b0381116101d1576111e8903690600401611997565b60243560443591604051602081835161120481838588016119ed565b810160058152030190209161121f60ff600885015416611dce565b60058301546001600160a01b031633036112795761126b604092856004868560037f59e8620b0742a7acf1fa2c6236758d97e05221785068ee1ef79e8dde26cb755f9901550155611dae565b9382519182526020820152a2005b60405162461bcd60e51b815260206004820152601d60248201527f4f6e6c79206f776e65722063616e2075706461746520726f79616c74790000006044820152606490fd5b346101d15760403660031901126101d1576112d7611bed565b6001600160a01b031660009081526006602052604090208054602435908110156101d1576103a56103ab916103bf93611ae4565b346101d15760203660031901126101d1576001600160a01b0361132c611bed565b166000526004602052602060ff604060002054166040519015158152f35b346101d15760403660031901126101d1576004356001600160401b0381116101d15761137a903690600401611997565b6024356001600160a01b0380821682036101d15760405160208185516113a38183858a016119ed565b81016005815203019020916113be60ff600885015416611dce565b81600584015416918233148015611687575b1561164257808216156116095782600052600660205260406000209160005b8354808210156115fa576114038286611ae4565b506040519081600082549261141784611afc565b80845293600181169081156115d85750600114611596575b5061143c92500382611976565b60208151910120885160208a01201461145e575061145990611c2e565b6113ef565b9060009692939495961991828101908111611580576114806114889188611ae4565b509187611ae4565b91909161092f5761149891611e9b565b8454801561156a57016114ab8186611ae4565b95909561092f57856114c06115049754611afc565b908161152b575b5050555b60058383166001600160601b0360a01b82840154161791015581811660005260066020526114fd856040600020611d81565b1692611dae565b7f6840904f5b31827f74e1497360da245f56e530c8c3de3163a2d31f11493273c6600080a4005b600091601f808211600114611545575050555b88806114c7565b9161156384929382845260208420940160051c840160018501611c5e565b555561153e565b634e487b7160e01b600052603160045260246000fd5b634e487b7160e01b600052601160045260246000fd5b9150506000526020600020906000915b8183106115bf57505081602061143c928201018c61142f565b80546020848601810191909152909201916001016115a6565b90506020925061143c94915060ff191682840152151560051b8201018c61142f565b505090915061150492936114cb565b60405162461bcd60e51b815260206004820152601160248201527024b73b30b634b2103732bb9037bbb732b960791b6044820152606490fd5b60405162461bcd60e51b815260206004820152601a60248201527f4e6f7420617574686f72697a656420746f207472616e736665720000000000006044820152606490fd5b5033600052600460205260ff604060002054166113d0565b346101d15760203660031901126101d1576004356001600160401b0381116101d1576116cf903690600401611997565b60405160208183516116e481838588016119ed565b81016005815203019020600881019081549061170260ff8316611dce565b60ff8260081c161561179e57600501546001600160a01b031633036117595761ff00191690556117323391611dae565b7f90770cdbe2af4a141faa5d52bf81d7904916cf199ab0684f8d30cb4b477fae86600080a3005b60405162461bcd60e51b815260206004820152601e60248201527f4f6e6c79206f776e65722063616e2064697361626c6520726f79616c747900006044820152606490fd5b60405162461bcd60e51b815260206004820152601860248201527f526f79616c747920616c72656164792064697361626c656400000000000000006044820152606490fd5b346101d15760003660031901126101d1576003546040516001600160a01b039091168152602090f35b346101d15760003660031901126101d1576040517f00000000000000000000000000000000000000000000000000000000000000006001600160a01b03168152602090f35b346101d15760403660031901126101d1576004356001600160401b0381116101d157611881903690600401611997565b61189d60206024359281604051938285809451938492016119ed565b810160088152030190209081548110156101d1576103a56103ab916103bf93611ae4565b346101d1576020806003193601126101d1576004356001600160401b0381116101d157816110dd6118f6923690600401611997565b81016008815203019020805461190b81611c03565b916119196040519384611976565b8183526000908152838120938084015b83831061193e57604051806103bf8782611a35565b600182819261194c89611b36565b815201960192019194611929565b61014081019081106001600160401b0382111761094557604052565b90601f801991011681019081106001600160401b0382111761094557604052565b81601f820112156101d1578035906001600160401b03821161094557604051926119cb601f8401601f191660200185611976565b828452602083830101116101d157816000926020809301838601378301015290565b60005b838110611a005750506000910152565b81810151838201526020016119f0565b90602091611a29815180928185528580860191016119ed565b601f01601f1916010190565b602080820190808352835180925260408301928160408460051b8301019501936000915b848310611a695750505050505090565b9091929394958480611a87600193603f198682030187528a51611a10565b9801930193019194939290611a59565b600754811015611ace5760076000527fa66cc928b5edb82af9bd49922954155ab7b0942694bea4ce44661d9a8736c6880190600090565b634e487b7160e01b600052603260045260246000fd5b8054821015611ace5760005260206000200190600090565b90600182811c92168015611b2c575b6020831014611b1657565b634e487b7160e01b600052602260045260246000fd5b91607f1691611b0b565b9060405191826000825492611b4a84611afc565b908184526001948581169081600014611bb95750600114611b76575b5050611b7492500383611976565b565b9093915060005260209081600020936000915b818310611ba1575050611b7493508201013880611b66565b85548884018501529485019487945091830191611b89565b915050611b7494506020925060ff191682840152151560051b8201013880611b66565b9061092f57611bea90611b36565b90565b600435906001600160a01b03821682036101d157565b6001600160401b0381116109455760051b60200190565b6000546001600160a01b03163303610f8157565b60001981146115805760010190565b8051821015611ace5760209160051b010190565b9190820180921161158057565b818110611c69575050565b60008155600101611c5e565b9190601f8111611c8457505050565b611b74926000526020600020906020601f840160051c83019310611cb0575b601f0160051c0190611c5e565b9091508190611ca3565b91909182516001600160401b03811161094557611ce181611cdb8454611afc565b84611c75565b602080601f8311600114611d1d575081929394600092611d12575b50508160011b916000199060031b1c1916179055565b015190503880611cfc565b90601f198316958460005282600020926000905b888210611d6957505083600195969710611d50575b505050811b019055565b015160001960f88460031b161c19169055388080611d46565b80600185968294968601518155019501930190611d31565b8054600160401b81101561094557611d9e91600182018155611ae4565b91909161092f57611b7491611cba565b611dc6906020604051928284809451938492016119ed565b810103902090565b15611dd557565b60405162461bcd60e51b815260206004820152600f60248201526e105cdcd95d081b9bdd08199bdd5b99608a1b6044820152606490fd5b6020611e259181604051938285809451938492016119ed565b810160058152030190209060ff600883015460081c1615611e4d576004600383015492015490565b600091508190565b6020611e6e9181604051938285809451938492016119ed565b8101600581520301902060ff60088201541615611e9557600501546001600160a01b031690565b50600090565b90808214611f7357611ead8154611afc565b906001600160401b038211610945578190611ed282611ecc8654611afc565b86611c75565b600090601f8311600114611f0857600092611efd5750508160011b916000199060031b1c1916179055565b015490503880611cfc565b81526020808220858352818320935090601f1985169083905b828210611f5a575050908460019594939210611f4157505050811b019055565b015460001960f88460031b161c19169055388080611d46565b8495819295850154815560018091019601940190611f21565b505056fea26469706673582212202066abef07a2692a708d50998e34b571f9d62c75943ca71ae16602cf49a6dc4c64736f6c63430008140033","opcodes":"PUSH1 0xA0 CALLVALUE PUSH2 0xF8 JUMPI PUSH1 0x1F PUSH2 0x20C1 CODESIZE DUP2 SWAP1 SUB SWAP2 DUP3 ADD PUSH1 0x1F NOT AND DUP4 ADD SWAP2 PUSH1 0x1 PUSH1 0x1 PUSH1 0x40 SHL SUB DUP4 GT DUP5 DUP5 LT OR PUSH2 0xFD JUMPI DUP1 DUP5 SWAP3 PUSH1 0x20 SWAP5 PUSH1 0x40 MSTORE DUP4 CODECOPY DUP2 ADD SUB SLT PUSH2 0xF8 JUMPI MLOAD PUSH1 0x1 PUSH1 0x1 PUSH1 0xA0 SHL SUB SWAP1 DUP2 DUP2 AND SWAP1 DUP2 SWAP1 SUB PUSH2 0xF8 JUMPI CALLER ISZERO PUSH2 0xDF JUMPI PUSH1 0x1 DUP1 PUSH1 0xA0 SHL SUB NOT DUP1 PUSH1 0x1 SLOAD AND PUSH1 0x1 SSTORE PUSH1 0x0 SLOAD CALLER DUP3 DUP3 AND OR PUSH1 0x0 SSTORE PUSH1 0x40 MLOAD SWAP4 CALLER SWAP2 AND PUSH32 0x8BE0079C531659141344CD1FD0A4F28419497F9722A3DAAFE3B4186F6B6457E0 PUSH1 0x0 DUP1 LOG3 PUSH1 0x1 PUSH1 0x2 SSTORE PUSH1 0xFA PUSH1 0x9 SSTORE PUSH20 0x833589FCD6EDB6E08F4C7C32D4F71B54BDA02913 PUSH1 0x80 MSTORE PUSH1 0x3 SLOAD AND OR PUSH1 0x3 SSTORE PUSH2 0x1FAD SWAP1 DUP2 PUSH2 0x114 DUP3 CODECOPY PUSH1 0x80 MLOAD DUP2 PUSH2 0x1822 ADD MSTORE RETURN JUMPDEST PUSH1 0x40 MLOAD PUSH4 0x1E4FBDF7 PUSH1 0xE0 SHL DUP2 MSTORE PUSH1 0x0 PUSH1 0x4 DUP3 ADD MSTORE PUSH1 0x24 SWAP1 REVERT JUMPDEST PUSH1 0x0 DUP1 REVERT JUMPDEST PUSH4 0x4E487B71 PUSH1 0xE0 SHL PUSH1 0x0 MSTORE PUSH1 0x41 PUSH1 0x4 MSTORE PUSH1 0x24 PUSH1 0x0 REVERT INVALID PUSH1 0x80 PUSH1 0x40 MSTORE PUSH1 0x4 CALLDATASIZE LT ISZERO PUSH2 0x12 JUMPI PUSH1 0x0 DUP1 REVERT JUMPDEST PUSH1 0x0 CALLDATALOAD PUSH1 0xE0 SHR DUP1 PUSH4 0x78A0D1D EQ PUSH2 0x18C1 JUMPI DUP1 PUSH4 0xA741A54 EQ PUSH2 0x1851 JUMPI DUP1 PUSH4 0x11EAC855 EQ PUSH2 0x180C JUMPI DUP1 PUSH4 0x1663EE03 EQ PUSH2 0x17E3 JUMPI DUP1 PUSH4 0x1741CFC0 EQ PUSH2 0x169F JUMPI DUP1 PUSH4 0x2203F8F1 EQ PUSH2 0x134A JUMPI DUP1 PUSH4 0x543A9EB9 EQ PUSH2 0x130B JUMPI DUP1 PUSH4 0x5D483AB9 EQ PUSH2 0x12BE JUMPI DUP1 PUSH4 0x675BFEC1 EQ PUSH2 0x11B8 JUMPI DUP1 PUSH4 0x6CB3DB25 EQ PUSH2 0x10A5 JUMPI DUP1 PUSH4 0x6E07302B EQ PUSH2 0x1087 JUMPI DUP1 PUSH4 0x715018A6 EQ PUSH2 0x1022 JUMPI DUP1 PUSH4 0x765FF061 EQ PUSH2 0xF99 JUMPI DUP1 PUSH4 0x79BA5097 EQ PUSH2 0xF15 JUMPI DUP1 PUSH4 0x8C5DEFF8 EQ PUSH2 0xEA7 JUMPI DUP1 PUSH4 0x8DA5CB5B EQ PUSH2 0xE7E JUMPI DUP1 PUSH4 0xBB09D9B7 EQ PUSH2 0xE4F JUMPI DUP1 PUSH4 0xBBF46B84 EQ PUSH2 0xDF6 JUMPI DUP1 PUSH4 0xCD5286D0 EQ PUSH2 0xC0C JUMPI DUP1 PUSH4 0xCDD78CFC EQ PUSH2 0xBEE JUMPI DUP1 PUSH4 0xD55A772D EQ PUSH2 0xBA2 JUMPI DUP1 PUSH4 0xD73792A9 EQ PUSH2 0xB85 JUMPI DUP1 PUSH4 0xD9578F70 EQ PUSH2 0x51A JUMPI DUP1 PUSH4 0xD9AA187C EQ PUSH2 0x4D7 JUMPI DUP1 PUSH4 0xE24AA37C EQ PUSH2 0x3EC JUMPI DUP1 PUSH4 0xE30C3978 EQ PUSH2 0x3C3 JUMPI DUP1 PUSH4 0xE814D66B EQ PUSH2 0x378 JUMPI DUP1 PUSH4 0xEA608C9C EQ PUSH2 0x21C JUMPI DUP1 PUSH4 0xEDD91367 EQ PUSH2 0x1D6 JUMPI PUSH4 0xF2FDE38B EQ PUSH2 0x166 JUMPI PUSH1 0x0 DUP1 REVERT JUMPDEST CALLVALUE PUSH2 0x1D1 JUMPI PUSH1 0x20 CALLDATASIZE PUSH1 0x3 NOT ADD SLT PUSH2 0x1D1 JUMPI PUSH2 0x17F PUSH2 0x1BED JUMP JUMPDEST PUSH2 0x187 PUSH2 0x1C1A JUMP JUMPDEST PUSH1 0x1 DUP1 PUSH1 0xA0 SHL SUB DUP1 SWAP2 AND SWAP1 DUP2 PUSH1 0x1 PUSH1 0x1 PUSH1 0x60 SHL SUB PUSH1 0xA0 SHL PUSH1 0x1 SLOAD AND OR PUSH1 0x1 SSTORE PUSH1 0x0 SLOAD AND PUSH32 0x38D16B8CAC22D99FC7C124B9CD0DE2D3FA1FAEF420BFE791D8C362D765E22700 PUSH1 0x0 DUP1 LOG3 STOP JUMPDEST PUSH1 0x0 DUP1 REVERT JUMPDEST CALLVALUE PUSH2 0x1D1 JUMPI PUSH1 0x20 CALLDATASIZE PUSH1 0x3 NOT ADD SLT PUSH2 0x1D1 JUMPI PUSH1 0x4 CALLDATALOAD PUSH1 0x1 PUSH1 0x1 PUSH1 0x40 SHL SUB DUP2 GT PUSH2 0x1D1 JUMPI PUSH2 0x210 PUSH2 0x20B PUSH1 0x40 SWAP3 CALLDATASIZE SWAP1 PUSH1 0x4 ADD PUSH2 0x1997 JUMP JUMPDEST PUSH2 0x1E0C JUMP JUMPDEST DUP3 MLOAD SWAP2 DUP3 MSTORE PUSH1 0x20 DUP3 ADD MSTORE RETURN JUMPDEST CALLVALUE PUSH2 0x1D1 JUMPI PUSH1 0x20 DUP1 PUSH1 0x3 NOT CALLDATASIZE ADD SLT PUSH2 0x1D1 JUMPI PUSH1 0x4 CALLDATALOAD PUSH1 0x1 PUSH1 0x1 PUSH1 0x40 SHL SUB DUP2 GT PUSH2 0x1D1 JUMPI PUSH2 0x24D SWAP1 CALLDATASIZE SWAP1 PUSH1 0x4 ADD PUSH2 0x1997 JUMP JUMPDEST PUSH1 0x40 MLOAD DUP3 DUP2 DUP4 MLOAD PUSH2 0x261 DUP2 DUP4 DUP6 DUP9 ADD PUSH2 0x19ED JUMP JUMPDEST DUP2 ADD PUSH1 0x5 DUP2 MSTORE SUB ADD SWAP1 KECCAK256 SWAP1 PUSH1 0x8 DUP3 ADD DUP1 SLOAD PUSH2 0x27E PUSH1 0xFF DUP3 AND PUSH2 0x1DCE JUMP JUMPDEST PUSH1 0xFF DUP2 PUSH1 0x8 SHR AND PUSH2 0x333 JUMPI PUSH1 0x5 DUP5 ADD SLOAD PUSH1 0x1 PUSH1 0x1 PUSH1 0xA0 SHL SUB AND CALLER SUB PUSH2 0x2EE JUMPI SWAP2 PUSH32 0x59E8620B0742A7ACF1FA2C6236758D97E05221785068EE1EF79E8DDE26CB755F SWAP4 SWAP2 PUSH2 0x100 PUSH1 0x40 SWAP5 PUSH2 0xFF00 NOT AND OR SWAP1 SSTORE PUSH2 0x2E2 PUSH1 0x4 PUSH1 0x3 DUP5 ADD SLOAD SWAP4 ADD SLOAD SWAP2 PUSH2 0x1DAE JUMP JUMPDEST SWAP5 DUP4 MLOAD SWAP3 DUP4 MSTORE DUP3 ADD MSTORE LOG2 STOP JUMPDEST PUSH1 0x40 MLOAD PUSH3 0x461BCD PUSH1 0xE5 SHL DUP2 MSTORE PUSH1 0x4 DUP2 ADD DUP7 SWAP1 MSTORE PUSH1 0x1D PUSH1 0x24 DUP3 ADD MSTORE PUSH32 0x4F6E6C79206F776E65722063616E20656E61626C6520726F79616C7479000000 PUSH1 0x44 DUP3 ADD MSTORE PUSH1 0x64 SWAP1 REVERT JUMPDEST PUSH1 0x40 MLOAD PUSH3 0x461BCD PUSH1 0xE5 SHL DUP2 MSTORE PUSH1 0x4 DUP2 ADD DUP7 SWAP1 MSTORE PUSH1 0x17 PUSH1 0x24 DUP3 ADD MSTORE PUSH32 0x526F79616C747920616C726561647920656E61626C6564000000000000000000 PUSH1 0x44 DUP3 ADD MSTORE PUSH1 0x64 SWAP1 REVERT JUMPDEST CALLVALUE PUSH2 0x1D1 JUMPI PUSH1 0x20 CALLDATASIZE PUSH1 0x3 NOT ADD SLT PUSH2 0x1D1 JUMPI PUSH1 0x4 CALLDATALOAD PUSH1 0x7 SLOAD DUP2 LT ISZERO PUSH2 0x1D1 JUMPI PUSH2 0x3AB PUSH2 0x3A5 PUSH2 0x3BF SWAP3 PUSH2 0x1A97 JUMP JUMPDEST SWAP1 PUSH2 0x1BDC JUMP JUMPDEST PUSH1 0x40 MLOAD SWAP2 DUP3 SWAP2 PUSH1 0x20 DUP4 MSTORE PUSH1 0x20 DUP4 ADD SWAP1 PUSH2 0x1A10 JUMP JUMPDEST SUB SWAP1 RETURN JUMPDEST CALLVALUE PUSH2 0x1D1 JUMPI PUSH1 0x0 CALLDATASIZE PUSH1 0x3 NOT ADD SLT PUSH2 0x1D1 JUMPI PUSH1 0x1 SLOAD PUSH1 0x40 MLOAD PUSH1 0x1 PUSH1 0x1 PUSH1 0xA0 SHL SUB SWAP1 SWAP2 AND DUP2 MSTORE PUSH1 0x20 SWAP1 RETURN JUMPDEST CALLVALUE PUSH2 0x1D1 JUMPI PUSH1 0x20 CALLDATASIZE PUSH1 0x3 NOT ADD SLT PUSH2 0x1D1 JUMPI PUSH1 0x4 CALLDATALOAD PUSH1 0x1 PUSH1 0x1 PUSH1 0x40 SHL SUB DUP2 GT PUSH2 0x1D1 JUMPI PUSH2 0x41C SWAP1 CALLDATASIZE SWAP1 PUSH1 0x4 ADD PUSH2 0x1997 JUMP JUMPDEST PUSH1 0x40 MLOAD PUSH1 0x20 DUP2 DUP4 MLOAD PUSH2 0x431 DUP2 DUP4 DUP6 DUP9 ADD PUSH2 0x19ED JUMP JUMPDEST DUP2 ADD PUSH1 0x5 DUP2 MSTORE SUB ADD SWAP1 KECCAK256 PUSH1 0x8 DUP2 ADD SWAP1 DUP2 SLOAD SWAP1 PUSH2 0x44F PUSH1 0xFF DUP4 AND PUSH2 0x1DCE JUMP JUMPDEST PUSH1 0x5 ADD SLOAD PUSH1 0x1 PUSH1 0x1 PUSH1 0xA0 SHL SUB AND CALLER SUB PUSH2 0x49A JUMPI PUSH2 0xFFFF NOT AND SWAP1 SSTORE PUSH2 0x473 CALLER SWAP2 PUSH2 0x1DAE JUMP JUMPDEST PUSH32 0xB50A82962555CB439C53739EC19C159C2039E25705651A754CAA0857168116E5 PUSH1 0x0 DUP1 LOG3 STOP JUMPDEST PUSH1 0x40 MLOAD PUSH3 0x461BCD PUSH1 0xE5 SHL DUP2 MSTORE PUSH1 0x20 PUSH1 0x4 DUP3 ADD MSTORE PUSH1 0x15 PUSH1 0x24 DUP3 ADD MSTORE PUSH21 0x4F6E6C79206F776E65722063616E2064656C657465 PUSH1 0x58 SHL PUSH1 0x44 DUP3 ADD MSTORE PUSH1 0x64 SWAP1 REVERT JUMPDEST CALLVALUE PUSH2 0x1D1 JUMPI PUSH1 0x20 CALLDATASIZE PUSH1 0x3 NOT ADD SLT PUSH2 0x1D1 JUMPI PUSH2 0x4F0 PUSH2 0x1BED JUMP JUMPDEST PUSH2 0x4F8 PUSH2 0x1C1A JUMP JUMPDEST PUSH1 0x3 DUP1 SLOAD PUSH1 0x1 PUSH1 0x1 PUSH1 0xA0 SHL SUB NOT AND PUSH1 0x1 PUSH1 0x1 PUSH1 0xA0 SHL SUB SWAP3 SWAP1 SWAP3 AND SWAP2 SWAP1 SWAP2 OR SWAP1 SSTORE STOP JUMPDEST CALLVALUE PUSH2 0x1D1 JUMPI PUSH1 0xC0 CALLDATASIZE PUSH1 0x3 NOT ADD SLT PUSH2 0x1D1 JUMPI PUSH1 0x1 PUSH1 0x1 PUSH1 0x40 SHL SUB PUSH1 0x4 CALLDATALOAD DUP2 DUP2 GT PUSH2 0x1D1 JUMPI PUSH2 0x54B SWAP1 CALLDATASIZE SWAP1 PUSH1 0x4 ADD PUSH2 0x1997 JUMP JUMPDEST PUSH1 0x24 CALLDATALOAD DUP3 DUP2 GT PUSH2 0x1D1 JUMPI PUSH2 0x563 SWAP1 CALLDATASIZE SWAP1 PUSH1 0x4 ADD PUSH2 0x1997 JUMP JUMPDEST SWAP1 PUSH1 0x44 CALLDATALOAD DUP4 DUP2 GT PUSH2 0x1D1 JUMPI PUSH2 0x57C SWAP1 CALLDATASIZE SWAP1 PUSH1 0x4 ADD PUSH2 0x1997 JUMP JUMPDEST SWAP1 PUSH1 0xA4 CALLDATALOAD SWAP4 DUP1 DUP6 GT PUSH2 0x1D1 JUMPI CALLDATASIZE PUSH1 0x23 DUP7 ADD SLT ISZERO PUSH2 0x1D1 JUMPI DUP5 PUSH1 0x4 ADD CALLDATALOAD PUSH2 0x5A1 DUP2 PUSH2 0x1C03 JUMP JUMPDEST SWAP6 PUSH2 0x5AF PUSH1 0x40 MLOAD SWAP8 DUP9 PUSH2 0x1976 JUMP JUMPDEST DUP2 DUP8 MSTORE PUSH1 0x24 PUSH1 0x20 DUP9 ADD SWAP3 PUSH1 0x5 SHL DUP3 ADD ADD SWAP2 CALLDATASIZE DUP4 GT PUSH2 0x1D1 JUMPI PUSH1 0x24 DUP3 ADD SWAP1 JUMPDEST DUP4 DUP3 LT PUSH2 0xB5D JUMPI POP POP POP POP POP DUP1 MLOAD ISZERO PUSH2 0xB18 JUMPI PUSH1 0x0 SWAP2 PUSH1 0x0 SWAP2 PUSH1 0x0 JUMPDEST DUP7 MLOAD DUP2 LT ISZERO PUSH2 0x67F JUMPI PUSH2 0x615 PUSH1 0x20 PUSH2 0x601 DUP4 DUP11 PUSH2 0x1C3D JUMP JUMPDEST MLOAD DUP2 PUSH1 0x40 MLOAD SWAP4 DUP3 DUP6 DUP1 SWAP5 MLOAD SWAP4 DUP5 SWAP3 ADD PUSH2 0x19ED JUMP JUMPDEST DUP2 ADD PUSH1 0x5 DUP2 MSTORE SUB ADD SWAP1 KECCAK256 PUSH1 0x8 DUP1 DUP3 ADD SLOAD PUSH1 0xFF SWAP1 DUP2 DUP2 AND SWAP3 DUP4 PUSH2 0x673 JUMPI JUMPDEST POP POP POP PUSH2 0x649 JUMPI JUMPDEST POP PUSH2 0x644 SWAP1 PUSH2 0x1C2E JUMP JUMPDEST PUSH2 0x5E9 JUMP JUMPDEST SWAP5 PUSH2 0x644 SWAP2 SWAP5 PUSH1 0x4 PUSH2 0x663 PUSH2 0x66C SWAP4 PUSH1 0x3 DUP11 ADD SLOAD SWAP1 PUSH2 0x1C51 JUMP JUMPDEST SWAP8 ADD SLOAD SWAP1 PUSH2 0x1C51 JUMP JUMPDEST SWAP4 SWAP1 PUSH2 0x63A JUMP JUMPDEST SHR AND SWAP1 POP DUP10 DUP1 DUP1 PUSH2 0x632 JUMP JUMPDEST POP DUP5 DUP7 SWAP4 DUP6 DUP1 ISZERO DUP1 ISZERO SWAP1 PUSH2 0xB0F JUMPI JUMPDEST PUSH2 0xA7F JUMPI JUMPDEST POP POP PUSH1 0x40 MLOAD PUSH1 0x20 DUP2 DUP5 MLOAD PUSH2 0x6AA DUP2 DUP4 DUP6 DUP10 ADD PUSH2 0x19ED JUMP JUMPDEST DUP2 ADD PUSH1 0x5 DUP2 MSTORE SUB ADD SWAP1 KECCAK256 SWAP3 PUSH1 0x1 DUP1 PUSH1 0xA0 SHL SUB PUSH1 0x6 DUP6 ADD SLOAD AND DUP1 PUSH2 0x9F4 JUMPI JUMPDEST DUP1 PUSH2 0x9EF JUMPI POP CALLER JUMPDEST PUSH1 0x40 MLOAD SWAP2 PUSH2 0x6DD DUP4 PUSH2 0x195A JUMP JUMPDEST DUP5 DUP4 MSTORE DUP4 PUSH1 0x20 DUP5 ADD MSTORE PUSH1 0x40 DUP4 ADD MSTORE PUSH1 0x64 CALLDATALOAD PUSH1 0x60 DUP4 ADD MSTORE PUSH1 0x84 CALLDATALOAD PUSH1 0x80 DUP4 ADD MSTORE CALLER PUSH1 0xA0 DUP4 ADD MSTORE PUSH1 0x1 DUP1 PUSH1 0xA0 SHL SUB AND PUSH1 0xC0 DUP3 ADD MSTORE TIMESTAMP PUSH1 0xE0 DUP3 ADD MSTORE PUSH1 0x1 PUSH2 0x100 DUP3 ADD MSTORE PUSH1 0x1 PUSH2 0x120 DUP3 ADD MSTORE PUSH2 0x120 PUSH1 0x8 PUSH1 0x40 MLOAD PUSH1 0x20 DUP2 DUP8 MLOAD PUSH2 0x73E DUP2 DUP4 DUP6 DUP13 ADD PUSH2 0x19ED JUMP JUMPDEST DUP2 ADD PUSH1 0x5 DUP2 MSTORE SUB ADD SWAP1 KECCAK256 PUSH2 0x753 DUP5 MLOAD DUP3 PUSH2 0x1CBA JUMP JUMPDEST PUSH2 0x764 PUSH1 0x20 DUP6 ADD MLOAD PUSH1 0x1 DUP4 ADD PUSH2 0x1CBA JUMP JUMPDEST PUSH2 0x775 PUSH1 0x40 DUP6 ADD MLOAD PUSH1 0x2 DUP4 ADD PUSH2 0x1CBA JUMP JUMPDEST PUSH1 0x60 DUP5 ADD MLOAD PUSH1 0x3 DUP3 ADD SSTORE PUSH1 0x80 DUP5 ADD MLOAD PUSH1 0x4 DUP3 ADD SSTORE PUSH1 0x5 DUP2 ADD PUSH1 0x1 DUP1 PUSH1 0xA0 SHL SUB PUSH1 0xA0 DUP7 ADD MLOAD AND SWAP1 PUSH1 0x1 PUSH1 0x1 PUSH1 0x60 SHL SUB PUSH1 0xA0 SHL SWAP2 DUP3 DUP3 SLOAD AND OR SWAP1 SSTORE PUSH1 0x6 DUP3 ADD SWAP1 PUSH1 0x1 DUP1 PUSH1 0xA0 SHL SUB PUSH1 0xC0 DUP8 ADD MLOAD AND SWAP1 DUP3 SLOAD AND OR SWAP1 SSTORE PUSH1 0xE0 DUP5 ADD MLOAD PUSH1 0x7 DUP3 ADD SSTORE ADD SWAP2 PUSH2 0x7F0 PUSH2 0x100 DUP3 ADD MLOAD ISZERO ISZERO DUP5 SWAP1 PUSH1 0xFF DUP1 NOT DUP4 SLOAD AND SWAP2 ISZERO ISZERO AND OR SWAP1 SSTORE JUMP JUMPDEST ADD MLOAD ISZERO ISZERO PUSH2 0xFF00 DUP3 SLOAD SWAP2 PUSH1 0x8 SHL AND SWAP1 PUSH2 0xFF00 NOT AND OR SWAP1 SSTORE PUSH1 0x40 MLOAD PUSH1 0x20 DUP2 DUP5 MLOAD PUSH2 0x81C DUP2 DUP4 DUP6 DUP10 ADD PUSH2 0x19ED JUMP JUMPDEST DUP2 ADD PUSH1 0x8 DUP2 MSTORE SUB ADD SWAP1 KECCAK256 DUP1 SLOAD SWAP1 PUSH1 0x0 DUP2 SSTORE DUP2 PUSH2 0x982 JUMPI JUMPDEST POP POP PUSH1 0x0 JUMPDEST DUP5 MLOAD DUP2 LT ISZERO PUSH2 0x882 JUMPI PUSH2 0x87D SWAP1 PUSH2 0x878 PUSH1 0x40 MLOAD PUSH1 0x20 DUP2 DUP8 MLOAD PUSH2 0x85D DUP2 DUP4 DUP6 DUP13 ADD PUSH2 0x19ED JUMP JUMPDEST DUP2 ADD PUSH1 0x8 DUP2 MSTORE SUB ADD SWAP1 KECCAK256 PUSH2 0x871 DUP4 DUP10 PUSH2 0x1C3D JUMP JUMPDEST MLOAD SWAP1 PUSH2 0x1D81 JUMP JUMPDEST PUSH2 0x1C2E JUMP JUMPDEST PUSH2 0x838 JUMP JUMPDEST POP PUSH1 0x6 DUP4 ADD SLOAD SWAP1 SWAP3 SWAP1 PUSH1 0x1 PUSH1 0x1 PUSH1 0xA0 SHL SUB AND PUSH2 0x95B JUMPI POP CALLER PUSH1 0x0 MSTORE PUSH1 0x6 PUSH1 0x20 MSTORE PUSH2 0x8B0 DUP2 PUSH1 0x40 PUSH1 0x0 KECCAK256 PUSH2 0x1D81 JUMP JUMPDEST PUSH1 0x7 SLOAD PUSH1 0x1 PUSH1 0x40 SHL DUP2 LT ISZERO PUSH2 0x945 JUMPI DUP1 PUSH1 0x1 PUSH2 0x8CF SWAP3 ADD PUSH1 0x7 SSTORE PUSH2 0x1A97 JUMP JUMPDEST SWAP2 SWAP1 SWAP2 PUSH2 0x92F JUMPI PUSH2 0x8E3 DUP2 PUSH2 0x8E8 SWAP4 PUSH2 0x1CBA JUMP JUMPDEST PUSH2 0x1DAE JUMP JUMPDEST PUSH32 0x585D38EBCB0FE93CED4D64FBB112388B85B7726E7D87C5142521434D4F122384 PUSH2 0x91E PUSH1 0x40 MLOAD SWAP4 PUSH1 0x40 DUP6 MSTORE PUSH1 0x40 DUP6 ADD SWAP1 PUSH2 0x1A10 JUMP JUMPDEST SWAP3 PUSH1 0x64 CALLDATALOAD PUSH1 0x20 DUP3 ADD MSTORE DUP1 CALLER SWAP5 SUB SWAP1 LOG3 STOP JUMPDEST PUSH4 0x4E487B71 PUSH1 0xE0 SHL PUSH1 0x0 MSTORE PUSH1 0x0 PUSH1 0x4 MSTORE PUSH1 0x24 PUSH1 0x0 REVERT JUMPDEST PUSH4 0x4E487B71 PUSH1 0xE0 SHL PUSH1 0x0 MSTORE PUSH1 0x41 PUSH1 0x4 MSTORE PUSH1 0x24 PUSH1 0x0 REVERT JUMPDEST SWAP1 PUSH1 0xFF PUSH1 0x8 PUSH2 0x8E8 SWAP4 ADD SLOAD AND PUSH2 0x1DAE JUMPI CALLER PUSH1 0x0 MSTORE PUSH1 0x6 PUSH1 0x20 MSTORE PUSH2 0x8E3 DUP2 PUSH1 0x40 PUSH1 0x0 KECCAK256 PUSH2 0x1D81 JUMP JUMPDEST PUSH1 0x0 MSTORE PUSH1 0x20 PUSH1 0x0 KECCAK256 SWAP1 DUP2 ADD SWAP1 JUMPDEST DUP2 DUP2 LT ISZERO PUSH2 0x833 JUMPI DUP1 PUSH2 0x9A4 PUSH1 0x1 SWAP3 SLOAD PUSH2 0x1AFC JUMP JUMPDEST DUP1 PUSH2 0x9B1 JUMPI JUMPDEST POP ADD PUSH2 0x98F JUMP JUMPDEST PUSH1 0x1F SWAP1 DUP2 DUP2 GT DUP5 EQ PUSH2 0x9CA JUMPI POP POP PUSH1 0x0 DUP2 SSTORE JUMPDEST DUP8 PUSH2 0x9AA JUMP JUMPDEST PUSH2 0x9E6 PUSH1 0x0 SWAP3 DUP5 DUP5 MSTORE PUSH1 0x20 DUP5 KECCAK256 SWAP3 ADD PUSH1 0x5 SHR DUP3 ADD DUP6 DUP4 ADD PUSH2 0x1C5E JUMP JUMPDEST DUP2 DUP4 SSTORE SSTORE PUSH2 0x9C4 JUMP JUMPDEST PUSH2 0x6D0 JUMP JUMPDEST PUSH1 0xFF PUSH1 0x8 DUP7 ADD SLOAD AND ISZERO DUP1 ISZERO PUSH2 0xA69 JUMPI JUMPDEST PUSH2 0x6C8 JUMPI PUSH1 0x40 MLOAD PUSH3 0x461BCD PUSH1 0xE5 SHL DUP2 MSTORE PUSH1 0x20 PUSH1 0x4 DUP3 ADD MSTORE PUSH1 0x33 PUSH1 0x24 DUP3 ADD MSTORE PUSH32 0x4F6E6C79206F776E65722063616E2072652D7265676973746572206F72206173 PUSH1 0x44 DUP3 ADD MSTORE PUSH19 0x1CD95D081B5D5CDD0818994819195B195D1959 PUSH1 0x6A SHL PUSH1 0x64 DUP3 ADD MSTORE PUSH1 0x84 SWAP1 REVERT JUMPDEST POP PUSH1 0x5 DUP6 ADD SLOAD PUSH1 0x1 PUSH1 0x1 PUSH1 0xA0 SHL SUB AND CALLER EQ PUSH2 0xA04 JUMP JUMPDEST PUSH1 0x64 CALLDATALOAD GT SWAP1 DUP2 ISZERO PUSH2 0xB03 JUMPI JUMPDEST POP ISZERO PUSH2 0xA98 JUMPI DUP5 DUP1 PUSH2 0x693 JUMP JUMPDEST PUSH1 0x40 MLOAD PUSH3 0x461BCD PUSH1 0xE5 SHL DUP2 MSTORE PUSH1 0x20 PUSH1 0x4 DUP3 ADD MSTORE PUSH1 0x37 PUSH1 0x24 DUP3 ADD MSTORE PUSH32 0x4C69627261727920726F79616C7479206D757374206265206869676865722074 PUSH1 0x44 DUP3 ADD MSTORE PUSH32 0x68616E2073756D206F6620646570656E64656E63696573000000000000000000 PUSH1 0x64 DUP3 ADD MSTORE PUSH1 0x84 SWAP1 REVERT JUMPDEST SWAP1 POP PUSH1 0x84 CALLDATALOAD GT DUP6 PUSH2 0xA8B JUMP JUMPDEST POP DUP2 ISZERO ISZERO PUSH2 0x68E JUMP JUMPDEST PUSH1 0x40 MLOAD PUSH3 0x461BCD PUSH1 0xE5 SHL DUP2 MSTORE PUSH1 0x20 PUSH1 0x4 DUP3 ADD MSTORE PUSH1 0x1A PUSH1 0x24 DUP3 ADD MSTORE PUSH32 0x50726F6A6563742049442063616E6E6F7420626520656D707479000000000000 PUSH1 0x44 DUP3 ADD MSTORE PUSH1 0x64 SWAP1 REVERT JUMPDEST DUP2 CALLDATALOAD DUP6 DUP2 GT PUSH2 0x1D1 JUMPI PUSH1 0x20 SWAP2 PUSH2 0xB7A DUP4 SWAP3 PUSH1 0x24 CALLDATASIZE SWAP2 DUP9 ADD ADD PUSH2 0x1997 JUMP JUMPDEST DUP2 MSTORE ADD SWAP2 ADD SWAP1 PUSH2 0x5CD JUMP JUMPDEST CALLVALUE PUSH2 0x1D1 JUMPI PUSH1 0x0 CALLDATASIZE PUSH1 0x3 NOT ADD SLT PUSH2 0x1D1 JUMPI PUSH1 0x20 PUSH1 0x40 MLOAD PUSH2 0x2710 DUP2 MSTORE RETURN JUMPDEST CALLVALUE PUSH2 0x1D1 JUMPI PUSH1 0x20 CALLDATASIZE PUSH1 0x3 NOT ADD SLT PUSH2 0x1D1 JUMPI PUSH1 0x4 CALLDATALOAD PUSH1 0x1 PUSH1 0x1 PUSH1 0x40 SHL SUB DUP2 GT PUSH2 0x1D1 JUMPI PUSH2 0xBDC PUSH2 0xBD7 PUSH1 0x20 SWAP3 CALLDATASIZE SWAP1 PUSH1 0x4 ADD PUSH2 0x1997 JUMP JUMPDEST PUSH2 0x1E55 JUMP JUMPDEST PUSH1 0x40 MLOAD PUSH1 0x1 PUSH1 0x1 PUSH1 0xA0 SHL SUB SWAP1 SWAP2 AND DUP2 MSTORE RETURN JUMPDEST CALLVALUE PUSH2 0x1D1 JUMPI PUSH1 0x0 CALLDATASIZE PUSH1 0x3 NOT ADD SLT PUSH2 0x1D1 JUMPI PUSH1 0x20 PUSH1 0x9 SLOAD PUSH1 0x40 MLOAD SWAP1 DUP2 MSTORE RETURN JUMPDEST CALLVALUE PUSH2 0x1D1 JUMPI PUSH1 0x20 CALLDATASIZE PUSH1 0x3 NOT ADD SLT PUSH2 0x1D1 JUMPI PUSH1 0x4 CALLDATALOAD PUSH1 0x1 PUSH1 0x1 PUSH1 0x40 SHL SUB DUP2 GT PUSH2 0x1D1 JUMPI PUSH1 0x20 PUSH2 0xC41 PUSH2 0xC9D SWAP3 CALLDATASIZE SWAP1 PUSH1 0x4 ADD PUSH2 0x1997 JUMP JUMPDEST PUSH1 0x0 PUSH2 0x120 PUSH1 0x40 MLOAD PUSH2 0xC52 DUP2 PUSH2 0x195A JUMP JUMPDEST PUSH1 0x60 DUP2 MSTORE PUSH1 0x60 DUP6 DUP3 ADD MSTORE PUSH1 0x60 PUSH1 0x40 DUP3 ADD MSTORE DUP3 PUSH1 0x60 DUP3 ADD MSTORE DUP3 PUSH1 0x80 DUP3 ADD MSTORE DUP3 PUSH1 0xA0 DUP3 ADD MSTORE DUP3 PUSH1 0xC0 DUP3 ADD MSTORE DUP3 PUSH1 0xE0 DUP3 ADD MSTORE DUP3 PUSH2 0x100 DUP3 ADD MSTORE ADD MSTORE DUP2 PUSH1 0x40 MLOAD SWAP4 DUP3 DUP6 DUP1 SWAP5 MLOAD SWAP4 DUP5 SWAP3 ADD PUSH2 0x19ED JUMP JUMPDEST DUP2 ADD PUSH1 0x5 DUP2 MSTORE SUB ADD SWAP1 KECCAK256 PUSH1 0xFF PUSH1 0x8 PUSH1 0x40 MLOAD SWAP3 PUSH2 0xCB8 DUP5 PUSH2 0x195A JUMP JUMPDEST PUSH2 0xCC1 DUP2 PUSH2 0x1B36 JUMP JUMPDEST DUP5 MSTORE PUSH2 0xCCF PUSH1 0x1 DUP3 ADD PUSH2 0x1B36 JUMP JUMPDEST PUSH1 0x20 DUP6 ADD MSTORE PUSH2 0xCE0 PUSH1 0x2 DUP3 ADD PUSH2 0x1B36 JUMP JUMPDEST PUSH1 0x40 DUP6 ADD MSTORE PUSH1 0x3 DUP2 ADD SLOAD PUSH1 0x60 DUP6 ADD MSTORE PUSH1 0x4 DUP2 ADD SLOAD PUSH1 0x80 DUP6 ADD MSTORE PUSH1 0x1 DUP1 PUSH1 0xA0 SHL SUB PUSH1 0x5 DUP3 ADD SLOAD AND PUSH1 0xA0 DUP6 ADD MSTORE PUSH1 0x1 DUP1 PUSH1 0xA0 SHL SUB PUSH1 0x6 DUP3 ADD SLOAD AND PUSH1 0xC0 DUP6 ADD MSTORE PUSH1 0x7 DUP2 ADD SLOAD PUSH1 0xE0 DUP6 ADD MSTORE ADD SLOAD DUP2 DUP2 AND ISZERO ISZERO PUSH2 0x100 DUP5 ADD MSTORE PUSH1 0x8 SHR AND ISZERO ISZERO PUSH2 0x120 DUP3 ADD MSTORE PUSH1 0x40 MLOAD DUP1 SWAP2 PUSH1 0x20 DUP3 MSTORE PUSH2 0x120 PUSH2 0xD98 PUSH2 0xD67 DUP4 MLOAD PUSH2 0x140 PUSH1 0x20 DUP8 ADD MSTORE PUSH2 0x160 DUP7 ADD SWAP1 PUSH2 0x1A10 JUMP JUMPDEST PUSH2 0xD83 PUSH1 0x20 DUP6 ADD MLOAD SWAP2 PUSH1 0x1F NOT SWAP3 DUP4 DUP9 DUP4 SUB ADD PUSH1 0x40 DUP10 ADD MSTORE PUSH2 0x1A10 JUMP JUMPDEST SWAP1 PUSH1 0x40 DUP6 ADD MLOAD SWAP1 DUP7 DUP4 SUB ADD PUSH1 0x60 DUP8 ADD MSTORE PUSH2 0x1A10 JUMP JUMPDEST SWAP2 PUSH1 0x60 DUP2 ADD MLOAD PUSH1 0x80 DUP6 ADD MSTORE PUSH1 0x80 DUP2 ADD MLOAD PUSH1 0xA0 DUP6 ADD MSTORE PUSH1 0x1 DUP1 PUSH1 0xA0 SHL SUB PUSH1 0xA0 DUP3 ADD MLOAD AND PUSH1 0xC0 DUP6 ADD MSTORE PUSH1 0x1 DUP1 PUSH1 0xA0 SHL SUB PUSH1 0xC0 DUP3 ADD MLOAD AND PUSH1 0xE0 DUP6 ADD MSTORE PUSH1 0xE0 DUP2 ADD MLOAD PUSH2 0x100 DUP6 ADD MSTORE PUSH2 0x100 DUP2 ADD MLOAD ISZERO ISZERO DUP3 DUP6 ADD MSTORE ADD MLOAD ISZERO ISZERO PUSH2 0x140 DUP4 ADD MSTORE SUB SWAP1 RETURN JUMPDEST CALLVALUE PUSH2 0x1D1 JUMPI PUSH1 0x40 CALLDATASIZE PUSH1 0x3 NOT ADD SLT PUSH2 0x1D1 JUMPI PUSH2 0xE0F PUSH2 0x1BED JUMP JUMPDEST PUSH1 0x24 CALLDATALOAD DUP1 ISZERO ISZERO DUP2 SUB PUSH2 0x1D1 JUMPI PUSH2 0xE4D SWAP2 PUSH2 0xE27 PUSH2 0x1C1A JUMP JUMPDEST PUSH1 0x1 DUP1 PUSH1 0xA0 SHL SUB AND PUSH1 0x0 MSTORE PUSH1 0x4 PUSH1 0x20 MSTORE PUSH1 0x40 PUSH1 0x0 KECCAK256 SWAP1 PUSH1 0xFF DUP1 NOT DUP4 SLOAD AND SWAP2 ISZERO ISZERO AND OR SWAP1 SSTORE JUMP JUMPDEST STOP JUMPDEST CALLVALUE PUSH2 0x1D1 JUMPI PUSH1 0x0 CALLDATASIZE PUSH1 0x3 NOT ADD SLT PUSH2 0x1D1 JUMPI PUSH1 0x20 PUSH1 0x40 MLOAD PUSH20 0x833589FCD6EDB6E08F4C7C32D4F71B54BDA02913 DUP2 MSTORE RETURN JUMPDEST CALLVALUE PUSH2 0x1D1 JUMPI PUSH1 0x0 CALLDATASIZE PUSH1 0x3 NOT ADD SLT PUSH2 0x1D1 JUMPI PUSH1 0x0 SLOAD PUSH1 0x40 MLOAD PUSH1 0x1 PUSH1 0x1 PUSH1 0xA0 SHL SUB SWAP1 SWAP2 AND DUP2 MSTORE PUSH1 0x20 SWAP1 RETURN JUMPDEST CALLVALUE PUSH2 0x1D1 JUMPI PUSH1 0x20 CALLDATASIZE PUSH1 0x3 NOT ADD SLT PUSH2 0x1D1 JUMPI PUSH1 0x4 CALLDATALOAD PUSH1 0x7 SLOAD DUP2 LT ISZERO PUSH2 0xEDA JUMPI PUSH2 0x3AB PUSH2 0xED4 PUSH2 0x3BF SWAP3 PUSH2 0x1A97 JUMP JUMPDEST POP PUSH2 0x1B36 JUMP JUMPDEST PUSH1 0x40 MLOAD PUSH3 0x461BCD PUSH1 0xE5 SHL DUP2 MSTORE PUSH1 0x20 PUSH1 0x4 DUP3 ADD MSTORE PUSH1 0x13 PUSH1 0x24 DUP3 ADD MSTORE PUSH19 0x496E646578206F7574206F6620626F756E6473 PUSH1 0x68 SHL PUSH1 0x44 DUP3 ADD MSTORE PUSH1 0x64 SWAP1 REVERT JUMPDEST CALLVALUE PUSH2 0x1D1 JUMPI PUSH1 0x0 CALLDATASIZE PUSH1 0x3 NOT ADD SLT PUSH2 0x1D1 JUMPI PUSH1 0x1 SLOAD PUSH1 0x1 PUSH1 0x1 PUSH1 0xA0 SHL SUB CALLER DUP2 DUP4 AND SUB PUSH2 0xF81 JUMPI PUSH1 0x1 PUSH1 0x1 PUSH1 0x60 SHL SUB PUSH1 0xA0 SHL DUP1 SWAP3 AND PUSH1 0x1 SSTORE PUSH1 0x0 SLOAD SWAP2 CALLER SWAP1 DUP4 AND OR PUSH1 0x0 SSTORE CALLER SWAP2 AND PUSH32 0x8BE0079C531659141344CD1FD0A4F28419497F9722A3DAAFE3B4186F6B6457E0 PUSH1 0x0 DUP1 LOG3 STOP JUMPDEST PUSH1 0x40 MLOAD PUSH4 0x118CDAA7 PUSH1 0xE0 SHL DUP2 MSTORE CALLER PUSH1 0x4 DUP3 ADD MSTORE PUSH1 0x24 SWAP1 REVERT JUMPDEST CALLVALUE PUSH2 0x1D1 JUMPI PUSH1 0x20 DUP1 PUSH1 0x3 NOT CALLDATASIZE ADD SLT PUSH2 0x1D1 JUMPI PUSH1 0x1 PUSH1 0x1 PUSH1 0xA0 SHL SUB PUSH2 0xFBB PUSH2 0x1BED JUMP JUMPDEST AND PUSH1 0x0 MSTORE PUSH1 0x6 DUP2 MSTORE PUSH1 0x40 PUSH1 0x0 KECCAK256 DUP1 SLOAD PUSH2 0xFD3 DUP2 PUSH2 0x1C03 JUMP JUMPDEST SWAP2 PUSH2 0xFE1 PUSH1 0x40 MLOAD SWAP4 DUP5 PUSH2 0x1976 JUMP JUMPDEST DUP2 DUP4 MSTORE PUSH1 0x0 SWAP1 DUP2 MSTORE DUP4 DUP2 KECCAK256 SWAP4 DUP1 DUP5 ADD JUMPDEST DUP4 DUP4 LT PUSH2 0x1006 JUMPI PUSH1 0x40 MLOAD DUP1 PUSH2 0x3BF DUP8 DUP3 PUSH2 0x1A35 JUMP JUMPDEST PUSH1 0x1 DUP3 DUP2 SWAP3 PUSH2 0x1014 DUP10 PUSH2 0x1B36 JUMP JUMPDEST DUP2 MSTORE ADD SWAP7 ADD SWAP3 ADD SWAP2 SWAP5 PUSH2 0xFF1 JUMP JUMPDEST CALLVALUE PUSH2 0x1D1 JUMPI PUSH1 0x0 CALLDATASIZE PUSH1 0x3 NOT ADD SLT PUSH2 0x1D1 JUMPI PUSH2 0x103B PUSH2 0x1C1A JUMP JUMPDEST PUSH1 0x1 DUP1 SLOAD PUSH1 0x1 PUSH1 0x1 PUSH1 0xA0 SHL SUB NOT SWAP1 DUP2 AND SWAP1 SWAP2 SSTORE PUSH1 0x0 DUP1 SLOAD SWAP2 DUP3 AND DUP2 SSTORE SWAP1 PUSH1 0x1 PUSH1 0x1 PUSH1 0xA0 SHL SUB AND PUSH32 0x8BE0079C531659141344CD1FD0A4F28419497F9722A3DAAFE3B4186F6B6457E0 DUP3 DUP1 LOG3 STOP JUMPDEST CALLVALUE PUSH2 0x1D1 JUMPI PUSH1 0x0 CALLDATASIZE PUSH1 0x3 NOT ADD SLT PUSH2 0x1D1 JUMPI PUSH1 0x20 PUSH1 0x7 SLOAD PUSH1 0x40 MLOAD SWAP1 DUP2 MSTORE RETURN JUMPDEST CALLVALUE PUSH2 0x1D1 JUMPI PUSH1 0x20 CALLDATASIZE PUSH1 0x3 NOT ADD SLT PUSH2 0x1D1 JUMPI PUSH1 0x4 CALLDATALOAD PUSH1 0x1 PUSH1 0x1 PUSH1 0x40 SHL SUB DUP2 GT PUSH2 0x1D1 JUMPI PUSH2 0x10F0 PUSH1 0x20 PUSH2 0x10DD PUSH2 0x1167 SWAP4 CALLDATASIZE SWAP1 PUSH1 0x4 ADD PUSH2 0x1997 JUMP JUMPDEST DUP2 PUSH1 0x40 MLOAD SWAP4 DUP3 DUP6 DUP1 SWAP5 MLOAD SWAP4 DUP5 SWAP3 ADD PUSH2 0x19ED JUMP JUMPDEST DUP2 ADD PUSH1 0x5 DUP2 MSTORE SUB ADD SWAP1 KECCAK256 PUSH2 0x1103 DUP2 PUSH2 0x1B36 JUMP JUMPDEST SWAP1 PUSH1 0xFF PUSH2 0x1112 PUSH1 0x1 DUP4 ADD PUSH2 0x1B36 JUMP JUMPDEST PUSH2 0x111E PUSH1 0x2 DUP5 ADD PUSH2 0x1B36 JUMP JUMPDEST SWAP3 PUSH1 0x3 DUP2 ADD SLOAD SWAP4 PUSH1 0x4 DUP3 ADD SLOAD PUSH1 0x1 DUP1 PUSH1 0xA0 SHL SUB SWAP1 PUSH2 0x1183 DUP3 PUSH1 0x5 DUP7 ADD SLOAD AND SWAP3 PUSH1 0x6 DUP7 ADD SLOAD AND SWAP4 PUSH2 0x1175 PUSH1 0x8 PUSH1 0x7 DUP9 ADD SLOAD SWAP8 ADD SLOAD SWAP8 PUSH1 0x40 MLOAD SWAP13 DUP14 SWAP13 DUP14 PUSH2 0x140 SWAP1 DUP2 DUP2 MSTORE ADD SWAP1 PUSH2 0x1A10 JUMP JUMPDEST DUP13 DUP2 SUB PUSH1 0x20 DUP15 ADD MSTORE SWAP1 PUSH2 0x1A10 JUMP JUMPDEST SWAP1 DUP11 DUP3 SUB PUSH1 0x40 DUP13 ADD MSTORE PUSH2 0x1A10 JUMP JUMPDEST SWAP7 PUSH1 0x60 DUP10 ADD MSTORE PUSH1 0x80 DUP9 ADD MSTORE PUSH1 0xA0 DUP8 ADD MSTORE PUSH1 0xC0 DUP7 ADD MSTORE PUSH1 0xE0 DUP6 ADD MSTORE DUP2 DUP2 AND ISZERO ISZERO PUSH2 0x100 DUP6 ADD MSTORE PUSH1 0x8 SHR AND ISZERO ISZERO PUSH2 0x120 DUP4 ADD MSTORE SUB SWAP1 RETURN JUMPDEST CALLVALUE PUSH2 0x1D1 JUMPI PUSH1 0x60 CALLDATASIZE PUSH1 0x3 NOT ADD SLT PUSH2 0x1D1 JUMPI PUSH1 0x4 CALLDATALOAD PUSH1 0x1 PUSH1 0x1 PUSH1 0x40 SHL SUB DUP2 GT PUSH2 0x1D1 JUMPI PUSH2 0x11E8 SWAP1 CALLDATASIZE SWAP1 PUSH1 0x4 ADD PUSH2 0x1997 JUMP JUMPDEST PUSH1 0x24 CALLDATALOAD PUSH1 0x44 CALLDATALOAD SWAP2 PUSH1 0x40 MLOAD PUSH1 0x20 DUP2 DUP4 MLOAD PUSH2 0x1204 DUP2 DUP4 DUP6 DUP9 ADD PUSH2 0x19ED JUMP JUMPDEST DUP2 ADD PUSH1 0x5 DUP2 MSTORE SUB ADD SWAP1 KECCAK256 SWAP2 PUSH2 0x121F PUSH1 0xFF PUSH1 0x8 DUP6 ADD SLOAD AND PUSH2 0x1DCE JUMP JUMPDEST PUSH1 0x5 DUP4 ADD SLOAD PUSH1 0x1 PUSH1 0x1 PUSH1 0xA0 SHL SUB AND CALLER SUB PUSH2 0x1279 JUMPI PUSH2 0x126B PUSH1 0x40 SWAP3 DUP6 PUSH1 0x4 DUP7 DUP6 PUSH1 0x3 PUSH32 0x59E8620B0742A7ACF1FA2C6236758D97E05221785068EE1EF79E8DDE26CB755F SWAP10 ADD SSTORE ADD SSTORE PUSH2 0x1DAE JUMP JUMPDEST SWAP4 DUP3 MLOAD SWAP2 DUP3 MSTORE PUSH1 0x20 DUP3 ADD MSTORE LOG2 STOP JUMPDEST PUSH1 0x40 MLOAD PUSH3 0x461BCD PUSH1 0xE5 SHL DUP2 MSTORE PUSH1 0x20 PUSH1 0x4 DUP3 ADD MSTORE PUSH1 0x1D PUSH1 0x24 DUP3 ADD MSTORE PUSH32 0x4F6E6C79206F776E65722063616E2075706461746520726F79616C7479000000 PUSH1 0x44 DUP3 ADD MSTORE PUSH1 0x64 SWAP1 REVERT JUMPDEST CALLVALUE PUSH2 0x1D1 JUMPI PUSH1 0x40 CALLDATASIZE PUSH1 0x3 NOT ADD SLT PUSH2 0x1D1 JUMPI PUSH2 0x12D7 PUSH2 0x1BED JUMP JUMPDEST PUSH1 0x1 PUSH1 0x1 PUSH1 0xA0 SHL SUB AND PUSH1 0x0 SWAP1 DUP2 MSTORE PUSH1 0x6 PUSH1 0x20 MSTORE PUSH1 0x40 SWAP1 KECCAK256 DUP1 SLOAD PUSH1 0x24 CALLDATALOAD SWAP1 DUP2 LT ISZERO PUSH2 0x1D1 JUMPI PUSH2 0x3A5 PUSH2 0x3AB SWAP2 PUSH2 0x3BF SWAP4 PUSH2 0x1AE4 JUMP JUMPDEST CALLVALUE PUSH2 0x1D1 JUMPI PUSH1 0x20 CALLDATASIZE PUSH1 0x3 NOT ADD SLT PUSH2 0x1D1 JUMPI PUSH1 0x1 PUSH1 0x1 PUSH1 0xA0 SHL SUB PUSH2 0x132C PUSH2 0x1BED JUMP JUMPDEST AND PUSH1 0x0 MSTORE PUSH1 0x4 PUSH1 0x20 MSTORE PUSH1 0x20 PUSH1 0xFF PUSH1 0x40 PUSH1 0x0 KECCAK256 SLOAD AND PUSH1 0x40 MLOAD SWAP1 ISZERO ISZERO DUP2 MSTORE RETURN JUMPDEST CALLVALUE PUSH2 0x1D1 JUMPI PUSH1 0x40 CALLDATASIZE PUSH1 0x3 NOT ADD SLT PUSH2 0x1D1 JUMPI PUSH1 0x4 CALLDATALOAD PUSH1 0x1 PUSH1 0x1 PUSH1 0x40 SHL SUB DUP2 GT PUSH2 0x1D1 JUMPI PUSH2 0x137A SWAP1 CALLDATASIZE SWAP1 PUSH1 0x4 ADD PUSH2 0x1997 JUMP JUMPDEST PUSH1 0x24 CALLDATALOAD PUSH1 0x1 PUSH1 0x1 PUSH1 0xA0 SHL SUB DUP1 DUP3 AND DUP3 SUB PUSH2 0x1D1 JUMPI PUSH1 0x40 MLOAD PUSH1 0x20 DUP2 DUP6 MLOAD PUSH2 0x13A3 DUP2 DUP4 DUP6 DUP11 ADD PUSH2 0x19ED JUMP JUMPDEST DUP2 ADD PUSH1 0x5 DUP2 MSTORE SUB ADD SWAP1 KECCAK256 SWAP2 PUSH2 0x13BE PUSH1 0xFF PUSH1 0x8 DUP6 ADD SLOAD AND PUSH2 0x1DCE JUMP JUMPDEST DUP2 PUSH1 0x5 DUP5 ADD SLOAD AND SWAP2 DUP3 CALLER EQ DUP1 ISZERO PUSH2 0x1687 JUMPI JUMPDEST ISZERO PUSH2 0x1642 JUMPI DUP1 DUP3 AND ISZERO PUSH2 0x1609 JUMPI DUP3 PUSH1 0x0 MSTORE PUSH1 0x6 PUSH1 0x20 MSTORE PUSH1 0x40 PUSH1 0x0 KECCAK256 SWAP2 PUSH1 0x0 JUMPDEST DUP4 SLOAD DUP1 DUP3 LT ISZERO PUSH2 0x15FA JUMPI PUSH2 0x1403 DUP3 DUP7 PUSH2 0x1AE4 JUMP JUMPDEST POP PUSH1 0x40 MLOAD SWAP1 DUP2 PUSH1 0x0 DUP3 SLOAD SWAP3 PUSH2 0x1417 DUP5 PUSH2 0x1AFC JUMP JUMPDEST DUP1 DUP5 MSTORE SWAP4 PUSH1 0x1 DUP2 AND SWAP1 DUP2 ISZERO PUSH2 0x15D8 JUMPI POP PUSH1 0x1 EQ PUSH2 0x1596 JUMPI JUMPDEST POP PUSH2 0x143C SWAP3 POP SUB DUP3 PUSH2 0x1976 JUMP JUMPDEST PUSH1 0x20 DUP2 MLOAD SWAP2 ADD KECCAK256 DUP9 MLOAD PUSH1 0x20 DUP11 ADD KECCAK256 EQ PUSH2 0x145E JUMPI POP PUSH2 0x1459 SWAP1 PUSH2 0x1C2E JUMP JUMPDEST PUSH2 0x13EF JUMP JUMPDEST SWAP1 PUSH1 0x0 SWAP7 SWAP3 SWAP4 SWAP5 SWAP6 SWAP7 NOT SWAP2 DUP3 DUP2 ADD SWAP1 DUP2 GT PUSH2 0x1580 JUMPI PUSH2 0x1480 PUSH2 0x1488 SWAP2 DUP9 PUSH2 0x1AE4 JUMP JUMPDEST POP SWAP2 DUP8 PUSH2 0x1AE4 JUMP JUMPDEST SWAP2 SWAP1 SWAP2 PUSH2 0x92F JUMPI PUSH2 0x1498 SWAP2 PUSH2 0x1E9B JUMP JUMPDEST DUP5 SLOAD DUP1 ISZERO PUSH2 0x156A JUMPI ADD PUSH2 0x14AB DUP2 DUP7 PUSH2 0x1AE4 JUMP JUMPDEST SWAP6 SWAP1 SWAP6 PUSH2 0x92F JUMPI DUP6 PUSH2 0x14C0 PUSH2 0x1504 SWAP8 SLOAD PUSH2 0x1AFC JUMP JUMPDEST SWAP1 DUP2 PUSH2 0x152B JUMPI JUMPDEST POP POP SSTORE JUMPDEST PUSH1 0x5 DUP4 DUP4 AND PUSH1 0x1 PUSH1 0x1 PUSH1 0x60 SHL SUB PUSH1 0xA0 SHL DUP3 DUP5 ADD SLOAD AND OR SWAP2 ADD SSTORE DUP2 DUP2 AND PUSH1 0x0 MSTORE PUSH1 0x6 PUSH1 0x20 MSTORE PUSH2 0x14FD DUP6 PUSH1 0x40 PUSH1 0x0 KECCAK256 PUSH2 0x1D81 JUMP JUMPDEST AND SWAP3 PUSH2 0x1DAE JUMP JUMPDEST PUSH32 0x6840904F5B31827F74E1497360DA245F56E530C8C3DE3163A2D31F11493273C6 PUSH1 0x0 DUP1 LOG4 STOP JUMPDEST PUSH1 0x0 SWAP2 PUSH1 0x1F DUP1 DUP3 GT PUSH1 0x1 EQ PUSH2 0x1545 JUMPI POP POP SSTORE JUMPDEST DUP9 DUP1 PUSH2 0x14C7 JUMP JUMPDEST SWAP2 PUSH2 0x1563 DUP5 SWAP3 SWAP4 DUP3 DUP5 MSTORE PUSH1 0x20 DUP5 KECCAK256 SWAP5 ADD PUSH1 0x5 SHR DUP5 ADD PUSH1 0x1 DUP6 ADD PUSH2 0x1C5E JUMP JUMPDEST SSTORE SSTORE PUSH2 0x153E JUMP JUMPDEST PUSH4 0x4E487B71 PUSH1 0xE0 SHL PUSH1 0x0 MSTORE PUSH1 0x31 PUSH1 0x4 MSTORE PUSH1 0x24 PUSH1 0x0 REVERT JUMPDEST PUSH4 0x4E487B71 PUSH1 0xE0 SHL PUSH1 0x0 MSTORE PUSH1 0x11 PUSH1 0x4 MSTORE PUSH1 0x24 PUSH1 0x0 REVERT JUMPDEST SWAP2 POP POP PUSH1 0x0 MSTORE PUSH1 0x20 PUSH1 0x0 KECCAK256 SWAP1 PUSH1 0x0 SWAP2 JUMPDEST DUP2 DUP4 LT PUSH2 0x15BF JUMPI POP POP DUP2 PUSH1 0x20 PUSH2 0x143C SWAP3 DUP3 ADD ADD DUP13 PUSH2 0x142F JUMP JUMPDEST DUP1 SLOAD PUSH1 0x20 DUP5 DUP7 ADD DUP2 ADD SWAP2 SWAP1 SWAP2 MSTORE SWAP1 SWAP3 ADD SWAP2 PUSH1 0x1 ADD PUSH2 0x15A6 JUMP JUMPDEST SWAP1 POP PUSH1 0x20 SWAP3 POP PUSH2 0x143C SWAP5 SWAP2 POP PUSH1 0xFF NOT AND DUP3 DUP5 ADD MSTORE ISZERO ISZERO PUSH1 0x5 SHL DUP3 ADD ADD DUP13 PUSH2 0x142F JUMP JUMPDEST POP POP SWAP1 SWAP2 POP PUSH2 0x1504 SWAP3 SWAP4 PUSH2 0x14CB JUMP JUMPDEST PUSH1 0x40 MLOAD PUSH3 0x461BCD PUSH1 0xE5 SHL DUP2 MSTORE PUSH1 0x20 PUSH1 0x4 DUP3 ADD MSTORE PUSH1 0x11 PUSH1 0x24 DUP3 ADD MSTORE PUSH17 0x24B73B30B634B2103732BB9037BBB732B9 PUSH1 0x79 SHL PUSH1 0x44 DUP3 ADD MSTORE PUSH1 0x64 SWAP1 REVERT JUMPDEST PUSH1 0x40 MLOAD PUSH3 0x461BCD PUSH1 0xE5 SHL DUP2 MSTORE PUSH1 0x20 PUSH1 0x4 DUP3 ADD MSTORE PUSH1 0x1A PUSH1 0x24 DUP3 ADD MSTORE PUSH32 0x4E6F7420617574686F72697A656420746F207472616E73666572000000000000 PUSH1 0x44 DUP3 ADD MSTORE PUSH1 0x64 SWAP1 REVERT JUMPDEST POP CALLER PUSH1 0x0 MSTORE PUSH1 0x4 PUSH1 0x20 MSTORE PUSH1 0xFF PUSH1 0x40 PUSH1 0x0 KECCAK256 SLOAD AND PUSH2 0x13D0 JUMP JUMPDEST CALLVALUE PUSH2 0x1D1 JUMPI PUSH1 0x20 CALLDATASIZE PUSH1 0x3 NOT ADD SLT PUSH2 0x1D1 JUMPI PUSH1 0x4 CALLDATALOAD PUSH1 0x1 PUSH1 0x1 PUSH1 0x40 SHL SUB DUP2 GT PUSH2 0x1D1 JUMPI PUSH2 0x16CF SWAP1 CALLDATASIZE SWAP1 PUSH1 0x4 ADD PUSH2 0x1997 JUMP JUMPDEST PUSH1 0x40 MLOAD PUSH1 0x20 DUP2 DUP4 MLOAD PUSH2 0x16E4 DUP2 DUP4 DUP6 DUP9 ADD PUSH2 0x19ED JUMP JUMPDEST DUP2 ADD PUSH1 0x5 DUP2 MSTORE SUB ADD SWAP1 KECCAK256 PUSH1 0x8 DUP2 ADD SWAP1 DUP2 SLOAD SWAP1 PUSH2 0x1702 PUSH1 0xFF DUP4 AND PUSH2 0x1DCE JUMP JUMPDEST PUSH1 0xFF DUP3 PUSH1 0x8 SHR AND ISZERO PUSH2 0x179E JUMPI PUSH1 0x5 ADD SLOAD PUSH1 0x1 PUSH1 0x1 PUSH1 0xA0 SHL SUB AND CALLER SUB PUSH2 0x1759 JUMPI PUSH2 0xFF00 NOT AND SWAP1 SSTORE PUSH2 0x1732 CALLER SWAP2 PUSH2 0x1DAE JUMP JUMPDEST PUSH32 0x90770CDBE2AF4A141FAA5D52BF81D7904916CF199AB0684F8D30CB4B477FAE86 PUSH1 0x0 DUP1 LOG3 STOP JUMPDEST PUSH1 0x40 MLOAD PUSH3 0x461BCD PUSH1 0xE5 SHL DUP2 MSTORE PUSH1 0x20 PUSH1 0x4 DUP3 ADD MSTORE PUSH1 0x1E PUSH1 0x24 DUP3 ADD MSTORE PUSH32 0x4F6E6C79206F776E65722063616E2064697361626C6520726F79616C74790000 PUSH1 0x44 DUP3 ADD MSTORE PUSH1 0x64 SWAP1 REVERT JUMPDEST PUSH1 0x40 MLOAD PUSH3 0x461BCD PUSH1 0xE5 SHL DUP2 MSTORE PUSH1 0x20 PUSH1 0x4 DUP3 ADD MSTORE PUSH1 0x18 PUSH1 0x24 DUP3 ADD MSTORE PUSH32 0x526F79616C747920616C72656164792064697361626C65640000000000000000 PUSH1 0x44 DUP3 ADD MSTORE PUSH1 0x64 SWAP1 REVERT JUMPDEST CALLVALUE PUSH2 0x1D1 JUMPI PUSH1 0x0 CALLDATASIZE PUSH1 0x3 NOT ADD SLT PUSH2 0x1D1 JUMPI PUSH1 0x3 SLOAD PUSH1 0x40 MLOAD PUSH1 0x1 PUSH1 0x1 PUSH1 0xA0 SHL SUB SWAP1 SWAP2 AND DUP2 MSTORE PUSH1 0x20 SWAP1 RETURN JUMPDEST CALLVALUE PUSH2 0x1D1 JUMPI PUSH1 0x0 CALLDATASIZE PUSH1 0x3 NOT ADD SLT PUSH2 0x1D1 JUMPI PUSH1 0x40 MLOAD PUSH32 0x0 PUSH1 0x1 PUSH1 0x1 PUSH1 0xA0 SHL SUB AND DUP2 MSTORE PUSH1 0x20 SWAP1 RETURN JUMPDEST CALLVALUE PUSH2 0x1D1 JUMPI PUSH1 0x40 CALLDATASIZE PUSH1 0x3 NOT ADD SLT PUSH2 0x1D1 JUMPI PUSH1 0x4 CALLDATALOAD PUSH1 0x1 PUSH1 0x1 PUSH1 0x40 SHL SUB DUP2 GT PUSH2 0x1D1 JUMPI PUSH2 0x1881 SWAP1 CALLDATASIZE SWAP1 PUSH1 0x4 ADD PUSH2 0x1997 JUMP JUMPDEST PUSH2 0x189D PUSH1 0x20 PUSH1 0x24 CALLDATALOAD SWAP3 DUP2 PUSH1 0x40 MLOAD SWAP4 DUP3 DUP6 DUP1 SWAP5 MLOAD SWAP4 DUP5 SWAP3 ADD PUSH2 0x19ED JUMP JUMPDEST DUP2 ADD PUSH1 0x8 DUP2 MSTORE SUB ADD SWAP1 KECCAK256 SWAP1 DUP2 SLOAD DUP2 LT ISZERO PUSH2 0x1D1 JUMPI PUSH2 0x3A5 PUSH2 0x3AB SWAP2 PUSH2 0x3BF SWAP4 PUSH2 0x1AE4 JUMP JUMPDEST CALLVALUE PUSH2 0x1D1 JUMPI PUSH1 0x20 DUP1 PUSH1 0x3 NOT CALLDATASIZE ADD SLT PUSH2 0x1D1 JUMPI PUSH1 0x4 CALLDATALOAD PUSH1 0x1 PUSH1 0x1 PUSH1 0x40 SHL SUB DUP2 GT PUSH2 0x1D1 JUMPI DUP2 PUSH2 0x10DD PUSH2 0x18F6 SWAP3 CALLDATASIZE SWAP1 PUSH1 0x4 ADD PUSH2 0x1997 JUMP JUMPDEST DUP2 ADD PUSH1 0x8 DUP2 MSTORE SUB ADD SWAP1 KECCAK256 DUP1 SLOAD PUSH2 0x190B DUP2 PUSH2 0x1C03 JUMP JUMPDEST SWAP2 PUSH2 0x1919 PUSH1 0x40 MLOAD SWAP4 DUP5 PUSH2 0x1976 JUMP JUMPDEST DUP2 DUP4 MSTORE PUSH1 0x0 SWAP1 DUP2 MSTORE DUP4 DUP2 KECCAK256 SWAP4 DUP1 DUP5 ADD JUMPDEST DUP4 DUP4 LT PUSH2 0x193E JUMPI PUSH1 0x40 MLOAD DUP1 PUSH2 0x3BF DUP8 DUP3 PUSH2 0x1A35 JUMP JUMPDEST PUSH1 0x1 DUP3 DUP2 SWAP3 PUSH2 0x194C DUP10 PUSH2 0x1B36 JUMP JUMPDEST DUP2 MSTORE ADD SWAP7 ADD SWAP3 ADD SWAP2 SWAP5 PUSH2 0x1929 JUMP JUMPDEST PUSH2 0x140 DUP2 ADD SWAP1 DUP2 LT PUSH1 0x1 PUSH1 0x1 PUSH1 0x40 SHL SUB DUP3 GT OR PUSH2 0x945 JUMPI PUSH1 0x40 MSTORE JUMP JUMPDEST SWAP1 PUSH1 0x1F DUP1 NOT SWAP2 ADD AND DUP2 ADD SWAP1 DUP2 LT PUSH1 0x1 PUSH1 0x1 PUSH1 0x40 SHL SUB DUP3 GT OR PUSH2 0x945 JUMPI PUSH1 0x40 MSTORE JUMP JUMPDEST DUP2 PUSH1 0x1F DUP3 ADD SLT ISZERO PUSH2 0x1D1 JUMPI DUP1 CALLDATALOAD SWAP1 PUSH1 0x1 PUSH1 0x1 PUSH1 0x40 SHL SUB DUP3 GT PUSH2 0x945 JUMPI PUSH1 0x40 MLOAD SWAP3 PUSH2 0x19CB PUSH1 0x1F DUP5 ADD PUSH1 0x1F NOT AND PUSH1 0x20 ADD DUP6 PUSH2 0x1976 JUMP JUMPDEST DUP3 DUP5 MSTORE PUSH1 0x20 DUP4 DUP4 ADD ADD GT PUSH2 0x1D1 JUMPI DUP2 PUSH1 0x0 SWAP3 PUSH1 0x20 DUP1 SWAP4 ADD DUP4 DUP7 ADD CALLDATACOPY DUP4 ADD ADD MSTORE SWAP1 JUMP JUMPDEST PUSH1 0x0 JUMPDEST DUP4 DUP2 LT PUSH2 0x1A00 JUMPI POP POP PUSH1 0x0 SWAP2 ADD MSTORE JUMP JUMPDEST DUP2 DUP2 ADD MLOAD DUP4 DUP3 ADD MSTORE PUSH1 0x20 ADD PUSH2 0x19F0 JUMP JUMPDEST SWAP1 PUSH1 0x20 SWAP2 PUSH2 0x1A29 DUP2 MLOAD DUP1 SWAP3 DUP2 DUP6 MSTORE DUP6 DUP1 DUP7 ADD SWAP2 ADD PUSH2 0x19ED JUMP JUMPDEST PUSH1 0x1F ADD PUSH1 0x1F NOT AND ADD ADD SWAP1 JUMP JUMPDEST PUSH1 0x20 DUP1 DUP3 ADD SWAP1 DUP1 DUP4 MSTORE DUP4 MLOAD DUP1 SWAP3 MSTORE PUSH1 0x40 DUP4 ADD SWAP3 DUP2 PUSH1 0x40 DUP5 PUSH1 0x5 SHL DUP4 ADD ADD SWAP6 ADD SWAP4 PUSH1 0x0 SWAP2 JUMPDEST DUP5 DUP4 LT PUSH2 0x1A69 JUMPI POP POP POP POP POP POP SWAP1 JUMP JUMPDEST SWAP1 SWAP2 SWAP3 SWAP4 SWAP5 SWAP6 DUP5 DUP1 PUSH2 0x1A87 PUSH1 0x1 SWAP4 PUSH1 0x3F NOT DUP7 DUP3 SUB ADD DUP8 MSTORE DUP11 MLOAD PUSH2 0x1A10 JUMP JUMPDEST SWAP9 ADD SWAP4 ADD SWAP4 ADD SWAP2 SWAP5 SWAP4 SWAP3 SWAP1 PUSH2 0x1A59 JUMP JUMPDEST PUSH1 0x7 SLOAD DUP2 LT ISZERO PUSH2 0x1ACE JUMPI PUSH1 0x7 PUSH1 0x0 MSTORE PUSH32 0xA66CC928B5EDB82AF9BD49922954155AB7B0942694BEA4CE44661D9A8736C688 ADD SWAP1 PUSH1 0x0 SWAP1 JUMP JUMPDEST PUSH4 0x4E487B71 PUSH1 0xE0 SHL PUSH1 0x0 MSTORE PUSH1 0x32 PUSH1 0x4 MSTORE PUSH1 0x24 PUSH1 0x0 REVERT JUMPDEST DUP1 SLOAD DUP3 LT ISZERO PUSH2 0x1ACE JUMPI PUSH1 0x0 MSTORE PUSH1 0x20 PUSH1 0x0 KECCAK256 ADD SWAP1 PUSH1 0x0 SWAP1 JUMP JUMPDEST SWAP1 PUSH1 0x1 DUP3 DUP2 SHR SWAP3 AND DUP1 ISZERO PUSH2 0x1B2C JUMPI JUMPDEST PUSH1 0x20 DUP4 LT EQ PUSH2 0x1B16 JUMPI JUMP JUMPDEST PUSH4 0x4E487B71 PUSH1 0xE0 SHL PUSH1 0x0 MSTORE PUSH1 0x22 PUSH1 0x4 MSTORE PUSH1 0x24 PUSH1 0x0 REVERT JUMPDEST SWAP2 PUSH1 0x7F AND SWAP2 PUSH2 0x1B0B JUMP JUMPDEST SWAP1 PUSH1 0x40 MLOAD SWAP2 DUP3 PUSH1 0x0 DUP3 SLOAD SWAP3 PUSH2 0x1B4A DUP5 PUSH2 0x1AFC JUMP JUMPDEST SWAP1 DUP2 DUP5 MSTORE PUSH1 0x1 SWAP5 DUP6 DUP2 AND SWAP1 DUP2 PUSH1 0x0 EQ PUSH2 0x1BB9 JUMPI POP PUSH1 0x1 EQ PUSH2 0x1B76 JUMPI JUMPDEST POP POP PUSH2 0x1B74 SWAP3 POP SUB DUP4 PUSH2 0x1976 JUMP JUMPDEST JUMP JUMPDEST SWAP1 SWAP4 SWAP2 POP PUSH1 0x0 MSTORE PUSH1 0x20 SWAP1 DUP2 PUSH1 0x0 KECCAK256 SWAP4 PUSH1 0x0 SWAP2 JUMPDEST DUP2 DUP4 LT PUSH2 0x1BA1 JUMPI POP POP PUSH2 0x1B74 SWAP4 POP DUP3 ADD ADD CODESIZE DUP1 PUSH2 0x1B66 JUMP JUMPDEST DUP6 SLOAD DUP9 DUP5 ADD DUP6 ADD MSTORE SWAP5 DUP6 ADD SWAP5 DUP8 SWAP5 POP SWAP2 DUP4 ADD SWAP2 PUSH2 0x1B89 JUMP JUMPDEST SWAP2 POP POP PUSH2 0x1B74 SWAP5 POP PUSH1 0x20 SWAP3 POP PUSH1 0xFF NOT AND DUP3 DUP5 ADD MSTORE ISZERO ISZERO PUSH1 0x5 SHL DUP3 ADD ADD CODESIZE DUP1 PUSH2 0x1B66 JUMP JUMPDEST SWAP1 PUSH2 0x92F JUMPI PUSH2 0x1BEA SWAP1 PUSH2 0x1B36 JUMP JUMPDEST SWAP1 JUMP JUMPDEST PUSH1 0x4 CALLDATALOAD SWAP1 PUSH1 0x1 PUSH1 0x1 PUSH1 0xA0 SHL SUB DUP3 AND DUP3 SUB PUSH2 0x1D1 JUMPI JUMP JUMPDEST PUSH1 0x1 PUSH1 0x1 PUSH1 0x40 SHL SUB DUP2 GT PUSH2 0x945 JUMPI PUSH1 0x5 SHL PUSH1 0x20 ADD SWAP1 JUMP JUMPDEST PUSH1 0x0 SLOAD PUSH1 0x1 PUSH1 0x1 PUSH1 0xA0 SHL SUB AND CALLER SUB PUSH2 0xF81 JUMPI JUMP JUMPDEST PUSH1 0x0 NOT DUP2 EQ PUSH2 0x1580 JUMPI PUSH1 0x1 ADD SWAP1 JUMP JUMPDEST DUP1 MLOAD DUP3 LT ISZERO PUSH2 0x1ACE JUMPI PUSH1 0x20 SWAP2 PUSH1 0x5 SHL ADD ADD SWAP1 JUMP JUMPDEST SWAP2 SWAP1 DUP3 ADD DUP1 SWAP3 GT PUSH2 0x1580 JUMPI JUMP JUMPDEST DUP2 DUP2 LT PUSH2 0x1C69 JUMPI POP POP JUMP JUMPDEST PUSH1 0x0 DUP2 SSTORE PUSH1 0x1 ADD PUSH2 0x1C5E JUMP JUMPDEST SWAP2 SWAP1 PUSH1 0x1F DUP2 GT PUSH2 0x1C84 JUMPI POP POP POP JUMP JUMPDEST PUSH2 0x1B74 SWAP3 PUSH1 0x0 MSTORE PUSH1 0x20 PUSH1 0x0 KECCAK256 SWAP1 PUSH1 0x20 PUSH1 0x1F DUP5 ADD PUSH1 0x5 SHR DUP4 ADD SWAP4 LT PUSH2 0x1CB0 JUMPI JUMPDEST PUSH1 0x1F ADD PUSH1 0x5 SHR ADD SWAP1 PUSH2 0x1C5E JUMP JUMPDEST SWAP1 SWAP2 POP DUP2 SWAP1 PUSH2 0x1CA3 JUMP JUMPDEST SWAP2 SWAP1 SWAP2 DUP3 MLOAD PUSH1 0x1 PUSH1 0x1 PUSH1 0x40 SHL SUB DUP2 GT PUSH2 0x945 JUMPI PUSH2 0x1CE1 DUP2 PUSH2 0x1CDB DUP5 SLOAD PUSH2 0x1AFC JUMP JUMPDEST DUP5 PUSH2 0x1C75 JUMP JUMPDEST PUSH1 0x20 DUP1 PUSH1 0x1F DUP4 GT PUSH1 0x1 EQ PUSH2 0x1D1D JUMPI POP DUP2 SWAP3 SWAP4 SWAP5 PUSH1 0x0 SWAP3 PUSH2 0x1D12 JUMPI JUMPDEST POP POP DUP2 PUSH1 0x1 SHL SWAP2 PUSH1 0x0 NOT SWAP1 PUSH1 0x3 SHL SHR NOT AND OR SWAP1 SSTORE JUMP JUMPDEST ADD MLOAD SWAP1 POP CODESIZE DUP1 PUSH2 0x1CFC JUMP JUMPDEST SWAP1 PUSH1 0x1F NOT DUP4 AND SWAP6 DUP5 PUSH1 0x0 MSTORE DUP3 PUSH1 0x0 KECCAK256 SWAP3 PUSH1 0x0 SWAP1 JUMPDEST DUP9 DUP3 LT PUSH2 0x1D69 JUMPI POP POP DUP4 PUSH1 0x1 SWAP6 SWAP7 SWAP8 LT PUSH2 0x1D50 JUMPI JUMPDEST POP POP POP DUP2 SHL ADD SWAP1 SSTORE JUMP JUMPDEST ADD MLOAD PUSH1 0x0 NOT PUSH1 0xF8 DUP5 PUSH1 0x3 SHL AND SHR NOT AND SWAP1 SSTORE CODESIZE DUP1 DUP1 PUSH2 0x1D46 JUMP JUMPDEST DUP1 PUSH1 0x1 DUP6 SWAP7 DUP3 SWAP5 SWAP7 DUP7 ADD MLOAD DUP2 SSTORE ADD SWAP6 ADD SWAP4 ADD SWAP1 PUSH2 0x1D31 JUMP JUMPDEST DUP1 SLOAD PUSH1 0x1 PUSH1 0x40 SHL DUP2 LT ISZERO PUSH2 0x945 JUMPI PUSH2 0x1D9E SWAP2 PUSH1 0x1 DUP3 ADD DUP2 SSTORE PUSH2 0x1AE4 JUMP JUMPDEST SWAP2 SWAP1 SWAP2 PUSH2 0x92F JUMPI PUSH2 0x1B74 SWAP2 PUSH2 0x1CBA JUMP JUMPDEST PUSH2 0x1DC6 SWAP1 PUSH1 0x20 PUSH1 0x40 MLOAD SWAP3 DUP3 DUP5 DUP1 SWAP5 MLOAD SWAP4 DUP5 SWAP3 ADD PUSH2 0x19ED JUMP JUMPDEST DUP2 ADD SUB SWAP1 KECCAK256 SWAP1 JUMP JUMPDEST ISZERO PUSH2 0x1DD5 JUMPI JUMP JUMPDEST PUSH1 0x40 MLOAD PUSH3 0x461BCD PUSH1 0xE5 SHL DUP2 MSTORE PUSH1 0x20 PUSH1 0x4 DUP3 ADD MSTORE PUSH1 0xF PUSH1 0x24 DUP3 ADD MSTORE PUSH15 0x105CDCD95D081B9BDD08199BDD5B99 PUSH1 0x8A SHL PUSH1 0x44 DUP3 ADD MSTORE PUSH1 0x64 SWAP1 REVERT JUMPDEST PUSH1 0x20 PUSH2 0x1E25 SWAP2 DUP2 PUSH1 0x40 MLOAD SWAP4 DUP3 DUP6 DUP1 SWAP5 MLOAD SWAP4 DUP5 SWAP3 ADD PUSH2 0x19ED JUMP JUMPDEST DUP2 ADD PUSH1 0x5 DUP2 MSTORE SUB ADD SWAP1 KECCAK256 SWAP1 PUSH1 0xFF PUSH1 0x8 DUP4 ADD SLOAD PUSH1 0x8 SHR AND ISZERO PUSH2 0x1E4D JUMPI PUSH1 0x4 PUSH1 0x3 DUP4 ADD SLOAD SWAP3 ADD SLOAD SWAP1 JUMP JUMPDEST PUSH1 0x0 SWAP2 POP DUP2 SWAP1 JUMP JUMPDEST PUSH1 0x20 PUSH2 0x1E6E SWAP2 DUP2 PUSH1 0x40 MLOAD SWAP4 DUP3 DUP6 DUP1 SWAP5 MLOAD SWAP4 DUP5 SWAP3 ADD PUSH2 0x19ED JUMP JUMPDEST DUP2 ADD PUSH1 0x5 DUP2 MSTORE SUB ADD SWAP1 KECCAK256 PUSH1 0xFF PUSH1 0x8 DUP3 ADD SLOAD AND ISZERO PUSH2 0x1E95 JUMPI PUSH1 0x5 ADD SLOAD PUSH1 0x1 PUSH1 0x1 PUSH1 0xA0 SHL SUB AND SWAP1 JUMP JUMPDEST POP PUSH1 0x0 SWAP1 JUMP JUMPDEST SWAP1 DUP1 DUP3 EQ PUSH2 0x1F73 JUMPI PUSH2 0x1EAD DUP2 SLOAD PUSH2 0x1AFC JUMP JUMPDEST SWAP1 PUSH1 0x1 PUSH1 0x1 PUSH1 0x40 SHL SUB DUP3 GT PUSH2 0x945 JUMPI DUP2 SWAP1 PUSH2 0x1ED2 DUP3 PUSH2 0x1ECC DUP7 SLOAD PUSH2 0x1AFC JUMP JUMPDEST DUP7 PUSH2 0x1C75 JUMP JUMPDEST PUSH1 0x0 SWAP1 PUSH1 0x1F DUP4 GT PUSH1 0x1 EQ PUSH2 0x1F08 JUMPI PUSH1 0x0 SWAP3 PUSH2 0x1EFD JUMPI POP POP DUP2 PUSH1 0x1 SHL SWAP2 PUSH1 0x0 NOT SWAP1 PUSH1 0x3 SHL SHR NOT AND OR SWAP1 SSTORE JUMP JUMPDEST ADD SLOAD SWAP1 POP CODESIZE DUP1 PUSH2 0x1CFC JUMP JUMPDEST DUP2 MSTORE PUSH1 0x20 DUP1 DUP3 KECCAK256 DUP6 DUP4 MSTORE DUP2 DUP4 KECCAK256 SWAP4 POP SWAP1 PUSH1 0x1F NOT DUP6 AND SWAP1 DUP4 SWAP1 JUMPDEST DUP3 DUP3 LT PUSH2 0x1F5A JUMPI POP POP SWAP1 DUP5 PUSH1 0x1 SWAP6 SWAP5 SWAP4 SWAP3 LT PUSH2 0x1F41 JUMPI POP POP POP DUP2 SHL ADD SWAP1 SSTORE JUMP JUMPDEST ADD SLOAD PUSH1 0x0 NOT PUSH1 0xF8 DUP5 PUSH1 0x3 SHL AND SHR NOT AND SWAP1 SSTORE CODESIZE DUP1 DUP1 PUSH2 0x1D46 JUMP JUMPDEST DUP5 SWAP6 DUP2 SWAP3 SWAP6 DUP6 ADD SLOAD DUP2 SSTORE PUSH1 0x1 DUP1 SWAP2 ADD SWAP7 ADD SWAP5 ADD SWAP1 PUSH2 0x1F21 JUMP JUMPDEST POP POP JUMP INVALID LOG2 PUSH5 0x6970667358 0x22 SLT KECCAK256 KECCAK256 PUSH7 0xABEF07A2692A70 DUP14 POP SWAP10 DUP15 CALLVALUE 0xB5 PUSH18 0xF9D62C75943CA71AE16602CF49A6DC4C6473 PUSH16 0x6C634300081400330000000000000000 "},"methodIdentifiers":{"FEE_DENOMINATOR()":"d73792a9","USDC_ADDRESS()":"bb09d9b7","acceptOwnership()":"79ba5097","allAssetIds(uint256)":"e814d66b","approvedMarketplaces(address)":"543a9eb9","deleteAsset(string)":"e24aa37c","disableRoyalty(string)":"1741cfc0","enableRoyalty(string)":"ea608c9c","getAsset(string)":"cd5286d0","getAssetIdByIndex(uint256)":"8c5deff8","getCurrentOwner(string)":"d55a772d","getLibraryDependencies(string)":"078a0d1d","getRoyaltyFee(string)":"edd91367","getTotalAssets()":"6e07302b","getUserAssets(address)":"765ff061","libraryAssets(string)":"6cb3db25","libraryDependencies(string,uint256)":"0a741a54","owner()":"8da5cb5b","pendingOwner()":"e30c3978","platformFeePercentage()":"cdd78cfc","registerAsset(string,string,string,uint256,uint256,string[])":"d9578f70","renounceOwnership()":"715018a6","royaltyContract()":"1663ee03","setApprovedMarketplace(address,bool)":"bbf46b84","setRoyaltyContract(address)":"d9aa187c","transferAssetOwnership(string,address)":"2203f8f1","transferOwnership(address)":"f2fde38b","updateRoyaltyFee(string,uint256,uint256)":"675bfec1","usdcToken()":"11eac855","userOwnedAssets(address,uint256)":"5d483ab9"}}}}}