{"ClayMarketplace.sol":{"ClayMarketplace":{"abi":[{"inputs":[{"internalType":"address","name":"_libraryContract","type":"address"},{"internalType":"address","name":"_royaltyContract","type":"address"}],"stateMutability":"nonpayable","type":"constructor"},{"inputs":[{"internalType":"address","name":"owner","type":"address"}],"name":"OwnableInvalidOwner","type":"error"},{"inputs":[{"internalType":"address","name":"account","type":"address"}],"name":"OwnableUnauthorizedAccount","type":"error"},{"inputs":[],"name":"ReentrancyGuardReentrantCall","type":"error"},{"anonymous":false,"inputs":[{"indexed":true,"internalType":"string","name":"projectId","type":"string"},{"indexed":true,"internalType":"address","name":"seller","type":"address"},{"indexed":false,"internalType":"uint256","name":"price","type":"uint256"},{"indexed":false,"internalType":"uint256","name":"timestamp","type":"uint256"}],"name":"AssetListed","type":"event"},{"anonymous":false,"inputs":[{"indexed":true,"internalType":"string","name":"projectId","type":"string"},{"indexed":true,"internalType":"address","name":"seller","type":"address"},{"indexed":true,"internalType":"address","name":"buyer","type":"address"},{"indexed":false,"internalType":"uint256","name":"price","type":"uint256"},{"indexed":false,"internalType":"uint256","name":"platformFee","type":"uint256"}],"name":"AssetSold","type":"event"},{"anonymous":false,"inputs":[{"indexed":true,"internalType":"string","name":"projectId","type":"string"},{"indexed":true,"internalType":"address","name":"seller","type":"address"}],"name":"ListingCancelled","type":"event"},{"anonymous":false,"inputs":[{"indexed":true,"internalType":"string","name":"projectId","type":"string"},{"indexed":false,"internalType":"uint256","name":"oldPrice","type":"uint256"},{"indexed":false,"internalType":"uint256","name":"newPrice","type":"uint256"}],"name":"ListingPriceUpdated","type":"event"},{"anonymous":false,"inputs":[{"indexed":true,"internalType":"uint256","name":"offerId","type":"uint256"},{"indexed":true,"internalType":"string","name":"projectId","type":"string"},{"indexed":true,"internalType":"address","name":"seller","type":"address"},{"indexed":false,"internalType":"address","name":"buyer","type":"address"},{"indexed":false,"internalType":"uint256","name":"price","type":"uint256"}],"name":"OfferAccepted","type":"event"},{"anonymous":false,"inputs":[{"indexed":true,"internalType":"uint256","name":"offerId","type":"uint256"},{"indexed":true,"internalType":"string","name":"projectId","type":"string"},{"indexed":true,"internalType":"address","name":"buyer","type":"address"}],"name":"OfferCancelled","type":"event"},{"anonymous":false,"inputs":[{"indexed":true,"internalType":"uint256","name":"offerId","type":"uint256"},{"indexed":true,"internalType":"string","name":"projectId","type":"string"},{"indexed":true,"internalType":"address","name":"buyer","type":"address"},{"indexed":false,"internalType":"uint256","name":"offerPrice","type":"uint256"},{"indexed":false,"internalType":"uint256","name":"expiresAt","type":"uint256"}],"name":"OfferCreated","type":"event"},{"anonymous":false,"inputs":[{"indexed":true,"internalType":"uint256","name":"offerId","type":"uint256"},{"indexed":true,"internalType":"string","name":"projectId","type":"string"},{"indexed":true,"internalType":"address","name":"buyer","type":"address"},{"indexed":false,"internalType":"uint256","name":"refundAmount","type":"uint256"}],"name":"OfferRefundFailed","type":"event"},{"anonymous":false,"inputs":[{"indexed":true,"internalType":"address","name":"previousOwner","type":"address"},{"indexed":true,"internalType":"address","name":"newOwner","type":"address"}],"name":"OwnershipTransferred","type":"event"},{"inputs":[],"name":"FEE_DENOMINATOR","outputs":[{"internalType":"uint256","name":"","type":"uint256"}],"stateMutability":"view","type":"function"},{"inputs":[],"name":"USDC_ADDRESS","outputs":[{"internalType":"address","name":"","type":"address"}],"stateMutability":"view","type":"function"},{"inputs":[{"internalType":"uint256","name":"offerId","type":"uint256"}],"name":"acceptOffer","outputs":[],"stateMutability":"nonpayable","type":"function"},{"inputs":[{"internalType":"uint256","name":"","type":"uint256"}],"name":"activeListings","outputs":[{"internalType":"string","name":"","type":"string"}],"stateMutability":"view","type":"function"},{"inputs":[{"internalType":"string","name":"projectId","type":"string"}],"name":"buyAsset","outputs":[],"stateMutability":"payable","type":"function"},{"inputs":[{"internalType":"string","name":"projectId","type":"string"}],"name":"cancelListing","outputs":[],"stateMutability":"nonpayable","type":"function"},{"inputs":[{"internalType":"uint256","name":"offerId","type":"uint256"}],"name":"cancelOffer","outputs":[],"stateMutability":"nonpayable","type":"function"},{"inputs":[{"internalType":"string","name":"","type":"string"}],"name":"directOwners","outputs":[{"internalType":"address","name":"","type":"address"}],"stateMutability":"view","type":"function"},{"inputs":[],"name":"getActiveListingsCount","outputs":[{"internalType":"uint256","name":"","type":"uint256"}],"stateMutability":"view","type":"function"},{"inputs":[{"internalType":"string","name":"projectId","type":"string"}],"name":"getAssetOwner","outputs":[{"internalType":"address","name":"","type":"address"}],"stateMutability":"view","type":"function"},{"inputs":[{"internalType":"string","name":"projectId","type":"string"}],"name":"getProjectOffers","outputs":[{"internalType":"uint256[]","name":"","type":"uint256[]"}],"stateMutability":"view","type":"function"},{"inputs":[{"internalType":"string","name":"projectId","type":"string"}],"name":"isAssetLibraryBased","outputs":[{"internalType":"bool","name":"","type":"bool"}],"stateMutability":"view","type":"function"},{"inputs":[{"internalType":"string","name":"","type":"string"}],"name":"isLibraryBased","outputs":[{"internalType":"bool","name":"","type":"bool"}],"stateMutability":"view","type":"function"},{"inputs":[],"name":"libraryContract","outputs":[{"internalType":"contract IClayLibrary","name":"","type":"address"}],"stateMutability":"view","type":"function"},{"inputs":[{"internalType":"string","name":"projectId","type":"string"},{"internalType":"uint256","name":"price","type":"uint256"},{"internalType":"enum ClayMarketplace.PaymentToken","name":"paymentToken","type":"uint8"}],"name":"listAsset","outputs":[],"stateMutability":"nonpayable","type":"function"},{"inputs":[{"internalType":"string","name":"","type":"string"}],"name":"listings","outputs":[{"internalType":"string","name":"projectId","type":"string"},{"internalType":"address","name":"seller","type":"address"},{"internalType":"uint256","name":"price","type":"uint256"},{"internalType":"enum ClayMarketplace.PaymentToken","name":"paymentToken","type":"uint8"},{"internalType":"uint256","name":"listedAt","type":"uint256"},{"internalType":"bool","name":"isActive","type":"bool"}],"stateMutability":"view","type":"function"},{"inputs":[{"internalType":"string","name":"projectId","type":"string"},{"internalType":"uint256","name":"offerPrice","type":"uint256"},{"internalType":"enum ClayMarketplace.PaymentToken","name":"paymentToken","type":"uint8"},{"internalType":"uint256","name":"duration","type":"uint256"}],"name":"makeOffer","outputs":[],"stateMutability":"payable","type":"function"},{"inputs":[],"name":"nextOfferId","outputs":[{"internalType":"uint256","name":"","type":"uint256"}],"stateMutability":"view","type":"function"},{"inputs":[{"internalType":"uint256","name":"","type":"uint256"}],"name":"offers","outputs":[{"internalType":"string","name":"projectId","type":"string"},{"internalType":"address","name":"buyer","type":"address"},{"internalType":"uint256","name":"offerPrice","type":"uint256"},{"internalType":"enum ClayMarketplace.PaymentToken","name":"paymentToken","type":"uint8"},{"internalType":"uint256","name":"offeredAt","type":"uint256"},{"internalType":"uint256","name":"expiresAt","type":"uint256"},{"internalType":"bool","name":"isActive","type":"bool"}],"stateMutability":"view","type":"function"},{"inputs":[],"name":"owner","outputs":[{"internalType":"address","name":"","type":"address"}],"stateMutability":"view","type":"function"},{"inputs":[],"name":"platformFeePercentage","outputs":[{"internalType":"uint256","name":"","type":"uint256"}],"stateMutability":"view","type":"function"},{"inputs":[{"internalType":"string","name":"","type":"string"},{"internalType":"uint256","name":"","type":"uint256"}],"name":"projectOffers","outputs":[{"internalType":"uint256","name":"","type":"uint256"}],"stateMutability":"view","type":"function"},{"inputs":[],"name":"renounceOwnership","outputs":[],"stateMutability":"nonpayable","type":"function"},{"inputs":[],"name":"royaltyContract","outputs":[{"internalType":"contract IClayRoyalty","name":"","type":"address"}],"stateMutability":"view","type":"function"},{"inputs":[{"internalType":"address","name":"_royaltyContract","type":"address"}],"name":"setRoyaltyContract","outputs":[],"stateMutability":"nonpayable","type":"function"},{"inputs":[{"internalType":"address","name":"newOwner","type":"address"}],"name":"transferOwnership","outputs":[],"stateMutability":"nonpayable","type":"function"},{"inputs":[{"internalType":"string","name":"projectId","type":"string"},{"internalType":"uint256","name":"newPrice","type":"uint256"}],"name":"updateListingPrice","outputs":[],"stateMutability":"nonpayable","type":"function"},{"inputs":[{"internalType":"uint256","name":"newFeePercentage","type":"uint256"}],"name":"updatePlatformFee","outputs":[],"stateMutability":"nonpayable","type":"function"},{"inputs":[],"name":"usdcToken","outputs":[{"internalType":"contract IERC20","name":"","type":"address"}],"stateMutability":"view","type":"function"},{"inputs":[],"name":"withdrawPlatformFees","outputs":[],"stateMutability":"nonpayable","type":"function"},{"inputs":[],"name":"withdrawPlatformFeesUSDC","outputs":[],"stateMutability":"nonpayable","type":"function"}],"evm":{"bytecode":{"linkReferences":{},"object":"60a0346200014557601f620030f038819003918201601f19168301916001600160401b038311848410176200014a57808492604094855283398101031262000145576200005a6020620000528362000160565b920162000160565b33156200012c5760008054336001600160a01b0319808316821784556040519590946001600160a01b03949093859391908416907f8be0079c531659141344cd1fd0a4f28419497f9722a3daafe3b4186f6b6457e09080a360018055600160075560fa600b55168360025416176002551690600354161760035573833589fcd6edb6e08f4c7c32d4f71b54bda02913608052612f7a90816200017682396080518181816103e00152818161054201528181610aa301528181610e4701528181611456015281816120050152612cf20152f35b604051631e4fbdf760e01b815260006004820152602490fd5b600080fd5b634e487b7160e01b600052604160045260246000fd5b51906001600160a01b0382168203620001455756fe60406080815260048036101561001457600080fd5b6000803560e01c80631007a43d1461104657806311eac85514611ff057806313b0691514611ae45780631663ee0314611abb5780635f5d065514611a9c57806361cf486314611a36578063715018a6146119dc578063742129e71461197357806377dec6c3146118c45780637b55927c146118a55780638a72ea6a1461180a5780638da5cb5b146117e25780639122d55314611703578063943f226114611606578063a22355581461118a578063a3a6705814611131578063aa0b5988146110c5578063bb09d9b714611096578063c6f70e8214611046578063c7ef967214610bab578063c815729d146107c2578063cdd78cfc146107a3578063ce0769c51461077a578063d0b7830b146106fb578063d73792a9146106de578063d9aa187c1461069a578063dceb768614610509578063e44bce40146104bb578063ef706adf146102e0578063f2fde38b1461024d5763f941fb991461017457600080fd5b3461024a57602091826003193601126102465780356001600160401b03811161024257926101aa6101bc92829695369101612099565b81855193828580945193849201612225565b81016006815203019020908251808584549182815201908194845286842090845b81811061022e57505050816101f391038261205d565b83519485948186019282875251809352850193925b82811061021757505050500390f35b835185528695509381019392810192600101610208565b8254845292880192600192830192016101dd565b8280fd5b5080fd5b80fd5b509134610242576020366003190112610242576001600160a01b038235818116939192908490036102dc576102806122c1565b83156102c6575050600054826001600160601b0360a01b821617600055167f8be0079c531659141344cd1fd0a4f28419497f9722a3daafe3b4186f6b6457e0600080a380f35b51631e4fbdf760e01b8152908101849052602490fd5b8480fd5b5091903461024257602091826003193601126104b7578135916103016126f8565b82855260058452818520936006850180549261031f60ff851661276b565b60018701546001600160a01b039290831633036104745760028801549460ff1916905560ff60038801541660028110156104615788939291906103b35750505080808061037794335af16103716126c8565b506128c2565b51806103848133956127aa565b039020907fa73002eb00b7f458173aec22cf4445bbdb98267f801a7fe3d22dba9382338cdb8480a46001805580f35b855163a9059cbb60e01b8152339181019182526020820195909552919283928592918391829060400103927f0000000000000000000000000000000000000000000000000000000000000000165af1908115610457578691610420575b5061041b91506128c2565b610377565b905081813d8311610450575b610436818361205d565b810103126102dc5761044a61041b91612392565b38610410565b503d61042c565b83513d88823e3d90fd5b634e487b7160e01b895260218252602489fd5b855162461bcd60e51b8152808301859052601b60248201527f4f6e6c792062757965722063616e2063616e63656c206f6666657200000000006044820152606490fd5b8380fd5b5082903461024a57602036600319011261024a578235906001600160401b03821161024a57506104f36020936104f892369101612099565b612d9c565b90516001600160a01b039091168152f35b5082346102465781600319360112610246576105236122c1565b80516370a0823160e01b81523084820152926020906001600160a01b037f0000000000000000000000000000000000000000000000000000000000000000811691908387602481865afa96871561069057869761065c575b508615610619578554855163a9059cbb60e01b815291166001600160a01b031691810191825260208201969096529394938291859182908890829060400103925af1918215610610575083916105d9575b836105d6836128fe565b80f35b905081813d8311610609575b6105ef818361205d565b81010312610246576106036105d691612392565b836105cc565b503d6105e5565b513d85823e3d90fd5b845162461bcd60e51b8152808301859052601860248201527f4e6f2055534443206665657320746f20776974686472617700000000000000006044820152606490fd5b9096508381813d8311610689575b610674818361205d565b810103126106845751958761057b565b600080fd5b503d61066a565b85513d88823e3d90fd5b50903461024657602036600319011261024657356001600160a01b03811690819003610246576106c86122c1565b6001600160601b0360a01b600354161760035580f35b508234610246578160031936011261024657602090516127108152f35b509190346102425782600319360112610242576107166122c1565b4791821561074157836105d6818080808860018060a01b038254165af161073b6126c8565b506128fe565b906020606492519162461bcd60e51b835282015260136024820152724e6f206665657320746f20776974686472617760681b6044820152fd5b50823461024657816003193601126102465760025490516001600160a01b039091168152602090f35b508234610246578160031936011261024657602090600b549051908152f35b50919034610242576020806003193601126104b7578135916107e26126f8565b828552600582528385209360068501916107ff60ff84541661276b565b6005860154421015610b7a576001600160a01b0395866108216104f38361217f565b1661082d81151561271b565b3303610b3857600281019687549261085561271061084d600b5487612646565b04809561266f565b60ff6003850154166002811015610b2557888c9115600014610a77575080808061088a94335af16108846126c8565b5061267c565b60ff8551888161089a81886127aa565b600a815203019020541615610a2e578982600254168360018601541690803b15610242578291829189518094818094632203f8f160e01b82528d8a8301526108e5604483018d61282d565b90602483015203925af18015610a2457610a06575b505090600080516020612f25833981519152956109b893925b60ff199182815416905560ff600588518b8161092f818a6127aa565b868152030190200154166109ce575b505061095161094c8361217f565b612b41565b6001820154168098549785518061096881866127aa565b03902086516001600160a01b03939093168352602083018a905233929091907f9332956e0c3dd558cabf109a274fd9184f7cd2081da1b9d9e28e702cf8a6cc5990604090a48351918280926127aa565b0390209382519586528501523393a46001805580f35b60059089885180926109e082896127aa565b90815203019020019081541690556109ff6109fa8361217f565b612a1a565b388061093e565b610a139094939294612034565b610a2057909189386108fa565b8980fd5b87513d84823e3d90fd5b90600080516020612f258339815191529583928260016109b89601541687518a81610a5981896127aa565b600981520301902080546001600160a01b0319169091179055610913565b875163a9059cbb60e01b81523385820190815260208101949094529290918391829081906040010391877f0000000000000000000000000000000000000000000000000000000000000000165af18015610b1b578b90610ae1575b610adc915061267c565b61088a565b508781813d8311610b14575b610af7818361205d565b81010312610b1057610b0b610adc91612392565b610ad2565b8a80fd5b503d610aed565b86513d8d823e3d90fd5b634e487b7160e01b8c526021835260248cfd5b5083606492519162461bcd60e51b8352820152601b60248201527f4f6e6c79206f776e65722063616e20616363657074206f6666657200000000006044820152fd5b83606492519162461bcd60e51b8352820152600d60248201526c13d999995c88195e1c1a5c9959609a1b6044820152fd5b5091906020806003193601126104b75781356001600160401b0381116102dc57610bd89036908401612099565b92610be16126f8565b8051845190838181880193610bf7818387612225565b8101878152030190209360058501610c1260ff825416612605565b600186019060018060a01b0392838354169485331461100357600289019889549660ff6003610c51612710610c49600b548d612646565b04809b61266f565b930154166002811015610ff057610e11575089543403610dce5790610c838c8080808d968b8b54165af16108846126c8565b60ff8b838a51809251610c97818388612225565b8101600a8152030190205416600014610d7e57505089846002541691823b1561024657610ce29288838d93825196879586948593632203f8f160e01b85528401526044830190612248565b33602483015203925af18015610d7457610d47575b5091610d3491600080516020612f258339815191529594935b805460ff19169055610d2189612a1a565b610d2a89612b41565b54169554966125e5565b9382519687528601523394a46001805580f35b91600080516020612f258339815191529594939199610d68610d3494612034565b99919394955091610cf7565b86513d8c823e3d90fd5b610d349492508796959391610dad918c600080516020612f258339815191529a51938492839251928391612225565b81016009815203019020336001600160601b0360a01b825416179055610d10565b875162461bcd60e51b81528084018a9052601960248201527f45786163742045544820616d6f756e74207265717569726564000000000000006044820152606490fd5b9034610fa35788516323b872dd60e01b808252338683019081526001600160a01b03909416602085015260408401929092528d927f0000000000000000000000000000000000000000000000000000000000000000891691908c9082908190606001038187865af1908115610f9957908c9392918591610f60575b50610e969061267c565b8a5191825233868301908152306020820152604081018b905291938492839190829060600103925af1908115610f56578c91610f1d575b5015610eda578790610c83565b865162461bcd60e51b8152808301899052601c60248201527f506c6174666f726d20666565207472616e73666572206661696c6564000000006044820152606490fd5b90508881813d8311610f4f575b610f34818361205d565b81010312610f4b57610f4590612392565b38610ecd565b8b80fd5b503d610f2a565b88513d8e823e3d90fd5b84819592503d8311610f92575b610f77818361205d565b810103126104b757610e96610f8c8d94612392565b90610e8c565b503d610f6d565b8b513d86823e3d90fd5b885162461bcd60e51b81528085018b9052602160248201527f446f206e6f742073656e642045544820666f72205553444320707572636861736044820152606560f81b6064820152608490fd5b634e487b7160e01b8e526021855260248efd5b865162461bcd60e51b8152808301899052601960248201527f43616e6e6f742062757920796f7572206f776e206173736574000000000000006044820152606490fd5b5082903461024a57602036600319011261024a578235906001600160401b03821161024a575061108160206101aa819560ff94369101612099565b8101600a815203019020541690519015158152f35b5082346102465781600319360112610246576020905173833589fcd6edb6e08f4c7c32d4f71b54bda029138152f35b50919034610242576020366003190112610242578035916110e46122c1565b6103e883116110f5575050600b5580f35b906020606492519162461bcd60e51b8352820152601660248201527546656520746f6f206869676820286d6178203130252960501b6044820152fd5b5082346102465760209161115b61114736612290565b949081855193828580945193849201612225565b8101600681520301902090815484101561024a575060209261117c9161212d565b91905490519160031b1c8152f35b50916080366003190112610242576001600160401b0382358181116102dc576111b69036908501612099565b9160249283359460449485359460028610156116025760649586359689156115cc57610e10881015806115bf575b1561158e576001600160a01b0398896111fc88612d9c565b1661120881151561271b565b331461154f5782611409578a34036113d45750505b6007549661122a8861275c565b6007554201978842116113c25786519260e08401908111848210176113b05788928b8b938e938b5289875260208701903382528b880192835261127160608901948561249e565b61129d8c60808a019642885260a08b0198895260c08b019960018b528152600560205220985189612506565b600188019151166001600160601b0360a01b82541617905551600286015551600281101561139e57918493916112db60069460036112fc98016125cd565b518785015551600584015551151591019060ff801983541691151516179055565b835160208185516113108183858a01612225565b8101600681520301902090815492600160401b84101561138d57505091611362827fcfed541454dac78f93da97764a61638d187363e6d64a389faa86edcaaf8932bc9594600161137c9501815561212d565b81549060031b9087821b91600019901b19161790556125e5565b93815195865260208601523394a480f35b634e487b7160e01b8a526041905288fd5b634e487b7160e01b8d5260218752858dfd5b634e487b7160e01b8c5260418652848cfd5b634e487b7160e01b8b5260118552838bfd5b7208aa89040c2dadeeadce840dad2e6dac2e8c6d606b1b869160138760208c519562461bcd60e51b8752860152840152820152fd5b346115105761145260208c8c8f8a908d518096819582946323b872dd60e01b845230903390850160409194939294606082019560018060a01b0380921683521660208201520152565b03927f0000000000000000000000000000000000000000000000000000000000000000165af1908115611506578d916114c9575b501561149357505061121d565b731554d110c81d1c985b9cd9995c8819985a5b195960621b869160148760208c519562461bcd60e51b8752860152840152820152fd5b90506020813d82116114fe575b816114e36020938361205d565b810103126114fa576114f490612392565b38611486565b8c80fd5b3d91506114d6565b89513d8f823e3d90fd5b7f446f206e6f742073656e642045544820666f722055534443206f6666657200008691601e8760208c519562461bcd60e51b8752860152840152820152fd5b7f43616e6e6f74206f66666572206f6e20796f7572206f776e20617373657400008691601e8760208c519562461bcd60e51b8752860152840152820152fd5b865162461bcd60e51b81526020818701526010818601526f24b73b30b634b210323ab930ba34b7b760811b818b0152fd5b5062278d008811156111e4565b865162461bcd60e51b8152602081870152601581860152744f66666572206d75737420686176652076616c756560581b818b0152fd5b8880fd5b5091346102425760203660031901126102425781356001600160401b0381116104b7576116369036908401612099565b918151602081855161164b8183858a01612225565b81018481520301902090600582019283549261166960ff8516612605565b600101546001600160a01b031633036116c757505060ff1916905561168d81612a1a565b61169681612b41565b6116a033916125e5565b7f0ad06290f905050c9dac577e139b4b450621b456073e716db7561a52f3ff89288380a380f35b906020606492519162461bcd60e51b8352820152601660248201527513db9b1e481cd95b1b195c8818d85b8818d85b98d95b60521b6044820152fd5b5091346102425761171336612290565b92825160208184516117288183858901612225565b8101848152030190209061174260ff600584015416612605565b60018201546001600160a01b031633036117a657509061179760027f702cf1ff9b007b1ce6285f06d88972428a71330a6f9bc7ac9b49803661dd7bde949361178b8715156122ed565b019185835493556125e5565b9382519182526020820152a280f35b606490602085519162461bcd60e51b835282015260166024820152754f6e6c792073656c6c65722063616e2075706461746560501b6044820152fd5b508234610246578160031936011261024657905490516001600160a01b039091168152602090f35b50919034610242576020366003190112610242578161187d9382358152600560205220916118378361217f565b9260018060a01b036001820154169261189060028301549160ff600385015416908401549260ff6006600587015496015416958051998a9960e08b5260e08b0190612248565b9760208a0152880152606087019061226d565b608085015260a0840152151560c08301520390f35b5082346102465781600319360112610246576020906008549051908152f35b50919034610242576020366003190112610242578035926001600160401b03841161024a57506118ff60206101aa6119509536908501612099565b810184815203019020916119128361217f565b9261196360018060a01b0360018301541693600283015460ff600581600387015416938601549501541694805198899860c08a5260c08a0190612248565b966020890152870152606086019061226d565b6080840152151560a08301520390f35b5082903461024a57602036600319011261024a578235906001600160401b03821161024a57506020926119a891369101612099565b826119bb83519283815193849201612225565b6009908201908152819003830190205490516001600160a01b039091168152f35b503461024a578060031936011261024a576119f56122c1565b80546001600160a01b03198116825581906001600160a01b03167f8be0079c531659141344cd1fd0a4f28419497f9722a3daafe3b4186f6b6457e08280a380f35b5082903461024a57602036600319011261024a57823560085481101561024657611a5f906120e0565b939093611a8a57611a8683611a738661217f565b9051918291602083526020830190612248565b0390f35b634e487b7160e01b8252819052602490fd5b5082346102465781600319360112610246576020906007549051908152f35b50823461024657816003193601126102465760035490516001600160a01b039091168152602090f35b509134610242576060366003190112610242576001600160401b039082358281116102dc57611b169036908501612099565b602493843594604435946002861015611fec57611b348715156122ed565b84519584519060ff60056020998a81818b0196611b5281838a612225565b81018a815203019020015416611fb357878a8b908c8981898d60018060a01b03978d611b9a8a60025416935196879586948594630cd5286d60e41b8652850152830190612248565b03915afa82918282611f7f575b5050611e28575b50508115611dae575b8233911603611d6c57611bf09089518b818b51611bd581838b612225565b8101600a8152030190209060ff801983541691151516179055565b87519360c0850190811185821017611d5a5790889392918452878552898501338152848601918c8352611c2760608801948561249e565b611c60611c4f8d60808a01974289528d60a08c019a60018c5251938492839251928391612225565b81018d815203019020975188612506565b600187019151166001600160601b0360a01b825416179055516002850155516002811015611d485791600591611c9d85946003611cb897016125cd565b518684015551151591019060ff801983541691151516179055565b600854600160401b811015611d3657806001611cd792016008556120e0565b929092611d2657505081611d107ff34a4c127ff02f03c1d1fb093bb2c95ec0cfd3c38220b818ef19234533c6b96c9493611d1593612506565b6125e5565b92815194855242908501523393a380f35b634e487b7160e01b885287905286fd5b50634e487b7160e01b87526041825286fd5b634e487b7160e01b8b5260218652848bfd5b634e487b7160e01b8c5260418752858cfd5b885162461bcd60e51b81528088018b90526019818801527f4f6e6c79206f776e65722063616e206c697374206173736574000000000000006044820152606490fd5b508189518b818b51611dc181838b612225565b81016009815203019020541615611df6575b8189518b818b51611de581838b612225565b810160098152030190205416611bb7565b88518a818a51611e0781838a612225565b81016009815203019020336001600160601b0360a01b825416179055611dd3565b611e33575b80611bae565b915050600190868d8b8d8c8c88600354169384611e56575b505050505050611e2d565b8392611e7791519788948594631833b57b60e11b8652850152830190612248565b0381845afa928315611f75578a8f91928f8f94908f918798611f34575b5090611eb8859251968795869485946373a6fe8960e01b8652850152830190612248565b03915afa918215611f295791611ef8575b5085611ee75750611edb908d11612441565b868d388d8c8c8f611e4b565b611ef391508d11612441565b611edb565b90508c81813d8311611f22575b611f0f818361205d565b81010312611f1e575138611ec9565b8e80fd5b503d611f05565b8d51903d90823e3d90fd5b9550505094505081813d8311611f6e575b611f4f818361205d565b81010312610246578d8a8e94828f948f90611eb8905198919250611e94565b503d611f45565b8d513d84823e3d90fd5b90919350611f9f92503d8091833e611f97818361205d565b81019061239f565b509897505050935050505091908f80611ba7565b865162461bcd60e51b815280860189905260148186015273105cdcd95d08185b1c9958591e481b1a5cdd195960621b6044820152606490fd5b8780fd5b508234610246578160031936011261024657517f00000000000000000000000000000000000000000000000000000000000000006001600160a01b03168152602090f35b6001600160401b03811161204757604052565b634e487b7160e01b600052604160045260246000fd5b90601f801991011681019081106001600160401b0382111761204757604052565b6001600160401b03811161204757601f01601f191660200190565b81601f82011215610684578035906120b08261207e565b926120be604051948561205d565b8284526020838301011161068457816000926020809301838601378301015290565b6008548110156121175760086000527ff3f7a9fe364faab93b216da50a3214154f22a0a2b415b23a84c8169e8b636ee30190600090565b634e487b7160e01b600052603260045260246000fd5b80548210156121175760005260206000200190600090565b90600182811c92168015612175575b602083101461215f57565b634e487b7160e01b600052602260045260246000fd5b91607f1691612154565b906040519182600082549261219384612145565b90818452600194858116908160001461220257506001146121bf575b50506121bd9250038361205d565b565b9093915060005260209081600020936000915b8183106121ea5750506121bd935082010138806121af565b855488840185015294850194879450918301916121d2565b9150506121bd94506020925060ff191682840152151560051b82010138806121af565b60005b8381106122385750506000910152565b8181015183820152602001612228565b9060209161226181518092818552858086019101612225565b601f01601f1916010190565b90600282101561227a5752565b634e487b7160e01b600052602160045260246000fd5b604060031982011261068457600435906001600160401b038211610684576122ba91600401612099565b9060243590565b6000546001600160a01b031633036122d557565b60405163118cdaa760e01b8152336004820152602490fd5b156122f457565b60405162461bcd60e51b815260206004820152601c60248201527f5072696365206d7573742062652067726561746572207468616e2030000000006044820152606490fd5b81601f8201121561068457805161234f8161207e565b9261235d604051948561205d565b818452602082840101116106845761237b9160208085019101612225565b90565b51906001600160a01b038216820361068457565b5190811515820361068457565b61014081830312610684578051926001600160401b039384811161068457836123c9918401612339565b93602083015181811161068457846123e2918501612339565b936040840151918211610684576123fa918401612339565b9160608101519160808201519161241360a0820161237e565b9161242060c0830161237e565b9160e08101519161237b61012061243a6101008501612392565b9301612392565b1561244857565b60405162461bcd60e51b815260206004820152602860248201527f5072696365206d75737420626520686967686572207468616e20726f79616c746044820152671a595cc81c185a5960c21b6064820152608490fd5b600282101561227a5752565b8181106124b5575050565b600081556001016124aa565b9190601f81116124d057505050565b6121bd926000526020600020906020601f840160051c830193106124fc575b601f0160051c01906124aa565b90915081906124ef565b91909182516001600160401b0381116120475761252d816125278454612145565b846124c1565b602080601f831160011461256957508192939460009261255e575b50508160011b916000199060031b1c1916179055565b015190503880612548565b90601f198316958460005282600020926000905b8882106125b55750508360019596971061259c575b505050811b019055565b015160001960f88460031b161c19169055388080612592565b8060018596829496860151815501950193019061257d565b90600281101561227a5760ff80198354169116179055565b6125fd90602060405192828480945193849201612225565b810103902090565b1561260c57565b60405162461bcd60e51b81526020600482015260126024820152714c697374696e67206e6f742061637469766560701b6044820152606490fd5b8181029291811591840414171561265957565b634e487b7160e01b600052601160045260246000fd5b9190820391821161265957565b1561268357565b60405162461bcd60e51b815260206004820152601860248201527f5061796d656e7420746f2073656c6c6572206661696c656400000000000000006044820152606490fd5b3d156126f3573d906126d98261207e565b916126e7604051938461205d565b82523d6000602084013e565b606090565b600260015414612709576002600155565b604051633ee5aeb560e01b8152600490fd5b1561272257565b60405162461bcd60e51b815260206004820152601260248201527120b9b9b2ba103430b99037379037bbb732b960711b6044820152606490fd5b60001981146126595760010190565b1561277257565b60405162461bcd60e51b815260206004820152601060248201526f4f66666572206e6f742061637469766560801b6044820152606490fd5b6000929181546127b981612145565b9260019180831690811561281257506001146127d6575b50505050565b90919293945060005260209081600020906000915b85831061280157505050500190388080806127d0565b8054858401529183019181016127eb565b60ff19168452505050811515909102019150388080806127d0565b906000929180549161283e83612145565b91828252600193848116908160001461289f575060011461285f5750505050565b90919394506000526020928360002092846000945b83861061288b5750505050010190388080806127d0565b805485870183015294019385908201612874565b9294505050602093945060ff191683830152151560051b010190388080806127d0565b156128c957565b60405162461bcd60e51b815260206004820152600d60248201526c1499599d5b990819985a5b1959609a1b6044820152606490fd5b1561290557565b60405162461bcd60e51b815260206004820152601160248201527015da5d1a191c985dd85b0819985a5b1959607a1b6044820152606490fd5b90808214612a16576129508154612145565b906001600160401b0382116120475781906129758261296f8654612145565b866124c1565b600090601f83116001146129ab576000926129a05750508160011b916000199060031b1c1916179055565b015490503880612548565b81526020808220858352818320935090601f1985169083905b8282106129fd5750509084600195949392106129e457505050811b019055565b015460001960f88460031b161c19169055388080612592565b84958192958501548155600180910196019401906129c4565b5050565b60005b6008805490818310156127d057612a4791612a4e612a3a856120e0565b506040519485809261282d565b038461205d565b825160208094012085518487012014612a7257505050612a6d9061275c565b612a1d565b919350916000199182810190811161265957612a90612a97916120e0565b50916120e0565b919091612b1557612aa79161293e565b81548015612b2b570191612aba836120e0565b612b1557612ac88154612145565b80612ad4575b50505055565b600092601f90818311600114612af157505050555b388080612ace565b8391612b0e9186949585528420940160051c8401600185016124aa565b5555612ae9565b634e487b7160e01b600052600060045260246000fd5b634e487b7160e01b600052603160045260246000fd5b9060409182518151602090612b598184848701612225565b8201918181600694858152030190209460005b8654811015612d9357612b7f818861212d565b9054600391821b1c60005260058452826000209085820180549060ff91828116612bb7575b5050505050612bb29061275c565b612b6c565b60ff19169055828201546002916000911682811015612d7f57612cb7575090612bb2939291600080808060018060a01b0360018801541685880154905af1612bfd6126c8565b505b15612c5e5750612c0f838b61212d565b90546001909301546001600160a01b031692911b1c612c2d886125e5565b907fa73002eb00b7f458173aec22cf4445bbdb98267f801a7fe3d22dba9382338cdb600080a45b9038808080612ba4565b90612c69848c61212d565b9054911b1c9060018060a01b03600184015416920154907f9fdd6fddb8dfea391c0580cc31bc495423ae195ab3ae95994ff20a15aa3b2b4d87612cab8b6125e5565b938851908152a4612c54565b600184015482850154875163a9059cbb60e01b81526001600160a01b03928316600482015260248101919091529088908290604490829086907f0000000000000000000000000000000000000000000000000000000000000000165af1918215612d74578092612d31575b505090612bb294939291612bff565b9091508782813d8311612d6d575b612d49818361205d565b8101031261024a575090612d62612bb295949392612392565b909192939438612d22565b503d612d3f565b8751903d90823e3d90fd5b634e487b7160e01b82526021600452602482fd5b50505050509050565b6040519080519160ff602091828181860196612db981838a612225565b8101600a8152030190205416612e99575b604051928251612ddb818684612225565b840160098152848360018060a01b03968793030190205416612e76575090600091612e27936002541690604051809581948293630cd5286d60e41b845260048401526024830190612248565b03915afa806000928392612e4d575b50612e43575b5050600090565b61237b5780612e3c565b9092612e6392503d8091833e611f97818361205d565b5098975050509350505050919038612e36565b60405192518391612e8a9082908490612225565b81016009815203019020541690565b600254604051630cd5286d60e41b8152600481018390529060009082906001600160a01b03168180612ece6024820189612248565b03915afa806000928392612efb575b50612eea575b5050612dca565b612ef45780612ee3565b9250505090565b9092612f1192503d8091833e611f97818361205d565b5098975050509350505050919038612edd56fe8c68d600771ad8af3c86a9f96bd5c471eca94aebd78ea274787f8e95e07aaa10a264697066735822122062bb16b84eb569a27a36d63f2d4d2e4ac766a4a765592b7bc091ba50645cc9f864736f6c63430008140033","opcodes":"PUSH1 0xA0 CALLVALUE PUSH3 0x145 JUMPI PUSH1 0x1F PUSH3 0x30F0 CODESIZE DUP2 SWAP1 SUB SWAP2 DUP3 ADD PUSH1 0x1F NOT AND DUP4 ADD SWAP2 PUSH1 0x1 PUSH1 0x1 PUSH1 0x40 SHL SUB DUP4 GT DUP5 DUP5 LT OR PUSH3 0x14A JUMPI DUP1 DUP5 SWAP3 PUSH1 0x40 SWAP5 DUP6 MSTORE DUP4 CODECOPY DUP2 ADD SUB SLT PUSH3 0x145 JUMPI PUSH3 0x5A PUSH1 0x20 PUSH3 0x52 DUP4 PUSH3 0x160 JUMP JUMPDEST SWAP3 ADD PUSH3 0x160 JUMP JUMPDEST CALLER ISZERO PUSH3 0x12C JUMPI PUSH1 0x0 DUP1 SLOAD CALLER PUSH1 0x1 PUSH1 0x1 PUSH1 0xA0 SHL SUB NOT DUP1 DUP4 AND DUP3 OR DUP5 SSTORE PUSH1 0x40 MLOAD SWAP6 SWAP1 SWAP5 PUSH1 0x1 PUSH1 0x1 PUSH1 0xA0 SHL SUB SWAP5 SWAP1 SWAP4 DUP6 SWAP4 SWAP2 SWAP1 DUP5 AND SWAP1 PUSH32 0x8BE0079C531659141344CD1FD0A4F28419497F9722A3DAAFE3B4186F6B6457E0 SWAP1 DUP1 LOG3 PUSH1 0x1 DUP1 SSTORE PUSH1 0x1 PUSH1 0x7 SSTORE PUSH1 0xFA PUSH1 0xB SSTORE AND DUP4 PUSH1 0x2 SLOAD AND OR PUSH1 0x2 SSTORE AND SWAP1 PUSH1 0x3 SLOAD AND OR PUSH1 0x3 SSTORE PUSH20 0x833589FCD6EDB6E08F4C7C32D4F71B54BDA02913 PUSH1 0x80 MSTORE PUSH2 0x2F7A SWAP1 DUP2 PUSH3 0x176 DUP3 CODECOPY PUSH1 0x80 MLOAD DUP2 DUP2 DUP2 PUSH2 0x3E0 ADD MSTORE DUP2 DUP2 PUSH2 0x542 ADD MSTORE DUP2 DUP2 PUSH2 0xAA3 ADD MSTORE DUP2 DUP2 PUSH2 0xE47 ADD MSTORE DUP2 DUP2 PUSH2 0x1456 ADD MSTORE DUP2 DUP2 PUSH2 0x2005 ADD MSTORE PUSH2 0x2CF2 ADD MSTORE RETURN JUMPDEST PUSH1 0x40 MLOAD PUSH4 0x1E4FBDF7 PUSH1 0xE0 SHL DUP2 MSTORE PUSH1 0x0 PUSH1 0x4 DUP3 ADD MSTORE PUSH1 0x24 SWAP1 REVERT JUMPDEST PUSH1 0x0 DUP1 REVERT JUMPDEST PUSH4 0x4E487B71 PUSH1 0xE0 SHL PUSH1 0x0 MSTORE PUSH1 0x41 PUSH1 0x4 MSTORE PUSH1 0x24 PUSH1 0x0 REVERT JUMPDEST MLOAD SWAP1 PUSH1 0x1 PUSH1 0x1 PUSH1 0xA0 SHL SUB DUP3 AND DUP3 SUB PUSH3 0x145 JUMPI JUMP INVALID PUSH1 0x40 PUSH1 0x80 DUP2 MSTORE PUSH1 0x4 DUP1 CALLDATASIZE LT ISZERO PUSH2 0x14 JUMPI PUSH1 0x0 DUP1 REVERT JUMPDEST PUSH1 0x0 DUP1 CALLDATALOAD PUSH1 0xE0 SHR DUP1 PUSH4 0x1007A43D EQ PUSH2 0x1046 JUMPI DUP1 PUSH4 0x11EAC855 EQ PUSH2 0x1FF0 JUMPI DUP1 PUSH4 0x13B06915 EQ PUSH2 0x1AE4 JUMPI DUP1 PUSH4 0x1663EE03 EQ PUSH2 0x1ABB JUMPI DUP1 PUSH4 0x5F5D0655 EQ PUSH2 0x1A9C JUMPI DUP1 PUSH4 0x61CF4863 EQ PUSH2 0x1A36 JUMPI DUP1 PUSH4 0x715018A6 EQ PUSH2 0x19DC JUMPI DUP1 PUSH4 0x742129E7 EQ PUSH2 0x1973 JUMPI DUP1 PUSH4 0x77DEC6C3 EQ PUSH2 0x18C4 JUMPI DUP1 PUSH4 0x7B55927C EQ PUSH2 0x18A5 JUMPI DUP1 PUSH4 0x8A72EA6A EQ PUSH2 0x180A JUMPI DUP1 PUSH4 0x8DA5CB5B EQ PUSH2 0x17E2 JUMPI DUP1 PUSH4 0x9122D553 EQ PUSH2 0x1703 JUMPI DUP1 PUSH4 0x943F2261 EQ PUSH2 0x1606 JUMPI DUP1 PUSH4 0xA2235558 EQ PUSH2 0x118A JUMPI DUP1 PUSH4 0xA3A67058 EQ PUSH2 0x1131 JUMPI DUP1 PUSH4 0xAA0B5988 EQ PUSH2 0x10C5 JUMPI DUP1 PUSH4 0xBB09D9B7 EQ PUSH2 0x1096 JUMPI DUP1 PUSH4 0xC6F70E82 EQ PUSH2 0x1046 JUMPI DUP1 PUSH4 0xC7EF9672 EQ PUSH2 0xBAB JUMPI DUP1 PUSH4 0xC815729D EQ PUSH2 0x7C2 JUMPI DUP1 PUSH4 0xCDD78CFC EQ PUSH2 0x7A3 JUMPI DUP1 PUSH4 0xCE0769C5 EQ PUSH2 0x77A JUMPI DUP1 PUSH4 0xD0B7830B EQ PUSH2 0x6FB JUMPI DUP1 PUSH4 0xD73792A9 EQ PUSH2 0x6DE JUMPI DUP1 PUSH4 0xD9AA187C EQ PUSH2 0x69A JUMPI DUP1 PUSH4 0xDCEB7686 EQ PUSH2 0x509 JUMPI DUP1 PUSH4 0xE44BCE40 EQ PUSH2 0x4BB JUMPI DUP1 PUSH4 0xEF706ADF EQ PUSH2 0x2E0 JUMPI DUP1 PUSH4 0xF2FDE38B EQ PUSH2 0x24D JUMPI PUSH4 0xF941FB99 EQ PUSH2 0x174 JUMPI PUSH1 0x0 DUP1 REVERT JUMPDEST CALLVALUE PUSH2 0x24A JUMPI PUSH1 0x20 SWAP2 DUP3 PUSH1 0x3 NOT CALLDATASIZE ADD SLT PUSH2 0x246 JUMPI DUP1 CALLDATALOAD PUSH1 0x1 PUSH1 0x1 PUSH1 0x40 SHL SUB DUP2 GT PUSH2 0x242 JUMPI SWAP3 PUSH2 0x1AA PUSH2 0x1BC SWAP3 DUP3 SWAP7 SWAP6 CALLDATASIZE SWAP2 ADD PUSH2 0x2099 JUMP JUMPDEST DUP2 DUP6 MLOAD SWAP4 DUP3 DUP6 DUP1 SWAP5 MLOAD SWAP4 DUP5 SWAP3 ADD PUSH2 0x2225 JUMP JUMPDEST DUP2 ADD PUSH1 0x6 DUP2 MSTORE SUB ADD SWAP1 KECCAK256 SWAP1 DUP3 MLOAD DUP1 DUP6 DUP5 SLOAD SWAP2 DUP3 DUP2 MSTORE ADD SWAP1 DUP2 SWAP5 DUP5 MSTORE DUP7 DUP5 KECCAK256 SWAP1 DUP5 JUMPDEST DUP2 DUP2 LT PUSH2 0x22E JUMPI POP POP POP DUP2 PUSH2 0x1F3 SWAP2 SUB DUP3 PUSH2 0x205D JUMP JUMPDEST DUP4 MLOAD SWAP5 DUP6 SWAP5 DUP2 DUP7 ADD SWAP3 DUP3 DUP8 MSTORE MLOAD DUP1 SWAP4 MSTORE DUP6 ADD SWAP4 SWAP3 JUMPDEST DUP3 DUP2 LT PUSH2 0x217 JUMPI POP POP POP POP SUB SWAP1 RETURN JUMPDEST DUP4 MLOAD DUP6 MSTORE DUP7 SWAP6 POP SWAP4 DUP2 ADD SWAP4 SWAP3 DUP2 ADD SWAP3 PUSH1 0x1 ADD PUSH2 0x208 JUMP JUMPDEST DUP3 SLOAD DUP5 MSTORE SWAP3 DUP9 ADD SWAP3 PUSH1 0x1 SWAP3 DUP4 ADD SWAP3 ADD PUSH2 0x1DD JUMP JUMPDEST DUP3 DUP1 REVERT JUMPDEST POP DUP1 REVERT JUMPDEST DUP1 REVERT JUMPDEST POP SWAP2 CALLVALUE PUSH2 0x242 JUMPI PUSH1 0x20 CALLDATASIZE PUSH1 0x3 NOT ADD SLT PUSH2 0x242 JUMPI PUSH1 0x1 PUSH1 0x1 PUSH1 0xA0 SHL SUB DUP3 CALLDATALOAD DUP2 DUP2 AND SWAP4 SWAP2 SWAP3 SWAP1 DUP5 SWAP1 SUB PUSH2 0x2DC JUMPI PUSH2 0x280 PUSH2 0x22C1 JUMP JUMPDEST DUP4 ISZERO PUSH2 0x2C6 JUMPI POP POP PUSH1 0x0 SLOAD DUP3 PUSH1 0x1 PUSH1 0x1 PUSH1 0x60 SHL SUB PUSH1 0xA0 SHL DUP3 AND OR PUSH1 0x0 SSTORE AND PUSH32 0x8BE0079C531659141344CD1FD0A4F28419497F9722A3DAAFE3B4186F6B6457E0 PUSH1 0x0 DUP1 LOG3 DUP1 RETURN JUMPDEST MLOAD PUSH4 0x1E4FBDF7 PUSH1 0xE0 SHL DUP2 MSTORE SWAP1 DUP2 ADD DUP5 SWAP1 MSTORE PUSH1 0x24 SWAP1 REVERT JUMPDEST DUP5 DUP1 REVERT JUMPDEST POP SWAP2 SWAP1 CALLVALUE PUSH2 0x242 JUMPI PUSH1 0x20 SWAP2 DUP3 PUSH1 0x3 NOT CALLDATASIZE ADD SLT PUSH2 0x4B7 JUMPI DUP2 CALLDATALOAD SWAP2 PUSH2 0x301 PUSH2 0x26F8 JUMP JUMPDEST DUP3 DUP6 MSTORE PUSH1 0x5 DUP5 MSTORE DUP2 DUP6 KECCAK256 SWAP4 PUSH1 0x6 DUP6 ADD DUP1 SLOAD SWAP3 PUSH2 0x31F PUSH1 0xFF DUP6 AND PUSH2 0x276B JUMP JUMPDEST PUSH1 0x1 DUP8 ADD SLOAD PUSH1 0x1 PUSH1 0x1 PUSH1 0xA0 SHL SUB SWAP3 SWAP1 DUP4 AND CALLER SUB PUSH2 0x474 JUMPI PUSH1 0x2 DUP9 ADD SLOAD SWAP5 PUSH1 0xFF NOT AND SWAP1 SSTORE PUSH1 0xFF PUSH1 0x3 DUP9 ADD SLOAD AND PUSH1 0x2 DUP2 LT ISZERO PUSH2 0x461 JUMPI DUP9 SWAP4 SWAP3 SWAP2 SWAP1 PUSH2 0x3B3 JUMPI POP POP POP DUP1 DUP1 DUP1 PUSH2 0x377 SWAP5 CALLER GAS CALL PUSH2 0x371 PUSH2 0x26C8 JUMP JUMPDEST POP PUSH2 0x28C2 JUMP JUMPDEST MLOAD DUP1 PUSH2 0x384 DUP2 CALLER SWAP6 PUSH2 0x27AA JUMP JUMPDEST SUB SWAP1 KECCAK256 SWAP1 PUSH32 0xA73002EB00B7F458173AEC22CF4445BBDB98267F801A7FE3D22DBA9382338CDB DUP5 DUP1 LOG4 PUSH1 0x1 DUP1 SSTORE DUP1 RETURN JUMPDEST DUP6 MLOAD PUSH4 0xA9059CBB PUSH1 0xE0 SHL DUP2 MSTORE CALLER SWAP2 DUP2 ADD SWAP2 DUP3 MSTORE PUSH1 0x20 DUP3 ADD SWAP6 SWAP1 SWAP6 MSTORE SWAP2 SWAP3 DUP4 SWAP3 DUP6 SWAP3 SWAP2 DUP4 SWAP2 DUP3 SWAP1 PUSH1 0x40 ADD SUB SWAP3 PUSH32 0x0 AND GAS CALL SWAP1 DUP2 ISZERO PUSH2 0x457 JUMPI DUP7 SWAP2 PUSH2 0x420 JUMPI JUMPDEST POP PUSH2 0x41B SWAP2 POP PUSH2 0x28C2 JUMP JUMPDEST PUSH2 0x377 JUMP JUMPDEST SWAP1 POP DUP2 DUP2 RETURNDATASIZE DUP4 GT PUSH2 0x450 JUMPI JUMPDEST PUSH2 0x436 DUP2 DUP4 PUSH2 0x205D JUMP JUMPDEST DUP2 ADD SUB SLT PUSH2 0x2DC JUMPI PUSH2 0x44A PUSH2 0x41B SWAP2 PUSH2 0x2392 JUMP JUMPDEST CODESIZE PUSH2 0x410 JUMP JUMPDEST POP RETURNDATASIZE PUSH2 0x42C JUMP JUMPDEST DUP4 MLOAD RETURNDATASIZE DUP9 DUP3 RETURNDATACOPY RETURNDATASIZE SWAP1 REVERT JUMPDEST PUSH4 0x4E487B71 PUSH1 0xE0 SHL DUP10 MSTORE PUSH1 0x21 DUP3 MSTORE PUSH1 0x24 DUP10 REVERT JUMPDEST DUP6 MLOAD PUSH3 0x461BCD PUSH1 0xE5 SHL DUP2 MSTORE DUP1 DUP4 ADD DUP6 SWAP1 MSTORE PUSH1 0x1B PUSH1 0x24 DUP3 ADD MSTORE PUSH32 0x4F6E6C792062757965722063616E2063616E63656C206F666665720000000000 PUSH1 0x44 DUP3 ADD MSTORE PUSH1 0x64 SWAP1 REVERT JUMPDEST DUP4 DUP1 REVERT JUMPDEST POP DUP3 SWAP1 CALLVALUE PUSH2 0x24A JUMPI PUSH1 0x20 CALLDATASIZE PUSH1 0x3 NOT ADD SLT PUSH2 0x24A JUMPI DUP3 CALLDATALOAD SWAP1 PUSH1 0x1 PUSH1 0x1 PUSH1 0x40 SHL SUB DUP3 GT PUSH2 0x24A JUMPI POP PUSH2 0x4F3 PUSH1 0x20 SWAP4 PUSH2 0x4F8 SWAP3 CALLDATASIZE SWAP2 ADD PUSH2 0x2099 JUMP JUMPDEST PUSH2 0x2D9C JUMP JUMPDEST SWAP1 MLOAD PUSH1 0x1 PUSH1 0x1 PUSH1 0xA0 SHL SUB SWAP1 SWAP2 AND DUP2 MSTORE RETURN JUMPDEST POP DUP3 CALLVALUE PUSH2 0x246 JUMPI DUP2 PUSH1 0x3 NOT CALLDATASIZE ADD SLT PUSH2 0x246 JUMPI PUSH2 0x523 PUSH2 0x22C1 JUMP JUMPDEST DUP1 MLOAD PUSH4 0x70A08231 PUSH1 0xE0 SHL DUP2 MSTORE ADDRESS DUP5 DUP3 ADD MSTORE SWAP3 PUSH1 0x20 SWAP1 PUSH1 0x1 PUSH1 0x1 PUSH1 0xA0 SHL SUB PUSH32 0x0 DUP2 AND SWAP2 SWAP1 DUP4 DUP8 PUSH1 0x24 DUP2 DUP7 GAS STATICCALL SWAP7 DUP8 ISZERO PUSH2 0x690 JUMPI DUP7 SWAP8 PUSH2 0x65C JUMPI JUMPDEST POP DUP7 ISZERO PUSH2 0x619 JUMPI DUP6 SLOAD DUP6 MLOAD PUSH4 0xA9059CBB PUSH1 0xE0 SHL DUP2 MSTORE SWAP2 AND PUSH1 0x1 PUSH1 0x1 PUSH1 0xA0 SHL SUB AND SWAP2 DUP2 ADD SWAP2 DUP3 MSTORE PUSH1 0x20 DUP3 ADD SWAP7 SWAP1 SWAP7 MSTORE SWAP4 SWAP5 SWAP4 DUP3 SWAP2 DUP6 SWAP2 DUP3 SWAP1 DUP9 SWAP1 DUP3 SWAP1 PUSH1 0x40 ADD SUB SWAP3 GAS CALL SWAP2 DUP3 ISZERO PUSH2 0x610 JUMPI POP DUP4 SWAP2 PUSH2 0x5D9 JUMPI JUMPDEST DUP4 PUSH2 0x5D6 DUP4 PUSH2 0x28FE JUMP JUMPDEST DUP1 RETURN JUMPDEST SWAP1 POP DUP2 DUP2 RETURNDATASIZE DUP4 GT PUSH2 0x609 JUMPI JUMPDEST PUSH2 0x5EF DUP2 DUP4 PUSH2 0x205D JUMP JUMPDEST DUP2 ADD SUB SLT PUSH2 0x246 JUMPI PUSH2 0x603 PUSH2 0x5D6 SWAP2 PUSH2 0x2392 JUMP JUMPDEST DUP4 PUSH2 0x5CC JUMP JUMPDEST POP RETURNDATASIZE PUSH2 0x5E5 JUMP JUMPDEST MLOAD RETURNDATASIZE DUP6 DUP3 RETURNDATACOPY RETURNDATASIZE SWAP1 REVERT JUMPDEST DUP5 MLOAD PUSH3 0x461BCD PUSH1 0xE5 SHL DUP2 MSTORE DUP1 DUP4 ADD DUP6 SWAP1 MSTORE PUSH1 0x18 PUSH1 0x24 DUP3 ADD MSTORE PUSH32 0x4E6F2055534443206665657320746F2077697468647261770000000000000000 PUSH1 0x44 DUP3 ADD MSTORE PUSH1 0x64 SWAP1 REVERT JUMPDEST SWAP1 SWAP7 POP DUP4 DUP2 DUP2 RETURNDATASIZE DUP4 GT PUSH2 0x689 JUMPI JUMPDEST PUSH2 0x674 DUP2 DUP4 PUSH2 0x205D JUMP JUMPDEST DUP2 ADD SUB SLT PUSH2 0x684 JUMPI MLOAD SWAP6 DUP8 PUSH2 0x57B JUMP JUMPDEST PUSH1 0x0 DUP1 REVERT JUMPDEST POP RETURNDATASIZE PUSH2 0x66A JUMP JUMPDEST DUP6 MLOAD RETURNDATASIZE DUP9 DUP3 RETURNDATACOPY RETURNDATASIZE SWAP1 REVERT JUMPDEST POP SWAP1 CALLVALUE PUSH2 0x246 JUMPI PUSH1 0x20 CALLDATASIZE PUSH1 0x3 NOT ADD SLT PUSH2 0x246 JUMPI CALLDATALOAD PUSH1 0x1 PUSH1 0x1 PUSH1 0xA0 SHL SUB DUP2 AND SWAP1 DUP2 SWAP1 SUB PUSH2 0x246 JUMPI PUSH2 0x6C8 PUSH2 0x22C1 JUMP JUMPDEST PUSH1 0x1 PUSH1 0x1 PUSH1 0x60 SHL SUB PUSH1 0xA0 SHL PUSH1 0x3 SLOAD AND OR PUSH1 0x3 SSTORE DUP1 RETURN JUMPDEST POP DUP3 CALLVALUE PUSH2 0x246 JUMPI DUP2 PUSH1 0x3 NOT CALLDATASIZE ADD SLT PUSH2 0x246 JUMPI PUSH1 0x20 SWAP1 MLOAD PUSH2 0x2710 DUP2 MSTORE RETURN JUMPDEST POP SWAP2 SWAP1 CALLVALUE PUSH2 0x242 JUMPI DUP3 PUSH1 0x3 NOT CALLDATASIZE ADD SLT PUSH2 0x242 JUMPI PUSH2 0x716 PUSH2 0x22C1 JUMP JUMPDEST SELFBALANCE SWAP2 DUP3 ISZERO PUSH2 0x741 JUMPI DUP4 PUSH2 0x5D6 DUP2 DUP1 DUP1 DUP1 DUP9 PUSH1 0x1 DUP1 PUSH1 0xA0 SHL SUB DUP3 SLOAD AND GAS CALL PUSH2 0x73B PUSH2 0x26C8 JUMP JUMPDEST POP PUSH2 0x28FE JUMP JUMPDEST SWAP1 PUSH1 0x20 PUSH1 0x64 SWAP3 MLOAD SWAP2 PUSH3 0x461BCD PUSH1 0xE5 SHL DUP4 MSTORE DUP3 ADD MSTORE PUSH1 0x13 PUSH1 0x24 DUP3 ADD MSTORE PUSH19 0x4E6F206665657320746F207769746864726177 PUSH1 0x68 SHL PUSH1 0x44 DUP3 ADD MSTORE REVERT JUMPDEST POP DUP3 CALLVALUE PUSH2 0x246 JUMPI DUP2 PUSH1 0x3 NOT CALLDATASIZE ADD SLT PUSH2 0x246 JUMPI PUSH1 0x2 SLOAD SWAP1 MLOAD PUSH1 0x1 PUSH1 0x1 PUSH1 0xA0 SHL SUB SWAP1 SWAP2 AND DUP2 MSTORE PUSH1 0x20 SWAP1 RETURN JUMPDEST POP DUP3 CALLVALUE PUSH2 0x246 JUMPI DUP2 PUSH1 0x3 NOT CALLDATASIZE ADD SLT PUSH2 0x246 JUMPI PUSH1 0x20 SWAP1 PUSH1 0xB SLOAD SWAP1 MLOAD SWAP1 DUP2 MSTORE RETURN JUMPDEST POP SWAP2 SWAP1 CALLVALUE PUSH2 0x242 JUMPI PUSH1 0x20 DUP1 PUSH1 0x3 NOT CALLDATASIZE ADD SLT PUSH2 0x4B7 JUMPI DUP2 CALLDATALOAD SWAP2 PUSH2 0x7E2 PUSH2 0x26F8 JUMP JUMPDEST DUP3 DUP6 MSTORE PUSH1 0x5 DUP3 MSTORE DUP4 DUP6 KECCAK256 SWAP4 PUSH1 0x6 DUP6 ADD SWAP2 PUSH2 0x7FF PUSH1 0xFF DUP5 SLOAD AND PUSH2 0x276B JUMP JUMPDEST PUSH1 0x5 DUP7 ADD SLOAD TIMESTAMP LT ISZERO PUSH2 0xB7A JUMPI PUSH1 0x1 PUSH1 0x1 PUSH1 0xA0 SHL SUB SWAP6 DUP7 PUSH2 0x821 PUSH2 0x4F3 DUP4 PUSH2 0x217F JUMP JUMPDEST AND PUSH2 0x82D DUP2 ISZERO ISZERO PUSH2 0x271B JUMP JUMPDEST CALLER SUB PUSH2 0xB38 JUMPI PUSH1 0x2 DUP2 ADD SWAP7 DUP8 SLOAD SWAP3 PUSH2 0x855 PUSH2 0x2710 PUSH2 0x84D PUSH1 0xB SLOAD DUP8 PUSH2 0x2646 JUMP JUMPDEST DIV DUP1 SWAP6 PUSH2 0x266F JUMP JUMPDEST PUSH1 0xFF PUSH1 0x3 DUP6 ADD SLOAD AND PUSH1 0x2 DUP2 LT ISZERO PUSH2 0xB25 JUMPI DUP9 DUP13 SWAP2 ISZERO PUSH1 0x0 EQ PUSH2 0xA77 JUMPI POP DUP1 DUP1 DUP1 PUSH2 0x88A SWAP5 CALLER GAS CALL PUSH2 0x884 PUSH2 0x26C8 JUMP JUMPDEST POP PUSH2 0x267C JUMP JUMPDEST PUSH1 0xFF DUP6 MLOAD DUP9 DUP2 PUSH2 0x89A DUP2 DUP9 PUSH2 0x27AA JUMP JUMPDEST PUSH1 0xA DUP2 MSTORE SUB ADD SWAP1 KECCAK256 SLOAD AND ISZERO PUSH2 0xA2E JUMPI DUP10 DUP3 PUSH1 0x2 SLOAD AND DUP4 PUSH1 0x1 DUP7 ADD SLOAD AND SWAP1 DUP1 EXTCODESIZE ISZERO PUSH2 0x242 JUMPI DUP3 SWAP2 DUP3 SWAP2 DUP10 MLOAD DUP1 SWAP5 DUP2 DUP1 SWAP5 PUSH4 0x2203F8F1 PUSH1 0xE0 SHL DUP3 MSTORE DUP14 DUP11 DUP4 ADD MSTORE PUSH2 0x8E5 PUSH1 0x44 DUP4 ADD DUP14 PUSH2 0x282D JUMP JUMPDEST SWAP1 PUSH1 0x24 DUP4 ADD MSTORE SUB SWAP3 GAS CALL DUP1 ISZERO PUSH2 0xA24 JUMPI PUSH2 0xA06 JUMPI JUMPDEST POP POP SWAP1 PUSH1 0x0 DUP1 MLOAD PUSH1 0x20 PUSH2 0x2F25 DUP4 CODECOPY DUP2 MLOAD SWAP2 MSTORE SWAP6 PUSH2 0x9B8 SWAP4 SWAP3 JUMPDEST PUSH1 0xFF NOT SWAP2 DUP3 DUP2 SLOAD AND SWAP1 SSTORE PUSH1 0xFF PUSH1 0x5 DUP9 MLOAD DUP12 DUP2 PUSH2 0x92F DUP2 DUP11 PUSH2 0x27AA JUMP JUMPDEST DUP7 DUP2 MSTORE SUB ADD SWAP1 KECCAK256 ADD SLOAD AND PUSH2 0x9CE JUMPI JUMPDEST POP POP PUSH2 0x951 PUSH2 0x94C DUP4 PUSH2 0x217F JUMP JUMPDEST PUSH2 0x2B41 JUMP JUMPDEST PUSH1 0x1 DUP3 ADD SLOAD AND DUP1 SWAP9 SLOAD SWAP8 DUP6 MLOAD DUP1 PUSH2 0x968 DUP2 DUP7 PUSH2 0x27AA JUMP JUMPDEST SUB SWAP1 KECCAK256 DUP7 MLOAD PUSH1 0x1 PUSH1 0x1 PUSH1 0xA0 SHL SUB SWAP4 SWAP1 SWAP4 AND DUP4 MSTORE PUSH1 0x20 DUP4 ADD DUP11 SWAP1 MSTORE CALLER SWAP3 SWAP1 SWAP2 SWAP1 PUSH32 0x9332956E0C3DD558CABF109A274FD9184F7CD2081DA1B9D9E28E702CF8A6CC59 SWAP1 PUSH1 0x40 SWAP1 LOG4 DUP4 MLOAD SWAP2 DUP3 DUP1 SWAP3 PUSH2 0x27AA JUMP JUMPDEST SUB SWAP1 KECCAK256 SWAP4 DUP3 MLOAD SWAP6 DUP7 MSTORE DUP6 ADD MSTORE CALLER SWAP4 LOG4 PUSH1 0x1 DUP1 SSTORE DUP1 RETURN JUMPDEST PUSH1 0x5 SWAP1 DUP10 DUP9 MLOAD DUP1 SWAP3 PUSH2 0x9E0 DUP3 DUP10 PUSH2 0x27AA JUMP JUMPDEST SWAP1 DUP2 MSTORE SUB ADD SWAP1 KECCAK256 ADD SWAP1 DUP2 SLOAD AND SWAP1 SSTORE PUSH2 0x9FF PUSH2 0x9FA DUP4 PUSH2 0x217F JUMP JUMPDEST PUSH2 0x2A1A JUMP JUMPDEST CODESIZE DUP1 PUSH2 0x93E JUMP JUMPDEST PUSH2 0xA13 SWAP1 SWAP5 SWAP4 SWAP3 SWAP5 PUSH2 0x2034 JUMP JUMPDEST PUSH2 0xA20 JUMPI SWAP1 SWAP2 DUP10 CODESIZE PUSH2 0x8FA JUMP JUMPDEST DUP10 DUP1 REVERT JUMPDEST DUP8 MLOAD RETURNDATASIZE DUP5 DUP3 RETURNDATACOPY RETURNDATASIZE SWAP1 REVERT JUMPDEST SWAP1 PUSH1 0x0 DUP1 MLOAD PUSH1 0x20 PUSH2 0x2F25 DUP4 CODECOPY DUP2 MLOAD SWAP2 MSTORE SWAP6 DUP4 SWAP3 DUP3 PUSH1 0x1 PUSH2 0x9B8 SWAP7 ADD SLOAD AND DUP8 MLOAD DUP11 DUP2 PUSH2 0xA59 DUP2 DUP10 PUSH2 0x27AA JUMP JUMPDEST PUSH1 0x9 DUP2 MSTORE SUB ADD SWAP1 KECCAK256 DUP1 SLOAD PUSH1 0x1 PUSH1 0x1 PUSH1 0xA0 SHL SUB NOT AND SWAP1 SWAP2 OR SWAP1 SSTORE PUSH2 0x913 JUMP JUMPDEST DUP8 MLOAD PUSH4 0xA9059CBB PUSH1 0xE0 SHL DUP2 MSTORE CALLER DUP6 DUP3 ADD SWAP1 DUP2 MSTORE PUSH1 0x20 DUP2 ADD SWAP5 SWAP1 SWAP5 MSTORE SWAP3 SWAP1 SWAP2 DUP4 SWAP2 DUP3 SWAP1 DUP2 SWAP1 PUSH1 0x40 ADD SUB SWAP2 DUP8 PUSH32 0x0 AND GAS CALL DUP1 ISZERO PUSH2 0xB1B JUMPI DUP12 SWAP1 PUSH2 0xAE1 JUMPI JUMPDEST PUSH2 0xADC SWAP2 POP PUSH2 0x267C JUMP JUMPDEST PUSH2 0x88A JUMP JUMPDEST POP DUP8 DUP2 DUP2 RETURNDATASIZE DUP4 GT PUSH2 0xB14 JUMPI JUMPDEST PUSH2 0xAF7 DUP2 DUP4 PUSH2 0x205D JUMP JUMPDEST DUP2 ADD SUB SLT PUSH2 0xB10 JUMPI PUSH2 0xB0B PUSH2 0xADC SWAP2 PUSH2 0x2392 JUMP JUMPDEST PUSH2 0xAD2 JUMP JUMPDEST DUP11 DUP1 REVERT JUMPDEST POP RETURNDATASIZE PUSH2 0xAED JUMP JUMPDEST DUP7 MLOAD RETURNDATASIZE DUP14 DUP3 RETURNDATACOPY RETURNDATASIZE SWAP1 REVERT JUMPDEST PUSH4 0x4E487B71 PUSH1 0xE0 SHL DUP13 MSTORE PUSH1 0x21 DUP4 MSTORE PUSH1 0x24 DUP13 REVERT JUMPDEST POP DUP4 PUSH1 0x64 SWAP3 MLOAD SWAP2 PUSH3 0x461BCD PUSH1 0xE5 SHL DUP4 MSTORE DUP3 ADD MSTORE PUSH1 0x1B PUSH1 0x24 DUP3 ADD MSTORE PUSH32 0x4F6E6C79206F776E65722063616E20616363657074206F666665720000000000 PUSH1 0x44 DUP3 ADD MSTORE REVERT JUMPDEST DUP4 PUSH1 0x64 SWAP3 MLOAD SWAP2 PUSH3 0x461BCD PUSH1 0xE5 SHL DUP4 MSTORE DUP3 ADD MSTORE PUSH1 0xD PUSH1 0x24 DUP3 ADD MSTORE PUSH13 0x13D999995C88195E1C1A5C9959 PUSH1 0x9A SHL PUSH1 0x44 DUP3 ADD MSTORE REVERT JUMPDEST POP SWAP2 SWAP1 PUSH1 0x20 DUP1 PUSH1 0x3 NOT CALLDATASIZE ADD SLT PUSH2 0x4B7 JUMPI DUP2 CALLDATALOAD PUSH1 0x1 PUSH1 0x1 PUSH1 0x40 SHL SUB DUP2 GT PUSH2 0x2DC JUMPI PUSH2 0xBD8 SWAP1 CALLDATASIZE SWAP1 DUP5 ADD PUSH2 0x2099 JUMP JUMPDEST SWAP3 PUSH2 0xBE1 PUSH2 0x26F8 JUMP JUMPDEST DUP1 MLOAD DUP5 MLOAD SWAP1 DUP4 DUP2 DUP2 DUP9 ADD SWAP4 PUSH2 0xBF7 DUP2 DUP4 DUP8 PUSH2 0x2225 JUMP JUMPDEST DUP2 ADD DUP8 DUP2 MSTORE SUB ADD SWAP1 KECCAK256 SWAP4 PUSH1 0x5 DUP6 ADD PUSH2 0xC12 PUSH1 0xFF DUP3 SLOAD AND PUSH2 0x2605 JUMP JUMPDEST PUSH1 0x1 DUP7 ADD SWAP1 PUSH1 0x1 DUP1 PUSH1 0xA0 SHL SUB SWAP3 DUP4 DUP4 SLOAD AND SWAP5 DUP6 CALLER EQ PUSH2 0x1003 JUMPI PUSH1 0x2 DUP10 ADD SWAP9 DUP10 SLOAD SWAP7 PUSH1 0xFF PUSH1 0x3 PUSH2 0xC51 PUSH2 0x2710 PUSH2 0xC49 PUSH1 0xB SLOAD DUP14 PUSH2 0x2646 JUMP JUMPDEST DIV DUP1 SWAP12 PUSH2 0x266F JUMP JUMPDEST SWAP4 ADD SLOAD AND PUSH1 0x2 DUP2 LT ISZERO PUSH2 0xFF0 JUMPI PUSH2 0xE11 JUMPI POP DUP10 SLOAD CALLVALUE SUB PUSH2 0xDCE JUMPI SWAP1 PUSH2 0xC83 DUP13 DUP1 DUP1 DUP1 DUP14 SWAP7 DUP12 DUP12 SLOAD AND GAS CALL PUSH2 0x884 PUSH2 0x26C8 JUMP JUMPDEST PUSH1 0xFF DUP12 DUP4 DUP11 MLOAD DUP1 SWAP3 MLOAD PUSH2 0xC97 DUP2 DUP4 DUP9 PUSH2 0x2225 JUMP JUMPDEST DUP2 ADD PUSH1 0xA DUP2 MSTORE SUB ADD SWAP1 KECCAK256 SLOAD AND PUSH1 0x0 EQ PUSH2 0xD7E JUMPI POP POP DUP10 DUP5 PUSH1 0x2 SLOAD AND SWAP2 DUP3 EXTCODESIZE ISZERO PUSH2 0x246 JUMPI PUSH2 0xCE2 SWAP3 DUP9 DUP4 DUP14 SWAP4 DUP3 MLOAD SWAP7 DUP8 SWAP6 DUP7 SWAP5 DUP6 SWAP4 PUSH4 0x2203F8F1 PUSH1 0xE0 SHL DUP6 MSTORE DUP5 ADD MSTORE PUSH1 0x44 DUP4 ADD SWAP1 PUSH2 0x2248 JUMP JUMPDEST CALLER PUSH1 0x24 DUP4 ADD MSTORE SUB SWAP3 GAS CALL DUP1 ISZERO PUSH2 0xD74 JUMPI PUSH2 0xD47 JUMPI JUMPDEST POP SWAP2 PUSH2 0xD34 SWAP2 PUSH1 0x0 DUP1 MLOAD PUSH1 0x20 PUSH2 0x2F25 DUP4 CODECOPY DUP2 MLOAD SWAP2 MSTORE SWAP6 SWAP5 SWAP4 JUMPDEST DUP1 SLOAD PUSH1 0xFF NOT AND SWAP1 SSTORE PUSH2 0xD21 DUP10 PUSH2 0x2A1A JUMP JUMPDEST PUSH2 0xD2A DUP10 PUSH2 0x2B41 JUMP JUMPDEST SLOAD AND SWAP6 SLOAD SWAP7 PUSH2 0x25E5 JUMP JUMPDEST SWAP4 DUP3 MLOAD SWAP7 DUP8 MSTORE DUP7 ADD MSTORE CALLER SWAP5 LOG4 PUSH1 0x1 DUP1 SSTORE DUP1 RETURN JUMPDEST SWAP2 PUSH1 0x0 DUP1 MLOAD PUSH1 0x20 PUSH2 0x2F25 DUP4 CODECOPY DUP2 MLOAD SWAP2 MSTORE SWAP6 SWAP5 SWAP4 SWAP2 SWAP10 PUSH2 0xD68 PUSH2 0xD34 SWAP5 PUSH2 0x2034 JUMP JUMPDEST SWAP10 SWAP2 SWAP4 SWAP5 SWAP6 POP SWAP2 PUSH2 0xCF7 JUMP JUMPDEST DUP7 MLOAD RETURNDATASIZE DUP13 DUP3 RETURNDATACOPY RETURNDATASIZE SWAP1 REVERT JUMPDEST PUSH2 0xD34 SWAP5 SWAP3 POP DUP8 SWAP7 SWAP6 SWAP4 SWAP2 PUSH2 0xDAD SWAP2 DUP13 PUSH1 0x0 DUP1 MLOAD PUSH1 0x20 PUSH2 0x2F25 DUP4 CODECOPY DUP2 MLOAD SWAP2 MSTORE SWAP11 MLOAD SWAP4 DUP5 SWAP3 DUP4 SWAP3 MLOAD SWAP3 DUP4 SWAP2 PUSH2 0x2225 JUMP JUMPDEST DUP2 ADD PUSH1 0x9 DUP2 MSTORE SUB ADD SWAP1 KECCAK256 CALLER PUSH1 0x1 PUSH1 0x1 PUSH1 0x60 SHL SUB PUSH1 0xA0 SHL DUP3 SLOAD AND OR SWAP1 SSTORE PUSH2 0xD10 JUMP JUMPDEST DUP8 MLOAD PUSH3 0x461BCD PUSH1 0xE5 SHL DUP2 MSTORE DUP1 DUP5 ADD DUP11 SWAP1 MSTORE PUSH1 0x19 PUSH1 0x24 DUP3 ADD MSTORE PUSH32 0x45786163742045544820616D6F756E7420726571756972656400000000000000 PUSH1 0x44 DUP3 ADD MSTORE PUSH1 0x64 SWAP1 REVERT JUMPDEST SWAP1 CALLVALUE PUSH2 0xFA3 JUMPI DUP9 MLOAD PUSH4 0x23B872DD PUSH1 0xE0 SHL DUP1 DUP3 MSTORE CALLER DUP7 DUP4 ADD SWAP1 DUP2 MSTORE PUSH1 0x1 PUSH1 0x1 PUSH1 0xA0 SHL SUB SWAP1 SWAP5 AND PUSH1 0x20 DUP6 ADD MSTORE PUSH1 0x40 DUP5 ADD SWAP3 SWAP1 SWAP3 MSTORE DUP14 SWAP3 PUSH32 0x0 DUP10 AND SWAP2 SWAP1 DUP13 SWAP1 DUP3 SWAP1 DUP2 SWAP1 PUSH1 0x60 ADD SUB DUP2 DUP8 DUP7 GAS CALL SWAP1 DUP2 ISZERO PUSH2 0xF99 JUMPI SWAP1 DUP13 SWAP4 SWAP3 SWAP2 DUP6 SWAP2 PUSH2 0xF60 JUMPI JUMPDEST POP PUSH2 0xE96 SWAP1 PUSH2 0x267C JUMP JUMPDEST DUP11 MLOAD SWAP2 DUP3 MSTORE CALLER DUP7 DUP4 ADD SWAP1 DUP2 MSTORE ADDRESS PUSH1 0x20 DUP3 ADD MSTORE PUSH1 0x40 DUP2 ADD DUP12 SWAP1 MSTORE SWAP2 SWAP4 DUP5 SWAP3 DUP4 SWAP2 SWAP1 DUP3 SWAP1 PUSH1 0x60 ADD SUB SWAP3 GAS CALL SWAP1 DUP2 ISZERO PUSH2 0xF56 JUMPI DUP13 SWAP2 PUSH2 0xF1D JUMPI JUMPDEST POP ISZERO PUSH2 0xEDA JUMPI DUP8 SWAP1 PUSH2 0xC83 JUMP JUMPDEST DUP7 MLOAD PUSH3 0x461BCD PUSH1 0xE5 SHL DUP2 MSTORE DUP1 DUP4 ADD DUP10 SWAP1 MSTORE PUSH1 0x1C PUSH1 0x24 DUP3 ADD MSTORE PUSH32 0x506C6174666F726D20666565207472616E73666572206661696C656400000000 PUSH1 0x44 DUP3 ADD MSTORE PUSH1 0x64 SWAP1 REVERT JUMPDEST SWAP1 POP DUP9 DUP2 DUP2 RETURNDATASIZE DUP4 GT PUSH2 0xF4F JUMPI JUMPDEST PUSH2 0xF34 DUP2 DUP4 PUSH2 0x205D JUMP JUMPDEST DUP2 ADD SUB SLT PUSH2 0xF4B JUMPI PUSH2 0xF45 SWAP1 PUSH2 0x2392 JUMP JUMPDEST CODESIZE PUSH2 0xECD JUMP JUMPDEST DUP12 DUP1 REVERT JUMPDEST POP RETURNDATASIZE PUSH2 0xF2A JUMP JUMPDEST DUP9 MLOAD RETURNDATASIZE DUP15 DUP3 RETURNDATACOPY RETURNDATASIZE SWAP1 REVERT JUMPDEST DUP5 DUP2 SWAP6 SWAP3 POP RETURNDATASIZE DUP4 GT PUSH2 0xF92 JUMPI JUMPDEST PUSH2 0xF77 DUP2 DUP4 PUSH2 0x205D JUMP JUMPDEST DUP2 ADD SUB SLT PUSH2 0x4B7 JUMPI PUSH2 0xE96 PUSH2 0xF8C DUP14 SWAP5 PUSH2 0x2392 JUMP JUMPDEST SWAP1 PUSH2 0xE8C JUMP JUMPDEST POP RETURNDATASIZE PUSH2 0xF6D JUMP JUMPDEST DUP12 MLOAD RETURNDATASIZE DUP7 DUP3 RETURNDATACOPY RETURNDATASIZE SWAP1 REVERT JUMPDEST DUP9 MLOAD PUSH3 0x461BCD PUSH1 0xE5 SHL DUP2 MSTORE DUP1 DUP6 ADD DUP12 SWAP1 MSTORE PUSH1 0x21 PUSH1 0x24 DUP3 ADD MSTORE PUSH32 0x446F206E6F742073656E642045544820666F7220555344432070757263686173 PUSH1 0x44 DUP3 ADD MSTORE PUSH1 0x65 PUSH1 0xF8 SHL PUSH1 0x64 DUP3 ADD MSTORE PUSH1 0x84 SWAP1 REVERT JUMPDEST PUSH4 0x4E487B71 PUSH1 0xE0 SHL DUP15 MSTORE PUSH1 0x21 DUP6 MSTORE PUSH1 0x24 DUP15 REVERT JUMPDEST DUP7 MLOAD PUSH3 0x461BCD PUSH1 0xE5 SHL DUP2 MSTORE DUP1 DUP4 ADD DUP10 SWAP1 MSTORE PUSH1 0x19 PUSH1 0x24 DUP3 ADD MSTORE PUSH32 0x43616E6E6F742062757920796F7572206F776E20617373657400000000000000 PUSH1 0x44 DUP3 ADD MSTORE PUSH1 0x64 SWAP1 REVERT JUMPDEST POP DUP3 SWAP1 CALLVALUE PUSH2 0x24A JUMPI PUSH1 0x20 CALLDATASIZE PUSH1 0x3 NOT ADD SLT PUSH2 0x24A JUMPI DUP3 CALLDATALOAD SWAP1 PUSH1 0x1 PUSH1 0x1 PUSH1 0x40 SHL SUB DUP3 GT PUSH2 0x24A JUMPI POP PUSH2 0x1081 PUSH1 0x20 PUSH2 0x1AA DUP2 SWAP6 PUSH1 0xFF SWAP5 CALLDATASIZE SWAP2 ADD PUSH2 0x2099 JUMP JUMPDEST DUP2 ADD PUSH1 0xA DUP2 MSTORE SUB ADD SWAP1 KECCAK256 SLOAD AND SWAP1 MLOAD SWAP1 ISZERO ISZERO DUP2 MSTORE RETURN JUMPDEST POP DUP3 CALLVALUE PUSH2 0x246 JUMPI DUP2 PUSH1 0x3 NOT CALLDATASIZE ADD SLT PUSH2 0x246 JUMPI PUSH1 0x20 SWAP1 MLOAD PUSH20 0x833589FCD6EDB6E08F4C7C32D4F71B54BDA02913 DUP2 MSTORE RETURN JUMPDEST POP SWAP2 SWAP1 CALLVALUE PUSH2 0x242 JUMPI PUSH1 0x20 CALLDATASIZE PUSH1 0x3 NOT ADD SLT PUSH2 0x242 JUMPI DUP1 CALLDATALOAD SWAP2 PUSH2 0x10E4 PUSH2 0x22C1 JUMP JUMPDEST PUSH2 0x3E8 DUP4 GT PUSH2 0x10F5 JUMPI POP POP PUSH1 0xB SSTORE DUP1 RETURN JUMPDEST SWAP1 PUSH1 0x20 PUSH1 0x64 SWAP3 MLOAD SWAP2 PUSH3 0x461BCD PUSH1 0xE5 SHL DUP4 MSTORE DUP3 ADD MSTORE PUSH1 0x16 PUSH1 0x24 DUP3 ADD MSTORE PUSH22 0x46656520746F6F206869676820286D61782031302529 PUSH1 0x50 SHL PUSH1 0x44 DUP3 ADD MSTORE REVERT JUMPDEST POP DUP3 CALLVALUE PUSH2 0x246 JUMPI PUSH1 0x20 SWAP2 PUSH2 0x115B PUSH2 0x1147 CALLDATASIZE PUSH2 0x2290 JUMP JUMPDEST SWAP5 SWAP1 DUP2 DUP6 MLOAD SWAP4 DUP3 DUP6 DUP1 SWAP5 MLOAD SWAP4 DUP5 SWAP3 ADD PUSH2 0x2225 JUMP JUMPDEST DUP2 ADD PUSH1 0x6 DUP2 MSTORE SUB ADD SWAP1 KECCAK256 SWAP1 DUP2 SLOAD DUP5 LT ISZERO PUSH2 0x24A JUMPI POP PUSH1 0x20 SWAP3 PUSH2 0x117C SWAP2 PUSH2 0x212D JUMP JUMPDEST SWAP2 SWAP1 SLOAD SWAP1 MLOAD SWAP2 PUSH1 0x3 SHL SHR DUP2 MSTORE RETURN JUMPDEST POP SWAP2 PUSH1 0x80 CALLDATASIZE PUSH1 0x3 NOT ADD SLT PUSH2 0x242 JUMPI PUSH1 0x1 PUSH1 0x1 PUSH1 0x40 SHL SUB DUP3 CALLDATALOAD DUP2 DUP2 GT PUSH2 0x2DC JUMPI PUSH2 0x11B6 SWAP1 CALLDATASIZE SWAP1 DUP6 ADD PUSH2 0x2099 JUMP JUMPDEST SWAP2 PUSH1 0x24 SWAP3 DUP4 CALLDATALOAD SWAP5 PUSH1 0x44 SWAP5 DUP6 CALLDATALOAD SWAP5 PUSH1 0x2 DUP7 LT ISZERO PUSH2 0x1602 JUMPI PUSH1 0x64 SWAP6 DUP7 CALLDATALOAD SWAP7 DUP10 ISZERO PUSH2 0x15CC JUMPI PUSH2 0xE10 DUP9 LT ISZERO DUP1 PUSH2 0x15BF JUMPI JUMPDEST ISZERO PUSH2 0x158E JUMPI PUSH1 0x1 PUSH1 0x1 PUSH1 0xA0 SHL SUB SWAP9 DUP10 PUSH2 0x11FC DUP9 PUSH2 0x2D9C JUMP JUMPDEST AND PUSH2 0x1208 DUP2 ISZERO ISZERO PUSH2 0x271B JUMP JUMPDEST CALLER EQ PUSH2 0x154F JUMPI DUP3 PUSH2 0x1409 JUMPI DUP11 CALLVALUE SUB PUSH2 0x13D4 JUMPI POP POP JUMPDEST PUSH1 0x7 SLOAD SWAP7 PUSH2 0x122A DUP9 PUSH2 0x275C JUMP JUMPDEST PUSH1 0x7 SSTORE TIMESTAMP ADD SWAP8 DUP9 TIMESTAMP GT PUSH2 0x13C2 JUMPI DUP7 MLOAD SWAP3 PUSH1 0xE0 DUP5 ADD SWAP1 DUP2 GT DUP5 DUP3 LT OR PUSH2 0x13B0 JUMPI DUP9 SWAP3 DUP12 DUP12 SWAP4 DUP15 SWAP4 DUP12 MSTORE DUP10 DUP8 MSTORE PUSH1 0x20 DUP8 ADD SWAP1 CALLER DUP3 MSTORE DUP12 DUP9 ADD SWAP3 DUP4 MSTORE PUSH2 0x1271 PUSH1 0x60 DUP10 ADD SWAP5 DUP6 PUSH2 0x249E JUMP JUMPDEST PUSH2 0x129D DUP13 PUSH1 0x80 DUP11 ADD SWAP7 TIMESTAMP DUP9 MSTORE PUSH1 0xA0 DUP12 ADD SWAP9 DUP10 MSTORE PUSH1 0xC0 DUP12 ADD SWAP10 PUSH1 0x1 DUP12 MSTORE DUP2 MSTORE PUSH1 0x5 PUSH1 0x20 MSTORE KECCAK256 SWAP9 MLOAD DUP10 PUSH2 0x2506 JUMP JUMPDEST PUSH1 0x1 DUP9 ADD SWAP2 MLOAD AND PUSH1 0x1 PUSH1 0x1 PUSH1 0x60 SHL SUB PUSH1 0xA0 SHL DUP3 SLOAD AND OR SWAP1 SSTORE MLOAD PUSH1 0x2 DUP7 ADD SSTORE MLOAD PUSH1 0x2 DUP2 LT ISZERO PUSH2 0x139E JUMPI SWAP2 DUP5 SWAP4 SWAP2 PUSH2 0x12DB PUSH1 0x6 SWAP5 PUSH1 0x3 PUSH2 0x12FC SWAP9 ADD PUSH2 0x25CD JUMP JUMPDEST MLOAD DUP8 DUP6 ADD SSTORE MLOAD PUSH1 0x5 DUP5 ADD SSTORE MLOAD ISZERO ISZERO SWAP2 ADD SWAP1 PUSH1 0xFF DUP1 NOT DUP4 SLOAD AND SWAP2 ISZERO ISZERO AND OR SWAP1 SSTORE JUMP JUMPDEST DUP4 MLOAD PUSH1 0x20 DUP2 DUP6 MLOAD PUSH2 0x1310 DUP2 DUP4 DUP6 DUP11 ADD PUSH2 0x2225 JUMP JUMPDEST DUP2 ADD PUSH1 0x6 DUP2 MSTORE SUB ADD SWAP1 KECCAK256 SWAP1 DUP2 SLOAD SWAP3 PUSH1 0x1 PUSH1 0x40 SHL DUP5 LT ISZERO PUSH2 0x138D JUMPI POP POP SWAP2 PUSH2 0x1362 DUP3 PUSH32 0xCFED541454DAC78F93DA97764A61638D187363E6D64A389FAA86EDCAAF8932BC SWAP6 SWAP5 PUSH1 0x1 PUSH2 0x137C SWAP6 ADD DUP2 SSTORE PUSH2 0x212D JUMP JUMPDEST DUP2 SLOAD SWAP1 PUSH1 0x3 SHL SWAP1 DUP8 DUP3 SHL SWAP2 PUSH1 0x0 NOT SWAP1 SHL NOT AND OR SWAP1 SSTORE PUSH2 0x25E5 JUMP JUMPDEST SWAP4 DUP2 MLOAD SWAP6 DUP7 MSTORE PUSH1 0x20 DUP7 ADD MSTORE CALLER SWAP5 LOG4 DUP1 RETURN JUMPDEST PUSH4 0x4E487B71 PUSH1 0xE0 SHL DUP11 MSTORE PUSH1 0x41 SWAP1 MSTORE DUP9 REVERT JUMPDEST PUSH4 0x4E487B71 PUSH1 0xE0 SHL DUP14 MSTORE PUSH1 0x21 DUP8 MSTORE DUP6 DUP14 REVERT JUMPDEST PUSH4 0x4E487B71 PUSH1 0xE0 SHL DUP13 MSTORE PUSH1 0x41 DUP7 MSTORE DUP5 DUP13 REVERT JUMPDEST PUSH4 0x4E487B71 PUSH1 0xE0 SHL DUP12 MSTORE PUSH1 0x11 DUP6 MSTORE DUP4 DUP12 REVERT JUMPDEST PUSH19 0x8AA89040C2DADEEADCE840DAD2E6DAC2E8C6D PUSH1 0x6B SHL DUP7 SWAP2 PUSH1 0x13 DUP8 PUSH1 0x20 DUP13 MLOAD SWAP6 PUSH3 0x461BCD PUSH1 0xE5 SHL DUP8 MSTORE DUP7 ADD MSTORE DUP5 ADD MSTORE DUP3 ADD MSTORE REVERT JUMPDEST CALLVALUE PUSH2 0x1510 JUMPI PUSH2 0x1452 PUSH1 0x20 DUP13 DUP13 DUP16 DUP11 SWAP1 DUP14 MLOAD DUP1 SWAP7 DUP2 SWAP6 DUP3 SWAP5 PUSH4 0x23B872DD PUSH1 0xE0 SHL DUP5 MSTORE ADDRESS SWAP1 CALLER SWAP1 DUP6 ADD PUSH1 0x40 SWAP2 SWAP5 SWAP4 SWAP3 SWAP5 PUSH1 0x60 DUP3 ADD SWAP6 PUSH1 0x1 DUP1 PUSH1 0xA0 SHL SUB DUP1 SWAP3 AND DUP4 MSTORE AND PUSH1 0x20 DUP3 ADD MSTORE ADD MSTORE JUMP JUMPDEST SUB SWAP3 PUSH32 0x0 AND GAS CALL SWAP1 DUP2 ISZERO PUSH2 0x1506 JUMPI DUP14 SWAP2 PUSH2 0x14C9 JUMPI JUMPDEST POP ISZERO PUSH2 0x1493 JUMPI POP POP PUSH2 0x121D JUMP JUMPDEST PUSH20 0x1554D110C81D1C985B9CD9995C8819985A5B1959 PUSH1 0x62 SHL DUP7 SWAP2 PUSH1 0x14 DUP8 PUSH1 0x20 DUP13 MLOAD SWAP6 PUSH3 0x461BCD PUSH1 0xE5 SHL DUP8 MSTORE DUP7 ADD MSTORE DUP5 ADD MSTORE DUP3 ADD MSTORE REVERT JUMPDEST SWAP1 POP PUSH1 0x20 DUP2 RETURNDATASIZE DUP3 GT PUSH2 0x14FE JUMPI JUMPDEST DUP2 PUSH2 0x14E3 PUSH1 0x20 SWAP4 DUP4 PUSH2 0x205D JUMP JUMPDEST DUP2 ADD SUB SLT PUSH2 0x14FA JUMPI PUSH2 0x14F4 SWAP1 PUSH2 0x2392 JUMP JUMPDEST CODESIZE PUSH2 0x1486 JUMP JUMPDEST DUP13 DUP1 REVERT JUMPDEST RETURNDATASIZE SWAP2 POP PUSH2 0x14D6 JUMP JUMPDEST DUP10 MLOAD RETURNDATASIZE DUP16 DUP3 RETURNDATACOPY RETURNDATASIZE SWAP1 REVERT JUMPDEST PUSH32 0x446F206E6F742073656E642045544820666F722055534443206F666665720000 DUP7 SWAP2 PUSH1 0x1E DUP8 PUSH1 0x20 DUP13 MLOAD SWAP6 PUSH3 0x461BCD PUSH1 0xE5 SHL DUP8 MSTORE DUP7 ADD MSTORE DUP5 ADD MSTORE DUP3 ADD MSTORE REVERT JUMPDEST PUSH32 0x43616E6E6F74206F66666572206F6E20796F7572206F776E2061737365740000 DUP7 SWAP2 PUSH1 0x1E DUP8 PUSH1 0x20 DUP13 MLOAD SWAP6 PUSH3 0x461BCD PUSH1 0xE5 SHL DUP8 MSTORE DUP7 ADD MSTORE DUP5 ADD MSTORE DUP3 ADD MSTORE REVERT JUMPDEST DUP7 MLOAD PUSH3 0x461BCD PUSH1 0xE5 SHL DUP2 MSTORE PUSH1 0x20 DUP2 DUP8 ADD MSTORE PUSH1 0x10 DUP2 DUP7 ADD MSTORE PUSH16 0x24B73B30B634B210323AB930BA34B7B7 PUSH1 0x81 SHL DUP2 DUP12 ADD MSTORE REVERT JUMPDEST POP PUSH3 0x278D00 DUP9 GT ISZERO PUSH2 0x11E4 JUMP JUMPDEST DUP7 MLOAD PUSH3 0x461BCD PUSH1 0xE5 SHL DUP2 MSTORE PUSH1 0x20 DUP2 DUP8 ADD MSTORE PUSH1 0x15 DUP2 DUP7 ADD MSTORE PUSH21 0x4F66666572206D75737420686176652076616C7565 PUSH1 0x58 SHL DUP2 DUP12 ADD MSTORE REVERT JUMPDEST DUP9 DUP1 REVERT JUMPDEST POP SWAP2 CALLVALUE PUSH2 0x242 JUMPI PUSH1 0x20 CALLDATASIZE PUSH1 0x3 NOT ADD SLT PUSH2 0x242 JUMPI DUP2 CALLDATALOAD PUSH1 0x1 PUSH1 0x1 PUSH1 0x40 SHL SUB DUP2 GT PUSH2 0x4B7 JUMPI PUSH2 0x1636 SWAP1 CALLDATASIZE SWAP1 DUP5 ADD PUSH2 0x2099 JUMP JUMPDEST SWAP2 DUP2 MLOAD PUSH1 0x20 DUP2 DUP6 MLOAD PUSH2 0x164B DUP2 DUP4 DUP6 DUP11 ADD PUSH2 0x2225 JUMP JUMPDEST DUP2 ADD DUP5 DUP2 MSTORE SUB ADD SWAP1 KECCAK256 SWAP1 PUSH1 0x5 DUP3 ADD SWAP3 DUP4 SLOAD SWAP3 PUSH2 0x1669 PUSH1 0xFF DUP6 AND PUSH2 0x2605 JUMP JUMPDEST PUSH1 0x1 ADD SLOAD PUSH1 0x1 PUSH1 0x1 PUSH1 0xA0 SHL SUB AND CALLER SUB PUSH2 0x16C7 JUMPI POP POP PUSH1 0xFF NOT AND SWAP1 SSTORE PUSH2 0x168D DUP2 PUSH2 0x2A1A JUMP JUMPDEST PUSH2 0x1696 DUP2 PUSH2 0x2B41 JUMP JUMPDEST PUSH2 0x16A0 CALLER SWAP2 PUSH2 0x25E5 JUMP JUMPDEST PUSH32 0xAD06290F905050C9DAC577E139B4B450621B456073E716DB7561A52F3FF8928 DUP4 DUP1 LOG3 DUP1 RETURN JUMPDEST SWAP1 PUSH1 0x20 PUSH1 0x64 SWAP3 MLOAD SWAP2 PUSH3 0x461BCD PUSH1 0xE5 SHL DUP4 MSTORE DUP3 ADD MSTORE PUSH1 0x16 PUSH1 0x24 DUP3 ADD MSTORE PUSH22 0x13DB9B1E481CD95B1B195C8818D85B8818D85B98D95B PUSH1 0x52 SHL PUSH1 0x44 DUP3 ADD MSTORE REVERT JUMPDEST POP SWAP2 CALLVALUE PUSH2 0x242 JUMPI PUSH2 0x1713 CALLDATASIZE PUSH2 0x2290 JUMP JUMPDEST SWAP3 DUP3 MLOAD PUSH1 0x20 DUP2 DUP5 MLOAD PUSH2 0x1728 DUP2 DUP4 DUP6 DUP10 ADD PUSH2 0x2225 JUMP JUMPDEST DUP2 ADD DUP5 DUP2 MSTORE SUB ADD SWAP1 KECCAK256 SWAP1 PUSH2 0x1742 PUSH1 0xFF PUSH1 0x5 DUP5 ADD SLOAD AND PUSH2 0x2605 JUMP JUMPDEST PUSH1 0x1 DUP3 ADD SLOAD PUSH1 0x1 PUSH1 0x1 PUSH1 0xA0 SHL SUB AND CALLER SUB PUSH2 0x17A6 JUMPI POP SWAP1 PUSH2 0x1797 PUSH1 0x2 PUSH32 0x702CF1FF9B007B1CE6285F06D88972428A71330A6F9BC7AC9B49803661DD7BDE SWAP5 SWAP4 PUSH2 0x178B DUP8 ISZERO ISZERO PUSH2 0x22ED JUMP JUMPDEST ADD SWAP2 DUP6 DUP4 SLOAD SWAP4 SSTORE PUSH2 0x25E5 JUMP JUMPDEST SWAP4 DUP3 MLOAD SWAP2 DUP3 MSTORE PUSH1 0x20 DUP3 ADD MSTORE LOG2 DUP1 RETURN JUMPDEST PUSH1 0x64 SWAP1 PUSH1 0x20 DUP6 MLOAD SWAP2 PUSH3 0x461BCD PUSH1 0xE5 SHL DUP4 MSTORE DUP3 ADD MSTORE PUSH1 0x16 PUSH1 0x24 DUP3 ADD MSTORE PUSH22 0x4F6E6C792073656C6C65722063616E20757064617465 PUSH1 0x50 SHL PUSH1 0x44 DUP3 ADD MSTORE REVERT JUMPDEST POP DUP3 CALLVALUE PUSH2 0x246 JUMPI DUP2 PUSH1 0x3 NOT CALLDATASIZE ADD SLT PUSH2 0x246 JUMPI SWAP1 SLOAD SWAP1 MLOAD PUSH1 0x1 PUSH1 0x1 PUSH1 0xA0 SHL SUB SWAP1 SWAP2 AND DUP2 MSTORE PUSH1 0x20 SWAP1 RETURN JUMPDEST POP SWAP2 SWAP1 CALLVALUE PUSH2 0x242 JUMPI PUSH1 0x20 CALLDATASIZE PUSH1 0x3 NOT ADD SLT PUSH2 0x242 JUMPI DUP2 PUSH2 0x187D SWAP4 DUP3 CALLDATALOAD DUP2 MSTORE PUSH1 0x5 PUSH1 0x20 MSTORE KECCAK256 SWAP2 PUSH2 0x1837 DUP4 PUSH2 0x217F JUMP JUMPDEST SWAP3 PUSH1 0x1 DUP1 PUSH1 0xA0 SHL SUB PUSH1 0x1 DUP3 ADD SLOAD AND SWAP3 PUSH2 0x1890 PUSH1 0x2 DUP4 ADD SLOAD SWAP2 PUSH1 0xFF PUSH1 0x3 DUP6 ADD SLOAD AND SWAP1 DUP5 ADD SLOAD SWAP3 PUSH1 0xFF PUSH1 0x6 PUSH1 0x5 DUP8 ADD SLOAD SWAP7 ADD SLOAD AND SWAP6 DUP1 MLOAD SWAP10 DUP11 SWAP10 PUSH1 0xE0 DUP12 MSTORE PUSH1 0xE0 DUP12 ADD SWAP1 PUSH2 0x2248 JUMP JUMPDEST SWAP8 PUSH1 0x20 DUP11 ADD MSTORE DUP9 ADD MSTORE PUSH1 0x60 DUP8 ADD SWAP1 PUSH2 0x226D JUMP JUMPDEST PUSH1 0x80 DUP6 ADD MSTORE PUSH1 0xA0 DUP5 ADD MSTORE ISZERO ISZERO PUSH1 0xC0 DUP4 ADD MSTORE SUB SWAP1 RETURN JUMPDEST POP DUP3 CALLVALUE PUSH2 0x246 JUMPI DUP2 PUSH1 0x3 NOT CALLDATASIZE ADD SLT PUSH2 0x246 JUMPI PUSH1 0x20 SWAP1 PUSH1 0x8 SLOAD SWAP1 MLOAD SWAP1 DUP2 MSTORE RETURN JUMPDEST POP SWAP2 SWAP1 CALLVALUE PUSH2 0x242 JUMPI PUSH1 0x20 CALLDATASIZE PUSH1 0x3 NOT ADD SLT PUSH2 0x242 JUMPI DUP1 CALLDATALOAD SWAP3 PUSH1 0x1 PUSH1 0x1 PUSH1 0x40 SHL SUB DUP5 GT PUSH2 0x24A JUMPI POP PUSH2 0x18FF PUSH1 0x20 PUSH2 0x1AA PUSH2 0x1950 SWAP6 CALLDATASIZE SWAP1 DUP6 ADD PUSH2 0x2099 JUMP JUMPDEST DUP2 ADD DUP5 DUP2 MSTORE SUB ADD SWAP1 KECCAK256 SWAP2 PUSH2 0x1912 DUP4 PUSH2 0x217F JUMP JUMPDEST SWAP3 PUSH2 0x1963 PUSH1 0x1 DUP1 PUSH1 0xA0 SHL SUB PUSH1 0x1 DUP4 ADD SLOAD AND SWAP4 PUSH1 0x2 DUP4 ADD SLOAD PUSH1 0xFF PUSH1 0x5 DUP2 PUSH1 0x3 DUP8 ADD SLOAD AND SWAP4 DUP7 ADD SLOAD SWAP6 ADD SLOAD AND SWAP5 DUP1 MLOAD SWAP9 DUP10 SWAP9 PUSH1 0xC0 DUP11 MSTORE PUSH1 0xC0 DUP11 ADD SWAP1 PUSH2 0x2248 JUMP JUMPDEST SWAP7 PUSH1 0x20 DUP10 ADD MSTORE DUP8 ADD MSTORE PUSH1 0x60 DUP7 ADD SWAP1 PUSH2 0x226D JUMP JUMPDEST PUSH1 0x80 DUP5 ADD MSTORE ISZERO ISZERO PUSH1 0xA0 DUP4 ADD MSTORE SUB SWAP1 RETURN JUMPDEST POP DUP3 SWAP1 CALLVALUE PUSH2 0x24A JUMPI PUSH1 0x20 CALLDATASIZE PUSH1 0x3 NOT ADD SLT PUSH2 0x24A JUMPI DUP3 CALLDATALOAD SWAP1 PUSH1 0x1 PUSH1 0x1 PUSH1 0x40 SHL SUB DUP3 GT PUSH2 0x24A JUMPI POP PUSH1 0x20 SWAP3 PUSH2 0x19A8 SWAP2 CALLDATASIZE SWAP2 ADD PUSH2 0x2099 JUMP JUMPDEST DUP3 PUSH2 0x19BB DUP4 MLOAD SWAP3 DUP4 DUP2 MLOAD SWAP4 DUP5 SWAP3 ADD PUSH2 0x2225 JUMP JUMPDEST PUSH1 0x9 SWAP1 DUP3 ADD SWAP1 DUP2 MSTORE DUP2 SWAP1 SUB DUP4 ADD SWAP1 KECCAK256 SLOAD SWAP1 MLOAD PUSH1 0x1 PUSH1 0x1 PUSH1 0xA0 SHL SUB SWAP1 SWAP2 AND DUP2 MSTORE RETURN JUMPDEST POP CALLVALUE PUSH2 0x24A JUMPI DUP1 PUSH1 0x3 NOT CALLDATASIZE ADD SLT PUSH2 0x24A JUMPI PUSH2 0x19F5 PUSH2 0x22C1 JUMP JUMPDEST DUP1 SLOAD PUSH1 0x1 PUSH1 0x1 PUSH1 0xA0 SHL SUB NOT DUP2 AND DUP3 SSTORE DUP2 SWAP1 PUSH1 0x1 PUSH1 0x1 PUSH1 0xA0 SHL SUB AND PUSH32 0x8BE0079C531659141344CD1FD0A4F28419497F9722A3DAAFE3B4186F6B6457E0 DUP3 DUP1 LOG3 DUP1 RETURN JUMPDEST POP DUP3 SWAP1 CALLVALUE PUSH2 0x24A JUMPI PUSH1 0x20 CALLDATASIZE PUSH1 0x3 NOT ADD SLT PUSH2 0x24A JUMPI DUP3 CALLDATALOAD PUSH1 0x8 SLOAD DUP2 LT ISZERO PUSH2 0x246 JUMPI PUSH2 0x1A5F SWAP1 PUSH2 0x20E0 JUMP JUMPDEST SWAP4 SWAP1 SWAP4 PUSH2 0x1A8A JUMPI PUSH2 0x1A86 DUP4 PUSH2 0x1A73 DUP7 PUSH2 0x217F JUMP JUMPDEST SWAP1 MLOAD SWAP2 DUP3 SWAP2 PUSH1 0x20 DUP4 MSTORE PUSH1 0x20 DUP4 ADD SWAP1 PUSH2 0x2248 JUMP JUMPDEST SUB SWAP1 RETURN JUMPDEST PUSH4 0x4E487B71 PUSH1 0xE0 SHL DUP3 MSTORE DUP2 SWAP1 MSTORE PUSH1 0x24 SWAP1 REVERT JUMPDEST POP DUP3 CALLVALUE PUSH2 0x246 JUMPI DUP2 PUSH1 0x3 NOT CALLDATASIZE ADD SLT PUSH2 0x246 JUMPI PUSH1 0x20 SWAP1 PUSH1 0x7 SLOAD SWAP1 MLOAD SWAP1 DUP2 MSTORE RETURN JUMPDEST POP DUP3 CALLVALUE PUSH2 0x246 JUMPI DUP2 PUSH1 0x3 NOT CALLDATASIZE ADD SLT PUSH2 0x246 JUMPI PUSH1 0x3 SLOAD SWAP1 MLOAD PUSH1 0x1 PUSH1 0x1 PUSH1 0xA0 SHL SUB SWAP1 SWAP2 AND DUP2 MSTORE PUSH1 0x20 SWAP1 RETURN JUMPDEST POP SWAP2 CALLVALUE PUSH2 0x242 JUMPI PUSH1 0x60 CALLDATASIZE PUSH1 0x3 NOT ADD SLT PUSH2 0x242 JUMPI PUSH1 0x1 PUSH1 0x1 PUSH1 0x40 SHL SUB SWAP1 DUP3 CALLDATALOAD DUP3 DUP2 GT PUSH2 0x2DC JUMPI PUSH2 0x1B16 SWAP1 CALLDATASIZE SWAP1 DUP6 ADD PUSH2 0x2099 JUMP JUMPDEST PUSH1 0x24 SWAP4 DUP5 CALLDATALOAD SWAP5 PUSH1 0x44 CALLDATALOAD SWAP5 PUSH1 0x2 DUP7 LT ISZERO PUSH2 0x1FEC JUMPI PUSH2 0x1B34 DUP8 ISZERO ISZERO PUSH2 0x22ED JUMP JUMPDEST DUP5 MLOAD SWAP6 DUP5 MLOAD SWAP1 PUSH1 0xFF PUSH1 0x5 PUSH1 0x20 SWAP10 DUP11 DUP2 DUP2 DUP12 ADD SWAP7 PUSH2 0x1B52 DUP2 DUP4 DUP11 PUSH2 0x2225 JUMP JUMPDEST DUP2 ADD DUP11 DUP2 MSTORE SUB ADD SWAP1 KECCAK256 ADD SLOAD AND PUSH2 0x1FB3 JUMPI DUP8 DUP11 DUP12 SWAP1 DUP13 DUP10 DUP2 DUP10 DUP14 PUSH1 0x1 DUP1 PUSH1 0xA0 SHL SUB SWAP8 DUP14 PUSH2 0x1B9A DUP11 PUSH1 0x2 SLOAD AND SWAP4 MLOAD SWAP7 DUP8 SWAP6 DUP7 SWAP5 DUP6 SWAP5 PUSH4 0xCD5286D PUSH1 0xE4 SHL DUP7 MSTORE DUP6 ADD MSTORE DUP4 ADD SWAP1 PUSH2 0x2248 JUMP JUMPDEST SUB SWAP2 GAS STATICCALL DUP3 SWAP2 DUP3 DUP3 PUSH2 0x1F7F JUMPI JUMPDEST POP POP PUSH2 0x1E28 JUMPI JUMPDEST POP POP DUP2 ISZERO PUSH2 0x1DAE JUMPI JUMPDEST DUP3 CALLER SWAP2 AND SUB PUSH2 0x1D6C JUMPI PUSH2 0x1BF0 SWAP1 DUP10 MLOAD DUP12 DUP2 DUP12 MLOAD PUSH2 0x1BD5 DUP2 DUP4 DUP12 PUSH2 0x2225 JUMP JUMPDEST DUP2 ADD PUSH1 0xA DUP2 MSTORE SUB ADD SWAP1 KECCAK256 SWAP1 PUSH1 0xFF DUP1 NOT DUP4 SLOAD AND SWAP2 ISZERO ISZERO AND OR SWAP1 SSTORE JUMP JUMPDEST DUP8 MLOAD SWAP4 PUSH1 0xC0 DUP6 ADD SWAP1 DUP2 GT DUP6 DUP3 LT OR PUSH2 0x1D5A JUMPI SWAP1 DUP9 SWAP4 SWAP3 SWAP2 DUP5 MSTORE DUP8 DUP6 MSTORE DUP10 DUP6 ADD CALLER DUP2 MSTORE DUP5 DUP7 ADD SWAP2 DUP13 DUP4 MSTORE PUSH2 0x1C27 PUSH1 0x60 DUP9 ADD SWAP5 DUP6 PUSH2 0x249E JUMP JUMPDEST PUSH2 0x1C60 PUSH2 0x1C4F DUP14 PUSH1 0x80 DUP11 ADD SWAP8 TIMESTAMP DUP10 MSTORE DUP14 PUSH1 0xA0 DUP13 ADD SWAP11 PUSH1 0x1 DUP13 MSTORE MLOAD SWAP4 DUP5 SWAP3 DUP4 SWAP3 MLOAD SWAP3 DUP4 SWAP2 PUSH2 0x2225 JUMP JUMPDEST DUP2 ADD DUP14 DUP2 MSTORE SUB ADD SWAP1 KECCAK256 SWAP8 MLOAD DUP9 PUSH2 0x2506 JUMP JUMPDEST PUSH1 0x1 DUP8 ADD SWAP2 MLOAD AND PUSH1 0x1 PUSH1 0x1 PUSH1 0x60 SHL SUB PUSH1 0xA0 SHL DUP3 SLOAD AND OR SWAP1 SSTORE MLOAD PUSH1 0x2 DUP6 ADD SSTORE MLOAD PUSH1 0x2 DUP2 LT ISZERO PUSH2 0x1D48 JUMPI SWAP2 PUSH1 0x5 SWAP2 PUSH2 0x1C9D DUP6 SWAP5 PUSH1 0x3 PUSH2 0x1CB8 SWAP8 ADD PUSH2 0x25CD JUMP JUMPDEST MLOAD DUP7 DUP5 ADD SSTORE MLOAD ISZERO ISZERO SWAP2 ADD SWAP1 PUSH1 0xFF DUP1 NOT DUP4 SLOAD AND SWAP2 ISZERO ISZERO AND OR SWAP1 SSTORE JUMP JUMPDEST PUSH1 0x8 SLOAD PUSH1 0x1 PUSH1 0x40 SHL DUP2 LT ISZERO PUSH2 0x1D36 JUMPI DUP1 PUSH1 0x1 PUSH2 0x1CD7 SWAP3 ADD PUSH1 0x8 SSTORE PUSH2 0x20E0 JUMP JUMPDEST SWAP3 SWAP1 SWAP3 PUSH2 0x1D26 JUMPI POP POP DUP2 PUSH2 0x1D10 PUSH32 0xF34A4C127FF02F03C1D1FB093BB2C95EC0CFD3C38220B818EF19234533C6B96C SWAP5 SWAP4 PUSH2 0x1D15 SWAP4 PUSH2 0x2506 JUMP JUMPDEST PUSH2 0x25E5 JUMP JUMPDEST SWAP3 DUP2 MLOAD SWAP5 DUP6 MSTORE TIMESTAMP SWAP1 DUP6 ADD MSTORE CALLER SWAP4 LOG3 DUP1 RETURN JUMPDEST PUSH4 0x4E487B71 PUSH1 0xE0 SHL DUP9 MSTORE DUP8 SWAP1 MSTORE DUP7 REVERT JUMPDEST POP PUSH4 0x4E487B71 PUSH1 0xE0 SHL DUP8 MSTORE PUSH1 0x41 DUP3 MSTORE DUP7 REVERT JUMPDEST PUSH4 0x4E487B71 PUSH1 0xE0 SHL DUP12 MSTORE PUSH1 0x21 DUP7 MSTORE DUP5 DUP12 REVERT JUMPDEST PUSH4 0x4E487B71 PUSH1 0xE0 SHL DUP13 MSTORE PUSH1 0x41 DUP8 MSTORE DUP6 DUP13 REVERT JUMPDEST DUP9 MLOAD PUSH3 0x461BCD PUSH1 0xE5 SHL DUP2 MSTORE DUP1 DUP9 ADD DUP12 SWAP1 MSTORE PUSH1 0x19 DUP2 DUP9 ADD MSTORE PUSH32 0x4F6E6C79206F776E65722063616E206C69737420617373657400000000000000 PUSH1 0x44 DUP3 ADD MSTORE PUSH1 0x64 SWAP1 REVERT JUMPDEST POP DUP2 DUP10 MLOAD DUP12 DUP2 DUP12 MLOAD PUSH2 0x1DC1 DUP2 DUP4 DUP12 PUSH2 0x2225 JUMP JUMPDEST DUP2 ADD PUSH1 0x9 DUP2 MSTORE SUB ADD SWAP1 KECCAK256 SLOAD AND ISZERO PUSH2 0x1DF6 JUMPI JUMPDEST DUP2 DUP10 MLOAD DUP12 DUP2 DUP12 MLOAD PUSH2 0x1DE5 DUP2 DUP4 DUP12 PUSH2 0x2225 JUMP JUMPDEST DUP2 ADD PUSH1 0x9 DUP2 MSTORE SUB ADD SWAP1 KECCAK256 SLOAD AND PUSH2 0x1BB7 JUMP JUMPDEST DUP9 MLOAD DUP11 DUP2 DUP11 MLOAD PUSH2 0x1E07 DUP2 DUP4 DUP11 PUSH2 0x2225 JUMP JUMPDEST DUP2 ADD PUSH1 0x9 DUP2 MSTORE SUB ADD SWAP1 KECCAK256 CALLER PUSH1 0x1 PUSH1 0x1 PUSH1 0x60 SHL SUB PUSH1 0xA0 SHL DUP3 SLOAD AND OR SWAP1 SSTORE PUSH2 0x1DD3 JUMP JUMPDEST PUSH2 0x1E33 JUMPI JUMPDEST DUP1 PUSH2 0x1BAE JUMP JUMPDEST SWAP2 POP POP PUSH1 0x1 SWAP1 DUP7 DUP14 DUP12 DUP14 DUP13 DUP13 DUP9 PUSH1 0x3 SLOAD AND SWAP4 DUP5 PUSH2 0x1E56 JUMPI JUMPDEST POP POP POP POP POP POP PUSH2 0x1E2D JUMP JUMPDEST DUP4 SWAP3 PUSH2 0x1E77 SWAP2 MLOAD SWAP8 DUP9 SWAP5 DUP6 SWAP5 PUSH4 0x1833B57B PUSH1 0xE1 SHL DUP7 MSTORE DUP6 ADD MSTORE DUP4 ADD SWAP1 PUSH2 0x2248 JUMP JUMPDEST SUB DUP2 DUP5 GAS STATICCALL SWAP3 DUP4 ISZERO PUSH2 0x1F75 JUMPI DUP11 DUP16 SWAP2 SWAP3 DUP16 DUP16 SWAP5 SWAP1 DUP16 SWAP2 DUP8 SWAP9 PUSH2 0x1F34 JUMPI JUMPDEST POP SWAP1 PUSH2 0x1EB8 DUP6 SWAP3 MLOAD SWAP7 DUP8 SWAP6 DUP7 SWAP5 DUP6 SWAP5 PUSH4 0x73A6FE89 PUSH1 0xE0 SHL DUP7 MSTORE DUP6 ADD MSTORE DUP4 ADD SWAP1 PUSH2 0x2248 JUMP JUMPDEST SUB SWAP2 GAS STATICCALL SWAP2 DUP3 ISZERO PUSH2 0x1F29 JUMPI SWAP2 PUSH2 0x1EF8 JUMPI JUMPDEST POP DUP6 PUSH2 0x1EE7 JUMPI POP PUSH2 0x1EDB SWAP1 DUP14 GT PUSH2 0x2441 JUMP JUMPDEST DUP7 DUP14 CODESIZE DUP14 DUP13 DUP13 DUP16 PUSH2 0x1E4B JUMP JUMPDEST PUSH2 0x1EF3 SWAP2 POP DUP14 GT PUSH2 0x2441 JUMP JUMPDEST PUSH2 0x1EDB JUMP JUMPDEST SWAP1 POP DUP13 DUP2 DUP2 RETURNDATASIZE DUP4 GT PUSH2 0x1F22 JUMPI JUMPDEST PUSH2 0x1F0F DUP2 DUP4 PUSH2 0x205D JUMP JUMPDEST DUP2 ADD SUB SLT PUSH2 0x1F1E JUMPI MLOAD CODESIZE PUSH2 0x1EC9 JUMP JUMPDEST DUP15 DUP1 REVERT JUMPDEST POP RETURNDATASIZE PUSH2 0x1F05 JUMP JUMPDEST DUP14 MLOAD SWAP1 RETURNDATASIZE SWAP1 DUP3 RETURNDATACOPY RETURNDATASIZE SWAP1 REVERT JUMPDEST SWAP6 POP POP POP SWAP5 POP POP DUP2 DUP2 RETURNDATASIZE DUP4 GT PUSH2 0x1F6E JUMPI JUMPDEST PUSH2 0x1F4F DUP2 DUP4 PUSH2 0x205D JUMP JUMPDEST DUP2 ADD SUB SLT PUSH2 0x246 JUMPI DUP14 DUP11 DUP15 SWAP5 DUP3 DUP16 SWAP5 DUP16 SWAP1 PUSH2 0x1EB8 SWAP1 MLOAD SWAP9 SWAP2 SWAP3 POP PUSH2 0x1E94 JUMP JUMPDEST POP RETURNDATASIZE PUSH2 0x1F45 JUMP JUMPDEST DUP14 MLOAD RETURNDATASIZE DUP5 DUP3 RETURNDATACOPY RETURNDATASIZE SWAP1 REVERT JUMPDEST SWAP1 SWAP2 SWAP4 POP PUSH2 0x1F9F SWAP3 POP RETURNDATASIZE DUP1 SWAP2 DUP4 RETURNDATACOPY PUSH2 0x1F97 DUP2 DUP4 PUSH2 0x205D JUMP JUMPDEST DUP2 ADD SWAP1 PUSH2 0x239F JUMP JUMPDEST POP SWAP9 SWAP8 POP POP POP SWAP4 POP POP POP POP SWAP2 SWAP1 DUP16 DUP1 PUSH2 0x1BA7 JUMP JUMPDEST DUP7 MLOAD PUSH3 0x461BCD PUSH1 0xE5 SHL DUP2 MSTORE DUP1 DUP7 ADD DUP10 SWAP1 MSTORE PUSH1 0x14 DUP2 DUP7 ADD MSTORE PUSH20 0x105CDCD95D08185B1C9958591E481B1A5CDD1959 PUSH1 0x62 SHL PUSH1 0x44 DUP3 ADD MSTORE PUSH1 0x64 SWAP1 REVERT JUMPDEST DUP8 DUP1 REVERT JUMPDEST POP DUP3 CALLVALUE PUSH2 0x246 JUMPI DUP2 PUSH1 0x3 NOT CALLDATASIZE ADD SLT PUSH2 0x246 JUMPI MLOAD PUSH32 0x0 PUSH1 0x1 PUSH1 0x1 PUSH1 0xA0 SHL SUB AND DUP2 MSTORE PUSH1 0x20 SWAP1 RETURN JUMPDEST PUSH1 0x1 PUSH1 0x1 PUSH1 0x40 SHL SUB DUP2 GT PUSH2 0x2047 JUMPI PUSH1 0x40 MSTORE JUMP JUMPDEST PUSH4 0x4E487B71 PUSH1 0xE0 SHL PUSH1 0x0 MSTORE PUSH1 0x41 PUSH1 0x4 MSTORE PUSH1 0x24 PUSH1 0x0 REVERT JUMPDEST SWAP1 PUSH1 0x1F DUP1 NOT SWAP2 ADD AND DUP2 ADD SWAP1 DUP2 LT PUSH1 0x1 PUSH1 0x1 PUSH1 0x40 SHL SUB DUP3 GT OR PUSH2 0x2047 JUMPI PUSH1 0x40 MSTORE JUMP JUMPDEST PUSH1 0x1 PUSH1 0x1 PUSH1 0x40 SHL SUB DUP2 GT PUSH2 0x2047 JUMPI PUSH1 0x1F ADD PUSH1 0x1F NOT AND PUSH1 0x20 ADD SWAP1 JUMP JUMPDEST DUP2 PUSH1 0x1F DUP3 ADD SLT ISZERO PUSH2 0x684 JUMPI DUP1 CALLDATALOAD SWAP1 PUSH2 0x20B0 DUP3 PUSH2 0x207E JUMP JUMPDEST SWAP3 PUSH2 0x20BE PUSH1 0x40 MLOAD SWAP5 DUP6 PUSH2 0x205D JUMP JUMPDEST DUP3 DUP5 MSTORE PUSH1 0x20 DUP4 DUP4 ADD ADD GT PUSH2 0x684 JUMPI DUP2 PUSH1 0x0 SWAP3 PUSH1 0x20 DUP1 SWAP4 ADD DUP4 DUP7 ADD CALLDATACOPY DUP4 ADD ADD MSTORE SWAP1 JUMP JUMPDEST PUSH1 0x8 SLOAD DUP2 LT ISZERO PUSH2 0x2117 JUMPI PUSH1 0x8 PUSH1 0x0 MSTORE PUSH32 0xF3F7A9FE364FAAB93B216DA50A3214154F22A0A2B415B23A84C8169E8B636EE3 ADD SWAP1 PUSH1 0x0 SWAP1 JUMP JUMPDEST PUSH4 0x4E487B71 PUSH1 0xE0 SHL PUSH1 0x0 MSTORE PUSH1 0x32 PUSH1 0x4 MSTORE PUSH1 0x24 PUSH1 0x0 REVERT JUMPDEST DUP1 SLOAD DUP3 LT ISZERO PUSH2 0x2117 JUMPI PUSH1 0x0 MSTORE PUSH1 0x20 PUSH1 0x0 KECCAK256 ADD SWAP1 PUSH1 0x0 SWAP1 JUMP JUMPDEST SWAP1 PUSH1 0x1 DUP3 DUP2 SHR SWAP3 AND DUP1 ISZERO PUSH2 0x2175 JUMPI JUMPDEST PUSH1 0x20 DUP4 LT EQ PUSH2 0x215F JUMPI JUMP JUMPDEST PUSH4 0x4E487B71 PUSH1 0xE0 SHL PUSH1 0x0 MSTORE PUSH1 0x22 PUSH1 0x4 MSTORE PUSH1 0x24 PUSH1 0x0 REVERT JUMPDEST SWAP2 PUSH1 0x7F AND SWAP2 PUSH2 0x2154 JUMP JUMPDEST SWAP1 PUSH1 0x40 MLOAD SWAP2 DUP3 PUSH1 0x0 DUP3 SLOAD SWAP3 PUSH2 0x2193 DUP5 PUSH2 0x2145 JUMP JUMPDEST SWAP1 DUP2 DUP5 MSTORE PUSH1 0x1 SWAP5 DUP6 DUP2 AND SWAP1 DUP2 PUSH1 0x0 EQ PUSH2 0x2202 JUMPI POP PUSH1 0x1 EQ PUSH2 0x21BF JUMPI JUMPDEST POP POP PUSH2 0x21BD SWAP3 POP SUB DUP4 PUSH2 0x205D JUMP JUMPDEST JUMP JUMPDEST SWAP1 SWAP4 SWAP2 POP PUSH1 0x0 MSTORE PUSH1 0x20 SWAP1 DUP2 PUSH1 0x0 KECCAK256 SWAP4 PUSH1 0x0 SWAP2 JUMPDEST DUP2 DUP4 LT PUSH2 0x21EA JUMPI POP POP PUSH2 0x21BD SWAP4 POP DUP3 ADD ADD CODESIZE DUP1 PUSH2 0x21AF JUMP JUMPDEST DUP6 SLOAD DUP9 DUP5 ADD DUP6 ADD MSTORE SWAP5 DUP6 ADD SWAP5 DUP8 SWAP5 POP SWAP2 DUP4 ADD SWAP2 PUSH2 0x21D2 JUMP JUMPDEST SWAP2 POP POP PUSH2 0x21BD SWAP5 POP PUSH1 0x20 SWAP3 POP PUSH1 0xFF NOT AND DUP3 DUP5 ADD MSTORE ISZERO ISZERO PUSH1 0x5 SHL DUP3 ADD ADD CODESIZE DUP1 PUSH2 0x21AF JUMP JUMPDEST PUSH1 0x0 JUMPDEST DUP4 DUP2 LT PUSH2 0x2238 JUMPI POP POP PUSH1 0x0 SWAP2 ADD MSTORE JUMP JUMPDEST DUP2 DUP2 ADD MLOAD DUP4 DUP3 ADD MSTORE PUSH1 0x20 ADD PUSH2 0x2228 JUMP JUMPDEST SWAP1 PUSH1 0x20 SWAP2 PUSH2 0x2261 DUP2 MLOAD DUP1 SWAP3 DUP2 DUP6 MSTORE DUP6 DUP1 DUP7 ADD SWAP2 ADD PUSH2 0x2225 JUMP JUMPDEST PUSH1 0x1F ADD PUSH1 0x1F NOT AND ADD ADD SWAP1 JUMP JUMPDEST SWAP1 PUSH1 0x2 DUP3 LT ISZERO PUSH2 0x227A JUMPI MSTORE JUMP JUMPDEST PUSH4 0x4E487B71 PUSH1 0xE0 SHL PUSH1 0x0 MSTORE PUSH1 0x21 PUSH1 0x4 MSTORE PUSH1 0x24 PUSH1 0x0 REVERT JUMPDEST PUSH1 0x40 PUSH1 0x3 NOT DUP3 ADD SLT PUSH2 0x684 JUMPI PUSH1 0x4 CALLDATALOAD SWAP1 PUSH1 0x1 PUSH1 0x1 PUSH1 0x40 SHL SUB DUP3 GT PUSH2 0x684 JUMPI PUSH2 0x22BA SWAP2 PUSH1 0x4 ADD PUSH2 0x2099 JUMP JUMPDEST SWAP1 PUSH1 0x24 CALLDATALOAD SWAP1 JUMP JUMPDEST PUSH1 0x0 SLOAD PUSH1 0x1 PUSH1 0x1 PUSH1 0xA0 SHL SUB AND CALLER SUB PUSH2 0x22D5 JUMPI JUMP JUMPDEST PUSH1 0x40 MLOAD PUSH4 0x118CDAA7 PUSH1 0xE0 SHL DUP2 MSTORE CALLER PUSH1 0x4 DUP3 ADD MSTORE PUSH1 0x24 SWAP1 REVERT JUMPDEST ISZERO PUSH2 0x22F4 JUMPI JUMP JUMPDEST PUSH1 0x40 MLOAD PUSH3 0x461BCD PUSH1 0xE5 SHL DUP2 MSTORE PUSH1 0x20 PUSH1 0x4 DUP3 ADD MSTORE PUSH1 0x1C PUSH1 0x24 DUP3 ADD MSTORE PUSH32 0x5072696365206D7573742062652067726561746572207468616E203000000000 PUSH1 0x44 DUP3 ADD MSTORE PUSH1 0x64 SWAP1 REVERT JUMPDEST DUP2 PUSH1 0x1F DUP3 ADD SLT ISZERO PUSH2 0x684 JUMPI DUP1 MLOAD PUSH2 0x234F DUP2 PUSH2 0x207E JUMP JUMPDEST SWAP3 PUSH2 0x235D PUSH1 0x40 MLOAD SWAP5 DUP6 PUSH2 0x205D JUMP JUMPDEST DUP2 DUP5 MSTORE PUSH1 0x20 DUP3 DUP5 ADD ADD GT PUSH2 0x684 JUMPI PUSH2 0x237B SWAP2 PUSH1 0x20 DUP1 DUP6 ADD SWAP2 ADD PUSH2 0x2225 JUMP JUMPDEST SWAP1 JUMP JUMPDEST MLOAD SWAP1 PUSH1 0x1 PUSH1 0x1 PUSH1 0xA0 SHL SUB DUP3 AND DUP3 SUB PUSH2 0x684 JUMPI JUMP JUMPDEST MLOAD SWAP1 DUP2 ISZERO ISZERO DUP3 SUB PUSH2 0x684 JUMPI JUMP JUMPDEST PUSH2 0x140 DUP2 DUP4 SUB SLT PUSH2 0x684 JUMPI DUP1 MLOAD SWAP3 PUSH1 0x1 PUSH1 0x1 PUSH1 0x40 SHL SUB SWAP4 DUP5 DUP2 GT PUSH2 0x684 JUMPI DUP4 PUSH2 0x23C9 SWAP2 DUP5 ADD PUSH2 0x2339 JUMP JUMPDEST SWAP4 PUSH1 0x20 DUP4 ADD MLOAD DUP2 DUP2 GT PUSH2 0x684 JUMPI DUP5 PUSH2 0x23E2 SWAP2 DUP6 ADD PUSH2 0x2339 JUMP JUMPDEST SWAP4 PUSH1 0x40 DUP5 ADD MLOAD SWAP2 DUP3 GT PUSH2 0x684 JUMPI PUSH2 0x23FA SWAP2 DUP5 ADD PUSH2 0x2339 JUMP JUMPDEST SWAP2 PUSH1 0x60 DUP2 ADD MLOAD SWAP2 PUSH1 0x80 DUP3 ADD MLOAD SWAP2 PUSH2 0x2413 PUSH1 0xA0 DUP3 ADD PUSH2 0x237E JUMP JUMPDEST SWAP2 PUSH2 0x2420 PUSH1 0xC0 DUP4 ADD PUSH2 0x237E JUMP JUMPDEST SWAP2 PUSH1 0xE0 DUP2 ADD MLOAD SWAP2 PUSH2 0x237B PUSH2 0x120 PUSH2 0x243A PUSH2 0x100 DUP6 ADD PUSH2 0x2392 JUMP JUMPDEST SWAP4 ADD PUSH2 0x2392 JUMP JUMPDEST ISZERO PUSH2 0x2448 JUMPI JUMP JUMPDEST PUSH1 0x40 MLOAD PUSH3 0x461BCD PUSH1 0xE5 SHL DUP2 MSTORE PUSH1 0x20 PUSH1 0x4 DUP3 ADD MSTORE PUSH1 0x28 PUSH1 0x24 DUP3 ADD MSTORE PUSH32 0x5072696365206D75737420626520686967686572207468616E20726F79616C74 PUSH1 0x44 DUP3 ADD MSTORE PUSH8 0x1A595CC81C185A59 PUSH1 0xC2 SHL PUSH1 0x64 DUP3 ADD MSTORE PUSH1 0x84 SWAP1 REVERT JUMPDEST PUSH1 0x2 DUP3 LT ISZERO PUSH2 0x227A JUMPI MSTORE JUMP JUMPDEST DUP2 DUP2 LT PUSH2 0x24B5 JUMPI POP POP JUMP JUMPDEST PUSH1 0x0 DUP2 SSTORE PUSH1 0x1 ADD PUSH2 0x24AA JUMP JUMPDEST SWAP2 SWAP1 PUSH1 0x1F DUP2 GT PUSH2 0x24D0 JUMPI POP POP POP JUMP JUMPDEST PUSH2 0x21BD SWAP3 PUSH1 0x0 MSTORE PUSH1 0x20 PUSH1 0x0 KECCAK256 SWAP1 PUSH1 0x20 PUSH1 0x1F DUP5 ADD PUSH1 0x5 SHR DUP4 ADD SWAP4 LT PUSH2 0x24FC JUMPI JUMPDEST PUSH1 0x1F ADD PUSH1 0x5 SHR ADD SWAP1 PUSH2 0x24AA JUMP JUMPDEST SWAP1 SWAP2 POP DUP2 SWAP1 PUSH2 0x24EF JUMP JUMPDEST SWAP2 SWAP1 SWAP2 DUP3 MLOAD PUSH1 0x1 PUSH1 0x1 PUSH1 0x40 SHL SUB DUP2 GT PUSH2 0x2047 JUMPI PUSH2 0x252D DUP2 PUSH2 0x2527 DUP5 SLOAD PUSH2 0x2145 JUMP JUMPDEST DUP5 PUSH2 0x24C1 JUMP JUMPDEST PUSH1 0x20 DUP1 PUSH1 0x1F DUP4 GT PUSH1 0x1 EQ PUSH2 0x2569 JUMPI POP DUP2 SWAP3 SWAP4 SWAP5 PUSH1 0x0 SWAP3 PUSH2 0x255E JUMPI JUMPDEST POP POP DUP2 PUSH1 0x1 SHL SWAP2 PUSH1 0x0 NOT SWAP1 PUSH1 0x3 SHL SHR NOT AND OR SWAP1 SSTORE JUMP JUMPDEST ADD MLOAD SWAP1 POP CODESIZE DUP1 PUSH2 0x2548 JUMP JUMPDEST SWAP1 PUSH1 0x1F NOT DUP4 AND SWAP6 DUP5 PUSH1 0x0 MSTORE DUP3 PUSH1 0x0 KECCAK256 SWAP3 PUSH1 0x0 SWAP1 JUMPDEST DUP9 DUP3 LT PUSH2 0x25B5 JUMPI POP POP DUP4 PUSH1 0x1 SWAP6 SWAP7 SWAP8 LT PUSH2 0x259C JUMPI JUMPDEST POP POP POP DUP2 SHL ADD SWAP1 SSTORE JUMP JUMPDEST ADD MLOAD PUSH1 0x0 NOT PUSH1 0xF8 DUP5 PUSH1 0x3 SHL AND SHR NOT AND SWAP1 SSTORE CODESIZE DUP1 DUP1 PUSH2 0x2592 JUMP JUMPDEST DUP1 PUSH1 0x1 DUP6 SWAP7 DUP3 SWAP5 SWAP7 DUP7 ADD MLOAD DUP2 SSTORE ADD SWAP6 ADD SWAP4 ADD SWAP1 PUSH2 0x257D JUMP JUMPDEST SWAP1 PUSH1 0x2 DUP2 LT ISZERO PUSH2 0x227A JUMPI PUSH1 0xFF DUP1 NOT DUP4 SLOAD AND SWAP2 AND OR SWAP1 SSTORE JUMP JUMPDEST PUSH2 0x25FD SWAP1 PUSH1 0x20 PUSH1 0x40 MLOAD SWAP3 DUP3 DUP5 DUP1 SWAP5 MLOAD SWAP4 DUP5 SWAP3 ADD PUSH2 0x2225 JUMP JUMPDEST DUP2 ADD SUB SWAP1 KECCAK256 SWAP1 JUMP JUMPDEST ISZERO PUSH2 0x260C JUMPI JUMP JUMPDEST PUSH1 0x40 MLOAD PUSH3 0x461BCD PUSH1 0xE5 SHL DUP2 MSTORE PUSH1 0x20 PUSH1 0x4 DUP3 ADD MSTORE PUSH1 0x12 PUSH1 0x24 DUP3 ADD MSTORE PUSH18 0x4C697374696E67206E6F7420616374697665 PUSH1 0x70 SHL PUSH1 0x44 DUP3 ADD MSTORE PUSH1 0x64 SWAP1 REVERT JUMPDEST DUP2 DUP2 MUL SWAP3 SWAP2 DUP2 ISZERO SWAP2 DUP5 DIV EQ OR ISZERO PUSH2 0x2659 JUMPI JUMP JUMPDEST PUSH4 0x4E487B71 PUSH1 0xE0 SHL PUSH1 0x0 MSTORE PUSH1 0x11 PUSH1 0x4 MSTORE PUSH1 0x24 PUSH1 0x0 REVERT JUMPDEST SWAP2 SWAP1 DUP3 SUB SWAP2 DUP3 GT PUSH2 0x2659 JUMPI JUMP JUMPDEST ISZERO PUSH2 0x2683 JUMPI JUMP JUMPDEST PUSH1 0x40 MLOAD PUSH3 0x461BCD PUSH1 0xE5 SHL DUP2 MSTORE PUSH1 0x20 PUSH1 0x4 DUP3 ADD MSTORE PUSH1 0x18 PUSH1 0x24 DUP3 ADD MSTORE PUSH32 0x5061796D656E7420746F2073656C6C6572206661696C65640000000000000000 PUSH1 0x44 DUP3 ADD MSTORE PUSH1 0x64 SWAP1 REVERT JUMPDEST RETURNDATASIZE ISZERO PUSH2 0x26F3 JUMPI RETURNDATASIZE SWAP1 PUSH2 0x26D9 DUP3 PUSH2 0x207E JUMP JUMPDEST SWAP2 PUSH2 0x26E7 PUSH1 0x40 MLOAD SWAP4 DUP5 PUSH2 0x205D JUMP JUMPDEST DUP3 MSTORE RETURNDATASIZE PUSH1 0x0 PUSH1 0x20 DUP5 ADD RETURNDATACOPY JUMP JUMPDEST PUSH1 0x60 SWAP1 JUMP JUMPDEST PUSH1 0x2 PUSH1 0x1 SLOAD EQ PUSH2 0x2709 JUMPI PUSH1 0x2 PUSH1 0x1 SSTORE JUMP JUMPDEST PUSH1 0x40 MLOAD PUSH4 0x3EE5AEB5 PUSH1 0xE0 SHL DUP2 MSTORE PUSH1 0x4 SWAP1 REVERT JUMPDEST ISZERO PUSH2 0x2722 JUMPI JUMP JUMPDEST PUSH1 0x40 MLOAD PUSH3 0x461BCD PUSH1 0xE5 SHL DUP2 MSTORE PUSH1 0x20 PUSH1 0x4 DUP3 ADD MSTORE PUSH1 0x12 PUSH1 0x24 DUP3 ADD MSTORE PUSH18 0x20B9B9B2BA103430B99037379037BBB732B9 PUSH1 0x71 SHL PUSH1 0x44 DUP3 ADD MSTORE PUSH1 0x64 SWAP1 REVERT JUMPDEST PUSH1 0x0 NOT DUP2 EQ PUSH2 0x2659 JUMPI PUSH1 0x1 ADD SWAP1 JUMP JUMPDEST ISZERO PUSH2 0x2772 JUMPI JUMP JUMPDEST PUSH1 0x40 MLOAD PUSH3 0x461BCD PUSH1 0xE5 SHL DUP2 MSTORE PUSH1 0x20 PUSH1 0x4 DUP3 ADD MSTORE PUSH1 0x10 PUSH1 0x24 DUP3 ADD MSTORE PUSH16 0x4F66666572206E6F7420616374697665 PUSH1 0x80 SHL PUSH1 0x44 DUP3 ADD MSTORE PUSH1 0x64 SWAP1 REVERT JUMPDEST PUSH1 0x0 SWAP3 SWAP2 DUP2 SLOAD PUSH2 0x27B9 DUP2 PUSH2 0x2145 JUMP JUMPDEST SWAP3 PUSH1 0x1 SWAP2 DUP1 DUP4 AND SWAP1 DUP2 ISZERO PUSH2 0x2812 JUMPI POP PUSH1 0x1 EQ PUSH2 0x27D6 JUMPI JUMPDEST POP POP POP POP JUMP JUMPDEST SWAP1 SWAP2 SWAP3 SWAP4 SWAP5 POP PUSH1 0x0 MSTORE PUSH1 0x20 SWAP1 DUP2 PUSH1 0x0 KECCAK256 SWAP1 PUSH1 0x0 SWAP2 JUMPDEST DUP6 DUP4 LT PUSH2 0x2801 JUMPI POP POP POP POP ADD SWAP1 CODESIZE DUP1 DUP1 DUP1 PUSH2 0x27D0 JUMP JUMPDEST DUP1 SLOAD DUP6 DUP5 ADD MSTORE SWAP2 DUP4 ADD SWAP2 DUP2 ADD PUSH2 0x27EB JUMP JUMPDEST PUSH1 0xFF NOT AND DUP5 MSTORE POP POP POP DUP2 ISZERO ISZERO SWAP1 SWAP2 MUL ADD SWAP2 POP CODESIZE DUP1 DUP1 DUP1 PUSH2 0x27D0 JUMP JUMPDEST SWAP1 PUSH1 0x0 SWAP3 SWAP2 DUP1 SLOAD SWAP2 PUSH2 0x283E DUP4 PUSH2 0x2145 JUMP JUMPDEST SWAP2 DUP3 DUP3 MSTORE PUSH1 0x1 SWAP4 DUP5 DUP2 AND SWAP1 DUP2 PUSH1 0x0 EQ PUSH2 0x289F JUMPI POP PUSH1 0x1 EQ PUSH2 0x285F JUMPI POP POP POP POP JUMP JUMPDEST SWAP1 SWAP2 SWAP4 SWAP5 POP PUSH1 0x0 MSTORE PUSH1 0x20 SWAP3 DUP4 PUSH1 0x0 KECCAK256 SWAP3 DUP5 PUSH1 0x0 SWAP5 JUMPDEST DUP4 DUP7 LT PUSH2 0x288B JUMPI POP POP POP POP ADD ADD SWAP1 CODESIZE DUP1 DUP1 DUP1 PUSH2 0x27D0 JUMP JUMPDEST DUP1 SLOAD DUP6 DUP8 ADD DUP4 ADD MSTORE SWAP5 ADD SWAP4 DUP6 SWAP1 DUP3 ADD PUSH2 0x2874 JUMP JUMPDEST SWAP3 SWAP5 POP POP POP PUSH1 0x20 SWAP4 SWAP5 POP PUSH1 0xFF NOT AND DUP4 DUP4 ADD MSTORE ISZERO ISZERO PUSH1 0x5 SHL ADD ADD SWAP1 CODESIZE DUP1 DUP1 DUP1 PUSH2 0x27D0 JUMP JUMPDEST ISZERO PUSH2 0x28C9 JUMPI JUMP JUMPDEST PUSH1 0x40 MLOAD PUSH3 0x461BCD PUSH1 0xE5 SHL DUP2 MSTORE PUSH1 0x20 PUSH1 0x4 DUP3 ADD MSTORE PUSH1 0xD PUSH1 0x24 DUP3 ADD MSTORE PUSH13 0x1499599D5B990819985A5B1959 PUSH1 0x9A SHL PUSH1 0x44 DUP3 ADD MSTORE PUSH1 0x64 SWAP1 REVERT JUMPDEST ISZERO PUSH2 0x2905 JUMPI JUMP JUMPDEST PUSH1 0x40 MLOAD PUSH3 0x461BCD PUSH1 0xE5 SHL DUP2 MSTORE PUSH1 0x20 PUSH1 0x4 DUP3 ADD MSTORE PUSH1 0x11 PUSH1 0x24 DUP3 ADD MSTORE PUSH17 0x15DA5D1A191C985DD85B0819985A5B1959 PUSH1 0x7A SHL PUSH1 0x44 DUP3 ADD MSTORE PUSH1 0x64 SWAP1 REVERT JUMPDEST SWAP1 DUP1 DUP3 EQ PUSH2 0x2A16 JUMPI PUSH2 0x2950 DUP2 SLOAD PUSH2 0x2145 JUMP JUMPDEST SWAP1 PUSH1 0x1 PUSH1 0x1 PUSH1 0x40 SHL SUB DUP3 GT PUSH2 0x2047 JUMPI DUP2 SWAP1 PUSH2 0x2975 DUP3 PUSH2 0x296F DUP7 SLOAD PUSH2 0x2145 JUMP JUMPDEST DUP7 PUSH2 0x24C1 JUMP JUMPDEST PUSH1 0x0 SWAP1 PUSH1 0x1F DUP4 GT PUSH1 0x1 EQ PUSH2 0x29AB JUMPI PUSH1 0x0 SWAP3 PUSH2 0x29A0 JUMPI POP POP DUP2 PUSH1 0x1 SHL SWAP2 PUSH1 0x0 NOT SWAP1 PUSH1 0x3 SHL SHR NOT AND OR SWAP1 SSTORE JUMP JUMPDEST ADD SLOAD SWAP1 POP CODESIZE DUP1 PUSH2 0x2548 JUMP JUMPDEST DUP2 MSTORE PUSH1 0x20 DUP1 DUP3 KECCAK256 DUP6 DUP4 MSTORE DUP2 DUP4 KECCAK256 SWAP4 POP SWAP1 PUSH1 0x1F NOT DUP6 AND SWAP1 DUP4 SWAP1 JUMPDEST DUP3 DUP3 LT PUSH2 0x29FD JUMPI POP POP SWAP1 DUP5 PUSH1 0x1 SWAP6 SWAP5 SWAP4 SWAP3 LT PUSH2 0x29E4 JUMPI POP POP POP DUP2 SHL ADD SWAP1 SSTORE JUMP JUMPDEST ADD SLOAD PUSH1 0x0 NOT PUSH1 0xF8 DUP5 PUSH1 0x3 SHL AND SHR NOT AND SWAP1 SSTORE CODESIZE DUP1 DUP1 PUSH2 0x2592 JUMP JUMPDEST DUP5 SWAP6 DUP2 SWAP3 SWAP6 DUP6 ADD SLOAD DUP2 SSTORE PUSH1 0x1 DUP1 SWAP2 ADD SWAP7 ADD SWAP5 ADD SWAP1 PUSH2 0x29C4 JUMP JUMPDEST POP POP JUMP JUMPDEST PUSH1 0x0 JUMPDEST PUSH1 0x8 DUP1 SLOAD SWAP1 DUP2 DUP4 LT ISZERO PUSH2 0x27D0 JUMPI PUSH2 0x2A47 SWAP2 PUSH2 0x2A4E PUSH2 0x2A3A DUP6 PUSH2 0x20E0 JUMP JUMPDEST POP PUSH1 0x40 MLOAD SWAP5 DUP6 DUP1 SWAP3 PUSH2 0x282D JUMP JUMPDEST SUB DUP5 PUSH2 0x205D JUMP JUMPDEST DUP3 MLOAD PUSH1 0x20 DUP1 SWAP5 ADD KECCAK256 DUP6 MLOAD DUP5 DUP8 ADD KECCAK256 EQ PUSH2 0x2A72 JUMPI POP POP POP PUSH2 0x2A6D SWAP1 PUSH2 0x275C JUMP JUMPDEST PUSH2 0x2A1D JUMP JUMPDEST SWAP2 SWAP4 POP SWAP2 PUSH1 0x0 NOT SWAP2 DUP3 DUP2 ADD SWAP1 DUP2 GT PUSH2 0x2659 JUMPI PUSH2 0x2A90 PUSH2 0x2A97 SWAP2 PUSH2 0x20E0 JUMP JUMPDEST POP SWAP2 PUSH2 0x20E0 JUMP JUMPDEST SWAP2 SWAP1 SWAP2 PUSH2 0x2B15 JUMPI PUSH2 0x2AA7 SWAP2 PUSH2 0x293E JUMP JUMPDEST DUP2 SLOAD DUP1 ISZERO PUSH2 0x2B2B JUMPI ADD SWAP2 PUSH2 0x2ABA DUP4 PUSH2 0x20E0 JUMP JUMPDEST PUSH2 0x2B15 JUMPI PUSH2 0x2AC8 DUP2 SLOAD PUSH2 0x2145 JUMP JUMPDEST DUP1 PUSH2 0x2AD4 JUMPI JUMPDEST POP POP POP SSTORE JUMP JUMPDEST PUSH1 0x0 SWAP3 PUSH1 0x1F SWAP1 DUP2 DUP4 GT PUSH1 0x1 EQ PUSH2 0x2AF1 JUMPI POP POP POP SSTORE JUMPDEST CODESIZE DUP1 DUP1 PUSH2 0x2ACE JUMP JUMPDEST DUP4 SWAP2 PUSH2 0x2B0E SWAP2 DUP7 SWAP5 SWAP6 DUP6 MSTORE DUP5 KECCAK256 SWAP5 ADD PUSH1 0x5 SHR DUP5 ADD PUSH1 0x1 DUP6 ADD PUSH2 0x24AA JUMP JUMPDEST SSTORE SSTORE PUSH2 0x2AE9 JUMP JUMPDEST PUSH4 0x4E487B71 PUSH1 0xE0 SHL PUSH1 0x0 MSTORE PUSH1 0x0 PUSH1 0x4 MSTORE PUSH1 0x24 PUSH1 0x0 REVERT JUMPDEST PUSH4 0x4E487B71 PUSH1 0xE0 SHL PUSH1 0x0 MSTORE PUSH1 0x31 PUSH1 0x4 MSTORE PUSH1 0x24 PUSH1 0x0 REVERT JUMPDEST SWAP1 PUSH1 0x40 SWAP2 DUP3 MLOAD DUP2 MLOAD PUSH1 0x20 SWAP1 PUSH2 0x2B59 DUP2 DUP5 DUP5 DUP8 ADD PUSH2 0x2225 JUMP JUMPDEST DUP3 ADD SWAP2 DUP2 DUP2 PUSH1 0x6 SWAP5 DUP6 DUP2 MSTORE SUB ADD SWAP1 KECCAK256 SWAP5 PUSH1 0x0 JUMPDEST DUP7 SLOAD DUP2 LT ISZERO PUSH2 0x2D93 JUMPI PUSH2 0x2B7F DUP2 DUP9 PUSH2 0x212D JUMP JUMPDEST SWAP1 SLOAD PUSH1 0x3 SWAP2 DUP3 SHL SHR PUSH1 0x0 MSTORE PUSH1 0x5 DUP5 MSTORE DUP3 PUSH1 0x0 KECCAK256 SWAP1 DUP6 DUP3 ADD DUP1 SLOAD SWAP1 PUSH1 0xFF SWAP2 DUP3 DUP2 AND PUSH2 0x2BB7 JUMPI JUMPDEST POP POP POP POP POP PUSH2 0x2BB2 SWAP1 PUSH2 0x275C JUMP JUMPDEST PUSH2 0x2B6C JUMP JUMPDEST PUSH1 0xFF NOT AND SWAP1 SSTORE DUP3 DUP3 ADD SLOAD PUSH1 0x2 SWAP2 PUSH1 0x0 SWAP2 AND DUP3 DUP2 LT ISZERO PUSH2 0x2D7F JUMPI PUSH2 0x2CB7 JUMPI POP SWAP1 PUSH2 0x2BB2 SWAP4 SWAP3 SWAP2 PUSH1 0x0 DUP1 DUP1 DUP1 PUSH1 0x1 DUP1 PUSH1 0xA0 SHL SUB PUSH1 0x1 DUP9 ADD SLOAD AND DUP6 DUP9 ADD SLOAD SWAP1 GAS CALL PUSH2 0x2BFD PUSH2 0x26C8 JUMP JUMPDEST POP JUMPDEST ISZERO PUSH2 0x2C5E JUMPI POP PUSH2 0x2C0F DUP4 DUP12 PUSH2 0x212D JUMP JUMPDEST SWAP1 SLOAD PUSH1 0x1 SWAP1 SWAP4 ADD SLOAD PUSH1 0x1 PUSH1 0x1 PUSH1 0xA0 SHL SUB AND SWAP3 SWAP2 SHL SHR PUSH2 0x2C2D DUP9 PUSH2 0x25E5 JUMP JUMPDEST SWAP1 PUSH32 0xA73002EB00B7F458173AEC22CF4445BBDB98267F801A7FE3D22DBA9382338CDB PUSH1 0x0 DUP1 LOG4 JUMPDEST SWAP1 CODESIZE DUP1 DUP1 DUP1 PUSH2 0x2BA4 JUMP JUMPDEST SWAP1 PUSH2 0x2C69 DUP5 DUP13 PUSH2 0x212D JUMP JUMPDEST SWAP1 SLOAD SWAP2 SHL SHR SWAP1 PUSH1 0x1 DUP1 PUSH1 0xA0 SHL SUB PUSH1 0x1 DUP5 ADD SLOAD AND SWAP3 ADD SLOAD SWAP1 PUSH32 0x9FDD6FDDB8DFEA391C0580CC31BC495423AE195AB3AE95994FF20A15AA3B2B4D DUP8 PUSH2 0x2CAB DUP12 PUSH2 0x25E5 JUMP JUMPDEST SWAP4 DUP9 MLOAD SWAP1 DUP2 MSTORE LOG4 PUSH2 0x2C54 JUMP JUMPDEST PUSH1 0x1 DUP5 ADD SLOAD DUP3 DUP6 ADD SLOAD DUP8 MLOAD PUSH4 0xA9059CBB PUSH1 0xE0 SHL DUP2 MSTORE PUSH1 0x1 PUSH1 0x1 PUSH1 0xA0 SHL SUB SWAP3 DUP4 AND PUSH1 0x4 DUP3 ADD MSTORE PUSH1 0x24 DUP2 ADD SWAP2 SWAP1 SWAP2 MSTORE SWAP1 DUP9 SWAP1 DUP3 SWAP1 PUSH1 0x44 SWAP1 DUP3 SWAP1 DUP7 SWAP1 PUSH32 0x0 AND GAS CALL SWAP2 DUP3 ISZERO PUSH2 0x2D74 JUMPI DUP1 SWAP3 PUSH2 0x2D31 JUMPI JUMPDEST POP POP SWAP1 PUSH2 0x2BB2 SWAP5 SWAP4 SWAP3 SWAP2 PUSH2 0x2BFF JUMP JUMPDEST SWAP1 SWAP2 POP DUP8 DUP3 DUP2 RETURNDATASIZE DUP4 GT PUSH2 0x2D6D JUMPI JUMPDEST PUSH2 0x2D49 DUP2 DUP4 PUSH2 0x205D JUMP JUMPDEST DUP2 ADD SUB SLT PUSH2 0x24A JUMPI POP SWAP1 PUSH2 0x2D62 PUSH2 0x2BB2 SWAP6 SWAP5 SWAP4 SWAP3 PUSH2 0x2392 JUMP JUMPDEST SWAP1 SWAP2 SWAP3 SWAP4 SWAP5 CODESIZE PUSH2 0x2D22 JUMP JUMPDEST POP RETURNDATASIZE PUSH2 0x2D3F JUMP JUMPDEST DUP8 MLOAD SWAP1 RETURNDATASIZE SWAP1 DUP3 RETURNDATACOPY RETURNDATASIZE SWAP1 REVERT JUMPDEST PUSH4 0x4E487B71 PUSH1 0xE0 SHL DUP3 MSTORE PUSH1 0x21 PUSH1 0x4 MSTORE PUSH1 0x24 DUP3 REVERT JUMPDEST POP POP POP POP POP SWAP1 POP JUMP JUMPDEST PUSH1 0x40 MLOAD SWAP1 DUP1 MLOAD SWAP2 PUSH1 0xFF PUSH1 0x20 SWAP2 DUP3 DUP2 DUP2 DUP7 ADD SWAP7 PUSH2 0x2DB9 DUP2 DUP4 DUP11 PUSH2 0x2225 JUMP JUMPDEST DUP2 ADD PUSH1 0xA DUP2 MSTORE SUB ADD SWAP1 KECCAK256 SLOAD AND PUSH2 0x2E99 JUMPI JUMPDEST PUSH1 0x40 MLOAD SWAP3 DUP3 MLOAD PUSH2 0x2DDB DUP2 DUP7 DUP5 PUSH2 0x2225 JUMP JUMPDEST DUP5 ADD PUSH1 0x9 DUP2 MSTORE DUP5 DUP4 PUSH1 0x1 DUP1 PUSH1 0xA0 SHL SUB SWAP7 DUP8 SWAP4 SUB ADD SWAP1 KECCAK256 SLOAD AND PUSH2 0x2E76 JUMPI POP SWAP1 PUSH1 0x0 SWAP2 PUSH2 0x2E27 SWAP4 PUSH1 0x2 SLOAD AND SWAP1 PUSH1 0x40 MLOAD DUP1 SWAP6 DUP2 SWAP5 DUP3 SWAP4 PUSH4 0xCD5286D PUSH1 0xE4 SHL DUP5 MSTORE PUSH1 0x4 DUP5 ADD MSTORE PUSH1 0x24 DUP4 ADD SWAP1 PUSH2 0x2248 JUMP JUMPDEST SUB SWAP2 GAS STATICCALL DUP1 PUSH1 0x0 SWAP3 DUP4 SWAP3 PUSH2 0x2E4D JUMPI JUMPDEST POP PUSH2 0x2E43 JUMPI JUMPDEST POP POP PUSH1 0x0 SWAP1 JUMP JUMPDEST PUSH2 0x237B JUMPI DUP1 PUSH2 0x2E3C JUMP JUMPDEST SWAP1 SWAP3 PUSH2 0x2E63 SWAP3 POP RETURNDATASIZE DUP1 SWAP2 DUP4 RETURNDATACOPY PUSH2 0x1F97 DUP2 DUP4 PUSH2 0x205D JUMP JUMPDEST POP SWAP9 SWAP8 POP POP POP SWAP4 POP POP POP POP SWAP2 SWAP1 CODESIZE PUSH2 0x2E36 JUMP JUMPDEST PUSH1 0x40 MLOAD SWAP3 MLOAD DUP4 SWAP2 PUSH2 0x2E8A SWAP1 DUP3 SWAP1 DUP5 SWAP1 PUSH2 0x2225 JUMP JUMPDEST DUP2 ADD PUSH1 0x9 DUP2 MSTORE SUB ADD SWAP1 KECCAK256 SLOAD AND SWAP1 JUMP JUMPDEST PUSH1 0x2 SLOAD PUSH1 0x40 MLOAD PUSH4 0xCD5286D PUSH1 0xE4 SHL DUP2 MSTORE PUSH1 0x4 DUP2 ADD DUP4 SWAP1 MSTORE SWAP1 PUSH1 0x0 SWAP1 DUP3 SWAP1 PUSH1 0x1 PUSH1 0x1 PUSH1 0xA0 SHL SUB AND DUP2 DUP1 PUSH2 0x2ECE PUSH1 0x24 DUP3 ADD DUP10 PUSH2 0x2248 JUMP JUMPDEST SUB SWAP2 GAS STATICCALL DUP1 PUSH1 0x0 SWAP3 DUP4 SWAP3 PUSH2 0x2EFB JUMPI JUMPDEST POP PUSH2 0x2EEA JUMPI JUMPDEST POP POP PUSH2 0x2DCA JUMP JUMPDEST PUSH2 0x2EF4 JUMPI DUP1 PUSH2 0x2EE3 JUMP JUMPDEST SWAP3 POP POP POP SWAP1 JUMP JUMPDEST SWAP1 SWAP3 PUSH2 0x2F11 SWAP3 POP RETURNDATASIZE DUP1 SWAP2 DUP4 RETURNDATACOPY PUSH2 0x1F97 DUP2 DUP4 PUSH2 0x205D JUMP JUMPDEST POP SWAP9 SWAP8 POP POP POP SWAP4 POP POP POP POP SWAP2 SWAP1 CODESIZE PUSH2 0x2EDD JUMP INVALID DUP13 PUSH9 0xD600771AD8AF3C86A9 0xF9 PUSH12 0xD5C471ECA94AEBD78EA27478 PUSH32 0x8E95E07AAA10A264697066735822122062BB16B84EB569A27A36D63F2D4D2E4A 0xC7 PUSH7 0xA4A765592B7BC0 SWAP2 0xBA POP PUSH5 0x5CC9F86473 PUSH16 0x6C634300081400330000000000000000 "},"methodIdentifiers":{"FEE_DENOMINATOR()":"d73792a9","USDC_ADDRESS()":"bb09d9b7","acceptOffer(uint256)":"c815729d","activeListings(uint256)":"61cf4863","buyAsset(string)":"c7ef9672","cancelListing(string)":"943f2261","cancelOffer(uint256)":"ef706adf","directOwners(string)":"742129e7","getActiveListingsCount()":"7b55927c","getAssetOwner(string)":"e44bce40","getProjectOffers(string)":"f941fb99","isAssetLibraryBased(string)":"1007a43d","isLibraryBased(string)":"c6f70e82","libraryContract()":"ce0769c5","listAsset(string,uint256,uint8)":"13b06915","listings(string)":"77dec6c3","makeOffer(string,uint256,uint8,uint256)":"a2235558","nextOfferId()":"5f5d0655","offers(uint256)":"8a72ea6a","owner()":"8da5cb5b","platformFeePercentage()":"cdd78cfc","projectOffers(string,uint256)":"a3a67058","renounceOwnership()":"715018a6","royaltyContract()":"1663ee03","setRoyaltyContract(address)":"d9aa187c","transferOwnership(address)":"f2fde38b","updateListingPrice(string,uint256)":"9122d553","updatePlatformFee(uint256)":"aa0b5988","usdcToken()":"11eac855","withdrawPlatformFees()":"d0b7830b","withdrawPlatformFeesUSDC()":"dceb7686"}}}}}