{
  "_format": "hh-sol-artifact-1",
  "contractName": "ClayLibrary",
  "sourceName": "ClayLibrary.sol",
  "abi": [
    {
      "inputs": [
        {
          "internalType": "address",
          "name": "_royaltyContract",
          "type": "address"
        }
      ],
      "stateMutability": "nonpayable",
      "type": "constructor"
    },
    {
      "inputs": [
        {
          "internalType": "address",
          "name": "owner",
          "type": "address"
        }
      ],
      "name": "OwnableInvalidOwner",
      "type": "error"
    },
    {
      "inputs": [
        {
          "internalType": "address",
          "name": "account",
          "type": "address"
        }
      ],
      "name": "OwnableUnauthorizedAccount",
      "type": "error"
    },
    {
      "inputs": [],
      "name": "ReentrancyGuardReentrantCall",
      "type": "error"
    },
    {
      "anonymous": false,
      "inputs": [
        {
          "indexed": true,
          "internalType": "string",
          "name": "projectId",
          "type": "string"
        },
        {
          "indexed": true,
          "internalType": "address",
          "name": "owner",
          "type": "address"
        }
      ],
      "name": "AssetDeactivated",
      "type": "event"
    },
    {
      "anonymous": false,
      "inputs": [
        {
          "indexed": true,
          "internalType": "string",
          "name": "projectId",
          "type": "string"
        },
        {
          "indexed": true,
          "internalType": "address",
          "name": "creator",
          "type": "address"
        },
        {
          "indexed": false,
          "internalType": "string",
          "name": "name",
          "type": "string"
        },
        {
          "indexed": false,
          "internalType": "uint256",
          "name": "price",
          "type": "uint256"
        }
      ],
      "name": "AssetRegistered",
      "type": "event"
    },
    {
      "anonymous": false,
      "inputs": [
        {
          "indexed": true,
          "internalType": "address",
          "name": "previousOwner",
          "type": "address"
        },
        {
          "indexed": true,
          "internalType": "address",
          "name": "newOwner",
          "type": "address"
        }
      ],
      "name": "OwnershipTransferStarted",
      "type": "event"
    },
    {
      "anonymous": false,
      "inputs": [
        {
          "indexed": true,
          "internalType": "address",
          "name": "previousOwner",
          "type": "address"
        },
        {
          "indexed": true,
          "internalType": "address",
          "name": "newOwner",
          "type": "address"
        }
      ],
      "name": "OwnershipTransferred",
      "type": "event"
    },
    {
      "anonymous": false,
      "inputs": [
        {
          "indexed": true,
          "internalType": "string",
          "name": "projectId",
          "type": "string"
        },
        {
          "indexed": true,
          "internalType": "address",
          "name": "previousOwner",
          "type": "address"
        },
        {
          "indexed": true,
          "internalType": "address",
          "name": "newOwner",
          "type": "address"
        }
      ],
      "name": "OwnershipTransferred",
      "type": "event"
    },
    {
      "anonymous": false,
      "inputs": [
        {
          "indexed": true,
          "internalType": "string",
          "name": "projectId",
          "type": "string"
        },
        {
          "indexed": false,
          "internalType": "uint256",
          "name": "newRoyaltyETH",
          "type": "uint256"
        },
        {
          "indexed": false,
          "internalType": "uint256",
          "name": "newRoyaltyUSDC",
          "type": "uint256"
        }
      ],
      "name": "RoyaltyFeeUpdated",
      "type": "event"
    },
    {
      "inputs": [],
      "name": "FEE_DENOMINATOR",
      "outputs": [
        {
          "internalType": "uint256",
          "name": "",
          "type": "uint256"
        }
      ],
      "stateMutability": "view",
      "type": "function"
    },
    {
      "inputs": [],
      "name": "USDC_ADDRESS",
      "outputs": [
        {
          "internalType": "address",
          "name": "",
          "type": "address"
        }
      ],
      "stateMutability": "view",
      "type": "function"
    },
    {
      "inputs": [],
      "name": "acceptOwnership",
      "outputs": [],
      "stateMutability": "nonpayable",
      "type": "function"
    },
    {
      "inputs": [
        {
          "internalType": "uint256",
          "name": "",
          "type": "uint256"
        }
      ],
      "name": "allAssetIds",
      "outputs": [
        {
          "internalType": "string",
          "name": "",
          "type": "string"
        }
      ],
      "stateMutability": "view",
      "type": "function"
    },
    {
      "inputs": [
        {
          "internalType": "address",
          "name": "",
          "type": "address"
        }
      ],
      "name": "approvedMarketplaces",
      "outputs": [
        {
          "internalType": "bool",
          "name": "",
          "type": "bool"
        }
      ],
      "stateMutability": "view",
      "type": "function"
    },
    {
      "inputs": [
        {
          "internalType": "string",
          "name": "projectId",
          "type": "string"
        }
      ],
      "name": "deactivateAsset",
      "outputs": [],
      "stateMutability": "nonpayable",
      "type": "function"
    },
    {
      "inputs": [
        {
          "internalType": "string",
          "name": "projectId",
          "type": "string"
        }
      ],
      "name": "getAsset",
      "outputs": [
        {
          "components": [
            {
              "internalType": "string",
              "name": "projectId",
              "type": "string"
            },
            {
              "internalType": "string",
              "name": "name",
              "type": "string"
            },
            {
              "internalType": "string",
              "name": "description",
              "type": "string"
            },
            {
              "internalType": "uint256",
              "name": "royaltyPerImportETH",
              "type": "uint256"
            },
            {
              "internalType": "uint256",
              "name": "royaltyPerImportUSDC",
              "type": "uint256"
            },
            {
              "internalType": "address",
              "name": "currentOwner",
              "type": "address"
            },
            {
              "internalType": "address",
              "name": "originalCreator",
              "type": "address"
            },
            {
              "internalType": "uint256",
              "name": "listedAt",
              "type": "uint256"
            },
            {
              "internalType": "bool",
              "name": "isActive",
              "type": "bool"
            }
          ],
          "internalType": "struct ClayLibrary.LibraryAsset",
          "name": "",
          "type": "tuple"
        }
      ],
      "stateMutability": "view",
      "type": "function"
    },
    {
      "inputs": [
        {
          "internalType": "uint256",
          "name": "index",
          "type": "uint256"
        }
      ],
      "name": "getAssetIdByIndex",
      "outputs": [
        {
          "internalType": "string",
          "name": "",
          "type": "string"
        }
      ],
      "stateMutability": "view",
      "type": "function"
    },
    {
      "inputs": [
        {
          "internalType": "string",
          "name": "projectId",
          "type": "string"
        }
      ],
      "name": "getCurrentOwner",
      "outputs": [
        {
          "internalType": "address",
          "name": "",
          "type": "address"
        }
      ],
      "stateMutability": "view",
      "type": "function"
    },
    {
      "inputs": [
        {
          "internalType": "string",
          "name": "projectId",
          "type": "string"
        }
      ],
      "name": "getRoyaltyFee",
      "outputs": [
        {
          "internalType": "uint256",
          "name": "royaltyETH",
          "type": "uint256"
        },
        {
          "internalType": "uint256",
          "name": "royaltyUSDC",
          "type": "uint256"
        }
      ],
      "stateMutability": "view",
      "type": "function"
    },
    {
      "inputs": [],
      "name": "getTotalAssets",
      "outputs": [
        {
          "internalType": "uint256",
          "name": "",
          "type": "uint256"
        }
      ],
      "stateMutability": "view",
      "type": "function"
    },
    {
      "inputs": [
        {
          "internalType": "address",
          "name": "user",
          "type": "address"
        }
      ],
      "name": "getUserAssets",
      "outputs": [
        {
          "internalType": "string[]",
          "name": "",
          "type": "string[]"
        }
      ],
      "stateMutability": "view",
      "type": "function"
    },
    {
      "inputs": [
        {
          "internalType": "string",
          "name": "",
          "type": "string"
        }
      ],
      "name": "libraryAssets",
      "outputs": [
        {
          "internalType": "string",
          "name": "projectId",
          "type": "string"
        },
        {
          "internalType": "string",
          "name": "name",
          "type": "string"
        },
        {
          "internalType": "string",
          "name": "description",
          "type": "string"
        },
        {
          "internalType": "uint256",
          "name": "royaltyPerImportETH",
          "type": "uint256"
        },
        {
          "internalType": "uint256",
          "name": "royaltyPerImportUSDC",
          "type": "uint256"
        },
        {
          "internalType": "address",
          "name": "currentOwner",
          "type": "address"
        },
        {
          "internalType": "address",
          "name": "originalCreator",
          "type": "address"
        },
        {
          "internalType": "uint256",
          "name": "listedAt",
          "type": "uint256"
        },
        {
          "internalType": "bool",
          "name": "isActive",
          "type": "bool"
        }
      ],
      "stateMutability": "view",
      "type": "function"
    },
    {
      "inputs": [],
      "name": "owner",
      "outputs": [
        {
          "internalType": "address",
          "name": "",
          "type": "address"
        }
      ],
      "stateMutability": "view",
      "type": "function"
    },
    {
      "inputs": [],
      "name": "pendingOwner",
      "outputs": [
        {
          "internalType": "address",
          "name": "",
          "type": "address"
        }
      ],
      "stateMutability": "view",
      "type": "function"
    },
    {
      "inputs": [],
      "name": "platformFeePercentage",
      "outputs": [
        {
          "internalType": "uint256",
          "name": "",
          "type": "uint256"
        }
      ],
      "stateMutability": "view",
      "type": "function"
    },
    {
      "inputs": [
        {
          "internalType": "string",
          "name": "projectId",
          "type": "string"
        },
        {
          "internalType": "string",
          "name": "name",
          "type": "string"
        },
        {
          "internalType": "string",
          "name": "description",
          "type": "string"
        },
        {
          "internalType": "uint256",
          "name": "royaltyPerImportETH",
          "type": "uint256"
        },
        {
          "internalType": "uint256",
          "name": "royaltyPerImportUSDC",
          "type": "uint256"
        }
      ],
      "name": "registerAsset",
      "outputs": [],
      "stateMutability": "nonpayable",
      "type": "function"
    },
    {
      "inputs": [],
      "name": "renounceOwnership",
      "outputs": [],
      "stateMutability": "nonpayable",
      "type": "function"
    },
    {
      "inputs": [],
      "name": "royaltyContract",
      "outputs": [
        {
          "internalType": "contract IClayRoyalty",
          "name": "",
          "type": "address"
        }
      ],
      "stateMutability": "view",
      "type": "function"
    },
    {
      "inputs": [
        {
          "internalType": "address",
          "name": "marketplace",
          "type": "address"
        },
        {
          "internalType": "bool",
          "name": "approved",
          "type": "bool"
        }
      ],
      "name": "setApprovedMarketplace",
      "outputs": [],
      "stateMutability": "nonpayable",
      "type": "function"
    },
    {
      "inputs": [
        {
          "internalType": "address",
          "name": "_royaltyContract",
          "type": "address"
        }
      ],
      "name": "setRoyaltyContract",
      "outputs": [],
      "stateMutability": "nonpayable",
      "type": "function"
    },
    {
      "inputs": [
        {
          "internalType": "string",
          "name": "projectId",
          "type": "string"
        },
        {
          "internalType": "address",
          "name": "newOwner",
          "type": "address"
        }
      ],
      "name": "transferAssetOwnership",
      "outputs": [],
      "stateMutability": "nonpayable",
      "type": "function"
    },
    {
      "inputs": [
        {
          "internalType": "address",
          "name": "newOwner",
          "type": "address"
        }
      ],
      "name": "transferOwnership",
      "outputs": [],
      "stateMutability": "nonpayable",
      "type": "function"
    },
    {
      "inputs": [
        {
          "internalType": "string",
          "name": "projectId",
          "type": "string"
        },
        {
          "internalType": "uint256",
          "name": "newRoyaltyETH",
          "type": "uint256"
        },
        {
          "internalType": "uint256",
          "name": "newRoyaltyUSDC",
          "type": "uint256"
        }
      ],
      "name": "updateRoyaltyFee",
      "outputs": [],
      "stateMutability": "nonpayable",
      "type": "function"
    },
    {
      "inputs": [],
      "name": "usdcToken",
      "outputs": [
        {
          "internalType": "contract IERC20",
          "name": "",
          "type": "address"
        }
      ],
      "stateMutability": "view",
      "type": "function"
    },
    {
      "inputs": [
        {
          "internalType": "address",
          "name": "",
          "type": "address"
        },
        {
          "internalType": "uint256",
          "name": "",
          "type": "uint256"
        }
      ],
      "name": "userOwnedAssets",
      "outputs": [
        {
          "internalType": "string",
          "name": "",
          "type": "string"
        }
      ],
      "stateMutability": "view",
      "type": "function"
    }
  ],
  "bytecode": "0x60a0346100f857601f6119d838819003918201601f19168301916001600160401b038311848410176100fd578084926020946040528339810103126100f857516001600160a01b0390818116908190036100f85733156100df5760018060a01b031980600154166001556000543382821617600055604051933391167f8be0079c531659141344cd1fd0a4f28419497f9722a3daafe3b4186f6b6457e0600080a3600160025560fa60085573833589fcd6edb6e08f4c7c32d4f71b54bda0291360805260035416176003556118c490816101148239608051816112e50152f35b604051631e4fbdf760e01b815260006004820152602490fd5b600080fd5b634e487b7160e01b600052604160045260246000fdfe608080604052600436101561001357600080fd5b60003560e01c90816311eac855146112d2575080631663ee03146112a95780632203f8f114610f0e57806351618eff14610de1578063543a9eb914610da25780635d483ab914610d55578063675bfec114610c335780636cb3db2514610b2e5780636e07302b14610b10578063715018a614610aab578063765ff061146109ba57806379ba5097146109365780638c5deff8146108c85780638da5cb5b1461089f578063bb09d9b714610870578063bbf46b8414610817578063cd5286d014610650578063cdd78cfc14610632578063d55a772d146105e6578063d73792a9146105c9578063d9aa187c14610586578063e30c39781461055d578063e814d66b14610512578063edd91367146104a9578063f2fde38b1461043e5763ff6c0dde1461013d57600080fd5b346104395760a0366003190112610439576001600160401b036004358181116104395761016e903690600401611351565b9060243581811161043957610187903690600401611351565b90604435908111610439576101a0903690600401611351565b9160643591608435938251156103f45783158015906103eb575b6101c39061156f565b6040519483519060ff60086020988981818a01966101e281838a611513565b810160058152030190200154166103a6576040519261020084611314565b858452878401918583526040850191825260608501908882526080860190815260a086019133835260c087019333855260e0880195428752610100890197600189528d8c6040518093819251809261025792611513565b81016005815203019020985161026d908a611616565b5161027b9060018a01611616565b516102899060028901611616565b516003870155516004860155516005850180546001600160a01b039283166001600160a01b0319918216179091559151600686018054919092169216919091179055516007830155516008909101805460ff191691151560ff16919091179055336000526006845281604060002090610301916116dd565b600754600160401b8110156103905780600161032092016007556113bd565b61037a57826103537f585d38ebcb0fe93ced4d64fbb112388b85b7726e7d87c5142521434d4f1223849461035893611616565b61170a565b9261036e60405192604084526040840190611536565b948201528033940390a3005b634e487b7160e01b600052600060045260246000fd5b634e487b7160e01b600052604160045260246000fd5b60405162461bcd60e51b815260048101889052601860248201527f417373657420616c7265616479207265676973746572656400000000000000006044820152606490fd5b508415156101ba565b60405162461bcd60e51b815260206004820152601a60248201527f50726f6a6563742049442063616e6e6f7420626520656d7074790000000000006044820152606490fd5b600080fd5b34610439576020366003190112610439576104576113a7565b61045f61155b565b60018060a01b0380911690816001600160601b0360a01b6001541617600155600054167f38d16b8cac22d99fc7c124b9cd0de2d3fa1faef420bfe791d8c362d765e22700600080a3005b34610439576020366003190112610439576004356001600160401b038111610439576104f260206104e06040933690600401611351565b81845193828580945193849201611513565b810160058152030190206004600382015491015482519182526020820152f35b34610439576020366003190112610439576004356007548110156104395761054561053f610559926113bd565b90611502565b604051918291602083526020830190611536565b0390f35b34610439576000366003190112610439576001546040516001600160a01b039091168152602090f35b346104395760203660031901126104395761059f6113a7565b6105a761155b565b600380546001600160a01b0319166001600160a01b0392909216919091179055005b346104395760003660031901126104395760206040516127108152f35b34610439576020366003190112610439576004356001600160401b0381116104395761062061061b6020923690600401611351565b61176c565b6040516001600160a01b039091168152f35b34610439576000366003190112610439576020600854604051908152f35b34610439576020366003190112610439576004356001600160401b0381116104395760206106856106da923690600401611351565b600061010060405161069681611314565b60608152606085820152606060408201528260608201528260808201528260a08201528260c08201528260e082015201528160405193828580945193849201611513565b8101600581520301902060ff6008604051926106f584611314565b6106fe8161145c565b845261070c6001820161145c565b602085015261071d6002820161145c565b6040850152600381015460608501526004810154608085015260018060a01b0360058201541660a085015260018060a01b0360068201541660c0850152600781015460e085015201541615156101008201526040518091602082526101006107c761079683516101206020870152610140860190611536565b6107b2602085015191601f199283888303016040890152611536565b90604085015190868303016060870152611536565b9160608101516080850152608081015160a085015260018060a01b0360a08201511660c085015260018060a01b0360c08201511660e085015260e081015182850152015115156101208301520390f35b34610439576040366003190112610439576108306113a7565b60243580151581036104395761086e9161084861155b565b60018060a01b0316600052600460205260406000209060ff801983541691151516179055565b005b3461043957600036600319011261043957602060405173833589fcd6edb6e08f4c7c32d4f71b54bda029138152f35b34610439576000366003190112610439576000546040516001600160a01b039091168152602090f35b34610439576020366003190112610439576004356007548110156108fb576105456108f5610559926113bd565b5061145c565b60405162461bcd60e51b8152602060048201526013602482015272496e646578206f7574206f6620626f756e647360681b6044820152606490fd5b34610439576000366003190112610439576001546001600160a01b0333818316036109a2576001600160601b0360a01b8092166001556000549133908316176000553391167f8be0079c531659141344cd1fd0a4f28419497f9722a3daafe3b4186f6b6457e0600080a3005b60405163118cdaa760e01b8152336004820152602490fd5b3461043957602080600319360112610439576001600160a01b036109dc6113a7565b166000526006815260406000208054906001600160401b03821161039057829060405192610a0f838260051b0185611330565b8084528284018092600052836000206000915b838310610a895750505050604051918083019381845251809452604083019360408160051b85010192916000955b828710610a5d5785850386f35b909192938280610a79600193603f198a82030186528851611536565b9601920196019592919092610a50565b6001868192610a9a859a999a61145c565b815201920192019190959495610a22565b3461043957600036600319011261043957610ac461155b565b600180546001600160a01b0319908116909155600080549182168155906001600160a01b03167f8be0079c531659141344cd1fd0a4f28419497f9722a3daafe3b4186f6b6457e08280a3005b34610439576000366003190112610439576020600754604051908152f35b34610439576020366003190112610439576004356001600160401b03811161043957610b796020610b66610bf1933690600401611351565b8160405193828580945193849201611513565b81016005815203019020610b8c8161145c565b90610b996001820161145c565b610ba56002830161145c565b91600381015492600482015460018060a01b0390610c0d826005860154169260068601541693610bff60ff6008600789015498015416976040519b8c9b8c6101208091528d0190611536565b908b820360208d0152611536565b9089820360408b0152611536565b956060880152608087015260a086015260c085015260e084015215156101008301520390f35b34610439576060366003190112610439576004356001600160401b03811161043957610c63903690600401611351565b602435604435916040516020818351610c7f8183858801611513565b8101600581520301902091610c9a60ff60088501541661172a565b60058301546001600160a01b03163303610d1057610cf96040928560047f59e8620b0742a7acf1fa2c6236758d97e05221785068ee1ef79e8dde26cb755f968515801590610d07575b610cec9061156f565b856003820155015561170a565b9382519182526020820152a2005b50821515610ce3565b60405162461bcd60e51b815260206004820152601d60248201527f4f6e6c79206f776e65722063616e2075706461746520726f79616c74790000006044820152606490fd5b3461043957604036600319011261043957610d6e6113a7565b6001600160a01b031660009081526006602052604090208054602435908110156104395761053f610545916105599361140a565b34610439576020366003190112610439576001600160a01b03610dc36113a7565b166000526004602052602060ff604060002054166040519015158152f35b34610439576020366003190112610439576004356001600160401b03811161043957610e11903690600401611351565b6040516020818351610e268183858801611513565b81016005815203019020600881019081549060ff821615610ed057600501546001600160a01b03163303610e8b5760ff19169055610e64339161170a565b7fbf7659f4659900a03fed4ad2fc77c3602180b8afcf682077f6e38e88d0cf58f4600080a3005b60405162461bcd60e51b815260206004820152601960248201527f4f6e6c79206f776e65722063616e2064656163746976617465000000000000006044820152606490fd5b60405162461bcd60e51b8152602060048201526016602482015275417373657420616c726561647920696e61637469766560501b6044820152606490fd5b34610439576040366003190112610439576004356001600160401b03811161043957610f3e903690600401611351565b6024906001600160a01b039082358281168103610439576040516020818451610f6a8183858901611513565b8101600581520301902092610f8560ff60088601541661172a565b80600585015416918233148015611291575b1561124d57818116156112155782600052600660205260406000209460005b86548082101561120357610fca828961140a565b5060405190816000825492610fde84611422565b80845293600181169081156111e1575060011461119f575b5061100392500382611330565b60208151910120875160208901201461103d5750600019811461102857600101610fb6565b87634e487b7160e01b60005260116004526000fd5b90600097929394959697199182810190811161118a57611060611068918561140a565b50918461140a565b91909161117557611078916117b2565b8154801561116057019061108c828261140a565b61114b576110e5969798506110a18154611422565b908161110c575b5050555b60058383166001600160601b0360a01b82840154161791015581811660005260066020526110de8560406000206116dd565b169261170a565b7f6840904f5b31827f74e1497360da245f56e530c8c3de3163a2d31f11493273c6600080a4005b600091601f808211600114611126575050555b88806110a8565b9161114484929382845260208420940160051c8401600185016115ba565b555561111f565b88634e487b7160e01b60005260006004526000fd5b88634e487b7160e01b60005260316004526000fd5b89634e487b7160e01b60005260006004526000fd5b89634e487b7160e01b60005260116004526000fd5b9150506000526020600020906000915b8183106111c8575050816020611003928201018d610ff6565b80546020848601810191909152909201916001016111af565b90506020925061100394915060ff191682840152151560051b8201018d610ff6565b505090919294506110e59395506110ac565b60405162461bcd60e51b8152602060048201526011818801527024b73b30b634b2103732bb9037bbb732b960791b6044820152606490fd5b60405162461bcd60e51b815260206004820152601a818801527f4e6f7420617574686f72697a656420746f207472616e736665720000000000006044820152606490fd5b5033600052600460205260ff60406000205416610f97565b34610439576000366003190112610439576003546040516001600160a01b039091168152602090f35b34610439576000366003190112610439577f00000000000000000000000000000000000000000000000000000000000000006001600160a01b03168152602090f35b61012081019081106001600160401b0382111761039057604052565b90601f801991011681019081106001600160401b0382111761039057604052565b81601f82011215610439578035906001600160401b0382116103905760405192611385601f8401601f191660200185611330565b8284526020838301011161043957816000926020809301838601378301015290565b600435906001600160a01b038216820361043957565b6007548110156113f45760076000527fa66cc928b5edb82af9bd49922954155ab7b0942694bea4ce44661d9a8736c6880190600090565b634e487b7160e01b600052603260045260246000fd5b80548210156113f45760005260206000200190600090565b90600182811c92168015611452575b602083101461143c57565b634e487b7160e01b600052602260045260246000fd5b91607f1691611431565b906040519182600082549261147084611422565b9081845260019485811690816000146114df575060011461149c575b505061149a92500383611330565b565b9093915060005260209081600020936000915b8183106114c757505061149a9350820101388061148c565b855488840185015294850194879450918301916114af565b91505061149a94506020925060ff191682840152151560051b820101388061148c565b9061037a576115109061145c565b90565b60005b8381106115265750506000910152565b8181015183820152602001611516565b9060209161154f81518092818552858086019101611513565b601f01601f1916010190565b6000546001600160a01b031633036109a257565b1561157657565b606460405162461bcd60e51b815260206004820152602060248201527f4174206c65617374206f6e6520726f79616c7479206d757374206265207365746044820152fd5b8181106115c5575050565b600081556001016115ba565b9190601f81116115e057505050565b61149a926000526020600020906020601f840160051c8301931061160c575b601f0160051c01906115ba565b90915081906115ff565b91909182516001600160401b0381116103905761163d816116378454611422565b846115d1565b602080601f831160011461167957508192939460009261166e575b50508160011b916000199060031b1c1916179055565b015190503880611658565b90601f198316958460005282600020926000905b8882106116c5575050836001959697106116ac575b505050811b019055565b015160001960f88460031b161c191690553880806116a2565b8060018596829496860151815501950193019061168d565b8054600160401b811015610390576116fa9160018201815561140a565b91909161037a5761149a91611616565b61172290602060405192828480945193849201611513565b810103902090565b1561173157565b60405162461bcd60e51b81526020600482015260136024820152724173736574206e6f7420617661696c61626c6560681b6044820152606490fd5b6020611785918160405193828580945193849201611513565b8101600581520301902060ff600882015416156117ac57600501546001600160a01b031690565b50600090565b9080821461188a576117c48154611422565b906001600160401b0382116103905781906117e9826117e38654611422565b866115d1565b600090601f831160011461181f576000926118145750508160011b916000199060031b1c1916179055565b015490503880611658565b81526020808220858352818320935090601f1985169083905b82821061187157505090846001959493921061185857505050811b019055565b015460001960f88460031b161c191690553880806116a2565b8495819295850154815560018091019601940190611838565b505056fea2646970667358221220a08925ba249a51c0a8007b04f06118a117c914a71776d9b5c4e1719f9e3a3d0164736f6c63430008140033",
  "linkReferences": {},
  "deployedLinkReferences": {}
}