{
  "_format": "hh-sol-artifact-1",
  "contractName": "ClayLibrary",
  "sourceName": "ClayLibrary.sol",
  "abi": [
    {
      "inputs": [
        {
          "internalType": "address",
          "name": "_royaltyContract",
          "type": "address"
        }
      ],
      "stateMutability": "nonpayable",
      "type": "constructor"
    },
    {
      "inputs": [
        {
          "internalType": "address",
          "name": "owner",
          "type": "address"
        }
      ],
      "name": "OwnableInvalidOwner",
      "type": "error"
    },
    {
      "inputs": [
        {
          "internalType": "address",
          "name": "account",
          "type": "address"
        }
      ],
      "name": "OwnableUnauthorizedAccount",
      "type": "error"
    },
    {
      "inputs": [],
      "name": "ReentrancyGuardReentrantCall",
      "type": "error"
    },
    {
      "anonymous": false,
      "inputs": [
        {
          "indexed": true,
          "internalType": "string",
          "name": "projectId",
          "type": "string"
        },
        {
          "indexed": true,
          "internalType": "address",
          "name": "owner",
          "type": "address"
        }
      ],
      "name": "AssetDeleted",
      "type": "event"
    },
    {
      "anonymous": false,
      "inputs": [
        {
          "indexed": true,
          "internalType": "string",
          "name": "projectId",
          "type": "string"
        },
        {
          "indexed": true,
          "internalType": "address",
          "name": "creator",
          "type": "address"
        },
        {
          "indexed": false,
          "internalType": "string",
          "name": "name",
          "type": "string"
        },
        {
          "indexed": false,
          "internalType": "uint256",
          "name": "price",
          "type": "uint256"
        }
      ],
      "name": "AssetRegistered",
      "type": "event"
    },
    {
      "anonymous": false,
      "inputs": [
        {
          "indexed": true,
          "internalType": "address",
          "name": "previousOwner",
          "type": "address"
        },
        {
          "indexed": true,
          "internalType": "address",
          "name": "newOwner",
          "type": "address"
        }
      ],
      "name": "OwnershipTransferStarted",
      "type": "event"
    },
    {
      "anonymous": false,
      "inputs": [
        {
          "indexed": true,
          "internalType": "address",
          "name": "previousOwner",
          "type": "address"
        },
        {
          "indexed": true,
          "internalType": "address",
          "name": "newOwner",
          "type": "address"
        }
      ],
      "name": "OwnershipTransferred",
      "type": "event"
    },
    {
      "anonymous": false,
      "inputs": [
        {
          "indexed": true,
          "internalType": "string",
          "name": "projectId",
          "type": "string"
        },
        {
          "indexed": true,
          "internalType": "address",
          "name": "previousOwner",
          "type": "address"
        },
        {
          "indexed": true,
          "internalType": "address",
          "name": "newOwner",
          "type": "address"
        }
      ],
      "name": "OwnershipTransferred",
      "type": "event"
    },
    {
      "anonymous": false,
      "inputs": [
        {
          "indexed": true,
          "internalType": "string",
          "name": "projectId",
          "type": "string"
        },
        {
          "indexed": true,
          "internalType": "address",
          "name": "owner",
          "type": "address"
        }
      ],
      "name": "RoyaltyDisabled",
      "type": "event"
    },
    {
      "anonymous": false,
      "inputs": [
        {
          "indexed": true,
          "internalType": "string",
          "name": "projectId",
          "type": "string"
        },
        {
          "indexed": false,
          "internalType": "uint256",
          "name": "newRoyaltyETH",
          "type": "uint256"
        },
        {
          "indexed": false,
          "internalType": "uint256",
          "name": "newRoyaltyUSDC",
          "type": "uint256"
        }
      ],
      "name": "RoyaltyFeeUpdated",
      "type": "event"
    },
    {
      "inputs": [],
      "name": "FEE_DENOMINATOR",
      "outputs": [
        {
          "internalType": "uint256",
          "name": "",
          "type": "uint256"
        }
      ],
      "stateMutability": "view",
      "type": "function"
    },
    {
      "inputs": [],
      "name": "USDC_ADDRESS",
      "outputs": [
        {
          "internalType": "address",
          "name": "",
          "type": "address"
        }
      ],
      "stateMutability": "view",
      "type": "function"
    },
    {
      "inputs": [],
      "name": "acceptOwnership",
      "outputs": [],
      "stateMutability": "nonpayable",
      "type": "function"
    },
    {
      "inputs": [
        {
          "internalType": "uint256",
          "name": "",
          "type": "uint256"
        }
      ],
      "name": "allAssetIds",
      "outputs": [
        {
          "internalType": "string",
          "name": "",
          "type": "string"
        }
      ],
      "stateMutability": "view",
      "type": "function"
    },
    {
      "inputs": [
        {
          "internalType": "address",
          "name": "",
          "type": "address"
        }
      ],
      "name": "approvedMarketplaces",
      "outputs": [
        {
          "internalType": "bool",
          "name": "",
          "type": "bool"
        }
      ],
      "stateMutability": "view",
      "type": "function"
    },
    {
      "inputs": [
        {
          "internalType": "string",
          "name": "projectId",
          "type": "string"
        }
      ],
      "name": "deleteAsset",
      "outputs": [],
      "stateMutability": "nonpayable",
      "type": "function"
    },
    {
      "inputs": [
        {
          "internalType": "string",
          "name": "projectId",
          "type": "string"
        }
      ],
      "name": "disableRoyalty",
      "outputs": [],
      "stateMutability": "nonpayable",
      "type": "function"
    },
    {
      "inputs": [
        {
          "internalType": "string",
          "name": "projectId",
          "type": "string"
        }
      ],
      "name": "enableRoyalty",
      "outputs": [],
      "stateMutability": "nonpayable",
      "type": "function"
    },
    {
      "inputs": [
        {
          "internalType": "string",
          "name": "projectId",
          "type": "string"
        }
      ],
      "name": "getAsset",
      "outputs": [
        {
          "components": [
            {
              "internalType": "string",
              "name": "projectId",
              "type": "string"
            },
            {
              "internalType": "string",
              "name": "name",
              "type": "string"
            },
            {
              "internalType": "string",
              "name": "description",
              "type": "string"
            },
            {
              "internalType": "uint256",
              "name": "royaltyPerImportETH",
              "type": "uint256"
            },
            {
              "internalType": "uint256",
              "name": "royaltyPerImportUSDC",
              "type": "uint256"
            },
            {
              "internalType": "address",
              "name": "currentOwner",
              "type": "address"
            },
            {
              "internalType": "address",
              "name": "originalCreator",
              "type": "address"
            },
            {
              "internalType": "uint256",
              "name": "listedAt",
              "type": "uint256"
            },
            {
              "internalType": "bool",
              "name": "exists",
              "type": "bool"
            },
            {
              "internalType": "bool",
              "name": "royaltyEnabled",
              "type": "bool"
            }
          ],
          "internalType": "struct ClayLibrary.LibraryAsset",
          "name": "",
          "type": "tuple"
        }
      ],
      "stateMutability": "view",
      "type": "function"
    },
    {
      "inputs": [
        {
          "internalType": "uint256",
          "name": "index",
          "type": "uint256"
        }
      ],
      "name": "getAssetIdByIndex",
      "outputs": [
        {
          "internalType": "string",
          "name": "",
          "type": "string"
        }
      ],
      "stateMutability": "view",
      "type": "function"
    },
    {
      "inputs": [
        {
          "internalType": "string",
          "name": "projectId",
          "type": "string"
        }
      ],
      "name": "getCurrentOwner",
      "outputs": [
        {
          "internalType": "address",
          "name": "",
          "type": "address"
        }
      ],
      "stateMutability": "view",
      "type": "function"
    },
    {
      "inputs": [
        {
          "internalType": "string",
          "name": "projectId",
          "type": "string"
        }
      ],
      "name": "getRoyaltyFee",
      "outputs": [
        {
          "internalType": "uint256",
          "name": "royaltyETH",
          "type": "uint256"
        },
        {
          "internalType": "uint256",
          "name": "royaltyUSDC",
          "type": "uint256"
        }
      ],
      "stateMutability": "view",
      "type": "function"
    },
    {
      "inputs": [],
      "name": "getTotalAssets",
      "outputs": [
        {
          "internalType": "uint256",
          "name": "",
          "type": "uint256"
        }
      ],
      "stateMutability": "view",
      "type": "function"
    },
    {
      "inputs": [
        {
          "internalType": "address",
          "name": "user",
          "type": "address"
        }
      ],
      "name": "getUserAssets",
      "outputs": [
        {
          "internalType": "string[]",
          "name": "",
          "type": "string[]"
        }
      ],
      "stateMutability": "view",
      "type": "function"
    },
    {
      "inputs": [
        {
          "internalType": "string",
          "name": "",
          "type": "string"
        }
      ],
      "name": "libraryAssets",
      "outputs": [
        {
          "internalType": "string",
          "name": "projectId",
          "type": "string"
        },
        {
          "internalType": "string",
          "name": "name",
          "type": "string"
        },
        {
          "internalType": "string",
          "name": "description",
          "type": "string"
        },
        {
          "internalType": "uint256",
          "name": "royaltyPerImportETH",
          "type": "uint256"
        },
        {
          "internalType": "uint256",
          "name": "royaltyPerImportUSDC",
          "type": "uint256"
        },
        {
          "internalType": "address",
          "name": "currentOwner",
          "type": "address"
        },
        {
          "internalType": "address",
          "name": "originalCreator",
          "type": "address"
        },
        {
          "internalType": "uint256",
          "name": "listedAt",
          "type": "uint256"
        },
        {
          "internalType": "bool",
          "name": "exists",
          "type": "bool"
        },
        {
          "internalType": "bool",
          "name": "royaltyEnabled",
          "type": "bool"
        }
      ],
      "stateMutability": "view",
      "type": "function"
    },
    {
      "inputs": [],
      "name": "owner",
      "outputs": [
        {
          "internalType": "address",
          "name": "",
          "type": "address"
        }
      ],
      "stateMutability": "view",
      "type": "function"
    },
    {
      "inputs": [],
      "name": "pendingOwner",
      "outputs": [
        {
          "internalType": "address",
          "name": "",
          "type": "address"
        }
      ],
      "stateMutability": "view",
      "type": "function"
    },
    {
      "inputs": [],
      "name": "platformFeePercentage",
      "outputs": [
        {
          "internalType": "uint256",
          "name": "",
          "type": "uint256"
        }
      ],
      "stateMutability": "view",
      "type": "function"
    },
    {
      "inputs": [
        {
          "internalType": "string",
          "name": "projectId",
          "type": "string"
        },
        {
          "internalType": "string",
          "name": "name",
          "type": "string"
        },
        {
          "internalType": "string",
          "name": "description",
          "type": "string"
        },
        {
          "internalType": "uint256",
          "name": "royaltyPerImportETH",
          "type": "uint256"
        },
        {
          "internalType": "uint256",
          "name": "royaltyPerImportUSDC",
          "type": "uint256"
        }
      ],
      "name": "registerAsset",
      "outputs": [],
      "stateMutability": "nonpayable",
      "type": "function"
    },
    {
      "inputs": [],
      "name": "renounceOwnership",
      "outputs": [],
      "stateMutability": "nonpayable",
      "type": "function"
    },
    {
      "inputs": [],
      "name": "royaltyContract",
      "outputs": [
        {
          "internalType": "contract IClayRoyalty",
          "name": "",
          "type": "address"
        }
      ],
      "stateMutability": "view",
      "type": "function"
    },
    {
      "inputs": [
        {
          "internalType": "address",
          "name": "marketplace",
          "type": "address"
        },
        {
          "internalType": "bool",
          "name": "approved",
          "type": "bool"
        }
      ],
      "name": "setApprovedMarketplace",
      "outputs": [],
      "stateMutability": "nonpayable",
      "type": "function"
    },
    {
      "inputs": [
        {
          "internalType": "address",
          "name": "_royaltyContract",
          "type": "address"
        }
      ],
      "name": "setRoyaltyContract",
      "outputs": [],
      "stateMutability": "nonpayable",
      "type": "function"
    },
    {
      "inputs": [
        {
          "internalType": "string",
          "name": "projectId",
          "type": "string"
        },
        {
          "internalType": "address",
          "name": "newOwner",
          "type": "address"
        }
      ],
      "name": "transferAssetOwnership",
      "outputs": [],
      "stateMutability": "nonpayable",
      "type": "function"
    },
    {
      "inputs": [
        {
          "internalType": "address",
          "name": "newOwner",
          "type": "address"
        }
      ],
      "name": "transferOwnership",
      "outputs": [],
      "stateMutability": "nonpayable",
      "type": "function"
    },
    {
      "inputs": [
        {
          "internalType": "string",
          "name": "projectId",
          "type": "string"
        },
        {
          "internalType": "uint256",
          "name": "newRoyaltyETH",
          "type": "uint256"
        },
        {
          "internalType": "uint256",
          "name": "newRoyaltyUSDC",
          "type": "uint256"
        }
      ],
      "name": "updateRoyaltyFee",
      "outputs": [],
      "stateMutability": "nonpayable",
      "type": "function"
    },
    {
      "inputs": [],
      "name": "usdcToken",
      "outputs": [
        {
          "internalType": "contract IERC20",
          "name": "",
          "type": "address"
        }
      ],
      "stateMutability": "view",
      "type": "function"
    },
    {
      "inputs": [
        {
          "internalType": "address",
          "name": "",
          "type": "address"
        },
        {
          "internalType": "uint256",
          "name": "",
          "type": "uint256"
        }
      ],
      "name": "userOwnedAssets",
      "outputs": [
        {
          "internalType": "string",
          "name": "",
          "type": "string"
        }
      ],
      "stateMutability": "view",
      "type": "function"
    }
  ],
  "bytecode": "0x60a0346100f857601f611cc138819003918201601f19168301916001600160401b038311848410176100fd578084926020946040528339810103126100f857516001600160a01b0390818116908190036100f85733156100df5760018060a01b031980600154166001556000543382821617600055604051933391167f8be0079c531659141344cd1fd0a4f28419497f9722a3daafe3b4186f6b6457e0600080a3600160025560fa60085573833589fcd6edb6e08f4c7c32d4f71b54bda029136080526003541617600355611bad90816101148239608051816115890152f35b604051631e4fbdf760e01b815260006004820152602490fd5b600080fd5b634e487b7160e01b600052604160045260246000fdfe608080604052600436101561001357600080fd5b60003560e01c90816311eac85514611576575080631663ee031461154d5780631741cfc0146114095780632203f8f11461106e578063543a9eb91461102f5780635d483ab914610fe2578063675bfec114610ec05780636cb3db2514610dad5780636e07302b14610d8f578063715018a614610d2a578063765ff06114610c3957806379ba509714610bb55780638c5deff814610b475780638da5cb5b14610b1e578063bb09d9b714610aef578063bbf46b8414610a96578063cd5286d0146108ac578063cdd78cfc1461088e578063d55a772d14610842578063d73792a914610825578063d9aa187c146107e2578063e24aa37c146106f7578063e30c3978146106ce578063e814d66b14610683578063ea608c9c14610527578063edd91367146104e1578063f2fde38b146104765763ff6c0dde1461015357600080fd5b346104715760a0366003190112610471576001600160401b03600435818111610471576101849036906004016115f5565b906024358181116104715761019d9036906004016115f5565b90604435908111610471576101b69036906004016115f5565b916064359160843582511561042c578315801590610423575b6101d890611813565b6040519483519160ff60086020988981818a01976101f781838b6117b7565b810160058152030190200154166103de5790869160405191610218836115b8565b868352838301918683526040840191825260608401908982526080850190815260a085019133835260c086019333855260e087019542875261010088019960018b5261012089019960018b528d60405180938192518092610278926117b7565b81016005815203019020975161028e90896118ba565b5161029c90600189016118ba565b516102aa90600288016118ba565b516003860155516004850155516005840180546001600160a01b039283166001600160a01b031991821617909155915160068501805491909216921691909117905551600782015591516008909201805460ff191692151560ff1692909217825551151581549060081b61ff00169061ff00191617905533600052600684528160406000209061033991611981565b600754600160401b8110156103c8578060016103589201600755611661565b6103b2578261038b7f585d38ebcb0fe93ced4d64fbb112388b85b7726e7d87c5142521434d4f12238494610390936118ba565b6119ae565b926103a6604051926040845260408401906117da565b948201528033940390a3005b634e487b7160e01b600052600060045260246000fd5b634e487b7160e01b600052604160045260246000fd5b60405162461bcd60e51b815260048101889052601860248201527f417373657420616c7265616479207265676973746572656400000000000000006044820152606490fd5b508015156101cf565b60405162461bcd60e51b815260206004820152601a60248201527f50726f6a6563742049442063616e6e6f7420626520656d7074790000000000006044820152606490fd5b600080fd5b346104715760203660031901126104715761048f61164b565b6104976117ff565b60018060a01b0380911690816001600160601b0360a01b6001541617600155600054167f38d16b8cac22d99fc7c124b9cd0de2d3fa1faef420bfe791d8c362d765e22700600080a3005b34610471576020366003190112610471576004356001600160401b0381116104715761051b61051660409236906004016115f5565b611a0c565b82519182526020820152f35b3461047157602080600319360112610471576004356001600160401b038111610471576105589036906004016115f5565b6040518281835161056c81838588016117b7565b810160058152030190209060088201805461058960ff82166119ce565b60ff8160081c1661063e5760058401546001600160a01b031633036105f957917f59e8620b0742a7acf1fa2c6236758d97e05221785068ee1ef79e8dde26cb755f939161010060409461ff0019161790556105ed60046003840154930154916119ae565b948351928352820152a2005b60405162461bcd60e51b815260048101869052601d60248201527f4f6e6c79206f776e65722063616e20656e61626c6520726f79616c74790000006044820152606490fd5b60405162461bcd60e51b815260048101869052601760248201527f526f79616c747920616c726561647920656e61626c65640000000000000000006044820152606490fd5b3461047157602036600319011261047157600435600754811015610471576106b66106b06106ca92611661565b906117a6565b6040519182916020835260208301906117da565b0390f35b34610471576000366003190112610471576001546040516001600160a01b039091168152602090f35b34610471576020366003190112610471576004356001600160401b038111610471576107279036906004016115f5565b604051602081835161073c81838588016117b7565b81016005815203019020600881019081549061075a60ff83166119ce565b600501546001600160a01b031633036107a55761ffff1916905561077e33916119ae565b7fb50a82962555cb439c53739ec19c159c2039e25705651a754caa0857168116e5600080a3005b60405162461bcd60e51b81526020600482015260156024820152744f6e6c79206f776e65722063616e2064656c65746560581b6044820152606490fd5b34610471576020366003190112610471576107fb61164b565b6108036117ff565b600380546001600160a01b0319166001600160a01b0392909216919091179055005b346104715760003660031901126104715760206040516127108152f35b34610471576020366003190112610471576004356001600160401b0381116104715761087c61087760209236906004016115f5565b611a55565b6040516001600160a01b039091168152f35b34610471576000366003190112610471576020600854604051908152f35b34610471576020366003190112610471576004356001600160401b0381116104715760206108e161093d9236906004016115f5565b60006101206040516108f2816115b8565b60608152606085820152606060408201528260608201528260808201528260a08201528260c08201528260e082015282610100820152015281604051938285809451938492016117b7565b8101600581520301902060ff600860405192610958846115b8565b61096181611700565b845261096f60018201611700565b602085015261098060028201611700565b6040850152600381015460608501526004810154608085015260018060a01b0360058201541660a085015260018060a01b0360068201541660c0850152600781015460e08501520154818116151561010084015260081c161515610120820152604051809160208252610120610a38610a07835161014060208701526101608601906117da565b610a23602085015191601f1992838883030160408901526117da565b906040850151908683030160608701526117da565b9160608101516080850152608081015160a085015260018060a01b0360a08201511660c085015260018060a01b0360c08201511660e085015260e0810151610100850152610100810151151582850152015115156101408301520390f35b3461047157604036600319011261047157610aaf61164b565b602435801515810361047157610aed91610ac76117ff565b60018060a01b0316600052600460205260406000209060ff801983541691151516179055565b005b3461047157600036600319011261047157602060405173833589fcd6edb6e08f4c7c32d4f71b54bda029138152f35b34610471576000366003190112610471576000546040516001600160a01b039091168152602090f35b3461047157602036600319011261047157600435600754811015610b7a576106b6610b746106ca92611661565b50611700565b60405162461bcd60e51b8152602060048201526013602482015272496e646578206f7574206f6620626f756e647360681b6044820152606490fd5b34610471576000366003190112610471576001546001600160a01b033381831603610c21576001600160601b0360a01b8092166001556000549133908316176000553391167f8be0079c531659141344cd1fd0a4f28419497f9722a3daafe3b4186f6b6457e0600080a3005b60405163118cdaa760e01b8152336004820152602490fd5b3461047157602080600319360112610471576001600160a01b03610c5b61164b565b166000526006815260406000208054906001600160401b0382116103c857829060405192610c8e838260051b01856115d4565b8084528284018092600052836000206000915b838310610d085750505050604051918083019381845251809452604083019360408160051b85010192916000955b828710610cdc5785850386f35b909192938280610cf8600193603f198a820301865288516117da565b9601920196019592919092610ccf565b6001868192610d19859a999a611700565b815201920192019190959495610ca1565b3461047157600036600319011261047157610d436117ff565b600180546001600160a01b0319908116909155600080549182168155906001600160a01b03167f8be0079c531659141344cd1fd0a4f28419497f9722a3daafe3b4186f6b6457e08280a3005b34610471576000366003190112610471576020600754604051908152f35b34610471576020366003190112610471576004356001600160401b03811161047157610df86020610de5610e6f9336906004016115f5565b81604051938285809451938492016117b7565b81016005815203019020610e0b81611700565b9060ff610e1a60018301611700565b610e2660028401611700565b92600381015493600482015460018060a01b0390610e8b826005860154169260068601541693610e7d60086007880154970154976040519c8d9c8d6101409081815201906117da565b8c810360208e0152906117da565b908a820360408c01526117da565b966060890152608088015260a087015260c086015260e0850152818116151561010085015260081c1615156101208301520390f35b34610471576060366003190112610471576004356001600160401b03811161047157610ef09036906004016115f5565b602435604435916040516020818351610f0c81838588016117b7565b8101600581520301902091610f2760ff6008850154166119ce565b60058301546001600160a01b03163303610f9d57610f866040928560047f59e8620b0742a7acf1fa2c6236758d97e05221785068ee1ef79e8dde26cb755f968515801590610f94575b610f7990611813565b85600382015501556119ae565b9382519182526020820152a2005b50821515610f70565b60405162461bcd60e51b815260206004820152601d60248201527f4f6e6c79206f776e65722063616e2075706461746520726f79616c74790000006044820152606490fd5b3461047157604036600319011261047157610ffb61164b565b6001600160a01b03166000908152600660205260409020805460243590811015610471576106b06106b6916106ca936116ae565b34610471576020366003190112610471576001600160a01b0361105061164b565b166000526004602052602060ff604060002054166040519015158152f35b34610471576040366003190112610471576004356001600160401b0381116104715761109e9036906004016115f5565b6024906001600160a01b0390823582811681036104715760405160208184516110ca81838589016117b7565b81016005815203019020926110e560ff6008860154166119ce565b806005850154169182331480156113f1575b156113ad57818116156113755782600052600660205260406000209460005b8654808210156113635761112a82896116ae565b506040519081600082549261113e846116c6565b808452936001811690811561134157506001146112ff575b50611163925003826115d4565b60208151910120875160208901201461119d5750600019811461118857600101611116565b87634e487b7160e01b60005260116004526000fd5b9060009792939495969719918281019081116112ea576111c06111c891856116ae565b5091846116ae565b9190916112d5576111d891611a9b565b815480156112c05701906111ec82826116ae565b6112ab576112459697985061120181546116c6565b908161126c575b5050555b60058383166001600160601b0360a01b828401541617910155818116600052600660205261123e856040600020611981565b16926119ae565b7f6840904f5b31827f74e1497360da245f56e530c8c3de3163a2d31f11493273c6600080a4005b600091601f808211600114611286575050555b8880611208565b916112a484929382845260208420940160051c84016001850161185e565b555561127f565b88634e487b7160e01b60005260006004526000fd5b88634e487b7160e01b60005260316004526000fd5b89634e487b7160e01b60005260006004526000fd5b89634e487b7160e01b60005260116004526000fd5b9150506000526020600020906000915b818310611328575050816020611163928201018d611156565b805460208486018101919091529092019160010161130f565b90506020925061116394915060ff191682840152151560051b8201018d611156565b5050909192945061124593955061120c565b60405162461bcd60e51b8152602060048201526011818801527024b73b30b634b2103732bb9037bbb732b960791b6044820152606490fd5b60405162461bcd60e51b815260206004820152601a818801527f4e6f7420617574686f72697a656420746f207472616e736665720000000000006044820152606490fd5b5033600052600460205260ff604060002054166110f7565b34610471576020366003190112610471576004356001600160401b038111610471576114399036906004016115f5565b604051602081835161144e81838588016117b7565b81016005815203019020600881019081549061146c60ff83166119ce565b60ff8260081c161561150857600501546001600160a01b031633036114c35761ff001916905561149c33916119ae565b7f90770cdbe2af4a141faa5d52bf81d7904916cf199ab0684f8d30cb4b477fae86600080a3005b60405162461bcd60e51b815260206004820152601e60248201527f4f6e6c79206f776e65722063616e2064697361626c6520726f79616c747900006044820152606490fd5b60405162461bcd60e51b815260206004820152601860248201527f526f79616c747920616c72656164792064697361626c656400000000000000006044820152606490fd5b34610471576000366003190112610471576003546040516001600160a01b039091168152602090f35b34610471576000366003190112610471577f00000000000000000000000000000000000000000000000000000000000000006001600160a01b03168152602090f35b61014081019081106001600160401b038211176103c857604052565b90601f801991011681019081106001600160401b038211176103c857604052565b81601f82011215610471578035906001600160401b0382116103c85760405192611629601f8401601f1916602001856115d4565b8284526020838301011161047157816000926020809301838601378301015290565b600435906001600160a01b038216820361047157565b6007548110156116985760076000527fa66cc928b5edb82af9bd49922954155ab7b0942694bea4ce44661d9a8736c6880190600090565b634e487b7160e01b600052603260045260246000fd5b80548210156116985760005260206000200190600090565b90600182811c921680156116f6575b60208310146116e057565b634e487b7160e01b600052602260045260246000fd5b91607f16916116d5565b9060405191826000825492611714846116c6565b9081845260019485811690816000146117835750600114611740575b505061173e925003836115d4565b565b9093915060005260209081600020936000915b81831061176b57505061173e93508201013880611730565b85548884018501529485019487945091830191611753565b91505061173e94506020925060ff191682840152151560051b8201013880611730565b906103b2576117b490611700565b90565b60005b8381106117ca5750506000910152565b81810151838201526020016117ba565b906020916117f3815180928185528580860191016117b7565b601f01601f1916010190565b6000546001600160a01b03163303610c2157565b1561181a57565b606460405162461bcd60e51b815260206004820152602060248201527f4174206c65617374206f6e6520726f79616c7479206d757374206265207365746044820152fd5b818110611869575050565b6000815560010161185e565b9190601f811161188457505050565b61173e926000526020600020906020601f840160051c830193106118b0575b601f0160051c019061185e565b90915081906118a3565b91909182516001600160401b0381116103c8576118e1816118db84546116c6565b84611875565b602080601f831160011461191d575081929394600092611912575b50508160011b916000199060031b1c1916179055565b0151905038806118fc565b90601f198316958460005282600020926000905b88821061196957505083600195969710611950575b505050811b019055565b015160001960f88460031b161c19169055388080611946565b80600185968294968601518155019501930190611931565b8054600160401b8110156103c85761199e916001820181556116ae565b9190916103b25761173e916118ba565b6119c6906020604051928284809451938492016117b7565b810103902090565b156119d557565b60405162461bcd60e51b815260206004820152600f60248201526e105cdcd95d081b9bdd08199bdd5b99608a1b6044820152606490fd5b6020611a259181604051938285809451938492016117b7565b810160058152030190209060ff600883015460081c1615611a4d576004600383015492015490565b600091508190565b6020611a6e9181604051938285809451938492016117b7565b8101600581520301902060ff60088201541615611a9557600501546001600160a01b031690565b50600090565b90808214611b7357611aad81546116c6565b906001600160401b0382116103c8578190611ad282611acc86546116c6565b86611875565b600090601f8311600114611b0857600092611afd5750508160011b916000199060031b1c1916179055565b0154905038806118fc565b81526020808220858352818320935090601f1985169083905b828210611b5a575050908460019594939210611b4157505050811b019055565b015460001960f88460031b161c19169055388080611946565b8495819295850154815560018091019601940190611b21565b505056fea26469706673582212203ba5a7da3649804f59793fbf679def64b99816684e249c8aeda01673a94ef3ae64736f6c63430008140033",
  "linkReferences": {},
  "deployedLinkReferences": {}
}