{
  "_format": "hh-sol-artifact-1",
  "contractName": "ClayLibrary",
  "sourceName": "ClayLibrary.sol",
  "abi": [
    {
      "inputs": [
        {
          "internalType": "address",
          "name": "_royaltyContract",
          "type": "address"
        }
      ],
      "stateMutability": "nonpayable",
      "type": "constructor"
    },
    {
      "inputs": [
        {
          "internalType": "address",
          "name": "owner",
          "type": "address"
        }
      ],
      "name": "OwnableInvalidOwner",
      "type": "error"
    },
    {
      "inputs": [
        {
          "internalType": "address",
          "name": "account",
          "type": "address"
        }
      ],
      "name": "OwnableUnauthorizedAccount",
      "type": "error"
    },
    {
      "inputs": [],
      "name": "ReentrancyGuardReentrantCall",
      "type": "error"
    },
    {
      "anonymous": false,
      "inputs": [
        {
          "indexed": true,
          "internalType": "string",
          "name": "projectId",
          "type": "string"
        },
        {
          "indexed": true,
          "internalType": "address",
          "name": "owner",
          "type": "address"
        }
      ],
      "name": "AssetDeactivated",
      "type": "event"
    },
    {
      "anonymous": false,
      "inputs": [
        {
          "indexed": true,
          "internalType": "string",
          "name": "projectId",
          "type": "string"
        },
        {
          "indexed": false,
          "internalType": "uint256",
          "name": "oldPrice",
          "type": "uint256"
        },
        {
          "indexed": false,
          "internalType": "uint256",
          "name": "newPrice",
          "type": "uint256"
        }
      ],
      "name": "AssetPriceUpdated",
      "type": "event"
    },
    {
      "anonymous": false,
      "inputs": [
        {
          "indexed": true,
          "internalType": "string",
          "name": "projectId",
          "type": "string"
        },
        {
          "indexed": true,
          "internalType": "address",
          "name": "buyer",
          "type": "address"
        },
        {
          "indexed": true,
          "internalType": "address",
          "name": "currentOwner",
          "type": "address"
        },
        {
          "indexed": false,
          "internalType": "uint256",
          "name": "price",
          "type": "uint256"
        },
        {
          "indexed": false,
          "internalType": "uint256",
          "name": "platformFee",
          "type": "uint256"
        }
      ],
      "name": "AssetPurchased",
      "type": "event"
    },
    {
      "anonymous": false,
      "inputs": [
        {
          "indexed": true,
          "internalType": "string",
          "name": "projectId",
          "type": "string"
        },
        {
          "indexed": true,
          "internalType": "address",
          "name": "creator",
          "type": "address"
        },
        {
          "indexed": false,
          "internalType": "string",
          "name": "name",
          "type": "string"
        },
        {
          "indexed": false,
          "internalType": "uint256",
          "name": "price",
          "type": "uint256"
        }
      ],
      "name": "AssetRegistered",
      "type": "event"
    },
    {
      "anonymous": false,
      "inputs": [
        {
          "indexed": true,
          "internalType": "address",
          "name": "previousOwner",
          "type": "address"
        },
        {
          "indexed": true,
          "internalType": "address",
          "name": "newOwner",
          "type": "address"
        }
      ],
      "name": "OwnershipTransferStarted",
      "type": "event"
    },
    {
      "anonymous": false,
      "inputs": [
        {
          "indexed": true,
          "internalType": "address",
          "name": "previousOwner",
          "type": "address"
        },
        {
          "indexed": true,
          "internalType": "address",
          "name": "newOwner",
          "type": "address"
        }
      ],
      "name": "OwnershipTransferred",
      "type": "event"
    },
    {
      "anonymous": false,
      "inputs": [
        {
          "indexed": true,
          "internalType": "string",
          "name": "projectId",
          "type": "string"
        },
        {
          "indexed": true,
          "internalType": "address",
          "name": "previousOwner",
          "type": "address"
        },
        {
          "indexed": true,
          "internalType": "address",
          "name": "newOwner",
          "type": "address"
        }
      ],
      "name": "OwnershipTransferred",
      "type": "event"
    },
    {
      "inputs": [],
      "name": "FEE_DENOMINATOR",
      "outputs": [
        {
          "internalType": "uint256",
          "name": "",
          "type": "uint256"
        }
      ],
      "stateMutability": "view",
      "type": "function"
    },
    {
      "inputs": [],
      "name": "USDC_ADDRESS",
      "outputs": [
        {
          "internalType": "address",
          "name": "",
          "type": "address"
        }
      ],
      "stateMutability": "view",
      "type": "function"
    },
    {
      "inputs": [],
      "name": "acceptOwnership",
      "outputs": [],
      "stateMutability": "nonpayable",
      "type": "function"
    },
    {
      "inputs": [
        {
          "internalType": "uint256",
          "name": "",
          "type": "uint256"
        }
      ],
      "name": "allAssetIds",
      "outputs": [
        {
          "internalType": "string",
          "name": "",
          "type": "string"
        }
      ],
      "stateMutability": "view",
      "type": "function"
    },
    {
      "inputs": [
        {
          "internalType": "address",
          "name": "",
          "type": "address"
        }
      ],
      "name": "approvedMarketplaces",
      "outputs": [
        {
          "internalType": "bool",
          "name": "",
          "type": "bool"
        }
      ],
      "stateMutability": "view",
      "type": "function"
    },
    {
      "inputs": [
        {
          "internalType": "string",
          "name": "",
          "type": "string"
        },
        {
          "internalType": "uint256",
          "name": "",
          "type": "uint256"
        }
      ],
      "name": "assetPurchasers",
      "outputs": [
        {
          "internalType": "address",
          "name": "",
          "type": "address"
        }
      ],
      "stateMutability": "view",
      "type": "function"
    },
    {
      "inputs": [
        {
          "internalType": "string",
          "name": "projectId",
          "type": "string"
        }
      ],
      "name": "deactivateAsset",
      "outputs": [],
      "stateMutability": "nonpayable",
      "type": "function"
    },
    {
      "inputs": [
        {
          "internalType": "string",
          "name": "projectId",
          "type": "string"
        }
      ],
      "name": "getAsset",
      "outputs": [
        {
          "components": [
            {
              "internalType": "string",
              "name": "projectId",
              "type": "string"
            },
            {
              "internalType": "string",
              "name": "name",
              "type": "string"
            },
            {
              "internalType": "string",
              "name": "description",
              "type": "string"
            },
            {
              "internalType": "uint256",
              "name": "priceETH",
              "type": "uint256"
            },
            {
              "internalType": "uint256",
              "name": "priceUSDC",
              "type": "uint256"
            },
            {
              "internalType": "address",
              "name": "currentOwner",
              "type": "address"
            },
            {
              "internalType": "address",
              "name": "originalCreator",
              "type": "address"
            },
            {
              "internalType": "uint256",
              "name": "totalRevenueETH",
              "type": "uint256"
            },
            {
              "internalType": "uint256",
              "name": "totalRevenueUSDC",
              "type": "uint256"
            },
            {
              "internalType": "uint256",
              "name": "purchaseCount",
              "type": "uint256"
            },
            {
              "internalType": "uint256",
              "name": "listedAt",
              "type": "uint256"
            },
            {
              "internalType": "bool",
              "name": "isActive",
              "type": "bool"
            }
          ],
          "internalType": "struct ClayLibrary.LibraryAsset",
          "name": "",
          "type": "tuple"
        }
      ],
      "stateMutability": "view",
      "type": "function"
    },
    {
      "inputs": [
        {
          "internalType": "uint256",
          "name": "index",
          "type": "uint256"
        }
      ],
      "name": "getAssetIdByIndex",
      "outputs": [
        {
          "internalType": "string",
          "name": "",
          "type": "string"
        }
      ],
      "stateMutability": "view",
      "type": "function"
    },
    {
      "inputs": [
        {
          "internalType": "string",
          "name": "projectId",
          "type": "string"
        }
      ],
      "name": "getAssetPurchasers",
      "outputs": [
        {
          "internalType": "address[]",
          "name": "",
          "type": "address[]"
        }
      ],
      "stateMutability": "view",
      "type": "function"
    },
    {
      "inputs": [
        {
          "internalType": "string",
          "name": "projectId",
          "type": "string"
        }
      ],
      "name": "getCurrentOwner",
      "outputs": [
        {
          "internalType": "address",
          "name": "",
          "type": "address"
        }
      ],
      "stateMutability": "view",
      "type": "function"
    },
    {
      "inputs": [],
      "name": "getTotalAssets",
      "outputs": [
        {
          "internalType": "uint256",
          "name": "",
          "type": "uint256"
        }
      ],
      "stateMutability": "view",
      "type": "function"
    },
    {
      "inputs": [
        {
          "internalType": "address",
          "name": "user",
          "type": "address"
        }
      ],
      "name": "getUserAssets",
      "outputs": [
        {
          "internalType": "string[]",
          "name": "",
          "type": "string[]"
        }
      ],
      "stateMutability": "view",
      "type": "function"
    },
    {
      "inputs": [
        {
          "internalType": "string",
          "name": "",
          "type": "string"
        }
      ],
      "name": "libraryAssets",
      "outputs": [
        {
          "internalType": "string",
          "name": "projectId",
          "type": "string"
        },
        {
          "internalType": "string",
          "name": "name",
          "type": "string"
        },
        {
          "internalType": "string",
          "name": "description",
          "type": "string"
        },
        {
          "internalType": "uint256",
          "name": "priceETH",
          "type": "uint256"
        },
        {
          "internalType": "uint256",
          "name": "priceUSDC",
          "type": "uint256"
        },
        {
          "internalType": "address",
          "name": "currentOwner",
          "type": "address"
        },
        {
          "internalType": "address",
          "name": "originalCreator",
          "type": "address"
        },
        {
          "internalType": "uint256",
          "name": "totalRevenueETH",
          "type": "uint256"
        },
        {
          "internalType": "uint256",
          "name": "totalRevenueUSDC",
          "type": "uint256"
        },
        {
          "internalType": "uint256",
          "name": "purchaseCount",
          "type": "uint256"
        },
        {
          "internalType": "uint256",
          "name": "listedAt",
          "type": "uint256"
        },
        {
          "internalType": "bool",
          "name": "isActive",
          "type": "bool"
        }
      ],
      "stateMutability": "view",
      "type": "function"
    },
    {
      "inputs": [],
      "name": "owner",
      "outputs": [
        {
          "internalType": "address",
          "name": "",
          "type": "address"
        }
      ],
      "stateMutability": "view",
      "type": "function"
    },
    {
      "inputs": [],
      "name": "pendingOwner",
      "outputs": [
        {
          "internalType": "address",
          "name": "",
          "type": "address"
        }
      ],
      "stateMutability": "view",
      "type": "function"
    },
    {
      "inputs": [],
      "name": "platformFeePercentage",
      "outputs": [
        {
          "internalType": "uint256",
          "name": "",
          "type": "uint256"
        }
      ],
      "stateMutability": "view",
      "type": "function"
    },
    {
      "inputs": [
        {
          "internalType": "string",
          "name": "projectId",
          "type": "string"
        }
      ],
      "name": "purchaseAssetWithETH",
      "outputs": [],
      "stateMutability": "payable",
      "type": "function"
    },
    {
      "inputs": [
        {
          "internalType": "string",
          "name": "projectId",
          "type": "string"
        }
      ],
      "name": "purchaseAssetWithUSDC",
      "outputs": [],
      "stateMutability": "nonpayable",
      "type": "function"
    },
    {
      "inputs": [
        {
          "internalType": "string",
          "name": "projectId",
          "type": "string"
        },
        {
          "internalType": "string",
          "name": "name",
          "type": "string"
        },
        {
          "internalType": "string",
          "name": "description",
          "type": "string"
        },
        {
          "internalType": "uint256",
          "name": "priceETH",
          "type": "uint256"
        },
        {
          "internalType": "uint256",
          "name": "priceUSDC",
          "type": "uint256"
        }
      ],
      "name": "registerAsset",
      "outputs": [],
      "stateMutability": "nonpayable",
      "type": "function"
    },
    {
      "inputs": [],
      "name": "renounceOwnership",
      "outputs": [],
      "stateMutability": "nonpayable",
      "type": "function"
    },
    {
      "inputs": [],
      "name": "royaltyContract",
      "outputs": [
        {
          "internalType": "contract IClayRoyalty",
          "name": "",
          "type": "address"
        }
      ],
      "stateMutability": "view",
      "type": "function"
    },
    {
      "inputs": [
        {
          "internalType": "address",
          "name": "marketplace",
          "type": "address"
        },
        {
          "internalType": "bool",
          "name": "approved",
          "type": "bool"
        }
      ],
      "name": "setApprovedMarketplace",
      "outputs": [],
      "stateMutability": "nonpayable",
      "type": "function"
    },
    {
      "inputs": [
        {
          "internalType": "address",
          "name": "_royaltyContract",
          "type": "address"
        }
      ],
      "name": "setRoyaltyContract",
      "outputs": [],
      "stateMutability": "nonpayable",
      "type": "function"
    },
    {
      "inputs": [
        {
          "internalType": "string",
          "name": "projectId",
          "type": "string"
        },
        {
          "internalType": "address",
          "name": "newOwner",
          "type": "address"
        }
      ],
      "name": "transferAssetOwnership",
      "outputs": [],
      "stateMutability": "nonpayable",
      "type": "function"
    },
    {
      "inputs": [
        {
          "internalType": "address",
          "name": "newOwner",
          "type": "address"
        }
      ],
      "name": "transferOwnership",
      "outputs": [],
      "stateMutability": "nonpayable",
      "type": "function"
    },
    {
      "inputs": [
        {
          "internalType": "string",
          "name": "projectId",
          "type": "string"
        },
        {
          "internalType": "uint256",
          "name": "newPriceETH",
          "type": "uint256"
        },
        {
          "internalType": "uint256",
          "name": "newPriceUSDC",
          "type": "uint256"
        }
      ],
      "name": "updateAssetPrice",
      "outputs": [],
      "stateMutability": "nonpayable",
      "type": "function"
    },
    {
      "inputs": [
        {
          "internalType": "uint256",
          "name": "newFeePercentage",
          "type": "uint256"
        }
      ],
      "name": "updatePlatformFee",
      "outputs": [],
      "stateMutability": "nonpayable",
      "type": "function"
    },
    {
      "inputs": [],
      "name": "usdcToken",
      "outputs": [
        {
          "internalType": "contract IERC20",
          "name": "",
          "type": "address"
        }
      ],
      "stateMutability": "view",
      "type": "function"
    },
    {
      "inputs": [
        {
          "internalType": "address",
          "name": "",
          "type": "address"
        },
        {
          "internalType": "uint256",
          "name": "",
          "type": "uint256"
        }
      ],
      "name": "userOwnedAssets",
      "outputs": [
        {
          "internalType": "string",
          "name": "",
          "type": "string"
        }
      ],
      "stateMutability": "view",
      "type": "function"
    },
    {
      "inputs": [],
      "name": "withdrawPlatformFeesETH",
      "outputs": [],
      "stateMutability": "nonpayable",
      "type": "function"
    },
    {
      "inputs": [],
      "name": "withdrawPlatformFeesUSDC",
      "outputs": [],
      "stateMutability": "nonpayable",
      "type": "function"
    }
  ],
  "bytecode": "0x60a03461010857601f6200297c38819003918201601f19168301916001600160401b0383118484101761010d5780849260209460405283398101031261010857516001600160a01b0390818116908190036101085733156100ef5760018060a01b031980600154166001556000543382821617600055604051933391167f8be0079c531659141344cd1fd0a4f28419497f9722a3daafe3b4186f6b6457e0600080a3600160025560fa60095573833589fcd6edb6e08f4c7c32d4f71b54bda029136080526003541617600355612858908162000124823960805181818161063101528181610b400152611eb80152f35b604051631e4fbdf760e01b815260006004820152602490fd5b600080fd5b634e487b7160e01b600052604160045260246000fdfe6080604052600436101561001257600080fd5b6000803560e01c80630f393baf14611ee757806311eac85514611ea25780631663ee0314611e795780632203f8f114611af057806351618eff146119c2578063543a9eb9146119835780635d483ab9146119375780636cb3db25146118205780636e07302b14611802578063715018a61461179d578063765ff0611461169d57806379ba50971461161f5780638ada33dc146112e75780638bccf009146112605780638c5deff8146111f15780638da5cb5b146111ca5780639c521838146111435780639ff95b8e1461105e578063aa0b598814610ff4578063bb09d9b714610fc5578063bbf46b8414610f6f578063cd5286d014610d4d578063cdd78cfc14610d2f578063d55a772d14610cc5578063d73792a914610ca8578063d9aa187c14610c63578063dceb768614610b07578063e30c397814610ade578063e814d66b14610a91578063f2fde38b14610a24578063fb0558461461054a5763ff6c0dde1461017d57600080fd5b346105475760a0366003190112610547576001600160401b03600435818111610543576101ae90369060040161211f565b9060243581811161053f576101c790369060040161211f565b9060443590811161053f576101e090369060040161211f565b9160643591608435938251156104fa5783158015906104f1575b61020390612333565b60405194835160ff600b6020988981818a01956102218183896122d7565b810160058152030190200154166104ac5760035485926001600160a01b03928a928a9290851680610429575b5060405196879561025d876120c7565b878752848701928a845260408801928352606088018d81526080890191825260a089019333855260c08a019533875260e08b01978a89526101008c01998b8b526101208d019b8c526101408d019c8d429052610160019d60018f52604051809381925180926102cb926122d7565b81016005815203019020809d516102e19161247f565b516102ef9060018e0161247f565b516102fd9060028d0161247f565b5160038b01555160048a01558060058a01925116916bffffffffffffffffffffffff60a01b9283825416179055600689019251169082541617905551600786015551600885015551600984015551600a83015551151590600b019061036d919060ff801983541691151516179055565b3385526007845281604086209061038391612546565b600854600160401b811015610413578060016103a29201600855612181565b6103fd57826103d57f585d38ebcb0fe93ced4d64fbb112388b85b7726e7d87c5142521434d4f122384946103da9361247f565b612573565b926103f0604051926040845260408401906122fa565b948201528033940390a380f35b634e487b7160e01b600052600060045260246000fd5b634e487b7160e01b600052604160045260246000fd5b908093918b61044f98604051998a948593849363010d358360e21b855260048501612397565b03915afa9182156104a15761046e8b938a978691610474575b506123b9565b3861024d565b6104949150853d871161049a575b61048c81836120e3565b81019061237f565b38610468565b503d610482565b6040513d85823e3d90fd5b60405162461bcd60e51b815260048101889052601860248201527f417373657420616c7265616479207265676973746572656400000000000000006044820152606490fd5b508415156101fa565b60405162461bcd60e51b815260206004820152601a60248201527f50726f6a6563742049442063616e6e6f7420626520656d7074790000000000006044820152606490fd5b8380fd5b8280fd5b80fd5b503461054757602080600319360112610a20576004356001600160401b0381116105435761057c90369060040161211f565b6105846126e5565b6040519181519281818185019561059c8183896122d7565b81016005815203019020926105b760ff600b86015416612593565b600484019384549182156109ca576003546001600160a01b039288929184168061093d575b506105f76127106105ef6009548861260e565b048096612621565b6005820180546040516323b872dd60e01b8082523360048301529188166001600160a01b03166024820152604481019390935290949092917f00000000000000000000000000000000000000000000000000000000000000008716908c908a8160648185875af1801561083b578261067c8c928e946106a69691610920575b5061265e565b60405188815233600482015230602482015260448101929092529092839190829081906064820190565b0391865af1908115610915578d916108f8575b50156108b3579088918161077a575b5050506009915088546106e0600883019182546125eb565b905501805490600182018092116107665761072e9493926107249261071092556040519182918a519283916122d7565b8101906006825287813393030190206126aa565b5416945493612573565b916040519384528301527f9f1cf37e6808c30667b45ef497cdbe9240ff2b62734e74189ac2c7f4a76d487d60403393a4600160025580f35b634e487b7160e01b8a52601160045260248afd5b60035460405195865233600487015288166001600160a01b031660248601526044850191909152919291829060649082908e905af19081156108a8578a9161088b575b501561084657888460035416895490803b15610543576107fe83918b83604051809681958294630c57876960e41b84526060600485015260648401906122fa565b9060248301526001604483015203925af1801561083b57610823575b829188916106c8565b61082c906120b4565b61083757883861081a565b8880fd5b6040513d84823e3d90fd5b60405162461bcd60e51b815260048101879052601760248201527f526f79616c7479207472616e73666572206661696c65640000000000000000006044820152606490fd5b6108a29150873d891161049a5761048c81836120e3565b386107bd565b6040513d8c823e3d90fd5b60405162461bcd60e51b8152600481018a9052601c60248201527f506c6174666f726d20666565207472616e73666572206661696c6564000000006044820152606490fd5b61090f91508a3d8c1161049a5761048c81836120e3565b386106b9565b6040513d8f823e3d90fd5b6109379150853d871161049a5761048c81836120e3565b38610676565b60408051635fb8273360e11b81526060600482015292945090829081808d610968606483018e6122fa565b9060248301528a604483015203915afa9081156109bf57899161098e575b5091386105dc565b6109b0915060403d6040116109b8575b6109a881836120e3565b8101906125d5565b905038610986565b503d61099e565b6040513d8b823e3d90fd5b60405162461bcd60e51b815260048101859052602860248201527f55534443207061796d656e74206e6f7420616363657074656420666f722074686044820152671a5cc8185cdcd95d60c21b6064820152608490fd5b5080fd5b503461054757602036600319011261054757610a3e61216b565b610a4661231f565b600180546001600160a01b0319166001600160a01b0392831690811790915582549091167f38d16b8cac22d99fc7c124b9cd0de2d3fa1faef420bfe791d8c362d765e227008380a380f35b5034610547576020366003190112610547576004359060085482101561054757610ada610ac6610ac084612181565b906122c6565b6040519182916020835260208301906122fa565b0390f35b50346105475780600319360112610547576001546040516001600160a01b039091168152602090f35b5034610547578060031936011261054757610b2061231f565b6040516370a0823160e01b81523060048201526020906001600160a01b037f0000000000000000000000000000000000000000000000000000000000000000811691908382602481865afa918215610c58578592610c25575b508115610be057906044849286541686604051958694859363a9059cbb60e01b8552600485015260248401525af19081156104a157610bc0928492610bc3575b5050612706565b80f35b610bd99250803d1061049a5761048c81836120e3565b3880610bb9565b60405162461bcd60e51b815260048101859052601860248201527f4e6f2055534443206665657320746f20776974686472617700000000000000006044820152606490fd5b9091508381813d8311610c51575b610c3d81836120e3565b81010312610c4d57519038610b79565b8480fd5b503d610c33565b6040513d87823e3d90fd5b503461054757602036600319011261054757610c7d61216b565b610c8561231f565b60018060a01b03166bffffffffffffffffffffffff60a01b600354161760035580f35b503461054757806003193601126105475760206040516127108152f35b503461054757602036600319011261054757600435906001600160401b038211610547576020610cf8366004850161211f565b600582610d0e60405193848151938492016122d7565b8201818152829003830190912001546040516001600160a01b039091168152f35b50346105475780600319360112610547576020600954604051908152f35b5034610547576020366003190112610547576004356001600160401b038111610a2057610ded91610d84602092369060040161211f565b90610160604051610d94816120c7565b60608152606085820152606060408201528260608201528260808201528260a08201528260c08201528260e0820152826101008201528261012082015282610140820152015281604051938285809451938492016122d7565b8101600581520301902060ff600b60405192610e08846120c7565b610e1181612220565b8452610e1f60018201612220565b6020850152610e3060028201612220565b6040850152600381015460608501526004810154608085015260018060a01b0360058201541660a085015260018060a01b0360068201541660c0850152600781015460e085015260088101546101008501526009810154610120850152600a8101546101408501520154161515610160820152604051809160208252610160610efb610eca835161018060208701526101a08601906122fa565b610ee6602085015191601f1992838883030160408901526122fa565b906040850151908683030160608701526122fa565b9160608101516080850152608081015160a085015260018060a01b0360a08201511660c085015260018060a01b0360c08201511660e085015260e081015161010085015261010081015161012085015261012081015161014085015261014081015182850152015115156101808301520390f35b503461054757604036600319011261054757610f8961216b565b602435801515810361054357610bc091610fa161231f565b60018060a01b031683526004602052604083209060ff801983541691151516179055565b5034610547578060031936011261054757602060405173833589fcd6edb6e08f4c7c32d4f71b54bda029138152f35b50346105475760203660031901126105475760043561101161231f565b6103e881116110205760095580f35b60405162461bcd60e51b815260206004820152601660248201527546656520746f6f206869676820286d6178203130252960501b6044820152606490fd5b503461054757602080600319360112610a20576004356001600160401b03811161054357816110946110a792369060040161211f565b81604051938285809451938492016122d7565b8101600681520301902060405192838383549182815201908193835284832090835b81811061112657505050846110df9103856120e3565b60405193838594850191818652518092526040850193925b82811061110657505050500390f35b83516001600160a01b0316855286955093810193928101926001016110f7565b82546001600160a01b0316845292860192600192830192016110c9565b503461054757806003193601126105475761115c61231f565b4780156111855781808080610bc09460018060a01b038254165af161117f61262e565b50612706565b60405162461bcd60e51b815260206004820152601760248201527f4e6f20455448206665657320746f2077697468647261770000000000000000006044820152606490fd5b5034610547578060031936011261054757546040516001600160a01b039091168152602090f35b50346105475760203660031901126105475760043560085481101561122557610ac661121f610ada92612181565b50612220565b60405162461bcd60e51b8152602060048201526013602482015272496e646578206f7574206f6620626f756e647360681b6044820152606490fd5b5034610547576040366003190112610547576004356001600160401b038111610a205761129190369060040161211f565b906112ae60206024359381604051938285809451938492016122d7565b810160068152030190209081548310156105475760206112ce84846121ce565b905460405160039290921b1c6001600160a01b03168152f35b50602080600319360112610a20576004356001600160401b0381116105435761131490369060040161211f565b61131c6126e5565b604051918151928181818501956113348183896122d7565b810160058152030190209261134f60ff600b86015416612593565b600384019384549081156115ca576003546001600160a01b039290831690888261155f575b61137e81836125eb565b9283341061150957908a91816114a4575b5050505086549360096113b16127106113a983548961260e565b048097612621565b936113cc8b80808060058601998b8b54165af161067661262e565b89546113dd600783019182546125eb565b9055018054906001820180921161149057878b949361141d9361140c9355604051809381928d519283916122d7565b8101600681520301902033906126aa565b803411611436575b50509061072e915416945493612573565b8180611443819334612621565b335af161144e61262e565b501561145b578638611425565b60405162461bcd60e51b815260048101859052600d60248201526c1499599d5b990819985a5b1959609a1b6044820152606490fd5b634e487b7160e01b8b52601160045260248bfd5b803b1561054357604051630c57876960e41b815260606004820152938492839182906114d3606483018f6122fa565b90602483015286604483015203925af180156109bf576114f6575b88818061138f565b611502909891986120b4565b96386114ee565b60405162461bcd60e51b815260048101899052602860248201527f496e73756666696369656e74207061796d656e7420287072696365202b20726f60448201526779616c746965732960c01b6064820152608490fd5b5060408051635fb8273360e11b815260606004820152908180611585606482018c6122fa565b8560248301528d60448301520381865afa9081156108a8578a916115aa575b50611374565b6115c3915060403d6040116109b8576109a881836120e3565b50386115a4565b60405162461bcd60e51b815260048101859052602760248201527f455448207061796d656e74206e6f7420616363657074656420666f72207468696044820152661cc8185cdcd95d60ca1b6064820152608490fd5b50346105475780600319360112610547576001546001600160a01b033381831603611685576001600160a01b031991821660015582543392811683178455167f8be0079c531659141344cd1fd0a4f28419497f9722a3daafe3b4186f6b6457e08380a380f35b60405163118cdaa760e01b8152336004820152602490fd5b503461054757602080600319360112610a20576001600160a01b036116c061216b565b168252600781526040822080546001600160401b038111611789579192604051926116f0858260051b01856120e3565b8084528484018093835285832083915b8383106117655750505050604051928484019085855251809152604084019460408260051b8601019392955b8287106117395785850386f35b909192938280611755600193603f198a820301865288516122fa565b960192019601959291909261172c565b6001888192611777859b9a989b612220565b81520192019201919096939596611700565b634e487b7160e01b84526041600452602484fd5b50346105475780600319360112610547576117b661231f565b600180546001600160a01b03199081169091558154908116825581906001600160a01b03167f8be0079c531659141344cd1fd0a4f28419497f9722a3daafe3b4186f6b6457e08280a380f35b50346105475780600319360112610547576020600854604051908152f35b503461054757602036600319011261054757600435906001600160401b038211610547576118566020611094366004860161211f565b810160058152030190206118e361186c82612220565b9161187960018201612220565b9261188660028301612220565b91600381015492600482015460018060a01b0380600585015416906006850154166007850154916008860154936118ff6009880154966118f160ff600b600a8c01549b0154169a6040519e8f9e8f926101808085528401906122fa565b9160208184039101526122fa565b8c810360408e0152906122fa565b9860608b015260808a015260a089015260c088015260e087015261010086015261012085015261014084015215156101608301520390f35b50346105475760403660031901126105475761195161216b565b6001600160a01b031681526007602052604081208054602435929083101561054757610ada610ac6610ac085856121ce565b50346105475760203660031901126105475760209060ff906040906001600160a01b036119ae61216b565b168152600484522054166040519015158152f35b5034610547576020366003190112610547576004356001600160401b038111610a20576119f390369060040161211f565b6040516020818351611a0881838588016122d7565b81016005815203019020600b81019081549060ff821615611ab257600501546001600160a01b03163303611a6d5760ff19169055611a463391612573565b7fbf7659f4659900a03fed4ad2fc77c3602180b8afcf682077f6e38e88d0cf58f48380a380f35b60405162461bcd60e51b815260206004820152601960248201527f4f6e6c79206f776e65722063616e2064656163746976617465000000000000006044820152606490fd5b60405162461bcd60e51b8152602060048201526016602482015275417373657420616c726561647920696e61637469766560501b6044820152606490fd5b5034610547576040366003190112610547576004356001600160401b038111610a2057611b2190369060040161211f565b6024916001600160a01b039183358381168103610543576040516020818451611b4d81838589016122d7565b8101600581520301902093611b6860ff600b87015416612593565b80600586015416918233148015611e63575b15611e1f5781811615611de75782855260076020526040852095855b875480821015611dd457611baa828a6121ce565b5060405190818a825492611bbd846121e6565b8084529360018116908115611db25750600114611d74575b50611be2925003826120e3565b602081519101208751602089012014611c1a57506000198114611c0757600101611b96565b634e487b7160e01b875260116004528887fd5b90600098929394959697981991828101908111611d6157611c3e611c4691856121ce565b5091846121ce565b919091611d4e57611c5691612746565b81548015611d3b570190611c6a82826121ce565b999099611d2957508789611c84611cc498999a9b546121e6565b80611ceb575b505050555b60050180546001600160a01b0319168284169081179091558652600760205260408620611cbd908690612546565b1692612573565b7f6840904f5b31827f74e1497360da245f56e530c8c3de3163a2d31f11493273c68480a480f35b82601f808311600114611d0557505050555b883880611c8a565b83825260208220939192611d22910160051c840160018501612423565b5555611cfd565b634e487b7160e01b8952600489905288fd5b634e487b7160e01b895260316004528989fd5b634e487b7160e01b8a5260048a90528a8afd5b634e487b7160e01b8a5260116004528a8afd5b8c52505060208a208a91905b818310611d99575050816020611be29282010138611bd5565b8054602084860181019190915290920191600101611d80565b905060209250611be294915060ff191682840152151560051b82010138611bd5565b5050909192949650611cc4939550611c8f565b60405162461bcd60e51b8152602060048201526011818901527024b73b30b634b2103732bb9037bbb732b960791b6044820152606490fd5b60405162461bcd60e51b815260206004820152601a818901527f4e6f7420617574686f72697a656420746f207472616e736665720000000000006044820152606490fd5b50338552600460205260ff604086205416611b7a565b50346105475780600319360112610547576003546040516001600160a01b039091168152602090f35b50346105475780600319360112610547576040517f00000000000000000000000000000000000000000000000000000000000000006001600160a01b03168152602090f35b5034610547576060366003190112610547576004356001600160401b038111610a2057611f1890369060040161211f565b60243590604435906040519283825160209581611f398893838589016122d7565b8101600581520301902091611f5460ff600b85015416612593565b60058301546001600160a01b03908116330361206f578215801590612066575b611f7d90612333565b6003541680611fd2575b5090611fc583927f6f614e54fafe71f7c0a065e36894602ca7ed071e7be8df9bade0418e775fac569560046003604097019585875497550155612573565b948351928352820152a280f35b92919085604051809563010d358360e21b82528180611ff68a888860048501612397565b03915afa90811561205b577f6f614e54fafe71f7c0a065e36894602ca7ed071e7be8df9bade0418e775fac5695612039611fc5936040978b9161204457506123b9565b955091929350611f87565b61049491508a3d8c1161049a5761048c81836120e3565b6040513d89823e3d90fd5b50841515611f74565b60405162461bcd60e51b815260048101879052601b60248201527f4f6e6c79206f776e65722063616e2075706461746520707269636500000000006044820152606490fd5b6001600160401b03811161041357604052565b61018081019081106001600160401b0382111761041357604052565b90601f801991011681019081106001600160401b0382111761041357604052565b6001600160401b03811161041357601f01601f191660200190565b81601f820112156121665780359061213682612104565b9261214460405194856120e3565b8284526020838301011161216657816000926020809301838601378301015290565b600080fd5b600435906001600160a01b038216820361216657565b6008548110156121b85760086000527ff3f7a9fe364faab93b216da50a3214154f22a0a2b415b23a84c8169e8b636ee30190600090565b634e487b7160e01b600052603260045260246000fd5b80548210156121b85760005260206000200190600090565b90600182811c92168015612216575b602083101461220057565b634e487b7160e01b600052602260045260246000fd5b91607f16916121f5565b9060405191826000825492612234846121e6565b9081845260019485811690816000146122a35750600114612260575b505061225e925003836120e3565b565b9093915060005260209081600020936000915b81831061228b57505061225e93508201013880612250565b85548884018501529485019487945091830191612273565b91505061225e94506020925060ff191682840152151560051b8201013880612250565b906103fd576122d490612220565b90565b60005b8381106122ea5750506000910152565b81810151838201526020016122da565b90602091612313815180928185528580860191016122d7565b601f01601f1916010190565b6000546001600160a01b0316330361168557565b1561233a57565b60405162461bcd60e51b815260206004820152601e60248201527f4174206c65617374206f6e65207072696365206d7573742062652073657400006044820152606490fd5b90816020910312612166575180151581036121665790565b6123af604092959493956060835260608301906122fa565b9460208201520152565b156123c057565b60405162461bcd60e51b815260206004820152603560248201527f50726963652062656c6f77206d696e696d756d20286d75737420636f76657220604482015274646570656e64656e637920726f79616c746965732960581b6064820152608490fd5b81811061242e575050565b60008155600101612423565b9190601f811161244957505050565b61225e926000526020600020906020601f840160051c83019310612475575b601f0160051c0190612423565b9091508190612468565b91909182516001600160401b038111610413576124a6816124a084546121e6565b8461243a565b602080601f83116001146124e25750819293946000926124d7575b50508160011b916000199060031b1c1916179055565b0151905038806124c1565b90601f198316958460005282600020926000905b88821061252e57505083600195969710612515575b505050811b019055565b015160001960f88460031b161c1916905538808061250b565b806001859682949686015181550195019301906124f6565b8054600160401b81101561041357612563916001820181556121ce565b9190916103fd5761225e9161247f565b61258b906020604051928284809451938492016122d7565b810103902090565b1561259a57565b60405162461bcd60e51b81526020600482015260136024820152724173736574206e6f7420617661696c61626c6560681b6044820152606490fd5b9190826040910312612166576020825192015190565b919082018092116125f857565b634e487b7160e01b600052601160045260246000fd5b818102929181159184041417156125f857565b919082039182116125f857565b3d15612659573d9061263f82612104565b9161264d60405193846120e3565b82523d6000602084013e565b606090565b1561266557565b60405162461bcd60e51b815260206004820152601760248201527f5061796d656e7420746f206f776e6572206661696c65640000000000000000006044820152606490fd5b8054600160401b811015610413576126c7916001820181556121ce565b819291549060031b9160018060a01b03809116831b921b1916179055565b60028054146126f45760028055565b604051633ee5aeb560e01b8152600490fd5b1561270d57565b60405162461bcd60e51b815260206004820152601160248201527015da5d1a191c985dd85b0819985a5b1959607a1b6044820152606490fd5b9080821461281e5761275881546121e6565b906001600160401b03821161041357819061277d8261277786546121e6565b8661243a565b600090601f83116001146127b3576000926127a85750508160011b916000199060031b1c1916179055565b0154905038806124c1565b81526020808220858352818320935090601f1985169083905b8282106128055750509084600195949392106127ec57505050811b019055565b015460001960f88460031b161c1916905538808061250b565b84958192958501548155600180910196019401906127cc565b505056fea26469706673582212206d6ace243a11baaf812fb1b07091c81ac6f7f9e539699fe039eeac0803cd8aa364736f6c63430008140033",
  "linkReferences": {},
  "deployedLinkReferences": {}
}