{
  "_format": "hh-sol-artifact-1",
  "contractName": "ClayLibrary",
  "sourceName": "ClayLibrary.sol",
  "abi": [
    {
      "inputs": [
        {
          "internalType": "address",
          "name": "_royaltyContract",
          "type": "address"
        }
      ],
      "stateMutability": "nonpayable",
      "type": "constructor"
    },
    {
      "inputs": [
        {
          "internalType": "address",
          "name": "owner",
          "type": "address"
        }
      ],
      "name": "OwnableInvalidOwner",
      "type": "error"
    },
    {
      "inputs": [
        {
          "internalType": "address",
          "name": "account",
          "type": "address"
        }
      ],
      "name": "OwnableUnauthorizedAccount",
      "type": "error"
    },
    {
      "inputs": [],
      "name": "ReentrancyGuardReentrantCall",
      "type": "error"
    },
    {
      "anonymous": false,
      "inputs": [
        {
          "indexed": true,
          "internalType": "string",
          "name": "projectId",
          "type": "string"
        },
        {
          "indexed": true,
          "internalType": "address",
          "name": "owner",
          "type": "address"
        }
      ],
      "name": "AssetDeactivated",
      "type": "event"
    },
    {
      "anonymous": false,
      "inputs": [
        {
          "indexed": true,
          "internalType": "string",
          "name": "projectId",
          "type": "string"
        },
        {
          "indexed": false,
          "internalType": "uint256",
          "name": "oldPrice",
          "type": "uint256"
        },
        {
          "indexed": false,
          "internalType": "uint256",
          "name": "newPrice",
          "type": "uint256"
        }
      ],
      "name": "AssetPriceUpdated",
      "type": "event"
    },
    {
      "anonymous": false,
      "inputs": [
        {
          "indexed": true,
          "internalType": "string",
          "name": "projectId",
          "type": "string"
        },
        {
          "indexed": true,
          "internalType": "address",
          "name": "buyer",
          "type": "address"
        },
        {
          "indexed": true,
          "internalType": "address",
          "name": "currentOwner",
          "type": "address"
        },
        {
          "indexed": false,
          "internalType": "uint256",
          "name": "price",
          "type": "uint256"
        },
        {
          "indexed": false,
          "internalType": "uint256",
          "name": "platformFee",
          "type": "uint256"
        }
      ],
      "name": "AssetPurchased",
      "type": "event"
    },
    {
      "anonymous": false,
      "inputs": [
        {
          "indexed": true,
          "internalType": "string",
          "name": "projectId",
          "type": "string"
        },
        {
          "indexed": true,
          "internalType": "address",
          "name": "creator",
          "type": "address"
        },
        {
          "indexed": false,
          "internalType": "string",
          "name": "name",
          "type": "string"
        },
        {
          "indexed": false,
          "internalType": "uint256",
          "name": "price",
          "type": "uint256"
        }
      ],
      "name": "AssetRegistered",
      "type": "event"
    },
    {
      "anonymous": false,
      "inputs": [
        {
          "indexed": true,
          "internalType": "address",
          "name": "previousOwner",
          "type": "address"
        },
        {
          "indexed": true,
          "internalType": "address",
          "name": "newOwner",
          "type": "address"
        }
      ],
      "name": "OwnershipTransferred",
      "type": "event"
    },
    {
      "anonymous": false,
      "inputs": [
        {
          "indexed": true,
          "internalType": "string",
          "name": "projectId",
          "type": "string"
        },
        {
          "indexed": true,
          "internalType": "address",
          "name": "previousOwner",
          "type": "address"
        },
        {
          "indexed": true,
          "internalType": "address",
          "name": "newOwner",
          "type": "address"
        }
      ],
      "name": "OwnershipTransferred",
      "type": "event"
    },
    {
      "inputs": [],
      "name": "FEE_DENOMINATOR",
      "outputs": [
        {
          "internalType": "uint256",
          "name": "",
          "type": "uint256"
        }
      ],
      "stateMutability": "view",
      "type": "function"
    },
    {
      "inputs": [],
      "name": "USDC_ADDRESS",
      "outputs": [
        {
          "internalType": "address",
          "name": "",
          "type": "address"
        }
      ],
      "stateMutability": "view",
      "type": "function"
    },
    {
      "inputs": [
        {
          "internalType": "uint256",
          "name": "",
          "type": "uint256"
        }
      ],
      "name": "allAssetIds",
      "outputs": [
        {
          "internalType": "string",
          "name": "",
          "type": "string"
        }
      ],
      "stateMutability": "view",
      "type": "function"
    },
    {
      "inputs": [
        {
          "internalType": "string",
          "name": "",
          "type": "string"
        },
        {
          "internalType": "uint256",
          "name": "",
          "type": "uint256"
        }
      ],
      "name": "assetPurchasers",
      "outputs": [
        {
          "internalType": "address",
          "name": "",
          "type": "address"
        }
      ],
      "stateMutability": "view",
      "type": "function"
    },
    {
      "inputs": [
        {
          "internalType": "string",
          "name": "projectId",
          "type": "string"
        }
      ],
      "name": "deactivateAsset",
      "outputs": [],
      "stateMutability": "nonpayable",
      "type": "function"
    },
    {
      "inputs": [
        {
          "internalType": "string",
          "name": "projectId",
          "type": "string"
        }
      ],
      "name": "getAsset",
      "outputs": [
        {
          "components": [
            {
              "internalType": "string",
              "name": "projectId",
              "type": "string"
            },
            {
              "internalType": "string",
              "name": "name",
              "type": "string"
            },
            {
              "internalType": "string",
              "name": "description",
              "type": "string"
            },
            {
              "internalType": "uint256",
              "name": "priceETH",
              "type": "uint256"
            },
            {
              "internalType": "uint256",
              "name": "priceUSDC",
              "type": "uint256"
            },
            {
              "internalType": "address",
              "name": "currentOwner",
              "type": "address"
            },
            {
              "internalType": "address",
              "name": "originalCreator",
              "type": "address"
            },
            {
              "internalType": "uint256",
              "name": "totalRevenueETH",
              "type": "uint256"
            },
            {
              "internalType": "uint256",
              "name": "totalRevenueUSDC",
              "type": "uint256"
            },
            {
              "internalType": "uint256",
              "name": "purchaseCount",
              "type": "uint256"
            },
            {
              "internalType": "uint256",
              "name": "listedAt",
              "type": "uint256"
            },
            {
              "internalType": "bool",
              "name": "isActive",
              "type": "bool"
            }
          ],
          "internalType": "struct ClayLibrary.LibraryAsset",
          "name": "",
          "type": "tuple"
        }
      ],
      "stateMutability": "view",
      "type": "function"
    },
    {
      "inputs": [
        {
          "internalType": "uint256",
          "name": "index",
          "type": "uint256"
        }
      ],
      "name": "getAssetIdByIndex",
      "outputs": [
        {
          "internalType": "string",
          "name": "",
          "type": "string"
        }
      ],
      "stateMutability": "view",
      "type": "function"
    },
    {
      "inputs": [
        {
          "internalType": "string",
          "name": "projectId",
          "type": "string"
        }
      ],
      "name": "getAssetPurchasers",
      "outputs": [
        {
          "internalType": "address[]",
          "name": "",
          "type": "address[]"
        }
      ],
      "stateMutability": "view",
      "type": "function"
    },
    {
      "inputs": [],
      "name": "getTotalAssets",
      "outputs": [
        {
          "internalType": "uint256",
          "name": "",
          "type": "uint256"
        }
      ],
      "stateMutability": "view",
      "type": "function"
    },
    {
      "inputs": [
        {
          "internalType": "address",
          "name": "user",
          "type": "address"
        }
      ],
      "name": "getUserAssets",
      "outputs": [
        {
          "internalType": "string[]",
          "name": "",
          "type": "string[]"
        }
      ],
      "stateMutability": "view",
      "type": "function"
    },
    {
      "inputs": [
        {
          "internalType": "string",
          "name": "",
          "type": "string"
        }
      ],
      "name": "libraryAssets",
      "outputs": [
        {
          "internalType": "string",
          "name": "projectId",
          "type": "string"
        },
        {
          "internalType": "string",
          "name": "name",
          "type": "string"
        },
        {
          "internalType": "string",
          "name": "description",
          "type": "string"
        },
        {
          "internalType": "uint256",
          "name": "priceETH",
          "type": "uint256"
        },
        {
          "internalType": "uint256",
          "name": "priceUSDC",
          "type": "uint256"
        },
        {
          "internalType": "address",
          "name": "currentOwner",
          "type": "address"
        },
        {
          "internalType": "address",
          "name": "originalCreator",
          "type": "address"
        },
        {
          "internalType": "uint256",
          "name": "totalRevenueETH",
          "type": "uint256"
        },
        {
          "internalType": "uint256",
          "name": "totalRevenueUSDC",
          "type": "uint256"
        },
        {
          "internalType": "uint256",
          "name": "purchaseCount",
          "type": "uint256"
        },
        {
          "internalType": "uint256",
          "name": "listedAt",
          "type": "uint256"
        },
        {
          "internalType": "bool",
          "name": "isActive",
          "type": "bool"
        }
      ],
      "stateMutability": "view",
      "type": "function"
    },
    {
      "inputs": [],
      "name": "owner",
      "outputs": [
        {
          "internalType": "address",
          "name": "",
          "type": "address"
        }
      ],
      "stateMutability": "view",
      "type": "function"
    },
    {
      "inputs": [],
      "name": "platformFeePercentage",
      "outputs": [
        {
          "internalType": "uint256",
          "name": "",
          "type": "uint256"
        }
      ],
      "stateMutability": "view",
      "type": "function"
    },
    {
      "inputs": [
        {
          "internalType": "string",
          "name": "projectId",
          "type": "string"
        }
      ],
      "name": "purchaseAssetWithETH",
      "outputs": [],
      "stateMutability": "payable",
      "type": "function"
    },
    {
      "inputs": [
        {
          "internalType": "string",
          "name": "projectId",
          "type": "string"
        }
      ],
      "name": "purchaseAssetWithUSDC",
      "outputs": [],
      "stateMutability": "nonpayable",
      "type": "function"
    },
    {
      "inputs": [
        {
          "internalType": "string",
          "name": "projectId",
          "type": "string"
        },
        {
          "internalType": "string",
          "name": "name",
          "type": "string"
        },
        {
          "internalType": "string",
          "name": "description",
          "type": "string"
        },
        {
          "internalType": "uint256",
          "name": "priceETH",
          "type": "uint256"
        },
        {
          "internalType": "uint256",
          "name": "priceUSDC",
          "type": "uint256"
        }
      ],
      "name": "registerAsset",
      "outputs": [],
      "stateMutability": "nonpayable",
      "type": "function"
    },
    {
      "inputs": [],
      "name": "renounceOwnership",
      "outputs": [],
      "stateMutability": "nonpayable",
      "type": "function"
    },
    {
      "inputs": [],
      "name": "royaltyContract",
      "outputs": [
        {
          "internalType": "contract IClayRoyalty",
          "name": "",
          "type": "address"
        }
      ],
      "stateMutability": "view",
      "type": "function"
    },
    {
      "inputs": [
        {
          "internalType": "address",
          "name": "_royaltyContract",
          "type": "address"
        }
      ],
      "name": "setRoyaltyContract",
      "outputs": [],
      "stateMutability": "nonpayable",
      "type": "function"
    },
    {
      "inputs": [
        {
          "internalType": "string",
          "name": "projectId",
          "type": "string"
        },
        {
          "internalType": "address",
          "name": "newOwner",
          "type": "address"
        }
      ],
      "name": "transferAssetOwnership",
      "outputs": [],
      "stateMutability": "nonpayable",
      "type": "function"
    },
    {
      "inputs": [
        {
          "internalType": "address",
          "name": "newOwner",
          "type": "address"
        }
      ],
      "name": "transferOwnership",
      "outputs": [],
      "stateMutability": "nonpayable",
      "type": "function"
    },
    {
      "inputs": [
        {
          "internalType": "string",
          "name": "projectId",
          "type": "string"
        },
        {
          "internalType": "uint256",
          "name": "newPriceETH",
          "type": "uint256"
        },
        {
          "internalType": "uint256",
          "name": "newPriceUSDC",
          "type": "uint256"
        }
      ],
      "name": "updateAssetPrice",
      "outputs": [],
      "stateMutability": "nonpayable",
      "type": "function"
    },
    {
      "inputs": [
        {
          "internalType": "uint256",
          "name": "newFeePercentage",
          "type": "uint256"
        }
      ],
      "name": "updatePlatformFee",
      "outputs": [],
      "stateMutability": "nonpayable",
      "type": "function"
    },
    {
      "inputs": [],
      "name": "usdcToken",
      "outputs": [
        {
          "internalType": "contract IERC20",
          "name": "",
          "type": "address"
        }
      ],
      "stateMutability": "view",
      "type": "function"
    },
    {
      "inputs": [
        {
          "internalType": "address",
          "name": "",
          "type": "address"
        },
        {
          "internalType": "uint256",
          "name": "",
          "type": "uint256"
        }
      ],
      "name": "userOwnedAssets",
      "outputs": [
        {
          "internalType": "string",
          "name": "",
          "type": "string"
        }
      ],
      "stateMutability": "view",
      "type": "function"
    },
    {
      "inputs": [],
      "name": "withdrawPlatformFeesETH",
      "outputs": [],
      "stateMutability": "nonpayable",
      "type": "function"
    },
    {
      "inputs": [],
      "name": "withdrawPlatformFeesUSDC",
      "outputs": [],
      "stateMutability": "nonpayable",
      "type": "function"
    }
  ],
  "bytecode": "0x60a03461010057601f6200278f38819003918201601f19168301916001600160401b038311848410176101055780849260209460405283398101031261010057516001600160a01b0390818116908190036101005733156100e75760005460018060a01b0319903382821617600055604051933391167f8be0079c531659141344cd1fd0a4f28419497f9722a3daafe3b4186f6b6457e0600080a36001805560fa60075573833589fcd6edb6e08f4c7c32d4f71b54bda02913608052600254161760025561267390816200011c823960805181818161066e01528181610bec0152611dbf0152f35b604051631e4fbdf760e01b815260006004820152602490fd5b600080fd5b634e487b7160e01b600052604160045260246000fdfe6080604052600436101561001257600080fd5b6000803560e01c80630f393baf14611dee57806311eac85514611da95780631663ee0314611d805780632203f8f114611a1557806351618eff146118e75780635d483ab91461189b5780636cb3db25146117845780636e07302b14611766578063715018a61461170c578063765ff0611461160c5780638ada33dc146112e35780638bccf0091461125c5780638c5deff8146111ed5780638da5cb5b146111c65780639c5218381461113f5780639ff95b8e1461105a578063aa0b598814610ff0578063bb09d9b714610fc1578063cd5286d014610d9f578063cdd78cfc14610d81578063d73792a914610d64578063d9aa187c14610d24578063dceb768614610bb3578063e814d66b14610b66578063f2fde38b14610adb578063fb055846146105895763ff6c0dde1461014657600080fd5b346105865760a0366003190112610586576001600160401b0360043581811161058257610177903690600401611f96565b90602491823582811161057e57610192903690600401611f96565b9160443590811161057e576101ab903690600401611f96565b926064359360843583511561053a578515801590610531575b6101cd906121d8565b60405160ff600b865192602081818a01956101e9818389612164565b810160038152030190200154166104ed576002546001600160a01b031680610401575b506040519261021a84611f3e565b85845260208401928784526040850191825260608501908982526080860190815260a086019133835260c087019333855260e08801958d87528d6101008a01528d6101208a0152426101408a01526101608901600190526040518080928d51809261028492612164565b81016003815203602001902096885161029d9089612298565b516102ab9060018901612298565b516102b99060028801612298565b5160038601555160048501556005840190600160a01b60019003905116906001600160601b0360a01b91828254161790556006840191600160a01b600190039051169082541617905551600782015561010082015160088201556101208201516009820155610140820151600a820155600b01906101600151151560ff198254169060ff1617905533855260056020528160408620906103589161235f565b600654600160401b8110156103ec578060016103779201600655611ff8565b9190916103d85750816103ae7f585d38ebcb0fe93ced4d64fbb112388b85b7726e7d87c5142521434d4f122384936103b393612298565b61238c565b916103c960405191604083526040830190612187565b9360208201528033940390a380f35b634e487b7160e01b60005260006004526000fd5b50634e487b7160e01b60009081526041600452fd5b6020604051809263010d358360e21b8252606060048301528180610428606482018c612187565b8d8b83015288604483015203915afa9081156104e25789916104b3575b5015610451573861020c565b60405162461bcd60e51b8152602060048201526035818601527f50726963652062656c6f77206d696e696d756d20286d75737420636f76657220604482015274646570656e64656e637920726f79616c746965732960581b6064820152608490fd5b6104d5915060203d6020116104db575b6104cd8183611f5a565b810190612224565b38610445565b503d6104c3565b6040513d8b823e3d90fd5b60405162461bcd60e51b8152602060048201526018818601527f417373657420616c7265616479207265676973746572656400000000000000006044820152606490fd5b508015156101c4565b60405162461bcd60e51b815260206004820152601a818501527f50726f6a6563742049442063616e6e6f7420626520656d7074790000000000006044820152606490fd5b8480fd5b8280fd5b80fd5b5034610586576020806003193601126108ac576004356001600160401b038111610582576105bb903690600401611f96565b6105c36124fe565b604051918151928181818501956105db818389612164565b81016003815203019020926105f660ff600b860154166123ac565b60048401938454918215610a85576002546001600160a01b0392889291841680610a12575b5061063661271061062e60075488612427565b04809661243a565b6005820180546040516323b872dd60e01b8082523360048301529188166001600160a01b0316602482015260448101939093529094917f0000000000000000000000000000000000000000000000000000000000000000871691908c908a8160648185885af180156108a157826106ba8c928e946106e496916109f5575b50612477565b60405185815233600482015230602482015260448101929092529092839190829081906064820190565b0391875af19081156109ea578d916109cd575b501561098857826107b3575b505050600990885461071a60088301918254612404565b9055018054906001820180921161079f5761076894939261075e9261074a92556040519182918a51928391612164565b8101906004825287813393030190206124c3565b541694549361238c565b916040519384528301527f9f1cf37e6808c30667b45ef497cdbe9240ff2b62734e74189ac2c7f4a76d487d60403393a46001805580f35b634e487b7160e01b8a52601160045260248afd5b6040519081523360048201523060248201526044810183905288816064818f865af190811561097d578c91610960575b501561090f5760025460405163095ea7b360e01b81529087166001600160a01b03166004820152602481019290925287908290818d816044810103925af1908115610904578a916108e7575b50156108b057888460025416803b156108ac578161086d81928b604051948580948193635069818160e01b8352604060048401526044830190612187565b6001602483015203925af180156108a157610889575b80610703565b61089290611f15565b61089d578838610883565b8880fd5b6040513d84823e3d90fd5b5080fd5b60405162461bcd60e51b815260048101879052600f60248201526e105c1c1c9bdd985b0819985a5b1959608a1b6044820152606490fd5b6108fe9150873d89116104db576104cd8183611f5a565b3861082f565b6040513d8c823e3d90fd5b60405162461bcd60e51b815260048101899052602360248201527f526f79616c7479207472616e7366657220746f20636f6e7472616374206661696044820152621b195960ea1b6064820152608490fd5b6109779150893d8b116104db576104cd8183611f5a565b386107e3565b6040513d8e823e3d90fd5b60405162461bcd60e51b8152600481018a9052601c60248201527f506c6174666f726d20666565207472616e73666572206661696c6564000000006044820152606490fd5b6109e491508a3d8c116104db576104cd8183611f5a565b386106f7565b6040513d8f823e3d90fd5b610a0c9150853d87116104db576104cd8183611f5a565b386106b4565b90925060408051809263e2b3a4d360e01b82528860048301528180610a3a602482018d612187565b03915afa9081156104e2578991610a54575b50913861061b565b610a76915060403d604011610a7e575b610a6e8183611f5a565b8101906123ee565b905038610a4c565b503d610a64565b60405162461bcd60e51b815260048101859052602860248201527f55534443207061796d656e74206e6f7420616363657074656420666f722074686044820152671a5cc8185cdcd95d60c21b6064820152608490fd5b503461058657602036600319011261058657610af5611fe2565b610afd6121ac565b6001600160a01b03908116908115610b4d57600054826001600160601b0360a01b821617600055167f8be0079c531659141344cd1fd0a4f28419497f9722a3daafe3b4186f6b6457e0600080a380f35b604051631e4fbdf760e01b815260048101849052602490fd5b5034610586576020366003190112610586576004359060065482101561058657610baf610b9b610b9584611ff8565b9061213d565b604051918291602083526020830190612187565b0390f35b5034610586578060031936011261058657610bcc6121ac565b6040516370a0823160e01b81523060048201526020906001600160a01b037f00000000000000000000000000000000000000000000000000000000000000008116908383602481855afa928315610d19578593610cea575b508215610ca557845460405163a9059cbb60e01b815291166001600160a01b031660048201526024810192909252829082908186816044810103925af1908115610c9a57610c7a928492610c7d575b5050612521565b80f35b610c939250803d106104db576104cd8183611f5a565b3880610c73565b6040513d85823e3d90fd5b60405162461bcd60e51b815260048101859052601860248201527f4e6f2055534443206665657320746f20776974686472617700000000000000006044820152606490fd5b9092508381813d8311610d12575b610d028183611f5a565b8101031261057e57519138610c24565b503d610cf8565b6040513d87823e3d90fd5b503461058657602036600319011261058657610d3e611fe2565b610d466121ac565b60018060a01b03166001600160601b0360a01b600254161760025580f35b503461058657806003193601126105865760206040516127108152f35b50346105865780600319360112610586576020600754604051908152f35b5034610586576020366003190112610586576004356001600160401b0381116108ac57610e3f91610dd66020923690600401611f96565b90610160604051610de681611f3e565b60608152606085820152606060408201528260608201528260808201528260a08201528260c08201528260e082015282610100820152826101208201528261014082015201528160405193828580945193849201612164565b8101600381520301902060ff600b60405192610e5a84611f3e565b610e6381612097565b8452610e7160018201612097565b6020850152610e8260028201612097565b6040850152600381015460608501526004810154608085015260018060a01b0360058201541660a085015260018060a01b0360068201541660c0850152600781015460e085015260088101546101008501526009810154610120850152600a8101546101408501520154161515610160820152604051809160208252610160610f4d610f1c835161018060208701526101a0860190612187565b610f38602085015191601f199283888303016040890152612187565b90604085015190868303016060870152612187565b9160608101516080850152608081015160a085015260018060a01b0360a08201511660c085015260018060a01b0360c08201511660e085015260e081015161010085015261010081015161012085015261012081015161014085015261014081015182850152015115156101808301520390f35b5034610586578060031936011261058657602060405173833589fcd6edb6e08f4c7c32d4f71b54bda029138152f35b50346105865760203660031901126105865760043561100d6121ac565b6103e8811161101c5760075580f35b60405162461bcd60e51b815260206004820152601660248201527546656520746f6f206869676820286d6178203130252960501b6044820152606490fd5b5034610586576020806003193601126108ac576004356001600160401b03811161058257816110906110a3923690600401611f96565b8160405193828580945193849201612164565b8101600481520301902060405192838383549182815201908193835284832090835b81811061112257505050846110db910385611f5a565b60405193838594850191818652518092526040850193925b82811061110257505050500390f35b83516001600160a01b0316855286955093810193928101926001016110f3565b82546001600160a01b0316845292860192600192830192016110c5565b50346105865780600319360112610586576111586121ac565b4780156111815781808080610c7a9460018060a01b038254165af161117b612447565b50612521565b60405162461bcd60e51b815260206004820152601760248201527f4e6f20455448206665657320746f2077697468647261770000000000000000006044820152606490fd5b5034610586578060031936011261058657546040516001600160a01b039091168152602090f35b50346105865760203660031901126105865760043560065481101561122157610b9b61121b610baf92611ff8565b50612097565b60405162461bcd60e51b8152602060048201526013602482015272496e646578206f7574206f6620626f756e647360681b6044820152606490fd5b5034610586576040366003190112610586576004356001600160401b0381116108ac5761128d903690600401611f96565b906112aa6020602435938160405193828580945193849201612164565b810160048152030190209081548310156105865760206112ca8484612045565b905460405160039290921b1c6001600160a01b03168152f35b506020806003193601126108ac576004356001600160401b03811161058257611310903690600401611f96565b6113186124fe565b60405191815192818181850195611330818389612164565b810160038152030190209261134b60ff600b860154166123ac565b600384019384549081156115b7576002546001600160a01b0392889184169081611552575b8261137a91612404565b918234106114fc57808a9161149f575b50505086549360096113ac6127106113a460075489612427565b04809761243a565b936113c78b80808060058601998b8b54165af16106b4612447565b89546113d860078301918254612404565b9055018054906001820180921161148b57878b9493611418936114079355604051809381928d51928391612164565b8101600481520301902033906124c3565b803411611431575b50509061076891541694549361238c565b818061143e81933461243a565b335af1611449612447565b5015611456578638611420565b60405162461bcd60e51b815260048101859052600d60248201526c1499599d5b990819985a5b1959609a1b6044820152606490fd5b634e487b7160e01b8b52601160045260248bfd5b823b156108ac5760405192838092635069818160e01b825260406004830152816114cd8d6044830190612187565b86602483015203925af180156104e2576114e9575b888161138a565b6114f590989198611f15565b96386114e2565b60405162461bcd60e51b815260048101889052602860248201527f496e73756666696369656e74207061796d656e7420287072696365202b20726f60448201526779616c746965732960c01b6064820152608490fd5b915060405163e2b3a4d360e01b815286600482015260408180611578602482018c612187565b0381855afa80156109045761137a918b91611597575b50929050611370565b6115b0915060403d604011610a7e57610a6e8183611f5a565b503861158e565b60405162461bcd60e51b815260048101859052602760248201527f455448207061796d656e74206e6f7420616363657074656420666f72207468696044820152661cc8185cdcd95d60ca1b6064820152608490fd5b5034610586576020806003193601126108ac576001600160a01b0361162f611fe2565b168252600581526040822080546001600160401b0381116116f85791926040519261165f858260051b0185611f5a565b8084528484018093835285832083915b8383106116d45750505050604051928484019085855251809152604084019460408260051b8601019392955b8287106116a85785850386f35b9091929382806116c4600193603f198a82030186528851612187565b960192019601959291909261169b565b60018881926116e6859b9a989b612097565b8152019201920191909693959661166f565b634e487b7160e01b84526041600452602484fd5b50346105865780600319360112610586576117256121ac565b80546001600160a01b03198116825581906001600160a01b03167f8be0079c531659141344cd1fd0a4f28419497f9722a3daafe3b4186f6b6457e08280a380f35b50346105865780600319360112610586576020600654604051908152f35b503461058657602036600319011261058657600435906001600160401b038211610586576117ba60206110903660048601611f96565b810160038152030190206118476117d082612097565b916117dd60018201612097565b926117ea60028301612097565b91600381015492600482015460018060a01b03806005850154169060068501541660078501549160088601549361186360098801549661185560ff600b600a8c01549b0154169a6040519e8f9e8f92610180808552840190612187565b916020818403910152612187565b8c810360408e015290612187565b9860608b015260808a015260a089015260c088015260e087015261010086015261012085015261014084015215156101608301520390f35b5034610586576040366003190112610586576118b5611fe2565b6001600160a01b031681526005602052604081208054602435929083101561058657610baf610b9b610b958585612045565b5034610586576020366003190112610586576004356001600160401b0381116108ac57611918903690600401611f96565b604051602081835161192d8183858801612164565b81016003815203019020600b81019081549060ff8216156119d757600501546001600160a01b031633036119925760ff1916905561196b339161238c565b7fbf7659f4659900a03fed4ad2fc77c3602180b8afcf682077f6e38e88d0cf58f48380a380f35b60405162461bcd60e51b815260206004820152601960248201527f4f6e6c79206f776e65722063616e2064656163746976617465000000000000006044820152606490fd5b60405162461bcd60e51b8152602060048201526016602482015275417373657420616c726561647920696e61637469766560501b6044820152606490fd5b5034610586576040366003190112610586576004356001600160401b0381116108ac57611a46903690600401611f96565b6024916001600160a01b039183358381168103610582576040516020818451611a728183858901612164565b8101600381520301902093611a8d60ff600b870154166123ac565b8060058601541691823303611d3c5781811615611d045782855260056020526040852095855b875480821015611cf157611ac7828a612045565b5060405190818a825492611ada8461205d565b8084529360018116908115611ccf5750600114611c91575b50611aff92500382611f5a565b602081519101208751602089012014611b3757506000198114611b2457600101611ab3565b634e487b7160e01b875260116004528887fd5b90600098929394959697981991828101908111611c7e57611b5b611b639185612045565b509184612045565b919091611c6b57611b7391612561565b81548015611c58570190611b878282612045565b999099611c4657508789611ba1611be198999a9b5461205d565b80611c08575b505050555b600590810180546001600160a01b031916838516908117909155875260205260408620611bda90869061235f565b169261238c565b7f6840904f5b31827f74e1497360da245f56e530c8c3de3163a2d31f11493273c68480a480f35b82601f808311600114611c2257505050555b883880611ba7565b83825260208220939192611c3f910160051c84016001850161223c565b5555611c1a565b634e487b7160e01b8952600489905288fd5b634e487b7160e01b895260316004528989fd5b634e487b7160e01b8a5260048a90528a8afd5b634e487b7160e01b8a5260116004528a8afd5b8c52505060208a208a91905b818310611cb6575050816020611aff9282010138611af2565b8054602084860181019190915290920191600101611c9d565b905060209250611aff94915060ff191682840152151560051b82010138611af2565b5050909192949650611be1939550611bac565b60405162461bcd60e51b8152602060048201526011818901527024b73b30b634b2103732bb9037bbb732b960791b6044820152606490fd5b60405162461bcd60e51b815260206004820152601f818901527f4f6e6c792063757272656e74206f776e65722063616e207472616e73666572006044820152606490fd5b50346105865780600319360112610586576002546040516001600160a01b039091168152602090f35b50346105865780600319360112610586576040517f00000000000000000000000000000000000000000000000000000000000000006001600160a01b03168152602090f35b5034610586576060366003190112610586576004356001600160401b0381116108ac57611e1f903690600401611f96565b60243590604435906040516020818351611e3c8183858801612164565b81016003815203019020611e5660ff600b830154166123ac565b60058101546001600160a01b03163303611ed057611eb86040927f6f614e54fafe71f7c0a065e36894602ca7ed071e7be8df9bade0418e775fac56948615801590611ec7575b611ea5906121d8565b600460038501948886549655015561238c565b9382519182526020820152a280f35b50801515611e9c565b60405162461bcd60e51b815260206004820152601b60248201527f4f6e6c79206f776e65722063616e2075706461746520707269636500000000006044820152606490fd5b6001600160401b038111611f2857604052565b634e487b7160e01b600052604160045260246000fd5b61018081019081106001600160401b03821117611f2857604052565b90601f801991011681019081106001600160401b03821117611f2857604052565b6001600160401b038111611f2857601f01601f191660200190565b81601f82011215611fdd57803590611fad82611f7b565b92611fbb6040519485611f5a565b82845260208383010111611fdd57816000926020809301838601378301015290565b600080fd5b600435906001600160a01b0382168203611fdd57565b60065481101561202f5760066000527ff652222313e28459528d920b65115c16c04f3efc82aaedc97be59f3f377c0d3f0190600090565b634e487b7160e01b600052603260045260246000fd5b805482101561202f5760005260206000200190600090565b90600182811c9216801561208d575b602083101461207757565b634e487b7160e01b600052602260045260246000fd5b91607f169161206c565b90604051918260008254926120ab8461205d565b90818452600194858116908160001461211a57506001146120d7575b50506120d592500383611f5a565b565b9093915060005260209081600020936000915b8183106121025750506120d5935082010138806120c7565b855488840185015294850194879450918301916120ea565b9150506120d594506020925060ff191682840152151560051b82010138806120c7565b9061214e5761214b90612097565b90565b634e487b7160e01b600052600060045260246000fd5b60005b8381106121775750506000910152565b8181015183820152602001612167565b906020916121a081518092818552858086019101612164565b601f01601f1916010190565b6000546001600160a01b031633036121c057565b60405163118cdaa760e01b8152336004820152602490fd5b156121df57565b60405162461bcd60e51b815260206004820152601e60248201527f4174206c65617374206f6e65207072696365206d7573742062652073657400006044820152606490fd5b90816020910312611fdd57518015158103611fdd5790565b818110612247575050565b6000815560010161223c565b9190601f811161226257505050565b6120d5926000526020600020906020601f840160051c8301931061228e575b601f0160051c019061223c565b9091508190612281565b91909182516001600160401b038111611f28576122bf816122b9845461205d565b84612253565b602080601f83116001146122fb5750819293946000926122f0575b50508160011b916000199060031b1c1916179055565b0151905038806122da565b90601f198316958460005282600020926000905b8882106123475750508360019596971061232e575b505050811b019055565b015160001960f88460031b161c19169055388080612324565b8060018596829496860151815501950193019061230f565b8054600160401b811015611f285761237c91600182018155612045565b91909161214e576120d591612298565b6123a490602060405192828480945193849201612164565b810103902090565b156123b357565b60405162461bcd60e51b81526020600482015260136024820152724173736574206e6f7420617661696c61626c6560681b6044820152606490fd5b9190826040910312611fdd576020825192015190565b9190820180921161241157565b634e487b7160e01b600052601160045260246000fd5b8181029291811591840414171561241157565b9190820391821161241157565b3d15612472573d9061245882611f7b565b916124666040519384611f5a565b82523d6000602084013e565b606090565b1561247e57565b60405162461bcd60e51b815260206004820152601760248201527f5061796d656e7420746f206f776e6572206661696c65640000000000000000006044820152606490fd5b8054600160401b811015611f28576124e091600182018155612045565b819291549060031b9160018060a01b03809116831b921b1916179055565b60026001541461250f576002600155565b604051633ee5aeb560e01b8152600490fd5b1561252857565b60405162461bcd60e51b815260206004820152601160248201527015da5d1a191c985dd85b0819985a5b1959607a1b6044820152606490fd5b9080821461263957612573815461205d565b906001600160401b038211611f2857819061259882612592865461205d565b86612253565b600090601f83116001146125ce576000926125c35750508160011b916000199060031b1c1916179055565b0154905038806122da565b81526020808220858352818320935090601f1985169083905b82821061262057505090846001959493921061260757505050811b019055565b015460001960f88460031b161c19169055388080612324565b84958192958501548155600180910196019401906125e7565b505056fea2646970667358221220283627ebd2a6cc7f030d612e7c00b1d1c537176848b42f388fec5ed42826b4f164736f6c63430008140033",
  "linkReferences": {},
  "deployedLinkReferences": {}
}