{
  "_format": "hh-sol-artifact-1",
  "contractName": "ClayLibrary",
  "sourceName": "ClayLibrary.sol",
  "abi": [
    {
      "inputs": [
        {
          "internalType": "address",
          "name": "_royaltyContract",
          "type": "address"
        }
      ],
      "stateMutability": "nonpayable",
      "type": "constructor"
    },
    {
      "inputs": [
        {
          "internalType": "address",
          "name": "owner",
          "type": "address"
        }
      ],
      "name": "OwnableInvalidOwner",
      "type": "error"
    },
    {
      "inputs": [
        {
          "internalType": "address",
          "name": "account",
          "type": "address"
        }
      ],
      "name": "OwnableUnauthorizedAccount",
      "type": "error"
    },
    {
      "inputs": [],
      "name": "ReentrancyGuardReentrantCall",
      "type": "error"
    },
    {
      "anonymous": false,
      "inputs": [
        {
          "indexed": true,
          "internalType": "string",
          "name": "projectId",
          "type": "string"
        },
        {
          "indexed": true,
          "internalType": "address",
          "name": "owner",
          "type": "address"
        }
      ],
      "name": "AssetDeleted",
      "type": "event"
    },
    {
      "anonymous": false,
      "inputs": [
        {
          "indexed": true,
          "internalType": "string",
          "name": "projectId",
          "type": "string"
        },
        {
          "indexed": true,
          "internalType": "address",
          "name": "creator",
          "type": "address"
        },
        {
          "indexed": false,
          "internalType": "string",
          "name": "name",
          "type": "string"
        },
        {
          "indexed": false,
          "internalType": "uint256",
          "name": "price",
          "type": "uint256"
        }
      ],
      "name": "AssetRegistered",
      "type": "event"
    },
    {
      "anonymous": false,
      "inputs": [
        {
          "indexed": true,
          "internalType": "address",
          "name": "previousOwner",
          "type": "address"
        },
        {
          "indexed": true,
          "internalType": "address",
          "name": "newOwner",
          "type": "address"
        }
      ],
      "name": "OwnershipTransferStarted",
      "type": "event"
    },
    {
      "anonymous": false,
      "inputs": [
        {
          "indexed": true,
          "internalType": "address",
          "name": "previousOwner",
          "type": "address"
        },
        {
          "indexed": true,
          "internalType": "address",
          "name": "newOwner",
          "type": "address"
        }
      ],
      "name": "OwnershipTransferred",
      "type": "event"
    },
    {
      "anonymous": false,
      "inputs": [
        {
          "indexed": true,
          "internalType": "string",
          "name": "projectId",
          "type": "string"
        },
        {
          "indexed": true,
          "internalType": "address",
          "name": "previousOwner",
          "type": "address"
        },
        {
          "indexed": true,
          "internalType": "address",
          "name": "newOwner",
          "type": "address"
        }
      ],
      "name": "OwnershipTransferred",
      "type": "event"
    },
    {
      "anonymous": false,
      "inputs": [
        {
          "indexed": true,
          "internalType": "string",
          "name": "projectId",
          "type": "string"
        },
        {
          "indexed": true,
          "internalType": "address",
          "name": "owner",
          "type": "address"
        }
      ],
      "name": "RoyaltyDisabled",
      "type": "event"
    },
    {
      "anonymous": false,
      "inputs": [
        {
          "indexed": true,
          "internalType": "string",
          "name": "projectId",
          "type": "string"
        },
        {
          "indexed": false,
          "internalType": "uint256",
          "name": "newRoyaltyETH",
          "type": "uint256"
        },
        {
          "indexed": false,
          "internalType": "uint256",
          "name": "newRoyaltyUSDC",
          "type": "uint256"
        }
      ],
      "name": "RoyaltyFeeUpdated",
      "type": "event"
    },
    {
      "inputs": [],
      "name": "FEE_DENOMINATOR",
      "outputs": [
        {
          "internalType": "uint256",
          "name": "",
          "type": "uint256"
        }
      ],
      "stateMutability": "view",
      "type": "function"
    },
    {
      "inputs": [],
      "name": "USDC_ADDRESS",
      "outputs": [
        {
          "internalType": "address",
          "name": "",
          "type": "address"
        }
      ],
      "stateMutability": "view",
      "type": "function"
    },
    {
      "inputs": [],
      "name": "acceptOwnership",
      "outputs": [],
      "stateMutability": "nonpayable",
      "type": "function"
    },
    {
      "inputs": [
        {
          "internalType": "uint256",
          "name": "",
          "type": "uint256"
        }
      ],
      "name": "allAssetIds",
      "outputs": [
        {
          "internalType": "string",
          "name": "",
          "type": "string"
        }
      ],
      "stateMutability": "view",
      "type": "function"
    },
    {
      "inputs": [
        {
          "internalType": "address",
          "name": "",
          "type": "address"
        }
      ],
      "name": "approvedMarketplaces",
      "outputs": [
        {
          "internalType": "bool",
          "name": "",
          "type": "bool"
        }
      ],
      "stateMutability": "view",
      "type": "function"
    },
    {
      "inputs": [
        {
          "internalType": "string",
          "name": "projectId",
          "type": "string"
        }
      ],
      "name": "deleteAsset",
      "outputs": [],
      "stateMutability": "nonpayable",
      "type": "function"
    },
    {
      "inputs": [
        {
          "internalType": "string",
          "name": "projectId",
          "type": "string"
        }
      ],
      "name": "disableRoyalty",
      "outputs": [],
      "stateMutability": "nonpayable",
      "type": "function"
    },
    {
      "inputs": [
        {
          "internalType": "string",
          "name": "projectId",
          "type": "string"
        }
      ],
      "name": "enableRoyalty",
      "outputs": [],
      "stateMutability": "nonpayable",
      "type": "function"
    },
    {
      "inputs": [
        {
          "internalType": "string",
          "name": "projectId",
          "type": "string"
        }
      ],
      "name": "getAsset",
      "outputs": [
        {
          "components": [
            {
              "internalType": "string",
              "name": "projectId",
              "type": "string"
            },
            {
              "internalType": "string",
              "name": "name",
              "type": "string"
            },
            {
              "internalType": "string",
              "name": "description",
              "type": "string"
            },
            {
              "internalType": "uint256",
              "name": "royaltyPerImportETH",
              "type": "uint256"
            },
            {
              "internalType": "uint256",
              "name": "royaltyPerImportUSDC",
              "type": "uint256"
            },
            {
              "internalType": "address",
              "name": "currentOwner",
              "type": "address"
            },
            {
              "internalType": "address",
              "name": "originalCreator",
              "type": "address"
            },
            {
              "internalType": "uint256",
              "name": "listedAt",
              "type": "uint256"
            },
            {
              "internalType": "bool",
              "name": "exists",
              "type": "bool"
            },
            {
              "internalType": "bool",
              "name": "royaltyEnabled",
              "type": "bool"
            }
          ],
          "internalType": "struct ClayLibrary.LibraryAsset",
          "name": "",
          "type": "tuple"
        }
      ],
      "stateMutability": "view",
      "type": "function"
    },
    {
      "inputs": [
        {
          "internalType": "uint256",
          "name": "index",
          "type": "uint256"
        }
      ],
      "name": "getAssetIdByIndex",
      "outputs": [
        {
          "internalType": "string",
          "name": "",
          "type": "string"
        }
      ],
      "stateMutability": "view",
      "type": "function"
    },
    {
      "inputs": [
        {
          "internalType": "string",
          "name": "projectId",
          "type": "string"
        }
      ],
      "name": "getCurrentOwner",
      "outputs": [
        {
          "internalType": "address",
          "name": "",
          "type": "address"
        }
      ],
      "stateMutability": "view",
      "type": "function"
    },
    {
      "inputs": [
        {
          "internalType": "string",
          "name": "projectId",
          "type": "string"
        }
      ],
      "name": "getLibraryDependencies",
      "outputs": [
        {
          "internalType": "string[]",
          "name": "",
          "type": "string[]"
        }
      ],
      "stateMutability": "view",
      "type": "function"
    },
    {
      "inputs": [
        {
          "internalType": "string",
          "name": "projectId",
          "type": "string"
        }
      ],
      "name": "getRoyaltyFee",
      "outputs": [
        {
          "internalType": "uint256",
          "name": "royaltyETH",
          "type": "uint256"
        },
        {
          "internalType": "uint256",
          "name": "royaltyUSDC",
          "type": "uint256"
        }
      ],
      "stateMutability": "view",
      "type": "function"
    },
    {
      "inputs": [],
      "name": "getTotalAssets",
      "outputs": [
        {
          "internalType": "uint256",
          "name": "",
          "type": "uint256"
        }
      ],
      "stateMutability": "view",
      "type": "function"
    },
    {
      "inputs": [
        {
          "internalType": "address",
          "name": "user",
          "type": "address"
        }
      ],
      "name": "getUserAssets",
      "outputs": [
        {
          "internalType": "string[]",
          "name": "",
          "type": "string[]"
        }
      ],
      "stateMutability": "view",
      "type": "function"
    },
    {
      "inputs": [
        {
          "internalType": "string",
          "name": "",
          "type": "string"
        }
      ],
      "name": "libraryAssets",
      "outputs": [
        {
          "internalType": "string",
          "name": "projectId",
          "type": "string"
        },
        {
          "internalType": "string",
          "name": "name",
          "type": "string"
        },
        {
          "internalType": "string",
          "name": "description",
          "type": "string"
        },
        {
          "internalType": "uint256",
          "name": "royaltyPerImportETH",
          "type": "uint256"
        },
        {
          "internalType": "uint256",
          "name": "royaltyPerImportUSDC",
          "type": "uint256"
        },
        {
          "internalType": "address",
          "name": "currentOwner",
          "type": "address"
        },
        {
          "internalType": "address",
          "name": "originalCreator",
          "type": "address"
        },
        {
          "internalType": "uint256",
          "name": "listedAt",
          "type": "uint256"
        },
        {
          "internalType": "bool",
          "name": "exists",
          "type": "bool"
        },
        {
          "internalType": "bool",
          "name": "royaltyEnabled",
          "type": "bool"
        }
      ],
      "stateMutability": "view",
      "type": "function"
    },
    {
      "inputs": [
        {
          "internalType": "string",
          "name": "",
          "type": "string"
        },
        {
          "internalType": "uint256",
          "name": "",
          "type": "uint256"
        }
      ],
      "name": "libraryDependencies",
      "outputs": [
        {
          "internalType": "string",
          "name": "",
          "type": "string"
        }
      ],
      "stateMutability": "view",
      "type": "function"
    },
    {
      "inputs": [],
      "name": "owner",
      "outputs": [
        {
          "internalType": "address",
          "name": "",
          "type": "address"
        }
      ],
      "stateMutability": "view",
      "type": "function"
    },
    {
      "inputs": [],
      "name": "pendingOwner",
      "outputs": [
        {
          "internalType": "address",
          "name": "",
          "type": "address"
        }
      ],
      "stateMutability": "view",
      "type": "function"
    },
    {
      "inputs": [],
      "name": "platformFeePercentage",
      "outputs": [
        {
          "internalType": "uint256",
          "name": "",
          "type": "uint256"
        }
      ],
      "stateMutability": "view",
      "type": "function"
    },
    {
      "inputs": [
        {
          "internalType": "string",
          "name": "projectId",
          "type": "string"
        },
        {
          "internalType": "string",
          "name": "name",
          "type": "string"
        },
        {
          "internalType": "string",
          "name": "description",
          "type": "string"
        },
        {
          "internalType": "uint256",
          "name": "royaltyPerImportETH",
          "type": "uint256"
        },
        {
          "internalType": "uint256",
          "name": "royaltyPerImportUSDC",
          "type": "uint256"
        },
        {
          "internalType": "string[]",
          "name": "dependencyProjectIds",
          "type": "string[]"
        }
      ],
      "name": "registerAsset",
      "outputs": [],
      "stateMutability": "nonpayable",
      "type": "function"
    },
    {
      "inputs": [],
      "name": "renounceOwnership",
      "outputs": [],
      "stateMutability": "nonpayable",
      "type": "function"
    },
    {
      "inputs": [],
      "name": "royaltyContract",
      "outputs": [
        {
          "internalType": "contract IClayRoyalty",
          "name": "",
          "type": "address"
        }
      ],
      "stateMutability": "view",
      "type": "function"
    },
    {
      "inputs": [
        {
          "internalType": "address",
          "name": "marketplace",
          "type": "address"
        },
        {
          "internalType": "bool",
          "name": "approved",
          "type": "bool"
        }
      ],
      "name": "setApprovedMarketplace",
      "outputs": [],
      "stateMutability": "nonpayable",
      "type": "function"
    },
    {
      "inputs": [
        {
          "internalType": "address",
          "name": "_royaltyContract",
          "type": "address"
        }
      ],
      "name": "setRoyaltyContract",
      "outputs": [],
      "stateMutability": "nonpayable",
      "type": "function"
    },
    {
      "inputs": [
        {
          "internalType": "string",
          "name": "projectId",
          "type": "string"
        },
        {
          "internalType": "address",
          "name": "newOwner",
          "type": "address"
        }
      ],
      "name": "transferAssetOwnership",
      "outputs": [],
      "stateMutability": "nonpayable",
      "type": "function"
    },
    {
      "inputs": [
        {
          "internalType": "address",
          "name": "newOwner",
          "type": "address"
        }
      ],
      "name": "transferOwnership",
      "outputs": [],
      "stateMutability": "nonpayable",
      "type": "function"
    },
    {
      "inputs": [
        {
          "internalType": "string",
          "name": "projectId",
          "type": "string"
        },
        {
          "internalType": "uint256",
          "name": "newRoyaltyETH",
          "type": "uint256"
        },
        {
          "internalType": "uint256",
          "name": "newRoyaltyUSDC",
          "type": "uint256"
        }
      ],
      "name": "updateRoyaltyFee",
      "outputs": [],
      "stateMutability": "nonpayable",
      "type": "function"
    },
    {
      "inputs": [],
      "name": "usdcToken",
      "outputs": [
        {
          "internalType": "contract IERC20",
          "name": "",
          "type": "address"
        }
      ],
      "stateMutability": "view",
      "type": "function"
    },
    {
      "inputs": [
        {
          "internalType": "address",
          "name": "",
          "type": "address"
        },
        {
          "internalType": "uint256",
          "name": "",
          "type": "uint256"
        }
      ],
      "name": "userOwnedAssets",
      "outputs": [
        {
          "internalType": "string",
          "name": "",
          "type": "string"
        }
      ],
      "stateMutability": "view",
      "type": "function"
    }
  ],
  "bytecode": "0x60a0346100f857601f6120c138819003918201601f19168301916001600160401b038311848410176100fd578084926020946040528339810103126100f857516001600160a01b0390818116908190036100f85733156100df5760018060a01b031980600154166001556000543382821617600055604051933391167f8be0079c531659141344cd1fd0a4f28419497f9722a3daafe3b4186f6b6457e0600080a3600160025560fa60095573833589fcd6edb6e08f4c7c32d4f71b54bda029136080526003541617600355611fad90816101148239608051816118220152f35b604051631e4fbdf760e01b815260006004820152602490fd5b600080fd5b634e487b7160e01b600052604160045260246000fdfe6080604052600436101561001257600080fd5b60003560e01c8063078a0d1d146118c15780630a741a541461185157806311eac8551461180c5780631663ee03146117e35780631741cfc01461169f5780632203f8f11461134a578063543a9eb91461130b5780635d483ab9146112be578063675bfec1146111b85780636cb3db25146110a55780636e07302b14611087578063715018a614611022578063765ff06114610f9957806379ba509714610f155780638c5deff814610ea75780638da5cb5b14610e7e578063bb09d9b714610e4f578063bbf46b8414610df6578063cd5286d014610c0c578063cdd78cfc14610bee578063d55a772d14610ba2578063d73792a914610b85578063d9578f701461051a578063d9aa187c146104d7578063e24aa37c146103ec578063e30c3978146103c3578063e814d66b14610378578063ea608c9c1461021c578063edd91367146101d65763f2fde38b1461016657600080fd5b346101d15760203660031901126101d15761017f611bed565b610187611c1a565b60018060a01b0380911690816001600160601b0360a01b6001541617600155600054167f38d16b8cac22d99fc7c124b9cd0de2d3fa1faef420bfe791d8c362d765e22700600080a3005b600080fd5b346101d15760203660031901126101d1576004356001600160401b0381116101d15761021061020b6040923690600401611997565b611e0c565b82519182526020820152f35b346101d1576020806003193601126101d1576004356001600160401b0381116101d15761024d903690600401611997565b6040518281835161026181838588016119ed565b810160058152030190209060088201805461027e60ff8216611dce565b60ff8160081c166103335760058401546001600160a01b031633036102ee57917f59e8620b0742a7acf1fa2c6236758d97e05221785068ee1ef79e8dde26cb755f939161010060409461ff0019161790556102e26004600384015493015491611dae565b948351928352820152a2005b60405162461bcd60e51b815260048101869052601d60248201527f4f6e6c79206f776e65722063616e20656e61626c6520726f79616c74790000006044820152606490fd5b60405162461bcd60e51b815260048101869052601760248201527f526f79616c747920616c726561647920656e61626c65640000000000000000006044820152606490fd5b346101d15760203660031901126101d1576004356007548110156101d1576103ab6103a56103bf92611a97565b90611bdc565b604051918291602083526020830190611a10565b0390f35b346101d15760003660031901126101d1576001546040516001600160a01b039091168152602090f35b346101d15760203660031901126101d1576004356001600160401b0381116101d15761041c903690600401611997565b604051602081835161043181838588016119ed565b81016005815203019020600881019081549061044f60ff8316611dce565b600501546001600160a01b0316330361049a5761ffff191690556104733391611dae565b7fb50a82962555cb439c53739ec19c159c2039e25705651a754caa0857168116e5600080a3005b60405162461bcd60e51b81526020600482015260156024820152744f6e6c79206f776e65722063616e2064656c65746560581b6044820152606490fd5b346101d15760203660031901126101d1576104f0611bed565b6104f8611c1a565b600380546001600160a01b0319166001600160a01b0392909216919091179055005b346101d15760c03660031901126101d1576001600160401b036004358181116101d15761054b903690600401611997565b6024358281116101d157610563903690600401611997565b906044358381116101d15761057c903690600401611997565b9060a435938085116101d157366023860112156101d15784600401356105a181611c03565b956105af6040519788611976565b8187526024602088019260051b820101913683116101d15760248201905b838210610b5d575050505050805115610b185760009160009160005b865181101561067f576106156020610601838a611c3d565b5181604051938285809451938492016119ed565b8101600581520301902060088082015460ff908181169283610673575b505050610649575b5061064490611c2e565b6105e9565b946106449194600461066361066c9360038a015490611c51565b97015490611c51565b939061063a565b1c169050898080610632565b50848693858015801590610b0f575b610a7f575b505060405160208184516106aa81838589016119ed565b810160058152030190209260018060a01b03600685015416806109f4575b806109ef5750335b604051916106dd8361195a565b8483528360208401526040830152606435606083015260843560808301523360a083015260018060a01b031660c08201524260e0820152600161010082015260016101208201526101206008604051602081875161073e8183858c016119ed565b81016005815203019020610753845182611cba565b610764602085015160018301611cba565b610775604085015160028301611cba565b60608401516003820155608084015160048201556005810160018060a01b0360a086015116906001600160601b0360a01b9182825416179055600682019060018060a01b0360c0870151169082541617905560e0840151600782015501916107f06101008201511515849060ff801983541691151516179055565b0151151561ff0082549160081b169061ff001916179055604051602081845161081c81838589016119ed565b810160088152030190208054906000815581610982575b505060005b84518110156108825761087d90610878604051602081875161085d8183858c016119ed565b810160088152030190206108718389611c3d565b5190611d81565b611c2e565b610838565b5060068301549092906001600160a01b031661095b57503360005260066020526108b0816040600020611d81565b600754600160401b811015610945578060016108cf9201600755611a97565b91909161092f576108e3816108e893611cba565b611dae565b7f585d38ebcb0fe93ced4d64fbb112388b85b7726e7d87c5142521434d4f12238461091e60405193604085526040850190611a10565b9260643560208201528033940390a3005b634e487b7160e01b600052600060045260246000fd5b634e487b7160e01b600052604160045260246000fd5b9060ff60086108e893015416611dae573360005260066020526108e3816040600020611d81565b6000526020600020908101905b8181101561083357806109a460019254611afc565b806109b1575b500161098f565b601f9081811184146109ca575050600081555b876109aa565b6109e660009284845260208420920160051c8201858301611c5e565b818355556109c4565b6106d0565b60ff600886015416158015610a69575b6106c85760405162461bcd60e51b815260206004820152603360248201527f4f6e6c79206f776e65722063616e2072652d7265676973746572206f722061736044820152721cd95d081b5d5cdd0818994819195b195d1959606a1b6064820152608490fd5b5060058501546001600160a01b03163314610a04565b60643511908115610b03575b5015610a98578480610693565b60405162461bcd60e51b815260206004820152603760248201527f4c69627261727920726f79616c7479206d75737420626520686967686572207460448201527f68616e2073756d206f6620646570656e64656e636965730000000000000000006064820152608490fd5b90506084351185610a8b565b5081151561068e565b60405162461bcd60e51b815260206004820152601a60248201527f50726f6a6563742049442063616e6e6f7420626520656d7074790000000000006044820152606490fd5b81358581116101d157602091610b7a839260243691880101611997565b8152019101906105cd565b346101d15760003660031901126101d15760206040516127108152f35b346101d15760203660031901126101d1576004356001600160401b0381116101d157610bdc610bd76020923690600401611997565b611e55565b6040516001600160a01b039091168152f35b346101d15760003660031901126101d1576020600954604051908152f35b346101d15760203660031901126101d1576004356001600160401b0381116101d1576020610c41610c9d923690600401611997565b6000610120604051610c528161195a565b60608152606085820152606060408201528260608201528260808201528260a08201528260c08201528260e082015282610100820152015281604051938285809451938492016119ed565b8101600581520301902060ff600860405192610cb88461195a565b610cc181611b36565b8452610ccf60018201611b36565b6020850152610ce060028201611b36565b6040850152600381015460608501526004810154608085015260018060a01b0360058201541660a085015260018060a01b0360068201541660c0850152600781015460e08501520154818116151561010084015260081c161515610120820152604051809160208252610120610d98610d6783516101406020870152610160860190611a10565b610d83602085015191601f199283888303016040890152611a10565b90604085015190868303016060870152611a10565b9160608101516080850152608081015160a085015260018060a01b0360a08201511660c085015260018060a01b0360c08201511660e085015260e0810151610100850152610100810151151582850152015115156101408301520390f35b346101d15760403660031901126101d157610e0f611bed565b60243580151581036101d157610e4d91610e27611c1a565b60018060a01b0316600052600460205260406000209060ff801983541691151516179055565b005b346101d15760003660031901126101d157602060405173833589fcd6edb6e08f4c7c32d4f71b54bda029138152f35b346101d15760003660031901126101d1576000546040516001600160a01b039091168152602090f35b346101d15760203660031901126101d157600435600754811015610eda576103ab610ed46103bf92611a97565b50611b36565b60405162461bcd60e51b8152602060048201526013602482015272496e646578206f7574206f6620626f756e647360681b6044820152606490fd5b346101d15760003660031901126101d1576001546001600160a01b033381831603610f81576001600160601b0360a01b8092166001556000549133908316176000553391167f8be0079c531659141344cd1fd0a4f28419497f9722a3daafe3b4186f6b6457e0600080a3005b60405163118cdaa760e01b8152336004820152602490fd5b346101d1576020806003193601126101d1576001600160a01b03610fbb611bed565b166000526006815260406000208054610fd381611c03565b91610fe16040519384611976565b8183526000908152838120938084015b83831061100657604051806103bf8782611a35565b600182819261101489611b36565b815201960192019194610ff1565b346101d15760003660031901126101d15761103b611c1a565b600180546001600160a01b0319908116909155600080549182168155906001600160a01b03167f8be0079c531659141344cd1fd0a4f28419497f9722a3daafe3b4186f6b6457e08280a3005b346101d15760003660031901126101d1576020600754604051908152f35b346101d15760203660031901126101d1576004356001600160401b0381116101d1576110f060206110dd611167933690600401611997565b81604051938285809451938492016119ed565b8101600581520301902061110381611b36565b9060ff61111260018301611b36565b61111e60028401611b36565b92600381015493600482015460018060a01b039061118382600586015416926006860154169361117560086007880154970154976040519c8d9c8d610140908181520190611a10565b8c810360208e015290611a10565b908a820360408c0152611a10565b966060890152608088015260a087015260c086015260e0850152818116151561010085015260081c1615156101208301520390f35b346101d15760603660031901126101d1576004356001600160401b0381116101d1576111e8903690600401611997565b60243560443591604051602081835161120481838588016119ed565b810160058152030190209161121f60ff600885015416611dce565b60058301546001600160a01b031633036112795761126b604092856004868560037f59e8620b0742a7acf1fa2c6236758d97e05221785068ee1ef79e8dde26cb755f9901550155611dae565b9382519182526020820152a2005b60405162461bcd60e51b815260206004820152601d60248201527f4f6e6c79206f776e65722063616e2075706461746520726f79616c74790000006044820152606490fd5b346101d15760403660031901126101d1576112d7611bed565b6001600160a01b031660009081526006602052604090208054602435908110156101d1576103a56103ab916103bf93611ae4565b346101d15760203660031901126101d1576001600160a01b0361132c611bed565b166000526004602052602060ff604060002054166040519015158152f35b346101d15760403660031901126101d1576004356001600160401b0381116101d15761137a903690600401611997565b6024356001600160a01b0380821682036101d15760405160208185516113a38183858a016119ed565b81016005815203019020916113be60ff600885015416611dce565b81600584015416918233148015611687575b1561164257808216156116095782600052600660205260406000209160005b8354808210156115fa576114038286611ae4565b506040519081600082549261141784611afc565b80845293600181169081156115d85750600114611596575b5061143c92500382611976565b60208151910120885160208a01201461145e575061145990611c2e565b6113ef565b9060009692939495961991828101908111611580576114806114889188611ae4565b509187611ae4565b91909161092f5761149891611e9b565b8454801561156a57016114ab8186611ae4565b95909561092f57856114c06115049754611afc565b908161152b575b5050555b60058383166001600160601b0360a01b82840154161791015581811660005260066020526114fd856040600020611d81565b1692611dae565b7f6840904f5b31827f74e1497360da245f56e530c8c3de3163a2d31f11493273c6600080a4005b600091601f808211600114611545575050555b88806114c7565b9161156384929382845260208420940160051c840160018501611c5e565b555561153e565b634e487b7160e01b600052603160045260246000fd5b634e487b7160e01b600052601160045260246000fd5b9150506000526020600020906000915b8183106115bf57505081602061143c928201018c61142f565b80546020848601810191909152909201916001016115a6565b90506020925061143c94915060ff191682840152151560051b8201018c61142f565b505090915061150492936114cb565b60405162461bcd60e51b815260206004820152601160248201527024b73b30b634b2103732bb9037bbb732b960791b6044820152606490fd5b60405162461bcd60e51b815260206004820152601a60248201527f4e6f7420617574686f72697a656420746f207472616e736665720000000000006044820152606490fd5b5033600052600460205260ff604060002054166113d0565b346101d15760203660031901126101d1576004356001600160401b0381116101d1576116cf903690600401611997565b60405160208183516116e481838588016119ed565b81016005815203019020600881019081549061170260ff8316611dce565b60ff8260081c161561179e57600501546001600160a01b031633036117595761ff00191690556117323391611dae565b7f90770cdbe2af4a141faa5d52bf81d7904916cf199ab0684f8d30cb4b477fae86600080a3005b60405162461bcd60e51b815260206004820152601e60248201527f4f6e6c79206f776e65722063616e2064697361626c6520726f79616c747900006044820152606490fd5b60405162461bcd60e51b815260206004820152601860248201527f526f79616c747920616c72656164792064697361626c656400000000000000006044820152606490fd5b346101d15760003660031901126101d1576003546040516001600160a01b039091168152602090f35b346101d15760003660031901126101d1576040517f00000000000000000000000000000000000000000000000000000000000000006001600160a01b03168152602090f35b346101d15760403660031901126101d1576004356001600160401b0381116101d157611881903690600401611997565b61189d60206024359281604051938285809451938492016119ed565b810160088152030190209081548110156101d1576103a56103ab916103bf93611ae4565b346101d1576020806003193601126101d1576004356001600160401b0381116101d157816110dd6118f6923690600401611997565b81016008815203019020805461190b81611c03565b916119196040519384611976565b8183526000908152838120938084015b83831061193e57604051806103bf8782611a35565b600182819261194c89611b36565b815201960192019194611929565b61014081019081106001600160401b0382111761094557604052565b90601f801991011681019081106001600160401b0382111761094557604052565b81601f820112156101d1578035906001600160401b03821161094557604051926119cb601f8401601f191660200185611976565b828452602083830101116101d157816000926020809301838601378301015290565b60005b838110611a005750506000910152565b81810151838201526020016119f0565b90602091611a29815180928185528580860191016119ed565b601f01601f1916010190565b602080820190808352835180925260408301928160408460051b8301019501936000915b848310611a695750505050505090565b9091929394958480611a87600193603f198682030187528a51611a10565b9801930193019194939290611a59565b600754811015611ace5760076000527fa66cc928b5edb82af9bd49922954155ab7b0942694bea4ce44661d9a8736c6880190600090565b634e487b7160e01b600052603260045260246000fd5b8054821015611ace5760005260206000200190600090565b90600182811c92168015611b2c575b6020831014611b1657565b634e487b7160e01b600052602260045260246000fd5b91607f1691611b0b565b9060405191826000825492611b4a84611afc565b908184526001948581169081600014611bb95750600114611b76575b5050611b7492500383611976565b565b9093915060005260209081600020936000915b818310611ba1575050611b7493508201013880611b66565b85548884018501529485019487945091830191611b89565b915050611b7494506020925060ff191682840152151560051b8201013880611b66565b9061092f57611bea90611b36565b90565b600435906001600160a01b03821682036101d157565b6001600160401b0381116109455760051b60200190565b6000546001600160a01b03163303610f8157565b60001981146115805760010190565b8051821015611ace5760209160051b010190565b9190820180921161158057565b818110611c69575050565b60008155600101611c5e565b9190601f8111611c8457505050565b611b74926000526020600020906020601f840160051c83019310611cb0575b601f0160051c0190611c5e565b9091508190611ca3565b91909182516001600160401b03811161094557611ce181611cdb8454611afc565b84611c75565b602080601f8311600114611d1d575081929394600092611d12575b50508160011b916000199060031b1c1916179055565b015190503880611cfc565b90601f198316958460005282600020926000905b888210611d6957505083600195969710611d50575b505050811b019055565b015160001960f88460031b161c19169055388080611d46565b80600185968294968601518155019501930190611d31565b8054600160401b81101561094557611d9e91600182018155611ae4565b91909161092f57611b7491611cba565b611dc6906020604051928284809451938492016119ed565b810103902090565b15611dd557565b60405162461bcd60e51b815260206004820152600f60248201526e105cdcd95d081b9bdd08199bdd5b99608a1b6044820152606490fd5b6020611e259181604051938285809451938492016119ed565b810160058152030190209060ff600883015460081c1615611e4d576004600383015492015490565b600091508190565b6020611e6e9181604051938285809451938492016119ed565b8101600581520301902060ff60088201541615611e9557600501546001600160a01b031690565b50600090565b90808214611f7357611ead8154611afc565b906001600160401b038211610945578190611ed282611ecc8654611afc565b86611c75565b600090601f8311600114611f0857600092611efd5750508160011b916000199060031b1c1916179055565b015490503880611cfc565b81526020808220858352818320935090601f1985169083905b828210611f5a575050908460019594939210611f4157505050811b019055565b015460001960f88460031b161c19169055388080611d46565b8495819295850154815560018091019601940190611f21565b505056fea26469706673582212202066abef07a2692a708d50998e34b571f9d62c75943ca71ae16602cf49a6dc4c64736f6c63430008140033",
  "linkReferences": {},
  "deployedLinkReferences": {}
}