{
  "_format": "hh-sol-artifact-1",
  "contractName": "ClayLibrary",
  "sourceName": "ClayLibrary.sol",
  "abi": [
    {
      "inputs": [],
      "stateMutability": "nonpayable",
      "type": "constructor"
    },
    {
      "inputs": [
        {
          "internalType": "address",
          "name": "owner",
          "type": "address"
        }
      ],
      "name": "OwnableInvalidOwner",
      "type": "error"
    },
    {
      "inputs": [
        {
          "internalType": "address",
          "name": "account",
          "type": "address"
        }
      ],
      "name": "OwnableUnauthorizedAccount",
      "type": "error"
    },
    {
      "inputs": [],
      "name": "ReentrancyGuardReentrantCall",
      "type": "error"
    },
    {
      "anonymous": false,
      "inputs": [
        {
          "indexed": true,
          "internalType": "string",
          "name": "projectId",
          "type": "string"
        },
        {
          "indexed": true,
          "internalType": "address",
          "name": "owner",
          "type": "address"
        }
      ],
      "name": "AssetDeactivated",
      "type": "event"
    },
    {
      "anonymous": false,
      "inputs": [
        {
          "indexed": true,
          "internalType": "string",
          "name": "projectId",
          "type": "string"
        },
        {
          "indexed": false,
          "internalType": "uint256",
          "name": "oldPrice",
          "type": "uint256"
        },
        {
          "indexed": false,
          "internalType": "uint256",
          "name": "newPrice",
          "type": "uint256"
        }
      ],
      "name": "AssetPriceUpdated",
      "type": "event"
    },
    {
      "anonymous": false,
      "inputs": [
        {
          "indexed": true,
          "internalType": "string",
          "name": "projectId",
          "type": "string"
        },
        {
          "indexed": true,
          "internalType": "address",
          "name": "buyer",
          "type": "address"
        },
        {
          "indexed": true,
          "internalType": "address",
          "name": "currentOwner",
          "type": "address"
        },
        {
          "indexed": false,
          "internalType": "uint256",
          "name": "price",
          "type": "uint256"
        },
        {
          "indexed": false,
          "internalType": "uint256",
          "name": "platformFee",
          "type": "uint256"
        }
      ],
      "name": "AssetPurchased",
      "type": "event"
    },
    {
      "anonymous": false,
      "inputs": [
        {
          "indexed": true,
          "internalType": "string",
          "name": "projectId",
          "type": "string"
        },
        {
          "indexed": true,
          "internalType": "address",
          "name": "creator",
          "type": "address"
        },
        {
          "indexed": false,
          "internalType": "string",
          "name": "name",
          "type": "string"
        },
        {
          "indexed": false,
          "internalType": "uint256",
          "name": "price",
          "type": "uint256"
        }
      ],
      "name": "AssetRegistered",
      "type": "event"
    },
    {
      "anonymous": false,
      "inputs": [
        {
          "indexed": true,
          "internalType": "address",
          "name": "previousOwner",
          "type": "address"
        },
        {
          "indexed": true,
          "internalType": "address",
          "name": "newOwner",
          "type": "address"
        }
      ],
      "name": "OwnershipTransferred",
      "type": "event"
    },
    {
      "anonymous": false,
      "inputs": [
        {
          "indexed": true,
          "internalType": "string",
          "name": "projectId",
          "type": "string"
        },
        {
          "indexed": true,
          "internalType": "address",
          "name": "previousOwner",
          "type": "address"
        },
        {
          "indexed": true,
          "internalType": "address",
          "name": "newOwner",
          "type": "address"
        }
      ],
      "name": "OwnershipTransferred",
      "type": "event"
    },
    {
      "inputs": [],
      "name": "FEE_DENOMINATOR",
      "outputs": [
        {
          "internalType": "uint256",
          "name": "",
          "type": "uint256"
        }
      ],
      "stateMutability": "view",
      "type": "function"
    },
    {
      "inputs": [],
      "name": "USDC_ADDRESS",
      "outputs": [
        {
          "internalType": "address",
          "name": "",
          "type": "address"
        }
      ],
      "stateMutability": "view",
      "type": "function"
    },
    {
      "inputs": [
        {
          "internalType": "uint256",
          "name": "",
          "type": "uint256"
        }
      ],
      "name": "allAssetIds",
      "outputs": [
        {
          "internalType": "string",
          "name": "",
          "type": "string"
        }
      ],
      "stateMutability": "view",
      "type": "function"
    },
    {
      "inputs": [
        {
          "internalType": "string",
          "name": "",
          "type": "string"
        },
        {
          "internalType": "uint256",
          "name": "",
          "type": "uint256"
        }
      ],
      "name": "assetPurchasers",
      "outputs": [
        {
          "internalType": "address",
          "name": "",
          "type": "address"
        }
      ],
      "stateMutability": "view",
      "type": "function"
    },
    {
      "inputs": [
        {
          "internalType": "string",
          "name": "projectId",
          "type": "string"
        }
      ],
      "name": "deactivateAsset",
      "outputs": [],
      "stateMutability": "nonpayable",
      "type": "function"
    },
    {
      "inputs": [
        {
          "internalType": "string",
          "name": "projectId",
          "type": "string"
        }
      ],
      "name": "getAsset",
      "outputs": [
        {
          "components": [
            {
              "internalType": "string",
              "name": "projectId",
              "type": "string"
            },
            {
              "internalType": "string",
              "name": "name",
              "type": "string"
            },
            {
              "internalType": "string",
              "name": "description",
              "type": "string"
            },
            {
              "internalType": "uint256",
              "name": "priceETH",
              "type": "uint256"
            },
            {
              "internalType": "uint256",
              "name": "priceUSDC",
              "type": "uint256"
            },
            {
              "internalType": "address",
              "name": "currentOwner",
              "type": "address"
            },
            {
              "internalType": "address",
              "name": "originalCreator",
              "type": "address"
            },
            {
              "internalType": "uint256",
              "name": "totalRevenueETH",
              "type": "uint256"
            },
            {
              "internalType": "uint256",
              "name": "totalRevenueUSDC",
              "type": "uint256"
            },
            {
              "internalType": "uint256",
              "name": "purchaseCount",
              "type": "uint256"
            },
            {
              "internalType": "uint256",
              "name": "listedAt",
              "type": "uint256"
            },
            {
              "internalType": "bool",
              "name": "isActive",
              "type": "bool"
            }
          ],
          "internalType": "struct ClayLibrary.LibraryAsset",
          "name": "",
          "type": "tuple"
        }
      ],
      "stateMutability": "view",
      "type": "function"
    },
    {
      "inputs": [
        {
          "internalType": "uint256",
          "name": "index",
          "type": "uint256"
        }
      ],
      "name": "getAssetIdByIndex",
      "outputs": [
        {
          "internalType": "string",
          "name": "",
          "type": "string"
        }
      ],
      "stateMutability": "view",
      "type": "function"
    },
    {
      "inputs": [
        {
          "internalType": "string",
          "name": "projectId",
          "type": "string"
        }
      ],
      "name": "getAssetPurchasers",
      "outputs": [
        {
          "internalType": "address[]",
          "name": "",
          "type": "address[]"
        }
      ],
      "stateMutability": "view",
      "type": "function"
    },
    {
      "inputs": [],
      "name": "getTotalAssets",
      "outputs": [
        {
          "internalType": "uint256",
          "name": "",
          "type": "uint256"
        }
      ],
      "stateMutability": "view",
      "type": "function"
    },
    {
      "inputs": [
        {
          "internalType": "address",
          "name": "user",
          "type": "address"
        }
      ],
      "name": "getUserAssets",
      "outputs": [
        {
          "internalType": "string[]",
          "name": "",
          "type": "string[]"
        }
      ],
      "stateMutability": "view",
      "type": "function"
    },
    {
      "inputs": [
        {
          "internalType": "string",
          "name": "",
          "type": "string"
        }
      ],
      "name": "libraryAssets",
      "outputs": [
        {
          "internalType": "string",
          "name": "projectId",
          "type": "string"
        },
        {
          "internalType": "string",
          "name": "name",
          "type": "string"
        },
        {
          "internalType": "string",
          "name": "description",
          "type": "string"
        },
        {
          "internalType": "uint256",
          "name": "priceETH",
          "type": "uint256"
        },
        {
          "internalType": "uint256",
          "name": "priceUSDC",
          "type": "uint256"
        },
        {
          "internalType": "address",
          "name": "currentOwner",
          "type": "address"
        },
        {
          "internalType": "address",
          "name": "originalCreator",
          "type": "address"
        },
        {
          "internalType": "uint256",
          "name": "totalRevenueETH",
          "type": "uint256"
        },
        {
          "internalType": "uint256",
          "name": "totalRevenueUSDC",
          "type": "uint256"
        },
        {
          "internalType": "uint256",
          "name": "purchaseCount",
          "type": "uint256"
        },
        {
          "internalType": "uint256",
          "name": "listedAt",
          "type": "uint256"
        },
        {
          "internalType": "bool",
          "name": "isActive",
          "type": "bool"
        }
      ],
      "stateMutability": "view",
      "type": "function"
    },
    {
      "inputs": [],
      "name": "owner",
      "outputs": [
        {
          "internalType": "address",
          "name": "",
          "type": "address"
        }
      ],
      "stateMutability": "view",
      "type": "function"
    },
    {
      "inputs": [],
      "name": "platformFeePercentage",
      "outputs": [
        {
          "internalType": "uint256",
          "name": "",
          "type": "uint256"
        }
      ],
      "stateMutability": "view",
      "type": "function"
    },
    {
      "inputs": [
        {
          "internalType": "string",
          "name": "projectId",
          "type": "string"
        }
      ],
      "name": "purchaseAssetWithETH",
      "outputs": [],
      "stateMutability": "payable",
      "type": "function"
    },
    {
      "inputs": [
        {
          "internalType": "string",
          "name": "projectId",
          "type": "string"
        }
      ],
      "name": "purchaseAssetWithUSDC",
      "outputs": [],
      "stateMutability": "nonpayable",
      "type": "function"
    },
    {
      "inputs": [
        {
          "internalType": "string",
          "name": "projectId",
          "type": "string"
        },
        {
          "internalType": "string",
          "name": "name",
          "type": "string"
        },
        {
          "internalType": "string",
          "name": "description",
          "type": "string"
        },
        {
          "internalType": "uint256",
          "name": "priceETH",
          "type": "uint256"
        },
        {
          "internalType": "uint256",
          "name": "priceUSDC",
          "type": "uint256"
        }
      ],
      "name": "registerAsset",
      "outputs": [],
      "stateMutability": "nonpayable",
      "type": "function"
    },
    {
      "inputs": [],
      "name": "renounceOwnership",
      "outputs": [],
      "stateMutability": "nonpayable",
      "type": "function"
    },
    {
      "inputs": [
        {
          "internalType": "string",
          "name": "projectId",
          "type": "string"
        },
        {
          "internalType": "address",
          "name": "newOwner",
          "type": "address"
        }
      ],
      "name": "transferAssetOwnership",
      "outputs": [],
      "stateMutability": "nonpayable",
      "type": "function"
    },
    {
      "inputs": [
        {
          "internalType": "address",
          "name": "newOwner",
          "type": "address"
        }
      ],
      "name": "transferOwnership",
      "outputs": [],
      "stateMutability": "nonpayable",
      "type": "function"
    },
    {
      "inputs": [
        {
          "internalType": "string",
          "name": "projectId",
          "type": "string"
        },
        {
          "internalType": "uint256",
          "name": "newPriceETH",
          "type": "uint256"
        },
        {
          "internalType": "uint256",
          "name": "newPriceUSDC",
          "type": "uint256"
        }
      ],
      "name": "updateAssetPrice",
      "outputs": [],
      "stateMutability": "nonpayable",
      "type": "function"
    },
    {
      "inputs": [
        {
          "internalType": "uint256",
          "name": "newFeePercentage",
          "type": "uint256"
        }
      ],
      "name": "updatePlatformFee",
      "outputs": [],
      "stateMutability": "nonpayable",
      "type": "function"
    },
    {
      "inputs": [],
      "name": "usdcToken",
      "outputs": [
        {
          "internalType": "contract IERC20",
          "name": "",
          "type": "address"
        }
      ],
      "stateMutability": "view",
      "type": "function"
    },
    {
      "inputs": [
        {
          "internalType": "address",
          "name": "",
          "type": "address"
        },
        {
          "internalType": "uint256",
          "name": "",
          "type": "uint256"
        }
      ],
      "name": "userOwnedAssets",
      "outputs": [
        {
          "internalType": "string",
          "name": "",
          "type": "string"
        }
      ],
      "stateMutability": "view",
      "type": "function"
    },
    {
      "inputs": [],
      "name": "withdrawPlatformFeesETH",
      "outputs": [],
      "stateMutability": "nonpayable",
      "type": "function"
    },
    {
      "inputs": [],
      "name": "withdrawPlatformFeesUSDC",
      "outputs": [],
      "stateMutability": "nonpayable",
      "type": "function"
    }
  ],
  "bytecode": "0x60a080604052346100b257331561009c5760008054336001600160a01b03198216811783556040519290916001600160a01b0316907f8be0079c531659141344cd1fd0a4f28419497f9722a3daafe3b4186f6b6457e09080a36001805560fa60065573833589fcd6edb6e08f4c7c32d4f71b54bda029136080526120cb90816100b882396080518181816105320152818161085f01526118890152f35b631e4fbdf760e01b815260006004820152602490fd5b600080fdfe6080604052600436101561001257600080fd5b60003560e01c80630f393baf146118b857806311eac855146118735780632203f8f1146114f857806351618eff146113cb5780635d483ab91461137e5780636cb3db25146112685780636e07302b1461124a578063715018a6146111f1578063765ff061146111005780638ada33dc14610ef95780638bccf00914610e755780638c5deff814610e075780638da5cb5b14610dde5780639c52183814610d525780639ff95b8e14610c69578063aa0b598814610c01578063bb09d9b714610bd2578063cd5286d0146109b1578063cdd78cfc14610993578063d73792a914610976578063dceb768614610826578063e814d66b146107db578063f2fde38b14610752578063fb055846146104675763ff6c0dde1461012f57600080fd5b346104625760a0366003190112610462576001600160401b0360043581811161046257610160903690600401611a35565b9060243581811161046257610179903690600401611a35565b9060443590811161046257610192903690600401611a35565b916064359260843582511561041d578415801590610414575b6101b490611c5c565b60ff600b60405160208187516101cd8183858c01611be8565b810160028152030190200154166103cf57604051916101eb836119dd565b838352846020840152604083015284606083015260808201523360a08201523360c0820152600060e082015260006101008201526000610120820152426101408201526001610160820152610160600b60405160208186516102508183858b01611be8565b81016002815203019020610265845182611d04565b610276602085015160018301611d04565b610287604085015160028301611d04565b60608401516003820155608084015160048201556005810160018060a01b03908160a087015116906001600160601b0360a01b9182825416179055600683019160c0870151169082541617905560e0840151600782015561010084015160088201556101208401516009820155610140840151600a82015501910151151560ff80198354169116179055336000526004602052610328816040600020611dcb565b600554600160401b8110156103b9578060016103479201600555611a92565b6103a3578161037a7f585d38ebcb0fe93ced4d64fbb112388b85b7726e7d87c5142521434d4f1223849361037f93611d04565b611df8565b9161039560405191604083526040830190611c0b565b9360208201528033940390a3005b634e487b7160e01b600052600060045260246000fd5b634e487b7160e01b600052604160045260246000fd5b60405162461bcd60e51b815260206004820152601860248201527f417373657420616c7265616479207265676973746572656400000000000000006044820152606490fd5b508015156101ab565b60405162461bcd60e51b815260206004820152601a60248201527f50726f6a6563742049442063616e6e6f7420626520656d7074790000000000006044820152606490fd5b600080fd5b3461046257602080600319360112610462576004356001600160401b03811161046257610498903690600401611a35565b6104a0611f3e565b604051918151928181818501956104b8818389611be8565b810160028152030190206104d260ff600b83015416611e18565b600481019384549182156106fc576104fa6127106104f260065486611e5a565b048094611e6d565b6005820180546040516323b872dd60e01b8082523360048301526001600160a01b0392831660248301526044820194909452909391927f00000000000000000000000000000000000000000000000000000000000000008516919088826064816000875af19182156106d357899261057a916000916106df575b50611eaa565b6040519081523360048201523060248201526044810188905291829060649082906000905af19081156106d3576000916106a6575b50156106615760099088546105c960088301918254611ef6565b9055018054906001820180921161064b576106159461060b926105f792556040519182918a51928391611be8565b810190600382528781339303019020611f03565b5416945493611df8565b916040519384528301527f9f1cf37e6808c30667b45ef497cdbe9240ff2b62734e74189ac2c7f4a76d487d60403393a460018055005b634e487b7160e01b600052601160045260246000fd5b60405162461bcd60e51b815260048101879052601c60248201527f506c6174666f726d20666565207472616e73666572206661696c6564000000006044820152606490fd5b6106c69150873d89116106cc575b6106be81836119f9565b810190611f61565b896105af565b503d6106b4565b6040513d6000823e3d90fd5b6106f69150843d86116106cc576106be81836119f9565b8d610574565b60405162461bcd60e51b815260048101859052602860248201527f55534443207061796d656e74206e6f7420616363657074656420666f722074686044820152671a5cc8185cdcd95d60c21b6064820152608490fd5b346104625760203660031901126104625761076b611a7c565b610773611c30565b6001600160a01b039081169081156107c257600054826001600160601b0360a01b821617600055167f8be0079c531659141344cd1fd0a4f28419497f9722a3daafe3b4186f6b6457e0600080a3005b604051631e4fbdf760e01b815260006004820152602490fd5b34610462576020366003190112610462576004356005548110156104625761080e61080861082292611a92565b90611bd7565b604051918291602083526020830190611c0b565b0390f35b346104625760003660031901126104625761083f611c30565b6040516370a0823160e01b81523060048201526020906001600160a01b037f0000000000000000000000000000000000000000000000000000000000000000811691908382602481865afa9182156106d357600092610947575b508115610902579060448492600054166000604051958694859363a9059cbb60e01b8552600485015260248401525af19081156106d3576108e3926000926108e5575b5050611f79565b005b6108fb9250803d106106cc576106be81836119f9565b82806108dc565b60405162461bcd60e51b815260048101859052601860248201527f4e6f2055534443206665657320746f20776974686472617700000000000000006044820152606490fd5b9091508381813d831161096f575b61095f81836119f9565b8101031261046257519084610899565b503d610955565b346104625760003660031901126104625760206040516127108152f35b34610462576000366003190112610462576020600654604051908152f35b34610462576020366003190112610462576004356001600160401b0381116104625760206109e6610a50923690600401611a35565b60006101606040516109f7816119dd565b60608152606085820152606060408201528260608201528260808201528260a08201528260c08201528260e082015282610100820152826101208201528261014082015201528160405193828580945193849201611be8565b8101600281520301902060ff600b60405192610a6b846119dd565b610a7481611b31565b8452610a8260018201611b31565b6020850152610a9360028201611b31565b6040850152600381015460608501526004810154608085015260018060a01b0360058201541660a085015260018060a01b0360068201541660c0850152600781015460e085015260088101546101008501526009810154610120850152600a8101546101408501520154161515610160820152604051809160208252610160610b5e610b2d835161018060208701526101a0860190611c0b565b610b49602085015191601f199283888303016040890152611c0b565b90604085015190868303016060870152611c0b565b9160608101516080850152608081015160a085015260018060a01b0360a08201511660c085015260018060a01b0360c08201511660e085015260e081015161010085015261010081015161012085015261012081015161014085015261014081015182850152015115156101808301520390f35b3461046257600036600319011261046257602060405173833589fcd6edb6e08f4c7c32d4f71b54bda029138152f35b3461046257602036600319011261046257600435610c1d611c30565b6103e88111610c2b57600655005b60405162461bcd60e51b815260206004820152601660248201527546656520746f6f206869676820286d6178203130252960501b6044820152606490fd5b3461046257602080600319360112610462576004356001600160401b0381116104625781610c9e610cb1923690600401611a35565b8160405193828580945193849201611be8565b8101600381520301902060405190818382549182815201908192600052846000209060005b86828210610d35578686610cec828803836119f9565b604051928392818401908285525180915260408401929160005b828110610d1557505050500390f35b83516001600160a01b031685528695509381019392810192600101610d06565b83546001600160a01b031685529093019260019283019201610cd6565b3461046257600036600319011261046257610d6b611c30565b478015610d9957600080546108e3928291829182916001600160a01b03165af1610d93611e7a565b50611f79565b60405162461bcd60e51b815260206004820152601760248201527f4e6f20455448206665657320746f2077697468647261770000000000000000006044820152606490fd5b34610462576000366003190112610462576000546040516001600160a01b039091168152602090f35b3461046257602036600319011261046257600435600554811015610e3a5761080e610e3461082292611a92565b50611b31565b60405162461bcd60e51b8152602060048201526013602482015272496e646578206f7574206f6620626f756e647360681b6044820152606490fd5b34610462576040366003190112610462576004356001600160401b03811161046257610ea5903690600401611a35565b610ec16020602435928160405193828580945193849201611be8565b81016003815203019020805482101561046257602091610ee091611adf565b905460405160039290921b1c6001600160a01b03168152f35b602080600319360112610462576004356001600160401b03811161046257610f25903690600401611a35565b610f2d611f3e565b60405191815192818181850195610f45818389611be8565b81016002815203019020610f5f60ff600b83015416611e18565b600381019384549182156110ab5782341061106f57610f866127106104f260065486611e5a565b9160096005830192610fac600080808060018060a01b03998a8a54165af1610574611e7a565b8854610fbd60078301918254611ef6565b9055018054906001820180921161064b57556040518651610ffa9287918391610fe99082908490611be8565b810160038152030190203390611f03565b8554803411611014575b5090610615915416945493611df8565b60008080611023819434611e6d565b335af161102e611e7a565b501561103a5786611004565b60405162461bcd60e51b815260048101859052600d60248201526c1499599d5b990819985a5b1959609a1b6044820152606490fd5b60405162461bcd60e51b8152600481018590526014602482015273125b9cdd59999a58da595b9d081c185e5b595b9d60621b6044820152606490fd5b60405162461bcd60e51b815260048101859052602760248201527f455448207061796d656e74206e6f7420616363657074656420666f72207468696044820152661cc8185cdcd95d60ca1b6064820152608490fd5b3461046257602080600319360112610462576001600160a01b03611122611a7c565b166000526004815260406000208054906001600160401b0382116103b957829060405192611155838260051b01856119f9565b8084528284018092600052836000206000915b8383106111cf5750505050604051918083019381845251809452604083019360408160051b85010192916000955b8287106111a35785850386f35b9091929382806111bf600193603f198a82030186528851611c0b565b9601920196019592919092611196565b60018681926111e0859a999a611b31565b815201920192019190959495611168565b346104625760003660031901126104625761120a611c30565b600080546001600160a01b0319811682556001600160a01b03167f8be0079c531659141344cd1fd0a4f28419497f9722a3daafe3b4186f6b6457e08280a3005b34610462576000366003190112610462576020600554604051908152f35b34610462576020366003190112610462576004356001600160401b038111610462576020610c9e61129d923690600401611a35565b8101600281520301902061132a6112b382611b31565b916112c060018201611b31565b926112cd60028301611b31565b91600381015492600482015460018060a01b03806005850154169060068501541660078501549160088601549361134660098801549661133860ff600b600a8c01549b0154169a6040519e8f9e8f92610180808552840190611c0b565b916020818403910152611c0b565b8c810360408e015290611c0b565b9860608b015260808a015260a089015260c088015260e087015261010086015261012085015261014084015215156101608301520390f35b3461046257604036600319011261046257611397611a7c565b6001600160a01b031660009081526004602052604090208054602435908110156104625761080861080e9161082293611adf565b34610462576020366003190112610462576004356001600160401b038111610462576113fb903690600401611a35565b60405160208183516114108183858801611be8565b81016002815203019020600b81019081549060ff8216156114ba57600501546001600160a01b031633036114755760ff1916905561144e3391611df8565b7fbf7659f4659900a03fed4ad2fc77c3602180b8afcf682077f6e38e88d0cf58f4600080a3005b60405162461bcd60e51b815260206004820152601960248201527f4f6e6c79206f776e65722063616e2064656163746976617465000000000000006044820152606490fd5b60405162461bcd60e51b8152602060048201526016602482015275417373657420616c726561647920696e61637469766560501b6044820152606490fd5b34610462576040366003190112610462576004356001600160401b03811161046257611528903690600401611a35565b6024906001600160a01b0390823582811681036104625760405160208184516115548183858901611be8565b810160028152030190209261156f60ff600b86015416611e18565b806005850154169182330361182f57818116156117f75782600052600460205260406000209460005b8654808210156117e5576115ac8289611adf565b50604051908160008254926115c084611af7565b80845293600181169081156117c35750600114611781575b506115e5925003826119f9565b60208151910120875160208901201461161f5750600019811461160a57600101611598565b87634e487b7160e01b60005260116004526000fd5b90600097929394959697199182810190811161176c5761164261164a9185611adf565b509184611adf565b9190916117575761165a91611fb9565b8154801561174257019061166e8282611adf565b61172d576116c7969798506116838154611af7565b90816116ee575b5050555b60058383166001600160601b0360a01b82840154161791015581811660005260046020526116c0856040600020611dcb565b1692611df8565b7f6840904f5b31827f74e1497360da245f56e530c8c3de3163a2d31f11493273c6600080a4005b600091601f808211600114611708575050555b888061168a565b9161172684929382845260208420940160051c840160018501611ca8565b5555611701565b88634e487b7160e01b60005260006004526000fd5b88634e487b7160e01b60005260316004526000fd5b89634e487b7160e01b60005260006004526000fd5b89634e487b7160e01b60005260116004526000fd5b9150506000526020600020906000915b8183106117aa5750508160206115e5928201018d6115d8565b8054602084860181019190915290920191600101611791565b9050602092506115e594915060ff191682840152151560051b8201018d6115d8565b505090919294506116c793955061168e565b60405162461bcd60e51b8152602060048201526011818801527024b73b30b634b2103732bb9037bbb732b960791b6044820152606490fd5b60405162461bcd60e51b815260206004820152601f818801527f4f6e6c792063757272656e74206f776e65722063616e207472616e73666572006044820152606490fd5b34610462576000366003190112610462576040517f00000000000000000000000000000000000000000000000000000000000000006001600160a01b03168152602090f35b34610462576060366003190112610462576004356001600160401b038111610462576118e8903690600401611a35565b602435906044359060405160208183516119058183858801611be8565b8101600281520301902061191f60ff600b83015416611e18565b60058101546001600160a01b03163303611998576119816040927f6f614e54fafe71f7c0a065e36894602ca7ed071e7be8df9bade0418e775fac5694861580159061198f575b61196e90611c5c565b6004600385019488865496550155611df8565b9382519182526020820152a2005b50801515611965565b60405162461bcd60e51b815260206004820152601b60248201527f4f6e6c79206f776e65722063616e2075706461746520707269636500000000006044820152606490fd5b61018081019081106001600160401b038211176103b957604052565b90601f801991011681019081106001600160401b038211176103b957604052565b6001600160401b0381116103b957601f01601f191660200190565b81601f8201121561046257803590611a4c82611a1a565b92611a5a60405194856119f9565b8284526020838301011161046257816000926020809301838601378301015290565b600435906001600160a01b038216820361046257565b600554811015611ac95760056000527f036b6384b5eca791c62761152d0c79bb0604c104a5fb6f4eb0703f3154bb3db00190600090565b634e487b7160e01b600052603260045260246000fd5b8054821015611ac95760005260206000200190600090565b90600182811c92168015611b27575b6020831014611b1157565b634e487b7160e01b600052602260045260246000fd5b91607f1691611b06565b9060405191826000825492611b4584611af7565b908184526001948581169081600014611bb45750600114611b71575b5050611b6f925003836119f9565b565b9093915060005260209081600020936000915b818310611b9c575050611b6f93508201013880611b61565b85548884018501529485019487945091830191611b84565b915050611b6f94506020925060ff191682840152151560051b8201013880611b61565b906103a357611be590611b31565b90565b60005b838110611bfb5750506000910152565b8181015183820152602001611beb565b90602091611c2481518092818552858086019101611be8565b601f01601f1916010190565b6000546001600160a01b03163303611c4457565b60405163118cdaa760e01b8152336004820152602490fd5b15611c6357565b60405162461bcd60e51b815260206004820152601e60248201527f4174206c65617374206f6e65207072696365206d7573742062652073657400006044820152606490fd5b818110611cb3575050565b60008155600101611ca8565b9190601f8111611cce57505050565b611b6f926000526020600020906020601f840160051c83019310611cfa575b601f0160051c0190611ca8565b9091508190611ced565b91909182516001600160401b0381116103b957611d2b81611d258454611af7565b84611cbf565b602080601f8311600114611d67575081929394600092611d5c575b50508160011b916000199060031b1c1916179055565b015190503880611d46565b90601f198316958460005282600020926000905b888210611db357505083600195969710611d9a575b505050811b019055565b015160001960f88460031b161c19169055388080611d90565b80600185968294968601518155019501930190611d7b565b8054600160401b8110156103b957611de891600182018155611adf565b9190916103a357611b6f91611d04565b611e1090602060405192828480945193849201611be8565b810103902090565b15611e1f57565b60405162461bcd60e51b81526020600482015260136024820152724173736574206e6f7420617661696c61626c6560681b6044820152606490fd5b8181029291811591840414171561064b57565b9190820391821161064b57565b3d15611ea5573d90611e8b82611a1a565b91611e9960405193846119f9565b82523d6000602084013e565b606090565b15611eb157565b60405162461bcd60e51b815260206004820152601760248201527f5061796d656e7420746f206f776e6572206661696c65640000000000000000006044820152606490fd5b9190820180921161064b57565b8054600160401b8110156103b957611f2091600182018155611adf565b819291549060031b9160018060a01b03809116831b921b1916179055565b600260015414611f4f576002600155565b604051633ee5aeb560e01b8152600490fd5b90816020910312610462575180151581036104625790565b15611f8057565b60405162461bcd60e51b815260206004820152601160248201527015da5d1a191c985dd85b0819985a5b1959607a1b6044820152606490fd5b9080821461209157611fcb8154611af7565b906001600160401b0382116103b9578190611ff082611fea8654611af7565b86611cbf565b600090601f83116001146120265760009261201b5750508160011b916000199060031b1c1916179055565b015490503880611d46565b81526020808220858352818320935090601f1985169083905b82821061207857505090846001959493921061205f57505050811b019055565b015460001960f88460031b161c19169055388080611d90565b849581929585015481556001809101960194019061203f565b505056fea2646970667358221220e07f9bf48ceb01988415bc05077f6aad25a054ca56c8bdabd5c1315ff6b3011364736f6c63430008140033",
  "linkReferences": {},
  "deployedLinkReferences": {}
}