{
  "_format": "hh-sol-artifact-1",
  "contractName": "ClayLibrary",
  "sourceName": "ClayLibrary.sol",
  "abi": [
    {
      "inputs": [
        {
          "internalType": "address",
          "name": "_royaltyContract",
          "type": "address"
        }
      ],
      "stateMutability": "nonpayable",
      "type": "constructor"
    },
    {
      "inputs": [
        {
          "internalType": "address",
          "name": "owner",
          "type": "address"
        }
      ],
      "name": "OwnableInvalidOwner",
      "type": "error"
    },
    {
      "inputs": [
        {
          "internalType": "address",
          "name": "account",
          "type": "address"
        }
      ],
      "name": "OwnableUnauthorizedAccount",
      "type": "error"
    },
    {
      "inputs": [],
      "name": "ReentrancyGuardReentrantCall",
      "type": "error"
    },
    {
      "anonymous": false,
      "inputs": [
        {
          "indexed": true,
          "internalType": "string",
          "name": "projectId",
          "type": "string"
        },
        {
          "indexed": true,
          "internalType": "address",
          "name": "owner",
          "type": "address"
        }
      ],
      "name": "AssetDeleted",
      "type": "event"
    },
    {
      "anonymous": false,
      "inputs": [
        {
          "indexed": true,
          "internalType": "string",
          "name": "projectId",
          "type": "string"
        },
        {
          "indexed": true,
          "internalType": "address",
          "name": "creator",
          "type": "address"
        },
        {
          "indexed": false,
          "internalType": "string",
          "name": "name",
          "type": "string"
        },
        {
          "indexed": false,
          "internalType": "uint256",
          "name": "price",
          "type": "uint256"
        }
      ],
      "name": "AssetRegistered",
      "type": "event"
    },
    {
      "anonymous": false,
      "inputs": [
        {
          "indexed": true,
          "internalType": "address",
          "name": "previousOwner",
          "type": "address"
        },
        {
          "indexed": true,
          "internalType": "address",
          "name": "newOwner",
          "type": "address"
        }
      ],
      "name": "OwnershipTransferStarted",
      "type": "event"
    },
    {
      "anonymous": false,
      "inputs": [
        {
          "indexed": true,
          "internalType": "address",
          "name": "previousOwner",
          "type": "address"
        },
        {
          "indexed": true,
          "internalType": "address",
          "name": "newOwner",
          "type": "address"
        }
      ],
      "name": "OwnershipTransferred",
      "type": "event"
    },
    {
      "anonymous": false,
      "inputs": [
        {
          "indexed": true,
          "internalType": "string",
          "name": "projectId",
          "type": "string"
        },
        {
          "indexed": true,
          "internalType": "address",
          "name": "previousOwner",
          "type": "address"
        },
        {
          "indexed": true,
          "internalType": "address",
          "name": "newOwner",
          "type": "address"
        }
      ],
      "name": "OwnershipTransferred",
      "type": "event"
    },
    {
      "anonymous": false,
      "inputs": [
        {
          "indexed": true,
          "internalType": "string",
          "name": "projectId",
          "type": "string"
        },
        {
          "indexed": true,
          "internalType": "address",
          "name": "owner",
          "type": "address"
        }
      ],
      "name": "RoyaltyDisabled",
      "type": "event"
    },
    {
      "anonymous": false,
      "inputs": [
        {
          "indexed": true,
          "internalType": "string",
          "name": "projectId",
          "type": "string"
        },
        {
          "indexed": false,
          "internalType": "uint256",
          "name": "newRoyaltyETH",
          "type": "uint256"
        },
        {
          "indexed": false,
          "internalType": "uint256",
          "name": "newRoyaltyUSDC",
          "type": "uint256"
        }
      ],
      "name": "RoyaltyFeeUpdated",
      "type": "event"
    },
    {
      "inputs": [],
      "name": "FEE_DENOMINATOR",
      "outputs": [
        {
          "internalType": "uint256",
          "name": "",
          "type": "uint256"
        }
      ],
      "stateMutability": "view",
      "type": "function"
    },
    {
      "inputs": [],
      "name": "USDC_ADDRESS",
      "outputs": [
        {
          "internalType": "address",
          "name": "",
          "type": "address"
        }
      ],
      "stateMutability": "view",
      "type": "function"
    },
    {
      "inputs": [],
      "name": "acceptOwnership",
      "outputs": [],
      "stateMutability": "nonpayable",
      "type": "function"
    },
    {
      "inputs": [
        {
          "internalType": "uint256",
          "name": "",
          "type": "uint256"
        }
      ],
      "name": "allAssetIds",
      "outputs": [
        {
          "internalType": "string",
          "name": "",
          "type": "string"
        }
      ],
      "stateMutability": "view",
      "type": "function"
    },
    {
      "inputs": [
        {
          "internalType": "address",
          "name": "",
          "type": "address"
        }
      ],
      "name": "approvedMarketplaces",
      "outputs": [
        {
          "internalType": "bool",
          "name": "",
          "type": "bool"
        }
      ],
      "stateMutability": "view",
      "type": "function"
    },
    {
      "inputs": [
        {
          "internalType": "string",
          "name": "projectId",
          "type": "string"
        }
      ],
      "name": "deleteAsset",
      "outputs": [],
      "stateMutability": "nonpayable",
      "type": "function"
    },
    {
      "inputs": [
        {
          "internalType": "string",
          "name": "projectId",
          "type": "string"
        }
      ],
      "name": "disableRoyalty",
      "outputs": [],
      "stateMutability": "nonpayable",
      "type": "function"
    },
    {
      "inputs": [
        {
          "internalType": "string",
          "name": "projectId",
          "type": "string"
        }
      ],
      "name": "enableRoyalty",
      "outputs": [],
      "stateMutability": "nonpayable",
      "type": "function"
    },
    {
      "inputs": [
        {
          "internalType": "string",
          "name": "projectId",
          "type": "string"
        }
      ],
      "name": "getAsset",
      "outputs": [
        {
          "components": [
            {
              "internalType": "string",
              "name": "projectId",
              "type": "string"
            },
            {
              "internalType": "string",
              "name": "name",
              "type": "string"
            },
            {
              "internalType": "string",
              "name": "description",
              "type": "string"
            },
            {
              "internalType": "uint256",
              "name": "royaltyPerImportETH",
              "type": "uint256"
            },
            {
              "internalType": "uint256",
              "name": "royaltyPerImportUSDC",
              "type": "uint256"
            },
            {
              "internalType": "address",
              "name": "currentOwner",
              "type": "address"
            },
            {
              "internalType": "address",
              "name": "originalCreator",
              "type": "address"
            },
            {
              "internalType": "uint256",
              "name": "listedAt",
              "type": "uint256"
            },
            {
              "internalType": "bool",
              "name": "exists",
              "type": "bool"
            },
            {
              "internalType": "bool",
              "name": "royaltyEnabled",
              "type": "bool"
            }
          ],
          "internalType": "struct ClayLibrary.LibraryAsset",
          "name": "",
          "type": "tuple"
        }
      ],
      "stateMutability": "view",
      "type": "function"
    },
    {
      "inputs": [
        {
          "internalType": "uint256",
          "name": "index",
          "type": "uint256"
        }
      ],
      "name": "getAssetIdByIndex",
      "outputs": [
        {
          "internalType": "string",
          "name": "",
          "type": "string"
        }
      ],
      "stateMutability": "view",
      "type": "function"
    },
    {
      "inputs": [
        {
          "internalType": "string",
          "name": "projectId",
          "type": "string"
        }
      ],
      "name": "getCurrentOwner",
      "outputs": [
        {
          "internalType": "address",
          "name": "",
          "type": "address"
        }
      ],
      "stateMutability": "view",
      "type": "function"
    },
    {
      "inputs": [
        {
          "internalType": "string",
          "name": "projectId",
          "type": "string"
        }
      ],
      "name": "getRoyaltyFee",
      "outputs": [
        {
          "internalType": "uint256",
          "name": "royaltyETH",
          "type": "uint256"
        },
        {
          "internalType": "uint256",
          "name": "royaltyUSDC",
          "type": "uint256"
        }
      ],
      "stateMutability": "view",
      "type": "function"
    },
    {
      "inputs": [],
      "name": "getTotalAssets",
      "outputs": [
        {
          "internalType": "uint256",
          "name": "",
          "type": "uint256"
        }
      ],
      "stateMutability": "view",
      "type": "function"
    },
    {
      "inputs": [
        {
          "internalType": "address",
          "name": "user",
          "type": "address"
        }
      ],
      "name": "getUserAssets",
      "outputs": [
        {
          "internalType": "string[]",
          "name": "",
          "type": "string[]"
        }
      ],
      "stateMutability": "view",
      "type": "function"
    },
    {
      "inputs": [
        {
          "internalType": "string",
          "name": "",
          "type": "string"
        }
      ],
      "name": "libraryAssets",
      "outputs": [
        {
          "internalType": "string",
          "name": "projectId",
          "type": "string"
        },
        {
          "internalType": "string",
          "name": "name",
          "type": "string"
        },
        {
          "internalType": "string",
          "name": "description",
          "type": "string"
        },
        {
          "internalType": "uint256",
          "name": "royaltyPerImportETH",
          "type": "uint256"
        },
        {
          "internalType": "uint256",
          "name": "royaltyPerImportUSDC",
          "type": "uint256"
        },
        {
          "internalType": "address",
          "name": "currentOwner",
          "type": "address"
        },
        {
          "internalType": "address",
          "name": "originalCreator",
          "type": "address"
        },
        {
          "internalType": "uint256",
          "name": "listedAt",
          "type": "uint256"
        },
        {
          "internalType": "bool",
          "name": "exists",
          "type": "bool"
        },
        {
          "internalType": "bool",
          "name": "royaltyEnabled",
          "type": "bool"
        }
      ],
      "stateMutability": "view",
      "type": "function"
    },
    {
      "inputs": [],
      "name": "owner",
      "outputs": [
        {
          "internalType": "address",
          "name": "",
          "type": "address"
        }
      ],
      "stateMutability": "view",
      "type": "function"
    },
    {
      "inputs": [],
      "name": "pendingOwner",
      "outputs": [
        {
          "internalType": "address",
          "name": "",
          "type": "address"
        }
      ],
      "stateMutability": "view",
      "type": "function"
    },
    {
      "inputs": [],
      "name": "platformFeePercentage",
      "outputs": [
        {
          "internalType": "uint256",
          "name": "",
          "type": "uint256"
        }
      ],
      "stateMutability": "view",
      "type": "function"
    },
    {
      "inputs": [
        {
          "internalType": "string",
          "name": "projectId",
          "type": "string"
        },
        {
          "internalType": "string",
          "name": "name",
          "type": "string"
        },
        {
          "internalType": "string",
          "name": "description",
          "type": "string"
        },
        {
          "internalType": "uint256",
          "name": "royaltyPerImportETH",
          "type": "uint256"
        },
        {
          "internalType": "uint256",
          "name": "royaltyPerImportUSDC",
          "type": "uint256"
        }
      ],
      "name": "registerAsset",
      "outputs": [],
      "stateMutability": "nonpayable",
      "type": "function"
    },
    {
      "inputs": [],
      "name": "renounceOwnership",
      "outputs": [],
      "stateMutability": "nonpayable",
      "type": "function"
    },
    {
      "inputs": [],
      "name": "royaltyContract",
      "outputs": [
        {
          "internalType": "contract IClayRoyalty",
          "name": "",
          "type": "address"
        }
      ],
      "stateMutability": "view",
      "type": "function"
    },
    {
      "inputs": [
        {
          "internalType": "address",
          "name": "marketplace",
          "type": "address"
        },
        {
          "internalType": "bool",
          "name": "approved",
          "type": "bool"
        }
      ],
      "name": "setApprovedMarketplace",
      "outputs": [],
      "stateMutability": "nonpayable",
      "type": "function"
    },
    {
      "inputs": [
        {
          "internalType": "address",
          "name": "_royaltyContract",
          "type": "address"
        }
      ],
      "name": "setRoyaltyContract",
      "outputs": [],
      "stateMutability": "nonpayable",
      "type": "function"
    },
    {
      "inputs": [
        {
          "internalType": "string",
          "name": "projectId",
          "type": "string"
        },
        {
          "internalType": "address",
          "name": "newOwner",
          "type": "address"
        }
      ],
      "name": "transferAssetOwnership",
      "outputs": [],
      "stateMutability": "nonpayable",
      "type": "function"
    },
    {
      "inputs": [
        {
          "internalType": "address",
          "name": "newOwner",
          "type": "address"
        }
      ],
      "name": "transferOwnership",
      "outputs": [],
      "stateMutability": "nonpayable",
      "type": "function"
    },
    {
      "inputs": [
        {
          "internalType": "string",
          "name": "projectId",
          "type": "string"
        },
        {
          "internalType": "uint256",
          "name": "newRoyaltyETH",
          "type": "uint256"
        },
        {
          "internalType": "uint256",
          "name": "newRoyaltyUSDC",
          "type": "uint256"
        }
      ],
      "name": "updateRoyaltyFee",
      "outputs": [],
      "stateMutability": "nonpayable",
      "type": "function"
    },
    {
      "inputs": [],
      "name": "usdcToken",
      "outputs": [
        {
          "internalType": "contract IERC20",
          "name": "",
          "type": "address"
        }
      ],
      "stateMutability": "view",
      "type": "function"
    },
    {
      "inputs": [
        {
          "internalType": "address",
          "name": "",
          "type": "address"
        },
        {
          "internalType": "uint256",
          "name": "",
          "type": "uint256"
        }
      ],
      "name": "userOwnedAssets",
      "outputs": [
        {
          "internalType": "string",
          "name": "",
          "type": "string"
        }
      ],
      "stateMutability": "view",
      "type": "function"
    }
  ],
  "bytecode": "0x60a0346100f857601f611c3a38819003918201601f19168301916001600160401b038311848410176100fd578084926020946040528339810103126100f857516001600160a01b0390818116908190036100f85733156100df5760018060a01b031980600154166001556000543382821617600055604051933391167f8be0079c531659141344cd1fd0a4f28419497f9722a3daafe3b4186f6b6457e0600080a3600160025560fa60085573833589fcd6edb6e08f4c7c32d4f71b54bda029136080526003541617600355611b26908161011482396080518161154d0152f35b604051631e4fbdf760e01b815260006004820152602490fd5b600080fd5b634e487b7160e01b600052604160045260246000fdfe608080604052600436101561001357600080fd5b60003560e01c90816311eac8551461153a575080631663ee03146115115780631741cfc0146113cd5780632203f8f114611032578063543a9eb914610ff35780635d483ab914610fa6578063675bfec114610ea05780636cb3db2514610d8d5780636e07302b14610d6f578063715018a614610d0a578063765ff06114610c1957806379ba509714610b955780638c5deff814610b275780638da5cb5b14610afe578063bb09d9b714610acf578063bbf46b8414610a76578063cd5286d01461088c578063cdd78cfc1461086e578063d55a772d14610822578063d73792a914610805578063d9aa187c146107c2578063e24aa37c146106d7578063e30c3978146106ae578063e814d66b14610663578063ea608c9c14610507578063edd91367146104c1578063f2fde38b146104565763ff6c0dde1461015357600080fd5b346104515760a0366003190112610451576001600160401b03600435818111610451576101849036906004016115b9565b906024358181116104515761019d9036906004016115b9565b90604435908111610451576101b69036906004016115b9565b916064359181511561040c576040519382519060ff60086020978881818901966101e181838a61177b565b810160058152030190200154166103c75760405186916102008261157c565b85825282820190858252604083019081526060830188815260808401608435815260a085019133835260c086019333855260e087019542875261010088019960018b5261012089019960018b528d604051809381925180926102619261177b565b8101600581520301902097516102779089611833565b516102859060018901611833565b516102939060028801611833565b516003860155516004850155516005840180546001600160a01b039283166001600160a01b031991821617909155915160068501805491909216921691909117905551600782015591516008909201805460ff191692151560ff1692909217825551151581549060081b61ff00169061ff001916179055336000526006845281604060002090610322916118fa565b600754600160401b8110156103b1578060016103419201600755611625565b61039b57826103747f585d38ebcb0fe93ced4d64fbb112388b85b7726e7d87c5142521434d4f1223849461037993611833565b611927565b9261038f6040519260408452604084019061179e565b948201528033940390a3005b634e487b7160e01b600052600060045260246000fd5b634e487b7160e01b600052604160045260246000fd5b60405162461bcd60e51b815260048101879052601860248201527f417373657420616c7265616479207265676973746572656400000000000000006044820152606490fd5b60405162461bcd60e51b815260206004820152601a60248201527f50726f6a6563742049442063616e6e6f7420626520656d7074790000000000006044820152606490fd5b600080fd5b346104515760203660031901126104515761046f61160f565b6104776117c3565b60018060a01b0380911690816001600160601b0360a01b6001541617600155600054167f38d16b8cac22d99fc7c124b9cd0de2d3fa1faef420bfe791d8c362d765e22700600080a3005b34610451576020366003190112610451576004356001600160401b038111610451576104fb6104f660409236906004016115b9565b611985565b82519182526020820152f35b3461045157602080600319360112610451576004356001600160401b038111610451576105389036906004016115b9565b6040518281835161054c818385880161177b565b810160058152030190209060088201805461056960ff8216611947565b60ff8160081c1661061e5760058401546001600160a01b031633036105d957917f59e8620b0742a7acf1fa2c6236758d97e05221785068ee1ef79e8dde26cb755f939161010060409461ff0019161790556105cd6004600384015493015491611927565b948351928352820152a2005b60405162461bcd60e51b815260048101869052601d60248201527f4f6e6c79206f776e65722063616e20656e61626c6520726f79616c74790000006044820152606490fd5b60405162461bcd60e51b815260048101869052601760248201527f526f79616c747920616c726561647920656e61626c65640000000000000000006044820152606490fd5b3461045157602036600319011261045157600435600754811015610451576106966106906106aa92611625565b9061176a565b60405191829160208352602083019061179e565b0390f35b34610451576000366003190112610451576001546040516001600160a01b039091168152602090f35b34610451576020366003190112610451576004356001600160401b038111610451576107079036906004016115b9565b604051602081835161071c818385880161177b565b81016005815203019020600881019081549061073a60ff8316611947565b600501546001600160a01b031633036107855761ffff1916905561075e3391611927565b7fb50a82962555cb439c53739ec19c159c2039e25705651a754caa0857168116e5600080a3005b60405162461bcd60e51b81526020600482015260156024820152744f6e6c79206f776e65722063616e2064656c65746560581b6044820152606490fd5b34610451576020366003190112610451576107db61160f565b6107e36117c3565b600380546001600160a01b0319166001600160a01b0392909216919091179055005b346104515760003660031901126104515760206040516127108152f35b34610451576020366003190112610451576004356001600160401b0381116104515761085c61085760209236906004016115b9565b6119ce565b6040516001600160a01b039091168152f35b34610451576000366003190112610451576020600854604051908152f35b34610451576020366003190112610451576004356001600160401b0381116104515760206108c161091d9236906004016115b9565b60006101206040516108d28161157c565b60608152606085820152606060408201528260608201528260808201528260a08201528260c08201528260e0820152826101008201520152816040519382858094519384920161177b565b8101600581520301902060ff6008604051926109388461157c565b610941816116c4565b845261094f600182016116c4565b6020850152610960600282016116c4565b6040850152600381015460608501526004810154608085015260018060a01b0360058201541660a085015260018060a01b0360068201541660c0850152600781015460e08501520154818116151561010084015260081c161515610120820152604051809160208252610120610a186109e78351610140602087015261016086019061179e565b610a03602085015191601f19928388830301604089015261179e565b9060408501519086830301606087015261179e565b9160608101516080850152608081015160a085015260018060a01b0360a08201511660c085015260018060a01b0360c08201511660e085015260e0810151610100850152610100810151151582850152015115156101408301520390f35b3461045157604036600319011261045157610a8f61160f565b602435801515810361045157610acd91610aa76117c3565b60018060a01b0316600052600460205260406000209060ff801983541691151516179055565b005b3461045157600036600319011261045157602060405173833589fcd6edb6e08f4c7c32d4f71b54bda029138152f35b34610451576000366003190112610451576000546040516001600160a01b039091168152602090f35b3461045157602036600319011261045157600435600754811015610b5a57610696610b546106aa92611625565b506116c4565b60405162461bcd60e51b8152602060048201526013602482015272496e646578206f7574206f6620626f756e647360681b6044820152606490fd5b34610451576000366003190112610451576001546001600160a01b033381831603610c01576001600160601b0360a01b8092166001556000549133908316176000553391167f8be0079c531659141344cd1fd0a4f28419497f9722a3daafe3b4186f6b6457e0600080a3005b60405163118cdaa760e01b8152336004820152602490fd5b3461045157602080600319360112610451576001600160a01b03610c3b61160f565b166000526006815260406000208054906001600160401b0382116103b157829060405192610c6e838260051b0185611598565b8084528284018092600052836000206000915b838310610ce85750505050604051918083019381845251809452604083019360408160051b85010192916000955b828710610cbc5785850386f35b909192938280610cd8600193603f198a8203018652885161179e565b9601920196019592919092610caf565b6001868192610cf9859a999a6116c4565b815201920192019190959495610c81565b3461045157600036600319011261045157610d236117c3565b600180546001600160a01b0319908116909155600080549182168155906001600160a01b03167f8be0079c531659141344cd1fd0a4f28419497f9722a3daafe3b4186f6b6457e08280a3005b34610451576000366003190112610451576020600754604051908152f35b34610451576020366003190112610451576004356001600160401b03811161045157610dd86020610dc5610e4f9336906004016115b9565b816040519382858094519384920161177b565b81016005815203019020610deb816116c4565b9060ff610dfa600183016116c4565b610e06600284016116c4565b92600381015493600482015460018060a01b0390610e6b826005860154169260068601541693610e5d60086007880154970154976040519c8d9c8d61014090818152019061179e565b8c810360208e01529061179e565b908a820360408c015261179e565b966060890152608088015260a087015260c086015260e0850152818116151561010085015260081c1615156101208301520390f35b34610451576060366003190112610451576004356001600160401b03811161045157610ed09036906004016115b9565b602435604435916040516020818351610eec818385880161177b565b8101600581520301902091610f0760ff600885015416611947565b60058301546001600160a01b03163303610f6157610f53604092856004868560037f59e8620b0742a7acf1fa2c6236758d97e05221785068ee1ef79e8dde26cb755f9901550155611927565b9382519182526020820152a2005b60405162461bcd60e51b815260206004820152601d60248201527f4f6e6c79206f776e65722063616e2075706461746520726f79616c74790000006044820152606490fd5b3461045157604036600319011261045157610fbf61160f565b6001600160a01b0316600090815260066020526040902080546024359081101561045157610690610696916106aa93611672565b34610451576020366003190112610451576001600160a01b0361101461160f565b166000526004602052602060ff604060002054166040519015158152f35b34610451576040366003190112610451576004356001600160401b038111610451576110629036906004016115b9565b6024906001600160a01b03908235828116810361045157604051602081845161108e818385890161177b565b81016005815203019020926110a960ff600886015416611947565b806005850154169182331480156113b5575b1561137157818116156113395782600052600660205260406000209460005b865480821015611327576110ee8289611672565b50604051908160008254926111028461168a565b808452936001811690811561130557506001146112c3575b5061112792500382611598565b6020815191012087516020890120146111615750600019811461114c576001016110da565b87634e487b7160e01b60005260116004526000fd5b9060009792939495969719918281019081116112ae5761118461118c9185611672565b509184611672565b9190916112995761119c91611a14565b815480156112845701906111b08282611672565b61126f57611209969798506111c5815461168a565b9081611230575b5050555b60058383166001600160601b0360a01b82840154161791015581811660005260066020526112028560406000206118fa565b1692611927565b7f6840904f5b31827f74e1497360da245f56e530c8c3de3163a2d31f11493273c6600080a4005b600091601f80821160011461124a575050555b88806111cc565b9161126884929382845260208420940160051c8401600185016117d7565b5555611243565b88634e487b7160e01b60005260006004526000fd5b88634e487b7160e01b60005260316004526000fd5b89634e487b7160e01b60005260006004526000fd5b89634e487b7160e01b60005260116004526000fd5b9150506000526020600020906000915b8183106112ec575050816020611127928201018d61111a565b80546020848601810191909152909201916001016112d3565b90506020925061112794915060ff191682840152151560051b8201018d61111a565b505090919294506112099395506111d0565b60405162461bcd60e51b8152602060048201526011818801527024b73b30b634b2103732bb9037bbb732b960791b6044820152606490fd5b60405162461bcd60e51b815260206004820152601a818801527f4e6f7420617574686f72697a656420746f207472616e736665720000000000006044820152606490fd5b5033600052600460205260ff604060002054166110bb565b34610451576020366003190112610451576004356001600160401b038111610451576113fd9036906004016115b9565b6040516020818351611412818385880161177b565b81016005815203019020600881019081549061143060ff8316611947565b60ff8260081c16156114cc57600501546001600160a01b031633036114875761ff00191690556114603391611927565b7f90770cdbe2af4a141faa5d52bf81d7904916cf199ab0684f8d30cb4b477fae86600080a3005b60405162461bcd60e51b815260206004820152601e60248201527f4f6e6c79206f776e65722063616e2064697361626c6520726f79616c747900006044820152606490fd5b60405162461bcd60e51b815260206004820152601860248201527f526f79616c747920616c72656164792064697361626c656400000000000000006044820152606490fd5b34610451576000366003190112610451576003546040516001600160a01b039091168152602090f35b34610451576000366003190112610451577f00000000000000000000000000000000000000000000000000000000000000006001600160a01b03168152602090f35b61014081019081106001600160401b038211176103b157604052565b90601f801991011681019081106001600160401b038211176103b157604052565b81601f82011215610451578035906001600160401b0382116103b157604051926115ed601f8401601f191660200185611598565b8284526020838301011161045157816000926020809301838601378301015290565b600435906001600160a01b038216820361045157565b60075481101561165c5760076000527fa66cc928b5edb82af9bd49922954155ab7b0942694bea4ce44661d9a8736c6880190600090565b634e487b7160e01b600052603260045260246000fd5b805482101561165c5760005260206000200190600090565b90600182811c921680156116ba575b60208310146116a457565b634e487b7160e01b600052602260045260246000fd5b91607f1691611699565b90604051918260008254926116d88461168a565b9081845260019485811690816000146117475750600114611704575b505061170292500383611598565b565b9093915060005260209081600020936000915b81831061172f575050611702935082010138806116f4565b85548884018501529485019487945091830191611717565b91505061170294506020925060ff191682840152151560051b82010138806116f4565b9061039b57611778906116c4565b90565b60005b83811061178e5750506000910152565b818101518382015260200161177e565b906020916117b78151809281855285808601910161177b565b601f01601f1916010190565b6000546001600160a01b03163303610c0157565b8181106117e2575050565b600081556001016117d7565b9190601f81116117fd57505050565b611702926000526020600020906020601f840160051c83019310611829575b601f0160051c01906117d7565b909150819061181c565b91909182516001600160401b0381116103b15761185a81611854845461168a565b846117ee565b602080601f831160011461189657508192939460009261188b575b50508160011b916000199060031b1c1916179055565b015190503880611875565b90601f198316958460005282600020926000905b8882106118e2575050836001959697106118c9575b505050811b019055565b015160001960f88460031b161c191690553880806118bf565b806001859682949686015181550195019301906118aa565b8054600160401b8110156103b15761191791600182018155611672565b91909161039b5761170291611833565b61193f9060206040519282848094519384920161177b565b810103902090565b1561194e57565b60405162461bcd60e51b815260206004820152600f60248201526e105cdcd95d081b9bdd08199bdd5b99608a1b6044820152606490fd5b602061199e91816040519382858094519384920161177b565b810160058152030190209060ff600883015460081c16156119c6576004600383015492015490565b600091508190565b60206119e791816040519382858094519384920161177b565b8101600581520301902060ff60088201541615611a0e57600501546001600160a01b031690565b50600090565b90808214611aec57611a26815461168a565b906001600160401b0382116103b1578190611a4b82611a45865461168a565b866117ee565b600090601f8311600114611a8157600092611a765750508160011b916000199060031b1c1916179055565b015490503880611875565b81526020808220858352818320935090601f1985169083905b828210611ad3575050908460019594939210611aba57505050811b019055565b015460001960f88460031b161c191690553880806118bf565b8495819295850154815560018091019601940190611a9a565b505056fea26469706673582212205b40eb8c31ec503ff4b0b471d6cbc249e6a034f05a08b5374c95a4c0e0d7d78764736f6c63430008140033",
  "linkReferences": {},
  "deployedLinkReferences": {}
}