{
  "_format": "hh-sol-artifact-1",
  "contractName": "ClayRoyalty",
  "sourceName": "ClayRoyalty.sol",
  "abi": [
    {
      "inputs": [
        {
          "internalType": "address",
          "name": "_libraryContract",
          "type": "address"
        }
      ],
      "stateMutability": "nonpayable",
      "type": "constructor"
    },
    {
      "inputs": [
        {
          "internalType": "address",
          "name": "owner",
          "type": "address"
        }
      ],
      "name": "OwnableInvalidOwner",
      "type": "error"
    },
    {
      "inputs": [
        {
          "internalType": "address",
          "name": "account",
          "type": "address"
        }
      ],
      "name": "OwnableUnauthorizedAccount",
      "type": "error"
    },
    {
      "inputs": [],
      "name": "ReentrancyGuardReentrantCall",
      "type": "error"
    },
    {
      "anonymous": false,
      "inputs": [
        {
          "indexed": true,
          "internalType": "address",
          "name": "previousOwner",
          "type": "address"
        },
        {
          "indexed": true,
          "internalType": "address",
          "name": "newOwner",
          "type": "address"
        }
      ],
      "name": "OwnershipTransferred",
      "type": "event"
    },
    {
      "anonymous": false,
      "inputs": [
        {
          "indexed": true,
          "internalType": "string",
          "name": "projectId",
          "type": "string"
        },
        {
          "indexed": false,
          "internalType": "uint256",
          "name": "dependencyCount",
          "type": "uint256"
        }
      ],
      "name": "RoyaltiesRegistered",
      "type": "event"
    },
    {
      "anonymous": false,
      "inputs": [
        {
          "indexed": true,
          "internalType": "address",
          "name": "claimant",
          "type": "address"
        },
        {
          "indexed": false,
          "internalType": "uint256",
          "name": "amountETH",
          "type": "uint256"
        },
        {
          "indexed": false,
          "internalType": "uint256",
          "name": "amountUSDC",
          "type": "uint256"
        }
      ],
      "name": "RoyaltyClaimed",
      "type": "event"
    },
    {
      "anonymous": false,
      "inputs": [
        {
          "indexed": true,
          "internalType": "string",
          "name": "projectId",
          "type": "string"
        },
        {
          "indexed": true,
          "internalType": "address",
          "name": "recipient",
          "type": "address"
        },
        {
          "indexed": false,
          "internalType": "uint256",
          "name": "amountETH",
          "type": "uint256"
        },
        {
          "indexed": false,
          "internalType": "uint256",
          "name": "amountUSDC",
          "type": "uint256"
        }
      ],
      "name": "RoyaltyRecorded",
      "type": "event"
    },
    {
      "inputs": [],
      "name": "PERCENTAGE_DENOMINATOR",
      "outputs": [
        {
          "internalType": "uint256",
          "name": "",
          "type": "uint256"
        }
      ],
      "stateMutability": "view",
      "type": "function"
    },
    {
      "inputs": [],
      "name": "ROYALTY_PERCENTAGE",
      "outputs": [
        {
          "internalType": "uint256",
          "name": "",
          "type": "uint256"
        }
      ],
      "stateMutability": "view",
      "type": "function"
    },
    {
      "inputs": [],
      "name": "USDC_ADDRESS",
      "outputs": [
        {
          "internalType": "address",
          "name": "",
          "type": "address"
        }
      ],
      "stateMutability": "view",
      "type": "function"
    },
    {
      "inputs": [
        {
          "internalType": "string",
          "name": "projectId",
          "type": "string"
        },
        {
          "internalType": "uint256",
          "name": "priceETH",
          "type": "uint256"
        },
        {
          "internalType": "uint256",
          "name": "priceUSDC",
          "type": "uint256"
        }
      ],
      "name": "calculateTotalRoyalties",
      "outputs": [
        {
          "internalType": "uint256",
          "name": "totalETH",
          "type": "uint256"
        },
        {
          "internalType": "uint256",
          "name": "totalUSDC",
          "type": "uint256"
        }
      ],
      "stateMutability": "view",
      "type": "function"
    },
    {
      "inputs": [],
      "name": "claimRoyaltiesETH",
      "outputs": [],
      "stateMutability": "nonpayable",
      "type": "function"
    },
    {
      "inputs": [],
      "name": "claimRoyaltiesUSDC",
      "outputs": [],
      "stateMutability": "nonpayable",
      "type": "function"
    },
    {
      "inputs": [
        {
          "internalType": "address",
          "name": "account",
          "type": "address"
        }
      ],
      "name": "getPendingRoyalties",
      "outputs": [
        {
          "internalType": "uint256",
          "name": "eth",
          "type": "uint256"
        },
        {
          "internalType": "uint256",
          "name": "usdc",
          "type": "uint256"
        }
      ],
      "stateMutability": "view",
      "type": "function"
    },
    {
      "inputs": [
        {
          "internalType": "string",
          "name": "projectId",
          "type": "string"
        }
      ],
      "name": "getProjectDependencies",
      "outputs": [
        {
          "components": [
            {
              "internalType": "string",
              "name": "dependencyProjectId",
              "type": "string"
            },
            {
              "internalType": "uint256",
              "name": "royaltyPercentage",
              "type": "uint256"
            },
            {
              "internalType": "uint256",
              "name": "fixedRoyaltyETH",
              "type": "uint256"
            },
            {
              "internalType": "uint256",
              "name": "fixedRoyaltyUSDC",
              "type": "uint256"
            }
          ],
          "internalType": "struct ClayRoyalty.LibraryDependency[]",
          "name": "",
          "type": "tuple[]"
        }
      ],
      "stateMutability": "view",
      "type": "function"
    },
    {
      "inputs": [],
      "name": "libraryContract",
      "outputs": [
        {
          "internalType": "contract IClayLibrary",
          "name": "",
          "type": "address"
        }
      ],
      "stateMutability": "view",
      "type": "function"
    },
    {
      "inputs": [],
      "name": "owner",
      "outputs": [
        {
          "internalType": "address",
          "name": "",
          "type": "address"
        }
      ],
      "stateMutability": "view",
      "type": "function"
    },
    {
      "inputs": [
        {
          "internalType": "address",
          "name": "",
          "type": "address"
        }
      ],
      "name": "pendingRoyaltiesETH",
      "outputs": [
        {
          "internalType": "uint256",
          "name": "",
          "type": "uint256"
        }
      ],
      "stateMutability": "view",
      "type": "function"
    },
    {
      "inputs": [
        {
          "internalType": "address",
          "name": "",
          "type": "address"
        }
      ],
      "name": "pendingRoyaltiesUSDC",
      "outputs": [
        {
          "internalType": "uint256",
          "name": "",
          "type": "uint256"
        }
      ],
      "stateMutability": "view",
      "type": "function"
    },
    {
      "inputs": [
        {
          "internalType": "string",
          "name": "",
          "type": "string"
        }
      ],
      "name": "projectRoyalties",
      "outputs": [
        {
          "internalType": "string",
          "name": "projectId",
          "type": "string"
        },
        {
          "internalType": "bool",
          "name": "hasRoyalties",
          "type": "bool"
        }
      ],
      "stateMutability": "view",
      "type": "function"
    },
    {
      "inputs": [
        {
          "internalType": "string",
          "name": "projectId",
          "type": "string"
        },
        {
          "internalType": "uint256",
          "name": "price",
          "type": "uint256"
        },
        {
          "internalType": "enum ClayRoyalty.PaymentToken",
          "name": "paymentToken",
          "type": "uint8"
        }
      ],
      "name": "recordRoyalties",
      "outputs": [],
      "stateMutability": "payable",
      "type": "function"
    },
    {
      "inputs": [
        {
          "internalType": "string",
          "name": "projectId",
          "type": "string"
        },
        {
          "internalType": "string[]",
          "name": "dependencyProjectIds",
          "type": "string[]"
        },
        {
          "internalType": "uint256[]",
          "name": "dependencyPricesETH",
          "type": "uint256[]"
        },
        {
          "internalType": "uint256[]",
          "name": "dependencyPricesUSDC",
          "type": "uint256[]"
        },
        {
          "internalType": "uint256[]",
          "name": "royaltyPercentages",
          "type": "uint256[]"
        }
      ],
      "name": "registerProjectRoyalties",
      "outputs": [],
      "stateMutability": "nonpayable",
      "type": "function"
    },
    {
      "inputs": [],
      "name": "renounceOwnership",
      "outputs": [],
      "stateMutability": "nonpayable",
      "type": "function"
    },
    {
      "inputs": [
        {
          "internalType": "address",
          "name": "_libraryContract",
          "type": "address"
        }
      ],
      "name": "setLibraryContract",
      "outputs": [],
      "stateMutability": "nonpayable",
      "type": "function"
    },
    {
      "inputs": [
        {
          "internalType": "address",
          "name": "newOwner",
          "type": "address"
        }
      ],
      "name": "transferOwnership",
      "outputs": [],
      "stateMutability": "nonpayable",
      "type": "function"
    },
    {
      "inputs": [],
      "name": "usdcToken",
      "outputs": [
        {
          "internalType": "contract IERC20",
          "name": "",
          "type": "address"
        }
      ],
      "stateMutability": "view",
      "type": "function"
    },
    {
      "inputs": [
        {
          "internalType": "string",
          "name": "projectId",
          "type": "string"
        },
        {
          "internalType": "uint256",
          "name": "priceETH",
          "type": "uint256"
        },
        {
          "internalType": "uint256",
          "name": "priceUSDC",
          "type": "uint256"
        }
      ],
      "name": "validatePrice",
      "outputs": [
        {
          "internalType": "bool",
          "name": "",
          "type": "bool"
        }
      ],
      "stateMutability": "view",
      "type": "function"
    },
    {
      "stateMutability": "payable",
      "type": "receive"
    }
  ],
  "bytecode": "0x60a0346100f257601f61183e38819003918201601f19168301916001600160401b038311848410176100f7578084926020946040528339810103126100f257516001600160a01b0390818116908190036100f25733156100d95760005460018060a01b0319903382821617600055604051933391167f8be0079c531659141344cd1fd0a4f28419497f9722a3daafe3b4186f6b6457e0600080a36001805573833589fcd6edb6e08f4c7c32d4f71b54bda029136080526002541617600255611730908161010e8239608051818181610a820152610bfb0152f35b604051631e4fbdf760e01b815260006004820152602490fd5b600080fd5b634e487b7160e01b600052604160045260246000fdfe608080604052600436101561001d575b50361561001b57600080fd5b005b60003560e01c908163024fa0d614611195575080630434d60c146111725780630a3213df14610c2a57806311eac85514610be5578063141b5f0214610ba75780631ed6c59914610a1b578063463b08db146109fe5780634aa8a12d1461097857806350fd8e71146108395780635bf4b5c4146107fb578063715018a6146107a25780638da5cb5b14610779578063902509c214610649578063956456d9146105fe578063b3cd4254146105e1578063bb09d9b7146105b2578063bf704e661461058c578063c5787690146101c4578063ce0769c51461019b5763f2fde38b14610106573861000f565b34610196576020366003190112610196576004356001600160a01b038181169182900361019657610135611450565b811561017d57600054826bffffffffffffffffffffffff60a01b821617600055167f8be0079c531659141344cd1fd0a4f28419497f9722a3daafe3b4186f6b6457e0600080a3005b604051631e4fbdf760e01b815260006004820152602490fd5b600080fd5b34610196576000366003190112610196576002546040516001600160a01b039091168152602090f35b606080600319360112610196576004356001600160401b038111610196576101f0903690600401611237565b906044359160029182841015610196576102086116d7565b6040519081835160209381610221869383858a01611328565b810160058152030190209460ff858701541615610547576103c75750341561039557600193840193926000845b610260575b5050505050505b60018055005b8554811015610390578061028061027a6102b1938961151c565b50611558565b60018060a01b038581865416835190604051808098819463d55a772d60e01b8352866004840152602483019061142b565b03915afa918215610384576102e494600093610352575b50604001519182151580610347575b6102ea575b5050506114ba565b8461024e565b169081600052600386526040600020610304828254611591565b90557fcb9f559e28915be49dcceef3fd0e6953281bdd4efe058dff26dd513ca503799e604061033289611538565b928151908152600089820152a38780806102dc565b5081811615156102d7565b604091935061037690883d8a1161037d575b61036e81836111fb565b8101906116b8565b92906102c8565b503d610364565b6040513d6000823e3d90fd5b610253565b6064906040519062461bcd60e51b82526004820152600b60248201526a139bc8115512081cd95b9d60aa1b6044820152fd5b346104f757600194850194936000855b6103e8575b5050505050505061025a565b86548110156104f2576103fe61027a828961151c565b9061043360018060a01b038681865416855190604051808096819463d55a772d60e01b8352866004840152602483019061142b565b03915afa918215610384576104659487916000946104d3575b50015191821515806104c8575b61046b575050506114ba565b856103d7565b169081600052600487526040600020610485828254611591565b90557fcb9f559e28915be49dcceef3fd0e6953281bdd4efe058dff26dd513ca503799e60406104b38a611538565b92815190600082528a820152a38880806102dc565b508181161515610459565b6104eb919450893d8b1161037d5761036e81836111fb565b928c61044c565b6103dc565b60405162461bcd60e51b815260048101839052602260248201527f446f206e6f742073656e642045544820666f72205553444320726f79616c7469604482015261657360f01b6064820152608490fd5b60405162461bcd60e51b815260048101849052601d60248201527f4e6f20726f79616c7469657320666f7220746869732070726f6a6563740000006044820152606490fd5b346101965760406105a661059f3661127e565b505061159e565b82519182526020820152f35b3461019657600036600319011261019657602060405173833589fcd6edb6e08f4c7c32d4f71b54bda029138152f35b346101965760003660031901126101965760206040516127108152f35b34610196576020366003190112610196576004356001600160a01b038116908190036101965761062c611450565b6bffffffffffffffffffffffff60a01b6002541617600255600080f35b34610196576000366003190112610196576106626116d7565b3360005260206003815260406000205490811561073557336000526003815260006040812055600080808085335af13d15610730573d6106a18161121c565b906106af60405192836111fb565b81526000833d92013e5b156106f6576000906040519283528201527f6fe778711f06ca052305b633ba1b304f4d71c1523776f2aa3059d8d99f5420de60403392a260018055005b6064906040519062461bcd60e51b825260048201526013602482015272115512081d1c985b9cd9995c8819985a5b1959606a1b6044820152fd5b6106b9565b6064906040519062461bcd60e51b82526004820152601860248201527f4e6f2070656e64696e672045544820726f79616c7469657300000000000000006044820152fd5b34610196576000366003190112610196576000546040516001600160a01b039091168152602090f35b34610196576000366003190112610196576107bb611450565b600080546001600160a01b0319811682556001600160a01b03167f8be0079c531659141344cd1fd0a4f28419497f9722a3daafe3b4186f6b6457e08280a3005b34610196576020366003190112610196576004356001600160a01b038116908190036101965760005260046020526020604060002054604051908152f35b3461019657602080600319360112610196576004356001600160401b0381116101965761086a903690600401611237565b908061087f6040519384815193849201611328565b82016005815282826001948593030190200180549161089d836112b3565b926108ab60405194856111fb565b8084528184018093600052826000206000915b83831061095357505050506040519384938285019083865251809152604085019260408260051b87010194936000905b8382106108fb5787870388f35b918496819592949698508190603f198b82030185528951906109258251608080845283019061142b565b91838101518483015260408101516040830152606080910151910152980192019201879695939194926108ee565b96600485829798969961096585611558565b81520192019201919096939594966108be565b34610196576020366003190112610196576004356001600160401b038111610196576109c360206109b06109f2933690600401611237565b8160405193828580945193849201611328565b8101600581520301902060ff60026109da83611385565b9201541660405192839260408452604084019061142b565b90151560208301520390f35b346101965760003660031901126101965760206040516103e88152f35b3461019657600036600319011261019657610a346116d7565b336000526020600481526040600020548015610b625733600052600482526000604081205560405163a9059cbb60e01b81523360048201528160248201528281604481600060018060a01b037f0000000000000000000000000000000000000000000000000000000000000000165af190811561038457600091610b2c575b5015610af05760405191600083528201527f6fe778711f06ca052305b633ba1b304f4d71c1523776f2aa3059d8d99f5420de60403392a260018055005b60405162461bcd60e51b81526004810183905260146024820152731554d110c81d1c985b9cd9995c8819985a5b195960621b6044820152606490fd5b90508281813d8311610b5b575b610b4381836111fb565b81010312610196575180151581036101965783610ab3565b503d610b39565b60405162461bcd60e51b815260048101839052601960248201527f4e6f2070656e64696e67205553444320726f79616c74696573000000000000006044820152606490fd5b34610196576020366003190112610196576004356001600160a01b038116908190036101965760005260036020526020604060002054604051908152f35b34610196576000366003190112610196576040517f00000000000000000000000000000000000000000000000000000000000000006001600160a01b03168152602090f35b346101965760a0366003190112610196576004356001600160401b03811161019657610c5a903690600401611237565b602435906001600160401b0382116101965736602383011215610196578160040135610c85816112b3565b92610c9360405194856111fb565b8184526024602085019260051b820101903682116101965760248101925b8284106111435785856044356001600160401b03811161019657610cd99036906004016112ca565b6064356001600160401b03811161019657610cf89036906004016112ca565b926084356001600160401b03811161019657610d189036906004016112ca565b93610d26825186511461147c565b610d33825184511461147c565b610d40825182511461147c565b60405160ff6002865192602081818a0195610d5c818389611328565b810160058152030190200154166110fe576020610d8491604051809381928951928391611328565b810160058152030190209284516001600160401b038111610fe457610da9855461134b565b601f81116110ba575b50806020601f821160011461105357600091611048575b508160011b916000199060031b1c19161784555b60028401805460ff1916600117905560005b835181101561101057610e1d610e0582846114df565b51612710918291610e16858c6114df565b5190611509565b0490610e37610e2c84876114df565b51610e16858c6114df565b04610e4283876114df565b5191610e4e848b6114df565b5160405193610e5c856111e0565b8452602084015260408301526060820152600186015468010000000000000000811015610fe457806001610e99920160018901556001880161151c565b919091610ffa5780518051906001600160401b038211610fe457610ebd845461134b565b601f8111610fa0575b50602090601f8311600114610f2d579282600393606093610f1d989796600092610f22575b50508160011b9160001990861b1c19161784555b602081015160018501556040810151600285015501519101556114ba565b610def565b015190508e80610eeb565b908460005260206000209160005b601f1985168110610f88575083606093610f1d98979693600193600397601f19811610610f70575b505050811b018455610eff565b015160001983881b60f8161c191690558e8080610f63565b91926020600181928685015181550194019201610f3b565b846000526020600020601f840160051c810160208510610fdd575b601f830160051c82018110610fd1575050610ec6565b60008155600101610fbb565b5080610fbb565b634e487b7160e01b600052604160045260246000fd5b634e487b7160e01b600052600060045260246000fd5b83517f92da81cc62c0efa31ecf38ecbdd2fb28add3e9af1063dde557cb388d8f9b3ef2602061103e89611538565b92604051908152a2005b905086015188610dc9565b91508560005260206000206000925b601f19831684106110a2576001935082601f19811610611089575b5050811b018455610ddd565b88015160001960f88460031b161c19169055888061107d565b88810151825560209384019360019092019101611062565b856000526020600020601f830160051c8101602084106110f7575b601f830160051c820181106110eb575050610db2565b600081556001016110d5565b50806110d5565b60405162461bcd60e51b815260206004820152601c60248201527f526f79616c7469657320616c72656164792072656769737465726564000000006044820152606490fd5b83356001600160401b03811161019657602091611167839260243691870101611237565b815201930192610cb1565b3461019657602061118b6111853661127e565b9161163b565b6040519015158152f35b34610196576020366003190112610196576004356001600160a01b03811691908290036101965760409160005260036020528160002054600460205282600020549082526020820152f35b608081019081106001600160401b03821117610fe457604052565b90601f801991011681019081106001600160401b03821117610fe457604052565b6001600160401b038111610fe457601f01601f191660200190565b81601f820112156101965780359061124e8261121c565b9261125c60405194856111fb565b8284526020838301011161019657816000926020809301838601378301015290565b606060031982011261019657600435906001600160401b038211610196576112a891600401611237565b906024359060443590565b6001600160401b038111610fe45760051b60200190565b81601f82011215610196578035916112e1836112b3565b926112ef60405194856111fb565b808452602092838086019260051b820101928311610196578301905b828210611319575050505090565b8135815290830190830161130b565b60005b83811061133b5750506000910152565b818101518382015260200161132b565b90600182811c9216801561137b575b602083101461136557565b634e487b7160e01b600052602260045260246000fd5b91607f169161135a565b90604051918260008254926113998461134b565b90818452600194858116908160001461140857506001146113c5575b50506113c3925003836111fb565b565b9093915060005260209081600020936000915b8183106113f05750506113c3935082010138806113b5565b855488840185015294850194879450918301916113d8565b9150506113c394506020925060ff191682840152151560051b82010138806113b5565b9060209161144481518092818552858086019101611328565b601f01601f1916010190565b6000546001600160a01b0316330361146457565b60405163118cdaa760e01b8152336004820152602490fd5b1561148357565b60405162461bcd60e51b815260206004820152600f60248201526e098cadccee8d040dad2e6dac2e8c6d608b1b6044820152606490fd5b60001981146114c95760010190565b634e487b7160e01b600052601160045260246000fd5b80518210156114f35760209160051b010190565b634e487b7160e01b600052603260045260246000fd5b818102929181159184041417156114c957565b80548210156114f35760005260206000209060021b0190600090565b61155090602060405192828480945193849201611328565b810103902090565b90604051611565816111e0565b60606003829461157481611385565b845260018101546020850152600281015460408501520154910152565b919082018092116114c957565b90600080926115bd602060409281845193828580945193849201611328565b810160058152030190209060ff6002830154161561162e57600160009201908154915b8284106115ef57505050509190565b9091929561162061162691606061161761160c61027a8c8861151c565b98878a015190611591565b97015190611591565b966114ba565b9291906115e0565b5050509050600090600090565b91909160ff600260405160208185516116578183858a01611328565b81016005815203019020015416156116b0576116729061159e565b9083151593846116a5575b5050811515918261169a575b50508115611695575090565b905090565b101590503880611689565b10159250388061167d565b505050600190565b9081602091031261019657516001600160a01b03811681036101965790565b6002600154146116e8576002600155565b604051633ee5aeb560e01b8152600490fdfea2646970667358221220974633caedb5e648b7da0663ce1f01dc45536b661fc75f34084b4542571522d564736f6c63430008140033",
  "linkReferences": {},
  "deployedLinkReferences": {}
}