{
  "_format": "hh-sol-artifact-1",
  "contractName": "ClayRoyalty",
  "sourceName": "ClayRoyalty.sol",
  "abi": [
    {
      "inputs": [],
      "stateMutability": "nonpayable",
      "type": "constructor"
    },
    {
      "inputs": [
        {
          "internalType": "address",
          "name": "owner",
          "type": "address"
        }
      ],
      "name": "OwnableInvalidOwner",
      "type": "error"
    },
    {
      "inputs": [
        {
          "internalType": "address",
          "name": "account",
          "type": "address"
        }
      ],
      "name": "OwnableUnauthorizedAccount",
      "type": "error"
    },
    {
      "inputs": [],
      "name": "ReentrancyGuardReentrantCall",
      "type": "error"
    },
    {
      "anonymous": false,
      "inputs": [
        {
          "indexed": true,
          "internalType": "address",
          "name": "previousOwner",
          "type": "address"
        },
        {
          "indexed": true,
          "internalType": "address",
          "name": "newOwner",
          "type": "address"
        }
      ],
      "name": "OwnershipTransferred",
      "type": "event"
    },
    {
      "anonymous": false,
      "inputs": [
        {
          "indexed": true,
          "internalType": "string",
          "name": "projectId",
          "type": "string"
        },
        {
          "indexed": true,
          "internalType": "string",
          "name": "dependencyId",
          "type": "string"
        },
        {
          "indexed": true,
          "internalType": "address",
          "name": "creator",
          "type": "address"
        },
        {
          "indexed": false,
          "internalType": "uint256",
          "name": "amountETH",
          "type": "uint256"
        },
        {
          "indexed": false,
          "internalType": "uint256",
          "name": "amountUSDC",
          "type": "uint256"
        }
      ],
      "name": "RoyaltiesPaid",
      "type": "event"
    },
    {
      "anonymous": false,
      "inputs": [
        {
          "indexed": true,
          "internalType": "string",
          "name": "projectId",
          "type": "string"
        },
        {
          "indexed": false,
          "internalType": "uint256",
          "name": "dependencyCount",
          "type": "uint256"
        },
        {
          "indexed": false,
          "internalType": "uint256",
          "name": "totalRoyaltyETH",
          "type": "uint256"
        },
        {
          "indexed": false,
          "internalType": "uint256",
          "name": "totalRoyaltyUSDC",
          "type": "uint256"
        }
      ],
      "name": "RoyaltiesRegistered",
      "type": "event"
    },
    {
      "inputs": [],
      "name": "PERCENTAGE_DENOMINATOR",
      "outputs": [
        {
          "internalType": "uint256",
          "name": "",
          "type": "uint256"
        }
      ],
      "stateMutability": "view",
      "type": "function"
    },
    {
      "inputs": [],
      "name": "ROYALTY_PERCENTAGE",
      "outputs": [
        {
          "internalType": "uint256",
          "name": "",
          "type": "uint256"
        }
      ],
      "stateMutability": "view",
      "type": "function"
    },
    {
      "inputs": [],
      "name": "USDC_ADDRESS",
      "outputs": [
        {
          "internalType": "address",
          "name": "",
          "type": "address"
        }
      ],
      "stateMutability": "view",
      "type": "function"
    },
    {
      "inputs": [
        {
          "internalType": "string",
          "name": "projectId",
          "type": "string"
        },
        {
          "internalType": "enum ClayRoyalty.PaymentToken",
          "name": "paymentToken",
          "type": "uint8"
        }
      ],
      "name": "distributeRoyalties",
      "outputs": [],
      "stateMutability": "payable",
      "type": "function"
    },
    {
      "inputs": [
        {
          "internalType": "string",
          "name": "projectId",
          "type": "string"
        }
      ],
      "name": "getMinimumPrice",
      "outputs": [
        {
          "internalType": "uint256",
          "name": "minPriceETH",
          "type": "uint256"
        },
        {
          "internalType": "uint256",
          "name": "minPriceUSDC",
          "type": "uint256"
        }
      ],
      "stateMutability": "view",
      "type": "function"
    },
    {
      "inputs": [
        {
          "internalType": "string",
          "name": "projectId",
          "type": "string"
        }
      ],
      "name": "getProjectDependencies",
      "outputs": [
        {
          "components": [
            {
              "internalType": "string",
              "name": "projectId",
              "type": "string"
            },
            {
              "internalType": "address",
              "name": "creator",
              "type": "address"
            },
            {
              "internalType": "uint256",
              "name": "royaltyETH",
              "type": "uint256"
            },
            {
              "internalType": "uint256",
              "name": "royaltyUSDC",
              "type": "uint256"
            }
          ],
          "internalType": "struct ClayRoyalty.LibraryDependency[]",
          "name": "",
          "type": "tuple[]"
        }
      ],
      "stateMutability": "view",
      "type": "function"
    },
    {
      "inputs": [
        {
          "internalType": "string",
          "name": "projectId",
          "type": "string"
        }
      ],
      "name": "getTotalRoyalties",
      "outputs": [
        {
          "internalType": "uint256",
          "name": "totalETH",
          "type": "uint256"
        },
        {
          "internalType": "uint256",
          "name": "totalUSDC",
          "type": "uint256"
        }
      ],
      "stateMutability": "view",
      "type": "function"
    },
    {
      "inputs": [],
      "name": "owner",
      "outputs": [
        {
          "internalType": "address",
          "name": "",
          "type": "address"
        }
      ],
      "stateMutability": "view",
      "type": "function"
    },
    {
      "inputs": [
        {
          "internalType": "string",
          "name": "",
          "type": "string"
        }
      ],
      "name": "projectRoyalties",
      "outputs": [
        {
          "internalType": "string",
          "name": "projectId",
          "type": "string"
        },
        {
          "internalType": "uint256",
          "name": "totalRoyaltyETH",
          "type": "uint256"
        },
        {
          "internalType": "uint256",
          "name": "totalRoyaltyUSDC",
          "type": "uint256"
        },
        {
          "internalType": "bool",
          "name": "hasRoyalties",
          "type": "bool"
        }
      ],
      "stateMutability": "view",
      "type": "function"
    },
    {
      "inputs": [
        {
          "internalType": "string",
          "name": "projectId",
          "type": "string"
        },
        {
          "internalType": "string[]",
          "name": "dependencyIds",
          "type": "string[]"
        },
        {
          "internalType": "address[]",
          "name": "dependencyCreators",
          "type": "address[]"
        },
        {
          "internalType": "uint256[]",
          "name": "dependencyPricesETH",
          "type": "uint256[]"
        },
        {
          "internalType": "uint256[]",
          "name": "dependencyPricesUSDC",
          "type": "uint256[]"
        }
      ],
      "name": "registerProjectRoyalties",
      "outputs": [],
      "stateMutability": "nonpayable",
      "type": "function"
    },
    {
      "inputs": [],
      "name": "renounceOwnership",
      "outputs": [],
      "stateMutability": "nonpayable",
      "type": "function"
    },
    {
      "inputs": [
        {
          "internalType": "address",
          "name": "newOwner",
          "type": "address"
        }
      ],
      "name": "transferOwnership",
      "outputs": [],
      "stateMutability": "nonpayable",
      "type": "function"
    },
    {
      "inputs": [],
      "name": "usdcToken",
      "outputs": [
        {
          "internalType": "contract IERC20",
          "name": "",
          "type": "address"
        }
      ],
      "stateMutability": "view",
      "type": "function"
    },
    {
      "inputs": [
        {
          "internalType": "string",
          "name": "projectId",
          "type": "string"
        },
        {
          "internalType": "uint256",
          "name": "priceETH",
          "type": "uint256"
        },
        {
          "internalType": "uint256",
          "name": "priceUSDC",
          "type": "uint256"
        }
      ],
      "name": "validatePrice",
      "outputs": [
        {
          "internalType": "bool",
          "name": "",
          "type": "bool"
        }
      ],
      "stateMutability": "view",
      "type": "function"
    }
  ],
  "bytecode": "0x60a080604052346100a65733156100905760008054336001600160a01b03198216811783556040519290916001600160a01b0316907f8be0079c531659141344cd1fd0a4f28419497f9722a3daafe3b4186f6b6457e09080a36001805573833589fcd6edb6e08f4c7c32d4f71b54bda029136080526113d090816100ac8239608051818181610c1d0152610e7e0152f35b631e4fbdf760e01b815260006004820152602490fd5b600080fdfe6080604052600436101561001257600080fd5b60003560e01c80630434d60c14610ead5780630467f04a1461014b57806311eac85514610e68578063463b08db14610e4b5780634aa8a12d14610dae57806350698181146109a957806350fd8e7114610862578063681229a01461021e578063715018a6146101c55780638da5cb5b1461019c578063b3cd42541461017f578063bb09d9b714610150578063e2b3a4d31461014b5763f2fde38b146100b657600080fd5b34610146576020366003190112610146576004356001600160a01b0381811691829003610146576100e561119d565b811561012d57600054826bffffffffffffffffffffffff60a01b821617600055167f8be0079c531659141344cd1fd0a4f28419497f9722a3daafe3b4186f6b6457e0600080a3005b604051631e4fbdf760e01b815260006004820152602490fd5b600080fd5b610f97565b3461014657600036600319011261014657602060405173833589fcd6edb6e08f4c7c32d4f71b54bda029138152f35b346101465760003660031901126101465760206040516127108152f35b34610146576000366003190112610146576000546040516001600160a01b039091168152602090f35b34610146576000366003190112610146576101de61119d565b600080546001600160a01b0319811682556001600160a01b03167f8be0079c531659141344cd1fd0a4f28419497f9722a3daafe3b4186f6b6457e08280a3005b346101465760a0366003190112610146576004356001600160401b0381116101465761024e903690600401610f50565b602435906001600160401b038211610146573660238301121561014657816004013561027981611128565b926102876040519485610f14565b8184526024602085019260051b820101903682116101465760248101925b8284106108335760443585876001600160401b03831161014657366023840112156101465782600401356102d881611128565b936102e66040519586610f14565b8185526024602086019260051b8201019036821161014657602401915b818310610813575050506064356001600160401b0381116101465761032c90369060040161113f565b906084356001600160401b0381116101465761034c90369060040161113f565b9361035a82518251146111c9565b61036782518451146111c9565b61037482518651146111c9565b6040519460ff600487602081895161039081848d019d8e611000565b810160028152030190200154166107ce576000916103bd6020600098604051809381928b51928391611000565b810160028152030190209486516001600160401b038111610684576103e28754611023565b601f811161078a575b50806020601f821160011461072257600091610717575b508160011b916000199060031b1c19161786555b60048601805460ff191660011790556000975b85518910156106c65761043c8983611216565b51806103e88102046103e814811517156106b05761045a8a86611216565b5195866103e88102046103e814871517156106b0576104798b89611216565b51916001600160a01b0361048d8d88611216565b51166040519361049c85610ef9565b8452602084015261271092836103e88302046040820152836103e88a0204606082015260018b01546801000000000000000081101561068457808c6001806104eb940191015560018d01611240565b91909161069a5780518051906001600160401b0382116106845761050f8454611023565b601f8111610640575b50602090601f83116001146105bd5787956103e8956003606061059d97876105ac9e9c986105a69e988c986000926105b2575b50508160011b9160001990861b1c19161784555b6001840160018060a01b036020830151166bffffffffffffffffffffffff60a01b82541617905560408101516002850155015191015502049061125c565b9802049061125c565b98611207565b97610429565b01519050388061054b565b908460005260206000209160005b601f19851681106106285750956103e8956003606061059d976001886105ac9f9d99986105a69f9d988d998f9b601f19811610610610575b505050811b01845561055f565b015160001983881b60f8161c19169055388080610603565b919260206001819286850151815501940192016105cb565b846000526020600020601f840160051c81016020851061067d575b601f830160051c82018110610671575050610518565b6000815560010161065b565b508061065b565b634e487b7160e01b600052604160045260246000fd5b634e487b7160e01b600052600060045260246000fd5b634e487b7160e01b600052601160045260246000fd5b7f90852e23d98cfd0bfb841a78f89528019f9f8df93b9ac09d395a8dca85c808d4606089836107038a8a9660038e89600282015501555192611269565b9460405192835260208301526040820152a2005b90508801518a610402565b91508760005260206000206000925b8a601f198416851061077357506001935082601f1981161061075a575b5050811b018655610416565b8a015160001960f88460031b161c191690558a8061074e565b810151825560209384019360019092019101610731565b876000526020600020601f830160051c8101602084106107c7575b601f830160051c820181106107bb5750506103eb565b600081556001016107a5565b50806107a5565b60405162461bcd60e51b815260206004820152601c60248201527f526f79616c7469657320616c72656164792072656769737465726564000000006044820152606490fd5b82356001600160a01b038116810361014657815260209283019201610303565b83356001600160401b03811161014657602091610857839260243691870101610f50565b8152019301926102a5565b3461014657602080600319360112610146576004356001600160401b03811161014657610893903690600401610f50565b90806108a86040519384815193849201611000565b8201600281528282600194859303019020018054916108c683611128565b926108d46040519485610f14565b8084528184018093600052826000206000915b83831061098457505050506040519384938285019083865251809152604085019260408260051b87010194936000905b8382106109245787870388f35b918496819592949698508190603f198b820301855289519061094e82516080808452830190611103565b9160018060a01b038482015116848301526040810151604083015260608091015191015298019201920187969593919492610917565b966004858297989699610996856112e3565b81520192019201919096939594966108e7565b6040366003190112610146576004356001600160401b038111610146576109d4903690600401610f50565b602435600281101561014657600260015414610d9c5760026001556040516020818451610a048183858901611000565b810160028152030190209060ff60048301541615610d5757610ba057600281019182543410610b5b5760016000939201925b8354811015610aeb5780610a56610a50610a6b9387611240565b506112e3565b6040810190815180610a70575b505050611207565b610a36565b6020820191610a99600080808060018060a01b0396878951165af1610a9361136a565b50611325565b519151169151907f18b34082ce4e137e46d932122239d7a120d3eaf5e7f50697068797df73d5dd236040610ad5610acf89611269565b93611269565b93815190815260006020820152a4858080610a63565b50505434818103925082116106b0573403610b09575b505b60018055005b600080808093335af1610b1a61136a565b5015610b265780610b01565b60405162461bcd60e51b815260206004820152600d60248201526c1499599d5b990819985a5b1959609a1b6044820152606490fd5b60405162461bcd60e51b815260206004820152601e60248201527f496e73756666696369656e742045544820666f7220726f79616c7469657300006044820152606490fd5b34610d075760005b6001820154811015610cff57610bc4610a508260018501611240565b90606082015180610be0575b50610bdb9150611207565b610ba8565b6020838101516040516323b872dd60e01b81523360048201526001600160a01b0391821660248201526044810193909352829060649082906000907f0000000000000000000000000000000000000000000000000000000000000000165af1908115610cf357600091610cb4575b5091610c5c610bdb93611325565b8051606060018060a01b03602084015116920151907f18b34082ce4e137e46d932122239d7a120d3eaf5e7f50697068797df73d5dd236040610ca0610acf8a611269565b93815190600082526020820152a484610bd0565b90506020813d602011610ceb575b81610ccf60209383610f14565b8101031261014657519182151583036101465791610c5c610c4e565b3d9150610cc2565b6040513d6000823e3d90fd5b505050610b03565b60405162461bcd60e51b815260206004820152602260248201527f446f206e6f742073656e642045544820666f72205553444320726f79616c7469604482015261657360f01b6064820152608490fd5b60405162461bcd60e51b815260206004820152601a60248201527f4e6f20726f79616c7469657320746f20646973747269627574650000000000006044820152606490fd5b604051633ee5aeb560e01b8152600490fd5b34610146576020366003190112610146576004356001600160401b03811161014657610df96020610de6610e35933690600401610f50565b8160405193828580945193849201611000565b81016002815203019020610e0c8161105d565b9060028101549060ff600460038301549201541690604051948594608086526080860190611103565b9260208501526040840152151560608301520390f35b346101465760003660031901126101465760206040516103e88152f35b34610146576000366003190112610146576040517f00000000000000000000000000000000000000000000000000000000000000006001600160a01b03168152602090f35b34610146576060366003190112610146576004356001600160401b03811161014657610eef610ee26020923690600401610f50565b6044359060243590611289565b6040519015158152f35b608081019081106001600160401b0382111761068457604052565b90601f801991011681019081106001600160401b0382111761068457604052565b6001600160401b03811161068457601f01601f191660200190565b81601f8201121561014657803590610f6782610f35565b92610f756040519485610f14565b8284526020838301011161014657816000926020809301838601378301015290565b34610146576020366003190112610146576004356001600160401b03811161014657610fe06020610fce6040933690600401610f50565b81845193828580945193849201611000565b810160028152030190206003600282015491015482519182526020820152f35b60005b8381106110135750506000910152565b8181015183820152602001611003565b90600182811c92168015611053575b602083101461103d57565b634e487b7160e01b600052602260045260246000fd5b91607f1691611032565b906040519182600082549261107184611023565b9081845260019485811690816000146110e0575060011461109d575b505061109b92500383610f14565b565b9093915060005260209081600020936000915b8183106110c857505061109b9350820101388061108d565b855488840185015294850194879450918301916110b0565b91505061109b94506020925060ff191682840152151560051b820101388061108d565b9060209161111c81518092818552858086019101611000565b601f01601f1916010190565b6001600160401b0381116106845760051b60200190565b81601f820112156101465780359161115683611128565b926111646040519485610f14565b808452602092838086019260051b820101928311610146578301905b82821061118e575050505090565b81358152908301908301611180565b6000546001600160a01b031633036111b157565b60405163118cdaa760e01b8152336004820152602490fd5b156111d057565b60405162461bcd60e51b815260206004820152600f60248201526e098cadccee8d040dad2e6dac2e8c6d608b1b6044820152606490fd5b60001981146106b05760010190565b805182101561122a5760209160051b010190565b634e487b7160e01b600052603260045260246000fd5b805482101561122a5760005260206000209060021b0190600090565b919082018092116106b057565b61128190602060405192828480945193849201611000565b810103902090565b60206112a5919392938160405193828580945193849201611000565b810160028152030190209160ff600484015416156112db5760039060028401541192015411158115916112d6575090565b905090565b505050600190565b906040516112f081610ef9565b6060600382946112ff8161105d565b845260018101546001600160a01b03166020850152600281015460408501520154910152565b1561132c57565b60405162461bcd60e51b8152602060048201526016602482015275149bde585b1d1e481c185e5b595b9d0819985a5b195960521b6044820152606490fd5b3d15611395573d9061137b82610f35565b916113896040519384610f14565b82523d6000602084013e565b60609056fea26469706673582212200cad0410bded29f67f6e4717800ba37a9cf9f5ce170e4b683539523e0e32910564736f6c63430008140033",
  "linkReferences": {},
  "deployedLinkReferences": {}
}