{
  "_format": "hh-sol-artifact-1",
  "contractName": "ClayRoyalty",
  "sourceName": "ClayRoyalty.sol",
  "abi": [
    {
      "inputs": [
        {
          "internalType": "address",
          "name": "_libraryContract",
          "type": "address"
        }
      ],
      "stateMutability": "nonpayable",
      "type": "constructor"
    },
    {
      "inputs": [
        {
          "internalType": "address",
          "name": "owner",
          "type": "address"
        }
      ],
      "name": "OwnableInvalidOwner",
      "type": "error"
    },
    {
      "inputs": [
        {
          "internalType": "address",
          "name": "account",
          "type": "address"
        }
      ],
      "name": "OwnableUnauthorizedAccount",
      "type": "error"
    },
    {
      "inputs": [],
      "name": "ReentrancyGuardReentrantCall",
      "type": "error"
    },
    {
      "anonymous": false,
      "inputs": [
        {
          "indexed": true,
          "internalType": "address",
          "name": "previousOwner",
          "type": "address"
        },
        {
          "indexed": true,
          "internalType": "address",
          "name": "newOwner",
          "type": "address"
        }
      ],
      "name": "OwnershipTransferred",
      "type": "event"
    },
    {
      "anonymous": false,
      "inputs": [
        {
          "indexed": true,
          "internalType": "string",
          "name": "projectId",
          "type": "string"
        },
        {
          "indexed": false,
          "internalType": "uint256",
          "name": "dependencyCount",
          "type": "uint256"
        }
      ],
      "name": "RoyaltiesRegistered",
      "type": "event"
    },
    {
      "anonymous": false,
      "inputs": [
        {
          "indexed": true,
          "internalType": "address",
          "name": "claimant",
          "type": "address"
        },
        {
          "indexed": false,
          "internalType": "uint256",
          "name": "amountETH",
          "type": "uint256"
        },
        {
          "indexed": false,
          "internalType": "uint256",
          "name": "amountUSDC",
          "type": "uint256"
        }
      ],
      "name": "RoyaltyClaimed",
      "type": "event"
    },
    {
      "anonymous": false,
      "inputs": [
        {
          "indexed": true,
          "internalType": "string",
          "name": "projectId",
          "type": "string"
        },
        {
          "indexed": true,
          "internalType": "address",
          "name": "recipient",
          "type": "address"
        },
        {
          "indexed": false,
          "internalType": "uint256",
          "name": "amountETH",
          "type": "uint256"
        },
        {
          "indexed": false,
          "internalType": "uint256",
          "name": "amountUSDC",
          "type": "uint256"
        }
      ],
      "name": "RoyaltyRecorded",
      "type": "event"
    },
    {
      "inputs": [],
      "name": "PERCENTAGE_DENOMINATOR",
      "outputs": [
        {
          "internalType": "uint256",
          "name": "",
          "type": "uint256"
        }
      ],
      "stateMutability": "view",
      "type": "function"
    },
    {
      "inputs": [],
      "name": "ROYALTY_PERCENTAGE",
      "outputs": [
        {
          "internalType": "uint256",
          "name": "",
          "type": "uint256"
        }
      ],
      "stateMutability": "view",
      "type": "function"
    },
    {
      "inputs": [],
      "name": "USDC_ADDRESS",
      "outputs": [
        {
          "internalType": "address",
          "name": "",
          "type": "address"
        }
      ],
      "stateMutability": "view",
      "type": "function"
    },
    {
      "inputs": [
        {
          "internalType": "string",
          "name": "projectId",
          "type": "string"
        }
      ],
      "name": "calculateTotalRoyalties",
      "outputs": [
        {
          "internalType": "uint256",
          "name": "totalETH",
          "type": "uint256"
        },
        {
          "internalType": "uint256",
          "name": "totalUSDC",
          "type": "uint256"
        }
      ],
      "stateMutability": "view",
      "type": "function"
    },
    {
      "inputs": [],
      "name": "claimRoyaltiesETH",
      "outputs": [],
      "stateMutability": "nonpayable",
      "type": "function"
    },
    {
      "inputs": [],
      "name": "claimRoyaltiesUSDC",
      "outputs": [],
      "stateMutability": "nonpayable",
      "type": "function"
    },
    {
      "inputs": [
        {
          "internalType": "address",
          "name": "account",
          "type": "address"
        }
      ],
      "name": "getPendingRoyalties",
      "outputs": [
        {
          "internalType": "uint256",
          "name": "eth",
          "type": "uint256"
        },
        {
          "internalType": "uint256",
          "name": "usdc",
          "type": "uint256"
        }
      ],
      "stateMutability": "view",
      "type": "function"
    },
    {
      "inputs": [
        {
          "internalType": "string",
          "name": "projectId",
          "type": "string"
        }
      ],
      "name": "getProjectDependencies",
      "outputs": [
        {
          "components": [
            {
              "internalType": "string",
              "name": "dependencyProjectId",
              "type": "string"
            },
            {
              "internalType": "uint256",
              "name": "royaltyPercentage",
              "type": "uint256"
            },
            {
              "internalType": "uint256",
              "name": "fixedRoyaltyETH",
              "type": "uint256"
            },
            {
              "internalType": "uint256",
              "name": "fixedRoyaltyUSDC",
              "type": "uint256"
            }
          ],
          "internalType": "struct ClayRoyalty.LibraryDependency[]",
          "name": "",
          "type": "tuple[]"
        }
      ],
      "stateMutability": "view",
      "type": "function"
    },
    {
      "inputs": [],
      "name": "libraryContract",
      "outputs": [
        {
          "internalType": "contract IClayLibrary",
          "name": "",
          "type": "address"
        }
      ],
      "stateMutability": "view",
      "type": "function"
    },
    {
      "inputs": [],
      "name": "owner",
      "outputs": [
        {
          "internalType": "address",
          "name": "",
          "type": "address"
        }
      ],
      "stateMutability": "view",
      "type": "function"
    },
    {
      "inputs": [
        {
          "internalType": "address",
          "name": "",
          "type": "address"
        }
      ],
      "name": "pendingRoyaltiesETH",
      "outputs": [
        {
          "internalType": "uint256",
          "name": "",
          "type": "uint256"
        }
      ],
      "stateMutability": "view",
      "type": "function"
    },
    {
      "inputs": [
        {
          "internalType": "address",
          "name": "",
          "type": "address"
        }
      ],
      "name": "pendingRoyaltiesUSDC",
      "outputs": [
        {
          "internalType": "uint256",
          "name": "",
          "type": "uint256"
        }
      ],
      "stateMutability": "view",
      "type": "function"
    },
    {
      "inputs": [
        {
          "internalType": "string",
          "name": "",
          "type": "string"
        }
      ],
      "name": "projectRoyalties",
      "outputs": [
        {
          "internalType": "string",
          "name": "projectId",
          "type": "string"
        },
        {
          "internalType": "bool",
          "name": "hasRoyalties",
          "type": "bool"
        }
      ],
      "stateMutability": "view",
      "type": "function"
    },
    {
      "inputs": [
        {
          "internalType": "string",
          "name": "projectId",
          "type": "string"
        },
        {
          "internalType": "uint256",
          "name": "price",
          "type": "uint256"
        },
        {
          "internalType": "enum ClayRoyalty.PaymentToken",
          "name": "paymentToken",
          "type": "uint8"
        }
      ],
      "name": "recordRoyalties",
      "outputs": [],
      "stateMutability": "payable",
      "type": "function"
    },
    {
      "inputs": [
        {
          "internalType": "string",
          "name": "projectId",
          "type": "string"
        },
        {
          "internalType": "string[]",
          "name": "dependencyProjectIds",
          "type": "string[]"
        }
      ],
      "name": "registerProjectRoyalties",
      "outputs": [],
      "stateMutability": "nonpayable",
      "type": "function"
    },
    {
      "inputs": [],
      "name": "renounceOwnership",
      "outputs": [],
      "stateMutability": "nonpayable",
      "type": "function"
    },
    {
      "inputs": [
        {
          "internalType": "address",
          "name": "_libraryContract",
          "type": "address"
        }
      ],
      "name": "setLibraryContract",
      "outputs": [],
      "stateMutability": "nonpayable",
      "type": "function"
    },
    {
      "inputs": [
        {
          "internalType": "address",
          "name": "newOwner",
          "type": "address"
        }
      ],
      "name": "transferOwnership",
      "outputs": [],
      "stateMutability": "nonpayable",
      "type": "function"
    },
    {
      "inputs": [],
      "name": "usdcToken",
      "outputs": [
        {
          "internalType": "contract IERC20",
          "name": "",
          "type": "address"
        }
      ],
      "stateMutability": "view",
      "type": "function"
    },
    {
      "stateMutability": "payable",
      "type": "receive"
    }
  ],
  "bytecode": "0x60a0346100f957601f61180938819003918201601f19168301916001600160401b038311848410176100fe578084926020946040528339810103126100f957516001600160a01b0390818116908190036100f95733156100e05760005460018060a01b0319903382821617600055604051933391167f8be0079c531659141344cd1fd0a4f28419497f9722a3daafe3b4186f6b6457e0600080a36001805573833589fcd6edb6e08f4c7c32d4f71b54bda0291360805260025416176002556116f49081610115823960805181818161045f0152818161111301526112730152f35b604051631e4fbdf760e01b815260006004820152602490fd5b600080fd5b634e487b7160e01b600052604160045260246000fdfe608080604052600436101561001d575b50361561001b57600080fd5b005b60003560e01c908163024fa0d6146112a25750806311eac8551461125d578063141b5f021461121f5780631ed6c599146110ac578063463b08db1461108f5780634aa8a12d1461100957806350fd8e7114610eca5780635bf4b5c414610e8c578063715018a614610e335780638da5cb5b14610e0a578063902509c214610cda578063956456d914610c8f578063b1ee838e1461077d578063b3cd425414610760578063bb09d9b714610731578063c5787690146101ff578063ce0769c5146101d6578063f2fde38b146101465763f8a76dfb146100fb573861000f565b34610141576020366003190112610141576004356001600160401b038111610141576101356101306040923690600401611344565b6115c7565b82519182526020820152f35b600080fd5b34610141576020366003190112610141576004356001600160a01b0381811691829003610141576101756114ca565b81156101bd57600054826bffffffffffffffffffffffff60a01b821617600055167f8be0079c531659141344cd1fd0a4f28419497f9722a3daafe3b4186f6b6457e0600080a3005b604051631e4fbdf760e01b815260006004820152602490fd5b34610141576000366003190112610141576002546040516001600160a01b039091168152602090f35b606080600319360112610141576004356001600160401b0381116101415761022b903690600401611344565b604490813592600292838510156101415761024461169b565b604051918284516020948161025d879383858b0161138b565b810160058152030190209560ff8688015416156106ed57610403575034156103d25750600193840193926000845b61029d575b5050505050505b60018055005b85548110156103cd57806102bd6102b76102ee9389611545565b50611581565b60018060a01b038581865416835190604051808098819463d55a772d60e01b8352866004840152602483019061148e565b03915afa9182156103c1576103219460009361038f575b50604001519182151580610384575b610327575b5050506114f6565b8461028b565b1690816000526003865260406000206103418282546115ba565b90557fcb9f559e28915be49dcceef3fd0e6953281bdd4efe058dff26dd513ca503799e604061036f89611561565b928151908152600089820152a3878080610319565b508181161515610314565b60409193506103b390883d8a116103ba575b6103ab8183611308565b81019061167c565b9290610305565b503d6103a1565b6040513d6000823e3d90fd5b610290565b906a139bc8115512081cd95b9d60aa1b6064926040519262461bcd60e51b84526004840152600b6024840152820152fd5b9493903461069f57600095600060018097019081545b8082106106755750508715610626576040516323b872dd60e01b815233600482015230602480830191909152848201999099526001600160a01b039390868160648160007f00000000000000000000000000000000000000000000000000000000000000008a165af19081156103c1576000916105f9575b50156105b857506000875b6104af575b505050505050505050610297565b81548110156105b357806104c96102b76104f39385611545565b87868854168251908d60405180978194829363d55a772d60e01b845287600485015283019061148e565b03915afa9081156103c15785879161052695600094610594575b5001519182151580610589575b61052c575050506114f6565b8761049c565b1690816000526004895260406000206105468282546115ba565b90557fcb9f559e28915be49dcceef3fd0e6953281bdd4efe058dff26dd513ca503799e60406105748c611561565b92815190600082528c820152a38a8581610319565b50818116151561051a565b6105ac9194508b3d8d116103ba576103ab8183611308565b928e61050d565b6104a1565b887f55534443207472616e7366657220746f20636f6e7472616374206661696c6564606492886040519362461bcd60e51b8552816004860152840152820152fd5b6106199150873d891161061f575b6106118183611308565b810190611664565b8a610491565b503d610607565b60405162461bcd60e51b815260048101869052602260248201527f4e6f205553444320726f79616c7469657320666f7220746869732070726f6a65818501526118dd60f21b6064820152608490fd5b909861069361069991600361068a8d87611545565b500154906115ba565b996114f6565b90610419565b827f446f206e6f742073656e642045544820666f72205553444320726f79616c74696084926040519262461bcd60e51b845260048401526022602484015282015261657360f01b6064820152fd5b60405162461bcd60e51b815260048101859052601d60248201527f4e6f20726f79616c7469657320666f7220746869732070726f6a65637400000081850152606490fd5b3461014157600036600319011261014157602060405173833589fcd6edb6e08f4c7c32d4f71b54bda029138152f35b346101415760003660031901126101415760206040516127108152f35b34610141576040366003190112610141576004356001600160401b038111610141576107ad903690600401611344565b602435906001600160401b03821161014157366023830112156101415781600401356107d8816114b3565b926107e66040519485611308565b8184526024602085019260051b820101903682116101415760248101925b828410610c6057858560405160ff60028351926020818187019561082981838961138b565b81016005815203019020015416610c1b5760206108519160405180938192865192839161138b565b81016005815203019020918151926001600160401b038411610ac65761087781546113ae565b601f8111610bd3575b50602093601f8111600114610b6e578091929394600091610b63575b508160011b916000199060031b1c19161781555b60028101805460ff1916600117905560005b8251811015610b2b5760025461090c906040906001600160a01b03166108e8848761151b565b51908251808095819463edd9136760e01b835260206004840152602483019061148e565b03915afa80156103c157600091600091610af2575b5061092c838661151b565b51916040519261093b846112ed565b8352612710602084015260408301526060820152600183015468010000000000000000811015610ac65780600161097b9201600186015560018501611545565b919091610adc5780518051906001600160401b038211610ac65761099f84546113ae565b601f8111610a82575b50602090601f8311600114610a0f5792826003936060936109ff989796600092610a04575b50508160011b9160001990861b1c19161784555b602081015160018501556040810151600285015501519101556114f6565b6108c2565b015190508b806109cd565b908460005260206000209160005b601f1985168110610a6a5750836060936109ff98979693600193600397601f19811610610a52575b505050811b0184556109e1565b015160001983881b60f8161c191690558b8080610a45565b91926020600181928685015181550194019201610a1d565b846000526020600020601f840160051c810160208510610abf575b601f830160051c82018110610ab35750506109a8565b60008155600101610a9d565b5080610a9d565b634e487b7160e01b600052604160045260246000fd5b634e487b7160e01b600052600060045260246000fd5b9150506040813d604011610b23575b81610b0e60409383611308565b81010312610141576020815191015186610921565b3d9150610b01565b82517f92da81cc62c0efa31ecf38ecbdd2fb28add3e9af1063dde557cb388d8f9b3ef26020610b5987611561565b92604051908152a2005b90508401518561089c565b601f198116948260005260206000209060005b878110610bbb57508260019495969710610ba2575b5050811b0181556108b0565b86015160001960f88460031b161c191690558580610b96565b9091602060018192858a015181550193019101610b81565b816000526020600020601f860160051c81019160208710610c11575b601f0160051c01905b818110610c055750610880565b60008155600101610bf8565b9091508190610bef565b60405162461bcd60e51b815260206004820152601c60248201527f526f79616c7469657320616c72656164792072656769737465726564000000006044820152606490fd5b83356001600160401b03811161014157602091610c84839260243691870101611344565b815201930192610804565b34610141576020366003190112610141576004356001600160a01b0381169081900361014157610cbd6114ca565b6bffffffffffffffffffffffff60a01b6002541617600255600080f35b3461014157600036600319011261014157610cf361169b565b33600052602060038152604060002054908115610dc657336000526003815260006040812055600080808085335af13d15610dc1573d610d3281611329565b90610d406040519283611308565b81526000833d92013e5b15610d87576000906040519283528201527f6fe778711f06ca052305b633ba1b304f4d71c1523776f2aa3059d8d99f5420de60403392a260018055005b6064906040519062461bcd60e51b825260048201526013602482015272115512081d1c985b9cd9995c8819985a5b1959606a1b6044820152fd5b610d4a565b6064906040519062461bcd60e51b82526004820152601860248201527f4e6f2070656e64696e672045544820726f79616c7469657300000000000000006044820152fd5b34610141576000366003190112610141576000546040516001600160a01b039091168152602090f35b3461014157600036600319011261014157610e4c6114ca565b600080546001600160a01b0319811682556001600160a01b03167f8be0079c531659141344cd1fd0a4f28419497f9722a3daafe3b4186f6b6457e08280a3005b34610141576020366003190112610141576004356001600160a01b038116908190036101415760005260046020526020604060002054604051908152f35b3461014157602080600319360112610141576004356001600160401b03811161014157610efb903690600401611344565b9080610f10604051938481519384920161138b565b820160058152828260019485930301902001805491610f2e836114b3565b92610f3c6040519485611308565b8084528184018093600052826000206000915b838310610fe457505050506040519384938285019083865251809152604085019260408260051b87010194936000905b838210610f8c5787870388f35b918496819592949698508190603f198b8203018552895190610fb68251608080845283019061148e565b9183810151848301526040810151604083015260608091015191015298019201920187969593919492610f7f565b966004858297989699610ff685611581565b8152019201920191909693959496610f4f565b34610141576020366003190112610141576004356001600160401b038111610141576110546020611041611083933690600401611344565b816040519382858094519384920161138b565b8101600581520301902060ff600261106b836113e8565b9201541660405192839260408452604084019061148e565b90151560208301520390f35b346101415760003660031901126101415760206040516103e88152f35b34610141576000366003190112610141576110c561169b565b3360005260206004815260406000205480156111da5733600052600482526000604081205560405163a9059cbb60e01b81523360048201528160248201528281604481600060018060a01b037f0000000000000000000000000000000000000000000000000000000000000000165af19081156103c1576000916111bd575b50156111815760405191600083528201527f6fe778711f06ca052305b633ba1b304f4d71c1523776f2aa3059d8d99f5420de60403392a260018055005b60405162461bcd60e51b81526004810183905260146024820152731554d110c81d1c985b9cd9995c8819985a5b195960621b6044820152606490fd5b6111d49150833d851161061f576106118183611308565b83611144565b60405162461bcd60e51b815260048101839052601960248201527f4e6f2070656e64696e67205553444320726f79616c74696573000000000000006044820152606490fd5b34610141576020366003190112610141576004356001600160a01b038116908190036101415760005260036020526020604060002054604051908152f35b34610141576000366003190112610141576040517f00000000000000000000000000000000000000000000000000000000000000006001600160a01b03168152602090f35b34610141576020366003190112610141576004356001600160a01b03811691908290036101415760409160005260036020528160002054600460205282600020549082526020820152f35b608081019081106001600160401b03821117610ac657604052565b90601f801991011681019081106001600160401b03821117610ac657604052565b6001600160401b038111610ac657601f01601f191660200190565b81601f820112156101415780359061135b82611329565b926113696040519485611308565b8284526020838301011161014157816000926020809301838601378301015290565b60005b83811061139e5750506000910152565b818101518382015260200161138e565b90600182811c921680156113de575b60208310146113c857565b634e487b7160e01b600052602260045260246000fd5b91607f16916113bd565b90604051918260008254926113fc846113ae565b90818452600194858116908160001461146b5750600114611428575b505061142692500383611308565b565b9093915060005260209081600020936000915b81831061145357505061142693508201013880611418565b8554888401850152948501948794509183019161143b565b91505061142694506020925060ff191682840152151560051b8201013880611418565b906020916114a78151809281855285808601910161138b565b601f01601f1916010190565b6001600160401b038111610ac65760051b60200190565b6000546001600160a01b031633036114de57565b60405163118cdaa760e01b8152336004820152602490fd5b60001981146115055760010190565b634e487b7160e01b600052601160045260246000fd5b805182101561152f5760209160051b010190565b634e487b7160e01b600052603260045260246000fd5b805482101561152f5760005260206000209060021b0190600090565b6115799060206040519282848094519384920161138b565b810103902090565b9060405161158e816112ed565b60606003829461159d816113e8565b845260018101546020850152600281015460408501520154910152565b9190820180921161150557565b90600080926115e660206040928184519382858094519384920161138b565b810160058152030190209060ff6002830154161561165757600160009201908154915b82841061161857505050509190565b9091929561164961164f9160606116406116356102b78c88611545565b98878a0151906115ba565b970151906115ba565b966114f6565b929190611609565b5050509050600090600090565b90816020910312610141575180151581036101415790565b9081602091031261014157516001600160a01b03811681036101415790565b6002600154146116ac576002600155565b604051633ee5aeb560e01b8152600490fdfea26469706673582212207504485f2c97a735f4533a4d4024c4308f689f00322d757ff03d532f8a9c4fd164736f6c63430008140033",
  "linkReferences": {},
  "deployedLinkReferences": {}
}