{
  "_format": "hh-sol-artifact-1",
  "contractName": "ClayRoyalty",
  "sourceName": "ClayRoyalty.sol",
  "abi": [
    {
      "inputs": [
        {
          "internalType": "address",
          "name": "_libraryContract",
          "type": "address"
        }
      ],
      "stateMutability": "nonpayable",
      "type": "constructor"
    },
    {
      "inputs": [
        {
          "internalType": "address",
          "name": "owner",
          "type": "address"
        }
      ],
      "name": "OwnableInvalidOwner",
      "type": "error"
    },
    {
      "inputs": [
        {
          "internalType": "address",
          "name": "account",
          "type": "address"
        }
      ],
      "name": "OwnableUnauthorizedAccount",
      "type": "error"
    },
    {
      "inputs": [],
      "name": "ReentrancyGuardReentrantCall",
      "type": "error"
    },
    {
      "anonymous": false,
      "inputs": [
        {
          "indexed": true,
          "internalType": "address",
          "name": "previousOwner",
          "type": "address"
        },
        {
          "indexed": true,
          "internalType": "address",
          "name": "newOwner",
          "type": "address"
        }
      ],
      "name": "OwnershipTransferred",
      "type": "event"
    },
    {
      "anonymous": false,
      "inputs": [
        {
          "indexed": true,
          "internalType": "string",
          "name": "projectId",
          "type": "string"
        },
        {
          "indexed": false,
          "internalType": "uint256",
          "name": "dependencyCount",
          "type": "uint256"
        }
      ],
      "name": "RoyaltiesRegistered",
      "type": "event"
    },
    {
      "anonymous": false,
      "inputs": [
        {
          "indexed": true,
          "internalType": "address",
          "name": "claimant",
          "type": "address"
        },
        {
          "indexed": false,
          "internalType": "uint256",
          "name": "amountETH",
          "type": "uint256"
        },
        {
          "indexed": false,
          "internalType": "uint256",
          "name": "amountUSDC",
          "type": "uint256"
        }
      ],
      "name": "RoyaltyClaimed",
      "type": "event"
    },
    {
      "anonymous": false,
      "inputs": [
        {
          "indexed": true,
          "internalType": "string",
          "name": "projectId",
          "type": "string"
        },
        {
          "indexed": true,
          "internalType": "address",
          "name": "recipient",
          "type": "address"
        },
        {
          "indexed": false,
          "internalType": "uint256",
          "name": "amountETH",
          "type": "uint256"
        },
        {
          "indexed": false,
          "internalType": "uint256",
          "name": "amountUSDC",
          "type": "uint256"
        }
      ],
      "name": "RoyaltyRecorded",
      "type": "event"
    },
    {
      "inputs": [],
      "name": "PERCENTAGE_DENOMINATOR",
      "outputs": [
        {
          "internalType": "uint256",
          "name": "",
          "type": "uint256"
        }
      ],
      "stateMutability": "view",
      "type": "function"
    },
    {
      "inputs": [],
      "name": "ROYALTY_PERCENTAGE",
      "outputs": [
        {
          "internalType": "uint256",
          "name": "",
          "type": "uint256"
        }
      ],
      "stateMutability": "view",
      "type": "function"
    },
    {
      "inputs": [],
      "name": "USDC_ADDRESS",
      "outputs": [
        {
          "internalType": "address",
          "name": "",
          "type": "address"
        }
      ],
      "stateMutability": "view",
      "type": "function"
    },
    {
      "inputs": [
        {
          "internalType": "string",
          "name": "projectId",
          "type": "string"
        }
      ],
      "name": "calculateTotalRoyalties",
      "outputs": [
        {
          "internalType": "uint256",
          "name": "totalETH",
          "type": "uint256"
        },
        {
          "internalType": "uint256",
          "name": "totalUSDC",
          "type": "uint256"
        }
      ],
      "stateMutability": "view",
      "type": "function"
    },
    {
      "inputs": [],
      "name": "claimRoyaltiesETH",
      "outputs": [],
      "stateMutability": "nonpayable",
      "type": "function"
    },
    {
      "inputs": [],
      "name": "claimRoyaltiesUSDC",
      "outputs": [],
      "stateMutability": "nonpayable",
      "type": "function"
    },
    {
      "inputs": [
        {
          "internalType": "string",
          "name": "libraryProjectId",
          "type": "string"
        }
      ],
      "name": "distributeNestedRoyalties",
      "outputs": [],
      "stateMutability": "pure",
      "type": "function"
    },
    {
      "inputs": [
        {
          "internalType": "address",
          "name": "account",
          "type": "address"
        }
      ],
      "name": "getPendingRoyalties",
      "outputs": [
        {
          "internalType": "uint256",
          "name": "eth",
          "type": "uint256"
        },
        {
          "internalType": "uint256",
          "name": "usdc",
          "type": "uint256"
        }
      ],
      "stateMutability": "view",
      "type": "function"
    },
    {
      "inputs": [
        {
          "internalType": "string",
          "name": "projectId",
          "type": "string"
        }
      ],
      "name": "getProjectDependencies",
      "outputs": [
        {
          "components": [
            {
              "internalType": "string",
              "name": "dependencyProjectId",
              "type": "string"
            },
            {
              "internalType": "uint256",
              "name": "royaltyPercentage",
              "type": "uint256"
            },
            {
              "internalType": "uint256",
              "name": "fixedRoyaltyETH",
              "type": "uint256"
            },
            {
              "internalType": "uint256",
              "name": "fixedRoyaltyUSDC",
              "type": "uint256"
            },
            {
              "internalType": "bool",
              "name": "isDirect",
              "type": "bool"
            }
          ],
          "internalType": "struct ClayRoyalty.LibraryDependency[]",
          "name": "",
          "type": "tuple[]"
        }
      ],
      "stateMutability": "view",
      "type": "function"
    },
    {
      "inputs": [],
      "name": "libraryContract",
      "outputs": [
        {
          "internalType": "contract IClayLibrary",
          "name": "",
          "type": "address"
        }
      ],
      "stateMutability": "view",
      "type": "function"
    },
    {
      "inputs": [],
      "name": "owner",
      "outputs": [
        {
          "internalType": "address",
          "name": "",
          "type": "address"
        }
      ],
      "stateMutability": "view",
      "type": "function"
    },
    {
      "inputs": [
        {
          "internalType": "address",
          "name": "",
          "type": "address"
        }
      ],
      "name": "pendingRoyaltiesETH",
      "outputs": [
        {
          "internalType": "uint256",
          "name": "",
          "type": "uint256"
        }
      ],
      "stateMutability": "view",
      "type": "function"
    },
    {
      "inputs": [
        {
          "internalType": "address",
          "name": "",
          "type": "address"
        }
      ],
      "name": "pendingRoyaltiesUSDC",
      "outputs": [
        {
          "internalType": "uint256",
          "name": "",
          "type": "uint256"
        }
      ],
      "stateMutability": "view",
      "type": "function"
    },
    {
      "inputs": [
        {
          "internalType": "string",
          "name": "",
          "type": "string"
        },
        {
          "internalType": "uint256",
          "name": "",
          "type": "uint256"
        }
      ],
      "name": "projectDirectDependencies",
      "outputs": [
        {
          "internalType": "string",
          "name": "",
          "type": "string"
        }
      ],
      "stateMutability": "view",
      "type": "function"
    },
    {
      "inputs": [
        {
          "internalType": "string",
          "name": "",
          "type": "string"
        }
      ],
      "name": "projectRoyalties",
      "outputs": [
        {
          "internalType": "string",
          "name": "projectId",
          "type": "string"
        },
        {
          "internalType": "bool",
          "name": "hasRoyalties",
          "type": "bool"
        }
      ],
      "stateMutability": "view",
      "type": "function"
    },
    {
      "inputs": [
        {
          "internalType": "string",
          "name": "projectId",
          "type": "string"
        },
        {
          "internalType": "uint256",
          "name": "price",
          "type": "uint256"
        },
        {
          "internalType": "enum ClayRoyalty.PaymentToken",
          "name": "paymentToken",
          "type": "uint8"
        }
      ],
      "name": "recordRoyalties",
      "outputs": [],
      "stateMutability": "payable",
      "type": "function"
    },
    {
      "inputs": [
        {
          "internalType": "string",
          "name": "projectId",
          "type": "string"
        },
        {
          "internalType": "string[]",
          "name": "dependencyProjectIds",
          "type": "string[]"
        },
        {
          "internalType": "string[]",
          "name": "directDependencyIds",
          "type": "string[]"
        }
      ],
      "name": "registerProjectRoyalties",
      "outputs": [],
      "stateMutability": "nonpayable",
      "type": "function"
    },
    {
      "inputs": [],
      "name": "renounceOwnership",
      "outputs": [],
      "stateMutability": "nonpayable",
      "type": "function"
    },
    {
      "inputs": [
        {
          "internalType": "address",
          "name": "_libraryContract",
          "type": "address"
        }
      ],
      "name": "setLibraryContract",
      "outputs": [],
      "stateMutability": "nonpayable",
      "type": "function"
    },
    {
      "inputs": [
        {
          "internalType": "string",
          "name": "",
          "type": "string"
        }
      ],
      "name": "totalRoyaltiesPaidETH",
      "outputs": [
        {
          "internalType": "uint256",
          "name": "",
          "type": "uint256"
        }
      ],
      "stateMutability": "view",
      "type": "function"
    },
    {
      "inputs": [
        {
          "internalType": "string",
          "name": "",
          "type": "string"
        }
      ],
      "name": "totalRoyaltiesPaidUSDC",
      "outputs": [
        {
          "internalType": "uint256",
          "name": "",
          "type": "uint256"
        }
      ],
      "stateMutability": "view",
      "type": "function"
    },
    {
      "inputs": [
        {
          "internalType": "address",
          "name": "newOwner",
          "type": "address"
        }
      ],
      "name": "transferOwnership",
      "outputs": [],
      "stateMutability": "nonpayable",
      "type": "function"
    },
    {
      "inputs": [],
      "name": "usdcToken",
      "outputs": [
        {
          "internalType": "contract IERC20",
          "name": "",
          "type": "address"
        }
      ],
      "stateMutability": "view",
      "type": "function"
    },
    {
      "stateMutability": "payable",
      "type": "receive"
    }
  ],
  "bytecode": "0x60a0346100f957601f6120f038819003918201601f19168301916001600160401b038311848410176100fe578084926020946040528339810103126100f957516001600160a01b0390818116908190036100f95733156100e05760005460018060a01b0319903382821617600055604051933391167f8be0079c531659141344cd1fd0a4f28419497f9722a3daafe3b4186f6b6457e0600080a36001805573833589fcd6edb6e08f4c7c32d4f71b54bda029136080526002541617600255611fdb90816101158239608051818181610871015281816116dc015261183c0152f35b604051631e4fbdf760e01b815260006004820152602490fd5b600080fd5b634e487b7160e01b600052604160045260246000fdfe608080604052600436101561001d575b50361561001b57600080fd5b005b60003560e01c908163024fa0d61461186b5750806311eac85514611826578063141b5f02146117e85780631ed6c5991461167557806330676af61461162c578063463b08db1461160f5780634aa8a12d1461159c57806350fd8e711461144e5780635bf4b5c41461141057806361c810f11461109e578063715018a61461104557806373a6fe8914610fe95780638da5cb5b14610fc0578063902509c214610eb2578063956456d914610e67578063b3cd425414610e4a578063b9293c2614610da3578063bb09d9b714610d74578063c5787690146102d7578063ce0769c5146102ae578063d92c462d14610202578063f2fde38b146101725763f8a76dfb14610127573861000f565b3461016d57602036600319011261016d576004356001600160401b03811161016d5761016161015c604092369060040161190d565b611d8b565b82519182526020820152f35b600080fd5b3461016d57602036600319011261016d576004356001600160a01b038181169182900361016d576101a1611b67565b81156101e957600054826bffffffffffffffffffffffff60a01b821617600055167f8be0079c531659141344cd1fd0a4f28419497f9722a3daafe3b4186f6b6457e0600080a3005b604051631e4fbdf760e01b815260006004820152602490fd5b3461016d57602036600319011261016d576004356001600160401b03811161016d5761023290369060040161190d565b5060405162461bcd60e51b815260206004820152604760248201527f46756e6374696f6e20646570726563617465643a20526f79616c74696573206160448201527f7265206e6f77206175746f2d6469737472696275746564206174207061796d656064820152666e742074696d6560c81b608482015260a490fd5b3461016d57600036600319011261016d576002546040516001600160a01b039091168152602090f35b606036600319011261016d576004356001600160401b03811161016d5761030290369060040161190d565b604435600281101561016d57610316611f62565b604051602081845161032b8183858901611954565b810160058152030190209060ff60028301541615610d2f5761081b5734156107e8576000906000600182015460018060a01b0360025416915b818110610720575050508134106106e35791906000925b60018101548410156106505761039d6103978560018401611cdb565b50611d17565b93608085015115610643576103dd602060018060a01b0360025416875190604051808095819463d55a772d60e01b83528660048401526024830190611a7d565b03915afa9081156105f257600091610624575b5060408601519586151580610612575b61041c575b50506104149192939450611ca2565b92919061037b565b6000906104298151611977565b9060ff6002830154166104ac575b50508087610450610455936104149798999a1015611eca565b611f25565b9060018060a01b0316908160005260036020526040600020610478828254611d7e565b9055600080516020611f86833981519152604061049489611cf7565b92815190815260006020820152a38493929186610405565b9490979692919560005b60018a01548110156105fe576105076104d56103978360018e01611cdb565b602060018060a01b0360025416825190604051808096819463d55a772d60e01b83528660048401526024830190611a7d565b03915afa9182156105f2576000926105be575b5060400190815190811515806105ac575b610541575b50505061053c90611ca2565b6104b6565b61053c93929a6105779160018060a01b03169283600052600360205261056d6040600020918254611d7e565b90558b5190611d7e565b99600080516020611f8683398151915260406105968c51935193611cf7565b92815190815260006020820152a3908b80610530565b506001600160a01b038116151561052b565b60409192506105e49060203d6020116105eb575b6105dc81836118d1565b810190611d5f565b919061051a565b503d6105d2565b6040513d6000823e3d90fd5b509697509195949193509080610414610437565b506001600160a01b0382161515610400565b61063d915060203d6020116105eb576105dc81836118d1565b866103f0565b6104149192939450611ca2565b50915061066d602083928160405193828580945193849201611954565b8101600681520301902055803411610688575b505b60018055005b60008080610697819434611f25565b335af16106a2611f32565b50156106ae5780610680565b60405162461bcd60e51b815260206004820152600d60248201526c1499599d5b990819985a5b1959609a1b6044820152606490fd5b60405162461bcd60e51b8152602060048201526015602482015274125b9cdd59999a58da595b9d08115512081cd95b9d605a1b6044820152606490fd5b6107306103978260018701611cdb565b60808101511561078d5780602061076392516040518094819263d55a772d60e01b83528460048401526024830190611a7d565b0381885afa9182156105f2576000926107c4575b50604001519081151590816107b1575b5061079c575b5061079790611ca2565b610364565b6107aa906107979296611d7e565b949061078d565b6001600160a01b03161515905088610787565b60409192506107e19060203d6020116105eb576105dc81836118d1565b9190610777565b60405162461bcd60e51b815260206004820152600b60248201526a139bc8115512081cd95b9d60aa1b6044820152606490fd5b34610cdf576000906000600182015460018060a01b0360025416915b818110610c17575050508115610bc7576040516323b872dd60e01b81523360048201523060248201526044810183905260208160648160007f00000000000000000000000000000000000000000000000000000000000000006001600160a01b03165af19081156105f257600091610b98575b5015610b545791906000925b6001810154841015610b28576108d26103978560018401611cdb565b93608085015115610b1b57610912602060018060a01b0360025416875190604051808095819463d55a772d60e01b83528660048401526024830190611a7d565b03915afa9081156105f257600091610afc575b5060608601519586151580610aea575b610951575b50506109499192939450611ca2565b9291906108b6565b60009061095e8151611977565b9060ff6002830154166109dc575b50508087610450610985936109499798999a1015611eca565b9060018060a01b03169081600052600460205260406000206109a8828254611d7e565b9055600080516020611f8683398151915260406109c489611cf7565b92815190600082526020820152a3849392918661093a565b9490979692919560005b60018a0154811015610ad657610a056104d56103978360018e01611cdb565b03915afa9182156105f257600092610ab2575b506060019081519081151580610aa0575b610a3f575b505050610a3a90611ca2565b6109e6565b610a3a93929a610a6b9160018060a01b03169283600052600460205261056d6040600020918254611d7e565b99600080516020611f868339815191526040610a8a8c51935193611cf7565b92815190600082526020820152a3908b80610a2e565b506001600160a01b0381161515610a29565b6060919250610acf9060203d6020116105eb576105dc81836118d1565b9190610a18565b50969750919594919350908061094961096c565b506001600160a01b0382161515610935565b610b15915060203d6020116105eb576105dc81836118d1565b86610925565b6109499192939450611ca2565b5091506020610b44918160405193828580945193849201611954565b8101600781520301902055610682565b606460405162461bcd60e51b815260206004820152602060248201527f55534443207472616e7366657220746f20636f6e7472616374206661696c65646044820152fd5b610bba915060203d602011610bc0575b610bb281836118d1565b810190611eb2565b846108aa565b503d610ba8565b60405162461bcd60e51b815260206004820152602260248201527f4e6f205553444320726f79616c7469657320666f7220746869732070726f6a6560448201526118dd60f21b6064820152608490fd5b610c276103978260018701611cdb565b608081015115610c8457806020610c5a92516040518094819263d55a772d60e01b83528460048401526024830190611a7d565b0381885afa9182156105f257600092610cbb575b5060600151908115159081610ca8575b50610c93575b50610c8e90611ca2565b610837565b610ca190610c8e9296611d7e565b9490610c84565b6001600160a01b03161515905088610c7e565b6060919250610cd89060203d6020116105eb576105dc81836118d1565b9190610c6e565b60405162461bcd60e51b815260206004820152602260248201527f446f206e6f742073656e642045544820666f72205553444320726f79616c7469604482015261657360f01b6064820152608490fd5b60405162461bcd60e51b815260206004820152601d60248201527f4e6f20726f79616c7469657320666f7220746869732070726f6a6563740000006044820152606490fd5b3461016d57600036600319011261016d57602060405173833589fcd6edb6e08f4c7c32d4f71b54bda029138152f35b3461016d57604036600319011261016d576004356001600160401b03811161016d57610dd390369060040161190d565b610def6020602435928160405193828580945193849201611954565b8101600881520301902090815481101561016d57610e0c91611b39565b610e3457610e1c610e30916119d7565b604051918291602083526020830190611a7d565b0390f35b634e487b7160e01b600052600060045260246000fd5b3461016d57600036600319011261016d5760206040516127108152f35b3461016d57602036600319011261016d576004356001600160a01b0381169081900361016d57610e95611b67565b6bffffffffffffffffffffffff60a01b6002541617600255600080f35b3461016d57600036600319011261016d57610ecb611f62565b3360005260036020526040600020548015610f7b5733600052600360205260006040812055600080808084335af1610f01611f32565b5015610f4057604051908152600060208201527f6fe778711f06ca052305b633ba1b304f4d71c1523776f2aa3059d8d99f5420de60403392a260018055005b60405162461bcd60e51b8152602060048201526013602482015272115512081d1c985b9cd9995c8819985a5b1959606a1b6044820152606490fd5b60405162461bcd60e51b815260206004820152601860248201527f4e6f2070656e64696e672045544820726f79616c7469657300000000000000006044820152606490fd5b3461016d57600036600319011261016d576000546040516001600160a01b039091168152602090f35b3461016d57602036600319011261016d576004356001600160401b03811161016d57611032602061101f8193369060040161190d565b8160405193828580945193849201611954565b8101600781520301902054604051908152f35b3461016d57600036600319011261016d5761105e611b67565b600080546001600160a01b0319811682556001600160a01b03167f8be0079c531659141344cd1fd0a4f28419497f9722a3daafe3b4186f6b6457e08280a3005b3461016d57606036600319011261016d576001600160401b0360043581811161016d576110cf90369060040161190d565b9060243581811161016d576110e8903690600401611ab9565b9060443590811161016d57611101903690600401611ab9565b9160ff6002604051602081855161111b8183858a01611954565b810160058152030190200154166113cb5760405160208183516111418183858801611954565b810160058152030190206111558282611b93565b60028101805460ff1916600117905560005b84518110156111ea5760405160208185516111858183858a01611954565b810160088152030190209061119a8187611cc7565b51918054600160401b8110156111d4576111b991600182018155611b39565b610e34576111cf926111ca91611b93565b611ca2565b611167565b634e487b7160e01b600052604160045260246000fd5b509290916000915b81518310156113935760025461123c906040906001600160a01b03166112188686611cc7565b51908251808095819463edd9136760e01b8352602060048401526024830190611a7d565b03915afa9182156105f257600091600093611358575b5060009560005b825181101561134d5761126c8184611cc7565b516020815191012061127e8888611cc7565b5160208151910120146112995761129490611ca2565b611259565b5094919095506001905b6112ad8386611cc7565b5190604051916112bc836118b6565b825260208201946127108652604083019182526060830190815260808301931515845260018a0154600160401b8110156111d457806001611306920160018d015560018c01611cdb565b929092610e34576113469661131e6004955185611b93565b516001840155516002830155516003820155019051151560ff80198354169116179055611ca2565b91926111f2565b5094919590956112a3565b915091506040813d60401161138b575b81611375604093836118d1565b8101031261016d57602081519101519187611252565b3d9150611368565b81517f92da81cc62c0efa31ecf38ecbdd2fb28add3e9af1063dde557cb388d8f9b3ef260206113c187611cf7565b92604051908152a2005b60405162461bcd60e51b815260206004820152601c60248201527f526f79616c7469657320616c72656164792072656769737465726564000000006044820152606490fd5b3461016d57602036600319011261016d576004356001600160a01b0381169081900361016d5760005260046020526020604060002054604051908152f35b3461016d5760208060031936011261016d576004356001600160401b03811161016d5761147f90369060040161190d565b90806114946040519384815193849201611954565b8201600590818152838360019586930301902001908154936114b585611aa2565b946114c360405196876118d1565b8086528486018094600052856000206000915b83831061157457505050506040519484869586019181875251809252604082818801951b87010194936000905b8382106115105787870388f35b918496819592949698508190603f198b820301855289519061153a825160a0808452830190611a7d565b9183810151848301526040810151604083015260608082015190830152608080910151151591015298019201920187969593919492611503565b93858882989996611587859c999c611d17565b815201920192019190979497969593966114d6565b3461016d57602036600319011261016d576004356001600160401b03811161016d576115d4602061101f61160393369060040161190d565b8101600581520301902060ff60026115eb836119d7565b92015416604051928392604084526040840190611a7d565b90151560208301520390f35b3461016d57600036600319011261016d5760206040516103e88152f35b3461016d57602036600319011261016d576004356001600160401b03811161016d57611662602061101f8193369060040161190d565b8101600681520301902054604051908152f35b3461016d57600036600319011261016d5761168e611f62565b3360005260206004815260406000205480156117a35733600052600482526000604081205560405163a9059cbb60e01b81523360048201528160248201528281604481600060018060a01b037f0000000000000000000000000000000000000000000000000000000000000000165af19081156105f257600091611786575b501561174a5760405191600083528201527f6fe778711f06ca052305b633ba1b304f4d71c1523776f2aa3059d8d99f5420de60403392a260018055005b60405162461bcd60e51b81526004810183905260146024820152731554d110c81d1c985b9cd9995c8819985a5b195960621b6044820152606490fd5b61179d9150833d8511610bc057610bb281836118d1565b8361170d565b60405162461bcd60e51b815260048101839052601960248201527f4e6f2070656e64696e67205553444320726f79616c74696573000000000000006044820152606490fd5b3461016d57602036600319011261016d576004356001600160a01b0381169081900361016d5760005260036020526020604060002054604051908152f35b3461016d57600036600319011261016d576040517f00000000000000000000000000000000000000000000000000000000000000006001600160a01b03168152602090f35b3461016d57602036600319011261016d576004356001600160a01b038116919082900361016d5760409160005260036020528160002054600460205282600020549082526020820152f35b60a081019081106001600160401b038211176111d457604052565b90601f801991011681019081106001600160401b038211176111d457604052565b6001600160401b0381116111d457601f01601f191660200190565b81601f8201121561016d57803590611924826118f2565b9261193260405194856118d1565b8284526020838301011161016d57816000926020809301838601378301015290565b60005b8381106119675750506000910152565b8181015183820152602001611957565b6020611990918160405193828580945193849201611954565b8101600581520301902090565b90600182811c921680156119cd575b60208310146119b757565b634e487b7160e01b600052602260045260246000fd5b91607f16916119ac565b90604051918260008254926119eb8461199d565b908184526001948581169081600014611a5a5750600114611a17575b5050611a15925003836118d1565b565b9093915060005260209081600020936000915b818310611a42575050611a1593508201013880611a07565b85548884018501529485019487945091830191611a2a565b915050611a1594506020925060ff191682840152151560051b8201013880611a07565b90602091611a9681518092818552858086019101611954565b601f01601f1916010190565b6001600160401b0381116111d45760051b60200190565b9080601f8301121561016d57813590611ad182611aa2565b92611adf60405194856118d1565b828452602092838086019160051b8301019280841161016d57848301915b848310611b0d5750505050505090565b82356001600160401b03811161016d578691611b2e8484809489010161190d565b815201920191611afd565b8054821015611b515760005260206000200190600090565b634e487b7160e01b600052603260045260246000fd5b6000546001600160a01b03163303611b7b57565b60405163118cdaa760e01b8152336004820152602490fd5b91909182516001600160401b0381116111d457611bb0825461199d565b601f8111611c5a575b50602080601f8311600114611bf6575081929394600092611beb575b50508160011b916000199060031b1c1916179055565b015190503880611bd5565b90601f198316958460005282600020926000905b888210611c4257505083600195969710611c29575b505050811b019055565b015160001960f88460031b161c19169055388080611c1f565b80600185968294968601518155019501930190611c0a565b600083815260208120601f840160051c81019260208510611c98575b601f0160051c01915b828110611c8d575050611bb9565b818155600101611c7f565b9092508290611c76565b6000198114611cb15760010190565b634e487b7160e01b600052601160045260246000fd5b8051821015611b515760209160051b010190565b8054821015611b51576000526005602060002091020190600090565b611d0f90602060405192828480945193849201611954565b810103902090565b90604051611d24816118b6565b608060ff60048395611d35816119d7565b85526001810154602086015260028101546040860152600381015460608601520154161515910152565b9081602091031261016d57516001600160a01b038116810361016d5790565b91908201809211611cb157565b906000808093604080518281809451611daa8160209788809601611954565b810160058152030190209160ff60028401541615611ea8576001909201805460025490936001600160a01b0391821692865b868110611def5750505050505050509190565b611dfc6103978284611cdb565b608081015115611e4957611e2c84825189518093819263d55a772d60e01b83528460048401526024830190611a7d565b03818a5afa908115611e9e579086918b91611e81575b5016611e58575b50611e5390611ca2565b611ddc565b98611e53919b6060611e71611e7a938a8e015190611d7e565b9b015190611d7e565b9a90611e49565b611e989150863d88116105eb576105dc81836118d1565b38611e42565b88513d8c823e3d90fd5b5050509250508190565b9081602091031261016d5751801515810361016d5790565b15611ed157565b60405162461bcd60e51b815260206004820152602660248201527f4c69627261727920726f79616c7479206c657373207468616e20646570656e64604482015265656e6369657360d01b6064820152608490fd5b91908203918211611cb157565b3d15611f5d573d90611f43826118f2565b91611f5160405193846118d1565b82523d6000602084013e565b606090565b600260015414611f73576002600155565b604051633ee5aeb560e01b8152600490fdfecb9f559e28915be49dcceef3fd0e6953281bdd4efe058dff26dd513ca503799ea264697066735822122055f207439de3ed80ff64a7ac415c37f3630fdf5ff959be46716f8c74996888fd64736f6c63430008140033",
  "linkReferences": {},
  "deployedLinkReferences": {}
}