{
  "_format": "hh-sol-artifact-1",
  "contractName": "ClayRoyalty",
  "sourceName": "ClayRoyalty.sol",
  "abi": [
    {
      "inputs": [
        {
          "internalType": "address",
          "name": "_libraryContract",
          "type": "address"
        }
      ],
      "stateMutability": "nonpayable",
      "type": "constructor"
    },
    {
      "inputs": [
        {
          "internalType": "address",
          "name": "owner",
          "type": "address"
        }
      ],
      "name": "OwnableInvalidOwner",
      "type": "error"
    },
    {
      "inputs": [
        {
          "internalType": "address",
          "name": "account",
          "type": "address"
        }
      ],
      "name": "OwnableUnauthorizedAccount",
      "type": "error"
    },
    {
      "inputs": [],
      "name": "ReentrancyGuardReentrantCall",
      "type": "error"
    },
    {
      "anonymous": false,
      "inputs": [
        {
          "indexed": true,
          "internalType": "address",
          "name": "previousOwner",
          "type": "address"
        },
        {
          "indexed": true,
          "internalType": "address",
          "name": "newOwner",
          "type": "address"
        }
      ],
      "name": "OwnershipTransferred",
      "type": "event"
    },
    {
      "anonymous": false,
      "inputs": [
        {
          "indexed": true,
          "internalType": "string",
          "name": "projectId",
          "type": "string"
        },
        {
          "indexed": false,
          "internalType": "uint256",
          "name": "dependencyCount",
          "type": "uint256"
        }
      ],
      "name": "RoyaltiesRegistered",
      "type": "event"
    },
    {
      "anonymous": false,
      "inputs": [
        {
          "indexed": true,
          "internalType": "address",
          "name": "claimant",
          "type": "address"
        },
        {
          "indexed": false,
          "internalType": "uint256",
          "name": "amountETH",
          "type": "uint256"
        },
        {
          "indexed": false,
          "internalType": "uint256",
          "name": "amountUSDC",
          "type": "uint256"
        }
      ],
      "name": "RoyaltyClaimed",
      "type": "event"
    },
    {
      "anonymous": false,
      "inputs": [
        {
          "indexed": true,
          "internalType": "string",
          "name": "projectId",
          "type": "string"
        },
        {
          "indexed": true,
          "internalType": "address",
          "name": "recipient",
          "type": "address"
        },
        {
          "indexed": false,
          "internalType": "uint256",
          "name": "amountETH",
          "type": "uint256"
        },
        {
          "indexed": false,
          "internalType": "uint256",
          "name": "amountUSDC",
          "type": "uint256"
        }
      ],
      "name": "RoyaltyRecorded",
      "type": "event"
    },
    {
      "inputs": [],
      "name": "PERCENTAGE_DENOMINATOR",
      "outputs": [
        {
          "internalType": "uint256",
          "name": "",
          "type": "uint256"
        }
      ],
      "stateMutability": "view",
      "type": "function"
    },
    {
      "inputs": [],
      "name": "ROYALTY_PERCENTAGE",
      "outputs": [
        {
          "internalType": "uint256",
          "name": "",
          "type": "uint256"
        }
      ],
      "stateMutability": "view",
      "type": "function"
    },
    {
      "inputs": [],
      "name": "USDC_ADDRESS",
      "outputs": [
        {
          "internalType": "address",
          "name": "",
          "type": "address"
        }
      ],
      "stateMutability": "view",
      "type": "function"
    },
    {
      "inputs": [
        {
          "internalType": "string",
          "name": "projectId",
          "type": "string"
        }
      ],
      "name": "calculateTotalRoyalties",
      "outputs": [
        {
          "internalType": "uint256",
          "name": "totalETH",
          "type": "uint256"
        },
        {
          "internalType": "uint256",
          "name": "totalUSDC",
          "type": "uint256"
        }
      ],
      "stateMutability": "view",
      "type": "function"
    },
    {
      "inputs": [],
      "name": "claimRoyaltiesETH",
      "outputs": [],
      "stateMutability": "nonpayable",
      "type": "function"
    },
    {
      "inputs": [],
      "name": "claimRoyaltiesUSDC",
      "outputs": [],
      "stateMutability": "nonpayable",
      "type": "function"
    },
    {
      "inputs": [
        {
          "internalType": "address",
          "name": "account",
          "type": "address"
        }
      ],
      "name": "getPendingRoyalties",
      "outputs": [
        {
          "internalType": "uint256",
          "name": "eth",
          "type": "uint256"
        },
        {
          "internalType": "uint256",
          "name": "usdc",
          "type": "uint256"
        }
      ],
      "stateMutability": "view",
      "type": "function"
    },
    {
      "inputs": [
        {
          "internalType": "string",
          "name": "projectId",
          "type": "string"
        }
      ],
      "name": "getProjectDependencies",
      "outputs": [
        {
          "components": [
            {
              "internalType": "string",
              "name": "dependencyProjectId",
              "type": "string"
            },
            {
              "internalType": "uint256",
              "name": "royaltyPercentage",
              "type": "uint256"
            },
            {
              "internalType": "uint256",
              "name": "fixedRoyaltyETH",
              "type": "uint256"
            },
            {
              "internalType": "uint256",
              "name": "fixedRoyaltyUSDC",
              "type": "uint256"
            }
          ],
          "internalType": "struct ClayRoyalty.LibraryDependency[]",
          "name": "",
          "type": "tuple[]"
        }
      ],
      "stateMutability": "view",
      "type": "function"
    },
    {
      "inputs": [],
      "name": "libraryContract",
      "outputs": [
        {
          "internalType": "contract IClayLibrary",
          "name": "",
          "type": "address"
        }
      ],
      "stateMutability": "view",
      "type": "function"
    },
    {
      "inputs": [],
      "name": "owner",
      "outputs": [
        {
          "internalType": "address",
          "name": "",
          "type": "address"
        }
      ],
      "stateMutability": "view",
      "type": "function"
    },
    {
      "inputs": [
        {
          "internalType": "address",
          "name": "",
          "type": "address"
        }
      ],
      "name": "pendingRoyaltiesETH",
      "outputs": [
        {
          "internalType": "uint256",
          "name": "",
          "type": "uint256"
        }
      ],
      "stateMutability": "view",
      "type": "function"
    },
    {
      "inputs": [
        {
          "internalType": "address",
          "name": "",
          "type": "address"
        }
      ],
      "name": "pendingRoyaltiesUSDC",
      "outputs": [
        {
          "internalType": "uint256",
          "name": "",
          "type": "uint256"
        }
      ],
      "stateMutability": "view",
      "type": "function"
    },
    {
      "inputs": [
        {
          "internalType": "string",
          "name": "",
          "type": "string"
        }
      ],
      "name": "projectRoyalties",
      "outputs": [
        {
          "internalType": "string",
          "name": "projectId",
          "type": "string"
        },
        {
          "internalType": "bool",
          "name": "hasRoyalties",
          "type": "bool"
        }
      ],
      "stateMutability": "view",
      "type": "function"
    },
    {
      "inputs": [
        {
          "internalType": "string",
          "name": "projectId",
          "type": "string"
        },
        {
          "internalType": "uint256",
          "name": "price",
          "type": "uint256"
        },
        {
          "internalType": "enum ClayRoyalty.PaymentToken",
          "name": "paymentToken",
          "type": "uint8"
        }
      ],
      "name": "recordRoyalties",
      "outputs": [],
      "stateMutability": "payable",
      "type": "function"
    },
    {
      "inputs": [
        {
          "internalType": "string",
          "name": "projectId",
          "type": "string"
        },
        {
          "internalType": "string[]",
          "name": "dependencyProjectIds",
          "type": "string[]"
        }
      ],
      "name": "registerProjectRoyalties",
      "outputs": [],
      "stateMutability": "nonpayable",
      "type": "function"
    },
    {
      "inputs": [],
      "name": "renounceOwnership",
      "outputs": [],
      "stateMutability": "nonpayable",
      "type": "function"
    },
    {
      "inputs": [
        {
          "internalType": "address",
          "name": "_libraryContract",
          "type": "address"
        }
      ],
      "name": "setLibraryContract",
      "outputs": [],
      "stateMutability": "nonpayable",
      "type": "function"
    },
    {
      "inputs": [
        {
          "internalType": "string",
          "name": "",
          "type": "string"
        }
      ],
      "name": "totalRoyaltiesPaidETH",
      "outputs": [
        {
          "internalType": "uint256",
          "name": "",
          "type": "uint256"
        }
      ],
      "stateMutability": "view",
      "type": "function"
    },
    {
      "inputs": [
        {
          "internalType": "string",
          "name": "",
          "type": "string"
        }
      ],
      "name": "totalRoyaltiesPaidUSDC",
      "outputs": [
        {
          "internalType": "uint256",
          "name": "",
          "type": "uint256"
        }
      ],
      "stateMutability": "view",
      "type": "function"
    },
    {
      "inputs": [
        {
          "internalType": "address",
          "name": "newOwner",
          "type": "address"
        }
      ],
      "name": "transferOwnership",
      "outputs": [],
      "stateMutability": "nonpayable",
      "type": "function"
    },
    {
      "inputs": [],
      "name": "usdcToken",
      "outputs": [
        {
          "internalType": "contract IERC20",
          "name": "",
          "type": "address"
        }
      ],
      "stateMutability": "view",
      "type": "function"
    },
    {
      "stateMutability": "payable",
      "type": "receive"
    }
  ],
  "bytecode": "0x60a0346100f957601f611b8138819003918201601f19168301916001600160401b038311848410176100fe578084926020946040528339810103126100f957516001600160a01b0390818116908190036100f95733156100e05760005460018060a01b0319903382821617600055604051933391167f8be0079c531659141344cd1fd0a4f28419497f9722a3daafe3b4186f6b6457e0600080a36001805573833589fcd6edb6e08f4c7c32d4f71b54bda029136080526002541617600255611a6c90816101158239608051818181610622015281816113f101526115510152f35b604051631e4fbdf760e01b815260006004820152602490fd5b600080fd5b634e487b7160e01b600052604160045260246000fdfe608080604052600436101561001d575b50361561001b57600080fd5b005b60003560e01c908163024fa0d6146115805750806311eac8551461153b578063141b5f02146114fd5780631ed6c5991461138a57806330676af614611341578063463b08db146113245780634aa8a12d146112b157806350fd8e71146111725780635bf4b5c414611134578063715018a6146110db57806373a6fe891461107f5780638da5cb5b14611056578063902509c214610f48578063956456d914610efd578063b1ee838e146109f1578063b3cd4254146109d4578063bb09d9b7146109a5578063c578769014610215578063ce0769c5146101ec578063f2fde38b1461015c5763f8a76dfb14610111573861000f565b34610157576020366003190112610157576004356001600160401b0381116101575761014b6101466040923690600401611622565b6118ae565b82519182526020820152f35b600080fd5b34610157576020366003190112610157576004356001600160a01b03818116918290036101575761018b6117a8565b81156101d357600054826bffffffffffffffffffffffff60a01b821617600055167f8be0079c531659141344cd1fd0a4f28419497f9722a3daafe3b4186f6b6457e0600080a3005b604051631e4fbdf760e01b815260006004820152602490fd5b34610157576000366003190112610157576002546040516001600160a01b039091168152602090f35b6060366003190112610157576004356001600160401b03811161015757610240903690600401611622565b60443590600282101561015757610255611a13565b604051602081835161026a8183858801611669565b810160058152030190209160ff60028401541615610960576105cb573415610598576001918201805460025491936000939290916001600160a01b03918216855b8281106104e3575050508334106104a6576000825b610370575b50505081925060206102e4918160405193828580945193849201611669565b81016006815203019020558034116102ff575b505b60018055005b340334811161035a57600080808093335af16103196119e3565b501561032557806102f7565b60405162461bcd60e51b815260206004820152600d60248201526c1499599d5b990819985a5b1959609a1b6044820152606490fd5b634e487b7160e01b600052601160045260246000fd5b85548110156104a15761038c610386828861180d565b50611849565b906103bc60208460025416845190604051808095819463d55a772d60e01b8352866004840152602483019061176c565b03915afa908115610495576103f1938591600093610461575b50604001519182151580610456575b6103f7575b5050506117d4565b826102c0565b169081600052600360205260406000206104128282546118a1565b90557fcb9f559e28915be49dcceef3fd0e6953281bdd4efe058dff26dd513ca503799e604061044089611829565b92815190815260006020820152a38783816103e9565b5081811615156103e4565b60409193506104879060203d60201161048e575b61047f81836115e6565b810190611882565b92906103d5565b503d610475565b6040513d6000823e3d90fd5b6102c5565b60405162461bcd60e51b8152602060048201526015602482015274125b9cdd59999a58da595b9d08115512081cd95b9d605a1b6044820152606490fd5b6105186104f3610386838b61180d565b602081516040518094819263d55a772d60e01b8352846004840152602483019061176c565b0381875afa91821561049557600092610574575b506040015190858215159182610568575b5050610553575b5061054e906117d4565b6102ab565b6105619061054e92986118a1565b9690610544565b1615159050858b61053d565b60409192506105919060203d60201161048e5761047f81836115e6565b919061052c565b60405162461bcd60e51b815260206004820152600b60248201526a139bc8115512081cd95b9d60aa1b6044820152606490fd5b3461091057600182015460025460009291906001600160a01b0316835b828110610878575050508115610828576040516323b872dd60e01b81523360048201523060248201526044810183905260208160648160007f00000000000000000000000000000000000000000000000000000000000000006001600160a01b03165af1908115610495576000916107f9575b50156107b55760005b600184015481101561078857806106846103866106b6936001880161180d565b602060018060a01b0360025416825190604051808097819463d55a772d60e01b8352866004840152602483019061176c565b03915afa908115610495576106e893600092610764575b50606001519081151580610752575b6106ed575b50506117d4565b610664565b60018060a01b031690816000526004602052604060002061070f8282546118a1565b90557fcb9f559e28915be49dcceef3fd0e6953281bdd4efe058dff26dd513ca503799e604061073d87611829565b92815190600082526020820152a385806106e1565b506001600160a01b03811615156106dc565b60609192506107819060203d60201161048e5761047f81836115e6565b91906106cd565b506107a59192506020908160405193828580945193849201611669565b81016007815203019020556102f9565b606460405162461bcd60e51b815260206004820152602060248201527f55534443207472616e7366657220746f20636f6e7472616374206661696c65646044820152fd5b61081b915060203d602011610821575b61081381836115e6565b8101906119cb565b8461065b565b503d610809565b60405162461bcd60e51b815260206004820152602260248201527f4e6f205553444320726f79616c7469657320666f7220746869732070726f6a6560448201526118dd60f21b6064820152608490fd5b61088b6104f36103868360018a0161180d565b0381875afa918215610495576000926108ec575b50606001519081151590816108d9575b506108c4575b506108bf906117d4565b6105e8565b6108d2906108bf92966118a1565b94906108b5565b6001600160a01b031615159050886108af565b60609192506109099060203d60201161048e5761047f81836115e6565b919061089f565b60405162461bcd60e51b815260206004820152602260248201527f446f206e6f742073656e642045544820666f72205553444320726f79616c7469604482015261657360f01b6064820152608490fd5b60405162461bcd60e51b815260206004820152601d60248201527f4e6f20726f79616c7469657320666f7220746869732070726f6a6563740000006044820152606490fd5b3461015757600036600319011261015757602060405173833589fcd6edb6e08f4c7c32d4f71b54bda029138152f35b346101575760003660031901126101575760206040516127108152f35b34610157576040366003190112610157576004356001600160401b03811161015757610a21903690600401611622565b6024356001600160401b0381116101575736602382011215610157578060040135610a4b81611791565b91610a5960405193846115e6565b8183526024602084019260051b820101903682116101575760248101925b828410610ece57858560405160ff600284519260208181880195610a9c818389611669565b81016005815203019020015416610e89576020610ac491604051809381928751928391611669565b8101600581520301902082516001600160401b038111610d3257610ae8825461168c565b601f8111610e41575b50806020601f8211600114610dda57600091610dcf575b508160011b916000199060031b1c19161781555b60028101805460ff1916600117905560005b8251811015610d9757600254610b78906040906001600160a01b0316610b5484876117e3565b51908251808095819463edd9136760e01b835260206004840152602483019061176c565b03915afa801561049557600091600091610d5e575b50610b9883866117e3565b519160405192610ba7846115cb565b8352612710602084015260408301526060820152600183015468010000000000000000811015610d3257806001610be7920160018601556001850161180d565b919091610d485780518051906001600160401b038211610d3257610c0b845461168c565b601f8111610cee575b50602090601f8311600114610c7b579282600393606093610c6b989796600092610c70575b50508160011b9160001990861b1c19161784555b602081015160018501556040810151600285015501519101556117d4565b610b2e565b015190508b80610c39565b908460005260206000209160005b601f1985168110610cd6575083606093610c6b98979693600193600397601f19811610610cbe575b505050811b018455610c4d565b015160001983881b60f8161c191690558b8080610cb1565b91926020600181928685015181550194019201610c89565b846000526020600020601f840160051c810160208510610d2b575b601f830160051c82018110610d1f575050610c14565b60008155600101610d09565b5080610d09565b634e487b7160e01b600052604160045260246000fd5b634e487b7160e01b600052600060045260246000fd5b9150506040813d604011610d8f575b81610d7a604093836115e6565b81010312610157576020815191015186610b8d565b3d9150610d6d565b82517f92da81cc62c0efa31ecf38ecbdd2fb28add3e9af1063dde557cb388d8f9b3ef26020610dc587611829565b92604051908152a2005b905084015185610b08565b91508260005260206000206000925b601f1983168410610e29576001935082601f19811610610e10575b5050811b018155610b1c565b86015160001960f88460031b161c191690558580610e04565b86810151825560209384019360019092019101610de9565b826000526020600020601f830160051c81019160208410610e7f575b601f0160051c01905b818110610e735750610af1565b60008155600101610e66565b9091508190610e5d565b60405162461bcd60e51b815260206004820152601c60248201527f526f79616c7469657320616c72656164792072656769737465726564000000006044820152606490fd5b83356001600160401b03811161015757602091610ef2839260243691870101611622565b815201930192610a77565b34610157576020366003190112610157576004356001600160a01b0381169081900361015757610f2b6117a8565b6bffffffffffffffffffffffff60a01b6002541617600255600080f35b3461015757600036600319011261015757610f61611a13565b33600052600360205260406000205480156110115733600052600360205260006040812055600080808084335af1610f976119e3565b5015610fd657604051908152600060208201527f6fe778711f06ca052305b633ba1b304f4d71c1523776f2aa3059d8d99f5420de60403392a260018055005b60405162461bcd60e51b8152602060048201526013602482015272115512081d1c985b9cd9995c8819985a5b1959606a1b6044820152606490fd5b60405162461bcd60e51b815260206004820152601860248201527f4e6f2070656e64696e672045544820726f79616c7469657300000000000000006044820152606490fd5b34610157576000366003190112610157576000546040516001600160a01b039091168152602090f35b34610157576020366003190112610157576004356001600160401b038111610157576110c860206110b581933690600401611622565b8160405193828580945193849201611669565b8101600781520301902054604051908152f35b34610157576000366003190112610157576110f46117a8565b600080546001600160a01b0319811682556001600160a01b03167f8be0079c531659141344cd1fd0a4f28419497f9722a3daafe3b4186f6b6457e08280a3005b34610157576020366003190112610157576004356001600160a01b038116908190036101575760005260046020526020604060002054604051908152f35b3461015757602080600319360112610157576004356001600160401b038111610157576111a3903690600401611622565b90806111b86040519384815193849201611669565b8201600581528282600194859303019020018054916111d683611791565b926111e460405194856115e6565b8084528184018093600052826000206000915b83831061128c57505050506040519384938285019083865251809152604085019260408260051b87010194936000905b8382106112345787870388f35b918496819592949698508190603f198b820301855289519061125e8251608080845283019061176c565b9183810151848301526040810151604083015260608091015191015298019201920187969593919492611227565b96600485829798969961129e85611849565b81520192019201919096939594966111f7565b34610157576020366003190112610157576004356001600160401b038111610157576112e960206110b5611318933690600401611622565b8101600581520301902060ff6002611300836116c6565b9201541660405192839260408452604084019061176c565b90151560208301520390f35b346101575760003660031901126101575760206040516103e88152f35b34610157576020366003190112610157576004356001600160401b0381116101575761137760206110b581933690600401611622565b8101600681520301902054604051908152f35b34610157576000366003190112610157576113a3611a13565b3360005260206004815260406000205480156114b85733600052600482526000604081205560405163a9059cbb60e01b81523360048201528160248201528281604481600060018060a01b037f0000000000000000000000000000000000000000000000000000000000000000165af19081156104955760009161149b575b501561145f5760405191600083528201527f6fe778711f06ca052305b633ba1b304f4d71c1523776f2aa3059d8d99f5420de60403392a260018055005b60405162461bcd60e51b81526004810183905260146024820152731554d110c81d1c985b9cd9995c8819985a5b195960621b6044820152606490fd5b6114b29150833d85116108215761081381836115e6565b83611422565b60405162461bcd60e51b815260048101839052601960248201527f4e6f2070656e64696e67205553444320726f79616c74696573000000000000006044820152606490fd5b34610157576020366003190112610157576004356001600160a01b038116908190036101575760005260036020526020604060002054604051908152f35b34610157576000366003190112610157576040517f00000000000000000000000000000000000000000000000000000000000000006001600160a01b03168152602090f35b34610157576020366003190112610157576004356001600160a01b03811691908290036101575760409160005260036020528160002054600460205282600020549082526020820152f35b608081019081106001600160401b03821117610d3257604052565b90601f801991011681019081106001600160401b03821117610d3257604052565b6001600160401b038111610d3257601f01601f191660200190565b81601f820112156101575780359061163982611607565b9261164760405194856115e6565b8284526020838301011161015757816000926020809301838601378301015290565b60005b83811061167c5750506000910152565b818101518382015260200161166c565b90600182811c921680156116bc575b60208310146116a657565b634e487b7160e01b600052602260045260246000fd5b91607f169161169b565b90604051918260008254926116da8461168c565b9081845260019485811690816000146117495750600114611706575b5050611704925003836115e6565b565b9093915060005260209081600020936000915b818310611731575050611704935082010138806116f6565b85548884018501529485019487945091830191611719565b91505061170494506020925060ff191682840152151560051b82010138806116f6565b9060209161178581518092818552858086019101611669565b601f01601f1916010190565b6001600160401b038111610d325760051b60200190565b6000546001600160a01b031633036117bc57565b60405163118cdaa760e01b8152336004820152602490fd5b600019811461035a5760010190565b80518210156117f75760209160051b010190565b634e487b7160e01b600052603260045260246000fd5b80548210156117f75760005260206000209060021b0190600090565b61184190602060405192828480945193849201611669565b810103902090565b90604051611856816115cb565b606060038294611865816116c6565b845260018101546020850152600281015460408501520154910152565b9081602091031261015757516001600160a01b03811681036101575790565b9190820180921161035a57565b9060008080936040805182818094516118cd8160209788809601611669565b810160058152030190209160ff600284015416156119c1576001909201805460025490936001600160a01b0391821692865b8681106119125750505050505050509190565b61191f610386828461180d565b61194584825189518093819263d55a772d60e01b8352846004840152602483019061176c565b03818a5afa9081156119b7579086918b9161199a575b5016611971575b5061196c906117d4565b6118ff565b9861196c919b606061198a611993938a8e0151906118a1565b9b0151906118a1565b9a90611962565b6119b19150863d881161048e5761047f81836115e6565b3861195b565b88513d8c823e3d90fd5b5050509250508190565b90816020910312610157575180151581036101575790565b3d15611a0e573d906119f482611607565b91611a0260405193846115e6565b82523d6000602084013e565b606090565b600260015414611a24576002600155565b604051633ee5aeb560e01b8152600490fdfea26469706673582212203afae32459eae26576e68e8508acce76c68162d32d8f36482e3a138d59197f2664736f6c63430008140033",
  "linkReferences": {},
  "deployedLinkReferences": {}
}