{
  "_format": "hh-sol-artifact-1",
  "contractName": "ClayRoyalty",
  "sourceName": "ClayRoyalty.sol",
  "abi": [
    {
      "inputs": [
        {
          "internalType": "address",
          "name": "_libraryContract",
          "type": "address"
        }
      ],
      "stateMutability": "nonpayable",
      "type": "constructor"
    },
    {
      "inputs": [
        {
          "internalType": "address",
          "name": "owner",
          "type": "address"
        }
      ],
      "name": "OwnableInvalidOwner",
      "type": "error"
    },
    {
      "inputs": [
        {
          "internalType": "address",
          "name": "account",
          "type": "address"
        }
      ],
      "name": "OwnableUnauthorizedAccount",
      "type": "error"
    },
    {
      "inputs": [],
      "name": "ReentrancyGuardReentrantCall",
      "type": "error"
    },
    {
      "anonymous": false,
      "inputs": [
        {
          "indexed": true,
          "internalType": "address",
          "name": "previousOwner",
          "type": "address"
        },
        {
          "indexed": true,
          "internalType": "address",
          "name": "newOwner",
          "type": "address"
        }
      ],
      "name": "OwnershipTransferred",
      "type": "event"
    },
    {
      "anonymous": false,
      "inputs": [
        {
          "indexed": true,
          "internalType": "string",
          "name": "projectId",
          "type": "string"
        },
        {
          "indexed": false,
          "internalType": "uint256",
          "name": "dependencyCount",
          "type": "uint256"
        }
      ],
      "name": "RoyaltiesRegistered",
      "type": "event"
    },
    {
      "anonymous": false,
      "inputs": [
        {
          "indexed": true,
          "internalType": "address",
          "name": "claimant",
          "type": "address"
        },
        {
          "indexed": false,
          "internalType": "uint256",
          "name": "amountETH",
          "type": "uint256"
        },
        {
          "indexed": false,
          "internalType": "uint256",
          "name": "amountUSDC",
          "type": "uint256"
        }
      ],
      "name": "RoyaltyClaimed",
      "type": "event"
    },
    {
      "anonymous": false,
      "inputs": [
        {
          "indexed": true,
          "internalType": "string",
          "name": "projectId",
          "type": "string"
        },
        {
          "indexed": true,
          "internalType": "address",
          "name": "recipient",
          "type": "address"
        },
        {
          "indexed": false,
          "internalType": "uint256",
          "name": "amountETH",
          "type": "uint256"
        },
        {
          "indexed": false,
          "internalType": "uint256",
          "name": "amountUSDC",
          "type": "uint256"
        }
      ],
      "name": "RoyaltyRecorded",
      "type": "event"
    },
    {
      "inputs": [],
      "name": "PERCENTAGE_DENOMINATOR",
      "outputs": [
        {
          "internalType": "uint256",
          "name": "",
          "type": "uint256"
        }
      ],
      "stateMutability": "view",
      "type": "function"
    },
    {
      "inputs": [],
      "name": "ROYALTY_PERCENTAGE",
      "outputs": [
        {
          "internalType": "uint256",
          "name": "",
          "type": "uint256"
        }
      ],
      "stateMutability": "view",
      "type": "function"
    },
    {
      "inputs": [],
      "name": "USDC_ADDRESS",
      "outputs": [
        {
          "internalType": "address",
          "name": "",
          "type": "address"
        }
      ],
      "stateMutability": "view",
      "type": "function"
    },
    {
      "inputs": [
        {
          "internalType": "string",
          "name": "projectId",
          "type": "string"
        }
      ],
      "name": "calculateTotalRoyalties",
      "outputs": [
        {
          "internalType": "uint256",
          "name": "totalETH",
          "type": "uint256"
        },
        {
          "internalType": "uint256",
          "name": "totalUSDC",
          "type": "uint256"
        }
      ],
      "stateMutability": "view",
      "type": "function"
    },
    {
      "inputs": [],
      "name": "claimRoyaltiesETH",
      "outputs": [],
      "stateMutability": "nonpayable",
      "type": "function"
    },
    {
      "inputs": [],
      "name": "claimRoyaltiesUSDC",
      "outputs": [],
      "stateMutability": "nonpayable",
      "type": "function"
    },
    {
      "inputs": [
        {
          "internalType": "address",
          "name": "account",
          "type": "address"
        }
      ],
      "name": "getPendingRoyalties",
      "outputs": [
        {
          "internalType": "uint256",
          "name": "eth",
          "type": "uint256"
        },
        {
          "internalType": "uint256",
          "name": "usdc",
          "type": "uint256"
        }
      ],
      "stateMutability": "view",
      "type": "function"
    },
    {
      "inputs": [
        {
          "internalType": "string",
          "name": "projectId",
          "type": "string"
        }
      ],
      "name": "getProjectDependencies",
      "outputs": [
        {
          "components": [
            {
              "internalType": "string",
              "name": "dependencyProjectId",
              "type": "string"
            },
            {
              "internalType": "uint256",
              "name": "royaltyPercentage",
              "type": "uint256"
            },
            {
              "internalType": "uint256",
              "name": "fixedRoyaltyETH",
              "type": "uint256"
            },
            {
              "internalType": "uint256",
              "name": "fixedRoyaltyUSDC",
              "type": "uint256"
            }
          ],
          "internalType": "struct ClayRoyalty.LibraryDependency[]",
          "name": "",
          "type": "tuple[]"
        }
      ],
      "stateMutability": "view",
      "type": "function"
    },
    {
      "inputs": [],
      "name": "libraryContract",
      "outputs": [
        {
          "internalType": "contract IClayLibrary",
          "name": "",
          "type": "address"
        }
      ],
      "stateMutability": "view",
      "type": "function"
    },
    {
      "inputs": [],
      "name": "owner",
      "outputs": [
        {
          "internalType": "address",
          "name": "",
          "type": "address"
        }
      ],
      "stateMutability": "view",
      "type": "function"
    },
    {
      "inputs": [
        {
          "internalType": "address",
          "name": "",
          "type": "address"
        }
      ],
      "name": "pendingRoyaltiesETH",
      "outputs": [
        {
          "internalType": "uint256",
          "name": "",
          "type": "uint256"
        }
      ],
      "stateMutability": "view",
      "type": "function"
    },
    {
      "inputs": [
        {
          "internalType": "address",
          "name": "",
          "type": "address"
        }
      ],
      "name": "pendingRoyaltiesUSDC",
      "outputs": [
        {
          "internalType": "uint256",
          "name": "",
          "type": "uint256"
        }
      ],
      "stateMutability": "view",
      "type": "function"
    },
    {
      "inputs": [
        {
          "internalType": "string",
          "name": "",
          "type": "string"
        }
      ],
      "name": "projectRoyalties",
      "outputs": [
        {
          "internalType": "string",
          "name": "projectId",
          "type": "string"
        },
        {
          "internalType": "bool",
          "name": "hasRoyalties",
          "type": "bool"
        }
      ],
      "stateMutability": "view",
      "type": "function"
    },
    {
      "inputs": [
        {
          "internalType": "string",
          "name": "projectId",
          "type": "string"
        },
        {
          "internalType": "uint256",
          "name": "price",
          "type": "uint256"
        },
        {
          "internalType": "enum ClayRoyalty.PaymentToken",
          "name": "paymentToken",
          "type": "uint8"
        }
      ],
      "name": "recordRoyalties",
      "outputs": [],
      "stateMutability": "payable",
      "type": "function"
    },
    {
      "inputs": [
        {
          "internalType": "string",
          "name": "projectId",
          "type": "string"
        },
        {
          "internalType": "string[]",
          "name": "dependencyProjectIds",
          "type": "string[]"
        }
      ],
      "name": "registerProjectRoyalties",
      "outputs": [],
      "stateMutability": "nonpayable",
      "type": "function"
    },
    {
      "inputs": [],
      "name": "renounceOwnership",
      "outputs": [],
      "stateMutability": "nonpayable",
      "type": "function"
    },
    {
      "inputs": [
        {
          "internalType": "address",
          "name": "_libraryContract",
          "type": "address"
        }
      ],
      "name": "setLibraryContract",
      "outputs": [],
      "stateMutability": "nonpayable",
      "type": "function"
    },
    {
      "inputs": [
        {
          "internalType": "address",
          "name": "newOwner",
          "type": "address"
        }
      ],
      "name": "transferOwnership",
      "outputs": [],
      "stateMutability": "nonpayable",
      "type": "function"
    },
    {
      "inputs": [],
      "name": "usdcToken",
      "outputs": [
        {
          "internalType": "contract IERC20",
          "name": "",
          "type": "address"
        }
      ],
      "stateMutability": "view",
      "type": "function"
    },
    {
      "stateMutability": "payable",
      "type": "receive"
    }
  ],
  "bytecode": "0x60a0346100f257601f61169938819003918201601f19168301916001600160401b038311848410176100f7578084926020946040528339810103126100f257516001600160a01b0390818116908190036100f25733156100d95760005460018060a01b0319903382821617600055604051933391167f8be0079c531659141344cd1fd0a4f28419497f9722a3daafe3b4186f6b6457e0600080a36001805573833589fcd6edb6e08f4c7c32d4f71b54bda02913608052600254161760025561158b908161010e8239608051818181610fa901526111220152f35b604051631e4fbdf760e01b815260006004820152602490fd5b600080fd5b634e487b7160e01b600052604160045260246000fdfe608080604052600436101561001d575b50361561001b57600080fd5b005b60003560e01c908163024fa0d6146111515750806311eac8551461110c578063141b5f02146110ce5780631ed6c59914610f42578063463b08db14610f255780634aa8a12d14610e9f57806350fd8e7114610d605780635bf4b5c414610d22578063715018a614610cc95780638da5cb5b14610ca0578063902509c214610b70578063956456d914610b25578063b1ee838e14610613578063b3cd4254146105f6578063bb09d9b7146105c7578063c5787690146101ff578063ce0769c5146101d6578063f2fde38b146101465763f8a76dfb146100fb573861000f565b34610141576020366003190112610141576004356001600160401b0381116101415761013561013060409236906004016111f3565b611476565b82519182526020820152f35b600080fd5b34610141576020366003190112610141576004356001600160a01b038181169182900361014157610175611379565b81156101bd57600054826bffffffffffffffffffffffff60a01b821617600055167f8be0079c531659141344cd1fd0a4f28419497f9722a3daafe3b4186f6b6457e0600080a3005b604051631e4fbdf760e01b815260006004820152602490fd5b34610141576000366003190112610141576002546040516001600160a01b039091168152602090f35b606080600319360112610141576004356001600160401b0381116101415761022b9036906004016111f3565b90604435916002918284101561014157610243611532565b604051908183516020938161025c869383858a0161123a565b810160058152030190209460ff85870154161561058257610402575034156103d057600193840193926000845b61029b575b5050505050505b60018055005b85548110156103cb57806102bb6102b56102ec93896113f4565b50611430565b60018060a01b038581865416835190604051808098819463d55a772d60e01b8352866004840152602483019061133d565b03915afa9182156103bf5761031f9460009361038d575b50604001519182151580610382575b610325575b5050506113a5565b84610289565b16908160005260038652604060002061033f828254611469565b90557fcb9f559e28915be49dcceef3fd0e6953281bdd4efe058dff26dd513ca503799e604061036d89611410565b928151908152600089820152a3878080610317565b508181161515610312565b60409193506103b190883d8a116103b8575b6103a981836111b7565b810190611513565b9290610303565b503d61039f565b6040513d6000823e3d90fd5b61028e565b6064906040519062461bcd60e51b82526004820152600b60248201526a139bc8115512081cd95b9d60aa1b6044820152fd5b3461053257600194850194936000855b610423575b50505050505050610295565b865481101561052d576104396102b582896113f4565b9061046e60018060a01b038681865416855190604051808096819463d55a772d60e01b8352866004840152602483019061133d565b03915afa9182156103bf576104a094879160009461050e575b5001519182151580610503575b6104a6575050506113a5565b85610412565b1690816000526004875260406000206104c0828254611469565b90557fcb9f559e28915be49dcceef3fd0e6953281bdd4efe058dff26dd513ca503799e60406104ee8a611410565b92815190600082528a820152a3888080610317565b508181161515610494565b610526919450893d8b116103b8576103a981836111b7565b928c610487565b610417565b60405162461bcd60e51b815260048101839052602260248201527f446f206e6f742073656e642045544820666f72205553444320726f79616c7469604482015261657360f01b6064820152608490fd5b60405162461bcd60e51b815260048101849052601d60248201527f4e6f20726f79616c7469657320666f7220746869732070726f6a6563740000006044820152606490fd5b3461014157600036600319011261014157602060405173833589fcd6edb6e08f4c7c32d4f71b54bda029138152f35b346101415760003660031901126101415760206040516127108152f35b34610141576040366003190112610141576004356001600160401b038111610141576106439036906004016111f3565b602435906001600160401b038211610141573660238301121561014157816004013561066e81611362565b9261067c60405194856111b7565b8184526024602085019260051b820101903682116101415760248101925b828410610af657858560405160ff6002835192602081818701956106bf81838961123a565b81016005815203019020015416610ab15760206106e79160405180938192865192839161123a565b81016005815203019020918151926001600160401b03841161095c5761070d815461125d565b601f8111610a69575b50602093601f8111600114610a045780919293946000916109f9575b508160011b916000199060031b1c19161781555b60028101805460ff1916600117905560005b82518110156109c1576002546107a2906040906001600160a01b031661077e84876113ca565b51908251808095819463edd9136760e01b835260206004840152602483019061133d565b03915afa80156103bf57600091600091610988575b506107c283866113ca565b5191604051926107d18461119c565b835261271060208401526040830152606082015260018301546801000000000000000081101561095c5780600161081192016001860155600185016113f4565b9190916109725780518051906001600160401b03821161095c57610835845461125d565b601f8111610918575b50602090601f83116001146108a557928260039360609361089598979660009261089a575b50508160011b9160001990861b1c19161784555b602081015160018501556040810151600285015501519101556113a5565b610758565b015190508b80610863565b908460005260206000209160005b601f198516811061090057508360609361089598979693600193600397601f198116106108e8575b505050811b018455610877565b015160001983881b60f8161c191690558b80806108db565b919260206001819286850151815501940192016108b3565b846000526020600020601f840160051c810160208510610955575b601f830160051c8201811061094957505061083e565b60008155600101610933565b5080610933565b634e487b7160e01b600052604160045260246000fd5b634e487b7160e01b600052600060045260246000fd5b9150506040813d6040116109b9575b816109a4604093836111b7565b810103126101415760208151910151866107b7565b3d9150610997565b82517f92da81cc62c0efa31ecf38ecbdd2fb28add3e9af1063dde557cb388d8f9b3ef260206109ef87611410565b92604051908152a2005b905084015185610732565b601f198116948260005260206000209060005b878110610a5157508260019495969710610a38575b5050811b018155610746565b86015160001960f88460031b161c191690558580610a2c565b9091602060018192858a015181550193019101610a17565b816000526020600020601f860160051c81019160208710610aa7575b601f0160051c01905b818110610a9b5750610716565b60008155600101610a8e565b9091508190610a85565b60405162461bcd60e51b815260206004820152601c60248201527f526f79616c7469657320616c72656164792072656769737465726564000000006044820152606490fd5b83356001600160401b03811161014157602091610b1a8392602436918701016111f3565b81520193019261069a565b34610141576020366003190112610141576004356001600160a01b0381169081900361014157610b53611379565b6bffffffffffffffffffffffff60a01b6002541617600255600080f35b3461014157600036600319011261014157610b89611532565b33600052602060038152604060002054908115610c5c57336000526003815260006040812055600080808085335af13d15610c57573d610bc8816111d8565b90610bd660405192836111b7565b81526000833d92013e5b15610c1d576000906040519283528201527f6fe778711f06ca052305b633ba1b304f4d71c1523776f2aa3059d8d99f5420de60403392a260018055005b6064906040519062461bcd60e51b825260048201526013602482015272115512081d1c985b9cd9995c8819985a5b1959606a1b6044820152fd5b610be0565b6064906040519062461bcd60e51b82526004820152601860248201527f4e6f2070656e64696e672045544820726f79616c7469657300000000000000006044820152fd5b34610141576000366003190112610141576000546040516001600160a01b039091168152602090f35b3461014157600036600319011261014157610ce2611379565b600080546001600160a01b0319811682556001600160a01b03167f8be0079c531659141344cd1fd0a4f28419497f9722a3daafe3b4186f6b6457e08280a3005b34610141576020366003190112610141576004356001600160a01b038116908190036101415760005260046020526020604060002054604051908152f35b3461014157602080600319360112610141576004356001600160401b03811161014157610d919036906004016111f3565b9080610da6604051938481519384920161123a565b820160058152828260019485930301902001805491610dc483611362565b92610dd260405194856111b7565b8084528184018093600052826000206000915b838310610e7a57505050506040519384938285019083865251809152604085019260408260051b87010194936000905b838210610e225787870388f35b918496819592949698508190603f198b8203018552895190610e4c8251608080845283019061133d565b9183810151848301526040810151604083015260608091015191015298019201920187969593919492610e15565b966004858297989699610e8c85611430565b8152019201920191909693959496610de5565b34610141576020366003190112610141576004356001600160401b03811161014157610eea6020610ed7610f199336906004016111f3565b816040519382858094519384920161123a565b8101600581520301902060ff6002610f0183611297565b9201541660405192839260408452604084019061133d565b90151560208301520390f35b346101415760003660031901126101415760206040516103e88152f35b3461014157600036600319011261014157610f5b611532565b3360005260206004815260406000205480156110895733600052600482526000604081205560405163a9059cbb60e01b81523360048201528160248201528281604481600060018060a01b037f0000000000000000000000000000000000000000000000000000000000000000165af19081156103bf57600091611053575b50156110175760405191600083528201527f6fe778711f06ca052305b633ba1b304f4d71c1523776f2aa3059d8d99f5420de60403392a260018055005b60405162461bcd60e51b81526004810183905260146024820152731554d110c81d1c985b9cd9995c8819985a5b195960621b6044820152606490fd5b90508281813d8311611082575b61106a81836111b7565b81010312610141575180151581036101415783610fda565b503d611060565b60405162461bcd60e51b815260048101839052601960248201527f4e6f2070656e64696e67205553444320726f79616c74696573000000000000006044820152606490fd5b34610141576020366003190112610141576004356001600160a01b038116908190036101415760005260036020526020604060002054604051908152f35b34610141576000366003190112610141576040517f00000000000000000000000000000000000000000000000000000000000000006001600160a01b03168152602090f35b34610141576020366003190112610141576004356001600160a01b03811691908290036101415760409160005260036020528160002054600460205282600020549082526020820152f35b608081019081106001600160401b0382111761095c57604052565b90601f801991011681019081106001600160401b0382111761095c57604052565b6001600160401b03811161095c57601f01601f191660200190565b81601f820112156101415780359061120a826111d8565b9261121860405194856111b7565b8284526020838301011161014157816000926020809301838601378301015290565b60005b83811061124d5750506000910152565b818101518382015260200161123d565b90600182811c9216801561128d575b602083101461127757565b634e487b7160e01b600052602260045260246000fd5b91607f169161126c565b90604051918260008254926112ab8461125d565b90818452600194858116908160001461131a57506001146112d7575b50506112d5925003836111b7565b565b9093915060005260209081600020936000915b8183106113025750506112d5935082010138806112c7565b855488840185015294850194879450918301916112ea565b9150506112d594506020925060ff191682840152151560051b82010138806112c7565b906020916113568151809281855285808601910161123a565b601f01601f1916010190565b6001600160401b03811161095c5760051b60200190565b6000546001600160a01b0316330361138d57565b60405163118cdaa760e01b8152336004820152602490fd5b60001981146113b45760010190565b634e487b7160e01b600052601160045260246000fd5b80518210156113de5760209160051b010190565b634e487b7160e01b600052603260045260246000fd5b80548210156113de5760005260206000209060021b0190600090565b6114289060206040519282848094519384920161123a565b810103902090565b9060405161143d8161119c565b60606003829461144c81611297565b845260018101546020850152600281015460408501520154910152565b919082018092116113b457565b906000809261149560206040928184519382858094519384920161123a565b810160058152030190209060ff6002830154161561150657600160009201908154915b8284106114c757505050509190565b909192956114f86114fe9160606114ef6114e46102b58c886113f4565b98878a015190611469565b97015190611469565b966113a5565b9291906114b8565b5050509050600090600090565b9081602091031261014157516001600160a01b03811681036101415790565b600260015414611543576002600155565b604051633ee5aeb560e01b8152600490fdfea2646970667358221220724c87dcd55785624e1a44dda684f1a44121821447b878ae3f9153acd3ff6e8c64736f6c63430008140033",
  "linkReferences": {},
  "deployedLinkReferences": {}
}